{
  "_format": "hh-sol-artifact-1",
  "contractName": "MockOpportunityPool",
  "sourceName": "contracts/test-contract/MockOpportunityPool.sol",
  "abi": [
    {
      "inputs": [
        {
          "internalType": "address",
          "name": "investorAddress",
          "type": "address"
        },
        {
          "internalType": "address",
          "name": "_investor",
          "type": "address"
        },
        {
          "internalType": "bytes32",
          "name": "_id",
          "type": "bytes32"
        }
      ],
      "name": "addOpportunity",
      "outputs": [],
      "stateMutability": "nonpayable",
      "type": "function"
    },
    {
      "inputs": [
        {
          "internalType": "uint8",
          "name": "_subpoolId",
          "type": "uint8"
        },
        {
          "internalType": "uint256",
          "name": "amount",
          "type": "uint256"
        }
      ],
      "name": "deposit",
      "outputs": [],
      "stateMutability": "nonpayable",
      "type": "function"
    },
    {
      "inputs": [
        {
          "internalType": "address",
          "name": "investorAddress",
          "type": "address"
        },
        {
          "internalType": "address",
          "name": "_investor",
          "type": "address"
        }
      ],
      "name": "getOpportunityOfInvestor",
      "outputs": [
        {
          "internalType": "bytes32[]",
          "name": "",
          "type": "bytes32[]"
        }
      ],
      "stateMutability": "view",
      "type": "function"
    },
    {
      "inputs": [],
      "name": "getSeniorPoolWithdrawableAmount",
      "outputs": [
        {
          "internalType": "uint256",
          "name": "",
          "type": "uint256"
        }
      ],
      "stateMutability": "view",
      "type": "function"
    },
    {
      "inputs": [],
      "name": "getSeniorProfit",
      "outputs": [
        {
          "internalType": "uint256",
          "name": "",
          "type": "uint256"
        }
      ],
      "stateMutability": "view",
      "type": "function"
    },
    {
      "inputs": [],
      "name": "getSeniorTotalDepositable",
      "outputs": [
        {
          "internalType": "uint256",
          "name": "",
          "type": "uint256"
        }
      ],
      "stateMutability": "view",
      "type": "function"
    },
    {
      "inputs": [
        {
          "internalType": "uint256",
          "name": "_nextRepayment",
          "type": "uint256"
        }
      ],
      "name": "increaseNextRepaymentTime",
      "outputs": [],
      "stateMutability": "nonpayable",
      "type": "function"
    },
    {
      "inputs": [
        {
          "internalType": "address",
          "name": "investorAddress",
          "type": "address"
        },
        {
          "internalType": "address",
          "name": "_investor",
          "type": "address"
        },
        {
          "internalType": "bytes32",
          "name": "_id",
          "type": "bytes32"
        }
      ],
      "name": "isExistInInvestor",
      "outputs": [
        {
          "internalType": "bool",
          "name": "",
          "type": "bool"
        }
      ],
      "stateMutability": "view",
      "type": "function"
    },
    {
      "inputs": [
        {
          "internalType": "address",
          "name": "",
          "type": "address"
        }
      ],
      "name": "isStaking",
      "outputs": [
        {
          "internalType": "bool",
          "name": "",
          "type": "bool"
        }
      ],
      "stateMutability": "pure",
      "type": "function"
    },
    {
      "inputs": [],
      "name": "nextRepaymentTime",
      "outputs": [
        {
          "internalType": "uint256",
          "name": "",
          "type": "uint256"
        }
      ],
      "stateMutability": "view",
      "type": "function"
    },
    {
      "inputs": [
        {
          "internalType": "address",
          "name": "investorAddress",
          "type": "address"
        },
        {
          "internalType": "address",
          "name": "_investor",
          "type": "address"
        },
        {
          "internalType": "bytes32",
          "name": "_id",
          "type": "bytes32"
        }
      ],
      "name": "removeOpportunity",
      "outputs": [],
      "stateMutability": "nonpayable",
      "type": "function"
    },
    {
      "inputs": [
        {
          "internalType": "bool",
          "name": "_isWriteOff",
          "type": "bool"
        },
        {
          "internalType": "bytes32",
          "name": "opportunityId",
          "type": "bytes32"
        },
        {
          "internalType": "uint256",
          "name": "_amount",
          "type": "uint256"
        },
        {
          "internalType": "address",
          "name": "_seniorPoolAddress",
          "type": "address"
        }
      ],
      "name": "repayment",
      "outputs": [],
      "stateMutability": "nonpayable",
      "type": "function"
    },
    {
      "inputs": [
        {
          "internalType": "uint256",
          "name": "_seniorPoolWithdrawableAmount",
          "type": "uint256"
        }
      ],
      "name": "setSeniorPoolWithdrawableAmount",
      "outputs": [],
      "stateMutability": "nonpayable",
      "type": "function"
    },
    {
      "inputs": [
        {
          "internalType": "uint256",
          "name": "_seniorProfit",
          "type": "uint256"
        }
      ],
      "name": "setSeniorProfit",
      "outputs": [],
      "stateMutability": "nonpayable",
      "type": "function"
    },
    {
      "inputs": [
        {
          "internalType": "uint256",
          "name": "_seniorTotalDepositable",
          "type": "uint256"
        }
      ],
      "name": "setSeniorTotalDepositable",
      "outputs": [],
      "stateMutability": "nonpayable",
      "type": "function"
    },
    {
      "inputs": [],
      "name": "writeOffOpportunity",
      "outputs": [],
      "stateMutability": "nonpayable",
      "type": "function"
    }
  ],
  "bytecode": "0x608060405234801561001057600080fd5b5061072b806100206000396000f3fe608060405234801561001057600080fd5b50600436106100e05760003560e01c80639f964fe6116100875780639f964fe614610192578063a56bf82a1461019a578063b6612496146101ad578063c29b9918146101c0578063d4d85448146101d3578063d661d320146101e6578063df9fd1c1146101ee578063f4d4c9d7146101f657600080fd5b8063075989a9146100e5578063257c27361461010e57806328d797c21461011057806328e95369146101235780634ebbcff4146101465780636f49712b1461015957806383933a2b1461016d5780638f26582e1461017f575b600080fd5b6100f86100f3366004610475565b610208565b6040516101059190610666565b60405180910390f35b005b61010e61011e3660046104a7565b610292565b6101366101313660046104a7565b6102fa565b6040519015158152602001610105565b61010e610154366004610605565b600355565b610136610167366004610454565b50600190565b6003545b604051908152602001610105565b61010e61018d366004610605565b600255565b600154610171565b61010e6101a83660046104a7565b610386565b61010e6101bb366004610605565b6103b6565b61010e6101ce3660046105be565b6103c6565b61010e6101e1366004610605565b600155565b600254610171565b600054610171565b61010e61020436600461061d565b5050565b604051630336af1560e31b81526001600160a01b03828116600483015260609184918216906319b578a89060240160006040518083038186803b15801561024e57600080fd5b505afa158015610262573d6000803e3d6000fd5b505050506040513d6000823e601f3d908101601f1916820160405261028a91908101906104e2565b949350505050565b604051631bd3b3dd60e31b815283906001600160a01b0382169063de9d9ee8906102c2908690869060040161064d565b600060405180830381600087803b1580156102dc57600080fd5b505af11580156102f0573d6000803e3d6000fd5b5050505050505050565b60405163e954539d60e01b815260009084906001600160a01b0382169063e954539d9061032d908790879060040161064d565b60206040518083038186803b15801561034557600080fd5b505afa158015610359573d6000803e3d6000fd5b505050506040513d601f19601f8201168201806040525081019061037d91906105a2565b95945050505050565b604051635345099160e11b815283906001600160a01b0382169063a68a1322906102c2908690869060040161064d565b6103c081426106aa565b60005550565b604051630387c6d160e31b81528415156004820152602481018490526044810183905281906001600160a01b03821690631c3e368890606401600060405180830381600087803b15801561041957600080fd5b505af115801561042d573d6000803e3d6000fd5b505050505050505050565b80356001600160a01b038116811461044f57600080fd5b919050565b600060208284031215610465578081fd5b61046e82610438565b9392505050565b60008060408385031215610487578081fd5b61049083610438565b915061049e60208401610438565b90509250929050565b6000806000606084860312156104bb578081fd5b6104c484610438565b92506104d260208501610438565b9150604084013590509250925092565b600060208083850312156104f4578182fd5b825167ffffffffffffffff8082111561050b578384fd5b818501915085601f83011261051e578384fd5b815181811115610530576105306106ce565b8060051b604051601f19603f83011681018181108582111715610555576105556106ce565b604052828152858101935084860182860187018a1015610573578788fd5b8795505b83861015610595578051855260019590950194938601938601610577565b5098975050505050505050565b6000602082840312156105b3578081fd5b815161046e816106e4565b600080600080608085870312156105d3578081fd5b84356105de816106e4565b935060208501359250604085013591506105fa60608601610438565b905092959194509250565b600060208284031215610616578081fd5b5035919050565b6000806040838503121561062f578182fd5b823560ff8116811461063f578283fd5b946020939093013593505050565b6001600160a01b03929092168252602082015260400190565b6020808252825182820181905260009190848201906040850190845b8181101561069e57835183529284019291840191600101610682565b50909695505050505050565b600082198211156106c957634e487b7160e01b81526011600452602481fd5b500190565b634e487b7160e01b600052604160045260246000fd5b80151581146106f257600080fd5b5056fea264697066735822122005bb6933b29732765f1d5517a4f3717bb114a0b9dfcb2618edbe3c4c08413c4b64736f6c63430008040033",
  "linkReferences": {},
  "deployedLinkReferences": {}
}