{
  "_format": "hh-sol-artifact-1",
  "contractName": "MockOpportunityPool",
  "sourceName": "contracts/test-contract/MockOpportunityPool.sol",
  "abi": [
    {
      "inputs": [
        {
          "internalType": "address",
          "name": "investorAddress",
          "type": "address"
        },
        {
          "internalType": "address",
          "name": "_investor",
          "type": "address"
        },
        {
          "internalType": "bytes32",
          "name": "_id",
          "type": "bytes32"
        }
      ],
      "name": "addOpportunity",
      "outputs": [],
      "stateMutability": "nonpayable",
      "type": "function"
    },
    {
      "inputs": [
        {
          "internalType": "address",
          "name": "investorAddress",
          "type": "address"
        },
        {
          "internalType": "address",
          "name": "_investor",
          "type": "address"
        }
      ],
      "name": "getOpportunityOfInvestor",
      "outputs": [
        {
          "internalType": "bytes32[]",
          "name": "",
          "type": "bytes32[]"
        }
      ],
      "stateMutability": "view",
      "type": "function"
    },
    {
      "inputs": [
        {
          "internalType": "address",
          "name": "investorAddress",
          "type": "address"
        },
        {
          "internalType": "address",
          "name": "_investor",
          "type": "address"
        },
        {
          "internalType": "bytes32",
          "name": "_id",
          "type": "bytes32"
        }
      ],
      "name": "isExistInInvestor",
      "outputs": [
        {
          "internalType": "bool",
          "name": "",
          "type": "bool"
        }
      ],
      "stateMutability": "view",
      "type": "function"
    },
    {
      "inputs": [
        {
          "internalType": "address",
          "name": "_investor",
          "type": "address"
        }
      ],
      "name": "isStaking",
      "outputs": [
        {
          "internalType": "bool",
          "name": "",
          "type": "bool"
        }
      ],
      "stateMutability": "view",
      "type": "function"
    },
    {
      "inputs": [
        {
          "internalType": "address",
          "name": "investorAddress",
          "type": "address"
        },
        {
          "internalType": "address",
          "name": "_investor",
          "type": "address"
        },
        {
          "internalType": "bytes32",
          "name": "_id",
          "type": "bytes32"
        }
      ],
      "name": "removeOpportunity",
      "outputs": [],
      "stateMutability": "nonpayable",
      "type": "function"
    }
  ],
  "bytecode": "0x608060405234801561001057600080fd5b506104c5806100206000396000f3fe608060405234801561001057600080fd5b50600436106100575760003560e01c8063075989a91461005c57806328d797c21461008557806328e953691461009a5780636f49712b146100bd578063a56bf82a146100d1575b600080fd5b61006f61006a3660046102cf565b6100e4565b60405161007c9190610435565b60405180910390f35b610098610093366004610301565b61016e565b005b6100ad6100a8366004610301565b6101d6565b604051901515815260200161007c565b6100ad6100cb3660046102ae565b50600190565b6100986100df366004610301565b610262565b604051630336af1560e31b81526001600160a01b03828116600483015260609184918216906319b578a89060240160006040518083038186803b15801561012a57600080fd5b505afa15801561013e573d6000803e3d6000fd5b505050506040513d6000823e601f3d908101601f19168201604052610166919081019061033c565b949350505050565b604051631bd3b3dd60e31b815283906001600160a01b0382169063de9d9ee89061019e908690869060040161041c565b600060405180830381600087803b1580156101b857600080fd5b505af11580156101cc573d6000803e3d6000fd5b5050505050505050565b60405163e954539d60e01b815260009084906001600160a01b0382169063e954539d90610209908790879060040161041c565b60206040518083038186803b15801561022157600080fd5b505afa158015610235573d6000803e3d6000fd5b505050506040513d601f19601f8201168201806040525081019061025991906103fc565b95945050505050565b604051635345099160e11b815283906001600160a01b0382169063a68a13229061019e908690869060040161041c565b80356001600160a01b03811681146102a957600080fd5b919050565b6000602082840312156102bf578081fd5b6102c882610292565b9392505050565b600080604083850312156102e1578081fd5b6102ea83610292565b91506102f860208401610292565b90509250929050565b600080600060608486031215610315578081fd5b61031e84610292565b925061032c60208501610292565b9150604084013590509250925092565b6000602080838503121561034e578182fd5b825167ffffffffffffffff80821115610365578384fd5b818501915085601f830112610378578384fd5b81518181111561038a5761038a610479565b8060051b604051601f19603f830116810181811085821117156103af576103af610479565b604052828152858101935084860182860187018a10156103cd578788fd5b8795505b838610156103ef5780518552600195909501949386019386016103d1565b5098975050505050505050565b60006020828403121561040d578081fd5b815180151581146102c8578182fd5b6001600160a01b03929092168252602082015260400190565b6020808252825182820181905260009190848201906040850190845b8181101561046d57835183529284019291840191600101610451565b50909695505050505050565b634e487b7160e01b600052604160045260246000fdfea26469706673582212200b09e359a92c326157f00f4a662ed4a373b80dfd8af300f254ef20c663e7ecb264736f6c63430008040033",
  "linkReferences": {},
  "deployedLinkReferences": {}
}