{
  "_format": "hh-sol-artifact-1",
  "contractName": "DygnifyKeeper",
  "sourceName": "contracts/protocol/DygnifyKeeper.sol",
  "abi": [
    {
      "anonymous": false,
      "inputs": [
        {
          "indexed": false,
          "internalType": "uint8",
          "name": "version",
          "type": "uint8"
        }
      ],
      "name": "Initialized",
      "type": "event"
    },
    {
      "anonymous": false,
      "inputs": [
        {
          "indexed": false,
          "internalType": "address",
          "name": "account",
          "type": "address"
        }
      ],
      "name": "Paused",
      "type": "event"
    },
    {
      "anonymous": false,
      "inputs": [
        {
          "indexed": true,
          "internalType": "bytes32",
          "name": "role",
          "type": "bytes32"
        },
        {
          "indexed": true,
          "internalType": "bytes32",
          "name": "previousAdminRole",
          "type": "bytes32"
        },
        {
          "indexed": true,
          "internalType": "bytes32",
          "name": "newAdminRole",
          "type": "bytes32"
        }
      ],
      "name": "RoleAdminChanged",
      "type": "event"
    },
    {
      "anonymous": false,
      "inputs": [
        {
          "indexed": true,
          "internalType": "bytes32",
          "name": "role",
          "type": "bytes32"
        },
        {
          "indexed": true,
          "internalType": "address",
          "name": "account",
          "type": "address"
        },
        {
          "indexed": true,
          "internalType": "address",
          "name": "sender",
          "type": "address"
        }
      ],
      "name": "RoleGranted",
      "type": "event"
    },
    {
      "anonymous": false,
      "inputs": [
        {
          "indexed": true,
          "internalType": "bytes32",
          "name": "role",
          "type": "bytes32"
        },
        {
          "indexed": true,
          "internalType": "address",
          "name": "account",
          "type": "address"
        },
        {
          "indexed": true,
          "internalType": "address",
          "name": "sender",
          "type": "address"
        }
      ],
      "name": "RoleRevoked",
      "type": "event"
    },
    {
      "anonymous": false,
      "inputs": [
        {
          "indexed": false,
          "internalType": "address",
          "name": "account",
          "type": "address"
        }
      ],
      "name": "Unpaused",
      "type": "event"
    },
    {
      "inputs": [],
      "name": "ADMIN_ROLE",
      "outputs": [
        {
          "internalType": "bytes32",
          "name": "",
          "type": "bytes32"
        }
      ],
      "stateMutability": "view",
      "type": "function"
    },
    {
      "inputs": [],
      "name": "DEFAULT_ADMIN_ROLE",
      "outputs": [
        {
          "internalType": "bytes32",
          "name": "",
          "type": "bytes32"
        }
      ],
      "stateMutability": "view",
      "type": "function"
    },
    {
      "inputs": [],
      "name": "PAUSER_ROLE",
      "outputs": [
        {
          "internalType": "bytes32",
          "name": "",
          "type": "bytes32"
        }
      ],
      "stateMutability": "view",
      "type": "function"
    },
    {
      "inputs": [
        {
          "internalType": "address",
          "name": "owner",
          "type": "address"
        }
      ],
      "name": "_BaseUpgradeablePausable_init",
      "outputs": [],
      "stateMutability": "nonpayable",
      "type": "function"
    },
    {
      "inputs": [],
      "name": "__PauserPausable__init",
      "outputs": [],
      "stateMutability": "nonpayable",
      "type": "function"
    },
    {
      "inputs": [
        {
          "internalType": "bytes32",
          "name": "_id",
          "type": "bytes32"
        }
      ],
      "name": "addOpportunityInKeeper",
      "outputs": [],
      "stateMutability": "nonpayable",
      "type": "function"
    },
    {
      "inputs": [
        {
          "internalType": "bytes",
          "name": "",
          "type": "bytes"
        }
      ],
      "name": "checkUpkeep",
      "outputs": [
        {
          "internalType": "bool",
          "name": "upkeepNeeded",
          "type": "bool"
        },
        {
          "internalType": "bytes",
          "name": "",
          "type": "bytes"
        }
      ],
      "stateMutability": "view",
      "type": "function"
    },
    {
      "inputs": [
        {
          "internalType": "bytes32",
          "name": "role",
          "type": "bytes32"
        }
      ],
      "name": "getRoleAdmin",
      "outputs": [
        {
          "internalType": "bytes32",
          "name": "",
          "type": "bytes32"
        }
      ],
      "stateMutability": "view",
      "type": "function"
    },
    {
      "inputs": [
        {
          "internalType": "bytes32",
          "name": "role",
          "type": "bytes32"
        },
        {
          "internalType": "address",
          "name": "account",
          "type": "address"
        }
      ],
      "name": "grantRole",
      "outputs": [],
      "stateMutability": "nonpayable",
      "type": "function"
    },
    {
      "inputs": [
        {
          "internalType": "bytes32",
          "name": "role",
          "type": "bytes32"
        },
        {
          "internalType": "address",
          "name": "account",
          "type": "address"
        }
      ],
      "name": "hasRole",
      "outputs": [
        {
          "internalType": "bool",
          "name": "",
          "type": "bool"
        }
      ],
      "stateMutability": "view",
      "type": "function"
    },
    {
      "inputs": [
        {
          "internalType": "contract DygnifyConfig",
          "name": "_dygnifyConfig",
          "type": "address"
        },
        {
          "internalType": "uint256",
          "name": "_threshold",
          "type": "uint256"
        }
      ],
      "name": "initialize",
      "outputs": [],
      "stateMutability": "nonpayable",
      "type": "function"
    },
    {
      "inputs": [],
      "name": "isAdmin",
      "outputs": [
        {
          "internalType": "bool",
          "name": "",
          "type": "bool"
        }
      ],
      "stateMutability": "view",
      "type": "function"
    },
    {
      "inputs": [],
      "name": "pause",
      "outputs": [],
      "stateMutability": "nonpayable",
      "type": "function"
    },
    {
      "inputs": [],
      "name": "paused",
      "outputs": [
        {
          "internalType": "bool",
          "name": "",
          "type": "bool"
        }
      ],
      "stateMutability": "view",
      "type": "function"
    },
    {
      "inputs": [
        {
          "internalType": "bytes",
          "name": "",
          "type": "bytes"
        }
      ],
      "name": "performUpkeep",
      "outputs": [],
      "stateMutability": "nonpayable",
      "type": "function"
    },
    {
      "inputs": [
        {
          "internalType": "bytes32",
          "name": "_id",
          "type": "bytes32"
        }
      ],
      "name": "removeOpportunityInKeeper",
      "outputs": [],
      "stateMutability": "nonpayable",
      "type": "function"
    },
    {
      "inputs": [
        {
          "internalType": "bytes32",
          "name": "role",
          "type": "bytes32"
        },
        {
          "internalType": "address",
          "name": "account",
          "type": "address"
        }
      ],
      "name": "renounceRole",
      "outputs": [],
      "stateMutability": "nonpayable",
      "type": "function"
    },
    {
      "inputs": [
        {
          "internalType": "bytes32",
          "name": "role",
          "type": "bytes32"
        },
        {
          "internalType": "address",
          "name": "account",
          "type": "address"
        }
      ],
      "name": "revokeRole",
      "outputs": [],
      "stateMutability": "nonpayable",
      "type": "function"
    },
    {
      "inputs": [
        {
          "internalType": "bytes4",
          "name": "interfaceId",
          "type": "bytes4"
        }
      ],
      "name": "supportsInterface",
      "outputs": [
        {
          "internalType": "bool",
          "name": "",
          "type": "bool"
        }
      ],
      "stateMutability": "view",
      "type": "function"
    },
    {
      "inputs": [],
      "name": "unpause",
      "outputs": [],
      "stateMutability": "nonpayable",
      "type": "function"
    }
  ],
  "bytecode": "0x608060405234801561001057600080fd5b50611f27806100206000396000f3fe608060405234801561001057600080fd5b506004361061016c5760003560e01c80636e04ff0d116100cd578063a217fddf11610081578063cd6dc68711610066578063cd6dc687146102f2578063d547741f14610305578063e63ab1e91461031857600080fd5b8063a217fddf146102e2578063b6db75a0146102ea57600080fd5b80638456cb59116100b25780638456cb591461028e57806391d1485414610296578063a12dde4d146102cf57600080fd5b80636e04ff0d1461024657806375b238fc1461026757600080fd5b80633aa7c283116101245780634585e33b116101095780634585e33b14610220578063526d81f6146102335780635c975abb1461023b57600080fd5b80633aa7c283146102055780633f4ba83a1461021857600080fd5b80632d37a3d2116101555780632d37a3d2146101ca5780632f2ff15d146101df57806336568abe146101f257600080fd5b806301ffc9a714610171578063248a9ca314610199575b600080fd5b61018461017f366004611c5b565b61033f565b60405190151581526020015b60405180910390f35b6101bc6101a7366004611c14565b60009081526065602052604090206001015490565b604051908152602001610190565b6101dd6101d8366004611c14565b6103a8565b005b6101dd6101ed366004611c2c565b610615565b6101dd610200366004611c2c565b61063f565b6101dd610213366004611c14565b6106c7565b6101dd61086e565b6101dd61022e366004611c83565b610903565b6101dd610cd7565b60975460ff16610184565b610259610254366004611c83565b610df7565b604051610190929190611de0565b6101bc7fa49807205ce4d355092ef5a8a18f56e8913cf4a201fbe287825b095693c2177581565b6101dd610f85565b6101846102a4366004611c2c565b60009182526065602090815260408084206001600160a01b0393909316845291905290205460ff1690565b6101dd6102dd366004611bbc565b611018565b6101bc600081565b6101846111b9565b6101dd610300366004611cf0565b6111ea565b6101dd610313366004611c2c565b611444565b6101bc7f65d7a28e3265b37a6474929f336521b332c1681b933f6cb9f3376673440d862a81565b60006001600160e01b031982167f7965db0b0000000000000000000000000000000000000000000000000000000014806103a257507f01ffc9a7000000000000000000000000000000000000000000000000000000006001600160e01b03198316145b92915050565b60fc54604051630231155f60e51b8152600481018390526001600160a01b0390911690634622abe09060240160206040518083038186803b1580156103ec57600080fd5b505afa158015610400573d6000803e3d6000fd5b505050506040513d601f19601f820116820180604052508101906104249190611bf4565b151560011461047a5760405162461bcd60e51b815260206004820152601960248201527f6f70706f7274756e69747920646f65736e27742065786973740000000000000060448201526064015b60405180910390fd5b60fb5461048f906001600160a01b0316611469565b6001600160a01b0316336001600160a01b03161461051f5760405162461bcd60e51b815260206004820152604160248201527f6f70706f7274756e6974794f726967696e6174696f6e20636f6e74726163742060448201527f63616e2061646420746865206f70706f7274756e69747920696e206b656570656064820152603960f91b608482015260a401610471565b60005b60fe54811015610611578160fe828154811061054e57634e487b7160e01b600052603260045260246000fd5b906000526020600020015414156105ff5760fe805461056f90600190611e4d565b8154811061058d57634e487b7160e01b600052603260045260246000fd5b906000526020600020015460fe82815481106105b957634e487b7160e01b600052603260045260246000fd5b60009182526020909120015560fe80546105d590600190611e4d565b815481106105f357634e487b7160e01b600052603260045260246000fd5b60009182526020822001555b8061060981611eab565b915050610522565b5050565b600082815260656020526040902060010154610630816114eb565b61063a83836114f5565b505050565b6001600160a01b03811633146106bd5760405162461bcd60e51b815260206004820152602f60248201527f416363657373436f6e74726f6c3a2063616e206f6e6c792072656e6f756e636560448201527f20726f6c657320666f722073656c6600000000000000000000000000000000006064820152608401610471565b6106118282611597565b60fc54604051630231155f60e51b8152600481018390526001600160a01b0390911690634622abe09060240160206040518083038186803b15801561070b57600080fd5b505afa15801561071f573d6000803e3d6000fd5b505050506040513d601f19601f820116820180604052508101906107439190611bf4565b15156001146107945760405162461bcd60e51b815260206004820152601b60248201527f6f70706f7274756e697479206973206e6f742064726177646f776e00000000006044820152606401610471565b60fb546107a9906001600160a01b0316611469565b6001600160a01b0316336001600160a01b0316146108395760405162461bcd60e51b815260206004820152604160248201527f6f70706f7274756e6974794f726967696e6174696f6e20636f6e74726163742060448201527f63616e2061646420746865206f70706f7274756e69747920696e206b656570656064820152603960f91b608482015260a401610471565b60fe80546001810182556000919091527f54075df80ec1ae6ac9100e1fd0ebf3246c17f5c933137af392011f4c5f61513a0155565b6108987f65d7a28e3265b37a6474929f336521b332c1681b933f6cb9f3376673440d862a336102a4565b6108f95760405162461bcd60e51b815260206004820152602c60248201527f4d75737420686176652070617573657220726f6c6520746f20706572666f726d60448201526b103a3434b99030b1ba34b7b760a11b6064820152608401610471565b61090161161a565b565b600260c95414156109565760405162461bcd60e51b815260206004820152601f60248201527f5265656e7472616e637947756172643a207265656e7472616e742063616c6c006044820152606401610471565b600260c95560ff805460ff1916600117905560005b60fe54811015610cc35760fc5460fe80546000926001600160a01b031691637e4dc6d591859081106109ad57634e487b7160e01b600052603260045260246000fd5b90600052602060002001546040518263ffffffff1660e01b81526004016109d691815260200190565b60206040518083038186803b1580156109ee57600080fd5b505afa158015610a02573d6000803e3d6000fd5b505050506040513d601f19601f82011682018060405250810190610a269190611bd8565b6001600160a01b031663df9fd1c16040518163ffffffff1660e01b815260040160206040518083038186803b158015610a5e57600080fd5b505afa158015610a72573d6000803e3d6000fd5b505050506040513d601f19601f82011682018060405250810190610a969190611d1b565b905042811015610cb0576000610aac8242611e4d565b905060fd54811115610cae5760fc5460fe80546001600160a01b0390921691636dc305f9919086908110610af057634e487b7160e01b600052603260045260246000fd5b60009182526020909120015460fc5460fe80546001600160a01b0390921691637e4dc6d5919089908110610b3457634e487b7160e01b600052603260045260246000fd5b90600052602060002001546040518263ffffffff1660e01b8152600401610b5d91815260200190565b60206040518083038186803b158015610b7557600080fd5b505afa158015610b89573d6000803e3d6000fd5b505050506040513d601f19601f82011682018060405250810190610bad9190611bd8565b6040516001600160e01b031960e085901b16815260048101929092526001600160a01b03166024820152604401600060405180830381600087803b158015610bf457600080fd5b505af1158015610c08573d6000803e3d6000fd5b505060fe8054909250610c1e9150600190611e4d565b81548110610c3c57634e487b7160e01b600052603260045260246000fd5b906000526020600020015460fe8481548110610c6857634e487b7160e01b600052603260045260246000fd5b60009182526020909120015560fe8054610c8490600190611e4d565b81548110610ca257634e487b7160e01b600052603260045260246000fd5b60009182526020822001555b505b5080610cbb81611eab565b91505061096b565b505060ff805460ff1916905550600160c955565b600054610100900460ff1615808015610cf75750600054600160ff909116105b80610d115750303b158015610d11575060005460ff166001145b610d835760405162461bcd60e51b815260206004820152602e60248201527f496e697469616c697a61626c653a20636f6e747261637420697320616c72656160448201527f647920696e697469616c697a65640000000000000000000000000000000000006064820152608401610471565b6000805460ff191660011790558015610da6576000805461ff0019166101001790555b610dae61166c565b8015610df4576000805461ff0019169055604051600181527f7f26b83ff96e1f2b6a682f133852f6798a09c465da95921460cefb38474024989060200160405180910390a15b50565b6000606081805b60fe54811015610f6b5760fc5460fe80546000926001600160a01b031691637e4dc6d59185908110610e4057634e487b7160e01b600052603260045260246000fd5b90600052602060002001546040518263ffffffff1660e01b8152600401610e6991815260200190565b60206040518083038186803b158015610e8157600080fd5b505afa158015610e95573d6000803e3d6000fd5b505050506040513d601f19601f82011682018060405250810190610eb99190611bd8565b6001600160a01b031663df9fd1c16040518163ffffffff1660e01b815260040160206040518083038186803b158015610ef157600080fd5b505afa158015610f05573d6000803e3d6000fd5b505050506040513d601f19601f82011682018060405250810190610f299190611d1b565b905042811015610f58576000610f3f8242611e4d565b905060fd54811115610f5657600193505050610f6b565b505b5080610f6381611eab565b915050610dfe565b5060ff805416158015610f7b5750805b9250509250929050565b610faf7f65d7a28e3265b37a6474929f336521b332c1681b933f6cb9f3376673440d862a336102a4565b6110105760405162461bcd60e51b815260206004820152602c60248201527f4d75737420686176652070617573657220726f6c6520746f20706572666f726d60448201526b103a3434b99030b1ba34b7b760a11b6064820152608401610471565b6109016116e3565b600054610100900460ff166110835760405162461bcd60e51b815260206004820152602b60248201527f496e697469616c697a61626c653a20636f6e7472616374206973206e6f74206960448201526a6e697469616c697a696e6760a81b6064820152608401610471565b6001600160a01b0381166110d95760405162461bcd60e51b815260206004820181905260248201527f4f776e65722063616e6e6f7420626520746865207a65726f20616464726573736044820152606401610471565b6110e1611720565b6110e961166c565b6110f161178b565b61111b7fa49807205ce4d355092ef5a8a18f56e8913cf4a201fbe287825b095693c21775826117fd565b6111457f65d7a28e3265b37a6474929f336521b332c1681b933f6cb9f3376673440d862a826117fd565b61118f7f65d7a28e3265b37a6474929f336521b332c1681b933f6cb9f3376673440d862a7fa49807205ce4d355092ef5a8a18f56e8913cf4a201fbe287825b095693c21775611807565b610df47fa49807205ce4d355092ef5a8a18f56e8913cf4a201fbe287825b095693c2177580611807565b60006111e57fa49807205ce4d355092ef5a8a18f56e8913cf4a201fbe287825b095693c21775336102a4565b905090565b600054610100900460ff161580801561120a5750600054600160ff909116105b806112245750303b158015611224575060005460ff166001145b6112965760405162461bcd60e51b815260206004820152602e60248201527f496e697469616c697a61626c653a20636f6e747261637420697320616c72656160448201527f647920696e697469616c697a65640000000000000000000000000000000000006064820152608401610471565b6000805460ff1916600117905580156112b9576000805461ff0019166101001790555b6001600160a01b03831661130f5760405162461bcd60e51b815260206004820152601660248201527f496e76616c696420636f6e6669672061646472657373000000000000000000006044820152606401610471565b60fb805473ffffffffffffffffffffffffffffffffffffffff19166001600160a01b03851690811790915560009061134690611852565b90506001600160a01b03811661139e5760405162461bcd60e51b815260206004820152600d60248201527f496e76616c6964204f776e6572000000000000000000000000000000000000006044820152606401610471565b60fb546113b3906001600160a01b0316611469565b60fc805473ffffffffffffffffffffffffffffffffffffffff19166001600160a01b03929092169190911790556113e981611018565b6113f68362015180611e2e565b60fd5550801561063a576000805461ff0019169055604051600181527f7f26b83ff96e1f2b6a682f133852f6798a09c465da95921460cefb38474024989060200160405180910390a1505050565b60008281526065602052604090206001015461145f816114eb565b61063a8383611597565b60006001600160a01b03821663b93f9b0a60065b6040518263ffffffff1660e01b815260040161149b91815260200190565b60206040518083038186803b1580156114b357600080fd5b505afa1580156114c7573d6000803e3d6000fd5b505050506040513d601f19601f820116820180604052508101906103a29190611bd8565b610df48133611869565b60008281526065602090815260408083206001600160a01b038516845290915290205460ff166106115760008281526065602090815260408083206001600160a01b03851684529091529020805460ff191660011790556115533390565b6001600160a01b0316816001600160a01b0316837f2f8788117e7eff1d82e926ec794901d17c78024a50270940304540a733656f0d60405160405180910390a45050565b60008281526065602090815260408083206001600160a01b038516845290915290205460ff16156106115760008281526065602090815260408083206001600160a01b0385168085529252808320805460ff1916905551339285917ff6391f5c32d9c69d2a47ea670b442974b53935d1edc7fd64eb21e047a839171b9190a45050565b6116226118e9565b6097805460ff191690557f5db9ee0a495bf2e6ff9c91a7834c1ba4fdd244a5e8aa4e537bd38aeae4b073aa335b6040516001600160a01b03909116815260200160405180910390a1565b600054610100900460ff166116d75760405162461bcd60e51b815260206004820152602b60248201527f496e697469616c697a61626c653a20636f6e7472616374206973206e6f74206960448201526a6e697469616c697a696e6760a81b6064820152608401610471565b6097805460ff19169055565b6116eb61193b565b6097805460ff191660011790557f62e78cea01bee320cd4e420270b5ea74000d11b0c9f74754ebdbfc544b05a25861164f3390565b600054610100900460ff166109015760405162461bcd60e51b815260206004820152602b60248201527f496e697469616c697a61626c653a20636f6e7472616374206973206e6f74206960448201526a6e697469616c697a696e6760a81b6064820152608401610471565b600054610100900460ff166117f65760405162461bcd60e51b815260206004820152602b60248201527f496e697469616c697a61626c653a20636f6e7472616374206973206e6f74206960448201526a6e697469616c697a696e6760a81b6064820152608401610471565b600160c955565b61061182826114f5565b600082815260656020526040808220600101805490849055905190918391839186917fbd79b86ffe0ab8e8776151514217cd7cacd52c909f66475c3af44e129f0b00ff9190a4505050565b60006001600160a01b03821663b93f9b0a8261147d565b60008281526065602090815260408083206001600160a01b038516845290915290205460ff16610611576118a7816001600160a01b0316601461198e565b6118b283602061198e565b6040516020016118c3929190611d5f565b60408051601f198184030181529082905262461bcd60e51b825261047191600401611e03565b60975460ff166109015760405162461bcd60e51b815260206004820152601460248201527f5061757361626c653a206e6f74207061757365640000000000000000000000006044820152606401610471565b60975460ff16156109015760405162461bcd60e51b815260206004820152601060248201527f5061757361626c653a20706175736564000000000000000000000000000000006044820152606401610471565b6060600061199d836002611e2e565b6119a8906002611e16565b67ffffffffffffffff8111156119ce57634e487b7160e01b600052604160045260246000fd5b6040519080825280601f01601f1916602001820160405280156119f8576020820181803683370190505b5090507f300000000000000000000000000000000000000000000000000000000000000081600081518110611a3d57634e487b7160e01b600052603260045260246000fd5b60200101906001600160f81b031916908160001a9053507f780000000000000000000000000000000000000000000000000000000000000081600181518110611a9657634e487b7160e01b600052603260045260246000fd5b60200101906001600160f81b031916908160001a9053506000611aba846002611e2e565b611ac5906001611e16565b90505b6001811115611b66577f303132333435363738396162636465660000000000000000000000000000000085600f1660108110611b1457634e487b7160e01b600052603260045260246000fd5b1a60f81b828281518110611b3857634e487b7160e01b600052603260045260246000fd5b60200101906001600160f81b031916908160001a90535060049490941c93611b5f81611e94565b9050611ac8565b508315611bb55760405162461bcd60e51b815260206004820181905260248201527f537472696e67733a20686578206c656e67746820696e73756666696369656e746044820152606401610471565b9392505050565b600060208284031215611bcd578081fd5b8135611bb581611edc565b600060208284031215611be9578081fd5b8151611bb581611edc565b600060208284031215611c05578081fd5b81518015158114611bb5578182fd5b600060208284031215611c25578081fd5b5035919050565b60008060408385031215611c3e578081fd5b823591506020830135611c5081611edc565b809150509250929050565b600060208284031215611c6c578081fd5b81356001600160e01b031981168114611bb5578182fd5b60008060208385031215611c95578182fd5b823567ffffffffffffffff80821115611cac578384fd5b818501915085601f830112611cbf578384fd5b813581811115611ccd578485fd5b866020828501011115611cde578485fd5b60209290920196919550909350505050565b60008060408385031215611d02578182fd5b8235611d0d81611edc565b946020939093013593505050565b600060208284031215611d2c578081fd5b5051919050565b60008151808452611d4b816020860160208601611e64565b601f01601f19169290920160200192915050565b7f416363657373436f6e74726f6c3a206163636f756e7420000000000000000000815260008351611d97816017850160208801611e64565b7f206973206d697373696e6720726f6c65200000000000000000000000000000006017918401918201528351611dd4816028840160208801611e64565b01602801949350505050565b8215158152604060208201526000611dfb6040830184611d33565b949350505050565b602081526000611bb56020830184611d33565b60008219821115611e2957611e29611ec6565b500190565b6000816000190483118215151615611e4857611e48611ec6565b500290565b600082821015611e5f57611e5f611ec6565b500390565b60005b83811015611e7f578181015183820152602001611e67565b83811115611e8e576000848401525b50505050565b600081611ea357611ea3611ec6565b506000190190565b6000600019821415611ebf57611ebf611ec6565b5060010190565b634e487b7160e01b600052601160045260246000fd5b6001600160a01b0381168114610df457600080fdfea2646970667358221220ab2cf381b97ee0f6c6a7f1432512625a41545d545643ccdef213fbe74ec279dd64736f6c63430008040033",
  "linkReferences": {},
  "deployedLinkReferences": {}
}