{
  "_format": "hh-sol-artifact-1",
  "contractName": "DygnifyKeeper",
  "sourceName": "contracts/protocol/DygnifyKeeper.sol",
  "abi": [
    {
      "anonymous": false,
      "inputs": [
        {
          "indexed": false,
          "internalType": "address",
          "name": "previousAdmin",
          "type": "address"
        },
        {
          "indexed": false,
          "internalType": "address",
          "name": "newAdmin",
          "type": "address"
        }
      ],
      "name": "AdminChanged",
      "type": "event"
    },
    {
      "anonymous": false,
      "inputs": [
        {
          "indexed": true,
          "internalType": "address",
          "name": "beacon",
          "type": "address"
        }
      ],
      "name": "BeaconUpgraded",
      "type": "event"
    },
    {
      "anonymous": false,
      "inputs": [
        {
          "indexed": false,
          "internalType": "uint8",
          "name": "version",
          "type": "uint8"
        }
      ],
      "name": "Initialized",
      "type": "event"
    },
    {
      "anonymous": false,
      "inputs": [
        {
          "indexed": true,
          "internalType": "bytes32",
          "name": "id",
          "type": "bytes32"
        }
      ],
      "name": "OpportunityAddedInKeeper",
      "type": "event"
    },
    {
      "anonymous": false,
      "inputs": [
        {
          "indexed": true,
          "internalType": "bytes32",
          "name": "id",
          "type": "bytes32"
        }
      ],
      "name": "OpportunityRemovedFromKeeper",
      "type": "event"
    },
    {
      "anonymous": false,
      "inputs": [
        {
          "indexed": false,
          "internalType": "address",
          "name": "account",
          "type": "address"
        }
      ],
      "name": "Paused",
      "type": "event"
    },
    {
      "anonymous": false,
      "inputs": [
        {
          "indexed": true,
          "internalType": "bytes32",
          "name": "role",
          "type": "bytes32"
        },
        {
          "indexed": true,
          "internalType": "bytes32",
          "name": "previousAdminRole",
          "type": "bytes32"
        },
        {
          "indexed": true,
          "internalType": "bytes32",
          "name": "newAdminRole",
          "type": "bytes32"
        }
      ],
      "name": "RoleAdminChanged",
      "type": "event"
    },
    {
      "anonymous": false,
      "inputs": [
        {
          "indexed": true,
          "internalType": "bytes32",
          "name": "role",
          "type": "bytes32"
        },
        {
          "indexed": true,
          "internalType": "address",
          "name": "account",
          "type": "address"
        },
        {
          "indexed": true,
          "internalType": "address",
          "name": "sender",
          "type": "address"
        }
      ],
      "name": "RoleGranted",
      "type": "event"
    },
    {
      "anonymous": false,
      "inputs": [
        {
          "indexed": true,
          "internalType": "bytes32",
          "name": "role",
          "type": "bytes32"
        },
        {
          "indexed": true,
          "internalType": "address",
          "name": "account",
          "type": "address"
        },
        {
          "indexed": true,
          "internalType": "address",
          "name": "sender",
          "type": "address"
        }
      ],
      "name": "RoleRevoked",
      "type": "event"
    },
    {
      "anonymous": false,
      "inputs": [
        {
          "indexed": false,
          "internalType": "address",
          "name": "account",
          "type": "address"
        }
      ],
      "name": "Unpaused",
      "type": "event"
    },
    {
      "anonymous": false,
      "inputs": [
        {
          "indexed": true,
          "internalType": "address",
          "name": "implementation",
          "type": "address"
        }
      ],
      "name": "Upgraded",
      "type": "event"
    },
    {
      "inputs": [],
      "name": "DEFAULT_ADMIN_ROLE",
      "outputs": [
        {
          "internalType": "bytes32",
          "name": "",
          "type": "bytes32"
        }
      ],
      "stateMutability": "view",
      "type": "function"
    },
    {
      "inputs": [
        {
          "internalType": "address",
          "name": "owner",
          "type": "address"
        }
      ],
      "name": "_BaseUpgradeablePausable_init",
      "outputs": [],
      "stateMutability": "nonpayable",
      "type": "function"
    },
    {
      "inputs": [],
      "name": "__PauserPausable__init",
      "outputs": [],
      "stateMutability": "nonpayable",
      "type": "function"
    },
    {
      "inputs": [
        {
          "internalType": "bytes32",
          "name": "_id",
          "type": "bytes32"
        }
      ],
      "name": "addOpportunityInKeeper",
      "outputs": [],
      "stateMutability": "nonpayable",
      "type": "function"
    },
    {
      "inputs": [
        {
          "internalType": "bytes",
          "name": "",
          "type": "bytes"
        }
      ],
      "name": "checkUpkeep",
      "outputs": [
        {
          "internalType": "bool",
          "name": "upkeepNeeded",
          "type": "bool"
        },
        {
          "internalType": "bytes",
          "name": "",
          "type": "bytes"
        }
      ],
      "stateMutability": "view",
      "type": "function"
    },
    {
      "inputs": [
        {
          "internalType": "bytes32",
          "name": "role",
          "type": "bytes32"
        }
      ],
      "name": "getRoleAdmin",
      "outputs": [
        {
          "internalType": "bytes32",
          "name": "",
          "type": "bytes32"
        }
      ],
      "stateMutability": "view",
      "type": "function"
    },
    {
      "inputs": [
        {
          "internalType": "bytes32",
          "name": "role",
          "type": "bytes32"
        },
        {
          "internalType": "address",
          "name": "account",
          "type": "address"
        }
      ],
      "name": "grantRole",
      "outputs": [],
      "stateMutability": "nonpayable",
      "type": "function"
    },
    {
      "inputs": [
        {
          "internalType": "bytes32",
          "name": "role",
          "type": "bytes32"
        },
        {
          "internalType": "address",
          "name": "account",
          "type": "address"
        }
      ],
      "name": "hasRole",
      "outputs": [
        {
          "internalType": "bool",
          "name": "",
          "type": "bool"
        }
      ],
      "stateMutability": "view",
      "type": "function"
    },
    {
      "inputs": [
        {
          "internalType": "contract DygnifyConfig",
          "name": "_dygnifyConfig",
          "type": "address"
        }
      ],
      "name": "initialize",
      "outputs": [],
      "stateMutability": "nonpayable",
      "type": "function"
    },
    {
      "inputs": [],
      "name": "isAdmin",
      "outputs": [
        {
          "internalType": "bool",
          "name": "",
          "type": "bool"
        }
      ],
      "stateMutability": "view",
      "type": "function"
    },
    {
      "inputs": [],
      "name": "pause",
      "outputs": [],
      "stateMutability": "nonpayable",
      "type": "function"
    },
    {
      "inputs": [],
      "name": "paused",
      "outputs": [
        {
          "internalType": "bool",
          "name": "",
          "type": "bool"
        }
      ],
      "stateMutability": "view",
      "type": "function"
    },
    {
      "inputs": [
        {
          "internalType": "bytes",
          "name": "",
          "type": "bytes"
        }
      ],
      "name": "performUpkeep",
      "outputs": [],
      "stateMutability": "nonpayable",
      "type": "function"
    },
    {
      "inputs": [],
      "name": "proxiableUUID",
      "outputs": [
        {
          "internalType": "bytes32",
          "name": "",
          "type": "bytes32"
        }
      ],
      "stateMutability": "view",
      "type": "function"
    },
    {
      "inputs": [
        {
          "internalType": "bytes32",
          "name": "_id",
          "type": "bytes32"
        }
      ],
      "name": "removeOpportunityInKeeper",
      "outputs": [],
      "stateMutability": "nonpayable",
      "type": "function"
    },
    {
      "inputs": [
        {
          "internalType": "bytes32",
          "name": "role",
          "type": "bytes32"
        },
        {
          "internalType": "address",
          "name": "account",
          "type": "address"
        }
      ],
      "name": "renounceRole",
      "outputs": [],
      "stateMutability": "nonpayable",
      "type": "function"
    },
    {
      "inputs": [
        {
          "internalType": "bytes32",
          "name": "role",
          "type": "bytes32"
        },
        {
          "internalType": "address",
          "name": "account",
          "type": "address"
        }
      ],
      "name": "revokeRole",
      "outputs": [],
      "stateMutability": "nonpayable",
      "type": "function"
    },
    {
      "inputs": [
        {
          "internalType": "bytes4",
          "name": "interfaceId",
          "type": "bytes4"
        }
      ],
      "name": "supportsInterface",
      "outputs": [
        {
          "internalType": "bool",
          "name": "",
          "type": "bool"
        }
      ],
      "stateMutability": "view",
      "type": "function"
    },
    {
      "inputs": [],
      "name": "unpause",
      "outputs": [],
      "stateMutability": "nonpayable",
      "type": "function"
    },
    {
      "inputs": [
        {
          "internalType": "address",
          "name": "newImplementation",
          "type": "address"
        }
      ],
      "name": "upgradeTo",
      "outputs": [],
      "stateMutability": "nonpayable",
      "type": "function"
    },
    {
      "inputs": [
        {
          "internalType": "address",
          "name": "newImplementation",
          "type": "address"
        },
        {
          "internalType": "bytes",
          "name": "data",
          "type": "bytes"
        }
      ],
      "name": "upgradeToAndCall",
      "outputs": [],
      "stateMutability": "payable",
      "type": "function"
    }
  ],
  "bytecode": "0x60a06040523060601b60805234801561001757600080fd5b5060805160601c6125e8610052600039600081816106150152818161065501528181610d4901528181610d890152610eca01526125e86000f3fe60806040526004361061012a5760003560e01c8063526d81f6116100ab57806391d148541161006f57806391d1485414610311578063a12dde4d14610331578063a217fddf14610351578063b6db75a014610366578063c4d66de81461037b578063d547741f1461039b57600080fd5b8063526d81f61461028c57806352d1902d146102a15780635c975abb146102b65780636e04ff0d146102ce5780638456cb59146102fc57600080fd5b80633659cfe6116100f25780633659cfe6146102045780633aa7c283146102245780633f4ba83a146102445780634585e33b146102595780634f1ef2861461027957600080fd5b806301ffc9a71461012f578063248a9ca3146101645780632d37a3d2146101a25780632f2ff15d146101c457806336568abe146101e4575b600080fd5b34801561013b57600080fd5b5061014f61014a366004612118565b6103bb565b60405190151581526020015b60405180910390f35b34801561017057600080fd5b5061019461017f3660046120b9565b60009081526065602052604090206001015490565b60405190815260200161015b565b3480156101ae57600080fd5b506101c26101bd3660046120b9565b6103f2565b005b3480156101d057600080fd5b506101c26101df3660046120e9565b610566565b3480156101f057600080fd5b506101c26101ff3660046120e9565b610590565b34801561021057600080fd5b506101c261021f366004611fa2565b61060a565b34801561023057600080fd5b506101c261023f3660046120b9565b6106d3565b34801561025057600080fd5b506101c2610847565b34801561026557600080fd5b506101c2610274366004612140565b61087e565b6101c2610287366004611fda565b610d3e565b34801561029857600080fd5b506101c2610df4565b3480156102ad57600080fd5b50610194610ebd565b3480156102c257600080fd5b5060975460ff1661014f565b3480156102da57600080fd5b506102ee6102e9366004612140565b610f6b565b60405161015b929190612264565b34801561030857600080fd5b506101c26111c0565b34801561031d57600080fd5b5061014f61032c3660046120e9565b6111ef565b34801561033d57600080fd5b506101c261034c366004611fa2565b61121a565b34801561035d57600080fd5b50610194600081565b34801561037257600080fd5b5061014f6112ee565b34801561038757600080fd5b506101c2610396366004611fa2565b611300565b3480156103a757600080fd5b506101c26103b63660046120e9565b6114c5565b60006001600160e01b03198216637965db0b60e01b14806103ec57506301ffc9a760e01b6001600160e01b03198316145b92915050565b61015f54610408906001600160a01b03166114ea565b6001600160a01b0316336001600160a01b0316146104415760405162461bcd60e51b815260040161043890612417565b60405180910390fd5b60005b610161548110156105625781610161828154811061047257634e487b7160e01b600052603260045260246000fd5b90600052602060002001541415610550576101618054610494906001906124b5565b815481106104b257634e487b7160e01b600052603260045260246000fd5b906000526020600020015461016182815481106104df57634e487b7160e01b600052603260045260246000fd5b60009182526020909120015561016180546104fc906001906124b5565b8154811061051a57634e487b7160e01b600052603260045260246000fd5b6000918252602082200181905560405183917fc70a103f10c9928809c7075ac5b13c6b2262222c11d22c4a7faa582d4ed00e3691a25b8061055a8161250f565b915050610444565b5050565b6000828152606560205260409020600101546105818161156c565b61058b8383611576565b505050565b6001600160a01b03811633146106005760405162461bcd60e51b815260206004820152602f60248201527f416363657373436f6e74726f6c3a2063616e206f6e6c792072656e6f756e636560448201526e103937b632b9903337b91039b2b63360891b6064820152608401610438565b61056282826115fc565b306001600160a01b037f00000000000000000000000000000000000000000000000000000000000000001614156106535760405162461bcd60e51b8152600401610438906122e6565b7f00000000000000000000000000000000000000000000000000000000000000006001600160a01b0316610685611663565b6001600160a01b0316146106ab5760405162461bcd60e51b815260040161043890612332565b6106b48161167f565b604080516000808252602082019092526106d0918391906116e7565b50565b61016054604051630231155f60e51b8152600481018390526001600160a01b0390911690634622abe09060240160206040518083038186803b15801561071857600080fd5b505afa15801561072c573d6000803e3d6000fd5b505050506040513d601f19601f820116820180604052508101906107509190612099565b15156001146107a15760405162461bcd60e51b815260206004820152601b60248201527f6f70706f7274756e697479206973206e6f742064726177646f776e00000000006044820152606401610438565b61015f546107b7906001600160a01b03166114ea565b6001600160a01b0316336001600160a01b0316146107e75760405162461bcd60e51b815260040161043890612417565b610161805460018101825560009182527fafbb1c043347995df017ce3291b765e028ad5f784d2aa00c3f5e073760a4de8b0182905560405182917ffec154c147f886d5330bdde773094d7ba66c13c5808f3626486893b480891cd191a250565b610858610852611861565b336111ef565b6108745760405162461bcd60e51b81526004016104389061229a565b61087c611885565b565b6108866118d7565b610162805460ff1916600117905560005b61016154811015610d28576101605461016180546000926001600160a01b031691637e4dc6d591859081106108dc57634e487b7160e01b600052603260045260246000fd5b90600052602060002001546040518263ffffffff1660e01b815260040161090591815260200190565b60206040518083038186803b15801561091d57600080fd5b505afa158015610931573d6000803e3d6000fd5b505050506040513d601f19601f820116820180604052508101906109559190611fbe565b6001600160a01b031663df9fd1c16040518163ffffffff1660e01b815260040160206040518083038186803b15801561098d57600080fd5b505afa1580156109a1573d6000803e3d6000fd5b505050506040513d601f19601f820116820180604052508101906109c591906120d1565b905042811015610d15576101605461016180546000926001600160a01b03169163718df38c9186908110610a0957634e487b7160e01b600052603260045260246000fd5b90600052602060002001546040518263ffffffff1660e01b8152600401610a3291815260200190565b60206040518083038186803b158015610a4a57600080fd5b505afa158015610a5e573d6000803e3d6000fd5b505050506040513d601f19601f82011682018060405250810190610a8291906120d1565b610a8f9062015180612496565b90506000610a9d83426124b5565b905081811115610d12576101605461016180546001600160a01b0390921691636dc305f9919087908110610ae157634e487b7160e01b600052603260045260246000fd5b6000918252602090912001546101605461016180546001600160a01b0390921691637e4dc6d591908a908110610b2757634e487b7160e01b600052603260045260246000fd5b90600052602060002001546040518263ffffffff1660e01b8152600401610b5091815260200190565b60206040518083038186803b158015610b6857600080fd5b505afa158015610b7c573d6000803e3d6000fd5b505050506040513d601f19601f82011682018060405250810190610ba09190611fbe565b6040516001600160e01b031960e085901b16815260048101929092526001600160a01b03166024820152604401600060405180830381600087803b158015610be757600080fd5b505af1158015610bfb573d6000803e3d6000fd5b50506101618054909250610c1291506001906124b5565b81548110610c3057634e487b7160e01b600052603260045260246000fd5b90600052602060002001546101618581548110610c5d57634e487b7160e01b600052603260045260246000fd5b60009182526020822001919091556101618054610c7c906001906124b5565b81548110610c9a57634e487b7160e01b600052603260045260246000fd5b90600052602060002001549050610161600161016180549050610cbd91906124b5565b81548110610cdb57634e487b7160e01b600052603260045260246000fd5b6000918252602082200181905560405182917fc70a103f10c9928809c7075ac5b13c6b2262222c11d22c4a7faa582d4ed00e3691a2505b50505b5080610d208161250f565b915050610897565b50610162805460ff19169055610562600160c955565b306001600160a01b037f0000000000000000000000000000000000000000000000000000000000000000161415610d875760405162461bcd60e51b8152600401610438906122e6565b7f00000000000000000000000000000000000000000000000000000000000000006001600160a01b0316610db9611663565b6001600160a01b031614610ddf5760405162461bcd60e51b815260040161043890612332565b610de88261167f565b610562828260016116e7565b600054610100900460ff1615808015610e145750600054600160ff909116105b80610e2e5750303b158015610e2e575060005460ff166001145b610e4a5760405162461bcd60e51b81526004016104389061237e565b6000805460ff191660011790558015610e6d576000805461ff0019166101001790555b610e75611938565b80156106d0576000805461ff0019169055604051600181527f7f26b83ff96e1f2b6a682f133852f6798a09c465da95921460cefb38474024989060200160405180910390a150565b6000306001600160a01b037f00000000000000000000000000000000000000000000000000000000000000001614610f585760405162461bcd60e51b815260206004820152603860248201527f555550535570677261646561626c653a206d757374206e6f742062652063616c6044820152771b1959081d1a1c9bdd59da0819195b1959d85d1958d85b1b60421b6064820152608401610438565b5060008051602061256c83398151915290565b6000606081805b610161548110156111a4576101605461016180546000926001600160a01b031691637e4dc6d59185908110610fb757634e487b7160e01b600052603260045260246000fd5b90600052602060002001546040518263ffffffff1660e01b8152600401610fe091815260200190565b60206040518083038186803b158015610ff857600080fd5b505afa15801561100c573d6000803e3d6000fd5b505050506040513d601f19601f820116820180604052508101906110309190611fbe565b6001600160a01b031663df9fd1c16040518163ffffffff1660e01b815260040160206040518083038186803b15801561106857600080fd5b505afa15801561107c573d6000803e3d6000fd5b505050506040513d601f19601f820116820180604052508101906110a091906120d1565b905042811015611191576101605461016180546000926001600160a01b03169163718df38c91869081106110e457634e487b7160e01b600052603260045260246000fd5b90600052602060002001546040518263ffffffff1660e01b815260040161110d91815260200190565b60206040518083038186803b15801561112557600080fd5b505afa158015611139573d6000803e3d6000fd5b505050506040513d601f19601f8201168201806040525081019061115d91906120d1565b61116a9062015180612496565b9050600061117883426124b5565b90508181111561118e57600194505050506111a4565b50505b508061119c8161250f565b915050610f72565b506101625460ff161580156111b65750805b9250509250929050565b6111cb610852611861565b6111e75760405162461bcd60e51b81526004016104389061229a565b61087c61196b565b60009182526065602090815260408084206001600160a01b0393909316845291905290205460ff1690565b600054610100900460ff166112415760405162461bcd60e51b8152600401610438906123cc565b6001600160a01b0381166112975760405162461bcd60e51b815260206004820181905260248201527f4f776e65722063616e6e6f7420626520746865207a65726f20616464726573736044820152606401610438565b61129f6119a8565b6112a7611938565b6112af6119cf565b6112c06112ba6119f6565b82611a1a565b6112cb6112ba611861565b6112e36112d6611861565b6112de6119f6565b611a24565b6106d06112d66119f6565b60006112fb6108526119f6565b905090565b600054610100900460ff16158080156113205750600054600160ff909116105b8061133a5750303b15801561133a575060005460ff166001145b6113565760405162461bcd60e51b81526004016104389061237e565b6000805460ff191660011790558015611379576000805461ff0019166101001790555b6001600160a01b0382166113c85760405162461bcd60e51b8152602060048201526016602482015275496e76616c696420636f6e666967206164647265737360501b6044820152606401610438565b61015f80546001600160a01b0319166001600160a01b0384169081179091556000906113f390611a6f565b90506001600160a01b03811661143b5760405162461bcd60e51b815260206004820152600d60248201526c24b73b30b634b21027bbb732b960991b6044820152606401610438565b61015f54611451906001600160a01b03166114ea565b61016080546001600160a01b0319166001600160a01b039290921691909117905561147b8161121a565b508015610562576000805461ff0019169055604051600181527f7f26b83ff96e1f2b6a682f133852f6798a09c465da95921460cefb38474024989060200160405180910390a15050565b6000828152606560205260409020600101546114e08161156c565b61058b83836115fc565b60006001600160a01b03821663b93f9b0a60065b6040518263ffffffff1660e01b815260040161151c91815260200190565b60206040518083038186803b15801561153457600080fd5b505afa158015611548573d6000803e3d6000fd5b505050506040513d601f19601f820116820180604052508101906103ec9190611fbe565b6106d08133611a86565b61158082826111ef565b6105625760008281526065602090815260408083206001600160a01b03851684529091529020805460ff191660011790556115b83390565b6001600160a01b0316816001600160a01b0316837f2f8788117e7eff1d82e926ec794901d17c78024a50270940304540a733656f0d60405160405180910390a45050565b61160682826111ef565b156105625760008281526065602090815260408083206001600160a01b0385168085529252808320805460ff1916905551339285917ff6391f5c32d9c69d2a47ea670b442974b53935d1edc7fd64eb21e047a839171b9190a45050565b60008051602061256c833981519152546001600160a01b031690565b6116876112ee565b6106d05760405162461bcd60e51b815260206004820152602b60248201527f4d75737420686176652061646d696e20726f6c6520746f20706572666f726d2060448201526a3a3434b99030b1ba34b7b760a91b6064820152608401610438565b7f4910fdfa16fed3260ed0e7147f7cc6da11a60208b5b9406d12a635614ffd91435460ff161561171a5761058b83611adf565b826001600160a01b03166352d1902d6040518163ffffffff1660e01b815260040160206040518083038186803b15801561175357600080fd5b505afa925050508015611783575060408051601f3d908101601f19168201909252611780918101906120d1565b60015b6117e65760405162461bcd60e51b815260206004820152602e60248201527f45524331393637557067726164653a206e657720696d706c656d656e7461746960448201526d6f6e206973206e6f74205555505360901b6064820152608401610438565b60008051602061256c83398151915281146118555760405162461bcd60e51b815260206004820152602960248201527f45524331393637557067726164653a20756e737570706f727465642070726f786044820152681a58589b195555525160ba1b6064820152608401610438565b5061058b838383611b7b565b7f65d7a28e3265b37a6474929f336521b332c1681b933f6cb9f3376673440d862a90565b61188d611ba6565b6097805460ff191690557f5db9ee0a495bf2e6ff9c91a7834c1ba4fdd244a5e8aa4e537bd38aeae4b073aa335b6040516001600160a01b03909116815260200160405180910390a1565b600260c954141561192a5760405162461bcd60e51b815260206004820152601f60248201527f5265656e7472616e637947756172643a207265656e7472616e742063616c6c006044820152606401610438565b600260c955565b600160c955565b600054610100900460ff1661195f5760405162461bcd60e51b8152600401610438906123cc565b6097805460ff19169055565b611973611bef565b6097805460ff191660011790557f62e78cea01bee320cd4e420270b5ea74000d11b0c9f74754ebdbfc544b05a2586118ba3390565b600054610100900460ff1661087c5760405162461bcd60e51b8152600401610438906123cc565b600054610100900460ff166119315760405162461bcd60e51b8152600401610438906123cc565b7fa49807205ce4d355092ef5a8a18f56e8913cf4a201fbe287825b095693c2177590565b6105628282611576565b600082815260656020526040808220600101805490849055905190918391839186917fbd79b86ffe0ab8e8776151514217cd7cacd52c909f66475c3af44e129f0b00ff9190a4505050565b60006001600160a01b03821663b93f9b0a826114fe565b611a9082826111ef565b61056257611a9d81611c35565b611aa8836020611c47565b604051602001611ab99291906121f5565b60408051601f198184030181529082905262461bcd60e51b825261043891600401612287565b6001600160a01b0381163b611b4c5760405162461bcd60e51b815260206004820152602d60248201527f455243313936373a206e657720696d706c656d656e746174696f6e206973206e60448201526c1bdd08184818dbdb9d1c9858dd609a1b6064820152608401610438565b60008051602061256c83398151915280546001600160a01b0319166001600160a01b0392909216919091179055565b611b8483611e30565b600082511180611b915750805b1561058b57611ba08383611e70565b50505050565b60975460ff1661087c5760405162461bcd60e51b815260206004820152601460248201527314185d5cd8589b194e881b9bdd081c185d5cd95960621b6044820152606401610438565b60975460ff161561087c5760405162461bcd60e51b815260206004820152601060248201526f14185d5cd8589b194e881c185d5cd95960821b6044820152606401610438565b60606103ec6001600160a01b03831660145b60606000611c56836002612496565b611c6190600261247e565b67ffffffffffffffff811115611c8757634e487b7160e01b600052604160045260246000fd5b6040519080825280601f01601f191660200182016040528015611cb1576020820181803683370190505b509050600360fc1b81600081518110611cda57634e487b7160e01b600052603260045260246000fd5b60200101906001600160f81b031916908160001a905350600f60fb1b81600181518110611d1757634e487b7160e01b600052603260045260246000fd5b60200101906001600160f81b031916908160001a9053506000611d3b846002612496565b611d4690600161247e565b90505b6001811115611dda576f181899199a1a9b1b9c1cb0b131b232b360811b85600f1660108110611d8857634e487b7160e01b600052603260045260246000fd5b1a60f81b828281518110611dac57634e487b7160e01b600052603260045260246000fd5b60200101906001600160f81b031916908160001a90535060049490941c93611dd3816124f8565b9050611d49565b508315611e295760405162461bcd60e51b815260206004820181905260248201527f537472696e67733a20686578206c656e67746820696e73756666696369656e746044820152606401610438565b9392505050565b611e3981611adf565b6040516001600160a01b038216907fbc7cd75a20ee27fd9adebab32041f755214dbc6bffa90cc0225b39da2e5c2d3b90600090a250565b60606001600160a01b0383163b611ed85760405162461bcd60e51b815260206004820152602660248201527f416464726573733a2064656c65676174652063616c6c20746f206e6f6e2d636f6044820152651b9d1c9858dd60d21b6064820152608401610438565b600080846001600160a01b031684604051611ef391906121d9565b600060405180830381855af49150503d8060008114611f2e576040519150601f19603f3d011682016040523d82523d6000602084013e611f33565b606091505b5091509150611f5b828260405180606001604052806027815260200161258c60279139611f64565b95945050505050565b60608315611f73575081611e29565b611e298383815115611f885781518083602001fd5b8060405162461bcd60e51b81526004016104389190612287565b600060208284031215611fb3578081fd5b8135611e2981612556565b600060208284031215611fcf578081fd5b8151611e2981612556565b60008060408385031215611fec578081fd5b8235611ff781612556565b9150602083013567ffffffffffffffff80821115612013578283fd5b818501915085601f830112612026578283fd5b81358181111561203857612038612540565b604051601f8201601f19908116603f0116810190838211818310171561206057612060612540565b81604052828152886020848701011115612078578586fd5b82602086016020830137856020848301015280955050505050509250929050565b6000602082840312156120aa578081fd5b81518015158114611e29578182fd5b6000602082840312156120ca578081fd5b5035919050565b6000602082840312156120e2578081fd5b5051919050565b600080604083850312156120fb578182fd5b82359150602083013561210d81612556565b809150509250929050565b600060208284031215612129578081fd5b81356001600160e01b031981168114611e29578182fd5b60008060208385031215612152578182fd5b823567ffffffffffffffff80821115612169578384fd5b818501915085601f83011261217c578384fd5b81358181111561218a578485fd5b86602082850101111561219b578485fd5b60209290920196919550909350505050565b600081518084526121c58160208601602086016124cc565b601f01601f19169290920160200192915050565b600082516121eb8184602087016124cc565b9190910192915050565b76020b1b1b2b9b9a1b7b73a3937b61d1030b1b1b7bab73a1604d1b8152600083516122278160178501602088016124cc565b7001034b99036b4b9b9b4b733903937b6329607d1b60179184019182015283516122588160288401602088016124cc565b01602801949350505050565b821515815260406020820152600061227f60408301846121ad565b949350505050565b602081526000611e2960208301846121ad565b6020808252602c908201527f4d75737420686176652070617573657220726f6c6520746f20706572666f726d60408201526b103a3434b99030b1ba34b7b760a11b606082015260800190565b6020808252602c908201527f46756e6374696f6e206d7573742062652063616c6c6564207468726f7567682060408201526b19195b1959d85d1958d85b1b60a21b606082015260800190565b6020808252602c908201527f46756e6374696f6e206d7573742062652063616c6c6564207468726f7567682060408201526b6163746976652070726f787960a01b606082015260800190565b6020808252602e908201527f496e697469616c697a61626c653a20636f6e747261637420697320616c72656160408201526d191e481a5b9a5d1a585b1a5e995960921b606082015260800190565b6020808252602b908201527f496e697469616c697a61626c653a20636f6e7472616374206973206e6f74206960408201526a6e697469616c697a696e6760a81b606082015260800190565b60208082526041908201527f6f70706f7274756e6974794f726967696e6174696f6e20636f6e74726163742060408201527f63616e2061646420746865206f70706f7274756e69747920696e206b656570656060820152603960f91b608082015260a00190565b600082198211156124915761249161252a565b500190565b60008160001904831182151516156124b0576124b061252a565b500290565b6000828210156124c7576124c761252a565b500390565b60005b838110156124e75781810151838201526020016124cf565b83811115611ba05750506000910152565b6000816125075761250761252a565b506000190190565b60006000198214156125235761252361252a565b5060010190565b634e487b7160e01b600052601160045260246000fd5b634e487b7160e01b600052604160045260246000fd5b6001600160a01b03811681146106d057600080fdfe360894a13ba1a3210667c828492db98dca3e2076cc3735a920a3ca505d382bbc416464726573733a206c6f772d6c6576656c2064656c65676174652063616c6c206661696c6564a264697066735822122028e0b8d4b10817803b82ad6b1261bcfedd32ca7e524423cc8526c52a3fe3dafe64736f6c63430008040033",
  "linkReferences": {},
  "deployedLinkReferences": {}
}