{
  "_format": "hh-sol-artifact-1",
  "contractName": "DygnifyKeeper",
  "sourceName": "contracts/protocol/DygnifyKeeper.sol",
  "abi": [
    {
      "anonymous": false,
      "inputs": [
        {
          "indexed": false,
          "internalType": "address",
          "name": "previousAdmin",
          "type": "address"
        },
        {
          "indexed": false,
          "internalType": "address",
          "name": "newAdmin",
          "type": "address"
        }
      ],
      "name": "AdminChanged",
      "type": "event"
    },
    {
      "anonymous": false,
      "inputs": [
        {
          "indexed": true,
          "internalType": "address",
          "name": "beacon",
          "type": "address"
        }
      ],
      "name": "BeaconUpgraded",
      "type": "event"
    },
    {
      "anonymous": false,
      "inputs": [
        {
          "indexed": false,
          "internalType": "uint8",
          "name": "version",
          "type": "uint8"
        }
      ],
      "name": "Initialized",
      "type": "event"
    },
    {
      "anonymous": false,
      "inputs": [
        {
          "indexed": false,
          "internalType": "address",
          "name": "account",
          "type": "address"
        }
      ],
      "name": "Paused",
      "type": "event"
    },
    {
      "anonymous": false,
      "inputs": [
        {
          "indexed": true,
          "internalType": "bytes32",
          "name": "role",
          "type": "bytes32"
        },
        {
          "indexed": true,
          "internalType": "bytes32",
          "name": "previousAdminRole",
          "type": "bytes32"
        },
        {
          "indexed": true,
          "internalType": "bytes32",
          "name": "newAdminRole",
          "type": "bytes32"
        }
      ],
      "name": "RoleAdminChanged",
      "type": "event"
    },
    {
      "anonymous": false,
      "inputs": [
        {
          "indexed": true,
          "internalType": "bytes32",
          "name": "role",
          "type": "bytes32"
        },
        {
          "indexed": true,
          "internalType": "address",
          "name": "account",
          "type": "address"
        },
        {
          "indexed": true,
          "internalType": "address",
          "name": "sender",
          "type": "address"
        }
      ],
      "name": "RoleGranted",
      "type": "event"
    },
    {
      "anonymous": false,
      "inputs": [
        {
          "indexed": true,
          "internalType": "bytes32",
          "name": "role",
          "type": "bytes32"
        },
        {
          "indexed": true,
          "internalType": "address",
          "name": "account",
          "type": "address"
        },
        {
          "indexed": true,
          "internalType": "address",
          "name": "sender",
          "type": "address"
        }
      ],
      "name": "RoleRevoked",
      "type": "event"
    },
    {
      "anonymous": false,
      "inputs": [
        {
          "indexed": false,
          "internalType": "address",
          "name": "account",
          "type": "address"
        }
      ],
      "name": "Unpaused",
      "type": "event"
    },
    {
      "anonymous": false,
      "inputs": [
        {
          "indexed": true,
          "internalType": "address",
          "name": "implementation",
          "type": "address"
        }
      ],
      "name": "Upgraded",
      "type": "event"
    },
    {
      "inputs": [],
      "name": "ADMIN_ROLE",
      "outputs": [
        {
          "internalType": "bytes32",
          "name": "",
          "type": "bytes32"
        }
      ],
      "stateMutability": "view",
      "type": "function"
    },
    {
      "inputs": [],
      "name": "DEFAULT_ADMIN_ROLE",
      "outputs": [
        {
          "internalType": "bytes32",
          "name": "",
          "type": "bytes32"
        }
      ],
      "stateMutability": "view",
      "type": "function"
    },
    {
      "inputs": [],
      "name": "PAUSER_ROLE",
      "outputs": [
        {
          "internalType": "bytes32",
          "name": "",
          "type": "bytes32"
        }
      ],
      "stateMutability": "view",
      "type": "function"
    },
    {
      "inputs": [
        {
          "internalType": "address",
          "name": "owner",
          "type": "address"
        }
      ],
      "name": "_BaseUpgradeablePausable_init",
      "outputs": [],
      "stateMutability": "nonpayable",
      "type": "function"
    },
    {
      "inputs": [],
      "name": "__PauserPausable__init",
      "outputs": [],
      "stateMutability": "nonpayable",
      "type": "function"
    },
    {
      "inputs": [
        {
          "internalType": "bytes32",
          "name": "_id",
          "type": "bytes32"
        }
      ],
      "name": "addOpportunityInKeeper",
      "outputs": [],
      "stateMutability": "nonpayable",
      "type": "function"
    },
    {
      "inputs": [
        {
          "internalType": "bytes",
          "name": "",
          "type": "bytes"
        }
      ],
      "name": "checkUpkeep",
      "outputs": [
        {
          "internalType": "bool",
          "name": "upkeepNeeded",
          "type": "bool"
        },
        {
          "internalType": "bytes",
          "name": "",
          "type": "bytes"
        }
      ],
      "stateMutability": "view",
      "type": "function"
    },
    {
      "inputs": [
        {
          "internalType": "bytes32",
          "name": "role",
          "type": "bytes32"
        }
      ],
      "name": "getRoleAdmin",
      "outputs": [
        {
          "internalType": "bytes32",
          "name": "",
          "type": "bytes32"
        }
      ],
      "stateMutability": "view",
      "type": "function"
    },
    {
      "inputs": [
        {
          "internalType": "bytes32",
          "name": "role",
          "type": "bytes32"
        },
        {
          "internalType": "address",
          "name": "account",
          "type": "address"
        }
      ],
      "name": "grantRole",
      "outputs": [],
      "stateMutability": "nonpayable",
      "type": "function"
    },
    {
      "inputs": [
        {
          "internalType": "bytes32",
          "name": "role",
          "type": "bytes32"
        },
        {
          "internalType": "address",
          "name": "account",
          "type": "address"
        }
      ],
      "name": "hasRole",
      "outputs": [
        {
          "internalType": "bool",
          "name": "",
          "type": "bool"
        }
      ],
      "stateMutability": "view",
      "type": "function"
    },
    {
      "inputs": [
        {
          "internalType": "contract DygnifyConfig",
          "name": "_dygnifyConfig",
          "type": "address"
        },
        {
          "internalType": "uint256",
          "name": "_threshold",
          "type": "uint256"
        }
      ],
      "name": "initialize",
      "outputs": [],
      "stateMutability": "nonpayable",
      "type": "function"
    },
    {
      "inputs": [],
      "name": "isAdmin",
      "outputs": [
        {
          "internalType": "bool",
          "name": "",
          "type": "bool"
        }
      ],
      "stateMutability": "view",
      "type": "function"
    },
    {
      "inputs": [],
      "name": "pause",
      "outputs": [],
      "stateMutability": "nonpayable",
      "type": "function"
    },
    {
      "inputs": [],
      "name": "paused",
      "outputs": [
        {
          "internalType": "bool",
          "name": "",
          "type": "bool"
        }
      ],
      "stateMutability": "view",
      "type": "function"
    },
    {
      "inputs": [
        {
          "internalType": "bytes",
          "name": "",
          "type": "bytes"
        }
      ],
      "name": "performUpkeep",
      "outputs": [],
      "stateMutability": "nonpayable",
      "type": "function"
    },
    {
      "inputs": [],
      "name": "proxiableUUID",
      "outputs": [
        {
          "internalType": "bytes32",
          "name": "",
          "type": "bytes32"
        }
      ],
      "stateMutability": "view",
      "type": "function"
    },
    {
      "inputs": [
        {
          "internalType": "bytes32",
          "name": "_id",
          "type": "bytes32"
        }
      ],
      "name": "removeOpportunityInKeeper",
      "outputs": [],
      "stateMutability": "nonpayable",
      "type": "function"
    },
    {
      "inputs": [
        {
          "internalType": "bytes32",
          "name": "role",
          "type": "bytes32"
        },
        {
          "internalType": "address",
          "name": "account",
          "type": "address"
        }
      ],
      "name": "renounceRole",
      "outputs": [],
      "stateMutability": "nonpayable",
      "type": "function"
    },
    {
      "inputs": [
        {
          "internalType": "bytes32",
          "name": "role",
          "type": "bytes32"
        },
        {
          "internalType": "address",
          "name": "account",
          "type": "address"
        }
      ],
      "name": "revokeRole",
      "outputs": [],
      "stateMutability": "nonpayable",
      "type": "function"
    },
    {
      "inputs": [
        {
          "internalType": "bytes4",
          "name": "interfaceId",
          "type": "bytes4"
        }
      ],
      "name": "supportsInterface",
      "outputs": [
        {
          "internalType": "bool",
          "name": "",
          "type": "bool"
        }
      ],
      "stateMutability": "view",
      "type": "function"
    },
    {
      "inputs": [],
      "name": "unpause",
      "outputs": [],
      "stateMutability": "nonpayable",
      "type": "function"
    },
    {
      "inputs": [
        {
          "internalType": "address",
          "name": "newImplementation",
          "type": "address"
        }
      ],
      "name": "upgradeTo",
      "outputs": [],
      "stateMutability": "nonpayable",
      "type": "function"
    },
    {
      "inputs": [
        {
          "internalType": "address",
          "name": "newImplementation",
          "type": "address"
        },
        {
          "internalType": "bytes",
          "name": "data",
          "type": "bytes"
        }
      ],
      "name": "upgradeToAndCall",
      "outputs": [],
      "stateMutability": "payable",
      "type": "function"
    }
  ],
  "bytecode": "0x60a06040523060601b60805234801561001757600080fd5b5060805160601c612a0861005260003960008181610839015281816108be01528181610fd50152818161105a015261125f0152612a086000f3fe6080604052600436106101805760003560e01c806352d1902d116100d6578063a12dde4d1161007f578063cd6dc68711610059578063cd6dc6871461042b578063d547741f1461044b578063e63ab1e91461046b57600080fd5b8063a12dde4d146103e1578063a217fddf14610401578063b6db75a01461041657600080fd5b806375b238fc116100b057806375b238fc146103525780638456cb591461038657806391d148541461039b57600080fd5b806352d1902d146102f75780635c975abb1461030c5780636e04ff0d1461032457600080fd5b80633659cfe6116101385780634585e33b116101125780634585e33b146102af5780634f1ef286146102cf578063526d81f6146102e257600080fd5b80633659cfe61461025a5780633aa7c2831461027a5780633f4ba83a1461029a57600080fd5b80632d37a3d2116101695780632d37a3d2146101f85780632f2ff15d1461021a57806336568abe1461023a57600080fd5b806301ffc9a714610185578063248a9ca3146101ba575b600080fd5b34801561019157600080fd5b506101a56101a03660046126ff565b61049f565b60405190151581526020015b60405180910390f35b3480156101c657600080fd5b506101ea6101d53660046126a0565b60009081526065602052604090206001015490565b6040519081526020016101b1565b34801561020457600080fd5b506102186102133660046126a0565b610508565b005b34801561022657600080fd5b506102186102353660046126d0565b61077c565b34801561024657600080fd5b506102186102553660046126d0565b6107a6565b34801561026657600080fd5b50610218610275366004612589565b61082e565b34801561028657600080fd5b506102186102953660046126a0565b6109aa565b3480156102a657600080fd5b50610218610b54565b3480156102bb57600080fd5b506102186102ca366004612727565b610be9565b6102186102dd3660046125c1565b610fca565b3480156102ee57600080fd5b50610218611133565b34801561030357600080fd5b506101ea611252565b34801561031857600080fd5b5060975460ff166101a5565b34801561033057600080fd5b5061034461033f366004612727565b611317565b6040516101b1929190612888565b34801561035e57600080fd5b506101ea7fa49807205ce4d355092ef5a8a18f56e8913cf4a201fbe287825b095693c2177581565b34801561039257600080fd5b506102186114ab565b3480156103a757600080fd5b506101a56103b63660046126d0565b60009182526065602090815260408084206001600160a01b0393909316845291905290205460ff1690565b3480156103ed57600080fd5b506102186103fc366004612589565b61153e565b34801561040d57600080fd5b506101ea600081565b34801561042257600080fd5b506101a56116df565b34801561043757600080fd5b50610218610446366004612794565b611710565b34801561045757600080fd5b506102186104663660046126d0565b61196e565b34801561047757600080fd5b506101ea7f65d7a28e3265b37a6474929f336521b332c1681b933f6cb9f3376673440d862a81565b60006001600160e01b031982167f7965db0b00000000000000000000000000000000000000000000000000000000148061050257507f01ffc9a7000000000000000000000000000000000000000000000000000000006001600160e01b03198316145b92915050565b61016054604051630231155f60e51b8152600481018390526001600160a01b0390911690634622abe09060240160206040518083038186803b15801561054d57600080fd5b505afa158015610561573d6000803e3d6000fd5b505050506040513d601f19601f820116820180604052508101906105859190612680565b15156001146105db5760405162461bcd60e51b815260206004820152601960248201527f6f70706f7274756e69747920646f65736e27742065786973740000000000000060448201526064015b60405180910390fd5b61015f546105f1906001600160a01b0316611993565b6001600160a01b0316336001600160a01b0316146106815760405162461bcd60e51b815260206004820152604160248201527f6f70706f7274756e6974794f726967696e6174696f6e20636f6e74726163742060448201527f63616e2061646420746865206f70706f7274756e69747920696e206b656570656064820152603960f91b608482015260a4016105d2565b60005b61016254811015610778578161016282815481106106b257634e487b7160e01b600052603260045260246000fd5b906000526020600020015414156107665761016280546106d4906001906128f5565b815481106106f257634e487b7160e01b600052603260045260246000fd5b9060005260206000200154610162828154811061071f57634e487b7160e01b600052603260045260246000fd5b600091825260209091200155610162805461073c906001906128f5565b8154811061075a57634e487b7160e01b600052603260045260246000fd5b60009182526020822001555b806107708161294f565b915050610684565b5050565b60008281526065602052604090206001015461079781611a15565b6107a18383611a1f565b505050565b6001600160a01b03811633146108245760405162461bcd60e51b815260206004820152602f60248201527f416363657373436f6e74726f6c3a2063616e206f6e6c792072656e6f756e636560448201527f20726f6c657320666f722073656c66000000000000000000000000000000000060648201526084016105d2565b6107788282611ac1565b306001600160a01b037f00000000000000000000000000000000000000000000000000000000000000001614156108bc5760405162461bcd60e51b815260206004820152602c60248201527f46756e6374696f6e206d7573742062652063616c6c6564207468726f7567682060448201526b19195b1959d85d1958d85b1b60a21b60648201526084016105d2565b7f00000000000000000000000000000000000000000000000000000000000000006001600160a01b03166109177f360894a13ba1a3210667c828492db98dca3e2076cc3735a920a3ca505d382bbc546001600160a01b031690565b6001600160a01b0316146109825760405162461bcd60e51b815260206004820152602c60248201527f46756e6374696f6e206d7573742062652063616c6c6564207468726f7567682060448201526b6163746976652070726f787960a01b60648201526084016105d2565b61098b81611b44565b604080516000808252602082019092526109a791839190611bbe565b50565b61016054604051630231155f60e51b8152600481018390526001600160a01b0390911690634622abe09060240160206040518083038186803b1580156109ef57600080fd5b505afa158015610a03573d6000803e3d6000fd5b505050506040513d601f19601f82011682018060405250810190610a279190612680565b1515600114610a785760405162461bcd60e51b815260206004820152601b60248201527f6f70706f7274756e697479206973206e6f742064726177646f776e000000000060448201526064016105d2565b61015f54610a8e906001600160a01b0316611993565b6001600160a01b0316336001600160a01b031614610b1e5760405162461bcd60e51b815260206004820152604160248201527f6f70706f7274756e6974794f726967696e6174696f6e20636f6e74726163742060448201527f63616e2061646420746865206f70706f7274756e69747920696e206b656570656064820152603960f91b608482015260a4016105d2565b61016280546001810182556000919091527f29af0939a5988989bfee913a9ad10b9335cb63ebc9fd2b69e5f877d0455ac9190155565b610b7e7f65d7a28e3265b37a6474929f336521b332c1681b933f6cb9f3376673440d862a336103b6565b610bdf5760405162461bcd60e51b815260206004820152602c60248201527f4d75737420686176652070617573657220726f6c6520746f20706572666f726d60448201526b103a3434b99030b1ba34b7b760a11b60648201526084016105d2565b610be7611d6d565b565b600260c9541415610c3c5760405162461bcd60e51b815260206004820152601f60248201527f5265656e7472616e637947756172643a207265656e7472616e742063616c6c0060448201526064016105d2565b600260c955610163805460ff1916600117905560005b61016254811015610fb5576101605461016280546000926001600160a01b031691637e4dc6d59185908110610c9757634e487b7160e01b600052603260045260246000fd5b90600052602060002001546040518263ffffffff1660e01b8152600401610cc091815260200190565b60206040518083038186803b158015610cd857600080fd5b505afa158015610cec573d6000803e3d6000fd5b505050506040513d601f19601f82011682018060405250810190610d1091906125a5565b6001600160a01b031663df9fd1c16040518163ffffffff1660e01b815260040160206040518083038186803b158015610d4857600080fd5b505afa158015610d5c573d6000803e3d6000fd5b505050506040513d601f19601f82011682018060405250810190610d8091906126b8565b905042811015610fa2576000610d9682426128f5565b905061016154811115610fa0576101605461016280546001600160a01b0390921691636dc305f9919086908110610ddd57634e487b7160e01b600052603260045260246000fd5b6000918252602090912001546101605461016280546001600160a01b0390921691637e4dc6d5919089908110610e2357634e487b7160e01b600052603260045260246000fd5b90600052602060002001546040518263ffffffff1660e01b8152600401610e4c91815260200190565b60206040518083038186803b158015610e6457600080fd5b505afa158015610e78573d6000803e3d6000fd5b505050506040513d601f19601f82011682018060405250810190610e9c91906125a5565b6040516001600160e01b031960e085901b16815260048101929092526001600160a01b03166024820152604401600060405180830381600087803b158015610ee357600080fd5b505af1158015610ef7573d6000803e3d6000fd5b50506101628054909250610f0e91506001906128f5565b81548110610f2c57634e487b7160e01b600052603260045260246000fd5b90600052602060002001546101628481548110610f5957634e487b7160e01b600052603260045260246000fd5b6000918252602090912001556101628054610f76906001906128f5565b81548110610f9457634e487b7160e01b600052603260045260246000fd5b60009182526020822001555b505b5080610fad8161294f565b915050610c52565b5050610163805460ff1916905550600160c955565b306001600160a01b037f00000000000000000000000000000000000000000000000000000000000000001614156110585760405162461bcd60e51b815260206004820152602c60248201527f46756e6374696f6e206d7573742062652063616c6c6564207468726f7567682060448201526b19195b1959d85d1958d85b1b60a21b60648201526084016105d2565b7f00000000000000000000000000000000000000000000000000000000000000006001600160a01b03166110b37f360894a13ba1a3210667c828492db98dca3e2076cc3735a920a3ca505d382bbc546001600160a01b031690565b6001600160a01b03161461111e5760405162461bcd60e51b815260206004820152602c60248201527f46756e6374696f6e206d7573742062652063616c6c6564207468726f7567682060448201526b6163746976652070726f787960a01b60648201526084016105d2565b61112782611b44565b61077882826001611bbe565b600054610100900460ff16158080156111535750600054600160ff909116105b8061116d5750303b15801561116d575060005460ff166001145b6111df5760405162461bcd60e51b815260206004820152602e60248201527f496e697469616c697a61626c653a20636f6e747261637420697320616c72656160448201527f647920696e697469616c697a656400000000000000000000000000000000000060648201526084016105d2565b6000805460ff191660011790558015611202576000805461ff0019166101001790555b61120a611dbf565b80156109a7576000805461ff0019169055604051600181527f7f26b83ff96e1f2b6a682f133852f6798a09c465da95921460cefb38474024989060200160405180910390a150565b6000306001600160a01b037f000000000000000000000000000000000000000000000000000000000000000016146112f25760405162461bcd60e51b815260206004820152603860248201527f555550535570677261646561626c653a206d757374206e6f742062652063616c60448201527f6c6564207468726f7567682064656c656761746563616c6c000000000000000060648201526084016105d2565b507f360894a13ba1a3210667c828492db98dca3e2076cc3735a920a3ca505d382bbc90565b6000606081805b6101625481101561148f576101605461016280546000926001600160a01b031691637e4dc6d5918590811061136357634e487b7160e01b600052603260045260246000fd5b90600052602060002001546040518263ffffffff1660e01b815260040161138c91815260200190565b60206040518083038186803b1580156113a457600080fd5b505afa1580156113b8573d6000803e3d6000fd5b505050506040513d601f19601f820116820180604052508101906113dc91906125a5565b6001600160a01b031663df9fd1c16040518163ffffffff1660e01b815260040160206040518083038186803b15801561141457600080fd5b505afa158015611428573d6000803e3d6000fd5b505050506040513d601f19601f8201168201806040525081019061144c91906126b8565b90504281101561147c57600061146282426128f5565b90506101615481111561147a5760019350505061148f565b505b50806114878161294f565b91505061131e565b506101635460ff161580156114a15750805b9250509250929050565b6114d57f65d7a28e3265b37a6474929f336521b332c1681b933f6cb9f3376673440d862a336103b6565b6115365760405162461bcd60e51b815260206004820152602c60248201527f4d75737420686176652070617573657220726f6c6520746f20706572666f726d60448201526b103a3434b99030b1ba34b7b760a11b60648201526084016105d2565b610be7611e36565b600054610100900460ff166115a95760405162461bcd60e51b815260206004820152602b60248201527f496e697469616c697a61626c653a20636f6e7472616374206973206e6f74206960448201526a6e697469616c697a696e6760a81b60648201526084016105d2565b6001600160a01b0381166115ff5760405162461bcd60e51b815260206004820181905260248201527f4f776e65722063616e6e6f7420626520746865207a65726f206164647265737360448201526064016105d2565b611607611e73565b61160f611dbf565b611617611ede565b6116417fa49807205ce4d355092ef5a8a18f56e8913cf4a201fbe287825b095693c2177582611f50565b61166b7f65d7a28e3265b37a6474929f336521b332c1681b933f6cb9f3376673440d862a82611f50565b6116b57f65d7a28e3265b37a6474929f336521b332c1681b933f6cb9f3376673440d862a7fa49807205ce4d355092ef5a8a18f56e8913cf4a201fbe287825b095693c21775611f5a565b6109a77fa49807205ce4d355092ef5a8a18f56e8913cf4a201fbe287825b095693c2177580611f5a565b600061170b7fa49807205ce4d355092ef5a8a18f56e8913cf4a201fbe287825b095693c21775336103b6565b905090565b600054610100900460ff16158080156117305750600054600160ff909116105b8061174a5750303b15801561174a575060005460ff166001145b6117bc5760405162461bcd60e51b815260206004820152602e60248201527f496e697469616c697a61626c653a20636f6e747261637420697320616c72656160448201527f647920696e697469616c697a656400000000000000000000000000000000000060648201526084016105d2565b6000805460ff1916600117905580156117df576000805461ff0019166101001790555b6001600160a01b0383166118355760405162461bcd60e51b815260206004820152601660248201527f496e76616c696420636f6e66696720616464726573730000000000000000000060448201526064016105d2565b61015f805473ffffffffffffffffffffffffffffffffffffffff19166001600160a01b03851690811790915560009061186d90611fa5565b90506001600160a01b0381166118c55760405162461bcd60e51b815260206004820152600d60248201527f496e76616c6964204f776e65720000000000000000000000000000000000000060448201526064016105d2565b61015f546118db906001600160a01b0316611993565b610160805473ffffffffffffffffffffffffffffffffffffffff19166001600160a01b03929092169190911790556119128161153e565b61191f83620151806128d6565b610161555080156107a1576000805461ff0019169055604051600181527f7f26b83ff96e1f2b6a682f133852f6798a09c465da95921460cefb38474024989060200160405180910390a1505050565b60008281526065602052604090206001015461198981611a15565b6107a18383611ac1565b60006001600160a01b03821663b93f9b0a60065b6040518263ffffffff1660e01b81526004016119c591815260200190565b60206040518083038186803b1580156119dd57600080fd5b505afa1580156119f1573d6000803e3d6000fd5b505050506040513d601f19601f8201168201806040525081019061050291906125a5565b6109a78133611fbc565b60008281526065602090815260408083206001600160a01b038516845290915290205460ff166107785760008281526065602090815260408083206001600160a01b03851684529091529020805460ff19166001179055611a7d3390565b6001600160a01b0316816001600160a01b0316837f2f8788117e7eff1d82e926ec794901d17c78024a50270940304540a733656f0d60405160405180910390a45050565b60008281526065602090815260408083206001600160a01b038516845290915290205460ff16156107785760008281526065602090815260408083206001600160a01b0385168085529252808320805460ff1916905551339285917ff6391f5c32d9c69d2a47ea670b442974b53935d1edc7fd64eb21e047a839171b9190a45050565b611b4c6116df565b6109a75760405162461bcd60e51b815260206004820152602b60248201527f4d75737420686176652061646d696e20726f6c6520746f20706572666f726d2060448201527f7468697320616374696f6e00000000000000000000000000000000000000000060648201526084016105d2565b7f4910fdfa16fed3260ed0e7147f7cc6da11a60208b5b9406d12a635614ffd91435460ff1615611bf1576107a18361203c565b826001600160a01b03166352d1902d6040518163ffffffff1660e01b815260040160206040518083038186803b158015611c2a57600080fd5b505afa925050508015611c5a575060408051601f3d908101601f19168201909252611c57918101906126b8565b60015b611ccc5760405162461bcd60e51b815260206004820152602e60248201527f45524331393637557067726164653a206e657720696d706c656d656e7461746960448201527f6f6e206973206e6f74205555505300000000000000000000000000000000000060648201526084016105d2565b7f360894a13ba1a3210667c828492db98dca3e2076cc3735a920a3ca505d382bbc8114611d615760405162461bcd60e51b815260206004820152602960248201527f45524331393637557067726164653a20756e737570706f727465642070726f7860448201527f6961626c6555554944000000000000000000000000000000000000000000000060648201526084016105d2565b506107a1838383612107565b611d75612132565b6097805460ff191690557f5db9ee0a495bf2e6ff9c91a7834c1ba4fdd244a5e8aa4e537bd38aeae4b073aa335b6040516001600160a01b03909116815260200160405180910390a1565b600054610100900460ff16611e2a5760405162461bcd60e51b815260206004820152602b60248201527f496e697469616c697a61626c653a20636f6e7472616374206973206e6f74206960448201526a6e697469616c697a696e6760a81b60648201526084016105d2565b6097805460ff19169055565b611e3e612184565b6097805460ff191660011790557f62e78cea01bee320cd4e420270b5ea74000d11b0c9f74754ebdbfc544b05a258611da23390565b600054610100900460ff16610be75760405162461bcd60e51b815260206004820152602b60248201527f496e697469616c697a61626c653a20636f6e7472616374206973206e6f74206960448201526a6e697469616c697a696e6760a81b60648201526084016105d2565b600054610100900460ff16611f495760405162461bcd60e51b815260206004820152602b60248201527f496e697469616c697a61626c653a20636f6e7472616374206973206e6f74206960448201526a6e697469616c697a696e6760a81b60648201526084016105d2565b600160c955565b6107788282611a1f565b600082815260656020526040808220600101805490849055905190918391839186917fbd79b86ffe0ab8e8776151514217cd7cacd52c909f66475c3af44e129f0b00ff9190a4505050565b60006001600160a01b03821663b93f9b0a826119a7565b60008281526065602090815260408083206001600160a01b038516845290915290205460ff1661077857611ffa816001600160a01b031660146121d7565b6120058360206121d7565b604051602001612016929190612807565b60408051601f198184030181529082905262461bcd60e51b82526105d2916004016128ab565b6001600160a01b0381163b6120b95760405162461bcd60e51b815260206004820152602d60248201527f455243313936373a206e657720696d706c656d656e746174696f6e206973206e60448201527f6f74206120636f6e74726163740000000000000000000000000000000000000060648201526084016105d2565b7f360894a13ba1a3210667c828492db98dca3e2076cc3735a920a3ca505d382bbc805473ffffffffffffffffffffffffffffffffffffffff19166001600160a01b0392909216919091179055565b61211083612405565b60008251118061211d5750805b156107a15761212c8383612445565b50505050565b60975460ff16610be75760405162461bcd60e51b815260206004820152601460248201527f5061757361626c653a206e6f742070617573656400000000000000000000000060448201526064016105d2565b60975460ff1615610be75760405162461bcd60e51b815260206004820152601060248201527f5061757361626c653a207061757365640000000000000000000000000000000060448201526064016105d2565b606060006121e68360026128d6565b6121f19060026128be565b67ffffffffffffffff81111561221757634e487b7160e01b600052604160045260246000fd5b6040519080825280601f01601f191660200182016040528015612241576020820181803683370190505b5090507f30000000000000000000000000000000000000000000000000000000000000008160008151811061228657634e487b7160e01b600052603260045260246000fd5b60200101906001600160f81b031916908160001a9053507f7800000000000000000000000000000000000000000000000000000000000000816001815181106122df57634e487b7160e01b600052603260045260246000fd5b60200101906001600160f81b031916908160001a90535060006123038460026128d6565b61230e9060016128be565b90505b60018111156123af577f303132333435363738396162636465660000000000000000000000000000000085600f166010811061235d57634e487b7160e01b600052603260045260246000fd5b1a60f81b82828151811061238157634e487b7160e01b600052603260045260246000fd5b60200101906001600160f81b031916908160001a90535060049490941c936123a881612938565b9050612311565b5083156123fe5760405162461bcd60e51b815260206004820181905260248201527f537472696e67733a20686578206c656e67746820696e73756666696369656e7460448201526064016105d2565b9392505050565b61240e8161203c565b6040516001600160a01b038216907fbc7cd75a20ee27fd9adebab32041f755214dbc6bffa90cc0225b39da2e5c2d3b90600090a250565b60606001600160a01b0383163b6124c45760405162461bcd60e51b815260206004820152602660248201527f416464726573733a2064656c65676174652063616c6c20746f206e6f6e2d636f60448201527f6e7472616374000000000000000000000000000000000000000000000000000060648201526084016105d2565b600080846001600160a01b0316846040516124df91906127eb565b600060405180830381855af49150503d806000811461251a576040519150601f19603f3d011682016040523d82523d6000602084013e61251f565b606091505b509150915061254782826040518060600160405280602781526020016129ac60279139612550565b95945050505050565b6060831561255f5750816123fe565b82511561256f5782518084602001fd5b8160405162461bcd60e51b81526004016105d291906128ab565b60006020828403121561259a578081fd5b81356123fe81612996565b6000602082840312156125b6578081fd5b81516123fe81612996565b600080604083850312156125d3578081fd5b82356125de81612996565b9150602083013567ffffffffffffffff808211156125fa578283fd5b818501915085601f83011261260d578283fd5b81358181111561261f5761261f612980565b604051601f8201601f19908116603f0116810190838211818310171561264757612647612980565b8160405282815288602084870101111561265f578586fd5b82602086016020830137856020848301015280955050505050509250929050565b600060208284031215612691578081fd5b815180151581146123fe578182fd5b6000602082840312156126b1578081fd5b5035919050565b6000602082840312156126c9578081fd5b5051919050565b600080604083850312156126e2578182fd5b8235915060208301356126f481612996565b809150509250929050565b600060208284031215612710578081fd5b81356001600160e01b0319811681146123fe578182fd5b60008060208385031215612739578182fd5b823567ffffffffffffffff80821115612750578384fd5b818501915085601f830112612763578384fd5b813581811115612771578485fd5b866020828501011115612782578485fd5b60209290920196919550909350505050565b600080604083850312156127a6578182fd5b82356127b181612996565b946020939093013593505050565b600081518084526127d781602086016020860161290c565b601f01601f19169290920160200192915050565b600082516127fd81846020870161290c565b9190910192915050565b7f416363657373436f6e74726f6c3a206163636f756e742000000000000000000081526000835161283f81601785016020880161290c565b7f206973206d697373696e6720726f6c6520000000000000000000000000000000601791840191820152835161287c81602884016020880161290c565b01602801949350505050565b82151581526040602082015260006128a360408301846127bf565b949350505050565b6020815260006123fe60208301846127bf565b600082198211156128d1576128d161296a565b500190565b60008160001904831182151516156128f0576128f061296a565b500290565b6000828210156129075761290761296a565b500390565b60005b8381101561292757818101518382015260200161290f565b8381111561212c5750506000910152565b6000816129475761294761296a565b506000190190565b60006000198214156129635761296361296a565b5060010190565b634e487b7160e01b600052601160045260246000fd5b634e487b7160e01b600052604160045260246000fd5b6001600160a01b03811681146109a757600080fdfe416464726573733a206c6f772d6c6576656c2064656c65676174652063616c6c206661696c6564a2646970667358221220cf4e0a28c08edf536bab2c76110fee99bf24c409f17f4691ecbd7c38e78f07d064736f6c63430008040033",
  "linkReferences": {},
  "deployedLinkReferences": {}
}