{
  "_format": "hh-sol-artifact-1",
  "contractName": "DygnifyKeeper",
  "sourceName": "contracts/protocol/DygnifyKeeper.sol",
  "abi": [
    {
      "anonymous": false,
      "inputs": [
        {
          "indexed": false,
          "internalType": "address",
          "name": "previousAdmin",
          "type": "address"
        },
        {
          "indexed": false,
          "internalType": "address",
          "name": "newAdmin",
          "type": "address"
        }
      ],
      "name": "AdminChanged",
      "type": "event"
    },
    {
      "anonymous": false,
      "inputs": [
        {
          "indexed": true,
          "internalType": "address",
          "name": "beacon",
          "type": "address"
        }
      ],
      "name": "BeaconUpgraded",
      "type": "event"
    },
    {
      "anonymous": false,
      "inputs": [
        {
          "indexed": false,
          "internalType": "uint8",
          "name": "version",
          "type": "uint8"
        }
      ],
      "name": "Initialized",
      "type": "event"
    },
    {
      "anonymous": false,
      "inputs": [
        {
          "indexed": false,
          "internalType": "address",
          "name": "account",
          "type": "address"
        }
      ],
      "name": "Paused",
      "type": "event"
    },
    {
      "anonymous": false,
      "inputs": [
        {
          "indexed": true,
          "internalType": "bytes32",
          "name": "role",
          "type": "bytes32"
        },
        {
          "indexed": true,
          "internalType": "bytes32",
          "name": "previousAdminRole",
          "type": "bytes32"
        },
        {
          "indexed": true,
          "internalType": "bytes32",
          "name": "newAdminRole",
          "type": "bytes32"
        }
      ],
      "name": "RoleAdminChanged",
      "type": "event"
    },
    {
      "anonymous": false,
      "inputs": [
        {
          "indexed": true,
          "internalType": "bytes32",
          "name": "role",
          "type": "bytes32"
        },
        {
          "indexed": true,
          "internalType": "address",
          "name": "account",
          "type": "address"
        },
        {
          "indexed": true,
          "internalType": "address",
          "name": "sender",
          "type": "address"
        }
      ],
      "name": "RoleGranted",
      "type": "event"
    },
    {
      "anonymous": false,
      "inputs": [
        {
          "indexed": true,
          "internalType": "bytes32",
          "name": "role",
          "type": "bytes32"
        },
        {
          "indexed": true,
          "internalType": "address",
          "name": "account",
          "type": "address"
        },
        {
          "indexed": true,
          "internalType": "address",
          "name": "sender",
          "type": "address"
        }
      ],
      "name": "RoleRevoked",
      "type": "event"
    },
    {
      "anonymous": false,
      "inputs": [
        {
          "indexed": false,
          "internalType": "address",
          "name": "account",
          "type": "address"
        }
      ],
      "name": "Unpaused",
      "type": "event"
    },
    {
      "anonymous": false,
      "inputs": [
        {
          "indexed": true,
          "internalType": "address",
          "name": "implementation",
          "type": "address"
        }
      ],
      "name": "Upgraded",
      "type": "event"
    },
    {
      "inputs": [],
      "name": "ADMIN_ROLE",
      "outputs": [
        {
          "internalType": "bytes32",
          "name": "",
          "type": "bytes32"
        }
      ],
      "stateMutability": "view",
      "type": "function"
    },
    {
      "inputs": [],
      "name": "DEFAULT_ADMIN_ROLE",
      "outputs": [
        {
          "internalType": "bytes32",
          "name": "",
          "type": "bytes32"
        }
      ],
      "stateMutability": "view",
      "type": "function"
    },
    {
      "inputs": [],
      "name": "PAUSER_ROLE",
      "outputs": [
        {
          "internalType": "bytes32",
          "name": "",
          "type": "bytes32"
        }
      ],
      "stateMutability": "view",
      "type": "function"
    },
    {
      "inputs": [
        {
          "internalType": "address",
          "name": "owner",
          "type": "address"
        }
      ],
      "name": "_BaseUpgradeablePausable_init",
      "outputs": [],
      "stateMutability": "nonpayable",
      "type": "function"
    },
    {
      "inputs": [],
      "name": "__PauserPausable__init",
      "outputs": [],
      "stateMutability": "nonpayable",
      "type": "function"
    },
    {
      "inputs": [
        {
          "internalType": "bytes32",
          "name": "_id",
          "type": "bytes32"
        }
      ],
      "name": "addOpportunityInKeeper",
      "outputs": [],
      "stateMutability": "nonpayable",
      "type": "function"
    },
    {
      "inputs": [
        {
          "internalType": "bytes",
          "name": "",
          "type": "bytes"
        }
      ],
      "name": "checkUpkeep",
      "outputs": [
        {
          "internalType": "bool",
          "name": "upkeepNeeded",
          "type": "bool"
        },
        {
          "internalType": "bytes",
          "name": "",
          "type": "bytes"
        }
      ],
      "stateMutability": "view",
      "type": "function"
    },
    {
      "inputs": [
        {
          "internalType": "bytes32",
          "name": "role",
          "type": "bytes32"
        }
      ],
      "name": "getRoleAdmin",
      "outputs": [
        {
          "internalType": "bytes32",
          "name": "",
          "type": "bytes32"
        }
      ],
      "stateMutability": "view",
      "type": "function"
    },
    {
      "inputs": [
        {
          "internalType": "bytes32",
          "name": "role",
          "type": "bytes32"
        },
        {
          "internalType": "address",
          "name": "account",
          "type": "address"
        }
      ],
      "name": "grantRole",
      "outputs": [],
      "stateMutability": "nonpayable",
      "type": "function"
    },
    {
      "inputs": [
        {
          "internalType": "bytes32",
          "name": "role",
          "type": "bytes32"
        },
        {
          "internalType": "address",
          "name": "account",
          "type": "address"
        }
      ],
      "name": "hasRole",
      "outputs": [
        {
          "internalType": "bool",
          "name": "",
          "type": "bool"
        }
      ],
      "stateMutability": "view",
      "type": "function"
    },
    {
      "inputs": [
        {
          "internalType": "contract DygnifyConfig",
          "name": "_dygnifyConfig",
          "type": "address"
        },
        {
          "internalType": "uint256",
          "name": "_threshold",
          "type": "uint256"
        }
      ],
      "name": "initialize",
      "outputs": [],
      "stateMutability": "nonpayable",
      "type": "function"
    },
    {
      "inputs": [],
      "name": "isAdmin",
      "outputs": [
        {
          "internalType": "bool",
          "name": "",
          "type": "bool"
        }
      ],
      "stateMutability": "view",
      "type": "function"
    },
    {
      "inputs": [],
      "name": "pause",
      "outputs": [],
      "stateMutability": "nonpayable",
      "type": "function"
    },
    {
      "inputs": [],
      "name": "paused",
      "outputs": [
        {
          "internalType": "bool",
          "name": "",
          "type": "bool"
        }
      ],
      "stateMutability": "view",
      "type": "function"
    },
    {
      "inputs": [
        {
          "internalType": "bytes",
          "name": "",
          "type": "bytes"
        }
      ],
      "name": "performUpkeep",
      "outputs": [],
      "stateMutability": "nonpayable",
      "type": "function"
    },
    {
      "inputs": [],
      "name": "proxiableUUID",
      "outputs": [
        {
          "internalType": "bytes32",
          "name": "",
          "type": "bytes32"
        }
      ],
      "stateMutability": "view",
      "type": "function"
    },
    {
      "inputs": [
        {
          "internalType": "bytes32",
          "name": "_id",
          "type": "bytes32"
        }
      ],
      "name": "removeOpportunityInKeeper",
      "outputs": [],
      "stateMutability": "nonpayable",
      "type": "function"
    },
    {
      "inputs": [
        {
          "internalType": "bytes32",
          "name": "role",
          "type": "bytes32"
        },
        {
          "internalType": "address",
          "name": "account",
          "type": "address"
        }
      ],
      "name": "renounceRole",
      "outputs": [],
      "stateMutability": "nonpayable",
      "type": "function"
    },
    {
      "inputs": [
        {
          "internalType": "bytes32",
          "name": "role",
          "type": "bytes32"
        },
        {
          "internalType": "address",
          "name": "account",
          "type": "address"
        }
      ],
      "name": "revokeRole",
      "outputs": [],
      "stateMutability": "nonpayable",
      "type": "function"
    },
    {
      "inputs": [
        {
          "internalType": "bytes4",
          "name": "interfaceId",
          "type": "bytes4"
        }
      ],
      "name": "supportsInterface",
      "outputs": [
        {
          "internalType": "bool",
          "name": "",
          "type": "bool"
        }
      ],
      "stateMutability": "view",
      "type": "function"
    },
    {
      "inputs": [],
      "name": "unpause",
      "outputs": [],
      "stateMutability": "nonpayable",
      "type": "function"
    },
    {
      "inputs": [
        {
          "internalType": "address",
          "name": "newImplementation",
          "type": "address"
        }
      ],
      "name": "upgradeTo",
      "outputs": [],
      "stateMutability": "nonpayable",
      "type": "function"
    },
    {
      "inputs": [
        {
          "internalType": "address",
          "name": "newImplementation",
          "type": "address"
        },
        {
          "internalType": "bytes",
          "name": "data",
          "type": "bytes"
        }
      ],
      "name": "upgradeToAndCall",
      "outputs": [],
      "stateMutability": "payable",
      "type": "function"
    }
  ],
  "bytecode": "0x60a06040523060601b60805234801561001757600080fd5b5060805160601c6129536100526000396000818161076b015281816107f001528181610f2001528181610fa501526111aa01526129536000f3fe6080604052600436106101805760003560e01c806352d1902d116100d6578063a12dde4d1161007f578063cd6dc68711610059578063cd6dc6871461042b578063d547741f1461044b578063e63ab1e91461046b57600080fd5b8063a12dde4d146103e1578063a217fddf14610401578063b6db75a01461041657600080fd5b806375b238fc116100b057806375b238fc146103525780638456cb591461038657806391d148541461039b57600080fd5b806352d1902d146102f75780635c975abb1461030c5780636e04ff0d1461032457600080fd5b80633659cfe6116101385780634585e33b116101125780634585e33b146102af5780634f1ef286146102cf578063526d81f6146102e257600080fd5b80633659cfe61461025a5780633aa7c2831461027a5780633f4ba83a1461029a57600080fd5b80632d37a3d2116101695780632d37a3d2146101f85780632f2ff15d1461021a57806336568abe1461023a57600080fd5b806301ffc9a714610185578063248a9ca3146101ba575b600080fd5b34801561019157600080fd5b506101a56101a036600461264a565b61049f565b60405190151581526020015b60405180910390f35b3480156101c657600080fd5b506101ea6101d53660046125eb565b60009081526065602052604090206001015490565b6040519081526020016101b1565b34801561020457600080fd5b506102186102133660046125eb565b610508565b005b34801561022657600080fd5b5061021861023536600461261b565b6106ae565b34801561024657600080fd5b5061021861025536600461261b565b6106d8565b34801561026657600080fd5b506102186102753660046124d4565b610760565b34801561028657600080fd5b506102186102953660046125eb565b6108dc565b3480156102a657600080fd5b50610218610a9f565b3480156102bb57600080fd5b506102186102ca366004612672565b610b34565b6102186102dd36600461250c565b610f15565b3480156102ee57600080fd5b5061021861107e565b34801561030357600080fd5b506101ea61119d565b34801561031857600080fd5b5060975460ff166101a5565b34801561033057600080fd5b5061034461033f366004612672565b611262565b6040516101b19291906127d3565b34801561035e57600080fd5b506101ea7fa49807205ce4d355092ef5a8a18f56e8913cf4a201fbe287825b095693c2177581565b34801561039257600080fd5b506102186113f6565b3480156103a757600080fd5b506101a56103b636600461261b565b60009182526065602090815260408084206001600160a01b0393909316845291905290205460ff1690565b3480156103ed57600080fd5b506102186103fc3660046124d4565b611489565b34801561040d57600080fd5b506101ea600081565b34801561042257600080fd5b506101a561162a565b34801561043757600080fd5b506102186104463660046126df565b61165b565b34801561045757600080fd5b5061021861046636600461261b565b6118b9565b34801561047757600080fd5b506101ea7f65d7a28e3265b37a6474929f336521b332c1681b933f6cb9f3376673440d862a81565b60006001600160e01b031982167f7965db0b00000000000000000000000000000000000000000000000000000000148061050257507f01ffc9a7000000000000000000000000000000000000000000000000000000006001600160e01b03198316145b92915050565b61015f5461051e906001600160a01b03166118de565b6001600160a01b0316336001600160a01b0316146105b35760405162461bcd60e51b815260206004820152604160248201527f6f70706f7274756e6974794f726967696e6174696f6e20636f6e74726163742060448201527f63616e2061646420746865206f70706f7274756e69747920696e206b656570656064820152603960f91b608482015260a4015b60405180910390fd5b60005b610162548110156106aa578161016282815481106105e457634e487b7160e01b600052603260045260246000fd5b9060005260206000200154141561069857610162805461060690600190612840565b8154811061062457634e487b7160e01b600052603260045260246000fd5b9060005260206000200154610162828154811061065157634e487b7160e01b600052603260045260246000fd5b600091825260209091200155610162805461066e90600190612840565b8154811061068c57634e487b7160e01b600052603260045260246000fd5b60009182526020822001555b806106a28161289a565b9150506105b6565b5050565b6000828152606560205260409020600101546106c981611960565b6106d3838361196a565b505050565b6001600160a01b03811633146107565760405162461bcd60e51b815260206004820152602f60248201527f416363657373436f6e74726f6c3a2063616e206f6e6c792072656e6f756e636560448201527f20726f6c657320666f722073656c66000000000000000000000000000000000060648201526084016105aa565b6106aa8282611a0c565b306001600160a01b037f00000000000000000000000000000000000000000000000000000000000000001614156107ee5760405162461bcd60e51b815260206004820152602c60248201527f46756e6374696f6e206d7573742062652063616c6c6564207468726f7567682060448201526b19195b1959d85d1958d85b1b60a21b60648201526084016105aa565b7f00000000000000000000000000000000000000000000000000000000000000006001600160a01b03166108497f360894a13ba1a3210667c828492db98dca3e2076cc3735a920a3ca505d382bbc546001600160a01b031690565b6001600160a01b0316146108b45760405162461bcd60e51b815260206004820152602c60248201527f46756e6374696f6e206d7573742062652063616c6c6564207468726f7567682060448201526b6163746976652070726f787960a01b60648201526084016105aa565b6108bd81611a8f565b604080516000808252602082019092526108d991839190611b09565b50565b610160546040517f4622abe0000000000000000000000000000000000000000000000000000000008152600481018390526001600160a01b0390911690634622abe09060240160206040518083038186803b15801561093a57600080fd5b505afa15801561094e573d6000803e3d6000fd5b505050506040513d601f19601f8201168201806040525081019061097291906125cb565b15156001146109c35760405162461bcd60e51b815260206004820152601b60248201527f6f70706f7274756e697479206973206e6f742064726177646f776e000000000060448201526064016105aa565b61015f546109d9906001600160a01b03166118de565b6001600160a01b0316336001600160a01b031614610a695760405162461bcd60e51b815260206004820152604160248201527f6f70706f7274756e6974794f726967696e6174696f6e20636f6e74726163742060448201527f63616e2061646420746865206f70706f7274756e69747920696e206b656570656064820152603960f91b608482015260a4016105aa565b61016280546001810182556000919091527f29af0939a5988989bfee913a9ad10b9335cb63ebc9fd2b69e5f877d0455ac9190155565b610ac97f65d7a28e3265b37a6474929f336521b332c1681b933f6cb9f3376673440d862a336103b6565b610b2a5760405162461bcd60e51b815260206004820152602c60248201527f4d75737420686176652070617573657220726f6c6520746f20706572666f726d60448201526b103a3434b99030b1ba34b7b760a11b60648201526084016105aa565b610b32611cb8565b565b600260c9541415610b875760405162461bcd60e51b815260206004820152601f60248201527f5265656e7472616e637947756172643a207265656e7472616e742063616c6c0060448201526064016105aa565b600260c955610163805460ff1916600117905560005b61016254811015610f00576101605461016280546000926001600160a01b031691637e4dc6d59185908110610be257634e487b7160e01b600052603260045260246000fd5b90600052602060002001546040518263ffffffff1660e01b8152600401610c0b91815260200190565b60206040518083038186803b158015610c2357600080fd5b505afa158015610c37573d6000803e3d6000fd5b505050506040513d601f19601f82011682018060405250810190610c5b91906124f0565b6001600160a01b031663df9fd1c16040518163ffffffff1660e01b815260040160206040518083038186803b158015610c9357600080fd5b505afa158015610ca7573d6000803e3d6000fd5b505050506040513d601f19601f82011682018060405250810190610ccb9190612603565b905042811015610eed576000610ce18242612840565b905061016154811115610eeb576101605461016280546001600160a01b0390921691636dc305f9919086908110610d2857634e487b7160e01b600052603260045260246000fd5b6000918252602090912001546101605461016280546001600160a01b0390921691637e4dc6d5919089908110610d6e57634e487b7160e01b600052603260045260246000fd5b90600052602060002001546040518263ffffffff1660e01b8152600401610d9791815260200190565b60206040518083038186803b158015610daf57600080fd5b505afa158015610dc3573d6000803e3d6000fd5b505050506040513d601f19601f82011682018060405250810190610de791906124f0565b6040516001600160e01b031960e085901b16815260048101929092526001600160a01b03166024820152604401600060405180830381600087803b158015610e2e57600080fd5b505af1158015610e42573d6000803e3d6000fd5b50506101628054909250610e599150600190612840565b81548110610e7757634e487b7160e01b600052603260045260246000fd5b90600052602060002001546101628481548110610ea457634e487b7160e01b600052603260045260246000fd5b6000918252602090912001556101628054610ec190600190612840565b81548110610edf57634e487b7160e01b600052603260045260246000fd5b60009182526020822001555b505b5080610ef88161289a565b915050610b9d565b5050610163805460ff1916905550600160c955565b306001600160a01b037f0000000000000000000000000000000000000000000000000000000000000000161415610fa35760405162461bcd60e51b815260206004820152602c60248201527f46756e6374696f6e206d7573742062652063616c6c6564207468726f7567682060448201526b19195b1959d85d1958d85b1b60a21b60648201526084016105aa565b7f00000000000000000000000000000000000000000000000000000000000000006001600160a01b0316610ffe7f360894a13ba1a3210667c828492db98dca3e2076cc3735a920a3ca505d382bbc546001600160a01b031690565b6001600160a01b0316146110695760405162461bcd60e51b815260206004820152602c60248201527f46756e6374696f6e206d7573742062652063616c6c6564207468726f7567682060448201526b6163746976652070726f787960a01b60648201526084016105aa565b61107282611a8f565b6106aa82826001611b09565b600054610100900460ff161580801561109e5750600054600160ff909116105b806110b85750303b1580156110b8575060005460ff166001145b61112a5760405162461bcd60e51b815260206004820152602e60248201527f496e697469616c697a61626c653a20636f6e747261637420697320616c72656160448201527f647920696e697469616c697a656400000000000000000000000000000000000060648201526084016105aa565b6000805460ff19166001179055801561114d576000805461ff0019166101001790555b611155611d0a565b80156108d9576000805461ff0019169055604051600181527f7f26b83ff96e1f2b6a682f133852f6798a09c465da95921460cefb38474024989060200160405180910390a150565b6000306001600160a01b037f0000000000000000000000000000000000000000000000000000000000000000161461123d5760405162461bcd60e51b815260206004820152603860248201527f555550535570677261646561626c653a206d757374206e6f742062652063616c60448201527f6c6564207468726f7567682064656c656761746563616c6c000000000000000060648201526084016105aa565b507f360894a13ba1a3210667c828492db98dca3e2076cc3735a920a3ca505d382bbc90565b6000606081805b610162548110156113da576101605461016280546000926001600160a01b031691637e4dc6d591859081106112ae57634e487b7160e01b600052603260045260246000fd5b90600052602060002001546040518263ffffffff1660e01b81526004016112d791815260200190565b60206040518083038186803b1580156112ef57600080fd5b505afa158015611303573d6000803e3d6000fd5b505050506040513d601f19601f8201168201806040525081019061132791906124f0565b6001600160a01b031663df9fd1c16040518163ffffffff1660e01b815260040160206040518083038186803b15801561135f57600080fd5b505afa158015611373573d6000803e3d6000fd5b505050506040513d601f19601f820116820180604052508101906113979190612603565b9050428110156113c75760006113ad8242612840565b9050610161548111156113c5576001935050506113da565b505b50806113d28161289a565b915050611269565b506101635460ff161580156113ec5750805b9250509250929050565b6114207f65d7a28e3265b37a6474929f336521b332c1681b933f6cb9f3376673440d862a336103b6565b6114815760405162461bcd60e51b815260206004820152602c60248201527f4d75737420686176652070617573657220726f6c6520746f20706572666f726d60448201526b103a3434b99030b1ba34b7b760a11b60648201526084016105aa565b610b32611d81565b600054610100900460ff166114f45760405162461bcd60e51b815260206004820152602b60248201527f496e697469616c697a61626c653a20636f6e7472616374206973206e6f74206960448201526a6e697469616c697a696e6760a81b60648201526084016105aa565b6001600160a01b03811661154a5760405162461bcd60e51b815260206004820181905260248201527f4f776e65722063616e6e6f7420626520746865207a65726f206164647265737360448201526064016105aa565b611552611dbe565b61155a611d0a565b611562611e29565b61158c7fa49807205ce4d355092ef5a8a18f56e8913cf4a201fbe287825b095693c2177582611e9b565b6115b67f65d7a28e3265b37a6474929f336521b332c1681b933f6cb9f3376673440d862a82611e9b565b6116007f65d7a28e3265b37a6474929f336521b332c1681b933f6cb9f3376673440d862a7fa49807205ce4d355092ef5a8a18f56e8913cf4a201fbe287825b095693c21775611ea5565b6108d97fa49807205ce4d355092ef5a8a18f56e8913cf4a201fbe287825b095693c2177580611ea5565b60006116567fa49807205ce4d355092ef5a8a18f56e8913cf4a201fbe287825b095693c21775336103b6565b905090565b600054610100900460ff161580801561167b5750600054600160ff909116105b806116955750303b158015611695575060005460ff166001145b6117075760405162461bcd60e51b815260206004820152602e60248201527f496e697469616c697a61626c653a20636f6e747261637420697320616c72656160448201527f647920696e697469616c697a656400000000000000000000000000000000000060648201526084016105aa565b6000805460ff19166001179055801561172a576000805461ff0019166101001790555b6001600160a01b0383166117805760405162461bcd60e51b815260206004820152601660248201527f496e76616c696420636f6e66696720616464726573730000000000000000000060448201526064016105aa565b61015f805473ffffffffffffffffffffffffffffffffffffffff19166001600160a01b0385169081179091556000906117b890611ef0565b90506001600160a01b0381166118105760405162461bcd60e51b815260206004820152600d60248201527f496e76616c6964204f776e65720000000000000000000000000000000000000060448201526064016105aa565b61015f54611826906001600160a01b03166118de565b610160805473ffffffffffffffffffffffffffffffffffffffff19166001600160a01b039290921691909117905561185d81611489565b61186a8362015180612821565b610161555080156106d3576000805461ff0019169055604051600181527f7f26b83ff96e1f2b6a682f133852f6798a09c465da95921460cefb38474024989060200160405180910390a1505050565b6000828152606560205260409020600101546118d481611960565b6106d38383611a0c565b60006001600160a01b03821663b93f9b0a60065b6040518263ffffffff1660e01b815260040161191091815260200190565b60206040518083038186803b15801561192857600080fd5b505afa15801561193c573d6000803e3d6000fd5b505050506040513d601f19601f8201168201806040525081019061050291906124f0565b6108d98133611f07565b60008281526065602090815260408083206001600160a01b038516845290915290205460ff166106aa5760008281526065602090815260408083206001600160a01b03851684529091529020805460ff191660011790556119c83390565b6001600160a01b0316816001600160a01b0316837f2f8788117e7eff1d82e926ec794901d17c78024a50270940304540a733656f0d60405160405180910390a45050565b60008281526065602090815260408083206001600160a01b038516845290915290205460ff16156106aa5760008281526065602090815260408083206001600160a01b0385168085529252808320805460ff1916905551339285917ff6391f5c32d9c69d2a47ea670b442974b53935d1edc7fd64eb21e047a839171b9190a45050565b611a9761162a565b6108d95760405162461bcd60e51b815260206004820152602b60248201527f4d75737420686176652061646d696e20726f6c6520746f20706572666f726d2060448201527f7468697320616374696f6e00000000000000000000000000000000000000000060648201526084016105aa565b7f4910fdfa16fed3260ed0e7147f7cc6da11a60208b5b9406d12a635614ffd91435460ff1615611b3c576106d383611f87565b826001600160a01b03166352d1902d6040518163ffffffff1660e01b815260040160206040518083038186803b158015611b7557600080fd5b505afa925050508015611ba5575060408051601f3d908101601f19168201909252611ba291810190612603565b60015b611c175760405162461bcd60e51b815260206004820152602e60248201527f45524331393637557067726164653a206e657720696d706c656d656e7461746960448201527f6f6e206973206e6f74205555505300000000000000000000000000000000000060648201526084016105aa565b7f360894a13ba1a3210667c828492db98dca3e2076cc3735a920a3ca505d382bbc8114611cac5760405162461bcd60e51b815260206004820152602960248201527f45524331393637557067726164653a20756e737570706f727465642070726f7860448201527f6961626c6555554944000000000000000000000000000000000000000000000060648201526084016105aa565b506106d3838383612052565b611cc061207d565b6097805460ff191690557f5db9ee0a495bf2e6ff9c91a7834c1ba4fdd244a5e8aa4e537bd38aeae4b073aa335b6040516001600160a01b03909116815260200160405180910390a1565b600054610100900460ff16611d755760405162461bcd60e51b815260206004820152602b60248201527f496e697469616c697a61626c653a20636f6e7472616374206973206e6f74206960448201526a6e697469616c697a696e6760a81b60648201526084016105aa565b6097805460ff19169055565b611d896120cf565b6097805460ff191660011790557f62e78cea01bee320cd4e420270b5ea74000d11b0c9f74754ebdbfc544b05a258611ced3390565b600054610100900460ff16610b325760405162461bcd60e51b815260206004820152602b60248201527f496e697469616c697a61626c653a20636f6e7472616374206973206e6f74206960448201526a6e697469616c697a696e6760a81b60648201526084016105aa565b600054610100900460ff16611e945760405162461bcd60e51b815260206004820152602b60248201527f496e697469616c697a61626c653a20636f6e7472616374206973206e6f74206960448201526a6e697469616c697a696e6760a81b60648201526084016105aa565b600160c955565b6106aa828261196a565b600082815260656020526040808220600101805490849055905190918391839186917fbd79b86ffe0ab8e8776151514217cd7cacd52c909f66475c3af44e129f0b00ff9190a4505050565b60006001600160a01b03821663b93f9b0a826118f2565b60008281526065602090815260408083206001600160a01b038516845290915290205460ff166106aa57611f45816001600160a01b03166014612122565b611f50836020612122565b604051602001611f61929190612752565b60408051601f198184030181529082905262461bcd60e51b82526105aa916004016127f6565b6001600160a01b0381163b6120045760405162461bcd60e51b815260206004820152602d60248201527f455243313936373a206e657720696d706c656d656e746174696f6e206973206e60448201527f6f74206120636f6e74726163740000000000000000000000000000000000000060648201526084016105aa565b7f360894a13ba1a3210667c828492db98dca3e2076cc3735a920a3ca505d382bbc805473ffffffffffffffffffffffffffffffffffffffff19166001600160a01b0392909216919091179055565b61205b83612350565b6000825111806120685750805b156106d3576120778383612390565b50505050565b60975460ff16610b325760405162461bcd60e51b815260206004820152601460248201527f5061757361626c653a206e6f742070617573656400000000000000000000000060448201526064016105aa565b60975460ff1615610b325760405162461bcd60e51b815260206004820152601060248201527f5061757361626c653a207061757365640000000000000000000000000000000060448201526064016105aa565b60606000612131836002612821565b61213c906002612809565b67ffffffffffffffff81111561216257634e487b7160e01b600052604160045260246000fd5b6040519080825280601f01601f19166020018201604052801561218c576020820181803683370190505b5090507f3000000000000000000000000000000000000000000000000000000000000000816000815181106121d157634e487b7160e01b600052603260045260246000fd5b60200101906001600160f81b031916908160001a9053507f78000000000000000000000000000000000000000000000000000000000000008160018151811061222a57634e487b7160e01b600052603260045260246000fd5b60200101906001600160f81b031916908160001a905350600061224e846002612821565b612259906001612809565b90505b60018111156122fa577f303132333435363738396162636465660000000000000000000000000000000085600f16601081106122a857634e487b7160e01b600052603260045260246000fd5b1a60f81b8282815181106122cc57634e487b7160e01b600052603260045260246000fd5b60200101906001600160f81b031916908160001a90535060049490941c936122f381612883565b905061225c565b5083156123495760405162461bcd60e51b815260206004820181905260248201527f537472696e67733a20686578206c656e67746820696e73756666696369656e7460448201526064016105aa565b9392505050565b61235981611f87565b6040516001600160a01b038216907fbc7cd75a20ee27fd9adebab32041f755214dbc6bffa90cc0225b39da2e5c2d3b90600090a250565b60606001600160a01b0383163b61240f5760405162461bcd60e51b815260206004820152602660248201527f416464726573733a2064656c65676174652063616c6c20746f206e6f6e2d636f60448201527f6e7472616374000000000000000000000000000000000000000000000000000060648201526084016105aa565b600080846001600160a01b03168460405161242a9190612736565b600060405180830381855af49150503d8060008114612465576040519150601f19603f3d011682016040523d82523d6000602084013e61246a565b606091505b509150915061249282826040518060600160405280602781526020016128f76027913961249b565b95945050505050565b606083156124aa575081612349565b8251156124ba5782518084602001fd5b8160405162461bcd60e51b81526004016105aa91906127f6565b6000602082840312156124e5578081fd5b8135612349816128e1565b600060208284031215612501578081fd5b8151612349816128e1565b6000806040838503121561251e578081fd5b8235612529816128e1565b9150602083013567ffffffffffffffff80821115612545578283fd5b818501915085601f830112612558578283fd5b81358181111561256a5761256a6128cb565b604051601f8201601f19908116603f01168101908382118183101715612592576125926128cb565b816040528281528860208487010111156125aa578586fd5b82602086016020830137856020848301015280955050505050509250929050565b6000602082840312156125dc578081fd5b81518015158114612349578182fd5b6000602082840312156125fc578081fd5b5035919050565b600060208284031215612614578081fd5b5051919050565b6000806040838503121561262d578182fd5b82359150602083013561263f816128e1565b809150509250929050565b60006020828403121561265b578081fd5b81356001600160e01b031981168114612349578182fd5b60008060208385031215612684578182fd5b823567ffffffffffffffff8082111561269b578384fd5b818501915085601f8301126126ae578384fd5b8135818111156126bc578485fd5b8660208285010111156126cd578485fd5b60209290920196919550909350505050565b600080604083850312156126f1578182fd5b82356126fc816128e1565b946020939093013593505050565b60008151808452612722816020860160208601612857565b601f01601f19169290920160200192915050565b60008251612748818460208701612857565b9190910192915050565b7f416363657373436f6e74726f6c3a206163636f756e742000000000000000000081526000835161278a816017850160208801612857565b7f206973206d697373696e6720726f6c652000000000000000000000000000000060179184019182015283516127c7816028840160208801612857565b01602801949350505050565b82151581526040602082015260006127ee604083018461270a565b949350505050565b602081526000612349602083018461270a565b6000821982111561281c5761281c6128b5565b500190565b600081600019048311821515161561283b5761283b6128b5565b500290565b600082821015612852576128526128b5565b500390565b60005b8381101561287257818101518382015260200161285a565b838111156120775750506000910152565b600081612892576128926128b5565b506000190190565b60006000198214156128ae576128ae6128b5565b5060010190565b634e487b7160e01b600052601160045260246000fd5b634e487b7160e01b600052604160045260246000fd5b6001600160a01b03811681146108d957600080fdfe416464726573733a206c6f772d6c6576656c2064656c65676174652063616c6c206661696c6564a2646970667358221220c2b1e5388732bb7c73646ad2a825e8407da0b236154eb9e02539773b75311fae64736f6c63430008040033",
  "linkReferences": {},
  "deployedLinkReferences": {}
}