{
  "_format": "hh-sol-artifact-1",
  "contractName": "DygnifyKeeper",
  "sourceName": "contracts/protocol/DygnifyKeeper.sol",
  "abi": [
    {
      "anonymous": false,
      "inputs": [
        {
          "indexed": false,
          "internalType": "address",
          "name": "previousAdmin",
          "type": "address"
        },
        {
          "indexed": false,
          "internalType": "address",
          "name": "newAdmin",
          "type": "address"
        }
      ],
      "name": "AdminChanged",
      "type": "event"
    },
    {
      "anonymous": false,
      "inputs": [
        {
          "indexed": true,
          "internalType": "address",
          "name": "beacon",
          "type": "address"
        }
      ],
      "name": "BeaconUpgraded",
      "type": "event"
    },
    {
      "anonymous": false,
      "inputs": [
        {
          "indexed": false,
          "internalType": "uint8",
          "name": "version",
          "type": "uint8"
        }
      ],
      "name": "Initialized",
      "type": "event"
    },
    {
      "anonymous": false,
      "inputs": [
        {
          "indexed": false,
          "internalType": "address",
          "name": "account",
          "type": "address"
        }
      ],
      "name": "Paused",
      "type": "event"
    },
    {
      "anonymous": false,
      "inputs": [
        {
          "indexed": true,
          "internalType": "bytes32",
          "name": "role",
          "type": "bytes32"
        },
        {
          "indexed": true,
          "internalType": "bytes32",
          "name": "previousAdminRole",
          "type": "bytes32"
        },
        {
          "indexed": true,
          "internalType": "bytes32",
          "name": "newAdminRole",
          "type": "bytes32"
        }
      ],
      "name": "RoleAdminChanged",
      "type": "event"
    },
    {
      "anonymous": false,
      "inputs": [
        {
          "indexed": true,
          "internalType": "bytes32",
          "name": "role",
          "type": "bytes32"
        },
        {
          "indexed": true,
          "internalType": "address",
          "name": "account",
          "type": "address"
        },
        {
          "indexed": true,
          "internalType": "address",
          "name": "sender",
          "type": "address"
        }
      ],
      "name": "RoleGranted",
      "type": "event"
    },
    {
      "anonymous": false,
      "inputs": [
        {
          "indexed": true,
          "internalType": "bytes32",
          "name": "role",
          "type": "bytes32"
        },
        {
          "indexed": true,
          "internalType": "address",
          "name": "account",
          "type": "address"
        },
        {
          "indexed": true,
          "internalType": "address",
          "name": "sender",
          "type": "address"
        }
      ],
      "name": "RoleRevoked",
      "type": "event"
    },
    {
      "anonymous": false,
      "inputs": [
        {
          "indexed": false,
          "internalType": "address",
          "name": "account",
          "type": "address"
        }
      ],
      "name": "Unpaused",
      "type": "event"
    },
    {
      "anonymous": false,
      "inputs": [
        {
          "indexed": true,
          "internalType": "address",
          "name": "implementation",
          "type": "address"
        }
      ],
      "name": "Upgraded",
      "type": "event"
    },
    {
      "inputs": [],
      "name": "DEFAULT_ADMIN_ROLE",
      "outputs": [
        {
          "internalType": "bytes32",
          "name": "",
          "type": "bytes32"
        }
      ],
      "stateMutability": "view",
      "type": "function"
    },
    {
      "inputs": [
        {
          "internalType": "address",
          "name": "owner",
          "type": "address"
        }
      ],
      "name": "_BaseUpgradeablePausable_init",
      "outputs": [],
      "stateMutability": "nonpayable",
      "type": "function"
    },
    {
      "inputs": [],
      "name": "__PauserPausable__init",
      "outputs": [],
      "stateMutability": "nonpayable",
      "type": "function"
    },
    {
      "inputs": [
        {
          "internalType": "bytes32",
          "name": "_id",
          "type": "bytes32"
        }
      ],
      "name": "addOpportunityInKeeper",
      "outputs": [],
      "stateMutability": "nonpayable",
      "type": "function"
    },
    {
      "inputs": [
        {
          "internalType": "bytes",
          "name": "",
          "type": "bytes"
        }
      ],
      "name": "checkUpkeep",
      "outputs": [
        {
          "internalType": "bool",
          "name": "upkeepNeeded",
          "type": "bool"
        },
        {
          "internalType": "bytes",
          "name": "",
          "type": "bytes"
        }
      ],
      "stateMutability": "view",
      "type": "function"
    },
    {
      "inputs": [
        {
          "internalType": "bytes32",
          "name": "role",
          "type": "bytes32"
        }
      ],
      "name": "getRoleAdmin",
      "outputs": [
        {
          "internalType": "bytes32",
          "name": "",
          "type": "bytes32"
        }
      ],
      "stateMutability": "view",
      "type": "function"
    },
    {
      "inputs": [
        {
          "internalType": "bytes32",
          "name": "role",
          "type": "bytes32"
        },
        {
          "internalType": "address",
          "name": "account",
          "type": "address"
        }
      ],
      "name": "grantRole",
      "outputs": [],
      "stateMutability": "nonpayable",
      "type": "function"
    },
    {
      "inputs": [
        {
          "internalType": "bytes32",
          "name": "role",
          "type": "bytes32"
        },
        {
          "internalType": "address",
          "name": "account",
          "type": "address"
        }
      ],
      "name": "hasRole",
      "outputs": [
        {
          "internalType": "bool",
          "name": "",
          "type": "bool"
        }
      ],
      "stateMutability": "view",
      "type": "function"
    },
    {
      "inputs": [
        {
          "internalType": "contract DygnifyConfig",
          "name": "_dygnifyConfig",
          "type": "address"
        }
      ],
      "name": "initialize",
      "outputs": [],
      "stateMutability": "nonpayable",
      "type": "function"
    },
    {
      "inputs": [],
      "name": "isAdmin",
      "outputs": [
        {
          "internalType": "bool",
          "name": "",
          "type": "bool"
        }
      ],
      "stateMutability": "view",
      "type": "function"
    },
    {
      "inputs": [],
      "name": "pause",
      "outputs": [],
      "stateMutability": "nonpayable",
      "type": "function"
    },
    {
      "inputs": [],
      "name": "paused",
      "outputs": [
        {
          "internalType": "bool",
          "name": "",
          "type": "bool"
        }
      ],
      "stateMutability": "view",
      "type": "function"
    },
    {
      "inputs": [
        {
          "internalType": "bytes",
          "name": "",
          "type": "bytes"
        }
      ],
      "name": "performUpkeep",
      "outputs": [],
      "stateMutability": "nonpayable",
      "type": "function"
    },
    {
      "inputs": [],
      "name": "proxiableUUID",
      "outputs": [
        {
          "internalType": "bytes32",
          "name": "",
          "type": "bytes32"
        }
      ],
      "stateMutability": "view",
      "type": "function"
    },
    {
      "inputs": [
        {
          "internalType": "bytes32",
          "name": "_id",
          "type": "bytes32"
        }
      ],
      "name": "removeOpportunityInKeeper",
      "outputs": [],
      "stateMutability": "nonpayable",
      "type": "function"
    },
    {
      "inputs": [
        {
          "internalType": "bytes32",
          "name": "role",
          "type": "bytes32"
        },
        {
          "internalType": "address",
          "name": "account",
          "type": "address"
        }
      ],
      "name": "renounceRole",
      "outputs": [],
      "stateMutability": "nonpayable",
      "type": "function"
    },
    {
      "inputs": [
        {
          "internalType": "bytes32",
          "name": "role",
          "type": "bytes32"
        },
        {
          "internalType": "address",
          "name": "account",
          "type": "address"
        }
      ],
      "name": "revokeRole",
      "outputs": [],
      "stateMutability": "nonpayable",
      "type": "function"
    },
    {
      "inputs": [
        {
          "internalType": "bytes4",
          "name": "interfaceId",
          "type": "bytes4"
        }
      ],
      "name": "supportsInterface",
      "outputs": [
        {
          "internalType": "bool",
          "name": "",
          "type": "bool"
        }
      ],
      "stateMutability": "view",
      "type": "function"
    },
    {
      "inputs": [],
      "name": "unpause",
      "outputs": [],
      "stateMutability": "nonpayable",
      "type": "function"
    },
    {
      "inputs": [
        {
          "internalType": "address",
          "name": "newImplementation",
          "type": "address"
        }
      ],
      "name": "upgradeTo",
      "outputs": [],
      "stateMutability": "nonpayable",
      "type": "function"
    },
    {
      "inputs": [
        {
          "internalType": "address",
          "name": "newImplementation",
          "type": "address"
        },
        {
          "internalType": "bytes",
          "name": "data",
          "type": "bytes"
        }
      ],
      "name": "upgradeToAndCall",
      "outputs": [],
      "stateMutability": "payable",
      "type": "function"
    }
  ],
  "bytecode": "0x60a06040523060601b60805234801561001757600080fd5b5060805160601c612526610052600039600081816105eb0152818161062b01528181610c8701528181610cc70152610e0801526125266000f3fe60806040526004361061012a5760003560e01c8063526d81f6116100ab57806391d148541161006f57806391d1485414610311578063a12dde4d14610331578063a217fddf14610351578063b6db75a014610366578063c4d66de81461037b578063d547741f1461039b57600080fd5b8063526d81f61461028c57806352d1902d146102a15780635c975abb146102b65780636e04ff0d146102ce5780638456cb59146102fc57600080fd5b80633659cfe6116100f25780633659cfe6146102045780633aa7c283146102245780633f4ba83a146102445780634585e33b146102595780634f1ef2861461027957600080fd5b806301ffc9a71461012f578063248a9ca3146101645780632d37a3d2146101a25780632f2ff15d146101c457806336568abe146101e4575b600080fd5b34801561013b57600080fd5b5061014f61014a366004612056565b6103bb565b60405190151581526020015b60405180910390f35b34801561017057600080fd5b5061019461017f366004611ff7565b60009081526065602052604090206001015490565b60405190815260200161015b565b3480156101ae57600080fd5b506101c26101bd366004611ff7565b6103f2565b005b3480156101d057600080fd5b506101c26101df366004612027565b61053c565b3480156101f057600080fd5b506101c26101ff366004612027565b610566565b34801561021057600080fd5b506101c261021f366004611ee0565b6105e0565b34801561023057600080fd5b506101c261023f366004611ff7565b6106a9565b34801561025057600080fd5b506101c26107f3565b34801561026557600080fd5b506101c261027436600461207e565b61082a565b6101c2610287366004611f18565b610c7c565b34801561029857600080fd5b506101c2610d32565b3480156102ad57600080fd5b50610194610dfb565b3480156102c257600080fd5b5060975460ff1661014f565b3480156102da57600080fd5b506102ee6102e936600461207e565b610ea9565b60405161015b9291906121a2565b34801561030857600080fd5b506101c26110fe565b34801561031d57600080fd5b5061014f61032c366004612027565b61112d565b34801561033d57600080fd5b506101c261034c366004611ee0565b611158565b34801561035d57600080fd5b50610194600081565b34801561037257600080fd5b5061014f61122c565b34801561038757600080fd5b506101c2610396366004611ee0565b61123e565b3480156103a757600080fd5b506101c26103b6366004612027565b611403565b60006001600160e01b03198216637965db0b60e01b14806103ec57506301ffc9a760e01b6001600160e01b03198316145b92915050565b61015f54610408906001600160a01b0316611428565b6001600160a01b0316336001600160a01b0316146104415760405162461bcd60e51b815260040161043890612355565b60405180910390fd5b60005b610161548110156105385781610161828154811061047257634e487b7160e01b600052603260045260246000fd5b90600052602060002001541415610526576101618054610494906001906123f3565b815481106104b257634e487b7160e01b600052603260045260246000fd5b906000526020600020015461016182815481106104df57634e487b7160e01b600052603260045260246000fd5b60009182526020909120015561016180546104fc906001906123f3565b8154811061051a57634e487b7160e01b600052603260045260246000fd5b60009182526020822001555b806105308161244d565b915050610444565b5050565b600082815260656020526040902060010154610557816114aa565b61056183836114b4565b505050565b6001600160a01b03811633146105d65760405162461bcd60e51b815260206004820152602f60248201527f416363657373436f6e74726f6c3a2063616e206f6e6c792072656e6f756e636560448201526e103937b632b9903337b91039b2b63360891b6064820152608401610438565b610538828261153a565b306001600160a01b037f00000000000000000000000000000000000000000000000000000000000000001614156106295760405162461bcd60e51b815260040161043890612224565b7f00000000000000000000000000000000000000000000000000000000000000006001600160a01b031661065b6115a1565b6001600160a01b0316146106815760405162461bcd60e51b815260040161043890612270565b61068a816115bd565b604080516000808252602082019092526106a691839190611625565b50565b61016054604051630231155f60e51b8152600481018390526001600160a01b0390911690634622abe09060240160206040518083038186803b1580156106ee57600080fd5b505afa158015610702573d6000803e3d6000fd5b505050506040513d601f19601f820116820180604052508101906107269190611fd7565b15156001146107775760405162461bcd60e51b815260206004820152601b60248201527f6f70706f7274756e697479206973206e6f742064726177646f776e00000000006044820152606401610438565b61015f5461078d906001600160a01b0316611428565b6001600160a01b0316336001600160a01b0316146107bd5760405162461bcd60e51b815260040161043890612355565b61016180546001810182556000919091527fafbb1c043347995df017ce3291b765e028ad5f784d2aa00c3f5e073760a4de8b0155565b6108046107fe61179f565b3361112d565b6108205760405162461bcd60e51b8152600401610438906121d8565b6108286117c3565b565b610832611815565b610162805460ff1916600117905560005b61016154811015610c66576101605461016180546000926001600160a01b031691637e4dc6d5918590811061088857634e487b7160e01b600052603260045260246000fd5b90600052602060002001546040518263ffffffff1660e01b81526004016108b191815260200190565b60206040518083038186803b1580156108c957600080fd5b505afa1580156108dd573d6000803e3d6000fd5b505050506040513d601f19601f820116820180604052508101906109019190611efc565b6001600160a01b031663df9fd1c16040518163ffffffff1660e01b815260040160206040518083038186803b15801561093957600080fd5b505afa15801561094d573d6000803e3d6000fd5b505050506040513d601f19601f82011682018060405250810190610971919061200f565b905042811015610c53576101605461016180546000926001600160a01b03169163718df38c91869081106109b557634e487b7160e01b600052603260045260246000fd5b90600052602060002001546040518263ffffffff1660e01b81526004016109de91815260200190565b60206040518083038186803b1580156109f657600080fd5b505afa158015610a0a573d6000803e3d6000fd5b505050506040513d601f19601f82011682018060405250810190610a2e919061200f565b610a3b90620151806123d4565b90506000610a4983426123f3565b905081811115610c50576101605461016180546001600160a01b0390921691636dc305f9919087908110610a8d57634e487b7160e01b600052603260045260246000fd5b6000918252602090912001546101605461016180546001600160a01b0390921691637e4dc6d591908a908110610ad357634e487b7160e01b600052603260045260246000fd5b90600052602060002001546040518263ffffffff1660e01b8152600401610afc91815260200190565b60206040518083038186803b158015610b1457600080fd5b505afa158015610b28573d6000803e3d6000fd5b505050506040513d601f19601f82011682018060405250810190610b4c9190611efc565b6040516001600160e01b031960e085901b16815260048101929092526001600160a01b03166024820152604401600060405180830381600087803b158015610b9357600080fd5b505af1158015610ba7573d6000803e3d6000fd5b50506101618054909250610bbe91506001906123f3565b81548110610bdc57634e487b7160e01b600052603260045260246000fd5b90600052602060002001546101618581548110610c0957634e487b7160e01b600052603260045260246000fd5b6000918252602090912001556101618054610c26906001906123f3565b81548110610c4457634e487b7160e01b600052603260045260246000fd5b60009182526020822001555b50505b5080610c5e8161244d565b915050610843565b50610162805460ff19169055610538600160c955565b306001600160a01b037f0000000000000000000000000000000000000000000000000000000000000000161415610cc55760405162461bcd60e51b815260040161043890612224565b7f00000000000000000000000000000000000000000000000000000000000000006001600160a01b0316610cf76115a1565b6001600160a01b031614610d1d5760405162461bcd60e51b815260040161043890612270565b610d26826115bd565b61053882826001611625565b600054610100900460ff1615808015610d525750600054600160ff909116105b80610d6c5750303b158015610d6c575060005460ff166001145b610d885760405162461bcd60e51b8152600401610438906122bc565b6000805460ff191660011790558015610dab576000805461ff0019166101001790555b610db3611876565b80156106a6576000805461ff0019169055604051600181527f7f26b83ff96e1f2b6a682f133852f6798a09c465da95921460cefb38474024989060200160405180910390a150565b6000306001600160a01b037f00000000000000000000000000000000000000000000000000000000000000001614610e965760405162461bcd60e51b815260206004820152603860248201527f555550535570677261646561626c653a206d757374206e6f742062652063616c6044820152771b1959081d1a1c9bdd59da0819195b1959d85d1958d85b1b60421b6064820152608401610438565b506000805160206124aa83398151915290565b6000606081805b610161548110156110e2576101605461016180546000926001600160a01b031691637e4dc6d59185908110610ef557634e487b7160e01b600052603260045260246000fd5b90600052602060002001546040518263ffffffff1660e01b8152600401610f1e91815260200190565b60206040518083038186803b158015610f3657600080fd5b505afa158015610f4a573d6000803e3d6000fd5b505050506040513d601f19601f82011682018060405250810190610f6e9190611efc565b6001600160a01b031663df9fd1c16040518163ffffffff1660e01b815260040160206040518083038186803b158015610fa657600080fd5b505afa158015610fba573d6000803e3d6000fd5b505050506040513d601f19601f82011682018060405250810190610fde919061200f565b9050428110156110cf576101605461016180546000926001600160a01b03169163718df38c918690811061102257634e487b7160e01b600052603260045260246000fd5b90600052602060002001546040518263ffffffff1660e01b815260040161104b91815260200190565b60206040518083038186803b15801561106357600080fd5b505afa158015611077573d6000803e3d6000fd5b505050506040513d601f19601f8201168201806040525081019061109b919061200f565b6110a890620151806123d4565b905060006110b683426123f3565b9050818111156110cc57600194505050506110e2565b50505b50806110da8161244d565b915050610eb0565b506101625460ff161580156110f45750805b9250509250929050565b6111096107fe61179f565b6111255760405162461bcd60e51b8152600401610438906121d8565b6108286118a9565b60009182526065602090815260408084206001600160a01b0393909316845291905290205460ff1690565b600054610100900460ff1661117f5760405162461bcd60e51b81526004016104389061230a565b6001600160a01b0381166111d55760405162461bcd60e51b815260206004820181905260248201527f4f776e65722063616e6e6f7420626520746865207a65726f20616464726573736044820152606401610438565b6111dd6118e6565b6111e5611876565b6111ed61190d565b6111fe6111f8611934565b82611958565b6112096111f861179f565b61122161121461179f565b61121c611934565b611962565b6106a6611214611934565b60006112396107fe611934565b905090565b600054610100900460ff161580801561125e5750600054600160ff909116105b806112785750303b158015611278575060005460ff166001145b6112945760405162461bcd60e51b8152600401610438906122bc565b6000805460ff1916600117905580156112b7576000805461ff0019166101001790555b6001600160a01b0382166113065760405162461bcd60e51b8152602060048201526016602482015275496e76616c696420636f6e666967206164647265737360501b6044820152606401610438565b61015f80546001600160a01b0319166001600160a01b038416908117909155600090611331906119ad565b90506001600160a01b0381166113795760405162461bcd60e51b815260206004820152600d60248201526c24b73b30b634b21027bbb732b960991b6044820152606401610438565b61015f5461138f906001600160a01b0316611428565b61016080546001600160a01b0319166001600160a01b03929092169190911790556113b981611158565b508015610538576000805461ff0019169055604051600181527f7f26b83ff96e1f2b6a682f133852f6798a09c465da95921460cefb38474024989060200160405180910390a15050565b60008281526065602052604090206001015461141e816114aa565b610561838361153a565b60006001600160a01b03821663b93f9b0a60065b6040518263ffffffff1660e01b815260040161145a91815260200190565b60206040518083038186803b15801561147257600080fd5b505afa158015611486573d6000803e3d6000fd5b505050506040513d601f19601f820116820180604052508101906103ec9190611efc565b6106a681336119c4565b6114be828261112d565b6105385760008281526065602090815260408083206001600160a01b03851684529091529020805460ff191660011790556114f63390565b6001600160a01b0316816001600160a01b0316837f2f8788117e7eff1d82e926ec794901d17c78024a50270940304540a733656f0d60405160405180910390a45050565b611544828261112d565b156105385760008281526065602090815260408083206001600160a01b0385168085529252808320805460ff1916905551339285917ff6391f5c32d9c69d2a47ea670b442974b53935d1edc7fd64eb21e047a839171b9190a45050565b6000805160206124aa833981519152546001600160a01b031690565b6115c561122c565b6106a65760405162461bcd60e51b815260206004820152602b60248201527f4d75737420686176652061646d696e20726f6c6520746f20706572666f726d2060448201526a3a3434b99030b1ba34b7b760a91b6064820152608401610438565b7f4910fdfa16fed3260ed0e7147f7cc6da11a60208b5b9406d12a635614ffd91435460ff16156116585761056183611a1d565b826001600160a01b03166352d1902d6040518163ffffffff1660e01b815260040160206040518083038186803b15801561169157600080fd5b505afa9250505080156116c1575060408051601f3d908101601f191682019092526116be9181019061200f565b60015b6117245760405162461bcd60e51b815260206004820152602e60248201527f45524331393637557067726164653a206e657720696d706c656d656e7461746960448201526d6f6e206973206e6f74205555505360901b6064820152608401610438565b6000805160206124aa83398151915281146117935760405162461bcd60e51b815260206004820152602960248201527f45524331393637557067726164653a20756e737570706f727465642070726f786044820152681a58589b195555525160ba1b6064820152608401610438565b50610561838383611ab9565b7f65d7a28e3265b37a6474929f336521b332c1681b933f6cb9f3376673440d862a90565b6117cb611ae4565b6097805460ff191690557f5db9ee0a495bf2e6ff9c91a7834c1ba4fdd244a5e8aa4e537bd38aeae4b073aa335b6040516001600160a01b03909116815260200160405180910390a1565b600260c95414156118685760405162461bcd60e51b815260206004820152601f60248201527f5265656e7472616e637947756172643a207265656e7472616e742063616c6c006044820152606401610438565b600260c955565b600160c955565b600054610100900460ff1661189d5760405162461bcd60e51b81526004016104389061230a565b6097805460ff19169055565b6118b1611b2d565b6097805460ff191660011790557f62e78cea01bee320cd4e420270b5ea74000d11b0c9f74754ebdbfc544b05a2586117f83390565b600054610100900460ff166108285760405162461bcd60e51b81526004016104389061230a565b600054610100900460ff1661186f5760405162461bcd60e51b81526004016104389061230a565b7fa49807205ce4d355092ef5a8a18f56e8913cf4a201fbe287825b095693c2177590565b61053882826114b4565b600082815260656020526040808220600101805490849055905190918391839186917fbd79b86ffe0ab8e8776151514217cd7cacd52c909f66475c3af44e129f0b00ff9190a4505050565b60006001600160a01b03821663b93f9b0a8261143c565b6119ce828261112d565b610538576119db81611b73565b6119e6836020611b85565b6040516020016119f7929190612133565b60408051601f198184030181529082905262461bcd60e51b8252610438916004016121c5565b6001600160a01b0381163b611a8a5760405162461bcd60e51b815260206004820152602d60248201527f455243313936373a206e657720696d706c656d656e746174696f6e206973206e60448201526c1bdd08184818dbdb9d1c9858dd609a1b6064820152608401610438565b6000805160206124aa83398151915280546001600160a01b0319166001600160a01b0392909216919091179055565b611ac283611d6e565b600082511180611acf5750805b1561056157611ade8383611dae565b50505050565b60975460ff166108285760405162461bcd60e51b815260206004820152601460248201527314185d5cd8589b194e881b9bdd081c185d5cd95960621b6044820152606401610438565b60975460ff16156108285760405162461bcd60e51b815260206004820152601060248201526f14185d5cd8589b194e881c185d5cd95960821b6044820152606401610438565b60606103ec6001600160a01b03831660145b60606000611b948360026123d4565b611b9f9060026123bc565b67ffffffffffffffff811115611bc557634e487b7160e01b600052604160045260246000fd5b6040519080825280601f01601f191660200182016040528015611bef576020820181803683370190505b509050600360fc1b81600081518110611c1857634e487b7160e01b600052603260045260246000fd5b60200101906001600160f81b031916908160001a905350600f60fb1b81600181518110611c5557634e487b7160e01b600052603260045260246000fd5b60200101906001600160f81b031916908160001a9053506000611c798460026123d4565b611c849060016123bc565b90505b6001811115611d18576f181899199a1a9b1b9c1cb0b131b232b360811b85600f1660108110611cc657634e487b7160e01b600052603260045260246000fd5b1a60f81b828281518110611cea57634e487b7160e01b600052603260045260246000fd5b60200101906001600160f81b031916908160001a90535060049490941c93611d1181612436565b9050611c87565b508315611d675760405162461bcd60e51b815260206004820181905260248201527f537472696e67733a20686578206c656e67746820696e73756666696369656e746044820152606401610438565b9392505050565b611d7781611a1d565b6040516001600160a01b038216907fbc7cd75a20ee27fd9adebab32041f755214dbc6bffa90cc0225b39da2e5c2d3b90600090a250565b60606001600160a01b0383163b611e165760405162461bcd60e51b815260206004820152602660248201527f416464726573733a2064656c65676174652063616c6c20746f206e6f6e2d636f6044820152651b9d1c9858dd60d21b6064820152608401610438565b600080846001600160a01b031684604051611e319190612117565b600060405180830381855af49150503d8060008114611e6c576040519150601f19603f3d011682016040523d82523d6000602084013e611e71565b606091505b5091509150611e9982826040518060600160405280602781526020016124ca60279139611ea2565b95945050505050565b60608315611eb1575081611d67565b611d678383815115611ec65781518083602001fd5b8060405162461bcd60e51b815260040161043891906121c5565b600060208284031215611ef1578081fd5b8135611d6781612494565b600060208284031215611f0d578081fd5b8151611d6781612494565b60008060408385031215611f2a578081fd5b8235611f3581612494565b9150602083013567ffffffffffffffff80821115611f51578283fd5b818501915085601f830112611f64578283fd5b813581811115611f7657611f7661247e565b604051601f8201601f19908116603f01168101908382118183101715611f9e57611f9e61247e565b81604052828152886020848701011115611fb6578586fd5b82602086016020830137856020848301015280955050505050509250929050565b600060208284031215611fe8578081fd5b81518015158114611d67578182fd5b600060208284031215612008578081fd5b5035919050565b600060208284031215612020578081fd5b5051919050565b60008060408385031215612039578182fd5b82359150602083013561204b81612494565b809150509250929050565b600060208284031215612067578081fd5b81356001600160e01b031981168114611d67578182fd5b60008060208385031215612090578182fd5b823567ffffffffffffffff808211156120a7578384fd5b818501915085601f8301126120ba578384fd5b8135818111156120c8578485fd5b8660208285010111156120d9578485fd5b60209290920196919550909350505050565b6000815180845261210381602086016020860161240a565b601f01601f19169290920160200192915050565b6000825161212981846020870161240a565b9190910192915050565b76020b1b1b2b9b9a1b7b73a3937b61d1030b1b1b7bab73a1604d1b81526000835161216581601785016020880161240a565b7001034b99036b4b9b9b4b733903937b6329607d1b601791840191820152835161219681602884016020880161240a565b01602801949350505050565b82151581526040602082015260006121bd60408301846120eb565b949350505050565b602081526000611d6760208301846120eb565b6020808252602c908201527f4d75737420686176652070617573657220726f6c6520746f20706572666f726d60408201526b103a3434b99030b1ba34b7b760a11b606082015260800190565b6020808252602c908201527f46756e6374696f6e206d7573742062652063616c6c6564207468726f7567682060408201526b19195b1959d85d1958d85b1b60a21b606082015260800190565b6020808252602c908201527f46756e6374696f6e206d7573742062652063616c6c6564207468726f7567682060408201526b6163746976652070726f787960a01b606082015260800190565b6020808252602e908201527f496e697469616c697a61626c653a20636f6e747261637420697320616c72656160408201526d191e481a5b9a5d1a585b1a5e995960921b606082015260800190565b6020808252602b908201527f496e697469616c697a61626c653a20636f6e7472616374206973206e6f74206960408201526a6e697469616c697a696e6760a81b606082015260800190565b60208082526041908201527f6f70706f7274756e6974794f726967696e6174696f6e20636f6e74726163742060408201527f63616e2061646420746865206f70706f7274756e69747920696e206b656570656060820152603960f91b608082015260a00190565b600082198211156123cf576123cf612468565b500190565b60008160001904831182151516156123ee576123ee612468565b500290565b60008282101561240557612405612468565b500390565b60005b8381101561242557818101518382015260200161240d565b83811115611ade5750506000910152565b60008161244557612445612468565b506000190190565b600060001982141561246157612461612468565b5060010190565b634e487b7160e01b600052601160045260246000fd5b634e487b7160e01b600052604160045260246000fd5b6001600160a01b03811681146106a657600080fdfe360894a13ba1a3210667c828492db98dca3e2076cc3735a920a3ca505d382bbc416464726573733a206c6f772d6c6576656c2064656c65676174652063616c6c206661696c6564a26469706673582212200a51275e769d26697efb409a4908adfa6089410172d95dfea05eead787a7f5d564736f6c63430008040033",
  "linkReferences": {},
  "deployedLinkReferences": {}
}