{
  "_format": "hh-sol-artifact-1",
  "contractName": "Investor",
  "sourceName": "contracts/protocol/Investor.sol",
  "abi": [
    {
      "anonymous": false,
      "inputs": [
        {
          "indexed": false,
          "internalType": "address",
          "name": "previousAdmin",
          "type": "address"
        },
        {
          "indexed": false,
          "internalType": "address",
          "name": "newAdmin",
          "type": "address"
        }
      ],
      "name": "AdminChanged",
      "type": "event"
    },
    {
      "anonymous": false,
      "inputs": [
        {
          "indexed": true,
          "internalType": "address",
          "name": "beacon",
          "type": "address"
        }
      ],
      "name": "BeaconUpgraded",
      "type": "event"
    },
    {
      "anonymous": false,
      "inputs": [
        {
          "indexed": false,
          "internalType": "uint8",
          "name": "version",
          "type": "uint8"
        }
      ],
      "name": "Initialized",
      "type": "event"
    },
    {
      "anonymous": false,
      "inputs": [
        {
          "indexed": false,
          "internalType": "address",
          "name": "account",
          "type": "address"
        }
      ],
      "name": "Paused",
      "type": "event"
    },
    {
      "anonymous": false,
      "inputs": [
        {
          "indexed": true,
          "internalType": "bytes32",
          "name": "role",
          "type": "bytes32"
        },
        {
          "indexed": true,
          "internalType": "bytes32",
          "name": "previousAdminRole",
          "type": "bytes32"
        },
        {
          "indexed": true,
          "internalType": "bytes32",
          "name": "newAdminRole",
          "type": "bytes32"
        }
      ],
      "name": "RoleAdminChanged",
      "type": "event"
    },
    {
      "anonymous": false,
      "inputs": [
        {
          "indexed": true,
          "internalType": "bytes32",
          "name": "role",
          "type": "bytes32"
        },
        {
          "indexed": true,
          "internalType": "address",
          "name": "account",
          "type": "address"
        },
        {
          "indexed": true,
          "internalType": "address",
          "name": "sender",
          "type": "address"
        }
      ],
      "name": "RoleGranted",
      "type": "event"
    },
    {
      "anonymous": false,
      "inputs": [
        {
          "indexed": true,
          "internalType": "bytes32",
          "name": "role",
          "type": "bytes32"
        },
        {
          "indexed": true,
          "internalType": "address",
          "name": "account",
          "type": "address"
        },
        {
          "indexed": true,
          "internalType": "address",
          "name": "sender",
          "type": "address"
        }
      ],
      "name": "RoleRevoked",
      "type": "event"
    },
    {
      "anonymous": false,
      "inputs": [
        {
          "indexed": false,
          "internalType": "address",
          "name": "account",
          "type": "address"
        }
      ],
      "name": "Unpaused",
      "type": "event"
    },
    {
      "anonymous": false,
      "inputs": [
        {
          "indexed": true,
          "internalType": "address",
          "name": "implementation",
          "type": "address"
        }
      ],
      "name": "Upgraded",
      "type": "event"
    },
    {
      "inputs": [],
      "name": "ADMIN_ROLE",
      "outputs": [
        {
          "internalType": "bytes32",
          "name": "",
          "type": "bytes32"
        }
      ],
      "stateMutability": "view",
      "type": "function"
    },
    {
      "inputs": [],
      "name": "DEFAULT_ADMIN_ROLE",
      "outputs": [
        {
          "internalType": "bytes32",
          "name": "",
          "type": "bytes32"
        }
      ],
      "stateMutability": "view",
      "type": "function"
    },
    {
      "inputs": [],
      "name": "PAUSER_ROLE",
      "outputs": [
        {
          "internalType": "bytes32",
          "name": "",
          "type": "bytes32"
        }
      ],
      "stateMutability": "view",
      "type": "function"
    },
    {
      "inputs": [
        {
          "internalType": "address",
          "name": "owner",
          "type": "address"
        }
      ],
      "name": "_BaseUpgradeablePausable_init",
      "outputs": [],
      "stateMutability": "nonpayable",
      "type": "function"
    },
    {
      "inputs": [],
      "name": "__PauserPausable__init",
      "outputs": [],
      "stateMutability": "nonpayable",
      "type": "function"
    },
    {
      "inputs": [
        {
          "internalType": "address",
          "name": "_investor",
          "type": "address"
        },
        {
          "internalType": "bytes32",
          "name": "_id",
          "type": "bytes32"
        }
      ],
      "name": "addOpportunity",
      "outputs": [],
      "stateMutability": "nonpayable",
      "type": "function"
    },
    {
      "inputs": [],
      "name": "dygnifyConfig",
      "outputs": [
        {
          "internalType": "contract DygnifyConfig",
          "name": "",
          "type": "address"
        }
      ],
      "stateMutability": "view",
      "type": "function"
    },
    {
      "inputs": [
        {
          "internalType": "address",
          "name": "_investor",
          "type": "address"
        }
      ],
      "name": "getOpportunityOfInvestor",
      "outputs": [
        {
          "internalType": "bytes32[]",
          "name": "",
          "type": "bytes32[]"
        }
      ],
      "stateMutability": "view",
      "type": "function"
    },
    {
      "inputs": [
        {
          "internalType": "bytes32",
          "name": "role",
          "type": "bytes32"
        }
      ],
      "name": "getRoleAdmin",
      "outputs": [
        {
          "internalType": "bytes32",
          "name": "",
          "type": "bytes32"
        }
      ],
      "stateMutability": "view",
      "type": "function"
    },
    {
      "inputs": [
        {
          "internalType": "bytes32",
          "name": "role",
          "type": "bytes32"
        },
        {
          "internalType": "address",
          "name": "account",
          "type": "address"
        }
      ],
      "name": "grantRole",
      "outputs": [],
      "stateMutability": "nonpayable",
      "type": "function"
    },
    {
      "inputs": [
        {
          "internalType": "bytes32",
          "name": "role",
          "type": "bytes32"
        },
        {
          "internalType": "address",
          "name": "account",
          "type": "address"
        }
      ],
      "name": "hasRole",
      "outputs": [
        {
          "internalType": "bool",
          "name": "",
          "type": "bool"
        }
      ],
      "stateMutability": "view",
      "type": "function"
    },
    {
      "inputs": [
        {
          "internalType": "contract DygnifyConfig",
          "name": "_dygnifyConfig",
          "type": "address"
        }
      ],
      "name": "initialize",
      "outputs": [],
      "stateMutability": "nonpayable",
      "type": "function"
    },
    {
      "inputs": [
        {
          "internalType": "address",
          "name": "",
          "type": "address"
        },
        {
          "internalType": "uint256",
          "name": "",
          "type": "uint256"
        }
      ],
      "name": "investorToOpportunity",
      "outputs": [
        {
          "internalType": "bytes32",
          "name": "",
          "type": "bytes32"
        }
      ],
      "stateMutability": "view",
      "type": "function"
    },
    {
      "inputs": [],
      "name": "isAdmin",
      "outputs": [
        {
          "internalType": "bool",
          "name": "",
          "type": "bool"
        }
      ],
      "stateMutability": "view",
      "type": "function"
    },
    {
      "inputs": [
        {
          "internalType": "address",
          "name": "_investor",
          "type": "address"
        },
        {
          "internalType": "bytes32",
          "name": "_id",
          "type": "bytes32"
        }
      ],
      "name": "isExistInInvestor",
      "outputs": [
        {
          "internalType": "bool",
          "name": "",
          "type": "bool"
        }
      ],
      "stateMutability": "view",
      "type": "function"
    },
    {
      "inputs": [],
      "name": "opportunityOrigination",
      "outputs": [
        {
          "internalType": "contract IOpportunityOrigination",
          "name": "",
          "type": "address"
        }
      ],
      "stateMutability": "view",
      "type": "function"
    },
    {
      "inputs": [],
      "name": "pause",
      "outputs": [],
      "stateMutability": "nonpayable",
      "type": "function"
    },
    {
      "inputs": [],
      "name": "paused",
      "outputs": [
        {
          "internalType": "bool",
          "name": "",
          "type": "bool"
        }
      ],
      "stateMutability": "view",
      "type": "function"
    },
    {
      "inputs": [],
      "name": "proxiableUUID",
      "outputs": [
        {
          "internalType": "bytes32",
          "name": "",
          "type": "bytes32"
        }
      ],
      "stateMutability": "view",
      "type": "function"
    },
    {
      "inputs": [
        {
          "internalType": "address",
          "name": "_investor",
          "type": "address"
        },
        {
          "internalType": "bytes32",
          "name": "_id",
          "type": "bytes32"
        }
      ],
      "name": "removeOpportunity",
      "outputs": [],
      "stateMutability": "nonpayable",
      "type": "function"
    },
    {
      "inputs": [
        {
          "internalType": "bytes32",
          "name": "role",
          "type": "bytes32"
        },
        {
          "internalType": "address",
          "name": "account",
          "type": "address"
        }
      ],
      "name": "renounceRole",
      "outputs": [],
      "stateMutability": "nonpayable",
      "type": "function"
    },
    {
      "inputs": [
        {
          "internalType": "bytes32",
          "name": "role",
          "type": "bytes32"
        },
        {
          "internalType": "address",
          "name": "account",
          "type": "address"
        }
      ],
      "name": "revokeRole",
      "outputs": [],
      "stateMutability": "nonpayable",
      "type": "function"
    },
    {
      "inputs": [
        {
          "internalType": "bytes4",
          "name": "interfaceId",
          "type": "bytes4"
        }
      ],
      "name": "supportsInterface",
      "outputs": [
        {
          "internalType": "bool",
          "name": "",
          "type": "bool"
        }
      ],
      "stateMutability": "view",
      "type": "function"
    },
    {
      "inputs": [],
      "name": "unpause",
      "outputs": [],
      "stateMutability": "nonpayable",
      "type": "function"
    },
    {
      "inputs": [
        {
          "internalType": "address",
          "name": "newImplementation",
          "type": "address"
        }
      ],
      "name": "upgradeTo",
      "outputs": [],
      "stateMutability": "nonpayable",
      "type": "function"
    },
    {
      "inputs": [
        {
          "internalType": "address",
          "name": "newImplementation",
          "type": "address"
        },
        {
          "internalType": "bytes",
          "name": "data",
          "type": "bytes"
        }
      ],
      "name": "upgradeToAndCall",
      "outputs": [],
      "stateMutability": "payable",
      "type": "function"
    }
  ],
  "bytecode": "0x60a06040523060601b60805234801561001757600080fd5b5060805160601c612a556100526000396000818161078d01528181610812015281816109a601528181610a2b0152610c300152612a556000f3fe6080604052600436106101a15760003560e01c806375b238fc116100e1578063b6db75a01161008a578063d547741f11610064578063d547741f146104d4578063de9d9ee8146104f4578063e63ab1e914610514578063e954539d1461054857600080fd5b8063b6db75a014610450578063c4d66de814610494578063cc2a9cf3146104b457600080fd5b8063a12dde4d116100bb578063a12dde4d146103fb578063a217fddf1461041b578063a68a13221461043057600080fd5b806375b238fc1461036c5780638456cb59146103a057806391d14854146103b557600080fd5b806336568abe1161014e5780634f1ef286116101285780634f1ef28614610317578063526d81f61461032a57806352d1902d1461033f5780635c975abb1461035457600080fd5b806336568abe146102c25780633659cfe6146102e25780633f4ba83a1461030257600080fd5b8063248a9ca31161017f578063248a9ca3146102415780632588d1681461027f5780632f2ff15d146102a057600080fd5b806301ffc9a7146101a657806319b578a8146101db5780631be9545914610208575b600080fd5b3480156101b257600080fd5b506101c66101c13660046127b7565b610568565b60405190151581526020015b60405180910390f35b3480156101e757600080fd5b506101fb6101f6366004612604565b610601565b6040516101d29190612894565b34801561021457600080fd5b5061015f54610229906001600160a01b031681565b6040516001600160a01b0390911681526020016101d2565b34801561024d57600080fd5b5061027161025c366004612758565b60009081526065602052604090206001015490565b6040519081526020016101d2565b34801561028b57600080fd5b5061016054610229906001600160a01b031681565b3480156102ac57600080fd5b506102c06102bb366004612788565b6106cc565b005b3480156102ce57600080fd5b506102c06102dd366004612788565b6106f6565b3480156102ee57600080fd5b506102c06102fd366004612604565b610782565b34801561030e57600080fd5b506102c06108fe565b6102c0610325366004612667565b61099b565b34801561033657600080fd5b506102c0610b04565b34801561034b57600080fd5b50610271610c23565b34801561036057600080fd5b5060975460ff166101c6565b34801561037857600080fd5b506102717fa49807205ce4d355092ef5a8a18f56e8913cf4a201fbe287825b095693c2177581565b3480156103ac57600080fd5b506102c0610ce8565b3480156103c157600080fd5b506101c66103d0366004612788565b60009182526065602090815260408084206001600160a01b0393909316845291905290205460ff1690565b34801561040757600080fd5b506102c0610416366004612604565b610d83565b34801561042757600080fd5b50610271600081565b34801561043c57600080fd5b506102c061044b36600461263c565b610f24565b34801561045c57600080fd5b503360009081527f2c01dc0041dfb6d4238a91e5a638996136aed16f837d5beb45610732cf9bf4b0602052604090205460ff166101c6565b3480156104a057600080fd5b506102c06104af366004612604565b611243565b3480156104c057600080fd5b506102716104cf366004612726565b61148f565b3480156104e057600080fd5b506102c06104ef366004612788565b6114c1565b34801561050057600080fd5b506102c061050f36600461263c565b6114e6565b34801561052057600080fd5b506102717f65d7a28e3265b37a6474929f336521b332c1681b933f6cb9f3376673440d862a81565b34801561055457600080fd5b506101c661056336600461263c565b6118c7565b60007fffffffff0000000000000000000000000000000000000000000000000000000082167f7965db0b0000000000000000000000000000000000000000000000000000000014806105fb57507f01ffc9a7000000000000000000000000000000000000000000000000000000007fffffffff000000000000000000000000000000000000000000000000000000008316145b92915050565b60606001600160a01b03821661065e5760405162461bcd60e51b815260206004820152601860248201527f496e76616c696420696e766573746f722061646472657373000000000000000060448201526064015b60405180910390fd5b6001600160a01b038216600090815261016160209081526040808320805482518185028101850190935280835291929091908301828280156106bf57602002820191906000526020600020905b8154815260200190600101908083116106ab575b5093979650505050505050565b6000828152606560205260409020600101546106e7816119ea565b6106f183836119f4565b505050565b6001600160a01b03811633146107745760405162461bcd60e51b815260206004820152602f60248201527f416363657373436f6e74726f6c3a2063616e206f6e6c792072656e6f756e636560448201527f20726f6c657320666f722073656c6600000000000000000000000000000000006064820152608401610655565b61077e8282611a96565b5050565b306001600160a01b037f00000000000000000000000000000000000000000000000000000000000000001614156108105760405162461bcd60e51b815260206004820152602c60248201527f46756e6374696f6e206d7573742062652063616c6c6564207468726f7567682060448201526b19195b1959d85d1958d85b1b60a21b6064820152608401610655565b7f00000000000000000000000000000000000000000000000000000000000000006001600160a01b031661086b7f360894a13ba1a3210667c828492db98dca3e2076cc3735a920a3ca505d382bbc546001600160a01b031690565b6001600160a01b0316146108d65760405162461bcd60e51b815260206004820152602c60248201527f46756e6374696f6e206d7573742062652063616c6c6564207468726f7567682060448201526b6163746976652070726f787960a01b6064820152608401610655565b6108df81611b19565b604080516000808252602082019092526108fb91839190611bbd565b50565b3360009081527fbfe93621c6aa2dbf737e9056c9b79e4d30ee4f6b28b18be2cb71aac8a7bf258e602052604090205460ff166109915760405162461bcd60e51b815260206004820152602c60248201527f4d75737420686176652070617573657220726f6c6520746f20706572666f726d60448201526b103a3434b99030b1ba34b7b760a11b6064820152608401610655565b610999611d6c565b565b306001600160a01b037f0000000000000000000000000000000000000000000000000000000000000000161415610a295760405162461bcd60e51b815260206004820152602c60248201527f46756e6374696f6e206d7573742062652063616c6c6564207468726f7567682060448201526b19195b1959d85d1958d85b1b60a21b6064820152608401610655565b7f00000000000000000000000000000000000000000000000000000000000000006001600160a01b0316610a847f360894a13ba1a3210667c828492db98dca3e2076cc3735a920a3ca505d382bbc546001600160a01b031690565b6001600160a01b031614610aef5760405162461bcd60e51b815260206004820152602c60248201527f46756e6374696f6e206d7573742062652063616c6c6564207468726f7567682060448201526b6163746976652070726f787960a01b6064820152608401610655565b610af882611b19565b61077e82826001611bbd565b600054610100900460ff1615808015610b245750600054600160ff909116105b80610b3e5750303b158015610b3e575060005460ff166001145b610bb05760405162461bcd60e51b815260206004820152602e60248201527f496e697469616c697a61626c653a20636f6e747261637420697320616c72656160448201527f647920696e697469616c697a65640000000000000000000000000000000000006064820152608401610655565b6000805460ff191660011790558015610bd3576000805461ff0019166101001790555b610bdb611dbe565b80156108fb576000805461ff0019169055604051600181527f7f26b83ff96e1f2b6a682f133852f6798a09c465da95921460cefb38474024989060200160405180910390a150565b6000306001600160a01b037f00000000000000000000000000000000000000000000000000000000000000001614610cc35760405162461bcd60e51b815260206004820152603860248201527f555550535570677261646561626c653a206d757374206e6f742062652063616c60448201527f6c6564207468726f7567682064656c656761746563616c6c00000000000000006064820152608401610655565b507f360894a13ba1a3210667c828492db98dca3e2076cc3735a920a3ca505d382bbc90565b3360009081527fbfe93621c6aa2dbf737e9056c9b79e4d30ee4f6b28b18be2cb71aac8a7bf258e602052604090205460ff16610d7b5760405162461bcd60e51b815260206004820152602c60248201527f4d75737420686176652070617573657220726f6c6520746f20706572666f726d60448201526b103a3434b99030b1ba34b7b760a11b6064820152608401610655565b610999611e35565b600054610100900460ff16610dee5760405162461bcd60e51b815260206004820152602b60248201527f496e697469616c697a61626c653a20636f6e7472616374206973206e6f74206960448201526a6e697469616c697a696e6760a81b6064820152608401610655565b6001600160a01b038116610e445760405162461bcd60e51b815260206004820181905260248201527f4f776e65722063616e6e6f7420626520746865207a65726f20616464726573736044820152606401610655565b610e4c611e72565b610e54611dbe565b610e5c611edd565b610e867fa49807205ce4d355092ef5a8a18f56e8913cf4a201fbe287825b095693c2177582611f4f565b610eb07f65d7a28e3265b37a6474929f336521b332c1681b933f6cb9f3376673440d862a82611f4f565b610efa7f65d7a28e3265b37a6474929f336521b332c1681b933f6cb9f3376673440d862a7fa49807205ce4d355092ef5a8a18f56e8913cf4a201fbe287825b095693c21775611f59565b6108fb7fa49807205ce4d355092ef5a8a18f56e8913cf4a201fbe287825b095693c2177580611f59565b61016054604051637e4dc6d560e01b8152600481018390526000916001600160a01b031690637e4dc6d59060240160206040518083038186803b158015610f6a57600080fd5b505afa158015610f7e573d6000803e3d6000fd5b505050506040513d601f19601f82011682018060405250810190610fa29190612620565b90506001600160a01b038316610ffa5760405162461bcd60e51b815260206004820152601860248201527f496e76616c696420496e766573746f72206164647265737300000000000000006044820152606401610655565b6001600160a01b0381166110505760405162461bcd60e51b815260206004820152601f60248201527f4f70706f7274756e69747920706f6f6c20646f65736e27742065786973742e006044820152606401610655565b336001600160a01b038216146110ce5760405162461bcd60e51b815260206004820152603160248201527f476976656e206f70706f7274756e6974792063616e206f6e6c7920626520616460448201527f646564206279207468617420706f6f6c2e0000000000000000000000000000006064820152608401610655565b6040517f6f49712b0000000000000000000000000000000000000000000000000000000081526001600160a01b038481166004830152821690636f49712b9060240160206040518083038186803b15801561112857600080fd5b505afa15801561113c573d6000803e3d6000fd5b505050506040513d601f19601f820116820180604052508101906111609190612738565b15156001146111fd5760405162461bcd60e51b815260206004820152604260248201527f496e766573746f72206973206e6f7420686176696e672061207374616b696e6760448201527f20706f736974696f6e20696e2070726f7669646564206f70706f7274756e697460648201527f792e000000000000000000000000000000000000000000000000000000000000608482015260a401610655565b600061120984846118c7565b90508061123d576001600160a01b038416600090815261016160209081526040822080546001810182559083529120018390555b50505050565b600054610100900460ff16158080156112635750600054600160ff909116105b8061127d5750303b15801561127d575060005460ff166001145b6112ef5760405162461bcd60e51b815260206004820152602e60248201527f496e697469616c697a61626c653a20636f6e747261637420697320616c72656160448201527f647920696e697469616c697a65640000000000000000000000000000000000006064820152608401610655565b6000805460ff191660011790558015611312576000805461ff0019166101001790555b6001600160a01b0382166113685760405162461bcd60e51b815260206004820152601660248201527f496e76616c696420636f6e6669672061646472657373000000000000000000006044820152606401610655565b61015f805473ffffffffffffffffffffffffffffffffffffffff19166001600160a01b0384169081179091556000906113a090611fa4565b90506001600160a01b0381166113f85760405162461bcd60e51b815260206004820152600d60248201527f496e76616c6964204f776e6572000000000000000000000000000000000000006044820152606401610655565b61015f5461140e906001600160a01b0316612025565b610160805473ffffffffffffffffffffffffffffffffffffffff19166001600160a01b039290921691909117905561144581610d83565b50801561077e576000805461ff0019169055604051600181527f7f26b83ff96e1f2b6a682f133852f6798a09c465da95921460cefb38474024989060200160405180910390a15050565b61016160205281600052604060002081815481106114ac57600080fd5b90600052602060002001600091509150505481565b6000828152606560205260409020600101546114dc816119ea565b6106f18383611a96565b61016054604051637e4dc6d560e01b8152600481018390526000916001600160a01b031690637e4dc6d59060240160206040518083038186803b15801561152c57600080fd5b505afa158015611540573d6000803e3d6000fd5b505050506040513d601f19601f820116820180604052508101906115649190612620565b90506001600160a01b0383166115bc5760405162461bcd60e51b815260206004820152601860248201527f496e76616c696420496e766573746f72206164647265737300000000000000006044820152606401610655565b6001600160a01b0381166116125760405162461bcd60e51b815260206004820152601f60248201527f4f70706f7274756e69747920706f6f6c20646f65736e27742065786973742e006044820152606401610655565b336001600160a01b038216146116905760405162461bcd60e51b815260206004820152603160248201527f476976656e206f70706f7274756e6974792063616e206f6e6c7920626520616460448201527f646564206279207468617420706f6f6c2e0000000000000000000000000000006064820152608401610655565b600061169c84846118c7565b90506001811515146117165760405162461bcd60e51b815260206004820152602e60248201527f496e766573746f7220646f65736e277420696e76657374656420696e2074686960448201527f73206f70706f7274756e6974792e0000000000000000000000000000000000006064820152608401610655565b6001600160a01b0384166000908152610161602090815260408083208054825181850281018501909352808352919290919083018282801561177757602002820191906000526020600020905b815481526020019060010190808311611763575b5050505050905060005b81518110156118bf57848282815181106117ab57634e487b7160e01b600052603260045260246000fd5b602002602001015114156118ad576001600160a01b03861660009081526101616020526040902082516117e090600190612942565b815481106117fe57634e487b7160e01b600052603260045260246000fd5b90600052602060002001546101616000886001600160a01b03166001600160a01b03168152602001908152602001600020828154811061184e57634e487b7160e01b600052603260045260246000fd5b60009182526020808320909101929092556001600160a01b038816815261016190915260409020825161188390600190612942565b815481106118a157634e487b7160e01b600052603260045260246000fd5b60009182526020822001555b806118b78161299c565b915050611781565b505050505050565b60006001600160a01b03831661191f5760405162461bcd60e51b815260206004820152601860248201527f496e76616c696420696e766573746f72206164647265737300000000000000006044820152606401610655565b6001600160a01b0383166000908152610161602090815260408083208054825181850281018501909352808352919290919083018282801561198057602002820191906000526020600020905b81548152602001906001019080831161196c575b5050505050905060005b81518110156119df57838282815181106119b457634e487b7160e01b600052603260045260246000fd5b602002602001015114156119cd576001925050506105fb565b806119d78161299c565b91505061198a565b506000949350505050565b6108fb813361203d565b60008281526065602090815260408083206001600160a01b038516845290915290205460ff1661077e5760008281526065602090815260408083206001600160a01b03851684529091529020805460ff19166001179055611a523390565b6001600160a01b0316816001600160a01b0316837f2f8788117e7eff1d82e926ec794901d17c78024a50270940304540a733656f0d60405160405180910390a45050565b60008281526065602090815260408083206001600160a01b038516845290915290205460ff161561077e5760008281526065602090815260408083206001600160a01b0385168085529252808320805460ff1916905551339285917ff6391f5c32d9c69d2a47ea670b442974b53935d1edc7fd64eb21e047a839171b9190a45050565b3360009081527f2c01dc0041dfb6d4238a91e5a638996136aed16f837d5beb45610732cf9bf4b0602052604090205460ff166108fb5760405162461bcd60e51b815260206004820152602b60248201527f4d75737420686176652061646d696e20726f6c6520746f20706572666f726d2060448201527f7468697320616374696f6e0000000000000000000000000000000000000000006064820152608401610655565b7f4910fdfa16fed3260ed0e7147f7cc6da11a60208b5b9406d12a635614ffd91435460ff1615611bf0576106f1836120bd565b826001600160a01b03166352d1902d6040518163ffffffff1660e01b815260040160206040518083038186803b158015611c2957600080fd5b505afa925050508015611c59575060408051601f3d908101601f19168201909252611c5691810190612770565b60015b611ccb5760405162461bcd60e51b815260206004820152602e60248201527f45524331393637557067726164653a206e657720696d706c656d656e7461746960448201527f6f6e206973206e6f7420555550530000000000000000000000000000000000006064820152608401610655565b7f360894a13ba1a3210667c828492db98dca3e2076cc3735a920a3ca505d382bbc8114611d605760405162461bcd60e51b815260206004820152602960248201527f45524331393637557067726164653a20756e737570706f727465642070726f7860448201527f6961626c655555494400000000000000000000000000000000000000000000006064820152608401610655565b506106f1838383612188565b611d746121ad565b6097805460ff191690557f5db9ee0a495bf2e6ff9c91a7834c1ba4fdd244a5e8aa4e537bd38aeae4b073aa335b6040516001600160a01b03909116815260200160405180910390a1565b600054610100900460ff16611e295760405162461bcd60e51b815260206004820152602b60248201527f496e697469616c697a61626c653a20636f6e7472616374206973206e6f74206960448201526a6e697469616c697a696e6760a81b6064820152608401610655565b6097805460ff19169055565b611e3d6121ff565b6097805460ff191660011790557f62e78cea01bee320cd4e420270b5ea74000d11b0c9f74754ebdbfc544b05a258611da13390565b600054610100900460ff166109995760405162461bcd60e51b815260206004820152602b60248201527f496e697469616c697a61626c653a20636f6e7472616374206973206e6f74206960448201526a6e697469616c697a696e6760a81b6064820152608401610655565b600054610100900460ff16611f485760405162461bcd60e51b815260206004820152602b60248201527f496e697469616c697a61626c653a20636f6e7472616374206973206e6f74206960448201526a6e697469616c697a696e6760a81b6064820152608401610655565b600160c955565b61077e82826119f4565b600082815260656020526040808220600101805490849055905190918391839186917fbd79b86ffe0ab8e8776151514217cd7cacd52c909f66475c3af44e129f0b00ff9190a4505050565b60006001600160a01b03821663b93f9b0a825b6040518263ffffffff1660e01b8152600401611fd591815260200190565b60206040518083038186803b158015611fed57600080fd5b505afa158015612001573d6000803e3d6000fd5b505050506040513d601f19601f820116820180604052508101906105fb9190612620565b60006001600160a01b03821663b93f9b0a6006611fb7565b60008281526065602090815260408083206001600160a01b038516845290915290205460ff1661077e5761207b816001600160a01b03166014612252565b612086836020612252565b604051602001612097929190612813565b60408051601f198184030181529082905262461bcd60e51b8252610655916004016128d8565b6001600160a01b0381163b61213a5760405162461bcd60e51b815260206004820152602d60248201527f455243313936373a206e657720696d706c656d656e746174696f6e206973206e60448201527f6f74206120636f6e7472616374000000000000000000000000000000000000006064820152608401610655565b7f360894a13ba1a3210667c828492db98dca3e2076cc3735a920a3ca505d382bbc805473ffffffffffffffffffffffffffffffffffffffff19166001600160a01b0392909216919091179055565b61219183612480565b60008251118061219e5750805b156106f15761123d83836124c0565b60975460ff166109995760405162461bcd60e51b815260206004820152601460248201527f5061757361626c653a206e6f74207061757365640000000000000000000000006044820152606401610655565b60975460ff16156109995760405162461bcd60e51b815260206004820152601060248201527f5061757361626c653a20706175736564000000000000000000000000000000006044820152606401610655565b60606000612261836002612923565b61226c90600261290b565b67ffffffffffffffff81111561229257634e487b7160e01b600052604160045260246000fd5b6040519080825280601f01601f1916602001820160405280156122bc576020820181803683370190505b5090507f30000000000000000000000000000000000000000000000000000000000000008160008151811061230157634e487b7160e01b600052603260045260246000fd5b60200101906001600160f81b031916908160001a9053507f78000000000000000000000000000000000000000000000000000000000000008160018151811061235a57634e487b7160e01b600052603260045260246000fd5b60200101906001600160f81b031916908160001a905350600061237e846002612923565b61238990600161290b565b90505b600181111561242a577f303132333435363738396162636465660000000000000000000000000000000085600f16601081106123d857634e487b7160e01b600052603260045260246000fd5b1a60f81b8282815181106123fc57634e487b7160e01b600052603260045260246000fd5b60200101906001600160f81b031916908160001a90535060049490941c9361242381612985565b905061238c565b5083156124795760405162461bcd60e51b815260206004820181905260248201527f537472696e67733a20686578206c656e67746820696e73756666696369656e746044820152606401610655565b9392505050565b612489816120bd565b6040516001600160a01b038216907fbc7cd75a20ee27fd9adebab32041f755214dbc6bffa90cc0225b39da2e5c2d3b90600090a250565b60606001600160a01b0383163b61253f5760405162461bcd60e51b815260206004820152602660248201527f416464726573733a2064656c65676174652063616c6c20746f206e6f6e2d636f60448201527f6e747261637400000000000000000000000000000000000000000000000000006064820152608401610655565b600080846001600160a01b03168460405161255a91906127f7565b600060405180830381855af49150503d8060008114612595576040519150601f19603f3d011682016040523d82523d6000602084013e61259a565b606091505b50915091506125c282826040518060600160405280602781526020016129f9602791396125cb565b95945050505050565b606083156125da575081612479565b8251156125ea5782518084602001fd5b8160405162461bcd60e51b815260040161065591906128d8565b600060208284031215612615578081fd5b8135612479816129e3565b600060208284031215612631578081fd5b8151612479816129e3565b6000806040838503121561264e578081fd5b8235612659816129e3565b946020939093013593505050565b60008060408385031215612679578182fd5b8235612684816129e3565b9150602083013567ffffffffffffffff808211156126a0578283fd5b818501915085601f8301126126b3578283fd5b8135818111156126c5576126c56129cd565b604051601f8201601f19908116603f011681019083821181831017156126ed576126ed6129cd565b81604052828152886020848701011115612705578586fd5b82602086016020830137856020848301015280955050505050509250929050565b6000806040838503121561264e578182fd5b600060208284031215612749578081fd5b81518015158114612479578182fd5b600060208284031215612769578081fd5b5035919050565b600060208284031215612781578081fd5b5051919050565b6000806040838503121561279a578182fd5b8235915060208301356127ac816129e3565b809150509250929050565b6000602082840312156127c8578081fd5b81357fffffffff0000000000000000000000000000000000000000000000000000000081168114612479578182fd5b60008251612809818460208701612959565b9190910192915050565b7f416363657373436f6e74726f6c3a206163636f756e742000000000000000000081526000835161284b816017850160208801612959565b7f206973206d697373696e6720726f6c65200000000000000000000000000000006017918401918201528351612888816028840160208801612959565b01602801949350505050565b6020808252825182820181905260009190848201906040850190845b818110156128cc578351835292840192918401916001016128b0565b50909695505050505050565b60208152600082518060208401526128f7816040850160208701612959565b601f01601f19169190910160400192915050565b6000821982111561291e5761291e6129b7565b500190565b600081600019048311821515161561293d5761293d6129b7565b500290565b600082821015612954576129546129b7565b500390565b60005b8381101561297457818101518382015260200161295c565b8381111561123d5750506000910152565b600081612994576129946129b7565b506000190190565b60006000198214156129b0576129b06129b7565b5060010190565b634e487b7160e01b600052601160045260246000fd5b634e487b7160e01b600052604160045260246000fd5b6001600160a01b03811681146108fb57600080fdfe416464726573733a206c6f772d6c6576656c2064656c65676174652063616c6c206661696c6564a26469706673582212203f0aac8a8d95ffaf863e125aab266a55b9284aa4744b75bfe496a020857a552064736f6c63430008040033",
  "linkReferences": {},
  "deployedLinkReferences": {}
}