{
  "_format": "hh-sol-artifact-1",
  "contractName": "Investor",
  "sourceName": "contracts/protocol/Investor.sol",
  "abi": [
    {
      "anonymous": false,
      "inputs": [
        {
          "indexed": false,
          "internalType": "uint8",
          "name": "version",
          "type": "uint8"
        }
      ],
      "name": "Initialized",
      "type": "event"
    },
    {
      "anonymous": false,
      "inputs": [
        {
          "indexed": false,
          "internalType": "address",
          "name": "account",
          "type": "address"
        }
      ],
      "name": "Paused",
      "type": "event"
    },
    {
      "anonymous": false,
      "inputs": [
        {
          "indexed": true,
          "internalType": "bytes32",
          "name": "role",
          "type": "bytes32"
        },
        {
          "indexed": true,
          "internalType": "bytes32",
          "name": "previousAdminRole",
          "type": "bytes32"
        },
        {
          "indexed": true,
          "internalType": "bytes32",
          "name": "newAdminRole",
          "type": "bytes32"
        }
      ],
      "name": "RoleAdminChanged",
      "type": "event"
    },
    {
      "anonymous": false,
      "inputs": [
        {
          "indexed": true,
          "internalType": "bytes32",
          "name": "role",
          "type": "bytes32"
        },
        {
          "indexed": true,
          "internalType": "address",
          "name": "account",
          "type": "address"
        },
        {
          "indexed": true,
          "internalType": "address",
          "name": "sender",
          "type": "address"
        }
      ],
      "name": "RoleGranted",
      "type": "event"
    },
    {
      "anonymous": false,
      "inputs": [
        {
          "indexed": true,
          "internalType": "bytes32",
          "name": "role",
          "type": "bytes32"
        },
        {
          "indexed": true,
          "internalType": "address",
          "name": "account",
          "type": "address"
        },
        {
          "indexed": true,
          "internalType": "address",
          "name": "sender",
          "type": "address"
        }
      ],
      "name": "RoleRevoked",
      "type": "event"
    },
    {
      "anonymous": false,
      "inputs": [
        {
          "indexed": false,
          "internalType": "address",
          "name": "account",
          "type": "address"
        }
      ],
      "name": "Unpaused",
      "type": "event"
    },
    {
      "inputs": [],
      "name": "ADMIN_ROLE",
      "outputs": [
        {
          "internalType": "bytes32",
          "name": "",
          "type": "bytes32"
        }
      ],
      "stateMutability": "view",
      "type": "function"
    },
    {
      "inputs": [],
      "name": "DEFAULT_ADMIN_ROLE",
      "outputs": [
        {
          "internalType": "bytes32",
          "name": "",
          "type": "bytes32"
        }
      ],
      "stateMutability": "view",
      "type": "function"
    },
    {
      "inputs": [],
      "name": "PAUSER_ROLE",
      "outputs": [
        {
          "internalType": "bytes32",
          "name": "",
          "type": "bytes32"
        }
      ],
      "stateMutability": "view",
      "type": "function"
    },
    {
      "inputs": [
        {
          "internalType": "address",
          "name": "owner",
          "type": "address"
        }
      ],
      "name": "_BaseUpgradeablePausable_init",
      "outputs": [],
      "stateMutability": "nonpayable",
      "type": "function"
    },
    {
      "inputs": [],
      "name": "__PauserPausable__init",
      "outputs": [],
      "stateMutability": "nonpayable",
      "type": "function"
    },
    {
      "inputs": [
        {
          "internalType": "address",
          "name": "_investor",
          "type": "address"
        },
        {
          "internalType": "bytes32",
          "name": "_id",
          "type": "bytes32"
        }
      ],
      "name": "addOpportunity",
      "outputs": [],
      "stateMutability": "nonpayable",
      "type": "function"
    },
    {
      "inputs": [],
      "name": "dygnifyConfig",
      "outputs": [
        {
          "internalType": "contract DygnifyConfig",
          "name": "",
          "type": "address"
        }
      ],
      "stateMutability": "view",
      "type": "function"
    },
    {
      "inputs": [
        {
          "internalType": "address",
          "name": "_investor",
          "type": "address"
        }
      ],
      "name": "getOpportunityOfInvestor",
      "outputs": [
        {
          "internalType": "bytes32[]",
          "name": "",
          "type": "bytes32[]"
        }
      ],
      "stateMutability": "view",
      "type": "function"
    },
    {
      "inputs": [
        {
          "internalType": "bytes32",
          "name": "role",
          "type": "bytes32"
        }
      ],
      "name": "getRoleAdmin",
      "outputs": [
        {
          "internalType": "bytes32",
          "name": "",
          "type": "bytes32"
        }
      ],
      "stateMutability": "view",
      "type": "function"
    },
    {
      "inputs": [
        {
          "internalType": "bytes32",
          "name": "role",
          "type": "bytes32"
        },
        {
          "internalType": "address",
          "name": "account",
          "type": "address"
        }
      ],
      "name": "grantRole",
      "outputs": [],
      "stateMutability": "nonpayable",
      "type": "function"
    },
    {
      "inputs": [
        {
          "internalType": "bytes32",
          "name": "role",
          "type": "bytes32"
        },
        {
          "internalType": "address",
          "name": "account",
          "type": "address"
        }
      ],
      "name": "hasRole",
      "outputs": [
        {
          "internalType": "bool",
          "name": "",
          "type": "bool"
        }
      ],
      "stateMutability": "view",
      "type": "function"
    },
    {
      "inputs": [
        {
          "internalType": "contract DygnifyConfig",
          "name": "_dygnifyConfig",
          "type": "address"
        }
      ],
      "name": "initialize",
      "outputs": [],
      "stateMutability": "nonpayable",
      "type": "function"
    },
    {
      "inputs": [
        {
          "internalType": "address",
          "name": "",
          "type": "address"
        },
        {
          "internalType": "uint256",
          "name": "",
          "type": "uint256"
        }
      ],
      "name": "investorToOpportunity",
      "outputs": [
        {
          "internalType": "bytes32",
          "name": "",
          "type": "bytes32"
        }
      ],
      "stateMutability": "view",
      "type": "function"
    },
    {
      "inputs": [],
      "name": "isAdmin",
      "outputs": [
        {
          "internalType": "bool",
          "name": "",
          "type": "bool"
        }
      ],
      "stateMutability": "view",
      "type": "function"
    },
    {
      "inputs": [
        {
          "internalType": "address",
          "name": "_investor",
          "type": "address"
        },
        {
          "internalType": "bytes32",
          "name": "_id",
          "type": "bytes32"
        }
      ],
      "name": "isExistInInvestor",
      "outputs": [
        {
          "internalType": "bool",
          "name": "",
          "type": "bool"
        }
      ],
      "stateMutability": "view",
      "type": "function"
    },
    {
      "inputs": [],
      "name": "opportunityOrigination",
      "outputs": [
        {
          "internalType": "contract OpportunityOrigination",
          "name": "",
          "type": "address"
        }
      ],
      "stateMutability": "view",
      "type": "function"
    },
    {
      "inputs": [],
      "name": "pause",
      "outputs": [],
      "stateMutability": "nonpayable",
      "type": "function"
    },
    {
      "inputs": [],
      "name": "paused",
      "outputs": [
        {
          "internalType": "bool",
          "name": "",
          "type": "bool"
        }
      ],
      "stateMutability": "view",
      "type": "function"
    },
    {
      "inputs": [
        {
          "internalType": "address",
          "name": "_investor",
          "type": "address"
        },
        {
          "internalType": "bytes32",
          "name": "_id",
          "type": "bytes32"
        }
      ],
      "name": "removeOpportunity",
      "outputs": [],
      "stateMutability": "nonpayable",
      "type": "function"
    },
    {
      "inputs": [
        {
          "internalType": "bytes32",
          "name": "role",
          "type": "bytes32"
        },
        {
          "internalType": "address",
          "name": "account",
          "type": "address"
        }
      ],
      "name": "renounceRole",
      "outputs": [],
      "stateMutability": "nonpayable",
      "type": "function"
    },
    {
      "inputs": [
        {
          "internalType": "bytes32",
          "name": "role",
          "type": "bytes32"
        },
        {
          "internalType": "address",
          "name": "account",
          "type": "address"
        }
      ],
      "name": "revokeRole",
      "outputs": [],
      "stateMutability": "nonpayable",
      "type": "function"
    },
    {
      "inputs": [
        {
          "internalType": "bytes4",
          "name": "interfaceId",
          "type": "bytes4"
        }
      ],
      "name": "supportsInterface",
      "outputs": [
        {
          "internalType": "bool",
          "name": "",
          "type": "bool"
        }
      ],
      "stateMutability": "view",
      "type": "function"
    },
    {
      "inputs": [],
      "name": "unpause",
      "outputs": [],
      "stateMutability": "nonpayable",
      "type": "function"
    }
  ],
  "bytecode": "0x608060405234801561001057600080fd5b50611f1f806100206000396000f3fe608060405234801561001057600080fd5b506004361061018d5760003560e01c80638456cb59116100e3578063c4d66de81161008c578063de9d9ee811610066578063de9d9ee814610392578063e63ab1e9146103a5578063e954539d146103cc57600080fd5b8063c4d66de814610359578063cc2a9cf31461036c578063d547741f1461037f57600080fd5b8063a217fddf116100bd578063a217fddf14610307578063a68a13221461030f578063b6db75a01461032257600080fd5b80638456cb59146102b357806391d14854146102bb578063a12dde4d146102f457600080fd5b80632f2ff15d11610145578063526d81f61161011f578063526d81f6146102795780635c975abb1461028157806375b238fc1461028c57600080fd5b80632f2ff15d1461024957806336568abe1461025e5780633f4ba83a1461027157600080fd5b80631be95459116101765780631be95459146101da578063248a9ca3146102055780632588d1681461023657600080fd5b806301ffc9a71461019257806319b578a8146101ba575b600080fd5b6101a56101a0366004611cda565b6103df565b60405190151581526020015b60405180910390f35b6101cd6101c8366004611bfe565b610478565b6040516101b19190611d9b565b60fb546101ed906001600160a01b031681565b6040516001600160a01b0390911681526020016101b1565b610228610213366004611c93565b60009081526065602052604090206001015490565b6040519081526020016101b1565b60fc546101ed906001600160a01b031681565b61025c610257366004611cab565b610542565b005b61025c61026c366004611cab565b61056c565b61025c6105f8565b61025c610695565b60975460ff166101a5565b6102287fa49807205ce4d355092ef5a8a18f56e8913cf4a201fbe287825b095693c2177581565b61025c6107b5565b6101a56102c9366004611cab565b60009182526065602090815260408084206001600160a01b0393909316845291905290205460ff1690565b61025c610302366004611bfe565b610850565b610228600081565b61025c61031d366004611c36565b6109f1565b3360009081527f2c01dc0041dfb6d4238a91e5a638996136aed16f837d5beb45610732cf9bf4b0602052604090205460ff166101a5565b61025c610367366004611bfe565b610d0e565b61022861037a366004611c61565b610f57565b61025c61038d366004611cab565b610f88565b61025c6103a0366004611c36565b610fad565b6102287f65d7a28e3265b37a6474929f336521b332c1681b933f6cb9f3376673440d862a81565b6101a56103da366004611c36565b611389565b60007fffffffff0000000000000000000000000000000000000000000000000000000082167f7965db0b00000000000000000000000000000000000000000000000000000000148061047257507f01ffc9a7000000000000000000000000000000000000000000000000000000007fffffffff000000000000000000000000000000000000000000000000000000008316145b92915050565b60606001600160a01b0382166104d55760405162461bcd60e51b815260206004820152601860248201527f496e76616c696420696e766573746f722061646472657373000000000000000060448201526064015b60405180910390fd5b6001600160a01b038216600090815260fd602090815260408083208054825181850281018501909352808352919290919083018282801561053557602002820191906000526020600020905b815481526020019060010190808311610521575b5093979650505050505050565b60008281526065602052604090206001015461055d816114ab565b61056783836114b5565b505050565b6001600160a01b03811633146105ea5760405162461bcd60e51b815260206004820152602f60248201527f416363657373436f6e74726f6c3a2063616e206f6e6c792072656e6f756e636560448201527f20726f6c657320666f722073656c66000000000000000000000000000000000060648201526084016104cc565b6105f48282611557565b5050565b3360009081527fbfe93621c6aa2dbf737e9056c9b79e4d30ee4f6b28b18be2cb71aac8a7bf258e602052604090205460ff1661068b5760405162461bcd60e51b815260206004820152602c60248201527f4d75737420686176652070617573657220726f6c6520746f20706572666f726d60448201526b103a3434b99030b1ba34b7b760a11b60648201526084016104cc565b6106936115da565b565b600054610100900460ff16158080156106b55750600054600160ff909116105b806106cf5750303b1580156106cf575060005460ff166001145b6107415760405162461bcd60e51b815260206004820152602e60248201527f496e697469616c697a61626c653a20636f6e747261637420697320616c72656160448201527f647920696e697469616c697a656400000000000000000000000000000000000060648201526084016104cc565b6000805460ff191660011790558015610764576000805461ff0019166101001790555b61076c61162c565b80156107b2576000805461ff0019169055604051600181527f7f26b83ff96e1f2b6a682f133852f6798a09c465da95921460cefb38474024989060200160405180910390a15b50565b3360009081527fbfe93621c6aa2dbf737e9056c9b79e4d30ee4f6b28b18be2cb71aac8a7bf258e602052604090205460ff166108485760405162461bcd60e51b815260206004820152602c60248201527f4d75737420686176652070617573657220726f6c6520746f20706572666f726d60448201526b103a3434b99030b1ba34b7b760a11b60648201526084016104cc565b6106936116a3565b600054610100900460ff166108bb5760405162461bcd60e51b815260206004820152602b60248201527f496e697469616c697a61626c653a20636f6e7472616374206973206e6f74206960448201526a6e697469616c697a696e6760a81b60648201526084016104cc565b6001600160a01b0381166109115760405162461bcd60e51b815260206004820181905260248201527f4f776e65722063616e6e6f7420626520746865207a65726f206164647265737360448201526064016104cc565b6109196116e0565b61092161162c565b61092961174b565b6109537fa49807205ce4d355092ef5a8a18f56e8913cf4a201fbe287825b095693c21775826117bd565b61097d7f65d7a28e3265b37a6474929f336521b332c1681b933f6cb9f3376673440d862a826117bd565b6109c77f65d7a28e3265b37a6474929f336521b332c1681b933f6cb9f3376673440d862a7fa49807205ce4d355092ef5a8a18f56e8913cf4a201fbe287825b095693c217756117c7565b6107b27fa49807205ce4d355092ef5a8a18f56e8913cf4a201fbe287825b095693c21775806117c7565b60fc54604051637e4dc6d560e01b8152600481018390526000916001600160a01b031690637e4dc6d59060240160206040518083038186803b158015610a3657600080fd5b505afa158015610a4a573d6000803e3d6000fd5b505050506040513d601f19601f82011682018060405250810190610a6e9190611c1a565b90506001600160a01b038316610ac65760405162461bcd60e51b815260206004820152601860248201527f496e76616c696420496e766573746f722061646472657373000000000000000060448201526064016104cc565b6001600160a01b038116610b1c5760405162461bcd60e51b815260206004820152601f60248201527f4f70706f7274756e69747920706f6f6c20646f65736e27742065786973742e0060448201526064016104cc565b336001600160a01b03821614610b9a5760405162461bcd60e51b815260206004820152603160248201527f476976656e206f70706f7274756e6974792063616e206f6e6c7920626520616460448201527f646564206279207468617420706f6f6c2e00000000000000000000000000000060648201526084016104cc565b6040517f6f49712b0000000000000000000000000000000000000000000000000000000081526001600160a01b038481166004830152821690636f49712b9060240160206040518083038186803b158015610bf457600080fd5b505afa158015610c08573d6000803e3d6000fd5b505050506040513d601f19601f82011682018060405250810190610c2c9190611c73565b1515600114610cc95760405162461bcd60e51b815260206004820152604260248201527f496e766573746f72206973206e6f7420686176696e672061207374616b696e6760448201527f20706f736974696f6e20696e2070726f7669646564206f70706f7274756e697460648201527f792e000000000000000000000000000000000000000000000000000000000000608482015260a4016104cc565b6000610cd58484611389565b905080610d08576001600160a01b038416600090815260fd60209081526040822080546001810182559083529120018390555b50505050565b600054610100900460ff1615808015610d2e5750600054600160ff909116105b80610d485750303b158015610d48575060005460ff166001145b610dba5760405162461bcd60e51b815260206004820152602e60248201527f496e697469616c697a61626c653a20636f6e747261637420697320616c72656160448201527f647920696e697469616c697a656400000000000000000000000000000000000060648201526084016104cc565b6000805460ff191660011790558015610ddd576000805461ff0019166101001790555b6001600160a01b038216610e335760405162461bcd60e51b815260206004820152601660248201527f496e76616c696420636f6e66696720616464726573730000000000000000000060448201526064016104cc565b60fb805473ffffffffffffffffffffffffffffffffffffffff19166001600160a01b038416908117909155600090610e6a90611812565b90506001600160a01b038116610ec25760405162461bcd60e51b815260206004820152600d60248201527f496e76616c6964204f776e65720000000000000000000000000000000000000060448201526064016104cc565b60fb54610ed7906001600160a01b0316611893565b60fc805473ffffffffffffffffffffffffffffffffffffffff19166001600160a01b0392909216919091179055610f0d81610850565b5080156105f4576000805461ff0019169055604051600181527f7f26b83ff96e1f2b6a682f133852f6798a09c465da95921460cefb38474024989060200160405180910390a15050565b60fd6020528160005260406000208181548110610f7357600080fd5b90600052602060002001600091509150505481565b600082815260656020526040902060010154610fa3816114ab565b6105678383611557565b60fc54604051637e4dc6d560e01b8152600481018390526000916001600160a01b031690637e4dc6d59060240160206040518083038186803b158015610ff257600080fd5b505afa158015611006573d6000803e3d6000fd5b505050506040513d601f19601f8201168201806040525081019061102a9190611c1a565b90506001600160a01b0383166110825760405162461bcd60e51b815260206004820152601860248201527f496e76616c696420496e766573746f722061646472657373000000000000000060448201526064016104cc565b6001600160a01b0381166110d85760405162461bcd60e51b815260206004820152601f60248201527f4f70706f7274756e69747920706f6f6c20646f65736e27742065786973742e0060448201526064016104cc565b336001600160a01b038216146111565760405162461bcd60e51b815260206004820152603160248201527f476976656e206f70706f7274756e6974792063616e206f6e6c7920626520616460448201527f646564206279207468617420706f6f6c2e00000000000000000000000000000060648201526084016104cc565b60006111628484611389565b90506001811515146111dc5760405162461bcd60e51b815260206004820152602e60248201527f496e766573746f7220646f65736e277420696e76657374656420696e2074686960448201527f73206f70706f7274756e6974792e00000000000000000000000000000000000060648201526084016104cc565b6001600160a01b038416600090815260fd602090815260408083208054825181850281018501909352808352919290919083018282801561123c57602002820191906000526020600020905b815481526020019060010190808311611228575b5050505050905060005b8151811015611381578482828151811061127057634e487b7160e01b600052603260045260246000fd5b6020026020010151141561136f576001600160a01b038616600090815260fd6020526040902082516112a490600190611e49565b815481106112c257634e487b7160e01b600052603260045260246000fd5b906000526020600020015460fd6000886001600160a01b03166001600160a01b03168152602001908152602001600020828154811061131157634e487b7160e01b600052603260045260246000fd5b60009182526020808320909101929092556001600160a01b038816815260fd90915260409020825161134590600190611e49565b8154811061136357634e487b7160e01b600052603260045260246000fd5b60009182526020822001555b8061137981611ea3565b915050611246565b505050505050565b60006001600160a01b0383166113e15760405162461bcd60e51b815260206004820152601860248201527f496e76616c696420696e766573746f722061646472657373000000000000000060448201526064016104cc565b6001600160a01b038316600090815260fd602090815260408083208054825181850281018501909352808352919290919083018282801561144157602002820191906000526020600020905b81548152602001906001019080831161142d575b5050505050905060005b81518110156114a0578382828151811061147557634e487b7160e01b600052603260045260246000fd5b6020026020010151141561148e57600192505050610472565b8061149881611ea3565b91505061144b565b506000949350505050565b6107b281336118ab565b60008281526065602090815260408083206001600160a01b038516845290915290205460ff166105f45760008281526065602090815260408083206001600160a01b03851684529091529020805460ff191660011790556115133390565b6001600160a01b0316816001600160a01b0316837f2f8788117e7eff1d82e926ec794901d17c78024a50270940304540a733656f0d60405160405180910390a45050565b60008281526065602090815260408083206001600160a01b038516845290915290205460ff16156105f45760008281526065602090815260408083206001600160a01b0385168085529252808320805460ff1916905551339285917ff6391f5c32d9c69d2a47ea670b442974b53935d1edc7fd64eb21e047a839171b9190a45050565b6115e261192b565b6097805460ff191690557f5db9ee0a495bf2e6ff9c91a7834c1ba4fdd244a5e8aa4e537bd38aeae4b073aa335b6040516001600160a01b03909116815260200160405180910390a1565b600054610100900460ff166116975760405162461bcd60e51b815260206004820152602b60248201527f496e697469616c697a61626c653a20636f6e7472616374206973206e6f74206960448201526a6e697469616c697a696e6760a81b60648201526084016104cc565b6097805460ff19169055565b6116ab61197d565b6097805460ff191660011790557f62e78cea01bee320cd4e420270b5ea74000d11b0c9f74754ebdbfc544b05a25861160f3390565b600054610100900460ff166106935760405162461bcd60e51b815260206004820152602b60248201527f496e697469616c697a61626c653a20636f6e7472616374206973206e6f74206960448201526a6e697469616c697a696e6760a81b60648201526084016104cc565b600054610100900460ff166117b65760405162461bcd60e51b815260206004820152602b60248201527f496e697469616c697a61626c653a20636f6e7472616374206973206e6f74206960448201526a6e697469616c697a696e6760a81b60648201526084016104cc565b600160c955565b6105f482826114b5565b600082815260656020526040808220600101805490849055905190918391839186917fbd79b86ffe0ab8e8776151514217cd7cacd52c909f66475c3af44e129f0b00ff9190a4505050565b60006001600160a01b03821663b93f9b0a825b6040518263ffffffff1660e01b815260040161184391815260200190565b60206040518083038186803b15801561185b57600080fd5b505afa15801561186f573d6000803e3d6000fd5b505050506040513d601f19601f820116820180604052508101906104729190611c1a565b60006001600160a01b03821663b93f9b0a6006611825565b60008281526065602090815260408083206001600160a01b038516845290915290205460ff166105f4576118e9816001600160a01b031660146119d0565b6118f48360206119d0565b604051602001611905929190611d1a565b60408051601f198184030181529082905262461bcd60e51b82526104cc91600401611ddf565b60975460ff166106935760405162461bcd60e51b815260206004820152601460248201527f5061757361626c653a206e6f742070617573656400000000000000000000000060448201526064016104cc565b60975460ff16156106935760405162461bcd60e51b815260206004820152601060248201527f5061757361626c653a207061757365640000000000000000000000000000000060448201526064016104cc565b606060006119df836002611e2a565b6119ea906002611e12565b67ffffffffffffffff811115611a1057634e487b7160e01b600052604160045260246000fd5b6040519080825280601f01601f191660200182016040528015611a3a576020820181803683370190505b5090507f300000000000000000000000000000000000000000000000000000000000000081600081518110611a7f57634e487b7160e01b600052603260045260246000fd5b60200101906001600160f81b031916908160001a9053507f780000000000000000000000000000000000000000000000000000000000000081600181518110611ad857634e487b7160e01b600052603260045260246000fd5b60200101906001600160f81b031916908160001a9053506000611afc846002611e2a565b611b07906001611e12565b90505b6001811115611ba8577f303132333435363738396162636465660000000000000000000000000000000085600f1660108110611b5657634e487b7160e01b600052603260045260246000fd5b1a60f81b828281518110611b7a57634e487b7160e01b600052603260045260246000fd5b60200101906001600160f81b031916908160001a90535060049490941c93611ba181611e8c565b9050611b0a565b508315611bf75760405162461bcd60e51b815260206004820181905260248201527f537472696e67733a20686578206c656e67746820696e73756666696369656e7460448201526064016104cc565b9392505050565b600060208284031215611c0f578081fd5b8135611bf781611ed4565b600060208284031215611c2b578081fd5b8151611bf781611ed4565b60008060408385031215611c48578081fd5b8235611c5381611ed4565b946020939093013593505050565b60008060408385031215611c48578182fd5b600060208284031215611c84578081fd5b81518015158114611bf7578182fd5b600060208284031215611ca4578081fd5b5035919050565b60008060408385031215611cbd578182fd5b823591506020830135611ccf81611ed4565b809150509250929050565b600060208284031215611ceb578081fd5b81357fffffffff0000000000000000000000000000000000000000000000000000000081168114611bf7578182fd5b7f416363657373436f6e74726f6c3a206163636f756e7420000000000000000000815260008351611d52816017850160208801611e60565b7f206973206d697373696e6720726f6c65200000000000000000000000000000006017918401918201528351611d8f816028840160208801611e60565b01602801949350505050565b6020808252825182820181905260009190848201906040850190845b81811015611dd357835183529284019291840191600101611db7565b50909695505050505050565b6020815260008251806020840152611dfe816040850160208701611e60565b601f01601f19169190910160400192915050565b60008219821115611e2557611e25611ebe565b500190565b6000816000190483118215151615611e4457611e44611ebe565b500290565b600082821015611e5b57611e5b611ebe565b500390565b60005b83811015611e7b578181015183820152602001611e63565b83811115610d085750506000910152565b600081611e9b57611e9b611ebe565b506000190190565b6000600019821415611eb757611eb7611ebe565b5060010190565b634e487b7160e01b600052601160045260246000fd5b6001600160a01b03811681146107b257600080fdfea264697066735822122013a47a9f8593573678d0d7b4d2978a92cebd7007272ef1c1641e4fb9470b4f2364736f6c63430008040033",
  "linkReferences": {},
  "deployedLinkReferences": {}
}