{
  "_format": "hh-sol-artifact-1",
  "contractName": "Investor",
  "sourceName": "contracts/protocol/Investor.sol",
  "abi": [
    {
      "anonymous": false,
      "inputs": [
        {
          "indexed": false,
          "internalType": "address",
          "name": "previousAdmin",
          "type": "address"
        },
        {
          "indexed": false,
          "internalType": "address",
          "name": "newAdmin",
          "type": "address"
        }
      ],
      "name": "AdminChanged",
      "type": "event"
    },
    {
      "anonymous": false,
      "inputs": [
        {
          "indexed": true,
          "internalType": "address",
          "name": "beacon",
          "type": "address"
        }
      ],
      "name": "BeaconUpgraded",
      "type": "event"
    },
    {
      "anonymous": false,
      "inputs": [
        {
          "indexed": false,
          "internalType": "uint8",
          "name": "version",
          "type": "uint8"
        }
      ],
      "name": "Initialized",
      "type": "event"
    },
    {
      "anonymous": false,
      "inputs": [
        {
          "indexed": false,
          "internalType": "address",
          "name": "account",
          "type": "address"
        }
      ],
      "name": "Paused",
      "type": "event"
    },
    {
      "anonymous": false,
      "inputs": [
        {
          "indexed": true,
          "internalType": "bytes32",
          "name": "role",
          "type": "bytes32"
        },
        {
          "indexed": true,
          "internalType": "bytes32",
          "name": "previousAdminRole",
          "type": "bytes32"
        },
        {
          "indexed": true,
          "internalType": "bytes32",
          "name": "newAdminRole",
          "type": "bytes32"
        }
      ],
      "name": "RoleAdminChanged",
      "type": "event"
    },
    {
      "anonymous": false,
      "inputs": [
        {
          "indexed": true,
          "internalType": "bytes32",
          "name": "role",
          "type": "bytes32"
        },
        {
          "indexed": true,
          "internalType": "address",
          "name": "account",
          "type": "address"
        },
        {
          "indexed": true,
          "internalType": "address",
          "name": "sender",
          "type": "address"
        }
      ],
      "name": "RoleGranted",
      "type": "event"
    },
    {
      "anonymous": false,
      "inputs": [
        {
          "indexed": true,
          "internalType": "bytes32",
          "name": "role",
          "type": "bytes32"
        },
        {
          "indexed": true,
          "internalType": "address",
          "name": "account",
          "type": "address"
        },
        {
          "indexed": true,
          "internalType": "address",
          "name": "sender",
          "type": "address"
        }
      ],
      "name": "RoleRevoked",
      "type": "event"
    },
    {
      "anonymous": false,
      "inputs": [
        {
          "indexed": false,
          "internalType": "address",
          "name": "account",
          "type": "address"
        }
      ],
      "name": "Unpaused",
      "type": "event"
    },
    {
      "anonymous": false,
      "inputs": [
        {
          "indexed": true,
          "internalType": "address",
          "name": "implementation",
          "type": "address"
        }
      ],
      "name": "Upgraded",
      "type": "event"
    },
    {
      "inputs": [],
      "name": "DEFAULT_ADMIN_ROLE",
      "outputs": [
        {
          "internalType": "bytes32",
          "name": "",
          "type": "bytes32"
        }
      ],
      "stateMutability": "view",
      "type": "function"
    },
    {
      "inputs": [
        {
          "internalType": "address",
          "name": "owner",
          "type": "address"
        }
      ],
      "name": "_BaseUpgradeablePausable_init",
      "outputs": [],
      "stateMutability": "nonpayable",
      "type": "function"
    },
    {
      "inputs": [],
      "name": "__PauserPausable__init",
      "outputs": [],
      "stateMutability": "nonpayable",
      "type": "function"
    },
    {
      "inputs": [
        {
          "internalType": "address",
          "name": "_investor",
          "type": "address"
        },
        {
          "internalType": "bytes32",
          "name": "_id",
          "type": "bytes32"
        }
      ],
      "name": "addOpportunity",
      "outputs": [],
      "stateMutability": "nonpayable",
      "type": "function"
    },
    {
      "inputs": [],
      "name": "dygnifyConfig",
      "outputs": [
        {
          "internalType": "contract DygnifyConfig",
          "name": "",
          "type": "address"
        }
      ],
      "stateMutability": "view",
      "type": "function"
    },
    {
      "inputs": [
        {
          "internalType": "address",
          "name": "_investor",
          "type": "address"
        }
      ],
      "name": "getOpportunityOfInvestor",
      "outputs": [
        {
          "internalType": "bytes32[]",
          "name": "",
          "type": "bytes32[]"
        }
      ],
      "stateMutability": "view",
      "type": "function"
    },
    {
      "inputs": [
        {
          "internalType": "bytes32",
          "name": "role",
          "type": "bytes32"
        }
      ],
      "name": "getRoleAdmin",
      "outputs": [
        {
          "internalType": "bytes32",
          "name": "",
          "type": "bytes32"
        }
      ],
      "stateMutability": "view",
      "type": "function"
    },
    {
      "inputs": [
        {
          "internalType": "bytes32",
          "name": "role",
          "type": "bytes32"
        },
        {
          "internalType": "address",
          "name": "account",
          "type": "address"
        }
      ],
      "name": "grantRole",
      "outputs": [],
      "stateMutability": "nonpayable",
      "type": "function"
    },
    {
      "inputs": [
        {
          "internalType": "bytes32",
          "name": "role",
          "type": "bytes32"
        },
        {
          "internalType": "address",
          "name": "account",
          "type": "address"
        }
      ],
      "name": "hasRole",
      "outputs": [
        {
          "internalType": "bool",
          "name": "",
          "type": "bool"
        }
      ],
      "stateMutability": "view",
      "type": "function"
    },
    {
      "inputs": [
        {
          "internalType": "contract DygnifyConfig",
          "name": "_dygnifyConfig",
          "type": "address"
        }
      ],
      "name": "initialize",
      "outputs": [],
      "stateMutability": "nonpayable",
      "type": "function"
    },
    {
      "inputs": [
        {
          "internalType": "address",
          "name": "",
          "type": "address"
        },
        {
          "internalType": "uint256",
          "name": "",
          "type": "uint256"
        }
      ],
      "name": "investorToOpportunity",
      "outputs": [
        {
          "internalType": "bytes32",
          "name": "",
          "type": "bytes32"
        }
      ],
      "stateMutability": "view",
      "type": "function"
    },
    {
      "inputs": [],
      "name": "isAdmin",
      "outputs": [
        {
          "internalType": "bool",
          "name": "",
          "type": "bool"
        }
      ],
      "stateMutability": "view",
      "type": "function"
    },
    {
      "inputs": [
        {
          "internalType": "address",
          "name": "_investor",
          "type": "address"
        },
        {
          "internalType": "bytes32",
          "name": "_id",
          "type": "bytes32"
        }
      ],
      "name": "isExistInInvestor",
      "outputs": [
        {
          "internalType": "bool",
          "name": "",
          "type": "bool"
        }
      ],
      "stateMutability": "view",
      "type": "function"
    },
    {
      "inputs": [],
      "name": "opportunityOrigination",
      "outputs": [
        {
          "internalType": "contract IOpportunityOrigination",
          "name": "",
          "type": "address"
        }
      ],
      "stateMutability": "view",
      "type": "function"
    },
    {
      "inputs": [],
      "name": "pause",
      "outputs": [],
      "stateMutability": "nonpayable",
      "type": "function"
    },
    {
      "inputs": [],
      "name": "paused",
      "outputs": [
        {
          "internalType": "bool",
          "name": "",
          "type": "bool"
        }
      ],
      "stateMutability": "view",
      "type": "function"
    },
    {
      "inputs": [],
      "name": "proxiableUUID",
      "outputs": [
        {
          "internalType": "bytes32",
          "name": "",
          "type": "bytes32"
        }
      ],
      "stateMutability": "view",
      "type": "function"
    },
    {
      "inputs": [
        {
          "internalType": "address",
          "name": "_investor",
          "type": "address"
        },
        {
          "internalType": "bytes32",
          "name": "_id",
          "type": "bytes32"
        }
      ],
      "name": "removeOpportunity",
      "outputs": [],
      "stateMutability": "nonpayable",
      "type": "function"
    },
    {
      "inputs": [
        {
          "internalType": "bytes32",
          "name": "role",
          "type": "bytes32"
        },
        {
          "internalType": "address",
          "name": "account",
          "type": "address"
        }
      ],
      "name": "renounceRole",
      "outputs": [],
      "stateMutability": "nonpayable",
      "type": "function"
    },
    {
      "inputs": [
        {
          "internalType": "bytes32",
          "name": "role",
          "type": "bytes32"
        },
        {
          "internalType": "address",
          "name": "account",
          "type": "address"
        }
      ],
      "name": "revokeRole",
      "outputs": [],
      "stateMutability": "nonpayable",
      "type": "function"
    },
    {
      "inputs": [
        {
          "internalType": "bytes4",
          "name": "interfaceId",
          "type": "bytes4"
        }
      ],
      "name": "supportsInterface",
      "outputs": [
        {
          "internalType": "bool",
          "name": "",
          "type": "bool"
        }
      ],
      "stateMutability": "view",
      "type": "function"
    },
    {
      "inputs": [],
      "name": "unpause",
      "outputs": [],
      "stateMutability": "nonpayable",
      "type": "function"
    },
    {
      "inputs": [
        {
          "internalType": "address",
          "name": "newImplementation",
          "type": "address"
        }
      ],
      "name": "upgradeTo",
      "outputs": [],
      "stateMutability": "nonpayable",
      "type": "function"
    },
    {
      "inputs": [
        {
          "internalType": "address",
          "name": "newImplementation",
          "type": "address"
        },
        {
          "internalType": "bytes",
          "name": "data",
          "type": "bytes"
        }
      ],
      "name": "upgradeToAndCall",
      "outputs": [],
      "stateMutability": "payable",
      "type": "function"
    }
  ],
  "bytecode": "0x60a06040523060601b60805234801561001757600080fd5b5060805160601c6129b8610052600039600081816106e0015281816107650152818161090c015281816109910152610b9601526129b86000f3fe60806040526004361061018b5760003560e01c80635c975abb116100d6578063b6db75a01161007f578063d547741f11610059578063d547741f1461045b578063de9d9ee81461047b578063e954539d1461049b57600080fd5b8063b6db75a014610406578063c4d66de81461041b578063cc2a9cf31461043b57600080fd5b8063a12dde4d116100b0578063a12dde4d146103b1578063a217fddf146103d1578063a68a1322146103e657600080fd5b80635c975abb1461033e5780638456cb591461035657806391d148541461036b57600080fd5b806336568abe116101385780634f1ef286116101125780634f1ef28614610301578063526d81f61461031457806352d1902d1461032957600080fd5b806336568abe146102ac5780633659cfe6146102cc5780633f4ba83a146102ec57600080fd5b8063248a9ca311610169578063248a9ca31461022b5780632588d168146102695780632f2ff15d1461028a57600080fd5b806301ffc9a71461019057806319b578a8146101c55780631be95459146101f2575b600080fd5b34801561019c57600080fd5b506101b06101ab36600461271a565b6104bb565b60405190151581526020015b60405180910390f35b3480156101d157600080fd5b506101e56101e0366004612567565b610554565b6040516101bc91906127f7565b3480156101fe57600080fd5b5061015f54610213906001600160a01b031681565b6040516001600160a01b0390911681526020016101bc565b34801561023757600080fd5b5061025b6102463660046126bb565b60009081526065602052604090206001015490565b6040519081526020016101bc565b34801561027557600080fd5b5061016054610213906001600160a01b031681565b34801561029657600080fd5b506102aa6102a53660046126eb565b61061f565b005b3480156102b857600080fd5b506102aa6102c73660046126eb565b610649565b3480156102d857600080fd5b506102aa6102e7366004612567565b6106d5565b3480156102f857600080fd5b506102aa610851565b6102aa61030f3660046125ca565b610901565b34801561032057600080fd5b506102aa610a6a565b34801561033557600080fd5b5061025b610b89565b34801561034a57600080fd5b5060975460ff166101b0565b34801561036257600080fd5b506102aa610c4e565b34801561037757600080fd5b506101b06103863660046126eb565b60009182526065602090815260408084206001600160a01b0393909316845291905290205460ff1690565b3480156103bd57600080fd5b506102aa6103cc366004612567565b610ce0565b3480156103dd57600080fd5b5061025b600081565b3480156103f257600080fd5b506102aa61040136600461259f565b610e81565b34801561041257600080fd5b506101b06111a0565b34801561042757600080fd5b506102aa610436366004612567565b6111d0565b34801561044757600080fd5b5061025b610456366004612689565b61141c565b34801561046757600080fd5b506102aa6104763660046126eb565b61144e565b34801561048757600080fd5b506102aa61049636600461259f565b611473565b3480156104a757600080fd5b506101b06104b636600461259f565b611854565b60007fffffffff0000000000000000000000000000000000000000000000000000000082167f7965db0b00000000000000000000000000000000000000000000000000000000148061054e57507f01ffc9a7000000000000000000000000000000000000000000000000000000007fffffffff000000000000000000000000000000000000000000000000000000008316145b92915050565b60606001600160a01b0382166105b15760405162461bcd60e51b815260206004820152601860248201527f496e76616c696420696e766573746f722061646472657373000000000000000060448201526064015b60405180910390fd5b6001600160a01b0382166000908152610161602090815260408083208054825181850281018501909352808352919290919083018282801561061257602002820191906000526020600020905b8154815260200190600101908083116105fe575b5093979650505050505050565b60008281526065602052604090206001015461063a81611977565b6106448383611981565b505050565b6001600160a01b03811633146106c75760405162461bcd60e51b815260206004820152602f60248201527f416363657373436f6e74726f6c3a2063616e206f6e6c792072656e6f756e636560448201527f20726f6c657320666f722073656c66000000000000000000000000000000000060648201526084016105a8565b6106d18282611a23565b5050565b306001600160a01b037f00000000000000000000000000000000000000000000000000000000000000001614156107635760405162461bcd60e51b815260206004820152602c60248201527f46756e6374696f6e206d7573742062652063616c6c6564207468726f7567682060448201526b19195b1959d85d1958d85b1b60a21b60648201526084016105a8565b7f00000000000000000000000000000000000000000000000000000000000000006001600160a01b03166107be7f360894a13ba1a3210667c828492db98dca3e2076cc3735a920a3ca505d382bbc546001600160a01b031690565b6001600160a01b0316146108295760405162461bcd60e51b815260206004820152602c60248201527f46756e6374696f6e206d7573742062652063616c6c6564207468726f7567682060448201526b6163746976652070726f787960a01b60648201526084016105a8565b61083281611aa6565b6040805160008082526020820190925261084e91839190611b20565b50565b6108967f65d7a28e3265b37a6474929f336521b332c1681b933f6cb9f3376673440d862a5b600090815260656020908152604080832033845290915290205460ff1690565b6108f75760405162461bcd60e51b815260206004820152602c60248201527f4d75737420686176652070617573657220726f6c6520746f20706572666f726d60448201526b103a3434b99030b1ba34b7b760a11b60648201526084016105a8565b6108ff611ccf565b565b306001600160a01b037f000000000000000000000000000000000000000000000000000000000000000016141561098f5760405162461bcd60e51b815260206004820152602c60248201527f46756e6374696f6e206d7573742062652063616c6c6564207468726f7567682060448201526b19195b1959d85d1958d85b1b60a21b60648201526084016105a8565b7f00000000000000000000000000000000000000000000000000000000000000006001600160a01b03166109ea7f360894a13ba1a3210667c828492db98dca3e2076cc3735a920a3ca505d382bbc546001600160a01b031690565b6001600160a01b031614610a555760405162461bcd60e51b815260206004820152602c60248201527f46756e6374696f6e206d7573742062652063616c6c6564207468726f7567682060448201526b6163746976652070726f787960a01b60648201526084016105a8565b610a5e82611aa6565b6106d182826001611b20565b600054610100900460ff1615808015610a8a5750600054600160ff909116105b80610aa45750303b158015610aa4575060005460ff166001145b610b165760405162461bcd60e51b815260206004820152602e60248201527f496e697469616c697a61626c653a20636f6e747261637420697320616c72656160448201527f647920696e697469616c697a656400000000000000000000000000000000000060648201526084016105a8565b6000805460ff191660011790558015610b39576000805461ff0019166101001790555b610b41611d21565b801561084e576000805461ff0019169055604051600181527f7f26b83ff96e1f2b6a682f133852f6798a09c465da95921460cefb38474024989060200160405180910390a150565b6000306001600160a01b037f00000000000000000000000000000000000000000000000000000000000000001614610c295760405162461bcd60e51b815260206004820152603860248201527f555550535570677261646561626c653a206d757374206e6f742062652063616c60448201527f6c6564207468726f7567682064656c656761746563616c6c000000000000000060648201526084016105a8565b507f360894a13ba1a3210667c828492db98dca3e2076cc3735a920a3ca505d382bbc90565b610c777f65d7a28e3265b37a6474929f336521b332c1681b933f6cb9f3376673440d862a610876565b610cd85760405162461bcd60e51b815260206004820152602c60248201527f4d75737420686176652070617573657220726f6c6520746f20706572666f726d60448201526b103a3434b99030b1ba34b7b760a11b60648201526084016105a8565b6108ff611d98565b600054610100900460ff16610d4b5760405162461bcd60e51b815260206004820152602b60248201527f496e697469616c697a61626c653a20636f6e7472616374206973206e6f74206960448201526a6e697469616c697a696e6760a81b60648201526084016105a8565b6001600160a01b038116610da15760405162461bcd60e51b815260206004820181905260248201527f4f776e65722063616e6e6f7420626520746865207a65726f206164647265737360448201526064016105a8565b610da9611dd5565b610db1611d21565b610db9611e40565b610de47fa49807205ce4d355092ef5a8a18f56e8913cf4a201fbe287825b095693c217755b82611eb2565b610e0d7f65d7a28e3265b37a6474929f336521b332c1681b933f6cb9f3376673440d862a610dde565b610e587f65d7a28e3265b37a6474929f336521b332c1681b933f6cb9f3376673440d862a5b7fa49807205ce4d355092ef5a8a18f56e8913cf4a201fbe287825b095693c21775611ebc565b61084e7fa49807205ce4d355092ef5a8a18f56e8913cf4a201fbe287825b095693c21775610e32565b61016054604051637e4dc6d560e01b8152600481018390526000916001600160a01b031690637e4dc6d59060240160206040518083038186803b158015610ec757600080fd5b505afa158015610edb573d6000803e3d6000fd5b505050506040513d601f19601f82011682018060405250810190610eff9190612583565b90506001600160a01b038316610f575760405162461bcd60e51b815260206004820152601860248201527f496e76616c696420496e766573746f722061646472657373000000000000000060448201526064016105a8565b6001600160a01b038116610fad5760405162461bcd60e51b815260206004820152601f60248201527f4f70706f7274756e69747920706f6f6c20646f65736e27742065786973742e0060448201526064016105a8565b336001600160a01b0382161461102b5760405162461bcd60e51b815260206004820152603160248201527f476976656e206f70706f7274756e6974792063616e206f6e6c7920626520616460448201527f646564206279207468617420706f6f6c2e00000000000000000000000000000060648201526084016105a8565b6040517f6f49712b0000000000000000000000000000000000000000000000000000000081526001600160a01b038481166004830152821690636f49712b9060240160206040518083038186803b15801561108557600080fd5b505afa158015611099573d6000803e3d6000fd5b505050506040513d601f19601f820116820180604052508101906110bd919061269b565b151560011461115a5760405162461bcd60e51b815260206004820152604260248201527f496e766573746f72206973206e6f7420686176696e672061207374616b696e6760448201527f20706f736974696f6e20696e2070726f7669646564206f70706f7274756e697460648201527f792e000000000000000000000000000000000000000000000000000000000000608482015260a4016105a8565b60006111668484611854565b90508061119a576001600160a01b038416600090815261016160209081526040822080546001810182559083529120018390555b50505050565b60006111cb7fa49807205ce4d355092ef5a8a18f56e8913cf4a201fbe287825b095693c21775610876565b905090565b600054610100900460ff16158080156111f05750600054600160ff909116105b8061120a5750303b15801561120a575060005460ff166001145b61127c5760405162461bcd60e51b815260206004820152602e60248201527f496e697469616c697a61626c653a20636f6e747261637420697320616c72656160448201527f647920696e697469616c697a656400000000000000000000000000000000000060648201526084016105a8565b6000805460ff19166001179055801561129f576000805461ff0019166101001790555b6001600160a01b0382166112f55760405162461bcd60e51b815260206004820152601660248201527f496e76616c696420636f6e66696720616464726573730000000000000000000060448201526064016105a8565b61015f805473ffffffffffffffffffffffffffffffffffffffff19166001600160a01b03841690811790915560009061132d90611f07565b90506001600160a01b0381166113855760405162461bcd60e51b815260206004820152600d60248201527f496e76616c6964204f776e65720000000000000000000000000000000000000060448201526064016105a8565b61015f5461139b906001600160a01b0316611f88565b610160805473ffffffffffffffffffffffffffffffffffffffff19166001600160a01b03929092169190911790556113d281610ce0565b5080156106d1576000805461ff0019169055604051600181527f7f26b83ff96e1f2b6a682f133852f6798a09c465da95921460cefb38474024989060200160405180910390a15050565b610161602052816000526040600020818154811061143957600080fd5b90600052602060002001600091509150505481565b60008281526065602052604090206001015461146981611977565b6106448383611a23565b61016054604051637e4dc6d560e01b8152600481018390526000916001600160a01b031690637e4dc6d59060240160206040518083038186803b1580156114b957600080fd5b505afa1580156114cd573d6000803e3d6000fd5b505050506040513d601f19601f820116820180604052508101906114f19190612583565b90506001600160a01b0383166115495760405162461bcd60e51b815260206004820152601860248201527f496e76616c696420496e766573746f722061646472657373000000000000000060448201526064016105a8565b6001600160a01b03811661159f5760405162461bcd60e51b815260206004820152601f60248201527f4f70706f7274756e69747920706f6f6c20646f65736e27742065786973742e0060448201526064016105a8565b336001600160a01b0382161461161d5760405162461bcd60e51b815260206004820152603160248201527f476976656e206f70706f7274756e6974792063616e206f6e6c7920626520616460448201527f646564206279207468617420706f6f6c2e00000000000000000000000000000060648201526084016105a8565b60006116298484611854565b90506001811515146116a35760405162461bcd60e51b815260206004820152602e60248201527f496e766573746f7220646f65736e277420696e76657374656420696e2074686960448201527f73206f70706f7274756e6974792e00000000000000000000000000000000000060648201526084016105a8565b6001600160a01b0384166000908152610161602090815260408083208054825181850281018501909352808352919290919083018282801561170457602002820191906000526020600020905b8154815260200190600101908083116116f0575b5050505050905060005b815181101561184c578482828151811061173857634e487b7160e01b600052603260045260246000fd5b6020026020010151141561183a576001600160a01b038616600090815261016160205260409020825161176d906001906128a5565b8154811061178b57634e487b7160e01b600052603260045260246000fd5b90600052602060002001546101616000886001600160a01b03166001600160a01b0316815260200190815260200160002082815481106117db57634e487b7160e01b600052603260045260246000fd5b60009182526020808320909101929092556001600160a01b0388168152610161909152604090208251611810906001906128a5565b8154811061182e57634e487b7160e01b600052603260045260246000fd5b60009182526020822001555b80611844816128ff565b91505061170e565b505050505050565b60006001600160a01b0383166118ac5760405162461bcd60e51b815260206004820152601860248201527f496e76616c696420696e766573746f722061646472657373000000000000000060448201526064016105a8565b6001600160a01b0383166000908152610161602090815260408083208054825181850281018501909352808352919290919083018282801561190d57602002820191906000526020600020905b8154815260200190600101908083116118f9575b5050505050905060005b815181101561196c578382828151811061194157634e487b7160e01b600052603260045260246000fd5b6020026020010151141561195a5760019250505061054e565b80611964816128ff565b915050611917565b506000949350505050565b61084e8133611fa0565b60008281526065602090815260408083206001600160a01b038516845290915290205460ff166106d15760008281526065602090815260408083206001600160a01b03851684529091529020805460ff191660011790556119df3390565b6001600160a01b0316816001600160a01b0316837f2f8788117e7eff1d82e926ec794901d17c78024a50270940304540a733656f0d60405160405180910390a45050565b60008281526065602090815260408083206001600160a01b038516845290915290205460ff16156106d15760008281526065602090815260408083206001600160a01b0385168085529252808320805460ff1916905551339285917ff6391f5c32d9c69d2a47ea670b442974b53935d1edc7fd64eb21e047a839171b9190a45050565b611aae6111a0565b61084e5760405162461bcd60e51b815260206004820152602b60248201527f4d75737420686176652061646d696e20726f6c6520746f20706572666f726d2060448201527f7468697320616374696f6e00000000000000000000000000000000000000000060648201526084016105a8565b7f4910fdfa16fed3260ed0e7147f7cc6da11a60208b5b9406d12a635614ffd91435460ff1615611b535761064483612020565b826001600160a01b03166352d1902d6040518163ffffffff1660e01b815260040160206040518083038186803b158015611b8c57600080fd5b505afa925050508015611bbc575060408051601f3d908101601f19168201909252611bb9918101906126d3565b60015b611c2e5760405162461bcd60e51b815260206004820152602e60248201527f45524331393637557067726164653a206e657720696d706c656d656e7461746960448201527f6f6e206973206e6f74205555505300000000000000000000000000000000000060648201526084016105a8565b7f360894a13ba1a3210667c828492db98dca3e2076cc3735a920a3ca505d382bbc8114611cc35760405162461bcd60e51b815260206004820152602960248201527f45524331393637557067726164653a20756e737570706f727465642070726f7860448201527f6961626c6555554944000000000000000000000000000000000000000000000060648201526084016105a8565b506106448383836120eb565b611cd7612110565b6097805460ff191690557f5db9ee0a495bf2e6ff9c91a7834c1ba4fdd244a5e8aa4e537bd38aeae4b073aa335b6040516001600160a01b03909116815260200160405180910390a1565b600054610100900460ff16611d8c5760405162461bcd60e51b815260206004820152602b60248201527f496e697469616c697a61626c653a20636f6e7472616374206973206e6f74206960448201526a6e697469616c697a696e6760a81b60648201526084016105a8565b6097805460ff19169055565b611da0612162565b6097805460ff191660011790557f62e78cea01bee320cd4e420270b5ea74000d11b0c9f74754ebdbfc544b05a258611d043390565b600054610100900460ff166108ff5760405162461bcd60e51b815260206004820152602b60248201527f496e697469616c697a61626c653a20636f6e7472616374206973206e6f74206960448201526a6e697469616c697a696e6760a81b60648201526084016105a8565b600054610100900460ff16611eab5760405162461bcd60e51b815260206004820152602b60248201527f496e697469616c697a61626c653a20636f6e7472616374206973206e6f74206960448201526a6e697469616c697a696e6760a81b60648201526084016105a8565b600160c955565b6106d18282611981565b600082815260656020526040808220600101805490849055905190918391839186917fbd79b86ffe0ab8e8776151514217cd7cacd52c909f66475c3af44e129f0b00ff9190a4505050565b60006001600160a01b03821663b93f9b0a825b6040518263ffffffff1660e01b8152600401611f3891815260200190565b60206040518083038186803b158015611f5057600080fd5b505afa158015611f64573d6000803e3d6000fd5b505050506040513d601f19601f8201168201806040525081019061054e9190612583565b60006001600160a01b03821663b93f9b0a6006611f1a565b60008281526065602090815260408083206001600160a01b038516845290915290205460ff166106d157611fde816001600160a01b031660146121b5565b611fe98360206121b5565b604051602001611ffa929190612776565b60408051601f198184030181529082905262461bcd60e51b82526105a89160040161283b565b6001600160a01b0381163b61209d5760405162461bcd60e51b815260206004820152602d60248201527f455243313936373a206e657720696d706c656d656e746174696f6e206973206e60448201527f6f74206120636f6e74726163740000000000000000000000000000000000000060648201526084016105a8565b7f360894a13ba1a3210667c828492db98dca3e2076cc3735a920a3ca505d382bbc805473ffffffffffffffffffffffffffffffffffffffff19166001600160a01b0392909216919091179055565b6120f4836123e3565b6000825111806121015750805b156106445761119a8383612423565b60975460ff166108ff5760405162461bcd60e51b815260206004820152601460248201527f5061757361626c653a206e6f742070617573656400000000000000000000000060448201526064016105a8565b60975460ff16156108ff5760405162461bcd60e51b815260206004820152601060248201527f5061757361626c653a207061757365640000000000000000000000000000000060448201526064016105a8565b606060006121c4836002612886565b6121cf90600261286e565b67ffffffffffffffff8111156121f557634e487b7160e01b600052604160045260246000fd5b6040519080825280601f01601f19166020018201604052801561221f576020820181803683370190505b5090507f30000000000000000000000000000000000000000000000000000000000000008160008151811061226457634e487b7160e01b600052603260045260246000fd5b60200101906001600160f81b031916908160001a9053507f7800000000000000000000000000000000000000000000000000000000000000816001815181106122bd57634e487b7160e01b600052603260045260246000fd5b60200101906001600160f81b031916908160001a90535060006122e1846002612886565b6122ec90600161286e565b90505b600181111561238d577f303132333435363738396162636465660000000000000000000000000000000085600f166010811061233b57634e487b7160e01b600052603260045260246000fd5b1a60f81b82828151811061235f57634e487b7160e01b600052603260045260246000fd5b60200101906001600160f81b031916908160001a90535060049490941c93612386816128e8565b90506122ef565b5083156123dc5760405162461bcd60e51b815260206004820181905260248201527f537472696e67733a20686578206c656e67746820696e73756666696369656e7460448201526064016105a8565b9392505050565b6123ec81612020565b6040516001600160a01b038216907fbc7cd75a20ee27fd9adebab32041f755214dbc6bffa90cc0225b39da2e5c2d3b90600090a250565b60606001600160a01b0383163b6124a25760405162461bcd60e51b815260206004820152602660248201527f416464726573733a2064656c65676174652063616c6c20746f206e6f6e2d636f60448201527f6e7472616374000000000000000000000000000000000000000000000000000060648201526084016105a8565b600080846001600160a01b0316846040516124bd919061275a565b600060405180830381855af49150503d80600081146124f8576040519150601f19603f3d011682016040523d82523d6000602084013e6124fd565b606091505b5091509150612525828260405180606001604052806027815260200161295c6027913961252e565b95945050505050565b6060831561253d5750816123dc565b82511561254d5782518084602001fd5b8160405162461bcd60e51b81526004016105a8919061283b565b600060208284031215612578578081fd5b81356123dc81612946565b600060208284031215612594578081fd5b81516123dc81612946565b600080604083850312156125b1578081fd5b82356125bc81612946565b946020939093013593505050565b600080604083850312156125dc578182fd5b82356125e781612946565b9150602083013567ffffffffffffffff80821115612603578283fd5b818501915085601f830112612616578283fd5b81358181111561262857612628612930565b604051601f8201601f19908116603f0116810190838211818310171561265057612650612930565b81604052828152886020848701011115612668578586fd5b82602086016020830137856020848301015280955050505050509250929050565b600080604083850312156125b1578182fd5b6000602082840312156126ac578081fd5b815180151581146123dc578182fd5b6000602082840312156126cc578081fd5b5035919050565b6000602082840312156126e4578081fd5b5051919050565b600080604083850312156126fd578182fd5b82359150602083013561270f81612946565b809150509250929050565b60006020828403121561272b578081fd5b81357fffffffff00000000000000000000000000000000000000000000000000000000811681146123dc578182fd5b6000825161276c8184602087016128bc565b9190910192915050565b7f416363657373436f6e74726f6c3a206163636f756e74200000000000000000008152600083516127ae8160178501602088016128bc565b7f206973206d697373696e6720726f6c652000000000000000000000000000000060179184019182015283516127eb8160288401602088016128bc565b01602801949350505050565b6020808252825182820181905260009190848201906040850190845b8181101561282f57835183529284019291840191600101612813565b50909695505050505050565b602081526000825180602084015261285a8160408501602087016128bc565b601f01601f19169190910160400192915050565b600082198211156128815761288161291a565b500190565b60008160001904831182151516156128a0576128a061291a565b500290565b6000828210156128b7576128b761291a565b500390565b60005b838110156128d75781810151838201526020016128bf565b8381111561119a5750506000910152565b6000816128f7576128f761291a565b506000190190565b60006000198214156129135761291361291a565b5060010190565b634e487b7160e01b600052601160045260246000fd5b634e487b7160e01b600052604160045260246000fd5b6001600160a01b038116811461084e57600080fdfe416464726573733a206c6f772d6c6576656c2064656c65676174652063616c6c206661696c6564a2646970667358221220a7ad58f71a4565036ec952b94ca59edb1538d310a83dd75ccf977c7ab44d05b964736f6c63430008040033",
  "linkReferences": {},
  "deployedLinkReferences": {}
}