{
  "_format": "hh-sol-artifact-1",
  "contractName": "Investor",
  "sourceName": "contracts/protocol/Investor.sol",
  "abi": [
    {
      "anonymous": false,
      "inputs": [
        {
          "indexed": false,
          "internalType": "address",
          "name": "previousAdmin",
          "type": "address"
        },
        {
          "indexed": false,
          "internalType": "address",
          "name": "newAdmin",
          "type": "address"
        }
      ],
      "name": "AdminChanged",
      "type": "event"
    },
    {
      "anonymous": false,
      "inputs": [
        {
          "indexed": true,
          "internalType": "address",
          "name": "beacon",
          "type": "address"
        }
      ],
      "name": "BeaconUpgraded",
      "type": "event"
    },
    {
      "anonymous": false,
      "inputs": [
        {
          "indexed": false,
          "internalType": "uint8",
          "name": "version",
          "type": "uint8"
        }
      ],
      "name": "Initialized",
      "type": "event"
    },
    {
      "anonymous": false,
      "inputs": [
        {
          "indexed": false,
          "internalType": "address",
          "name": "account",
          "type": "address"
        }
      ],
      "name": "Paused",
      "type": "event"
    },
    {
      "anonymous": false,
      "inputs": [
        {
          "indexed": true,
          "internalType": "bytes32",
          "name": "role",
          "type": "bytes32"
        },
        {
          "indexed": true,
          "internalType": "bytes32",
          "name": "previousAdminRole",
          "type": "bytes32"
        },
        {
          "indexed": true,
          "internalType": "bytes32",
          "name": "newAdminRole",
          "type": "bytes32"
        }
      ],
      "name": "RoleAdminChanged",
      "type": "event"
    },
    {
      "anonymous": false,
      "inputs": [
        {
          "indexed": true,
          "internalType": "bytes32",
          "name": "role",
          "type": "bytes32"
        },
        {
          "indexed": true,
          "internalType": "address",
          "name": "account",
          "type": "address"
        },
        {
          "indexed": true,
          "internalType": "address",
          "name": "sender",
          "type": "address"
        }
      ],
      "name": "RoleGranted",
      "type": "event"
    },
    {
      "anonymous": false,
      "inputs": [
        {
          "indexed": true,
          "internalType": "bytes32",
          "name": "role",
          "type": "bytes32"
        },
        {
          "indexed": true,
          "internalType": "address",
          "name": "account",
          "type": "address"
        },
        {
          "indexed": true,
          "internalType": "address",
          "name": "sender",
          "type": "address"
        }
      ],
      "name": "RoleRevoked",
      "type": "event"
    },
    {
      "anonymous": false,
      "inputs": [
        {
          "indexed": false,
          "internalType": "address",
          "name": "account",
          "type": "address"
        }
      ],
      "name": "Unpaused",
      "type": "event"
    },
    {
      "anonymous": false,
      "inputs": [
        {
          "indexed": true,
          "internalType": "address",
          "name": "implementation",
          "type": "address"
        }
      ],
      "name": "Upgraded",
      "type": "event"
    },
    {
      "inputs": [],
      "name": "DEFAULT_ADMIN_ROLE",
      "outputs": [
        {
          "internalType": "bytes32",
          "name": "",
          "type": "bytes32"
        }
      ],
      "stateMutability": "view",
      "type": "function"
    },
    {
      "inputs": [
        {
          "internalType": "address",
          "name": "owner",
          "type": "address"
        }
      ],
      "name": "_BaseUpgradeablePausable_init",
      "outputs": [],
      "stateMutability": "nonpayable",
      "type": "function"
    },
    {
      "inputs": [],
      "name": "__PauserPausable__init",
      "outputs": [],
      "stateMutability": "nonpayable",
      "type": "function"
    },
    {
      "inputs": [
        {
          "internalType": "address",
          "name": "_investor",
          "type": "address"
        },
        {
          "internalType": "bytes32",
          "name": "_id",
          "type": "bytes32"
        }
      ],
      "name": "addOpportunity",
      "outputs": [],
      "stateMutability": "nonpayable",
      "type": "function"
    },
    {
      "inputs": [],
      "name": "dygnifyConfig",
      "outputs": [
        {
          "internalType": "contract DygnifyConfig",
          "name": "",
          "type": "address"
        }
      ],
      "stateMutability": "view",
      "type": "function"
    },
    {
      "inputs": [
        {
          "internalType": "address",
          "name": "_investor",
          "type": "address"
        }
      ],
      "name": "getOpportunityOfInvestor",
      "outputs": [
        {
          "internalType": "bytes32[]",
          "name": "",
          "type": "bytes32[]"
        }
      ],
      "stateMutability": "view",
      "type": "function"
    },
    {
      "inputs": [
        {
          "internalType": "bytes32",
          "name": "role",
          "type": "bytes32"
        }
      ],
      "name": "getRoleAdmin",
      "outputs": [
        {
          "internalType": "bytes32",
          "name": "",
          "type": "bytes32"
        }
      ],
      "stateMutability": "view",
      "type": "function"
    },
    {
      "inputs": [
        {
          "internalType": "bytes32",
          "name": "role",
          "type": "bytes32"
        },
        {
          "internalType": "address",
          "name": "account",
          "type": "address"
        }
      ],
      "name": "grantRole",
      "outputs": [],
      "stateMutability": "nonpayable",
      "type": "function"
    },
    {
      "inputs": [
        {
          "internalType": "bytes32",
          "name": "role",
          "type": "bytes32"
        },
        {
          "internalType": "address",
          "name": "account",
          "type": "address"
        }
      ],
      "name": "hasRole",
      "outputs": [
        {
          "internalType": "bool",
          "name": "",
          "type": "bool"
        }
      ],
      "stateMutability": "view",
      "type": "function"
    },
    {
      "inputs": [
        {
          "internalType": "contract DygnifyConfig",
          "name": "_dygnifyConfig",
          "type": "address"
        }
      ],
      "name": "initialize",
      "outputs": [],
      "stateMutability": "nonpayable",
      "type": "function"
    },
    {
      "inputs": [
        {
          "internalType": "address",
          "name": "",
          "type": "address"
        },
        {
          "internalType": "uint256",
          "name": "",
          "type": "uint256"
        }
      ],
      "name": "investorToOpportunity",
      "outputs": [
        {
          "internalType": "bytes32",
          "name": "",
          "type": "bytes32"
        }
      ],
      "stateMutability": "view",
      "type": "function"
    },
    {
      "inputs": [],
      "name": "isAdmin",
      "outputs": [
        {
          "internalType": "bool",
          "name": "",
          "type": "bool"
        }
      ],
      "stateMutability": "view",
      "type": "function"
    },
    {
      "inputs": [
        {
          "internalType": "address",
          "name": "_investor",
          "type": "address"
        },
        {
          "internalType": "bytes32",
          "name": "_id",
          "type": "bytes32"
        }
      ],
      "name": "isExistInInvestor",
      "outputs": [
        {
          "internalType": "bool",
          "name": "",
          "type": "bool"
        }
      ],
      "stateMutability": "view",
      "type": "function"
    },
    {
      "inputs": [],
      "name": "opportunityOrigination",
      "outputs": [
        {
          "internalType": "contract IOpportunityOrigination",
          "name": "",
          "type": "address"
        }
      ],
      "stateMutability": "view",
      "type": "function"
    },
    {
      "inputs": [],
      "name": "pause",
      "outputs": [],
      "stateMutability": "nonpayable",
      "type": "function"
    },
    {
      "inputs": [],
      "name": "paused",
      "outputs": [
        {
          "internalType": "bool",
          "name": "",
          "type": "bool"
        }
      ],
      "stateMutability": "view",
      "type": "function"
    },
    {
      "inputs": [],
      "name": "proxiableUUID",
      "outputs": [
        {
          "internalType": "bytes32",
          "name": "",
          "type": "bytes32"
        }
      ],
      "stateMutability": "view",
      "type": "function"
    },
    {
      "inputs": [
        {
          "internalType": "address",
          "name": "_investor",
          "type": "address"
        },
        {
          "internalType": "bytes32",
          "name": "_id",
          "type": "bytes32"
        }
      ],
      "name": "removeOpportunity",
      "outputs": [],
      "stateMutability": "nonpayable",
      "type": "function"
    },
    {
      "inputs": [
        {
          "internalType": "bytes32",
          "name": "role",
          "type": "bytes32"
        },
        {
          "internalType": "address",
          "name": "account",
          "type": "address"
        }
      ],
      "name": "renounceRole",
      "outputs": [],
      "stateMutability": "nonpayable",
      "type": "function"
    },
    {
      "inputs": [
        {
          "internalType": "bytes32",
          "name": "role",
          "type": "bytes32"
        },
        {
          "internalType": "address",
          "name": "account",
          "type": "address"
        }
      ],
      "name": "revokeRole",
      "outputs": [],
      "stateMutability": "nonpayable",
      "type": "function"
    },
    {
      "inputs": [
        {
          "internalType": "bytes4",
          "name": "interfaceId",
          "type": "bytes4"
        }
      ],
      "name": "supportsInterface",
      "outputs": [
        {
          "internalType": "bool",
          "name": "",
          "type": "bool"
        }
      ],
      "stateMutability": "view",
      "type": "function"
    },
    {
      "inputs": [],
      "name": "unpause",
      "outputs": [],
      "stateMutability": "nonpayable",
      "type": "function"
    },
    {
      "inputs": [
        {
          "internalType": "address",
          "name": "newImplementation",
          "type": "address"
        }
      ],
      "name": "upgradeTo",
      "outputs": [],
      "stateMutability": "nonpayable",
      "type": "function"
    },
    {
      "inputs": [
        {
          "internalType": "address",
          "name": "newImplementation",
          "type": "address"
        },
        {
          "internalType": "bytes",
          "name": "data",
          "type": "bytes"
        }
      ],
      "name": "upgradeToAndCall",
      "outputs": [],
      "stateMutability": "payable",
      "type": "function"
    }
  ],
  "bytecode": "0x60a06040523060601b60805234801561001757600080fd5b5060805160601c6123a2610052600039600081816105d301528181610613015281816106d301528181610713015261085401526123a26000f3fe60806040526004361061014b5760003560e01c80635c975abb116100b6578063b6db75a01161006f578063b6db75a014610395578063c4d66de8146103aa578063cc2a9cf3146103ca578063d547741f146103ea578063de9d9ee81461040a578063e954539d1461042a57600080fd5b80635c975abb146102f35780638456cb591461030b57806391d1485414610320578063a12dde4d14610340578063a217fddf14610360578063a68a13221461037557600080fd5b806336568abe1161010857806336568abe146102615780633659cfe6146102815780633f4ba83a146102a15780634f1ef286146102b6578063526d81f6146102c957806352d1902d146102de57600080fd5b806301ffc9a71461015057806319b578a8146101855780631be95459146101b2578063248a9ca3146101e05780632588d1681461021e5780632f2ff15d1461023f575b600080fd5b34801561015c57600080fd5b5061017061016b366004611e91565b61044a565b60405190151581526020015b60405180910390f35b34801561019157600080fd5b506101a56101a0366004611cde565b610481565b60405161017c9190611f58565b3480156101be57600080fd5b5061015f546101d3906001600160a01b031681565b60405161017c9190611f44565b3480156101ec57600080fd5b506102106101fb366004611e32565b60009081526065602052604090206001015490565b60405190815260200161017c565b34801561022a57600080fd5b50610160546101d3906001600160a01b031681565b34801561024b57600080fd5b5061025f61025a366004611e62565b610520565b005b34801561026d57600080fd5b5061025f61027c366004611e62565b61054a565b34801561028d57600080fd5b5061025f61029c366004611cde565b6105c8565b3480156102ad57600080fd5b5061025f610691565b61025f6102c4366004611d41565b6106c8565b3480156102d557600080fd5b5061025f61077e565b3480156102ea57600080fd5b50610210610847565b3480156102ff57600080fd5b5060975460ff16610170565b34801561031757600080fd5b5061025f6108f5565b34801561032c57600080fd5b5061017061033b366004611e62565b610924565b34801561034c57600080fd5b5061025f61035b366004611cde565b61094f565b34801561036c57600080fd5b50610210600081565b34801561038157600080fd5b5061025f610390366004611d16565b610a23565b3480156103a157600080fd5b50610170610c5b565b3480156103b657600080fd5b5061025f6103c5366004611cde565b610c6d565b3480156103d657600080fd5b506102106103e5366004611e00565b610e32565b3480156103f657600080fd5b5061025f610405366004611e62565b610e64565b34801561041657600080fd5b5061025f610425366004611d16565b610e89565b34801561043657600080fd5b50610170610445366004611d16565b6111a5565b60006001600160e01b03198216637965db0b60e01b148061047b57506301ffc9a760e01b6001600160e01b03198316145b92915050565b60606001600160a01b0382166104b25760405162461bcd60e51b81526004016104a990612067565b60405180910390fd5b6001600160a01b0382166000908152610161602090815260408083208054825181850281018501909352808352919290919083018282801561051357602002820191906000526020600020905b8154815260200190600101908083116104ff575b5093979650505050505050565b60008281526065602052604090206001015461053b81611298565b61054583836112a2565b505050565b6001600160a01b03811633146105ba5760405162461bcd60e51b815260206004820152602f60248201527f416363657373436f6e74726f6c3a2063616e206f6e6c792072656e6f756e636560448201526e103937b632b9903337b91039b2b63360891b60648201526084016104a9565b6105c48282611328565b5050565b306001600160a01b037f00000000000000000000000000000000000000000000000000000000000000001614156106115760405162461bcd60e51b81526004016104a99061201b565b7f00000000000000000000000000000000000000000000000000000000000000006001600160a01b031661064361138f565b6001600160a01b0316146106695760405162461bcd60e51b81526004016104a990612099565b610672816113ab565b6040805160008082526020820190925261068e91839190611413565b50565b6106a261069c61158d565b33610924565b6106be5760405162461bcd60e51b81526004016104a990611fcf565b6106c66115b1565b565b306001600160a01b037f00000000000000000000000000000000000000000000000000000000000000001614156107115760405162461bcd60e51b81526004016104a99061201b565b7f00000000000000000000000000000000000000000000000000000000000000006001600160a01b031661074361138f565b6001600160a01b0316146107695760405162461bcd60e51b81526004016104a990612099565b610772826113ab565b6105c482826001611413565b600054610100900460ff161580801561079e5750600054600160ff909116105b806107b85750303b1580156107b8575060005460ff166001145b6107d45760405162461bcd60e51b81526004016104a9906120e5565b6000805460ff1916600117905580156107f7576000805461ff0019166101001790555b6107ff6115fd565b801561068e576000805461ff0019169055604051600181527f7f26b83ff96e1f2b6a682f133852f6798a09c465da95921460cefb38474024989060200160405180910390a150565b6000306001600160a01b037f000000000000000000000000000000000000000000000000000000000000000016146108e25760405162461bcd60e51b815260206004820152603860248201527f555550535570677261646561626c653a206d757374206e6f742062652063616c6044820152771b1959081d1a1c9bdd59da0819195b1959d85d1958d85b1b60421b60648201526084016104a9565b5060008051602061232683398151915290565b61090061069c61158d565b61091c5760405162461bcd60e51b81526004016104a990611fcf565b6106c6611630565b60009182526065602090815260408084206001600160a01b0393909316845291905290205460ff1690565b600054610100900460ff166109765760405162461bcd60e51b81526004016104a9906121ed565b6001600160a01b0381166109cc5760405162461bcd60e51b815260206004820181905260248201527f4f776e65722063616e6e6f7420626520746865207a65726f206164647265737360448201526064016104a9565b6109d461166d565b6109dc6115fd565b6109e4611694565b6109f56109ef6116c2565b826116e6565b610a006109ef61158d565b610a18610a0b61158d565b610a136116c2565b6116f0565b61068e610a0b6116c2565b61016054604051637e4dc6d560e01b8152600481018390526000916001600160a01b031690637e4dc6d59060240160206040518083038186803b158015610a6957600080fd5b505afa158015610a7d573d6000803e3d6000fd5b505050506040513d601f19601f82011682018060405250810190610aa19190611cfa565b90506001600160a01b038316610ac95760405162461bcd60e51b81526004016104a99061216a565b6001600160a01b038116610aef5760405162461bcd60e51b81526004016104a990612133565b336001600160a01b03821614610b175760405162461bcd60e51b81526004016104a99061219c565b604051636f49712b60e01b81526001600160a01b03821690636f49712b90610b43908690600401611f44565b60206040518083038186803b158015610b5b57600080fd5b505afa158015610b6f573d6000803e3d6000fd5b505050506040513d601f19601f82011682018060405250810190610b939190611e12565b1515600114610c155760405162461bcd60e51b815260206004820152604260248201527f496e766573746f72206973206e6f7420686176696e672061207374616b696e6760448201527f20706f736974696f6e20696e2070726f7669646564206f70706f7274756e69746064820152613c9760f11b608482015260a4016104a9565b6000610c2184846111a5565b905080610c55576001600160a01b038416600090815261016160209081526040822080546001810182559083529120018390555b50505050565b6000610c6861069c6116c2565b905090565b600054610100900460ff1615808015610c8d5750600054600160ff909116105b80610ca75750303b158015610ca7575060005460ff166001145b610cc35760405162461bcd60e51b81526004016104a9906120e5565b6000805460ff191660011790558015610ce6576000805461ff0019166101001790555b6001600160a01b038216610d355760405162461bcd60e51b8152602060048201526016602482015275496e76616c696420636f6e666967206164647265737360501b60448201526064016104a9565b61015f80546001600160a01b0319166001600160a01b038416908117909155600090610d609061173b565b90506001600160a01b038116610da85760405162461bcd60e51b815260206004820152600d60248201526c24b73b30b634b21027bbb732b960991b60448201526064016104a9565b61015f54610dbe906001600160a01b03166117bc565b61016080546001600160a01b0319166001600160a01b0392909216919091179055610de88161094f565b5080156105c4576000805461ff0019169055604051600181527f7f26b83ff96e1f2b6a682f133852f6798a09c465da95921460cefb38474024989060200160405180910390a15050565b6101616020528160005260406000208181548110610e4f57600080fd5b90600052602060002001600091509150505481565b600082815260656020526040902060010154610e7f81611298565b6105458383611328565b61016054604051637e4dc6d560e01b8152600481018390526000916001600160a01b031690637e4dc6d59060240160206040518083038186803b158015610ecf57600080fd5b505afa158015610ee3573d6000803e3d6000fd5b505050506040513d601f19601f82011682018060405250810190610f079190611cfa565b90506001600160a01b038316610f2f5760405162461bcd60e51b81526004016104a99061216a565b6001600160a01b038116610f555760405162461bcd60e51b81526004016104a990612133565b336001600160a01b03821614610f7d5760405162461bcd60e51b81526004016104a99061219c565b6000610f8984846111a5565b9050600181151514610ff45760405162461bcd60e51b815260206004820152602e60248201527f496e766573746f7220646f65736e277420696e76657374656420696e2074686960448201526d399037b83837b93a3ab734ba3c9760911b60648201526084016104a9565b6001600160a01b0384166000908152610161602090815260408083208054825181850281018501909352808352919290919083018282801561105557602002820191906000526020600020905b815481526020019060010190808311611041575b5050505050905060005b815181101561119d578482828151811061108957634e487b7160e01b600052603260045260246000fd5b6020026020010151141561118b576001600160a01b03861660009081526101616020526040902082516110be9060019061226f565b815481106110dc57634e487b7160e01b600052603260045260246000fd5b90600052602060002001546101616000886001600160a01b03166001600160a01b03168152602001908152602001600020828154811061112c57634e487b7160e01b600052603260045260246000fd5b60009182526020808320909101929092556001600160a01b03881681526101619091526040902082516111619060019061226f565b8154811061117f57634e487b7160e01b600052603260045260246000fd5b60009182526020822001555b80611195816122c9565b91505061105f565b505050505050565b60006001600160a01b0383166111cd5760405162461bcd60e51b81526004016104a990612067565b6001600160a01b0383166000908152610161602090815260408083208054825181850281018501909352808352919290919083018282801561122e57602002820191906000526020600020905b81548152602001906001019080831161121a575b5050505050905060005b815181101561128d578382828151811061126257634e487b7160e01b600052603260045260246000fd5b6020026020010151141561127b5760019250505061047b565b80611285816122c9565b915050611238565b506000949350505050565b61068e81336117d4565b6112ac8282610924565b6105c45760008281526065602090815260408083206001600160a01b03851684529091529020805460ff191660011790556112e43390565b6001600160a01b0316816001600160a01b0316837f2f8788117e7eff1d82e926ec794901d17c78024a50270940304540a733656f0d60405160405180910390a45050565b6113328282610924565b156105c45760008281526065602090815260408083206001600160a01b0385168085529252808320805460ff1916905551339285917ff6391f5c32d9c69d2a47ea670b442974b53935d1edc7fd64eb21e047a839171b9190a45050565b600080516020612326833981519152546001600160a01b031690565b6113b3610c5b565b61068e5760405162461bcd60e51b815260206004820152602b60248201527f4d75737420686176652061646d696e20726f6c6520746f20706572666f726d2060448201526a3a3434b99030b1ba34b7b760a91b60648201526084016104a9565b7f4910fdfa16fed3260ed0e7147f7cc6da11a60208b5b9406d12a635614ffd91435460ff16156114465761054583611838565b826001600160a01b03166352d1902d6040518163ffffffff1660e01b815260040160206040518083038186803b15801561147f57600080fd5b505afa9250505080156114af575060408051601f3d908101601f191682019092526114ac91810190611e4a565b60015b6115125760405162461bcd60e51b815260206004820152602e60248201527f45524331393637557067726164653a206e657720696d706c656d656e7461746960448201526d6f6e206973206e6f74205555505360901b60648201526084016104a9565b60008051602061232683398151915281146115815760405162461bcd60e51b815260206004820152602960248201527f45524331393637557067726164653a20756e737570706f727465642070726f786044820152681a58589b195555525160ba1b60648201526084016104a9565b506105458383836118d4565b7f65d7a28e3265b37a6474929f336521b332c1681b933f6cb9f3376673440d862a90565b6115b96118f9565b6097805460ff191690557f5db9ee0a495bf2e6ff9c91a7834c1ba4fdd244a5e8aa4e537bd38aeae4b073aa335b6040516115f39190611f44565b60405180910390a1565b600054610100900460ff166116245760405162461bcd60e51b81526004016104a9906121ed565b6097805460ff19169055565b611638611942565b6097805460ff191660011790557f62e78cea01bee320cd4e420270b5ea74000d11b0c9f74754ebdbfc544b05a2586115e63390565b600054610100900460ff166106c65760405162461bcd60e51b81526004016104a9906121ed565b600054610100900460ff166116bb5760405162461bcd60e51b81526004016104a9906121ed565b600160c955565b7fa49807205ce4d355092ef5a8a18f56e8913cf4a201fbe287825b095693c2177590565b6105c482826112a2565b600082815260656020526040808220600101805490849055905190918391839186917fbd79b86ffe0ab8e8776151514217cd7cacd52c909f66475c3af44e129f0b00ff9190a4505050565b60006001600160a01b03821663b93f9b0a825b6040518263ffffffff1660e01b815260040161176c91815260200190565b60206040518083038186803b15801561178457600080fd5b505afa158015611798573d6000803e3d6000fd5b505050506040513d601f19601f8201168201806040525081019061047b9190611cfa565b60006001600160a01b03821663b93f9b0a600661174e565b6117de8282610924565b6105c4576117f6816001600160a01b03166014611988565b611801836020611988565b604051602001611812929190611ed5565b60408051601f198184030181529082905262461bcd60e51b82526104a991600401611f9c565b6001600160a01b0381163b6118a55760405162461bcd60e51b815260206004820152602d60248201527f455243313936373a206e657720696d706c656d656e746174696f6e206973206e60448201526c1bdd08184818dbdb9d1c9858dd609a1b60648201526084016104a9565b60008051602061232683398151915280546001600160a01b0319166001600160a01b0392909216919091179055565b6118dd83611b71565b6000825111806118ea5750805b1561054557610c558383611bb1565b60975460ff166106c65760405162461bcd60e51b815260206004820152601460248201527314185d5cd8589b194e881b9bdd081c185d5cd95960621b60448201526064016104a9565b60975460ff16156106c65760405162461bcd60e51b815260206004820152601060248201526f14185d5cd8589b194e881c185d5cd95960821b60448201526064016104a9565b60606000611997836002612250565b6119a2906002612238565b67ffffffffffffffff8111156119c857634e487b7160e01b600052604160045260246000fd5b6040519080825280601f01601f1916602001820160405280156119f2576020820181803683370190505b509050600360fc1b81600081518110611a1b57634e487b7160e01b600052603260045260246000fd5b60200101906001600160f81b031916908160001a905350600f60fb1b81600181518110611a5857634e487b7160e01b600052603260045260246000fd5b60200101906001600160f81b031916908160001a9053506000611a7c846002612250565b611a87906001612238565b90505b6001811115611b1b576f181899199a1a9b1b9c1cb0b131b232b360811b85600f1660108110611ac957634e487b7160e01b600052603260045260246000fd5b1a60f81b828281518110611aed57634e487b7160e01b600052603260045260246000fd5b60200101906001600160f81b031916908160001a90535060049490941c93611b14816122b2565b9050611a8a565b508315611b6a5760405162461bcd60e51b815260206004820181905260248201527f537472696e67733a20686578206c656e67746820696e73756666696369656e7460448201526064016104a9565b9392505050565b611b7a81611838565b6040516001600160a01b038216907fbc7cd75a20ee27fd9adebab32041f755214dbc6bffa90cc0225b39da2e5c2d3b90600090a250565b60606001600160a01b0383163b611c195760405162461bcd60e51b815260206004820152602660248201527f416464726573733a2064656c65676174652063616c6c20746f206e6f6e2d636f6044820152651b9d1c9858dd60d21b60648201526084016104a9565b600080846001600160a01b031684604051611c349190611eb9565b600060405180830381855af49150503d8060008114611c6f576040519150601f19603f3d011682016040523d82523d6000602084013e611c74565b606091505b5091509150611c9c828260405180606001604052806027815260200161234660279139611ca5565b95945050505050565b60608315611cb4575081611b6a565b825115611cc45782518084602001fd5b8160405162461bcd60e51b81526004016104a99190611f9c565b600060208284031215611cef578081fd5b8135611b6a81612310565b600060208284031215611d0b578081fd5b8151611b6a81612310565b60008060408385031215611d28578081fd5b8235611d3381612310565b946020939093013593505050565b60008060408385031215611d53578182fd5b8235611d5e81612310565b9150602083013567ffffffffffffffff80821115611d7a578283fd5b818501915085601f830112611d8d578283fd5b813581811115611d9f57611d9f6122fa565b604051601f8201601f19908116603f01168101908382118183101715611dc757611dc76122fa565b81604052828152886020848701011115611ddf578586fd5b82602086016020830137856020848301015280955050505050509250929050565b60008060408385031215611d28578182fd5b600060208284031215611e23578081fd5b81518015158114611b6a578182fd5b600060208284031215611e43578081fd5b5035919050565b600060208284031215611e5b578081fd5b5051919050565b60008060408385031215611e74578182fd5b823591506020830135611e8681612310565b809150509250929050565b600060208284031215611ea2578081fd5b81356001600160e01b031981168114611b6a578182fd5b60008251611ecb818460208701612286565b9190910192915050565b76020b1b1b2b9b9a1b7b73a3937b61d1030b1b1b7bab73a1604d1b815260008351611f07816017850160208801612286565b7001034b99036b4b9b9b4b733903937b6329607d1b6017918401918201528351611f38816028840160208801612286565b01602801949350505050565b6001600160a01b0391909116815260200190565b6020808252825182820181905260009190848201906040850190845b81811015611f9057835183529284019291840191600101611f74565b50909695505050505050565b6020815260008251806020840152611fbb816040850160208701612286565b601f01601f19169190910160400192915050565b6020808252602c908201527f4d75737420686176652070617573657220726f6c6520746f20706572666f726d60408201526b103a3434b99030b1ba34b7b760a11b606082015260800190565b6020808252602c908201527f46756e6374696f6e206d7573742062652063616c6c6564207468726f7567682060408201526b19195b1959d85d1958d85b1b60a21b606082015260800190565b602080825260189082015277496e76616c696420696e766573746f72206164647265737360401b604082015260600190565b6020808252602c908201527f46756e6374696f6e206d7573742062652063616c6c6564207468726f7567682060408201526b6163746976652070726f787960a01b606082015260800190565b6020808252602e908201527f496e697469616c697a61626c653a20636f6e747261637420697320616c72656160408201526d191e481a5b9a5d1a585b1a5e995960921b606082015260800190565b6020808252601f908201527f4f70706f7274756e69747920706f6f6c20646f65736e27742065786973742e00604082015260600190565b602080825260189082015277496e76616c696420496e766573746f72206164647265737360401b604082015260600190565b60208082526031908201527f476976656e206f70706f7274756e6974792063616e206f6e6c792062652061646040820152703232b210313c903a3430ba103837b7b61760791b606082015260800190565b6020808252602b908201527f496e697469616c697a61626c653a20636f6e7472616374206973206e6f74206960408201526a6e697469616c697a696e6760a81b606082015260800190565b6000821982111561224b5761224b6122e4565b500190565b600081600019048311821515161561226a5761226a6122e4565b500290565b600082821015612281576122816122e4565b500390565b60005b838110156122a1578181015183820152602001612289565b83811115610c555750506000910152565b6000816122c1576122c16122e4565b506000190190565b60006000198214156122dd576122dd6122e4565b5060010190565b634e487b7160e01b600052601160045260246000fd5b634e487b7160e01b600052604160045260246000fd5b6001600160a01b038116811461068e57600080fdfe360894a13ba1a3210667c828492db98dca3e2076cc3735a920a3ca505d382bbc416464726573733a206c6f772d6c6576656c2064656c65676174652063616c6c206661696c6564a26469706673582212203181771d10fe061f3b6124e1ed9fd6ccaea34135bab92f249a8f1612199fef7b64736f6c63430008040033",
  "linkReferences": {},
  "deployedLinkReferences": {}
}