{
  "_format": "hh-sol-artifact-1",
  "contractName": "AccoutingLibrary",
  "sourceName": "contracts/test-contract/AccoutingLibrary.sol",
  "abi": [
    {
      "inputs": [
        {
          "internalType": "uint256",
          "name": "loanAmount",
          "type": "uint256"
        },
        {
          "internalType": "uint256",
          "name": "loanInterest",
          "type": "uint256"
        },
        {
          "internalType": "uint256",
          "name": "paymentFrequencyInDays",
          "type": "uint256"
        }
      ],
      "name": "getBulletLoanEMI",
      "outputs": [
        {
          "internalType": "uint256",
          "name": "",
          "type": "uint256"
        }
      ],
      "stateMutability": "pure",
      "type": "function"
    },
    {
      "inputs": [
        {
          "internalType": "uint256",
          "name": "dygnifyFees",
          "type": "uint256"
        },
        {
          "internalType": "uint256",
          "name": "underwriterFees",
          "type": "uint256"
        },
        {
          "internalType": "uint256",
          "name": "interestAmount",
          "type": "uint256"
        },
        {
          "internalType": "uint256",
          "name": "leverageRatio",
          "type": "uint256"
        },
        {
          "internalType": "uint256",
          "name": "loanAmount",
          "type": "uint256"
        },
        {
          "internalType": "uint256",
          "name": "seniorPoolInvestment",
          "type": "uint256"
        }
      ],
      "name": "getInterestDistribution",
      "outputs": [
        {
          "internalType": "uint256",
          "name": "",
          "type": "uint256"
        },
        {
          "internalType": "uint256",
          "name": "",
          "type": "uint256"
        }
      ],
      "stateMutability": "pure",
      "type": "function"
    },
    {
      "inputs": [
        {
          "internalType": "uint256",
          "name": "loanAmount",
          "type": "uint256"
        },
        {
          "internalType": "uint256",
          "name": "loanInterest",
          "type": "uint256"
        },
        {
          "internalType": "uint256",
          "name": "emiCount",
          "type": "uint256"
        },
        {
          "internalType": "uint256",
          "name": "paymentFrequency",
          "type": "uint256"
        }
      ],
      "name": "getTermLoanEMI",
      "outputs": [
        {
          "internalType": "uint256",
          "name": "",
          "type": "uint256"
        }
      ],
      "stateMutability": "pure",
      "type": "function"
    },
    {
      "inputs": [
        {
          "internalType": "uint256",
          "name": "oustandingPrincipal",
          "type": "uint256"
        },
        {
          "internalType": "uint256",
          "name": "noOfDays",
          "type": "uint256"
        },
        {
          "internalType": "uint256",
          "name": "loanInterest",
          "type": "uint256"
        }
      ],
      "name": "getTermLoanInterest",
      "outputs": [
        {
          "internalType": "uint256",
          "name": "",
          "type": "uint256"
        }
      ],
      "stateMutability": "pure",
      "type": "function"
    },
    {
      "inputs": [
        {
          "internalType": "uint256",
          "name": "dygnifyFees",
          "type": "uint256"
        },
        {
          "internalType": "uint256",
          "name": "underwriterFees",
          "type": "uint256"
        },
        {
          "internalType": "bool",
          "name": "isTermLoan",
          "type": "bool"
        },
        {
          "internalType": "uint256",
          "name": "emiAmount",
          "type": "uint256"
        },
        {
          "internalType": "uint256",
          "name": "loanAmount",
          "type": "uint256"
        },
        {
          "internalType": "uint256",
          "name": "totalRepayments",
          "type": "uint256"
        },
        {
          "internalType": "uint256",
          "name": "loanInterest",
          "type": "uint256"
        },
        {
          "internalType": "uint256",
          "name": "leverageRatio",
          "type": "uint256"
        },
        {
          "internalType": "uint256",
          "name": "loanTenureInDays",
          "type": "uint256"
        }
      ],
      "name": "getYieldPercentage",
      "outputs": [
        {
          "internalType": "uint256",
          "name": "",
          "type": "uint256"
        },
        {
          "internalType": "uint256",
          "name": "",
          "type": "uint256"
        }
      ],
      "stateMutability": "pure",
      "type": "function"
    }
  ],
  "bytecode": "0x608060405234801561001057600080fd5b50610d2a806100206000396000f3fe608060405234801561001057600080fd5b50600436106100575760003560e01c806309a3a1b01461005c5780630bef93ce1461008257806370c82de3146100955780637b64bf5d146100a8578063989fd717146100d0575b600080fd5b61006f61006a366004610a9d565b6100e3565b6040519081526020015b60405180910390f35b61006f610090366004610a72565b6100fc565b61006f6100a3366004610a72565b610113565b6100bb6100b6366004610ace565b610121565b60408051928352602083019190915201610079565b6100bb6100de366004610a00565b610146565b6000806100f286868686610171565b9695505050505050565b60008061010a8585856102a1565b95945050505050565b60008061010a85858561037f565b6000806000806101358a8a8a8a8a8a6103fc565b909b909a5098505050505050505050565b60008060008061015d8d8d8d8d8d8d8d8d8d610560565b909e909d509b505050505050505050505050565b600080851180156101825750600084115b801561018e5750600083115b801561019a5750600082115b6101bf5760405162461bcd60e51b81526004016101b690610b3c565b60405180910390fd5b60006101cd61016884610779565b905060006102126101fc6101e288600661078e565b6101f7676765c793fa10079d601b1b86610c7e565b61080c565b6101f7676765c793fa10079d601b1b6064610c7e565b9050600061022b676765c793fa10079d601b1b8361083c565b905060006102398288610848565b905060006102488a600661078e565b90506000610265836101f7676765c793fa10079d601b1b82610c9d565b9050600061027c61027684886108bd565b836108bd565b905061029181683635c9adc5dea00000610779565b9c9b505050505050505050505050565b600080841180156102b25750600083115b80156102be5750600082115b6102da5760405162461bcd60e51b81526004016101b690610b3c565b60006103036101fc6102ed86600661078e565b6101f7676765c793fa10079d601b1b600c610c7e565b905060006103418261033c610323676765c793fa10079d601b1b88610c7e565b676765c793fa10079d601b1b601e5b6101f79190610c7e565b6108bd565b9050600061035087600661078e565b9050600061035e82846108bd565b905061037381683635c9adc5dea00000610779565b98975050505050505050565b600080841180156103905750600083115b801561039c5750600082115b6103b85760405162461bcd60e51b81526004016101b690610b3c565b60006103df6101fc6103cb85600661078e565b676765c793fa10079d601b1b610168610332565b905060006103418261033c676765c793fa10079d601b1b88610c7e565b60008060008811801561040f5750600087115b801561041b5750600086115b80156104275750600085115b80156104335750600084115b801561043f5750600083115b61045b5760405162461bcd60e51b81526004016101b690610b10565b600061046889600661078e565b9050600061047789600661078e565b9050600061048689600661078e565b9050600061049587600661078e565b905060006104a489600661078e565b905060006104bb6104b585856108bd565b8361080c565b905060006104c982876108bd565b905060006104e96104e3846104de868c6108bd565b6108ee565b836108ee565b905060006105046104fe8861033c888a6108ee565b8661080c565b9050600061051f610519836104de858e6108bd565b85610944565b905061053483683635c9adc5dea00000610779565b61054782683635c9adc5dea00000610779565b9b509b5050505050505050505050965096945050505050565b60008060008b118015610573575060008a115b801561057f5750600088115b801561058b5750600087115b80156105975750600086115b80156105a35750600085115b80156105af5750600084115b80156105bb5750600083115b6105d75760405162461bcd60e51b81526004016101b690610b10565b60006105e48c600661078e565b905060006105f38c600661078e565b905060008b1561065a57600061060a8c600661078e565b90506000610623676765c793fa10079d601b1b8c610c7e565b905060006106328d600661078e565b905060006106436104e385856108bd565b905061064f818361080c565b94505050505061068c565b600061066d6101fc6103cb8b600661078e565b90506106888161033c676765c793fa10079d601b1b8a610c7e565b9150505b600081116106d65760405162461bcd60e51b8152602060048201526017602482015276125b9d985b1a59081a5b9d195c995cdd08185b5bdd5b9d604a1b60448201526064016101b6565b60006106fa8261033c6106f4676765c793fa10079d601b1b886108ee565b866108ee565b9050600061073a8361033c61071a676765c793fa10079d601b1b896108ee565b61073588676765c793fa10079d601b1b8f61033c9190610c7e565b610944565b905061074f82683635c9adc5dea00000610779565b61076282683635c9adc5dea00000610779565b965096505050505050995099975050505050505050565b60006107858284610b7f565b90505b92915050565b6000601b8211156107e15760405162461bcd60e51b815260206004820152601d60248201527f64732d6d6174682d646563696d616c732d6f75742d6f662d72616e676500000060448201526064016101b6565b60006107ee601b846108ee565b9050610804846107ff83600a610bd6565b610999565b949350505050565b60008161083261082785676765c793fa10079d601b1b610999565b610735600286610b7f565b6107859190610b7f565b60006107858284610b67565b6000610855600283610cb4565b61086a57676765c793fa10079d601b1b61086c565b825b9050610879600283610b7f565b91505b81156107885761088c83846108bd565b9250610899600283610cb4565b156108ab576108a881846108bd565b90505b6108b6600283610b7f565b915061087c565b6000676765c793fa10079d601b1b6108326108d88585610999565b6107356002676765c793fa10079d601b1b610b7f565b6000826108fb8382610c9d565b91508111156107885760405162461bcd60e51b815260206004820152601560248201527464732d6d6174682d7375622d756e646572666c6f7760581b60448201526064016101b6565b6000826109518382610b67565b91508110156107885760405162461bcd60e51b815260206004820152601460248201527364732d6d6174682d6164642d6f766572666c6f7760601b60448201526064016101b6565b60008115806109bd575082826109af8183610c7e565b92506109bb9083610b7f565b145b6107885760405162461bcd60e51b815260206004820152601460248201527364732d6d6174682d6d756c2d6f766572666c6f7760601b60448201526064016101b6565b60008060008060008060008060006101208a8c031215610a1e578485fd5b8935985060208a0135975060408a01358015158114610a3b578586fd5b989b979a5097986060810135985060808101359760a0820135975060c0820135965060e08201359550610100909101359350915050565b600080600060608486031215610a86578283fd5b505081359360208301359350604090920135919050565b60008060008060808587031215610ab2578384fd5b5050823594602084013594506040840135936060013592509050565b60008060008060008060c08789031215610ae6578182fd5b505084359660208601359650604086013595606081013595506080810135945060a0013592509050565b602080825260129082015271496e76616c696420706172616d657465727360701b604082015260600190565b602080825260119082015270496e76616c696420706172616d7465727360781b604082015260600190565b60008219821115610b7a57610b7a610cc8565b500190565b600082610b8e57610b8e610cde565b500490565b600181815b80851115610bce578160001904821115610bb457610bb4610cc8565b80851615610bc157918102915b93841c9390800290610b98565b509250929050565b60006107858383600082610bec57506001610788565b81610bf957506000610788565b8160018114610c0f5760028114610c1957610c35565b6001915050610788565b60ff841115610c2a57610c2a610cc8565b50506001821b610788565b5060208310610133831016604e8410600b8410161715610c58575081810a610788565b610c628383610b93565b8060001904821115610c7657610c76610cc8565b029392505050565b6000816000190483118215151615610c9857610c98610cc8565b500290565b600082821015610caf57610caf610cc8565b500390565b600082610cc357610cc3610cde565b500690565b634e487b7160e01b600052601160045260246000fd5b634e487b7160e01b600052601260045260246000fdfea26469706673582212204a1b4fbf4cdcf3059213e9225577e6a666d6f3d343cc0cf4e614e77508f6eadf64736f6c63430008040033",
  "linkReferences": {},
  "deployedLinkReferences": {}
}