{
  "_format": "hh-sol-artifact-1",
  "contractName": "BaseUpgradeablePausable",
  "sourceName": "contracts/protocol/BaseUpgradeablePausable.sol",
  "abi": [
    {
      "anonymous": false,
      "inputs": [
        {
          "indexed": false,
          "internalType": "uint8",
          "name": "version",
          "type": "uint8"
        }
      ],
      "name": "Initialized",
      "type": "event"
    },
    {
      "anonymous": false,
      "inputs": [
        {
          "indexed": false,
          "internalType": "address",
          "name": "account",
          "type": "address"
        }
      ],
      "name": "Paused",
      "type": "event"
    },
    {
      "anonymous": false,
      "inputs": [
        {
          "indexed": true,
          "internalType": "bytes32",
          "name": "role",
          "type": "bytes32"
        },
        {
          "indexed": true,
          "internalType": "bytes32",
          "name": "previousAdminRole",
          "type": "bytes32"
        },
        {
          "indexed": true,
          "internalType": "bytes32",
          "name": "newAdminRole",
          "type": "bytes32"
        }
      ],
      "name": "RoleAdminChanged",
      "type": "event"
    },
    {
      "anonymous": false,
      "inputs": [
        {
          "indexed": true,
          "internalType": "bytes32",
          "name": "role",
          "type": "bytes32"
        },
        {
          "indexed": true,
          "internalType": "address",
          "name": "account",
          "type": "address"
        },
        {
          "indexed": true,
          "internalType": "address",
          "name": "sender",
          "type": "address"
        }
      ],
      "name": "RoleGranted",
      "type": "event"
    },
    {
      "anonymous": false,
      "inputs": [
        {
          "indexed": true,
          "internalType": "bytes32",
          "name": "role",
          "type": "bytes32"
        },
        {
          "indexed": true,
          "internalType": "address",
          "name": "account",
          "type": "address"
        },
        {
          "indexed": true,
          "internalType": "address",
          "name": "sender",
          "type": "address"
        }
      ],
      "name": "RoleRevoked",
      "type": "event"
    },
    {
      "anonymous": false,
      "inputs": [
        {
          "indexed": false,
          "internalType": "address",
          "name": "account",
          "type": "address"
        }
      ],
      "name": "Unpaused",
      "type": "event"
    },
    {
      "inputs": [],
      "name": "ADMIN_ROLE",
      "outputs": [
        {
          "internalType": "bytes32",
          "name": "",
          "type": "bytes32"
        }
      ],
      "stateMutability": "view",
      "type": "function"
    },
    {
      "inputs": [],
      "name": "DEFAULT_ADMIN_ROLE",
      "outputs": [
        {
          "internalType": "bytes32",
          "name": "",
          "type": "bytes32"
        }
      ],
      "stateMutability": "view",
      "type": "function"
    },
    {
      "inputs": [],
      "name": "PAUSER_ROLE",
      "outputs": [
        {
          "internalType": "bytes32",
          "name": "",
          "type": "bytes32"
        }
      ],
      "stateMutability": "view",
      "type": "function"
    },
    {
      "inputs": [
        {
          "internalType": "address",
          "name": "owner",
          "type": "address"
        }
      ],
      "name": "_BaseUpgradeablePausable_init",
      "outputs": [],
      "stateMutability": "nonpayable",
      "type": "function"
    },
    {
      "inputs": [],
      "name": "__PauserPausable__init",
      "outputs": [],
      "stateMutability": "nonpayable",
      "type": "function"
    },
    {
      "inputs": [
        {
          "internalType": "bytes32",
          "name": "role",
          "type": "bytes32"
        }
      ],
      "name": "getRoleAdmin",
      "outputs": [
        {
          "internalType": "bytes32",
          "name": "",
          "type": "bytes32"
        }
      ],
      "stateMutability": "view",
      "type": "function"
    },
    {
      "inputs": [
        {
          "internalType": "bytes32",
          "name": "role",
          "type": "bytes32"
        },
        {
          "internalType": "address",
          "name": "account",
          "type": "address"
        }
      ],
      "name": "grantRole",
      "outputs": [],
      "stateMutability": "nonpayable",
      "type": "function"
    },
    {
      "inputs": [
        {
          "internalType": "bytes32",
          "name": "role",
          "type": "bytes32"
        },
        {
          "internalType": "address",
          "name": "account",
          "type": "address"
        }
      ],
      "name": "hasRole",
      "outputs": [
        {
          "internalType": "bool",
          "name": "",
          "type": "bool"
        }
      ],
      "stateMutability": "view",
      "type": "function"
    },
    {
      "inputs": [],
      "name": "isAdmin",
      "outputs": [
        {
          "internalType": "bool",
          "name": "",
          "type": "bool"
        }
      ],
      "stateMutability": "view",
      "type": "function"
    },
    {
      "inputs": [],
      "name": "pause",
      "outputs": [],
      "stateMutability": "nonpayable",
      "type": "function"
    },
    {
      "inputs": [],
      "name": "paused",
      "outputs": [
        {
          "internalType": "bool",
          "name": "",
          "type": "bool"
        }
      ],
      "stateMutability": "view",
      "type": "function"
    },
    {
      "inputs": [
        {
          "internalType": "bytes32",
          "name": "role",
          "type": "bytes32"
        },
        {
          "internalType": "address",
          "name": "account",
          "type": "address"
        }
      ],
      "name": "renounceRole",
      "outputs": [],
      "stateMutability": "nonpayable",
      "type": "function"
    },
    {
      "inputs": [
        {
          "internalType": "bytes32",
          "name": "role",
          "type": "bytes32"
        },
        {
          "internalType": "address",
          "name": "account",
          "type": "address"
        }
      ],
      "name": "revokeRole",
      "outputs": [],
      "stateMutability": "nonpayable",
      "type": "function"
    },
    {
      "inputs": [
        {
          "internalType": "bytes4",
          "name": "interfaceId",
          "type": "bytes4"
        }
      ],
      "name": "supportsInterface",
      "outputs": [
        {
          "internalType": "bool",
          "name": "",
          "type": "bool"
        }
      ],
      "stateMutability": "view",
      "type": "function"
    },
    {
      "inputs": [],
      "name": "unpause",
      "outputs": [],
      "stateMutability": "nonpayable",
      "type": "function"
    }
  ],
  "bytecode": "0x608060405234801561001057600080fd5b506110df806100206000396000f3fe608060405234801561001057600080fd5b50600436106100f55760003560e01c806375b238fc11610097578063a217fddf11610066578063a217fddf14610211578063b6db75a014610219578063d547741f14610221578063e63ab1e91461023457600080fd5b806375b238fc146101965780638456cb59146101bd57806391d14854146101c5578063a12dde4d146101fe57600080fd5b806336568abe116100d357806336568abe146101685780633f4ba83a1461017b578063526d81f6146101835780635c975abb1461018b57600080fd5b806301ffc9a7146100fa578063248a9ca3146101225780632f2ff15d14610153575b600080fd5b61010d610108366004610f21565b61025b565b60405190151581526020015b60405180910390f35b610145610130366004610ede565b60009081526065602052604090206001015490565b604051908152602001610119565b610166610161366004610ef6565b6102f4565b005b610166610176366004610ef6565b61031e565b6101666103af565b610166610444565b60975460ff1661010d565b6101457fa49807205ce4d355092ef5a8a18f56e8913cf4a201fbe287825b095693c2177581565b610166610564565b61010d6101d3366004610ef6565b60009182526065602090815260408084206001600160a01b0393909316845291905290205460ff1690565b61016661020c366004610ec4565b6105f7565b610145600081565b61010d610798565b61016661022f366004610ef6565b6107c9565b6101457f65d7a28e3265b37a6474929f336521b332c1681b933f6cb9f3376673440d862a81565b60007fffffffff0000000000000000000000000000000000000000000000000000000082167f7965db0b0000000000000000000000000000000000000000000000000000000014806102ee57507f01ffc9a7000000000000000000000000000000000000000000000000000000007fffffffff000000000000000000000000000000000000000000000000000000008316145b92915050565b60008281526065602052604090206001015461030f816107ee565b61031983836107f8565b505050565b6001600160a01b03811633146103a15760405162461bcd60e51b815260206004820152602f60248201527f416363657373436f6e74726f6c3a2063616e206f6e6c792072656e6f756e636560448201527f20726f6c657320666f722073656c66000000000000000000000000000000000060648201526084015b60405180910390fd5b6103ab828261089a565b5050565b6103d97f65d7a28e3265b37a6474929f336521b332c1681b933f6cb9f3376673440d862a336101d3565b61043a5760405162461bcd60e51b815260206004820152602c60248201527f4d75737420686176652070617573657220726f6c6520746f20706572666f726d60448201526b103a3434b99030b1ba34b7b760a11b6064820152608401610398565b61044261091d565b565b600054610100900460ff16158080156104645750600054600160ff909116105b8061047e5750303b15801561047e575060005460ff166001145b6104f05760405162461bcd60e51b815260206004820152602e60248201527f496e697469616c697a61626c653a20636f6e747261637420697320616c72656160448201527f647920696e697469616c697a65640000000000000000000000000000000000006064820152608401610398565b6000805460ff191660011790558015610513576000805461ff0019166101001790555b61051b61096f565b8015610561576000805461ff0019169055604051600181527f7f26b83ff96e1f2b6a682f133852f6798a09c465da95921460cefb38474024989060200160405180910390a15b50565b61058e7f65d7a28e3265b37a6474929f336521b332c1681b933f6cb9f3376673440d862a336101d3565b6105ef5760405162461bcd60e51b815260206004820152602c60248201527f4d75737420686176652070617573657220726f6c6520746f20706572666f726d60448201526b103a3434b99030b1ba34b7b760a11b6064820152608401610398565b6104426109e6565b600054610100900460ff166106625760405162461bcd60e51b815260206004820152602b60248201527f496e697469616c697a61626c653a20636f6e7472616374206973206e6f74206960448201526a6e697469616c697a696e6760a81b6064820152608401610398565b6001600160a01b0381166106b85760405162461bcd60e51b815260206004820181905260248201527f4f776e65722063616e6e6f7420626520746865207a65726f20616464726573736044820152606401610398565b6106c0610a23565b6106c861096f565b6106d0610a8e565b6106fa7fa49807205ce4d355092ef5a8a18f56e8913cf4a201fbe287825b095693c2177582610b00565b6107247f65d7a28e3265b37a6474929f336521b332c1681b933f6cb9f3376673440d862a82610b00565b61076e7f65d7a28e3265b37a6474929f336521b332c1681b933f6cb9f3376673440d862a7fa49807205ce4d355092ef5a8a18f56e8913cf4a201fbe287825b095693c21775610b0a565b6105617fa49807205ce4d355092ef5a8a18f56e8913cf4a201fbe287825b095693c2177580610b0a565b60006107c47fa49807205ce4d355092ef5a8a18f56e8913cf4a201fbe287825b095693c21775336101d3565b905090565b6000828152606560205260409020600101546107e4816107ee565b610319838361089a565b6105618133610b55565b60008281526065602090815260408083206001600160a01b038516845290915290205460ff166103ab5760008281526065602090815260408083206001600160a01b03851684529091529020805460ff191660011790556108563390565b6001600160a01b0316816001600160a01b0316837f2f8788117e7eff1d82e926ec794901d17c78024a50270940304540a733656f0d60405160405180910390a45050565b60008281526065602090815260408083206001600160a01b038516845290915290205460ff16156103ab5760008281526065602090815260408083206001600160a01b0385168085529252808320805460ff1916905551339285917ff6391f5c32d9c69d2a47ea670b442974b53935d1edc7fd64eb21e047a839171b9190a45050565b610925610bd5565b6097805460ff191690557f5db9ee0a495bf2e6ff9c91a7834c1ba4fdd244a5e8aa4e537bd38aeae4b073aa335b6040516001600160a01b03909116815260200160405180910390a1565b600054610100900460ff166109da5760405162461bcd60e51b815260206004820152602b60248201527f496e697469616c697a61626c653a20636f6e7472616374206973206e6f74206960448201526a6e697469616c697a696e6760a81b6064820152608401610398565b6097805460ff19169055565b6109ee610c27565b6097805460ff191660011790557f62e78cea01bee320cd4e420270b5ea74000d11b0c9f74754ebdbfc544b05a2586109523390565b600054610100900460ff166104425760405162461bcd60e51b815260206004820152602b60248201527f496e697469616c697a61626c653a20636f6e7472616374206973206e6f74206960448201526a6e697469616c697a696e6760a81b6064820152608401610398565b600054610100900460ff16610af95760405162461bcd60e51b815260206004820152602b60248201527f496e697469616c697a61626c653a20636f6e7472616374206973206e6f74206960448201526a6e697469616c697a696e6760a81b6064820152608401610398565b600160c955565b6103ab82826107f8565b600082815260656020526040808220600101805490849055905190918391839186917fbd79b86ffe0ab8e8776151514217cd7cacd52c909f66475c3af44e129f0b00ff9190a4505050565b60008281526065602090815260408083206001600160a01b038516845290915290205460ff166103ab57610b93816001600160a01b03166014610c7a565b610b9e836020610c7a565b604051602001610baf929190610f61565b60408051601f198184030181529082905262461bcd60e51b825261039891600401610fe2565b60975460ff166104425760405162461bcd60e51b815260206004820152601460248201527f5061757361626c653a206e6f74207061757365640000000000000000000000006044820152606401610398565b60975460ff16156104425760405162461bcd60e51b815260206004820152601060248201527f5061757361626c653a20706175736564000000000000000000000000000000006044820152606401610398565b60606000610c8983600261102d565b610c94906002611015565b67ffffffffffffffff811115610cba57634e487b7160e01b600052604160045260246000fd5b6040519080825280601f01601f191660200182016040528015610ce4576020820181803683370190505b5090507f300000000000000000000000000000000000000000000000000000000000000081600081518110610d2957634e487b7160e01b600052603260045260246000fd5b60200101906001600160f81b031916908160001a9053507f780000000000000000000000000000000000000000000000000000000000000081600181518110610d8257634e487b7160e01b600052603260045260246000fd5b60200101906001600160f81b031916908160001a9053506000610da684600261102d565b610db1906001611015565b90505b6001811115610e52577f303132333435363738396162636465660000000000000000000000000000000085600f1660108110610e0057634e487b7160e01b600052603260045260246000fd5b1a60f81b828281518110610e2457634e487b7160e01b600052603260045260246000fd5b60200101906001600160f81b031916908160001a90535060049490941c93610e4b8161107c565b9050610db4565b508315610ea15760405162461bcd60e51b815260206004820181905260248201527f537472696e67733a20686578206c656e67746820696e73756666696369656e746044820152606401610398565b9392505050565b80356001600160a01b0381168114610ebf57600080fd5b919050565b600060208284031215610ed5578081fd5b610ea182610ea8565b600060208284031215610eef578081fd5b5035919050565b60008060408385031215610f08578081fd5b82359150610f1860208401610ea8565b90509250929050565b600060208284031215610f32578081fd5b81357fffffffff0000000000000000000000000000000000000000000000000000000081168114610ea1578182fd5b7f416363657373436f6e74726f6c3a206163636f756e7420000000000000000000815260008351610f9981601785016020880161104c565b7f206973206d697373696e6720726f6c65200000000000000000000000000000006017918401918201528351610fd681602884016020880161104c565b01602801949350505050565b602081526000825180602084015261100181604085016020870161104c565b601f01601f19169190910160400192915050565b6000821982111561102857611028611093565b500190565b600081600019048311821515161561104757611047611093565b500290565b60005b8381101561106757818101518382015260200161104f565b83811115611076576000848401525b50505050565b60008161108b5761108b611093565b506000190190565b634e487b7160e01b600052601160045260246000fdfea26469706673582212208bfed06065832dcc8d45a0e87bdfda6f9a55f899b0a7011c93dfe43bf6d0e53d64736f6c63430008040033",
  "linkReferences": {},
  "deployedLinkReferences": {}
}