{
  "_format": "hh-sol-artifact-1",
  "contractName": "BaseUpgradeablePausable",
  "sourceName": "contracts/protocol/BaseUpgradeablePausable.sol",
  "abi": [
    {
      "anonymous": false,
      "inputs": [
        {
          "indexed": false,
          "internalType": "address",
          "name": "previousAdmin",
          "type": "address"
        },
        {
          "indexed": false,
          "internalType": "address",
          "name": "newAdmin",
          "type": "address"
        }
      ],
      "name": "AdminChanged",
      "type": "event"
    },
    {
      "anonymous": false,
      "inputs": [
        {
          "indexed": true,
          "internalType": "address",
          "name": "beacon",
          "type": "address"
        }
      ],
      "name": "BeaconUpgraded",
      "type": "event"
    },
    {
      "anonymous": false,
      "inputs": [
        {
          "indexed": false,
          "internalType": "uint8",
          "name": "version",
          "type": "uint8"
        }
      ],
      "name": "Initialized",
      "type": "event"
    },
    {
      "anonymous": false,
      "inputs": [
        {
          "indexed": false,
          "internalType": "address",
          "name": "account",
          "type": "address"
        }
      ],
      "name": "Paused",
      "type": "event"
    },
    {
      "anonymous": false,
      "inputs": [
        {
          "indexed": true,
          "internalType": "bytes32",
          "name": "role",
          "type": "bytes32"
        },
        {
          "indexed": true,
          "internalType": "bytes32",
          "name": "previousAdminRole",
          "type": "bytes32"
        },
        {
          "indexed": true,
          "internalType": "bytes32",
          "name": "newAdminRole",
          "type": "bytes32"
        }
      ],
      "name": "RoleAdminChanged",
      "type": "event"
    },
    {
      "anonymous": false,
      "inputs": [
        {
          "indexed": true,
          "internalType": "bytes32",
          "name": "role",
          "type": "bytes32"
        },
        {
          "indexed": true,
          "internalType": "address",
          "name": "account",
          "type": "address"
        },
        {
          "indexed": true,
          "internalType": "address",
          "name": "sender",
          "type": "address"
        }
      ],
      "name": "RoleGranted",
      "type": "event"
    },
    {
      "anonymous": false,
      "inputs": [
        {
          "indexed": true,
          "internalType": "bytes32",
          "name": "role",
          "type": "bytes32"
        },
        {
          "indexed": true,
          "internalType": "address",
          "name": "account",
          "type": "address"
        },
        {
          "indexed": true,
          "internalType": "address",
          "name": "sender",
          "type": "address"
        }
      ],
      "name": "RoleRevoked",
      "type": "event"
    },
    {
      "anonymous": false,
      "inputs": [
        {
          "indexed": false,
          "internalType": "address",
          "name": "account",
          "type": "address"
        }
      ],
      "name": "Unpaused",
      "type": "event"
    },
    {
      "anonymous": false,
      "inputs": [
        {
          "indexed": true,
          "internalType": "address",
          "name": "implementation",
          "type": "address"
        }
      ],
      "name": "Upgraded",
      "type": "event"
    },
    {
      "inputs": [],
      "name": "ADMIN_ROLE",
      "outputs": [
        {
          "internalType": "bytes32",
          "name": "",
          "type": "bytes32"
        }
      ],
      "stateMutability": "view",
      "type": "function"
    },
    {
      "inputs": [],
      "name": "DEFAULT_ADMIN_ROLE",
      "outputs": [
        {
          "internalType": "bytes32",
          "name": "",
          "type": "bytes32"
        }
      ],
      "stateMutability": "view",
      "type": "function"
    },
    {
      "inputs": [],
      "name": "PAUSER_ROLE",
      "outputs": [
        {
          "internalType": "bytes32",
          "name": "",
          "type": "bytes32"
        }
      ],
      "stateMutability": "view",
      "type": "function"
    },
    {
      "inputs": [
        {
          "internalType": "address",
          "name": "owner",
          "type": "address"
        }
      ],
      "name": "_BaseUpgradeablePausable_init",
      "outputs": [],
      "stateMutability": "nonpayable",
      "type": "function"
    },
    {
      "inputs": [],
      "name": "__PauserPausable__init",
      "outputs": [],
      "stateMutability": "nonpayable",
      "type": "function"
    },
    {
      "inputs": [
        {
          "internalType": "bytes32",
          "name": "role",
          "type": "bytes32"
        }
      ],
      "name": "getRoleAdmin",
      "outputs": [
        {
          "internalType": "bytes32",
          "name": "",
          "type": "bytes32"
        }
      ],
      "stateMutability": "view",
      "type": "function"
    },
    {
      "inputs": [
        {
          "internalType": "bytes32",
          "name": "role",
          "type": "bytes32"
        },
        {
          "internalType": "address",
          "name": "account",
          "type": "address"
        }
      ],
      "name": "grantRole",
      "outputs": [],
      "stateMutability": "nonpayable",
      "type": "function"
    },
    {
      "inputs": [
        {
          "internalType": "bytes32",
          "name": "role",
          "type": "bytes32"
        },
        {
          "internalType": "address",
          "name": "account",
          "type": "address"
        }
      ],
      "name": "hasRole",
      "outputs": [
        {
          "internalType": "bool",
          "name": "",
          "type": "bool"
        }
      ],
      "stateMutability": "view",
      "type": "function"
    },
    {
      "inputs": [],
      "name": "isAdmin",
      "outputs": [
        {
          "internalType": "bool",
          "name": "",
          "type": "bool"
        }
      ],
      "stateMutability": "view",
      "type": "function"
    },
    {
      "inputs": [],
      "name": "pause",
      "outputs": [],
      "stateMutability": "nonpayable",
      "type": "function"
    },
    {
      "inputs": [],
      "name": "paused",
      "outputs": [
        {
          "internalType": "bool",
          "name": "",
          "type": "bool"
        }
      ],
      "stateMutability": "view",
      "type": "function"
    },
    {
      "inputs": [],
      "name": "proxiableUUID",
      "outputs": [
        {
          "internalType": "bytes32",
          "name": "",
          "type": "bytes32"
        }
      ],
      "stateMutability": "view",
      "type": "function"
    },
    {
      "inputs": [
        {
          "internalType": "bytes32",
          "name": "role",
          "type": "bytes32"
        },
        {
          "internalType": "address",
          "name": "account",
          "type": "address"
        }
      ],
      "name": "renounceRole",
      "outputs": [],
      "stateMutability": "nonpayable",
      "type": "function"
    },
    {
      "inputs": [
        {
          "internalType": "bytes32",
          "name": "role",
          "type": "bytes32"
        },
        {
          "internalType": "address",
          "name": "account",
          "type": "address"
        }
      ],
      "name": "revokeRole",
      "outputs": [],
      "stateMutability": "nonpayable",
      "type": "function"
    },
    {
      "inputs": [
        {
          "internalType": "bytes4",
          "name": "interfaceId",
          "type": "bytes4"
        }
      ],
      "name": "supportsInterface",
      "outputs": [
        {
          "internalType": "bool",
          "name": "",
          "type": "bool"
        }
      ],
      "stateMutability": "view",
      "type": "function"
    },
    {
      "inputs": [],
      "name": "unpause",
      "outputs": [],
      "stateMutability": "nonpayable",
      "type": "function"
    },
    {
      "inputs": [
        {
          "internalType": "address",
          "name": "newImplementation",
          "type": "address"
        }
      ],
      "name": "upgradeTo",
      "outputs": [],
      "stateMutability": "nonpayable",
      "type": "function"
    },
    {
      "inputs": [
        {
          "internalType": "address",
          "name": "newImplementation",
          "type": "address"
        },
        {
          "internalType": "bytes",
          "name": "data",
          "type": "bytes"
        }
      ],
      "name": "upgradeToAndCall",
      "outputs": [],
      "stateMutability": "payable",
      "type": "function"
    }
  ],
  "bytecode": "0x60a06040523060601b60805234801561001757600080fd5b5060805160601c611b9f610052600039600081816104f90152818161057e0152818161070a0152818161078f01526109940152611b9f6000f3fe6080604052600436106101295760003560e01c80635c975abb116100a5578063a12dde4d11610074578063b6db75a011610059578063b6db75a014610331578063d547741f14610346578063e63ab1e91461036657600080fd5b8063a12dde4d146102fc578063a217fddf1461031c57600080fd5b80635c975abb1461025557806375b238fc1461026d5780638456cb59146102a157806391d14854146102b657600080fd5b80633659cfe6116100fc5780634f1ef286116100e15780634f1ef28614610218578063526d81f61461022b57806352d1902d1461024057600080fd5b80633659cfe6146101e35780633f4ba83a1461020357600080fd5b806301ffc9a71461012e578063248a9ca3146101635780632f2ff15d146101a157806336568abe146101c3575b600080fd5b34801561013a57600080fd5b5061014e61014936600461198c565b61039a565b60405190151581526020015b60405180910390f35b34801561016f57600080fd5b5061019361017e366004611931565b60009081526065602052604090206001015490565b60405190815260200161015a565b3480156101ad57600080fd5b506101c16101bc366004611961565b610433565b005b3480156101cf57600080fd5b506101c16101de366004611961565b61045d565b3480156101ef57600080fd5b506101c16101fe36600461185a565b6104ee565b34801561020f57600080fd5b506101c161066a565b6101c1610226366004611874565b6106ff565b34801561023757600080fd5b506101c1610868565b34801561024c57600080fd5b50610193610987565b34801561026157600080fd5b5060975460ff1661014e565b34801561027957600080fd5b506101937fa49807205ce4d355092ef5a8a18f56e8913cf4a201fbe287825b095693c2177581565b3480156102ad57600080fd5b506101c1610a4c565b3480156102c257600080fd5b5061014e6102d1366004611961565b60009182526065602090815260408084206001600160a01b0393909316845291905290205460ff1690565b34801561030857600080fd5b506101c161031736600461185a565b610adf565b34801561032857600080fd5b50610193600081565b34801561033d57600080fd5b5061014e610c80565b34801561035257600080fd5b506101c1610361366004611961565b610cb1565b34801561037257600080fd5b506101937f65d7a28e3265b37a6474929f336521b332c1681b933f6cb9f3376673440d862a81565b60007fffffffff0000000000000000000000000000000000000000000000000000000082167f7965db0b00000000000000000000000000000000000000000000000000000000148061042d57507f01ffc9a7000000000000000000000000000000000000000000000000000000007fffffffff000000000000000000000000000000000000000000000000000000008316145b92915050565b60008281526065602052604090206001015461044e81610cd6565b6104588383610ce0565b505050565b6001600160a01b03811633146104e05760405162461bcd60e51b815260206004820152602f60248201527f416363657373436f6e74726f6c3a2063616e206f6e6c792072656e6f756e636560448201527f20726f6c657320666f722073656c66000000000000000000000000000000000060648201526084015b60405180910390fd5b6104ea8282610d82565b5050565b306001600160a01b037f000000000000000000000000000000000000000000000000000000000000000016141561057c5760405162461bcd60e51b815260206004820152602c60248201527f46756e6374696f6e206d7573742062652063616c6c6564207468726f7567682060448201526b19195b1959d85d1958d85b1b60a21b60648201526084016104d7565b7f00000000000000000000000000000000000000000000000000000000000000006001600160a01b03166105d77f360894a13ba1a3210667c828492db98dca3e2076cc3735a920a3ca505d382bbc546001600160a01b031690565b6001600160a01b0316146106425760405162461bcd60e51b815260206004820152602c60248201527f46756e6374696f6e206d7573742062652063616c6c6564207468726f7567682060448201526b6163746976652070726f787960a01b60648201526084016104d7565b61064b81610e05565b6040805160008082526020820190925261066791839190610e7f565b50565b6106947f65d7a28e3265b37a6474929f336521b332c1681b933f6cb9f3376673440d862a336102d1565b6106f55760405162461bcd60e51b815260206004820152602c60248201527f4d75737420686176652070617573657220726f6c6520746f20706572666f726d60448201526b103a3434b99030b1ba34b7b760a11b60648201526084016104d7565b6106fd61102e565b565b306001600160a01b037f000000000000000000000000000000000000000000000000000000000000000016141561078d5760405162461bcd60e51b815260206004820152602c60248201527f46756e6374696f6e206d7573742062652063616c6c6564207468726f7567682060448201526b19195b1959d85d1958d85b1b60a21b60648201526084016104d7565b7f00000000000000000000000000000000000000000000000000000000000000006001600160a01b03166107e87f360894a13ba1a3210667c828492db98dca3e2076cc3735a920a3ca505d382bbc546001600160a01b031690565b6001600160a01b0316146108535760405162461bcd60e51b815260206004820152602c60248201527f46756e6374696f6e206d7573742062652063616c6c6564207468726f7567682060448201526b6163746976652070726f787960a01b60648201526084016104d7565b61085c82610e05565b6104ea82826001610e7f565b600054610100900460ff16158080156108885750600054600160ff909116105b806108a25750303b1580156108a2575060005460ff166001145b6109145760405162461bcd60e51b815260206004820152602e60248201527f496e697469616c697a61626c653a20636f6e747261637420697320616c72656160448201527f647920696e697469616c697a656400000000000000000000000000000000000060648201526084016104d7565b6000805460ff191660011790558015610937576000805461ff0019166101001790555b61093f611080565b8015610667576000805461ff0019169055604051600181527f7f26b83ff96e1f2b6a682f133852f6798a09c465da95921460cefb38474024989060200160405180910390a150565b6000306001600160a01b037f00000000000000000000000000000000000000000000000000000000000000001614610a275760405162461bcd60e51b815260206004820152603860248201527f555550535570677261646561626c653a206d757374206e6f742062652063616c60448201527f6c6564207468726f7567682064656c656761746563616c6c000000000000000060648201526084016104d7565b507f360894a13ba1a3210667c828492db98dca3e2076cc3735a920a3ca505d382bbc90565b610a767f65d7a28e3265b37a6474929f336521b332c1681b933f6cb9f3376673440d862a336102d1565b610ad75760405162461bcd60e51b815260206004820152602c60248201527f4d75737420686176652070617573657220726f6c6520746f20706572666f726d60448201526b103a3434b99030b1ba34b7b760a11b60648201526084016104d7565b6106fd6110f7565b600054610100900460ff16610b4a5760405162461bcd60e51b815260206004820152602b60248201527f496e697469616c697a61626c653a20636f6e7472616374206973206e6f74206960448201526a6e697469616c697a696e6760a81b60648201526084016104d7565b6001600160a01b038116610ba05760405162461bcd60e51b815260206004820181905260248201527f4f776e65722063616e6e6f7420626520746865207a65726f206164647265737360448201526064016104d7565b610ba8611134565b610bb0611080565b610bb861119f565b610be27fa49807205ce4d355092ef5a8a18f56e8913cf4a201fbe287825b095693c2177582611211565b610c0c7f65d7a28e3265b37a6474929f336521b332c1681b933f6cb9f3376673440d862a82611211565b610c567f65d7a28e3265b37a6474929f336521b332c1681b933f6cb9f3376673440d862a7fa49807205ce4d355092ef5a8a18f56e8913cf4a201fbe287825b095693c2177561121b565b6106677fa49807205ce4d355092ef5a8a18f56e8913cf4a201fbe287825b095693c217758061121b565b6000610cac7fa49807205ce4d355092ef5a8a18f56e8913cf4a201fbe287825b095693c21775336102d1565b905090565b600082815260656020526040902060010154610ccc81610cd6565b6104588383610d82565b6106678133611266565b60008281526065602090815260408083206001600160a01b038516845290915290205460ff166104ea5760008281526065602090815260408083206001600160a01b03851684529091529020805460ff19166001179055610d3e3390565b6001600160a01b0316816001600160a01b0316837f2f8788117e7eff1d82e926ec794901d17c78024a50270940304540a733656f0d60405160405180910390a45050565b60008281526065602090815260408083206001600160a01b038516845290915290205460ff16156104ea5760008281526065602090815260408083206001600160a01b0385168085529252808320805460ff1916905551339285917ff6391f5c32d9c69d2a47ea670b442974b53935d1edc7fd64eb21e047a839171b9190a45050565b610e0d610c80565b6106675760405162461bcd60e51b815260206004820152602b60248201527f4d75737420686176652061646d696e20726f6c6520746f20706572666f726d2060448201527f7468697320616374696f6e00000000000000000000000000000000000000000060648201526084016104d7565b7f4910fdfa16fed3260ed0e7147f7cc6da11a60208b5b9406d12a635614ffd91435460ff1615610eb257610458836112e6565b826001600160a01b03166352d1902d6040518163ffffffff1660e01b815260040160206040518083038186803b158015610eeb57600080fd5b505afa925050508015610f1b575060408051601f3d908101601f19168201909252610f1891810190611949565b60015b610f8d5760405162461bcd60e51b815260206004820152602e60248201527f45524331393637557067726164653a206e657720696d706c656d656e7461746960448201527f6f6e206973206e6f74205555505300000000000000000000000000000000000060648201526084016104d7565b7f360894a13ba1a3210667c828492db98dca3e2076cc3735a920a3ca505d382bbc81146110225760405162461bcd60e51b815260206004820152602960248201527f45524331393637557067726164653a20756e737570706f727465642070726f7860448201527f6961626c6555554944000000000000000000000000000000000000000000000060648201526084016104d7565b506104588383836113bc565b6110366113e7565b6097805460ff191690557f5db9ee0a495bf2e6ff9c91a7834c1ba4fdd244a5e8aa4e537bd38aeae4b073aa335b6040516001600160a01b03909116815260200160405180910390a1565b600054610100900460ff166110eb5760405162461bcd60e51b815260206004820152602b60248201527f496e697469616c697a61626c653a20636f6e7472616374206973206e6f74206960448201526a6e697469616c697a696e6760a81b60648201526084016104d7565b6097805460ff19169055565b6110ff611439565b6097805460ff191660011790557f62e78cea01bee320cd4e420270b5ea74000d11b0c9f74754ebdbfc544b05a2586110633390565b600054610100900460ff166106fd5760405162461bcd60e51b815260206004820152602b60248201527f496e697469616c697a61626c653a20636f6e7472616374206973206e6f74206960448201526a6e697469616c697a696e6760a81b60648201526084016104d7565b600054610100900460ff1661120a5760405162461bcd60e51b815260206004820152602b60248201527f496e697469616c697a61626c653a20636f6e7472616374206973206e6f74206960448201526a6e697469616c697a696e6760a81b60648201526084016104d7565b600160c955565b6104ea8282610ce0565b600082815260656020526040808220600101805490849055905190918391839186917fbd79b86ffe0ab8e8776151514217cd7cacd52c909f66475c3af44e129f0b00ff9190a4505050565b60008281526065602090815260408083206001600160a01b038516845290915290205460ff166104ea576112a4816001600160a01b0316601461148c565b6112af83602061148c565b6040516020016112c09291906119e8565b60408051601f198184030181529082905262461bcd60e51b82526104d791600401611a69565b6001600160a01b0381163b6113635760405162461bcd60e51b815260206004820152602d60248201527f455243313936373a206e657720696d706c656d656e746174696f6e206973206e60448201527f6f74206120636f6e74726163740000000000000000000000000000000000000060648201526084016104d7565b7f360894a13ba1a3210667c828492db98dca3e2076cc3735a920a3ca505d382bbc80547fffffffffffffffffffffffff0000000000000000000000000000000000000000166001600160a01b0392909216919091179055565b6113c5836116ba565b6000825111806113d25750805b15610458576113e183836116fa565b50505050565b60975460ff166106fd5760405162461bcd60e51b815260206004820152601460248201527f5061757361626c653a206e6f742070617573656400000000000000000000000060448201526064016104d7565b60975460ff16156106fd5760405162461bcd60e51b815260206004820152601060248201527f5061757361626c653a207061757365640000000000000000000000000000000060448201526064016104d7565b6060600061149b836002611ab4565b6114a6906002611a9c565b67ffffffffffffffff8111156114cc57634e487b7160e01b600052604160045260246000fd5b6040519080825280601f01601f1916602001820160405280156114f6576020820181803683370190505b5090507f30000000000000000000000000000000000000000000000000000000000000008160008151811061153b57634e487b7160e01b600052603260045260246000fd5b60200101906001600160f81b031916908160001a9053507f78000000000000000000000000000000000000000000000000000000000000008160018151811061159457634e487b7160e01b600052603260045260246000fd5b60200101906001600160f81b031916908160001a90535060006115b8846002611ab4565b6115c3906001611a9c565b90505b6001811115611664577f303132333435363738396162636465660000000000000000000000000000000085600f166010811061161257634e487b7160e01b600052603260045260246000fd5b1a60f81b82828151811061163657634e487b7160e01b600052603260045260246000fd5b60200101906001600160f81b031916908160001a90535060049490941c9361165d81611aff565b90506115c6565b5083156116b35760405162461bcd60e51b815260206004820181905260248201527f537472696e67733a20686578206c656e67746820696e73756666696369656e7460448201526064016104d7565b9392505050565b6116c3816112e6565b6040516001600160a01b038216907fbc7cd75a20ee27fd9adebab32041f755214dbc6bffa90cc0225b39da2e5c2d3b90600090a250565b60606001600160a01b0383163b6117795760405162461bcd60e51b815260206004820152602660248201527f416464726573733a2064656c65676174652063616c6c20746f206e6f6e2d636f60448201527f6e7472616374000000000000000000000000000000000000000000000000000060648201526084016104d7565b600080846001600160a01b03168460405161179491906119cc565b600060405180830381855af49150503d80600081146117cf576040519150601f19603f3d011682016040523d82523d6000602084013e6117d4565b606091505b50915091506117fc8282604051806060016040528060278152602001611b4360279139611805565b95945050505050565b606083156118145750816116b3565b8251156118245782518084602001fd5b8160405162461bcd60e51b81526004016104d79190611a69565b80356001600160a01b038116811461185557600080fd5b919050565b60006020828403121561186b578081fd5b6116b38261183e565b60008060408385031215611886578081fd5b61188f8361183e565b9150602083013567ffffffffffffffff808211156118ab578283fd5b818501915085601f8301126118be578283fd5b8135818111156118d0576118d0611b2c565b604051601f8201601f19908116603f011681019083821181831017156118f8576118f8611b2c565b81604052828152886020848701011115611910578586fd5b82602086016020830137856020848301015280955050505050509250929050565b600060208284031215611942578081fd5b5035919050565b60006020828403121561195a578081fd5b5051919050565b60008060408385031215611973578182fd5b823591506119836020840161183e565b90509250929050565b60006020828403121561199d578081fd5b81357fffffffff00000000000000000000000000000000000000000000000000000000811681146116b3578182fd5b600082516119de818460208701611ad3565b9190910192915050565b7f416363657373436f6e74726f6c3a206163636f756e7420000000000000000000815260008351611a20816017850160208801611ad3565b7f206973206d697373696e6720726f6c65200000000000000000000000000000006017918401918201528351611a5d816028840160208801611ad3565b01602801949350505050565b6020815260008251806020840152611a88816040850160208701611ad3565b601f01601f19169190910160400192915050565b60008219821115611aaf57611aaf611b16565b500190565b6000816000190483118215151615611ace57611ace611b16565b500290565b60005b83811015611aee578181015183820152602001611ad6565b838111156113e15750506000910152565b600081611b0e57611b0e611b16565b506000190190565b634e487b7160e01b600052601160045260246000fd5b634e487b7160e01b600052604160045260246000fdfe416464726573733a206c6f772d6c6576656c2064656c65676174652063616c6c206661696c6564a2646970667358221220a31da69f918ae0b80387400413a4de9f7d4196ddf3a0ea9fc2248dc4921433f064736f6c63430008040033",
  "linkReferences": {},
  "deployedLinkReferences": {}
}