{
  "_format": "hh-sol-artifact-1",
  "contractName": "BaseUpgradeablePausable",
  "sourceName": "contracts/protocol/BaseUpgradeablePausable.sol",
  "abi": [
    {
      "anonymous": false,
      "inputs": [
        {
          "indexed": false,
          "internalType": "address",
          "name": "previousAdmin",
          "type": "address"
        },
        {
          "indexed": false,
          "internalType": "address",
          "name": "newAdmin",
          "type": "address"
        }
      ],
      "name": "AdminChanged",
      "type": "event"
    },
    {
      "anonymous": false,
      "inputs": [
        {
          "indexed": true,
          "internalType": "address",
          "name": "beacon",
          "type": "address"
        }
      ],
      "name": "BeaconUpgraded",
      "type": "event"
    },
    {
      "anonymous": false,
      "inputs": [
        {
          "indexed": false,
          "internalType": "uint8",
          "name": "version",
          "type": "uint8"
        }
      ],
      "name": "Initialized",
      "type": "event"
    },
    {
      "anonymous": false,
      "inputs": [
        {
          "indexed": false,
          "internalType": "address",
          "name": "account",
          "type": "address"
        }
      ],
      "name": "Paused",
      "type": "event"
    },
    {
      "anonymous": false,
      "inputs": [
        {
          "indexed": true,
          "internalType": "bytes32",
          "name": "role",
          "type": "bytes32"
        },
        {
          "indexed": true,
          "internalType": "bytes32",
          "name": "previousAdminRole",
          "type": "bytes32"
        },
        {
          "indexed": true,
          "internalType": "bytes32",
          "name": "newAdminRole",
          "type": "bytes32"
        }
      ],
      "name": "RoleAdminChanged",
      "type": "event"
    },
    {
      "anonymous": false,
      "inputs": [
        {
          "indexed": true,
          "internalType": "bytes32",
          "name": "role",
          "type": "bytes32"
        },
        {
          "indexed": true,
          "internalType": "address",
          "name": "account",
          "type": "address"
        },
        {
          "indexed": true,
          "internalType": "address",
          "name": "sender",
          "type": "address"
        }
      ],
      "name": "RoleGranted",
      "type": "event"
    },
    {
      "anonymous": false,
      "inputs": [
        {
          "indexed": true,
          "internalType": "bytes32",
          "name": "role",
          "type": "bytes32"
        },
        {
          "indexed": true,
          "internalType": "address",
          "name": "account",
          "type": "address"
        },
        {
          "indexed": true,
          "internalType": "address",
          "name": "sender",
          "type": "address"
        }
      ],
      "name": "RoleRevoked",
      "type": "event"
    },
    {
      "anonymous": false,
      "inputs": [
        {
          "indexed": false,
          "internalType": "address",
          "name": "account",
          "type": "address"
        }
      ],
      "name": "Unpaused",
      "type": "event"
    },
    {
      "anonymous": false,
      "inputs": [
        {
          "indexed": true,
          "internalType": "address",
          "name": "implementation",
          "type": "address"
        }
      ],
      "name": "Upgraded",
      "type": "event"
    },
    {
      "inputs": [],
      "name": "DEFAULT_ADMIN_ROLE",
      "outputs": [
        {
          "internalType": "bytes32",
          "name": "",
          "type": "bytes32"
        }
      ],
      "stateMutability": "view",
      "type": "function"
    },
    {
      "inputs": [
        {
          "internalType": "address",
          "name": "owner",
          "type": "address"
        }
      ],
      "name": "_BaseUpgradeablePausable_init",
      "outputs": [],
      "stateMutability": "nonpayable",
      "type": "function"
    },
    {
      "inputs": [],
      "name": "__PauserPausable__init",
      "outputs": [],
      "stateMutability": "nonpayable",
      "type": "function"
    },
    {
      "inputs": [
        {
          "internalType": "bytes32",
          "name": "role",
          "type": "bytes32"
        }
      ],
      "name": "getRoleAdmin",
      "outputs": [
        {
          "internalType": "bytes32",
          "name": "",
          "type": "bytes32"
        }
      ],
      "stateMutability": "view",
      "type": "function"
    },
    {
      "inputs": [
        {
          "internalType": "bytes32",
          "name": "role",
          "type": "bytes32"
        },
        {
          "internalType": "address",
          "name": "account",
          "type": "address"
        }
      ],
      "name": "grantRole",
      "outputs": [],
      "stateMutability": "nonpayable",
      "type": "function"
    },
    {
      "inputs": [
        {
          "internalType": "bytes32",
          "name": "role",
          "type": "bytes32"
        },
        {
          "internalType": "address",
          "name": "account",
          "type": "address"
        }
      ],
      "name": "hasRole",
      "outputs": [
        {
          "internalType": "bool",
          "name": "",
          "type": "bool"
        }
      ],
      "stateMutability": "view",
      "type": "function"
    },
    {
      "inputs": [],
      "name": "isAdmin",
      "outputs": [
        {
          "internalType": "bool",
          "name": "",
          "type": "bool"
        }
      ],
      "stateMutability": "view",
      "type": "function"
    },
    {
      "inputs": [],
      "name": "pause",
      "outputs": [],
      "stateMutability": "nonpayable",
      "type": "function"
    },
    {
      "inputs": [],
      "name": "paused",
      "outputs": [
        {
          "internalType": "bool",
          "name": "",
          "type": "bool"
        }
      ],
      "stateMutability": "view",
      "type": "function"
    },
    {
      "inputs": [],
      "name": "proxiableUUID",
      "outputs": [
        {
          "internalType": "bytes32",
          "name": "",
          "type": "bytes32"
        }
      ],
      "stateMutability": "view",
      "type": "function"
    },
    {
      "inputs": [
        {
          "internalType": "bytes32",
          "name": "role",
          "type": "bytes32"
        },
        {
          "internalType": "address",
          "name": "account",
          "type": "address"
        }
      ],
      "name": "renounceRole",
      "outputs": [],
      "stateMutability": "nonpayable",
      "type": "function"
    },
    {
      "inputs": [
        {
          "internalType": "bytes32",
          "name": "role",
          "type": "bytes32"
        },
        {
          "internalType": "address",
          "name": "account",
          "type": "address"
        }
      ],
      "name": "revokeRole",
      "outputs": [],
      "stateMutability": "nonpayable",
      "type": "function"
    },
    {
      "inputs": [
        {
          "internalType": "bytes4",
          "name": "interfaceId",
          "type": "bytes4"
        }
      ],
      "name": "supportsInterface",
      "outputs": [
        {
          "internalType": "bool",
          "name": "",
          "type": "bool"
        }
      ],
      "stateMutability": "view",
      "type": "function"
    },
    {
      "inputs": [],
      "name": "unpause",
      "outputs": [],
      "stateMutability": "nonpayable",
      "type": "function"
    },
    {
      "inputs": [
        {
          "internalType": "address",
          "name": "newImplementation",
          "type": "address"
        }
      ],
      "name": "upgradeTo",
      "outputs": [],
      "stateMutability": "nonpayable",
      "type": "function"
    },
    {
      "inputs": [
        {
          "internalType": "address",
          "name": "newImplementation",
          "type": "address"
        },
        {
          "internalType": "bytes",
          "name": "data",
          "type": "bytes"
        }
      ],
      "name": "upgradeToAndCall",
      "outputs": [],
      "stateMutability": "payable",
      "type": "function"
    }
  ],
  "bytecode": "0x60a06040523060601b60805234801561001757600080fd5b5060805160601c611b006100526000396000818161045b015281816104e00152818161066d015281816106f201526108f70152611b006000f3fe6080604052600436106100f35760003560e01c806352d1902d1161008a578063a12dde4d11610059578063a12dde4d14610292578063a217fddf146102b2578063b6db75a0146102c7578063d547741f146102dc57600080fd5b806352d1902d1461020a5780635c975abb1461021f5780638456cb591461023757806391d148541461024c57600080fd5b80633659cfe6116100c65780633659cfe6146101ad5780633f4ba83a146101cd5780634f1ef286146101e2578063526d81f6146101f557600080fd5b806301ffc9a7146100f8578063248a9ca31461012d5780632f2ff15d1461016b57806336568abe1461018d575b600080fd5b34801561010457600080fd5b506101186101133660046118ed565b6102fc565b60405190151581526020015b60405180910390f35b34801561013957600080fd5b5061015d610148366004611892565b60009081526065602052604090206001015490565b604051908152602001610124565b34801561017757600080fd5b5061018b6101863660046118c2565b610395565b005b34801561019957600080fd5b5061018b6101a83660046118c2565b6103bf565b3480156101b957600080fd5b5061018b6101c83660046117bb565b610450565b3480156101d957600080fd5b5061018b6105cc565b61018b6101f03660046117d5565b610662565b34801561020157600080fd5b5061018b6107cb565b34801561021657600080fd5b5061015d6108ea565b34801561022b57600080fd5b5060975460ff16610118565b34801561024357600080fd5b5061018b6109af565b34801561025857600080fd5b506101186102673660046118c2565b60009182526065602090815260408084206001600160a01b0393909316845291905290205460ff1690565b34801561029e57600080fd5b5061018b6102ad3660046117bb565b610a41565b3480156102be57600080fd5b5061015d600081565b3480156102d357600080fd5b50610118610be2565b3480156102e857600080fd5b5061018b6102f73660046118c2565b610c12565b60007fffffffff0000000000000000000000000000000000000000000000000000000082167f7965db0b00000000000000000000000000000000000000000000000000000000148061038f57507f01ffc9a7000000000000000000000000000000000000000000000000000000007fffffffff000000000000000000000000000000000000000000000000000000008316145b92915050565b6000828152606560205260409020600101546103b081610c37565b6103ba8383610c41565b505050565b6001600160a01b03811633146104425760405162461bcd60e51b815260206004820152602f60248201527f416363657373436f6e74726f6c3a2063616e206f6e6c792072656e6f756e636560448201527f20726f6c657320666f722073656c66000000000000000000000000000000000060648201526084015b60405180910390fd5b61044c8282610ce3565b5050565b306001600160a01b037f00000000000000000000000000000000000000000000000000000000000000001614156104de5760405162461bcd60e51b815260206004820152602c60248201527f46756e6374696f6e206d7573742062652063616c6c6564207468726f7567682060448201526b19195b1959d85d1958d85b1b60a21b6064820152608401610439565b7f00000000000000000000000000000000000000000000000000000000000000006001600160a01b03166105397f360894a13ba1a3210667c828492db98dca3e2076cc3735a920a3ca505d382bbc546001600160a01b031690565b6001600160a01b0316146105a45760405162461bcd60e51b815260206004820152602c60248201527f46756e6374696f6e206d7573742062652063616c6c6564207468726f7567682060448201526b6163746976652070726f787960a01b6064820152608401610439565b6105ad81610d66565b604080516000808252602082019092526105c991839190610de0565b50565b6105f77f65d7a28e3265b37a6474929f336521b332c1681b933f6cb9f3376673440d862a5b33610267565b6106585760405162461bcd60e51b815260206004820152602c60248201527f4d75737420686176652070617573657220726f6c6520746f20706572666f726d60448201526b103a3434b99030b1ba34b7b760a11b6064820152608401610439565b610660610f8f565b565b306001600160a01b037f00000000000000000000000000000000000000000000000000000000000000001614156106f05760405162461bcd60e51b815260206004820152602c60248201527f46756e6374696f6e206d7573742062652063616c6c6564207468726f7567682060448201526b19195b1959d85d1958d85b1b60a21b6064820152608401610439565b7f00000000000000000000000000000000000000000000000000000000000000006001600160a01b031661074b7f360894a13ba1a3210667c828492db98dca3e2076cc3735a920a3ca505d382bbc546001600160a01b031690565b6001600160a01b0316146107b65760405162461bcd60e51b815260206004820152602c60248201527f46756e6374696f6e206d7573742062652063616c6c6564207468726f7567682060448201526b6163746976652070726f787960a01b6064820152608401610439565b6107bf82610d66565b61044c82826001610de0565b600054610100900460ff16158080156107eb5750600054600160ff909116105b806108055750303b158015610805575060005460ff166001145b6108775760405162461bcd60e51b815260206004820152602e60248201527f496e697469616c697a61626c653a20636f6e747261637420697320616c72656160448201527f647920696e697469616c697a65640000000000000000000000000000000000006064820152608401610439565b6000805460ff19166001179055801561089a576000805461ff0019166101001790555b6108a2610fe1565b80156105c9576000805461ff0019169055604051600181527f7f26b83ff96e1f2b6a682f133852f6798a09c465da95921460cefb38474024989060200160405180910390a150565b6000306001600160a01b037f0000000000000000000000000000000000000000000000000000000000000000161461098a5760405162461bcd60e51b815260206004820152603860248201527f555550535570677261646561626c653a206d757374206e6f742062652063616c60448201527f6c6564207468726f7567682064656c656761746563616c6c00000000000000006064820152608401610439565b507f360894a13ba1a3210667c828492db98dca3e2076cc3735a920a3ca505d382bbc90565b6109d87f65d7a28e3265b37a6474929f336521b332c1681b933f6cb9f3376673440d862a6105f1565b610a395760405162461bcd60e51b815260206004820152602c60248201527f4d75737420686176652070617573657220726f6c6520746f20706572666f726d60448201526b103a3434b99030b1ba34b7b760a11b6064820152608401610439565b610660611058565b600054610100900460ff16610aac5760405162461bcd60e51b815260206004820152602b60248201527f496e697469616c697a61626c653a20636f6e7472616374206973206e6f74206960448201526a6e697469616c697a696e6760a81b6064820152608401610439565b6001600160a01b038116610b025760405162461bcd60e51b815260206004820181905260248201527f4f776e65722063616e6e6f7420626520746865207a65726f20616464726573736044820152606401610439565b610b0a611095565b610b12610fe1565b610b1a611100565b610b457fa49807205ce4d355092ef5a8a18f56e8913cf4a201fbe287825b095693c217755b82611172565b610b6e7f65d7a28e3265b37a6474929f336521b332c1681b933f6cb9f3376673440d862a610b3f565b610bb97f65d7a28e3265b37a6474929f336521b332c1681b933f6cb9f3376673440d862a5b7fa49807205ce4d355092ef5a8a18f56e8913cf4a201fbe287825b095693c2177561117c565b6105c97fa49807205ce4d355092ef5a8a18f56e8913cf4a201fbe287825b095693c21775610b93565b6000610c0d7fa49807205ce4d355092ef5a8a18f56e8913cf4a201fbe287825b095693c217756105f1565b905090565b600082815260656020526040902060010154610c2d81610c37565b6103ba8383610ce3565b6105c981336111c7565b60008281526065602090815260408083206001600160a01b038516845290915290205460ff1661044c5760008281526065602090815260408083206001600160a01b03851684529091529020805460ff19166001179055610c9f3390565b6001600160a01b0316816001600160a01b0316837f2f8788117e7eff1d82e926ec794901d17c78024a50270940304540a733656f0d60405160405180910390a45050565b60008281526065602090815260408083206001600160a01b038516845290915290205460ff161561044c5760008281526065602090815260408083206001600160a01b0385168085529252808320805460ff1916905551339285917ff6391f5c32d9c69d2a47ea670b442974b53935d1edc7fd64eb21e047a839171b9190a45050565b610d6e610be2565b6105c95760405162461bcd60e51b815260206004820152602b60248201527f4d75737420686176652061646d696e20726f6c6520746f20706572666f726d2060448201527f7468697320616374696f6e0000000000000000000000000000000000000000006064820152608401610439565b7f4910fdfa16fed3260ed0e7147f7cc6da11a60208b5b9406d12a635614ffd91435460ff1615610e13576103ba83611247565b826001600160a01b03166352d1902d6040518163ffffffff1660e01b815260040160206040518083038186803b158015610e4c57600080fd5b505afa925050508015610e7c575060408051601f3d908101601f19168201909252610e79918101906118aa565b60015b610eee5760405162461bcd60e51b815260206004820152602e60248201527f45524331393637557067726164653a206e657720696d706c656d656e7461746960448201527f6f6e206973206e6f7420555550530000000000000000000000000000000000006064820152608401610439565b7f360894a13ba1a3210667c828492db98dca3e2076cc3735a920a3ca505d382bbc8114610f835760405162461bcd60e51b815260206004820152602960248201527f45524331393637557067726164653a20756e737570706f727465642070726f7860448201527f6961626c655555494400000000000000000000000000000000000000000000006064820152608401610439565b506103ba83838361131d565b610f97611348565b6097805460ff191690557f5db9ee0a495bf2e6ff9c91a7834c1ba4fdd244a5e8aa4e537bd38aeae4b073aa335b6040516001600160a01b03909116815260200160405180910390a1565b600054610100900460ff1661104c5760405162461bcd60e51b815260206004820152602b60248201527f496e697469616c697a61626c653a20636f6e7472616374206973206e6f74206960448201526a6e697469616c697a696e6760a81b6064820152608401610439565b6097805460ff19169055565b61106061139a565b6097805460ff191660011790557f62e78cea01bee320cd4e420270b5ea74000d11b0c9f74754ebdbfc544b05a258610fc43390565b600054610100900460ff166106605760405162461bcd60e51b815260206004820152602b60248201527f496e697469616c697a61626c653a20636f6e7472616374206973206e6f74206960448201526a6e697469616c697a696e6760a81b6064820152608401610439565b600054610100900460ff1661116b5760405162461bcd60e51b815260206004820152602b60248201527f496e697469616c697a61626c653a20636f6e7472616374206973206e6f74206960448201526a6e697469616c697a696e6760a81b6064820152608401610439565b600160c955565b61044c8282610c41565b600082815260656020526040808220600101805490849055905190918391839186917fbd79b86ffe0ab8e8776151514217cd7cacd52c909f66475c3af44e129f0b00ff9190a4505050565b60008281526065602090815260408083206001600160a01b038516845290915290205460ff1661044c57611205816001600160a01b031660146113ed565b6112108360206113ed565b604051602001611221929190611949565b60408051601f198184030181529082905262461bcd60e51b8252610439916004016119ca565b6001600160a01b0381163b6112c45760405162461bcd60e51b815260206004820152602d60248201527f455243313936373a206e657720696d706c656d656e746174696f6e206973206e60448201527f6f74206120636f6e7472616374000000000000000000000000000000000000006064820152608401610439565b7f360894a13ba1a3210667c828492db98dca3e2076cc3735a920a3ca505d382bbc80547fffffffffffffffffffffffff0000000000000000000000000000000000000000166001600160a01b0392909216919091179055565b6113268361161b565b6000825111806113335750805b156103ba57611342838361165b565b50505050565b60975460ff166106605760405162461bcd60e51b815260206004820152601460248201527f5061757361626c653a206e6f74207061757365640000000000000000000000006044820152606401610439565b60975460ff16156106605760405162461bcd60e51b815260206004820152601060248201527f5061757361626c653a20706175736564000000000000000000000000000000006044820152606401610439565b606060006113fc836002611a15565b6114079060026119fd565b67ffffffffffffffff81111561142d57634e487b7160e01b600052604160045260246000fd5b6040519080825280601f01601f191660200182016040528015611457576020820181803683370190505b5090507f30000000000000000000000000000000000000000000000000000000000000008160008151811061149c57634e487b7160e01b600052603260045260246000fd5b60200101906001600160f81b031916908160001a9053507f7800000000000000000000000000000000000000000000000000000000000000816001815181106114f557634e487b7160e01b600052603260045260246000fd5b60200101906001600160f81b031916908160001a9053506000611519846002611a15565b6115249060016119fd565b90505b60018111156115c5577f303132333435363738396162636465660000000000000000000000000000000085600f166010811061157357634e487b7160e01b600052603260045260246000fd5b1a60f81b82828151811061159757634e487b7160e01b600052603260045260246000fd5b60200101906001600160f81b031916908160001a90535060049490941c936115be81611a60565b9050611527565b5083156116145760405162461bcd60e51b815260206004820181905260248201527f537472696e67733a20686578206c656e67746820696e73756666696369656e746044820152606401610439565b9392505050565b61162481611247565b6040516001600160a01b038216907fbc7cd75a20ee27fd9adebab32041f755214dbc6bffa90cc0225b39da2e5c2d3b90600090a250565b60606001600160a01b0383163b6116da5760405162461bcd60e51b815260206004820152602660248201527f416464726573733a2064656c65676174652063616c6c20746f206e6f6e2d636f60448201527f6e747261637400000000000000000000000000000000000000000000000000006064820152608401610439565b600080846001600160a01b0316846040516116f5919061192d565b600060405180830381855af49150503d8060008114611730576040519150601f19603f3d011682016040523d82523d6000602084013e611735565b606091505b509150915061175d8282604051806060016040528060278152602001611aa460279139611766565b95945050505050565b60608315611775575081611614565b8251156117855782518084602001fd5b8160405162461bcd60e51b815260040161043991906119ca565b80356001600160a01b03811681146117b657600080fd5b919050565b6000602082840312156117cc578081fd5b6116148261179f565b600080604083850312156117e7578081fd5b6117f08361179f565b9150602083013567ffffffffffffffff8082111561180c578283fd5b818501915085601f83011261181f578283fd5b81358181111561183157611831611a8d565b604051601f8201601f19908116603f0116810190838211818310171561185957611859611a8d565b81604052828152886020848701011115611871578586fd5b82602086016020830137856020848301015280955050505050509250929050565b6000602082840312156118a3578081fd5b5035919050565b6000602082840312156118bb578081fd5b5051919050565b600080604083850312156118d4578182fd5b823591506118e46020840161179f565b90509250929050565b6000602082840312156118fe578081fd5b81357fffffffff0000000000000000000000000000000000000000000000000000000081168114611614578182fd5b6000825161193f818460208701611a34565b9190910192915050565b7f416363657373436f6e74726f6c3a206163636f756e7420000000000000000000815260008351611981816017850160208801611a34565b7f206973206d697373696e6720726f6c652000000000000000000000000000000060179184019182015283516119be816028840160208801611a34565b01602801949350505050565b60208152600082518060208401526119e9816040850160208701611a34565b601f01601f19169190910160400192915050565b60008219821115611a1057611a10611a77565b500190565b6000816000190483118215151615611a2f57611a2f611a77565b500290565b60005b83811015611a4f578181015183820152602001611a37565b838111156113425750506000910152565b600081611a6f57611a6f611a77565b506000190190565b634e487b7160e01b600052601160045260246000fd5b634e487b7160e01b600052604160045260246000fdfe416464726573733a206c6f772d6c6576656c2064656c65676174652063616c6c206661696c6564a2646970667358221220167764ff03ec9c58ae07de57bf617051b7c7ca25635cd22837708c4f821fc4c664736f6c63430008040033",
  "linkReferences": {},
  "deployedLinkReferences": {}
}