{
  "_format": "hh-sol-artifact-1",
  "contractName": "Borrower",
  "sourceName": "contracts/protocol/Borrower.sol",
  "abi": [
    {
      "anonymous": false,
      "inputs": [
        {
          "indexed": false,
          "internalType": "address",
          "name": "previousAdmin",
          "type": "address"
        },
        {
          "indexed": false,
          "internalType": "address",
          "name": "newAdmin",
          "type": "address"
        }
      ],
      "name": "AdminChanged",
      "type": "event"
    },
    {
      "anonymous": false,
      "inputs": [
        {
          "indexed": true,
          "internalType": "address",
          "name": "beacon",
          "type": "address"
        }
      ],
      "name": "BeaconUpgraded",
      "type": "event"
    },
    {
      "anonymous": false,
      "inputs": [
        {
          "indexed": false,
          "internalType": "uint8",
          "name": "version",
          "type": "uint8"
        }
      ],
      "name": "Initialized",
      "type": "event"
    },
    {
      "anonymous": false,
      "inputs": [
        {
          "indexed": false,
          "internalType": "address",
          "name": "account",
          "type": "address"
        }
      ],
      "name": "Paused",
      "type": "event"
    },
    {
      "anonymous": false,
      "inputs": [
        {
          "indexed": true,
          "internalType": "bytes32",
          "name": "role",
          "type": "bytes32"
        },
        {
          "indexed": true,
          "internalType": "bytes32",
          "name": "previousAdminRole",
          "type": "bytes32"
        },
        {
          "indexed": true,
          "internalType": "bytes32",
          "name": "newAdminRole",
          "type": "bytes32"
        }
      ],
      "name": "RoleAdminChanged",
      "type": "event"
    },
    {
      "anonymous": false,
      "inputs": [
        {
          "indexed": true,
          "internalType": "bytes32",
          "name": "role",
          "type": "bytes32"
        },
        {
          "indexed": true,
          "internalType": "address",
          "name": "account",
          "type": "address"
        },
        {
          "indexed": true,
          "internalType": "address",
          "name": "sender",
          "type": "address"
        }
      ],
      "name": "RoleGranted",
      "type": "event"
    },
    {
      "anonymous": false,
      "inputs": [
        {
          "indexed": true,
          "internalType": "bytes32",
          "name": "role",
          "type": "bytes32"
        },
        {
          "indexed": true,
          "internalType": "address",
          "name": "account",
          "type": "address"
        },
        {
          "indexed": true,
          "internalType": "address",
          "name": "sender",
          "type": "address"
        }
      ],
      "name": "RoleRevoked",
      "type": "event"
    },
    {
      "anonymous": false,
      "inputs": [
        {
          "indexed": false,
          "internalType": "address",
          "name": "account",
          "type": "address"
        }
      ],
      "name": "Unpaused",
      "type": "event"
    },
    {
      "anonymous": false,
      "inputs": [
        {
          "indexed": true,
          "internalType": "address",
          "name": "implementation",
          "type": "address"
        }
      ],
      "name": "Upgraded",
      "type": "event"
    },
    {
      "inputs": [],
      "name": "ADMIN_ROLE",
      "outputs": [
        {
          "internalType": "bytes32",
          "name": "",
          "type": "bytes32"
        }
      ],
      "stateMutability": "view",
      "type": "function"
    },
    {
      "inputs": [],
      "name": "DEFAULT_ADMIN_ROLE",
      "outputs": [
        {
          "internalType": "bytes32",
          "name": "",
          "type": "bytes32"
        }
      ],
      "stateMutability": "view",
      "type": "function"
    },
    {
      "inputs": [],
      "name": "PAUSER_ROLE",
      "outputs": [
        {
          "internalType": "bytes32",
          "name": "",
          "type": "bytes32"
        }
      ],
      "stateMutability": "view",
      "type": "function"
    },
    {
      "inputs": [
        {
          "internalType": "address",
          "name": "owner",
          "type": "address"
        }
      ],
      "name": "_BaseUpgradeablePausable_init",
      "outputs": [],
      "stateMutability": "nonpayable",
      "type": "function"
    },
    {
      "inputs": [],
      "name": "__PauserPausable__init",
      "outputs": [],
      "stateMutability": "nonpayable",
      "type": "function"
    },
    {
      "inputs": [
        {
          "internalType": "address",
          "name": "",
          "type": "address"
        }
      ],
      "name": "borrowerProfile",
      "outputs": [
        {
          "internalType": "string",
          "name": "",
          "type": "string"
        }
      ],
      "stateMutability": "view",
      "type": "function"
    },
    {
      "inputs": [
        {
          "internalType": "bytes32",
          "name": "role",
          "type": "bytes32"
        }
      ],
      "name": "getRoleAdmin",
      "outputs": [
        {
          "internalType": "bytes32",
          "name": "",
          "type": "bytes32"
        }
      ],
      "stateMutability": "view",
      "type": "function"
    },
    {
      "inputs": [
        {
          "internalType": "bytes32",
          "name": "role",
          "type": "bytes32"
        },
        {
          "internalType": "address",
          "name": "account",
          "type": "address"
        }
      ],
      "name": "grantRole",
      "outputs": [],
      "stateMutability": "nonpayable",
      "type": "function"
    },
    {
      "inputs": [
        {
          "internalType": "bytes32",
          "name": "role",
          "type": "bytes32"
        },
        {
          "internalType": "address",
          "name": "account",
          "type": "address"
        }
      ],
      "name": "hasRole",
      "outputs": [
        {
          "internalType": "bool",
          "name": "",
          "type": "bool"
        }
      ],
      "stateMutability": "view",
      "type": "function"
    },
    {
      "inputs": [
        {
          "internalType": "contract DygnifyConfig",
          "name": "_dygnifyConfig",
          "type": "address"
        }
      ],
      "name": "initialize",
      "outputs": [],
      "stateMutability": "nonpayable",
      "type": "function"
    },
    {
      "inputs": [],
      "name": "isAdmin",
      "outputs": [
        {
          "internalType": "bool",
          "name": "",
          "type": "bool"
        }
      ],
      "stateMutability": "view",
      "type": "function"
    },
    {
      "inputs": [],
      "name": "pause",
      "outputs": [],
      "stateMutability": "nonpayable",
      "type": "function"
    },
    {
      "inputs": [],
      "name": "paused",
      "outputs": [
        {
          "internalType": "bool",
          "name": "",
          "type": "bool"
        }
      ],
      "stateMutability": "view",
      "type": "function"
    },
    {
      "inputs": [],
      "name": "proxiableUUID",
      "outputs": [
        {
          "internalType": "bytes32",
          "name": "",
          "type": "bytes32"
        }
      ],
      "stateMutability": "view",
      "type": "function"
    },
    {
      "inputs": [
        {
          "internalType": "bytes32",
          "name": "role",
          "type": "bytes32"
        },
        {
          "internalType": "address",
          "name": "account",
          "type": "address"
        }
      ],
      "name": "renounceRole",
      "outputs": [],
      "stateMutability": "nonpayable",
      "type": "function"
    },
    {
      "inputs": [
        {
          "internalType": "bytes32",
          "name": "role",
          "type": "bytes32"
        },
        {
          "internalType": "address",
          "name": "account",
          "type": "address"
        }
      ],
      "name": "revokeRole",
      "outputs": [],
      "stateMutability": "nonpayable",
      "type": "function"
    },
    {
      "inputs": [
        {
          "internalType": "bytes4",
          "name": "interfaceId",
          "type": "bytes4"
        }
      ],
      "name": "supportsInterface",
      "outputs": [
        {
          "internalType": "bool",
          "name": "",
          "type": "bool"
        }
      ],
      "stateMutability": "view",
      "type": "function"
    },
    {
      "inputs": [],
      "name": "unpause",
      "outputs": [],
      "stateMutability": "nonpayable",
      "type": "function"
    },
    {
      "inputs": [
        {
          "internalType": "string",
          "name": "_cid",
          "type": "string"
        }
      ],
      "name": "updateBorrowerProfile",
      "outputs": [],
      "stateMutability": "nonpayable",
      "type": "function"
    },
    {
      "inputs": [
        {
          "internalType": "address",
          "name": "newImplementation",
          "type": "address"
        }
      ],
      "name": "upgradeTo",
      "outputs": [],
      "stateMutability": "nonpayable",
      "type": "function"
    },
    {
      "inputs": [
        {
          "internalType": "address",
          "name": "newImplementation",
          "type": "address"
        },
        {
          "internalType": "bytes",
          "name": "data",
          "type": "bytes"
        }
      ],
      "name": "upgradeToAndCall",
      "outputs": [],
      "stateMutability": "payable",
      "type": "function"
    }
  ],
  "bytecode": "0x60a06040523060601b60805234801561001757600080fd5b5060805160601c61213f61005260003960008181610642015281816106c701528181610853015281816108d80152610add015261213f6000f3fe60806040526004361061016a5760003560e01c80635c975abb116100cb578063a12dde4d1161007f578063c4d66de811610059578063c4d66de8146103d4578063d547741f146103f4578063e63ab1e91461041457600080fd5b8063a12dde4d1461038a578063a217fddf146103aa578063b6db75a0146103bf57600080fd5b806375b238fc116100b057806375b238fc146102fb5780638456cb591461032f57806391d148541461034457600080fd5b80635c975abb146102c357806373075fcc146102db57600080fd5b80633659cfe6116101225780634f1ef286116101075780634f1ef28614610286578063526d81f61461029957806352d1902d146102ae57600080fd5b80633659cfe6146102515780633f4ba83a1461027157600080fd5b8063248a9ca311610153578063248a9ca3146101d15780632f2ff15d1461020f57806336568abe1461023157600080fd5b806301ffc9a71461016f57806304a550d1146101a4575b600080fd5b34801561017b57600080fd5b5061018f61018a366004611e6f565b610448565b60405190151581526020015b60405180910390f35b3480156101b057600080fd5b506101c46101bf366004611d19565b6104e1565b60405161019b9190611fb9565b3480156101dd57600080fd5b506102016101ec366004611e10565b60009081526065602052604090206001015490565b60405190815260200161019b565b34801561021b57600080fd5b5061022f61022a366004611e40565b61057c565b005b34801561023d57600080fd5b5061022f61024c366004611e40565b6105a6565b34801561025d57600080fd5b5061022f61026c366004611d19565b610637565b34801561027d57600080fd5b5061022f6107b3565b61022f610294366004611d51565b610848565b3480156102a557600080fd5b5061022f6109b1565b3480156102ba57600080fd5b50610201610ad0565b3480156102cf57600080fd5b5060975460ff1661018f565b3480156102e757600080fd5b5061022f6102f6366004611eaf565b610b95565b34801561030757600080fd5b506102017fa49807205ce4d355092ef5a8a18f56e8913cf4a201fbe287825b095693c2177581565b34801561033b57600080fd5b5061022f610bfd565b34801561035057600080fd5b5061018f61035f366004611e40565b60009182526065602090815260408084206001600160a01b0393909316845291905290205460ff1690565b34801561039657600080fd5b5061022f6103a5366004611d19565b610c90565b3480156103b657600080fd5b50610201600081565b3480156103cb57600080fd5b5061018f610e31565b3480156103e057600080fd5b5061022f6103ef366004611d19565b610e62565b34801561040057600080fd5b5061022f61040f366004611e40565b61106a565b34801561042057600080fd5b506102017f65d7a28e3265b37a6474929f336521b332c1681b933f6cb9f3376673440d862a81565b60007fffffffff0000000000000000000000000000000000000000000000000000000082167f7965db0b0000000000000000000000000000000000000000000000000000000014806104db57507f01ffc9a7000000000000000000000000000000000000000000000000000000007fffffffff000000000000000000000000000000000000000000000000000000008316145b92915050565b61016060205260009081526040902080546104fb90612066565b80601f016020809104026020016040519081016040528092919081815260200182805461052790612066565b80156105745780601f1061054957610100808354040283529160200191610574565b820191906000526020600020905b81548152906001019060200180831161055757829003601f168201915b505050505081565b6000828152606560205260409020600101546105978161108f565b6105a18383611099565b505050565b6001600160a01b03811633146106295760405162461bcd60e51b815260206004820152602f60248201527f416363657373436f6e74726f6c3a2063616e206f6e6c792072656e6f756e636560448201527f20726f6c657320666f722073656c66000000000000000000000000000000000060648201526084015b60405180910390fd5b610633828261113b565b5050565b306001600160a01b037f00000000000000000000000000000000000000000000000000000000000000001614156106c55760405162461bcd60e51b815260206004820152602c60248201527f46756e6374696f6e206d7573742062652063616c6c6564207468726f7567682060448201526b19195b1959d85d1958d85b1b60a21b6064820152608401610620565b7f00000000000000000000000000000000000000000000000000000000000000006001600160a01b03166107207f360894a13ba1a3210667c828492db98dca3e2076cc3735a920a3ca505d382bbc546001600160a01b031690565b6001600160a01b03161461078b5760405162461bcd60e51b815260206004820152602c60248201527f46756e6374696f6e206d7573742062652063616c6c6564207468726f7567682060448201526b6163746976652070726f787960a01b6064820152608401610620565b610794816111be565b604080516000808252602082019092526107b091839190611238565b50565b6107dd7f65d7a28e3265b37a6474929f336521b332c1681b933f6cb9f3376673440d862a3361035f565b61083e5760405162461bcd60e51b815260206004820152602c60248201527f4d75737420686176652070617573657220726f6c6520746f20706572666f726d60448201526b103a3434b99030b1ba34b7b760a11b6064820152608401610620565b6108466113e7565b565b306001600160a01b037f00000000000000000000000000000000000000000000000000000000000000001614156108d65760405162461bcd60e51b815260206004820152602c60248201527f46756e6374696f6e206d7573742062652063616c6c6564207468726f7567682060448201526b19195b1959d85d1958d85b1b60a21b6064820152608401610620565b7f00000000000000000000000000000000000000000000000000000000000000006001600160a01b03166109317f360894a13ba1a3210667c828492db98dca3e2076cc3735a920a3ca505d382bbc546001600160a01b031690565b6001600160a01b03161461099c5760405162461bcd60e51b815260206004820152602c60248201527f46756e6374696f6e206d7573742062652063616c6c6564207468726f7567682060448201526b6163746976652070726f787960a01b6064820152608401610620565b6109a5826111be565b61063382826001611238565b600054610100900460ff16158080156109d15750600054600160ff909116105b806109eb5750303b1580156109eb575060005460ff166001145b610a5d5760405162461bcd60e51b815260206004820152602e60248201527f496e697469616c697a61626c653a20636f6e747261637420697320616c72656160448201527f647920696e697469616c697a65640000000000000000000000000000000000006064820152608401610620565b6000805460ff191660011790558015610a80576000805461ff0019166101001790555b610a88611439565b80156107b0576000805461ff0019169055604051600181527f7f26b83ff96e1f2b6a682f133852f6798a09c465da95921460cefb38474024989060200160405180910390a150565b6000306001600160a01b037f00000000000000000000000000000000000000000000000000000000000000001614610b705760405162461bcd60e51b815260206004820152603860248201527f555550535570677261646561626c653a206d757374206e6f742062652063616c60448201527f6c6564207468726f7567682064656c656761746563616c6c00000000000000006064820152608401610620565b507f360894a13ba1a3210667c828492db98dca3e2076cc3735a920a3ca505d382bbc90565b80610be25760405162461bcd60e51b815260206004820152600b60248201527f496e76616c6964204349440000000000000000000000000000000000000000006044820152606401610620565b336000908152610160602052604090206105a1908383611c80565b610c277f65d7a28e3265b37a6474929f336521b332c1681b933f6cb9f3376673440d862a3361035f565b610c885760405162461bcd60e51b815260206004820152602c60248201527f4d75737420686176652070617573657220726f6c6520746f20706572666f726d60448201526b103a3434b99030b1ba34b7b760a11b6064820152608401610620565b6108466114b0565b600054610100900460ff16610cfb5760405162461bcd60e51b815260206004820152602b60248201527f496e697469616c697a61626c653a20636f6e7472616374206973206e6f74206960448201526a6e697469616c697a696e6760a81b6064820152608401610620565b6001600160a01b038116610d515760405162461bcd60e51b815260206004820181905260248201527f4f776e65722063616e6e6f7420626520746865207a65726f20616464726573736044820152606401610620565b610d596114ed565b610d61611439565b610d69611558565b610d937fa49807205ce4d355092ef5a8a18f56e8913cf4a201fbe287825b095693c21775826115ca565b610dbd7f65d7a28e3265b37a6474929f336521b332c1681b933f6cb9f3376673440d862a826115ca565b610e077f65d7a28e3265b37a6474929f336521b332c1681b933f6cb9f3376673440d862a7fa49807205ce4d355092ef5a8a18f56e8913cf4a201fbe287825b095693c217756115d4565b6107b07fa49807205ce4d355092ef5a8a18f56e8913cf4a201fbe287825b095693c21775806115d4565b6000610e5d7fa49807205ce4d355092ef5a8a18f56e8913cf4a201fbe287825b095693c217753361035f565b905090565b600054610100900460ff1615808015610e825750600054600160ff909116105b80610e9c5750303b158015610e9c575060005460ff166001145b610f0e5760405162461bcd60e51b815260206004820152602e60248201527f496e697469616c697a61626c653a20636f6e747261637420697320616c72656160448201527f647920696e697469616c697a65640000000000000000000000000000000000006064820152608401610620565b6000805460ff191660011790558015610f31576000805461ff0019166101001790555b6001600160a01b038216610f875760405162461bcd60e51b815260206004820152601660248201527f496e76616c696420636f6e6669672061646472657373000000000000000000006044820152606401610620565b61015f805473ffffffffffffffffffffffffffffffffffffffff19166001600160a01b038416908117909155600090610fbf9061161f565b90506001600160a01b0381166110175760405162461bcd60e51b815260206004820152600d60248201527f496e76616c6964204f776e6572000000000000000000000000000000000000006044820152606401610620565b61102081610c90565b508015610633576000805461ff0019169055604051600181527f7f26b83ff96e1f2b6a682f133852f6798a09c465da95921460cefb38474024989060200160405180910390a15050565b6000828152606560205260409020600101546110858161108f565b6105a1838361113b565b6107b081336116b3565b60008281526065602090815260408083206001600160a01b038516845290915290205460ff166106335760008281526065602090815260408083206001600160a01b03851684529091529020805460ff191660011790556110f73390565b6001600160a01b0316816001600160a01b0316837f2f8788117e7eff1d82e926ec794901d17c78024a50270940304540a733656f0d60405160405180910390a45050565b60008281526065602090815260408083206001600160a01b038516845290915290205460ff16156106335760008281526065602090815260408083206001600160a01b0385168085529252808320805460ff1916905551339285917ff6391f5c32d9c69d2a47ea670b442974b53935d1edc7fd64eb21e047a839171b9190a45050565b6111c6610e31565b6107b05760405162461bcd60e51b815260206004820152602b60248201527f4d75737420686176652061646d696e20726f6c6520746f20706572666f726d2060448201527f7468697320616374696f6e0000000000000000000000000000000000000000006064820152608401610620565b7f4910fdfa16fed3260ed0e7147f7cc6da11a60208b5b9406d12a635614ffd91435460ff161561126b576105a183611733565b826001600160a01b03166352d1902d6040518163ffffffff1660e01b815260040160206040518083038186803b1580156112a457600080fd5b505afa9250505080156112d4575060408051601f3d908101601f191682019092526112d191810190611e28565b60015b6113465760405162461bcd60e51b815260206004820152602e60248201527f45524331393637557067726164653a206e657720696d706c656d656e7461746960448201527f6f6e206973206e6f7420555550530000000000000000000000000000000000006064820152608401610620565b7f360894a13ba1a3210667c828492db98dca3e2076cc3735a920a3ca505d382bbc81146113db5760405162461bcd60e51b815260206004820152602960248201527f45524331393637557067726164653a20756e737570706f727465642070726f7860448201527f6961626c655555494400000000000000000000000000000000000000000000006064820152608401610620565b506105a18383836117fe565b6113ef611829565b6097805460ff191690557f5db9ee0a495bf2e6ff9c91a7834c1ba4fdd244a5e8aa4e537bd38aeae4b073aa335b6040516001600160a01b03909116815260200160405180910390a1565b600054610100900460ff166114a45760405162461bcd60e51b815260206004820152602b60248201527f496e697469616c697a61626c653a20636f6e7472616374206973206e6f74206960448201526a6e697469616c697a696e6760a81b6064820152608401610620565b6097805460ff19169055565b6114b861187b565b6097805460ff191660011790557f62e78cea01bee320cd4e420270b5ea74000d11b0c9f74754ebdbfc544b05a25861141c3390565b600054610100900460ff166108465760405162461bcd60e51b815260206004820152602b60248201527f496e697469616c697a61626c653a20636f6e7472616374206973206e6f74206960448201526a6e697469616c697a696e6760a81b6064820152608401610620565b600054610100900460ff166115c35760405162461bcd60e51b815260206004820152602b60248201527f496e697469616c697a61626c653a20636f6e7472616374206973206e6f74206960448201526a6e697469616c697a696e6760a81b6064820152608401610620565b600160c955565b6106338282611099565b600082815260656020526040808220600101805490849055905190918391839186917fbd79b86ffe0ab8e8776151514217cd7cacd52c909f66475c3af44e129f0b00ff9190a4505050565b6040517fb93f9b0a000000000000000000000000000000000000000000000000000000008152600060048201819052906001600160a01b0383169063b93f9b0a9060240160206040518083038186803b15801561167b57600080fd5b505afa15801561168f573d6000803e3d6000fd5b505050506040513d601f19601f820116820180604052508101906104db9190611d35565b60008281526065602090815260408083206001600160a01b038516845290915290205460ff16610633576116f1816001600160a01b031660146118ce565b6116fc8360206118ce565b60405160200161170d929190611f38565b60408051601f198184030181529082905262461bcd60e51b825261062091600401611fb9565b6001600160a01b0381163b6117b05760405162461bcd60e51b815260206004820152602d60248201527f455243313936373a206e657720696d706c656d656e746174696f6e206973206e60448201527f6f74206120636f6e7472616374000000000000000000000000000000000000006064820152608401610620565b7f360894a13ba1a3210667c828492db98dca3e2076cc3735a920a3ca505d382bbc805473ffffffffffffffffffffffffffffffffffffffff19166001600160a01b0392909216919091179055565b61180783611afc565b6000825111806118145750805b156105a1576118238383611b3c565b50505050565b60975460ff166108465760405162461bcd60e51b815260206004820152601460248201527f5061757361626c653a206e6f74207061757365640000000000000000000000006044820152606401610620565b60975460ff16156108465760405162461bcd60e51b815260206004820152601060248201527f5061757361626c653a20706175736564000000000000000000000000000000006044820152606401610620565b606060006118dd836002612004565b6118e8906002611fec565b67ffffffffffffffff81111561190e57634e487b7160e01b600052604160045260246000fd5b6040519080825280601f01601f191660200182016040528015611938576020820181803683370190505b5090507f30000000000000000000000000000000000000000000000000000000000000008160008151811061197d57634e487b7160e01b600052603260045260246000fd5b60200101906001600160f81b031916908160001a9053507f7800000000000000000000000000000000000000000000000000000000000000816001815181106119d657634e487b7160e01b600052603260045260246000fd5b60200101906001600160f81b031916908160001a90535060006119fa846002612004565b611a05906001611fec565b90505b6001811115611aa6577f303132333435363738396162636465660000000000000000000000000000000085600f1660108110611a5457634e487b7160e01b600052603260045260246000fd5b1a60f81b828281518110611a7857634e487b7160e01b600052603260045260246000fd5b60200101906001600160f81b031916908160001a90535060049490941c93611a9f8161204f565b9050611a08565b508315611af55760405162461bcd60e51b815260206004820181905260248201527f537472696e67733a20686578206c656e67746820696e73756666696369656e746044820152606401610620565b9392505050565b611b0581611733565b6040516001600160a01b038216907fbc7cd75a20ee27fd9adebab32041f755214dbc6bffa90cc0225b39da2e5c2d3b90600090a250565b60606001600160a01b0383163b611bbb5760405162461bcd60e51b815260206004820152602660248201527f416464726573733a2064656c65676174652063616c6c20746f206e6f6e2d636f60448201527f6e747261637400000000000000000000000000000000000000000000000000006064820152608401610620565b600080846001600160a01b031684604051611bd69190611f1c565b600060405180830381855af49150503d8060008114611c11576040519150601f19603f3d011682016040523d82523d6000602084013e611c16565b606091505b5091509150611c3e82826040518060600160405280602781526020016120e360279139611c47565b95945050505050565b60608315611c56575081611af5565b825115611c665782518084602001fd5b8160405162461bcd60e51b81526004016106209190611fb9565b828054611c8c90612066565b90600052602060002090601f016020900481019282611cae5760008555611cf4565b82601f10611cc75782800160ff19823516178555611cf4565b82800160010185558215611cf4579182015b82811115611cf4578235825591602001919060010190611cd9565b50611d00929150611d04565b5090565b5b80821115611d005760008155600101611d05565b600060208284031215611d2a578081fd5b8135611af5816120cd565b600060208284031215611d46578081fd5b8151611af5816120cd565b60008060408385031215611d63578081fd5b8235611d6e816120cd565b9150602083013567ffffffffffffffff80821115611d8a578283fd5b818501915085601f830112611d9d578283fd5b813581811115611daf57611daf6120b7565b604051601f8201601f19908116603f01168101908382118183101715611dd757611dd76120b7565b81604052828152886020848701011115611def578586fd5b82602086016020830137856020848301015280955050505050509250929050565b600060208284031215611e21578081fd5b5035919050565b600060208284031215611e39578081fd5b5051919050565b60008060408385031215611e52578182fd5b823591506020830135611e64816120cd565b809150509250929050565b600060208284031215611e80578081fd5b81357fffffffff0000000000000000000000000000000000000000000000000000000081168114611af5578182fd5b60008060208385031215611ec1578182fd5b823567ffffffffffffffff80821115611ed8578384fd5b818501915085601f830112611eeb578384fd5b813581811115611ef9578485fd5b866020828501011115611f0a578485fd5b60209290920196919550909350505050565b60008251611f2e818460208701612023565b9190910192915050565b7f416363657373436f6e74726f6c3a206163636f756e7420000000000000000000815260008351611f70816017850160208801612023565b7f206973206d697373696e6720726f6c65200000000000000000000000000000006017918401918201528351611fad816028840160208801612023565b01602801949350505050565b6020815260008251806020840152611fd8816040850160208701612023565b601f01601f19169190910160400192915050565b60008219821115611fff57611fff6120a1565b500190565b600081600019048311821515161561201e5761201e6120a1565b500290565b60005b8381101561203e578181015183820152602001612026565b838111156118235750506000910152565b60008161205e5761205e6120a1565b506000190190565b600181811c9082168061207a57607f821691505b6020821081141561209b57634e487b7160e01b600052602260045260246000fd5b50919050565b634e487b7160e01b600052601160045260246000fd5b634e487b7160e01b600052604160045260246000fd5b6001600160a01b03811681146107b057600080fdfe416464726573733a206c6f772d6c6576656c2064656c65676174652063616c6c206661696c6564a2646970667358221220aa4b05ec33e2ba165affd80d85f2997c5683931a685db1e30599b82e7ec7f59264736f6c63430008040033",
  "linkReferences": {},
  "deployedLinkReferences": {}
}