{
  "_format": "hh-sol-artifact-1",
  "contractName": "Borrower",
  "sourceName": "contracts/protocol/Borrower.sol",
  "abi": [
    {
      "anonymous": false,
      "inputs": [
        {
          "indexed": false,
          "internalType": "address",
          "name": "previousAdmin",
          "type": "address"
        },
        {
          "indexed": false,
          "internalType": "address",
          "name": "newAdmin",
          "type": "address"
        }
      ],
      "name": "AdminChanged",
      "type": "event"
    },
    {
      "anonymous": false,
      "inputs": [
        {
          "indexed": true,
          "internalType": "address",
          "name": "beacon",
          "type": "address"
        }
      ],
      "name": "BeaconUpgraded",
      "type": "event"
    },
    {
      "anonymous": false,
      "inputs": [
        {
          "indexed": false,
          "internalType": "uint8",
          "name": "version",
          "type": "uint8"
        }
      ],
      "name": "Initialized",
      "type": "event"
    },
    {
      "anonymous": false,
      "inputs": [
        {
          "indexed": false,
          "internalType": "address",
          "name": "account",
          "type": "address"
        }
      ],
      "name": "Paused",
      "type": "event"
    },
    {
      "anonymous": false,
      "inputs": [
        {
          "indexed": true,
          "internalType": "bytes32",
          "name": "role",
          "type": "bytes32"
        },
        {
          "indexed": true,
          "internalType": "bytes32",
          "name": "previousAdminRole",
          "type": "bytes32"
        },
        {
          "indexed": true,
          "internalType": "bytes32",
          "name": "newAdminRole",
          "type": "bytes32"
        }
      ],
      "name": "RoleAdminChanged",
      "type": "event"
    },
    {
      "anonymous": false,
      "inputs": [
        {
          "indexed": true,
          "internalType": "bytes32",
          "name": "role",
          "type": "bytes32"
        },
        {
          "indexed": true,
          "internalType": "address",
          "name": "account",
          "type": "address"
        },
        {
          "indexed": true,
          "internalType": "address",
          "name": "sender",
          "type": "address"
        }
      ],
      "name": "RoleGranted",
      "type": "event"
    },
    {
      "anonymous": false,
      "inputs": [
        {
          "indexed": true,
          "internalType": "bytes32",
          "name": "role",
          "type": "bytes32"
        },
        {
          "indexed": true,
          "internalType": "address",
          "name": "account",
          "type": "address"
        },
        {
          "indexed": true,
          "internalType": "address",
          "name": "sender",
          "type": "address"
        }
      ],
      "name": "RoleRevoked",
      "type": "event"
    },
    {
      "anonymous": false,
      "inputs": [
        {
          "indexed": false,
          "internalType": "address",
          "name": "account",
          "type": "address"
        }
      ],
      "name": "Unpaused",
      "type": "event"
    },
    {
      "anonymous": false,
      "inputs": [
        {
          "indexed": true,
          "internalType": "address",
          "name": "implementation",
          "type": "address"
        }
      ],
      "name": "Upgraded",
      "type": "event"
    },
    {
      "inputs": [],
      "name": "DEFAULT_ADMIN_ROLE",
      "outputs": [
        {
          "internalType": "bytes32",
          "name": "",
          "type": "bytes32"
        }
      ],
      "stateMutability": "view",
      "type": "function"
    },
    {
      "inputs": [
        {
          "internalType": "address",
          "name": "owner",
          "type": "address"
        }
      ],
      "name": "_BaseUpgradeablePausable_init",
      "outputs": [],
      "stateMutability": "nonpayable",
      "type": "function"
    },
    {
      "inputs": [],
      "name": "__PauserPausable__init",
      "outputs": [],
      "stateMutability": "nonpayable",
      "type": "function"
    },
    {
      "inputs": [
        {
          "internalType": "address",
          "name": "",
          "type": "address"
        }
      ],
      "name": "borrowerProfile",
      "outputs": [
        {
          "internalType": "string",
          "name": "",
          "type": "string"
        }
      ],
      "stateMutability": "view",
      "type": "function"
    },
    {
      "inputs": [
        {
          "internalType": "bytes32",
          "name": "role",
          "type": "bytes32"
        }
      ],
      "name": "getRoleAdmin",
      "outputs": [
        {
          "internalType": "bytes32",
          "name": "",
          "type": "bytes32"
        }
      ],
      "stateMutability": "view",
      "type": "function"
    },
    {
      "inputs": [
        {
          "internalType": "bytes32",
          "name": "role",
          "type": "bytes32"
        },
        {
          "internalType": "address",
          "name": "account",
          "type": "address"
        }
      ],
      "name": "grantRole",
      "outputs": [],
      "stateMutability": "nonpayable",
      "type": "function"
    },
    {
      "inputs": [
        {
          "internalType": "bytes32",
          "name": "role",
          "type": "bytes32"
        },
        {
          "internalType": "address",
          "name": "account",
          "type": "address"
        }
      ],
      "name": "hasRole",
      "outputs": [
        {
          "internalType": "bool",
          "name": "",
          "type": "bool"
        }
      ],
      "stateMutability": "view",
      "type": "function"
    },
    {
      "inputs": [
        {
          "internalType": "contract DygnifyConfig",
          "name": "_dygnifyConfig",
          "type": "address"
        }
      ],
      "name": "initialize",
      "outputs": [],
      "stateMutability": "nonpayable",
      "type": "function"
    },
    {
      "inputs": [],
      "name": "isAdmin",
      "outputs": [
        {
          "internalType": "bool",
          "name": "",
          "type": "bool"
        }
      ],
      "stateMutability": "view",
      "type": "function"
    },
    {
      "inputs": [],
      "name": "pause",
      "outputs": [],
      "stateMutability": "nonpayable",
      "type": "function"
    },
    {
      "inputs": [],
      "name": "paused",
      "outputs": [
        {
          "internalType": "bool",
          "name": "",
          "type": "bool"
        }
      ],
      "stateMutability": "view",
      "type": "function"
    },
    {
      "inputs": [],
      "name": "proxiableUUID",
      "outputs": [
        {
          "internalType": "bytes32",
          "name": "",
          "type": "bytes32"
        }
      ],
      "stateMutability": "view",
      "type": "function"
    },
    {
      "inputs": [
        {
          "internalType": "bytes32",
          "name": "role",
          "type": "bytes32"
        },
        {
          "internalType": "address",
          "name": "account",
          "type": "address"
        }
      ],
      "name": "renounceRole",
      "outputs": [],
      "stateMutability": "nonpayable",
      "type": "function"
    },
    {
      "inputs": [
        {
          "internalType": "bytes32",
          "name": "role",
          "type": "bytes32"
        },
        {
          "internalType": "address",
          "name": "account",
          "type": "address"
        }
      ],
      "name": "revokeRole",
      "outputs": [],
      "stateMutability": "nonpayable",
      "type": "function"
    },
    {
      "inputs": [
        {
          "internalType": "bytes4",
          "name": "interfaceId",
          "type": "bytes4"
        }
      ],
      "name": "supportsInterface",
      "outputs": [
        {
          "internalType": "bool",
          "name": "",
          "type": "bool"
        }
      ],
      "stateMutability": "view",
      "type": "function"
    },
    {
      "inputs": [],
      "name": "unpause",
      "outputs": [],
      "stateMutability": "nonpayable",
      "type": "function"
    },
    {
      "inputs": [
        {
          "internalType": "string",
          "name": "_cid",
          "type": "string"
        }
      ],
      "name": "updateBorrowerProfile",
      "outputs": [],
      "stateMutability": "nonpayable",
      "type": "function"
    },
    {
      "inputs": [
        {
          "internalType": "address",
          "name": "newImplementation",
          "type": "address"
        }
      ],
      "name": "upgradeTo",
      "outputs": [],
      "stateMutability": "nonpayable",
      "type": "function"
    },
    {
      "inputs": [
        {
          "internalType": "address",
          "name": "newImplementation",
          "type": "address"
        },
        {
          "internalType": "bytes",
          "name": "data",
          "type": "bytes"
        }
      ],
      "name": "upgradeToAndCall",
      "outputs": [],
      "stateMutability": "payable",
      "type": "function"
    }
  ],
  "bytecode": "0x60a06040523060601b60805234801561001757600080fd5b5060805160601c6120b0610052600039600081816105b401528181610639015281816107c60152818161084b0152610a5001526120b06000f3fe6080604052600436106101445760003560e01c806352d1902d116100c0578063a12dde4d11610074578063b6db75a011610059578063b6db75a014610365578063c4d66de81461037a578063d547741f1461039a57600080fd5b8063a12dde4d14610330578063a217fddf1461035057600080fd5b806373075fcc116100a557806373075fcc146102b55780638456cb59146102d557806391d14854146102ea57600080fd5b806352d1902d146102885780635c975abb1461029d57600080fd5b806336568abe116101175780633f4ba83a116100fc5780633f4ba83a1461024b5780634f1ef28614610260578063526d81f61461027357600080fd5b806336568abe1461020b5780633659cfe61461022b57600080fd5b806301ffc9a71461014957806304a550d11461017e578063248a9ca3146101ab5780632f2ff15d146101e9575b600080fd5b34801561015557600080fd5b50610169610164366004611de0565b6103ba565b60405190151581526020015b60405180910390f35b34801561018a57600080fd5b5061019e610199366004611c8a565b610453565b6040516101759190611f2a565b3480156101b757600080fd5b506101db6101c6366004611d81565b60009081526065602052604090206001015490565b604051908152602001610175565b3480156101f557600080fd5b50610209610204366004611db1565b6104ee565b005b34801561021757600080fd5b50610209610226366004611db1565b610518565b34801561023757600080fd5b50610209610246366004611c8a565b6105a9565b34801561025757600080fd5b50610209610725565b61020961026e366004611cc2565b6107bb565b34801561027f57600080fd5b50610209610924565b34801561029457600080fd5b506101db610a43565b3480156102a957600080fd5b5060975460ff16610169565b3480156102c157600080fd5b506102096102d0366004611e20565b610b08565b3480156102e157600080fd5b50610209610b70565b3480156102f657600080fd5b50610169610305366004611db1565b60009182526065602090815260408084206001600160a01b0393909316845291905290205460ff1690565b34801561033c57600080fd5b5061020961034b366004611c8a565b610c02565b34801561035c57600080fd5b506101db600081565b34801561037157600080fd5b50610169610da3565b34801561038657600080fd5b50610209610395366004611c8a565b610dd3565b3480156103a657600080fd5b506102096103b5366004611db1565b610fdb565b60007fffffffff0000000000000000000000000000000000000000000000000000000082167f7965db0b00000000000000000000000000000000000000000000000000000000148061044d57507f01ffc9a7000000000000000000000000000000000000000000000000000000007fffffffff000000000000000000000000000000000000000000000000000000008316145b92915050565b610160602052600090815260409020805461046d90611fd7565b80601f016020809104026020016040519081016040528092919081815260200182805461049990611fd7565b80156104e65780601f106104bb576101008083540402835291602001916104e6565b820191906000526020600020905b8154815290600101906020018083116104c957829003601f168201915b505050505081565b60008281526065602052604090206001015461050981611000565b610513838361100a565b505050565b6001600160a01b038116331461059b5760405162461bcd60e51b815260206004820152602f60248201527f416363657373436f6e74726f6c3a2063616e206f6e6c792072656e6f756e636560448201527f20726f6c657320666f722073656c66000000000000000000000000000000000060648201526084015b60405180910390fd5b6105a582826110ac565b5050565b306001600160a01b037f00000000000000000000000000000000000000000000000000000000000000001614156106375760405162461bcd60e51b815260206004820152602c60248201527f46756e6374696f6e206d7573742062652063616c6c6564207468726f7567682060448201526b19195b1959d85d1958d85b1b60a21b6064820152608401610592565b7f00000000000000000000000000000000000000000000000000000000000000006001600160a01b03166106927f360894a13ba1a3210667c828492db98dca3e2076cc3735a920a3ca505d382bbc546001600160a01b031690565b6001600160a01b0316146106fd5760405162461bcd60e51b815260206004820152602c60248201527f46756e6374696f6e206d7573742062652063616c6c6564207468726f7567682060448201526b6163746976652070726f787960a01b6064820152608401610592565b6107068161112f565b60408051600080825260208201909252610722918391906111a9565b50565b6107507f65d7a28e3265b37a6474929f336521b332c1681b933f6cb9f3376673440d862a5b33610305565b6107b15760405162461bcd60e51b815260206004820152602c60248201527f4d75737420686176652070617573657220726f6c6520746f20706572666f726d60448201526b103a3434b99030b1ba34b7b760a11b6064820152608401610592565b6107b9611358565b565b306001600160a01b037f00000000000000000000000000000000000000000000000000000000000000001614156108495760405162461bcd60e51b815260206004820152602c60248201527f46756e6374696f6e206d7573742062652063616c6c6564207468726f7567682060448201526b19195b1959d85d1958d85b1b60a21b6064820152608401610592565b7f00000000000000000000000000000000000000000000000000000000000000006001600160a01b03166108a47f360894a13ba1a3210667c828492db98dca3e2076cc3735a920a3ca505d382bbc546001600160a01b031690565b6001600160a01b03161461090f5760405162461bcd60e51b815260206004820152602c60248201527f46756e6374696f6e206d7573742062652063616c6c6564207468726f7567682060448201526b6163746976652070726f787960a01b6064820152608401610592565b6109188261112f565b6105a5828260016111a9565b600054610100900460ff16158080156109445750600054600160ff909116105b8061095e5750303b15801561095e575060005460ff166001145b6109d05760405162461bcd60e51b815260206004820152602e60248201527f496e697469616c697a61626c653a20636f6e747261637420697320616c72656160448201527f647920696e697469616c697a65640000000000000000000000000000000000006064820152608401610592565b6000805460ff1916600117905580156109f3576000805461ff0019166101001790555b6109fb6113aa565b8015610722576000805461ff0019169055604051600181527f7f26b83ff96e1f2b6a682f133852f6798a09c465da95921460cefb38474024989060200160405180910390a150565b6000306001600160a01b037f00000000000000000000000000000000000000000000000000000000000000001614610ae35760405162461bcd60e51b815260206004820152603860248201527f555550535570677261646561626c653a206d757374206e6f742062652063616c60448201527f6c6564207468726f7567682064656c656761746563616c6c00000000000000006064820152608401610592565b507f360894a13ba1a3210667c828492db98dca3e2076cc3735a920a3ca505d382bbc90565b80610b555760405162461bcd60e51b815260206004820152600b60248201527f496e76616c6964204349440000000000000000000000000000000000000000006044820152606401610592565b33600090815261016060205260409020610513908383611bf1565b610b997f65d7a28e3265b37a6474929f336521b332c1681b933f6cb9f3376673440d862a61074a565b610bfa5760405162461bcd60e51b815260206004820152602c60248201527f4d75737420686176652070617573657220726f6c6520746f20706572666f726d60448201526b103a3434b99030b1ba34b7b760a11b6064820152608401610592565b6107b9611421565b600054610100900460ff16610c6d5760405162461bcd60e51b815260206004820152602b60248201527f496e697469616c697a61626c653a20636f6e7472616374206973206e6f74206960448201526a6e697469616c697a696e6760a81b6064820152608401610592565b6001600160a01b038116610cc35760405162461bcd60e51b815260206004820181905260248201527f4f776e65722063616e6e6f7420626520746865207a65726f20616464726573736044820152606401610592565b610ccb61145e565b610cd36113aa565b610cdb6114c9565b610d067fa49807205ce4d355092ef5a8a18f56e8913cf4a201fbe287825b095693c217755b8261153b565b610d2f7f65d7a28e3265b37a6474929f336521b332c1681b933f6cb9f3376673440d862a610d00565b610d7a7f65d7a28e3265b37a6474929f336521b332c1681b933f6cb9f3376673440d862a5b7fa49807205ce4d355092ef5a8a18f56e8913cf4a201fbe287825b095693c21775611545565b6107227fa49807205ce4d355092ef5a8a18f56e8913cf4a201fbe287825b095693c21775610d54565b6000610dce7fa49807205ce4d355092ef5a8a18f56e8913cf4a201fbe287825b095693c2177561074a565b905090565b600054610100900460ff1615808015610df35750600054600160ff909116105b80610e0d5750303b158015610e0d575060005460ff166001145b610e7f5760405162461bcd60e51b815260206004820152602e60248201527f496e697469616c697a61626c653a20636f6e747261637420697320616c72656160448201527f647920696e697469616c697a65640000000000000000000000000000000000006064820152608401610592565b6000805460ff191660011790558015610ea2576000805461ff0019166101001790555b6001600160a01b038216610ef85760405162461bcd60e51b815260206004820152601660248201527f496e76616c696420636f6e6669672061646472657373000000000000000000006044820152606401610592565b61015f805473ffffffffffffffffffffffffffffffffffffffff19166001600160a01b038416908117909155600090610f3090611590565b90506001600160a01b038116610f885760405162461bcd60e51b815260206004820152600d60248201527f496e76616c6964204f776e6572000000000000000000000000000000000000006044820152606401610592565b610f9181610c02565b5080156105a5576000805461ff0019169055604051600181527f7f26b83ff96e1f2b6a682f133852f6798a09c465da95921460cefb38474024989060200160405180910390a15050565b600082815260656020526040902060010154610ff681611000565b61051383836110ac565b6107228133611624565b60008281526065602090815260408083206001600160a01b038516845290915290205460ff166105a55760008281526065602090815260408083206001600160a01b03851684529091529020805460ff191660011790556110683390565b6001600160a01b0316816001600160a01b0316837f2f8788117e7eff1d82e926ec794901d17c78024a50270940304540a733656f0d60405160405180910390a45050565b60008281526065602090815260408083206001600160a01b038516845290915290205460ff16156105a55760008281526065602090815260408083206001600160a01b0385168085529252808320805460ff1916905551339285917ff6391f5c32d9c69d2a47ea670b442974b53935d1edc7fd64eb21e047a839171b9190a45050565b611137610da3565b6107225760405162461bcd60e51b815260206004820152602b60248201527f4d75737420686176652061646d696e20726f6c6520746f20706572666f726d2060448201527f7468697320616374696f6e0000000000000000000000000000000000000000006064820152608401610592565b7f4910fdfa16fed3260ed0e7147f7cc6da11a60208b5b9406d12a635614ffd91435460ff16156111dc57610513836116a4565b826001600160a01b03166352d1902d6040518163ffffffff1660e01b815260040160206040518083038186803b15801561121557600080fd5b505afa925050508015611245575060408051601f3d908101601f1916820190925261124291810190611d99565b60015b6112b75760405162461bcd60e51b815260206004820152602e60248201527f45524331393637557067726164653a206e657720696d706c656d656e7461746960448201527f6f6e206973206e6f7420555550530000000000000000000000000000000000006064820152608401610592565b7f360894a13ba1a3210667c828492db98dca3e2076cc3735a920a3ca505d382bbc811461134c5760405162461bcd60e51b815260206004820152602960248201527f45524331393637557067726164653a20756e737570706f727465642070726f7860448201527f6961626c655555494400000000000000000000000000000000000000000000006064820152608401610592565b5061051383838361176f565b61136061179a565b6097805460ff191690557f5db9ee0a495bf2e6ff9c91a7834c1ba4fdd244a5e8aa4e537bd38aeae4b073aa335b6040516001600160a01b03909116815260200160405180910390a1565b600054610100900460ff166114155760405162461bcd60e51b815260206004820152602b60248201527f496e697469616c697a61626c653a20636f6e7472616374206973206e6f74206960448201526a6e697469616c697a696e6760a81b6064820152608401610592565b6097805460ff19169055565b6114296117ec565b6097805460ff191660011790557f62e78cea01bee320cd4e420270b5ea74000d11b0c9f74754ebdbfc544b05a25861138d3390565b600054610100900460ff166107b95760405162461bcd60e51b815260206004820152602b60248201527f496e697469616c697a61626c653a20636f6e7472616374206973206e6f74206960448201526a6e697469616c697a696e6760a81b6064820152608401610592565b600054610100900460ff166115345760405162461bcd60e51b815260206004820152602b60248201527f496e697469616c697a61626c653a20636f6e7472616374206973206e6f74206960448201526a6e697469616c697a696e6760a81b6064820152608401610592565b600160c955565b6105a5828261100a565b600082815260656020526040808220600101805490849055905190918391839186917fbd79b86ffe0ab8e8776151514217cd7cacd52c909f66475c3af44e129f0b00ff9190a4505050565b6040517fb93f9b0a000000000000000000000000000000000000000000000000000000008152600060048201819052906001600160a01b0383169063b93f9b0a9060240160206040518083038186803b1580156115ec57600080fd5b505afa158015611600573d6000803e3d6000fd5b505050506040513d601f19601f8201168201806040525081019061044d9190611ca6565b60008281526065602090815260408083206001600160a01b038516845290915290205460ff166105a557611662816001600160a01b0316601461183f565b61166d83602061183f565b60405160200161167e929190611ea9565b60408051601f198184030181529082905262461bcd60e51b825261059291600401611f2a565b6001600160a01b0381163b6117215760405162461bcd60e51b815260206004820152602d60248201527f455243313936373a206e657720696d706c656d656e746174696f6e206973206e60448201527f6f74206120636f6e7472616374000000000000000000000000000000000000006064820152608401610592565b7f360894a13ba1a3210667c828492db98dca3e2076cc3735a920a3ca505d382bbc805473ffffffffffffffffffffffffffffffffffffffff19166001600160a01b0392909216919091179055565b61177883611a6d565b6000825111806117855750805b15610513576117948383611aad565b50505050565b60975460ff166107b95760405162461bcd60e51b815260206004820152601460248201527f5061757361626c653a206e6f74207061757365640000000000000000000000006044820152606401610592565b60975460ff16156107b95760405162461bcd60e51b815260206004820152601060248201527f5061757361626c653a20706175736564000000000000000000000000000000006044820152606401610592565b6060600061184e836002611f75565b611859906002611f5d565b67ffffffffffffffff81111561187f57634e487b7160e01b600052604160045260246000fd5b6040519080825280601f01601f1916602001820160405280156118a9576020820181803683370190505b5090507f3000000000000000000000000000000000000000000000000000000000000000816000815181106118ee57634e487b7160e01b600052603260045260246000fd5b60200101906001600160f81b031916908160001a9053507f78000000000000000000000000000000000000000000000000000000000000008160018151811061194757634e487b7160e01b600052603260045260246000fd5b60200101906001600160f81b031916908160001a905350600061196b846002611f75565b611976906001611f5d565b90505b6001811115611a17577f303132333435363738396162636465660000000000000000000000000000000085600f16601081106119c557634e487b7160e01b600052603260045260246000fd5b1a60f81b8282815181106119e957634e487b7160e01b600052603260045260246000fd5b60200101906001600160f81b031916908160001a90535060049490941c93611a1081611fc0565b9050611979565b508315611a665760405162461bcd60e51b815260206004820181905260248201527f537472696e67733a20686578206c656e67746820696e73756666696369656e746044820152606401610592565b9392505050565b611a76816116a4565b6040516001600160a01b038216907fbc7cd75a20ee27fd9adebab32041f755214dbc6bffa90cc0225b39da2e5c2d3b90600090a250565b60606001600160a01b0383163b611b2c5760405162461bcd60e51b815260206004820152602660248201527f416464726573733a2064656c65676174652063616c6c20746f206e6f6e2d636f60448201527f6e747261637400000000000000000000000000000000000000000000000000006064820152608401610592565b600080846001600160a01b031684604051611b479190611e8d565b600060405180830381855af49150503d8060008114611b82576040519150601f19603f3d011682016040523d82523d6000602084013e611b87565b606091505b5091509150611baf828260405180606001604052806027815260200161205460279139611bb8565b95945050505050565b60608315611bc7575081611a66565b825115611bd75782518084602001fd5b8160405162461bcd60e51b81526004016105929190611f2a565b828054611bfd90611fd7565b90600052602060002090601f016020900481019282611c1f5760008555611c65565b82601f10611c385782800160ff19823516178555611c65565b82800160010185558215611c65579182015b82811115611c65578235825591602001919060010190611c4a565b50611c71929150611c75565b5090565b5b80821115611c715760008155600101611c76565b600060208284031215611c9b578081fd5b8135611a668161203e565b600060208284031215611cb7578081fd5b8151611a668161203e565b60008060408385031215611cd4578081fd5b8235611cdf8161203e565b9150602083013567ffffffffffffffff80821115611cfb578283fd5b818501915085601f830112611d0e578283fd5b813581811115611d2057611d20612028565b604051601f8201601f19908116603f01168101908382118183101715611d4857611d48612028565b81604052828152886020848701011115611d60578586fd5b82602086016020830137856020848301015280955050505050509250929050565b600060208284031215611d92578081fd5b5035919050565b600060208284031215611daa578081fd5b5051919050565b60008060408385031215611dc3578182fd5b823591506020830135611dd58161203e565b809150509250929050565b600060208284031215611df1578081fd5b81357fffffffff0000000000000000000000000000000000000000000000000000000081168114611a66578182fd5b60008060208385031215611e32578182fd5b823567ffffffffffffffff80821115611e49578384fd5b818501915085601f830112611e5c578384fd5b813581811115611e6a578485fd5b866020828501011115611e7b578485fd5b60209290920196919550909350505050565b60008251611e9f818460208701611f94565b9190910192915050565b7f416363657373436f6e74726f6c3a206163636f756e7420000000000000000000815260008351611ee1816017850160208801611f94565b7f206973206d697373696e6720726f6c65200000000000000000000000000000006017918401918201528351611f1e816028840160208801611f94565b01602801949350505050565b6020815260008251806020840152611f49816040850160208701611f94565b601f01601f19169190910160400192915050565b60008219821115611f7057611f70612012565b500190565b6000816000190483118215151615611f8f57611f8f612012565b500290565b60005b83811015611faf578181015183820152602001611f97565b838111156117945750506000910152565b600081611fcf57611fcf612012565b506000190190565b600181811c90821680611feb57607f821691505b6020821081141561200c57634e487b7160e01b600052602260045260246000fd5b50919050565b634e487b7160e01b600052601160045260246000fd5b634e487b7160e01b600052604160045260246000fd5b6001600160a01b038116811461072257600080fdfe416464726573733a206c6f772d6c6576656c2064656c65676174652063616c6c206661696c6564a264697066735822122062e6671304e47ce368bd001420d69daa78a02b394acaef6c1d212a07b34a492964736f6c63430008040033",
  "linkReferences": {},
  "deployedLinkReferences": {}
}