{
  "_format": "hh-sol-artifact-1",
  "contractName": "Borrower",
  "sourceName": "contracts/protocol/Borrower.sol",
  "abi": [
    {
      "anonymous": false,
      "inputs": [
        {
          "indexed": false,
          "internalType": "address",
          "name": "previousAdmin",
          "type": "address"
        },
        {
          "indexed": false,
          "internalType": "address",
          "name": "newAdmin",
          "type": "address"
        }
      ],
      "name": "AdminChanged",
      "type": "event"
    },
    {
      "anonymous": false,
      "inputs": [
        {
          "indexed": true,
          "internalType": "address",
          "name": "beacon",
          "type": "address"
        }
      ],
      "name": "BeaconUpgraded",
      "type": "event"
    },
    {
      "anonymous": false,
      "inputs": [
        {
          "indexed": false,
          "internalType": "uint8",
          "name": "version",
          "type": "uint8"
        }
      ],
      "name": "Initialized",
      "type": "event"
    },
    {
      "anonymous": false,
      "inputs": [
        {
          "indexed": false,
          "internalType": "address",
          "name": "account",
          "type": "address"
        }
      ],
      "name": "Paused",
      "type": "event"
    },
    {
      "anonymous": false,
      "inputs": [
        {
          "indexed": true,
          "internalType": "bytes32",
          "name": "role",
          "type": "bytes32"
        },
        {
          "indexed": true,
          "internalType": "bytes32",
          "name": "previousAdminRole",
          "type": "bytes32"
        },
        {
          "indexed": true,
          "internalType": "bytes32",
          "name": "newAdminRole",
          "type": "bytes32"
        }
      ],
      "name": "RoleAdminChanged",
      "type": "event"
    },
    {
      "anonymous": false,
      "inputs": [
        {
          "indexed": true,
          "internalType": "bytes32",
          "name": "role",
          "type": "bytes32"
        },
        {
          "indexed": true,
          "internalType": "address",
          "name": "account",
          "type": "address"
        },
        {
          "indexed": true,
          "internalType": "address",
          "name": "sender",
          "type": "address"
        }
      ],
      "name": "RoleGranted",
      "type": "event"
    },
    {
      "anonymous": false,
      "inputs": [
        {
          "indexed": true,
          "internalType": "bytes32",
          "name": "role",
          "type": "bytes32"
        },
        {
          "indexed": true,
          "internalType": "address",
          "name": "account",
          "type": "address"
        },
        {
          "indexed": true,
          "internalType": "address",
          "name": "sender",
          "type": "address"
        }
      ],
      "name": "RoleRevoked",
      "type": "event"
    },
    {
      "anonymous": false,
      "inputs": [
        {
          "indexed": false,
          "internalType": "address",
          "name": "account",
          "type": "address"
        }
      ],
      "name": "Unpaused",
      "type": "event"
    },
    {
      "anonymous": false,
      "inputs": [
        {
          "indexed": true,
          "internalType": "address",
          "name": "implementation",
          "type": "address"
        }
      ],
      "name": "Upgraded",
      "type": "event"
    },
    {
      "inputs": [],
      "name": "DEFAULT_ADMIN_ROLE",
      "outputs": [
        {
          "internalType": "bytes32",
          "name": "",
          "type": "bytes32"
        }
      ],
      "stateMutability": "view",
      "type": "function"
    },
    {
      "inputs": [
        {
          "internalType": "address",
          "name": "owner",
          "type": "address"
        }
      ],
      "name": "_BaseUpgradeablePausable_init",
      "outputs": [],
      "stateMutability": "nonpayable",
      "type": "function"
    },
    {
      "inputs": [],
      "name": "__PauserPausable__init",
      "outputs": [],
      "stateMutability": "nonpayable",
      "type": "function"
    },
    {
      "inputs": [
        {
          "internalType": "address",
          "name": "",
          "type": "address"
        }
      ],
      "name": "borrowerProfile",
      "outputs": [
        {
          "internalType": "string",
          "name": "",
          "type": "string"
        }
      ],
      "stateMutability": "view",
      "type": "function"
    },
    {
      "inputs": [
        {
          "internalType": "bytes32",
          "name": "role",
          "type": "bytes32"
        }
      ],
      "name": "getRoleAdmin",
      "outputs": [
        {
          "internalType": "bytes32",
          "name": "",
          "type": "bytes32"
        }
      ],
      "stateMutability": "view",
      "type": "function"
    },
    {
      "inputs": [
        {
          "internalType": "bytes32",
          "name": "role",
          "type": "bytes32"
        },
        {
          "internalType": "address",
          "name": "account",
          "type": "address"
        }
      ],
      "name": "grantRole",
      "outputs": [],
      "stateMutability": "nonpayable",
      "type": "function"
    },
    {
      "inputs": [
        {
          "internalType": "bytes32",
          "name": "role",
          "type": "bytes32"
        },
        {
          "internalType": "address",
          "name": "account",
          "type": "address"
        }
      ],
      "name": "hasRole",
      "outputs": [
        {
          "internalType": "bool",
          "name": "",
          "type": "bool"
        }
      ],
      "stateMutability": "view",
      "type": "function"
    },
    {
      "inputs": [
        {
          "internalType": "contract DygnifyConfig",
          "name": "_dygnifyConfig",
          "type": "address"
        }
      ],
      "name": "initialize",
      "outputs": [],
      "stateMutability": "nonpayable",
      "type": "function"
    },
    {
      "inputs": [],
      "name": "isAdmin",
      "outputs": [
        {
          "internalType": "bool",
          "name": "",
          "type": "bool"
        }
      ],
      "stateMutability": "view",
      "type": "function"
    },
    {
      "inputs": [],
      "name": "pause",
      "outputs": [],
      "stateMutability": "nonpayable",
      "type": "function"
    },
    {
      "inputs": [],
      "name": "paused",
      "outputs": [
        {
          "internalType": "bool",
          "name": "",
          "type": "bool"
        }
      ],
      "stateMutability": "view",
      "type": "function"
    },
    {
      "inputs": [],
      "name": "proxiableUUID",
      "outputs": [
        {
          "internalType": "bytes32",
          "name": "",
          "type": "bytes32"
        }
      ],
      "stateMutability": "view",
      "type": "function"
    },
    {
      "inputs": [
        {
          "internalType": "bytes32",
          "name": "role",
          "type": "bytes32"
        },
        {
          "internalType": "address",
          "name": "account",
          "type": "address"
        }
      ],
      "name": "renounceRole",
      "outputs": [],
      "stateMutability": "nonpayable",
      "type": "function"
    },
    {
      "inputs": [
        {
          "internalType": "bytes32",
          "name": "role",
          "type": "bytes32"
        },
        {
          "internalType": "address",
          "name": "account",
          "type": "address"
        }
      ],
      "name": "revokeRole",
      "outputs": [],
      "stateMutability": "nonpayable",
      "type": "function"
    },
    {
      "inputs": [
        {
          "internalType": "bytes4",
          "name": "interfaceId",
          "type": "bytes4"
        }
      ],
      "name": "supportsInterface",
      "outputs": [
        {
          "internalType": "bool",
          "name": "",
          "type": "bool"
        }
      ],
      "stateMutability": "view",
      "type": "function"
    },
    {
      "inputs": [],
      "name": "unpause",
      "outputs": [],
      "stateMutability": "nonpayable",
      "type": "function"
    },
    {
      "inputs": [
        {
          "internalType": "string",
          "name": "_cid",
          "type": "string"
        }
      ],
      "name": "updateBorrowerProfile",
      "outputs": [],
      "stateMutability": "nonpayable",
      "type": "function"
    },
    {
      "inputs": [
        {
          "internalType": "address",
          "name": "newImplementation",
          "type": "address"
        }
      ],
      "name": "upgradeTo",
      "outputs": [],
      "stateMutability": "nonpayable",
      "type": "function"
    },
    {
      "inputs": [
        {
          "internalType": "address",
          "name": "newImplementation",
          "type": "address"
        },
        {
          "internalType": "bytes",
          "name": "data",
          "type": "bytes"
        }
      ],
      "name": "upgradeToAndCall",
      "outputs": [],
      "stateMutability": "payable",
      "type": "function"
    }
  ],
  "bytecode": "0x60a06040523060601b60805234801561001757600080fd5b5060805160601c611bbb610052600039600081816104de0152818161051e015281816105de0152818161061e015261075f0152611bbb6000f3fe6080604052600436106101045760003560e01c806352d1902d116100a0578063a12dde4d11610064578063a12dde4d146102ca578063a217fddf146102ea578063b6db75a0146102ff578063c4d66de814610314578063d547741f1461033457600080fd5b806352d1902d146102485780635c975abb1461025d57806373075fcc146102755780638456cb591461029557806391d14854146102aa57600080fd5b806301ffc9a71461010957806304a550d11461013e578063248a9ca31461016b5780632f2ff15d146101a957806336568abe146101cb5780633659cfe6146101eb5780633f4ba83a1461020b5780634f1ef28614610220578063526d81f614610233575b600080fd5b34801561011557600080fd5b50610129610124366004611778565b610354565b60405190151581526020015b60405180910390f35b34801561014a57600080fd5b5061015e610159366004611622565b61038b565b6040516101359190611898565b34801561017757600080fd5b5061019b610186366004611719565b60009081526065602052604090206001015490565b604051908152602001610135565b3480156101b557600080fd5b506101c96101c4366004611749565b610426565b005b3480156101d757600080fd5b506101c96101e6366004611749565b610450565b3480156101f757600080fd5b506101c9610206366004611622565b6104d3565b34801561021757600080fd5b506101c961059c565b6101c961022e36600461165a565b6105d3565b34801561023f57600080fd5b506101c9610689565b34801561025457600080fd5b5061019b610752565b34801561026957600080fd5b5060975460ff16610129565b34801561028157600080fd5b506101c96102903660046117a0565b610800565b3480156102a157600080fd5b506101c9610856565b3480156102b657600080fd5b506101296102c5366004611749565b610885565b3480156102d657600080fd5b506101c96102e5366004611622565b6108b0565b3480156102f657600080fd5b5061019b600081565b34801561030b57600080fd5b50610129610984565b34801561032057600080fd5b506101c961032f366004611622565b610996565b34801561034057600080fd5b506101c961034f366004611749565b610b24565b60006001600160e01b03198216637965db0b60e01b148061038557506301ffc9a760e01b6001600160e01b03198316145b92915050565b61016060205260009081526040902080546103a590611ac2565b80601f01602080910402602001604051908101604052809291908181526020018280546103d190611ac2565b801561041e5780601f106103f35761010080835404028352916020019161041e565b820191906000526020600020905b81548152906001019060200180831161040157829003601f168201915b505050505081565b60008281526065602052604090206001015461044181610b49565b61044b8383610b53565b505050565b6001600160a01b03811633146104c55760405162461bcd60e51b815260206004820152602f60248201527f416363657373436f6e74726f6c3a2063616e206f6e6c792072656e6f756e636560448201526e103937b632b9903337b91039b2b63360891b60648201526084015b60405180910390fd5b6104cf8282610bd9565b5050565b306001600160a01b037f000000000000000000000000000000000000000000000000000000000000000016141561051c5760405162461bcd60e51b81526004016104bc90611917565b7f00000000000000000000000000000000000000000000000000000000000000006001600160a01b031661054e610c40565b6001600160a01b0316146105745760405162461bcd60e51b81526004016104bc90611963565b61057d81610c5c565b6040805160008082526020820190925261059991839190610cc4565b50565b6105ad6105a7610e3e565b33610885565b6105c95760405162461bcd60e51b81526004016104bc906118cb565b6105d1610e62565b565b306001600160a01b037f000000000000000000000000000000000000000000000000000000000000000016141561061c5760405162461bcd60e51b81526004016104bc90611917565b7f00000000000000000000000000000000000000000000000000000000000000006001600160a01b031661064e610c40565b6001600160a01b0316146106745760405162461bcd60e51b81526004016104bc90611963565b61067d82610c5c565b6104cf82826001610cc4565b600054610100900460ff16158080156106a95750600054600160ff909116105b806106c35750303b1580156106c3575060005460ff166001145b6106df5760405162461bcd60e51b81526004016104bc906119af565b6000805460ff191660011790558015610702576000805461ff0019166101001790555b61070a610eb4565b8015610599576000805461ff0019169055604051600181527f7f26b83ff96e1f2b6a682f133852f6798a09c465da95921460cefb38474024989060200160405180910390a150565b6000306001600160a01b037f000000000000000000000000000000000000000000000000000000000000000016146107ed5760405162461bcd60e51b815260206004820152603860248201527f555550535570677261646561626c653a206d757374206e6f742062652063616c6044820152771b1959081d1a1c9bdd59da0819195b1959d85d1958d85b1b60421b60648201526084016104bc565b50600080516020611b3f83398151915290565b8061083b5760405162461bcd60e51b815260206004820152600b60248201526a125b9d985b1a590810d25160aa1b60448201526064016104bc565b3360009081526101606020526040902061044b908383611589565b6108616105a7610e3e565b61087d5760405162461bcd60e51b81526004016104bc906118cb565b6105d1610ee7565b60009182526065602090815260408084206001600160a01b0393909316845291905290205460ff1690565b600054610100900460ff166108d75760405162461bcd60e51b81526004016104bc906119fd565b6001600160a01b03811661092d5760405162461bcd60e51b815260206004820181905260248201527f4f776e65722063616e6e6f7420626520746865207a65726f206164647265737360448201526064016104bc565b610935610f24565b61093d610eb4565b610945610f4b565b610956610950610f79565b82610f9d565b610961610950610e3e565b61097961096c610e3e565b610974610f79565b610fa7565b61059961096c610f79565b60006109916105a7610f79565b905090565b600054610100900460ff16158080156109b65750600054600160ff909116105b806109d05750303b1580156109d0575060005460ff166001145b6109ec5760405162461bcd60e51b81526004016104bc906119af565b6000805460ff191660011790558015610a0f576000805461ff0019166101001790555b6001600160a01b038216610a5e5760405162461bcd60e51b8152602060048201526016602482015275496e76616c696420636f6e666967206164647265737360501b60448201526064016104bc565b61015f80546001600160a01b0319166001600160a01b038416908117909155600090610a8990610ff2565b90506001600160a01b038116610ad15760405162461bcd60e51b815260206004820152600d60248201526c24b73b30b634b21027bbb732b960991b60448201526064016104bc565b610ada816108b0565b5080156104cf576000805461ff0019169055604051600181527f7f26b83ff96e1f2b6a682f133852f6798a09c465da95921460cefb38474024989060200160405180910390a15050565b600082815260656020526040902060010154610b3f81610b49565b61044b8383610bd9565b610599813361106d565b610b5d8282610885565b6104cf5760008281526065602090815260408083206001600160a01b03851684529091529020805460ff19166001179055610b953390565b6001600160a01b0316816001600160a01b0316837f2f8788117e7eff1d82e926ec794901d17c78024a50270940304540a733656f0d60405160405180910390a45050565b610be38282610885565b156104cf5760008281526065602090815260408083206001600160a01b0385168085529252808320805460ff1916905551339285917ff6391f5c32d9c69d2a47ea670b442974b53935d1edc7fd64eb21e047a839171b9190a45050565b600080516020611b3f833981519152546001600160a01b031690565b610c64610984565b6105995760405162461bcd60e51b815260206004820152602b60248201527f4d75737420686176652061646d696e20726f6c6520746f20706572666f726d2060448201526a3a3434b99030b1ba34b7b760a91b60648201526084016104bc565b7f4910fdfa16fed3260ed0e7147f7cc6da11a60208b5b9406d12a635614ffd91435460ff1615610cf75761044b836110c6565b826001600160a01b03166352d1902d6040518163ffffffff1660e01b815260040160206040518083038186803b158015610d3057600080fd5b505afa925050508015610d60575060408051601f3d908101601f19168201909252610d5d91810190611731565b60015b610dc35760405162461bcd60e51b815260206004820152602e60248201527f45524331393637557067726164653a206e657720696d706c656d656e7461746960448201526d6f6e206973206e6f74205555505360901b60648201526084016104bc565b600080516020611b3f8339815191528114610e325760405162461bcd60e51b815260206004820152602960248201527f45524331393637557067726164653a20756e737570706f727465642070726f786044820152681a58589b195555525160ba1b60648201526084016104bc565b5061044b838383611162565b7f65d7a28e3265b37a6474929f336521b332c1681b933f6cb9f3376673440d862a90565b610e6a61118d565b6097805460ff191690557f5db9ee0a495bf2e6ff9c91a7834c1ba4fdd244a5e8aa4e537bd38aeae4b073aa335b6040516001600160a01b03909116815260200160405180910390a1565b600054610100900460ff16610edb5760405162461bcd60e51b81526004016104bc906119fd565b6097805460ff19169055565b610eef6111d6565b6097805460ff191660011790557f62e78cea01bee320cd4e420270b5ea74000d11b0c9f74754ebdbfc544b05a258610e973390565b600054610100900460ff166105d15760405162461bcd60e51b81526004016104bc906119fd565b600054610100900460ff16610f725760405162461bcd60e51b81526004016104bc906119fd565b600160c955565b7fa49807205ce4d355092ef5a8a18f56e8913cf4a201fbe287825b095693c2177590565b6104cf8282610b53565b600082815260656020526040808220600101805490849055905190918391839186917fbd79b86ffe0ab8e8776151514217cd7cacd52c909f66475c3af44e129f0b00ff9190a4505050565b604051635c9fcd8560e11b8152600060048201819052906001600160a01b0383169063b93f9b0a9060240160206040518083038186803b15801561103557600080fd5b505afa158015611049573d6000803e3d6000fd5b505050506040513d601f19601f82011682018060405250810190610385919061163e565b6110778282610885565b6104cf576110848161121c565b61108f83602061122e565b6040516020016110a0929190611829565b60408051601f198184030181529082905262461bcd60e51b82526104bc91600401611898565b6001600160a01b0381163b6111335760405162461bcd60e51b815260206004820152602d60248201527f455243313936373a206e657720696d706c656d656e746174696f6e206973206e60448201526c1bdd08184818dbdb9d1c9858dd609a1b60648201526084016104bc565b600080516020611b3f83398151915280546001600160a01b0319166001600160a01b0392909216919091179055565b61116b83611417565b6000825111806111785750805b1561044b576111878383611457565b50505050565b60975460ff166105d15760405162461bcd60e51b815260206004820152601460248201527314185d5cd8589b194e881b9bdd081c185d5cd95960621b60448201526064016104bc565b60975460ff16156105d15760405162461bcd60e51b815260206004820152601060248201526f14185d5cd8589b194e881c185d5cd95960821b60448201526064016104bc565b60606103856001600160a01b03831660145b6060600061123d836002611a60565b611248906002611a48565b67ffffffffffffffff81111561126e57634e487b7160e01b600052604160045260246000fd5b6040519080825280601f01601f191660200182016040528015611298576020820181803683370190505b509050600360fc1b816000815181106112c157634e487b7160e01b600052603260045260246000fd5b60200101906001600160f81b031916908160001a905350600f60fb1b816001815181106112fe57634e487b7160e01b600052603260045260246000fd5b60200101906001600160f81b031916908160001a9053506000611322846002611a60565b61132d906001611a48565b90505b60018111156113c1576f181899199a1a9b1b9c1cb0b131b232b360811b85600f166010811061136f57634e487b7160e01b600052603260045260246000fd5b1a60f81b82828151811061139357634e487b7160e01b600052603260045260246000fd5b60200101906001600160f81b031916908160001a90535060049490941c936113ba81611aab565b9050611330565b5083156114105760405162461bcd60e51b815260206004820181905260248201527f537472696e67733a20686578206c656e67746820696e73756666696369656e7460448201526064016104bc565b9392505050565b611420816110c6565b6040516001600160a01b038216907fbc7cd75a20ee27fd9adebab32041f755214dbc6bffa90cc0225b39da2e5c2d3b90600090a250565b60606001600160a01b0383163b6114bf5760405162461bcd60e51b815260206004820152602660248201527f416464726573733a2064656c65676174652063616c6c20746f206e6f6e2d636f6044820152651b9d1c9858dd60d21b60648201526084016104bc565b600080846001600160a01b0316846040516114da919061180d565b600060405180830381855af49150503d8060008114611515576040519150601f19603f3d011682016040523d82523d6000602084013e61151a565b606091505b50915091506115428282604051806060016040528060278152602001611b5f6027913961154b565b95945050505050565b6060831561155a575081611410565b611410838381511561156f5781518083602001fd5b8060405162461bcd60e51b81526004016104bc9190611898565b82805461159590611ac2565b90600052602060002090601f0160209004810192826115b757600085556115fd565b82601f106115d05782800160ff198235161785556115fd565b828001600101855582156115fd579182015b828111156115fd5782358255916020019190600101906115e2565b5061160992915061160d565b5090565b5b80821115611609576000815560010161160e565b600060208284031215611633578081fd5b813561141081611b29565b60006020828403121561164f578081fd5b815161141081611b29565b6000806040838503121561166c578081fd5b823561167781611b29565b9150602083013567ffffffffffffffff80821115611693578283fd5b818501915085601f8301126116a6578283fd5b8135818111156116b8576116b8611b13565b604051601f8201601f19908116603f011681019083821181831017156116e0576116e0611b13565b816040528281528860208487010111156116f8578586fd5b82602086016020830137856020848301015280955050505050509250929050565b60006020828403121561172a578081fd5b5035919050565b600060208284031215611742578081fd5b5051919050565b6000806040838503121561175b578182fd5b82359150602083013561176d81611b29565b809150509250929050565b600060208284031215611789578081fd5b81356001600160e01b031981168114611410578182fd5b600080602083850312156117b2578182fd5b823567ffffffffffffffff808211156117c9578384fd5b818501915085601f8301126117dc578384fd5b8135818111156117ea578485fd5b8660208285010111156117fb578485fd5b60209290920196919550909350505050565b6000825161181f818460208701611a7f565b9190910192915050565b76020b1b1b2b9b9a1b7b73a3937b61d1030b1b1b7bab73a1604d1b81526000835161185b816017850160208801611a7f565b7001034b99036b4b9b9b4b733903937b6329607d1b601791840191820152835161188c816028840160208801611a7f565b01602801949350505050565b60208152600082518060208401526118b7816040850160208701611a7f565b601f01601f19169190910160400192915050565b6020808252602c908201527f4d75737420686176652070617573657220726f6c6520746f20706572666f726d60408201526b103a3434b99030b1ba34b7b760a11b606082015260800190565b6020808252602c908201527f46756e6374696f6e206d7573742062652063616c6c6564207468726f7567682060408201526b19195b1959d85d1958d85b1b60a21b606082015260800190565b6020808252602c908201527f46756e6374696f6e206d7573742062652063616c6c6564207468726f7567682060408201526b6163746976652070726f787960a01b606082015260800190565b6020808252602e908201527f496e697469616c697a61626c653a20636f6e747261637420697320616c72656160408201526d191e481a5b9a5d1a585b1a5e995960921b606082015260800190565b6020808252602b908201527f496e697469616c697a61626c653a20636f6e7472616374206973206e6f74206960408201526a6e697469616c697a696e6760a81b606082015260800190565b60008219821115611a5b57611a5b611afd565b500190565b6000816000190483118215151615611a7a57611a7a611afd565b500290565b60005b83811015611a9a578181015183820152602001611a82565b838111156111875750506000910152565b600081611aba57611aba611afd565b506000190190565b600181811c90821680611ad657607f821691505b60208210811415611af757634e487b7160e01b600052602260045260246000fd5b50919050565b634e487b7160e01b600052601160045260246000fd5b634e487b7160e01b600052604160045260246000fd5b6001600160a01b038116811461059957600080fdfe360894a13ba1a3210667c828492db98dca3e2076cc3735a920a3ca505d382bbc416464726573733a206c6f772d6c6576656c2064656c65676174652063616c6c206661696c6564a264697066735822122001cb70fe1074c772c11c4d24c0920973b7b64aba37e73c5a7f85939cf19e2daf64736f6c63430008040033",
  "linkReferences": {},
  "deployedLinkReferences": {}
}