{
  "_format": "hh-sol-artifact-1",
  "contractName": "Borrower",
  "sourceName": "contracts/protocol/Borrower.sol",
  "abi": [
    {
      "anonymous": false,
      "inputs": [
        {
          "indexed": false,
          "internalType": "uint8",
          "name": "version",
          "type": "uint8"
        }
      ],
      "name": "Initialized",
      "type": "event"
    },
    {
      "anonymous": false,
      "inputs": [
        {
          "indexed": false,
          "internalType": "address",
          "name": "account",
          "type": "address"
        }
      ],
      "name": "Paused",
      "type": "event"
    },
    {
      "anonymous": false,
      "inputs": [
        {
          "indexed": true,
          "internalType": "bytes32",
          "name": "role",
          "type": "bytes32"
        },
        {
          "indexed": true,
          "internalType": "bytes32",
          "name": "previousAdminRole",
          "type": "bytes32"
        },
        {
          "indexed": true,
          "internalType": "bytes32",
          "name": "newAdminRole",
          "type": "bytes32"
        }
      ],
      "name": "RoleAdminChanged",
      "type": "event"
    },
    {
      "anonymous": false,
      "inputs": [
        {
          "indexed": true,
          "internalType": "bytes32",
          "name": "role",
          "type": "bytes32"
        },
        {
          "indexed": true,
          "internalType": "address",
          "name": "account",
          "type": "address"
        },
        {
          "indexed": true,
          "internalType": "address",
          "name": "sender",
          "type": "address"
        }
      ],
      "name": "RoleGranted",
      "type": "event"
    },
    {
      "anonymous": false,
      "inputs": [
        {
          "indexed": true,
          "internalType": "bytes32",
          "name": "role",
          "type": "bytes32"
        },
        {
          "indexed": true,
          "internalType": "address",
          "name": "account",
          "type": "address"
        },
        {
          "indexed": true,
          "internalType": "address",
          "name": "sender",
          "type": "address"
        }
      ],
      "name": "RoleRevoked",
      "type": "event"
    },
    {
      "anonymous": false,
      "inputs": [
        {
          "indexed": false,
          "internalType": "address",
          "name": "account",
          "type": "address"
        }
      ],
      "name": "Unpaused",
      "type": "event"
    },
    {
      "inputs": [],
      "name": "ADMIN_ROLE",
      "outputs": [
        {
          "internalType": "bytes32",
          "name": "",
          "type": "bytes32"
        }
      ],
      "stateMutability": "view",
      "type": "function"
    },
    {
      "inputs": [],
      "name": "DEFAULT_ADMIN_ROLE",
      "outputs": [
        {
          "internalType": "bytes32",
          "name": "",
          "type": "bytes32"
        }
      ],
      "stateMutability": "view",
      "type": "function"
    },
    {
      "inputs": [],
      "name": "PAUSER_ROLE",
      "outputs": [
        {
          "internalType": "bytes32",
          "name": "",
          "type": "bytes32"
        }
      ],
      "stateMutability": "view",
      "type": "function"
    },
    {
      "inputs": [
        {
          "internalType": "address",
          "name": "owner",
          "type": "address"
        }
      ],
      "name": "_BaseUpgradeablePausable_init",
      "outputs": [],
      "stateMutability": "nonpayable",
      "type": "function"
    },
    {
      "inputs": [],
      "name": "__PauserPausable__init",
      "outputs": [],
      "stateMutability": "nonpayable",
      "type": "function"
    },
    {
      "inputs": [
        {
          "internalType": "address",
          "name": "",
          "type": "address"
        }
      ],
      "name": "borrowerProfile",
      "outputs": [
        {
          "internalType": "string",
          "name": "",
          "type": "string"
        }
      ],
      "stateMutability": "view",
      "type": "function"
    },
    {
      "inputs": [
        {
          "internalType": "bytes32",
          "name": "role",
          "type": "bytes32"
        }
      ],
      "name": "getRoleAdmin",
      "outputs": [
        {
          "internalType": "bytes32",
          "name": "",
          "type": "bytes32"
        }
      ],
      "stateMutability": "view",
      "type": "function"
    },
    {
      "inputs": [
        {
          "internalType": "bytes32",
          "name": "role",
          "type": "bytes32"
        },
        {
          "internalType": "address",
          "name": "account",
          "type": "address"
        }
      ],
      "name": "grantRole",
      "outputs": [],
      "stateMutability": "nonpayable",
      "type": "function"
    },
    {
      "inputs": [
        {
          "internalType": "bytes32",
          "name": "role",
          "type": "bytes32"
        },
        {
          "internalType": "address",
          "name": "account",
          "type": "address"
        }
      ],
      "name": "hasRole",
      "outputs": [
        {
          "internalType": "bool",
          "name": "",
          "type": "bool"
        }
      ],
      "stateMutability": "view",
      "type": "function"
    },
    {
      "inputs": [
        {
          "internalType": "contract DygnifyConfig",
          "name": "_dygnifyConfig",
          "type": "address"
        }
      ],
      "name": "initialize",
      "outputs": [],
      "stateMutability": "nonpayable",
      "type": "function"
    },
    {
      "inputs": [],
      "name": "isAdmin",
      "outputs": [
        {
          "internalType": "bool",
          "name": "",
          "type": "bool"
        }
      ],
      "stateMutability": "view",
      "type": "function"
    },
    {
      "inputs": [],
      "name": "pause",
      "outputs": [],
      "stateMutability": "nonpayable",
      "type": "function"
    },
    {
      "inputs": [],
      "name": "paused",
      "outputs": [
        {
          "internalType": "bool",
          "name": "",
          "type": "bool"
        }
      ],
      "stateMutability": "view",
      "type": "function"
    },
    {
      "inputs": [
        {
          "internalType": "bytes32",
          "name": "role",
          "type": "bytes32"
        },
        {
          "internalType": "address",
          "name": "account",
          "type": "address"
        }
      ],
      "name": "renounceRole",
      "outputs": [],
      "stateMutability": "nonpayable",
      "type": "function"
    },
    {
      "inputs": [
        {
          "internalType": "bytes32",
          "name": "role",
          "type": "bytes32"
        },
        {
          "internalType": "address",
          "name": "account",
          "type": "address"
        }
      ],
      "name": "revokeRole",
      "outputs": [],
      "stateMutability": "nonpayable",
      "type": "function"
    },
    {
      "inputs": [
        {
          "internalType": "bytes4",
          "name": "interfaceId",
          "type": "bytes4"
        }
      ],
      "name": "supportsInterface",
      "outputs": [
        {
          "internalType": "bool",
          "name": "",
          "type": "bool"
        }
      ],
      "stateMutability": "view",
      "type": "function"
    },
    {
      "inputs": [],
      "name": "unpause",
      "outputs": [],
      "stateMutability": "nonpayable",
      "type": "function"
    },
    {
      "inputs": [
        {
          "internalType": "string",
          "name": "_cid",
          "type": "string"
        }
      ],
      "name": "updateBorrowerProfile",
      "outputs": [],
      "stateMutability": "nonpayable",
      "type": "function"
    }
  ],
  "bytecode": "0x608060405234801561001057600080fd5b50611669806100206000396000f3fe608060405234801561001057600080fd5b50600436106101365760003560e01c806375b238fc116100b2578063a217fddf11610081578063c4d66de811610066578063c4d66de814610295578063d547741f146102a8578063e63ab1e9146102bb57600080fd5b8063a217fddf14610285578063b6db75a01461028d57600080fd5b806375b238fc1461020a5780638456cb591461023157806391d1485414610239578063a12dde4d1461027257600080fd5b806336568abe11610109578063526d81f6116100ee578063526d81f6146101e45780635c975abb146101ec57806373075fcc146101f757600080fd5b806336568abe146101c95780633f4ba83a146101dc57600080fd5b806301ffc9a71461013b57806304a550d114610163578063248a9ca3146101835780632f2ff15d146101b4575b600080fd5b61014e6101493660046113ee565b6102e2565b60405190151581526020015b60405180910390f35b61017661017136600461136f565b61037b565b60405161015a919061151c565b6101a66101913660046113a7565b60009081526065602052604090206001015490565b60405190815260200161015a565b6101c76101c23660046113bf565b610415565b005b6101c76101d73660046113bf565b61043f565b6101c76104d0565b6101c7610565565b60975460ff1661014e565b6101c761020536600461142e565b610685565b6101a67fa49807205ce4d355092ef5a8a18f56e8913cf4a201fbe287825b095693c2177581565b6101c76106ec565b61014e6102473660046113bf565b60009182526065602090815260408084206001600160a01b0393909316845291905290205460ff1690565b6101c761028036600461136f565b61077f565b6101a6600081565b61014e610920565b6101c76102a336600461136f565b610951565b6101c76102b63660046113bf565b610b63565b6101a67f65d7a28e3265b37a6474929f336521b332c1681b933f6cb9f3376673440d862a81565b60007fffffffff0000000000000000000000000000000000000000000000000000000082167f7965db0b00000000000000000000000000000000000000000000000000000000148061037557507f01ffc9a7000000000000000000000000000000000000000000000000000000007fffffffff000000000000000000000000000000000000000000000000000000008316145b92915050565b60fc6020526000908152604090208054610394906115cd565b80601f01602080910402602001604051908101604052809291908181526020018280546103c0906115cd565b801561040d5780601f106103e25761010080835404028352916020019161040d565b820191906000526020600020905b8154815290600101906020018083116103f057829003601f168201915b505050505081565b60008281526065602052604090206001015461043081610b88565b61043a8383610b92565b505050565b6001600160a01b03811633146104c25760405162461bcd60e51b815260206004820152602f60248201527f416363657373436f6e74726f6c3a2063616e206f6e6c792072656e6f756e636560448201527f20726f6c657320666f722073656c66000000000000000000000000000000000060648201526084015b60405180910390fd5b6104cc8282610c34565b5050565b6104fa7f65d7a28e3265b37a6474929f336521b332c1681b933f6cb9f3376673440d862a33610247565b61055b5760405162461bcd60e51b815260206004820152602c60248201527f4d75737420686176652070617573657220726f6c6520746f20706572666f726d60448201526b103a3434b99030b1ba34b7b760a11b60648201526084016104b9565b610563610cb7565b565b600054610100900460ff16158080156105855750600054600160ff909116105b8061059f5750303b15801561059f575060005460ff166001145b6106115760405162461bcd60e51b815260206004820152602e60248201527f496e697469616c697a61626c653a20636f6e747261637420697320616c72656160448201527f647920696e697469616c697a656400000000000000000000000000000000000060648201526084016104b9565b6000805460ff191660011790558015610634576000805461ff0019166101001790555b61063c610d09565b8015610682576000805461ff0019169055604051600181527f7f26b83ff96e1f2b6a682f133852f6798a09c465da95921460cefb38474024989060200160405180910390a15b50565b806106d25760405162461bcd60e51b815260206004820152600b60248201527f496e76616c69642043494400000000000000000000000000000000000000000060448201526064016104b9565b33600090815260fc6020526040902061043a9083836112d6565b6107167f65d7a28e3265b37a6474929f336521b332c1681b933f6cb9f3376673440d862a33610247565b6107775760405162461bcd60e51b815260206004820152602c60248201527f4d75737420686176652070617573657220726f6c6520746f20706572666f726d60448201526b103a3434b99030b1ba34b7b760a11b60648201526084016104b9565b610563610d80565b600054610100900460ff166107ea5760405162461bcd60e51b815260206004820152602b60248201527f496e697469616c697a61626c653a20636f6e7472616374206973206e6f74206960448201526a6e697469616c697a696e6760a81b60648201526084016104b9565b6001600160a01b0381166108405760405162461bcd60e51b815260206004820181905260248201527f4f776e65722063616e6e6f7420626520746865207a65726f206164647265737360448201526064016104b9565b610848610dbd565b610850610d09565b610858610e28565b6108827fa49807205ce4d355092ef5a8a18f56e8913cf4a201fbe287825b095693c2177582610e9a565b6108ac7f65d7a28e3265b37a6474929f336521b332c1681b933f6cb9f3376673440d862a82610e9a565b6108f67f65d7a28e3265b37a6474929f336521b332c1681b933f6cb9f3376673440d862a7fa49807205ce4d355092ef5a8a18f56e8913cf4a201fbe287825b095693c21775610ea4565b6106827fa49807205ce4d355092ef5a8a18f56e8913cf4a201fbe287825b095693c2177580610ea4565b600061094c7fa49807205ce4d355092ef5a8a18f56e8913cf4a201fbe287825b095693c2177533610247565b905090565b600054610100900460ff16158080156109715750600054600160ff909116105b8061098b5750303b15801561098b575060005460ff166001145b6109fd5760405162461bcd60e51b815260206004820152602e60248201527f496e697469616c697a61626c653a20636f6e747261637420697320616c72656160448201527f647920696e697469616c697a656400000000000000000000000000000000000060648201526084016104b9565b6000805460ff191660011790558015610a20576000805461ff0019166101001790555b6001600160a01b038216610a765760405162461bcd60e51b815260206004820152601660248201527f496e76616c696420636f6e66696720616464726573730000000000000000000060448201526064016104b9565b60fb80547fffffffffffffffffffffffff0000000000000000000000000000000000000000166001600160a01b038416908117909155600090610ab890610eef565b90506001600160a01b038116610b105760405162461bcd60e51b815260206004820152600d60248201527f496e76616c6964204f776e65720000000000000000000000000000000000000060448201526064016104b9565b610b198161077f565b5080156104cc576000805461ff0019169055604051600181527f7f26b83ff96e1f2b6a682f133852f6798a09c465da95921460cefb38474024989060200160405180910390a15050565b600082815260656020526040902060010154610b7e81610b88565b61043a8383610c34565b6106828133610f83565b60008281526065602090815260408083206001600160a01b038516845290915290205460ff166104cc5760008281526065602090815260408083206001600160a01b03851684529091529020805460ff19166001179055610bf03390565b6001600160a01b0316816001600160a01b0316837f2f8788117e7eff1d82e926ec794901d17c78024a50270940304540a733656f0d60405160405180910390a45050565b60008281526065602090815260408083206001600160a01b038516845290915290205460ff16156104cc5760008281526065602090815260408083206001600160a01b0385168085529252808320805460ff1916905551339285917ff6391f5c32d9c69d2a47ea670b442974b53935d1edc7fd64eb21e047a839171b9190a45050565b610cbf611003565b6097805460ff191690557f5db9ee0a495bf2e6ff9c91a7834c1ba4fdd244a5e8aa4e537bd38aeae4b073aa335b6040516001600160a01b03909116815260200160405180910390a1565b600054610100900460ff16610d745760405162461bcd60e51b815260206004820152602b60248201527f496e697469616c697a61626c653a20636f6e7472616374206973206e6f74206960448201526a6e697469616c697a696e6760a81b60648201526084016104b9565b6097805460ff19169055565b610d88611055565b6097805460ff191660011790557f62e78cea01bee320cd4e420270b5ea74000d11b0c9f74754ebdbfc544b05a258610cec3390565b600054610100900460ff166105635760405162461bcd60e51b815260206004820152602b60248201527f496e697469616c697a61626c653a20636f6e7472616374206973206e6f74206960448201526a6e697469616c697a696e6760a81b60648201526084016104b9565b600054610100900460ff16610e935760405162461bcd60e51b815260206004820152602b60248201527f496e697469616c697a61626c653a20636f6e7472616374206973206e6f74206960448201526a6e697469616c697a696e6760a81b60648201526084016104b9565b600160c955565b6104cc8282610b92565b600082815260656020526040808220600101805490849055905190918391839186917fbd79b86ffe0ab8e8776151514217cd7cacd52c909f66475c3af44e129f0b00ff9190a4505050565b6040517fb93f9b0a000000000000000000000000000000000000000000000000000000008152600060048201819052906001600160a01b0383169063b93f9b0a9060240160206040518083038186803b158015610f4b57600080fd5b505afa158015610f5f573d6000803e3d6000fd5b505050506040513d601f19601f82011682018060405250810190610375919061138b565b60008281526065602090815260408083206001600160a01b038516845290915290205460ff166104cc57610fc1816001600160a01b031660146110a8565b610fcc8360206110a8565b604051602001610fdd92919061149b565b60408051601f198184030181529082905262461bcd60e51b82526104b99160040161151c565b60975460ff166105635760405162461bcd60e51b815260206004820152601460248201527f5061757361626c653a206e6f742070617573656400000000000000000000000060448201526064016104b9565b60975460ff16156105635760405162461bcd60e51b815260206004820152601060248201527f5061757361626c653a207061757365640000000000000000000000000000000060448201526064016104b9565b606060006110b7836002611567565b6110c290600261154f565b67ffffffffffffffff8111156110e857634e487b7160e01b600052604160045260246000fd5b6040519080825280601f01601f191660200182016040528015611112576020820181803683370190505b5090507f30000000000000000000000000000000000000000000000000000000000000008160008151811061115757634e487b7160e01b600052603260045260246000fd5b60200101906001600160f81b031916908160001a9053507f7800000000000000000000000000000000000000000000000000000000000000816001815181106111b057634e487b7160e01b600052603260045260246000fd5b60200101906001600160f81b031916908160001a90535060006111d4846002611567565b6111df90600161154f565b90505b6001811115611280577f303132333435363738396162636465660000000000000000000000000000000085600f166010811061122e57634e487b7160e01b600052603260045260246000fd5b1a60f81b82828151811061125257634e487b7160e01b600052603260045260246000fd5b60200101906001600160f81b031916908160001a90535060049490941c93611279816115b6565b90506111e2565b5083156112cf5760405162461bcd60e51b815260206004820181905260248201527f537472696e67733a20686578206c656e67746820696e73756666696369656e7460448201526064016104b9565b9392505050565b8280546112e2906115cd565b90600052602060002090601f016020900481019282611304576000855561134a565b82601f1061131d5782800160ff1982351617855561134a565b8280016001018555821561134a579182015b8281111561134a57823582559160200191906001019061132f565b5061135692915061135a565b5090565b5b80821115611356576000815560010161135b565b600060208284031215611380578081fd5b81356112cf8161161e565b60006020828403121561139c578081fd5b81516112cf8161161e565b6000602082840312156113b8578081fd5b5035919050565b600080604083850312156113d1578081fd5b8235915060208301356113e38161161e565b809150509250929050565b6000602082840312156113ff578081fd5b81357fffffffff00000000000000000000000000000000000000000000000000000000811681146112cf578182fd5b60008060208385031215611440578182fd5b823567ffffffffffffffff80821115611457578384fd5b818501915085601f83011261146a578384fd5b813581811115611478578485fd5b866020828501011115611489578485fd5b60209290920196919550909350505050565b7f416363657373436f6e74726f6c3a206163636f756e74200000000000000000008152600083516114d3816017850160208801611586565b7f206973206d697373696e6720726f6c65200000000000000000000000000000006017918401918201528351611510816028840160208801611586565b01602801949350505050565b602081526000825180602084015261153b816040850160208701611586565b601f01601f19169190910160400192915050565b6000821982111561156257611562611608565b500190565b600081600019048311821515161561158157611581611608565b500290565b60005b838110156115a1578181015183820152602001611589565b838111156115b0576000848401525b50505050565b6000816115c5576115c5611608565b506000190190565b600181811c908216806115e157607f821691505b6020821081141561160257634e487b7160e01b600052602260045260246000fd5b50919050565b634e487b7160e01b600052601160045260246000fd5b6001600160a01b038116811461068257600080fdfea2646970667358221220ec88f38fb01c261a6bc92a5ef22ba4892acaf433fcdd30673374d6c5ac02644c64736f6c63430008040033",
  "linkReferences": {},
  "deployedLinkReferences": {}
}