{
  "_format": "hh-sol-artifact-1",
  "contractName": "MockOpportunityPoolV1",
  "sourceName": "contracts/test-contract/MockOpportunityPool-v1.sol",
  "abi": [
    {
      "inputs": [
        {
          "internalType": "uint8",
          "name": "_subpoolId",
          "type": "uint8"
        },
        {
          "internalType": "uint256",
          "name": "amount",
          "type": "uint256"
        }
      ],
      "name": "deposit",
      "outputs": [],
      "stateMutability": "nonpayable",
      "type": "function"
    },
    {
      "inputs": [],
      "name": "getSeniorPoolWithdrawableAmount",
      "outputs": [
        {
          "internalType": "uint256",
          "name": "",
          "type": "uint256"
        }
      ],
      "stateMutability": "pure",
      "type": "function"
    },
    {
      "inputs": [],
      "name": "getSeniorProfit",
      "outputs": [
        {
          "internalType": "uint256",
          "name": "",
          "type": "uint256"
        }
      ],
      "stateMutability": "pure",
      "type": "function"
    },
    {
      "inputs": [],
      "name": "getSeniorTotalDepositable",
      "outputs": [
        {
          "internalType": "uint256",
          "name": "",
          "type": "uint256"
        }
      ],
      "stateMutability": "pure",
      "type": "function"
    },
    {
      "inputs": [],
      "name": "getYourAddress",
      "outputs": [
        {
          "internalType": "address",
          "name": "",
          "type": "address"
        }
      ],
      "stateMutability": "view",
      "type": "function"
    },
    {
      "inputs": [],
      "name": "nextRepaymentTime",
      "outputs": [
        {
          "internalType": "uint256",
          "name": "",
          "type": "uint256"
        }
      ],
      "stateMutability": "pure",
      "type": "function"
    },
    {
      "inputs": [
        {
          "internalType": "bytes32",
          "name": "id",
          "type": "bytes32"
        },
        {
          "internalType": "address",
          "name": "oppoOAddress",
          "type": "address"
        }
      ],
      "name": "toCheckMarkDrawDown",
      "outputs": [],
      "stateMutability": "nonpayable",
      "type": "function"
    },
    {
      "inputs": [
        {
          "internalType": "bytes32",
          "name": "id",
          "type": "bytes32"
        },
        {
          "internalType": "address",
          "name": "oppoOAddress",
          "type": "address"
        }
      ],
      "name": "toCheckMarkRepaid",
      "outputs": [],
      "stateMutability": "nonpayable",
      "type": "function"
    },
    {
      "inputs": [
        {
          "internalType": "bytes32",
          "name": "_id",
          "type": "bytes32"
        },
        {
          "internalType": "address",
          "name": "poolAddress",
          "type": "address"
        },
        {
          "internalType": "address",
          "name": "oppoOAddress",
          "type": "address"
        }
      ],
      "name": "toCheckmarkWriteOff",
      "outputs": [],
      "stateMutability": "nonpayable",
      "type": "function"
    },
    {
      "inputs": [
        {
          "internalType": "bool",
          "name": "_isWriteOff",
          "type": "bool"
        },
        {
          "internalType": "bytes32",
          "name": "opportunityId",
          "type": "bytes32"
        },
        {
          "internalType": "uint256",
          "name": "_amount",
          "type": "uint256"
        },
        {
          "internalType": "address",
          "name": "_seniorPoolAddress",
          "type": "address"
        }
      ],
      "name": "toCheckwithDrawFromOpportunity",
      "outputs": [],
      "stateMutability": "nonpayable",
      "type": "function"
    },
    {
      "inputs": [],
      "name": "writeOffOpportunity",
      "outputs": [],
      "stateMutability": "nonpayable",
      "type": "function"
    }
  ],
  "bytecode": "0x608060405234801561001057600080fd5b506103f0806100206000396000f3fe608060405234801561001057600080fd5b50600436106100a95760003560e01c8063b4635d5e11610071578063b4635d5e146100f7578063d661d32014610105578063df9fd1c11461010e578063ec83be4d14610117578063f4d4c9d71461012a578063fa01726b1461013c57600080fd5b80631e2aa2c8146100ae578063257c2736146100c157806373872e54146100c357806383933a2b146100d65780639f964fe6146100ee575b600080fd5b6100c16100bc3660046102d9565b61014f565b005b6100c16100d1366004610324565b6101c1565b629896805b6040519081526020015b60405180910390f35b620f42406100db565b6040513081526020016100e5565b62986f706100db565b6283d6006100db565b6100c161012536600461034f565b610223565b6100c161013836600461038a565b5050565b6100c161014a366004610324565b61028e565b604051630387c6d160e31b81528415156004820152602481018490526044810183905281906001600160a01b03821690631c3e368890606401600060405180830381600087803b1580156101a257600080fd5b505af11580156101b6573d6000803e3d6000fd5b505050505050505050565b604051632bdfaa5160e21b81526004810183905281906001600160a01b0382169063af7ea944906024015b600060405180830381600087803b15801561020657600080fd5b505af115801561021a573d6000803e3d6000fd5b50505050505050565b604051636dc305f960e01b8152600481018490526001600160a01b038381166024830152829190821690636dc305f990604401600060405180830381600087803b15801561027057600080fd5b505af1158015610284573d6000803e3d6000fd5b5050505050505050565b6040516319978a4360e11b81526004810183905281906001600160a01b0382169063332f1486906024016101ec565b80356001600160a01b03811681146102d457600080fd5b919050565b600080600080608085870312156102ee578384fd5b843580151581146102fd578485fd5b93506020850135925060408501359150610319606086016102bd565b905092959194509250565b60008060408385031215610336578182fd5b82359150610346602084016102bd565b90509250929050565b600080600060608486031215610363578283fd5b83359250610373602085016102bd565b9150610381604085016102bd565b90509250925092565b6000806040838503121561039c578182fd5b823560ff811681146103ac578283fd5b94602093909301359350505056fea2646970667358221220cdd814488e3680c9451cab1437851e503b331dab681346b22d6f93dfe3360fce64736f6c63430008040033",
  "linkReferences": {},
  "deployedLinkReferences": {}
}