{
  "_format": "hh-sol-artifact-1",
  "contractName": "DygnifyTreasury",
  "sourceName": "contracts/protocol/DygnifyTreasury.sol",
  "abi": [
    {
      "anonymous": false,
      "inputs": [
        {
          "indexed": false,
          "internalType": "uint8",
          "name": "version",
          "type": "uint8"
        }
      ],
      "name": "Initialized",
      "type": "event"
    },
    {
      "anonymous": false,
      "inputs": [
        {
          "indexed": false,
          "internalType": "address",
          "name": "account",
          "type": "address"
        }
      ],
      "name": "Paused",
      "type": "event"
    },
    {
      "anonymous": false,
      "inputs": [
        {
          "indexed": true,
          "internalType": "bytes32",
          "name": "role",
          "type": "bytes32"
        },
        {
          "indexed": true,
          "internalType": "bytes32",
          "name": "previousAdminRole",
          "type": "bytes32"
        },
        {
          "indexed": true,
          "internalType": "bytes32",
          "name": "newAdminRole",
          "type": "bytes32"
        }
      ],
      "name": "RoleAdminChanged",
      "type": "event"
    },
    {
      "anonymous": false,
      "inputs": [
        {
          "indexed": true,
          "internalType": "bytes32",
          "name": "role",
          "type": "bytes32"
        },
        {
          "indexed": true,
          "internalType": "address",
          "name": "account",
          "type": "address"
        },
        {
          "indexed": true,
          "internalType": "address",
          "name": "sender",
          "type": "address"
        }
      ],
      "name": "RoleGranted",
      "type": "event"
    },
    {
      "anonymous": false,
      "inputs": [
        {
          "indexed": true,
          "internalType": "bytes32",
          "name": "role",
          "type": "bytes32"
        },
        {
          "indexed": true,
          "internalType": "address",
          "name": "account",
          "type": "address"
        },
        {
          "indexed": true,
          "internalType": "address",
          "name": "sender",
          "type": "address"
        }
      ],
      "name": "RoleRevoked",
      "type": "event"
    },
    {
      "anonymous": false,
      "inputs": [
        {
          "indexed": false,
          "internalType": "address",
          "name": "account",
          "type": "address"
        }
      ],
      "name": "Unpaused",
      "type": "event"
    },
    {
      "inputs": [],
      "name": "ADMIN_ROLE",
      "outputs": [
        {
          "internalType": "bytes32",
          "name": "",
          "type": "bytes32"
        }
      ],
      "stateMutability": "view",
      "type": "function"
    },
    {
      "inputs": [],
      "name": "DEFAULT_ADMIN_ROLE",
      "outputs": [
        {
          "internalType": "bytes32",
          "name": "",
          "type": "bytes32"
        }
      ],
      "stateMutability": "view",
      "type": "function"
    },
    {
      "inputs": [],
      "name": "PAUSER_ROLE",
      "outputs": [
        {
          "internalType": "bytes32",
          "name": "",
          "type": "bytes32"
        }
      ],
      "stateMutability": "view",
      "type": "function"
    },
    {
      "inputs": [
        {
          "internalType": "address",
          "name": "owner",
          "type": "address"
        }
      ],
      "name": "_BaseUpgradeablePausable_init",
      "outputs": [],
      "stateMutability": "nonpayable",
      "type": "function"
    },
    {
      "inputs": [],
      "name": "__PauserPausable__init",
      "outputs": [],
      "stateMutability": "nonpayable",
      "type": "function"
    },
    {
      "inputs": [],
      "name": "dygnifyConfig",
      "outputs": [
        {
          "internalType": "contract DygnifyConfig",
          "name": "",
          "type": "address"
        }
      ],
      "stateMutability": "view",
      "type": "function"
    },
    {
      "inputs": [
        {
          "internalType": "bytes32",
          "name": "role",
          "type": "bytes32"
        }
      ],
      "name": "getRoleAdmin",
      "outputs": [
        {
          "internalType": "bytes32",
          "name": "",
          "type": "bytes32"
        }
      ],
      "stateMutability": "view",
      "type": "function"
    },
    {
      "inputs": [],
      "name": "getTreasuryBalance",
      "outputs": [
        {
          "internalType": "uint256",
          "name": "",
          "type": "uint256"
        }
      ],
      "stateMutability": "view",
      "type": "function"
    },
    {
      "inputs": [
        {
          "internalType": "bytes32",
          "name": "role",
          "type": "bytes32"
        },
        {
          "internalType": "address",
          "name": "account",
          "type": "address"
        }
      ],
      "name": "grantRole",
      "outputs": [],
      "stateMutability": "nonpayable",
      "type": "function"
    },
    {
      "inputs": [
        {
          "internalType": "bytes32",
          "name": "role",
          "type": "bytes32"
        },
        {
          "internalType": "address",
          "name": "account",
          "type": "address"
        }
      ],
      "name": "hasRole",
      "outputs": [
        {
          "internalType": "bool",
          "name": "",
          "type": "bool"
        }
      ],
      "stateMutability": "view",
      "type": "function"
    },
    {
      "inputs": [
        {
          "internalType": "contract DygnifyConfig",
          "name": "_dygnifyConfig",
          "type": "address"
        }
      ],
      "name": "initialize",
      "outputs": [],
      "stateMutability": "nonpayable",
      "type": "function"
    },
    {
      "inputs": [],
      "name": "isAdmin",
      "outputs": [
        {
          "internalType": "bool",
          "name": "",
          "type": "bool"
        }
      ],
      "stateMutability": "view",
      "type": "function"
    },
    {
      "inputs": [],
      "name": "pause",
      "outputs": [],
      "stateMutability": "nonpayable",
      "type": "function"
    },
    {
      "inputs": [],
      "name": "paused",
      "outputs": [
        {
          "internalType": "bool",
          "name": "",
          "type": "bool"
        }
      ],
      "stateMutability": "view",
      "type": "function"
    },
    {
      "inputs": [
        {
          "internalType": "bytes32",
          "name": "role",
          "type": "bytes32"
        },
        {
          "internalType": "address",
          "name": "account",
          "type": "address"
        }
      ],
      "name": "renounceRole",
      "outputs": [],
      "stateMutability": "nonpayable",
      "type": "function"
    },
    {
      "inputs": [
        {
          "internalType": "bytes32",
          "name": "role",
          "type": "bytes32"
        },
        {
          "internalType": "address",
          "name": "account",
          "type": "address"
        }
      ],
      "name": "revokeRole",
      "outputs": [],
      "stateMutability": "nonpayable",
      "type": "function"
    },
    {
      "inputs": [
        {
          "internalType": "bytes4",
          "name": "interfaceId",
          "type": "bytes4"
        }
      ],
      "name": "supportsInterface",
      "outputs": [
        {
          "internalType": "bool",
          "name": "",
          "type": "bool"
        }
      ],
      "stateMutability": "view",
      "type": "function"
    },
    {
      "inputs": [],
      "name": "unpause",
      "outputs": [],
      "stateMutability": "nonpayable",
      "type": "function"
    },
    {
      "inputs": [],
      "name": "usdcToken",
      "outputs": [
        {
          "internalType": "contract IERC20",
          "name": "",
          "type": "address"
        }
      ],
      "stateMutability": "view",
      "type": "function"
    },
    {
      "inputs": [
        {
          "internalType": "uint256",
          "name": "amount",
          "type": "uint256"
        }
      ],
      "name": "withdraw",
      "outputs": [],
      "stateMutability": "nonpayable",
      "type": "function"
    }
  ],
  "bytecode": "0x608060405234801561001057600080fd5b50611a7b806100206000396000f3fe608060405234801561001057600080fd5b506004361061016c5760003560e01c806375b238fc116100cd578063a217fddf11610081578063c4d66de811610066578063c4d66de8146102f1578063d547741f14610304578063e63ab1e91461031757600080fd5b8063a217fddf146102e1578063b6db75a0146102e957600080fd5b806391d14854116100b257806391d148541461028d5780639b5655dc146102c6578063a12dde4d146102ce57600080fd5b806375b238fc1461025e5780638456cb591461028557600080fd5b80632f2ff15d116101245780633f4ba83a116101095780633f4ba83a14610243578063526d81f61461024b5780635c975abb1461025357600080fd5b80632f2ff15d1461021d57806336568abe1461023057600080fd5b80631be95459116101555780631be95459146101c4578063248a9ca3146101d75780632e1a7d4d1461020857600080fd5b806301ffc9a71461017157806311eac85514610199575b600080fd5b61018461017f366004611878565b61033e565b60405190151581526020015b60405180910390f35b60fc546101ac906001600160a01b031681565b6040516001600160a01b039091168152602001610190565b60fb546101ac906001600160a01b031681565b6101fa6101e5366004611831565b60009081526065602052604090206001015490565b604051908152602001610190565b61021b610216366004611831565b6103d7565b005b61021b61022b366004611849565b6105a9565b61021b61023e366004611849565b6105d3565b61021b61065f565b61021b6106f4565b60975460ff16610184565b6101fa7fa49807205ce4d355092ef5a8a18f56e8913cf4a201fbe287825b095693c2177581565b61021b610814565b61018461029b366004611849565b60009182526065602090815260408084206001600160a01b0393909316845291905290205460ff1690565b6101fa6108a7565b61021b6102dc3660046117d9565b610940565b6101fa600081565b610184610ae1565b61021b6102ff3660046117d9565b610b12565b61021b610312366004611849565b610d5b565b6101fa7f65d7a28e3265b37a6474929f336521b332c1681b933f6cb9f3376673440d862a81565b60007fffffffff0000000000000000000000000000000000000000000000000000000082167f7965db0b0000000000000000000000000000000000000000000000000000000014806103d157507f01ffc9a7000000000000000000000000000000000000000000000000000000007fffffffff000000000000000000000000000000000000000000000000000000008316145b92915050565b600260c954141561042f5760405162461bcd60e51b815260206004820152601f60248201527f5265656e7472616e637947756172643a207265656e7472616e742063616c6c0060448201526064015b60405180910390fd5b600260c95561043c610d80565b610444610ae1565b6104b65760405162461bcd60e51b815260206004820152602b60248201527f4d75737420686176652061646d696e20726f6c6520746f20706572666f726d2060448201527f7468697320616374696f6e0000000000000000000000000000000000000000006064820152608401610426565b600081116105065760405162461bcd60e51b815260206004820181905260248201527f616d6f756e74206d7573742062652067726561746572207468616e207a65726f6044820152606401610426565b60006105106108a7565b9050808211156105885760405162461bcd60e51b815260206004820152602960248201527f616d6f756e7420657863656564732074686520746f74616c207472656173757260448201527f792062616c616e636500000000000000000000000000000000000000000000006064820152608401610426565b60fc546105a0906001600160a01b0316303385610dd3565b5050600160c955565b6000828152606560205260409020600101546105c481610e61565b6105ce8383610e6b565b505050565b6001600160a01b03811633146106515760405162461bcd60e51b815260206004820152602f60248201527f416363657373436f6e74726f6c3a2063616e206f6e6c792072656e6f756e636560448201527f20726f6c657320666f722073656c6600000000000000000000000000000000006064820152608401610426565b61065b8282610f0d565b5050565b6106897f65d7a28e3265b37a6474929f336521b332c1681b933f6cb9f3376673440d862a3361029b565b6106ea5760405162461bcd60e51b815260206004820152602c60248201527f4d75737420686176652070617573657220726f6c6520746f20706572666f726d60448201526b103a3434b99030b1ba34b7b760a11b6064820152608401610426565b6106f2610f90565b565b600054610100900460ff16158080156107145750600054600160ff909116105b8061072e5750303b15801561072e575060005460ff166001145b6107a05760405162461bcd60e51b815260206004820152602e60248201527f496e697469616c697a61626c653a20636f6e747261637420697320616c72656160448201527f647920696e697469616c697a65640000000000000000000000000000000000006064820152608401610426565b6000805460ff1916600117905580156107c3576000805461ff0019166101001790555b6107cb610fe2565b8015610811576000805461ff0019169055604051600181527f7f26b83ff96e1f2b6a682f133852f6798a09c465da95921460cefb38474024989060200160405180910390a15b50565b61083e7f65d7a28e3265b37a6474929f336521b332c1681b933f6cb9f3376673440d862a3361029b565b61089f5760405162461bcd60e51b815260206004820152602c60248201527f4d75737420686176652070617573657220726f6c6520746f20706572666f726d60448201526b103a3434b99030b1ba34b7b760a11b6064820152608401610426565b6106f2611059565b60fc546040517f70a0823100000000000000000000000000000000000000000000000000000000815230600482015260009182916001600160a01b03909116906370a082319060240160206040518083038186803b15801561090857600080fd5b505afa15801561091c573d6000803e3d6000fd5b505050506040513d601f19601f820116820180604052508101906103d191906118b8565b600054610100900460ff166109ab5760405162461bcd60e51b815260206004820152602b60248201527f496e697469616c697a61626c653a20636f6e7472616374206973206e6f74206960448201526a6e697469616c697a696e6760a81b6064820152608401610426565b6001600160a01b038116610a015760405162461bcd60e51b815260206004820181905260248201527f4f776e65722063616e6e6f7420626520746865207a65726f20616464726573736044820152606401610426565b610a09611096565b610a11610fe2565b610a19611101565b610a437fa49807205ce4d355092ef5a8a18f56e8913cf4a201fbe287825b095693c2177582611173565b610a6d7f65d7a28e3265b37a6474929f336521b332c1681b933f6cb9f3376673440d862a82611173565b610ab77f65d7a28e3265b37a6474929f336521b332c1681b933f6cb9f3376673440d862a7fa49807205ce4d355092ef5a8a18f56e8913cf4a201fbe287825b095693c2177561117d565b6108117fa49807205ce4d355092ef5a8a18f56e8913cf4a201fbe287825b095693c217758061117d565b6000610b0d7fa49807205ce4d355092ef5a8a18f56e8913cf4a201fbe287825b095693c217753361029b565b905090565b600054610100900460ff1615808015610b325750600054600160ff909116105b80610b4c5750303b158015610b4c575060005460ff166001145b610bbe5760405162461bcd60e51b815260206004820152602e60248201527f496e697469616c697a61626c653a20636f6e747261637420697320616c72656160448201527f647920696e697469616c697a65640000000000000000000000000000000000006064820152608401610426565b6000805460ff191660011790558015610be1576000805461ff0019166101001790555b6001600160a01b038216610c375760405162461bcd60e51b815260206004820152601660248201527f496e76616c696420636f6e6669672061646472657373000000000000000000006044820152606401610426565b60fb805473ffffffffffffffffffffffffffffffffffffffff19166001600160a01b038416908117909155600090610c6e906111c8565b90506001600160a01b038116610cc65760405162461bcd60e51b815260206004820152600d60248201527f496e76616c6964204f776e6572000000000000000000000000000000000000006044820152606401610426565b610ccf81610940565b60fb54610ce4906001600160a01b0316611249565b60fc805473ffffffffffffffffffffffffffffffffffffffff19166001600160a01b039290921691909117905550801561065b576000805461ff0019169055604051600181527f7f26b83ff96e1f2b6a682f133852f6798a09c465da95921460cefb38474024989060200160405180910390a15050565b600082815260656020526040902060010154610d7681610e61565b6105ce8383610f0d565b60975460ff16156106f25760405162461bcd60e51b815260206004820152601060248201527f5061757361626c653a20706175736564000000000000000000000000000000006044820152606401610426565b604080516001600160a01b0385811660248301528416604482015260648082018490528251808303909101815260849091019091526020810180517bffffffffffffffffffffffffffffffffffffffffffffffffffffffff167f23b872dd00000000000000000000000000000000000000000000000000000000179052610e5b908590611261565b50505050565b6108118133611346565b60008281526065602090815260408083206001600160a01b038516845290915290205460ff1661065b5760008281526065602090815260408083206001600160a01b03851684529091529020805460ff19166001179055610ec93390565b6001600160a01b0316816001600160a01b0316837f2f8788117e7eff1d82e926ec794901d17c78024a50270940304540a733656f0d60405160405180910390a45050565b60008281526065602090815260408083206001600160a01b038516845290915290205460ff161561065b5760008281526065602090815260408083206001600160a01b0385168085529252808320805460ff1916905551339285917ff6391f5c32d9c69d2a47ea670b442974b53935d1edc7fd64eb21e047a839171b9190a45050565b610f986113c6565b6097805460ff191690557f5db9ee0a495bf2e6ff9c91a7834c1ba4fdd244a5e8aa4e537bd38aeae4b073aa335b6040516001600160a01b03909116815260200160405180910390a1565b600054610100900460ff1661104d5760405162461bcd60e51b815260206004820152602b60248201527f496e697469616c697a61626c653a20636f6e7472616374206973206e6f74206960448201526a6e697469616c697a696e6760a81b6064820152608401610426565b6097805460ff19169055565b611061610d80565b6097805460ff191660011790557f62e78cea01bee320cd4e420270b5ea74000d11b0c9f74754ebdbfc544b05a258610fc53390565b600054610100900460ff166106f25760405162461bcd60e51b815260206004820152602b60248201527f496e697469616c697a61626c653a20636f6e7472616374206973206e6f74206960448201526a6e697469616c697a696e6760a81b6064820152608401610426565b600054610100900460ff1661116c5760405162461bcd60e51b815260206004820152602b60248201527f496e697469616c697a61626c653a20636f6e7472616374206973206e6f74206960448201526a6e697469616c697a696e6760a81b6064820152608401610426565b600160c955565b61065b8282610e6b565b600082815260656020526040808220600101805490849055905190918391839186917fbd79b86ffe0ab8e8776151514217cd7cacd52c909f66475c3af44e129f0b00ff9190a4505050565b60006001600160a01b03821663b93f9b0a825b6040518263ffffffff1660e01b81526004016111f991815260200190565b60206040518083038186803b15801561121157600080fd5b505afa158015611225573d6000803e3d6000fd5b505050506040513d601f19601f820116820180604052508101906103d191906117f5565b60006001600160a01b03821663b93f9b0a60026111db565b60006112b6826040518060400160405280602081526020017f5361666545524332303a206c6f772d6c6576656c2063616c6c206661696c6564815250856001600160a01b03166114189092919063ffffffff16565b8051909150156105ce57808060200190518101906112d49190611811565b6105ce5760405162461bcd60e51b815260206004820152602a60248201527f5361666545524332303a204552433230206f7065726174696f6e20646964206e60448201527f6f742073756363656564000000000000000000000000000000000000000000006064820152608401610426565b60008281526065602090815260408083206001600160a01b038516845290915290205460ff1661065b57611384816001600160a01b03166014611431565b61138f836020611431565b6040516020016113a09291906118ec565b60408051601f198184030181529082905262461bcd60e51b82526104269160040161196d565b60975460ff166106f25760405162461bcd60e51b815260206004820152601460248201527f5061757361626c653a206e6f74207061757365640000000000000000000000006044820152606401610426565b60606114278484600085611658565b90505b9392505050565b606060006114408360026119b8565b61144b9060026119a0565b67ffffffffffffffff81111561147157634e487b7160e01b600052604160045260246000fd5b6040519080825280601f01601f19166020018201604052801561149b576020820181803683370190505b5090507f3000000000000000000000000000000000000000000000000000000000000000816000815181106114e057634e487b7160e01b600052603260045260246000fd5b60200101906001600160f81b031916908160001a9053507f78000000000000000000000000000000000000000000000000000000000000008160018151811061153957634e487b7160e01b600052603260045260246000fd5b60200101906001600160f81b031916908160001a905350600061155d8460026119b8565b6115689060016119a0565b90505b6001811115611609577f303132333435363738396162636465660000000000000000000000000000000085600f16601081106115b757634e487b7160e01b600052603260045260246000fd5b1a60f81b8282815181106115db57634e487b7160e01b600052603260045260246000fd5b60200101906001600160f81b031916908160001a90535060049490941c9361160281611a03565b905061156b565b50831561142a5760405162461bcd60e51b815260206004820181905260248201527f537472696e67733a20686578206c656e67746820696e73756666696369656e746044820152606401610426565b6060824710156116d05760405162461bcd60e51b815260206004820152602660248201527f416464726573733a20696e73756666696369656e742062616c616e636520666f60448201527f722063616c6c00000000000000000000000000000000000000000000000000006064820152608401610426565b6001600160a01b0385163b6117275760405162461bcd60e51b815260206004820152601d60248201527f416464726573733a2063616c6c20746f206e6f6e2d636f6e74726163740000006044820152606401610426565b600080866001600160a01b0316858760405161174391906118d0565b60006040518083038185875af1925050503d8060008114611780576040519150601f19603f3d011682016040523d82523d6000602084013e611785565b606091505b50915091506117958282866117a0565b979650505050505050565b606083156117af57508161142a565b8251156117bf5782518084602001fd5b8160405162461bcd60e51b8152600401610426919061196d565b6000602082840312156117ea578081fd5b813561142a81611a30565b600060208284031215611806578081fd5b815161142a81611a30565b600060208284031215611822578081fd5b8151801515811461142a578182fd5b600060208284031215611842578081fd5b5035919050565b6000806040838503121561185b578081fd5b82359150602083013561186d81611a30565b809150509250929050565b600060208284031215611889578081fd5b81357fffffffff000000000000000000000000000000000000000000000000000000008116811461142a578182fd5b6000602082840312156118c9578081fd5b5051919050565b600082516118e28184602087016119d7565b9190910192915050565b7f416363657373436f6e74726f6c3a206163636f756e74200000000000000000008152600083516119248160178501602088016119d7565b7f206973206d697373696e6720726f6c652000000000000000000000000000000060179184019182015283516119618160288401602088016119d7565b01602801949350505050565b602081526000825180602084015261198c8160408501602087016119d7565b601f01601f19169190910160400192915050565b600082198211156119b3576119b3611a1a565b500190565b60008160001904831182151516156119d2576119d2611a1a565b500290565b60005b838110156119f25781810151838201526020016119da565b83811115610e5b5750506000910152565b600081611a1257611a12611a1a565b506000190190565b634e487b7160e01b600052601160045260246000fd5b6001600160a01b038116811461081157600080fdfea2646970667358221220c325fa3a7b915766cad03961cb92754bfab1677f49047ee17ba0023d9746691964736f6c63430008040033",
  "linkReferences": {},
  "deployedLinkReferences": {}
}