{
  "_format": "hh-sol-artifact-1",
  "contractName": "DygnifyTreasury",
  "sourceName": "contracts/protocol/DygnifyTreasury.sol",
  "abi": [
    {
      "anonymous": false,
      "inputs": [
        {
          "indexed": false,
          "internalType": "address",
          "name": "previousAdmin",
          "type": "address"
        },
        {
          "indexed": false,
          "internalType": "address",
          "name": "newAdmin",
          "type": "address"
        }
      ],
      "name": "AdminChanged",
      "type": "event"
    },
    {
      "anonymous": false,
      "inputs": [
        {
          "indexed": true,
          "internalType": "address",
          "name": "beacon",
          "type": "address"
        }
      ],
      "name": "BeaconUpgraded",
      "type": "event"
    },
    {
      "anonymous": false,
      "inputs": [
        {
          "indexed": false,
          "internalType": "uint8",
          "name": "version",
          "type": "uint8"
        }
      ],
      "name": "Initialized",
      "type": "event"
    },
    {
      "anonymous": false,
      "inputs": [
        {
          "indexed": false,
          "internalType": "address",
          "name": "account",
          "type": "address"
        }
      ],
      "name": "Paused",
      "type": "event"
    },
    {
      "anonymous": false,
      "inputs": [
        {
          "indexed": true,
          "internalType": "bytes32",
          "name": "role",
          "type": "bytes32"
        },
        {
          "indexed": true,
          "internalType": "bytes32",
          "name": "previousAdminRole",
          "type": "bytes32"
        },
        {
          "indexed": true,
          "internalType": "bytes32",
          "name": "newAdminRole",
          "type": "bytes32"
        }
      ],
      "name": "RoleAdminChanged",
      "type": "event"
    },
    {
      "anonymous": false,
      "inputs": [
        {
          "indexed": true,
          "internalType": "bytes32",
          "name": "role",
          "type": "bytes32"
        },
        {
          "indexed": true,
          "internalType": "address",
          "name": "account",
          "type": "address"
        },
        {
          "indexed": true,
          "internalType": "address",
          "name": "sender",
          "type": "address"
        }
      ],
      "name": "RoleGranted",
      "type": "event"
    },
    {
      "anonymous": false,
      "inputs": [
        {
          "indexed": true,
          "internalType": "bytes32",
          "name": "role",
          "type": "bytes32"
        },
        {
          "indexed": true,
          "internalType": "address",
          "name": "account",
          "type": "address"
        },
        {
          "indexed": true,
          "internalType": "address",
          "name": "sender",
          "type": "address"
        }
      ],
      "name": "RoleRevoked",
      "type": "event"
    },
    {
      "anonymous": false,
      "inputs": [
        {
          "indexed": false,
          "internalType": "address",
          "name": "account",
          "type": "address"
        }
      ],
      "name": "Unpaused",
      "type": "event"
    },
    {
      "anonymous": false,
      "inputs": [
        {
          "indexed": true,
          "internalType": "address",
          "name": "implementation",
          "type": "address"
        }
      ],
      "name": "Upgraded",
      "type": "event"
    },
    {
      "inputs": [],
      "name": "DEFAULT_ADMIN_ROLE",
      "outputs": [
        {
          "internalType": "bytes32",
          "name": "",
          "type": "bytes32"
        }
      ],
      "stateMutability": "view",
      "type": "function"
    },
    {
      "inputs": [
        {
          "internalType": "address",
          "name": "owner",
          "type": "address"
        }
      ],
      "name": "_BaseUpgradeablePausable_init",
      "outputs": [],
      "stateMutability": "nonpayable",
      "type": "function"
    },
    {
      "inputs": [],
      "name": "__PauserPausable__init",
      "outputs": [],
      "stateMutability": "nonpayable",
      "type": "function"
    },
    {
      "inputs": [],
      "name": "dygnifyConfig",
      "outputs": [
        {
          "internalType": "contract DygnifyConfig",
          "name": "",
          "type": "address"
        }
      ],
      "stateMutability": "view",
      "type": "function"
    },
    {
      "inputs": [
        {
          "internalType": "bytes32",
          "name": "role",
          "type": "bytes32"
        }
      ],
      "name": "getRoleAdmin",
      "outputs": [
        {
          "internalType": "bytes32",
          "name": "",
          "type": "bytes32"
        }
      ],
      "stateMutability": "view",
      "type": "function"
    },
    {
      "inputs": [],
      "name": "getTreasuryBalance",
      "outputs": [
        {
          "internalType": "uint256",
          "name": "",
          "type": "uint256"
        }
      ],
      "stateMutability": "view",
      "type": "function"
    },
    {
      "inputs": [
        {
          "internalType": "bytes32",
          "name": "role",
          "type": "bytes32"
        },
        {
          "internalType": "address",
          "name": "account",
          "type": "address"
        }
      ],
      "name": "grantRole",
      "outputs": [],
      "stateMutability": "nonpayable",
      "type": "function"
    },
    {
      "inputs": [
        {
          "internalType": "bytes32",
          "name": "role",
          "type": "bytes32"
        },
        {
          "internalType": "address",
          "name": "account",
          "type": "address"
        }
      ],
      "name": "hasRole",
      "outputs": [
        {
          "internalType": "bool",
          "name": "",
          "type": "bool"
        }
      ],
      "stateMutability": "view",
      "type": "function"
    },
    {
      "inputs": [
        {
          "internalType": "contract DygnifyConfig",
          "name": "_dygnifyConfig",
          "type": "address"
        }
      ],
      "name": "initialize",
      "outputs": [],
      "stateMutability": "nonpayable",
      "type": "function"
    },
    {
      "inputs": [],
      "name": "isAdmin",
      "outputs": [
        {
          "internalType": "bool",
          "name": "",
          "type": "bool"
        }
      ],
      "stateMutability": "view",
      "type": "function"
    },
    {
      "inputs": [],
      "name": "pause",
      "outputs": [],
      "stateMutability": "nonpayable",
      "type": "function"
    },
    {
      "inputs": [],
      "name": "paused",
      "outputs": [
        {
          "internalType": "bool",
          "name": "",
          "type": "bool"
        }
      ],
      "stateMutability": "view",
      "type": "function"
    },
    {
      "inputs": [],
      "name": "proxiableUUID",
      "outputs": [
        {
          "internalType": "bytes32",
          "name": "",
          "type": "bytes32"
        }
      ],
      "stateMutability": "view",
      "type": "function"
    },
    {
      "inputs": [
        {
          "internalType": "bytes32",
          "name": "role",
          "type": "bytes32"
        },
        {
          "internalType": "address",
          "name": "account",
          "type": "address"
        }
      ],
      "name": "renounceRole",
      "outputs": [],
      "stateMutability": "nonpayable",
      "type": "function"
    },
    {
      "inputs": [
        {
          "internalType": "bytes32",
          "name": "role",
          "type": "bytes32"
        },
        {
          "internalType": "address",
          "name": "account",
          "type": "address"
        }
      ],
      "name": "revokeRole",
      "outputs": [],
      "stateMutability": "nonpayable",
      "type": "function"
    },
    {
      "inputs": [
        {
          "internalType": "bytes4",
          "name": "interfaceId",
          "type": "bytes4"
        }
      ],
      "name": "supportsInterface",
      "outputs": [
        {
          "internalType": "bool",
          "name": "",
          "type": "bool"
        }
      ],
      "stateMutability": "view",
      "type": "function"
    },
    {
      "inputs": [],
      "name": "unpause",
      "outputs": [],
      "stateMutability": "nonpayable",
      "type": "function"
    },
    {
      "inputs": [
        {
          "internalType": "address",
          "name": "newImplementation",
          "type": "address"
        }
      ],
      "name": "upgradeTo",
      "outputs": [],
      "stateMutability": "nonpayable",
      "type": "function"
    },
    {
      "inputs": [
        {
          "internalType": "address",
          "name": "newImplementation",
          "type": "address"
        },
        {
          "internalType": "bytes",
          "name": "data",
          "type": "bytes"
        }
      ],
      "name": "upgradeToAndCall",
      "outputs": [],
      "stateMutability": "payable",
      "type": "function"
    },
    {
      "inputs": [],
      "name": "usdcToken",
      "outputs": [
        {
          "internalType": "contract IERC20",
          "name": "",
          "type": "address"
        }
      ],
      "stateMutability": "view",
      "type": "function"
    },
    {
      "inputs": [
        {
          "internalType": "uint256",
          "name": "amount",
          "type": "uint256"
        }
      ],
      "name": "withdraw",
      "outputs": [],
      "stateMutability": "nonpayable",
      "type": "function"
    }
  ],
  "bytecode": "0x60a06040523060601b60805234801561001757600080fd5b5060805160601c6124486100526000396000818161073d015281816107c20152818161094f015281816109d40152610bd901526124486000f3fe60806040526004361061016a5760003560e01c8063526d81f6116100cb5780639b5655dc1161007f578063b6db75a011610059578063b6db75a0146103cd578063c4d66de8146103e2578063d547741f1461040257600080fd5b80639b5655dc14610383578063a12dde4d14610398578063a217fddf146103b857600080fd5b80635c975abb116100b05780635c975abb146103105780638456cb591461032857806391d148541461033d57600080fd5b8063526d81f6146102e657806352d1902d146102fb57600080fd5b80632f2ff15d116101225780633659cfe6116101075780633659cfe61461029e5780633f4ba83a146102be5780634f1ef286146102d357600080fd5b80632f2ff15d1461025e57806336568abe1461027e57600080fd5b80631be95459116101535780631be95459146101dd578063248a9ca3146101fe5780632e1a7d4d1461023c57600080fd5b806301ffc9a71461016f57806311eac855146101a4575b600080fd5b34801561017b57600080fd5b5061018f61018a366004612220565b610422565b60405190151581526020015b60405180910390f35b3480156101b057600080fd5b50610160546101c5906001600160a01b031681565b6040516001600160a01b03909116815260200161019b565b3480156101e957600080fd5b5061015f546101c5906001600160a01b031681565b34801561020a57600080fd5b5061022e6102193660046121c1565b60009081526065602052604090206001015490565b60405190815260200161019b565b34801561024857600080fd5b5061025c6102573660046121c1565b6104bb565b005b34801561026a57600080fd5b5061025c6102793660046121f1565b61067c565b34801561028a57600080fd5b5061025c6102993660046121f1565b6106a6565b3480156102aa57600080fd5b5061025c6102b93660046120aa565b610732565b3480156102ca57600080fd5b5061025c6108ae565b61025c6102e13660046120e2565b610944565b3480156102f257600080fd5b5061025c610aad565b34801561030757600080fd5b5061022e610bcc565b34801561031c57600080fd5b5060975460ff1661018f565b34801561033457600080fd5b5061025c610c91565b34801561034957600080fd5b5061018f6103583660046121f1565b60009182526065602090815260408084206001600160a01b0393909316845291905290205460ff1690565b34801561038f57600080fd5b5061022e610d23565b3480156103a457600080fd5b5061025c6103b33660046120aa565b610dbd565b3480156103c457600080fd5b5061022e600081565b3480156103d957600080fd5b5061018f610f5e565b3480156103ee57600080fd5b5061025c6103fd3660046120aa565b610f8e565b34801561040e57600080fd5b5061025c61041d3660046121f1565b6111da565b60007fffffffff0000000000000000000000000000000000000000000000000000000082167f7965db0b0000000000000000000000000000000000000000000000000000000014806104b557507f01ffc9a7000000000000000000000000000000000000000000000000000000007fffffffff000000000000000000000000000000000000000000000000000000008316145b92915050565b600260c95414156105135760405162461bcd60e51b815260206004820152601f60248201527f5265656e7472616e637947756172643a207265656e7472616e742063616c6c0060448201526064015b60405180910390fd5b600260c9556105206111ff565b610528610f5e565b6105885760405162461bcd60e51b815260206004820152602b60248201527f4d75737420686176652061646d696e20726f6c6520746f20706572666f726d2060448201526a3a3434b99030b1ba34b7b760a91b606482015260840161050a565b600081116105d85760405162461bcd60e51b815260206004820181905260248201527f616d6f756e74206d7573742062652067726561746572207468616e207a65726f604482015260640161050a565b60006105e2610d23565b90508082111561065a5760405162461bcd60e51b815260206004820152602960248201527f616d6f756e7420657863656564732074686520746f74616c207472656173757260448201527f792062616c616e63650000000000000000000000000000000000000000000000606482015260840161050a565b61016054610673906001600160a01b0316303385611252565b5050600160c955565b600082815260656020526040902060010154610697816112e0565b6106a183836112ea565b505050565b6001600160a01b03811633146107245760405162461bcd60e51b815260206004820152602f60248201527f416363657373436f6e74726f6c3a2063616e206f6e6c792072656e6f756e636560448201527f20726f6c657320666f722073656c660000000000000000000000000000000000606482015260840161050a565b61072e828261138c565b5050565b306001600160a01b037f00000000000000000000000000000000000000000000000000000000000000001614156107c05760405162461bcd60e51b815260206004820152602c60248201527f46756e6374696f6e206d7573742062652063616c6c6564207468726f7567682060448201526b19195b1959d85d1958d85b1b60a21b606482015260840161050a565b7f00000000000000000000000000000000000000000000000000000000000000006001600160a01b031661081b7f360894a13ba1a3210667c828492db98dca3e2076cc3735a920a3ca505d382bbc546001600160a01b031690565b6001600160a01b0316146108865760405162461bcd60e51b815260206004820152602c60248201527f46756e6374696f6e206d7573742062652063616c6c6564207468726f7567682060448201526b6163746976652070726f787960a01b606482015260840161050a565b61088f8161140f565b604080516000808252602082019092526108ab91839190611477565b50565b6108d97f65d7a28e3265b37a6474929f336521b332c1681b933f6cb9f3376673440d862a5b33610358565b61093a5760405162461bcd60e51b815260206004820152602c60248201527f4d75737420686176652070617573657220726f6c6520746f20706572666f726d60448201526b103a3434b99030b1ba34b7b760a11b606482015260840161050a565b610942611626565b565b306001600160a01b037f00000000000000000000000000000000000000000000000000000000000000001614156109d25760405162461bcd60e51b815260206004820152602c60248201527f46756e6374696f6e206d7573742062652063616c6c6564207468726f7567682060448201526b19195b1959d85d1958d85b1b60a21b606482015260840161050a565b7f00000000000000000000000000000000000000000000000000000000000000006001600160a01b0316610a2d7f360894a13ba1a3210667c828492db98dca3e2076cc3735a920a3ca505d382bbc546001600160a01b031690565b6001600160a01b031614610a985760405162461bcd60e51b815260206004820152602c60248201527f46756e6374696f6e206d7573742062652063616c6c6564207468726f7567682060448201526b6163746976652070726f787960a01b606482015260840161050a565b610aa18261140f565b61072e82826001611477565b600054610100900460ff1615808015610acd5750600054600160ff909116105b80610ae75750303b158015610ae7575060005460ff166001145b610b595760405162461bcd60e51b815260206004820152602e60248201527f496e697469616c697a61626c653a20636f6e747261637420697320616c72656160448201527f647920696e697469616c697a6564000000000000000000000000000000000000606482015260840161050a565b6000805460ff191660011790558015610b7c576000805461ff0019166101001790555b610b84611678565b80156108ab576000805461ff0019169055604051600181527f7f26b83ff96e1f2b6a682f133852f6798a09c465da95921460cefb38474024989060200160405180910390a150565b6000306001600160a01b037f00000000000000000000000000000000000000000000000000000000000000001614610c6c5760405162461bcd60e51b815260206004820152603860248201527f555550535570677261646561626c653a206d757374206e6f742062652063616c60448201527f6c6564207468726f7567682064656c656761746563616c6c0000000000000000606482015260840161050a565b507f360894a13ba1a3210667c828492db98dca3e2076cc3735a920a3ca505d382bbc90565b610cba7f65d7a28e3265b37a6474929f336521b332c1681b933f6cb9f3376673440d862a6108d3565b610d1b5760405162461bcd60e51b815260206004820152602c60248201527f4d75737420686176652070617573657220726f6c6520746f20706572666f726d60448201526b103a3434b99030b1ba34b7b760a11b606482015260840161050a565b6109426116ef565b610160546040517f70a0823100000000000000000000000000000000000000000000000000000000815230600482015260009182916001600160a01b03909116906370a082319060240160206040518083038186803b158015610d8557600080fd5b505afa158015610d99573d6000803e3d6000fd5b505050506040513d601f19601f820116820180604052508101906104b591906121d9565b600054610100900460ff16610e285760405162461bcd60e51b815260206004820152602b60248201527f496e697469616c697a61626c653a20636f6e7472616374206973206e6f74206960448201526a6e697469616c697a696e6760a81b606482015260840161050a565b6001600160a01b038116610e7e5760405162461bcd60e51b815260206004820181905260248201527f4f776e65722063616e6e6f7420626520746865207a65726f2061646472657373604482015260640161050a565b610e8661172c565b610e8e611678565b610e96611797565b610ec17fa49807205ce4d355092ef5a8a18f56e8913cf4a201fbe287825b095693c217755b82611809565b610eea7f65d7a28e3265b37a6474929f336521b332c1681b933f6cb9f3376673440d862a610ebb565b610f357f65d7a28e3265b37a6474929f336521b332c1681b933f6cb9f3376673440d862a5b7fa49807205ce4d355092ef5a8a18f56e8913cf4a201fbe287825b095693c21775611813565b6108ab7fa49807205ce4d355092ef5a8a18f56e8913cf4a201fbe287825b095693c21775610f0f565b6000610f897fa49807205ce4d355092ef5a8a18f56e8913cf4a201fbe287825b095693c217756108d3565b905090565b600054610100900460ff1615808015610fae5750600054600160ff909116105b80610fc85750303b158015610fc8575060005460ff166001145b61103a5760405162461bcd60e51b815260206004820152602e60248201527f496e697469616c697a61626c653a20636f6e747261637420697320616c72656160448201527f647920696e697469616c697a6564000000000000000000000000000000000000606482015260840161050a565b6000805460ff19166001179055801561105d576000805461ff0019166101001790555b6001600160a01b0382166110b35760405162461bcd60e51b815260206004820152601660248201527f496e76616c696420636f6e666967206164647265737300000000000000000000604482015260640161050a565b61015f805473ffffffffffffffffffffffffffffffffffffffff19166001600160a01b0384169081179091556000906110eb9061185e565b90506001600160a01b0381166111435760405162461bcd60e51b815260206004820152600d60248201527f496e76616c6964204f776e657200000000000000000000000000000000000000604482015260640161050a565b61114c81610dbd565b61015f54611162906001600160a01b03166118df565b610160805473ffffffffffffffffffffffffffffffffffffffff19166001600160a01b039290921691909117905550801561072e576000805461ff0019169055604051600181527f7f26b83ff96e1f2b6a682f133852f6798a09c465da95921460cefb38474024989060200160405180910390a15050565b6000828152606560205260409020600101546111f5816112e0565b6106a1838361138c565b60975460ff16156109425760405162461bcd60e51b815260206004820152601060248201527f5061757361626c653a2070617573656400000000000000000000000000000000604482015260640161050a565b604080516001600160a01b0385811660248301528416604482015260648082018490528251808303909101815260849091019091526020810180517bffffffffffffffffffffffffffffffffffffffffffffffffffffffff167f23b872dd000000000000000000000000000000000000000000000000000000001790526112da9085906118f7565b50505050565b6108ab81336119dc565b60008281526065602090815260408083206001600160a01b038516845290915290205460ff1661072e5760008281526065602090815260408083206001600160a01b03851684529091529020805460ff191660011790556113483390565b6001600160a01b0316816001600160a01b0316837f2f8788117e7eff1d82e926ec794901d17c78024a50270940304540a733656f0d60405160405180910390a45050565b60008281526065602090815260408083206001600160a01b038516845290915290205460ff161561072e5760008281526065602090815260408083206001600160a01b0385168085529252808320805460ff1916905551339285917ff6391f5c32d9c69d2a47ea670b442974b53935d1edc7fd64eb21e047a839171b9190a45050565b611417610f5e565b6108ab5760405162461bcd60e51b815260206004820152602b60248201527f4d75737420686176652061646d696e20726f6c6520746f20706572666f726d2060448201526a3a3434b99030b1ba34b7b760a91b606482015260840161050a565b7f4910fdfa16fed3260ed0e7147f7cc6da11a60208b5b9406d12a635614ffd91435460ff16156114aa576106a183611a5c565b826001600160a01b03166352d1902d6040518163ffffffff1660e01b815260040160206040518083038186803b1580156114e357600080fd5b505afa925050508015611513575060408051601f3d908101601f19168201909252611510918101906121d9565b60015b6115855760405162461bcd60e51b815260206004820152602e60248201527f45524331393637557067726164653a206e657720696d706c656d656e7461746960448201527f6f6e206973206e6f742055555053000000000000000000000000000000000000606482015260840161050a565b7f360894a13ba1a3210667c828492db98dca3e2076cc3735a920a3ca505d382bbc811461161a5760405162461bcd60e51b815260206004820152602960248201527f45524331393637557067726164653a20756e737570706f727465642070726f7860448201527f6961626c65555549440000000000000000000000000000000000000000000000606482015260840161050a565b506106a1838383611b27565b61162e611b4c565b6097805460ff191690557f5db9ee0a495bf2e6ff9c91a7834c1ba4fdd244a5e8aa4e537bd38aeae4b073aa335b6040516001600160a01b03909116815260200160405180910390a1565b600054610100900460ff166116e35760405162461bcd60e51b815260206004820152602b60248201527f496e697469616c697a61626c653a20636f6e7472616374206973206e6f74206960448201526a6e697469616c697a696e6760a81b606482015260840161050a565b6097805460ff19169055565b6116f76111ff565b6097805460ff191660011790557f62e78cea01bee320cd4e420270b5ea74000d11b0c9f74754ebdbfc544b05a25861165b3390565b600054610100900460ff166109425760405162461bcd60e51b815260206004820152602b60248201527f496e697469616c697a61626c653a20636f6e7472616374206973206e6f74206960448201526a6e697469616c697a696e6760a81b606482015260840161050a565b600054610100900460ff166118025760405162461bcd60e51b815260206004820152602b60248201527f496e697469616c697a61626c653a20636f6e7472616374206973206e6f74206960448201526a6e697469616c697a696e6760a81b606482015260840161050a565b600160c955565b61072e82826112ea565b600082815260656020526040808220600101805490849055905190918391839186917fbd79b86ffe0ab8e8776151514217cd7cacd52c909f66475c3af44e129f0b00ff9190a4505050565b60006001600160a01b03821663b93f9b0a825b6040518263ffffffff1660e01b815260040161188f91815260200190565b60206040518083038186803b1580156118a757600080fd5b505afa1580156118bb573d6000803e3d6000fd5b505050506040513d601f19601f820116820180604052508101906104b591906120c6565b60006001600160a01b03821663b93f9b0a6002611871565b600061194c826040518060400160405280602081526020017f5361666545524332303a206c6f772d6c6576656c2063616c6c206661696c6564815250856001600160a01b0316611b9e9092919063ffffffff16565b8051909150156106a1578080602001905181019061196a91906121a1565b6106a15760405162461bcd60e51b815260206004820152602a60248201527f5361666545524332303a204552433230206f7065726174696f6e20646964206e60448201527f6f74207375636365656400000000000000000000000000000000000000000000606482015260840161050a565b60008281526065602090815260408083206001600160a01b038516845290915290205460ff1661072e57611a1a816001600160a01b03166014611bb7565b611a25836020611bb7565b604051602001611a3692919061227c565b60408051601f198184030181529082905262461bcd60e51b825261050a916004016122fd565b6001600160a01b0381163b611ad95760405162461bcd60e51b815260206004820152602d60248201527f455243313936373a206e657720696d706c656d656e746174696f6e206973206e60448201527f6f74206120636f6e747261637400000000000000000000000000000000000000606482015260840161050a565b7f360894a13ba1a3210667c828492db98dca3e2076cc3735a920a3ca505d382bbc805473ffffffffffffffffffffffffffffffffffffffff19166001600160a01b0392909216919091179055565b611b3083611dde565b600082511180611b3d5750805b156106a1576112da8383611e1e565b60975460ff166109425760405162461bcd60e51b815260206004820152601460248201527f5061757361626c653a206e6f7420706175736564000000000000000000000000604482015260640161050a565b6060611bad8484600085611f29565b90505b9392505050565b60606000611bc6836002612348565b611bd1906002612330565b67ffffffffffffffff811115611bf757634e487b7160e01b600052604160045260246000fd5b6040519080825280601f01601f191660200182016040528015611c21576020820181803683370190505b5090507f300000000000000000000000000000000000000000000000000000000000000081600081518110611c6657634e487b7160e01b600052603260045260246000fd5b60200101906001600160f81b031916908160001a9053507f780000000000000000000000000000000000000000000000000000000000000081600181518110611cbf57634e487b7160e01b600052603260045260246000fd5b60200101906001600160f81b031916908160001a9053506000611ce3846002612348565b611cee906001612330565b90505b6001811115611d8f577f303132333435363738396162636465660000000000000000000000000000000085600f1660108110611d3d57634e487b7160e01b600052603260045260246000fd5b1a60f81b828281518110611d6157634e487b7160e01b600052603260045260246000fd5b60200101906001600160f81b031916908160001a90535060049490941c93611d8881612393565b9050611cf1565b508315611bb05760405162461bcd60e51b815260206004820181905260248201527f537472696e67733a20686578206c656e67746820696e73756666696369656e74604482015260640161050a565b611de781611a5c565b6040516001600160a01b038216907fbc7cd75a20ee27fd9adebab32041f755214dbc6bffa90cc0225b39da2e5c2d3b90600090a250565b60606001600160a01b0383163b611e9d5760405162461bcd60e51b815260206004820152602660248201527f416464726573733a2064656c65676174652063616c6c20746f206e6f6e2d636f60448201527f6e74726163740000000000000000000000000000000000000000000000000000606482015260840161050a565b600080846001600160a01b031684604051611eb89190612260565b600060405180830381855af49150503d8060008114611ef3576040519150601f19603f3d011682016040523d82523d6000602084013e611ef8565b606091505b5091509150611f2082826040518060600160405280602781526020016123ec60279139612071565b95945050505050565b606082471015611fa15760405162461bcd60e51b815260206004820152602660248201527f416464726573733a20696e73756666696369656e742062616c616e636520666f60448201527f722063616c6c0000000000000000000000000000000000000000000000000000606482015260840161050a565b6001600160a01b0385163b611ff85760405162461bcd60e51b815260206004820152601d60248201527f416464726573733a2063616c6c20746f206e6f6e2d636f6e7472616374000000604482015260640161050a565b600080866001600160a01b031685876040516120149190612260565b60006040518083038185875af1925050503d8060008114612051576040519150601f19603f3d011682016040523d82523d6000602084013e612056565b606091505b5091509150612066828286612071565b979650505050505050565b60608315612080575081611bb0565b8251156120905782518084602001fd5b8160405162461bcd60e51b815260040161050a91906122fd565b6000602082840312156120bb578081fd5b8135611bb0816123d6565b6000602082840312156120d7578081fd5b8151611bb0816123d6565b600080604083850312156120f4578081fd5b82356120ff816123d6565b9150602083013567ffffffffffffffff8082111561211b578283fd5b818501915085601f83011261212e578283fd5b813581811115612140576121406123c0565b604051601f8201601f19908116603f01168101908382118183101715612168576121686123c0565b81604052828152886020848701011115612180578586fd5b82602086016020830137856020848301015280955050505050509250929050565b6000602082840312156121b2578081fd5b81518015158114611bb0578182fd5b6000602082840312156121d2578081fd5b5035919050565b6000602082840312156121ea578081fd5b5051919050565b60008060408385031215612203578182fd5b823591506020830135612215816123d6565b809150509250929050565b600060208284031215612231578081fd5b81357fffffffff0000000000000000000000000000000000000000000000000000000081168114611bb0578182fd5b60008251612272818460208701612367565b9190910192915050565b7f416363657373436f6e74726f6c3a206163636f756e74200000000000000000008152600083516122b4816017850160208801612367565b7f206973206d697373696e6720726f6c652000000000000000000000000000000060179184019182015283516122f1816028840160208801612367565b01602801949350505050565b602081526000825180602084015261231c816040850160208701612367565b601f01601f19169190910160400192915050565b60008219821115612343576123436123aa565b500190565b6000816000190483118215151615612362576123626123aa565b500290565b60005b8381101561238257818101518382015260200161236a565b838111156112da5750506000910152565b6000816123a2576123a26123aa565b506000190190565b634e487b7160e01b600052601160045260246000fd5b634e487b7160e01b600052604160045260246000fd5b6001600160a01b03811681146108ab57600080fdfe416464726573733a206c6f772d6c6576656c2064656c65676174652063616c6c206661696c6564a26469706673582212200988a6d4d4bd3c5920d9f32e713ed25a2dad574e393a870deca38c8f5db7617664736f6c63430008040033",
  "linkReferences": {},
  "deployedLinkReferences": {}
}