{
  "_format": "hh-sol-artifact-1",
  "contractName": "DygnifyTreasury",
  "sourceName": "contracts/protocol/DygnifyTreasury.sol",
  "abi": [
    {
      "anonymous": false,
      "inputs": [
        {
          "indexed": false,
          "internalType": "address",
          "name": "previousAdmin",
          "type": "address"
        },
        {
          "indexed": false,
          "internalType": "address",
          "name": "newAdmin",
          "type": "address"
        }
      ],
      "name": "AdminChanged",
      "type": "event"
    },
    {
      "anonymous": false,
      "inputs": [
        {
          "indexed": true,
          "internalType": "address",
          "name": "beacon",
          "type": "address"
        }
      ],
      "name": "BeaconUpgraded",
      "type": "event"
    },
    {
      "anonymous": false,
      "inputs": [
        {
          "indexed": false,
          "internalType": "uint8",
          "name": "version",
          "type": "uint8"
        }
      ],
      "name": "Initialized",
      "type": "event"
    },
    {
      "anonymous": false,
      "inputs": [
        {
          "indexed": false,
          "internalType": "address",
          "name": "account",
          "type": "address"
        }
      ],
      "name": "Paused",
      "type": "event"
    },
    {
      "anonymous": false,
      "inputs": [
        {
          "indexed": true,
          "internalType": "bytes32",
          "name": "role",
          "type": "bytes32"
        },
        {
          "indexed": true,
          "internalType": "bytes32",
          "name": "previousAdminRole",
          "type": "bytes32"
        },
        {
          "indexed": true,
          "internalType": "bytes32",
          "name": "newAdminRole",
          "type": "bytes32"
        }
      ],
      "name": "RoleAdminChanged",
      "type": "event"
    },
    {
      "anonymous": false,
      "inputs": [
        {
          "indexed": true,
          "internalType": "bytes32",
          "name": "role",
          "type": "bytes32"
        },
        {
          "indexed": true,
          "internalType": "address",
          "name": "account",
          "type": "address"
        },
        {
          "indexed": true,
          "internalType": "address",
          "name": "sender",
          "type": "address"
        }
      ],
      "name": "RoleGranted",
      "type": "event"
    },
    {
      "anonymous": false,
      "inputs": [
        {
          "indexed": true,
          "internalType": "bytes32",
          "name": "role",
          "type": "bytes32"
        },
        {
          "indexed": true,
          "internalType": "address",
          "name": "account",
          "type": "address"
        },
        {
          "indexed": true,
          "internalType": "address",
          "name": "sender",
          "type": "address"
        }
      ],
      "name": "RoleRevoked",
      "type": "event"
    },
    {
      "anonymous": false,
      "inputs": [
        {
          "indexed": false,
          "internalType": "address",
          "name": "account",
          "type": "address"
        }
      ],
      "name": "Unpaused",
      "type": "event"
    },
    {
      "anonymous": false,
      "inputs": [
        {
          "indexed": true,
          "internalType": "address",
          "name": "implementation",
          "type": "address"
        }
      ],
      "name": "Upgraded",
      "type": "event"
    },
    {
      "inputs": [],
      "name": "ADMIN_ROLE",
      "outputs": [
        {
          "internalType": "bytes32",
          "name": "",
          "type": "bytes32"
        }
      ],
      "stateMutability": "view",
      "type": "function"
    },
    {
      "inputs": [],
      "name": "DEFAULT_ADMIN_ROLE",
      "outputs": [
        {
          "internalType": "bytes32",
          "name": "",
          "type": "bytes32"
        }
      ],
      "stateMutability": "view",
      "type": "function"
    },
    {
      "inputs": [],
      "name": "PAUSER_ROLE",
      "outputs": [
        {
          "internalType": "bytes32",
          "name": "",
          "type": "bytes32"
        }
      ],
      "stateMutability": "view",
      "type": "function"
    },
    {
      "inputs": [
        {
          "internalType": "address",
          "name": "owner",
          "type": "address"
        }
      ],
      "name": "_BaseUpgradeablePausable_init",
      "outputs": [],
      "stateMutability": "nonpayable",
      "type": "function"
    },
    {
      "inputs": [],
      "name": "__PauserPausable__init",
      "outputs": [],
      "stateMutability": "nonpayable",
      "type": "function"
    },
    {
      "inputs": [],
      "name": "dygnifyConfig",
      "outputs": [
        {
          "internalType": "contract DygnifyConfig",
          "name": "",
          "type": "address"
        }
      ],
      "stateMutability": "view",
      "type": "function"
    },
    {
      "inputs": [
        {
          "internalType": "bytes32",
          "name": "role",
          "type": "bytes32"
        }
      ],
      "name": "getRoleAdmin",
      "outputs": [
        {
          "internalType": "bytes32",
          "name": "",
          "type": "bytes32"
        }
      ],
      "stateMutability": "view",
      "type": "function"
    },
    {
      "inputs": [],
      "name": "getTreasuryBalance",
      "outputs": [
        {
          "internalType": "uint256",
          "name": "",
          "type": "uint256"
        }
      ],
      "stateMutability": "view",
      "type": "function"
    },
    {
      "inputs": [
        {
          "internalType": "bytes32",
          "name": "role",
          "type": "bytes32"
        },
        {
          "internalType": "address",
          "name": "account",
          "type": "address"
        }
      ],
      "name": "grantRole",
      "outputs": [],
      "stateMutability": "nonpayable",
      "type": "function"
    },
    {
      "inputs": [
        {
          "internalType": "bytes32",
          "name": "role",
          "type": "bytes32"
        },
        {
          "internalType": "address",
          "name": "account",
          "type": "address"
        }
      ],
      "name": "hasRole",
      "outputs": [
        {
          "internalType": "bool",
          "name": "",
          "type": "bool"
        }
      ],
      "stateMutability": "view",
      "type": "function"
    },
    {
      "inputs": [
        {
          "internalType": "contract DygnifyConfig",
          "name": "_dygnifyConfig",
          "type": "address"
        }
      ],
      "name": "initialize",
      "outputs": [],
      "stateMutability": "nonpayable",
      "type": "function"
    },
    {
      "inputs": [],
      "name": "isAdmin",
      "outputs": [
        {
          "internalType": "bool",
          "name": "",
          "type": "bool"
        }
      ],
      "stateMutability": "view",
      "type": "function"
    },
    {
      "inputs": [],
      "name": "pause",
      "outputs": [],
      "stateMutability": "nonpayable",
      "type": "function"
    },
    {
      "inputs": [],
      "name": "paused",
      "outputs": [
        {
          "internalType": "bool",
          "name": "",
          "type": "bool"
        }
      ],
      "stateMutability": "view",
      "type": "function"
    },
    {
      "inputs": [],
      "name": "proxiableUUID",
      "outputs": [
        {
          "internalType": "bytes32",
          "name": "",
          "type": "bytes32"
        }
      ],
      "stateMutability": "view",
      "type": "function"
    },
    {
      "inputs": [
        {
          "internalType": "bytes32",
          "name": "role",
          "type": "bytes32"
        },
        {
          "internalType": "address",
          "name": "account",
          "type": "address"
        }
      ],
      "name": "renounceRole",
      "outputs": [],
      "stateMutability": "nonpayable",
      "type": "function"
    },
    {
      "inputs": [
        {
          "internalType": "bytes32",
          "name": "role",
          "type": "bytes32"
        },
        {
          "internalType": "address",
          "name": "account",
          "type": "address"
        }
      ],
      "name": "revokeRole",
      "outputs": [],
      "stateMutability": "nonpayable",
      "type": "function"
    },
    {
      "inputs": [
        {
          "internalType": "bytes4",
          "name": "interfaceId",
          "type": "bytes4"
        }
      ],
      "name": "supportsInterface",
      "outputs": [
        {
          "internalType": "bool",
          "name": "",
          "type": "bool"
        }
      ],
      "stateMutability": "view",
      "type": "function"
    },
    {
      "inputs": [],
      "name": "unpause",
      "outputs": [],
      "stateMutability": "nonpayable",
      "type": "function"
    },
    {
      "inputs": [
        {
          "internalType": "address",
          "name": "newImplementation",
          "type": "address"
        }
      ],
      "name": "upgradeTo",
      "outputs": [],
      "stateMutability": "nonpayable",
      "type": "function"
    },
    {
      "inputs": [
        {
          "internalType": "address",
          "name": "newImplementation",
          "type": "address"
        },
        {
          "internalType": "bytes",
          "name": "data",
          "type": "bytes"
        }
      ],
      "name": "upgradeToAndCall",
      "outputs": [],
      "stateMutability": "payable",
      "type": "function"
    },
    {
      "inputs": [],
      "name": "usdcToken",
      "outputs": [
        {
          "internalType": "contract IERC20",
          "name": "",
          "type": "address"
        }
      ],
      "stateMutability": "view",
      "type": "function"
    },
    {
      "inputs": [
        {
          "internalType": "uint256",
          "name": "amount",
          "type": "uint256"
        }
      ],
      "name": "withdraw",
      "outputs": [],
      "stateMutability": "nonpayable",
      "type": "function"
    }
  ],
  "bytecode": "0x60a06040523060601b60805234801561001757600080fd5b5060805160601c6124c7610052600039600081816107bb01528181610840015281816109cc01528181610a510152610c5601526124c76000f3fe6080604052600436106101805760003560e01c806352d1902d116100d6578063a12dde4d1161007f578063c4d66de811610059578063c4d66de81461042c578063d547741f1461044c578063e63ab1e91461046c57600080fd5b8063a12dde4d146103e2578063a217fddf14610402578063b6db75a01461041757600080fd5b80638456cb59116100b05780638456cb591461037257806391d14854146103875780639b5655dc146103cd57600080fd5b806352d1902d146103115780635c975abb1461032657806375b238fc1461033e57600080fd5b80632f2ff15d116101385780633f4ba83a116101125780633f4ba83a146102d45780634f1ef286146102e9578063526d81f6146102fc57600080fd5b80632f2ff15d1461027457806336568abe146102945780633659cfe6146102b457600080fd5b80631be95459116101695780631be95459146101f3578063248a9ca3146102145780632e1a7d4d1461025257600080fd5b806301ffc9a71461018557806311eac855146101ba575b600080fd5b34801561019157600080fd5b506101a56101a036600461229f565b6104a0565b60405190151581526020015b60405180910390f35b3480156101c657600080fd5b50610160546101db906001600160a01b031681565b6040516001600160a01b0390911681526020016101b1565b3480156101ff57600080fd5b5061015f546101db906001600160a01b031681565b34801561022057600080fd5b5061024461022f366004612240565b60009081526065602052604090206001015490565b6040519081526020016101b1565b34801561025e57600080fd5b5061027261026d366004612240565b610539565b005b34801561028057600080fd5b5061027261028f366004612270565b6106fa565b3480156102a057600080fd5b506102726102af366004612270565b610724565b3480156102c057600080fd5b506102726102cf366004612129565b6107b0565b3480156102e057600080fd5b5061027261092c565b6102726102f7366004612161565b6109c1565b34801561030857600080fd5b50610272610b2a565b34801561031d57600080fd5b50610244610c49565b34801561033257600080fd5b5060975460ff166101a5565b34801561034a57600080fd5b506102447fa49807205ce4d355092ef5a8a18f56e8913cf4a201fbe287825b095693c2177581565b34801561037e57600080fd5b50610272610d0e565b34801561039357600080fd5b506101a56103a2366004612270565b60009182526065602090815260408084206001600160a01b0393909316845291905290205460ff1690565b3480156103d957600080fd5b50610244610da1565b3480156103ee57600080fd5b506102726103fd366004612129565b610e3b565b34801561040e57600080fd5b50610244600081565b34801561042357600080fd5b506101a5610fdc565b34801561043857600080fd5b50610272610447366004612129565b61100d565b34801561045857600080fd5b50610272610467366004612270565b611259565b34801561047857600080fd5b506102447f65d7a28e3265b37a6474929f336521b332c1681b933f6cb9f3376673440d862a81565b60007fffffffff0000000000000000000000000000000000000000000000000000000082167f7965db0b00000000000000000000000000000000000000000000000000000000148061053357507f01ffc9a7000000000000000000000000000000000000000000000000000000007fffffffff000000000000000000000000000000000000000000000000000000008316145b92915050565b600260c95414156105915760405162461bcd60e51b815260206004820152601f60248201527f5265656e7472616e637947756172643a207265656e7472616e742063616c6c0060448201526064015b60405180910390fd5b600260c95561059e61127e565b6105a6610fdc565b6106065760405162461bcd60e51b815260206004820152602b60248201527f4d75737420686176652061646d696e20726f6c6520746f20706572666f726d2060448201526a3a3434b99030b1ba34b7b760a91b6064820152608401610588565b600081116106565760405162461bcd60e51b815260206004820181905260248201527f616d6f756e74206d7573742062652067726561746572207468616e207a65726f6044820152606401610588565b6000610660610da1565b9050808211156106d85760405162461bcd60e51b815260206004820152602960248201527f616d6f756e7420657863656564732074686520746f74616c207472656173757260448201527f792062616c616e636500000000000000000000000000000000000000000000006064820152608401610588565b610160546106f1906001600160a01b03163033856112d1565b5050600160c955565b6000828152606560205260409020600101546107158161135f565b61071f8383611369565b505050565b6001600160a01b03811633146107a25760405162461bcd60e51b815260206004820152602f60248201527f416363657373436f6e74726f6c3a2063616e206f6e6c792072656e6f756e636560448201527f20726f6c657320666f722073656c6600000000000000000000000000000000006064820152608401610588565b6107ac828261140b565b5050565b306001600160a01b037f000000000000000000000000000000000000000000000000000000000000000016141561083e5760405162461bcd60e51b815260206004820152602c60248201527f46756e6374696f6e206d7573742062652063616c6c6564207468726f7567682060448201526b19195b1959d85d1958d85b1b60a21b6064820152608401610588565b7f00000000000000000000000000000000000000000000000000000000000000006001600160a01b03166108997f360894a13ba1a3210667c828492db98dca3e2076cc3735a920a3ca505d382bbc546001600160a01b031690565b6001600160a01b0316146109045760405162461bcd60e51b815260206004820152602c60248201527f46756e6374696f6e206d7573742062652063616c6c6564207468726f7567682060448201526b6163746976652070726f787960a01b6064820152608401610588565b61090d8161148e565b60408051600080825260208201909252610929918391906114f6565b50565b6109567f65d7a28e3265b37a6474929f336521b332c1681b933f6cb9f3376673440d862a336103a2565b6109b75760405162461bcd60e51b815260206004820152602c60248201527f4d75737420686176652070617573657220726f6c6520746f20706572666f726d60448201526b103a3434b99030b1ba34b7b760a11b6064820152608401610588565b6109bf6116a5565b565b306001600160a01b037f0000000000000000000000000000000000000000000000000000000000000000161415610a4f5760405162461bcd60e51b815260206004820152602c60248201527f46756e6374696f6e206d7573742062652063616c6c6564207468726f7567682060448201526b19195b1959d85d1958d85b1b60a21b6064820152608401610588565b7f00000000000000000000000000000000000000000000000000000000000000006001600160a01b0316610aaa7f360894a13ba1a3210667c828492db98dca3e2076cc3735a920a3ca505d382bbc546001600160a01b031690565b6001600160a01b031614610b155760405162461bcd60e51b815260206004820152602c60248201527f46756e6374696f6e206d7573742062652063616c6c6564207468726f7567682060448201526b6163746976652070726f787960a01b6064820152608401610588565b610b1e8261148e565b6107ac828260016114f6565b600054610100900460ff1615808015610b4a5750600054600160ff909116105b80610b645750303b158015610b64575060005460ff166001145b610bd65760405162461bcd60e51b815260206004820152602e60248201527f496e697469616c697a61626c653a20636f6e747261637420697320616c72656160448201527f647920696e697469616c697a65640000000000000000000000000000000000006064820152608401610588565b6000805460ff191660011790558015610bf9576000805461ff0019166101001790555b610c016116f7565b8015610929576000805461ff0019169055604051600181527f7f26b83ff96e1f2b6a682f133852f6798a09c465da95921460cefb38474024989060200160405180910390a150565b6000306001600160a01b037f00000000000000000000000000000000000000000000000000000000000000001614610ce95760405162461bcd60e51b815260206004820152603860248201527f555550535570677261646561626c653a206d757374206e6f742062652063616c60448201527f6c6564207468726f7567682064656c656761746563616c6c00000000000000006064820152608401610588565b507f360894a13ba1a3210667c828492db98dca3e2076cc3735a920a3ca505d382bbc90565b610d387f65d7a28e3265b37a6474929f336521b332c1681b933f6cb9f3376673440d862a336103a2565b610d995760405162461bcd60e51b815260206004820152602c60248201527f4d75737420686176652070617573657220726f6c6520746f20706572666f726d60448201526b103a3434b99030b1ba34b7b760a11b6064820152608401610588565b6109bf61176e565b610160546040517f70a0823100000000000000000000000000000000000000000000000000000000815230600482015260009182916001600160a01b03909116906370a082319060240160206040518083038186803b158015610e0357600080fd5b505afa158015610e17573d6000803e3d6000fd5b505050506040513d601f19601f820116820180604052508101906105339190612258565b600054610100900460ff16610ea65760405162461bcd60e51b815260206004820152602b60248201527f496e697469616c697a61626c653a20636f6e7472616374206973206e6f74206960448201526a6e697469616c697a696e6760a81b6064820152608401610588565b6001600160a01b038116610efc5760405162461bcd60e51b815260206004820181905260248201527f4f776e65722063616e6e6f7420626520746865207a65726f20616464726573736044820152606401610588565b610f046117ab565b610f0c6116f7565b610f14611816565b610f3e7fa49807205ce4d355092ef5a8a18f56e8913cf4a201fbe287825b095693c2177582611888565b610f687f65d7a28e3265b37a6474929f336521b332c1681b933f6cb9f3376673440d862a82611888565b610fb27f65d7a28e3265b37a6474929f336521b332c1681b933f6cb9f3376673440d862a7fa49807205ce4d355092ef5a8a18f56e8913cf4a201fbe287825b095693c21775611892565b6109297fa49807205ce4d355092ef5a8a18f56e8913cf4a201fbe287825b095693c2177580611892565b60006110087fa49807205ce4d355092ef5a8a18f56e8913cf4a201fbe287825b095693c21775336103a2565b905090565b600054610100900460ff161580801561102d5750600054600160ff909116105b806110475750303b158015611047575060005460ff166001145b6110b95760405162461bcd60e51b815260206004820152602e60248201527f496e697469616c697a61626c653a20636f6e747261637420697320616c72656160448201527f647920696e697469616c697a65640000000000000000000000000000000000006064820152608401610588565b6000805460ff1916600117905580156110dc576000805461ff0019166101001790555b6001600160a01b0382166111325760405162461bcd60e51b815260206004820152601660248201527f496e76616c696420636f6e6669672061646472657373000000000000000000006044820152606401610588565b61015f805473ffffffffffffffffffffffffffffffffffffffff19166001600160a01b03841690811790915560009061116a906118dd565b90506001600160a01b0381166111c25760405162461bcd60e51b815260206004820152600d60248201527f496e76616c6964204f776e6572000000000000000000000000000000000000006044820152606401610588565b6111cb81610e3b565b61015f546111e1906001600160a01b031661195e565b610160805473ffffffffffffffffffffffffffffffffffffffff19166001600160a01b03929092169190911790555080156107ac576000805461ff0019169055604051600181527f7f26b83ff96e1f2b6a682f133852f6798a09c465da95921460cefb38474024989060200160405180910390a15050565b6000828152606560205260409020600101546112748161135f565b61071f838361140b565b60975460ff16156109bf5760405162461bcd60e51b815260206004820152601060248201527f5061757361626c653a20706175736564000000000000000000000000000000006044820152606401610588565b604080516001600160a01b0385811660248301528416604482015260648082018490528251808303909101815260849091019091526020810180517bffffffffffffffffffffffffffffffffffffffffffffffffffffffff167f23b872dd00000000000000000000000000000000000000000000000000000000179052611359908590611976565b50505050565b6109298133611a5b565b60008281526065602090815260408083206001600160a01b038516845290915290205460ff166107ac5760008281526065602090815260408083206001600160a01b03851684529091529020805460ff191660011790556113c73390565b6001600160a01b0316816001600160a01b0316837f2f8788117e7eff1d82e926ec794901d17c78024a50270940304540a733656f0d60405160405180910390a45050565b60008281526065602090815260408083206001600160a01b038516845290915290205460ff16156107ac5760008281526065602090815260408083206001600160a01b0385168085529252808320805460ff1916905551339285917ff6391f5c32d9c69d2a47ea670b442974b53935d1edc7fd64eb21e047a839171b9190a45050565b611496610fdc565b6109295760405162461bcd60e51b815260206004820152602b60248201527f4d75737420686176652061646d696e20726f6c6520746f20706572666f726d2060448201526a3a3434b99030b1ba34b7b760a91b6064820152608401610588565b7f4910fdfa16fed3260ed0e7147f7cc6da11a60208b5b9406d12a635614ffd91435460ff16156115295761071f83611adb565b826001600160a01b03166352d1902d6040518163ffffffff1660e01b815260040160206040518083038186803b15801561156257600080fd5b505afa925050508015611592575060408051601f3d908101601f1916820190925261158f91810190612258565b60015b6116045760405162461bcd60e51b815260206004820152602e60248201527f45524331393637557067726164653a206e657720696d706c656d656e7461746960448201527f6f6e206973206e6f7420555550530000000000000000000000000000000000006064820152608401610588565b7f360894a13ba1a3210667c828492db98dca3e2076cc3735a920a3ca505d382bbc81146116995760405162461bcd60e51b815260206004820152602960248201527f45524331393637557067726164653a20756e737570706f727465642070726f7860448201527f6961626c655555494400000000000000000000000000000000000000000000006064820152608401610588565b5061071f838383611ba6565b6116ad611bcb565b6097805460ff191690557f5db9ee0a495bf2e6ff9c91a7834c1ba4fdd244a5e8aa4e537bd38aeae4b073aa335b6040516001600160a01b03909116815260200160405180910390a1565b600054610100900460ff166117625760405162461bcd60e51b815260206004820152602b60248201527f496e697469616c697a61626c653a20636f6e7472616374206973206e6f74206960448201526a6e697469616c697a696e6760a81b6064820152608401610588565b6097805460ff19169055565b61177661127e565b6097805460ff191660011790557f62e78cea01bee320cd4e420270b5ea74000d11b0c9f74754ebdbfc544b05a2586116da3390565b600054610100900460ff166109bf5760405162461bcd60e51b815260206004820152602b60248201527f496e697469616c697a61626c653a20636f6e7472616374206973206e6f74206960448201526a6e697469616c697a696e6760a81b6064820152608401610588565b600054610100900460ff166118815760405162461bcd60e51b815260206004820152602b60248201527f496e697469616c697a61626c653a20636f6e7472616374206973206e6f74206960448201526a6e697469616c697a696e6760a81b6064820152608401610588565b600160c955565b6107ac8282611369565b600082815260656020526040808220600101805490849055905190918391839186917fbd79b86ffe0ab8e8776151514217cd7cacd52c909f66475c3af44e129f0b00ff9190a4505050565b60006001600160a01b03821663b93f9b0a825b6040518263ffffffff1660e01b815260040161190e91815260200190565b60206040518083038186803b15801561192657600080fd5b505afa15801561193a573d6000803e3d6000fd5b505050506040513d601f19601f820116820180604052508101906105339190612145565b60006001600160a01b03821663b93f9b0a60026118f0565b60006119cb826040518060400160405280602081526020017f5361666545524332303a206c6f772d6c6576656c2063616c6c206661696c6564815250856001600160a01b0316611c1d9092919063ffffffff16565b80519091501561071f57808060200190518101906119e99190612220565b61071f5760405162461bcd60e51b815260206004820152602a60248201527f5361666545524332303a204552433230206f7065726174696f6e20646964206e60448201527f6f742073756363656564000000000000000000000000000000000000000000006064820152608401610588565b60008281526065602090815260408083206001600160a01b038516845290915290205460ff166107ac57611a99816001600160a01b03166014611c36565b611aa4836020611c36565b604051602001611ab59291906122fb565b60408051601f198184030181529082905262461bcd60e51b82526105889160040161237c565b6001600160a01b0381163b611b585760405162461bcd60e51b815260206004820152602d60248201527f455243313936373a206e657720696d706c656d656e746174696f6e206973206e60448201527f6f74206120636f6e7472616374000000000000000000000000000000000000006064820152608401610588565b7f360894a13ba1a3210667c828492db98dca3e2076cc3735a920a3ca505d382bbc805473ffffffffffffffffffffffffffffffffffffffff19166001600160a01b0392909216919091179055565b611baf83611e5d565b600082511180611bbc5750805b1561071f576113598383611e9d565b60975460ff166109bf5760405162461bcd60e51b815260206004820152601460248201527f5061757361626c653a206e6f74207061757365640000000000000000000000006044820152606401610588565b6060611c2c8484600085611fa8565b90505b9392505050565b60606000611c458360026123c7565b611c509060026123af565b67ffffffffffffffff811115611c7657634e487b7160e01b600052604160045260246000fd5b6040519080825280601f01601f191660200182016040528015611ca0576020820181803683370190505b5090507f300000000000000000000000000000000000000000000000000000000000000081600081518110611ce557634e487b7160e01b600052603260045260246000fd5b60200101906001600160f81b031916908160001a9053507f780000000000000000000000000000000000000000000000000000000000000081600181518110611d3e57634e487b7160e01b600052603260045260246000fd5b60200101906001600160f81b031916908160001a9053506000611d628460026123c7565b611d6d9060016123af565b90505b6001811115611e0e577f303132333435363738396162636465660000000000000000000000000000000085600f1660108110611dbc57634e487b7160e01b600052603260045260246000fd5b1a60f81b828281518110611de057634e487b7160e01b600052603260045260246000fd5b60200101906001600160f81b031916908160001a90535060049490941c93611e0781612412565b9050611d70565b508315611c2f5760405162461bcd60e51b815260206004820181905260248201527f537472696e67733a20686578206c656e67746820696e73756666696369656e746044820152606401610588565b611e6681611adb565b6040516001600160a01b038216907fbc7cd75a20ee27fd9adebab32041f755214dbc6bffa90cc0225b39da2e5c2d3b90600090a250565b60606001600160a01b0383163b611f1c5760405162461bcd60e51b815260206004820152602660248201527f416464726573733a2064656c65676174652063616c6c20746f206e6f6e2d636f60448201527f6e747261637400000000000000000000000000000000000000000000000000006064820152608401610588565b600080846001600160a01b031684604051611f3791906122df565b600060405180830381855af49150503d8060008114611f72576040519150601f19603f3d011682016040523d82523d6000602084013e611f77565b606091505b5091509150611f9f828260405180606001604052806027815260200161246b602791396120f0565b95945050505050565b6060824710156120205760405162461bcd60e51b815260206004820152602660248201527f416464726573733a20696e73756666696369656e742062616c616e636520666f60448201527f722063616c6c00000000000000000000000000000000000000000000000000006064820152608401610588565b6001600160a01b0385163b6120775760405162461bcd60e51b815260206004820152601d60248201527f416464726573733a2063616c6c20746f206e6f6e2d636f6e74726163740000006044820152606401610588565b600080866001600160a01b0316858760405161209391906122df565b60006040518083038185875af1925050503d80600081146120d0576040519150601f19603f3d011682016040523d82523d6000602084013e6120d5565b606091505b50915091506120e58282866120f0565b979650505050505050565b606083156120ff575081611c2f565b82511561210f5782518084602001fd5b8160405162461bcd60e51b8152600401610588919061237c565b60006020828403121561213a578081fd5b8135611c2f81612455565b600060208284031215612156578081fd5b8151611c2f81612455565b60008060408385031215612173578081fd5b823561217e81612455565b9150602083013567ffffffffffffffff8082111561219a578283fd5b818501915085601f8301126121ad578283fd5b8135818111156121bf576121bf61243f565b604051601f8201601f19908116603f011681019083821181831017156121e7576121e761243f565b816040528281528860208487010111156121ff578586fd5b82602086016020830137856020848301015280955050505050509250929050565b600060208284031215612231578081fd5b81518015158114611c2f578182fd5b600060208284031215612251578081fd5b5035919050565b600060208284031215612269578081fd5b5051919050565b60008060408385031215612282578182fd5b82359150602083013561229481612455565b809150509250929050565b6000602082840312156122b0578081fd5b81357fffffffff0000000000000000000000000000000000000000000000000000000081168114611c2f578182fd5b600082516122f18184602087016123e6565b9190910192915050565b7f416363657373436f6e74726f6c3a206163636f756e74200000000000000000008152600083516123338160178501602088016123e6565b7f206973206d697373696e6720726f6c652000000000000000000000000000000060179184019182015283516123708160288401602088016123e6565b01602801949350505050565b602081526000825180602084015261239b8160408501602087016123e6565b601f01601f19169190910160400192915050565b600082198211156123c2576123c2612429565b500190565b60008160001904831182151516156123e1576123e1612429565b500290565b60005b838110156124015781810151838201526020016123e9565b838111156113595750506000910152565b60008161242157612421612429565b506000190190565b634e487b7160e01b600052601160045260246000fd5b634e487b7160e01b600052604160045260246000fd5b6001600160a01b038116811461092957600080fdfe416464726573733a206c6f772d6c6576656c2064656c65676174652063616c6c206661696c6564a2646970667358221220bdba00a19c764a31f16b7af6ee1f39f61ffbe22b88471d6717d52b95e27ef1b464736f6c63430008040033",
  "linkReferences": {},
  "deployedLinkReferences": {}
}