{
  "_format": "hh-sol-artifact-1",
  "contractName": "DygnifyTreasury",
  "sourceName": "contracts/protocol/DygnifyTreasury.sol",
  "abi": [
    {
      "anonymous": false,
      "inputs": [
        {
          "indexed": false,
          "internalType": "address",
          "name": "previousAdmin",
          "type": "address"
        },
        {
          "indexed": false,
          "internalType": "address",
          "name": "newAdmin",
          "type": "address"
        }
      ],
      "name": "AdminChanged",
      "type": "event"
    },
    {
      "anonymous": false,
      "inputs": [
        {
          "indexed": true,
          "internalType": "address",
          "name": "beacon",
          "type": "address"
        }
      ],
      "name": "BeaconUpgraded",
      "type": "event"
    },
    {
      "anonymous": false,
      "inputs": [
        {
          "indexed": false,
          "internalType": "uint8",
          "name": "version",
          "type": "uint8"
        }
      ],
      "name": "Initialized",
      "type": "event"
    },
    {
      "anonymous": false,
      "inputs": [
        {
          "indexed": false,
          "internalType": "address",
          "name": "account",
          "type": "address"
        }
      ],
      "name": "Paused",
      "type": "event"
    },
    {
      "anonymous": false,
      "inputs": [
        {
          "indexed": true,
          "internalType": "bytes32",
          "name": "role",
          "type": "bytes32"
        },
        {
          "indexed": true,
          "internalType": "bytes32",
          "name": "previousAdminRole",
          "type": "bytes32"
        },
        {
          "indexed": true,
          "internalType": "bytes32",
          "name": "newAdminRole",
          "type": "bytes32"
        }
      ],
      "name": "RoleAdminChanged",
      "type": "event"
    },
    {
      "anonymous": false,
      "inputs": [
        {
          "indexed": true,
          "internalType": "bytes32",
          "name": "role",
          "type": "bytes32"
        },
        {
          "indexed": true,
          "internalType": "address",
          "name": "account",
          "type": "address"
        },
        {
          "indexed": true,
          "internalType": "address",
          "name": "sender",
          "type": "address"
        }
      ],
      "name": "RoleGranted",
      "type": "event"
    },
    {
      "anonymous": false,
      "inputs": [
        {
          "indexed": true,
          "internalType": "bytes32",
          "name": "role",
          "type": "bytes32"
        },
        {
          "indexed": true,
          "internalType": "address",
          "name": "account",
          "type": "address"
        },
        {
          "indexed": true,
          "internalType": "address",
          "name": "sender",
          "type": "address"
        }
      ],
      "name": "RoleRevoked",
      "type": "event"
    },
    {
      "anonymous": false,
      "inputs": [
        {
          "indexed": false,
          "internalType": "address",
          "name": "account",
          "type": "address"
        }
      ],
      "name": "Unpaused",
      "type": "event"
    },
    {
      "anonymous": false,
      "inputs": [
        {
          "indexed": true,
          "internalType": "address",
          "name": "implementation",
          "type": "address"
        }
      ],
      "name": "Upgraded",
      "type": "event"
    },
    {
      "inputs": [],
      "name": "DEFAULT_ADMIN_ROLE",
      "outputs": [
        {
          "internalType": "bytes32",
          "name": "",
          "type": "bytes32"
        }
      ],
      "stateMutability": "view",
      "type": "function"
    },
    {
      "inputs": [
        {
          "internalType": "address",
          "name": "owner",
          "type": "address"
        }
      ],
      "name": "_BaseUpgradeablePausable_init",
      "outputs": [],
      "stateMutability": "nonpayable",
      "type": "function"
    },
    {
      "inputs": [],
      "name": "__PauserPausable__init",
      "outputs": [],
      "stateMutability": "nonpayable",
      "type": "function"
    },
    {
      "inputs": [],
      "name": "dygnifyConfig",
      "outputs": [
        {
          "internalType": "contract DygnifyConfig",
          "name": "",
          "type": "address"
        }
      ],
      "stateMutability": "view",
      "type": "function"
    },
    {
      "inputs": [
        {
          "internalType": "bytes32",
          "name": "role",
          "type": "bytes32"
        }
      ],
      "name": "getRoleAdmin",
      "outputs": [
        {
          "internalType": "bytes32",
          "name": "",
          "type": "bytes32"
        }
      ],
      "stateMutability": "view",
      "type": "function"
    },
    {
      "inputs": [],
      "name": "getTreasuryBalance",
      "outputs": [
        {
          "internalType": "uint256",
          "name": "",
          "type": "uint256"
        }
      ],
      "stateMutability": "view",
      "type": "function"
    },
    {
      "inputs": [
        {
          "internalType": "bytes32",
          "name": "role",
          "type": "bytes32"
        },
        {
          "internalType": "address",
          "name": "account",
          "type": "address"
        }
      ],
      "name": "grantRole",
      "outputs": [],
      "stateMutability": "nonpayable",
      "type": "function"
    },
    {
      "inputs": [
        {
          "internalType": "bytes32",
          "name": "role",
          "type": "bytes32"
        },
        {
          "internalType": "address",
          "name": "account",
          "type": "address"
        }
      ],
      "name": "hasRole",
      "outputs": [
        {
          "internalType": "bool",
          "name": "",
          "type": "bool"
        }
      ],
      "stateMutability": "view",
      "type": "function"
    },
    {
      "inputs": [
        {
          "internalType": "contract DygnifyConfig",
          "name": "_dygnifyConfig",
          "type": "address"
        },
        {
          "internalType": "address",
          "name": "_wallet",
          "type": "address"
        }
      ],
      "name": "initialize",
      "outputs": [],
      "stateMutability": "nonpayable",
      "type": "function"
    },
    {
      "inputs": [],
      "name": "isAdmin",
      "outputs": [
        {
          "internalType": "bool",
          "name": "",
          "type": "bool"
        }
      ],
      "stateMutability": "view",
      "type": "function"
    },
    {
      "inputs": [],
      "name": "pause",
      "outputs": [],
      "stateMutability": "nonpayable",
      "type": "function"
    },
    {
      "inputs": [],
      "name": "paused",
      "outputs": [
        {
          "internalType": "bool",
          "name": "",
          "type": "bool"
        }
      ],
      "stateMutability": "view",
      "type": "function"
    },
    {
      "inputs": [],
      "name": "proxiableUUID",
      "outputs": [
        {
          "internalType": "bytes32",
          "name": "",
          "type": "bytes32"
        }
      ],
      "stateMutability": "view",
      "type": "function"
    },
    {
      "inputs": [
        {
          "internalType": "bytes32",
          "name": "role",
          "type": "bytes32"
        },
        {
          "internalType": "address",
          "name": "account",
          "type": "address"
        }
      ],
      "name": "renounceRole",
      "outputs": [],
      "stateMutability": "nonpayable",
      "type": "function"
    },
    {
      "inputs": [
        {
          "internalType": "bytes32",
          "name": "role",
          "type": "bytes32"
        },
        {
          "internalType": "address",
          "name": "account",
          "type": "address"
        }
      ],
      "name": "revokeRole",
      "outputs": [],
      "stateMutability": "nonpayable",
      "type": "function"
    },
    {
      "inputs": [
        {
          "internalType": "address",
          "name": "_wallet",
          "type": "address"
        }
      ],
      "name": "setWallet",
      "outputs": [],
      "stateMutability": "nonpayable",
      "type": "function"
    },
    {
      "inputs": [
        {
          "internalType": "bytes4",
          "name": "interfaceId",
          "type": "bytes4"
        }
      ],
      "name": "supportsInterface",
      "outputs": [
        {
          "internalType": "bool",
          "name": "",
          "type": "bool"
        }
      ],
      "stateMutability": "view",
      "type": "function"
    },
    {
      "inputs": [],
      "name": "unpause",
      "outputs": [],
      "stateMutability": "nonpayable",
      "type": "function"
    },
    {
      "inputs": [
        {
          "internalType": "address",
          "name": "newImplementation",
          "type": "address"
        }
      ],
      "name": "upgradeTo",
      "outputs": [],
      "stateMutability": "nonpayable",
      "type": "function"
    },
    {
      "inputs": [
        {
          "internalType": "address",
          "name": "newImplementation",
          "type": "address"
        },
        {
          "internalType": "bytes",
          "name": "data",
          "type": "bytes"
        }
      ],
      "name": "upgradeToAndCall",
      "outputs": [],
      "stateMutability": "payable",
      "type": "function"
    },
    {
      "inputs": [],
      "name": "usdcToken",
      "outputs": [
        {
          "internalType": "contract IERC20",
          "name": "",
          "type": "address"
        }
      ],
      "stateMutability": "view",
      "type": "function"
    },
    {
      "inputs": [
        {
          "internalType": "address",
          "name": "to",
          "type": "address"
        },
        {
          "internalType": "uint256",
          "name": "amount",
          "type": "uint256"
        }
      ],
      "name": "withdraw",
      "outputs": [],
      "stateMutability": "nonpayable",
      "type": "function"
    }
  ],
  "bytecode": "0x60a06040523060601b60805234801561001757600080fd5b5060805160601c611fec610052600039600081816104cb0152818161050b015281816107a8015281816107e801526109300152611fec6000f3fe6080604052600436106101355760003560e01c806352d1902d116100ab578063a12dde4d1161006f578063a12dde4d14610332578063a217fddf14610352578063b6db75a014610367578063d547741f1461037c578063deaa59df1461039c578063f3fef3a3146103bc57600080fd5b806352d1902d146102bb5780635c975abb146102d05780638456cb59146102e857806391d14854146102fd5780639b5655dc1461031d57600080fd5b806336568abe116100fd57806336568abe1461021e5780633659cfe61461023e5780633f4ba83a1461025e578063485cc955146102735780634f1ef28614610293578063526d81f6146102a657600080fd5b806301ffc9a71461013a57806311eac8551461016f5780631be954591461019d578063248a9ca3146101be5780632f2ff15d146101fc575b600080fd5b34801561014657600080fd5b5061015a610155366004611bc5565b6103dc565b60405190151581526020015b60405180910390f35b34801561017b57600080fd5b5061016054610190906001600160a01b031681565b6040516101669190611ca5565b3480156101a957600080fd5b5061015f54610190906001600160a01b031681565b3480156101ca57600080fd5b506101ee6101d9366004611b66565b60009081526065602052604090206001015490565b604051908152602001610166565b34801561020857600080fd5b5061021c610217366004611b96565b610413565b005b34801561022a57600080fd5b5061021c610239366004611b96565b61043d565b34801561024a57600080fd5b5061021c610259366004611a24565b6104c0565b34801561026a57600080fd5b5061021c610589565b34801561027f57600080fd5b5061021c61028e366004611bed565b6105c0565b61021c6102a1366004611a5c565b61079d565b3480156102b257600080fd5b5061021c610853565b3480156102c757600080fd5b506101ee610923565b3480156102dc57600080fd5b5060975460ff1661015a565b3480156102f457600080fd5b5061021c6109d1565b34801561030957600080fd5b5061015a610318366004611b96565b610a00565b34801561032957600080fd5b506101ee610a2b565b34801561033e57600080fd5b5061021c61034d366004611a24565b610ab1565b34801561035e57600080fd5b506101ee600081565b34801561037357600080fd5b5061015a610b85565b34801561038857600080fd5b5061021c610397366004611b96565b610b97565b3480156103a857600080fd5b5061021c6103b7366004611a24565b610bbc565b3480156103c857600080fd5b5061021c6103d7366004611b1b565b610c03565b60006001600160e01b03198216637965db0b60e01b148061040d57506301ffc9a760e01b6001600160e01b03198316145b92915050565b60008281526065602052604090206001015461042e81610d9f565b6104388383610da9565b505050565b6001600160a01b03811633146104b25760405162461bcd60e51b815260206004820152602f60248201527f416363657373436f6e74726f6c3a2063616e206f6e6c792072656e6f756e636560448201526e103937b632b9903337b91039b2b63360891b60648201526084015b60405180910390fd5b6104bc8282610e2f565b5050565b306001600160a01b037f00000000000000000000000000000000000000000000000000000000000000001614156105095760405162461bcd60e51b81526004016104a990611d38565b7f00000000000000000000000000000000000000000000000000000000000000006001600160a01b031661053b610e96565b6001600160a01b0316146105615760405162461bcd60e51b81526004016104a990611d84565b61056a81610eb2565b6040805160008082526020820190925261058691839190610ed6565b50565b61059a610594611050565b33610a00565b6105b65760405162461bcd60e51b81526004016104a990611cec565b6105be611074565b565b600054610100900460ff16158080156105e05750600054600160ff909116105b8061060157506105ef306110c0565b158015610601575060005460ff166001145b61061d5760405162461bcd60e51b81526004016104a990611dd0565b6000805460ff191660011790558015610640576000805461ff0019166101001790555b6001600160a01b03831661068f5760405162461bcd60e51b8152602060048201526016602482015275496e76616c696420636f6e666967206164647265737360501b60448201526064016104a9565b61015f80546001600160a01b0319166001600160a01b0385169081179091556000906106ba906110cf565b90506001600160a01b0381166107025760405162461bcd60e51b815260206004820152600d60248201526c24b73b30b634b21027bbb732b960991b60448201526064016104a9565b61070b81610ab1565b61015f54610721906001600160a01b0316611150565b61016080546001600160a01b03199081166001600160a01b03938416179091556101618054909116918516919091179055508015610438576000805461ff0019169055604051600181527f7f26b83ff96e1f2b6a682f133852f6798a09c465da95921460cefb38474024989060200160405180910390a1505050565b306001600160a01b037f00000000000000000000000000000000000000000000000000000000000000001614156107e65760405162461bcd60e51b81526004016104a990611d38565b7f00000000000000000000000000000000000000000000000000000000000000006001600160a01b0316610818610e96565b6001600160a01b03161461083e5760405162461bcd60e51b81526004016104a990611d84565b61084782610eb2565b6104bc82826001610ed6565b600054610100900460ff16158080156108735750600054600160ff909116105b806108945750610882306110c0565b158015610894575060005460ff166001145b6108b05760405162461bcd60e51b81526004016104a990611dd0565b6000805460ff1916600117905580156108d3576000805461ff0019166101001790555b6108db611168565b8015610586576000805461ff0019169055604051600181527f7f26b83ff96e1f2b6a682f133852f6798a09c465da95921460cefb38474024989060200160405180910390a150565b6000306001600160a01b037f000000000000000000000000000000000000000000000000000000000000000016146109be5760405162461bcd60e51b815260206004820152603860248201527f555550535570677261646561626c653a206d757374206e6f742062652063616c6044820152771b1959081d1a1c9bdd59da0819195b1959d85d1958d85b1b60421b60648201526084016104a9565b50600080516020611f7083398151915290565b6109dc610594611050565b6109f85760405162461bcd60e51b81526004016104a990611cec565b6105be61119b565b60009182526065602090815260408084206001600160a01b0393909316845291905290205460ff1690565b610160546040516370a0823160e01b815260009182916001600160a01b03909116906370a0823190610a61903090600401611ca5565b60206040518083038186803b158015610a7957600080fd5b505afa158015610a8d573d6000803e3d6000fd5b505050506040513d601f19601f8201168201806040525081019061040d9190611b7e565b600054610100900460ff16610ad85760405162461bcd60e51b81526004016104a990611e1e565b6001600160a01b038116610b2e5760405162461bcd60e51b815260206004820181905260248201527f4f776e65722063616e6e6f7420626520746865207a65726f206164647265737360448201526064016104a9565b610b366111d8565b610b3e611168565b610b466111ff565b610b57610b5161122d565b82611251565b610b62610b51611050565b610b7a610b6d611050565b610b7561122d565b61125b565b610586610b6d61122d565b6000610b9261059461122d565b905090565b600082815260656020526040902060010154610bb281610d9f565b6104388383610e2f565b610bc4610b85565b610be05760405162461bcd60e51b81526004016104a990611e69565b61016180546001600160a01b0319166001600160a01b0392909216919091179055565b600260c9541415610c565760405162461bcd60e51b815260206004820152601f60248201527f5265656e7472616e637947756172643a207265656e7472616e742063616c6c0060448201526064016104a9565b600260c955610c636112a6565b60008111610cb35760405162461bcd60e51b815260206004820181905260248201527f616d6f756e74206d7573742062652067726561746572207468616e207a65726f60448201526064016104a9565b610161546001600160a01b03163314610d0e5760405162461bcd60e51b815260206004820152601d60248201527f6e6f7420616c6c6f776564206f757473696465207472616e6374696f6e00000060448201526064016104a9565b6000610d18610a2b565b905080821115610d7c5760405162461bcd60e51b815260206004820152602960248201527f616d6f756e7420657863656564732074686520746f74616c2074726561737572604482015268792062616c616e636560b81b60648201526084016104a9565b61016054610d95906001600160a01b03163085856112ec565b5050600160c95550565b610586813361134c565b610db38282610a00565b6104bc5760008281526065602090815260408083206001600160a01b03851684529091529020805460ff19166001179055610deb3390565b6001600160a01b0316816001600160a01b0316837f2f8788117e7eff1d82e926ec794901d17c78024a50270940304540a733656f0d60405160405180910390a45050565b610e398282610a00565b156104bc5760008281526065602090815260408083206001600160a01b0385168085529252808320805460ff1916905551339285917ff6391f5c32d9c69d2a47ea670b442974b53935d1edc7fd64eb21e047a839171b9190a45050565b600080516020611f70833981519152546001600160a01b031690565b610eba610b85565b6105865760405162461bcd60e51b81526004016104a990611e69565b7f4910fdfa16fed3260ed0e7147f7cc6da11a60208b5b9406d12a635614ffd91435460ff1615610f0957610438836113b0565b826001600160a01b03166352d1902d6040518163ffffffff1660e01b815260040160206040518083038186803b158015610f4257600080fd5b505afa925050508015610f72575060408051601f3d908101601f19168201909252610f6f91810190611b7e565b60015b610fd55760405162461bcd60e51b815260206004820152602e60248201527f45524331393637557067726164653a206e657720696d706c656d656e7461746960448201526d6f6e206973206e6f74205555505360901b60648201526084016104a9565b600080516020611f7083398151915281146110445760405162461bcd60e51b815260206004820152602960248201527f45524331393637557067726164653a20756e737570706f727465642070726f786044820152681a58589b195555525160ba1b60648201526084016104a9565b5061043883838361144a565b7f65d7a28e3265b37a6474929f336521b332c1681b933f6cb9f3376673440d862a90565b61107c61146f565b6097805460ff191690557f5db9ee0a495bf2e6ff9c91a7834c1ba4fdd244a5e8aa4e537bd38aeae4b073aa335b6040516110b69190611ca5565b60405180910390a1565b6001600160a01b03163b151590565b60006001600160a01b03821663b93f9b0a825b6040518263ffffffff1660e01b815260040161110091815260200190565b60206040518083038186803b15801561111857600080fd5b505afa15801561112c573d6000803e3d6000fd5b505050506040513d601f19601f8201168201806040525081019061040d9190611a40565b60006001600160a01b03821663b93f9b0a60026110e2565b600054610100900460ff1661118f5760405162461bcd60e51b81526004016104a990611e1e565b6097805460ff19169055565b6111a36112a6565b6097805460ff191660011790557f62e78cea01bee320cd4e420270b5ea74000d11b0c9f74754ebdbfc544b05a2586110a93390565b600054610100900460ff166105be5760405162461bcd60e51b81526004016104a990611e1e565b600054610100900460ff166112265760405162461bcd60e51b81526004016104a990611e1e565b600160c955565b7fa49807205ce4d355092ef5a8a18f56e8913cf4a201fbe287825b095693c2177590565b6104bc8282610da9565b600082815260656020526040808220600101805490849055905190918391839186917fbd79b86ffe0ab8e8776151514217cd7cacd52c909f66475c3af44e129f0b00ff9190a4505050565b60975460ff16156105be5760405162461bcd60e51b815260206004820152601060248201526f14185d5cd8589b194e881c185d5cd95960821b60448201526064016104a9565b604080516001600160a01b0385811660248301528416604482015260648082018490528251808303909101815260849091019091526020810180516001600160e01b03166323b872dd60e01b1790526113469085906114b8565b50505050565b6113568282610a00565b6104bc5761136e816001600160a01b0316601461158a565b61137983602061158a565b60405160200161138a929190611c36565b60408051601f198184030181529082905262461bcd60e51b82526104a991600401611cb9565b6113b9816110c0565b61141b5760405162461bcd60e51b815260206004820152602d60248201527f455243313936373a206e657720696d706c656d656e746174696f6e206973206e60448201526c1bdd08184818dbdb9d1c9858dd609a1b60648201526084016104a9565b600080516020611f7083398151915280546001600160a01b0319166001600160a01b0392909216919091179055565b61145383611773565b6000825111806114605750805b156104385761134683836117b3565b60975460ff166105be5760405162461bcd60e51b815260206004820152601460248201527314185d5cd8589b194e881b9bdd081c185d5cd95960621b60448201526064016104a9565b600061150d826040518060400160405280602081526020017f5361666545524332303a206c6f772d6c6576656c2063616c6c206661696c6564815250856001600160a01b03166118a59092919063ffffffff16565b805190915015610438578080602001905181019061152b9190611b46565b6104385760405162461bcd60e51b815260206004820152602a60248201527f5361666545524332303a204552433230206f7065726174696f6e20646964206e6044820152691bdd081cdd58d8d9595960b21b60648201526084016104a9565b60606000611599836002611ecc565b6115a4906002611eb4565b67ffffffffffffffff8111156115ca57634e487b7160e01b600052604160045260246000fd5b6040519080825280601f01601f1916602001820160405280156115f4576020820181803683370190505b509050600360fc1b8160008151811061161d57634e487b7160e01b600052603260045260246000fd5b60200101906001600160f81b031916908160001a905350600f60fb1b8160018151811061165a57634e487b7160e01b600052603260045260246000fd5b60200101906001600160f81b031916908160001a905350600061167e846002611ecc565b611689906001611eb4565b90505b600181111561171d576f181899199a1a9b1b9c1cb0b131b232b360811b85600f16601081106116cb57634e487b7160e01b600052603260045260246000fd5b1a60f81b8282815181106116ef57634e487b7160e01b600052603260045260246000fd5b60200101906001600160f81b031916908160001a90535060049490941c9361171681611f17565b905061168c565b50831561176c5760405162461bcd60e51b815260206004820181905260248201527f537472696e67733a20686578206c656e67746820696e73756666696369656e7460448201526064016104a9565b9392505050565b61177c816113b0565b6040516001600160a01b038216907fbc7cd75a20ee27fd9adebab32041f755214dbc6bffa90cc0225b39da2e5c2d3b90600090a250565b60606117be836110c0565b6118195760405162461bcd60e51b815260206004820152602660248201527f416464726573733a2064656c65676174652063616c6c20746f206e6f6e2d636f6044820152651b9d1c9858dd60d21b60648201526084016104a9565b600080846001600160a01b0316846040516118349190611c1a565b600060405180830381855af49150503d806000811461186f576040519150601f19603f3d011682016040523d82523d6000602084013e611874565b606091505b509150915061189c8282604051806060016040528060278152602001611f90602791396118bc565b95945050505050565b60606118b484846000856118f5565b949350505050565b606083156118cb57508161176c565b8251156118db5782518084602001fd5b8160405162461bcd60e51b81526004016104a99190611cb9565b6060824710156119565760405162461bcd60e51b815260206004820152602660248201527f416464726573733a20696e73756666696369656e742062616c616e636520666f6044820152651c8818d85b1b60d21b60648201526084016104a9565b61195f856110c0565b6119ab5760405162461bcd60e51b815260206004820152601d60248201527f416464726573733a2063616c6c20746f206e6f6e2d636f6e747261637400000060448201526064016104a9565b600080866001600160a01b031685876040516119c79190611c1a565b60006040518083038185875af1925050503d8060008114611a04576040519150601f19603f3d011682016040523d82523d6000602084013e611a09565b606091505b5091509150611a198282866118bc565b979650505050505050565b600060208284031215611a35578081fd5b813561176c81611f5a565b600060208284031215611a51578081fd5b815161176c81611f5a565b60008060408385031215611a6e578081fd5b8235611a7981611f5a565b9150602083013567ffffffffffffffff80821115611a95578283fd5b818501915085601f830112611aa8578283fd5b813581811115611aba57611aba611f44565b604051601f8201601f19908116603f01168101908382118183101715611ae257611ae2611f44565b81604052828152886020848701011115611afa578586fd5b82602086016020830137856020848301015280955050505050509250929050565b60008060408385031215611b2d578182fd5b8235611b3881611f5a565b946020939093013593505050565b600060208284031215611b57578081fd5b8151801515811461176c578182fd5b600060208284031215611b77578081fd5b5035919050565b600060208284031215611b8f578081fd5b5051919050565b60008060408385031215611ba8578182fd5b823591506020830135611bba81611f5a565b809150509250929050565b600060208284031215611bd6578081fd5b81356001600160e01b03198116811461176c578182fd5b60008060408385031215611bff578182fd5b8235611c0a81611f5a565b91506020830135611bba81611f5a565b60008251611c2c818460208701611eeb565b9190910192915050565b76020b1b1b2b9b9a1b7b73a3937b61d1030b1b1b7bab73a1604d1b815260008351611c68816017850160208801611eeb565b7001034b99036b4b9b9b4b733903937b6329607d1b6017918401918201528351611c99816028840160208801611eeb565b01602801949350505050565b6001600160a01b0391909116815260200190565b6020815260008251806020840152611cd8816040850160208701611eeb565b601f01601f19169190910160400192915050565b6020808252602c908201527f4d75737420686176652070617573657220726f6c6520746f20706572666f726d60408201526b103a3434b99030b1ba34b7b760a11b606082015260800190565b6020808252602c908201527f46756e6374696f6e206d7573742062652063616c6c6564207468726f7567682060408201526b19195b1959d85d1958d85b1b60a21b606082015260800190565b6020808252602c908201527f46756e6374696f6e206d7573742062652063616c6c6564207468726f7567682060408201526b6163746976652070726f787960a01b606082015260800190565b6020808252602e908201527f496e697469616c697a61626c653a20636f6e747261637420697320616c72656160408201526d191e481a5b9a5d1a585b1a5e995960921b606082015260800190565b6020808252602b908201527f496e697469616c697a61626c653a20636f6e7472616374206973206e6f74206960408201526a6e697469616c697a696e6760a81b606082015260800190565b6020808252602b908201527f4d75737420686176652061646d696e20726f6c6520746f20706572666f726d2060408201526a3a3434b99030b1ba34b7b760a91b606082015260800190565b60008219821115611ec757611ec7611f2e565b500190565b6000816000190483118215151615611ee657611ee6611f2e565b500290565b60005b83811015611f06578181015183820152602001611eee565b838111156113465750506000910152565b600081611f2657611f26611f2e565b506000190190565b634e487b7160e01b600052601160045260246000fd5b634e487b7160e01b600052604160045260246000fd5b6001600160a01b038116811461058657600080fdfe360894a13ba1a3210667c828492db98dca3e2076cc3735a920a3ca505d382bbc416464726573733a206c6f772d6c6576656c2064656c65676174652063616c6c206661696c6564a264697066735822122016e58646b5854af99b8e11448fe18b6c612a5afe3990177764b5d3b7a63dd07e64736f6c63430008040033",
  "linkReferences": {},
  "deployedLinkReferences": {}
}