{
  "_format": "hh-sol-artifact-1",
  "contractName": "DygnifyTreasury",
  "sourceName": "contracts/protocol/DygnifyTreasury.sol",
  "abi": [
    {
      "anonymous": false,
      "inputs": [
        {
          "indexed": false,
          "internalType": "address",
          "name": "previousAdmin",
          "type": "address"
        },
        {
          "indexed": false,
          "internalType": "address",
          "name": "newAdmin",
          "type": "address"
        }
      ],
      "name": "AdminChanged",
      "type": "event"
    },
    {
      "anonymous": false,
      "inputs": [
        {
          "indexed": true,
          "internalType": "address",
          "name": "beacon",
          "type": "address"
        }
      ],
      "name": "BeaconUpgraded",
      "type": "event"
    },
    {
      "anonymous": false,
      "inputs": [
        {
          "indexed": false,
          "internalType": "uint8",
          "name": "version",
          "type": "uint8"
        }
      ],
      "name": "Initialized",
      "type": "event"
    },
    {
      "anonymous": false,
      "inputs": [
        {
          "indexed": false,
          "internalType": "address",
          "name": "account",
          "type": "address"
        }
      ],
      "name": "Paused",
      "type": "event"
    },
    {
      "anonymous": false,
      "inputs": [
        {
          "indexed": true,
          "internalType": "bytes32",
          "name": "role",
          "type": "bytes32"
        },
        {
          "indexed": true,
          "internalType": "bytes32",
          "name": "previousAdminRole",
          "type": "bytes32"
        },
        {
          "indexed": true,
          "internalType": "bytes32",
          "name": "newAdminRole",
          "type": "bytes32"
        }
      ],
      "name": "RoleAdminChanged",
      "type": "event"
    },
    {
      "anonymous": false,
      "inputs": [
        {
          "indexed": true,
          "internalType": "bytes32",
          "name": "role",
          "type": "bytes32"
        },
        {
          "indexed": true,
          "internalType": "address",
          "name": "account",
          "type": "address"
        },
        {
          "indexed": true,
          "internalType": "address",
          "name": "sender",
          "type": "address"
        }
      ],
      "name": "RoleGranted",
      "type": "event"
    },
    {
      "anonymous": false,
      "inputs": [
        {
          "indexed": true,
          "internalType": "bytes32",
          "name": "role",
          "type": "bytes32"
        },
        {
          "indexed": true,
          "internalType": "address",
          "name": "account",
          "type": "address"
        },
        {
          "indexed": true,
          "internalType": "address",
          "name": "sender",
          "type": "address"
        }
      ],
      "name": "RoleRevoked",
      "type": "event"
    },
    {
      "anonymous": false,
      "inputs": [
        {
          "indexed": false,
          "internalType": "address",
          "name": "account",
          "type": "address"
        }
      ],
      "name": "Unpaused",
      "type": "event"
    },
    {
      "anonymous": false,
      "inputs": [
        {
          "indexed": true,
          "internalType": "address",
          "name": "implementation",
          "type": "address"
        }
      ],
      "name": "Upgraded",
      "type": "event"
    },
    {
      "inputs": [],
      "name": "DEFAULT_ADMIN_ROLE",
      "outputs": [
        {
          "internalType": "bytes32",
          "name": "",
          "type": "bytes32"
        }
      ],
      "stateMutability": "view",
      "type": "function"
    },
    {
      "inputs": [
        {
          "internalType": "address",
          "name": "owner",
          "type": "address"
        }
      ],
      "name": "_BaseUpgradeablePausable_init",
      "outputs": [],
      "stateMutability": "nonpayable",
      "type": "function"
    },
    {
      "inputs": [],
      "name": "__PauserPausable__init",
      "outputs": [],
      "stateMutability": "nonpayable",
      "type": "function"
    },
    {
      "inputs": [],
      "name": "dygnifyConfig",
      "outputs": [
        {
          "internalType": "contract DygnifyConfig",
          "name": "",
          "type": "address"
        }
      ],
      "stateMutability": "view",
      "type": "function"
    },
    {
      "inputs": [
        {
          "internalType": "bytes32",
          "name": "role",
          "type": "bytes32"
        }
      ],
      "name": "getRoleAdmin",
      "outputs": [
        {
          "internalType": "bytes32",
          "name": "",
          "type": "bytes32"
        }
      ],
      "stateMutability": "view",
      "type": "function"
    },
    {
      "inputs": [],
      "name": "getTreasuryBalance",
      "outputs": [
        {
          "internalType": "uint256",
          "name": "",
          "type": "uint256"
        }
      ],
      "stateMutability": "view",
      "type": "function"
    },
    {
      "inputs": [
        {
          "internalType": "bytes32",
          "name": "role",
          "type": "bytes32"
        },
        {
          "internalType": "address",
          "name": "account",
          "type": "address"
        }
      ],
      "name": "grantRole",
      "outputs": [],
      "stateMutability": "nonpayable",
      "type": "function"
    },
    {
      "inputs": [
        {
          "internalType": "bytes32",
          "name": "role",
          "type": "bytes32"
        },
        {
          "internalType": "address",
          "name": "account",
          "type": "address"
        }
      ],
      "name": "hasRole",
      "outputs": [
        {
          "internalType": "bool",
          "name": "",
          "type": "bool"
        }
      ],
      "stateMutability": "view",
      "type": "function"
    },
    {
      "inputs": [
        {
          "internalType": "contract DygnifyConfig",
          "name": "_dygnifyConfig",
          "type": "address"
        }
      ],
      "name": "initialize",
      "outputs": [],
      "stateMutability": "nonpayable",
      "type": "function"
    },
    {
      "inputs": [],
      "name": "isAdmin",
      "outputs": [
        {
          "internalType": "bool",
          "name": "",
          "type": "bool"
        }
      ],
      "stateMutability": "view",
      "type": "function"
    },
    {
      "inputs": [],
      "name": "pause",
      "outputs": [],
      "stateMutability": "nonpayable",
      "type": "function"
    },
    {
      "inputs": [],
      "name": "paused",
      "outputs": [
        {
          "internalType": "bool",
          "name": "",
          "type": "bool"
        }
      ],
      "stateMutability": "view",
      "type": "function"
    },
    {
      "inputs": [],
      "name": "proxiableUUID",
      "outputs": [
        {
          "internalType": "bytes32",
          "name": "",
          "type": "bytes32"
        }
      ],
      "stateMutability": "view",
      "type": "function"
    },
    {
      "inputs": [
        {
          "internalType": "bytes32",
          "name": "role",
          "type": "bytes32"
        },
        {
          "internalType": "address",
          "name": "account",
          "type": "address"
        }
      ],
      "name": "renounceRole",
      "outputs": [],
      "stateMutability": "nonpayable",
      "type": "function"
    },
    {
      "inputs": [
        {
          "internalType": "address",
          "name": "to",
          "type": "address"
        },
        {
          "internalType": "uint256",
          "name": "value",
          "type": "uint256"
        }
      ],
      "name": "reqTx",
      "outputs": [],
      "stateMutability": "nonpayable",
      "type": "function"
    },
    {
      "inputs": [
        {
          "internalType": "bytes32",
          "name": "role",
          "type": "bytes32"
        },
        {
          "internalType": "address",
          "name": "account",
          "type": "address"
        }
      ],
      "name": "revokeRole",
      "outputs": [],
      "stateMutability": "nonpayable",
      "type": "function"
    },
    {
      "inputs": [
        {
          "internalType": "address",
          "name": "_wallet",
          "type": "address"
        }
      ],
      "name": "setWallet",
      "outputs": [],
      "stateMutability": "nonpayable",
      "type": "function"
    },
    {
      "inputs": [
        {
          "internalType": "bytes4",
          "name": "interfaceId",
          "type": "bytes4"
        }
      ],
      "name": "supportsInterface",
      "outputs": [
        {
          "internalType": "bool",
          "name": "",
          "type": "bool"
        }
      ],
      "stateMutability": "view",
      "type": "function"
    },
    {
      "inputs": [],
      "name": "unpause",
      "outputs": [],
      "stateMutability": "nonpayable",
      "type": "function"
    },
    {
      "inputs": [
        {
          "internalType": "address",
          "name": "newImplementation",
          "type": "address"
        }
      ],
      "name": "upgradeTo",
      "outputs": [],
      "stateMutability": "nonpayable",
      "type": "function"
    },
    {
      "inputs": [
        {
          "internalType": "address",
          "name": "newImplementation",
          "type": "address"
        },
        {
          "internalType": "bytes",
          "name": "data",
          "type": "bytes"
        }
      ],
      "name": "upgradeToAndCall",
      "outputs": [],
      "stateMutability": "payable",
      "type": "function"
    },
    {
      "inputs": [],
      "name": "usdcToken",
      "outputs": [
        {
          "internalType": "contract IERC20",
          "name": "",
          "type": "address"
        }
      ],
      "stateMutability": "view",
      "type": "function"
    },
    {
      "inputs": [
        {
          "internalType": "address",
          "name": "to",
          "type": "address"
        },
        {
          "internalType": "uint256",
          "name": "amount",
          "type": "uint256"
        }
      ],
      "name": "withdraw",
      "outputs": [],
      "stateMutability": "nonpayable",
      "type": "function"
    }
  ],
  "bytecode": "0x60a06040523060601b60805234801561001757600080fd5b5060805160601c612047610052600039600081816104f60152818161053601528181610664015281816106a401526107ec01526120476000f3fe6080604052600436106101405760003560e01c806352d1902d116100b6578063a217fddf1161006f578063a217fddf1461035d578063b6db75a014610372578063c4d66de814610387578063d547741f146103a7578063deaa59df146103c7578063f3fef3a3146103e757600080fd5b806352d1902d146102c65780635c975abb146102db5780638456cb59146102f357806391d14854146103085780639b5655dc14610328578063a12dde4d1461033d57600080fd5b806336568abe1161010857806336568abe146102295780633659cfe6146102495780633f4ba83a14610269578063474bb7901461027e5780634f1ef2861461029e578063526d81f6146102b157600080fd5b806301ffc9a71461014557806311eac8551461017a5780631be95459146101a8578063248a9ca3146101c95780632f2ff15d14610207575b600080fd5b34801561015157600080fd5b50610165610160366004611c4d565b610407565b60405190151581526020015b60405180910390f35b34801561018657600080fd5b506101605461019b906001600160a01b031681565b6040516101719190611d00565b3480156101b457600080fd5b5061015f5461019b906001600160a01b031681565b3480156101d557600080fd5b506101f96101e4366004611bee565b60009081526065602052604090206001015490565b604051908152602001610171565b34801561021357600080fd5b50610227610222366004611c1e565b61043e565b005b34801561023557600080fd5b50610227610244366004611c1e565b610468565b34801561025557600080fd5b50610227610264366004611aac565b6104eb565b34801561027557600080fd5b506102276105b4565b34801561028a57600080fd5b50610227610299366004611ba3565b6105eb565b6102276102ac366004611ae4565b610659565b3480156102bd57600080fd5b5061022761070f565b3480156102d257600080fd5b506101f96107df565b3480156102e757600080fd5b5060975460ff16610165565b3480156102ff57600080fd5b5061022761088d565b34801561031457600080fd5b50610165610323366004611c1e565b6108bc565b34801561033457600080fd5b506101f96108e7565b34801561034957600080fd5b50610227610358366004611aac565b61096d565b34801561036957600080fd5b506101f9600081565b34801561037e57600080fd5b50610165610a41565b34801561039357600080fd5b506102276103a2366004611aac565b610a53565b3480156103b357600080fd5b506102276103c2366004611c1e565b610c1f565b3480156103d357600080fd5b506102276103e2366004611aac565b610c44565b3480156103f357600080fd5b50610227610402366004611ba3565b610c8b565b60006001600160e01b03198216637965db0b60e01b148061043857506301ffc9a760e01b6001600160e01b03198316145b92915050565b60008281526065602052604090206001015461045981610e27565b6104638383610e31565b505050565b6001600160a01b03811633146104dd5760405162461bcd60e51b815260206004820152602f60248201527f416363657373436f6e74726f6c3a2063616e206f6e6c792072656e6f756e636560448201526e103937b632b9903337b91039b2b63360891b60648201526084015b60405180910390fd5b6104e78282610eb7565b5050565b306001600160a01b037f00000000000000000000000000000000000000000000000000000000000000001614156105345760405162461bcd60e51b81526004016104d490611d93565b7f00000000000000000000000000000000000000000000000000000000000000006001600160a01b0316610566610f1e565b6001600160a01b03161461058c5760405162461bcd60e51b81526004016104d490611ddf565b61059581610f3a565b604080516000808252602082019092526105b191839190610f5e565b50565b6105c56105bf6110d8565b336108bc565b6105e15760405162461bcd60e51b81526004016104d490611d47565b6105e96110fc565b565b61016154604051631d43b65360e01b81526001600160a01b03848116600483015260248201849052909116908190631d43b65390604401600060405180830381600087803b15801561063c57600080fd5b505af1158015610650573d6000803e3d6000fd5b50505050505050565b306001600160a01b037f00000000000000000000000000000000000000000000000000000000000000001614156106a25760405162461bcd60e51b81526004016104d490611d93565b7f00000000000000000000000000000000000000000000000000000000000000006001600160a01b03166106d4610f1e565b6001600160a01b0316146106fa5760405162461bcd60e51b81526004016104d490611ddf565b61070382610f3a565b6104e782826001610f5e565b600054610100900460ff161580801561072f5750600054600160ff909116105b80610750575061073e30611148565b158015610750575060005460ff166001145b61076c5760405162461bcd60e51b81526004016104d490611e2b565b6000805460ff19166001179055801561078f576000805461ff0019166101001790555b610797611157565b80156105b1576000805461ff0019169055604051600181527f7f26b83ff96e1f2b6a682f133852f6798a09c465da95921460cefb38474024989060200160405180910390a150565b6000306001600160a01b037f0000000000000000000000000000000000000000000000000000000000000000161461087a5760405162461bcd60e51b815260206004820152603860248201527f555550535570677261646561626c653a206d757374206e6f742062652063616c6044820152771b1959081d1a1c9bdd59da0819195b1959d85d1958d85b1b60421b60648201526084016104d4565b50600080516020611fcb83398151915290565b6108986105bf6110d8565b6108b45760405162461bcd60e51b81526004016104d490611d47565b6105e961118a565b60009182526065602090815260408084206001600160a01b0393909316845291905290205460ff1690565b610160546040516370a0823160e01b815260009182916001600160a01b03909116906370a082319061091d903090600401611d00565b60206040518083038186803b15801561093557600080fd5b505afa158015610949573d6000803e3d6000fd5b505050506040513d601f19601f820116820180604052508101906104389190611c06565b600054610100900460ff166109945760405162461bcd60e51b81526004016104d490611e79565b6001600160a01b0381166109ea5760405162461bcd60e51b815260206004820181905260248201527f4f776e65722063616e6e6f7420626520746865207a65726f206164647265737360448201526064016104d4565b6109f26111c7565b6109fa611157565b610a026111ee565b610a13610a0d61121c565b82611240565b610a1e610a0d6110d8565b610a36610a296110d8565b610a3161121c565b61124a565b6105b1610a2961121c565b6000610a4e6105bf61121c565b905090565b600054610100900460ff1615808015610a735750600054600160ff909116105b80610a945750610a8230611148565b158015610a94575060005460ff166001145b610ab05760405162461bcd60e51b81526004016104d490611e2b565b6000805460ff191660011790558015610ad3576000805461ff0019166101001790555b6001600160a01b038216610b225760405162461bcd60e51b8152602060048201526016602482015275496e76616c696420636f6e666967206164647265737360501b60448201526064016104d4565b61015f80546001600160a01b0319166001600160a01b038416908117909155600090610b4d90611295565b90506001600160a01b038116610b955760405162461bcd60e51b815260206004820152600d60248201526c24b73b30b634b21027bbb732b960991b60448201526064016104d4565b610b9e8161096d565b61015f54610bb4906001600160a01b0316611316565b61016080546001600160a01b0319166001600160a01b03929092169190911790555080156104e7576000805461ff0019169055604051600181527f7f26b83ff96e1f2b6a682f133852f6798a09c465da95921460cefb38474024989060200160405180910390a15050565b600082815260656020526040902060010154610c3a81610e27565b6104638383610eb7565b610c4c610a41565b610c685760405162461bcd60e51b81526004016104d490611ec4565b61016180546001600160a01b0319166001600160a01b0392909216919091179055565b600260c9541415610cde5760405162461bcd60e51b815260206004820152601f60248201527f5265656e7472616e637947756172643a207265656e7472616e742063616c6c0060448201526064016104d4565b600260c955610ceb61132e565b60008111610d3b5760405162461bcd60e51b815260206004820181905260248201527f616d6f756e74206d7573742062652067726561746572207468616e207a65726f60448201526064016104d4565b610161546001600160a01b03163314610d965760405162461bcd60e51b815260206004820152601d60248201527f6e6f7420616c6c6f776564206f757473696465207472616e6374696f6e00000060448201526064016104d4565b6000610da06108e7565b905080821115610e045760405162461bcd60e51b815260206004820152602960248201527f616d6f756e7420657863656564732074686520746f74616c2074726561737572604482015268792062616c616e636560b81b60648201526084016104d4565b61016054610e1d906001600160a01b0316308585611374565b5050600160c95550565b6105b181336113d4565b610e3b82826108bc565b6104e75760008281526065602090815260408083206001600160a01b03851684529091529020805460ff19166001179055610e733390565b6001600160a01b0316816001600160a01b0316837f2f8788117e7eff1d82e926ec794901d17c78024a50270940304540a733656f0d60405160405180910390a45050565b610ec182826108bc565b156104e75760008281526065602090815260408083206001600160a01b0385168085529252808320805460ff1916905551339285917ff6391f5c32d9c69d2a47ea670b442974b53935d1edc7fd64eb21e047a839171b9190a45050565b600080516020611fcb833981519152546001600160a01b031690565b610f42610a41565b6105b15760405162461bcd60e51b81526004016104d490611ec4565b7f4910fdfa16fed3260ed0e7147f7cc6da11a60208b5b9406d12a635614ffd91435460ff1615610f915761046383611438565b826001600160a01b03166352d1902d6040518163ffffffff1660e01b815260040160206040518083038186803b158015610fca57600080fd5b505afa925050508015610ffa575060408051601f3d908101601f19168201909252610ff791810190611c06565b60015b61105d5760405162461bcd60e51b815260206004820152602e60248201527f45524331393637557067726164653a206e657720696d706c656d656e7461746960448201526d6f6e206973206e6f74205555505360901b60648201526084016104d4565b600080516020611fcb83398151915281146110cc5760405162461bcd60e51b815260206004820152602960248201527f45524331393637557067726164653a20756e737570706f727465642070726f786044820152681a58589b195555525160ba1b60648201526084016104d4565b506104638383836114d2565b7f65d7a28e3265b37a6474929f336521b332c1681b933f6cb9f3376673440d862a90565b6111046114f7565b6097805460ff191690557f5db9ee0a495bf2e6ff9c91a7834c1ba4fdd244a5e8aa4e537bd38aeae4b073aa335b60405161113e9190611d00565b60405180910390a1565b6001600160a01b03163b151590565b600054610100900460ff1661117e5760405162461bcd60e51b81526004016104d490611e79565b6097805460ff19169055565b61119261132e565b6097805460ff191660011790557f62e78cea01bee320cd4e420270b5ea74000d11b0c9f74754ebdbfc544b05a2586111313390565b600054610100900460ff166105e95760405162461bcd60e51b81526004016104d490611e79565b600054610100900460ff166112155760405162461bcd60e51b81526004016104d490611e79565b600160c955565b7fa49807205ce4d355092ef5a8a18f56e8913cf4a201fbe287825b095693c2177590565b6104e78282610e31565b600082815260656020526040808220600101805490849055905190918391839186917fbd79b86ffe0ab8e8776151514217cd7cacd52c909f66475c3af44e129f0b00ff9190a4505050565b60006001600160a01b03821663b93f9b0a825b6040518263ffffffff1660e01b81526004016112c691815260200190565b60206040518083038186803b1580156112de57600080fd5b505afa1580156112f2573d6000803e3d6000fd5b505050506040513d601f19601f820116820180604052508101906104389190611ac8565b60006001600160a01b03821663b93f9b0a60026112a8565b60975460ff16156105e95760405162461bcd60e51b815260206004820152601060248201526f14185d5cd8589b194e881c185d5cd95960821b60448201526064016104d4565b604080516001600160a01b0385811660248301528416604482015260648082018490528251808303909101815260849091019091526020810180516001600160e01b03166323b872dd60e01b1790526113ce908590611540565b50505050565b6113de82826108bc565b6104e7576113f6816001600160a01b03166014611612565b611401836020611612565b604051602001611412929190611c91565b60408051601f198184030181529082905262461bcd60e51b82526104d491600401611d14565b61144181611148565b6114a35760405162461bcd60e51b815260206004820152602d60248201527f455243313936373a206e657720696d706c656d656e746174696f6e206973206e60448201526c1bdd08184818dbdb9d1c9858dd609a1b60648201526084016104d4565b600080516020611fcb83398151915280546001600160a01b0319166001600160a01b0392909216919091179055565b6114db836117fb565b6000825111806114e85750805b15610463576113ce838361183b565b60975460ff166105e95760405162461bcd60e51b815260206004820152601460248201527314185d5cd8589b194e881b9bdd081c185d5cd95960621b60448201526064016104d4565b6000611595826040518060400160405280602081526020017f5361666545524332303a206c6f772d6c6576656c2063616c6c206661696c6564815250856001600160a01b031661192d9092919063ffffffff16565b80519091501561046357808060200190518101906115b39190611bce565b6104635760405162461bcd60e51b815260206004820152602a60248201527f5361666545524332303a204552433230206f7065726174696f6e20646964206e6044820152691bdd081cdd58d8d9595960b21b60648201526084016104d4565b60606000611621836002611f27565b61162c906002611f0f565b67ffffffffffffffff81111561165257634e487b7160e01b600052604160045260246000fd5b6040519080825280601f01601f19166020018201604052801561167c576020820181803683370190505b509050600360fc1b816000815181106116a557634e487b7160e01b600052603260045260246000fd5b60200101906001600160f81b031916908160001a905350600f60fb1b816001815181106116e257634e487b7160e01b600052603260045260246000fd5b60200101906001600160f81b031916908160001a9053506000611706846002611f27565b611711906001611f0f565b90505b60018111156117a5576f181899199a1a9b1b9c1cb0b131b232b360811b85600f166010811061175357634e487b7160e01b600052603260045260246000fd5b1a60f81b82828151811061177757634e487b7160e01b600052603260045260246000fd5b60200101906001600160f81b031916908160001a90535060049490941c9361179e81611f72565b9050611714565b5083156117f45760405162461bcd60e51b815260206004820181905260248201527f537472696e67733a20686578206c656e67746820696e73756666696369656e7460448201526064016104d4565b9392505050565b61180481611438565b6040516001600160a01b038216907fbc7cd75a20ee27fd9adebab32041f755214dbc6bffa90cc0225b39da2e5c2d3b90600090a250565b606061184683611148565b6118a15760405162461bcd60e51b815260206004820152602660248201527f416464726573733a2064656c65676174652063616c6c20746f206e6f6e2d636f6044820152651b9d1c9858dd60d21b60648201526084016104d4565b600080846001600160a01b0316846040516118bc9190611c75565b600060405180830381855af49150503d80600081146118f7576040519150601f19603f3d011682016040523d82523d6000602084013e6118fc565b606091505b50915091506119248282604051806060016040528060278152602001611feb60279139611944565b95945050505050565b606061193c848460008561197d565b949350505050565b606083156119535750816117f4565b8251156119635782518084602001fd5b8160405162461bcd60e51b81526004016104d49190611d14565b6060824710156119de5760405162461bcd60e51b815260206004820152602660248201527f416464726573733a20696e73756666696369656e742062616c616e636520666f6044820152651c8818d85b1b60d21b60648201526084016104d4565b6119e785611148565b611a335760405162461bcd60e51b815260206004820152601d60248201527f416464726573733a2063616c6c20746f206e6f6e2d636f6e747261637400000060448201526064016104d4565b600080866001600160a01b03168587604051611a4f9190611c75565b60006040518083038185875af1925050503d8060008114611a8c576040519150601f19603f3d011682016040523d82523d6000602084013e611a91565b606091505b5091509150611aa1828286611944565b979650505050505050565b600060208284031215611abd578081fd5b81356117f481611fb5565b600060208284031215611ad9578081fd5b81516117f481611fb5565b60008060408385031215611af6578081fd5b8235611b0181611fb5565b9150602083013567ffffffffffffffff80821115611b1d578283fd5b818501915085601f830112611b30578283fd5b813581811115611b4257611b42611f9f565b604051601f8201601f19908116603f01168101908382118183101715611b6a57611b6a611f9f565b81604052828152886020848701011115611b82578586fd5b82602086016020830137856020848301015280955050505050509250929050565b60008060408385031215611bb5578182fd5b8235611bc081611fb5565b946020939093013593505050565b600060208284031215611bdf578081fd5b815180151581146117f4578182fd5b600060208284031215611bff578081fd5b5035919050565b600060208284031215611c17578081fd5b5051919050565b60008060408385031215611c30578182fd5b823591506020830135611c4281611fb5565b809150509250929050565b600060208284031215611c5e578081fd5b81356001600160e01b0319811681146117f4578182fd5b60008251611c87818460208701611f46565b9190910192915050565b76020b1b1b2b9b9a1b7b73a3937b61d1030b1b1b7bab73a1604d1b815260008351611cc3816017850160208801611f46565b7001034b99036b4b9b9b4b733903937b6329607d1b6017918401918201528351611cf4816028840160208801611f46565b01602801949350505050565b6001600160a01b0391909116815260200190565b6020815260008251806020840152611d33816040850160208701611f46565b601f01601f19169190910160400192915050565b6020808252602c908201527f4d75737420686176652070617573657220726f6c6520746f20706572666f726d60408201526b103a3434b99030b1ba34b7b760a11b606082015260800190565b6020808252602c908201527f46756e6374696f6e206d7573742062652063616c6c6564207468726f7567682060408201526b19195b1959d85d1958d85b1b60a21b606082015260800190565b6020808252602c908201527f46756e6374696f6e206d7573742062652063616c6c6564207468726f7567682060408201526b6163746976652070726f787960a01b606082015260800190565b6020808252602e908201527f496e697469616c697a61626c653a20636f6e747261637420697320616c72656160408201526d191e481a5b9a5d1a585b1a5e995960921b606082015260800190565b6020808252602b908201527f496e697469616c697a61626c653a20636f6e7472616374206973206e6f74206960408201526a6e697469616c697a696e6760a81b606082015260800190565b6020808252602b908201527f4d75737420686176652061646d696e20726f6c6520746f20706572666f726d2060408201526a3a3434b99030b1ba34b7b760a91b606082015260800190565b60008219821115611f2257611f22611f89565b500190565b6000816000190483118215151615611f4157611f41611f89565b500290565b60005b83811015611f61578181015183820152602001611f49565b838111156113ce5750506000910152565b600081611f8157611f81611f89565b506000190190565b634e487b7160e01b600052601160045260246000fd5b634e487b7160e01b600052604160045260246000fd5b6001600160a01b03811681146105b157600080fdfe360894a13ba1a3210667c828492db98dca3e2076cc3735a920a3ca505d382bbc416464726573733a206c6f772d6c6576656c2064656c65676174652063616c6c206661696c6564a2646970667358221220397a850e275f5b2d07fde0d9cf7f7c362f33d7a7ee7ab0aa142a4453da14ae8164736f6c63430008040033",
  "linkReferences": {},
  "deployedLinkReferences": {}
}