{
  "_format": "hh-sol-artifact-1",
  "contractName": "DygnifyTreasury",
  "sourceName": "contracts/protocol/DygnifyTreasury.sol",
  "abi": [
    {
      "anonymous": false,
      "inputs": [
        {
          "indexed": false,
          "internalType": "address",
          "name": "previousAdmin",
          "type": "address"
        },
        {
          "indexed": false,
          "internalType": "address",
          "name": "newAdmin",
          "type": "address"
        }
      ],
      "name": "AdminChanged",
      "type": "event"
    },
    {
      "anonymous": false,
      "inputs": [
        {
          "indexed": true,
          "internalType": "address",
          "name": "beacon",
          "type": "address"
        }
      ],
      "name": "BeaconUpgraded",
      "type": "event"
    },
    {
      "anonymous": false,
      "inputs": [
        {
          "indexed": true,
          "internalType": "address",
          "name": "owner",
          "type": "address"
        },
        {
          "indexed": true,
          "internalType": "uint256",
          "name": "txIndex",
          "type": "uint256"
        }
      ],
      "name": "ConfirmTransaction",
      "type": "event"
    },
    {
      "anonymous": false,
      "inputs": [
        {
          "indexed": false,
          "internalType": "uint256",
          "name": "numConfirmationsRequired",
          "type": "uint256"
        }
      ],
      "name": "ConfirmationsRequiredUpdated",
      "type": "event"
    },
    {
      "anonymous": false,
      "inputs": [
        {
          "indexed": true,
          "internalType": "address",
          "name": "sender",
          "type": "address"
        },
        {
          "indexed": false,
          "internalType": "uint256",
          "name": "amount",
          "type": "uint256"
        },
        {
          "indexed": false,
          "internalType": "uint256",
          "name": "balance",
          "type": "uint256"
        }
      ],
      "name": "Deposit",
      "type": "event"
    },
    {
      "anonymous": false,
      "inputs": [
        {
          "indexed": true,
          "internalType": "address",
          "name": "owner",
          "type": "address"
        },
        {
          "indexed": true,
          "internalType": "uint256",
          "name": "txIndex",
          "type": "uint256"
        }
      ],
      "name": "ExecuteTransaction",
      "type": "event"
    },
    {
      "anonymous": false,
      "inputs": [
        {
          "indexed": false,
          "internalType": "uint8",
          "name": "version",
          "type": "uint8"
        }
      ],
      "name": "Initialized",
      "type": "event"
    },
    {
      "anonymous": false,
      "inputs": [
        {
          "indexed": true,
          "internalType": "address",
          "name": "owner",
          "type": "address"
        }
      ],
      "name": "OwnerAdded",
      "type": "event"
    },
    {
      "anonymous": false,
      "inputs": [
        {
          "indexed": true,
          "internalType": "address",
          "name": "owner",
          "type": "address"
        }
      ],
      "name": "OwnerRemoved",
      "type": "event"
    },
    {
      "anonymous": false,
      "inputs": [
        {
          "indexed": false,
          "internalType": "address",
          "name": "account",
          "type": "address"
        }
      ],
      "name": "Paused",
      "type": "event"
    },
    {
      "anonymous": false,
      "inputs": [
        {
          "indexed": true,
          "internalType": "address",
          "name": "owner",
          "type": "address"
        },
        {
          "indexed": true,
          "internalType": "uint256",
          "name": "txIndex",
          "type": "uint256"
        }
      ],
      "name": "RevokeConfirmation",
      "type": "event"
    },
    {
      "anonymous": false,
      "inputs": [
        {
          "indexed": true,
          "internalType": "bytes32",
          "name": "role",
          "type": "bytes32"
        },
        {
          "indexed": true,
          "internalType": "bytes32",
          "name": "previousAdminRole",
          "type": "bytes32"
        },
        {
          "indexed": true,
          "internalType": "bytes32",
          "name": "newAdminRole",
          "type": "bytes32"
        }
      ],
      "name": "RoleAdminChanged",
      "type": "event"
    },
    {
      "anonymous": false,
      "inputs": [
        {
          "indexed": true,
          "internalType": "bytes32",
          "name": "role",
          "type": "bytes32"
        },
        {
          "indexed": true,
          "internalType": "address",
          "name": "account",
          "type": "address"
        },
        {
          "indexed": true,
          "internalType": "address",
          "name": "sender",
          "type": "address"
        }
      ],
      "name": "RoleGranted",
      "type": "event"
    },
    {
      "anonymous": false,
      "inputs": [
        {
          "indexed": true,
          "internalType": "bytes32",
          "name": "role",
          "type": "bytes32"
        },
        {
          "indexed": true,
          "internalType": "address",
          "name": "account",
          "type": "address"
        },
        {
          "indexed": true,
          "internalType": "address",
          "name": "sender",
          "type": "address"
        }
      ],
      "name": "RoleRevoked",
      "type": "event"
    },
    {
      "anonymous": false,
      "inputs": [
        {
          "indexed": true,
          "internalType": "address",
          "name": "owner",
          "type": "address"
        },
        {
          "indexed": true,
          "internalType": "uint256",
          "name": "txIndex",
          "type": "uint256"
        },
        {
          "indexed": true,
          "internalType": "address",
          "name": "to",
          "type": "address"
        },
        {
          "indexed": false,
          "internalType": "uint256",
          "name": "value",
          "type": "uint256"
        },
        {
          "indexed": false,
          "internalType": "bytes",
          "name": "data",
          "type": "bytes"
        }
      ],
      "name": "SubmitTransaction",
      "type": "event"
    },
    {
      "anonymous": false,
      "inputs": [
        {
          "indexed": false,
          "internalType": "address",
          "name": "account",
          "type": "address"
        }
      ],
      "name": "Unpaused",
      "type": "event"
    },
    {
      "anonymous": false,
      "inputs": [
        {
          "indexed": true,
          "internalType": "address",
          "name": "implementation",
          "type": "address"
        }
      ],
      "name": "Upgraded",
      "type": "event"
    },
    {
      "anonymous": false,
      "inputs": [
        {
          "indexed": true,
          "internalType": "address",
          "name": "to",
          "type": "address"
        },
        {
          "indexed": false,
          "internalType": "uint256",
          "name": "amount",
          "type": "uint256"
        }
      ],
      "name": "Withdrawn",
      "type": "event"
    },
    {
      "inputs": [],
      "name": "DEFAULT_ADMIN_ROLE",
      "outputs": [
        {
          "internalType": "bytes32",
          "name": "",
          "type": "bytes32"
        }
      ],
      "stateMutability": "view",
      "type": "function"
    },
    {
      "inputs": [
        {
          "internalType": "address",
          "name": "owner",
          "type": "address"
        }
      ],
      "name": "_BaseUpgradeablePausable_init",
      "outputs": [],
      "stateMutability": "nonpayable",
      "type": "function"
    },
    {
      "inputs": [
        {
          "internalType": "address[]",
          "name": "_owners",
          "type": "address[]"
        },
        {
          "internalType": "uint256",
          "name": "_numConfirmationsRequired",
          "type": "uint256"
        }
      ],
      "name": "_MultiSign_init",
      "outputs": [],
      "stateMutability": "nonpayable",
      "type": "function"
    },
    {
      "inputs": [],
      "name": "__PauserPausable__init",
      "outputs": [],
      "stateMutability": "nonpayable",
      "type": "function"
    },
    {
      "inputs": [
        {
          "internalType": "address",
          "name": "owner",
          "type": "address"
        }
      ],
      "name": "addOwner",
      "outputs": [],
      "stateMutability": "nonpayable",
      "type": "function"
    },
    {
      "inputs": [
        {
          "internalType": "uint256",
          "name": "_txIndex",
          "type": "uint256"
        }
      ],
      "name": "confirmTransaction",
      "outputs": [],
      "stateMutability": "nonpayable",
      "type": "function"
    },
    {
      "inputs": [],
      "name": "dygnifyConfig",
      "outputs": [
        {
          "internalType": "contract DygnifyConfig",
          "name": "",
          "type": "address"
        }
      ],
      "stateMutability": "view",
      "type": "function"
    },
    {
      "inputs": [],
      "name": "getOwners",
      "outputs": [
        {
          "internalType": "address[]",
          "name": "",
          "type": "address[]"
        }
      ],
      "stateMutability": "view",
      "type": "function"
    },
    {
      "inputs": [
        {
          "internalType": "bytes32",
          "name": "role",
          "type": "bytes32"
        }
      ],
      "name": "getRoleAdmin",
      "outputs": [
        {
          "internalType": "bytes32",
          "name": "",
          "type": "bytes32"
        }
      ],
      "stateMutability": "view",
      "type": "function"
    },
    {
      "inputs": [
        {
          "internalType": "uint256",
          "name": "_txIndex",
          "type": "uint256"
        }
      ],
      "name": "getTransaction",
      "outputs": [
        {
          "internalType": "address",
          "name": "to",
          "type": "address"
        },
        {
          "internalType": "uint256",
          "name": "value",
          "type": "uint256"
        },
        {
          "internalType": "bytes",
          "name": "data",
          "type": "bytes"
        },
        {
          "internalType": "bool",
          "name": "executed",
          "type": "bool"
        },
        {
          "internalType": "uint256",
          "name": "numConfirmations",
          "type": "uint256"
        }
      ],
      "stateMutability": "view",
      "type": "function"
    },
    {
      "inputs": [],
      "name": "getTransactionCount",
      "outputs": [
        {
          "internalType": "uint256",
          "name": "",
          "type": "uint256"
        }
      ],
      "stateMutability": "view",
      "type": "function"
    },
    {
      "inputs": [],
      "name": "getTreasuryBalance",
      "outputs": [
        {
          "internalType": "uint256",
          "name": "",
          "type": "uint256"
        }
      ],
      "stateMutability": "view",
      "type": "function"
    },
    {
      "inputs": [
        {
          "internalType": "bytes32",
          "name": "role",
          "type": "bytes32"
        },
        {
          "internalType": "address",
          "name": "account",
          "type": "address"
        }
      ],
      "name": "grantRole",
      "outputs": [],
      "stateMutability": "nonpayable",
      "type": "function"
    },
    {
      "inputs": [
        {
          "internalType": "bytes32",
          "name": "role",
          "type": "bytes32"
        },
        {
          "internalType": "address",
          "name": "account",
          "type": "address"
        }
      ],
      "name": "hasRole",
      "outputs": [
        {
          "internalType": "bool",
          "name": "",
          "type": "bool"
        }
      ],
      "stateMutability": "view",
      "type": "function"
    },
    {
      "inputs": [
        {
          "internalType": "contract DygnifyConfig",
          "name": "_dygnifyConfig",
          "type": "address"
        }
      ],
      "name": "initialize",
      "outputs": [],
      "stateMutability": "nonpayable",
      "type": "function"
    },
    {
      "inputs": [],
      "name": "isAdmin",
      "outputs": [
        {
          "internalType": "bool",
          "name": "",
          "type": "bool"
        }
      ],
      "stateMutability": "view",
      "type": "function"
    },
    {
      "inputs": [
        {
          "internalType": "uint256",
          "name": "",
          "type": "uint256"
        },
        {
          "internalType": "address",
          "name": "",
          "type": "address"
        }
      ],
      "name": "isConfirmed",
      "outputs": [
        {
          "internalType": "bool",
          "name": "",
          "type": "bool"
        }
      ],
      "stateMutability": "view",
      "type": "function"
    },
    {
      "inputs": [
        {
          "internalType": "address",
          "name": "",
          "type": "address"
        }
      ],
      "name": "isOwner",
      "outputs": [
        {
          "internalType": "bool",
          "name": "",
          "type": "bool"
        }
      ],
      "stateMutability": "view",
      "type": "function"
    },
    {
      "inputs": [],
      "name": "numConfirmationsRequired",
      "outputs": [
        {
          "internalType": "uint256",
          "name": "",
          "type": "uint256"
        }
      ],
      "stateMutability": "view",
      "type": "function"
    },
    {
      "inputs": [
        {
          "internalType": "uint256",
          "name": "",
          "type": "uint256"
        }
      ],
      "name": "owners",
      "outputs": [
        {
          "internalType": "address",
          "name": "",
          "type": "address"
        }
      ],
      "stateMutability": "view",
      "type": "function"
    },
    {
      "inputs": [],
      "name": "pause",
      "outputs": [],
      "stateMutability": "nonpayable",
      "type": "function"
    },
    {
      "inputs": [],
      "name": "paused",
      "outputs": [
        {
          "internalType": "bool",
          "name": "",
          "type": "bool"
        }
      ],
      "stateMutability": "view",
      "type": "function"
    },
    {
      "inputs": [],
      "name": "proxiableUUID",
      "outputs": [
        {
          "internalType": "bytes32",
          "name": "",
          "type": "bytes32"
        }
      ],
      "stateMutability": "view",
      "type": "function"
    },
    {
      "inputs": [
        {
          "internalType": "address",
          "name": "owner",
          "type": "address"
        }
      ],
      "name": "removeOwner",
      "outputs": [],
      "stateMutability": "nonpayable",
      "type": "function"
    },
    {
      "inputs": [
        {
          "internalType": "bytes32",
          "name": "role",
          "type": "bytes32"
        },
        {
          "internalType": "address",
          "name": "account",
          "type": "address"
        }
      ],
      "name": "renounceRole",
      "outputs": [],
      "stateMutability": "nonpayable",
      "type": "function"
    },
    {
      "inputs": [
        {
          "internalType": "uint256",
          "name": "_txIndex",
          "type": "uint256"
        }
      ],
      "name": "revokeConfirmation",
      "outputs": [],
      "stateMutability": "nonpayable",
      "type": "function"
    },
    {
      "inputs": [
        {
          "internalType": "bytes32",
          "name": "role",
          "type": "bytes32"
        },
        {
          "internalType": "address",
          "name": "account",
          "type": "address"
        }
      ],
      "name": "revokeRole",
      "outputs": [],
      "stateMutability": "nonpayable",
      "type": "function"
    },
    {
      "inputs": [
        {
          "internalType": "address",
          "name": "_to",
          "type": "address"
        },
        {
          "internalType": "uint256",
          "name": "_value",
          "type": "uint256"
        },
        {
          "internalType": "bytes",
          "name": "_data",
          "type": "bytes"
        }
      ],
      "name": "submitTransaction",
      "outputs": [],
      "stateMutability": "nonpayable",
      "type": "function"
    },
    {
      "inputs": [
        {
          "internalType": "bytes4",
          "name": "interfaceId",
          "type": "bytes4"
        }
      ],
      "name": "supportsInterface",
      "outputs": [
        {
          "internalType": "bool",
          "name": "",
          "type": "bool"
        }
      ],
      "stateMutability": "view",
      "type": "function"
    },
    {
      "inputs": [
        {
          "internalType": "uint256",
          "name": "",
          "type": "uint256"
        }
      ],
      "name": "transactions",
      "outputs": [
        {
          "internalType": "address",
          "name": "to",
          "type": "address"
        },
        {
          "internalType": "uint256",
          "name": "value",
          "type": "uint256"
        },
        {
          "internalType": "bytes",
          "name": "data",
          "type": "bytes"
        },
        {
          "internalType": "bool",
          "name": "executed",
          "type": "bool"
        },
        {
          "internalType": "uint256",
          "name": "numConfirmations",
          "type": "uint256"
        }
      ],
      "stateMutability": "view",
      "type": "function"
    },
    {
      "inputs": [],
      "name": "unpause",
      "outputs": [],
      "stateMutability": "nonpayable",
      "type": "function"
    },
    {
      "inputs": [
        {
          "internalType": "uint256",
          "name": "_numConfirmationsRequired",
          "type": "uint256"
        }
      ],
      "name": "updateNumConfirmationsRequired",
      "outputs": [],
      "stateMutability": "nonpayable",
      "type": "function"
    },
    {
      "inputs": [
        {
          "internalType": "address",
          "name": "newImplementation",
          "type": "address"
        }
      ],
      "name": "upgradeTo",
      "outputs": [],
      "stateMutability": "nonpayable",
      "type": "function"
    },
    {
      "inputs": [
        {
          "internalType": "address",
          "name": "newImplementation",
          "type": "address"
        },
        {
          "internalType": "bytes",
          "name": "data",
          "type": "bytes"
        }
      ],
      "name": "upgradeToAndCall",
      "outputs": [],
      "stateMutability": "payable",
      "type": "function"
    },
    {
      "inputs": [],
      "name": "usdcToken",
      "outputs": [
        {
          "internalType": "contract IERC20Upgradeable",
          "name": "",
          "type": "address"
        }
      ],
      "stateMutability": "view",
      "type": "function"
    },
    {
      "inputs": [
        {
          "internalType": "address",
          "name": "to",
          "type": "address"
        },
        {
          "internalType": "uint256",
          "name": "amount",
          "type": "uint256"
        }
      ],
      "name": "withdraw",
      "outputs": [],
      "stateMutability": "nonpayable",
      "type": "function"
    }
  ],
  "bytecode": "0x60a06040523060601b60805234801561001757600080fd5b5060805160601c6136e561005260003960008181610ca101528181610ce101528181610e7201528181610eb20152610fe201526136e56000f3fe6080604052600436106101cf5760003560e01c80635c975abb116100f8578063a217fddf11610090578063a217fddf14610562578063b6db75a014610577578063c01a8c841461058c578063c4d66de8146105ac578063c6427474146105cc578063ce24b7a9146105ec578063d0549b851461060c578063d547741f14610623578063f3fef3a31461064357600080fd5b80635c975abb146104425780637065cb481461045a57806380f59a651461047a5780638456cb59146104b657806391d14854146104cb5780639ace38c2146104eb5780639b5655dc1461050b578063a0e67e2b14610520578063a12dde4d1461054257600080fd5b80632f54bf6e1161016b5780632f54bf6e1461032e57806333ea3dc81461035f57806336568abe146103905780633659cfe6146103b05780633aa9f599146103d05780633f4ba83a146103f05780634f1ef28614610405578063526d81f61461041857806352d1902d1461042d57600080fd5b806301ffc9a7146101d4578063025e7c271461020957806311eac85514610236578063173825d9146102575780631be954591461027957806320ea8d861461029a578063248a9ca3146102ba5780632e7700f0146102f85780632f2ff15d1461030e575b600080fd5b3480156101e057600080fd5b506101f46101ef366004612fe4565b610663565b60405190151581526020015b60405180910390f35b34801561021557600080fd5b50610229610224366004612f85565b61069a565b604051610200919061315e565b34801561024257600080fd5b5061016554610229906001600160a01b031681565b34801561026357600080fd5b50610277610272366004612da3565b6106c5565b005b34801561028557600080fd5b5061016454610229906001600160a01b031681565b3480156102a657600080fd5b506102776102b5366004612f85565b610940565b3480156102c657600080fd5b506102ea6102d5366004612f85565b60009081526065602052604090206001015490565b604051908152602001610200565b34801561030457600080fd5b50610163546102ea565b34801561031a57600080fd5b50610277610329366004612fb5565b610ae4565b34801561033a57600080fd5b506101f4610349366004612da3565b6101606020526000908152604090205460ff1681565b34801561036b57600080fd5b5061037f61037a366004612f85565b610b0e565b60405161020095949392919061319f565b34801561039c57600080fd5b506102776103ab366004612fb5565b610c18565b3480156103bc57600080fd5b506102776103cb366004612da3565b610c96565b3480156103dc57600080fd5b506102776103eb366004612f85565b610d5f565b3480156103fc57600080fd5b50610277610e30565b610277610413366004612ddb565b610e67565b34801561042457600080fd5b50610277610f1d565b34801561043957600080fd5b506102ea610fd5565b34801561044e57600080fd5b5060975460ff166101f4565b34801561046657600080fd5b50610277610475366004612da3565b611083565b34801561048657600080fd5b506101f4610495366004612fb5565b61016260209081526000928352604080842090915290825290205460ff1681565b3480156104c257600080fd5b506102776111ae565b3480156104d757600080fd5b506101f46104e6366004612fb5565b6111dd565b3480156104f757600080fd5b5061037f610506366004612f85565b611208565b34801561051757600080fd5b506102ea6112e2565b34801561052c57600080fd5b50610535611368565b60405161020091906131da565b34801561054e57600080fd5b5061027761055d366004612da3565b6113cb565b34801561056e57600080fd5b506102ea600081565b34801561058357600080fd5b506101f461149f565b34801561059857600080fd5b506102776105a7366004612f85565b6114b1565b3480156105b857600080fd5b506102776105c7366004612da3565b611678565b3480156105d857600080fd5b506102776105e7366004612e54565b611832565b3480156105f857600080fd5b50610277610607366004612eab565b6119d3565b34801561061857600080fd5b506102ea6101615481565b34801561062f57600080fd5b5061027761063e366004612fb5565b611c69565b34801561064f57600080fd5b5061027761065e366004612e29565b611c8e565b60006001600160e01b03198216637965db0b60e01b148061069457506301ffc9a760e01b6001600160e01b03198316145b92915050565b61015f81815481106106ab57600080fd5b6000918252602090912001546001600160a01b0316905081565b6106cd61149f565b6106f25760405162461bcd60e51b81526004016106e990613483565b60405180910390fd5b6001600160a01b0381166107185760405162461bcd60e51b81526004016106e990613348565b6001600160a01b0381166000908152610160602052604090205460ff166107785760405162461bcd60e51b81526020600482015260146024820152731bdddb995c88191bd95cc81b9bdd08195e1a5cdd60621b60448201526064016106e9565b6001600160a01b038116600090815261016060205260408120805460ff191690555b61015f546107aa90600190613557565b8110156108a757816001600160a01b031661015f82815481106107dd57634e487b7160e01b600052603260045260246000fd5b6000918252602090912001546001600160a01b031614156108955761015f805461080990600190613557565b8154811061082757634e487b7160e01b600052603260045260246000fd5b60009182526020909120015461015f80546001600160a01b03909216918390811061086257634e487b7160e01b600052603260045260246000fd5b9060005260206000200160006101000a8154816001600160a01b0302191690836001600160a01b031602179055506108a7565b8061089f816135ec565b91505061079a565b5061015f8054806108c857634e487b7160e01b600052603160045260246000fd5b6001900381819060005260206000200160006101000a8154906001600160a01b0302191690559055600161016160008282546109049190613557565b90915550506040516001600160a01b038216907f58619076adf5bb0943d100ef88d52d7c3fd691b19d3a9071b555b651fbf418da90600090a250565b336000908152610160602052604090205460ff166109705760405162461bcd60e51b81526004016106e990613460565b61016354819081106109945760405162461bcd60e51b81526004016106e9906133bd565b8161016381815481106109b757634e487b7160e01b600052603260045260246000fd5b600091825260209091206003600590920201015460ff16156109eb5760405162461bcd60e51b81526004016106e990613433565b60006101638481548110610a0f57634e487b7160e01b600052603260045260246000fd5b60009182526020808320878452610162825260408085203386529092529220546005909102909101915060ff16610a7b5760405162461bcd60e51b815260206004820152601060248201526f1d1e081b9bdd0818dbdb999a5c9b595960821b60448201526064016106e9565b6001816004016000828254610a909190613557565b9091555050600084815261016260209081526040808320338085529252808320805460ff191690555186927ff0dca620e2e81f7841d07bcc105e1704fb01475b278a9d4c236e1c62945edd5591a350505050565b600082815260656020526040902060010154610aff8161200d565b610b098383612017565b505050565b600080606060008060006101638781548110610b3a57634e487b7160e01b600052603260045260246000fd5b6000918252602090912060059091020180546001820154600383015460048401546002850180549596506001600160a01b039094169492939260ff909216918390610b84906135b1565b80601f0160208091040260200160405190810160405280929190818152602001828054610bb0906135b1565b8015610bfd5780601f10610bd257610100808354040283529160200191610bfd565b820191906000526020600020905b815481529060010190602001808311610be057829003601f168201915b50505050509250955095509550955095505091939590929450565b6001600160a01b0381163314610c885760405162461bcd60e51b815260206004820152602f60248201527f416363657373436f6e74726f6c3a2063616e206f6e6c792072656e6f756e636560448201526e103937b632b9903337b91039b2b63360891b60648201526084016106e9565b610c92828261209d565b5050565b306001600160a01b037f0000000000000000000000000000000000000000000000000000000000000000161415610cdf5760405162461bcd60e51b81526004016106e9906132b0565b7f00000000000000000000000000000000000000000000000000000000000000006001600160a01b0316610d11612104565b6001600160a01b031614610d375760405162461bcd60e51b81526004016106e9906132fc565b610d4081612120565b60408051600080825260208201909252610d5c91839190612144565b50565b610d6761149f565b610d835760405162461bcd60e51b81526004016106e990613483565b600081118015610d96575061015f548111155b610df35760405162461bcd60e51b815260206004820152602860248201527f696e76616c6964206e756d626572206f6620636f6e6669726d6174696f6e73206044820152671c995c5d5a5c995960c21b60648201526084016106e9565b6101618190556040518181527f9f75fbfb9443245a9ddd58e8251616e2eca7226042274e46d917d5610f7871ce906020015b60405180910390a150565b610e41610e3b6122be565b336111dd565b610e5d5760405162461bcd60e51b81526004016106e990613264565b610e656122e2565b565b306001600160a01b037f0000000000000000000000000000000000000000000000000000000000000000161415610eb05760405162461bcd60e51b81526004016106e9906132b0565b7f00000000000000000000000000000000000000000000000000000000000000006001600160a01b0316610ee2612104565b6001600160a01b031614610f085760405162461bcd60e51b81526004016106e9906132fc565b610f1182612120565b610c9282826001612144565b600054610100900460ff1615808015610f3d5750600054600160ff909116105b80610f5e5750610f4c3061232e565b158015610f5e575060005460ff166001145b610f7a5760405162461bcd60e51b81526004016106e99061336f565b6000805460ff191660011790558015610f9d576000805461ff0019166101001790555b610fa561233d565b8015610d5c576000805461ff00191690556040516001815260008051602061366983398151915290602001610e25565b6000306001600160a01b037f000000000000000000000000000000000000000000000000000000000000000016146110705760405162461bcd60e51b815260206004820152603860248201527f555550535570677261646561626c653a206d757374206e6f742062652063616c6044820152771b1959081d1a1c9bdd59da0819195b1959d85d1958d85b1b60421b60648201526084016106e9565b5060008051602061364983398151915290565b61108b61149f565b6110a75760405162461bcd60e51b81526004016106e990613483565b6001600160a01b0381166110cd5760405162461bcd60e51b81526004016106e990613348565b6001600160a01b0381166000908152610160602052604090205460ff16156111075760405162461bcd60e51b81526004016106e99061323a565b6001600160a01b03811660008181526101606020526040808220805460ff1916600190811790915561015f8054918201815583527f8c9815a58669fc89297bdc7dd447c098116f98e79093735c0992d0967b696ed90180546001600160a01b03191684179055517f994a936646fe87ffe4f1e469d3d6aa417d6b855598397f323de5b449f765f0c39190a2600161016160008282546111a69190613520565b909155505050565b6111b9610e3b6122be565b6111d55760405162461bcd60e51b81526004016106e990613264565b610e65612370565b60009182526065602090815260408084206001600160a01b0393909316845291905290205460ff1690565b610163818154811061121957600080fd5b60009182526020909120600590910201805460018201546002830180546001600160a01b03909316945090929161124f906135b1565b80601f016020809104026020016040519081016040528092919081815260200182805461127b906135b1565b80156112c85780601f1061129d576101008083540402835291602001916112c8565b820191906000526020600020905b8154815290600101906020018083116112ab57829003601f168201915b505050506003830154600490930154919260ff1691905085565b610165546040516370a0823160e01b815260009182916001600160a01b03909116906370a082319061131890309060040161315e565b60206040518083038186803b15801561133057600080fd5b505afa158015611344573d6000803e3d6000fd5b505050506040513d601f19601f820116820180604052508101906106949190612f9d565b606061015f8054806020026020016040519081016040528092919081815260200182805480156113c157602002820191906000526020600020905b81546001600160a01b031681526001909101906020018083116113a3575b5050505050905090565b600054610100900460ff166113f25760405162461bcd60e51b81526004016106e9906133e8565b6001600160a01b0381166114485760405162461bcd60e51b815260206004820181905260248201527f4f776e65722063616e6e6f7420626520746865207a65726f206164647265737360448201526064016106e9565b6114506123ad565b61145861233d565b6114606123d4565b61147161146b612402565b82612426565b61147c61146b6122be565b6114946114876122be565b61148f612402565b612430565b610d5c611487612402565b60006114ac610e3b612402565b905090565b336000908152610160602052604090205460ff166114e15760405162461bcd60e51b81526004016106e990613460565b61016354819081106115055760405162461bcd60e51b81526004016106e9906133bd565b81610163818154811061152857634e487b7160e01b600052603260045260246000fd5b600091825260209091206003600590920201015460ff161561155c5760405162461bcd60e51b81526004016106e990613433565b600083815261016260209081526040808320338452909152902054839060ff16156115c05760405162461bcd60e51b81526020600482015260146024820152731d1e08185b1c9958591e4818dbdb999a5c9b595960621b60448201526064016106e9565b600061016385815481106115e457634e487b7160e01b600052603260045260246000fd5b9060005260206000209060050201905060018160040160008282546116099190613520565b9091555050600085815261016260209081526040808320338085529252808320805460ff191660011790555187927f5cbe105e36805f7820e291f799d5794ff948af2a5f664e580382defb6339004191a361016154816004015410611671576116718561247b565b5050505050565b600054610100900460ff16158080156116985750600054600160ff909116105b806116b957506116a73061232e565b1580156116b9575060005460ff166001145b6116d55760405162461bcd60e51b81526004016106e99061336f565b6000805460ff1916600117905580156116f8576000805461ff0019166101001790555b6001600160a01b0382166117475760405162461bcd60e51b8152602060048201526016602482015275496e76616c696420636f6e666967206164647265737360501b60448201526064016106e9565b61016480546001600160a01b0319166001600160a01b0384169081179091556000906117729061267c565b90506001600160a01b0381166117ba5760405162461bcd60e51b815260206004820152600d60248201526c24b73b30b634b21027bbb732b960991b60448201526064016106e9565b6117c3816113cb565b610164546117d9906001600160a01b03166126fd565b61016580546001600160a01b0319166001600160a01b0392909216919091179055508015610c92576000805461ff0019169055604051600181526000805160206136698339815191529060200160405180910390a15050565b6001600160a01b03831661187a5760405162461bcd60e51b815260206004820152600f60248201526e696e76616c6964206164647265737360881b60448201526064016106e9565b61016380546040805160a0810182526001600160a01b0387811682526020808301888152938301878152600060608501819052608085018190526001870188559690965282517fb0f3e90519fd0de3100ca1a24094c0a25e5cbf467d74a2603172b5a5204555b36005870290810180546001600160a01b0319169290941691909117835593517fb0f3e90519fd0de3100ca1a24094c0a25e5cbf467d74a2603172b5a5204555b48501559451805194959294919361195f937fb0f3e90519fd0de3100ca1a24094c0a25e5cbf467d74a2603172b5a5204555b590910192910190612c9f565b50606082015160038201805460ff19169115159190911790556080909101516004909101556040516001600160a01b03851690829033907fd5a05bf70715ad82a09a756320284a1b54c9ff74cd0f8cce6219e79b563fe59d906119c590889088906134ce565b60405180910390a450505050565b600054610100900460ff16158080156119f35750600054600160ff909116105b80611a145750611a023061232e565b158015611a14575060005460ff166001145b611a305760405162461bcd60e51b81526004016106e99061336f565b6000805460ff191660011790558015611a53576000805461ff0019166101001790555b6000835111611a965760405162461bcd60e51b815260206004820152600f60248201526e1bdddb995c9cc81c995c5d5a5c9959608a1b60448201526064016106e9565b600082118015611aa7575082518211155b611b045760405162461bcd60e51b815260206004820152602860248201527f696e76616c6964206e756d626572206f6620726571756972656420636f6e6669604482015267726d6174696f6e7360c01b60648201526084016106e9565b611b0d336113cb565b60005b8351811015611c2a576000848281518110611b3b57634e487b7160e01b600052603260045260246000fd5b6020026020010151905060006001600160a01b0316816001600160a01b03161415611b785760405162461bcd60e51b81526004016106e990613348565b6001600160a01b0381166000908152610160602052604090205460ff1615611bb25760405162461bcd60e51b81526004016106e99061323a565b6001600160a01b0316600081815261016060205260408120805460ff1916600190811790915561015f805491820181559091527f8c9815a58669fc89297bdc7dd447c098116f98e79093735c0992d0967b696ed90180546001600160a01b031916909117905580611c22816135ec565b915050611b10565b506101618290558015610b09576000805461ff0019169055604051600181526000805160206136698339815191529060200160405180910390a1505050565b600082815260656020526040902060010154611c848161200d565b610b09838361209d565b611c96612715565b611c9e61276f565b61016454611cb4906001600160a01b03166127b5565b6040516001600160a01b03841660248201526044810183905260640160408051601f198184030181529190526020810180516001600160e01b031663f3fef3a360e01b1790526001600160a01b038216611d4b5760405162461bcd60e51b8152602060048201526018602482015277696e76616c6964206d756c7469736967206164647265737360401b60448201526064016106e9565b336001600160a01b03831614611e2457600080836001600160a01b0316600030600086604051602401611d8093929190613172565b60408051601f198184030181529181526020820180516001600160e01b03166331909d1d60e21b17905251611db59190613038565b60006040518083038185875af1925050503d8060008114611df2576040519150601f19603f3d011682016040523d82523d6000602084013e611df7565b606091505b5091509150818190611e1c5760405162461bcd60e51b81526004016106e99190613227565b505050612001565b60008311611e745760405162461bcd60e51b815260206004820181905260248201527f616d6f756e74206d7573742062652067726561746572207468616e207a65726f60448201526064016106e9565b6001600160a01b038416611ec65760405162461bcd60e51b8152602060048201526019602482015278696e76616c696420726563657069656e74206164647265737360381b60448201526064016106e9565b6000611ed06112e2565b905080841115611f345760405162461bcd60e51b815260206004820152602960248201527f616d6f756e7420657863656564732074686520746f74616c2074726561737572604482015268792062616c616e636560b81b60648201526084016106e9565b6101655460405163a9059cbb60e01b81526001600160a01b038781166004830152602482018790529091169063a9059cbb90604401602060405180830381600087803b158015611f8357600080fd5b505af1158015611f97573d6000803e3d6000fd5b505050506040513d601f19601f82011682018060405250810190611fbb9190612f65565b50846001600160a01b03167f7084f5476618d8e60b11ef0d7d3f06914655adb8793e28ff7f018d4c76d505d585604051611ff791815260200190565b60405180910390a2505b5050610c92600160c955565b610d5c81336127cd565b61202182826111dd565b610c925760008281526065602090815260408083206001600160a01b03851684529091529020805460ff191660011790556120593390565b6001600160a01b0316816001600160a01b0316837f2f8788117e7eff1d82e926ec794901d17c78024a50270940304540a733656f0d60405160405180910390a45050565b6120a782826111dd565b15610c925760008281526065602090815260408083206001600160a01b0385168085529252808320805460ff1916905551339285917ff6391f5c32d9c69d2a47ea670b442974b53935d1edc7fd64eb21e047a839171b9190a45050565b600080516020613649833981519152546001600160a01b031690565b61212861149f565b610d5c5760405162461bcd60e51b81526004016106e990613483565b7f4910fdfa16fed3260ed0e7147f7cc6da11a60208b5b9406d12a635614ffd91435460ff161561217757610b0983612826565b826001600160a01b03166352d1902d6040518163ffffffff1660e01b815260040160206040518083038186803b1580156121b057600080fd5b505afa9250505080156121e0575060408051601f3d908101601f191682019092526121dd91810190612f9d565b60015b6122435760405162461bcd60e51b815260206004820152602e60248201527f45524331393637557067726164653a206e657720696d706c656d656e7461746960448201526d6f6e206973206e6f74205555505360901b60648201526084016106e9565b60008051602061364983398151915281146122b25760405162461bcd60e51b815260206004820152602960248201527f45524331393637557067726164653a20756e737570706f727465642070726f786044820152681a58589b195555525160ba1b60648201526084016106e9565b50610b098383836128c0565b7f65d7a28e3265b37a6474929f336521b332c1681b933f6cb9f3376673440d862a90565b6122ea6128eb565b6097805460ff191690557f5db9ee0a495bf2e6ff9c91a7834c1ba4fdd244a5e8aa4e537bd38aeae4b073aa335b604051612324919061315e565b60405180910390a1565b6001600160a01b03163b151590565b600054610100900460ff166123645760405162461bcd60e51b81526004016106e9906133e8565b6097805460ff19169055565b61237861276f565b6097805460ff191660011790557f62e78cea01bee320cd4e420270b5ea74000d11b0c9f74754ebdbfc544b05a2586123173390565b600054610100900460ff16610e655760405162461bcd60e51b81526004016106e9906133e8565b600054610100900460ff166123fb5760405162461bcd60e51b81526004016106e9906133e8565b600160c955565b7fa49807205ce4d355092ef5a8a18f56e8913cf4a201fbe287825b095693c2177590565b610c928282612017565b600082815260656020526040808220600101805490849055905190918391839186917fbd79b86ffe0ab8e8776151514217cd7cacd52c909f66475c3af44e129f0b00ff9190a4505050565b336000908152610160602052604090205460ff166124ab5760405162461bcd60e51b81526004016106e990613460565b61016354819081106124cf5760405162461bcd60e51b81526004016106e9906133bd565b8161016381815481106124f257634e487b7160e01b600052603260045260246000fd5b600091825260209091206003600590920201015460ff16156125265760405162461bcd60e51b81526004016106e990613433565b6000610163848154811061254a57634e487b7160e01b600052603260045260246000fd5b9060005260206000209060050201905061016154816004015410156125a55760405162461bcd60e51b81526020600482015260116024820152700c6c2dcdcdee840caf0cac6eae8ca40e8f607b1b60448201526064016106e9565b60038101805460ff1916600190811790915581549082015460405160009283926001600160a01b03909116916125df906002870190613054565b60006040518083038185875af1925050503d806000811461261c576040519150601f19603f3d011682016040523d82523d6000602084013e612621565b606091505b50915091508181906126465760405162461bcd60e51b81526004016106e99190613227565b50604051869033907f5445f318f4f5fcfb66592e68e0cc5822aa15664039bd5f0ffde24c5a8142b1ac90600090a3505050505050565b60006001600160a01b03821663b93f9b0a825b6040518263ffffffff1660e01b81526004016126ad91815260200190565b60206040518083038186803b1580156126c557600080fd5b505afa1580156126d9573d6000803e3d6000fd5b505050506040513d601f19601f820116820180604052508101906106949190612dbf565b60006001600160a01b03821663b93f9b0a600261268f565b600260c95414156127685760405162461bcd60e51b815260206004820152601f60248201527f5265656e7472616e637947756172643a207265656e7472616e742063616c6c0060448201526064016106e9565b600260c955565b60975460ff1615610e655760405162461bcd60e51b815260206004820152601060248201526f14185d5cd8589b194e881c185d5cd95960821b60448201526064016106e9565b60006001600160a01b03821663b93f9b0a600b61268f565b6127d782826111dd565b610c92576127e481612934565b6127ef836020612946565b6040516020016128009291906130ef565b60408051601f198184030181529082905262461bcd60e51b82526106e991600401613227565b61282f8161232e565b6128915760405162461bcd60e51b815260206004820152602d60248201527f455243313936373a206e657720696d706c656d656e746174696f6e206973206e60448201526c1bdd08184818dbdb9d1c9858dd609a1b60648201526084016106e9565b60008051602061364983398151915280546001600160a01b0319166001600160a01b0392909216919091179055565b6128c983612b2f565b6000825111806128d65750805b15610b09576128e58383612b6f565b50505050565b60975460ff16610e655760405162461bcd60e51b815260206004820152601460248201527314185d5cd8589b194e881b9bdd081c185d5cd95960621b60448201526064016106e9565b60606106946001600160a01b03831660145b60606000612955836002613538565b612960906002613520565b67ffffffffffffffff81111561298657634e487b7160e01b600052604160045260246000fd5b6040519080825280601f01601f1916602001820160405280156129b0576020820181803683370190505b509050600360fc1b816000815181106129d957634e487b7160e01b600052603260045260246000fd5b60200101906001600160f81b031916908160001a905350600f60fb1b81600181518110612a1657634e487b7160e01b600052603260045260246000fd5b60200101906001600160f81b031916908160001a9053506000612a3a846002613538565b612a45906001613520565b90505b6001811115612ad9576f181899199a1a9b1b9c1cb0b131b232b360811b85600f1660108110612a8757634e487b7160e01b600052603260045260246000fd5b1a60f81b828281518110612aab57634e487b7160e01b600052603260045260246000fd5b60200101906001600160f81b031916908160001a90535060049490941c93612ad28161359a565b9050612a48565b508315612b285760405162461bcd60e51b815260206004820181905260248201527f537472696e67733a20686578206c656e67746820696e73756666696369656e7460448201526064016106e9565b9392505050565b612b3881612826565b6040516001600160a01b038216907fbc7cd75a20ee27fd9adebab32041f755214dbc6bffa90cc0225b39da2e5c2d3b90600090a250565b6060612b7a8361232e565b612bd55760405162461bcd60e51b815260206004820152602660248201527f416464726573733a2064656c65676174652063616c6c20746f206e6f6e2d636f6044820152651b9d1c9858dd60d21b60648201526084016106e9565b600080846001600160a01b031684604051612bf09190613038565b600060405180830381855af49150503d8060008114612c2b576040519150601f19603f3d011682016040523d82523d6000602084013e612c30565b606091505b5091509150612c58828260405180606001604052806027815260200161368960279139612c61565b95945050505050565b60608315612c70575081612b28565b612b288383815115612c855781518083602001fd5b8060405162461bcd60e51b81526004016106e99190613227565b828054612cab906135b1565b90600052602060002090601f016020900481019282612ccd5760008555612d13565b82601f10612ce657805160ff1916838001178555612d13565b82800160010185558215612d13579182015b82811115612d13578251825591602001919060010190612cf8565b50612d1f929150612d23565b5090565b5b80821115612d1f5760008155600101612d24565b600082601f830112612d48578081fd5b813567ffffffffffffffff811115612d6257612d6261361d565b612d75601f8201601f19166020016134ef565b818152846020838601011115612d89578283fd5b816020850160208301379081016020019190915292915050565b600060208284031215612db4578081fd5b8135612b2881613633565b600060208284031215612dd0578081fd5b8151612b2881613633565b60008060408385031215612ded578081fd5b8235612df881613633565b9150602083013567ffffffffffffffff811115612e13578182fd5b612e1f85828601612d38565b9150509250929050565b60008060408385031215612e3b578182fd5b8235612e4681613633565b946020939093013593505050565b600080600060608486031215612e68578081fd5b8335612e7381613633565b925060208401359150604084013567ffffffffffffffff811115612e95578182fd5b612ea186828701612d38565b9150509250925092565b60008060408385031215612ebd578182fd5b823567ffffffffffffffff80821115612ed4578384fd5b818501915085601f830112612ee7578384fd5b8135602082821115612efb57612efb61361d565b8160051b9250612f0c8184016134ef565b8281528181019085830185870184018b1015612f26578889fd5b8896505b84871015612f545780359550612f3f86613633565b85835260019690960195918301918301612f2a565b509997909101359750505050505050565b600060208284031215612f76578081fd5b81518015158114612b28578182fd5b600060208284031215612f96578081fd5b5035919050565b600060208284031215612fae578081fd5b5051919050565b60008060408385031215612fc7578182fd5b823591506020830135612fd981613633565b809150509250929050565b600060208284031215612ff5578081fd5b81356001600160e01b031981168114612b28578182fd5b6000815180845261302481602086016020860161356e565b601f01601f19169290920160200192915050565b6000825161304a81846020870161356e565b9190910192915050565b600080835482600182811c91508083168061307057607f831692505b602080841082141561309057634e487b7160e01b87526022600452602487fd5b8180156130a457600181146130b5576130e1565b60ff198616895284890196506130e1565b60008a815260209020885b868110156130d95781548b8201529085019083016130c0565b505084890196505b509498975050505050505050565b76020b1b1b2b9b9a1b7b73a3937b61d1030b1b1b7bab73a1604d1b81526000835161312181601785016020880161356e565b7001034b99036b4b9b9b4b733903937b6329607d1b601791840191820152835161315281602884016020880161356e565b01602801949350505050565b6001600160a01b0391909116815260200190565b6001600160a01b038416815260ff83166020820152606060408201819052600090612c589083018461300c565b60018060a01b038616815284602082015260a0604082015260006131c660a083018661300c565b931515606083015250608001529392505050565b6020808252825182820181905260009190848201906040850190845b8181101561321b5783516001600160a01b0316835292840192918401916001016131f6565b50909695505050505050565b602081526000612b28602083018461300c565b60208082526010908201526f6f776e6572206e6f7420756e6971756560801b604082015260600190565b6020808252602c908201527f4d75737420686176652070617573657220726f6c6520746f20706572666f726d60408201526b103a3434b99030b1ba34b7b760a11b606082015260800190565b6020808252602c908201527f46756e6374696f6e206d7573742062652063616c6c6564207468726f7567682060408201526b19195b1959d85d1958d85b1b60a21b606082015260800190565b6020808252602c908201527f46756e6374696f6e206d7573742062652063616c6c6564207468726f7567682060408201526b6163746976652070726f787960a01b606082015260800190565b6020808252600d908201526c34b73b30b634b21037bbb732b960991b604082015260600190565b6020808252602e908201527f496e697469616c697a61626c653a20636f6e747261637420697320616c72656160408201526d191e481a5b9a5d1a585b1a5e995960921b606082015260800190565b6020808252601190820152701d1e08191bd95cc81b9bdd08195e1a5cdd607a1b604082015260600190565b6020808252602b908201527f496e697469616c697a61626c653a20636f6e7472616374206973206e6f74206960408201526a6e697469616c697a696e6760a81b606082015260800190565b6020808252601390820152721d1e08185b1c9958591e48195e1958dd5d1959606a1b604082015260600190565b6020808252600990820152683737ba1037bbb732b960b91b604082015260600190565b6020808252602b908201527f4d75737420686176652061646d696e20726f6c6520746f20706572666f726d2060408201526a3a3434b99030b1ba34b7b760a91b606082015260800190565b8281526040602082015260006134e7604083018461300c565b949350505050565b604051601f8201601f1916810167ffffffffffffffff811182821017156135185761351861361d565b604052919050565b6000821982111561353357613533613607565b500190565b600081600019048311821515161561355257613552613607565b500290565b60008282101561356957613569613607565b500390565b60005b83811015613589578181015183820152602001613571565b838111156128e55750506000910152565b6000816135a9576135a9613607565b506000190190565b600181811c908216806135c557607f821691505b602082108114156135e657634e487b7160e01b600052602260045260246000fd5b50919050565b600060001982141561360057613600613607565b5060010190565b634e487b7160e01b600052601160045260246000fd5b634e487b7160e01b600052604160045260246000fd5b6001600160a01b0381168114610d5c57600080fdfe360894a13ba1a3210667c828492db98dca3e2076cc3735a920a3ca505d382bbc7f26b83ff96e1f2b6a682f133852f6798a09c465da95921460cefb3847402498416464726573733a206c6f772d6c6576656c2064656c65676174652063616c6c206661696c6564a2646970667358221220df3b712374bcaaf68c8860b86011cb38a601e8a44f0c124c2c80973c6abc710564736f6c63430008040033",
  "linkReferences": {},
  "deployedLinkReferences": {}
}