{
  "_format": "hh-sol-artifact-1",
  "contractName": "DygnifyStaking",
  "sourceName": "contracts/protocol/old/DygnifyStaking.sol",
  "abi": [
    {
      "inputs": [
        {
          "internalType": "contract IERC20",
          "name": "_usdcToken",
          "type": "address"
        },
        {
          "internalType": "uint256",
          "name": "_APR",
          "type": "uint256"
        }
      ],
      "stateMutability": "nonpayable",
      "type": "constructor"
    },
    {
      "anonymous": false,
      "inputs": [
        {
          "indexed": true,
          "internalType": "address",
          "name": "owner",
          "type": "address"
        },
        {
          "indexed": true,
          "internalType": "address",
          "name": "spender",
          "type": "address"
        },
        {
          "indexed": false,
          "internalType": "uint256",
          "name": "value",
          "type": "uint256"
        }
      ],
      "name": "Approval",
      "type": "event"
    },
    {
      "anonymous": false,
      "inputs": [
        {
          "indexed": true,
          "internalType": "address",
          "name": "from",
          "type": "address"
        },
        {
          "indexed": false,
          "internalType": "uint256",
          "name": "amount",
          "type": "uint256"
        }
      ],
      "name": "Stake",
      "type": "event"
    },
    {
      "anonymous": false,
      "inputs": [
        {
          "indexed": true,
          "internalType": "address",
          "name": "from",
          "type": "address"
        },
        {
          "indexed": true,
          "internalType": "address",
          "name": "to",
          "type": "address"
        },
        {
          "indexed": false,
          "internalType": "uint256",
          "name": "value",
          "type": "uint256"
        }
      ],
      "name": "Transfer",
      "type": "event"
    },
    {
      "anonymous": false,
      "inputs": [
        {
          "indexed": true,
          "internalType": "address",
          "name": "from",
          "type": "address"
        },
        {
          "indexed": false,
          "internalType": "uint256",
          "name": "amount",
          "type": "uint256"
        }
      ],
      "name": "Unstake",
      "type": "event"
    },
    {
      "anonymous": false,
      "inputs": [
        {
          "indexed": true,
          "internalType": "address",
          "name": "to",
          "type": "address"
        },
        {
          "indexed": false,
          "internalType": "uint256",
          "name": "amount",
          "type": "uint256"
        }
      ],
      "name": "YieldWithdraw",
      "type": "event"
    },
    {
      "inputs": [],
      "name": "APR",
      "outputs": [
        {
          "internalType": "uint256",
          "name": "",
          "type": "uint256"
        }
      ],
      "stateMutability": "view",
      "type": "function"
    },
    {
      "inputs": [
        {
          "internalType": "address",
          "name": "owner",
          "type": "address"
        },
        {
          "internalType": "address",
          "name": "spender",
          "type": "address"
        }
      ],
      "name": "allowance",
      "outputs": [
        {
          "internalType": "uint256",
          "name": "",
          "type": "uint256"
        }
      ],
      "stateMutability": "view",
      "type": "function"
    },
    {
      "inputs": [
        {
          "internalType": "address",
          "name": "spender",
          "type": "address"
        },
        {
          "internalType": "uint256",
          "name": "amount",
          "type": "uint256"
        }
      ],
      "name": "approve",
      "outputs": [
        {
          "internalType": "bool",
          "name": "",
          "type": "bool"
        }
      ],
      "stateMutability": "nonpayable",
      "type": "function"
    },
    {
      "inputs": [
        {
          "internalType": "address",
          "name": "account",
          "type": "address"
        }
      ],
      "name": "balanceOf",
      "outputs": [
        {
          "internalType": "uint256",
          "name": "",
          "type": "uint256"
        }
      ],
      "stateMutability": "view",
      "type": "function"
    },
    {
      "inputs": [
        {
          "internalType": "address",
          "name": "user",
          "type": "address"
        }
      ],
      "name": "calculateYieldTime",
      "outputs": [
        {
          "internalType": "uint256",
          "name": "",
          "type": "uint256"
        }
      ],
      "stateMutability": "view",
      "type": "function"
    },
    {
      "inputs": [
        {
          "internalType": "address",
          "name": "user",
          "type": "address"
        }
      ],
      "name": "calculateYieldTotal",
      "outputs": [
        {
          "internalType": "uint256",
          "name": "",
          "type": "uint256"
        }
      ],
      "stateMutability": "view",
      "type": "function"
    },
    {
      "inputs": [
        {
          "internalType": "uint256",
          "name": "_APR",
          "type": "uint256"
        }
      ],
      "name": "changeAPR",
      "outputs": [],
      "stateMutability": "nonpayable",
      "type": "function"
    },
    {
      "inputs": [],
      "name": "contractName",
      "outputs": [
        {
          "internalType": "string",
          "name": "",
          "type": "string"
        }
      ],
      "stateMutability": "view",
      "type": "function"
    },
    {
      "inputs": [],
      "name": "decimals",
      "outputs": [
        {
          "internalType": "uint8",
          "name": "",
          "type": "uint8"
        }
      ],
      "stateMutability": "view",
      "type": "function"
    },
    {
      "inputs": [
        {
          "internalType": "address",
          "name": "spender",
          "type": "address"
        },
        {
          "internalType": "uint256",
          "name": "subtractedValue",
          "type": "uint256"
        }
      ],
      "name": "decreaseAllowance",
      "outputs": [
        {
          "internalType": "bool",
          "name": "",
          "type": "bool"
        }
      ],
      "stateMutability": "nonpayable",
      "type": "function"
    },
    {
      "inputs": [],
      "name": "getTotalYield",
      "outputs": [
        {
          "internalType": "uint256",
          "name": "",
          "type": "uint256"
        }
      ],
      "stateMutability": "view",
      "type": "function"
    },
    {
      "inputs": [
        {
          "internalType": "address",
          "name": "spender",
          "type": "address"
        },
        {
          "internalType": "uint256",
          "name": "addedValue",
          "type": "uint256"
        }
      ],
      "name": "increaseAllowance",
      "outputs": [
        {
          "internalType": "bool",
          "name": "",
          "type": "bool"
        }
      ],
      "stateMutability": "nonpayable",
      "type": "function"
    },
    {
      "inputs": [
        {
          "internalType": "address",
          "name": "",
          "type": "address"
        }
      ],
      "name": "isStaking",
      "outputs": [
        {
          "internalType": "bool",
          "name": "",
          "type": "bool"
        }
      ],
      "stateMutability": "view",
      "type": "function"
    },
    {
      "inputs": [],
      "name": "name",
      "outputs": [
        {
          "internalType": "string",
          "name": "",
          "type": "string"
        }
      ],
      "stateMutability": "view",
      "type": "function"
    },
    {
      "inputs": [],
      "name": "owner",
      "outputs": [
        {
          "internalType": "address",
          "name": "",
          "type": "address"
        }
      ],
      "stateMutability": "view",
      "type": "function"
    },
    {
      "inputs": [
        {
          "internalType": "uint256",
          "name": "amount",
          "type": "uint256"
        }
      ],
      "name": "stake",
      "outputs": [],
      "stateMutability": "nonpayable",
      "type": "function"
    },
    {
      "inputs": [
        {
          "internalType": "address",
          "name": "",
          "type": "address"
        }
      ],
      "name": "stakingBalance",
      "outputs": [
        {
          "internalType": "uint256",
          "name": "",
          "type": "uint256"
        }
      ],
      "stateMutability": "view",
      "type": "function"
    },
    {
      "inputs": [
        {
          "internalType": "address",
          "name": "",
          "type": "address"
        }
      ],
      "name": "startTime",
      "outputs": [
        {
          "internalType": "uint256",
          "name": "",
          "type": "uint256"
        }
      ],
      "stateMutability": "view",
      "type": "function"
    },
    {
      "inputs": [],
      "name": "symbol",
      "outputs": [
        {
          "internalType": "string",
          "name": "",
          "type": "string"
        }
      ],
      "stateMutability": "view",
      "type": "function"
    },
    {
      "inputs": [],
      "name": "totalSupply",
      "outputs": [
        {
          "internalType": "uint256",
          "name": "",
          "type": "uint256"
        }
      ],
      "stateMutability": "view",
      "type": "function"
    },
    {
      "inputs": [
        {
          "internalType": "address",
          "name": "to",
          "type": "address"
        },
        {
          "internalType": "uint256",
          "name": "amount",
          "type": "uint256"
        }
      ],
      "name": "transfer",
      "outputs": [
        {
          "internalType": "bool",
          "name": "",
          "type": "bool"
        }
      ],
      "stateMutability": "nonpayable",
      "type": "function"
    },
    {
      "inputs": [
        {
          "internalType": "address",
          "name": "from",
          "type": "address"
        },
        {
          "internalType": "address",
          "name": "to",
          "type": "address"
        },
        {
          "internalType": "uint256",
          "name": "amount",
          "type": "uint256"
        }
      ],
      "name": "transferFrom",
      "outputs": [
        {
          "internalType": "bool",
          "name": "",
          "type": "bool"
        }
      ],
      "stateMutability": "nonpayable",
      "type": "function"
    },
    {
      "inputs": [
        {
          "internalType": "uint256",
          "name": "amount",
          "type": "uint256"
        }
      ],
      "name": "unstake",
      "outputs": [],
      "stateMutability": "nonpayable",
      "type": "function"
    },
    {
      "inputs": [],
      "name": "usdcToken",
      "outputs": [
        {
          "internalType": "contract IERC20",
          "name": "",
          "type": "address"
        }
      ],
      "stateMutability": "view",
      "type": "function"
    },
    {
      "inputs": [
        {
          "internalType": "address",
          "name": "",
          "type": "address"
        }
      ],
      "name": "usdcYield",
      "outputs": [
        {
          "internalType": "uint256",
          "name": "",
          "type": "uint256"
        }
      ],
      "stateMutability": "view",
      "type": "function"
    },
    {
      "inputs": [
        {
          "internalType": "uint256",
          "name": "amount",
          "type": "uint256"
        },
        {
          "internalType": "address",
          "name": "_receiver",
          "type": "address"
        }
      ],
      "name": "withdrawTo",
      "outputs": [],
      "stateMutability": "nonpayable",
      "type": "function"
    },
    {
      "inputs": [],
      "name": "withdrawYield",
      "outputs": [],
      "stateMutability": "nonpayable",
      "type": "function"
    }
  ],
  "bytecode": "0x60c0604052600f60808190526e4479676e696679205374616b696e6760881b60a0908152620000329160099190620000fd565b503480156200004057600080fd5b5060405162001b4b38038062001b4b8339810160408190526200006391620001a3565b6040805180820182526008815267088f2cedcd2ccf2b60c31b6020808301918252835180850190945260068452650888e9c8cb2b60d31b908401528151919291620000b191600391620000fd565b508051620000c7906004906020840190620000fd565b5050600b80546001600160a01b039094166001600160a01b031994851617905550600a80549092163317909155600c556200021a565b8280546200010b90620001dd565b90600052602060002090601f0160209004810192826200012f57600085556200017a565b82601f106200014a57805160ff19168380011785556200017a565b828001600101855582156200017a579182015b828111156200017a5782518255916020019190600101906200015d565b50620001889291506200018c565b5090565b5b808211156200018857600081556001016200018d565b60008060408385031215620001b6578182fd5b82516001600160a01b0381168114620001cd578283fd5b6020939093015192949293505050565b600181811c90821680620001f257607f821691505b602082108114156200021457634e487b7160e01b600052602260045260246000fd5b50919050565b611921806200022a6000396000f3fe608060405234801561001057600080fd5b50600436106101b95760003560e01c806370a08231116100f9578063a457c2d711610097578063bd30558e11610071578063bd30558e146103cf578063c86283c8146103d8578063dd62ed3e146103eb578063e507a8a41461042457600080fd5b8063a457c2d714610396578063a694fc3a146103a9578063a9059cbb146103bc57600080fd5b8063808c2246116100d3578063808c2246146103485780638da5cb5b1461036857806395d89b411461037b578063980d61161461038357600080fd5b806370a082311461030f57806375d0c0dc146103385780637aec978d1461034057600080fd5b80632e17de781161016657806345bc78ab1161014057806345bc78ab14610299578063619cc4ac146102b95780636e1dc66e146102cc5780636f49712b146102ec57600080fd5b80632e17de7814610262578063313ce56714610277578063395093511461028657600080fd5b806311eac8551161019757806311eac8551461021c57806318160ddd1461024757806323b872dd1461024f57600080fd5b806306872661146101be57806306fdde03146101e4578063095ea7b3146101f9575b600080fd5b6101d16101cc3660046116b0565b61042c565b6040519081526020015b60405180910390f35b6101ec6104b4565b6040516101db91906117d9565b61020c61020736600461173e565b610546565b60405190151581526020016101db565b600b5461022f906001600160a01b031681565b6040516001600160a01b0390911681526020016101db565b6002546101d1565b61020c61025d366004611703565b61055e565b610275610270366004611787565b610582565b005b604051601281526020016101db565b61020c61029436600461173e565b610862565b6101d16102a73660046116b0565b60056020526000908152604090205481565b6102756102c7366004611787565b6108a1565b6101d16102da3660046116b0565b60076020526000908152604090205481565b61020c6102fa3660046116b0565b60066020526000908152604090205460ff1681565b6101d161031d3660046116b0565b6001600160a01b031660009081526020819052604090205490565b6101ec610900565b6101d161098e565b6101d16103563660046116b0565b60086020526000908152604090205481565b600a5461022f906001600160a01b031681565b6101ec6109be565b6101d16103913660046116b0565b6109cd565b61020c6103a436600461173e565b6109fc565b6102756103b7366004611787565b610aa6565b61020c6103ca36600461173e565b610cfc565b6101d1600c5481565b6102756103e63660046117b7565b610d0a565b6101d16103f93660046116d1565b6001600160a01b03918216600090815260016020908152604080832093909416825291909152205490565b610275610eb8565b600080610438836109cd565b61044a90670de0b6b3a7640000611864565b90506000600c546301e133806104609190611864565b9050600061046e8284611844565b6001600160a01b03861660009081526005602052604081205491925090670de0b6b3a7640000906104a0908490611864565b6104aa9190611844565b9695505050505050565b6060600380546104c39061189a565b80601f01602080910402602001604051908101604052809291908181526020018280546104ef9061189a565b801561053c5780601f106105115761010080835404028352916020019161053c565b820191906000526020600020905b81548152906001019060200180831161051f57829003601f168201915b5050505050905090565b60003361055481858561102f565b5060019392505050565b60003361056c858285611187565b610577858585611219565b506001949350505050565b336000908152600560209081526040808320546006909252909120805460ff19169183111591821790556106235760405162461bcd60e51b815260206004820152603e60248201527f4e6f7468696e6720746f20756e7374616b652f756e7374616b6520616d6f756e60448201527f7420697320686967686572207468616e207374616b656420616d6f756e74000060648201526084015b60405180910390fd5b600061062e3361042c565b336000908152600760209081526040808320429055600590915281208054919492935082918590610660908490611883565b9091555061067090503382611430565b3360009081526005602052604090205461077e57336000818152600660209081526040808320805460ff19169055600b546008909252909120546001600160a01b039091169163a9059cbb9185906106c8908661182c565b6106d2919061182c565b6040517fffffffff0000000000000000000000000000000000000000000000000000000060e085901b1681526001600160a01b0390921660048301526024820152604401602060405180830381600087803b15801561073057600080fd5b505af1158015610744573d6000803e3d6000fd5b505050506040513d601f19601f820116820180604052508101906107689190611767565b5033600090815260086020526040812055610828565b600b5460405163a9059cbb60e01b8152336004820152602481018390526001600160a01b039091169063a9059cbb90604401602060405180830381600087803b1580156107ca57600080fd5b505af11580156107de573d6000803e3d6000fd5b505050506040513d601f19601f820116820180604052508101906108029190611767565b50336000908152600860205260408120805484929061082290849061182c565b90915550505b60405181815233907f85082129d87b2fe11527cb1b3b7a520aeb5aa6913f88a3d8757fe40d1db02fdd9060200160405180910390a2505050565b3360008181526001602090815260408083206001600160a01b0387168452909152812054909190610554908290869061089c90879061182c565b61102f565b600a546001600160a01b031633146108fb5760405162461bcd60e51b815260206004820152601660248201527f4f6e6c79206f776e65722063616e206578656375746500000000000000000000604482015260640161061a565b600c55565b6009805461090d9061189a565b80601f01602080910402602001604051908101604052809291908181526020018280546109399061189a565b80156109865780601f1061095b57610100808354040283529160200191610986565b820191906000526020600020905b81548152906001019060200180831161096957829003601f168201915b505050505081565b60008061099a3361042c565b336000908152600860205260409020549091506109b890829061182c565b91505090565b6060600480546104c39061189a565b6001600160a01b038116600090815260076020526040812054429082906109f49083611883565b949350505050565b3360008181526001602090815260408083206001600160a01b038716845290915281205490919083811015610a995760405162461bcd60e51b815260206004820152602560248201527f45524332303a2064656372656173656420616c6c6f77616e63652062656c6f7760448201527f207a65726f000000000000000000000000000000000000000000000000000000606482015260840161061a565b610577828686840361102f565b600081118015610b2f5750600b546040516370a0823160e01b815233600482015282916001600160a01b0316906370a082319060240160206040518083038186803b158015610af457600080fd5b505afa158015610b08573d6000803e3d6000fd5b505050506040513d601f19601f82011682018060405250810190610b2c919061179f565b10155b610b7b5760405162461bcd60e51b815260206004820152601c60248201527f596f752063616e6e6f74207374616b65207a65726f20746f6b656e7300000000604482015260640161061a565b3360009081526006602052604090205460ff16151560011415610bce576000610ba33361042c565b33600090815260086020526040812080549293508392909190610bc790849061182c565b9091555050505b610bd833826115b5565b600b546040517f23b872dd000000000000000000000000000000000000000000000000000000008152336004820152306024820152604481018390526001600160a01b03909116906323b872dd90606401602060405180830381600087803b158015610c4357600080fd5b505af1158015610c57573d6000803e3d6000fd5b505050506040513d601f19601f82011682018060405250810190610c7b9190611767565b503360009081526005602052604081208054839290610c9b90849061182c565b90915550503360008181526007602090815260408083204290556006825291829020805460ff1916600117905590518381527febedb8b3c678666e7f36970bc8f57abf6d8fa2e828c0da91ea5b75bf68ed101a91015b60405180910390a250565b600033610554818585611219565b600a546001600160a01b03163314610d645760405162461bcd60e51b815260206004820152601660248201527f4f6e6c79206f776e65722063616e206578656375746500000000000000000000604482015260640161061a565b600b546040516370a0823160e01b815230600482015283916001600160a01b0316906370a082319060240160206040518083038186803b158015610da757600080fd5b505afa158015610dbb573d6000803e3d6000fd5b505050506040513d601f19601f82011682018060405250810190610ddf919061179f565b1015610e2d5760405162461bcd60e51b815260206004820152601460248201527f496e73756666696369656e742042616c616e6365000000000000000000000000604482015260640161061a565b600b5460405163a9059cbb60e01b81526001600160a01b038381166004830152602482018590529091169063a9059cbb90604401602060405180830381600087803b158015610e7b57600080fd5b505af1158015610e8f573d6000803e3d6000fd5b505050506040513d601f19601f82011682018060405250810190610eb39190611767565b505050565b6000610ec33361042c565b90506000811180610ee257503360009081526008602052604090205415155b610f2e5760405162461bcd60e51b815260206004820152601360248201527f4e6f7468696e6720746f20776974686472617700000000000000000000000000604482015260640161061a565b3360009081526008602052604090205415610f65573360009081526008602052604081208054919055610f61818361182c565b9150505b3360008181526007602052604090819020429055600b54905163a9059cbb60e01b81526004810192909252602482018390526001600160a01b03169063a9059cbb90604401602060405180830381600087803b158015610fc457600080fd5b505af1158015610fd8573d6000803e3d6000fd5b505050506040513d601f19601f82011682018060405250810190610ffc9190611767565b5060405181815233907f92044e3943309ee5950e21bc7421d02c1df75f0df33c0d97c1143687b49a4c5790602001610cf1565b6001600160a01b0383166110aa5760405162461bcd60e51b8152602060048201526024808201527f45524332303a20617070726f76652066726f6d20746865207a65726f2061646460448201527f7265737300000000000000000000000000000000000000000000000000000000606482015260840161061a565b6001600160a01b0382166111265760405162461bcd60e51b815260206004820152602260248201527f45524332303a20617070726f766520746f20746865207a65726f20616464726560448201527f7373000000000000000000000000000000000000000000000000000000000000606482015260840161061a565b6001600160a01b0383811660008181526001602090815260408083209487168084529482529182902085905590518481527f8c5be1e5ebec7d5bd14f71427d1e84f3dd0314c0f7b2291e5b200ac8c7c3b925910160405180910390a3505050565b6001600160a01b03838116600090815260016020908152604080832093861683529290522054600019811461121357818110156112065760405162461bcd60e51b815260206004820152601d60248201527f45524332303a20696e73756666696369656e7420616c6c6f77616e6365000000604482015260640161061a565b611213848484840361102f565b50505050565b6001600160a01b0383166112955760405162461bcd60e51b815260206004820152602560248201527f45524332303a207472616e736665722066726f6d20746865207a65726f20616460448201527f6472657373000000000000000000000000000000000000000000000000000000606482015260840161061a565b6001600160a01b0382166113115760405162461bcd60e51b815260206004820152602360248201527f45524332303a207472616e7366657220746f20746865207a65726f206164647260448201527f6573730000000000000000000000000000000000000000000000000000000000606482015260840161061a565b6001600160a01b038316600090815260208190526040902054818110156113a05760405162461bcd60e51b815260206004820152602660248201527f45524332303a207472616e7366657220616d6f756e742065786365656473206260448201527f616c616e63650000000000000000000000000000000000000000000000000000606482015260840161061a565b6001600160a01b038085166000908152602081905260408082208585039055918516815290812080548492906113d790849061182c565b92505081905550826001600160a01b0316846001600160a01b03167fddf252ad1be2c89b69c2b068fc378daa952ba7f163c4a11628f55a4df523b3ef8460405161142391815260200190565b60405180910390a3611213565b6001600160a01b0382166114ac5760405162461bcd60e51b815260206004820152602160248201527f45524332303a206275726e2066726f6d20746865207a65726f2061646472657360448201527f7300000000000000000000000000000000000000000000000000000000000000606482015260840161061a565b6001600160a01b0382166000908152602081905260409020548181101561153b5760405162461bcd60e51b815260206004820152602260248201527f45524332303a206275726e20616d6f756e7420657863656564732062616c616e60448201527f6365000000000000000000000000000000000000000000000000000000000000606482015260840161061a565b6001600160a01b038316600090815260208190526040812083830390556002805484929061156a908490611883565b90915550506040518281526000906001600160a01b038516907fddf252ad1be2c89b69c2b068fc378daa952ba7f163c4a11628f55a4df523b3ef9060200160405180910390a3505050565b6001600160a01b03821661160b5760405162461bcd60e51b815260206004820152601f60248201527f45524332303a206d696e7420746f20746865207a65726f206164647265737300604482015260640161061a565b806002600082825461161d919061182c565b90915550506001600160a01b0382166000908152602081905260408120805483929061164a90849061182c565b90915550506040518181526001600160a01b038316906000907fddf252ad1be2c89b69c2b068fc378daa952ba7f163c4a11628f55a4df523b3ef9060200160405180910390a35050565b80356001600160a01b03811681146116ab57600080fd5b919050565b6000602082840312156116c1578081fd5b6116ca82611694565b9392505050565b600080604083850312156116e3578081fd5b6116ec83611694565b91506116fa60208401611694565b90509250929050565b600080600060608486031215611717578081fd5b61172084611694565b925061172e60208501611694565b9150604084013590509250925092565b60008060408385031215611750578182fd5b61175983611694565b946020939093013593505050565b600060208284031215611778578081fd5b815180151581146116ca578182fd5b600060208284031215611798578081fd5b5035919050565b6000602082840312156117b0578081fd5b5051919050565b600080604083850312156117c9578182fd5b823591506116fa60208401611694565b6000602080835283518082850152825b81811015611805578581018301518582016040015282016117e9565b818111156118165783604083870101525b50601f01601f1916929092016040019392505050565b6000821982111561183f5761183f6118d5565b500190565b60008261185f57634e487b7160e01b81526012600452602481fd5b500490565b600081600019048311821515161561187e5761187e6118d5565b500290565b600082821015611895576118956118d5565b500390565b600181811c908216806118ae57607f821691505b602082108114156118cf57634e487b7160e01b600052602260045260246000fd5b50919050565b634e487b7160e01b600052601160045260246000fdfea2646970667358221220bdcee92bb07f5f84d651b038b3dafc166f249fcd480ed41b59093ba8f378fcec64736f6c63430008040033",
  "linkReferences": {},
  "deployedLinkReferences": {}
}