{
  "_format": "hh-sol-artifact-1",
  "contractName": "DygnifyStaking",
  "sourceName": "contracts/protocol/old/DygnifyStaking.sol",
  "abi": [
    {
      "inputs": [
        {
          "internalType": "contract IERC20",
          "name": "_usdcToken",
          "type": "address"
        },
        {
          "internalType": "uint256",
          "name": "_APR",
          "type": "uint256"
        }
      ],
      "stateMutability": "nonpayable",
      "type": "constructor"
    },
    {
      "anonymous": false,
      "inputs": [
        {
          "indexed": true,
          "internalType": "address",
          "name": "owner",
          "type": "address"
        },
        {
          "indexed": true,
          "internalType": "address",
          "name": "spender",
          "type": "address"
        },
        {
          "indexed": false,
          "internalType": "uint256",
          "name": "value",
          "type": "uint256"
        }
      ],
      "name": "Approval",
      "type": "event"
    },
    {
      "anonymous": false,
      "inputs": [
        {
          "indexed": true,
          "internalType": "address",
          "name": "from",
          "type": "address"
        },
        {
          "indexed": false,
          "internalType": "uint256",
          "name": "amount",
          "type": "uint256"
        }
      ],
      "name": "Stake",
      "type": "event"
    },
    {
      "anonymous": false,
      "inputs": [
        {
          "indexed": true,
          "internalType": "address",
          "name": "from",
          "type": "address"
        },
        {
          "indexed": true,
          "internalType": "address",
          "name": "to",
          "type": "address"
        },
        {
          "indexed": false,
          "internalType": "uint256",
          "name": "value",
          "type": "uint256"
        }
      ],
      "name": "Transfer",
      "type": "event"
    },
    {
      "anonymous": false,
      "inputs": [
        {
          "indexed": true,
          "internalType": "address",
          "name": "from",
          "type": "address"
        },
        {
          "indexed": false,
          "internalType": "uint256",
          "name": "amount",
          "type": "uint256"
        }
      ],
      "name": "Unstake",
      "type": "event"
    },
    {
      "anonymous": false,
      "inputs": [
        {
          "indexed": true,
          "internalType": "address",
          "name": "to",
          "type": "address"
        },
        {
          "indexed": false,
          "internalType": "uint256",
          "name": "amount",
          "type": "uint256"
        }
      ],
      "name": "YieldWithdraw",
      "type": "event"
    },
    {
      "inputs": [],
      "name": "APR",
      "outputs": [
        {
          "internalType": "uint256",
          "name": "",
          "type": "uint256"
        }
      ],
      "stateMutability": "view",
      "type": "function"
    },
    {
      "inputs": [
        {
          "internalType": "address",
          "name": "owner",
          "type": "address"
        },
        {
          "internalType": "address",
          "name": "spender",
          "type": "address"
        }
      ],
      "name": "allowance",
      "outputs": [
        {
          "internalType": "uint256",
          "name": "",
          "type": "uint256"
        }
      ],
      "stateMutability": "view",
      "type": "function"
    },
    {
      "inputs": [
        {
          "internalType": "address",
          "name": "spender",
          "type": "address"
        },
        {
          "internalType": "uint256",
          "name": "amount",
          "type": "uint256"
        }
      ],
      "name": "approve",
      "outputs": [
        {
          "internalType": "bool",
          "name": "",
          "type": "bool"
        }
      ],
      "stateMutability": "nonpayable",
      "type": "function"
    },
    {
      "inputs": [
        {
          "internalType": "address",
          "name": "account",
          "type": "address"
        }
      ],
      "name": "balanceOf",
      "outputs": [
        {
          "internalType": "uint256",
          "name": "",
          "type": "uint256"
        }
      ],
      "stateMutability": "view",
      "type": "function"
    },
    {
      "inputs": [
        {
          "internalType": "address",
          "name": "user",
          "type": "address"
        }
      ],
      "name": "calculateYieldTime",
      "outputs": [
        {
          "internalType": "uint256",
          "name": "",
          "type": "uint256"
        }
      ],
      "stateMutability": "view",
      "type": "function"
    },
    {
      "inputs": [
        {
          "internalType": "address",
          "name": "user",
          "type": "address"
        }
      ],
      "name": "calculateYieldTotal",
      "outputs": [
        {
          "internalType": "uint256",
          "name": "",
          "type": "uint256"
        }
      ],
      "stateMutability": "view",
      "type": "function"
    },
    {
      "inputs": [
        {
          "internalType": "uint256",
          "name": "_APR",
          "type": "uint256"
        }
      ],
      "name": "changeAPR",
      "outputs": [],
      "stateMutability": "nonpayable",
      "type": "function"
    },
    {
      "inputs": [],
      "name": "contractName",
      "outputs": [
        {
          "internalType": "string",
          "name": "",
          "type": "string"
        }
      ],
      "stateMutability": "view",
      "type": "function"
    },
    {
      "inputs": [],
      "name": "decimals",
      "outputs": [
        {
          "internalType": "uint8",
          "name": "",
          "type": "uint8"
        }
      ],
      "stateMutability": "view",
      "type": "function"
    },
    {
      "inputs": [
        {
          "internalType": "address",
          "name": "spender",
          "type": "address"
        },
        {
          "internalType": "uint256",
          "name": "subtractedValue",
          "type": "uint256"
        }
      ],
      "name": "decreaseAllowance",
      "outputs": [
        {
          "internalType": "bool",
          "name": "",
          "type": "bool"
        }
      ],
      "stateMutability": "nonpayable",
      "type": "function"
    },
    {
      "inputs": [],
      "name": "getTotalYield",
      "outputs": [
        {
          "internalType": "uint256",
          "name": "",
          "type": "uint256"
        }
      ],
      "stateMutability": "view",
      "type": "function"
    },
    {
      "inputs": [
        {
          "internalType": "address",
          "name": "spender",
          "type": "address"
        },
        {
          "internalType": "uint256",
          "name": "addedValue",
          "type": "uint256"
        }
      ],
      "name": "increaseAllowance",
      "outputs": [
        {
          "internalType": "bool",
          "name": "",
          "type": "bool"
        }
      ],
      "stateMutability": "nonpayable",
      "type": "function"
    },
    {
      "inputs": [
        {
          "internalType": "address",
          "name": "",
          "type": "address"
        }
      ],
      "name": "isStaking",
      "outputs": [
        {
          "internalType": "bool",
          "name": "",
          "type": "bool"
        }
      ],
      "stateMutability": "view",
      "type": "function"
    },
    {
      "inputs": [],
      "name": "name",
      "outputs": [
        {
          "internalType": "string",
          "name": "",
          "type": "string"
        }
      ],
      "stateMutability": "view",
      "type": "function"
    },
    {
      "inputs": [],
      "name": "owner",
      "outputs": [
        {
          "internalType": "address",
          "name": "",
          "type": "address"
        }
      ],
      "stateMutability": "view",
      "type": "function"
    },
    {
      "inputs": [
        {
          "internalType": "uint256",
          "name": "amount",
          "type": "uint256"
        }
      ],
      "name": "stake",
      "outputs": [],
      "stateMutability": "nonpayable",
      "type": "function"
    },
    {
      "inputs": [
        {
          "internalType": "address",
          "name": "",
          "type": "address"
        }
      ],
      "name": "stakingBalance",
      "outputs": [
        {
          "internalType": "uint256",
          "name": "",
          "type": "uint256"
        }
      ],
      "stateMutability": "view",
      "type": "function"
    },
    {
      "inputs": [
        {
          "internalType": "address",
          "name": "",
          "type": "address"
        }
      ],
      "name": "startTime",
      "outputs": [
        {
          "internalType": "uint256",
          "name": "",
          "type": "uint256"
        }
      ],
      "stateMutability": "view",
      "type": "function"
    },
    {
      "inputs": [],
      "name": "symbol",
      "outputs": [
        {
          "internalType": "string",
          "name": "",
          "type": "string"
        }
      ],
      "stateMutability": "view",
      "type": "function"
    },
    {
      "inputs": [],
      "name": "totalSupply",
      "outputs": [
        {
          "internalType": "uint256",
          "name": "",
          "type": "uint256"
        }
      ],
      "stateMutability": "view",
      "type": "function"
    },
    {
      "inputs": [
        {
          "internalType": "address",
          "name": "to",
          "type": "address"
        },
        {
          "internalType": "uint256",
          "name": "amount",
          "type": "uint256"
        }
      ],
      "name": "transfer",
      "outputs": [
        {
          "internalType": "bool",
          "name": "",
          "type": "bool"
        }
      ],
      "stateMutability": "nonpayable",
      "type": "function"
    },
    {
      "inputs": [
        {
          "internalType": "address",
          "name": "from",
          "type": "address"
        },
        {
          "internalType": "address",
          "name": "to",
          "type": "address"
        },
        {
          "internalType": "uint256",
          "name": "amount",
          "type": "uint256"
        }
      ],
      "name": "transferFrom",
      "outputs": [
        {
          "internalType": "bool",
          "name": "",
          "type": "bool"
        }
      ],
      "stateMutability": "nonpayable",
      "type": "function"
    },
    {
      "inputs": [
        {
          "internalType": "uint256",
          "name": "amount",
          "type": "uint256"
        }
      ],
      "name": "unstake",
      "outputs": [],
      "stateMutability": "nonpayable",
      "type": "function"
    },
    {
      "inputs": [],
      "name": "usdcToken",
      "outputs": [
        {
          "internalType": "contract IERC20",
          "name": "",
          "type": "address"
        }
      ],
      "stateMutability": "view",
      "type": "function"
    },
    {
      "inputs": [
        {
          "internalType": "address",
          "name": "",
          "type": "address"
        }
      ],
      "name": "usdcYield",
      "outputs": [
        {
          "internalType": "uint256",
          "name": "",
          "type": "uint256"
        }
      ],
      "stateMutability": "view",
      "type": "function"
    },
    {
      "inputs": [
        {
          "internalType": "uint256",
          "name": "amount",
          "type": "uint256"
        },
        {
          "internalType": "address",
          "name": "_receiver",
          "type": "address"
        }
      ],
      "name": "withdrawTo",
      "outputs": [],
      "stateMutability": "nonpayable",
      "type": "function"
    },
    {
      "inputs": [],
      "name": "withdrawYield",
      "outputs": [],
      "stateMutability": "nonpayable",
      "type": "function"
    }
  ],
  "bytecode": "0x60c0604052600f60808190526e4479676e696679205374616b696e6760881b60a0908152620000329160099190620000fd565b503480156200004057600080fd5b5060405162001922380380620019228339810160408190526200006391620001a3565b6040805180820182526008815267088f2cedcd2ccf2b60c31b6020808301918252835180850190945260068452650888e9c8cb2b60d31b908401528151919291620000b191600391620000fd565b508051620000c7906004906020840190620000fd565b5050600b80546001600160a01b039094166001600160a01b031994851617905550600a80549092163317909155600c556200021a565b8280546200010b90620001dd565b90600052602060002090601f0160209004810192826200012f57600085556200017a565b82601f106200014a57805160ff19168380011785556200017a565b828001600101855582156200017a579182015b828111156200017a5782518255916020019190600101906200015d565b50620001889291506200018c565b5090565b5b808211156200018857600081556001016200018d565b60008060408385031215620001b6578182fd5b82516001600160a01b0381168114620001cd578283fd5b6020939093015192949293505050565b600181811c90821680620001f257607f821691505b602082108114156200021457634e487b7160e01b600052602260045260246000fd5b50919050565b6116f8806200022a6000396000f3fe608060405234801561001057600080fd5b50600436106101795760003560e01c806370a08231116100d9578063a457c2d711610087578063a457c2d71461034b578063a694fc3a1461035e578063a9059cbb14610371578063bd30558e14610384578063c86283c81461038d578063dd62ed3e146103a0578063e507a8a4146103b357600080fd5b806370a08231146102c457806375d0c0dc146102ed5780637aec978d146102f5578063808c2246146102fd5780638da5cb5b1461031d57806395d89b4114610330578063980d61161461033857600080fd5b80632e17de78116101365780632e17de7814610217578063313ce5671461022c578063395093511461023b57806345bc78ab1461024e578063619cc4ac1461026e5780636e1dc66e146102815780636f49712b146102a157600080fd5b8063068726611461017e57806306fdde03146101a4578063095ea7b3146101b957806311eac855146101dc57806318160ddd146101fc57806323b872dd14610204575b600080fd5b61019161018c36600461140a565b6103bb565b6040519081526020015b60405180910390f35b6101ac610443565b60405161019b9190611560565b6101cc6101c7366004611498565b6104d5565b604051901515815260200161019b565b600b546101ef906001600160a01b031681565b60405161019b9190611533565b600254610191565b6101cc61021236600461145d565b6104ed565b61022a6102253660046114e1565b610511565b005b6040516012815260200161019b565b6101cc610249366004611498565b6107ca565b61019161025c36600461140a565b60056020526000908152604090205481565b61022a61027c3660046114e1565b6107ec565b61019161028f36600461140a565b60076020526000908152604090205481565b6101cc6102af36600461140a565b60066020526000908152604090205460ff1681565b6101916102d236600461140a565b6001600160a01b031660009081526020819052604090205490565b6101ac61081b565b6101916108a9565b61019161030b36600461140a565b60086020526000908152604090205481565b600a546101ef906001600160a01b031681565b6101ac6108d9565b61019161034636600461140a565b6108e8565b6101cc610359366004611498565b610917565b61022a61036c3660046114e1565b610992565b6101cc61037f366004611498565b610bd4565b610191600c5481565b61022a61039b366004611511565b610be2565b6101916103ae36600461142b565b610d5a565b61022a610d85565b6000806103c7836108e8565b6103d990670de0b6b3a764000061161b565b90506000600c546301e133806103ef919061161b565b905060006103fd82846115fb565b6001600160a01b03861660009081526005602052604081205491925090670de0b6b3a76400009061042f90849061161b565b61043991906115fb565b9695505050505050565b60606003805461045290611651565b80601f016020809104026020016040519081016040528092919081815260200182805461047e90611651565b80156104cb5780601f106104a0576101008083540402835291602001916104cb565b820191906000526020600020905b8154815290600101906020018083116104ae57829003601f168201915b5050505050905090565b6000336104e3818585610ef1565b5060019392505050565b6000336104fb858285611015565b61050685858561108f565b506001949350505050565b336000908152600560209081526040808320546006909252909120805460ff19169183111591821790556105b25760405162461bcd60e51b815260206004820152603e60248201527f4e6f7468696e6720746f20756e7374616b652f756e7374616b6520616d6f756e60448201527f7420697320686967686572207468616e207374616b656420616d6f756e74000060648201526084015b60405180910390fd5b60006105bd336103bb565b3360009081526007602090815260408083204290556005909152812080549194929350829185906105ef90849061163a565b909155506105ff90503382611221565b336000908152600560205260409020546106e657336000818152600660209081526040808320805460ff19169055600b546008909252909120546001600160a01b039091169163a9059cbb91859061065790866115e3565b61066191906115e3565b6040518363ffffffff1660e01b815260040161067e929190611547565b602060405180830381600087803b15801561069857600080fd5b505af11580156106ac573d6000803e3d6000fd5b505050506040513d601f19601f820116820180604052508101906106d091906114c1565b5033600090815260086020526040812055610790565b600b5460405163a9059cbb60e01b81526001600160a01b039091169063a9059cbb906107189033908590600401611547565b602060405180830381600087803b15801561073257600080fd5b505af1158015610746573d6000803e3d6000fd5b505050506040513d601f19601f8201168201806040525081019061076a91906114c1565b50336000908152600860205260408120805484929061078a9084906115e3565b90915550505b60405181815233907f85082129d87b2fe11527cb1b3b7a520aeb5aa6913f88a3d8757fe40d1db02fdd9060200160405180910390a2505050565b6000336104e38185856107dd8383610d5a565b6107e791906115e3565b610ef1565b600a546001600160a01b031633146108165760405162461bcd60e51b81526004016105a9906115b3565b600c55565b6009805461082890611651565b80601f016020809104026020016040519081016040528092919081815260200182805461085490611651565b80156108a15780601f10610876576101008083540402835291602001916108a1565b820191906000526020600020905b81548152906001019060200180831161088457829003601f168201915b505050505081565b6000806108b5336103bb565b336000908152600860205260409020549091506108d39082906115e3565b91505090565b60606004805461045290611651565b6001600160a01b0381166000908152600760205260408120544290829061090f908361163a565b949350505050565b600033816109258286610d5a565b9050838110156109855760405162461bcd60e51b815260206004820152602560248201527f45524332303a2064656372656173656420616c6c6f77616e63652062656c6f77604482015264207a65726f60d81b60648201526084016105a9565b6105068286868403610ef1565b600081118015610a205750600b546040516370a0823160e01b815282916001600160a01b0316906370a08231906109cd903390600401611533565b60206040518083038186803b1580156109e557600080fd5b505afa1580156109f9573d6000803e3d6000fd5b505050506040513d601f19601f82011682018060405250810190610a1d91906114f9565b10155b610a6c5760405162461bcd60e51b815260206004820152601c60248201527f596f752063616e6e6f74207374616b65207a65726f20746f6b656e730000000060448201526064016105a9565b3360009081526006602052604090205460ff16151560011415610abf576000610a94336103bb565b33600090815260086020526040812080549293508392909190610ab89084906115e3565b9091555050505b610ac93382611341565b600b546040516323b872dd60e01b8152336004820152306024820152604481018390526001600160a01b03909116906323b872dd90606401602060405180830381600087803b158015610b1b57600080fd5b505af1158015610b2f573d6000803e3d6000fd5b505050506040513d601f19601f82011682018060405250810190610b5391906114c1565b503360009081526005602052604081208054839290610b739084906115e3565b90915550503360008181526007602090815260408083204290556006825291829020805460ff1916600117905590518381527febedb8b3c678666e7f36970bc8f57abf6d8fa2e828c0da91ea5b75bf68ed101a91015b60405180910390a250565b6000336104e381858561108f565b600a546001600160a01b03163314610c0c5760405162461bcd60e51b81526004016105a9906115b3565b600b546040516370a0823160e01b815283916001600160a01b0316906370a0823190610c3c903090600401611533565b60206040518083038186803b158015610c5457600080fd5b505afa158015610c68573d6000803e3d6000fd5b505050506040513d601f19601f82011682018060405250810190610c8c91906114f9565b1015610cd15760405162461bcd60e51b8152602060048201526014602482015273496e73756666696369656e742042616c616e636560601b60448201526064016105a9565b600b5460405163a9059cbb60e01b81526001600160a01b039091169063a9059cbb90610d039084908690600401611547565b602060405180830381600087803b158015610d1d57600080fd5b505af1158015610d31573d6000803e3d6000fd5b505050506040513d601f19601f82011682018060405250810190610d5591906114c1565b505050565b6001600160a01b03918216600090815260016020908152604080832093909416825291909152205490565b6000610d90336103bb565b90506000811180610daf57503360009081526008602052604090205415155b610df15760405162461bcd60e51b81526020600482015260136024820152724e6f7468696e6720746f20776974686472617760681b60448201526064016105a9565b3360009081526008602052604090205415610e28573360009081526008602052604081208054919055610e2481836115e3565b9150505b3360008181526007602052604090819020429055600b54905163a9059cbb60e01b81526001600160a01b039091169163a9059cbb91610e6c91908590600401611547565b602060405180830381600087803b158015610e8657600080fd5b505af1158015610e9a573d6000803e3d6000fd5b505050506040513d601f19601f82011682018060405250810190610ebe91906114c1565b5060405181815233907f92044e3943309ee5950e21bc7421d02c1df75f0df33c0d97c1143687b49a4c5790602001610bc9565b6001600160a01b038316610f535760405162461bcd60e51b8152602060048201526024808201527f45524332303a20617070726f76652066726f6d20746865207a65726f206164646044820152637265737360e01b60648201526084016105a9565b6001600160a01b038216610fb45760405162461bcd60e51b815260206004820152602260248201527f45524332303a20617070726f766520746f20746865207a65726f206164647265604482015261737360f01b60648201526084016105a9565b6001600160a01b0383811660008181526001602090815260408083209487168084529482529182902085905590518481527f8c5be1e5ebec7d5bd14f71427d1e84f3dd0314c0f7b2291e5b200ac8c7c3b925910160405180910390a3505050565b60006110218484610d5a565b90506000198114611089578181101561107c5760405162461bcd60e51b815260206004820152601d60248201527f45524332303a20696e73756666696369656e7420616c6c6f77616e636500000060448201526064016105a9565b6110898484848403610ef1565b50505050565b6001600160a01b0383166110f35760405162461bcd60e51b815260206004820152602560248201527f45524332303a207472616e736665722066726f6d20746865207a65726f206164604482015264647265737360d81b60648201526084016105a9565b6001600160a01b0382166111555760405162461bcd60e51b815260206004820152602360248201527f45524332303a207472616e7366657220746f20746865207a65726f206164647260448201526265737360e81b60648201526084016105a9565b6001600160a01b038316600090815260208190526040902054818110156111cd5760405162461bcd60e51b815260206004820152602660248201527f45524332303a207472616e7366657220616d6f756e7420657863656564732062604482015265616c616e636560d01b60648201526084016105a9565b6001600160a01b03848116600081815260208181526040808320878703905593871680835291849020805487019055925185815290926000805160206116a3833981519152910160405180910390a3611089565b6001600160a01b0382166112815760405162461bcd60e51b815260206004820152602160248201527f45524332303a206275726e2066726f6d20746865207a65726f206164647265736044820152607360f81b60648201526084016105a9565b6001600160a01b038216600090815260208190526040902054818110156112f55760405162461bcd60e51b815260206004820152602260248201527f45524332303a206275726e20616d6f756e7420657863656564732062616c616e604482015261636560f01b60648201526084016105a9565b6001600160a01b0383166000818152602081815260408083208686039055600280548790039055518581529192916000805160206116a3833981519152910160405180910390a3505050565b6001600160a01b0382166113975760405162461bcd60e51b815260206004820152601f60248201527f45524332303a206d696e7420746f20746865207a65726f20616464726573730060448201526064016105a9565b80600260008282546113a991906115e3565b90915550506001600160a01b038216600081815260208181526040808320805486019055518481526000805160206116a3833981519152910160405180910390a35050565b80356001600160a01b038116811461140557600080fd5b919050565b60006020828403121561141b578081fd5b611424826113ee565b9392505050565b6000806040838503121561143d578081fd5b611446836113ee565b9150611454602084016113ee565b90509250929050565b600080600060608486031215611471578081fd5b61147a846113ee565b9250611488602085016113ee565b9150604084013590509250925092565b600080604083850312156114aa578182fd5b6114b3836113ee565b946020939093013593505050565b6000602082840312156114d2578081fd5b81518015158114611424578182fd5b6000602082840312156114f2578081fd5b5035919050565b60006020828403121561150a578081fd5b5051919050565b60008060408385031215611523578182fd5b82359150611454602084016113ee565b6001600160a01b0391909116815260200190565b6001600160a01b03929092168252602082015260400190565b6000602080835283518082850152825b8181101561158c57858101830151858201604001528201611570565b8181111561159d5783604083870101525b50601f01601f1916929092016040019392505050565b6020808252601690820152754f6e6c79206f776e65722063616e206578656375746560501b604082015260600190565b600082198211156115f6576115f661168c565b500190565b60008261161657634e487b7160e01b81526012600452602481fd5b500490565b60008160001904831182151516156116355761163561168c565b500290565b60008282101561164c5761164c61168c565b500390565b600181811c9082168061166557607f821691505b6020821081141561168657634e487b7160e01b600052602260045260246000fd5b50919050565b634e487b7160e01b600052601160045260246000fdfeddf252ad1be2c89b69c2b068fc378daa952ba7f163c4a11628f55a4df523b3efa264697066735822122047842164f87b0798b5888d83adca6dba7447f6aa9e35ee27430ec84228144bc464736f6c63430008040033",
  "linkReferences": {},
  "deployedLinkReferences": {}
}