{
  "_format": "hh-sol-artifact-1",
  "contractName": "CollateralToken",
  "sourceName": "contracts/protocol/CollateralToken.sol",
  "abi": [
    {
      "anonymous": false,
      "inputs": [
        {
          "indexed": false,
          "internalType": "address",
          "name": "previousAdmin",
          "type": "address"
        },
        {
          "indexed": false,
          "internalType": "address",
          "name": "newAdmin",
          "type": "address"
        }
      ],
      "name": "AdminChanged",
      "type": "event"
    },
    {
      "anonymous": false,
      "inputs": [
        {
          "indexed": true,
          "internalType": "address",
          "name": "owner",
          "type": "address"
        },
        {
          "indexed": true,
          "internalType": "address",
          "name": "approved",
          "type": "address"
        },
        {
          "indexed": true,
          "internalType": "uint256",
          "name": "tokenId",
          "type": "uint256"
        }
      ],
      "name": "Approval",
      "type": "event"
    },
    {
      "anonymous": false,
      "inputs": [
        {
          "indexed": true,
          "internalType": "address",
          "name": "owner",
          "type": "address"
        },
        {
          "indexed": true,
          "internalType": "address",
          "name": "operator",
          "type": "address"
        },
        {
          "indexed": false,
          "internalType": "bool",
          "name": "approved",
          "type": "bool"
        }
      ],
      "name": "ApprovalForAll",
      "type": "event"
    },
    {
      "anonymous": false,
      "inputs": [
        {
          "indexed": true,
          "internalType": "address",
          "name": "beacon",
          "type": "address"
        }
      ],
      "name": "BeaconUpgraded",
      "type": "event"
    },
    {
      "anonymous": false,
      "inputs": [
        {
          "indexed": false,
          "internalType": "uint8",
          "name": "version",
          "type": "uint8"
        }
      ],
      "name": "Initialized",
      "type": "event"
    },
    {
      "anonymous": false,
      "inputs": [
        {
          "indexed": false,
          "internalType": "address",
          "name": "account",
          "type": "address"
        }
      ],
      "name": "Paused",
      "type": "event"
    },
    {
      "anonymous": false,
      "inputs": [
        {
          "indexed": true,
          "internalType": "bytes32",
          "name": "role",
          "type": "bytes32"
        },
        {
          "indexed": true,
          "internalType": "bytes32",
          "name": "previousAdminRole",
          "type": "bytes32"
        },
        {
          "indexed": true,
          "internalType": "bytes32",
          "name": "newAdminRole",
          "type": "bytes32"
        }
      ],
      "name": "RoleAdminChanged",
      "type": "event"
    },
    {
      "anonymous": false,
      "inputs": [
        {
          "indexed": true,
          "internalType": "bytes32",
          "name": "role",
          "type": "bytes32"
        },
        {
          "indexed": true,
          "internalType": "address",
          "name": "account",
          "type": "address"
        },
        {
          "indexed": true,
          "internalType": "address",
          "name": "sender",
          "type": "address"
        }
      ],
      "name": "RoleGranted",
      "type": "event"
    },
    {
      "anonymous": false,
      "inputs": [
        {
          "indexed": true,
          "internalType": "bytes32",
          "name": "role",
          "type": "bytes32"
        },
        {
          "indexed": true,
          "internalType": "address",
          "name": "account",
          "type": "address"
        },
        {
          "indexed": true,
          "internalType": "address",
          "name": "sender",
          "type": "address"
        }
      ],
      "name": "RoleRevoked",
      "type": "event"
    },
    {
      "anonymous": false,
      "inputs": [
        {
          "indexed": true,
          "internalType": "address",
          "name": "from",
          "type": "address"
        },
        {
          "indexed": true,
          "internalType": "address",
          "name": "to",
          "type": "address"
        },
        {
          "indexed": true,
          "internalType": "uint256",
          "name": "tokenId",
          "type": "uint256"
        }
      ],
      "name": "Transfer",
      "type": "event"
    },
    {
      "anonymous": false,
      "inputs": [
        {
          "indexed": false,
          "internalType": "address",
          "name": "account",
          "type": "address"
        }
      ],
      "name": "Unpaused",
      "type": "event"
    },
    {
      "anonymous": false,
      "inputs": [
        {
          "indexed": true,
          "internalType": "address",
          "name": "implementation",
          "type": "address"
        }
      ],
      "name": "Upgraded",
      "type": "event"
    },
    {
      "inputs": [],
      "name": "DEFAULT_ADMIN_ROLE",
      "outputs": [
        {
          "internalType": "bytes32",
          "name": "",
          "type": "bytes32"
        }
      ],
      "stateMutability": "view",
      "type": "function"
    },
    {
      "inputs": [],
      "name": "MINTER_ROLE",
      "outputs": [
        {
          "internalType": "bytes32",
          "name": "",
          "type": "bytes32"
        }
      ],
      "stateMutability": "view",
      "type": "function"
    },
    {
      "inputs": [],
      "name": "PAUSER_ROLE",
      "outputs": [
        {
          "internalType": "bytes32",
          "name": "",
          "type": "bytes32"
        }
      ],
      "stateMutability": "view",
      "type": "function"
    },
    {
      "inputs": [],
      "name": "UPGRADER_ROLE",
      "outputs": [
        {
          "internalType": "bytes32",
          "name": "",
          "type": "bytes32"
        }
      ],
      "stateMutability": "view",
      "type": "function"
    },
    {
      "inputs": [
        {
          "internalType": "address",
          "name": "to",
          "type": "address"
        },
        {
          "internalType": "uint256",
          "name": "tokenId",
          "type": "uint256"
        }
      ],
      "name": "approve",
      "outputs": [],
      "stateMutability": "nonpayable",
      "type": "function"
    },
    {
      "inputs": [
        {
          "internalType": "address",
          "name": "owner",
          "type": "address"
        }
      ],
      "name": "balanceOf",
      "outputs": [
        {
          "internalType": "uint256",
          "name": "",
          "type": "uint256"
        }
      ],
      "stateMutability": "view",
      "type": "function"
    },
    {
      "inputs": [
        {
          "internalType": "uint256",
          "name": "tokenId",
          "type": "uint256"
        }
      ],
      "name": "burn",
      "outputs": [],
      "stateMutability": "nonpayable",
      "type": "function"
    },
    {
      "inputs": [],
      "name": "dygnifyConfig",
      "outputs": [
        {
          "internalType": "contract DygnifyConfig",
          "name": "",
          "type": "address"
        }
      ],
      "stateMutability": "view",
      "type": "function"
    },
    {
      "inputs": [
        {
          "internalType": "uint256",
          "name": "tokenId",
          "type": "uint256"
        }
      ],
      "name": "getApproved",
      "outputs": [
        {
          "internalType": "address",
          "name": "",
          "type": "address"
        }
      ],
      "stateMutability": "view",
      "type": "function"
    },
    {
      "inputs": [
        {
          "internalType": "bytes32",
          "name": "role",
          "type": "bytes32"
        }
      ],
      "name": "getRoleAdmin",
      "outputs": [
        {
          "internalType": "bytes32",
          "name": "",
          "type": "bytes32"
        }
      ],
      "stateMutability": "view",
      "type": "function"
    },
    {
      "inputs": [
        {
          "internalType": "bytes32",
          "name": "role",
          "type": "bytes32"
        },
        {
          "internalType": "address",
          "name": "account",
          "type": "address"
        }
      ],
      "name": "grantRole",
      "outputs": [],
      "stateMutability": "nonpayable",
      "type": "function"
    },
    {
      "inputs": [
        {
          "internalType": "bytes32",
          "name": "role",
          "type": "bytes32"
        },
        {
          "internalType": "address",
          "name": "account",
          "type": "address"
        }
      ],
      "name": "hasRole",
      "outputs": [
        {
          "internalType": "bool",
          "name": "",
          "type": "bool"
        }
      ],
      "stateMutability": "view",
      "type": "function"
    },
    {
      "inputs": [
        {
          "internalType": "contract DygnifyConfig",
          "name": "config",
          "type": "address"
        },
        {
          "internalType": "address",
          "name": "_minterRole",
          "type": "address"
        }
      ],
      "name": "initialize",
      "outputs": [],
      "stateMutability": "nonpayable",
      "type": "function"
    },
    {
      "inputs": [
        {
          "internalType": "address",
          "name": "owner",
          "type": "address"
        },
        {
          "internalType": "address",
          "name": "operator",
          "type": "address"
        }
      ],
      "name": "isApprovedForAll",
      "outputs": [
        {
          "internalType": "bool",
          "name": "",
          "type": "bool"
        }
      ],
      "stateMutability": "view",
      "type": "function"
    },
    {
      "inputs": [],
      "name": "name",
      "outputs": [
        {
          "internalType": "string",
          "name": "",
          "type": "string"
        }
      ],
      "stateMutability": "view",
      "type": "function"
    },
    {
      "inputs": [
        {
          "internalType": "uint256",
          "name": "tokenId",
          "type": "uint256"
        }
      ],
      "name": "ownerOf",
      "outputs": [
        {
          "internalType": "address",
          "name": "",
          "type": "address"
        }
      ],
      "stateMutability": "view",
      "type": "function"
    },
    {
      "inputs": [],
      "name": "pause",
      "outputs": [],
      "stateMutability": "nonpayable",
      "type": "function"
    },
    {
      "inputs": [],
      "name": "paused",
      "outputs": [
        {
          "internalType": "bool",
          "name": "",
          "type": "bool"
        }
      ],
      "stateMutability": "view",
      "type": "function"
    },
    {
      "inputs": [],
      "name": "proxiableUUID",
      "outputs": [
        {
          "internalType": "bytes32",
          "name": "",
          "type": "bytes32"
        }
      ],
      "stateMutability": "view",
      "type": "function"
    },
    {
      "inputs": [
        {
          "internalType": "bytes32",
          "name": "role",
          "type": "bytes32"
        },
        {
          "internalType": "address",
          "name": "account",
          "type": "address"
        }
      ],
      "name": "renounceRole",
      "outputs": [],
      "stateMutability": "nonpayable",
      "type": "function"
    },
    {
      "inputs": [
        {
          "internalType": "bytes32",
          "name": "role",
          "type": "bytes32"
        },
        {
          "internalType": "address",
          "name": "account",
          "type": "address"
        }
      ],
      "name": "revokeRole",
      "outputs": [],
      "stateMutability": "nonpayable",
      "type": "function"
    },
    {
      "inputs": [
        {
          "internalType": "address",
          "name": "to",
          "type": "address"
        },
        {
          "internalType": "string",
          "name": "uri",
          "type": "string"
        }
      ],
      "name": "safeMint",
      "outputs": [],
      "stateMutability": "nonpayable",
      "type": "function"
    },
    {
      "inputs": [
        {
          "internalType": "address",
          "name": "from",
          "type": "address"
        },
        {
          "internalType": "address",
          "name": "to",
          "type": "address"
        },
        {
          "internalType": "uint256",
          "name": "tokenId",
          "type": "uint256"
        }
      ],
      "name": "safeTransferFrom",
      "outputs": [],
      "stateMutability": "nonpayable",
      "type": "function"
    },
    {
      "inputs": [
        {
          "internalType": "address",
          "name": "from",
          "type": "address"
        },
        {
          "internalType": "address",
          "name": "to",
          "type": "address"
        },
        {
          "internalType": "uint256",
          "name": "tokenId",
          "type": "uint256"
        },
        {
          "internalType": "bytes",
          "name": "data",
          "type": "bytes"
        }
      ],
      "name": "safeTransferFrom",
      "outputs": [],
      "stateMutability": "nonpayable",
      "type": "function"
    },
    {
      "inputs": [
        {
          "internalType": "address",
          "name": "operator",
          "type": "address"
        },
        {
          "internalType": "bool",
          "name": "approved",
          "type": "bool"
        }
      ],
      "name": "setApprovalForAll",
      "outputs": [],
      "stateMutability": "nonpayable",
      "type": "function"
    },
    {
      "inputs": [
        {
          "internalType": "bytes4",
          "name": "interfaceId",
          "type": "bytes4"
        }
      ],
      "name": "supportsInterface",
      "outputs": [
        {
          "internalType": "bool",
          "name": "",
          "type": "bool"
        }
      ],
      "stateMutability": "view",
      "type": "function"
    },
    {
      "inputs": [],
      "name": "symbol",
      "outputs": [
        {
          "internalType": "string",
          "name": "",
          "type": "string"
        }
      ],
      "stateMutability": "view",
      "type": "function"
    },
    {
      "inputs": [
        {
          "internalType": "uint256",
          "name": "tokenId",
          "type": "uint256"
        }
      ],
      "name": "tokenURI",
      "outputs": [
        {
          "internalType": "string",
          "name": "",
          "type": "string"
        }
      ],
      "stateMutability": "view",
      "type": "function"
    },
    {
      "inputs": [
        {
          "internalType": "address",
          "name": "from",
          "type": "address"
        },
        {
          "internalType": "address",
          "name": "to",
          "type": "address"
        },
        {
          "internalType": "uint256",
          "name": "tokenId",
          "type": "uint256"
        }
      ],
      "name": "transferFrom",
      "outputs": [],
      "stateMutability": "nonpayable",
      "type": "function"
    },
    {
      "inputs": [],
      "name": "unpause",
      "outputs": [],
      "stateMutability": "nonpayable",
      "type": "function"
    },
    {
      "inputs": [
        {
          "internalType": "address",
          "name": "newImplementation",
          "type": "address"
        }
      ],
      "name": "upgradeTo",
      "outputs": [],
      "stateMutability": "nonpayable",
      "type": "function"
    },
    {
      "inputs": [
        {
          "internalType": "address",
          "name": "newImplementation",
          "type": "address"
        },
        {
          "internalType": "bytes",
          "name": "data",
          "type": "bytes"
        }
      ],
      "name": "upgradeToAndCall",
      "outputs": [],
      "stateMutability": "payable",
      "type": "function"
    }
  ],
  "bytecode": "0x60a06040523060601b60805234801561001757600080fd5b5060805160601c6133e5610052600039600081816109ad01528181610a3201528181610f2d01528181610fb2015261109801526133e56000f3fe6080604052600436106101e35760003560e01c80635c975abb11610102578063b88d4fde11610095578063d547741f11610064578063d547741f146105a6578063e63ab1e9146105c6578063e985e9c5146105fa578063f72c0d8b1461064357600080fd5b8063b88d4fde14610512578063c87b56dd14610532578063d204c45e14610552578063d53913931461057257600080fd5b806391d14854116100d157806391d148541461048257806395d89b41146104c8578063a217fddf146104dd578063a22cb465146104f257600080fd5b80635c975abb146104155780636352211e1461042d57806370a082311461044d5780638456cb591461046d57600080fd5b806336568abe1161017a57806342966c681161014957806342966c68146103ad578063485cc955146103cd5780634f1ef286146103ed57806352d1902d1461040057600080fd5b806336568abe146103385780633659cfe6146103585780633f4ba83a1461037857806342842e0e1461038d57600080fd5b80631be95459116101b65780631be954591461029957806323b872dd146102ba578063248a9ca3146102da5780632f2ff15d1461031857600080fd5b806301ffc9a7146101e857806306fdde031461021d578063081812fc1461023f578063095ea7b314610277575b600080fd5b3480156101f457600080fd5b5061020861020336600461307b565b610677565b60405190151581526020015b60405180910390f35b34801561022957600080fd5b50610232610688565b60405161021491906131f9565b34801561024b57600080fd5b5061025f61025a366004613027565b61071a565b6040516001600160a01b039091168152602001610214565b34801561028357600080fd5b50610297610292366004612ffc565b610741565b005b3480156102a557600080fd5b506101c35461025f906001600160a01b031681565b3480156102c657600080fd5b506102976102d5366004612e7c565b610878565b3480156102e657600080fd5b5061030a6102f5366004613027565b600090815260fb602052604090206001015490565b604051908152602001610214565b34801561032457600080fd5b50610297610333366004613057565b6108f1565b34801561034457600080fd5b50610297610353366004613057565b610916565b34801561036457600080fd5b50610297610373366004612e0c565b6109a2565b34801561038457600080fd5b50610297610b1e565b34801561039957600080fd5b506102976103a8366004612e7c565b610b50565b3480156103b957600080fd5b506102976103c8366004613027565b610b6b565b3480156103d957600080fd5b506102976103e83660046130b3565b610be0565b6102976103fb366004612f57565b610f22565b34801561040c57600080fd5b5061030a61108b565b34801561042157600080fd5b5060c95460ff16610208565b34801561043957600080fd5b5061025f610448366004613027565b611150565b34801561045957600080fd5b5061030a610468366004612e0c565b6111b5565b34801561047957600080fd5b5061029761124f565b34801561048e57600080fd5b5061020861049d366004613057565b600091825260fb602090815260408084206001600160a01b0393909316845291905290205460ff1690565b3480156104d457600080fd5b50610232611281565b3480156104e957600080fd5b5061030a600081565b3480156104fe57600080fd5b5061029761050d366004612f26565b611290565b34801561051e57600080fd5b5061029761052d366004612ebc565b61129b565b34801561053e57600080fd5b5061023261054d366004613027565b61131a565b34801561055e57600080fd5b5061029761056d366004612fa5565b611325565b34801561057e57600080fd5b5061030a7f9f2df0fed2c77648de5860a4cc508cd0818c85b8b8a1ab4ceeef8d981c8956a681565b3480156105b257600080fd5b506102976105c1366004613057565b611380565b3480156105d257600080fd5b5061030a7f65d7a28e3265b37a6474929f336521b332c1681b933f6cb9f3376673440d862a81565b34801561060657600080fd5b50610208610615366004612e44565b6001600160a01b039182166000908152606a6020908152604080832093909416825291909152205460ff1690565b34801561064f57600080fd5b5061030a7f189ab7a9244df0848122154315af71fe140f3db0fe014031783b0946b8c9d2e381565b6000610682826113a5565b92915050565b606060658054610697906132b1565b80601f01602080910402602001604051908101604052809291908181526020018280546106c3906132b1565b80156107105780601f106106e557610100808354040283529160200191610710565b820191906000526020600020905b8154815290600101906020018083116106f357829003601f168201915b5050505050905090565b6000610725826113e3565b506000908152606960205260409020546001600160a01b031690565b600061074c82611150565b9050806001600160a01b0316836001600160a01b031614156107db5760405162461bcd60e51b815260206004820152602160248201527f4552433732313a20617070726f76616c20746f2063757272656e74206f776e6560448201527f720000000000000000000000000000000000000000000000000000000000000060648201526084015b60405180910390fd5b336001600160a01b03821614806107f757506107f78133610615565b6108695760405162461bcd60e51b815260206004820152603e60248201527f4552433732313a20617070726f76652063616c6c6572206973206e6f7420746f60448201527f6b656e206f776e6572206e6f7220617070726f76656420666f7220616c6c000060648201526084016107d2565b6108738383611447565b505050565b610883335b826114b5565b6108e65760405162461bcd60e51b815260206004820152602e60248201527f4552433732313a2063616c6c6572206973206e6f7420746f6b656e206f776e6560448201526d1c881b9bdc88185c1c1c9bdd995960921b60648201526084016107d2565b610873838383611534565b600082815260fb602052604090206001015461090c8161170c565b6108738383611716565b6001600160a01b03811633146109945760405162461bcd60e51b815260206004820152602f60248201527f416363657373436f6e74726f6c3a2063616e206f6e6c792072656e6f756e636560448201527f20726f6c657320666f722073656c66000000000000000000000000000000000060648201526084016107d2565b61099e82826117b8565b5050565b306001600160a01b037f0000000000000000000000000000000000000000000000000000000000000000161415610a305760405162461bcd60e51b815260206004820152602c60248201527f46756e6374696f6e206d7573742062652063616c6c6564207468726f7567682060448201526b19195b1959d85d1958d85b1b60a21b60648201526084016107d2565b7f00000000000000000000000000000000000000000000000000000000000000006001600160a01b0316610a8b7f360894a13ba1a3210667c828492db98dca3e2076cc3735a920a3ca505d382bbc546001600160a01b031690565b6001600160a01b031614610af65760405162461bcd60e51b815260206004820152602c60248201527f46756e6374696f6e206d7573742062652063616c6c6564207468726f7567682060448201526b6163746976652070726f787960a01b60648201526084016107d2565b610aff8161183b565b60408051600080825260208201909252610b1b91839190611865565b50565b7f65d7a28e3265b37a6474929f336521b332c1681b933f6cb9f3376673440d862a610b488161170c565b610b1b611a14565b6108738383836040518060200160405280600081525061129b565b610b743361087d565b610bd75760405162461bcd60e51b815260206004820152602e60248201527f4552433732313a2063616c6c6572206973206e6f7420746f6b656e206f776e6560448201526d1c881b9bdc88185c1c1c9bdd995960921b60648201526084016107d2565b610b1b81611a66565b600054610100900460ff1615808015610c005750600054600160ff909116105b80610c1a5750303b158015610c1a575060005460ff166001145b610c8c5760405162461bcd60e51b815260206004820152602e60248201527f496e697469616c697a61626c653a20636f6e747261637420697320616c72656160448201527f647920696e697469616c697a656400000000000000000000000000000000000060648201526084016107d2565b6000805460ff191660011790558015610caf576000805461ff0019166101001790555b6001600160a01b038316610d055760405162461bcd60e51b815260206004820152601660248201527f496e76616c696420636f6e66696720616464726573730000000000000000000060448201526064016107d2565b6101c380546001600160a01b0319166001600160a01b038516908117909155600090610d3090611a6f565b90506001600160a01b038116610d885760405162461bcd60e51b815260206004820152600d60248201527f496e76616c6964204f776e65720000000000000000000000000000000000000060448201526064016107d2565b610dfc6040518060400160405280600f81526020017f436f6c6c61746572616c546f6b656e00000000000000000000000000000000008152506040518060400160405280600281526020017f4354000000000000000000000000000000000000000000000000000000000000815250611b03565b610e04611b78565b610e0c611be5565b610e14611b78565b610e1c611b78565b610e24611b78565b610e2f600082611716565b610e597f65d7a28e3265b37a6474929f336521b332c1681b933f6cb9f3376673440d862a82611716565b610e837f9f2df0fed2c77648de5860a4cc508cd0818c85b8b8a1ab4ceeef8d981c8956a682611716565b610ead7f9f2df0fed2c77648de5860a4cc508cd0818c85b8b8a1ab4ceeef8d981c8956a684611716565b610ed77f189ab7a9244df0848122154315af71fe140f3db0fe014031783b0946b8c9d2e382611716565b508015610873576000805461ff0019169055604051600181527f7f26b83ff96e1f2b6a682f133852f6798a09c465da95921460cefb38474024989060200160405180910390a1505050565b306001600160a01b037f0000000000000000000000000000000000000000000000000000000000000000161415610fb05760405162461bcd60e51b815260206004820152602c60248201527f46756e6374696f6e206d7573742062652063616c6c6564207468726f7567682060448201526b19195b1959d85d1958d85b1b60a21b60648201526084016107d2565b7f00000000000000000000000000000000000000000000000000000000000000006001600160a01b031661100b7f360894a13ba1a3210667c828492db98dca3e2076cc3735a920a3ca505d382bbc546001600160a01b031690565b6001600160a01b0316146110765760405162461bcd60e51b815260206004820152602c60248201527f46756e6374696f6e206d7573742062652063616c6c6564207468726f7567682060448201526b6163746976652070726f787960a01b60648201526084016107d2565b61107f8261183b565b61099e82826001611865565b6000306001600160a01b037f0000000000000000000000000000000000000000000000000000000000000000161461112b5760405162461bcd60e51b815260206004820152603860248201527f555550535570677261646561626c653a206d757374206e6f742062652063616c60448201527f6c6564207468726f7567682064656c656761746563616c6c000000000000000060648201526084016107d2565b507f360894a13ba1a3210667c828492db98dca3e2076cc3735a920a3ca505d382bbc90565b6000818152606760205260408120546001600160a01b0316806106825760405162461bcd60e51b815260206004820152601860248201527f4552433732313a20696e76616c696420746f6b656e204944000000000000000060448201526064016107d2565b60006001600160a01b0382166112335760405162461bcd60e51b815260206004820152602960248201527f4552433732313a2061646472657373207a65726f206973206e6f74206120766160448201527f6c6964206f776e6572000000000000000000000000000000000000000000000060648201526084016107d2565b506001600160a01b031660009081526068602052604090205490565b7f65d7a28e3265b37a6474929f336521b332c1681b933f6cb9f3376673440d862a6112798161170c565b610b1b611c58565b606060668054610697906132b1565b61099e338383611c95565b6112a533836114b5565b6113085760405162461bcd60e51b815260206004820152602e60248201527f4552433732313a2063616c6c6572206973206e6f7420746f6b656e206f776e6560448201526d1c881b9bdc88185c1c1c9bdd995960921b60648201526084016107d2565b61131484848484611d64565b50505050565b606061068282611de2565b7f9f2df0fed2c77648de5860a4cc508cd0818c85b8b8a1ab4ceeef8d981c8956a661134f8161170c565b600061135b6101c45490565b905061136c6101c480546001019055565b6113768482611efa565b6113148184611f14565b600082815260fb602052604090206001015461139b8161170c565b61087383836117b8565b60006001600160e01b031982167f7965db0b000000000000000000000000000000000000000000000000000000001480610682575061068282611fbd565b6000818152606760205260409020546001600160a01b0316610b1b5760405162461bcd60e51b815260206004820152601860248201527f4552433732313a20696e76616c696420746f6b656e204944000000000000000060448201526064016107d2565b600081815260696020526040902080546001600160a01b0319166001600160a01b038416908117909155819061147c82611150565b6001600160a01b03167f8c5be1e5ebec7d5bd14f71427d1e84f3dd0314c0f7b2291e5b200ac8c7c3b92560405160405180910390a45050565b6000806114c183611150565b9050806001600160a01b0316846001600160a01b0316148061150857506001600160a01b038082166000908152606a602090815260408083209388168352929052205460ff165b8061152c5750836001600160a01b03166115218461071a565b6001600160a01b0316145b949350505050565b826001600160a01b031661154782611150565b6001600160a01b0316146115c35760405162461bcd60e51b815260206004820152602560248201527f4552433732313a207472616e736665722066726f6d20696e636f72726563742060448201527f6f776e657200000000000000000000000000000000000000000000000000000060648201526084016107d2565b6001600160a01b03821661163e5760405162461bcd60e51b8152602060048201526024808201527f4552433732313a207472616e7366657220746f20746865207a65726f2061646460448201527f726573730000000000000000000000000000000000000000000000000000000060648201526084016107d2565b611649838383612058565b611654600082611447565b6001600160a01b038316600090815260686020526040812080546001929061167d908490613257565b90915550506001600160a01b03821660009081526068602052604081208054600192906116ab90849061320c565b909155505060008181526067602052604080822080546001600160a01b0319166001600160a01b0386811691821790925591518493918716917fddf252ad1be2c89b69c2b068fc378daa952ba7f163c4a11628f55a4df523b3ef91a4505050565b610b1b8133612060565b600082815260fb602090815260408083206001600160a01b038516845290915290205460ff1661099e57600082815260fb602090815260408083206001600160a01b03851684529091529020805460ff191660011790556117743390565b6001600160a01b0316816001600160a01b0316837f2f8788117e7eff1d82e926ec794901d17c78024a50270940304540a733656f0d60405160405180910390a45050565b600082815260fb602090815260408083206001600160a01b038516845290915290205460ff161561099e57600082815260fb602090815260408083206001600160a01b0385168085529252808320805460ff1916905551339285917ff6391f5c32d9c69d2a47ea670b442974b53935d1edc7fd64eb21e047a839171b9190a45050565b7f189ab7a9244df0848122154315af71fe140f3db0fe014031783b0946b8c9d2e361099e8161170c565b7f4910fdfa16fed3260ed0e7147f7cc6da11a60208b5b9406d12a635614ffd91435460ff161561189857610873836120e0565b826001600160a01b03166352d1902d6040518163ffffffff1660e01b815260040160206040518083038186803b1580156118d157600080fd5b505afa925050508015611901575060408051601f3d908101601f191682019092526118fe9181019061303f565b60015b6119735760405162461bcd60e51b815260206004820152602e60248201527f45524331393637557067726164653a206e657720696d706c656d656e7461746960448201527f6f6e206973206e6f74205555505300000000000000000000000000000000000060648201526084016107d2565b7f360894a13ba1a3210667c828492db98dca3e2076cc3735a920a3ca505d382bbc8114611a085760405162461bcd60e51b815260206004820152602960248201527f45524331393637557067726164653a20756e737570706f727465642070726f7860448201527f6961626c6555554944000000000000000000000000000000000000000000000060648201526084016107d2565b5061087383838361219e565b611a1c6121c3565b60c9805460ff191690557f5db9ee0a495bf2e6ff9c91a7834c1ba4fdd244a5e8aa4e537bd38aeae4b073aa335b6040516001600160a01b03909116815260200160405180910390a1565b610b1b81612215565b6040517fb93f9b0a000000000000000000000000000000000000000000000000000000008152600060048201819052906001600160a01b0383169063b93f9b0a9060240160206040518083038186803b158015611acb57600080fd5b505afa158015611adf573d6000803e3d6000fd5b505050506040513d601f19601f820116820180604052508101906106829190612e28565b600054610100900460ff16611b6e5760405162461bcd60e51b815260206004820152602b60248201527f496e697469616c697a61626c653a20636f6e7472616374206973206e6f74206960448201526a6e697469616c697a696e6760a81b60648201526084016107d2565b61099e8282612255565b600054610100900460ff16611be35760405162461bcd60e51b815260206004820152602b60248201527f496e697469616c697a61626c653a20636f6e7472616374206973206e6f74206960448201526a6e697469616c697a696e6760a81b60648201526084016107d2565b565b600054610100900460ff16611c505760405162461bcd60e51b815260206004820152602b60248201527f496e697469616c697a61626c653a20636f6e7472616374206973206e6f74206960448201526a6e697469616c697a696e6760a81b60648201526084016107d2565b611be36122e7565b611c6061235e565b60c9805460ff191660011790557f62e78cea01bee320cd4e420270b5ea74000d11b0c9f74754ebdbfc544b05a258611a493390565b816001600160a01b0316836001600160a01b03161415611cf75760405162461bcd60e51b815260206004820152601960248201527f4552433732313a20617070726f766520746f2063616c6c65720000000000000060448201526064016107d2565b6001600160a01b038381166000818152606a6020908152604080832094871680845294825291829020805460ff191686151590811790915591519182527f17307eab39ab6107e8899845ad3d59bd9653f200f220920489ca2b5937696c31910160405180910390a3505050565b611d6f848484611534565b611d7b848484846123b1565b6113145760405162461bcd60e51b815260206004820152603260248201527f4552433732313a207472616e7366657220746f206e6f6e20455243373231526560448201527131b2b4bb32b91034b6b83632b6b2b73a32b960711b60648201526084016107d2565b6060611ded826113e3565b60008281526097602052604081208054611e06906132b1565b80601f0160208091040260200160405190810160405280929190818152602001828054611e32906132b1565b8015611e7f5780601f10611e5457610100808354040283529160200191611e7f565b820191906000526020600020905b815481529060010190602001808311611e6257829003601f168201915b505050505090506000611eac604080518082019091526007815266697066733a2f2f60c81b602082015290565b9050805160001415611ebf575092915050565b815115611ef1578082604051602001611ed992919061310d565b60405160208183030381529060405292505050919050565b61152c84612509565b61099e82826040518060200160405280600081525061258c565b6000828152606760205260409020546001600160a01b0316611f9e5760405162461bcd60e51b815260206004820152602e60248201527f45524337323155524953746f726167653a2055524920736574206f66206e6f6e60448201527f6578697374656e7420746f6b656e00000000000000000000000000000000000060648201526084016107d2565b6000828152609760209081526040909120825161087392840190612ca8565b60006001600160e01b031982167f80ac58cd00000000000000000000000000000000000000000000000000000000148061202057506001600160e01b031982167f5b5e139f00000000000000000000000000000000000000000000000000000000145b8061068257507f01ffc9a7000000000000000000000000000000000000000000000000000000006001600160e01b0319831614610682565b61087361235e565b600082815260fb602090815260408083206001600160a01b038516845290915290205460ff1661099e5761209e816001600160a01b0316601461260a565b6120a983602061260a565b6040516020016120ba92919061313c565b60408051601f198184030181529082905262461bcd60e51b82526107d2916004016131f9565b6001600160a01b0381163b61215d5760405162461bcd60e51b815260206004820152602d60248201527f455243313936373a206e657720696d706c656d656e746174696f6e206973206e60448201527f6f74206120636f6e74726163740000000000000000000000000000000000000060648201526084016107d2565b7f360894a13ba1a3210667c828492db98dca3e2076cc3735a920a3ca505d382bbc80546001600160a01b0319166001600160a01b0392909216919091179055565b6121a783612815565b6000825111806121b45750805b15610873576113148383612855565b60c95460ff16611be35760405162461bcd60e51b815260206004820152601460248201527f5061757361626c653a206e6f742070617573656400000000000000000000000060448201526064016107d2565b61221e81612960565b60008181526097602052604090208054612237906132b1565b159050610b1b576000818152609760205260408120610b1b91612d2c565b600054610100900460ff166122c05760405162461bcd60e51b815260206004820152602b60248201527f496e697469616c697a61626c653a20636f6e7472616374206973206e6f74206960448201526a6e697469616c697a696e6760a81b60648201526084016107d2565b81516122d3906065906020850190612ca8565b508051610873906066906020840190612ca8565b600054610100900460ff166123525760405162461bcd60e51b815260206004820152602b60248201527f496e697469616c697a61626c653a20636f6e7472616374206973206e6f74206960448201526a6e697469616c697a696e6760a81b60648201526084016107d2565b60c9805460ff19169055565b60c95460ff1615611be35760405162461bcd60e51b815260206004820152601060248201527f5061757361626c653a207061757365640000000000000000000000000000000060448201526064016107d2565b60006001600160a01b0384163b156124fe57604051630a85bd0160e11b81526001600160a01b0385169063150b7a02906123f59033908990889088906004016131bd565b602060405180830381600087803b15801561240f57600080fd5b505af192505050801561243f575060408051601f3d908101601f1916820190925261243c91810190613097565b60015b6124e4573d80801561246d576040519150601f19603f3d011682016040523d82523d6000602084013e612472565b606091505b5080516124dc5760405162461bcd60e51b815260206004820152603260248201527f4552433732313a207472616e7366657220746f206e6f6e20455243373231526560448201527131b2b4bb32b91034b6b83632b6b2b73a32b960711b60648201526084016107d2565b805181602001fd5b6001600160e01b031916630a85bd0160e11b14905061152c565b506001949350505050565b6060612514826113e3565b600061253a604080518082019091526007815266697066733a2f2f60c81b602082015290565b9050600081511161255a5760405180602001604052806000815250612585565b8061256484612a07565b60405160200161257592919061310d565b6040516020818303038152906040525b9392505050565b6125968383612b21565b6125a360008484846123b1565b6108735760405162461bcd60e51b815260206004820152603260248201527f4552433732313a207472616e7366657220746f206e6f6e20455243373231526560448201527131b2b4bb32b91034b6b83632b6b2b73a32b960711b60648201526084016107d2565b60606000612619836002613238565b61262490600261320c565b67ffffffffffffffff81111561264a57634e487b7160e01b600052604160045260246000fd5b6040519080825280601f01601f191660200182016040528015612674576020820181803683370190505b509050600360fc1b8160008151811061269d57634e487b7160e01b600052603260045260246000fd5b60200101906001600160f81b031916908160001a9053507f7800000000000000000000000000000000000000000000000000000000000000816001815181106126f657634e487b7160e01b600052603260045260246000fd5b60200101906001600160f81b031916908160001a905350600061271a846002613238565b61272590600161320c565b90505b60018111156127c6577f303132333435363738396162636465660000000000000000000000000000000085600f166010811061277457634e487b7160e01b600052603260045260246000fd5b1a60f81b82828151811061279857634e487b7160e01b600052603260045260246000fd5b60200101906001600160f81b031916908160001a90535060049490941c936127bf8161329a565b9050612728565b5083156125855760405162461bcd60e51b815260206004820181905260248201527f537472696e67733a20686578206c656e67746820696e73756666696369656e7460448201526064016107d2565b61281e816120e0565b6040516001600160a01b038216907fbc7cd75a20ee27fd9adebab32041f755214dbc6bffa90cc0225b39da2e5c2d3b90600090a250565b60606001600160a01b0383163b6128d45760405162461bcd60e51b815260206004820152602660248201527f416464726573733a2064656c65676174652063616c6c20746f206e6f6e2d636f60448201527f6e7472616374000000000000000000000000000000000000000000000000000060648201526084016107d2565b600080846001600160a01b0316846040516128ef91906130f1565b600060405180830381855af49150503d806000811461292a576040519150601f19603f3d011682016040523d82523d6000602084013e61292f565b606091505b5091509150612957828260405180606001604052806027815260200161338960279139612c6f565b95945050505050565b600061296b82611150565b905061297981600084612058565b612984600083611447565b6001600160a01b03811660009081526068602052604081208054600192906129ad908490613257565b909155505060008281526067602052604080822080546001600160a01b0319169055518391906001600160a01b038416907fddf252ad1be2c89b69c2b068fc378daa952ba7f163c4a11628f55a4df523b3ef908390a45050565b606081612a2b5750506040805180820190915260018152600360fc1b602082015290565b8160005b8115612a555780612a3f816132ec565b9150612a4e9050600a83613224565b9150612a2f565b60008167ffffffffffffffff811115612a7e57634e487b7160e01b600052604160045260246000fd5b6040519080825280601f01601f191660200182016040528015612aa8576020820181803683370190505b5090505b841561152c57612abd600183613257565b9150612aca600a86613307565b612ad590603061320c565b60f81b818381518110612af857634e487b7160e01b600052603260045260246000fd5b60200101906001600160f81b031916908160001a905350612b1a600a86613224565b9450612aac565b6001600160a01b038216612b775760405162461bcd60e51b815260206004820181905260248201527f4552433732313a206d696e7420746f20746865207a65726f206164647265737360448201526064016107d2565b6000818152606760205260409020546001600160a01b031615612bdc5760405162461bcd60e51b815260206004820152601c60248201527f4552433732313a20746f6b656e20616c7265616479206d696e7465640000000060448201526064016107d2565b612be860008383612058565b6001600160a01b0382166000908152606860205260408120805460019290612c1190849061320c565b909155505060008181526067602052604080822080546001600160a01b0319166001600160a01b03861690811790915590518392907fddf252ad1be2c89b69c2b068fc378daa952ba7f163c4a11628f55a4df523b3ef908290a45050565b60608315612c7e575081612585565b825115612c8e5782518084602001fd5b8160405162461bcd60e51b81526004016107d291906131f9565b828054612cb4906132b1565b90600052602060002090601f016020900481019282612cd65760008555612d1c565b82601f10612cef57805160ff1916838001178555612d1c565b82800160010185558215612d1c579182015b82811115612d1c578251825591602001919060010190612d01565b50612d28929150612d62565b5090565b508054612d38906132b1565b6000825580601f10612d48575050565b601f016020900490600052602060002090810190610b1b91905b5b80821115612d285760008155600101612d63565b600067ffffffffffffffff80841115612d9257612d92613347565b604051601f8501601f19908116603f01168101908282118183101715612dba57612dba613347565b81604052809350858152868686011115612dd357600080fd5b858560208301376000602087830101525050509392505050565b600082601f830112612dfd578081fd5b61258583833560208501612d77565b600060208284031215612e1d578081fd5b81356125858161335d565b600060208284031215612e39578081fd5b81516125858161335d565b60008060408385031215612e56578081fd5b8235612e618161335d565b91506020830135612e718161335d565b809150509250929050565b600080600060608486031215612e90578081fd5b8335612e9b8161335d565b92506020840135612eab8161335d565b929592945050506040919091013590565b60008060008060808587031215612ed1578081fd5b8435612edc8161335d565b93506020850135612eec8161335d565b925060408501359150606085013567ffffffffffffffff811115612f0e578182fd5b612f1a87828801612ded565b91505092959194509250565b60008060408385031215612f38578182fd5b8235612f438161335d565b915060208301358015158114612e71578182fd5b60008060408385031215612f69578182fd5b8235612f748161335d565b9150602083013567ffffffffffffffff811115612f8f578182fd5b612f9b85828601612ded565b9150509250929050565b60008060408385031215612fb7578182fd5b8235612fc28161335d565b9150602083013567ffffffffffffffff811115612fdd578182fd5b8301601f81018513612fed578182fd5b612f9b85823560208401612d77565b6000806040838503121561300e578182fd5b82356130198161335d565b946020939093013593505050565b600060208284031215613038578081fd5b5035919050565b600060208284031215613050578081fd5b5051919050565b60008060408385031215613069578081fd5b823591506020830135612e718161335d565b60006020828403121561308c578081fd5b813561258581613372565b6000602082840312156130a8578081fd5b815161258581613372565b60008060408385031215612e56578182fd5b600081518084526130dd81602086016020860161326e565b601f01601f19169290920160200192915050565b6000825161310381846020870161326e565b9190910192915050565b6000835161311f81846020880161326e565b83519083019061313381836020880161326e565b01949350505050565b7f416363657373436f6e74726f6c3a206163636f756e742000000000000000000081526000835161317481601785016020880161326e565b7f206973206d697373696e6720726f6c652000000000000000000000000000000060179184019182015283516131b181602884016020880161326e565b01602801949350505050565b60006001600160a01b038087168352808616602084015250836040830152608060608301526131ef60808301846130c5565b9695505050505050565b60208152600061258560208301846130c5565b6000821982111561321f5761321f61331b565b500190565b60008261323357613233613331565b500490565b60008160001904831182151516156132525761325261331b565b500290565b6000828210156132695761326961331b565b500390565b60005b83811015613289578181015183820152602001613271565b838111156113145750506000910152565b6000816132a9576132a961331b565b506000190190565b600181811c908216806132c557607f821691505b602082108114156132e657634e487b7160e01b600052602260045260246000fd5b50919050565b60006000198214156133005761330061331b565b5060010190565b60008261331657613316613331565b500690565b634e487b7160e01b600052601160045260246000fd5b634e487b7160e01b600052601260045260246000fd5b634e487b7160e01b600052604160045260246000fd5b6001600160a01b0381168114610b1b57600080fd5b6001600160e01b031981168114610b1b57600080fdfe416464726573733a206c6f772d6c6576656c2064656c65676174652063616c6c206661696c6564a2646970667358221220d24e84bcc531f342385813029afa343fb7c46215ad25ddce61572d4c102aab0a64736f6c63430008040033",
  "linkReferences": {},
  "deployedLinkReferences": {}
}