{
  "_format": "hh-sol-artifact-1",
  "contractName": "CollateralToken",
  "sourceName": "contracts/protocol/CollateralToken.sol",
  "abi": [
    {
      "anonymous": false,
      "inputs": [
        {
          "indexed": false,
          "internalType": "address",
          "name": "previousAdmin",
          "type": "address"
        },
        {
          "indexed": false,
          "internalType": "address",
          "name": "newAdmin",
          "type": "address"
        }
      ],
      "name": "AdminChanged",
      "type": "event"
    },
    {
      "anonymous": false,
      "inputs": [
        {
          "indexed": true,
          "internalType": "address",
          "name": "owner",
          "type": "address"
        },
        {
          "indexed": true,
          "internalType": "address",
          "name": "approved",
          "type": "address"
        },
        {
          "indexed": true,
          "internalType": "uint256",
          "name": "tokenId",
          "type": "uint256"
        }
      ],
      "name": "Approval",
      "type": "event"
    },
    {
      "anonymous": false,
      "inputs": [
        {
          "indexed": true,
          "internalType": "address",
          "name": "owner",
          "type": "address"
        },
        {
          "indexed": true,
          "internalType": "address",
          "name": "operator",
          "type": "address"
        },
        {
          "indexed": false,
          "internalType": "bool",
          "name": "approved",
          "type": "bool"
        }
      ],
      "name": "ApprovalForAll",
      "type": "event"
    },
    {
      "anonymous": false,
      "inputs": [
        {
          "indexed": true,
          "internalType": "address",
          "name": "beacon",
          "type": "address"
        }
      ],
      "name": "BeaconUpgraded",
      "type": "event"
    },
    {
      "anonymous": false,
      "inputs": [
        {
          "indexed": false,
          "internalType": "uint8",
          "name": "version",
          "type": "uint8"
        }
      ],
      "name": "Initialized",
      "type": "event"
    },
    {
      "anonymous": false,
      "inputs": [
        {
          "indexed": false,
          "internalType": "address",
          "name": "account",
          "type": "address"
        }
      ],
      "name": "Paused",
      "type": "event"
    },
    {
      "anonymous": false,
      "inputs": [
        {
          "indexed": true,
          "internalType": "bytes32",
          "name": "role",
          "type": "bytes32"
        },
        {
          "indexed": true,
          "internalType": "bytes32",
          "name": "previousAdminRole",
          "type": "bytes32"
        },
        {
          "indexed": true,
          "internalType": "bytes32",
          "name": "newAdminRole",
          "type": "bytes32"
        }
      ],
      "name": "RoleAdminChanged",
      "type": "event"
    },
    {
      "anonymous": false,
      "inputs": [
        {
          "indexed": true,
          "internalType": "bytes32",
          "name": "role",
          "type": "bytes32"
        },
        {
          "indexed": true,
          "internalType": "address",
          "name": "account",
          "type": "address"
        },
        {
          "indexed": true,
          "internalType": "address",
          "name": "sender",
          "type": "address"
        }
      ],
      "name": "RoleGranted",
      "type": "event"
    },
    {
      "anonymous": false,
      "inputs": [
        {
          "indexed": true,
          "internalType": "bytes32",
          "name": "role",
          "type": "bytes32"
        },
        {
          "indexed": true,
          "internalType": "address",
          "name": "account",
          "type": "address"
        },
        {
          "indexed": true,
          "internalType": "address",
          "name": "sender",
          "type": "address"
        }
      ],
      "name": "RoleRevoked",
      "type": "event"
    },
    {
      "anonymous": false,
      "inputs": [
        {
          "indexed": true,
          "internalType": "address",
          "name": "from",
          "type": "address"
        },
        {
          "indexed": true,
          "internalType": "address",
          "name": "to",
          "type": "address"
        },
        {
          "indexed": true,
          "internalType": "uint256",
          "name": "tokenId",
          "type": "uint256"
        }
      ],
      "name": "Transfer",
      "type": "event"
    },
    {
      "anonymous": false,
      "inputs": [
        {
          "indexed": false,
          "internalType": "address",
          "name": "account",
          "type": "address"
        }
      ],
      "name": "Unpaused",
      "type": "event"
    },
    {
      "anonymous": false,
      "inputs": [
        {
          "indexed": true,
          "internalType": "address",
          "name": "implementation",
          "type": "address"
        }
      ],
      "name": "Upgraded",
      "type": "event"
    },
    {
      "inputs": [],
      "name": "DEFAULT_ADMIN_ROLE",
      "outputs": [
        {
          "internalType": "bytes32",
          "name": "",
          "type": "bytes32"
        }
      ],
      "stateMutability": "view",
      "type": "function"
    },
    {
      "inputs": [
        {
          "internalType": "address",
          "name": "to",
          "type": "address"
        },
        {
          "internalType": "uint256",
          "name": "tokenId",
          "type": "uint256"
        }
      ],
      "name": "approve",
      "outputs": [],
      "stateMutability": "nonpayable",
      "type": "function"
    },
    {
      "inputs": [
        {
          "internalType": "address",
          "name": "owner",
          "type": "address"
        }
      ],
      "name": "balanceOf",
      "outputs": [
        {
          "internalType": "uint256",
          "name": "",
          "type": "uint256"
        }
      ],
      "stateMutability": "view",
      "type": "function"
    },
    {
      "inputs": [
        {
          "internalType": "uint256",
          "name": "tokenId",
          "type": "uint256"
        }
      ],
      "name": "burn",
      "outputs": [],
      "stateMutability": "nonpayable",
      "type": "function"
    },
    {
      "inputs": [],
      "name": "dygnifyConfig",
      "outputs": [
        {
          "internalType": "contract DygnifyConfig",
          "name": "",
          "type": "address"
        }
      ],
      "stateMutability": "view",
      "type": "function"
    },
    {
      "inputs": [
        {
          "internalType": "uint256",
          "name": "tokenId",
          "type": "uint256"
        }
      ],
      "name": "getApproved",
      "outputs": [
        {
          "internalType": "address",
          "name": "",
          "type": "address"
        }
      ],
      "stateMutability": "view",
      "type": "function"
    },
    {
      "inputs": [
        {
          "internalType": "bytes32",
          "name": "role",
          "type": "bytes32"
        }
      ],
      "name": "getRoleAdmin",
      "outputs": [
        {
          "internalType": "bytes32",
          "name": "",
          "type": "bytes32"
        }
      ],
      "stateMutability": "view",
      "type": "function"
    },
    {
      "inputs": [
        {
          "internalType": "bytes32",
          "name": "role",
          "type": "bytes32"
        },
        {
          "internalType": "address",
          "name": "account",
          "type": "address"
        }
      ],
      "name": "grantRole",
      "outputs": [],
      "stateMutability": "nonpayable",
      "type": "function"
    },
    {
      "inputs": [
        {
          "internalType": "bytes32",
          "name": "role",
          "type": "bytes32"
        },
        {
          "internalType": "address",
          "name": "account",
          "type": "address"
        }
      ],
      "name": "hasRole",
      "outputs": [
        {
          "internalType": "bool",
          "name": "",
          "type": "bool"
        }
      ],
      "stateMutability": "view",
      "type": "function"
    },
    {
      "inputs": [
        {
          "internalType": "contract DygnifyConfig",
          "name": "config",
          "type": "address"
        },
        {
          "internalType": "address",
          "name": "_minterRole",
          "type": "address"
        }
      ],
      "name": "initialize",
      "outputs": [],
      "stateMutability": "nonpayable",
      "type": "function"
    },
    {
      "inputs": [
        {
          "internalType": "address",
          "name": "owner",
          "type": "address"
        },
        {
          "internalType": "address",
          "name": "operator",
          "type": "address"
        }
      ],
      "name": "isApprovedForAll",
      "outputs": [
        {
          "internalType": "bool",
          "name": "",
          "type": "bool"
        }
      ],
      "stateMutability": "view",
      "type": "function"
    },
    {
      "inputs": [],
      "name": "name",
      "outputs": [
        {
          "internalType": "string",
          "name": "",
          "type": "string"
        }
      ],
      "stateMutability": "view",
      "type": "function"
    },
    {
      "inputs": [
        {
          "internalType": "uint256",
          "name": "tokenId",
          "type": "uint256"
        }
      ],
      "name": "ownerOf",
      "outputs": [
        {
          "internalType": "address",
          "name": "",
          "type": "address"
        }
      ],
      "stateMutability": "view",
      "type": "function"
    },
    {
      "inputs": [],
      "name": "pause",
      "outputs": [],
      "stateMutability": "nonpayable",
      "type": "function"
    },
    {
      "inputs": [],
      "name": "paused",
      "outputs": [
        {
          "internalType": "bool",
          "name": "",
          "type": "bool"
        }
      ],
      "stateMutability": "view",
      "type": "function"
    },
    {
      "inputs": [],
      "name": "proxiableUUID",
      "outputs": [
        {
          "internalType": "bytes32",
          "name": "",
          "type": "bytes32"
        }
      ],
      "stateMutability": "view",
      "type": "function"
    },
    {
      "inputs": [
        {
          "internalType": "bytes32",
          "name": "role",
          "type": "bytes32"
        },
        {
          "internalType": "address",
          "name": "account",
          "type": "address"
        }
      ],
      "name": "renounceRole",
      "outputs": [],
      "stateMutability": "nonpayable",
      "type": "function"
    },
    {
      "inputs": [
        {
          "internalType": "bytes32",
          "name": "role",
          "type": "bytes32"
        },
        {
          "internalType": "address",
          "name": "account",
          "type": "address"
        }
      ],
      "name": "revokeRole",
      "outputs": [],
      "stateMutability": "nonpayable",
      "type": "function"
    },
    {
      "inputs": [
        {
          "internalType": "address",
          "name": "to",
          "type": "address"
        },
        {
          "internalType": "string",
          "name": "uri",
          "type": "string"
        }
      ],
      "name": "safeMint",
      "outputs": [],
      "stateMutability": "nonpayable",
      "type": "function"
    },
    {
      "inputs": [
        {
          "internalType": "address",
          "name": "from",
          "type": "address"
        },
        {
          "internalType": "address",
          "name": "to",
          "type": "address"
        },
        {
          "internalType": "uint256",
          "name": "tokenId",
          "type": "uint256"
        }
      ],
      "name": "safeTransferFrom",
      "outputs": [],
      "stateMutability": "nonpayable",
      "type": "function"
    },
    {
      "inputs": [
        {
          "internalType": "address",
          "name": "from",
          "type": "address"
        },
        {
          "internalType": "address",
          "name": "to",
          "type": "address"
        },
        {
          "internalType": "uint256",
          "name": "tokenId",
          "type": "uint256"
        },
        {
          "internalType": "bytes",
          "name": "data",
          "type": "bytes"
        }
      ],
      "name": "safeTransferFrom",
      "outputs": [],
      "stateMutability": "nonpayable",
      "type": "function"
    },
    {
      "inputs": [
        {
          "internalType": "address",
          "name": "operator",
          "type": "address"
        },
        {
          "internalType": "bool",
          "name": "approved",
          "type": "bool"
        }
      ],
      "name": "setApprovalForAll",
      "outputs": [],
      "stateMutability": "nonpayable",
      "type": "function"
    },
    {
      "inputs": [
        {
          "internalType": "bytes4",
          "name": "interfaceId",
          "type": "bytes4"
        }
      ],
      "name": "supportsInterface",
      "outputs": [
        {
          "internalType": "bool",
          "name": "",
          "type": "bool"
        }
      ],
      "stateMutability": "view",
      "type": "function"
    },
    {
      "inputs": [],
      "name": "symbol",
      "outputs": [
        {
          "internalType": "string",
          "name": "",
          "type": "string"
        }
      ],
      "stateMutability": "view",
      "type": "function"
    },
    {
      "inputs": [
        {
          "internalType": "uint256",
          "name": "tokenId",
          "type": "uint256"
        }
      ],
      "name": "tokenURI",
      "outputs": [
        {
          "internalType": "string",
          "name": "",
          "type": "string"
        }
      ],
      "stateMutability": "view",
      "type": "function"
    },
    {
      "inputs": [
        {
          "internalType": "address",
          "name": "from",
          "type": "address"
        },
        {
          "internalType": "address",
          "name": "to",
          "type": "address"
        },
        {
          "internalType": "uint256",
          "name": "tokenId",
          "type": "uint256"
        }
      ],
      "name": "transferFrom",
      "outputs": [],
      "stateMutability": "nonpayable",
      "type": "function"
    },
    {
      "inputs": [],
      "name": "unpause",
      "outputs": [],
      "stateMutability": "nonpayable",
      "type": "function"
    },
    {
      "inputs": [
        {
          "internalType": "address",
          "name": "newImplementation",
          "type": "address"
        }
      ],
      "name": "upgradeTo",
      "outputs": [],
      "stateMutability": "nonpayable",
      "type": "function"
    },
    {
      "inputs": [
        {
          "internalType": "address",
          "name": "newImplementation",
          "type": "address"
        },
        {
          "internalType": "bytes",
          "name": "data",
          "type": "bytes"
        }
      ],
      "name": "upgradeToAndCall",
      "outputs": [],
      "stateMutability": "payable",
      "type": "function"
    }
  ],
  "bytecode": "0x60a06040523060601b60805234801561001757600080fd5b5060805160601c612dbc610052600039600081816107f00152818161083001528181610bbc01528181610bfc0152610c740152612dbc6000f3fe6080604052600436106101825760003560e01c80634f1ef286116100d757806395d89b411161008557806395d89b4114610441578063a217fddf14610456578063a22cb4651461046b578063b88d4fde1461048b578063c87b56dd146104ab578063d204c45e146104cb578063d547741f146104eb578063e985e9c51461050b57600080fd5b80634f1ef2861461038c57806352d1902d1461039f5780635c975abb146103b45780636352211e146103cc57806370a08231146103ec5780638456cb591461040c57806391d148541461042157600080fd5b80632f2ff15d116101345780632f2ff15d146102b757806336568abe146102d75780633659cfe6146102f75780633f4ba83a1461031757806342842e0e1461032c57806342966c681461034c578063485cc9551461036c57600080fd5b806301ffc9a71461018757806306fdde03146101bc578063081812fc146101de578063095ea7b3146102165780631be954591461023857806323b872dd14610259578063248a9ca314610279575b600080fd5b34801561019357600080fd5b506101a76101a236600461284c565b61052b565b60405190151581526020015b60405180910390f35b3480156101c857600080fd5b506101d161053c565b6040516101b391906129b9565b3480156101ea57600080fd5b506101fe6101f93660046127f8565b6105ce565b6040516001600160a01b0390911681526020016101b3565b34801561022257600080fd5b506102366102313660046127cd565b6105f5565b005b34801561024457600080fd5b506101c3546101fe906001600160a01b031681565b34801561026557600080fd5b5061023661027436600461264d565b610710565b34801561028557600080fd5b506102a96102943660046127f8565b600090815260fb602052604090206001015490565b6040519081526020016101b3565b3480156102c357600080fd5b506102366102d2366004612828565b610742565b3480156102e357600080fd5b506102366102f2366004612828565b610767565b34801561030357600080fd5b506102366103123660046125dd565b6107e5565b34801561032357600080fd5b506102366108ae565b34801561033857600080fd5b5061023661034736600461264d565b6108c7565b34801561035857600080fd5b506102366103673660046127f8565b6108e2565b34801561037857600080fd5b50610236610387366004612884565b610910565b61023661039a366004612728565b610bb1565b3480156103ab57600080fd5b506102a9610c67565b3480156103c057600080fd5b5060c95460ff166101a7565b3480156103d857600080fd5b506101fe6103e73660046127f8565b610d15565b3480156103f857600080fd5b506102a96104073660046125dd565b610d4a565b34801561041857600080fd5b50610236610dd0565b34801561042d57600080fd5b506101a761043c366004612828565b610de9565b34801561044d57600080fd5b506101d1610e14565b34801561046257600080fd5b506102a9600081565b34801561047757600080fd5b506102366104863660046126f7565b610e23565b34801561049757600080fd5b506102366104a636600461268d565b610e2e565b3480156104b757600080fd5b506101d16104c63660046127f8565b610e66565b3480156104d757600080fd5b506102366104e6366004612776565b610e71565b3480156104f757600080fd5b50610236610506366004612828565b610eb3565b34801561051757600080fd5b506101a7610526366004612615565b610ed8565b600061053682610f06565b92915050565b60606065805461054b90612c8d565b80601f016020809104026020016040519081016040528092919081815260200182805461057790612c8d565b80156105c45780601f10610599576101008083540402835291602001916105c4565b820191906000526020600020905b8154815290600101906020018083116105a757829003601f168201915b5050505050905090565b60006105d982610f2b565b506000908152606960205260409020546001600160a01b031690565b600061060082610d15565b9050806001600160a01b0316836001600160a01b031614156106735760405162461bcd60e51b815260206004820152602160248201527f4552433732313a20617070726f76616c20746f2063757272656e74206f776e656044820152603960f91b60648201526084015b60405180910390fd5b336001600160a01b038216148061068f575061068f8133610ed8565b6107015760405162461bcd60e51b815260206004820152603d60248201527f4552433732313a20617070726f76652063616c6c6572206973206e6f7420746f60448201527f6b656e206f776e6572206f7220617070726f76656420666f7220616c6c000000606482015260840161066a565b61070b8383610f50565b505050565b61071b335b82610fbe565b6107375760405162461bcd60e51b815260040161066a906129cc565b61070b83838361101d565b600082815260fb602052604090206001015461075d8161117c565b61070b8383611186565b6001600160a01b03811633146107d75760405162461bcd60e51b815260206004820152602f60248201527f416363657373436f6e74726f6c3a2063616e206f6e6c792072656e6f756e636560448201526e103937b632b9903337b91039b2b63360891b606482015260840161066a565b6107e1828261120c565b5050565b306001600160a01b037f000000000000000000000000000000000000000000000000000000000000000016141561082e5760405162461bcd60e51b815260040161066a90612ae7565b7f00000000000000000000000000000000000000000000000000000000000000006001600160a01b0316610860611273565b6001600160a01b0316146108865760405162461bcd60e51b815260040161066a90612b33565b61088f8161128f565b604080516000808252602082019092526108ab918391906112b9565b50565b6108b6611433565b6108bf8161117c565b6108ab611457565b61070b83838360405180602001604052806000815250610e2e565b6108eb33610715565b6109075760405162461bcd60e51b815260040161066a906129cc565b6108ab816114a9565b600054610100900460ff16158080156109305750600054600160ff909116105b8061094a5750303b15801561094a575060005460ff166001145b6109ad5760405162461bcd60e51b815260206004820152602e60248201527f496e697469616c697a61626c653a20636f6e747261637420697320616c72656160448201526d191e481a5b9a5d1a585b1a5e995960921b606482015260840161066a565b6000805460ff1916600117905580156109d0576000805461ff0019166101001790555b6001600160a01b038316610a1f5760405162461bcd60e51b8152602060048201526016602482015275496e76616c696420636f6e666967206164647265737360501b604482015260640161066a565b6101c380546001600160a01b0319166001600160a01b038516908117909155600090610a4a906114b2565b90506001600160a01b038116610a925760405162461bcd60e51b815260206004820152600d60248201526c24b73b30b634b21027bbb732b960991b604482015260640161066a565b610add6040518060400160405280600f81526020016e21b7b63630ba32b930b62a37b5b2b760891b8152506040518060400160405280600281526020016110d560f21b81525061152d565b610ae561155e565b610aed611587565b610af561155e565b610afd61155e565b610b0561155e565b610b10600082611186565b610b21610b1b611433565b82611186565b610b2c610b1b6115b6565b610b3d610b376115b6565b84611186565b610b667f189ab7a9244df0848122154315af71fe140f3db0fe014031783b0946b8c9d2e3610b1b565b50801561070b576000805461ff0019169055604051600181527f7f26b83ff96e1f2b6a682f133852f6798a09c465da95921460cefb38474024989060200160405180910390a1505050565b306001600160a01b037f0000000000000000000000000000000000000000000000000000000000000000161415610bfa5760405162461bcd60e51b815260040161066a90612ae7565b7f00000000000000000000000000000000000000000000000000000000000000006001600160a01b0316610c2c611273565b6001600160a01b031614610c525760405162461bcd60e51b815260040161066a90612b33565b610c5b8261128f565b6107e1828260016112b9565b6000306001600160a01b037f00000000000000000000000000000000000000000000000000000000000000001614610d025760405162461bcd60e51b815260206004820152603860248201527f555550535570677261646561626c653a206d757374206e6f742062652063616c6044820152771b1959081d1a1c9bdd59da0819195b1959d85d1958d85b1b60421b606482015260840161066a565b50600080516020612d2083398151915290565b6000818152606760205260408120546001600160a01b0316806105365760405162461bcd60e51b815260040161066a90612b7f565b60006001600160a01b038216610db45760405162461bcd60e51b815260206004820152602960248201527f4552433732313a2061646472657373207a65726f206973206e6f7420612076616044820152683634b21037bbb732b960b91b606482015260840161066a565b506001600160a01b031660009081526068602052604090205490565b610dd8611433565b610de18161117c565b6108ab6115da565b600091825260fb602090815260408084206001600160a01b0393909316845291905290205460ff1690565b60606066805461054b90612c8d565b6107e1338383611617565b610e383383610fbe565b610e545760405162461bcd60e51b815260040161066a906129cc565b610e60848484846116e2565b50505050565b606061053682611715565b610e796115b6565b610e828161117c565b6000610e8e6101c45490565b9050610e9f6101c480546001019055565b610ea98482611811565b610e60818461182b565b600082815260fb6020526040902060010154610ece8161117c565b61070b838361120c565b6001600160a01b039182166000908152606a6020908152604080832093909416825291909152205460ff1690565b60006001600160e01b03198216637965db0b60e01b14806105365750610536826118b6565b610f3481611906565b6108ab5760405162461bcd60e51b815260040161066a90612b7f565b600081815260696020526040902080546001600160a01b0319166001600160a01b0384169081179091558190610f8582610d15565b6001600160a01b03167f8c5be1e5ebec7d5bd14f71427d1e84f3dd0314c0f7b2291e5b200ac8c7c3b92560405160405180910390a45050565b600080610fca83610d15565b9050806001600160a01b0316846001600160a01b03161480610ff15750610ff18185610ed8565b806110155750836001600160a01b031661100a846105ce565b6001600160a01b0316145b949350505050565b826001600160a01b031661103082610d15565b6001600160a01b0316146110565760405162461bcd60e51b815260040161066a90612a6b565b6001600160a01b0382166110b85760405162461bcd60e51b8152602060048201526024808201527f4552433732313a207472616e7366657220746f20746865207a65726f206164646044820152637265737360e01b606482015260840161066a565b6110c58383836001611923565b826001600160a01b03166110d882610d15565b6001600160a01b0316146110fe5760405162461bcd60e51b815260040161066a90612a6b565b600081815260696020908152604080832080546001600160a01b03199081169091556001600160a01b038781168086526068855283862080546000190190559087168086528386208054600101905586865260679094528285208054909216841790915590518493600080516020612d6783398151915291a4505050565b6108ab8133611937565b6111908282610de9565b6107e157600082815260fb602090815260408083206001600160a01b03851684529091529020805460ff191660011790556111c83390565b6001600160a01b0316816001600160a01b0316837f2f8788117e7eff1d82e926ec794901d17c78024a50270940304540a733656f0d60405160405180910390a45050565b6112168282610de9565b156107e157600082815260fb602090815260408083206001600160a01b0385168085529252808320805460ff1916905551339285917ff6391f5c32d9c69d2a47ea670b442974b53935d1edc7fd64eb21e047a839171b9190a45050565b600080516020612d20833981519152546001600160a01b031690565b7f189ab7a9244df0848122154315af71fe140f3db0fe014031783b0946b8c9d2e36107e18161117c565b7f4910fdfa16fed3260ed0e7147f7cc6da11a60208b5b9406d12a635614ffd91435460ff16156112ec5761070b83611990565b826001600160a01b03166352d1902d6040518163ffffffff1660e01b815260040160206040518083038186803b15801561132557600080fd5b505afa925050508015611355575060408051601f3d908101601f1916820190925261135291810190612810565b60015b6113b85760405162461bcd60e51b815260206004820152602e60248201527f45524331393637557067726164653a206e657720696d706c656d656e7461746960448201526d6f6e206973206e6f74205555505360901b606482015260840161066a565b600080516020612d2083398151915281146114275760405162461bcd60e51b815260206004820152602960248201527f45524331393637557067726164653a20756e737570706f727465642070726f786044820152681a58589b195555525160ba1b606482015260840161066a565b5061070b838383611a2c565b7f65d7a28e3265b37a6474929f336521b332c1681b933f6cb9f3376673440d862a90565b61145f611a51565b60c9805460ff191690557f5db9ee0a495bf2e6ff9c91a7834c1ba4fdd244a5e8aa4e537bd38aeae4b073aa335b6040516001600160a01b03909116815260200160405180910390a1565b6108ab81611a9a565b604051635c9fcd8560e11b8152600060048201819052906001600160a01b0383169063b93f9b0a9060240160206040518083038186803b1580156114f557600080fd5b505afa158015611509573d6000803e3d6000fd5b505050506040513d601f19601f8201168201806040525081019061053691906125f9565b600054610100900460ff166115545760405162461bcd60e51b815260040161066a90612bb1565b6107e18282611ada565b600054610100900460ff166115855760405162461bcd60e51b815260040161066a90612bb1565b565b600054610100900460ff166115ae5760405162461bcd60e51b815260040161066a90612bb1565b611585611b28565b7f9f2df0fed2c77648de5860a4cc508cd0818c85b8b8a1ab4ceeef8d981c8956a690565b6115e2611b5b565b60c9805460ff191660011790557f62e78cea01bee320cd4e420270b5ea74000d11b0c9f74754ebdbfc544b05a25861148c3390565b816001600160a01b0316836001600160a01b031614156116755760405162461bcd60e51b815260206004820152601960248201527822a9219b99189d1030b8383937bb32903a379031b0b63632b960391b604482015260640161066a565b6001600160a01b038381166000818152606a6020908152604080832094871680845294825291829020805460ff191686151590811790915591519182527f17307eab39ab6107e8899845ad3d59bd9653f200f220920489ca2b5937696c31910160405180910390a3505050565b6116ed84848461101d565b6116f984848484611ba1565b610e605760405162461bcd60e51b815260040161066a90612a19565b606061172082610f2b565b6000828152609760205260408120805461173990612c8d565b80601f016020809104026020016040519081016040528092919081815260200182805461176590612c8d565b80156117b25780601f10611787576101008083540402835291602001916117b2565b820191906000526020600020905b81548152906001019060200180831161179557829003601f168201915b5050505050905060006117c3611cae565b90508051600014156117d6575092915050565b8151156118085780826040516020016117f09291906128de565b60405160208183030381529060405292505050919050565b61101584611ccf565b6107e1828260405180602001604052806000815250611d36565b61183482611906565b6118975760405162461bcd60e51b815260206004820152602e60248201527f45524337323155524953746f726167653a2055524920736574206f66206e6f6e60448201526d32bc34b9ba32b73a103a37b5b2b760911b606482015260840161066a565b6000828152609760209081526040909120825161070b92840190612479565b60006001600160e01b031982166380ac58cd60e01b14806118e757506001600160e01b03198216635b5e139f60e01b145b8061053657506301ffc9a760e01b6001600160e01b0319831614610536565b6000908152606760205260409020546001600160a01b0316151590565b61192b611b5b565b610e6084848484611d69565b6119418282610de9565b6107e15761194e81611df1565b611959836020611e03565b60405160200161196a92919061290d565b60408051601f198184030181529082905262461bcd60e51b825261066a916004016129b9565b6001600160a01b0381163b6119fd5760405162461bcd60e51b815260206004820152602d60248201527f455243313936373a206e657720696d706c656d656e746174696f6e206973206e60448201526c1bdd08184818dbdb9d1c9858dd609a1b606482015260840161066a565b600080516020612d2083398151915280546001600160a01b0319166001600160a01b0392909216919091179055565b611a3583611fe5565b600082511180611a425750805b1561070b57610e608383612025565b60c95460ff166115855760405162461bcd60e51b815260206004820152601460248201527314185d5cd8589b194e881b9bdd081c185d5cd95960621b604482015260640161066a565b611aa381612119565b60008181526097602052604090208054611abc90612c8d565b1590506108ab5760008181526097602052604081206108ab916124fd565b600054610100900460ff16611b015760405162461bcd60e51b815260040161066a90612bb1565b8151611b14906065906020850190612479565b50805161070b906066906020840190612479565b600054610100900460ff16611b4f5760405162461bcd60e51b815260040161066a90612bb1565b60c9805460ff19169055565b60c95460ff16156115855760405162461bcd60e51b815260206004820152601060248201526f14185d5cd8589b194e881c185d5cd95960821b604482015260640161066a565b60006001600160a01b0384163b15611ca357604051630a85bd0160e11b81526001600160a01b0385169063150b7a0290611be590339089908890889060040161297c565b602060405180830381600087803b158015611bff57600080fd5b505af1925050508015611c2f575060408051601f3d908101601f19168201909252611c2c91810190612868565b60015b611c89573d808015611c5d576040519150601f19603f3d011682016040523d82523d6000602084013e611c62565b606091505b508051611c815760405162461bcd60e51b815260040161066a90612a19565b805181602001fd5b6001600160e01b031916630a85bd0160e11b149050611015565b506001949350505050565b604080518082019091526007815266697066733a2f2f60c81b602082015290565b6060611cda82610f2b565b6000611ce4611cae565b90506000815111611d045760405180602001604052806000815250611d2f565b80611d0e846121aa565b604051602001611d1f9291906128de565b6040516020818303038152906040525b9392505050565b611d408383612255565b611d4d6000848484611ba1565b61070b5760405162461bcd60e51b815260040161066a90612a19565b6001811115610e60576001600160a01b03841615611daf576001600160a01b03841660009081526068602052604081208054839290611da9908490612c33565b90915550505b6001600160a01b03831615610e60576001600160a01b03831660009081526068602052604081208054839290611de6908490612bfc565b909155505050505050565b60606105366001600160a01b03831660145b60606000611e12836002612c14565b611e1d906002612bfc565b67ffffffffffffffff811115611e4357634e487b7160e01b600052604160045260246000fd5b6040519080825280601f01601f191660200182016040528015611e6d576020820181803683370190505b509050600360fc1b81600081518110611e9657634e487b7160e01b600052603260045260246000fd5b60200101906001600160f81b031916908160001a905350600f60fb1b81600181518110611ed357634e487b7160e01b600052603260045260246000fd5b60200101906001600160f81b031916908160001a9053506000611ef7846002612c14565b611f02906001612bfc565b90505b6001811115611f96576f181899199a1a9b1b9c1cb0b131b232b360811b85600f1660108110611f4457634e487b7160e01b600052603260045260246000fd5b1a60f81b828281518110611f6857634e487b7160e01b600052603260045260246000fd5b60200101906001600160f81b031916908160001a90535060049490941c93611f8f81612c76565b9050611f05565b508315611d2f5760405162461bcd60e51b815260206004820181905260248201527f537472696e67733a20686578206c656e67746820696e73756666696369656e74604482015260640161066a565b611fee81611990565b6040516001600160a01b038216907fbc7cd75a20ee27fd9adebab32041f755214dbc6bffa90cc0225b39da2e5c2d3b90600090a250565b60606001600160a01b0383163b61208d5760405162461bcd60e51b815260206004820152602660248201527f416464726573733a2064656c65676174652063616c6c20746f206e6f6e2d636f6044820152651b9d1c9858dd60d21b606482015260840161066a565b600080846001600160a01b0316846040516120a891906128c2565b600060405180830381855af49150503d80600081146120e3576040519150601f19603f3d011682016040523d82523d6000602084013e6120e8565b606091505b50915091506121108282604051806060016040528060278152602001612d406027913961235e565b95945050505050565b600061212482610d15565b9050612134816000846001611923565b61213d82610d15565b600083815260696020908152604080832080546001600160a01b03199081169091556001600160a01b038516808552606884528285208054600019019055878552606790935281842080549091169055519293508492600080516020612d67833981519152908390a45050565b606060006121b783612377565b600101905060008167ffffffffffffffff8111156121e557634e487b7160e01b600052604160045260246000fd5b6040519080825280601f01601f19166020018201604052801561220f576020820181803683370190505b5090508181016020015b600019016f181899199a1a9b1b9c1cb0b131b232b360811b600a86061a8153600a85049450846122485761224d565b612219565b509392505050565b6001600160a01b0382166122ab5760405162461bcd60e51b815260206004820181905260248201527f4552433732313a206d696e7420746f20746865207a65726f2061646472657373604482015260640161066a565b6122b481611906565b156122d15760405162461bcd60e51b815260040161066a90612ab0565b6122df600083836001611923565b6122e881611906565b156123055760405162461bcd60e51b815260040161066a90612ab0565b6001600160a01b038216600081815260686020908152604080832080546001019055848352606790915280822080546001600160a01b031916841790555183929190600080516020612d67833981519152908290a45050565b6060831561236d575081611d2f565b611d2f838361244f565b60008072184f03e93ff9f4daa797ed6e38ed64bf6a1f0160401b83106123b65772184f03e93ff9f4daa797ed6e38ed64bf6a1f0160401b830492506040015b6d04ee2d6d415b85acef810000000083106123e2576d04ee2d6d415b85acef8100000000830492506020015b662386f26fc10000831061240057662386f26fc10000830492506010015b6305f5e1008310612418576305f5e100830492506008015b612710831061242c57612710830492506004015b6064831061243e576064830492506002015b600a83106105365760010192915050565b81511561245f5781518083602001fd5b8060405162461bcd60e51b815260040161066a91906129b9565b82805461248590612c8d565b90600052602060002090601f0160209004810192826124a757600085556124ed565b82601f106124c057805160ff19168380011785556124ed565b828001600101855582156124ed579182015b828111156124ed5782518255916020019190600101906124d2565b506124f9929150612533565b5090565b50805461250990612c8d565b6000825580601f10612519575050565b601f0160209004906000526020600020908101906108ab91905b5b808211156124f95760008155600101612534565b600067ffffffffffffffff8084111561256357612563612cde565b604051601f8501601f19908116603f0116810190828211818310171561258b5761258b612cde565b816040528093508581528686860111156125a457600080fd5b858560208301376000602087830101525050509392505050565b600082601f8301126125ce578081fd5b611d2f83833560208501612548565b6000602082840312156125ee578081fd5b8135611d2f81612cf4565b60006020828403121561260a578081fd5b8151611d2f81612cf4565b60008060408385031215612627578081fd5b823561263281612cf4565b9150602083013561264281612cf4565b809150509250929050565b600080600060608486031215612661578081fd5b833561266c81612cf4565b9250602084013561267c81612cf4565b929592945050506040919091013590565b600080600080608085870312156126a2578081fd5b84356126ad81612cf4565b935060208501356126bd81612cf4565b925060408501359150606085013567ffffffffffffffff8111156126df578182fd5b6126eb878288016125be565b91505092959194509250565b60008060408385031215612709578182fd5b823561271481612cf4565b915060208301358015158114612642578182fd5b6000806040838503121561273a578182fd5b823561274581612cf4565b9150602083013567ffffffffffffffff811115612760578182fd5b61276c858286016125be565b9150509250929050565b60008060408385031215612788578182fd5b823561279381612cf4565b9150602083013567ffffffffffffffff8111156127ae578182fd5b8301601f810185136127be578182fd5b61276c85823560208401612548565b600080604083850312156127df578182fd5b82356127ea81612cf4565b946020939093013593505050565b600060208284031215612809578081fd5b5035919050565b600060208284031215612821578081fd5b5051919050565b6000806040838503121561283a578081fd5b82359150602083013561264281612cf4565b60006020828403121561285d578081fd5b8135611d2f81612d09565b600060208284031215612879578081fd5b8151611d2f81612d09565b60008060408385031215612627578182fd5b600081518084526128ae816020860160208601612c4a565b601f01601f19169290920160200192915050565b600082516128d4818460208701612c4a565b9190910192915050565b600083516128f0818460208801612c4a565b835190830190612904818360208801612c4a565b01949350505050565b76020b1b1b2b9b9a1b7b73a3937b61d1030b1b1b7bab73a1604d1b81526000835161293f816017850160208801612c4a565b7001034b99036b4b9b9b4b733903937b6329607d1b6017918401918201528351612970816028840160208801612c4a565b01602801949350505050565b6001600160a01b03858116825284166020820152604081018390526080606082018190526000906129af90830184612896565b9695505050505050565b602081526000611d2f6020830184612896565b6020808252602d908201527f4552433732313a2063616c6c6572206973206e6f7420746f6b656e206f776e6560408201526c1c881bdc88185c1c1c9bdd9959609a1b606082015260800190565b60208082526032908201527f4552433732313a207472616e7366657220746f206e6f6e20455243373231526560408201527131b2b4bb32b91034b6b83632b6b2b73a32b960711b606082015260800190565b60208082526025908201527f4552433732313a207472616e736665722066726f6d20696e636f72726563742060408201526437bbb732b960d91b606082015260800190565b6020808252601c908201527f4552433732313a20746f6b656e20616c7265616479206d696e74656400000000604082015260600190565b6020808252602c908201527f46756e6374696f6e206d7573742062652063616c6c6564207468726f7567682060408201526b19195b1959d85d1958d85b1b60a21b606082015260800190565b6020808252602c908201527f46756e6374696f6e206d7573742062652063616c6c6564207468726f7567682060408201526b6163746976652070726f787960a01b606082015260800190565b602080825260189082015277115490cdcc8c4e881a5b9d985b1a59081d1bdad95b88125160421b604082015260600190565b6020808252602b908201527f496e697469616c697a61626c653a20636f6e7472616374206973206e6f74206960408201526a6e697469616c697a696e6760a81b606082015260800190565b60008219821115612c0f57612c0f612cc8565b500190565b6000816000190483118215151615612c2e57612c2e612cc8565b500290565b600082821015612c4557612c45612cc8565b500390565b60005b83811015612c65578181015183820152602001612c4d565b83811115610e605750506000910152565b600081612c8557612c85612cc8565b506000190190565b600181811c90821680612ca157607f821691505b60208210811415612cc257634e487b7160e01b600052602260045260246000fd5b50919050565b634e487b7160e01b600052601160045260246000fd5b634e487b7160e01b600052604160045260246000fd5b6001600160a01b03811681146108ab57600080fd5b6001600160e01b0319811681146108ab57600080fdfe360894a13ba1a3210667c828492db98dca3e2076cc3735a920a3ca505d382bbc416464726573733a206c6f772d6c6576656c2064656c65676174652063616c6c206661696c6564ddf252ad1be2c89b69c2b068fc378daa952ba7f163c4a11628f55a4df523b3efa2646970667358221220a4d8c2a161bb68cc0123b0e1457add9837e0ae9af40bfc0088ec33e4b01afdb964736f6c63430008040033",
  "linkReferences": {},
  "deployedLinkReferences": {}
}