{
  "_format": "hh-sol-artifact-1",
  "contractName": "CollateralToken",
  "sourceName": "contracts/protocol/CollateralToken.sol",
  "abi": [
    {
      "anonymous": false,
      "inputs": [
        {
          "indexed": false,
          "internalType": "address",
          "name": "previousAdmin",
          "type": "address"
        },
        {
          "indexed": false,
          "internalType": "address",
          "name": "newAdmin",
          "type": "address"
        }
      ],
      "name": "AdminChanged",
      "type": "event"
    },
    {
      "anonymous": false,
      "inputs": [
        {
          "indexed": true,
          "internalType": "address",
          "name": "owner",
          "type": "address"
        },
        {
          "indexed": true,
          "internalType": "address",
          "name": "approved",
          "type": "address"
        },
        {
          "indexed": true,
          "internalType": "uint256",
          "name": "tokenId",
          "type": "uint256"
        }
      ],
      "name": "Approval",
      "type": "event"
    },
    {
      "anonymous": false,
      "inputs": [
        {
          "indexed": true,
          "internalType": "address",
          "name": "owner",
          "type": "address"
        },
        {
          "indexed": true,
          "internalType": "address",
          "name": "operator",
          "type": "address"
        },
        {
          "indexed": false,
          "internalType": "bool",
          "name": "approved",
          "type": "bool"
        }
      ],
      "name": "ApprovalForAll",
      "type": "event"
    },
    {
      "anonymous": false,
      "inputs": [
        {
          "indexed": true,
          "internalType": "address",
          "name": "beacon",
          "type": "address"
        }
      ],
      "name": "BeaconUpgraded",
      "type": "event"
    },
    {
      "anonymous": false,
      "inputs": [
        {
          "indexed": false,
          "internalType": "uint8",
          "name": "version",
          "type": "uint8"
        }
      ],
      "name": "Initialized",
      "type": "event"
    },
    {
      "anonymous": false,
      "inputs": [
        {
          "indexed": false,
          "internalType": "address",
          "name": "account",
          "type": "address"
        }
      ],
      "name": "Paused",
      "type": "event"
    },
    {
      "anonymous": false,
      "inputs": [
        {
          "indexed": true,
          "internalType": "bytes32",
          "name": "role",
          "type": "bytes32"
        },
        {
          "indexed": true,
          "internalType": "bytes32",
          "name": "previousAdminRole",
          "type": "bytes32"
        },
        {
          "indexed": true,
          "internalType": "bytes32",
          "name": "newAdminRole",
          "type": "bytes32"
        }
      ],
      "name": "RoleAdminChanged",
      "type": "event"
    },
    {
      "anonymous": false,
      "inputs": [
        {
          "indexed": true,
          "internalType": "bytes32",
          "name": "role",
          "type": "bytes32"
        },
        {
          "indexed": true,
          "internalType": "address",
          "name": "account",
          "type": "address"
        },
        {
          "indexed": true,
          "internalType": "address",
          "name": "sender",
          "type": "address"
        }
      ],
      "name": "RoleGranted",
      "type": "event"
    },
    {
      "anonymous": false,
      "inputs": [
        {
          "indexed": true,
          "internalType": "bytes32",
          "name": "role",
          "type": "bytes32"
        },
        {
          "indexed": true,
          "internalType": "address",
          "name": "account",
          "type": "address"
        },
        {
          "indexed": true,
          "internalType": "address",
          "name": "sender",
          "type": "address"
        }
      ],
      "name": "RoleRevoked",
      "type": "event"
    },
    {
      "anonymous": false,
      "inputs": [
        {
          "indexed": true,
          "internalType": "address",
          "name": "from",
          "type": "address"
        },
        {
          "indexed": true,
          "internalType": "address",
          "name": "to",
          "type": "address"
        },
        {
          "indexed": true,
          "internalType": "uint256",
          "name": "tokenId",
          "type": "uint256"
        }
      ],
      "name": "Transfer",
      "type": "event"
    },
    {
      "anonymous": false,
      "inputs": [
        {
          "indexed": false,
          "internalType": "address",
          "name": "account",
          "type": "address"
        }
      ],
      "name": "Unpaused",
      "type": "event"
    },
    {
      "anonymous": false,
      "inputs": [
        {
          "indexed": true,
          "internalType": "address",
          "name": "implementation",
          "type": "address"
        }
      ],
      "name": "Upgraded",
      "type": "event"
    },
    {
      "inputs": [],
      "name": "DEFAULT_ADMIN_ROLE",
      "outputs": [
        {
          "internalType": "bytes32",
          "name": "",
          "type": "bytes32"
        }
      ],
      "stateMutability": "view",
      "type": "function"
    },
    {
      "inputs": [
        {
          "internalType": "address",
          "name": "to",
          "type": "address"
        },
        {
          "internalType": "uint256",
          "name": "tokenId",
          "type": "uint256"
        }
      ],
      "name": "approve",
      "outputs": [],
      "stateMutability": "nonpayable",
      "type": "function"
    },
    {
      "inputs": [
        {
          "internalType": "address",
          "name": "owner",
          "type": "address"
        }
      ],
      "name": "balanceOf",
      "outputs": [
        {
          "internalType": "uint256",
          "name": "",
          "type": "uint256"
        }
      ],
      "stateMutability": "view",
      "type": "function"
    },
    {
      "inputs": [
        {
          "internalType": "uint256",
          "name": "tokenId",
          "type": "uint256"
        }
      ],
      "name": "burn",
      "outputs": [],
      "stateMutability": "nonpayable",
      "type": "function"
    },
    {
      "inputs": [],
      "name": "dygnifyConfig",
      "outputs": [
        {
          "internalType": "contract DygnifyConfig",
          "name": "",
          "type": "address"
        }
      ],
      "stateMutability": "view",
      "type": "function"
    },
    {
      "inputs": [
        {
          "internalType": "uint256",
          "name": "tokenId",
          "type": "uint256"
        }
      ],
      "name": "getApproved",
      "outputs": [
        {
          "internalType": "address",
          "name": "",
          "type": "address"
        }
      ],
      "stateMutability": "view",
      "type": "function"
    },
    {
      "inputs": [
        {
          "internalType": "bytes32",
          "name": "role",
          "type": "bytes32"
        }
      ],
      "name": "getRoleAdmin",
      "outputs": [
        {
          "internalType": "bytes32",
          "name": "",
          "type": "bytes32"
        }
      ],
      "stateMutability": "view",
      "type": "function"
    },
    {
      "inputs": [
        {
          "internalType": "bytes32",
          "name": "role",
          "type": "bytes32"
        },
        {
          "internalType": "address",
          "name": "account",
          "type": "address"
        }
      ],
      "name": "grantRole",
      "outputs": [],
      "stateMutability": "nonpayable",
      "type": "function"
    },
    {
      "inputs": [
        {
          "internalType": "bytes32",
          "name": "role",
          "type": "bytes32"
        },
        {
          "internalType": "address",
          "name": "account",
          "type": "address"
        }
      ],
      "name": "hasRole",
      "outputs": [
        {
          "internalType": "bool",
          "name": "",
          "type": "bool"
        }
      ],
      "stateMutability": "view",
      "type": "function"
    },
    {
      "inputs": [
        {
          "internalType": "contract DygnifyConfig",
          "name": "config",
          "type": "address"
        },
        {
          "internalType": "address",
          "name": "_minterRole",
          "type": "address"
        }
      ],
      "name": "initialize",
      "outputs": [],
      "stateMutability": "nonpayable",
      "type": "function"
    },
    {
      "inputs": [
        {
          "internalType": "address",
          "name": "owner",
          "type": "address"
        },
        {
          "internalType": "address",
          "name": "operator",
          "type": "address"
        }
      ],
      "name": "isApprovedForAll",
      "outputs": [
        {
          "internalType": "bool",
          "name": "",
          "type": "bool"
        }
      ],
      "stateMutability": "view",
      "type": "function"
    },
    {
      "inputs": [],
      "name": "name",
      "outputs": [
        {
          "internalType": "string",
          "name": "",
          "type": "string"
        }
      ],
      "stateMutability": "view",
      "type": "function"
    },
    {
      "inputs": [
        {
          "internalType": "uint256",
          "name": "tokenId",
          "type": "uint256"
        }
      ],
      "name": "ownerOf",
      "outputs": [
        {
          "internalType": "address",
          "name": "",
          "type": "address"
        }
      ],
      "stateMutability": "view",
      "type": "function"
    },
    {
      "inputs": [],
      "name": "pause",
      "outputs": [],
      "stateMutability": "nonpayable",
      "type": "function"
    },
    {
      "inputs": [],
      "name": "paused",
      "outputs": [
        {
          "internalType": "bool",
          "name": "",
          "type": "bool"
        }
      ],
      "stateMutability": "view",
      "type": "function"
    },
    {
      "inputs": [],
      "name": "proxiableUUID",
      "outputs": [
        {
          "internalType": "bytes32",
          "name": "",
          "type": "bytes32"
        }
      ],
      "stateMutability": "view",
      "type": "function"
    },
    {
      "inputs": [
        {
          "internalType": "bytes32",
          "name": "role",
          "type": "bytes32"
        },
        {
          "internalType": "address",
          "name": "account",
          "type": "address"
        }
      ],
      "name": "renounceRole",
      "outputs": [],
      "stateMutability": "nonpayable",
      "type": "function"
    },
    {
      "inputs": [
        {
          "internalType": "bytes32",
          "name": "role",
          "type": "bytes32"
        },
        {
          "internalType": "address",
          "name": "account",
          "type": "address"
        }
      ],
      "name": "revokeRole",
      "outputs": [],
      "stateMutability": "nonpayable",
      "type": "function"
    },
    {
      "inputs": [
        {
          "internalType": "address",
          "name": "to",
          "type": "address"
        },
        {
          "internalType": "string",
          "name": "uri",
          "type": "string"
        }
      ],
      "name": "safeMint",
      "outputs": [],
      "stateMutability": "nonpayable",
      "type": "function"
    },
    {
      "inputs": [
        {
          "internalType": "address",
          "name": "from",
          "type": "address"
        },
        {
          "internalType": "address",
          "name": "to",
          "type": "address"
        },
        {
          "internalType": "uint256",
          "name": "tokenId",
          "type": "uint256"
        }
      ],
      "name": "safeTransferFrom",
      "outputs": [],
      "stateMutability": "nonpayable",
      "type": "function"
    },
    {
      "inputs": [
        {
          "internalType": "address",
          "name": "from",
          "type": "address"
        },
        {
          "internalType": "address",
          "name": "to",
          "type": "address"
        },
        {
          "internalType": "uint256",
          "name": "tokenId",
          "type": "uint256"
        },
        {
          "internalType": "bytes",
          "name": "data",
          "type": "bytes"
        }
      ],
      "name": "safeTransferFrom",
      "outputs": [],
      "stateMutability": "nonpayable",
      "type": "function"
    },
    {
      "inputs": [
        {
          "internalType": "address",
          "name": "operator",
          "type": "address"
        },
        {
          "internalType": "bool",
          "name": "approved",
          "type": "bool"
        }
      ],
      "name": "setApprovalForAll",
      "outputs": [],
      "stateMutability": "nonpayable",
      "type": "function"
    },
    {
      "inputs": [
        {
          "internalType": "bytes4",
          "name": "interfaceId",
          "type": "bytes4"
        }
      ],
      "name": "supportsInterface",
      "outputs": [
        {
          "internalType": "bool",
          "name": "",
          "type": "bool"
        }
      ],
      "stateMutability": "view",
      "type": "function"
    },
    {
      "inputs": [],
      "name": "symbol",
      "outputs": [
        {
          "internalType": "string",
          "name": "",
          "type": "string"
        }
      ],
      "stateMutability": "view",
      "type": "function"
    },
    {
      "inputs": [
        {
          "internalType": "uint256",
          "name": "tokenId",
          "type": "uint256"
        }
      ],
      "name": "tokenURI",
      "outputs": [
        {
          "internalType": "string",
          "name": "",
          "type": "string"
        }
      ],
      "stateMutability": "view",
      "type": "function"
    },
    {
      "inputs": [
        {
          "internalType": "address",
          "name": "from",
          "type": "address"
        },
        {
          "internalType": "address",
          "name": "to",
          "type": "address"
        },
        {
          "internalType": "uint256",
          "name": "tokenId",
          "type": "uint256"
        }
      ],
      "name": "transferFrom",
      "outputs": [],
      "stateMutability": "nonpayable",
      "type": "function"
    },
    {
      "inputs": [],
      "name": "unpause",
      "outputs": [],
      "stateMutability": "nonpayable",
      "type": "function"
    },
    {
      "inputs": [
        {
          "internalType": "address",
          "name": "newImplementation",
          "type": "address"
        }
      ],
      "name": "upgradeTo",
      "outputs": [],
      "stateMutability": "nonpayable",
      "type": "function"
    },
    {
      "inputs": [
        {
          "internalType": "address",
          "name": "newImplementation",
          "type": "address"
        },
        {
          "internalType": "bytes",
          "name": "data",
          "type": "bytes"
        }
      ],
      "name": "upgradeToAndCall",
      "outputs": [],
      "stateMutability": "payable",
      "type": "function"
    }
  ],
  "bytecode": "0x60a06040523060601b60805234801561001757600080fd5b5060805160601c613327610052600039600081816108f00152818161097501528181610e6f01528181610ef40152610fda01526133276000f3fe6080604052600436106101c25760003560e01c80634f1ef286116100f757806395d89b4111610095578063c87b56dd11610064578063c87b56dd14610511578063d204c45e14610531578063d547741f14610551578063e985e9c51461057157600080fd5b806395d89b41146104a7578063a217fddf146104bc578063a22cb465146104d1578063b88d4fde146104f157600080fd5b80636352211e116100d15780636352211e1461040c57806370a082311461042c5780638456cb591461044c57806391d148541461046157600080fd5b80634f1ef286146103cc57806352d1902d146103df5780635c975abb146103f457600080fd5b80632f2ff15d116101645780633f4ba83a1161013e5780633f4ba83a1461035757806342842e0e1461036c57806342966c681461038c578063485cc955146103ac57600080fd5b80632f2ff15d146102f757806336568abe146103175780633659cfe61461033757600080fd5b8063095ea7b3116101a0578063095ea7b3146102565780631be954591461027857806323b872dd14610299578063248a9ca3146102b957600080fd5b806301ffc9a7146101c757806306fdde03146101fc578063081812fc1461021e575b600080fd5b3480156101d357600080fd5b506101e76101e2366004612fbd565b6105ba565b60405190151581526020015b60405180910390f35b34801561020857600080fd5b506102116105cb565b6040516101f3919061313b565b34801561022a57600080fd5b5061023e610239366004612f69565b61065d565b6040516001600160a01b0390911681526020016101f3565b34801561026257600080fd5b50610276610271366004612f3e565b610684565b005b34801561028457600080fd5b506101c35461023e906001600160a01b031681565b3480156102a557600080fd5b506102766102b4366004612dbe565b6107bb565b3480156102c557600080fd5b506102e96102d4366004612f69565b600090815260fb602052604090206001015490565b6040519081526020016101f3565b34801561030357600080fd5b50610276610312366004612f99565b610834565b34801561032357600080fd5b50610276610332366004612f99565b610859565b34801561034357600080fd5b50610276610352366004612d4e565b6108e5565b34801561036357600080fd5b50610276610a61565b34801561037857600080fd5b50610276610387366004612dbe565b610a93565b34801561039857600080fd5b506102766103a7366004612f69565b610aae565b3480156103b857600080fd5b506102766103c7366004612ff5565b610b23565b6102766103da366004612e99565b610e64565b3480156103eb57600080fd5b506102e9610fcd565b34801561040057600080fd5b5060c95460ff166101e7565b34801561041857600080fd5b5061023e610427366004612f69565b611092565b34801561043857600080fd5b506102e9610447366004612d4e565b6110f7565b34801561045857600080fd5b50610276611191565b34801561046d57600080fd5b506101e761047c366004612f99565b600091825260fb602090815260408084206001600160a01b0393909316845291905290205460ff1690565b3480156104b357600080fd5b506102116111c3565b3480156104c857600080fd5b506102e9600081565b3480156104dd57600080fd5b506102766104ec366004612e68565b6111d2565b3480156104fd57600080fd5b5061027661050c366004612dfe565b6111dd565b34801561051d57600080fd5b5061021161052c366004612f69565b61125c565b34801561053d57600080fd5b5061027661054c366004612ee7565b611267565b34801561055d57600080fd5b5061027661056c366004612f99565b6112c2565b34801561057d57600080fd5b506101e761058c366004612d86565b6001600160a01b039182166000908152606a6020908152604080832093909416825291909152205460ff1690565b60006105c5826112e7565b92915050565b6060606580546105da906131f3565b80601f0160208091040260200160405190810160405280929190818152602001828054610606906131f3565b80156106535780601f1061062857610100808354040283529160200191610653565b820191906000526020600020905b81548152906001019060200180831161063657829003601f168201915b5050505050905090565b600061066882611325565b506000908152606960205260409020546001600160a01b031690565b600061068f82611092565b9050806001600160a01b0316836001600160a01b0316141561071e5760405162461bcd60e51b815260206004820152602160248201527f4552433732313a20617070726f76616c20746f2063757272656e74206f776e6560448201527f720000000000000000000000000000000000000000000000000000000000000060648201526084015b60405180910390fd5b336001600160a01b038216148061073a575061073a813361058c565b6107ac5760405162461bcd60e51b815260206004820152603e60248201527f4552433732313a20617070726f76652063616c6c6572206973206e6f7420746f60448201527f6b656e206f776e6572206e6f7220617070726f76656420666f7220616c6c00006064820152608401610715565b6107b68383611389565b505050565b6107c6335b826113f7565b6108295760405162461bcd60e51b815260206004820152602e60248201527f4552433732313a2063616c6c6572206973206e6f7420746f6b656e206f776e6560448201526d1c881b9bdc88185c1c1c9bdd995960921b6064820152608401610715565b6107b6838383611476565b600082815260fb602052604090206001015461084f8161164e565b6107b68383611658565b6001600160a01b03811633146108d75760405162461bcd60e51b815260206004820152602f60248201527f416363657373436f6e74726f6c3a2063616e206f6e6c792072656e6f756e636560448201527f20726f6c657320666f722073656c6600000000000000000000000000000000006064820152608401610715565b6108e182826116fa565b5050565b306001600160a01b037f00000000000000000000000000000000000000000000000000000000000000001614156109735760405162461bcd60e51b815260206004820152602c60248201527f46756e6374696f6e206d7573742062652063616c6c6564207468726f7567682060448201526b19195b1959d85d1958d85b1b60a21b6064820152608401610715565b7f00000000000000000000000000000000000000000000000000000000000000006001600160a01b03166109ce7f360894a13ba1a3210667c828492db98dca3e2076cc3735a920a3ca505d382bbc546001600160a01b031690565b6001600160a01b031614610a395760405162461bcd60e51b815260206004820152602c60248201527f46756e6374696f6e206d7573742062652063616c6c6564207468726f7567682060448201526b6163746976652070726f787960a01b6064820152608401610715565b610a428161177d565b60408051600080825260208201909252610a5e918391906117a7565b50565b7f65d7a28e3265b37a6474929f336521b332c1681b933f6cb9f3376673440d862a610a8b8161164e565b610a5e611956565b6107b6838383604051806020016040528060008152506111dd565b610ab7336107c0565b610b1a5760405162461bcd60e51b815260206004820152602e60248201527f4552433732313a2063616c6c6572206973206e6f7420746f6b656e206f776e6560448201526d1c881b9bdc88185c1c1c9bdd995960921b6064820152608401610715565b610a5e816119a8565b600054610100900460ff1615808015610b435750600054600160ff909116105b80610b5d5750303b158015610b5d575060005460ff166001145b610bcf5760405162461bcd60e51b815260206004820152602e60248201527f496e697469616c697a61626c653a20636f6e747261637420697320616c72656160448201527f647920696e697469616c697a65640000000000000000000000000000000000006064820152608401610715565b6000805460ff191660011790558015610bf2576000805461ff0019166101001790555b6001600160a01b038316610c485760405162461bcd60e51b815260206004820152601660248201527f496e76616c696420636f6e6669672061646472657373000000000000000000006044820152606401610715565b6101c380546001600160a01b0319166001600160a01b038516908117909155600090610c73906119b1565b90506001600160a01b038116610ccb5760405162461bcd60e51b815260206004820152600d60248201527f496e76616c6964204f776e6572000000000000000000000000000000000000006044820152606401610715565b610d3f6040518060400160405280600f81526020017f436f6c6c61746572616c546f6b656e00000000000000000000000000000000008152506040518060400160405280600281526020017f4354000000000000000000000000000000000000000000000000000000000000815250611a45565b610d47611aba565b610d4f611b27565b610d57611aba565b610d5f611aba565b610d67611aba565b610d72600082611658565b610d9d7f65d7a28e3265b37a6474929f336521b332c1681b933f6cb9f3376673440d862a5b82611658565b610dc67f9f2df0fed2c77648de5860a4cc508cd0818c85b8b8a1ab4ceeef8d981c8956a6610d97565b610df07f9f2df0fed2c77648de5860a4cc508cd0818c85b8b8a1ab4ceeef8d981c8956a684611658565b610e197f189ab7a9244df0848122154315af71fe140f3db0fe014031783b0946b8c9d2e3610d97565b5080156107b6576000805461ff0019169055604051600181527f7f26b83ff96e1f2b6a682f133852f6798a09c465da95921460cefb38474024989060200160405180910390a1505050565b306001600160a01b037f0000000000000000000000000000000000000000000000000000000000000000161415610ef25760405162461bcd60e51b815260206004820152602c60248201527f46756e6374696f6e206d7573742062652063616c6c6564207468726f7567682060448201526b19195b1959d85d1958d85b1b60a21b6064820152608401610715565b7f00000000000000000000000000000000000000000000000000000000000000006001600160a01b0316610f4d7f360894a13ba1a3210667c828492db98dca3e2076cc3735a920a3ca505d382bbc546001600160a01b031690565b6001600160a01b031614610fb85760405162461bcd60e51b815260206004820152602c60248201527f46756e6374696f6e206d7573742062652063616c6c6564207468726f7567682060448201526b6163746976652070726f787960a01b6064820152608401610715565b610fc18261177d565b6108e1828260016117a7565b6000306001600160a01b037f0000000000000000000000000000000000000000000000000000000000000000161461106d5760405162461bcd60e51b815260206004820152603860248201527f555550535570677261646561626c653a206d757374206e6f742062652063616c60448201527f6c6564207468726f7567682064656c656761746563616c6c00000000000000006064820152608401610715565b507f360894a13ba1a3210667c828492db98dca3e2076cc3735a920a3ca505d382bbc90565b6000818152606760205260408120546001600160a01b0316806105c55760405162461bcd60e51b815260206004820152601860248201527f4552433732313a20696e76616c696420746f6b656e20494400000000000000006044820152606401610715565b60006001600160a01b0382166111755760405162461bcd60e51b815260206004820152602960248201527f4552433732313a2061646472657373207a65726f206973206e6f74206120766160448201527f6c6964206f776e657200000000000000000000000000000000000000000000006064820152608401610715565b506001600160a01b031660009081526068602052604090205490565b7f65d7a28e3265b37a6474929f336521b332c1681b933f6cb9f3376673440d862a6111bb8161164e565b610a5e611b9a565b6060606680546105da906131f3565b6108e1338383611bd7565b6111e733836113f7565b61124a5760405162461bcd60e51b815260206004820152602e60248201527f4552433732313a2063616c6c6572206973206e6f7420746f6b656e206f776e6560448201526d1c881b9bdc88185c1c1c9bdd995960921b6064820152608401610715565b61125684848484611ca6565b50505050565b60606105c582611d24565b7f9f2df0fed2c77648de5860a4cc508cd0818c85b8b8a1ab4ceeef8d981c8956a66112918161164e565b600061129d6101c45490565b90506112ae6101c480546001019055565b6112b88482611e3c565b6112568184611e56565b600082815260fb60205260409020600101546112dd8161164e565b6107b683836116fa565b60006001600160e01b031982167f7965db0b0000000000000000000000000000000000000000000000000000000014806105c557506105c582611eff565b6000818152606760205260409020546001600160a01b0316610a5e5760405162461bcd60e51b815260206004820152601860248201527f4552433732313a20696e76616c696420746f6b656e20494400000000000000006044820152606401610715565b600081815260696020526040902080546001600160a01b0319166001600160a01b03841690811790915581906113be82611092565b6001600160a01b03167f8c5be1e5ebec7d5bd14f71427d1e84f3dd0314c0f7b2291e5b200ac8c7c3b92560405160405180910390a45050565b60008061140383611092565b9050806001600160a01b0316846001600160a01b0316148061144a57506001600160a01b038082166000908152606a602090815260408083209388168352929052205460ff165b8061146e5750836001600160a01b03166114638461065d565b6001600160a01b0316145b949350505050565b826001600160a01b031661148982611092565b6001600160a01b0316146115055760405162461bcd60e51b815260206004820152602560248201527f4552433732313a207472616e736665722066726f6d20696e636f72726563742060448201527f6f776e65720000000000000000000000000000000000000000000000000000006064820152608401610715565b6001600160a01b0382166115805760405162461bcd60e51b8152602060048201526024808201527f4552433732313a207472616e7366657220746f20746865207a65726f2061646460448201527f72657373000000000000000000000000000000000000000000000000000000006064820152608401610715565b61158b838383611f9a565b611596600082611389565b6001600160a01b03831660009081526068602052604081208054600192906115bf908490613199565b90915550506001600160a01b03821660009081526068602052604081208054600192906115ed90849061314e565b909155505060008181526067602052604080822080546001600160a01b0319166001600160a01b0386811691821790925591518493918716917fddf252ad1be2c89b69c2b068fc378daa952ba7f163c4a11628f55a4df523b3ef91a4505050565b610a5e8133611fa2565b600082815260fb602090815260408083206001600160a01b038516845290915290205460ff166108e157600082815260fb602090815260408083206001600160a01b03851684529091529020805460ff191660011790556116b63390565b6001600160a01b0316816001600160a01b0316837f2f8788117e7eff1d82e926ec794901d17c78024a50270940304540a733656f0d60405160405180910390a45050565b600082815260fb602090815260408083206001600160a01b038516845290915290205460ff16156108e157600082815260fb602090815260408083206001600160a01b0385168085529252808320805460ff1916905551339285917ff6391f5c32d9c69d2a47ea670b442974b53935d1edc7fd64eb21e047a839171b9190a45050565b7f189ab7a9244df0848122154315af71fe140f3db0fe014031783b0946b8c9d2e36108e18161164e565b7f4910fdfa16fed3260ed0e7147f7cc6da11a60208b5b9406d12a635614ffd91435460ff16156117da576107b683612022565b826001600160a01b03166352d1902d6040518163ffffffff1660e01b815260040160206040518083038186803b15801561181357600080fd5b505afa925050508015611843575060408051601f3d908101601f1916820190925261184091810190612f81565b60015b6118b55760405162461bcd60e51b815260206004820152602e60248201527f45524331393637557067726164653a206e657720696d706c656d656e7461746960448201527f6f6e206973206e6f7420555550530000000000000000000000000000000000006064820152608401610715565b7f360894a13ba1a3210667c828492db98dca3e2076cc3735a920a3ca505d382bbc811461194a5760405162461bcd60e51b815260206004820152602960248201527f45524331393637557067726164653a20756e737570706f727465642070726f7860448201527f6961626c655555494400000000000000000000000000000000000000000000006064820152608401610715565b506107b68383836120e0565b61195e612105565b60c9805460ff191690557f5db9ee0a495bf2e6ff9c91a7834c1ba4fdd244a5e8aa4e537bd38aeae4b073aa335b6040516001600160a01b03909116815260200160405180910390a1565b610a5e81612157565b6040517fb93f9b0a000000000000000000000000000000000000000000000000000000008152600060048201819052906001600160a01b0383169063b93f9b0a9060240160206040518083038186803b158015611a0d57600080fd5b505afa158015611a21573d6000803e3d6000fd5b505050506040513d601f19601f820116820180604052508101906105c59190612d6a565b600054610100900460ff16611ab05760405162461bcd60e51b815260206004820152602b60248201527f496e697469616c697a61626c653a20636f6e7472616374206973206e6f74206960448201526a6e697469616c697a696e6760a81b6064820152608401610715565b6108e18282612197565b600054610100900460ff16611b255760405162461bcd60e51b815260206004820152602b60248201527f496e697469616c697a61626c653a20636f6e7472616374206973206e6f74206960448201526a6e697469616c697a696e6760a81b6064820152608401610715565b565b600054610100900460ff16611b925760405162461bcd60e51b815260206004820152602b60248201527f496e697469616c697a61626c653a20636f6e7472616374206973206e6f74206960448201526a6e697469616c697a696e6760a81b6064820152608401610715565b611b25612229565b611ba26122a0565b60c9805460ff191660011790557f62e78cea01bee320cd4e420270b5ea74000d11b0c9f74754ebdbfc544b05a25861198b3390565b816001600160a01b0316836001600160a01b03161415611c395760405162461bcd60e51b815260206004820152601960248201527f4552433732313a20617070726f766520746f2063616c6c6572000000000000006044820152606401610715565b6001600160a01b038381166000818152606a6020908152604080832094871680845294825291829020805460ff191686151590811790915591519182527f17307eab39ab6107e8899845ad3d59bd9653f200f220920489ca2b5937696c31910160405180910390a3505050565b611cb1848484611476565b611cbd848484846122f3565b6112565760405162461bcd60e51b815260206004820152603260248201527f4552433732313a207472616e7366657220746f206e6f6e20455243373231526560448201527131b2b4bb32b91034b6b83632b6b2b73a32b960711b6064820152608401610715565b6060611d2f82611325565b60008281526097602052604081208054611d48906131f3565b80601f0160208091040260200160405190810160405280929190818152602001828054611d74906131f3565b8015611dc15780601f10611d9657610100808354040283529160200191611dc1565b820191906000526020600020905b815481529060010190602001808311611da457829003601f168201915b505050505090506000611dee604080518082019091526007815266697066733a2f2f60c81b602082015290565b9050805160001415611e01575092915050565b815115611e33578082604051602001611e1b92919061304f565b60405160208183030381529060405292505050919050565b61146e8461244b565b6108e18282604051806020016040528060008152506124ce565b6000828152606760205260409020546001600160a01b0316611ee05760405162461bcd60e51b815260206004820152602e60248201527f45524337323155524953746f726167653a2055524920736574206f66206e6f6e60448201527f6578697374656e7420746f6b656e0000000000000000000000000000000000006064820152608401610715565b600082815260976020908152604090912082516107b692840190612bea565b60006001600160e01b031982167f80ac58cd000000000000000000000000000000000000000000000000000000001480611f6257506001600160e01b031982167f5b5e139f00000000000000000000000000000000000000000000000000000000145b806105c557507f01ffc9a7000000000000000000000000000000000000000000000000000000006001600160e01b03198316146105c5565b6107b66122a0565b600082815260fb602090815260408083206001600160a01b038516845290915290205460ff166108e157611fe0816001600160a01b0316601461254c565b611feb83602061254c565b604051602001611ffc92919061307e565b60408051601f198184030181529082905262461bcd60e51b82526107159160040161313b565b6001600160a01b0381163b61209f5760405162461bcd60e51b815260206004820152602d60248201527f455243313936373a206e657720696d706c656d656e746174696f6e206973206e60448201527f6f74206120636f6e7472616374000000000000000000000000000000000000006064820152608401610715565b7f360894a13ba1a3210667c828492db98dca3e2076cc3735a920a3ca505d382bbc80546001600160a01b0319166001600160a01b0392909216919091179055565b6120e983612757565b6000825111806120f65750805b156107b6576112568383612797565b60c95460ff16611b255760405162461bcd60e51b815260206004820152601460248201527f5061757361626c653a206e6f74207061757365640000000000000000000000006044820152606401610715565b612160816128a2565b60008181526097602052604090208054612179906131f3565b159050610a5e576000818152609760205260408120610a5e91612c6e565b600054610100900460ff166122025760405162461bcd60e51b815260206004820152602b60248201527f496e697469616c697a61626c653a20636f6e7472616374206973206e6f74206960448201526a6e697469616c697a696e6760a81b6064820152608401610715565b8151612215906065906020850190612bea565b5080516107b6906066906020840190612bea565b600054610100900460ff166122945760405162461bcd60e51b815260206004820152602b60248201527f496e697469616c697a61626c653a20636f6e7472616374206973206e6f74206960448201526a6e697469616c697a696e6760a81b6064820152608401610715565b60c9805460ff19169055565b60c95460ff1615611b255760405162461bcd60e51b815260206004820152601060248201527f5061757361626c653a20706175736564000000000000000000000000000000006044820152606401610715565b60006001600160a01b0384163b1561244057604051630a85bd0160e11b81526001600160a01b0385169063150b7a02906123379033908990889088906004016130ff565b602060405180830381600087803b15801561235157600080fd5b505af1925050508015612381575060408051601f3d908101601f1916820190925261237e91810190612fd9565b60015b612426573d8080156123af576040519150601f19603f3d011682016040523d82523d6000602084013e6123b4565b606091505b50805161241e5760405162461bcd60e51b815260206004820152603260248201527f4552433732313a207472616e7366657220746f206e6f6e20455243373231526560448201527131b2b4bb32b91034b6b83632b6b2b73a32b960711b6064820152608401610715565b805181602001fd5b6001600160e01b031916630a85bd0160e11b14905061146e565b506001949350505050565b606061245682611325565b600061247c604080518082019091526007815266697066733a2f2f60c81b602082015290565b9050600081511161249c57604051806020016040528060008152506124c7565b806124a684612949565b6040516020016124b792919061304f565b6040516020818303038152906040525b9392505050565b6124d88383612a63565b6124e560008484846122f3565b6107b65760405162461bcd60e51b815260206004820152603260248201527f4552433732313a207472616e7366657220746f206e6f6e20455243373231526560448201527131b2b4bb32b91034b6b83632b6b2b73a32b960711b6064820152608401610715565b6060600061255b83600261317a565b61256690600261314e565b67ffffffffffffffff81111561258c57634e487b7160e01b600052604160045260246000fd5b6040519080825280601f01601f1916602001820160405280156125b6576020820181803683370190505b509050600360fc1b816000815181106125df57634e487b7160e01b600052603260045260246000fd5b60200101906001600160f81b031916908160001a9053507f78000000000000000000000000000000000000000000000000000000000000008160018151811061263857634e487b7160e01b600052603260045260246000fd5b60200101906001600160f81b031916908160001a905350600061265c84600261317a565b61266790600161314e565b90505b6001811115612708577f303132333435363738396162636465660000000000000000000000000000000085600f16601081106126b657634e487b7160e01b600052603260045260246000fd5b1a60f81b8282815181106126da57634e487b7160e01b600052603260045260246000fd5b60200101906001600160f81b031916908160001a90535060049490941c93612701816131dc565b905061266a565b5083156124c75760405162461bcd60e51b815260206004820181905260248201527f537472696e67733a20686578206c656e67746820696e73756666696369656e746044820152606401610715565b61276081612022565b6040516001600160a01b038216907fbc7cd75a20ee27fd9adebab32041f755214dbc6bffa90cc0225b39da2e5c2d3b90600090a250565b60606001600160a01b0383163b6128165760405162461bcd60e51b815260206004820152602660248201527f416464726573733a2064656c65676174652063616c6c20746f206e6f6e2d636f60448201527f6e747261637400000000000000000000000000000000000000000000000000006064820152608401610715565b600080846001600160a01b0316846040516128319190613033565b600060405180830381855af49150503d806000811461286c576040519150601f19603f3d011682016040523d82523d6000602084013e612871565b606091505b509150915061289982826040518060600160405280602781526020016132cb60279139612bb1565b95945050505050565b60006128ad82611092565b90506128bb81600084611f9a565b6128c6600083611389565b6001600160a01b03811660009081526068602052604081208054600192906128ef908490613199565b909155505060008281526067602052604080822080546001600160a01b0319169055518391906001600160a01b038416907fddf252ad1be2c89b69c2b068fc378daa952ba7f163c4a11628f55a4df523b3ef908390a45050565b60608161296d5750506040805180820190915260018152600360fc1b602082015290565b8160005b811561299757806129818161322e565b91506129909050600a83613166565b9150612971565b60008167ffffffffffffffff8111156129c057634e487b7160e01b600052604160045260246000fd5b6040519080825280601f01601f1916602001820160405280156129ea576020820181803683370190505b5090505b841561146e576129ff600183613199565b9150612a0c600a86613249565b612a1790603061314e565b60f81b818381518110612a3a57634e487b7160e01b600052603260045260246000fd5b60200101906001600160f81b031916908160001a905350612a5c600a86613166565b94506129ee565b6001600160a01b038216612ab95760405162461bcd60e51b815260206004820181905260248201527f4552433732313a206d696e7420746f20746865207a65726f20616464726573736044820152606401610715565b6000818152606760205260409020546001600160a01b031615612b1e5760405162461bcd60e51b815260206004820152601c60248201527f4552433732313a20746f6b656e20616c7265616479206d696e746564000000006044820152606401610715565b612b2a60008383611f9a565b6001600160a01b0382166000908152606860205260408120805460019290612b5390849061314e565b909155505060008181526067602052604080822080546001600160a01b0319166001600160a01b03861690811790915590518392907fddf252ad1be2c89b69c2b068fc378daa952ba7f163c4a11628f55a4df523b3ef908290a45050565b60608315612bc05750816124c7565b825115612bd05782518084602001fd5b8160405162461bcd60e51b8152600401610715919061313b565b828054612bf6906131f3565b90600052602060002090601f016020900481019282612c185760008555612c5e565b82601f10612c3157805160ff1916838001178555612c5e565b82800160010185558215612c5e579182015b82811115612c5e578251825591602001919060010190612c43565b50612c6a929150612ca4565b5090565b508054612c7a906131f3565b6000825580601f10612c8a575050565b601f016020900490600052602060002090810190610a5e91905b5b80821115612c6a5760008155600101612ca5565b600067ffffffffffffffff80841115612cd457612cd4613289565b604051601f8501601f19908116603f01168101908282118183101715612cfc57612cfc613289565b81604052809350858152868686011115612d1557600080fd5b858560208301376000602087830101525050509392505050565b600082601f830112612d3f578081fd5b6124c783833560208501612cb9565b600060208284031215612d5f578081fd5b81356124c78161329f565b600060208284031215612d7b578081fd5b81516124c78161329f565b60008060408385031215612d98578081fd5b8235612da38161329f565b91506020830135612db38161329f565b809150509250929050565b600080600060608486031215612dd2578081fd5b8335612ddd8161329f565b92506020840135612ded8161329f565b929592945050506040919091013590565b60008060008060808587031215612e13578081fd5b8435612e1e8161329f565b93506020850135612e2e8161329f565b925060408501359150606085013567ffffffffffffffff811115612e50578182fd5b612e5c87828801612d2f565b91505092959194509250565b60008060408385031215612e7a578182fd5b8235612e858161329f565b915060208301358015158114612db3578182fd5b60008060408385031215612eab578182fd5b8235612eb68161329f565b9150602083013567ffffffffffffffff811115612ed1578182fd5b612edd85828601612d2f565b9150509250929050565b60008060408385031215612ef9578182fd5b8235612f048161329f565b9150602083013567ffffffffffffffff811115612f1f578182fd5b8301601f81018513612f2f578182fd5b612edd85823560208401612cb9565b60008060408385031215612f50578182fd5b8235612f5b8161329f565b946020939093013593505050565b600060208284031215612f7a578081fd5b5035919050565b600060208284031215612f92578081fd5b5051919050565b60008060408385031215612fab578081fd5b823591506020830135612db38161329f565b600060208284031215612fce578081fd5b81356124c7816132b4565b600060208284031215612fea578081fd5b81516124c7816132b4565b60008060408385031215612d98578182fd5b6000815180845261301f8160208601602086016131b0565b601f01601f19169290920160200192915050565b600082516130458184602087016131b0565b9190910192915050565b600083516130618184602088016131b0565b8351908301906130758183602088016131b0565b01949350505050565b7f416363657373436f6e74726f6c3a206163636f756e74200000000000000000008152600083516130b68160178501602088016131b0565b7f206973206d697373696e6720726f6c652000000000000000000000000000000060179184019182015283516130f38160288401602088016131b0565b01602801949350505050565b60006001600160a01b038087168352808616602084015250836040830152608060608301526131316080830184613007565b9695505050505050565b6020815260006124c76020830184613007565b600082198211156131615761316161325d565b500190565b60008261317557613175613273565b500490565b60008160001904831182151516156131945761319461325d565b500290565b6000828210156131ab576131ab61325d565b500390565b60005b838110156131cb5781810151838201526020016131b3565b838111156112565750506000910152565b6000816131eb576131eb61325d565b506000190190565b600181811c9082168061320757607f821691505b6020821081141561322857634e487b7160e01b600052602260045260246000fd5b50919050565b60006000198214156132425761324261325d565b5060010190565b60008261325857613258613273565b500690565b634e487b7160e01b600052601160045260246000fd5b634e487b7160e01b600052601260045260246000fd5b634e487b7160e01b600052604160045260246000fd5b6001600160a01b0381168114610a5e57600080fd5b6001600160e01b031981168114610a5e57600080fdfe416464726573733a206c6f772d6c6576656c2064656c65676174652063616c6c206661696c6564a26469706673582212208336c9a6a38fa82bd05b91e8d839e547980e91a5cdbd0913a3b3037b26dfd98a64736f6c63430008040033",
  "linkReferences": {},
  "deployedLinkReferences": {}
}