{
  "_format": "hh-sol-artifact-1",
  "contractName": "MockOpportunityOriginationV1",
  "sourceName": "contracts/test-contract/MockOpportunityOrigination-v1.sol",
  "abi": [
    {
      "inputs": [
        {
          "internalType": "address",
          "name": "_poolAddress",
          "type": "address"
        }
      ],
      "stateMutability": "nonpayable",
      "type": "constructor"
    },
    {
      "inputs": [
        {
          "internalType": "bytes32",
          "name": "id",
          "type": "bytes32"
        }
      ],
      "name": "getOpportunityPoolAddress",
      "outputs": [
        {
          "internalType": "address",
          "name": "",
          "type": "address"
        }
      ],
      "stateMutability": "view",
      "type": "function"
    },
    {
      "inputs": [
        {
          "internalType": "bytes32",
          "name": "id",
          "type": "bytes32"
        }
      ],
      "name": "isActive",
      "outputs": [
        {
          "internalType": "bool",
          "name": "",
          "type": "bool"
        }
      ],
      "stateMutability": "view",
      "type": "function"
    },
    {
      "inputs": [
        {
          "internalType": "bytes32",
          "name": "id",
          "type": "bytes32"
        }
      ],
      "name": "isDrawdown",
      "outputs": [
        {
          "internalType": "bool",
          "name": "",
          "type": "bool"
        }
      ],
      "stateMutability": "view",
      "type": "function"
    },
    {
      "inputs": [
        {
          "internalType": "bytes32",
          "name": "id",
          "type": "bytes32"
        }
      ],
      "name": "isRepaid",
      "outputs": [
        {
          "internalType": "bool",
          "name": "",
          "type": "bool"
        }
      ],
      "stateMutability": "view",
      "type": "function"
    },
    {
      "inputs": [],
      "name": "makeIsActiveFalse",
      "outputs": [],
      "stateMutability": "nonpayable",
      "type": "function"
    },
    {
      "inputs": [],
      "name": "makeIsRepaidFalse",
      "outputs": [],
      "stateMutability": "nonpayable",
      "type": "function"
    },
    {
      "inputs": [
        {
          "internalType": "bytes32",
          "name": "id",
          "type": "bytes32"
        },
        {
          "internalType": "address",
          "name": "add",
          "type": "address"
        }
      ],
      "name": "markWriteOff",
      "outputs": [],
      "stateMutability": "nonpayable",
      "type": "function"
    },
    {
      "inputs": [
        {
          "internalType": "uint256",
          "name": "_writeOffDays",
          "type": "uint256"
        }
      ],
      "name": "setWriteOffDays",
      "outputs": [],
      "stateMutability": "nonpayable",
      "type": "function"
    },
    {
      "inputs": [
        {
          "internalType": "bytes32",
          "name": "_id",
          "type": "bytes32"
        },
        {
          "internalType": "address",
          "name": "keeperAddress",
          "type": "address"
        },
        {
          "internalType": "bool",
          "name": "_isDrawdownBool",
          "type": "bool"
        }
      ],
      "name": "toCheckAddOpportunityInKeeper",
      "outputs": [],
      "stateMutability": "nonpayable",
      "type": "function"
    },
    {
      "inputs": [
        {
          "internalType": "address",
          "name": "keeperAddress",
          "type": "address"
        },
        {
          "internalType": "bool",
          "name": "_isUpkeepNeededBool",
          "type": "bool"
        }
      ],
      "name": "toCheckCheckUpkeep",
      "outputs": [
        {
          "internalType": "bool",
          "name": "",
          "type": "bool"
        }
      ],
      "stateMutability": "nonpayable",
      "type": "function"
    },
    {
      "inputs": [
        {
          "internalType": "bytes32",
          "name": "_id",
          "type": "bytes32"
        },
        {
          "internalType": "address",
          "name": "keeperAddress",
          "type": "address"
        }
      ],
      "name": "toCheckRemoveOpportunityInKeeper",
      "outputs": [],
      "stateMutability": "nonpayable",
      "type": "function"
    },
    {
      "inputs": [
        {
          "internalType": "address",
          "name": "keeperAddress",
          "type": "address"
        }
      ],
      "name": "toCheckperformUpkeep",
      "outputs": [],
      "stateMutability": "nonpayable",
      "type": "function"
    },
    {
      "inputs": [
        {
          "internalType": "bytes32",
          "name": "id",
          "type": "bytes32"
        }
      ],
      "name": "writeOffDaysOf",
      "outputs": [
        {
          "internalType": "uint256",
          "name": "",
          "type": "uint256"
        }
      ],
      "stateMutability": "view",
      "type": "function"
    }
  ],
  "bytecode": "0x60806040526000805463ffffffff1916630101010117905534801561002357600080fd5b5060405161071738038061071783398101604081905261004291610067565b600280546001600160a01b0319166001600160a01b0392909216919091179055610095565b600060208284031215610078578081fd5b81516001600160a01b038116811461008e578182fd5b9392505050565b610673806100a46000396000f3fe608060405234801561001057600080fd5b50600436106100bf5760003560e01c80637e4dc6d51161007c5780637e4dc6d51461015a5780638176715514610190578063a45d4268146101a3578063a8f1a73b146101b5578063c6078184146101c8578063d01eb1c7146101db578063eda6f389146101ee57600080fd5b806341dd56c2146100c45780634622abe0146100d757806355b01788146100ff5780635c36901c146101125780636dc305f914610125578063718df38c14610137575b600080fd5b6100d56000805462ff000019169055565b005b6100ea6100e5366004610578565b610201565b60405190151581526020015b60405180910390f35b6100d561010d366004610590565b610222565b6100ea610120366004610578565b610283565b6100d5610133366004610590565b5050565b61014c610145366004610578565b5060015490565b6040519081526020016100f6565b610178610168366004610578565b506002546001600160a01b031690565b6040516001600160a01b0390911681526020016100f6565b6100ea61019e366004610578565b61029d565b6100d56000805463ff00000019169055565b6100d56101c3366004610578565b600155565b6100ea6101d6366004610461565b6102b8565b6100d56101e9366004610440565b610357565b6100d56101fc3660046105bb565b6103b9565b6000805460ff161561021557506001919050565b506000919050565b919050565b60405163169bd1e960e11b81526004810183905281906001600160a01b03821690632d37a3d290602401600060405180830381600087803b15801561026657600080fd5b505af115801561027a573d6000803e3d6000fd5b50505050505050565b6000805462010000900460ff161561021557506001919050565b600080546301000000900460ff161561021557506001919050565b6000805461ff00191661010083151502178155604051636e04ff0d60e01b8152839082906001600160a01b03831690636e04ff0d906102f9906004016105fa565b60006040518083038186803b15801561031157600080fd5b505afa158015610325573d6000803e3d6000fd5b505050506040513d6000823e601f3d908101601f1916820160405261034d9190810190610497565b5095945050505050565b604051634585e33b60e01b815281906001600160a01b03821690634585e33b90610383906004016105fa565b600060405180830381600087803b15801561039d57600080fd5b505af11580156103b1573d6000803e3d6000fd5b505050505050565b6000805460ff1916821515179055604051633aa7c28360e01b81526004810184905282906001600160a01b03821690633aa7c28390602401600060405180830381600087803b15801561040b57600080fd5b505af115801561041f573d6000803e3d6000fd5b5050505050505050565b80356001600160a01b038116811461021d57600080fd5b600060208284031215610451578081fd5b61045a82610429565b9392505050565b60008060408385031215610473578081fd5b61047c83610429565b9150602083013561048c8161062c565b809150509250929050565b600080604083850312156104a9578182fd5b82516104b48161062c565b8092505060208084015167ffffffffffffffff808211156104d3578384fd5b818601915086601f8301126104e6578384fd5b8151818111156104f8576104f8610616565b604051601f8201601f19908116603f0116810190838211818310171561052057610520610616565b816040528281528986848701011115610537578687fd5b8693505b82841015610558578484018601518185018701529285019261053b565b8284111561056857868684830101525b8096505050505050509250929050565b600060208284031215610589578081fd5b5035919050565b600080604083850312156105a2578182fd5b823591506105b260208401610429565b90509250929050565b6000806000606084860312156105cf578081fd5b833592506105df60208501610429565b915060408401356105ef8161062c565b809150509250925092565b602080825260029082015261060f60f31b604082015260600190565b634e487b7160e01b600052604160045260246000fd5b801515811461063a57600080fd5b5056fea264697066735822122082212e612ac51c00569b70a27fd37e86bcfa723ce0d08bec122b78c044816c9764736f6c63430008040033",
  "linkReferences": {},
  "deployedLinkReferences": {}
}