{
  "_format": "hh-sol-artifact-1",
  "contractName": "MockOpportunityOriginationV1",
  "sourceName": "contracts/test-contract/MockOpportunityOrigination-v1.sol",
  "abi": [
    {
      "inputs": [
        {
          "internalType": "address",
          "name": "_poolAddress",
          "type": "address"
        }
      ],
      "stateMutability": "nonpayable",
      "type": "constructor"
    },
    {
      "inputs": [
        {
          "internalType": "bytes32",
          "name": "id",
          "type": "bytes32"
        }
      ],
      "name": "getOpportunityPoolAddress",
      "outputs": [
        {
          "internalType": "address",
          "name": "",
          "type": "address"
        }
      ],
      "stateMutability": "view",
      "type": "function"
    },
    {
      "inputs": [
        {
          "internalType": "bytes32",
          "name": "id",
          "type": "bytes32"
        }
      ],
      "name": "isActive",
      "outputs": [
        {
          "internalType": "bool",
          "name": "",
          "type": "bool"
        }
      ],
      "stateMutability": "view",
      "type": "function"
    },
    {
      "inputs": [
        {
          "internalType": "bytes32",
          "name": "id",
          "type": "bytes32"
        }
      ],
      "name": "isDrawdown",
      "outputs": [
        {
          "internalType": "bool",
          "name": "",
          "type": "bool"
        }
      ],
      "stateMutability": "view",
      "type": "function"
    },
    {
      "inputs": [
        {
          "internalType": "bytes32",
          "name": "id",
          "type": "bytes32"
        }
      ],
      "name": "isRepaid",
      "outputs": [
        {
          "internalType": "bool",
          "name": "",
          "type": "bool"
        }
      ],
      "stateMutability": "view",
      "type": "function"
    },
    {
      "inputs": [],
      "name": "makeIsActiveFalse",
      "outputs": [],
      "stateMutability": "nonpayable",
      "type": "function"
    },
    {
      "inputs": [],
      "name": "makeIsRepaidFalse",
      "outputs": [],
      "stateMutability": "nonpayable",
      "type": "function"
    },
    {
      "inputs": [
        {
          "internalType": "bytes32",
          "name": "_id",
          "type": "bytes32"
        },
        {
          "internalType": "address",
          "name": "keeperAddress",
          "type": "address"
        }
      ],
      "name": "markDrawDown",
      "outputs": [],
      "stateMutability": "nonpayable",
      "type": "function"
    },
    {
      "inputs": [
        {
          "internalType": "bytes32",
          "name": "_id",
          "type": "bytes32"
        },
        {
          "internalType": "address",
          "name": "keeperAddress",
          "type": "address"
        }
      ],
      "name": "markRepaid",
      "outputs": [],
      "stateMutability": "nonpayable",
      "type": "function"
    },
    {
      "inputs": [
        {
          "internalType": "bytes32",
          "name": "id",
          "type": "bytes32"
        },
        {
          "internalType": "address",
          "name": "add",
          "type": "address"
        }
      ],
      "name": "markWriteOff",
      "outputs": [],
      "stateMutability": "nonpayable",
      "type": "function"
    },
    {
      "inputs": [
        {
          "internalType": "bool",
          "name": "val",
          "type": "bool"
        }
      ],
      "name": "setIsDrawdown",
      "outputs": [],
      "stateMutability": "nonpayable",
      "type": "function"
    },
    {
      "inputs": [
        {
          "internalType": "uint256",
          "name": "_writeOffDays",
          "type": "uint256"
        }
      ],
      "name": "setWriteOffDays",
      "outputs": [],
      "stateMutability": "nonpayable",
      "type": "function"
    },
    {
      "inputs": [
        {
          "internalType": "bytes32",
          "name": "id",
          "type": "bytes32"
        }
      ],
      "name": "writeOffDaysOf",
      "outputs": [
        {
          "internalType": "uint256",
          "name": "",
          "type": "uint256"
        }
      ],
      "stateMutability": "view",
      "type": "function"
    }
  ],
  "bytecode": "0x60806040526000805463ffffffff1916630101010117905534801561002357600080fd5b5060405161042138038061042183398101604081905261004291610067565b600280546001600160a01b0319166001600160a01b0392909216919091179055610095565b600060208284031215610078578081fd5b81516001600160a01b038116811461008e578182fd5b9392505050565b61037d806100a46000396000f3fe608060405234801561001057600080fd5b50600436106100b45760003560e01c80637e4dc6d5116100715780637e4dc6d51461014f5780637e6854bc146101855780638176715514610198578063a45d4268146101ab578063a8f1a73b146101bd578063cbbcc323146101d057600080fd5b806336409502146100b957806341dd56c2146100ce5780634622abe0146100df5780635c36901c146101075780636dc305f91461011a578063718df38c1461012c575b600080fd5b6100cc6100c736600461030d565b6101f1565b005b6100cc6000805462ff000019169055565b6100f26100ed3660046102f5565b610250565b60405190151581526020015b60405180910390f35b6100f26101153660046102f5565b61026c565b6100cc61012836600461030d565b5050565b61014161013a3660046102f5565b5060015490565b6040519081526020016100fe565b61016d61015d3660046102f5565b506002546001600160a01b031690565b6040516001600160a01b0390911681526020016100fe565b6100cc61019336600461030d565b610286565b6100f26101a63660046102f5565b6102b3565b6100cc6000805463ff00000019169055565b6100cc6101cb3660046102f5565b600155565b6100cc6101de3660046102ce565b6000805460ff1916911515919091179055565b604051633aa7c28360e01b8152600481018390526001600160a01b03821690633aa7c283906024015b600060405180830381600087803b15801561023457600080fd5b505af1158015610248573d6000803e3d6000fd5b505050505050565b6000805460ff161561026457506001919050565b506000919050565b6000805462010000900460ff161561026457506001919050565b60405163169bd1e960e11b8152600481018390526001600160a01b03821690632d37a3d29060240161021a565b600080546301000000900460ff161561026457506001919050565b6000602082840312156102df578081fd5b813580151581146102ee578182fd5b9392505050565b600060208284031215610306578081fd5b5035919050565b6000806040838503121561031f578081fd5b8235915060208301356001600160a01b038116811461033c578182fd5b80915050925092905056fea26469706673582212206d88f96ec6ce5545642bb8c5d66fd986d717e324d42c74642c4e2ea8e287835a64736f6c63430008040033",
  "linkReferences": {},
  "deployedLinkReferences": {}
}