{
  "_format": "hh-sol-artifact-1",
  "contractName": "MockOpportunityOriginationV1",
  "sourceName": "contracts/test-contract/MockOpportunityOrigination-v1.sol",
  "abi": [
    {
      "inputs": [
        {
          "internalType": "address",
          "name": "_poolAddress",
          "type": "address"
        }
      ],
      "stateMutability": "nonpayable",
      "type": "constructor"
    },
    {
      "inputs": [
        {
          "internalType": "bytes32",
          "name": "id",
          "type": "bytes32"
        }
      ],
      "name": "getOpportunityPoolAddress",
      "outputs": [
        {
          "internalType": "address",
          "name": "",
          "type": "address"
        }
      ],
      "stateMutability": "view",
      "type": "function"
    },
    {
      "inputs": [
        {
          "internalType": "bytes32",
          "name": "id",
          "type": "bytes32"
        }
      ],
      "name": "isActive",
      "outputs": [
        {
          "internalType": "bool",
          "name": "",
          "type": "bool"
        }
      ],
      "stateMutability": "pure",
      "type": "function"
    },
    {
      "inputs": [
        {
          "internalType": "bytes32",
          "name": "id",
          "type": "bytes32"
        }
      ],
      "name": "isDrawdown",
      "outputs": [
        {
          "internalType": "bool",
          "name": "",
          "type": "bool"
        }
      ],
      "stateMutability": "view",
      "type": "function"
    },
    {
      "inputs": [
        {
          "internalType": "bytes32",
          "name": "id",
          "type": "bytes32"
        },
        {
          "internalType": "address",
          "name": "add",
          "type": "address"
        }
      ],
      "name": "markWriteOff",
      "outputs": [],
      "stateMutability": "nonpayable",
      "type": "function"
    },
    {
      "inputs": [
        {
          "internalType": "bytes32",
          "name": "_id",
          "type": "bytes32"
        },
        {
          "internalType": "address",
          "name": "keeperAddress",
          "type": "address"
        },
        {
          "internalType": "bool",
          "name": "_isDrawdownBool",
          "type": "bool"
        }
      ],
      "name": "toCheckAddOpportunityInKeeper",
      "outputs": [],
      "stateMutability": "nonpayable",
      "type": "function"
    },
    {
      "inputs": [
        {
          "internalType": "address",
          "name": "keeperAddress",
          "type": "address"
        },
        {
          "internalType": "bool",
          "name": "_isUpkeepNeededBool",
          "type": "bool"
        }
      ],
      "name": "toCheckCheckUpkeep",
      "outputs": [
        {
          "internalType": "bool",
          "name": "",
          "type": "bool"
        }
      ],
      "stateMutability": "nonpayable",
      "type": "function"
    },
    {
      "inputs": [
        {
          "internalType": "bytes32",
          "name": "_id",
          "type": "bytes32"
        },
        {
          "internalType": "address",
          "name": "keeperAddress",
          "type": "address"
        }
      ],
      "name": "toCheckRemoveOpportunityInKeeper",
      "outputs": [],
      "stateMutability": "nonpayable",
      "type": "function"
    },
    {
      "inputs": [
        {
          "internalType": "address",
          "name": "keeperAddress",
          "type": "address"
        }
      ],
      "name": "toCheckperformUpkeep",
      "outputs": [],
      "stateMutability": "nonpayable",
      "type": "function"
    },
    {
      "inputs": [
        {
          "internalType": "bytes32",
          "name": "id",
          "type": "bytes32"
        }
      ],
      "name": "writeOffDaysOf",
      "outputs": [
        {
          "internalType": "uint256",
          "name": "",
          "type": "uint256"
        }
      ],
      "stateMutability": "view",
      "type": "function"
    }
  ],
  "bytecode": "0x60806040526000805461ffff191661010117905534801561001f57600080fd5b5060405161068a38038061068a83398101604081905261003e9161006b565b600080546001600160a01b03909216620100000262010000600160b01b0319909216919091179055610099565b60006020828403121561007c578081fd5b81516001600160a01b0381168114610092578182fd5b9392505050565b6105e2806100a86000396000f3fe608060405234801561001057600080fd5b50600436106100835760003560e01c80634622abe01461008857806355b01788146100b05780635c36901c146100c55780636dc305f9146100d9578063718df38c146100eb5780637e4dc6d51461010c578063c607818414610148578063d01eb1c71461015b578063eda6f3891461016e575b600080fd5b61009b6100963660046104e7565b610181565b60405190151581526020015b60405180910390f35b6100c36100be3660046104ff565b6101a2565b005b61009b6100d33660046104e7565b50600190565b6100c36100e73660046104ff565b5050565b6100fe6100f93660046104e7565b610203565b6040519081526020016100a7565b61013061011a3660046104e7565b506000546201000090046001600160a01b031690565b6040516001600160a01b0390911681526020016100a7565b61009b6101563660046103d0565b610227565b6100c36101693660046103af565b6102c6565b6100c361017c36600461052a565b610328565b6000805460ff161561019557506001919050565b506000919050565b919050565b60405163169bd1e960e11b81526004810183905281906001600160a01b03821690632d37a3d290602401600060405180830381600087803b1580156101e657600080fd5b505af11580156101fa573d6000803e3d6000fd5b50505050505050565b60008054610100900460ff161561021c57506064919050565b50632dc1d8d6919050565b6000805461ff00191661010083151502178155604051636e04ff0d60e01b8152839082906001600160a01b03831690636e04ff0d9061026890600401610569565b60006040518083038186803b15801561028057600080fd5b505afa158015610294573d6000803e3d6000fd5b505050506040513d6000823e601f3d908101601f191682016040526102bc9190810190610406565b5095945050505050565b604051634585e33b60e01b815281906001600160a01b03821690634585e33b906102f290600401610569565b600060405180830381600087803b15801561030c57600080fd5b505af1158015610320573d6000803e3d6000fd5b505050505050565b6000805460ff1916821515179055604051633aa7c28360e01b81526004810184905282906001600160a01b03821690633aa7c28390602401600060405180830381600087803b15801561037a57600080fd5b505af115801561038e573d6000803e3d6000fd5b5050505050505050565b80356001600160a01b038116811461019d57600080fd5b6000602082840312156103c0578081fd5b6103c982610398565b9392505050565b600080604083850312156103e2578081fd5b6103eb83610398565b915060208301356103fb8161059b565b809150509250929050565b60008060408385031215610418578182fd5b82516104238161059b565b8092505060208084015167ffffffffffffffff80821115610442578384fd5b818601915086601f830112610455578384fd5b81518181111561046757610467610585565b604051601f8201601f19908116603f0116810190838211818310171561048f5761048f610585565b8160405282815289868487010111156104a6578687fd5b8693505b828410156104c757848401860151818501870152928501926104aa565b828411156104d757868684830101525b8096505050505050509250929050565b6000602082840312156104f8578081fd5b5035919050565b60008060408385031215610511578182fd5b8235915061052160208401610398565b90509250929050565b60008060006060848603121561053e578081fd5b8335925061054e60208501610398565b9150604084013561055e8161059b565b809150509250925092565b602080825260029082015261060f60f31b604082015260600190565b634e487b7160e01b600052604160045260246000fd5b80151581146105a957600080fd5b5056fea2646970667358221220f3c148d15720d9c501cc9e483940de54422b7f9f415371d1bd3576ee43b3d26964736f6c63430008040033",
  "linkReferences": {},
  "deployedLinkReferences": {}
}