{
  "_format": "hh-sol-artifact-1",
  "contractName": "MockOpportunityOriginationV1",
  "sourceName": "contracts/test-contract/MockOpportunityOrigination-v1.sol",
  "abi": [
    {
      "inputs": [
        {
          "internalType": "address",
          "name": "_poolAddress",
          "type": "address"
        }
      ],
      "stateMutability": "nonpayable",
      "type": "constructor"
    },
    {
      "inputs": [
        {
          "internalType": "bytes32",
          "name": "id",
          "type": "bytes32"
        }
      ],
      "name": "getOpportunityPoolAddress",
      "outputs": [
        {
          "internalType": "address",
          "name": "",
          "type": "address"
        }
      ],
      "stateMutability": "view",
      "type": "function"
    },
    {
      "inputs": [
        {
          "internalType": "bytes32",
          "name": "id",
          "type": "bytes32"
        }
      ],
      "name": "isActive",
      "outputs": [
        {
          "internalType": "bool",
          "name": "",
          "type": "bool"
        }
      ],
      "stateMutability": "view",
      "type": "function"
    },
    {
      "inputs": [
        {
          "internalType": "bytes32",
          "name": "id",
          "type": "bytes32"
        }
      ],
      "name": "isDrawdown",
      "outputs": [
        {
          "internalType": "bool",
          "name": "",
          "type": "bool"
        }
      ],
      "stateMutability": "view",
      "type": "function"
    },
    {
      "inputs": [
        {
          "internalType": "bytes32",
          "name": "id",
          "type": "bytes32"
        }
      ],
      "name": "isRepaid",
      "outputs": [
        {
          "internalType": "bool",
          "name": "",
          "type": "bool"
        }
      ],
      "stateMutability": "view",
      "type": "function"
    },
    {
      "inputs": [],
      "name": "makeIsActiveFalse",
      "outputs": [],
      "stateMutability": "nonpayable",
      "type": "function"
    },
    {
      "inputs": [],
      "name": "makeIsRepaidFalse",
      "outputs": [],
      "stateMutability": "nonpayable",
      "type": "function"
    },
    {
      "inputs": [
        {
          "internalType": "bytes32",
          "name": "id",
          "type": "bytes32"
        },
        {
          "internalType": "address",
          "name": "add",
          "type": "address"
        }
      ],
      "name": "markWriteOff",
      "outputs": [],
      "stateMutability": "nonpayable",
      "type": "function"
    },
    {
      "inputs": [
        {
          "internalType": "bytes32",
          "name": "_id",
          "type": "bytes32"
        },
        {
          "internalType": "address",
          "name": "keeperAddress",
          "type": "address"
        },
        {
          "internalType": "bool",
          "name": "_isDrawdownBool",
          "type": "bool"
        }
      ],
      "name": "toCheckAddOpportunityInKeeper",
      "outputs": [],
      "stateMutability": "nonpayable",
      "type": "function"
    },
    {
      "inputs": [
        {
          "internalType": "address",
          "name": "keeperAddress",
          "type": "address"
        },
        {
          "internalType": "bool",
          "name": "_isUpkeepNeededBool",
          "type": "bool"
        }
      ],
      "name": "toCheckCheckUpkeep",
      "outputs": [
        {
          "internalType": "bool",
          "name": "",
          "type": "bool"
        }
      ],
      "stateMutability": "nonpayable",
      "type": "function"
    },
    {
      "inputs": [
        {
          "internalType": "bytes32",
          "name": "_id",
          "type": "bytes32"
        },
        {
          "internalType": "address",
          "name": "keeperAddress",
          "type": "address"
        }
      ],
      "name": "toCheckRemoveOpportunityInKeeper",
      "outputs": [],
      "stateMutability": "nonpayable",
      "type": "function"
    },
    {
      "inputs": [
        {
          "internalType": "address",
          "name": "keeperAddress",
          "type": "address"
        }
      ],
      "name": "toCheckperformUpkeep",
      "outputs": [],
      "stateMutability": "nonpayable",
      "type": "function"
    },
    {
      "inputs": [
        {
          "internalType": "bytes32",
          "name": "id",
          "type": "bytes32"
        }
      ],
      "name": "writeOffDaysOf",
      "outputs": [
        {
          "internalType": "uint256",
          "name": "",
          "type": "uint256"
        }
      ],
      "stateMutability": "view",
      "type": "function"
    }
  ],
  "bytecode": "0x60806040526000805463ffffffff1916630101010117905534801561002357600080fd5b5060405161072e38038061072e83398101604081905261004291610072565b600080546001600160a01b0390921664010000000002600160201b600160c01b03199092169190911790556100a0565b600060208284031215610083578081fd5b81516001600160a01b0381168114610099578182fd5b9392505050565b61067f806100af6000396000f3fe608060405234801561001057600080fd5b50600436106100b45760003560e01c80637e4dc6d5116100715780637e4dc6d51461014d578063817671551461018b578063a45d42681461019e578063c6078184146101b0578063d01eb1c7146101c3578063eda6f389146101d657600080fd5b806341dd56c2146100b95780634622abe0146100cc57806355b01788146100f45780635c36901c146101075780636dc305f91461011a578063718df38c1461012c575b600080fd5b6100ca6000805462ff000019169055565b005b6100df6100da366004610584565b6101e9565b60405190151581526020015b60405180910390f35b6100ca61010236600461059c565b61020a565b6100df610115366004610584565b61026b565b6100ca61012836600461059c565b5050565b61013f61013a366004610584565b610285565b6040519081526020016100eb565b61017361015b366004610584565b5060005464010000000090046001600160a01b031690565b6040516001600160a01b0390911681526020016100eb565b6100df610199366004610584565b6102a9565b6100ca6000805463ff00000019169055565b6100df6101be36600461046d565b6102c4565b6100ca6101d136600461044c565b610363565b6100ca6101e43660046105c7565b6103c5565b6000805460ff16156101fd57506001919050565b506000919050565b919050565b60405163169bd1e960e11b81526004810183905281906001600160a01b03821690632d37a3d290602401600060405180830381600087803b15801561024e57600080fd5b505af1158015610262573d6000803e3d6000fd5b50505050505050565b6000805462010000900460ff16156101fd57506001919050565b60008054610100900460ff161561029e57506064919050565b50632dc1d8d6919050565b600080546301000000900460ff16156101fd57506001919050565b6000805461ff00191661010083151502178155604051636e04ff0d60e01b8152839082906001600160a01b03831690636e04ff0d9061030590600401610606565b60006040518083038186803b15801561031d57600080fd5b505afa158015610331573d6000803e3d6000fd5b505050506040513d6000823e601f3d908101601f1916820160405261035991908101906104a3565b5095945050505050565b604051634585e33b60e01b815281906001600160a01b03821690634585e33b9061038f90600401610606565b600060405180830381600087803b1580156103a957600080fd5b505af11580156103bd573d6000803e3d6000fd5b505050505050565b6000805460ff1916821515179055604051633aa7c28360e01b81526004810184905282906001600160a01b03821690633aa7c28390602401600060405180830381600087803b15801561041757600080fd5b505af115801561042b573d6000803e3d6000fd5b5050505050505050565b80356001600160a01b038116811461020557600080fd5b60006020828403121561045d578081fd5b61046682610435565b9392505050565b6000806040838503121561047f578081fd5b61048883610435565b9150602083013561049881610638565b809150509250929050565b600080604083850312156104b5578182fd5b82516104c081610638565b8092505060208084015167ffffffffffffffff808211156104df578384fd5b818601915086601f8301126104f2578384fd5b81518181111561050457610504610622565b604051601f8201601f19908116603f0116810190838211818310171561052c5761052c610622565b816040528281528986848701011115610543578687fd5b8693505b828410156105645784840186015181850187015292850192610547565b8284111561057457868684830101525b8096505050505050509250929050565b600060208284031215610595578081fd5b5035919050565b600080604083850312156105ae578182fd5b823591506105be60208401610435565b90509250929050565b6000806000606084860312156105db578081fd5b833592506105eb60208501610435565b915060408401356105fb81610638565b809150509250925092565b602080825260029082015261060f60f31b604082015260600190565b634e487b7160e01b600052604160045260246000fd5b801515811461064657600080fd5b5056fea2646970667358221220f101c61461d595ea79aa0227148d6862d3908477eda9c3e4988c4decb8fd131064736f6c63430008040033",
  "linkReferences": {},
  "deployedLinkReferences": {}
}