{
  "_format": "hh-sol-artifact-1",
  "contractName": "OpportunityOrigination",
  "sourceName": "contracts/protocol/OpportunityOrigination.sol",
  "abi": [
    {
      "anonymous": false,
      "inputs": [
        {
          "indexed": false,
          "internalType": "uint8",
          "name": "version",
          "type": "uint8"
        }
      ],
      "name": "Initialized",
      "type": "event"
    },
    {
      "anonymous": false,
      "inputs": [
        {
          "indexed": false,
          "internalType": "address",
          "name": "account",
          "type": "address"
        }
      ],
      "name": "Paused",
      "type": "event"
    },
    {
      "anonymous": false,
      "inputs": [
        {
          "indexed": true,
          "internalType": "bytes32",
          "name": "role",
          "type": "bytes32"
        },
        {
          "indexed": true,
          "internalType": "bytes32",
          "name": "previousAdminRole",
          "type": "bytes32"
        },
        {
          "indexed": true,
          "internalType": "bytes32",
          "name": "newAdminRole",
          "type": "bytes32"
        }
      ],
      "name": "RoleAdminChanged",
      "type": "event"
    },
    {
      "anonymous": false,
      "inputs": [
        {
          "indexed": true,
          "internalType": "bytes32",
          "name": "role",
          "type": "bytes32"
        },
        {
          "indexed": true,
          "internalType": "address",
          "name": "account",
          "type": "address"
        },
        {
          "indexed": true,
          "internalType": "address",
          "name": "sender",
          "type": "address"
        }
      ],
      "name": "RoleGranted",
      "type": "event"
    },
    {
      "anonymous": false,
      "inputs": [
        {
          "indexed": true,
          "internalType": "bytes32",
          "name": "role",
          "type": "bytes32"
        },
        {
          "indexed": true,
          "internalType": "address",
          "name": "account",
          "type": "address"
        },
        {
          "indexed": true,
          "internalType": "address",
          "name": "sender",
          "type": "address"
        }
      ],
      "name": "RoleRevoked",
      "type": "event"
    },
    {
      "anonymous": false,
      "inputs": [
        {
          "indexed": false,
          "internalType": "address",
          "name": "account",
          "type": "address"
        }
      ],
      "name": "Unpaused",
      "type": "event"
    },
    {
      "inputs": [],
      "name": "ADMIN_ROLE",
      "outputs": [
        {
          "internalType": "bytes32",
          "name": "",
          "type": "bytes32"
        }
      ],
      "stateMutability": "view",
      "type": "function"
    },
    {
      "inputs": [],
      "name": "DEFAULT_ADMIN_ROLE",
      "outputs": [
        {
          "internalType": "bytes32",
          "name": "",
          "type": "bytes32"
        }
      ],
      "stateMutability": "view",
      "type": "function"
    },
    {
      "inputs": [],
      "name": "PAUSER_ROLE",
      "outputs": [
        {
          "internalType": "bytes32",
          "name": "",
          "type": "bytes32"
        }
      ],
      "stateMutability": "view",
      "type": "function"
    },
    {
      "inputs": [
        {
          "internalType": "address",
          "name": "owner",
          "type": "address"
        }
      ],
      "name": "_BaseUpgradeablePausable_init",
      "outputs": [],
      "stateMutability": "nonpayable",
      "type": "function"
    },
    {
      "inputs": [],
      "name": "__PauserPausable__init",
      "outputs": [],
      "stateMutability": "nonpayable",
      "type": "function"
    },
    {
      "inputs": [
        {
          "internalType": "bytes32",
          "name": "_opportunityId",
          "type": "bytes32"
        },
        {
          "internalType": "address",
          "name": "_underwriter",
          "type": "address"
        }
      ],
      "name": "assignUnderwriters",
      "outputs": [],
      "stateMutability": "nonpayable",
      "type": "function"
    },
    {
      "inputs": [],
      "name": "collateralToken",
      "outputs": [
        {
          "internalType": "contract CollateralToken",
          "name": "",
          "type": "address"
        }
      ],
      "stateMutability": "view",
      "type": "function"
    },
    {
      "inputs": [
        {
          "components": [
            {
              "internalType": "address",
              "name": "borrower",
              "type": "address"
            },
            {
              "internalType": "string",
              "name": "opportunityName",
              "type": "string"
            },
            {
              "internalType": "string",
              "name": "opportunityInfo",
              "type": "string"
            },
            {
              "internalType": "enum IOpportunityOrigination.LoanType",
              "name": "loanType",
              "type": "uint8"
            },
            {
              "internalType": "uint256",
              "name": "loanAmount",
              "type": "uint256"
            },
            {
              "internalType": "uint256",
              "name": "loanTenureInDays",
              "type": "uint256"
            },
            {
              "internalType": "uint256",
              "name": "loanInterest",
              "type": "uint256"
            },
            {
              "internalType": "uint256",
              "name": "paymentFrequencyInDays",
              "type": "uint256"
            },
            {
              "internalType": "string",
              "name": "collateralDocument",
              "type": "string"
            },
            {
              "internalType": "uint256",
              "name": "capitalLoss",
              "type": "uint256"
            }
          ],
          "internalType": "struct IOpportunityOrigination.CreateOpportunity",
          "name": "_opportunityData",
          "type": "tuple"
        }
      ],
      "name": "createOpportunity",
      "outputs": [],
      "stateMutability": "nonpayable",
      "type": "function"
    },
    {
      "inputs": [],
      "name": "dygnifyConfig",
      "outputs": [
        {
          "internalType": "contract DygnifyConfig",
          "name": "",
          "type": "address"
        }
      ],
      "stateMutability": "view",
      "type": "function"
    },
    {
      "inputs": [
        {
          "internalType": "address",
          "name": "borrower",
          "type": "address"
        }
      ],
      "name": "getAlltheOpportunitiesOf",
      "outputs": [
        {
          "internalType": "bytes32[]",
          "name": "",
          "type": "bytes32[]"
        }
      ],
      "stateMutability": "view",
      "type": "function"
    },
    {
      "inputs": [
        {
          "internalType": "bytes32",
          "name": "id",
          "type": "bytes32"
        }
      ],
      "name": "getBorrower",
      "outputs": [
        {
          "internalType": "address",
          "name": "",
          "type": "address"
        }
      ],
      "stateMutability": "view",
      "type": "function"
    },
    {
      "inputs": [
        {
          "internalType": "bytes32",
          "name": "_opportunityId",
          "type": "bytes32"
        }
      ],
      "name": "getOpportunityNameOf",
      "outputs": [
        {
          "internalType": "string",
          "name": "",
          "type": "string"
        }
      ],
      "stateMutability": "view",
      "type": "function"
    },
    {
      "inputs": [
        {
          "internalType": "address",
          "name": "_borrower",
          "type": "address"
        }
      ],
      "name": "getOpportunityOf",
      "outputs": [
        {
          "internalType": "bytes32[]",
          "name": "",
          "type": "bytes32[]"
        }
      ],
      "stateMutability": "view",
      "type": "function"
    },
    {
      "inputs": [
        {
          "internalType": "bytes32",
          "name": "id",
          "type": "bytes32"
        }
      ],
      "name": "getOpportunityPoolAddress",
      "outputs": [
        {
          "internalType": "address",
          "name": "",
          "type": "address"
        }
      ],
      "stateMutability": "view",
      "type": "function"
    },
    {
      "inputs": [
        {
          "internalType": "bytes32",
          "name": "role",
          "type": "bytes32"
        }
      ],
      "name": "getRoleAdmin",
      "outputs": [
        {
          "internalType": "bytes32",
          "name": "",
          "type": "bytes32"
        }
      ],
      "stateMutability": "view",
      "type": "function"
    },
    {
      "inputs": [],
      "name": "getTotalOpportunities",
      "outputs": [
        {
          "internalType": "uint256",
          "name": "",
          "type": "uint256"
        }
      ],
      "stateMutability": "view",
      "type": "function"
    },
    {
      "inputs": [
        {
          "internalType": "address",
          "name": "_underwriter",
          "type": "address"
        }
      ],
      "name": "getUnderWritersOpportunities",
      "outputs": [
        {
          "internalType": "bytes32[]",
          "name": "",
          "type": "bytes32[]"
        }
      ],
      "stateMutability": "view",
      "type": "function"
    },
    {
      "inputs": [
        {
          "internalType": "bytes32",
          "name": "role",
          "type": "bytes32"
        },
        {
          "internalType": "address",
          "name": "account",
          "type": "address"
        }
      ],
      "name": "grantRole",
      "outputs": [],
      "stateMutability": "nonpayable",
      "type": "function"
    },
    {
      "inputs": [
        {
          "internalType": "bytes32",
          "name": "role",
          "type": "bytes32"
        },
        {
          "internalType": "address",
          "name": "account",
          "type": "address"
        }
      ],
      "name": "hasRole",
      "outputs": [
        {
          "internalType": "bool",
          "name": "",
          "type": "bool"
        }
      ],
      "stateMutability": "view",
      "type": "function"
    },
    {
      "inputs": [
        {
          "internalType": "contract DygnifyConfig",
          "name": "config",
          "type": "address"
        }
      ],
      "name": "initialize",
      "outputs": [],
      "stateMutability": "nonpayable",
      "type": "function"
    },
    {
      "inputs": [
        {
          "internalType": "bytes32",
          "name": "id",
          "type": "bytes32"
        }
      ],
      "name": "isActive",
      "outputs": [
        {
          "internalType": "bool",
          "name": "",
          "type": "bool"
        }
      ],
      "stateMutability": "view",
      "type": "function"
    },
    {
      "inputs": [],
      "name": "isAdmin",
      "outputs": [
        {
          "internalType": "bool",
          "name": "",
          "type": "bool"
        }
      ],
      "stateMutability": "view",
      "type": "function"
    },
    {
      "inputs": [
        {
          "internalType": "bytes32",
          "name": "id",
          "type": "bytes32"
        }
      ],
      "name": "isDrawdown",
      "outputs": [
        {
          "internalType": "bool",
          "name": "",
          "type": "bool"
        }
      ],
      "stateMutability": "view",
      "type": "function"
    },
    {
      "inputs": [
        {
          "internalType": "bytes32",
          "name": "",
          "type": "bytes32"
        }
      ],
      "name": "isOpportunity",
      "outputs": [
        {
          "internalType": "bool",
          "name": "",
          "type": "bool"
        }
      ],
      "stateMutability": "view",
      "type": "function"
    },
    {
      "inputs": [
        {
          "internalType": "bytes32",
          "name": "id",
          "type": "bytes32"
        }
      ],
      "name": "isRepaid",
      "outputs": [
        {
          "internalType": "bool",
          "name": "",
          "type": "bool"
        }
      ],
      "stateMutability": "view",
      "type": "function"
    },
    {
      "inputs": [
        {
          "internalType": "bytes32",
          "name": "id",
          "type": "bytes32"
        }
      ],
      "name": "isWriteOff",
      "outputs": [
        {
          "internalType": "bool",
          "name": "",
          "type": "bool"
        }
      ],
      "stateMutability": "view",
      "type": "function"
    },
    {
      "inputs": [
        {
          "internalType": "bytes32",
          "name": "id",
          "type": "bytes32"
        }
      ],
      "name": "markDrawDown",
      "outputs": [],
      "stateMutability": "nonpayable",
      "type": "function"
    },
    {
      "inputs": [
        {
          "internalType": "bytes32",
          "name": "id",
          "type": "bytes32"
        }
      ],
      "name": "markRepaid",
      "outputs": [],
      "stateMutability": "nonpayable",
      "type": "function"
    },
    {
      "inputs": [
        {
          "internalType": "bytes32",
          "name": "id",
          "type": "bytes32"
        },
        {
          "internalType": "address",
          "name": "_pool",
          "type": "address"
        }
      ],
      "name": "markWriteOff",
      "outputs": [],
      "stateMutability": "nonpayable",
      "type": "function"
    },
    {
      "inputs": [
        {
          "internalType": "uint256",
          "name": "",
          "type": "uint256"
        }
      ],
      "name": "opportunityIds",
      "outputs": [
        {
          "internalType": "bytes32",
          "name": "",
          "type": "bytes32"
        }
      ],
      "stateMutability": "view",
      "type": "function"
    },
    {
      "inputs": [
        {
          "internalType": "address",
          "name": "",
          "type": "address"
        },
        {
          "internalType": "uint256",
          "name": "",
          "type": "uint256"
        }
      ],
      "name": "opportunityOf",
      "outputs": [
        {
          "internalType": "bytes32",
          "name": "",
          "type": "bytes32"
        }
      ],
      "stateMutability": "view",
      "type": "function"
    },
    {
      "inputs": [
        {
          "internalType": "bytes32",
          "name": "",
          "type": "bytes32"
        }
      ],
      "name": "opportunityToId",
      "outputs": [
        {
          "internalType": "bytes32",
          "name": "opportunityID",
          "type": "bytes32"
        },
        {
          "internalType": "address",
          "name": "borrower",
          "type": "address"
        },
        {
          "internalType": "string",
          "name": "opportunityName",
          "type": "string"
        },
        {
          "internalType": "string",
          "name": "opportunityInfo",
          "type": "string"
        },
        {
          "internalType": "enum IOpportunityOrigination.LoanType",
          "name": "loanType",
          "type": "uint8"
        },
        {
          "internalType": "uint256",
          "name": "loanAmount",
          "type": "uint256"
        },
        {
          "internalType": "uint256",
          "name": "loanTenureInDays",
          "type": "uint256"
        },
        {
          "internalType": "uint256",
          "name": "loanInterest",
          "type": "uint256"
        },
        {
          "internalType": "uint256",
          "name": "paymentFrequencyInDays",
          "type": "uint256"
        },
        {
          "internalType": "string",
          "name": "collateralDocument",
          "type": "string"
        },
        {
          "internalType": "uint256",
          "name": "capitalLoss",
          "type": "uint256"
        },
        {
          "internalType": "enum IOpportunityOrigination.OpportunityStatus",
          "name": "opportunityStatus",
          "type": "uint8"
        },
        {
          "internalType": "address",
          "name": "opportunityPoolAddress",
          "type": "address"
        },
        {
          "internalType": "uint256",
          "name": "createdOn",
          "type": "uint256"
        }
      ],
      "stateMutability": "view",
      "type": "function"
    },
    {
      "inputs": [],
      "name": "pause",
      "outputs": [],
      "stateMutability": "nonpayable",
      "type": "function"
    },
    {
      "inputs": [],
      "name": "paused",
      "outputs": [
        {
          "internalType": "bool",
          "name": "",
          "type": "bool"
        }
      ],
      "stateMutability": "view",
      "type": "function"
    },
    {
      "inputs": [
        {
          "internalType": "bytes32",
          "name": "role",
          "type": "bytes32"
        },
        {
          "internalType": "address",
          "name": "account",
          "type": "address"
        }
      ],
      "name": "renounceRole",
      "outputs": [],
      "stateMutability": "nonpayable",
      "type": "function"
    },
    {
      "inputs": [
        {
          "internalType": "bytes32",
          "name": "role",
          "type": "bytes32"
        },
        {
          "internalType": "address",
          "name": "account",
          "type": "address"
        }
      ],
      "name": "revokeRole",
      "outputs": [],
      "stateMutability": "nonpayable",
      "type": "function"
    },
    {
      "inputs": [
        {
          "internalType": "bytes4",
          "name": "interfaceId",
          "type": "bytes4"
        }
      ],
      "name": "supportsInterface",
      "outputs": [
        {
          "internalType": "bool",
          "name": "",
          "type": "bool"
        }
      ],
      "stateMutability": "view",
      "type": "function"
    },
    {
      "inputs": [
        {
          "internalType": "address",
          "name": "",
          "type": "address"
        },
        {
          "internalType": "uint256",
          "name": "",
          "type": "uint256"
        }
      ],
      "name": "underwriterToOpportunity",
      "outputs": [
        {
          "internalType": "bytes32",
          "name": "",
          "type": "bytes32"
        }
      ],
      "stateMutability": "view",
      "type": "function"
    },
    {
      "inputs": [],
      "name": "unpause",
      "outputs": [],
      "stateMutability": "nonpayable",
      "type": "function"
    },
    {
      "inputs": [
        {
          "internalType": "bytes32",
          "name": "_opportunityId",
          "type": "bytes32"
        },
        {
          "internalType": "uint8",
          "name": "_status",
          "type": "uint8"
        }
      ],
      "name": "voteOpportunity",
      "outputs": [],
      "stateMutability": "nonpayable",
      "type": "function"
    }
  ],
  "bytecode": "0x608060405234801561001057600080fd5b5061406a806100206000396000f3fe608060405234801561001057600080fd5b50600436106102c85760003560e01c80637a8f55601161017b578063b369be54116100d8578063e2f372241161008c578063e87ec15f11610071578063e87ec15f14610616578063f00474a614610629578063f1bae27d1461064957600080fd5b8063e2f37224146105dc578063e63ab1e9146105ef57600080fd5b8063c4d66de8116100bd578063c4d66de814610592578063d547741f146105a5578063e0bb77e3146105b857600080fd5b8063b369be5414610577578063b6db75a01461058a57600080fd5b806391d148541161012f578063a217fddf11610114578063a217fddf14610549578063af7ea94414610551578063b2016bd41461056457600080fd5b806391d14854146104fd578063a12dde4d1461053657600080fd5b8063817671551161016057806381767155146104cf5780638456cb59146104e257806389eb01fc146104ea57600080fd5b80637a8f5560146104a95780637e4dc6d5146104bc57600080fd5b80634622abe0116102295780636815322c116101dd578063728c3ea2116101c2578063728c3ea21461045c57806375b238fc1461046f5780637921c67d1461049657600080fd5b80636815322c146104365780636dc305f91461044957600080fd5b8063526d81f61161020e578063526d81f6146104105780635c36901c146104185780635c975abb1461042b57600080fd5b80634622abe0146103f4578063486caf7c1461040757600080fd5b80632885f8b911610280578063332f148611610265578063332f1486146103c657806336568abe146103d95780633f4ba83a146103ec57600080fd5b80632885f8b91461039e5780632f2ff15d146103b357600080fd5b80631633f5a3116102b15780631633f5a3146103225780631be9545914610342578063248a9ca31461036d57600080fd5b806301ffc9a7146102cd5780630bca245a146102f5575b600080fd5b6102e06102db366004613af5565b61065c565b60405190151581526020015b60405180910390f35b610308610303366004613a85565b6106c5565b6040516102ec9e9d9c9b9a99989796959493929190613e11565b610335610330366004613a22565b6108e8565b6040516102ec9190613dcd565b60fb54610355906001600160a01b031681565b6040516001600160a01b0390911681526020016102ec565b61039061037b366004613a85565b60009081526065602052604090206001015490565b6040519081526020016102ec565b6103b16103ac366004613acc565b6109b3565b005b6103b16103c1366004613a9d565b610c61565b6103b16103d4366004613a85565b610c8b565b6103b16103e7366004613a9d565b610f11565b6103b1610f9d565b6102e0610402366004613a85565b611032565b61010254610390565b6103b16110dc565b6102e0610426366004613a85565b6111fc565b60975460ff166102e0565b6102e0610444366004613a85565b611254565b6103b1610457366004613a9d565b6112ac565b61035561046a366004613a85565b6114bb565b6103907fa49807205ce4d355092ef5a8a18f56e8913cf4a201fbe287825b095693c2177581565b6103906104a4366004613a5a565b61152b565b6103906104b7366004613a5a565b61155c565b6103556104ca366004613a85565b611579565b6102e06104dd366004613a85565b61170b565b6103b1611763565b6103356104f8366004613a22565b6117f6565b6102e061050b366004613a9d565b60009182526065602090815260408084206001600160a01b0393909316845291905290205460ff1690565b6103b1610544366004613a22565b6118b9565b610390600081565b6103b161055f366004613a85565b611a5a565b60fc54610355906001600160a01b031681565b610335610585366004613a22565b611c99565b6102e0611d5b565b6103b16105a0366004613a22565b611d8c565b6103b16105b3366004613a9d565b611fd5565b6102e06105c6366004613a85565b60ff602081905260009182526040909120541681565b6103b16105ea366004613b1d565b611ffa565b6103907f65d7a28e3265b37a6474929f336521b332c1681b933f6cb9f3376673440d862a81565b6103b1610624366004613a9d565b612704565b61063c610637366004613a85565b61296c565b6040516102ec9190613ec7565b610390610657366004613a85565b612ca9565b60006001600160e01b031982167f7965db0b0000000000000000000000000000000000000000000000000000000014806106bf57507f01ffc9a7000000000000000000000000000000000000000000000000000000006001600160e01b03198316145b92915050565b60fd6020526000908152604090208054600182015460028301805492936001600160a01b03909216926106f790613f82565b80601f016020809104026020016040519081016040528092919081815260200182805461072390613f82565b80156107705780601f1061074557610100808354040283529160200191610770565b820191906000526020600020905b81548152906001019060200180831161075357829003601f168201915b50505050509080600301805461078590613f82565b80601f01602080910402602001604051908101604052809291908181526020018280546107b190613f82565b80156107fe5780601f106107d3576101008083540402835291602001916107fe565b820191906000526020600020905b8154815290600101906020018083116107e157829003601f168201915b5050505050908060040160009054906101000a900460ff169080600501549080600601549080600701549080600801549080600901805461083e90613f82565b80601f016020809104026020016040519081016040528092919081815260200182805461086a90613f82565b80156108b75780601f1061088c576101008083540402835291602001916108b7565b820191906000526020600020905b81548152906001019060200180831161089a57829003601f168201915b50505050600a830154600b840154600c909401549293909260ff821692506101009091046001600160a01b0316908e565b60606001600160a01b0382166109455760405162461bcd60e51b815260206004820152601b60248201527f496e76616c696420756e6465727772697465722073646472657373000000000060448201526064015b60405180910390fd5b6001600160a01b038216600090815261010160209081526040808320805482518185028101850190935280835291929091908301828280156109a657602002820191906000526020600020905b815481526020019060010190808311610992575b5093979650505050505050565b600260c9541415610a065760405162461bcd60e51b815260206004820152601f60248201527f5265656e7472616e637947756172643a207265656e7472616e742063616c6c00604482015260640161093c565b600260c955610a13612ccb565b600082815261010060205260409020546001600160a01b03163314610aa05760405162461bcd60e51b815260206004820152602d60248201527f596f7520617265206e6f7420616e206175646969746f7220666f72207468697360448201527f204f70706f7274756e6974792e00000000000000000000000000000000000000606482015260840161093c565b600082815260ff6020819052604090912054161515600114610af25760405162461bcd60e51b815260206004820152601c6024820152600080516020614015833981519152604482015260640161093c565b600160ff821610801590610b0a5750600360ff821611155b610b565760405162461bcd60e51b815260206004820152601560248201527f537461747573203a206f7574206f662072616e67650000000000000000000000604482015260640161093c565b600082815260fd60205260408120600b015460ff166008811115610b8a57634e487b7160e01b600052602160045260246000fd5b14610bd75760405162461bcd60e51b815260206004820152601d60248201527f4f70706f7274756e69747920697320616c7265616479204a7564676564000000604482015260640161093c565b8060ff166008811115610bfa57634e487b7160e01b600052602160045260246000fd5b600083815260fd60205260409020600b01805460ff19166001836008811115610c3357634e487b7160e01b600052602160045260246000fd5b021790555060ff811660021415610c5857610c4d82612d1e565b610c5682612e61565b505b5050600160c955565b600082815260656020526040902060010154610c7c816130bf565b610c8683836130c9565b505050565b600081815260ff6020819052604090912054161515600114610cdd5760405162461bcd60e51b815260206004820152601c6024820152600080516020614015833981519152604482015260640161093c565b6006600082815260fd60205260409020600b015460ff166008811115610d1357634e487b7160e01b600052602160045260246000fd5b14610d725760405162461bcd60e51b815260206004820152602960248201527f4f70706f7274756e69747920706f6f6c20697320686176656e277420647261776044820152683237bbb7103cb2ba1760b91b606482015260840161093c565b600081815260fd60205260409020600b015461010090046001600160a01b03163314610e065760405162461bcd60e51b815260206004820152602b60248201527f4f6e6c79204f70706f7274756e69747920506f6f6c2063616e206d61726b206960448201527f7420617320726570616964000000000000000000000000000000000000000000606482015260840161093c565b600081815260fd60205260409020600b015461010090046001600160a01b0316610e7e5760405162461bcd60e51b815260206004820152602360248201527f4f70706f7274756e69747920506f6f6c206973206e6f742063726561746564206044820152621e595d60ea1b606482015260840161093c565b600081815260fd60205260409020600b01805460ff1916600817905560fb54610eaf906001600160a01b031661316b565b6001600160a01b0316632d37a3d2826040518263ffffffff1660e01b8152600401610edc91815260200190565b600060405180830381600087803b158015610ef657600080fd5b505af1158015610f0a573d6000803e3d6000fd5b5050505050565b6001600160a01b0381163314610f8f5760405162461bcd60e51b815260206004820152602f60248201527f416363657373436f6e74726f6c3a2063616e206f6e6c792072656e6f756e636560448201527f20726f6c657320666f722073656c660000000000000000000000000000000000606482015260840161093c565b610f9982826131ed565b5050565b610fc77f65d7a28e3265b37a6474929f336521b332c1681b933f6cb9f3376673440d862a3361050b565b6110285760405162461bcd60e51b815260206004820152602c60248201527f4d75737420686176652070617573657220726f6c6520746f20706572666f726d60448201526b103a3434b99030b1ba34b7b760a11b606482015260840161093c565b611030613270565b565b600081815260ff602081905260408220541615156001146110835760405162461bcd60e51b815260206004820152601c6024820152600080516020614015833981519152604482015260640161093c565b60065b600083815260fd60205260409020600b015460ff918216911660088111156110be57634e487b7160e01b600052602160045260246000fd5b60ff1614156110cf57506001919050565b506000919050565b919050565b600054610100900460ff16158080156110fc5750600054600160ff909116105b806111165750303b158015611116575060005460ff166001145b6111885760405162461bcd60e51b815260206004820152602e60248201527f496e697469616c697a61626c653a20636f6e747261637420697320616c72656160448201527f647920696e697469616c697a6564000000000000000000000000000000000000606482015260840161093c565b6000805460ff1916600117905580156111ab576000805461ff0019166101001790555b6111b36132c2565b80156111f9576000805461ff0019169055604051600181527f7f26b83ff96e1f2b6a682f133852f6798a09c465da95921460cefb38474024989060200160405180910390a15b50565b600081815260ff6020819052604082205416151560011461124d5760405162461bcd60e51b815260206004820152601c6024820152600080516020614015833981519152604482015260640161093c565b6005611086565b600081815260ff602081905260408220541615156001146112a55760405162461bcd60e51b815260206004820152601c6024820152600080516020614015833981519152604482015260640161093c565b6007611086565b600082815260ff60208190526040909120541615156001146112fe5760405162461bcd60e51b815260206004820152601c6024820152600080516020614015833981519152604482015260640161093c565b6006600083815260fd60205260409020600b015460ff16600881111561133457634e487b7160e01b600052602160045260246000fd5b146113935760405162461bcd60e51b815260206004820152602960248201527f4f70706f7274756e69747920706f6f6c20697320686176656e277420647261776044820152683237bbb7103cb2ba1760b91b606482015260840161093c565b60fb546113a8906001600160a01b031661316b565b6001600160a01b0316336001600160a01b03161461142e5760405162461bcd60e51b815260206004820152602a60248201527f4f6e6c79206479676e6966794b65657065722063616e206d61726b206974206160448201527f732077726974656f666600000000000000000000000000000000000000000000606482015260840161093c565b600082815260fd6020526040808220600b01805460ff1916600717905580517f257c273600000000000000000000000000000000000000000000000000000000815290516001600160a01b0384169263257c2736926004808201939182900301818387803b15801561149f57600080fd5b505af11580156114b3573d6000803e3d6000fd5b505050505050565b600081815260ff6020819052604082205416151560011461150c5760405162461bcd60e51b815260206004820152601c6024820152600080516020614015833981519152604482015260640161093c565b50600090815260fd60205260409020600101546001600160a01b031690565b60fe602052816000526040600020818154811061154757600080fd5b90600052602060002001600091509150505481565b610101602052816000526040600020818154811061154757600080fd5b600081815260ff602081905260408220541615156001146115ca5760405162461bcd60e51b815260206004820152601c6024820152600080516020614015833981519152604482015260640161093c565b600082815260fd60205260409020600b015460059060ff16600881111561160157634e487b7160e01b600052602160045260246000fd5b60ff1610156116785760405162461bcd60e51b815260206004820152602b60248201527f4f70706f7274756e697479206d757374206265206163746976652f647261776e60448201527f646f776e2f726570616964000000000000000000000000000000000000000000606482015260840161093c565b600082815260fd60205260409020600b015461010090046001600160a01b0316806106bf5760405162461bcd60e51b815260206004820152602c60248201527f4f70706f7274756e69747920706f6f6c206164647265737320686176656e277460448201527f2063726561746564207965740000000000000000000000000000000000000000606482015260840161093c565b600081815260ff6020819052604082205416151560011461175c5760405162461bcd60e51b815260206004820152601c6024820152600080516020614015833981519152604482015260640161093c565b6008611086565b61178d7f65d7a28e3265b37a6474929f336521b332c1681b933f6cb9f3376673440d862a3361050b565b6117ee5760405162461bcd60e51b815260206004820152602c60248201527f4d75737420686176652070617573657220726f6c6520746f20706572666f726d60448201526b103a3434b99030b1ba34b7b760a11b606482015260840161093c565b611030613339565b60606001600160a01b03821661184e5760405162461bcd60e51b815260206004820152601860248201527f496e76616c696420426f72726f77657220736464726573730000000000000000604482015260640161093c565b6001600160a01b038216600090815260fe60209081526040808320805482518185028101850190935280835291929091908301828280156109a65760200282019190600052602060002090815481526020019060010190808311610992575093979650505050505050565b600054610100900460ff166119245760405162461bcd60e51b815260206004820152602b60248201527f496e697469616c697a61626c653a20636f6e7472616374206973206e6f74206960448201526a6e697469616c697a696e6760a81b606482015260840161093c565b6001600160a01b03811661197a5760405162461bcd60e51b815260206004820181905260248201527f4f776e65722063616e6e6f7420626520746865207a65726f2061646472657373604482015260640161093c565b611982613376565b61198a6132c2565b6119926133e1565b6119bc7fa49807205ce4d355092ef5a8a18f56e8913cf4a201fbe287825b095693c2177582613453565b6119e67f65d7a28e3265b37a6474929f336521b332c1681b933f6cb9f3376673440d862a82613453565b611a307f65d7a28e3265b37a6474929f336521b332c1681b933f6cb9f3376673440d862a7fa49807205ce4d355092ef5a8a18f56e8913cf4a201fbe287825b095693c2177561345d565b6111f97fa49807205ce4d355092ef5a8a18f56e8913cf4a201fbe287825b095693c217758061345d565b600081815260ff6020819052604090912054161515600114611aac5760405162461bcd60e51b815260206004820152601c6024820152600080516020614015833981519152604482015260640161093c565b6005600082815260fd60205260409020600b015460ff166008811115611ae257634e487b7160e01b600052602160045260246000fd5b14611b2f5760405162461bcd60e51b815260206004820152601e60248201527f4f70706f7274756e69747920706f6f6c206973206e6f74206163746976650000604482015260640161093c565b600081815260fd60205260409020600b015461010090046001600160a01b03163314611bc35760405162461bcd60e51b815260206004820152602d60248201527f4f6e6c79204f70706f7274756e69747920506f6f6c2063616e206d61726b206960448201527f742061732064726177646f776e00000000000000000000000000000000000000606482015260840161093c565b600081815260fd60205260409020600b015461010090046001600160a01b0316611c3b5760405162461bcd60e51b815260206004820152602360248201527f4f70706f7274756e69747920506f6f6c206973206e6f742063726561746564206044820152621e595d60ea1b606482015260840161093c565b600081815260fd60205260409020600b01805460ff1916600617905560fb54611c6c906001600160a01b031661316b565b6001600160a01b0316633aa7c283826040518263ffffffff1660e01b8152600401610edc91815260200190565b60606001600160a01b038216611cf15760405162461bcd60e51b815260206004820152601860248201527f696e76616c696420626f72726f77657220616464726573730000000000000000604482015260640161093c565b6001600160a01b038216600090815260fe602090815260409182902080548351818402810184019094528084529091830182828015611d4f57602002820191906000526020600020905b815481526020019060010190808311611d3b575b50505050509050919050565b6000611d877fa49807205ce4d355092ef5a8a18f56e8913cf4a201fbe287825b095693c217753361050b565b905090565b600054610100900460ff1615808015611dac5750600054600160ff909116105b80611dc65750303b158015611dc6575060005460ff166001145b611e385760405162461bcd60e51b815260206004820152602e60248201527f496e697469616c697a61626c653a20636f6e747261637420697320616c72656160448201527f647920696e697469616c697a6564000000000000000000000000000000000000606482015260840161093c565b6000805460ff191660011790558015611e5b576000805461ff0019166101001790555b6001600160a01b038216611eb15760405162461bcd60e51b815260206004820152601660248201527f496e76616c696420636f6e666967206164647265737300000000000000000000604482015260640161093c565b60fb805473ffffffffffffffffffffffffffffffffffffffff19166001600160a01b038416908117909155600090611ee8906134a8565b90506001600160a01b038116611f405760405162461bcd60e51b815260206004820152600d60248201527f496e76616c6964204f776e657200000000000000000000000000000000000000604482015260640161093c565b611f49816118b9565b60fb54611f5e906001600160a01b03166134bf565b60fc805473ffffffffffffffffffffffffffffffffffffffff19166001600160a01b0392909216919091179055508015610f99576000805461ff0019169055604051600181527f7f26b83ff96e1f2b6a682f133852f6798a09c465da95921460cefb38474024989060200160405180910390a15050565b600082815260656020526040902060010154611ff0816130bf565b610c8683836131ed565b600260c954141561204d5760405162461bcd60e51b815260206004820152601f60248201527f5265656e7472616e637947756172643a207265656e7472616e742063616c6c00604482015260640161093c565b600260c95561205a612ccb565b60608101516001908181111561208057634e487b7160e01b600052602160045260246000fd5b60ff1611156120d15760405162461bcd60e51b815260206004820152601760248201527f4c6f616e54797065203a204f7574206f662072616e6765000000000000000000604482015260640161093c565b60008160800151116121305760405162461bcd60e51b815260206004820152602260248201527f4c6f616e20416d6f756e74204d7573742062652067726561746572207468616e604482015261020360f41b606482015260840161093c565b80516001600160a01b03166121875760405162461bcd60e51b815260206004820152601860248201527f696e76616c696420626f72726f77657220616464726573730000000000000000604482015260640161093c565b60008160c00151116122005760405162461bcd60e51b8152602060048201526024808201527f4c6f616e20496e746572657374204d757374206265206772656174657220746860448201527f616e203000000000000000000000000000000000000000000000000000000000606482015260840161093c565b60008160a001511161225f5760405162461bcd60e51b815260206004820152602260248201527f4c6f616e2054656e757265204d7573742062652067726561746572207468616e604482015261020360f41b606482015260840161093c565b60008160e00151116122d95760405162461bcd60e51b815260206004820152602860248201527f5061796d656e74204672657175656e6379204d7573742062652067726561746560448201527f72207468616e2030000000000000000000000000000000000000000000000000606482015260840161093c565b603281602001515111156123555760405162461bcd60e51b815260206004820152603b60248201527f4c656e677468206f66204f70706f7274756e697479206e616d65206d7573742060448201527f6265206c657373207468616e206f7220657175616c20746f2035300000000000606482015260840161093c565b600081610100015160405160200161236d9190613c78565b60408051601f198184030181529181528151602092830120600081815260ff93849052919091205490925016156124325760405162461bcd60e51b815260206004820152604660248201527f53616d6520636f6c6c61746f72616c20646f63756d656e74206973206265656e60448201527f207573656420746f2063726561746520646966666572656e74206f70706f727460648201527f756e6974792e0000000000000000000000000000000000000000000000000000608482015260a40161093c565b61243a613858565b81815282516001600160a01b03166020808301919091528301516040808301919091528301516060808301919091528301516080820190600181111561249057634e487b7160e01b600052602160045260246000fd5b908160018111156124b157634e487b7160e01b600052602160045260246000fd5b905250608083015160a08281019190915283015160c08083019190915283015160e0808301919091528301516101008083019190915283015161012080830191909152830151610140820152426101a0820152600082815260fd6020908152604091829020835181558184015160018201805473ffffffffffffffffffffffffffffffffffffffff19166001600160a01b039092169190911790559183015180518493926125669260028501929101906138e8565b50606082015180516125829160038401916020909101906138e8565b50608082015160048201805460ff1916600183818111156125b357634e487b7160e01b600052602160045260246000fd5b021790555060a0820151600582015560c0820151600682015560e08201516007820155610100820151600882015561012082015180516125fd9160098401916020909101906138e8565b50610140820151600a820155610160820151600b8201805460ff1916600183600881111561263b57634e487b7160e01b600052602160045260246000fd5b0217905550610180820151600b820180547fffffffffffffffffffffff0000000000000000000000000000000000000000ff166101006001600160a01b03938416021790556101a090920151600c909101559251909216600090815260fe602090815260408083208054600181810183559185528385200185905584845260ff9092528220805460ff1916821790556101028054808301825592527f93bdaa6a4190909b7c3fbe8d42169ffe1cab19f51dfc8db24c71abf849eced4a9091019190915560c95550565b61270c611d5b565b61277e5760405162461bcd60e51b815260206004820152602b60248201527f4d75737420686176652061646d696e20726f6c6520746f20706572666f726d2060448201527f7468697320616374696f6e000000000000000000000000000000000000000000606482015260840161093c565b600260c95414156127d15760405162461bcd60e51b815260206004820152601f60248201527f5265656e7472616e637947756172643a207265656e7472616e742063616c6c00604482015260640161093c565b600260c9556127de612ccb565b6001600160a01b0381166128345760405162461bcd60e51b815260206004820152600f60248201527f496e76616c696420416464726573730000000000000000000000000000000000604482015260640161093c565b600082815260ff60208190526040909120541615156001146128865760405162461bcd60e51b815260206004820152601c6024820152600080516020614015833981519152604482015260640161093c565b600082815260fd60205260408120600b015460ff1660088111156128ba57634e487b7160e01b600052602160045260246000fd5b146129075760405162461bcd60e51b815260206004820152601d60248201527f4f70706f7274756e69747920697320616c7265616479204a7564676564000000604482015260640161093c565b600082815261010060205260408120829101805473ffffffffffffffffffffffffffffffffffffffff19166001600160a01b0392831617905516600090815261010160209081526040822080546001818101835591845291909220019190915560c955565b600081815260ff60208190526040909120546060911615156001146129c15760405162461bcd60e51b815260206004820152601c6024820152600080516020614015833981519152604482015260640161093c565b600082815260fd6020908152604080832081516101c0810183528154815260018201546001600160a01b0316938101939093526002810180549192840191612a0890613f82565b80601f0160208091040260200160405190810160405280929190818152602001828054612a3490613f82565b8015612a815780601f10612a5657610100808354040283529160200191612a81565b820191906000526020600020905b815481529060010190602001808311612a6457829003601f168201915b50505050508152602001600382018054612a9a90613f82565b80601f0160208091040260200160405190810160405280929190818152602001828054612ac690613f82565b8015612b135780601f10612ae857610100808354040283529160200191612b13565b820191906000526020600020905b815481529060010190602001808311612af657829003601f168201915b5050509183525050600482015460209091019060ff166001811115612b4857634e487b7160e01b600052602160045260246000fd5b6001811115612b6757634e487b7160e01b600052602160045260246000fd5b815260200160058201548152602001600682015481526020016007820154815260200160088201548152602001600982018054612ba390613f82565b80601f0160208091040260200160405190810160405280929190818152602001828054612bcf90613f82565b8015612c1c5780601f10612bf157610100808354040283529160200191612c1c565b820191906000526020600020905b815481529060010190602001808311612bff57829003601f168201915b5050509183525050600a8201546020820152600b82015460409091019060ff166008811115612c5b57634e487b7160e01b600052602160045260246000fd5b6008811115612c7a57634e487b7160e01b600052602160045260246000fd5b8152600b82015461010090046001600160a01b03166020820152600c9091015460409182015201519392505050565b6101028181548110612cba57600080fd5b600091825260209091200154905081565b60975460ff16156110305760405162461bcd60e51b815260206004820152601060248201527f5061757361626c653a2070617573656400000000000000000000000000000000604482015260640161093c565b600081815260ff6020819052604090912054161515600114612d705760405162461bcd60e51b815260206004820152601c6024820152600080516020614015833981519152604482015260640161093c565b6002600082815260fd60205260409020600b015460ff166008811115612da657634e487b7160e01b600052602160045260246000fd5b14612df35760405162461bcd60e51b815260206004820152601b60248201527f4f70706f7274756e697479206973206e6f7420617070726f7665640000000000604482015260640161093c565b600081815260fd602052604090819020600b8101805460ff1916600490811790915560fc5492517fd204c45e0000000000000000000000000000000000000000000000000000000081526001600160a01b039093169263d204c45e92610edc92339260099092019101613d15565b60006004600083815260fd60205260409020600b015460ff166008811115612e9957634e487b7160e01b600052602160045260246000fd5b14612f0c5760405162461bcd60e51b815260206004820152602c60248201527f436f6c6c61746572616c206f6620746865204f70706f7274756e69747920697360448201527f206e6f74206d696e7465642e0000000000000000000000000000000000000000606482015260840161093c565b600082815260ff6020819052604090912054161515600114612f5e5760405162461bcd60e51b815260206004820152601c6024820152600080516020614015833981519152604482015260640161093c565b60fb54600090612f76906001600160a01b03166134d7565b9050612f81816134ef565b60fb54600085815260fd60205260409020805460058201546006830154600784015460088501546004909501549698506001600160a01b03808a169763c4f31a6597909116959060ff166001811115612fea57634e487b7160e01b600052602160045260246000fd5b6040516001600160e01b031960e08a901b1681526001600160a01b039097166004880152602487019590955260448601939093526064850191909152608484015260a483015260ff1660c482015260e401600060405180830381600087803b15801561305557600080fd5b505af1158015613069573d6000803e3d6000fd5b5050506000938452505060fd6020526040909120600b0180547fffffffffffffffffffffff0000000000000000000000000000000000000000001660ff196101006001600160a01b038516021617600517905590565b6111f98133613558565b60008281526065602090815260408083206001600160a01b038516845290915290205460ff16610f995760008281526065602090815260408083206001600160a01b03851684529091529020805460ff191660011790556131273390565b6001600160a01b0316816001600160a01b0316837f2f8788117e7eff1d82e926ec794901d17c78024a50270940304540a733656f0d60405160405180910390a45050565b60006001600160a01b03821663b93f9b0a60095b6040518263ffffffff1660e01b815260040161319d91815260200190565b60206040518083038186803b1580156131b557600080fd5b505afa1580156131c9573d6000803e3d6000fd5b505050506040513d601f19601f820116820180604052508101906106bf9190613a3e565b60008281526065602090815260408083206001600160a01b038516845290915290205460ff1615610f995760008281526065602090815260408083206001600160a01b0385168085529252808320805460ff1916905551339285917ff6391f5c32d9c69d2a47ea670b442974b53935d1edc7fd64eb21e047a839171b9190a45050565b6132786135d8565b6097805460ff191690557f5db9ee0a495bf2e6ff9c91a7834c1ba4fdd244a5e8aa4e537bd38aeae4b073aa335b6040516001600160a01b03909116815260200160405180910390a1565b600054610100900460ff1661332d5760405162461bcd60e51b815260206004820152602b60248201527f496e697469616c697a61626c653a20636f6e7472616374206973206e6f74206960448201526a6e697469616c697a696e6760a81b606482015260840161093c565b6097805460ff19169055565b613341612ccb565b6097805460ff191660011790557f62e78cea01bee320cd4e420270b5ea74000d11b0c9f74754ebdbfc544b05a2586132a53390565b600054610100900460ff166110305760405162461bcd60e51b815260206004820152602b60248201527f496e697469616c697a61626c653a20636f6e7472616374206973206e6f74206960448201526a6e697469616c697a696e6760a81b606482015260840161093c565b600054610100900460ff1661344c5760405162461bcd60e51b815260206004820152602b60248201527f496e697469616c697a61626c653a20636f6e7472616374206973206e6f74206960448201526a6e697469616c697a696e6760a81b606482015260840161093c565b600160c955565b610f9982826130c9565b600082815260656020526040808220600101805490849055905190918391839186917fbd79b86ffe0ab8e8776151514217cd7cacd52c909f66475c3af44e129f0b00ff9190a4505050565b60006001600160a01b03821663b93f9b0a8261317f565b60006001600160a01b03821663b93f9b0a600561317f565b60006001600160a01b03821663b93f9b0a600461317f565b6000808260601b90506040517f3d602d80600a3d3981f3363d3d373d3d3d363d7300000000000000000000000081528160148201527f5af43d82803e903d91602b57fd5bf3000000000000000000000000000000000060288201526037816000f0949350505050565b60008281526065602090815260408083206001600160a01b038516845290915290205460ff16610f9957613596816001600160a01b0316601461362a565b6135a183602061362a565b6040516020016135b2929190613c94565b60408051601f198184030181529082905262461bcd60e51b825261093c91600401613ec7565b60975460ff166110305760405162461bcd60e51b815260206004820152601460248201527f5061757361626c653a206e6f7420706175736564000000000000000000000000604482015260640161093c565b60606000613639836002613f1c565b613644906002613f04565b67ffffffffffffffff81111561366a57634e487b7160e01b600052604160045260246000fd5b6040519080825280601f01601f191660200182016040528015613694576020820181803683370190505b5090507f3000000000000000000000000000000000000000000000000000000000000000816000815181106136d957634e487b7160e01b600052603260045260246000fd5b60200101906001600160f81b031916908160001a9053507f78000000000000000000000000000000000000000000000000000000000000008160018151811061373257634e487b7160e01b600052603260045260246000fd5b60200101906001600160f81b031916908160001a9053506000613756846002613f1c565b613761906001613f04565b90505b6001811115613802577f303132333435363738396162636465660000000000000000000000000000000085600f16601081106137b057634e487b7160e01b600052603260045260246000fd5b1a60f81b8282815181106137d457634e487b7160e01b600052603260045260246000fd5b60200101906001600160f81b031916908160001a90535060049490941c936137fb81613f6b565b9050613764565b5083156138515760405162461bcd60e51b815260206004820181905260248201527f537472696e67733a20686578206c656e67746820696e73756666696369656e74604482015260640161093c565b9392505050565b604080516101c0810182526000808252602082018190526060928201839052828201929092529060808201908152602001600081526020016000815260200160008152602001600081526020016060815260200160008152602001600060088111156138d457634e487b7160e01b600052602160045260246000fd5b815260006020820181905260409091015290565b8280546138f490613f82565b90600052602060002090601f016020900481019282613916576000855561395c565b82601f1061392f57805160ff191683800117855561395c565b8280016001018555821561395c579182015b8281111561395c578251825591602001919060010190613941565b5061396892915061396c565b5090565b5b80821115613968576000815560010161396d565b80356110d781613fff565b8035600281106110d757600080fd5b600082601f8301126139ab578081fd5b813567ffffffffffffffff808211156139c6576139c6613fe9565b604051601f8301601f19908116603f011681019082821181831017156139ee576139ee613fe9565b81604052838152866020858801011115613a06578485fd5b8360208701602083013792830160200193909352509392505050565b600060208284031215613a33578081fd5b813561385181613fff565b600060208284031215613a4f578081fd5b815161385181613fff565b60008060408385031215613a6c578081fd5b8235613a7781613fff565b946020939093013593505050565b600060208284031215613a96578081fd5b5035919050565b60008060408385031215613aaf578182fd5b823591506020830135613ac181613fff565b809150509250929050565b60008060408385031215613ade578182fd5b82359150602083013560ff81168114613ac1578182fd5b600060208284031215613b06578081fd5b81356001600160e01b031981168114613851578182fd5b600060208284031215613b2e578081fd5b813567ffffffffffffffff80821115613b45578283fd5b908301906101408286031215613b59578283fd5b613b61613eda565b613b6a83613981565b8152602083013582811115613b7d578485fd5b613b898782860161399b565b602083015250604083013582811115613ba0578485fd5b613bac8782860161399b565b604083015250613bbe6060840161398c565b60608201526080830135608082015260a083013560a082015260c083013560c082015260e083013560e08201526101008084013583811115613bfe578586fd5b613c0a8882870161399b565b91830191909152506101209283013592810192909252509392505050565b60028110613c3857613c38613fd3565b9052565b60098110613c3857613c38613fd3565b60008151808452613c64816020860160208601613f3b565b601f01601f19169290920160200192915050565b60008251613c8a818460208701613f3b565b9190910192915050565b7f416363657373436f6e74726f6c3a206163636f756e7420000000000000000000815260008351613ccc816017850160208801613f3b565b7f206973206d697373696e6720726f6c65200000000000000000000000000000006017918401918201528351613d09816028840160208801613f3b565b01602801949350505050565b6001600160a01b03831681526000602060408184015281845483600182811c915080831680613d4557607f831692505b858310811415613d6357634e487b7160e01b87526022600452602487fd5b6040880183905260608801818015613d825760018114613d9357613dbd565b60ff19861682528782019650613dbd565b60008b815260209020895b86811015613db757815484820152908501908901613d9e565b83019750505b50949a9950505050505050505050565b6020808252825182820181905260009190848201906040850190845b81811015613e0557835183529284019291840191600101613de9565b50909695505050505050565b8e81526001600160a01b038e1660208201526101c060408201526000613e3b6101c083018f613c4c565b8281036060840152613e4d818f613c4c565b9050613e5c608084018e613c28565b8b60a08401528a60c08401528960e084015288610100840152828103610120840152613e888189613c4c565b91505085610140830152613ea0610160830186613c3c565b6001600160a01b03939093166101808201526101a001529c9b505050505050505050505050565b6020815260006138516020830184613c4c565b604051610140810167ffffffffffffffff81118282101715613efe57613efe613fe9565b60405290565b60008219821115613f1757613f17613fbd565b500190565b6000816000190483118215151615613f3657613f36613fbd565b500290565b60005b83811015613f56578181015183820152602001613f3e565b83811115613f65576000848401525b50505050565b600081613f7a57613f7a613fbd565b506000190190565b600181811c90821680613f9657607f821691505b60208210811415613fb757634e487b7160e01b600052602260045260246000fd5b50919050565b634e487b7160e01b600052601160045260246000fd5b634e487b7160e01b600052602160045260246000fd5b634e487b7160e01b600052604160045260246000fd5b6001600160a01b03811681146111f957600080fdfe4f70706f7274756e69747920494420646f65736e277420657869737400000000a26469706673582212208b9ad08a619920e3a0b91b879add41d1a15ab6e045c84f2ef391b9c96528d22f64736f6c63430008040033",
  "linkReferences": {},
  "deployedLinkReferences": {}
}