{
  "_format": "hh-sol-artifact-1",
  "contractName": "OpportunityOrigination",
  "sourceName": "contracts/protocol/OpportunityOrigination.sol",
  "abi": [
    {
      "anonymous": false,
      "inputs": [
        {
          "indexed": false,
          "internalType": "uint8",
          "name": "version",
          "type": "uint8"
        }
      ],
      "name": "Initialized",
      "type": "event"
    },
    {
      "anonymous": false,
      "inputs": [
        {
          "indexed": false,
          "internalType": "address",
          "name": "account",
          "type": "address"
        }
      ],
      "name": "Paused",
      "type": "event"
    },
    {
      "anonymous": false,
      "inputs": [
        {
          "indexed": true,
          "internalType": "bytes32",
          "name": "role",
          "type": "bytes32"
        },
        {
          "indexed": true,
          "internalType": "bytes32",
          "name": "previousAdminRole",
          "type": "bytes32"
        },
        {
          "indexed": true,
          "internalType": "bytes32",
          "name": "newAdminRole",
          "type": "bytes32"
        }
      ],
      "name": "RoleAdminChanged",
      "type": "event"
    },
    {
      "anonymous": false,
      "inputs": [
        {
          "indexed": true,
          "internalType": "bytes32",
          "name": "role",
          "type": "bytes32"
        },
        {
          "indexed": true,
          "internalType": "address",
          "name": "account",
          "type": "address"
        },
        {
          "indexed": true,
          "internalType": "address",
          "name": "sender",
          "type": "address"
        }
      ],
      "name": "RoleGranted",
      "type": "event"
    },
    {
      "anonymous": false,
      "inputs": [
        {
          "indexed": true,
          "internalType": "bytes32",
          "name": "role",
          "type": "bytes32"
        },
        {
          "indexed": true,
          "internalType": "address",
          "name": "account",
          "type": "address"
        },
        {
          "indexed": true,
          "internalType": "address",
          "name": "sender",
          "type": "address"
        }
      ],
      "name": "RoleRevoked",
      "type": "event"
    },
    {
      "anonymous": false,
      "inputs": [
        {
          "indexed": false,
          "internalType": "address",
          "name": "account",
          "type": "address"
        }
      ],
      "name": "Unpaused",
      "type": "event"
    },
    {
      "inputs": [],
      "name": "ADMIN_ROLE",
      "outputs": [
        {
          "internalType": "bytes32",
          "name": "",
          "type": "bytes32"
        }
      ],
      "stateMutability": "view",
      "type": "function"
    },
    {
      "inputs": [],
      "name": "DEFAULT_ADMIN_ROLE",
      "outputs": [
        {
          "internalType": "bytes32",
          "name": "",
          "type": "bytes32"
        }
      ],
      "stateMutability": "view",
      "type": "function"
    },
    {
      "inputs": [],
      "name": "PAUSER_ROLE",
      "outputs": [
        {
          "internalType": "bytes32",
          "name": "",
          "type": "bytes32"
        }
      ],
      "stateMutability": "view",
      "type": "function"
    },
    {
      "inputs": [
        {
          "internalType": "address",
          "name": "owner",
          "type": "address"
        }
      ],
      "name": "_BaseUpgradeablePausable_init",
      "outputs": [],
      "stateMutability": "nonpayable",
      "type": "function"
    },
    {
      "inputs": [],
      "name": "__PauserPausable__init",
      "outputs": [],
      "stateMutability": "nonpayable",
      "type": "function"
    },
    {
      "inputs": [
        {
          "internalType": "bytes32",
          "name": "_opportunityId",
          "type": "bytes32"
        },
        {
          "internalType": "address",
          "name": "_underwriter",
          "type": "address"
        }
      ],
      "name": "assignUnderwriters",
      "outputs": [],
      "stateMutability": "nonpayable",
      "type": "function"
    },
    {
      "inputs": [],
      "name": "collateralToken",
      "outputs": [
        {
          "internalType": "contract CollateralToken",
          "name": "",
          "type": "address"
        }
      ],
      "stateMutability": "view",
      "type": "function"
    },
    {
      "inputs": [
        {
          "internalType": "address",
          "name": "_borrower",
          "type": "address"
        },
        {
          "internalType": "string",
          "name": "_opportunityInfo",
          "type": "string"
        },
        {
          "internalType": "uint8",
          "name": "_loanType",
          "type": "uint8"
        },
        {
          "internalType": "uint256",
          "name": "_loanAmount",
          "type": "uint256"
        },
        {
          "internalType": "uint256",
          "name": "_loanTenureInDays",
          "type": "uint256"
        },
        {
          "internalType": "uint256",
          "name": "_loanInterest",
          "type": "uint256"
        },
        {
          "internalType": "uint256",
          "name": "_paymentFrequencyInDays",
          "type": "uint256"
        },
        {
          "internalType": "string",
          "name": "_collateralDocument",
          "type": "string"
        },
        {
          "internalType": "uint256",
          "name": "_capitalLoss",
          "type": "uint256"
        }
      ],
      "name": "createOpportunity",
      "outputs": [],
      "stateMutability": "nonpayable",
      "type": "function"
    },
    {
      "inputs": [],
      "name": "dygnifyConfig",
      "outputs": [
        {
          "internalType": "contract DygnifyConfig",
          "name": "",
          "type": "address"
        }
      ],
      "stateMutability": "view",
      "type": "function"
    },
    {
      "inputs": [
        {
          "internalType": "address",
          "name": "borrower",
          "type": "address"
        }
      ],
      "name": "getAlltheOpportunitiesOf",
      "outputs": [
        {
          "internalType": "bytes32[]",
          "name": "",
          "type": "bytes32[]"
        }
      ],
      "stateMutability": "view",
      "type": "function"
    },
    {
      "inputs": [
        {
          "internalType": "address",
          "name": "_borrower",
          "type": "address"
        }
      ],
      "name": "getOpportunityOf",
      "outputs": [
        {
          "internalType": "bytes32[]",
          "name": "",
          "type": "bytes32[]"
        }
      ],
      "stateMutability": "view",
      "type": "function"
    },
    {
      "inputs": [
        {
          "internalType": "bytes32",
          "name": "id",
          "type": "bytes32"
        }
      ],
      "name": "getOpportunityPoolAddress",
      "outputs": [
        {
          "internalType": "address",
          "name": "",
          "type": "address"
        }
      ],
      "stateMutability": "view",
      "type": "function"
    },
    {
      "inputs": [
        {
          "internalType": "bytes32",
          "name": "role",
          "type": "bytes32"
        }
      ],
      "name": "getRoleAdmin",
      "outputs": [
        {
          "internalType": "bytes32",
          "name": "",
          "type": "bytes32"
        }
      ],
      "stateMutability": "view",
      "type": "function"
    },
    {
      "inputs": [],
      "name": "getTotalOpportunities",
      "outputs": [
        {
          "internalType": "uint256",
          "name": "",
          "type": "uint256"
        }
      ],
      "stateMutability": "view",
      "type": "function"
    },
    {
      "inputs": [
        {
          "internalType": "address",
          "name": "_underwriter",
          "type": "address"
        }
      ],
      "name": "getUnderWritersOpportunities",
      "outputs": [
        {
          "internalType": "bytes32[]",
          "name": "",
          "type": "bytes32[]"
        }
      ],
      "stateMutability": "view",
      "type": "function"
    },
    {
      "inputs": [
        {
          "internalType": "bytes32",
          "name": "role",
          "type": "bytes32"
        },
        {
          "internalType": "address",
          "name": "account",
          "type": "address"
        }
      ],
      "name": "grantRole",
      "outputs": [],
      "stateMutability": "nonpayable",
      "type": "function"
    },
    {
      "inputs": [
        {
          "internalType": "bytes32",
          "name": "role",
          "type": "bytes32"
        },
        {
          "internalType": "address",
          "name": "account",
          "type": "address"
        }
      ],
      "name": "hasRole",
      "outputs": [
        {
          "internalType": "bool",
          "name": "",
          "type": "bool"
        }
      ],
      "stateMutability": "view",
      "type": "function"
    },
    {
      "inputs": [
        {
          "internalType": "contract DygnifyConfig",
          "name": "config",
          "type": "address"
        }
      ],
      "name": "initialize",
      "outputs": [],
      "stateMutability": "nonpayable",
      "type": "function"
    },
    {
      "inputs": [
        {
          "internalType": "bytes32",
          "name": "id",
          "type": "bytes32"
        }
      ],
      "name": "isActive",
      "outputs": [
        {
          "internalType": "bool",
          "name": "",
          "type": "bool"
        }
      ],
      "stateMutability": "view",
      "type": "function"
    },
    {
      "inputs": [],
      "name": "isAdmin",
      "outputs": [
        {
          "internalType": "bool",
          "name": "",
          "type": "bool"
        }
      ],
      "stateMutability": "view",
      "type": "function"
    },
    {
      "inputs": [
        {
          "internalType": "bytes32",
          "name": "id",
          "type": "bytes32"
        }
      ],
      "name": "isDrawdown",
      "outputs": [
        {
          "internalType": "bool",
          "name": "",
          "type": "bool"
        }
      ],
      "stateMutability": "view",
      "type": "function"
    },
    {
      "inputs": [
        {
          "internalType": "bytes32",
          "name": "",
          "type": "bytes32"
        }
      ],
      "name": "isOpportunity",
      "outputs": [
        {
          "internalType": "bool",
          "name": "",
          "type": "bool"
        }
      ],
      "stateMutability": "view",
      "type": "function"
    },
    {
      "inputs": [
        {
          "internalType": "bytes32",
          "name": "id",
          "type": "bytes32"
        }
      ],
      "name": "isRepaid",
      "outputs": [
        {
          "internalType": "bool",
          "name": "",
          "type": "bool"
        }
      ],
      "stateMutability": "view",
      "type": "function"
    },
    {
      "inputs": [
        {
          "internalType": "bytes32",
          "name": "id",
          "type": "bytes32"
        }
      ],
      "name": "markDrawDown",
      "outputs": [],
      "stateMutability": "nonpayable",
      "type": "function"
    },
    {
      "inputs": [
        {
          "internalType": "bytes32",
          "name": "id",
          "type": "bytes32"
        }
      ],
      "name": "markRepaid",
      "outputs": [],
      "stateMutability": "nonpayable",
      "type": "function"
    },
    {
      "inputs": [
        {
          "internalType": "uint256",
          "name": "",
          "type": "uint256"
        }
      ],
      "name": "opportunityIds",
      "outputs": [
        {
          "internalType": "bytes32",
          "name": "",
          "type": "bytes32"
        }
      ],
      "stateMutability": "view",
      "type": "function"
    },
    {
      "inputs": [
        {
          "internalType": "address",
          "name": "",
          "type": "address"
        },
        {
          "internalType": "uint256",
          "name": "",
          "type": "uint256"
        }
      ],
      "name": "opportunityOf",
      "outputs": [
        {
          "internalType": "bytes32",
          "name": "",
          "type": "bytes32"
        }
      ],
      "stateMutability": "view",
      "type": "function"
    },
    {
      "inputs": [
        {
          "internalType": "bytes32",
          "name": "",
          "type": "bytes32"
        }
      ],
      "name": "opportunityToId",
      "outputs": [
        {
          "internalType": "bytes32",
          "name": "opportunityID",
          "type": "bytes32"
        },
        {
          "internalType": "address",
          "name": "borrower",
          "type": "address"
        },
        {
          "internalType": "string",
          "name": "opportunityInfo",
          "type": "string"
        },
        {
          "internalType": "enum IOpportunityOrigination.LoanType",
          "name": "loanType",
          "type": "uint8"
        },
        {
          "internalType": "uint256",
          "name": "loanAmount",
          "type": "uint256"
        },
        {
          "internalType": "uint256",
          "name": "loanTenureInDays",
          "type": "uint256"
        },
        {
          "internalType": "uint256",
          "name": "loanInterest",
          "type": "uint256"
        },
        {
          "internalType": "uint256",
          "name": "paymentFrequencyInDays",
          "type": "uint256"
        },
        {
          "internalType": "string",
          "name": "collateralDocument",
          "type": "string"
        },
        {
          "internalType": "uint256",
          "name": "capitalLoss",
          "type": "uint256"
        },
        {
          "internalType": "enum IOpportunityOrigination.OpportunityStatus",
          "name": "opportunityStatus",
          "type": "uint8"
        },
        {
          "internalType": "address",
          "name": "opportunityPoolAddress",
          "type": "address"
        },
        {
          "internalType": "uint256",
          "name": "createdOn",
          "type": "uint256"
        }
      ],
      "stateMutability": "view",
      "type": "function"
    },
    {
      "inputs": [],
      "name": "pause",
      "outputs": [],
      "stateMutability": "nonpayable",
      "type": "function"
    },
    {
      "inputs": [],
      "name": "paused",
      "outputs": [
        {
          "internalType": "bool",
          "name": "",
          "type": "bool"
        }
      ],
      "stateMutability": "view",
      "type": "function"
    },
    {
      "inputs": [
        {
          "internalType": "bytes32",
          "name": "role",
          "type": "bytes32"
        },
        {
          "internalType": "address",
          "name": "account",
          "type": "address"
        }
      ],
      "name": "renounceRole",
      "outputs": [],
      "stateMutability": "nonpayable",
      "type": "function"
    },
    {
      "inputs": [
        {
          "internalType": "bytes32",
          "name": "role",
          "type": "bytes32"
        },
        {
          "internalType": "address",
          "name": "account",
          "type": "address"
        }
      ],
      "name": "revokeRole",
      "outputs": [],
      "stateMutability": "nonpayable",
      "type": "function"
    },
    {
      "inputs": [
        {
          "internalType": "bytes4",
          "name": "interfaceId",
          "type": "bytes4"
        }
      ],
      "name": "supportsInterface",
      "outputs": [
        {
          "internalType": "bool",
          "name": "",
          "type": "bool"
        }
      ],
      "stateMutability": "view",
      "type": "function"
    },
    {
      "inputs": [
        {
          "internalType": "address",
          "name": "",
          "type": "address"
        },
        {
          "internalType": "uint256",
          "name": "",
          "type": "uint256"
        }
      ],
      "name": "underwriterToOpportunity",
      "outputs": [
        {
          "internalType": "bytes32",
          "name": "",
          "type": "bytes32"
        }
      ],
      "stateMutability": "view",
      "type": "function"
    },
    {
      "inputs": [],
      "name": "unpause",
      "outputs": [],
      "stateMutability": "nonpayable",
      "type": "function"
    },
    {
      "inputs": [
        {
          "internalType": "bytes32",
          "name": "_opportunityId",
          "type": "bytes32"
        },
        {
          "internalType": "uint8",
          "name": "_status",
          "type": "uint8"
        }
      ],
      "name": "voteOpportunity",
      "outputs": [],
      "stateMutability": "nonpayable",
      "type": "function"
    }
  ],
  "bytecode": "0x608060405234801561001057600080fd5b50613848806100206000396000f3fe608060405234801561001057600080fd5b506004361061025c5760003560e01c80637a8f556011610145578063b2016bd4116100bd578063d547741f1161008c578063e63ab1e911610071578063e63ab1e914610549578063e87ec15f14610570578063f1bae27d1461058357600080fd5b8063d547741f14610512578063e0bb77e31461052557600080fd5b8063b2016bd4146104d1578063b369be54146104e4578063b6db75a0146104f7578063c4d66de8146104ff57600080fd5b806389eb01fc11610114578063a12dde4d116100f9578063a12dde4d146104a3578063a217fddf146104b6578063af7ea944146104be57600080fd5b806389eb01fc1461045757806391d148541461046a57600080fd5b80637a8f5560146104165780637e4dc6d514610429578063817671551461043c5780638456cb591461044f57600080fd5b806336568abe116101d8578063526d81f6116101a75780635c975abb1161018c5780635c975abb146103d157806375b238fc146103dc5780637921c67d1461040357600080fd5b8063526d81f6146103b65780635c36901c146103be57600080fd5b806336568abe1461037f5780633f4ba83a146103925780634622abe01461039a578063486caf7c146103ad57600080fd5b80631be954591161022f5780632885f8b9116102145780632885f8b9146103465780632f2ff15d14610359578063332f14861461036c57600080fd5b80631be95459146102ea578063248a9ca31461031557600080fd5b806301ffc9a7146102615780630bca245a146102895780630ddc3ac1146102b55780631633f5a3146102ca575b600080fd5b61027461026f3660046133de565b610596565b60405190151581526020015b60405180910390f35b61029c61029736600461336c565b6105ff565b6040516102809d9c9b9a999897969594939291906135e3565b6102c86102c3366004613279565b610794565b005b6102dd6102d8366004613241565b610e2f565b604051610280919061359f565b60fb546102fd906001600160a01b031681565b6040516001600160a01b039091168152602001610280565b61033861032336600461336c565b60009081526065602052604090206001015490565b604051908152602001610280565b6102c86103543660046133b3565b610ef5565b6102c8610367366004613384565b6111b5565b6102c861037a36600461336c565b6111df565b6102c861038d366004613384565b61141f565b6102c86114ab565b6102746103a836600461336c565b611540565b61010254610338565b6102c86115f7565b6102746103cc36600461336c565b611717565b60975460ff16610274565b6103387fa49807205ce4d355092ef5a8a18f56e8913cf4a201fbe287825b095693c2177581565b610338610411366004613341565b6117c6565b610338610424366004613341565b6117f7565b6102fd61043736600461336c565b611814565b61027461044a36600461336c565b611992565b6102c86119fc565b6102dd610465366004613241565b611a8f565b610274610478366004613384565b60009182526065602090815260408084206001600160a01b0393909316845291905290205460ff1690565b6102c86104b1366004613241565b611b52565b610338600081565b6102c86104cc36600461336c565b611cf3565b60fc546102fd906001600160a01b031681565b6102dd6104f2366004613241565b611f09565b610274611fcb565b6102c861050d366004613241565b611ffc565b6102c8610520366004613384565b612245565b61027461053336600461336c565b60ff602081905260009182526040909120541681565b6103387f65d7a28e3265b37a6474929f336521b332c1681b933f6cb9f3376673440d862a81565b6102c861057e366004613384565b61226a565b61033861059136600461336c565b6124e4565b60006001600160e01b031982167f7965db0b0000000000000000000000000000000000000000000000000000000014806105f957507f01ffc9a7000000000000000000000000000000000000000000000000000000006001600160e01b03198316145b92915050565b60fd6020526000908152604090208054600182015460028301805492936001600160a01b039092169261063190613796565b80601f016020809104026020016040519081016040528092919081815260200182805461065d90613796565b80156106aa5780601f1061067f576101008083540402835291602001916106aa565b820191906000526020600020905b81548152906001019060200180831161068d57829003601f168201915b5050505050908060030160009054906101000a900460ff16908060040154908060050154908060060154908060070154908060080180546106ea90613796565b80601f016020809104026020016040519081016040528092919081815260200182805461071690613796565b80156107635780601f1061073857610100808354040283529160200191610763565b820191906000526020600020905b81548152906001019060200180831161074657829003601f168201915b505050506009830154600a840154600b909401549293909260ff821692506101009091046001600160a01b0316908d565b600260c95414156107ec5760405162461bcd60e51b815260206004820152601f60248201527f5265656e7472616e637947756172643a207265656e7472616e742063616c6c0060448201526064015b60405180910390fd5b600260c9556107f9612506565b600160ff8916111561084d5760405162461bcd60e51b815260206004820152601760248201527f4c6f616e54797065203a204f7574206f662072616e676500000000000000000060448201526064016107e3565b600087116108a85760405162461bcd60e51b815260206004820152602260248201527f4c6f616e20416d6f756e74204d7573742062652067726561746572207468616e604482015261020360f41b60648201526084016107e3565b6001600160a01b038b166108fe5760405162461bcd60e51b815260206004820152601860248201527f696e76616c696420626f72726f7765722061646472657373000000000000000060448201526064016107e3565b600085116109735760405162461bcd60e51b8152602060048201526024808201527f4c6f616e20496e746572657374204d757374206265206772656174657220746860448201527f616e20300000000000000000000000000000000000000000000000000000000060648201526084016107e3565b600086116109ce5760405162461bcd60e51b815260206004820152602260248201527f4c6f616e2054656e757265204d7573742062652067726561746572207468616e604482015261020360f41b60648201526084016107e3565b60008411610a445760405162461bcd60e51b815260206004820152602860248201527f5061796d656e74204672657175656e6379204d7573742062652067726561746560448201527f72207468616e203000000000000000000000000000000000000000000000000060648201526084016107e3565b60008383604051602001610a599291906134e4565b60408051601f198184030181529181528151602092830120600081815260ff9384905291909120549092501615610b1e5760405162461bcd60e51b815260206004820152604660248201527f53616d6520636f6c6c61746f72616c20646f63756d656e74206973206265656e60448201527f207573656420746f2063726561746520646966666572656e74206f70706f727460648201527f756e6974792e0000000000000000000000000000000000000000000000000000608482015260a4016107e3565b610b266130c8565b8181526001600160a01b038d1660208083019190915260408051601f8e018390048302810183019091528c8152908d908d9081908401838280828437600092019190915250505050604082015260ff8a166001811115610b9657634e487b7160e01b600052602160045260246000fd5b81606001906001811115610bba57634e487b7160e01b600052602160045260246000fd5b90816001811115610bdb57634e487b7160e01b600052602160045260246000fd5b9052506080810189905260a0810188905260c0810187905260e08101869052604080516020601f8701819004810282018101909252858152908690869081908401838280828437600092018290525061010086019490945250505061012082018490524261018083015282815260fd6020908152604091829020835181558184015160018201805473ffffffffffffffffffffffffffffffffffffffff19166001600160a01b03909216919091179055918301518051849392610ca5926002850192910190613150565b50606082015160038201805460ff191660018381811115610cd657634e487b7160e01b600052602160045260246000fd5b02179055506080820151600482015560a0820151600582015560c0820151600682015560e082015160078201556101008201518051610d1f916008840191602090910190613150565b506101208201516009820155610140820151600a8201805460ff19166001836007811115610d5d57634e487b7160e01b600052602160045260246000fd5b0217905550610160820151600a820180547fffffffffffffffffffffff0000000000000000000000000000000000000000ff166101006001600160a01b039384160217905561018090920151600b909101559c909c16600090815260fe602090815260408083208054600181810183559185528385200185905584845260ff9092528220805460ff1916821790556101028054808301825592527f93bdaa6a4190909b7c3fbe8d42169ffe1cab19f51dfc8db24c71abf849eced4a9091019190915560c9555050505050505050505050565b60606001600160a01b038216610e875760405162461bcd60e51b815260206004820152601b60248201527f496e76616c696420756e6465727772697465722073646472657373000000000060448201526064016107e3565b6001600160a01b03821660009081526101016020908152604080832080548251818502810185019093528083529192909190830182828015610ee857602002820191906000526020600020905b815481526020019060010190808311610ed4575b5093979650505050505050565b600260c9541415610f485760405162461bcd60e51b815260206004820152601f60248201527f5265656e7472616e637947756172643a207265656e7472616e742063616c6c0060448201526064016107e3565b600260c955610f55612506565b600082815261010060205260409020546001600160a01b03163314610fe25760405162461bcd60e51b815260206004820152602d60248201527f596f7520617265206e6f7420616e206175646969746f7220666f72207468697360448201527f204f70706f7274756e6974792e0000000000000000000000000000000000000060648201526084016107e3565b600082815260ff60208190526040909120541615156001146110465760405162461bcd60e51b815260206004820152601c60248201527f4f70706f7274756e69747920494420646f65736e27742065786973740000000060448201526064016107e3565b600160ff82161080159061105e5750600360ff821611155b6110aa5760405162461bcd60e51b815260206004820152601560248201527f537461747573203a206f7574206f662072616e6765000000000000000000000060448201526064016107e3565b600082815260fd60205260408120600a015460ff1660078111156110de57634e487b7160e01b600052602160045260246000fd5b1461112b5760405162461bcd60e51b815260206004820152601d60248201527f4f70706f7274756e69747920697320616c7265616479204a756467656400000060448201526064016107e3565b8060ff16600781111561114e57634e487b7160e01b600052602160045260246000fd5b600083815260fd60205260409020600a01805460ff1916600183600781111561118757634e487b7160e01b600052602160045260246000fd5b021790555060ff8116600214156111ac576111a182612559565b6111aa826126e3565b505b5050600160c955565b6000828152606560205260409020600101546111d081612947565b6111da8383612951565b505050565b600081815260ff60208190526040909120541615156001146112435760405162461bcd60e51b815260206004820152601c60248201527f4f70706f7274756e69747920494420646f65736e27742065786973740000000060448201526064016107e3565b6006600082815260fd60205260409020600a015460ff16600781111561127957634e487b7160e01b600052602160045260246000fd5b146112ec5760405162461bcd60e51b815260206004820152602960248201527f4f70706f7274756e69747920706f6f6c20697320686176656e2774206472617760448201527f646f776e207965742e000000000000000000000000000000000000000000000060648201526084016107e3565b600081815260fd60205260409020600a015461010090046001600160a01b031633146113805760405162461bcd60e51b815260206004820152602b60248201527f4f6e6c79204f70706f7274756e69747920506f6f6c2063616e206d61726b206960448201527f742061732072657061696400000000000000000000000000000000000000000060648201526084016107e3565b600081815260fd60205260409020600a015461010090046001600160a01b03166113f85760405162461bcd60e51b815260206004820152602360248201527f4f70706f7274756e69747920506f6f6c206973206e6f742063726561746564206044820152621e595d60ea1b60648201526084016107e3565b600081815260fd60205260409020600a0180546007919060ff19166001835b021790555050565b6001600160a01b038116331461149d5760405162461bcd60e51b815260206004820152602f60248201527f416363657373436f6e74726f6c3a2063616e206f6e6c792072656e6f756e636560448201527f20726f6c657320666f722073656c66000000000000000000000000000000000060648201526084016107e3565b6114a782826129f3565b5050565b6114d57f65d7a28e3265b37a6474929f336521b332c1681b933f6cb9f3376673440d862a33610478565b6115365760405162461bcd60e51b815260206004820152602c60248201527f4d75737420686176652070617573657220726f6c6520746f20706572666f726d60448201526b103a3434b99030b1ba34b7b760a11b60648201526084016107e3565b61153e612a76565b565b600081815260ff602081905260408220541615156001146115a35760405162461bcd60e51b815260206004820152601c60248201527f4f70706f7274756e69747920494420646f65736e27742065786973740000000060448201526064016107e3565b600082815260fd60205260409020600a015460069060ff1660078111156115da57634e487b7160e01b600052602160045260246000fd5b60ff16106115ea57506001919050565b506000919050565b919050565b600054610100900460ff16158080156116175750600054600160ff909116105b806116315750303b158015611631575060005460ff166001145b6116a35760405162461bcd60e51b815260206004820152602e60248201527f496e697469616c697a61626c653a20636f6e747261637420697320616c72656160448201527f647920696e697469616c697a656400000000000000000000000000000000000060648201526084016107e3565b6000805460ff1916600117905580156116c6576000805461ff0019166101001790555b6116ce612ac8565b8015611714576000805461ff0019169055604051600181527f7f26b83ff96e1f2b6a682f133852f6798a09c465da95921460cefb38474024989060200160405180910390a15b50565b600081815260ff6020819052604082205416151560011461177a5760405162461bcd60e51b815260206004820152601c60248201527f4f70706f7274756e69747920494420646f65736e27742065786973740000000060448201526064016107e3565b60055b600083815260fd60205260409020600a015460ff918216911660078111156117b557634e487b7160e01b600052602160045260246000fd5b60ff1614156115ea57506001919050565b60fe60205281600052604060002081815481106117e257600080fd5b90600052602060002001600091509150505481565b61010160205281600052604060002081815481106117e257600080fd5b600081815260ff602081905260408220541615156001146118775760405162461bcd60e51b815260206004820152601c60248201527f4f70706f7274756e69747920494420646f65736e27742065786973740000000060448201526064016107e3565b600082815260fd60205260409020600a015460059060ff1660078111156118ae57634e487b7160e01b600052602160045260246000fd5b60ff1610156118ff5760405162461bcd60e51b815260206004820152601a60248201527f4f70706f7274756e697479206d7573742062652061637469766500000000000060448201526064016107e3565b600082815260fd60205260409020600a015461010090046001600160a01b0316806105f95760405162461bcd60e51b815260206004820152602c60248201527f4f70706f7274756e69747920706f6f6c206164647265737320686176656e277460448201527f206372656174656420796574000000000000000000000000000000000000000060648201526084016107e3565b600081815260ff602081905260408220541615156001146119f55760405162461bcd60e51b815260206004820152601c60248201527f4f70706f7274756e69747920494420646f65736e27742065786973740000000060448201526064016107e3565b600761177d565b611a267f65d7a28e3265b37a6474929f336521b332c1681b933f6cb9f3376673440d862a33610478565b611a875760405162461bcd60e51b815260206004820152602c60248201527f4d75737420686176652070617573657220726f6c6520746f20706572666f726d60448201526b103a3434b99030b1ba34b7b760a11b60648201526084016107e3565b61153e612b3f565b60606001600160a01b038216611ae75760405162461bcd60e51b815260206004820152601860248201527f496e76616c696420426f72726f7765722073646472657373000000000000000060448201526064016107e3565b6001600160a01b038216600090815260fe6020908152604080832080548251818502810185019093528083529192909190830182828015610ee85760200282019190600052602060002090815481526020019060010190808311610ed4575093979650505050505050565b600054610100900460ff16611bbd5760405162461bcd60e51b815260206004820152602b60248201527f496e697469616c697a61626c653a20636f6e7472616374206973206e6f74206960448201526a6e697469616c697a696e6760a81b60648201526084016107e3565b6001600160a01b038116611c135760405162461bcd60e51b815260206004820181905260248201527f4f776e65722063616e6e6f7420626520746865207a65726f206164647265737360448201526064016107e3565b611c1b612b7c565b611c23612ac8565b611c2b612be7565b611c557fa49807205ce4d355092ef5a8a18f56e8913cf4a201fbe287825b095693c2177582612c59565b611c7f7f65d7a28e3265b37a6474929f336521b332c1681b933f6cb9f3376673440d862a82612c59565b611cc97f65d7a28e3265b37a6474929f336521b332c1681b933f6cb9f3376673440d862a7fa49807205ce4d355092ef5a8a18f56e8913cf4a201fbe287825b095693c21775612c63565b6117147fa49807205ce4d355092ef5a8a18f56e8913cf4a201fbe287825b095693c2177580612c63565b600081815260ff6020819052604090912054161515600114611d575760405162461bcd60e51b815260206004820152601c60248201527f4f70706f7274756e69747920494420646f65736e27742065786973740000000060448201526064016107e3565b6005600082815260fd60205260409020600a015460ff166007811115611d8d57634e487b7160e01b600052602160045260246000fd5b14611dda5760405162461bcd60e51b815260206004820152601e60248201527f4f70706f7274756e69747920706f6f6c206973206e6f7420616374697665000060448201526064016107e3565b600081815260fd60205260409020600a015461010090046001600160a01b03163314611e6e5760405162461bcd60e51b815260206004820152602d60248201527f4f6e6c79204f70706f7274756e69747920506f6f6c2063616e206d61726b206960448201527f742061732064726177646f776e0000000000000000000000000000000000000060648201526084016107e3565b600081815260fd60205260409020600a015461010090046001600160a01b0316611ee65760405162461bcd60e51b815260206004820152602360248201527f4f70706f7274756e69747920506f6f6c206973206e6f742063726561746564206044820152621e595d60ea1b60648201526084016107e3565b600081815260fd60205260409020600a0180546006919060ff1916600183611417565b60606001600160a01b038216611f615760405162461bcd60e51b815260206004820152601860248201527f696e76616c696420626f72726f7765722061646472657373000000000000000060448201526064016107e3565b6001600160a01b038216600090815260fe602090815260409182902080548351818402810184019094528084529091830182828015611fbf57602002820191906000526020600020905b815481526020019060010190808311611fab575b50505050509050919050565b6000611ff77fa49807205ce4d355092ef5a8a18f56e8913cf4a201fbe287825b095693c2177533610478565b905090565b600054610100900460ff161580801561201c5750600054600160ff909116105b806120365750303b158015612036575060005460ff166001145b6120a85760405162461bcd60e51b815260206004820152602e60248201527f496e697469616c697a61626c653a20636f6e747261637420697320616c72656160448201527f647920696e697469616c697a656400000000000000000000000000000000000060648201526084016107e3565b6000805460ff1916600117905580156120cb576000805461ff0019166101001790555b6001600160a01b0382166121215760405162461bcd60e51b815260206004820152601660248201527f496e76616c696420636f6e66696720616464726573730000000000000000000060448201526064016107e3565b60fb805473ffffffffffffffffffffffffffffffffffffffff19166001600160a01b03841690811790915560009061215890612cae565b90506001600160a01b0381166121b05760405162461bcd60e51b815260206004820152600d60248201527f496e76616c6964204f776e65720000000000000000000000000000000000000060448201526064016107e3565b6121b981611b52565b60fb546121ce906001600160a01b0316612d2f565b60fc805473ffffffffffffffffffffffffffffffffffffffff19166001600160a01b03929092169190911790555080156114a7576000805461ff0019169055604051600181527f7f26b83ff96e1f2b6a682f133852f6798a09c465da95921460cefb38474024989060200160405180910390a15050565b60008281526065602052604090206001015461226081612947565b6111da83836129f3565b612272611fcb565b6122e45760405162461bcd60e51b815260206004820152602b60248201527f4d75737420686176652061646d696e20726f6c6520746f20706572666f726d2060448201527f7468697320616374696f6e00000000000000000000000000000000000000000060648201526084016107e3565b600260c95414156123375760405162461bcd60e51b815260206004820152601f60248201527f5265656e7472616e637947756172643a207265656e7472616e742063616c6c0060448201526064016107e3565b600260c955612344612506565b6001600160a01b03811661239a5760405162461bcd60e51b815260206004820152600f60248201527f496e76616c69642041646472657373000000000000000000000000000000000060448201526064016107e3565b600082815260ff60208190526040909120541615156001146123fe5760405162461bcd60e51b815260206004820152601c60248201527f4f70706f7274756e69747920494420646f65736e27742065786973740000000060448201526064016107e3565b600082815260fd60205260408120600a015460ff16600781111561243257634e487b7160e01b600052602160045260246000fd5b1461247f5760405162461bcd60e51b815260206004820152601d60248201527f4f70706f7274756e69747920697320616c7265616479204a756467656400000060448201526064016107e3565b600082815261010060205260408120829101805473ffffffffffffffffffffffffffffffffffffffff19166001600160a01b0392831617905516600090815261010160209081526040822080546001818101835591845291909220019190915560c955565b61010281815481106124f557600080fd5b600091825260209091200154905081565b60975460ff161561153e5760405162461bcd60e51b815260206004820152601060248201527f5061757361626c653a207061757365640000000000000000000000000000000060448201526064016107e3565b600081815260ff60208190526040909120541615156001146125bd5760405162461bcd60e51b815260206004820152601c60248201527f4f70706f7274756e69747920494420646f65736e27742065786973740000000060448201526064016107e3565b6002600082815260fd60205260409020600a015460ff1660078111156125f357634e487b7160e01b600052602160045260246000fd5b146126405760405162461bcd60e51b815260206004820152601b60248201527f4f70706f7274756e697479206973206e6f7420617070726f766564000000000060448201526064016107e3565b600081815260fd602052604090819020600a8101805460ff1916600490811790915560fc5492517fd204c45e0000000000000000000000000000000000000000000000000000000081526001600160a01b039093169263d204c45e926126ae92339260089092019101613575565b600060405180830381600087803b1580156126c857600080fd5b505af11580156126dc573d6000803e3d6000fd5b5050505050565b60006004600083815260fd60205260409020600a015460ff16600781111561271b57634e487b7160e01b600052602160045260246000fd5b1461278e5760405162461bcd60e51b815260206004820152602c60248201527f436f6c6c61746572616c206f6620746865204f70706f7274756e69747920697360448201527f206e6f74206d696e7465642e000000000000000000000000000000000000000060648201526084016107e3565b600082815260ff60208190526040909120541615156001146127f25760405162461bcd60e51b815260206004820152601c60248201527f4f70706f7274756e69747920494420646f65736e27742065786973740000000060448201526064016107e3565b60fb5460009061280a906001600160a01b0316612d47565b905061281581612d5f565b60fb54600085815260fd60205260409020805460038201549395506001600160a01b038087169463d9f7130d94909116926002019060ff16600181111561286c57634e487b7160e01b600052602160045260246000fd5b600089815260fd602052604090819020600480820154600583015460068401546007850154600986015496516001600160e01b031960e08e901b1681526128c39b9a9998979496939592949193600801920161368d565b600060405180830381600087803b1580156128dd57600080fd5b505af11580156128f1573d6000803e3d6000fd5b5050506000938452505060fd6020526040909120600a0180547fffffffffffffffffffffff0000000000000000000000000000000000000000001660ff196101006001600160a01b038516021617600517905590565b6117148133612dc8565b60008281526065602090815260408083206001600160a01b038516845290915290205460ff166114a75760008281526065602090815260408083206001600160a01b03851684529091529020805460ff191660011790556129af3390565b6001600160a01b0316816001600160a01b0316837f2f8788117e7eff1d82e926ec794901d17c78024a50270940304540a733656f0d60405160405180910390a45050565b60008281526065602090815260408083206001600160a01b038516845290915290205460ff16156114a75760008281526065602090815260408083206001600160a01b0385168085529252808320805460ff1916905551339285917ff6391f5c32d9c69d2a47ea670b442974b53935d1edc7fd64eb21e047a839171b9190a45050565b612a7e612e48565b6097805460ff191690557f5db9ee0a495bf2e6ff9c91a7834c1ba4fdd244a5e8aa4e537bd38aeae4b073aa335b6040516001600160a01b03909116815260200160405180910390a1565b600054610100900460ff16612b335760405162461bcd60e51b815260206004820152602b60248201527f496e697469616c697a61626c653a20636f6e7472616374206973206e6f74206960448201526a6e697469616c697a696e6760a81b60648201526084016107e3565b6097805460ff19169055565b612b47612506565b6097805460ff191660011790557f62e78cea01bee320cd4e420270b5ea74000d11b0c9f74754ebdbfc544b05a258612aab3390565b600054610100900460ff1661153e5760405162461bcd60e51b815260206004820152602b60248201527f496e697469616c697a61626c653a20636f6e7472616374206973206e6f74206960448201526a6e697469616c697a696e6760a81b60648201526084016107e3565b600054610100900460ff16612c525760405162461bcd60e51b815260206004820152602b60248201527f496e697469616c697a61626c653a20636f6e7472616374206973206e6f74206960448201526a6e697469616c697a696e6760a81b60648201526084016107e3565b600160c955565b6114a78282612951565b600082815260656020526040808220600101805490849055905190918391839186917fbd79b86ffe0ab8e8776151514217cd7cacd52c909f66475c3af44e129f0b00ff9190a4505050565b60006001600160a01b03821663b93f9b0a825b6040518263ffffffff1660e01b8152600401612cdf91815260200190565b60206040518083038186803b158015612cf757600080fd5b505afa158015612d0b573d6000803e3d6000fd5b505050506040513d601f19601f820116820180604052508101906105f9919061325d565b60006001600160a01b03821663b93f9b0a6005612cc1565b60006001600160a01b03821663b93f9b0a6004612cc1565b6000808260601b90506040517f3d602d80600a3d3981f3363d3d373d3d3d363d7300000000000000000000000081528160148201527f5af43d82803e903d91602b57fd5bf3000000000000000000000000000000000060288201526037816000f0949350505050565b60008281526065602090815260408083206001600160a01b038516845290915290205460ff166114a757612e06816001600160a01b03166014612e9a565b612e11836020612e9a565b604051602001612e229291906134f4565b60408051601f198184030181529082905262461bcd60e51b82526107e391600401613705565b60975460ff1661153e5760405162461bcd60e51b815260206004820152601460248201527f5061757361626c653a206e6f742070617573656400000000000000000000000060448201526064016107e3565b60606000612ea9836002613730565b612eb4906002613718565b67ffffffffffffffff811115612eda57634e487b7160e01b600052604160045260246000fd5b6040519080825280601f01601f191660200182016040528015612f04576020820181803683370190505b5090507f300000000000000000000000000000000000000000000000000000000000000081600081518110612f4957634e487b7160e01b600052603260045260246000fd5b60200101906001600160f81b031916908160001a9053507f780000000000000000000000000000000000000000000000000000000000000081600181518110612fa257634e487b7160e01b600052603260045260246000fd5b60200101906001600160f81b031916908160001a9053506000612fc6846002613730565b612fd1906001613718565b90505b6001811115613072577f303132333435363738396162636465660000000000000000000000000000000085600f166010811061302057634e487b7160e01b600052603260045260246000fd5b1a60f81b82828151811061304457634e487b7160e01b600052603260045260246000fd5b60200101906001600160f81b031916908160001a90535060049490941c9361306b8161377f565b9050612fd4565b5083156130c15760405162461bcd60e51b815260206004820181905260248201527f537472696e67733a20686578206c656e67746820696e73756666696369656e7460448201526064016107e3565b9392505050565b604080516101a0810182526000808252602082018190526060928201839052909182019081526020016000815260200160008152602001600081526020016000815260200160608152602001600081526020016000600781111561313c57634e487b7160e01b600052602160045260246000fd5b815260006020820181905260409091015290565b82805461315c90613796565b90600052602060002090601f01602090048101928261317e57600085556131c4565b82601f1061319757805160ff19168380011785556131c4565b828001600101855582156131c4579182015b828111156131c45782518255916020019190600101906131a9565b506131d09291506131d4565b5090565b5b808211156131d057600081556001016131d5565b60008083601f8401126131fa578182fd5b50813567ffffffffffffffff811115613211578182fd5b60208301915083602082850101111561322957600080fd5b9250929050565b803560ff811681146115f257600080fd5b600060208284031215613252578081fd5b81356130c1816137fd565b60006020828403121561326e578081fd5b81516130c1816137fd565b60008060008060008060008060008060006101208c8e03121561329a578687fd5b6132a48c356137fd565b8b359a5067ffffffffffffffff8060208e013511156132c1578788fd5b6132d18e60208f01358f016131e9565b909b5099506132e260408e01613230565b985060608d0135975060808d0135965060a08d0135955060c08d013594508060e08e01351115613310578384fd5b506133218d60e08e01358e016131e9565b81945080935050506101008c013590509295989b509295989b9093969950565b60008060408385031215613353578182fd5b823561335e816137fd565b946020939093013593505050565b60006020828403121561337d578081fd5b5035919050565b60008060408385031215613396578182fd5b8235915060208301356133a8816137fd565b809150509250929050565b600080604083850312156133c5578182fd5b823591506133d560208401613230565b90509250929050565b6000602082840312156133ef578081fd5b81356001600160e01b0319811681146130c1578182fd5b60088110613416576134166137e7565b9052565b6000815180845261343281602086016020860161374f565b601f01601f19169290920160200192915050565b8054600090600181811c908083168061346057607f831692505b602080841082141561348057634e487b7160e01b86526022600452602486fd5b8388526020880182801561349b57600181146134ac576134d7565b60ff198716825282820197506134d7565b60008981526020902060005b878110156134d1578154848201529086019084016134b8565b83019850505b5050505050505092915050565b8183823760009101908152919050565b7f416363657373436f6e74726f6c3a206163636f756e742000000000000000000081526000835161352c81601785016020880161374f565b7f206973206d697373696e6720726f6c6520000000000000000000000000000000601791840191820152835161356981602884016020880161374f565b01602801949350505050565b6001600160a01b03831681526040602082015260006135976040830184613446565b949350505050565b6020808252825182820181905260009190848201906040850190845b818110156135d7578351835292840192918401916001016135bb565b50909695505050505050565b60006101a08f83526001600160a01b038f16602084015280604084015261360c8184018f61341a565b905060028d1061361e5761361e6137e7565b8c60608401528b60808401528a60a08401528960c08401528860e084015282810361010084015261364f818961341a565b91505085610120830152613667610140830186613406565b6001600160a01b039390931661016082015261018001529b9a5050505050505050505050565b60006101406001600160a01b038d1683528b60208401528060408401526136b68184018c613446565b905060ff8a1660608401528860808401528760a08401528660c08401528560e08401528281036101008401526136ec8186613446565b915050826101208301529b9a5050505050505050505050565b6020815260006130c1602083018461341a565b6000821982111561372b5761372b6137d1565b500190565b600081600019048311821515161561374a5761374a6137d1565b500290565b60005b8381101561376a578181015183820152602001613752565b83811115613779576000848401525b50505050565b60008161378e5761378e6137d1565b506000190190565b600181811c908216806137aa57607f821691505b602082108114156137cb57634e487b7160e01b600052602260045260246000fd5b50919050565b634e487b7160e01b600052601160045260246000fd5b634e487b7160e01b600052602160045260246000fd5b6001600160a01b038116811461171457600080fdfea26469706673582212204e0e26edeae63d208fcda3b42bfb1140161c30b4bb4094fd1b14b45bdaeb88b464736f6c63430008040033",
  "linkReferences": {},
  "deployedLinkReferences": {}
}