{
  "_format": "hh-sol-artifact-1",
  "contractName": "OpportunityOrigination",
  "sourceName": "contracts/protocol/OpportunityOrigination.sol",
  "abi": [
    {
      "anonymous": false,
      "inputs": [
        {
          "indexed": false,
          "internalType": "uint8",
          "name": "version",
          "type": "uint8"
        }
      ],
      "name": "Initialized",
      "type": "event"
    },
    {
      "anonymous": false,
      "inputs": [
        {
          "indexed": false,
          "internalType": "address",
          "name": "account",
          "type": "address"
        }
      ],
      "name": "Paused",
      "type": "event"
    },
    {
      "anonymous": false,
      "inputs": [
        {
          "indexed": true,
          "internalType": "bytes32",
          "name": "role",
          "type": "bytes32"
        },
        {
          "indexed": true,
          "internalType": "bytes32",
          "name": "previousAdminRole",
          "type": "bytes32"
        },
        {
          "indexed": true,
          "internalType": "bytes32",
          "name": "newAdminRole",
          "type": "bytes32"
        }
      ],
      "name": "RoleAdminChanged",
      "type": "event"
    },
    {
      "anonymous": false,
      "inputs": [
        {
          "indexed": true,
          "internalType": "bytes32",
          "name": "role",
          "type": "bytes32"
        },
        {
          "indexed": true,
          "internalType": "address",
          "name": "account",
          "type": "address"
        },
        {
          "indexed": true,
          "internalType": "address",
          "name": "sender",
          "type": "address"
        }
      ],
      "name": "RoleGranted",
      "type": "event"
    },
    {
      "anonymous": false,
      "inputs": [
        {
          "indexed": true,
          "internalType": "bytes32",
          "name": "role",
          "type": "bytes32"
        },
        {
          "indexed": true,
          "internalType": "address",
          "name": "account",
          "type": "address"
        },
        {
          "indexed": true,
          "internalType": "address",
          "name": "sender",
          "type": "address"
        }
      ],
      "name": "RoleRevoked",
      "type": "event"
    },
    {
      "anonymous": false,
      "inputs": [
        {
          "indexed": false,
          "internalType": "address",
          "name": "account",
          "type": "address"
        }
      ],
      "name": "Unpaused",
      "type": "event"
    },
    {
      "inputs": [],
      "name": "ADMIN_ROLE",
      "outputs": [
        {
          "internalType": "bytes32",
          "name": "",
          "type": "bytes32"
        }
      ],
      "stateMutability": "view",
      "type": "function"
    },
    {
      "inputs": [],
      "name": "DEFAULT_ADMIN_ROLE",
      "outputs": [
        {
          "internalType": "bytes32",
          "name": "",
          "type": "bytes32"
        }
      ],
      "stateMutability": "view",
      "type": "function"
    },
    {
      "inputs": [],
      "name": "PAUSER_ROLE",
      "outputs": [
        {
          "internalType": "bytes32",
          "name": "",
          "type": "bytes32"
        }
      ],
      "stateMutability": "view",
      "type": "function"
    },
    {
      "inputs": [
        {
          "internalType": "address",
          "name": "owner",
          "type": "address"
        }
      ],
      "name": "_BaseUpgradeablePausable_init",
      "outputs": [],
      "stateMutability": "nonpayable",
      "type": "function"
    },
    {
      "inputs": [],
      "name": "__PauserPausable__init",
      "outputs": [],
      "stateMutability": "nonpayable",
      "type": "function"
    },
    {
      "inputs": [
        {
          "internalType": "bytes32",
          "name": "_opportunityId",
          "type": "bytes32"
        },
        {
          "internalType": "address",
          "name": "_underwriter",
          "type": "address"
        }
      ],
      "name": "assignUnderwriters",
      "outputs": [],
      "stateMutability": "nonpayable",
      "type": "function"
    },
    {
      "inputs": [],
      "name": "collateralToken",
      "outputs": [
        {
          "internalType": "contract CollateralToken",
          "name": "",
          "type": "address"
        }
      ],
      "stateMutability": "view",
      "type": "function"
    },
    {
      "inputs": [
        {
          "components": [
            {
              "internalType": "address",
              "name": "borrower",
              "type": "address"
            },
            {
              "internalType": "string",
              "name": "opportunityName",
              "type": "string"
            },
            {
              "internalType": "string",
              "name": "opportunityInfo",
              "type": "string"
            },
            {
              "internalType": "enum IOpportunityOrigination.LoanType",
              "name": "loanType",
              "type": "uint8"
            },
            {
              "internalType": "uint256",
              "name": "loanAmount",
              "type": "uint256"
            },
            {
              "internalType": "uint256",
              "name": "loanTenureInDays",
              "type": "uint256"
            },
            {
              "internalType": "uint256",
              "name": "loanInterest",
              "type": "uint256"
            },
            {
              "internalType": "uint256",
              "name": "paymentFrequencyInDays",
              "type": "uint256"
            },
            {
              "internalType": "string",
              "name": "collateralDocument",
              "type": "string"
            },
            {
              "internalType": "uint256",
              "name": "capitalLoss",
              "type": "uint256"
            }
          ],
          "internalType": "struct IOpportunityOrigination.CreateOpportunity",
          "name": "_opportunityData",
          "type": "tuple"
        }
      ],
      "name": "createOpportunity",
      "outputs": [],
      "stateMutability": "nonpayable",
      "type": "function"
    },
    {
      "inputs": [],
      "name": "dygnifyConfig",
      "outputs": [
        {
          "internalType": "contract DygnifyConfig",
          "name": "",
          "type": "address"
        }
      ],
      "stateMutability": "view",
      "type": "function"
    },
    {
      "inputs": [
        {
          "internalType": "address",
          "name": "borrower",
          "type": "address"
        }
      ],
      "name": "getAlltheOpportunitiesOf",
      "outputs": [
        {
          "internalType": "bytes32[]",
          "name": "",
          "type": "bytes32[]"
        }
      ],
      "stateMutability": "view",
      "type": "function"
    },
    {
      "inputs": [
        {
          "internalType": "bytes32",
          "name": "id",
          "type": "bytes32"
        }
      ],
      "name": "getBorrower",
      "outputs": [
        {
          "internalType": "address",
          "name": "",
          "type": "address"
        }
      ],
      "stateMutability": "view",
      "type": "function"
    },
    {
      "inputs": [
        {
          "internalType": "bytes32",
          "name": "_opportunityId",
          "type": "bytes32"
        }
      ],
      "name": "getOpportunityNameOf",
      "outputs": [
        {
          "internalType": "string",
          "name": "",
          "type": "string"
        }
      ],
      "stateMutability": "view",
      "type": "function"
    },
    {
      "inputs": [
        {
          "internalType": "address",
          "name": "_borrower",
          "type": "address"
        }
      ],
      "name": "getOpportunityOf",
      "outputs": [
        {
          "internalType": "bytes32[]",
          "name": "",
          "type": "bytes32[]"
        }
      ],
      "stateMutability": "view",
      "type": "function"
    },
    {
      "inputs": [
        {
          "internalType": "bytes32",
          "name": "id",
          "type": "bytes32"
        }
      ],
      "name": "getOpportunityPoolAddress",
      "outputs": [
        {
          "internalType": "address",
          "name": "",
          "type": "address"
        }
      ],
      "stateMutability": "view",
      "type": "function"
    },
    {
      "inputs": [
        {
          "internalType": "bytes32",
          "name": "role",
          "type": "bytes32"
        }
      ],
      "name": "getRoleAdmin",
      "outputs": [
        {
          "internalType": "bytes32",
          "name": "",
          "type": "bytes32"
        }
      ],
      "stateMutability": "view",
      "type": "function"
    },
    {
      "inputs": [],
      "name": "getTotalOpportunities",
      "outputs": [
        {
          "internalType": "uint256",
          "name": "",
          "type": "uint256"
        }
      ],
      "stateMutability": "view",
      "type": "function"
    },
    {
      "inputs": [
        {
          "internalType": "address",
          "name": "_underwriter",
          "type": "address"
        }
      ],
      "name": "getUnderWritersOpportunities",
      "outputs": [
        {
          "internalType": "bytes32[]",
          "name": "",
          "type": "bytes32[]"
        }
      ],
      "stateMutability": "view",
      "type": "function"
    },
    {
      "inputs": [
        {
          "internalType": "bytes32",
          "name": "role",
          "type": "bytes32"
        },
        {
          "internalType": "address",
          "name": "account",
          "type": "address"
        }
      ],
      "name": "grantRole",
      "outputs": [],
      "stateMutability": "nonpayable",
      "type": "function"
    },
    {
      "inputs": [
        {
          "internalType": "bytes32",
          "name": "role",
          "type": "bytes32"
        },
        {
          "internalType": "address",
          "name": "account",
          "type": "address"
        }
      ],
      "name": "hasRole",
      "outputs": [
        {
          "internalType": "bool",
          "name": "",
          "type": "bool"
        }
      ],
      "stateMutability": "view",
      "type": "function"
    },
    {
      "inputs": [
        {
          "internalType": "contract DygnifyConfig",
          "name": "config",
          "type": "address"
        }
      ],
      "name": "initialize",
      "outputs": [],
      "stateMutability": "nonpayable",
      "type": "function"
    },
    {
      "inputs": [
        {
          "internalType": "bytes32",
          "name": "id",
          "type": "bytes32"
        }
      ],
      "name": "isActive",
      "outputs": [
        {
          "internalType": "bool",
          "name": "",
          "type": "bool"
        }
      ],
      "stateMutability": "view",
      "type": "function"
    },
    {
      "inputs": [],
      "name": "isAdmin",
      "outputs": [
        {
          "internalType": "bool",
          "name": "",
          "type": "bool"
        }
      ],
      "stateMutability": "view",
      "type": "function"
    },
    {
      "inputs": [
        {
          "internalType": "bytes32",
          "name": "id",
          "type": "bytes32"
        }
      ],
      "name": "isDrawdown",
      "outputs": [
        {
          "internalType": "bool",
          "name": "",
          "type": "bool"
        }
      ],
      "stateMutability": "view",
      "type": "function"
    },
    {
      "inputs": [
        {
          "internalType": "bytes32",
          "name": "",
          "type": "bytes32"
        }
      ],
      "name": "isOpportunity",
      "outputs": [
        {
          "internalType": "bool",
          "name": "",
          "type": "bool"
        }
      ],
      "stateMutability": "view",
      "type": "function"
    },
    {
      "inputs": [
        {
          "internalType": "bytes32",
          "name": "id",
          "type": "bytes32"
        }
      ],
      "name": "isRepaid",
      "outputs": [
        {
          "internalType": "bool",
          "name": "",
          "type": "bool"
        }
      ],
      "stateMutability": "view",
      "type": "function"
    },
    {
      "inputs": [
        {
          "internalType": "bytes32",
          "name": "id",
          "type": "bytes32"
        }
      ],
      "name": "markDrawDown",
      "outputs": [],
      "stateMutability": "nonpayable",
      "type": "function"
    },
    {
      "inputs": [
        {
          "internalType": "bytes32",
          "name": "id",
          "type": "bytes32"
        }
      ],
      "name": "markRepaid",
      "outputs": [],
      "stateMutability": "nonpayable",
      "type": "function"
    },
    {
      "inputs": [
        {
          "internalType": "uint256",
          "name": "",
          "type": "uint256"
        }
      ],
      "name": "opportunityIds",
      "outputs": [
        {
          "internalType": "bytes32",
          "name": "",
          "type": "bytes32"
        }
      ],
      "stateMutability": "view",
      "type": "function"
    },
    {
      "inputs": [
        {
          "internalType": "address",
          "name": "",
          "type": "address"
        },
        {
          "internalType": "uint256",
          "name": "",
          "type": "uint256"
        }
      ],
      "name": "opportunityOf",
      "outputs": [
        {
          "internalType": "bytes32",
          "name": "",
          "type": "bytes32"
        }
      ],
      "stateMutability": "view",
      "type": "function"
    },
    {
      "inputs": [
        {
          "internalType": "bytes32",
          "name": "",
          "type": "bytes32"
        }
      ],
      "name": "opportunityToId",
      "outputs": [
        {
          "internalType": "bytes32",
          "name": "opportunityID",
          "type": "bytes32"
        },
        {
          "internalType": "address",
          "name": "borrower",
          "type": "address"
        },
        {
          "internalType": "string",
          "name": "opportunityName",
          "type": "string"
        },
        {
          "internalType": "string",
          "name": "opportunityInfo",
          "type": "string"
        },
        {
          "internalType": "enum IOpportunityOrigination.LoanType",
          "name": "loanType",
          "type": "uint8"
        },
        {
          "internalType": "uint256",
          "name": "loanAmount",
          "type": "uint256"
        },
        {
          "internalType": "uint256",
          "name": "loanTenureInDays",
          "type": "uint256"
        },
        {
          "internalType": "uint256",
          "name": "loanInterest",
          "type": "uint256"
        },
        {
          "internalType": "uint256",
          "name": "paymentFrequencyInDays",
          "type": "uint256"
        },
        {
          "internalType": "string",
          "name": "collateralDocument",
          "type": "string"
        },
        {
          "internalType": "uint256",
          "name": "capitalLoss",
          "type": "uint256"
        },
        {
          "internalType": "enum IOpportunityOrigination.OpportunityStatus",
          "name": "opportunityStatus",
          "type": "uint8"
        },
        {
          "internalType": "address",
          "name": "opportunityPoolAddress",
          "type": "address"
        },
        {
          "internalType": "uint256",
          "name": "createdOn",
          "type": "uint256"
        }
      ],
      "stateMutability": "view",
      "type": "function"
    },
    {
      "inputs": [],
      "name": "pause",
      "outputs": [],
      "stateMutability": "nonpayable",
      "type": "function"
    },
    {
      "inputs": [],
      "name": "paused",
      "outputs": [
        {
          "internalType": "bool",
          "name": "",
          "type": "bool"
        }
      ],
      "stateMutability": "view",
      "type": "function"
    },
    {
      "inputs": [
        {
          "internalType": "bytes32",
          "name": "role",
          "type": "bytes32"
        },
        {
          "internalType": "address",
          "name": "account",
          "type": "address"
        }
      ],
      "name": "renounceRole",
      "outputs": [],
      "stateMutability": "nonpayable",
      "type": "function"
    },
    {
      "inputs": [
        {
          "internalType": "bytes32",
          "name": "role",
          "type": "bytes32"
        },
        {
          "internalType": "address",
          "name": "account",
          "type": "address"
        }
      ],
      "name": "revokeRole",
      "outputs": [],
      "stateMutability": "nonpayable",
      "type": "function"
    },
    {
      "inputs": [
        {
          "internalType": "bytes4",
          "name": "interfaceId",
          "type": "bytes4"
        }
      ],
      "name": "supportsInterface",
      "outputs": [
        {
          "internalType": "bool",
          "name": "",
          "type": "bool"
        }
      ],
      "stateMutability": "view",
      "type": "function"
    },
    {
      "inputs": [
        {
          "internalType": "address",
          "name": "",
          "type": "address"
        },
        {
          "internalType": "uint256",
          "name": "",
          "type": "uint256"
        }
      ],
      "name": "underwriterToOpportunity",
      "outputs": [
        {
          "internalType": "bytes32",
          "name": "",
          "type": "bytes32"
        }
      ],
      "stateMutability": "view",
      "type": "function"
    },
    {
      "inputs": [],
      "name": "unpause",
      "outputs": [],
      "stateMutability": "nonpayable",
      "type": "function"
    },
    {
      "inputs": [
        {
          "internalType": "bytes32",
          "name": "_opportunityId",
          "type": "bytes32"
        },
        {
          "internalType": "uint8",
          "name": "_status",
          "type": "uint8"
        }
      ],
      "name": "voteOpportunity",
      "outputs": [],
      "stateMutability": "nonpayable",
      "type": "function"
    }
  ],
  "bytecode": "0x608060405234801561001057600080fd5b50613d92806100206000396000f3fe608060405234801561001057600080fd5b50600436106102925760003560e01c80637e4dc6d511610160578063b369be54116100d8578063e2f372241161008c578063e87ec15f11610071578063e87ec15f146105ba578063f00474a6146105cd578063f1bae27d146105ed57600080fd5b8063e2f3722414610580578063e63ab1e91461059357600080fd5b8063c4d66de8116100bd578063c4d66de814610536578063d547741f14610549578063e0bb77e31461055c57600080fd5b8063b369be541461051b578063b6db75a01461052e57600080fd5b806391d148541161012f578063a217fddf11610114578063a217fddf146104ed578063af7ea944146104f5578063b2016bd41461050857600080fd5b806391d14854146104a1578063a12dde4d146104da57600080fd5b80637e4dc6d51461046057806381767155146104735780638456cb591461048657806389eb01fc1461048e57600080fd5b80633f4ba83a1161020e5780635c975abb116101c257806375b238fc116101a757806375b238fc146104135780637921c67d1461043a5780637a8f55601461044d57600080fd5b80635c975abb146103f5578063728c3ea21461040057600080fd5b8063486caf7c116101f3578063486caf7c146103d1578063526d81f6146103da5780635c36901c146103e257600080fd5b80633f4ba83a146103b65780634622abe0146103be57600080fd5b8063248a9ca3116102655780632f2ff15d1161024a5780632f2ff15d1461037d578063332f14861461039057806336568abe146103a357600080fd5b8063248a9ca3146103375780632885f8b91461036857600080fd5b806301ffc9a7146102975780630bca245a146102bf5780631633f5a3146102ec5780631be954591461030c575b600080fd5b6102aa6102a5366004613805565b610600565b60405190151581526020015b60405180910390f35b6102d26102cd366004613795565b610699565b6040516102b69e9d9c9b9a99989796959493929190613b39565b6102ff6102fa366004613732565b6108bc565b6040516102b69190613af5565b60fb5461031f906001600160a01b031681565b6040516001600160a01b0390911681526020016102b6565b61035a610345366004613795565b60009081526065602052604090206001015490565b6040519081526020016102b6565b61037b6103763660046137dc565b610987565b005b61037b61038b3660046137ad565b610c35565b61037b61039e366004613795565b610c5f565b61037b6103b13660046137ad565b610e8d565b61037b610f19565b6102aa6103cc366004613795565b610fae565b6101025461035a565b61037b611053565b6102aa6103f0366004613795565b611173565b60975460ff166102aa565b61031f61040e366004613795565b611210565b61035a7fa49807205ce4d355092ef5a8a18f56e8913cf4a201fbe287825b095693c2177581565b61035a61044836600461376a565b611280565b61035a61045b36600461376a565b6112b1565b61031f61046e366004613795565b6112ce565b6102aa610481366004613795565b611460565b61037b6114b8565b6102ff61049c366004613732565b61154b565b6102aa6104af3660046137ad565b60009182526065602090815260408084206001600160a01b0393909316845291905290205460ff1690565b61037b6104e8366004613732565b61160e565b61035a600081565b61037b610503366004613795565b6117af565b60fc5461031f906001600160a01b031681565b6102ff610529366004613732565b6119b3565b6102aa611a75565b61037b610544366004613732565b611aa6565b61037b6105573660046137ad565b611cef565b6102aa61056a366004613795565b60ff602081905260009182526040909120541681565b61037b61058e366004613845565b611d14565b61035a7f65d7a28e3265b37a6474929f336521b332c1681b933f6cb9f3376673440d862a81565b61037b6105c83660046137ad565b61241e565b6105e06105db366004613795565b612686565b6040516102b69190613bef565b61035a6105fb366004613795565b6129c3565b60007fffffffff0000000000000000000000000000000000000000000000000000000082167f7965db0b00000000000000000000000000000000000000000000000000000000148061069357507f01ffc9a7000000000000000000000000000000000000000000000000000000007fffffffff000000000000000000000000000000000000000000000000000000008316145b92915050565b60fd6020526000908152604090208054600182015460028301805492936001600160a01b03909216926106cb90613caa565b80601f01602080910402602001604051908101604052809291908181526020018280546106f790613caa565b80156107445780601f1061071957610100808354040283529160200191610744565b820191906000526020600020905b81548152906001019060200180831161072757829003601f168201915b50505050509080600301805461075990613caa565b80601f016020809104026020016040519081016040528092919081815260200182805461078590613caa565b80156107d25780601f106107a7576101008083540402835291602001916107d2565b820191906000526020600020905b8154815290600101906020018083116107b557829003601f168201915b5050505050908060040160009054906101000a900460ff169080600501549080600601549080600701549080600801549080600901805461081290613caa565b80601f016020809104026020016040519081016040528092919081815260200182805461083e90613caa565b801561088b5780601f106108605761010080835404028352916020019161088b565b820191906000526020600020905b81548152906001019060200180831161086e57829003601f168201915b50505050600a830154600b840154600c909401549293909260ff821692506101009091046001600160a01b0316908e565b60606001600160a01b0382166109195760405162461bcd60e51b815260206004820152601b60248201527f496e76616c696420756e6465727772697465722073646472657373000000000060448201526064015b60405180910390fd5b6001600160a01b0382166000908152610101602090815260408083208054825181850281018501909352808352919290919083018282801561097a57602002820191906000526020600020905b815481526020019060010190808311610966575b5093979650505050505050565b600260c95414156109da5760405162461bcd60e51b815260206004820152601f60248201527f5265656e7472616e637947756172643a207265656e7472616e742063616c6c006044820152606401610910565b600260c9556109e76129e5565b600082815261010060205260409020546001600160a01b03163314610a745760405162461bcd60e51b815260206004820152602d60248201527f596f7520617265206e6f7420616e206175646969746f7220666f72207468697360448201527f204f70706f7274756e6974792e000000000000000000000000000000000000006064820152608401610910565b600082815260ff6020819052604090912054161515600114610ac65760405162461bcd60e51b815260206004820152601c6024820152600080516020613d3d8339815191526044820152606401610910565b600160ff821610801590610ade5750600360ff821611155b610b2a5760405162461bcd60e51b815260206004820152601560248201527f537461747573203a206f7574206f662072616e676500000000000000000000006044820152606401610910565b600082815260fd60205260408120600b015460ff166007811115610b5e57634e487b7160e01b600052602160045260246000fd5b14610bab5760405162461bcd60e51b815260206004820152601d60248201527f4f70706f7274756e69747920697320616c7265616479204a75646765640000006044820152606401610910565b8060ff166007811115610bce57634e487b7160e01b600052602160045260246000fd5b600083815260fd60205260409020600b01805460ff19166001836007811115610c0757634e487b7160e01b600052602160045260246000fd5b021790555060ff811660021415610c2c57610c2182612a38565b610c2a82612bb0565b505b5050600160c955565b600082815260656020526040902060010154610c5081612de7565b610c5a8383612df1565b505050565b600081815260ff6020819052604090912054161515600114610cb15760405162461bcd60e51b815260206004820152601c6024820152600080516020613d3d8339815191526044820152606401610910565b6006600082815260fd60205260409020600b015460ff166007811115610ce757634e487b7160e01b600052602160045260246000fd5b14610d5a5760405162461bcd60e51b815260206004820152602960248201527f4f70706f7274756e69747920706f6f6c20697320686176656e2774206472617760448201527f646f776e207965742e00000000000000000000000000000000000000000000006064820152608401610910565b600081815260fd60205260409020600b015461010090046001600160a01b03163314610dee5760405162461bcd60e51b815260206004820152602b60248201527f4f6e6c79204f70706f7274756e69747920506f6f6c2063616e206d61726b206960448201527f74206173207265706169640000000000000000000000000000000000000000006064820152608401610910565b600081815260fd60205260409020600b015461010090046001600160a01b0316610e665760405162461bcd60e51b815260206004820152602360248201527f4f70706f7274756e69747920506f6f6c206973206e6f742063726561746564206044820152621e595d60ea1b6064820152608401610910565b600081815260fd60205260409020600b0180546007919060ff19166001835b021790555050565b6001600160a01b0381163314610f0b5760405162461bcd60e51b815260206004820152602f60248201527f416363657373436f6e74726f6c3a2063616e206f6e6c792072656e6f756e636560448201527f20726f6c657320666f722073656c6600000000000000000000000000000000006064820152608401610910565b610f158282612e93565b5050565b610f437f65d7a28e3265b37a6474929f336521b332c1681b933f6cb9f3376673440d862a336104af565b610fa45760405162461bcd60e51b815260206004820152602c60248201527f4d75737420686176652070617573657220726f6c6520746f20706572666f726d60448201526b103a3434b99030b1ba34b7b760a11b6064820152608401610910565b610fac612f16565b565b600081815260ff60208190526040822054161515600114610fff5760405162461bcd60e51b815260206004820152601c6024820152600080516020613d3d8339815191526044820152606401610910565b600082815260fd60205260409020600b015460069060ff16600781111561103657634e487b7160e01b600052602160045260246000fd5b60ff161061104657506001919050565b506000919050565b919050565b600054610100900460ff16158080156110735750600054600160ff909116105b8061108d5750303b15801561108d575060005460ff166001145b6110ff5760405162461bcd60e51b815260206004820152602e60248201527f496e697469616c697a61626c653a20636f6e747261637420697320616c72656160448201527f647920696e697469616c697a65640000000000000000000000000000000000006064820152608401610910565b6000805460ff191660011790558015611122576000805461ff0019166101001790555b61112a612f68565b8015611170576000805461ff0019169055604051600181527f7f26b83ff96e1f2b6a682f133852f6798a09c465da95921460cefb38474024989060200160405180910390a15b50565b600081815260ff602081905260408220541615156001146111c45760405162461bcd60e51b815260206004820152601c6024820152600080516020613d3d8339815191526044820152606401610910565b60055b600083815260fd60205260409020600b015460ff918216911660078111156111ff57634e487b7160e01b600052602160045260246000fd5b60ff16141561104657506001919050565b600081815260ff602081905260408220541615156001146112615760405162461bcd60e51b815260206004820152601c6024820152600080516020613d3d8339815191526044820152606401610910565b50600090815260fd60205260409020600101546001600160a01b031690565b60fe602052816000526040600020818154811061129c57600080fd5b90600052602060002001600091509150505481565b610101602052816000526040600020818154811061129c57600080fd5b600081815260ff6020819052604082205416151560011461131f5760405162461bcd60e51b815260206004820152601c6024820152600080516020613d3d8339815191526044820152606401610910565b600082815260fd60205260409020600b015460059060ff16600781111561135657634e487b7160e01b600052602160045260246000fd5b60ff1610156113cd5760405162461bcd60e51b815260206004820152602b60248201527f4f70706f7274756e697479206d757374206265206163746976652f647261776e60448201527f646f776e2f7265706169640000000000000000000000000000000000000000006064820152608401610910565b600082815260fd60205260409020600b015461010090046001600160a01b0316806106935760405162461bcd60e51b815260206004820152602c60248201527f4f70706f7274756e69747920706f6f6c206164647265737320686176656e277460448201527f20637265617465642079657400000000000000000000000000000000000000006064820152608401610910565b600081815260ff602081905260408220541615156001146114b15760405162461bcd60e51b815260206004820152601c6024820152600080516020613d3d8339815191526044820152606401610910565b60076111c7565b6114e27f65d7a28e3265b37a6474929f336521b332c1681b933f6cb9f3376673440d862a336104af565b6115435760405162461bcd60e51b815260206004820152602c60248201527f4d75737420686176652070617573657220726f6c6520746f20706572666f726d60448201526b103a3434b99030b1ba34b7b760a11b6064820152608401610910565b610fac612fdf565b60606001600160a01b0382166115a35760405162461bcd60e51b815260206004820152601860248201527f496e76616c696420426f72726f776572207364647265737300000000000000006044820152606401610910565b6001600160a01b038216600090815260fe602090815260408083208054825181850281018501909352808352919290919083018282801561097a5760200282019190600052602060002090815481526020019060010190808311610966575093979650505050505050565b600054610100900460ff166116795760405162461bcd60e51b815260206004820152602b60248201527f496e697469616c697a61626c653a20636f6e7472616374206973206e6f74206960448201526a6e697469616c697a696e6760a81b6064820152608401610910565b6001600160a01b0381166116cf5760405162461bcd60e51b815260206004820181905260248201527f4f776e65722063616e6e6f7420626520746865207a65726f20616464726573736044820152606401610910565b6116d761301c565b6116df612f68565b6116e7613087565b6117117fa49807205ce4d355092ef5a8a18f56e8913cf4a201fbe287825b095693c21775826130f9565b61173b7f65d7a28e3265b37a6474929f336521b332c1681b933f6cb9f3376673440d862a826130f9565b6117857f65d7a28e3265b37a6474929f336521b332c1681b933f6cb9f3376673440d862a7fa49807205ce4d355092ef5a8a18f56e8913cf4a201fbe287825b095693c21775613103565b6111707fa49807205ce4d355092ef5a8a18f56e8913cf4a201fbe287825b095693c2177580613103565b600081815260ff60208190526040909120541615156001146118015760405162461bcd60e51b815260206004820152601c6024820152600080516020613d3d8339815191526044820152606401610910565b6005600082815260fd60205260409020600b015460ff16600781111561183757634e487b7160e01b600052602160045260246000fd5b146118845760405162461bcd60e51b815260206004820152601e60248201527f4f70706f7274756e69747920706f6f6c206973206e6f742061637469766500006044820152606401610910565b600081815260fd60205260409020600b015461010090046001600160a01b031633146119185760405162461bcd60e51b815260206004820152602d60248201527f4f6e6c79204f70706f7274756e69747920506f6f6c2063616e206d61726b206960448201527f742061732064726177646f776e000000000000000000000000000000000000006064820152608401610910565b600081815260fd60205260409020600b015461010090046001600160a01b03166119905760405162461bcd60e51b815260206004820152602360248201527f4f70706f7274756e69747920506f6f6c206973206e6f742063726561746564206044820152621e595d60ea1b6064820152608401610910565b600081815260fd60205260409020600b0180546006919060ff1916600183610e85565b60606001600160a01b038216611a0b5760405162461bcd60e51b815260206004820152601860248201527f696e76616c696420626f72726f776572206164647265737300000000000000006044820152606401610910565b6001600160a01b038216600090815260fe602090815260409182902080548351818402810184019094528084529091830182828015611a6957602002820191906000526020600020905b815481526020019060010190808311611a55575b50505050509050919050565b6000611aa17fa49807205ce4d355092ef5a8a18f56e8913cf4a201fbe287825b095693c21775336104af565b905090565b600054610100900460ff1615808015611ac65750600054600160ff909116105b80611ae05750303b158015611ae0575060005460ff166001145b611b525760405162461bcd60e51b815260206004820152602e60248201527f496e697469616c697a61626c653a20636f6e747261637420697320616c72656160448201527f647920696e697469616c697a65640000000000000000000000000000000000006064820152608401610910565b6000805460ff191660011790558015611b75576000805461ff0019166101001790555b6001600160a01b038216611bcb5760405162461bcd60e51b815260206004820152601660248201527f496e76616c696420636f6e6669672061646472657373000000000000000000006044820152606401610910565b60fb805473ffffffffffffffffffffffffffffffffffffffff19166001600160a01b038416908117909155600090611c029061314e565b90506001600160a01b038116611c5a5760405162461bcd60e51b815260206004820152600d60248201527f496e76616c6964204f776e6572000000000000000000000000000000000000006044820152606401610910565b611c638161160e565b60fb54611c78906001600160a01b03166131cf565b60fc805473ffffffffffffffffffffffffffffffffffffffff19166001600160a01b0392909216919091179055508015610f15576000805461ff0019169055604051600181527f7f26b83ff96e1f2b6a682f133852f6798a09c465da95921460cefb38474024989060200160405180910390a15050565b600082815260656020526040902060010154611d0a81612de7565b610c5a8383612e93565b600260c9541415611d675760405162461bcd60e51b815260206004820152601f60248201527f5265656e7472616e637947756172643a207265656e7472616e742063616c6c006044820152606401610910565b600260c955611d746129e5565b606081015160019081811115611d9a57634e487b7160e01b600052602160045260246000fd5b60ff161115611deb5760405162461bcd60e51b815260206004820152601760248201527f4c6f616e54797065203a204f7574206f662072616e67650000000000000000006044820152606401610910565b6000816080015111611e4a5760405162461bcd60e51b815260206004820152602260248201527f4c6f616e20416d6f756e74204d7573742062652067726561746572207468616e604482015261020360f41b6064820152608401610910565b80516001600160a01b0316611ea15760405162461bcd60e51b815260206004820152601860248201527f696e76616c696420626f72726f776572206164647265737300000000000000006044820152606401610910565b60008160c0015111611f1a5760405162461bcd60e51b8152602060048201526024808201527f4c6f616e20496e746572657374204d757374206265206772656174657220746860448201527f616e2030000000000000000000000000000000000000000000000000000000006064820152608401610910565b60008160a0015111611f795760405162461bcd60e51b815260206004820152602260248201527f4c6f616e2054656e757265204d7573742062652067726561746572207468616e604482015261020360f41b6064820152608401610910565b60008160e0015111611ff35760405162461bcd60e51b815260206004820152602860248201527f5061796d656e74204672657175656e6379204d7573742062652067726561746560448201527f72207468616e20300000000000000000000000000000000000000000000000006064820152608401610910565b6032816020015151111561206f5760405162461bcd60e51b815260206004820152603b60248201527f4c656e677468206f66204f70706f7274756e697479206e616d65206d7573742060448201527f6265206c657373207468616e206f7220657175616c20746f20353000000000006064820152608401610910565b600081610100015160405160200161208791906139a0565b60408051601f198184030181529181528151602092830120600081815260ff938490529190912054909250161561214c5760405162461bcd60e51b815260206004820152604660248201527f53616d6520636f6c6c61746f72616c20646f63756d656e74206973206265656e60448201527f207573656420746f2063726561746520646966666572656e74206f70706f727460648201527f756e6974792e0000000000000000000000000000000000000000000000000000608482015260a401610910565b612154613568565b81815282516001600160a01b0316602080830191909152830151604080830191909152830151606080830191909152830151608082019060018111156121aa57634e487b7160e01b600052602160045260246000fd5b908160018111156121cb57634e487b7160e01b600052602160045260246000fd5b905250608083015160a08281019190915283015160c08083019190915283015160e0808301919091528301516101008083019190915283015161012080830191909152830151610140820152426101a0820152600082815260fd6020908152604091829020835181558184015160018201805473ffffffffffffffffffffffffffffffffffffffff19166001600160a01b039092169190911790559183015180518493926122809260028501929101906135f8565b506060820151805161229c9160038401916020909101906135f8565b50608082015160048201805460ff1916600183818111156122cd57634e487b7160e01b600052602160045260246000fd5b021790555060a0820151600582015560c0820151600682015560e08201516007820155610100820151600882015561012082015180516123179160098401916020909101906135f8565b50610140820151600a820155610160820151600b8201805460ff1916600183600781111561235557634e487b7160e01b600052602160045260246000fd5b0217905550610180820151600b820180547fffffffffffffffffffffff0000000000000000000000000000000000000000ff166101006001600160a01b03938416021790556101a090920151600c909101559251909216600090815260fe602090815260408083208054600181810183559185528385200185905584845260ff9092528220805460ff1916821790556101028054808301825592527f93bdaa6a4190909b7c3fbe8d42169ffe1cab19f51dfc8db24c71abf849eced4a9091019190915560c95550565b612426611a75565b6124985760405162461bcd60e51b815260206004820152602b60248201527f4d75737420686176652061646d696e20726f6c6520746f20706572666f726d2060448201527f7468697320616374696f6e0000000000000000000000000000000000000000006064820152608401610910565b600260c95414156124eb5760405162461bcd60e51b815260206004820152601f60248201527f5265656e7472616e637947756172643a207265656e7472616e742063616c6c006044820152606401610910565b600260c9556124f86129e5565b6001600160a01b03811661254e5760405162461bcd60e51b815260206004820152600f60248201527f496e76616c6964204164647265737300000000000000000000000000000000006044820152606401610910565b600082815260ff60208190526040909120541615156001146125a05760405162461bcd60e51b815260206004820152601c6024820152600080516020613d3d8339815191526044820152606401610910565b600082815260fd60205260408120600b015460ff1660078111156125d457634e487b7160e01b600052602160045260246000fd5b146126215760405162461bcd60e51b815260206004820152601d60248201527f4f70706f7274756e69747920697320616c7265616479204a75646765640000006044820152606401610910565b600082815261010060205260408120829101805473ffffffffffffffffffffffffffffffffffffffff19166001600160a01b0392831617905516600090815261010160209081526040822080546001818101835591845291909220019190915560c955565b600081815260ff60208190526040909120546060911615156001146126db5760405162461bcd60e51b815260206004820152601c6024820152600080516020613d3d8339815191526044820152606401610910565b600082815260fd6020908152604080832081516101c0810183528154815260018201546001600160a01b031693810193909352600281018054919284019161272290613caa565b80601f016020809104026020016040519081016040528092919081815260200182805461274e90613caa565b801561279b5780601f106127705761010080835404028352916020019161279b565b820191906000526020600020905b81548152906001019060200180831161277e57829003601f168201915b505050505081526020016003820180546127b490613caa565b80601f01602080910402602001604051908101604052809291908181526020018280546127e090613caa565b801561282d5780601f106128025761010080835404028352916020019161282d565b820191906000526020600020905b81548152906001019060200180831161281057829003601f168201915b5050509183525050600482015460209091019060ff16600181111561286257634e487b7160e01b600052602160045260246000fd5b600181111561288157634e487b7160e01b600052602160045260246000fd5b8152602001600582015481526020016006820154815260200160078201548152602001600882015481526020016009820180546128bd90613caa565b80601f01602080910402602001604051908101604052809291908181526020018280546128e990613caa565b80156129365780601f1061290b57610100808354040283529160200191612936565b820191906000526020600020905b81548152906001019060200180831161291957829003601f168201915b5050509183525050600a8201546020820152600b82015460409091019060ff16600781111561297557634e487b7160e01b600052602160045260246000fd5b600781111561299457634e487b7160e01b600052602160045260246000fd5b8152600b82015461010090046001600160a01b03166020820152600c9091015460409182015201519392505050565b61010281815481106129d457600080fd5b600091825260209091200154905081565b60975460ff1615610fac5760405162461bcd60e51b815260206004820152601060248201527f5061757361626c653a20706175736564000000000000000000000000000000006044820152606401610910565b600081815260ff6020819052604090912054161515600114612a8a5760405162461bcd60e51b815260206004820152601c6024820152600080516020613d3d8339815191526044820152606401610910565b6002600082815260fd60205260409020600b015460ff166007811115612ac057634e487b7160e01b600052602160045260246000fd5b14612b0d5760405162461bcd60e51b815260206004820152601b60248201527f4f70706f7274756e697479206973206e6f7420617070726f76656400000000006044820152606401610910565b600081815260fd602052604090819020600b8101805460ff1916600490811790915560fc5492517fd204c45e0000000000000000000000000000000000000000000000000000000081526001600160a01b039093169263d204c45e92612b7b92339260099092019101613a3d565b600060405180830381600087803b158015612b9557600080fd5b505af1158015612ba9573d6000803e3d6000fd5b5050505050565b60006004600083815260fd60205260409020600b015460ff166007811115612be857634e487b7160e01b600052602160045260246000fd5b14612c5b5760405162461bcd60e51b815260206004820152602c60248201527f436f6c6c61746572616c206f6620746865204f70706f7274756e69747920697360448201527f206e6f74206d696e7465642e00000000000000000000000000000000000000006064820152608401610910565b600082815260ff6020819052604090912054161515600114612cad5760405162461bcd60e51b815260206004820152601c6024820152600080516020613d3d8339815191526044820152606401610910565b60fb54600090612cc5906001600160a01b03166131e7565b9050612cd0816131ff565b60fb54600085815260fd602052604090819020805460058201546006830154600784015460089094015494517f052c3c260000000000000000000000000000000000000000000000000000000081526001600160a01b039687166004820152602481019390935260448301919091526064820152608481019190915260a481019190915291935083169063052c3c269060c401600060405180830381600087803b158015612d7d57600080fd5b505af1158015612d91573d6000803e3d6000fd5b5050506000938452505060fd6020526040909120600b0180547fffffffffffffffffffffff0000000000000000000000000000000000000000001660ff196101006001600160a01b038516021617600517905590565b6111708133613268565b60008281526065602090815260408083206001600160a01b038516845290915290205460ff16610f155760008281526065602090815260408083206001600160a01b03851684529091529020805460ff19166001179055612e4f3390565b6001600160a01b0316816001600160a01b0316837f2f8788117e7eff1d82e926ec794901d17c78024a50270940304540a733656f0d60405160405180910390a45050565b60008281526065602090815260408083206001600160a01b038516845290915290205460ff1615610f155760008281526065602090815260408083206001600160a01b0385168085529252808320805460ff1916905551339285917ff6391f5c32d9c69d2a47ea670b442974b53935d1edc7fd64eb21e047a839171b9190a45050565b612f1e6132e8565b6097805460ff191690557f5db9ee0a495bf2e6ff9c91a7834c1ba4fdd244a5e8aa4e537bd38aeae4b073aa335b6040516001600160a01b03909116815260200160405180910390a1565b600054610100900460ff16612fd35760405162461bcd60e51b815260206004820152602b60248201527f496e697469616c697a61626c653a20636f6e7472616374206973206e6f74206960448201526a6e697469616c697a696e6760a81b6064820152608401610910565b6097805460ff19169055565b612fe76129e5565b6097805460ff191660011790557f62e78cea01bee320cd4e420270b5ea74000d11b0c9f74754ebdbfc544b05a258612f4b3390565b600054610100900460ff16610fac5760405162461bcd60e51b815260206004820152602b60248201527f496e697469616c697a61626c653a20636f6e7472616374206973206e6f74206960448201526a6e697469616c697a696e6760a81b6064820152608401610910565b600054610100900460ff166130f25760405162461bcd60e51b815260206004820152602b60248201527f496e697469616c697a61626c653a20636f6e7472616374206973206e6f74206960448201526a6e697469616c697a696e6760a81b6064820152608401610910565b600160c955565b610f158282612df1565b600082815260656020526040808220600101805490849055905190918391839186917fbd79b86ffe0ab8e8776151514217cd7cacd52c909f66475c3af44e129f0b00ff9190a4505050565b60006001600160a01b03821663b93f9b0a825b6040518263ffffffff1660e01b815260040161317f91815260200190565b60206040518083038186803b15801561319757600080fd5b505afa1580156131ab573d6000803e3d6000fd5b505050506040513d601f19601f82011682018060405250810190610693919061374e565b60006001600160a01b03821663b93f9b0a6005613161565b60006001600160a01b03821663b93f9b0a6004613161565b6000808260601b90506040517f3d602d80600a3d3981f3363d3d373d3d3d363d7300000000000000000000000081528160148201527f5af43d82803e903d91602b57fd5bf3000000000000000000000000000000000060288201526037816000f0949350505050565b60008281526065602090815260408083206001600160a01b038516845290915290205460ff16610f15576132a6816001600160a01b0316601461333a565b6132b183602061333a565b6040516020016132c29291906139bc565b60408051601f198184030181529082905262461bcd60e51b825261091091600401613bef565b60975460ff16610fac5760405162461bcd60e51b815260206004820152601460248201527f5061757361626c653a206e6f74207061757365640000000000000000000000006044820152606401610910565b60606000613349836002613c44565b613354906002613c2c565b67ffffffffffffffff81111561337a57634e487b7160e01b600052604160045260246000fd5b6040519080825280601f01601f1916602001820160405280156133a4576020820181803683370190505b5090507f3000000000000000000000000000000000000000000000000000000000000000816000815181106133e957634e487b7160e01b600052603260045260246000fd5b60200101906001600160f81b031916908160001a9053507f78000000000000000000000000000000000000000000000000000000000000008160018151811061344257634e487b7160e01b600052603260045260246000fd5b60200101906001600160f81b031916908160001a9053506000613466846002613c44565b613471906001613c2c565b90505b6001811115613512577f303132333435363738396162636465660000000000000000000000000000000085600f16601081106134c057634e487b7160e01b600052603260045260246000fd5b1a60f81b8282815181106134e457634e487b7160e01b600052603260045260246000fd5b60200101906001600160f81b031916908160001a90535060049490941c9361350b81613c93565b9050613474565b5083156135615760405162461bcd60e51b815260206004820181905260248201527f537472696e67733a20686578206c656e67746820696e73756666696369656e746044820152606401610910565b9392505050565b604080516101c0810182526000808252602082018190526060928201839052828201929092529060808201908152602001600081526020016000815260200160008152602001600081526020016060815260200160008152602001600060078111156135e457634e487b7160e01b600052602160045260246000fd5b815260006020820181905260409091015290565b82805461360490613caa565b90600052602060002090601f016020900481019282613626576000855561366c565b82601f1061363f57805160ff191683800117855561366c565b8280016001018555821561366c579182015b8281111561366c578251825591602001919060010190613651565b5061367892915061367c565b5090565b5b80821115613678576000815560010161367d565b803561104e81613d27565b80356002811061104e57600080fd5b600082601f8301126136bb578081fd5b813567ffffffffffffffff808211156136d6576136d6613d11565b604051601f8301601f19908116603f011681019082821181831017156136fe576136fe613d11565b81604052838152866020858801011115613716578485fd5b8360208701602083013792830160200193909352509392505050565b600060208284031215613743578081fd5b813561356181613d27565b60006020828403121561375f578081fd5b815161356181613d27565b6000806040838503121561377c578081fd5b823561378781613d27565b946020939093013593505050565b6000602082840312156137a6578081fd5b5035919050565b600080604083850312156137bf578182fd5b8235915060208301356137d181613d27565b809150509250929050565b600080604083850312156137ee578182fd5b82359150602083013560ff811681146137d1578182fd5b600060208284031215613816578081fd5b81357fffffffff0000000000000000000000000000000000000000000000000000000081168114613561578182fd5b600060208284031215613856578081fd5b813567ffffffffffffffff8082111561386d578283fd5b908301906101408286031215613881578283fd5b613889613c02565b61389283613691565b81526020830135828111156138a5578485fd5b6138b1878286016136ab565b6020830152506040830135828111156138c8578485fd5b6138d4878286016136ab565b6040830152506138e66060840161369c565b60608201526080830135608082015260a083013560a082015260c083013560c082015260e083013560e08201526101008084013583811115613926578586fd5b613932888287016136ab565b91830191909152506101209283013592810192909252509392505050565b6002811061396057613960613cfb565b9052565b6008811061396057613960613cfb565b6000815180845261398c816020860160208601613c63565b601f01601f19169290920160200192915050565b600082516139b2818460208701613c63565b9190910192915050565b7f416363657373436f6e74726f6c3a206163636f756e74200000000000000000008152600083516139f4816017850160208801613c63565b7f206973206d697373696e6720726f6c65200000000000000000000000000000006017918401918201528351613a31816028840160208801613c63565b01602801949350505050565b6001600160a01b03831681526000602060408184015281845483600182811c915080831680613a6d57607f831692505b858310811415613a8b57634e487b7160e01b87526022600452602487fd5b6040880183905260608801818015613aaa5760018114613abb57613ae5565b60ff19861682528782019650613ae5565b60008b815260209020895b86811015613adf57815484820152908501908901613ac6565b83019750505b50949a9950505050505050505050565b6020808252825182820181905260009190848201906040850190845b81811015613b2d57835183529284019291840191600101613b11565b50909695505050505050565b8e81526001600160a01b038e1660208201526101c060408201526000613b636101c083018f613974565b8281036060840152613b75818f613974565b9050613b84608084018e613950565b8b60a08401528a60c08401528960e084015288610100840152828103610120840152613bb08189613974565b91505085610140830152613bc8610160830186613964565b6001600160a01b03939093166101808201526101a001529c9b505050505050505050505050565b6020815260006135616020830184613974565b604051610140810167ffffffffffffffff81118282101715613c2657613c26613d11565b60405290565b60008219821115613c3f57613c3f613ce5565b500190565b6000816000190483118215151615613c5e57613c5e613ce5565b500290565b60005b83811015613c7e578181015183820152602001613c66565b83811115613c8d576000848401525b50505050565b600081613ca257613ca2613ce5565b506000190190565b600181811c90821680613cbe57607f821691505b60208210811415613cdf57634e487b7160e01b600052602260045260246000fd5b50919050565b634e487b7160e01b600052601160045260246000fd5b634e487b7160e01b600052602160045260246000fd5b634e487b7160e01b600052604160045260246000fd5b6001600160a01b038116811461117057600080fdfe4f70706f7274756e69747920494420646f65736e277420657869737400000000a2646970667358221220cab5c3a0ecc14fe19a4f3e9251e41f55ea53bf03d34aa9d046111c130921277e64736f6c63430008040033",
  "linkReferences": {},
  "deployedLinkReferences": {}
}