{
  "_format": "hh-sol-artifact-1",
  "contractName": "OpportunityOrigination",
  "sourceName": "contracts/protocol/OpportunityOrigination.sol",
  "abi": [
    {
      "anonymous": false,
      "inputs": [
        {
          "indexed": false,
          "internalType": "address",
          "name": "previousAdmin",
          "type": "address"
        },
        {
          "indexed": false,
          "internalType": "address",
          "name": "newAdmin",
          "type": "address"
        }
      ],
      "name": "AdminChanged",
      "type": "event"
    },
    {
      "anonymous": false,
      "inputs": [
        {
          "indexed": true,
          "internalType": "address",
          "name": "beacon",
          "type": "address"
        }
      ],
      "name": "BeaconUpgraded",
      "type": "event"
    },
    {
      "anonymous": false,
      "inputs": [
        {
          "indexed": false,
          "internalType": "uint8",
          "name": "version",
          "type": "uint8"
        }
      ],
      "name": "Initialized",
      "type": "event"
    },
    {
      "anonymous": false,
      "inputs": [
        {
          "indexed": false,
          "internalType": "address",
          "name": "account",
          "type": "address"
        }
      ],
      "name": "Paused",
      "type": "event"
    },
    {
      "anonymous": false,
      "inputs": [
        {
          "indexed": true,
          "internalType": "bytes32",
          "name": "role",
          "type": "bytes32"
        },
        {
          "indexed": true,
          "internalType": "bytes32",
          "name": "previousAdminRole",
          "type": "bytes32"
        },
        {
          "indexed": true,
          "internalType": "bytes32",
          "name": "newAdminRole",
          "type": "bytes32"
        }
      ],
      "name": "RoleAdminChanged",
      "type": "event"
    },
    {
      "anonymous": false,
      "inputs": [
        {
          "indexed": true,
          "internalType": "bytes32",
          "name": "role",
          "type": "bytes32"
        },
        {
          "indexed": true,
          "internalType": "address",
          "name": "account",
          "type": "address"
        },
        {
          "indexed": true,
          "internalType": "address",
          "name": "sender",
          "type": "address"
        }
      ],
      "name": "RoleGranted",
      "type": "event"
    },
    {
      "anonymous": false,
      "inputs": [
        {
          "indexed": true,
          "internalType": "bytes32",
          "name": "role",
          "type": "bytes32"
        },
        {
          "indexed": true,
          "internalType": "address",
          "name": "account",
          "type": "address"
        },
        {
          "indexed": true,
          "internalType": "address",
          "name": "sender",
          "type": "address"
        }
      ],
      "name": "RoleRevoked",
      "type": "event"
    },
    {
      "anonymous": false,
      "inputs": [
        {
          "indexed": false,
          "internalType": "address",
          "name": "account",
          "type": "address"
        }
      ],
      "name": "Unpaused",
      "type": "event"
    },
    {
      "anonymous": false,
      "inputs": [
        {
          "indexed": true,
          "internalType": "address",
          "name": "implementation",
          "type": "address"
        }
      ],
      "name": "Upgraded",
      "type": "event"
    },
    {
      "inputs": [],
      "name": "ADMIN_ROLE",
      "outputs": [
        {
          "internalType": "bytes32",
          "name": "",
          "type": "bytes32"
        }
      ],
      "stateMutability": "view",
      "type": "function"
    },
    {
      "inputs": [],
      "name": "DEFAULT_ADMIN_ROLE",
      "outputs": [
        {
          "internalType": "bytes32",
          "name": "",
          "type": "bytes32"
        }
      ],
      "stateMutability": "view",
      "type": "function"
    },
    {
      "inputs": [],
      "name": "PAUSER_ROLE",
      "outputs": [
        {
          "internalType": "bytes32",
          "name": "",
          "type": "bytes32"
        }
      ],
      "stateMutability": "view",
      "type": "function"
    },
    {
      "inputs": [
        {
          "internalType": "address",
          "name": "owner",
          "type": "address"
        }
      ],
      "name": "_BaseUpgradeablePausable_init",
      "outputs": [],
      "stateMutability": "nonpayable",
      "type": "function"
    },
    {
      "inputs": [],
      "name": "__PauserPausable__init",
      "outputs": [],
      "stateMutability": "nonpayable",
      "type": "function"
    },
    {
      "inputs": [
        {
          "internalType": "bytes32",
          "name": "_opportunityId",
          "type": "bytes32"
        },
        {
          "internalType": "address",
          "name": "_underwriter",
          "type": "address"
        }
      ],
      "name": "assignUnderwriters",
      "outputs": [],
      "stateMutability": "nonpayable",
      "type": "function"
    },
    {
      "inputs": [],
      "name": "collateralToken",
      "outputs": [
        {
          "internalType": "contract CollateralToken",
          "name": "",
          "type": "address"
        }
      ],
      "stateMutability": "view",
      "type": "function"
    },
    {
      "inputs": [
        {
          "components": [
            {
              "internalType": "address",
              "name": "borrower",
              "type": "address"
            },
            {
              "internalType": "string",
              "name": "opportunityName",
              "type": "string"
            },
            {
              "internalType": "string",
              "name": "opportunityInfo",
              "type": "string"
            },
            {
              "internalType": "enum IOpportunityOrigination.LoanType",
              "name": "loanType",
              "type": "uint8"
            },
            {
              "internalType": "uint256",
              "name": "loanAmount",
              "type": "uint256"
            },
            {
              "internalType": "uint256",
              "name": "loanTenureInDays",
              "type": "uint256"
            },
            {
              "internalType": "uint256",
              "name": "loanInterest",
              "type": "uint256"
            },
            {
              "internalType": "uint256",
              "name": "paymentFrequencyInDays",
              "type": "uint256"
            },
            {
              "internalType": "string",
              "name": "collateralDocument",
              "type": "string"
            },
            {
              "internalType": "uint256",
              "name": "capitalLoss",
              "type": "uint256"
            }
          ],
          "internalType": "struct IOpportunityOrigination.CreateOpportunity",
          "name": "_opportunityData",
          "type": "tuple"
        }
      ],
      "name": "createOpportunity",
      "outputs": [],
      "stateMutability": "nonpayable",
      "type": "function"
    },
    {
      "inputs": [],
      "name": "dygnifyConfig",
      "outputs": [
        {
          "internalType": "contract DygnifyConfig",
          "name": "",
          "type": "address"
        }
      ],
      "stateMutability": "view",
      "type": "function"
    },
    {
      "inputs": [
        {
          "internalType": "address",
          "name": "borrower",
          "type": "address"
        }
      ],
      "name": "getAlltheOpportunitiesOf",
      "outputs": [
        {
          "internalType": "bytes32[]",
          "name": "",
          "type": "bytes32[]"
        }
      ],
      "stateMutability": "view",
      "type": "function"
    },
    {
      "inputs": [
        {
          "internalType": "bytes32",
          "name": "id",
          "type": "bytes32"
        }
      ],
      "name": "getBorrower",
      "outputs": [
        {
          "internalType": "address",
          "name": "",
          "type": "address"
        }
      ],
      "stateMutability": "view",
      "type": "function"
    },
    {
      "inputs": [
        {
          "internalType": "bytes32",
          "name": "_opportunityId",
          "type": "bytes32"
        }
      ],
      "name": "getOpportunityNameOf",
      "outputs": [
        {
          "internalType": "string",
          "name": "",
          "type": "string"
        }
      ],
      "stateMutability": "view",
      "type": "function"
    },
    {
      "inputs": [
        {
          "internalType": "address",
          "name": "_borrower",
          "type": "address"
        }
      ],
      "name": "getOpportunityOf",
      "outputs": [
        {
          "internalType": "bytes32[]",
          "name": "",
          "type": "bytes32[]"
        }
      ],
      "stateMutability": "view",
      "type": "function"
    },
    {
      "inputs": [
        {
          "internalType": "bytes32",
          "name": "id",
          "type": "bytes32"
        }
      ],
      "name": "getOpportunityPoolAddress",
      "outputs": [
        {
          "internalType": "address",
          "name": "",
          "type": "address"
        }
      ],
      "stateMutability": "view",
      "type": "function"
    },
    {
      "inputs": [
        {
          "internalType": "bytes32",
          "name": "role",
          "type": "bytes32"
        }
      ],
      "name": "getRoleAdmin",
      "outputs": [
        {
          "internalType": "bytes32",
          "name": "",
          "type": "bytes32"
        }
      ],
      "stateMutability": "view",
      "type": "function"
    },
    {
      "inputs": [],
      "name": "getTotalOpportunities",
      "outputs": [
        {
          "internalType": "uint256",
          "name": "",
          "type": "uint256"
        }
      ],
      "stateMutability": "view",
      "type": "function"
    },
    {
      "inputs": [
        {
          "internalType": "address",
          "name": "_underwriter",
          "type": "address"
        }
      ],
      "name": "getUnderWritersOpportunities",
      "outputs": [
        {
          "internalType": "bytes32[]",
          "name": "",
          "type": "bytes32[]"
        }
      ],
      "stateMutability": "view",
      "type": "function"
    },
    {
      "inputs": [
        {
          "internalType": "bytes32",
          "name": "role",
          "type": "bytes32"
        },
        {
          "internalType": "address",
          "name": "account",
          "type": "address"
        }
      ],
      "name": "grantRole",
      "outputs": [],
      "stateMutability": "nonpayable",
      "type": "function"
    },
    {
      "inputs": [
        {
          "internalType": "bytes32",
          "name": "role",
          "type": "bytes32"
        },
        {
          "internalType": "address",
          "name": "account",
          "type": "address"
        }
      ],
      "name": "hasRole",
      "outputs": [
        {
          "internalType": "bool",
          "name": "",
          "type": "bool"
        }
      ],
      "stateMutability": "view",
      "type": "function"
    },
    {
      "inputs": [
        {
          "internalType": "contract DygnifyConfig",
          "name": "config",
          "type": "address"
        }
      ],
      "name": "initialize",
      "outputs": [],
      "stateMutability": "nonpayable",
      "type": "function"
    },
    {
      "inputs": [
        {
          "internalType": "bytes32",
          "name": "id",
          "type": "bytes32"
        }
      ],
      "name": "isActive",
      "outputs": [
        {
          "internalType": "bool",
          "name": "",
          "type": "bool"
        }
      ],
      "stateMutability": "view",
      "type": "function"
    },
    {
      "inputs": [],
      "name": "isAdmin",
      "outputs": [
        {
          "internalType": "bool",
          "name": "",
          "type": "bool"
        }
      ],
      "stateMutability": "view",
      "type": "function"
    },
    {
      "inputs": [
        {
          "internalType": "bytes32",
          "name": "id",
          "type": "bytes32"
        }
      ],
      "name": "isDrawdown",
      "outputs": [
        {
          "internalType": "bool",
          "name": "",
          "type": "bool"
        }
      ],
      "stateMutability": "view",
      "type": "function"
    },
    {
      "inputs": [
        {
          "internalType": "bytes32",
          "name": "",
          "type": "bytes32"
        }
      ],
      "name": "isOpportunity",
      "outputs": [
        {
          "internalType": "bool",
          "name": "",
          "type": "bool"
        }
      ],
      "stateMutability": "view",
      "type": "function"
    },
    {
      "inputs": [
        {
          "internalType": "bytes32",
          "name": "id",
          "type": "bytes32"
        }
      ],
      "name": "isRepaid",
      "outputs": [
        {
          "internalType": "bool",
          "name": "",
          "type": "bool"
        }
      ],
      "stateMutability": "view",
      "type": "function"
    },
    {
      "inputs": [
        {
          "internalType": "bytes32",
          "name": "id",
          "type": "bytes32"
        }
      ],
      "name": "isWriteOff",
      "outputs": [
        {
          "internalType": "bool",
          "name": "",
          "type": "bool"
        }
      ],
      "stateMutability": "view",
      "type": "function"
    },
    {
      "inputs": [
        {
          "internalType": "bytes32",
          "name": "id",
          "type": "bytes32"
        }
      ],
      "name": "markDrawDown",
      "outputs": [],
      "stateMutability": "nonpayable",
      "type": "function"
    },
    {
      "inputs": [
        {
          "internalType": "bytes32",
          "name": "id",
          "type": "bytes32"
        }
      ],
      "name": "markRepaid",
      "outputs": [],
      "stateMutability": "nonpayable",
      "type": "function"
    },
    {
      "inputs": [
        {
          "internalType": "bytes32",
          "name": "id",
          "type": "bytes32"
        },
        {
          "internalType": "address",
          "name": "_pool",
          "type": "address"
        }
      ],
      "name": "markWriteOff",
      "outputs": [],
      "stateMutability": "nonpayable",
      "type": "function"
    },
    {
      "inputs": [
        {
          "internalType": "uint256",
          "name": "",
          "type": "uint256"
        }
      ],
      "name": "opportunityIds",
      "outputs": [
        {
          "internalType": "bytes32",
          "name": "",
          "type": "bytes32"
        }
      ],
      "stateMutability": "view",
      "type": "function"
    },
    {
      "inputs": [
        {
          "internalType": "address",
          "name": "",
          "type": "address"
        },
        {
          "internalType": "uint256",
          "name": "",
          "type": "uint256"
        }
      ],
      "name": "opportunityOf",
      "outputs": [
        {
          "internalType": "bytes32",
          "name": "",
          "type": "bytes32"
        }
      ],
      "stateMutability": "view",
      "type": "function"
    },
    {
      "inputs": [
        {
          "internalType": "bytes32",
          "name": "",
          "type": "bytes32"
        }
      ],
      "name": "opportunityToId",
      "outputs": [
        {
          "internalType": "bytes32",
          "name": "opportunityID",
          "type": "bytes32"
        },
        {
          "internalType": "address",
          "name": "borrower",
          "type": "address"
        },
        {
          "internalType": "string",
          "name": "opportunityName",
          "type": "string"
        },
        {
          "internalType": "string",
          "name": "opportunityInfo",
          "type": "string"
        },
        {
          "internalType": "enum IOpportunityOrigination.LoanType",
          "name": "loanType",
          "type": "uint8"
        },
        {
          "internalType": "uint256",
          "name": "loanAmount",
          "type": "uint256"
        },
        {
          "internalType": "uint256",
          "name": "loanTenureInDays",
          "type": "uint256"
        },
        {
          "internalType": "uint256",
          "name": "loanInterest",
          "type": "uint256"
        },
        {
          "internalType": "uint256",
          "name": "paymentFrequencyInDays",
          "type": "uint256"
        },
        {
          "internalType": "string",
          "name": "collateralDocument",
          "type": "string"
        },
        {
          "internalType": "uint256",
          "name": "capitalLoss",
          "type": "uint256"
        },
        {
          "internalType": "enum IOpportunityOrigination.OpportunityStatus",
          "name": "opportunityStatus",
          "type": "uint8"
        },
        {
          "internalType": "address",
          "name": "opportunityPoolAddress",
          "type": "address"
        },
        {
          "internalType": "uint256",
          "name": "createdOn",
          "type": "uint256"
        }
      ],
      "stateMutability": "view",
      "type": "function"
    },
    {
      "inputs": [],
      "name": "pause",
      "outputs": [],
      "stateMutability": "nonpayable",
      "type": "function"
    },
    {
      "inputs": [],
      "name": "paused",
      "outputs": [
        {
          "internalType": "bool",
          "name": "",
          "type": "bool"
        }
      ],
      "stateMutability": "view",
      "type": "function"
    },
    {
      "inputs": [],
      "name": "proxiableUUID",
      "outputs": [
        {
          "internalType": "bytes32",
          "name": "",
          "type": "bytes32"
        }
      ],
      "stateMutability": "view",
      "type": "function"
    },
    {
      "inputs": [
        {
          "internalType": "bytes32",
          "name": "role",
          "type": "bytes32"
        },
        {
          "internalType": "address",
          "name": "account",
          "type": "address"
        }
      ],
      "name": "renounceRole",
      "outputs": [],
      "stateMutability": "nonpayable",
      "type": "function"
    },
    {
      "inputs": [
        {
          "internalType": "bytes32",
          "name": "role",
          "type": "bytes32"
        },
        {
          "internalType": "address",
          "name": "account",
          "type": "address"
        }
      ],
      "name": "revokeRole",
      "outputs": [],
      "stateMutability": "nonpayable",
      "type": "function"
    },
    {
      "inputs": [
        {
          "internalType": "bytes4",
          "name": "interfaceId",
          "type": "bytes4"
        }
      ],
      "name": "supportsInterface",
      "outputs": [
        {
          "internalType": "bool",
          "name": "",
          "type": "bool"
        }
      ],
      "stateMutability": "view",
      "type": "function"
    },
    {
      "inputs": [
        {
          "internalType": "address",
          "name": "",
          "type": "address"
        },
        {
          "internalType": "uint256",
          "name": "",
          "type": "uint256"
        }
      ],
      "name": "underwriterToOpportunity",
      "outputs": [
        {
          "internalType": "bytes32",
          "name": "",
          "type": "bytes32"
        }
      ],
      "stateMutability": "view",
      "type": "function"
    },
    {
      "inputs": [],
      "name": "unpause",
      "outputs": [],
      "stateMutability": "nonpayable",
      "type": "function"
    },
    {
      "inputs": [
        {
          "internalType": "address",
          "name": "newImplementation",
          "type": "address"
        }
      ],
      "name": "upgradeTo",
      "outputs": [],
      "stateMutability": "nonpayable",
      "type": "function"
    },
    {
      "inputs": [
        {
          "internalType": "address",
          "name": "newImplementation",
          "type": "address"
        },
        {
          "internalType": "bytes",
          "name": "data",
          "type": "bytes"
        }
      ],
      "name": "upgradeToAndCall",
      "outputs": [],
      "stateMutability": "payable",
      "type": "function"
    },
    {
      "inputs": [
        {
          "internalType": "bytes32",
          "name": "_opportunityId",
          "type": "bytes32"
        },
        {
          "internalType": "uint8",
          "name": "_status",
          "type": "uint8"
        }
      ],
      "name": "voteOpportunity",
      "outputs": [],
      "stateMutability": "nonpayable",
      "type": "function"
    }
  ],
  "bytecode": "0x60a06040523060601b60805234801561001757600080fd5b5060805160601c614b8e610052600039600081816112160152818161129b015281816114d301528181611558015261175d0152614b8e6000f3fe6080604052600436106102dc5760003560e01c806375b238fc11610184578063b2016bd4116100d6578063e0bb77e31161008a578063e87ec15f11610064578063e87ec15f14610855578063f00474a614610875578063f1bae27d146108a257600080fd5b8063e0bb77e3146107d0578063e2f3722414610801578063e63ab1e91461082157600080fd5b8063b6db75a0116100bb578063b6db75a01461077b578063c4d66de814610790578063d547741f146107b057600080fd5b8063b2016bd41461073a578063b369be541461075b57600080fd5b80638456cb5911610138578063a12dde4d11610112578063a12dde4d146106e5578063a217fddf14610705578063af7ea9441461071a57600080fd5b80638456cb591461066a57806389eb01fc1461067f57806391d148541461069f57600080fd5b80637a8f5560116101695780637a8f55601461060a5780637e4dc6d51461062a578063817671551461064a57600080fd5b806375b238fc146105b65780637921c67d146105ea57600080fd5b80633f4ba83a1161023d57806352d1902d116101f15780636815322c116101cb5780636815322c146105565780636dc305f914610576578063728c3ea21461059657600080fd5b806352d1902d146105095780635c36901c1461051e5780635c975abb1461053e57600080fd5b8063486caf7c11610222578063486caf7c146104cb5780634f1ef286146104e1578063526d81f6146104f457600080fd5b80633f4ba83a146104965780634622abe0146104ab57600080fd5b80632885f8b911610294578063332f148611610279578063332f14861461043657806336568abe146104565780633659cfe61461047657600080fd5b80632885f8b9146103f45780632f2ff15d1461041657600080fd5b80631633f5a3116102c55780631633f5a3146103505780631be954591461037d578063248a9ca3146103b657600080fd5b806301ffc9a7146102e15780630bca245a14610316575b600080fd5b3480156102ed57600080fd5b506103016102fc3660046145f6565b6108c2565b60405190151581526020015b60405180910390f35b34801561032257600080fd5b5061033661033136600461456e565b61092b565b60405161030d9e9d9c9b9a99989796959493929190614912565b34801561035c57600080fd5b5061037061036b3660046144aa565b610b4f565b60405161030d91906148ce565b34801561038957600080fd5b5061015f5461039e906001600160a01b031681565b6040516001600160a01b03909116815260200161030d565b3480156103c257600080fd5b506103e66103d136600461456e565b60009081526065602052604090206001015490565b60405190815260200161030d565b34801561040057600080fd5b5061041461040f3660046145cd565b610c1a565b005b34801561042257600080fd5b5061041461043136600461459e565b610eca565b34801561044257600080fd5b5061041461045136600461456e565b610ef4565b34801561046257600080fd5b5061041461047136600461459e565b61117f565b34801561048257600080fd5b506104146104913660046144aa565b61120b565b3480156104a257600080fd5b50610414611387565b3480156104b757600080fd5b506103016104c636600461456e565b61141c565b3480156104d757600080fd5b50610166546103e6565b6104146104ef3660046144e2565b6114c8565b34801561050057600080fd5b50610414611631565b34801561051557600080fd5b506103e6611750565b34801561052a57600080fd5b5061030161053936600461456e565b611815565b34801561054a57600080fd5b5060975460ff16610301565b34801561056257600080fd5b5061030161057136600461456e565b61186e565b34801561058257600080fd5b5061041461059136600461459e565b6118c7565b3480156105a257600080fd5b5061039e6105b136600461456e565b611ad9565b3480156105c257600080fd5b506103e67fa49807205ce4d355092ef5a8a18f56e8913cf4a201fbe287825b095693c2177581565b3480156105f657600080fd5b506103e6610605366004614543565b611b4b565b34801561061657600080fd5b506103e6610625366004614543565b611b7d565b34801561063657600080fd5b5061039e61064536600461456e565b611b9a565b34801561065657600080fd5b5061030161066536600461456e565b611d2f565b34801561067657600080fd5b50610414611d88565b34801561068b57600080fd5b5061037061069a3660046144aa565b611e1b565b3480156106ab57600080fd5b506103016106ba36600461459e565b60009182526065602090815260408084206001600160a01b0393909316845291905290205460ff1690565b3480156106f157600080fd5b506104146107003660046144aa565b611edf565b34801561071157600080fd5b506103e6600081565b34801561072657600080fd5b5061041461073536600461456e565b612080565b34801561074657600080fd5b506101605461039e906001600160a01b031681565b34801561076757600080fd5b506103706107763660046144aa565b6122c4565b34801561078757600080fd5b50610301612387565b34801561079c57600080fd5b506104146107ab3660046144aa565b6123b8565b3480156107bc57600080fd5b506104146107cb36600461459e565b6125ea565b3480156107dc57600080fd5b506103016107eb36600461456e565b6101636020526000908152604090205460ff1681565b34801561080d57600080fd5b5061041461081c36600461461e565b61260f565b34801561082d57600080fd5b506103e67f65d7a28e3265b37a6474929f336521b332c1681b933f6cb9f3376673440d862a81565b34801561086157600080fd5b5061041461087036600461459e565b612d0f565b34801561088157600080fd5b5061089561089036600461456e565b612f59565b60405161030d91906149c8565b3480156108ae57600080fd5b506103e66108bd36600461456e565b613297565b60006001600160e01b031982167f7965db0b00000000000000000000000000000000000000000000000000000000148061092557507f01ffc9a7000000000000000000000000000000000000000000000000000000006001600160e01b03198316145b92915050565b6101616020526000908152604090208054600182015460028301805492936001600160a01b039092169261095e90614a7f565b80601f016020809104026020016040519081016040528092919081815260200182805461098a90614a7f565b80156109d75780601f106109ac576101008083540402835291602001916109d7565b820191906000526020600020905b8154815290600101906020018083116109ba57829003601f168201915b5050505050908060030180546109ec90614a7f565b80601f0160208091040260200160405190810160405280929190818152602001828054610a1890614a7f565b8015610a655780601f10610a3a57610100808354040283529160200191610a65565b820191906000526020600020905b815481529060010190602001808311610a4857829003601f168201915b5050505050908060040160009054906101000a900460ff1690806005015490806006015490806007015490806008015490806009018054610aa590614a7f565b80601f0160208091040260200160405190810160405280929190818152602001828054610ad190614a7f565b8015610b1e5780601f10610af357610100808354040283529160200191610b1e565b820191906000526020600020905b815481529060010190602001808311610b0157829003601f168201915b50505050600a830154600b840154600c909401549293909260ff821692506101009091046001600160a01b0316908e565b60606001600160a01b038216610bac5760405162461bcd60e51b815260206004820152601b60248201527f496e76616c696420756e6465727772697465722073646472657373000000000060448201526064015b60405180910390fd5b6001600160a01b03821660009081526101656020908152604080832080548251818502810185019093528083529192909190830182828015610c0d57602002820191906000526020600020905b815481526020019060010190808311610bf9575b5093979650505050505050565b600260c9541415610c6d5760405162461bcd60e51b815260206004820152601f60248201527f5265656e7472616e637947756172643a207265656e7472616e742063616c6c006044820152606401610ba3565b600260c955610c7a6132b9565b600082815261016460205260409020546001600160a01b03163314610d075760405162461bcd60e51b815260206004820152602d60248201527f596f7520617265206e6f7420616e206175646969746f7220666f72207468697360448201527f204f70706f7274756e6974792e000000000000000000000000000000000000006064820152608401610ba3565b6000828152610163602052604090205460ff161515600114610d595760405162461bcd60e51b815260206004820152601c6024820152600080516020614b398339815191526044820152606401610ba3565b600160ff821610801590610d715750600360ff821611155b610dbd5760405162461bcd60e51b815260206004820152601560248201527f537461747573203a206f7574206f662072616e676500000000000000000000006044820152606401610ba3565b600082815261016160205260408120600b015460ff166008811115610df257634e487b7160e01b600052602160045260246000fd5b14610e3f5760405162461bcd60e51b815260206004820152601d60248201527f4f70706f7274756e69747920697320616c7265616479204a75646765640000006044820152606401610ba3565b8060ff166008811115610e6257634e487b7160e01b600052602160045260246000fd5b600083815261016160205260409020600b01805460ff19166001836008811115610e9c57634e487b7160e01b600052602160045260246000fd5b021790555060ff811660021415610ec157610eb68261330c565b610ebf82613452565b505b5050600160c955565b600082815260656020526040902060010154610ee5816136b5565b610eef83836136bf565b505050565b6000818152610163602052604090205460ff161515600114610f465760405162461bcd60e51b815260206004820152601c6024820152600080516020614b398339815191526044820152606401610ba3565b6006600082815261016160205260409020600b015460ff166008811115610f7d57634e487b7160e01b600052602160045260246000fd5b14610fdc5760405162461bcd60e51b815260206004820152602960248201527f4f70706f7274756e69747920706f6f6c20697320686176656e277420647261776044820152683237bbb7103cb2ba1760b91b6064820152608401610ba3565b600081815261016160205260409020600b015461010090046001600160a01b031633146110715760405162461bcd60e51b815260206004820152602b60248201527f4f6e6c79204f70706f7274756e69747920506f6f6c2063616e206d61726b206960448201527f74206173207265706169640000000000000000000000000000000000000000006064820152608401610ba3565b600081815261016160205260409020600b015461010090046001600160a01b03166110ea5760405162461bcd60e51b815260206004820152602360248201527f4f70706f7274756e69747920506f6f6c206973206e6f742063726561746564206044820152621e595d60ea1b6064820152608401610ba3565b600081815261016160205260409020600b01805460ff1916600817905561015f5461111d906001600160a01b0316613761565b6001600160a01b0316632d37a3d2826040518263ffffffff1660e01b815260040161114a91815260200190565b600060405180830381600087803b15801561116457600080fd5b505af1158015611178573d6000803e3d6000fd5b5050505050565b6001600160a01b03811633146111fd5760405162461bcd60e51b815260206004820152602f60248201527f416363657373436f6e74726f6c3a2063616e206f6e6c792072656e6f756e636560448201527f20726f6c657320666f722073656c6600000000000000000000000000000000006064820152608401610ba3565b61120782826137e3565b5050565b306001600160a01b037f00000000000000000000000000000000000000000000000000000000000000001614156112995760405162461bcd60e51b815260206004820152602c60248201527f46756e6374696f6e206d7573742062652063616c6c6564207468726f7567682060448201526b19195b1959d85d1958d85b1b60a21b6064820152608401610ba3565b7f00000000000000000000000000000000000000000000000000000000000000006001600160a01b03166112f47f360894a13ba1a3210667c828492db98dca3e2076cc3735a920a3ca505d382bbc546001600160a01b031690565b6001600160a01b03161461135f5760405162461bcd60e51b815260206004820152602c60248201527f46756e6374696f6e206d7573742062652063616c6c6564207468726f7567682060448201526b6163746976652070726f787960a01b6064820152608401610ba3565b61136881613866565b60408051600080825260208201909252611384918391906138ce565b50565b6113b17f65d7a28e3265b37a6474929f336521b332c1681b933f6cb9f3376673440d862a336106ba565b6114125760405162461bcd60e51b815260206004820152602c60248201527f4d75737420686176652070617573657220726f6c6520746f20706572666f726d60448201526b103a3434b99030b1ba34b7b760a11b6064820152608401610ba3565b61141a613a7d565b565b6000818152610163602052604081205460ff16151560011461146e5760405162461bcd60e51b815260206004820152601c6024820152600080516020614b398339815191526044820152606401610ba3565b60065b600083815261016160205260409020600b015460ff918216911660088111156114aa57634e487b7160e01b600052602160045260246000fd5b60ff1614156114bb57506001919050565b506000919050565b919050565b306001600160a01b037f00000000000000000000000000000000000000000000000000000000000000001614156115565760405162461bcd60e51b815260206004820152602c60248201527f46756e6374696f6e206d7573742062652063616c6c6564207468726f7567682060448201526b19195b1959d85d1958d85b1b60a21b6064820152608401610ba3565b7f00000000000000000000000000000000000000000000000000000000000000006001600160a01b03166115b17f360894a13ba1a3210667c828492db98dca3e2076cc3735a920a3ca505d382bbc546001600160a01b031690565b6001600160a01b03161461161c5760405162461bcd60e51b815260206004820152602c60248201527f46756e6374696f6e206d7573742062652063616c6c6564207468726f7567682060448201526b6163746976652070726f787960a01b6064820152608401610ba3565b61162582613866565b611207828260016138ce565b600054610100900460ff16158080156116515750600054600160ff909116105b8061166b5750303b15801561166b575060005460ff166001145b6116dd5760405162461bcd60e51b815260206004820152602e60248201527f496e697469616c697a61626c653a20636f6e747261637420697320616c72656160448201527f647920696e697469616c697a65640000000000000000000000000000000000006064820152608401610ba3565b6000805460ff191660011790558015611700576000805461ff0019166101001790555b611708613acf565b8015611384576000805461ff0019169055604051600181527f7f26b83ff96e1f2b6a682f133852f6798a09c465da95921460cefb38474024989060200160405180910390a150565b6000306001600160a01b037f000000000000000000000000000000000000000000000000000000000000000016146117f05760405162461bcd60e51b815260206004820152603860248201527f555550535570677261646561626c653a206d757374206e6f742062652063616c60448201527f6c6564207468726f7567682064656c656761746563616c6c00000000000000006064820152608401610ba3565b507f360894a13ba1a3210667c828492db98dca3e2076cc3735a920a3ca505d382bbc90565b6000818152610163602052604081205460ff1615156001146118675760405162461bcd60e51b815260206004820152601c6024820152600080516020614b398339815191526044820152606401610ba3565b6005611471565b6000818152610163602052604081205460ff1615156001146118c05760405162461bcd60e51b815260206004820152601c6024820152600080516020614b398339815191526044820152606401610ba3565b6007611471565b6000828152610163602052604090205460ff1615156001146119195760405162461bcd60e51b815260206004820152601c6024820152600080516020614b398339815191526044820152606401610ba3565b6006600083815261016160205260409020600b015460ff16600881111561195057634e487b7160e01b600052602160045260246000fd5b146119af5760405162461bcd60e51b815260206004820152602960248201527f4f70706f7274756e69747920706f6f6c20697320686176656e277420647261776044820152683237bbb7103cb2ba1760b91b6064820152608401610ba3565b61015f546119c5906001600160a01b0316613761565b6001600160a01b0316336001600160a01b031614611a4b5760405162461bcd60e51b815260206004820152602a60248201527f4f6e6c79206479676e6966794b65657065722063616e206d61726b206974206160448201527f732077726974656f6666000000000000000000000000000000000000000000006064820152608401610ba3565b60008281526101616020526040808220600b01805460ff1916600717905580517f257c273600000000000000000000000000000000000000000000000000000000815290516001600160a01b0384169263257c2736926004808201939182900301818387803b158015611abd57600080fd5b505af1158015611ad1573d6000803e3d6000fd5b505050505050565b6000818152610163602052604081205460ff161515600114611b2b5760405162461bcd60e51b815260206004820152601c6024820152600080516020614b398339815191526044820152606401610ba3565b50600090815261016160205260409020600101546001600160a01b031690565b6101626020528160005260406000208181548110611b6857600080fd5b90600052602060002001600091509150505481565b6101656020528160005260406000208181548110611b6857600080fd5b6000818152610163602052604081205460ff161515600114611bec5760405162461bcd60e51b815260206004820152601c6024820152600080516020614b398339815191526044820152606401610ba3565b600082815261016160205260409020600b015460059060ff166008811115611c2457634e487b7160e01b600052602160045260246000fd5b60ff161015611c9b5760405162461bcd60e51b815260206004820152602b60248201527f4f70706f7274756e697479206d757374206265206163746976652f647261776e60448201527f646f776e2f7265706169640000000000000000000000000000000000000000006064820152608401610ba3565b600082815261016160205260409020600b015461010090046001600160a01b0316806109255760405162461bcd60e51b815260206004820152602c60248201527f4f70706f7274756e69747920706f6f6c206164647265737320686176656e277460448201527f20637265617465642079657400000000000000000000000000000000000000006064820152608401610ba3565b6000818152610163602052604081205460ff161515600114611d815760405162461bcd60e51b815260206004820152601c6024820152600080516020614b398339815191526044820152606401610ba3565b6008611471565b611db27f65d7a28e3265b37a6474929f336521b332c1681b933f6cb9f3376673440d862a336106ba565b611e135760405162461bcd60e51b815260206004820152602c60248201527f4d75737420686176652070617573657220726f6c6520746f20706572666f726d60448201526b103a3434b99030b1ba34b7b760a11b6064820152608401610ba3565b61141a613b46565b60606001600160a01b038216611e735760405162461bcd60e51b815260206004820152601860248201527f496e76616c696420426f72726f776572207364647265737300000000000000006044820152606401610ba3565b6001600160a01b03821660009081526101626020908152604080832080548251818502810185019093528083529192909190830182828015610c0d5760200282019190600052602060002090815481526020019060010190808311610bf9575093979650505050505050565b600054610100900460ff16611f4a5760405162461bcd60e51b815260206004820152602b60248201527f496e697469616c697a61626c653a20636f6e7472616374206973206e6f74206960448201526a6e697469616c697a696e6760a81b6064820152608401610ba3565b6001600160a01b038116611fa05760405162461bcd60e51b815260206004820181905260248201527f4f776e65722063616e6e6f7420626520746865207a65726f20616464726573736044820152606401610ba3565b611fa8613b83565b611fb0613acf565b611fb8613bee565b611fe27fa49807205ce4d355092ef5a8a18f56e8913cf4a201fbe287825b095693c2177582613c60565b61200c7f65d7a28e3265b37a6474929f336521b332c1681b933f6cb9f3376673440d862a82613c60565b6120567f65d7a28e3265b37a6474929f336521b332c1681b933f6cb9f3376673440d862a7fa49807205ce4d355092ef5a8a18f56e8913cf4a201fbe287825b095693c21775613c6a565b6113847fa49807205ce4d355092ef5a8a18f56e8913cf4a201fbe287825b095693c2177580613c6a565b6000818152610163602052604090205460ff1615156001146120d25760405162461bcd60e51b815260206004820152601c6024820152600080516020614b398339815191526044820152606401610ba3565b6005600082815261016160205260409020600b015460ff16600881111561210957634e487b7160e01b600052602160045260246000fd5b146121565760405162461bcd60e51b815260206004820152601e60248201527f4f70706f7274756e69747920706f6f6c206973206e6f742061637469766500006044820152606401610ba3565b600081815261016160205260409020600b015461010090046001600160a01b031633146121eb5760405162461bcd60e51b815260206004820152602d60248201527f4f6e6c79204f70706f7274756e69747920506f6f6c2063616e206d61726b206960448201527f742061732064726177646f776e000000000000000000000000000000000000006064820152608401610ba3565b600081815261016160205260409020600b015461010090046001600160a01b03166122645760405162461bcd60e51b815260206004820152602360248201527f4f70706f7274756e69747920506f6f6c206973206e6f742063726561746564206044820152621e595d60ea1b6064820152608401610ba3565b600081815261016160205260409020600b01805460ff1916600617905561015f54612297906001600160a01b0316613761565b6001600160a01b0316633aa7c283826040518263ffffffff1660e01b815260040161114a91815260200190565b60606001600160a01b03821661231c5760405162461bcd60e51b815260206004820152601860248201527f696e76616c696420626f72726f776572206164647265737300000000000000006044820152606401610ba3565b6001600160a01b038216600090815261016260209081526040918290208054835181840281018401909452808452909183018282801561237b57602002820191906000526020600020905b815481526020019060010190808311612367575b50505050509050919050565b60006123b37fa49807205ce4d355092ef5a8a18f56e8913cf4a201fbe287825b095693c21775336106ba565b905090565b600054610100900460ff16158080156123d85750600054600160ff909116105b806123f25750303b1580156123f2575060005460ff166001145b6124645760405162461bcd60e51b815260206004820152602e60248201527f496e697469616c697a61626c653a20636f6e747261637420697320616c72656160448201527f647920696e697469616c697a65640000000000000000000000000000000000006064820152608401610ba3565b6000805460ff191660011790558015612487576000805461ff0019166101001790555b6001600160a01b0382166124dd5760405162461bcd60e51b815260206004820152601660248201527f496e76616c696420636f6e6669672061646472657373000000000000000000006044820152606401610ba3565b61015f80546001600160a01b0319166001600160a01b03841690811790915560009061250890613cb5565b90506001600160a01b0381166125605760405162461bcd60e51b815260206004820152600d60248201527f496e76616c6964204f776e6572000000000000000000000000000000000000006044820152606401610ba3565b61256981611edf565b61015f5461257f906001600160a01b0316613ccc565b61016080546001600160a01b0319166001600160a01b0392909216919091179055508015611207576000805461ff0019169055604051600181527f7f26b83ff96e1f2b6a682f133852f6798a09c465da95921460cefb38474024989060200160405180910390a15050565b600082815260656020526040902060010154612605816136b5565b610eef83836137e3565b600260c95414156126625760405162461bcd60e51b815260206004820152601f60248201527f5265656e7472616e637947756172643a207265656e7472616e742063616c6c006044820152606401610ba3565b600260c95561266f6132b9565b60608101516001908181111561269557634e487b7160e01b600052602160045260246000fd5b60ff1611156126e65760405162461bcd60e51b815260206004820152601760248201527f4c6f616e54797065203a204f7574206f662072616e67650000000000000000006044820152606401610ba3565b60008160800151116127455760405162461bcd60e51b815260206004820152602260248201527f4c6f616e20416d6f756e74204d7573742062652067726561746572207468616e604482015261020360f41b6064820152608401610ba3565b80516001600160a01b031661279c5760405162461bcd60e51b815260206004820152601860248201527f696e76616c696420626f72726f776572206164647265737300000000000000006044820152606401610ba3565b60008160c00151116128155760405162461bcd60e51b8152602060048201526024808201527f4c6f616e20496e746572657374204d757374206265206772656174657220746860448201527f616e2030000000000000000000000000000000000000000000000000000000006064820152608401610ba3565b60008160a00151116128745760405162461bcd60e51b815260206004820152602260248201527f4c6f616e2054656e757265204d7573742062652067726561746572207468616e604482015261020360f41b6064820152608401610ba3565b60008160e00151116128ee5760405162461bcd60e51b815260206004820152602860248201527f5061796d656e74204672657175656e6379204d7573742062652067726561746560448201527f72207468616e20300000000000000000000000000000000000000000000000006064820152608401610ba3565b6032816020015151111561296a5760405162461bcd60e51b815260206004820152603b60248201527f4c656e677468206f66204f70706f7274756e697479206e616d65206d7573742060448201527f6265206c657373207468616e206f7220657175616c20746f20353000000000006064820152608401610ba3565b60008161010001516040516020016129829190614779565b60408051601f198184030181529181528151602092830120600081815261016390935291205490915060ff1615612a475760405162461bcd60e51b815260206004820152604660248201527f53616d6520636f6c6c61746f72616c20646f63756d656e74206973206265656e60448201527f207573656420746f2063726561746520646966666572656e74206f70706f727460648201527f756e6974792e0000000000000000000000000000000000000000000000000000608482015260a401610ba3565b612a4f6142d2565b81815282516001600160a01b031660208083019190915283015160408083019190915283015160608083019190915283015160808201906001811115612aa557634e487b7160e01b600052602160045260246000fd5b90816001811115612ac657634e487b7160e01b600052602160045260246000fd5b905250608083015160a08281019190915283015160c08083019190915283015160e0808301919091528301516101008083019190915283015161012080830191909152830151610140820152426101a08201526000828152610161602090815260409182902083518155818401516001820180546001600160a01b0319166001600160a01b03909216919091179055918301518051849392612b6f926002850192910190614362565b5060608201518051612b8b916003840191602090910190614362565b50608082015160048201805460ff191660018381811115612bbc57634e487b7160e01b600052602160045260246000fd5b021790555060a0820151600582015560c0820151600682015560e0820151600782015561010082015160088201556101208201518051612c06916009840191602090910190614362565b50610140820151600a820155610160820151600b8201805460ff19166001836008811115612c4457634e487b7160e01b600052602160045260246000fd5b0217905550610180820151600b820180547fffffffffffffffffffffff0000000000000000000000000000000000000000ff166101006001600160a01b03938416021790556101a090920151600c909101559251909216600090815261016260209081526040808320805460018181018355918552838520018590558484526101639092528220805460ff1916821790556101668054808301825592527fa5a4c57b7184ec73d55be4993773cb4eef681bc86a28d0285cd66efb50676a979091019190915560c95550565b612d17612387565b612d775760405162461bcd60e51b815260206004820152602b60248201527f4d75737420686176652061646d696e20726f6c6520746f20706572666f726d2060448201526a3a3434b99030b1ba34b7b760a91b6064820152608401610ba3565b600260c9541415612dca5760405162461bcd60e51b815260206004820152601f60248201527f5265656e7472616e637947756172643a207265656e7472616e742063616c6c006044820152606401610ba3565b600260c955612dd76132b9565b6001600160a01b038116612e2d5760405162461bcd60e51b815260206004820152600f60248201527f496e76616c6964204164647265737300000000000000000000000000000000006044820152606401610ba3565b6000828152610163602052604090205460ff161515600114612e7f5760405162461bcd60e51b815260206004820152601c6024820152600080516020614b398339815191526044820152606401610ba3565b600082815261016160205260408120600b015460ff166008811115612eb457634e487b7160e01b600052602160045260246000fd5b14612f015760405162461bcd60e51b815260206004820152601d60248201527f4f70706f7274756e69747920697320616c7265616479204a75646765640000006044820152606401610ba3565b60008281526101646020526040812082910180546001600160a01b0319166001600160a01b0392831617905516600090815261016560209081526040822080546001818101835591845291909220019190915560c955565b6000818152610163602052604090205460609060ff161515600114612fae5760405162461bcd60e51b815260206004820152601c6024820152600080516020614b398339815191526044820152606401610ba3565b60008281526101616020908152604080832081516101c0810183528154815260018201546001600160a01b0316938101939093526002810180549192840191612ff690614a7f565b80601f016020809104026020016040519081016040528092919081815260200182805461302290614a7f565b801561306f5780601f106130445761010080835404028352916020019161306f565b820191906000526020600020905b81548152906001019060200180831161305257829003601f168201915b5050505050815260200160038201805461308890614a7f565b80601f01602080910402602001604051908101604052809291908181526020018280546130b490614a7f565b80156131015780601f106130d657610100808354040283529160200191613101565b820191906000526020600020905b8154815290600101906020018083116130e457829003601f168201915b5050509183525050600482015460209091019060ff16600181111561313657634e487b7160e01b600052602160045260246000fd5b600181111561315557634e487b7160e01b600052602160045260246000fd5b81526020016005820154815260200160068201548152602001600782015481526020016008820154815260200160098201805461319190614a7f565b80601f01602080910402602001604051908101604052809291908181526020018280546131bd90614a7f565b801561320a5780601f106131df5761010080835404028352916020019161320a565b820191906000526020600020905b8154815290600101906020018083116131ed57829003601f168201915b5050509183525050600a8201546020820152600b82015460409091019060ff16600881111561324957634e487b7160e01b600052602160045260246000fd5b600881111561326857634e487b7160e01b600052602160045260246000fd5b8152600b82015461010090046001600160a01b03166020820152600c9091015460409182015201519392505050565b61016681815481106132a857600080fd5b600091825260209091200154905081565b60975460ff161561141a5760405162461bcd60e51b815260206004820152601060248201527f5061757361626c653a20706175736564000000000000000000000000000000006044820152606401610ba3565b6000818152610163602052604090205460ff16151560011461335e5760405162461bcd60e51b815260206004820152601c6024820152600080516020614b398339815191526044820152606401610ba3565b6002600082815261016160205260409020600b015460ff16600881111561339557634e487b7160e01b600052602160045260246000fd5b146133e25760405162461bcd60e51b815260206004820152601b60248201527f4f70706f7274756e697479206973206e6f7420617070726f76656400000000006044820152606401610ba3565b6000818152610161602052604090819020600b8101805460ff191660049081179091556101605492517fd204c45e0000000000000000000000000000000000000000000000000000000081526001600160a01b039093169263d204c45e9261114a92339260099092019101614816565b60006004600083815261016160205260409020600b015460ff16600881111561348b57634e487b7160e01b600052602160045260246000fd5b146134fe5760405162461bcd60e51b815260206004820152602c60248201527f436f6c6c61746572616c206f6620746865204f70706f7274756e69747920697360448201527f206e6f74206d696e7465642e00000000000000000000000000000000000000006064820152608401610ba3565b6000828152610163602052604090205460ff1615156001146135505760405162461bcd60e51b815260206004820152601c6024820152600080516020614b398339815191526044820152606401610ba3565b61015f54600090613569906001600160a01b0316613ce4565b905061357481613cfc565b61015f54600085815261016160205260409020805460058201546006830154600784015460088501546004909501549698506001600160a01b03808a169763c4f31a6597909116959060ff1660018111156135df57634e487b7160e01b600052602160045260246000fd5b6040516001600160e01b031960e08a901b1681526001600160a01b039097166004880152602487019590955260448601939093526064850191909152608484015260a483015260ff1660c482015260e401600060405180830381600087803b15801561364a57600080fd5b505af115801561365e573d6000803e3d6000fd5b505050600093845250506101616020526040909120600b0180547fffffffffffffffffffffff0000000000000000000000000000000000000000001660ff196101006001600160a01b038516021617600517905590565b6113848133613d65565b60008281526065602090815260408083206001600160a01b038516845290915290205460ff166112075760008281526065602090815260408083206001600160a01b03851684529091529020805460ff1916600117905561371d3390565b6001600160a01b0316816001600160a01b0316837f2f8788117e7eff1d82e926ec794901d17c78024a50270940304540a733656f0d60405160405180910390a45050565b60006001600160a01b03821663b93f9b0a60095b6040518263ffffffff1660e01b815260040161379391815260200190565b60206040518083038186803b1580156137ab57600080fd5b505afa1580156137bf573d6000803e3d6000fd5b505050506040513d601f19601f8201168201806040525081019061092591906144c6565b60008281526065602090815260408083206001600160a01b038516845290915290205460ff16156112075760008281526065602090815260408083206001600160a01b0385168085529252808320805460ff1916905551339285917ff6391f5c32d9c69d2a47ea670b442974b53935d1edc7fd64eb21e047a839171b9190a45050565b61386e612387565b6113845760405162461bcd60e51b815260206004820152602b60248201527f4d75737420686176652061646d696e20726f6c6520746f20706572666f726d2060448201526a3a3434b99030b1ba34b7b760a91b6064820152608401610ba3565b7f4910fdfa16fed3260ed0e7147f7cc6da11a60208b5b9406d12a635614ffd91435460ff161561390157610eef83613de5565b826001600160a01b03166352d1902d6040518163ffffffff1660e01b815260040160206040518083038186803b15801561393a57600080fd5b505afa92505050801561396a575060408051601f3d908101601f1916820190925261396791810190614586565b60015b6139dc5760405162461bcd60e51b815260206004820152602e60248201527f45524331393637557067726164653a206e657720696d706c656d656e7461746960448201527f6f6e206973206e6f7420555550530000000000000000000000000000000000006064820152608401610ba3565b7f360894a13ba1a3210667c828492db98dca3e2076cc3735a920a3ca505d382bbc8114613a715760405162461bcd60e51b815260206004820152602960248201527f45524331393637557067726164653a20756e737570706f727465642070726f7860448201527f6961626c655555494400000000000000000000000000000000000000000000006064820152608401610ba3565b50610eef838383613ea3565b613a85613ece565b6097805460ff191690557f5db9ee0a495bf2e6ff9c91a7834c1ba4fdd244a5e8aa4e537bd38aeae4b073aa335b6040516001600160a01b03909116815260200160405180910390a1565b600054610100900460ff16613b3a5760405162461bcd60e51b815260206004820152602b60248201527f496e697469616c697a61626c653a20636f6e7472616374206973206e6f74206960448201526a6e697469616c697a696e6760a81b6064820152608401610ba3565b6097805460ff19169055565b613b4e6132b9565b6097805460ff191660011790557f62e78cea01bee320cd4e420270b5ea74000d11b0c9f74754ebdbfc544b05a258613ab23390565b600054610100900460ff1661141a5760405162461bcd60e51b815260206004820152602b60248201527f496e697469616c697a61626c653a20636f6e7472616374206973206e6f74206960448201526a6e697469616c697a696e6760a81b6064820152608401610ba3565b600054610100900460ff16613c595760405162461bcd60e51b815260206004820152602b60248201527f496e697469616c697a61626c653a20636f6e7472616374206973206e6f74206960448201526a6e697469616c697a696e6760a81b6064820152608401610ba3565b600160c955565b61120782826136bf565b600082815260656020526040808220600101805490849055905190918391839186917fbd79b86ffe0ab8e8776151514217cd7cacd52c909f66475c3af44e129f0b00ff9190a4505050565b60006001600160a01b03821663b93f9b0a82613775565b60006001600160a01b03821663b93f9b0a6005613775565b60006001600160a01b03821663b93f9b0a6004613775565b6000808260601b90506040517f3d602d80600a3d3981f3363d3d373d3d3d363d7300000000000000000000000081528160148201527f5af43d82803e903d91602b57fd5bf3000000000000000000000000000000000060288201526037816000f0949350505050565b60008281526065602090815260408083206001600160a01b038516845290915290205460ff1661120757613da3816001600160a01b03166014613f20565b613dae836020613f20565b604051602001613dbf929190614795565b60408051601f198184030181529082905262461bcd60e51b8252610ba3916004016149c8565b6001600160a01b0381163b613e625760405162461bcd60e51b815260206004820152602d60248201527f455243313936373a206e657720696d706c656d656e746174696f6e206973206e60448201527f6f74206120636f6e7472616374000000000000000000000000000000000000006064820152608401610ba3565b7f360894a13ba1a3210667c828492db98dca3e2076cc3735a920a3ca505d382bbc80546001600160a01b0319166001600160a01b0392909216919091179055565b613eac8361414e565b600082511180613eb95750805b15610eef57613ec8838361418e565b50505050565b60975460ff1661141a5760405162461bcd60e51b815260206004820152601460248201527f5061757361626c653a206e6f74207061757365640000000000000000000000006044820152606401610ba3565b60606000613f2f836002614a1d565b613f3a906002614a05565b67ffffffffffffffff811115613f6057634e487b7160e01b600052604160045260246000fd5b6040519080825280601f01601f191660200182016040528015613f8a576020820181803683370190505b5090507f300000000000000000000000000000000000000000000000000000000000000081600081518110613fcf57634e487b7160e01b600052603260045260246000fd5b60200101906001600160f81b031916908160001a9053507f78000000000000000000000000000000000000000000000000000000000000008160018151811061402857634e487b7160e01b600052603260045260246000fd5b60200101906001600160f81b031916908160001a905350600061404c846002614a1d565b614057906001614a05565b90505b60018111156140f8577f303132333435363738396162636465660000000000000000000000000000000085600f16601081106140a657634e487b7160e01b600052603260045260246000fd5b1a60f81b8282815181106140ca57634e487b7160e01b600052603260045260246000fd5b60200101906001600160f81b031916908160001a90535060049490941c936140f181614a68565b905061405a565b5083156141475760405162461bcd60e51b815260206004820181905260248201527f537472696e67733a20686578206c656e67746820696e73756666696369656e746044820152606401610ba3565b9392505050565b61415781613de5565b6040516001600160a01b038216907fbc7cd75a20ee27fd9adebab32041f755214dbc6bffa90cc0225b39da2e5c2d3b90600090a250565b60606001600160a01b0383163b61420d5760405162461bcd60e51b815260206004820152602660248201527f416464726573733a2064656c65676174652063616c6c20746f206e6f6e2d636f60448201527f6e747261637400000000000000000000000000000000000000000000000000006064820152608401610ba3565b600080846001600160a01b0316846040516142289190614779565b600060405180830381855af49150503d8060008114614263576040519150601f19603f3d011682016040523d82523d6000602084013e614268565b606091505b50915091506142908282604051806060016040528060278152602001614b1260279139614299565b95945050505050565b606083156142a8575081614147565b8251156142b85782518084602001fd5b8160405162461bcd60e51b8152600401610ba391906149c8565b604080516101c08101825260008082526020820181905260609282018390528282019290925290608082019081526020016000815260200160008152602001600081526020016000815260200160608152602001600081526020016000600881111561434e57634e487b7160e01b600052602160045260246000fd5b815260006020820181905260409091015290565b82805461436e90614a7f565b90600052602060002090601f01602090048101928261439057600085556143d6565b82601f106143a957805160ff19168380011785556143d6565b828001600101855582156143d6579182015b828111156143d65782518255916020019190600101906143bb565b506143e29291506143e6565b5090565b5b808211156143e257600081556001016143e7565b600067ffffffffffffffff8084111561441657614416614ae6565b604051601f8501601f19908116603f0116810190828211818310171561443e5761443e614ae6565b8160405280935085815286868601111561445757600080fd5b858560208301376000602087830101525050509392505050565b80356114c381614afc565b8035600281106114c357600080fd5b600082601f83011261449b578081fd5b614147838335602085016143fb565b6000602082840312156144bb578081fd5b813561414781614afc565b6000602082840312156144d7578081fd5b815161414781614afc565b600080604083850312156144f4578081fd5b82356144ff81614afc565b9150602083013567ffffffffffffffff81111561451a578182fd5b8301601f8101851361452a578182fd5b614539858235602084016143fb565b9150509250929050565b60008060408385031215614555578182fd5b823561456081614afc565b946020939093013593505050565b60006020828403121561457f578081fd5b5035919050565b600060208284031215614597578081fd5b5051919050565b600080604083850312156145b0578182fd5b8235915060208301356145c281614afc565b809150509250929050565b600080604083850312156145df578182fd5b82359150602083013560ff811681146145c2578182fd5b600060208284031215614607578081fd5b81356001600160e01b031981168114614147578182fd5b60006020828403121561462f578081fd5b813567ffffffffffffffff80821115614646578283fd5b90830190610140828603121561465a578283fd5b6146626149db565b61466b83614471565b815260208301358281111561467e578485fd5b61468a8782860161448b565b6020830152506040830135828111156146a1578485fd5b6146ad8782860161448b565b6040830152506146bf6060840161447c565b60608201526080830135608082015260a083013560a082015260c083013560c082015260e083013560e082015261010080840135838111156146ff578586fd5b61470b8882870161448b565b91830191909152506101209283013592810192909252509392505050565b6002811061473957614739614ad0565b9052565b6009811061473957614739614ad0565b60008151808452614765816020860160208601614a3c565b601f01601f19169290920160200192915050565b6000825161478b818460208701614a3c565b9190910192915050565b7f416363657373436f6e74726f6c3a206163636f756e74200000000000000000008152600083516147cd816017850160208801614a3c565b7f206973206d697373696e6720726f6c6520000000000000000000000000000000601791840191820152835161480a816028840160208801614a3c565b01602801949350505050565b6001600160a01b03831681526000602060408184015281845483600182811c91508083168061484657607f831692505b85831081141561486457634e487b7160e01b87526022600452602487fd5b60408801839052606088018180156148835760018114614894576148be565b60ff198616825287820196506148be565b60008b815260209020895b868110156148b85781548482015290850190890161489f565b83019750505b50949a9950505050505050505050565b6020808252825182820181905260009190848201906040850190845b81811015614906578351835292840192918401916001016148ea565b50909695505050505050565b8e81526001600160a01b038e1660208201526101c06040820152600061493c6101c083018f61474d565b828103606084015261494e818f61474d565b905061495d608084018e614729565b8b60a08401528a60c08401528960e084015288610100840152828103610120840152614989818961474d565b915050856101408301526149a161016083018661473d565b6001600160a01b03939093166101808201526101a001529c9b505050505050505050505050565b602081526000614147602083018461474d565b604051610140810167ffffffffffffffff811182821017156149ff576149ff614ae6565b60405290565b60008219821115614a1857614a18614aba565b500190565b6000816000190483118215151615614a3757614a37614aba565b500290565b60005b83811015614a57578181015183820152602001614a3f565b83811115613ec85750506000910152565b600081614a7757614a77614aba565b506000190190565b600181811c90821680614a9357607f821691505b60208210811415614ab457634e487b7160e01b600052602260045260246000fd5b50919050565b634e487b7160e01b600052601160045260246000fd5b634e487b7160e01b600052602160045260246000fd5b634e487b7160e01b600052604160045260246000fd5b6001600160a01b038116811461138457600080fdfe416464726573733a206c6f772d6c6576656c2064656c65676174652063616c6c206661696c65644f70706f7274756e69747920494420646f65736e277420657869737400000000a2646970667358221220152cb9b6f20ae2f43a27bb7281e9958fd8755a21305009a58d0c9ae9e28f156f64736f6c63430008040033",
  "linkReferences": {},
  "deployedLinkReferences": {}
}