{
  "_format": "hh-sol-artifact-1",
  "contractName": "OpportunityOrigination",
  "sourceName": "contracts/protocol/OpportunityOrigination.sol",
  "abi": [
    {
      "anonymous": false,
      "inputs": [
        {
          "indexed": false,
          "internalType": "uint8",
          "name": "version",
          "type": "uint8"
        }
      ],
      "name": "Initialized",
      "type": "event"
    },
    {
      "anonymous": false,
      "inputs": [
        {
          "indexed": false,
          "internalType": "address",
          "name": "account",
          "type": "address"
        }
      ],
      "name": "Paused",
      "type": "event"
    },
    {
      "anonymous": false,
      "inputs": [
        {
          "indexed": true,
          "internalType": "bytes32",
          "name": "role",
          "type": "bytes32"
        },
        {
          "indexed": true,
          "internalType": "bytes32",
          "name": "previousAdminRole",
          "type": "bytes32"
        },
        {
          "indexed": true,
          "internalType": "bytes32",
          "name": "newAdminRole",
          "type": "bytes32"
        }
      ],
      "name": "RoleAdminChanged",
      "type": "event"
    },
    {
      "anonymous": false,
      "inputs": [
        {
          "indexed": true,
          "internalType": "bytes32",
          "name": "role",
          "type": "bytes32"
        },
        {
          "indexed": true,
          "internalType": "address",
          "name": "account",
          "type": "address"
        },
        {
          "indexed": true,
          "internalType": "address",
          "name": "sender",
          "type": "address"
        }
      ],
      "name": "RoleGranted",
      "type": "event"
    },
    {
      "anonymous": false,
      "inputs": [
        {
          "indexed": true,
          "internalType": "bytes32",
          "name": "role",
          "type": "bytes32"
        },
        {
          "indexed": true,
          "internalType": "address",
          "name": "account",
          "type": "address"
        },
        {
          "indexed": true,
          "internalType": "address",
          "name": "sender",
          "type": "address"
        }
      ],
      "name": "RoleRevoked",
      "type": "event"
    },
    {
      "anonymous": false,
      "inputs": [
        {
          "indexed": false,
          "internalType": "address",
          "name": "account",
          "type": "address"
        }
      ],
      "name": "Unpaused",
      "type": "event"
    },
    {
      "inputs": [],
      "name": "ADMIN_ROLE",
      "outputs": [
        {
          "internalType": "bytes32",
          "name": "",
          "type": "bytes32"
        }
      ],
      "stateMutability": "view",
      "type": "function"
    },
    {
      "inputs": [],
      "name": "DEFAULT_ADMIN_ROLE",
      "outputs": [
        {
          "internalType": "bytes32",
          "name": "",
          "type": "bytes32"
        }
      ],
      "stateMutability": "view",
      "type": "function"
    },
    {
      "inputs": [],
      "name": "PAUSER_ROLE",
      "outputs": [
        {
          "internalType": "bytes32",
          "name": "",
          "type": "bytes32"
        }
      ],
      "stateMutability": "view",
      "type": "function"
    },
    {
      "inputs": [
        {
          "internalType": "address",
          "name": "owner",
          "type": "address"
        }
      ],
      "name": "_BaseUpgradeablePausable_init",
      "outputs": [],
      "stateMutability": "nonpayable",
      "type": "function"
    },
    {
      "inputs": [],
      "name": "__PauserPausable__init",
      "outputs": [],
      "stateMutability": "nonpayable",
      "type": "function"
    },
    {
      "inputs": [
        {
          "internalType": "bytes32",
          "name": "_opportunityId",
          "type": "bytes32"
        },
        {
          "internalType": "address",
          "name": "_underwriter",
          "type": "address"
        }
      ],
      "name": "assignUnderwriters",
      "outputs": [],
      "stateMutability": "nonpayable",
      "type": "function"
    },
    {
      "inputs": [],
      "name": "collateralToken",
      "outputs": [
        {
          "internalType": "contract CollateralToken",
          "name": "",
          "type": "address"
        }
      ],
      "stateMutability": "view",
      "type": "function"
    },
    {
      "inputs": [
        {
          "components": [
            {
              "internalType": "address",
              "name": "borrower",
              "type": "address"
            },
            {
              "internalType": "string",
              "name": "opportunityName",
              "type": "string"
            },
            {
              "internalType": "string",
              "name": "opportunityInfo",
              "type": "string"
            },
            {
              "internalType": "enum IOpportunityOrigination.LoanType",
              "name": "loanType",
              "type": "uint8"
            },
            {
              "internalType": "uint256",
              "name": "loanAmount",
              "type": "uint256"
            },
            {
              "internalType": "uint256",
              "name": "loanTenureInDays",
              "type": "uint256"
            },
            {
              "internalType": "uint256",
              "name": "loanInterest",
              "type": "uint256"
            },
            {
              "internalType": "uint256",
              "name": "paymentFrequencyInDays",
              "type": "uint256"
            },
            {
              "internalType": "string",
              "name": "collateralDocument",
              "type": "string"
            },
            {
              "internalType": "uint256",
              "name": "capitalLoss",
              "type": "uint256"
            }
          ],
          "internalType": "struct IOpportunityOrigination.CreateOpportunity",
          "name": "_opportunityData",
          "type": "tuple"
        }
      ],
      "name": "createOpportunity",
      "outputs": [],
      "stateMutability": "nonpayable",
      "type": "function"
    },
    {
      "inputs": [],
      "name": "dygnifyConfig",
      "outputs": [
        {
          "internalType": "contract DygnifyConfig",
          "name": "",
          "type": "address"
        }
      ],
      "stateMutability": "view",
      "type": "function"
    },
    {
      "inputs": [
        {
          "internalType": "address",
          "name": "borrower",
          "type": "address"
        }
      ],
      "name": "getAlltheOpportunitiesOf",
      "outputs": [
        {
          "internalType": "bytes32[]",
          "name": "",
          "type": "bytes32[]"
        }
      ],
      "stateMutability": "view",
      "type": "function"
    },
    {
      "inputs": [
        {
          "internalType": "bytes32",
          "name": "id",
          "type": "bytes32"
        }
      ],
      "name": "getBorrower",
      "outputs": [
        {
          "internalType": "address",
          "name": "",
          "type": "address"
        }
      ],
      "stateMutability": "view",
      "type": "function"
    },
    {
      "inputs": [
        {
          "internalType": "bytes32",
          "name": "_opportunityId",
          "type": "bytes32"
        }
      ],
      "name": "getOpportunityNameOf",
      "outputs": [
        {
          "internalType": "string",
          "name": "",
          "type": "string"
        }
      ],
      "stateMutability": "view",
      "type": "function"
    },
    {
      "inputs": [
        {
          "internalType": "address",
          "name": "_borrower",
          "type": "address"
        }
      ],
      "name": "getOpportunityOf",
      "outputs": [
        {
          "internalType": "bytes32[]",
          "name": "",
          "type": "bytes32[]"
        }
      ],
      "stateMutability": "view",
      "type": "function"
    },
    {
      "inputs": [
        {
          "internalType": "bytes32",
          "name": "id",
          "type": "bytes32"
        }
      ],
      "name": "getOpportunityPoolAddress",
      "outputs": [
        {
          "internalType": "address",
          "name": "",
          "type": "address"
        }
      ],
      "stateMutability": "view",
      "type": "function"
    },
    {
      "inputs": [
        {
          "internalType": "bytes32",
          "name": "role",
          "type": "bytes32"
        }
      ],
      "name": "getRoleAdmin",
      "outputs": [
        {
          "internalType": "bytes32",
          "name": "",
          "type": "bytes32"
        }
      ],
      "stateMutability": "view",
      "type": "function"
    },
    {
      "inputs": [],
      "name": "getTotalOpportunities",
      "outputs": [
        {
          "internalType": "uint256",
          "name": "",
          "type": "uint256"
        }
      ],
      "stateMutability": "view",
      "type": "function"
    },
    {
      "inputs": [
        {
          "internalType": "address",
          "name": "_underwriter",
          "type": "address"
        }
      ],
      "name": "getUnderWritersOpportunities",
      "outputs": [
        {
          "internalType": "bytes32[]",
          "name": "",
          "type": "bytes32[]"
        }
      ],
      "stateMutability": "view",
      "type": "function"
    },
    {
      "inputs": [
        {
          "internalType": "bytes32",
          "name": "role",
          "type": "bytes32"
        },
        {
          "internalType": "address",
          "name": "account",
          "type": "address"
        }
      ],
      "name": "grantRole",
      "outputs": [],
      "stateMutability": "nonpayable",
      "type": "function"
    },
    {
      "inputs": [
        {
          "internalType": "bytes32",
          "name": "role",
          "type": "bytes32"
        },
        {
          "internalType": "address",
          "name": "account",
          "type": "address"
        }
      ],
      "name": "hasRole",
      "outputs": [
        {
          "internalType": "bool",
          "name": "",
          "type": "bool"
        }
      ],
      "stateMutability": "view",
      "type": "function"
    },
    {
      "inputs": [
        {
          "internalType": "contract DygnifyConfig",
          "name": "config",
          "type": "address"
        }
      ],
      "name": "initialize",
      "outputs": [],
      "stateMutability": "nonpayable",
      "type": "function"
    },
    {
      "inputs": [
        {
          "internalType": "bytes32",
          "name": "id",
          "type": "bytes32"
        }
      ],
      "name": "isActive",
      "outputs": [
        {
          "internalType": "bool",
          "name": "",
          "type": "bool"
        }
      ],
      "stateMutability": "view",
      "type": "function"
    },
    {
      "inputs": [],
      "name": "isAdmin",
      "outputs": [
        {
          "internalType": "bool",
          "name": "",
          "type": "bool"
        }
      ],
      "stateMutability": "view",
      "type": "function"
    },
    {
      "inputs": [
        {
          "internalType": "bytes32",
          "name": "id",
          "type": "bytes32"
        }
      ],
      "name": "isDrawdown",
      "outputs": [
        {
          "internalType": "bool",
          "name": "",
          "type": "bool"
        }
      ],
      "stateMutability": "view",
      "type": "function"
    },
    {
      "inputs": [
        {
          "internalType": "bytes32",
          "name": "",
          "type": "bytes32"
        }
      ],
      "name": "isOpportunity",
      "outputs": [
        {
          "internalType": "bool",
          "name": "",
          "type": "bool"
        }
      ],
      "stateMutability": "view",
      "type": "function"
    },
    {
      "inputs": [
        {
          "internalType": "bytes32",
          "name": "id",
          "type": "bytes32"
        }
      ],
      "name": "isRepaid",
      "outputs": [
        {
          "internalType": "bool",
          "name": "",
          "type": "bool"
        }
      ],
      "stateMutability": "view",
      "type": "function"
    },
    {
      "inputs": [
        {
          "internalType": "bytes32",
          "name": "id",
          "type": "bytes32"
        }
      ],
      "name": "markDrawDown",
      "outputs": [],
      "stateMutability": "nonpayable",
      "type": "function"
    },
    {
      "inputs": [
        {
          "internalType": "bytes32",
          "name": "id",
          "type": "bytes32"
        }
      ],
      "name": "markRepaid",
      "outputs": [],
      "stateMutability": "nonpayable",
      "type": "function"
    },
    {
      "inputs": [
        {
          "internalType": "uint256",
          "name": "",
          "type": "uint256"
        }
      ],
      "name": "opportunityIds",
      "outputs": [
        {
          "internalType": "bytes32",
          "name": "",
          "type": "bytes32"
        }
      ],
      "stateMutability": "view",
      "type": "function"
    },
    {
      "inputs": [
        {
          "internalType": "address",
          "name": "",
          "type": "address"
        },
        {
          "internalType": "uint256",
          "name": "",
          "type": "uint256"
        }
      ],
      "name": "opportunityOf",
      "outputs": [
        {
          "internalType": "bytes32",
          "name": "",
          "type": "bytes32"
        }
      ],
      "stateMutability": "view",
      "type": "function"
    },
    {
      "inputs": [
        {
          "internalType": "bytes32",
          "name": "",
          "type": "bytes32"
        }
      ],
      "name": "opportunityToId",
      "outputs": [
        {
          "internalType": "bytes32",
          "name": "opportunityID",
          "type": "bytes32"
        },
        {
          "internalType": "address",
          "name": "borrower",
          "type": "address"
        },
        {
          "internalType": "string",
          "name": "opportunityName",
          "type": "string"
        },
        {
          "internalType": "string",
          "name": "opportunityInfo",
          "type": "string"
        },
        {
          "internalType": "enum IOpportunityOrigination.LoanType",
          "name": "loanType",
          "type": "uint8"
        },
        {
          "internalType": "uint256",
          "name": "loanAmount",
          "type": "uint256"
        },
        {
          "internalType": "uint256",
          "name": "loanTenureInDays",
          "type": "uint256"
        },
        {
          "internalType": "uint256",
          "name": "loanInterest",
          "type": "uint256"
        },
        {
          "internalType": "uint256",
          "name": "paymentFrequencyInDays",
          "type": "uint256"
        },
        {
          "internalType": "string",
          "name": "collateralDocument",
          "type": "string"
        },
        {
          "internalType": "uint256",
          "name": "capitalLoss",
          "type": "uint256"
        },
        {
          "internalType": "enum IOpportunityOrigination.OpportunityStatus",
          "name": "opportunityStatus",
          "type": "uint8"
        },
        {
          "internalType": "address",
          "name": "opportunityPoolAddress",
          "type": "address"
        },
        {
          "internalType": "uint256",
          "name": "createdOn",
          "type": "uint256"
        }
      ],
      "stateMutability": "view",
      "type": "function"
    },
    {
      "inputs": [],
      "name": "pause",
      "outputs": [],
      "stateMutability": "nonpayable",
      "type": "function"
    },
    {
      "inputs": [],
      "name": "paused",
      "outputs": [
        {
          "internalType": "bool",
          "name": "",
          "type": "bool"
        }
      ],
      "stateMutability": "view",
      "type": "function"
    },
    {
      "inputs": [
        {
          "internalType": "bytes32",
          "name": "role",
          "type": "bytes32"
        },
        {
          "internalType": "address",
          "name": "account",
          "type": "address"
        }
      ],
      "name": "renounceRole",
      "outputs": [],
      "stateMutability": "nonpayable",
      "type": "function"
    },
    {
      "inputs": [
        {
          "internalType": "bytes32",
          "name": "role",
          "type": "bytes32"
        },
        {
          "internalType": "address",
          "name": "account",
          "type": "address"
        }
      ],
      "name": "revokeRole",
      "outputs": [],
      "stateMutability": "nonpayable",
      "type": "function"
    },
    {
      "inputs": [
        {
          "internalType": "bytes4",
          "name": "interfaceId",
          "type": "bytes4"
        }
      ],
      "name": "supportsInterface",
      "outputs": [
        {
          "internalType": "bool",
          "name": "",
          "type": "bool"
        }
      ],
      "stateMutability": "view",
      "type": "function"
    },
    {
      "inputs": [
        {
          "internalType": "address",
          "name": "",
          "type": "address"
        },
        {
          "internalType": "uint256",
          "name": "",
          "type": "uint256"
        }
      ],
      "name": "underwriterToOpportunity",
      "outputs": [
        {
          "internalType": "bytes32",
          "name": "",
          "type": "bytes32"
        }
      ],
      "stateMutability": "view",
      "type": "function"
    },
    {
      "inputs": [],
      "name": "unpause",
      "outputs": [],
      "stateMutability": "nonpayable",
      "type": "function"
    },
    {
      "inputs": [
        {
          "internalType": "bytes32",
          "name": "_opportunityId",
          "type": "bytes32"
        },
        {
          "internalType": "uint8",
          "name": "_status",
          "type": "uint8"
        }
      ],
      "name": "voteOpportunity",
      "outputs": [],
      "stateMutability": "nonpayable",
      "type": "function"
    }
  ],
  "bytecode": "0x608060405234801561001057600080fd5b50613d71806100206000396000f3fe608060405234801561001057600080fd5b50600436106102925760003560e01c80637e4dc6d511610160578063b369be54116100d8578063e2f372241161008c578063e87ec15f11610071578063e87ec15f146105ba578063f00474a6146105cd578063f1bae27d146105ed57600080fd5b8063e2f3722414610580578063e63ab1e91461059357600080fd5b8063c4d66de8116100bd578063c4d66de814610536578063d547741f14610549578063e0bb77e31461055c57600080fd5b8063b369be541461051b578063b6db75a01461052e57600080fd5b806391d148541161012f578063a217fddf11610114578063a217fddf146104ed578063af7ea944146104f5578063b2016bd41461050857600080fd5b806391d14854146104a1578063a12dde4d146104da57600080fd5b80637e4dc6d51461046057806381767155146104735780638456cb591461048657806389eb01fc1461048e57600080fd5b80633f4ba83a1161020e5780635c975abb116101c257806375b238fc116101a757806375b238fc146104135780637921c67d1461043a5780637a8f55601461044d57600080fd5b80635c975abb146103f5578063728c3ea21461040057600080fd5b8063486caf7c116101f3578063486caf7c146103d1578063526d81f6146103da5780635c36901c146103e257600080fd5b80633f4ba83a146103b65780634622abe0146103be57600080fd5b8063248a9ca3116102655780632f2ff15d1161024a5780632f2ff15d1461037d578063332f14861461039057806336568abe146103a357600080fd5b8063248a9ca3146103375780632885f8b91461036857600080fd5b806301ffc9a7146102975780630bca245a146102bf5780631633f5a3146102ec5780631be954591461030c575b600080fd5b6102aa6102a53660046137fc565b610600565b60405190151581526020015b60405180910390f35b6102d26102cd36600461378c565b610669565b6040516102b69e9d9c9b9a99989796959493929190613b18565b6102ff6102fa366004613729565b61088c565b6040516102b69190613ad4565b60fb5461031f906001600160a01b031681565b6040516001600160a01b0390911681526020016102b6565b61035a61034536600461378c565b60009081526065602052604090206001015490565b6040519081526020016102b6565b61037b6103763660046137d3565b610957565b005b61037b61038b3660046137a4565b610c05565b61037b61039e36600461378c565b610c2f565b61037b6103b13660046137a4565b610e5d565b61037b610ee9565b6102aa6103cc36600461378c565b610f7e565b6101025461035a565b61037b611023565b6102aa6103f036600461378c565b611143565b60975460ff166102aa565b61031f61040e36600461378c565b6111e0565b61035a7fa49807205ce4d355092ef5a8a18f56e8913cf4a201fbe287825b095693c2177581565b61035a610448366004613761565b611250565b61035a61045b366004613761565b611281565b61031f61046e36600461378c565b61129e565b6102aa61048136600461378c565b611430565b61037b611488565b6102ff61049c366004613729565b61151b565b6102aa6104af3660046137a4565b60009182526065602090815260408084206001600160a01b0393909316845291905290205460ff1690565b61037b6104e8366004613729565b6115de565b61035a600081565b61037b61050336600461378c565b61177f565b60fc5461031f906001600160a01b031681565b6102ff610529366004613729565b611983565b6102aa611a45565b61037b610544366004613729565b611a76565b61037b6105573660046137a4565b611cbf565b6102aa61056a36600461378c565b60ff602081905260009182526040909120541681565b61037b61058e366004613824565b611ce4565b61035a7f65d7a28e3265b37a6474929f336521b332c1681b933f6cb9f3376673440d862a81565b61037b6105c83660046137a4565b6123ee565b6105e06105db36600461378c565b612656565b6040516102b69190613bce565b61035a6105fb36600461378c565b612993565b60006001600160e01b031982167f7965db0b00000000000000000000000000000000000000000000000000000000148061066357507f01ffc9a7000000000000000000000000000000000000000000000000000000006001600160e01b03198316145b92915050565b60fd6020526000908152604090208054600182015460028301805492936001600160a01b039092169261069b90613c89565b80601f01602080910402602001604051908101604052809291908181526020018280546106c790613c89565b80156107145780601f106106e957610100808354040283529160200191610714565b820191906000526020600020905b8154815290600101906020018083116106f757829003601f168201915b50505050509080600301805461072990613c89565b80601f016020809104026020016040519081016040528092919081815260200182805461075590613c89565b80156107a25780601f10610777576101008083540402835291602001916107a2565b820191906000526020600020905b81548152906001019060200180831161078557829003601f168201915b5050505050908060040160009054906101000a900460ff16908060050154908060060154908060070154908060080154908060090180546107e290613c89565b80601f016020809104026020016040519081016040528092919081815260200182805461080e90613c89565b801561085b5780601f106108305761010080835404028352916020019161085b565b820191906000526020600020905b81548152906001019060200180831161083e57829003601f168201915b50505050600a830154600b840154600c909401549293909260ff821692506101009091046001600160a01b0316908e565b60606001600160a01b0382166108e95760405162461bcd60e51b815260206004820152601b60248201527f496e76616c696420756e6465727772697465722073646472657373000000000060448201526064015b60405180910390fd5b6001600160a01b0382166000908152610101602090815260408083208054825181850281018501909352808352919290919083018282801561094a57602002820191906000526020600020905b815481526020019060010190808311610936575b5093979650505050505050565b600260c95414156109aa5760405162461bcd60e51b815260206004820152601f60248201527f5265656e7472616e637947756172643a207265656e7472616e742063616c6c0060448201526064016108e0565b600260c9556109b76129b5565b600082815261010060205260409020546001600160a01b03163314610a445760405162461bcd60e51b815260206004820152602d60248201527f596f7520617265206e6f7420616e206175646969746f7220666f72207468697360448201527f204f70706f7274756e6974792e0000000000000000000000000000000000000060648201526084016108e0565b600082815260ff6020819052604090912054161515600114610a965760405162461bcd60e51b815260206004820152601c6024820152600080516020613d1c83398151915260448201526064016108e0565b600160ff821610801590610aae5750600360ff821611155b610afa5760405162461bcd60e51b815260206004820152601560248201527f537461747573203a206f7574206f662072616e6765000000000000000000000060448201526064016108e0565b600082815260fd60205260408120600b015460ff166007811115610b2e57634e487b7160e01b600052602160045260246000fd5b14610b7b5760405162461bcd60e51b815260206004820152601d60248201527f4f70706f7274756e69747920697320616c7265616479204a756467656400000060448201526064016108e0565b8060ff166007811115610b9e57634e487b7160e01b600052602160045260246000fd5b600083815260fd60205260409020600b01805460ff19166001836007811115610bd757634e487b7160e01b600052602160045260246000fd5b021790555060ff811660021415610bfc57610bf182612a08565b610bfa82612b80565b505b5050600160c955565b600082815260656020526040902060010154610c2081612dde565b610c2a8383612de8565b505050565b600081815260ff6020819052604090912054161515600114610c815760405162461bcd60e51b815260206004820152601c6024820152600080516020613d1c83398151915260448201526064016108e0565b6006600082815260fd60205260409020600b015460ff166007811115610cb757634e487b7160e01b600052602160045260246000fd5b14610d2a5760405162461bcd60e51b815260206004820152602960248201527f4f70706f7274756e69747920706f6f6c20697320686176656e2774206472617760448201527f646f776e207965742e000000000000000000000000000000000000000000000060648201526084016108e0565b600081815260fd60205260409020600b015461010090046001600160a01b03163314610dbe5760405162461bcd60e51b815260206004820152602b60248201527f4f6e6c79204f70706f7274756e69747920506f6f6c2063616e206d61726b206960448201527f742061732072657061696400000000000000000000000000000000000000000060648201526084016108e0565b600081815260fd60205260409020600b015461010090046001600160a01b0316610e365760405162461bcd60e51b815260206004820152602360248201527f4f70706f7274756e69747920506f6f6c206973206e6f742063726561746564206044820152621e595d60ea1b60648201526084016108e0565b600081815260fd60205260409020600b0180546007919060ff19166001835b021790555050565b6001600160a01b0381163314610edb5760405162461bcd60e51b815260206004820152602f60248201527f416363657373436f6e74726f6c3a2063616e206f6e6c792072656e6f756e636560448201527f20726f6c657320666f722073656c66000000000000000000000000000000000060648201526084016108e0565b610ee58282612e8a565b5050565b610f137f65d7a28e3265b37a6474929f336521b332c1681b933f6cb9f3376673440d862a336104af565b610f745760405162461bcd60e51b815260206004820152602c60248201527f4d75737420686176652070617573657220726f6c6520746f20706572666f726d60448201526b103a3434b99030b1ba34b7b760a11b60648201526084016108e0565b610f7c612f0d565b565b600081815260ff60208190526040822054161515600114610fcf5760405162461bcd60e51b815260206004820152601c6024820152600080516020613d1c83398151915260448201526064016108e0565b600082815260fd60205260409020600b015460069060ff16600781111561100657634e487b7160e01b600052602160045260246000fd5b60ff161061101657506001919050565b506000919050565b919050565b600054610100900460ff16158080156110435750600054600160ff909116105b8061105d5750303b15801561105d575060005460ff166001145b6110cf5760405162461bcd60e51b815260206004820152602e60248201527f496e697469616c697a61626c653a20636f6e747261637420697320616c72656160448201527f647920696e697469616c697a656400000000000000000000000000000000000060648201526084016108e0565b6000805460ff1916600117905580156110f2576000805461ff0019166101001790555b6110fa612f5f565b8015611140576000805461ff0019169055604051600181527f7f26b83ff96e1f2b6a682f133852f6798a09c465da95921460cefb38474024989060200160405180910390a15b50565b600081815260ff602081905260408220541615156001146111945760405162461bcd60e51b815260206004820152601c6024820152600080516020613d1c83398151915260448201526064016108e0565b60055b600083815260fd60205260409020600b015460ff918216911660078111156111cf57634e487b7160e01b600052602160045260246000fd5b60ff16141561101657506001919050565b600081815260ff602081905260408220541615156001146112315760405162461bcd60e51b815260206004820152601c6024820152600080516020613d1c83398151915260448201526064016108e0565b50600090815260fd60205260409020600101546001600160a01b031690565b60fe602052816000526040600020818154811061126c57600080fd5b90600052602060002001600091509150505481565b610101602052816000526040600020818154811061126c57600080fd5b600081815260ff602081905260408220541615156001146112ef5760405162461bcd60e51b815260206004820152601c6024820152600080516020613d1c83398151915260448201526064016108e0565b600082815260fd60205260409020600b015460059060ff16600781111561132657634e487b7160e01b600052602160045260246000fd5b60ff16101561139d5760405162461bcd60e51b815260206004820152602b60248201527f4f70706f7274756e697479206d757374206265206163746976652f647261776e60448201527f646f776e2f72657061696400000000000000000000000000000000000000000060648201526084016108e0565b600082815260fd60205260409020600b015461010090046001600160a01b0316806106635760405162461bcd60e51b815260206004820152602c60248201527f4f70706f7274756e69747920706f6f6c206164647265737320686176656e277460448201527f206372656174656420796574000000000000000000000000000000000000000060648201526084016108e0565b600081815260ff602081905260408220541615156001146114815760405162461bcd60e51b815260206004820152601c6024820152600080516020613d1c83398151915260448201526064016108e0565b6007611197565b6114b27f65d7a28e3265b37a6474929f336521b332c1681b933f6cb9f3376673440d862a336104af565b6115135760405162461bcd60e51b815260206004820152602c60248201527f4d75737420686176652070617573657220726f6c6520746f20706572666f726d60448201526b103a3434b99030b1ba34b7b760a11b60648201526084016108e0565b610f7c612fd6565b60606001600160a01b0382166115735760405162461bcd60e51b815260206004820152601860248201527f496e76616c696420426f72726f7765722073646472657373000000000000000060448201526064016108e0565b6001600160a01b038216600090815260fe602090815260408083208054825181850281018501909352808352919290919083018282801561094a5760200282019190600052602060002090815481526020019060010190808311610936575093979650505050505050565b600054610100900460ff166116495760405162461bcd60e51b815260206004820152602b60248201527f496e697469616c697a61626c653a20636f6e7472616374206973206e6f74206960448201526a6e697469616c697a696e6760a81b60648201526084016108e0565b6001600160a01b03811661169f5760405162461bcd60e51b815260206004820181905260248201527f4f776e65722063616e6e6f7420626520746865207a65726f206164647265737360448201526064016108e0565b6116a7613013565b6116af612f5f565b6116b761307e565b6116e17fa49807205ce4d355092ef5a8a18f56e8913cf4a201fbe287825b095693c21775826130f0565b61170b7f65d7a28e3265b37a6474929f336521b332c1681b933f6cb9f3376673440d862a826130f0565b6117557f65d7a28e3265b37a6474929f336521b332c1681b933f6cb9f3376673440d862a7fa49807205ce4d355092ef5a8a18f56e8913cf4a201fbe287825b095693c217756130fa565b6111407fa49807205ce4d355092ef5a8a18f56e8913cf4a201fbe287825b095693c21775806130fa565b600081815260ff60208190526040909120541615156001146117d15760405162461bcd60e51b815260206004820152601c6024820152600080516020613d1c83398151915260448201526064016108e0565b6005600082815260fd60205260409020600b015460ff16600781111561180757634e487b7160e01b600052602160045260246000fd5b146118545760405162461bcd60e51b815260206004820152601e60248201527f4f70706f7274756e69747920706f6f6c206973206e6f7420616374697665000060448201526064016108e0565b600081815260fd60205260409020600b015461010090046001600160a01b031633146118e85760405162461bcd60e51b815260206004820152602d60248201527f4f6e6c79204f70706f7274756e69747920506f6f6c2063616e206d61726b206960448201527f742061732064726177646f776e0000000000000000000000000000000000000060648201526084016108e0565b600081815260fd60205260409020600b015461010090046001600160a01b03166119605760405162461bcd60e51b815260206004820152602360248201527f4f70706f7274756e69747920506f6f6c206973206e6f742063726561746564206044820152621e595d60ea1b60648201526084016108e0565b600081815260fd60205260409020600b0180546006919060ff1916600183610e55565b60606001600160a01b0382166119db5760405162461bcd60e51b815260206004820152601860248201527f696e76616c696420626f72726f7765722061646472657373000000000000000060448201526064016108e0565b6001600160a01b038216600090815260fe602090815260409182902080548351818402810184019094528084529091830182828015611a3957602002820191906000526020600020905b815481526020019060010190808311611a25575b50505050509050919050565b6000611a717fa49807205ce4d355092ef5a8a18f56e8913cf4a201fbe287825b095693c21775336104af565b905090565b600054610100900460ff1615808015611a965750600054600160ff909116105b80611ab05750303b158015611ab0575060005460ff166001145b611b225760405162461bcd60e51b815260206004820152602e60248201527f496e697469616c697a61626c653a20636f6e747261637420697320616c72656160448201527f647920696e697469616c697a656400000000000000000000000000000000000060648201526084016108e0565b6000805460ff191660011790558015611b45576000805461ff0019166101001790555b6001600160a01b038216611b9b5760405162461bcd60e51b815260206004820152601660248201527f496e76616c696420636f6e66696720616464726573730000000000000000000060448201526064016108e0565b60fb805473ffffffffffffffffffffffffffffffffffffffff19166001600160a01b038416908117909155600090611bd290613145565b90506001600160a01b038116611c2a5760405162461bcd60e51b815260206004820152600d60248201527f496e76616c6964204f776e65720000000000000000000000000000000000000060448201526064016108e0565b611c33816115de565b60fb54611c48906001600160a01b03166131c6565b60fc805473ffffffffffffffffffffffffffffffffffffffff19166001600160a01b0392909216919091179055508015610ee5576000805461ff0019169055604051600181527f7f26b83ff96e1f2b6a682f133852f6798a09c465da95921460cefb38474024989060200160405180910390a15050565b600082815260656020526040902060010154611cda81612dde565b610c2a8383612e8a565b600260c9541415611d375760405162461bcd60e51b815260206004820152601f60248201527f5265656e7472616e637947756172643a207265656e7472616e742063616c6c0060448201526064016108e0565b600260c955611d446129b5565b606081015160019081811115611d6a57634e487b7160e01b600052602160045260246000fd5b60ff161115611dbb5760405162461bcd60e51b815260206004820152601760248201527f4c6f616e54797065203a204f7574206f662072616e676500000000000000000060448201526064016108e0565b6000816080015111611e1a5760405162461bcd60e51b815260206004820152602260248201527f4c6f616e20416d6f756e74204d7573742062652067726561746572207468616e604482015261020360f41b60648201526084016108e0565b80516001600160a01b0316611e715760405162461bcd60e51b815260206004820152601860248201527f696e76616c696420626f72726f7765722061646472657373000000000000000060448201526064016108e0565b60008160c0015111611eea5760405162461bcd60e51b8152602060048201526024808201527f4c6f616e20496e746572657374204d757374206265206772656174657220746860448201527f616e20300000000000000000000000000000000000000000000000000000000060648201526084016108e0565b60008160a0015111611f495760405162461bcd60e51b815260206004820152602260248201527f4c6f616e2054656e757265204d7573742062652067726561746572207468616e604482015261020360f41b60648201526084016108e0565b60008160e0015111611fc35760405162461bcd60e51b815260206004820152602860248201527f5061796d656e74204672657175656e6379204d7573742062652067726561746560448201527f72207468616e203000000000000000000000000000000000000000000000000060648201526084016108e0565b6032816020015151111561203f5760405162461bcd60e51b815260206004820152603b60248201527f4c656e677468206f66204f70706f7274756e697479206e616d65206d7573742060448201527f6265206c657373207468616e206f7220657175616c20746f203530000000000060648201526084016108e0565b6000816101000151604051602001612057919061397f565b60408051601f198184030181529181528151602092830120600081815260ff938490529190912054909250161561211c5760405162461bcd60e51b815260206004820152604660248201527f53616d6520636f6c6c61746f72616c20646f63756d656e74206973206265656e60448201527f207573656420746f2063726561746520646966666572656e74206f70706f727460648201527f756e6974792e0000000000000000000000000000000000000000000000000000608482015260a4016108e0565b61212461355f565b81815282516001600160a01b03166020808301919091528301516040808301919091528301516060808301919091528301516080820190600181111561217a57634e487b7160e01b600052602160045260246000fd5b9081600181111561219b57634e487b7160e01b600052602160045260246000fd5b905250608083015160a08281019190915283015160c08083019190915283015160e0808301919091528301516101008083019190915283015161012080830191909152830151610140820152426101a0820152600082815260fd6020908152604091829020835181558184015160018201805473ffffffffffffffffffffffffffffffffffffffff19166001600160a01b039092169190911790559183015180518493926122509260028501929101906135ef565b506060820151805161226c9160038401916020909101906135ef565b50608082015160048201805460ff19166001838181111561229d57634e487b7160e01b600052602160045260246000fd5b021790555060a0820151600582015560c0820151600682015560e08201516007820155610100820151600882015561012082015180516122e79160098401916020909101906135ef565b50610140820151600a820155610160820151600b8201805460ff1916600183600781111561232557634e487b7160e01b600052602160045260246000fd5b0217905550610180820151600b820180547fffffffffffffffffffffff0000000000000000000000000000000000000000ff166101006001600160a01b03938416021790556101a090920151600c909101559251909216600090815260fe602090815260408083208054600181810183559185528385200185905584845260ff9092528220805460ff1916821790556101028054808301825592527f93bdaa6a4190909b7c3fbe8d42169ffe1cab19f51dfc8db24c71abf849eced4a9091019190915560c95550565b6123f6611a45565b6124685760405162461bcd60e51b815260206004820152602b60248201527f4d75737420686176652061646d696e20726f6c6520746f20706572666f726d2060448201527f7468697320616374696f6e00000000000000000000000000000000000000000060648201526084016108e0565b600260c95414156124bb5760405162461bcd60e51b815260206004820152601f60248201527f5265656e7472616e637947756172643a207265656e7472616e742063616c6c0060448201526064016108e0565b600260c9556124c86129b5565b6001600160a01b03811661251e5760405162461bcd60e51b815260206004820152600f60248201527f496e76616c69642041646472657373000000000000000000000000000000000060448201526064016108e0565b600082815260ff60208190526040909120541615156001146125705760405162461bcd60e51b815260206004820152601c6024820152600080516020613d1c83398151915260448201526064016108e0565b600082815260fd60205260408120600b015460ff1660078111156125a457634e487b7160e01b600052602160045260246000fd5b146125f15760405162461bcd60e51b815260206004820152601d60248201527f4f70706f7274756e69747920697320616c7265616479204a756467656400000060448201526064016108e0565b600082815261010060205260408120829101805473ffffffffffffffffffffffffffffffffffffffff19166001600160a01b0392831617905516600090815261010160209081526040822080546001818101835591845291909220019190915560c955565b600081815260ff60208190526040909120546060911615156001146126ab5760405162461bcd60e51b815260206004820152601c6024820152600080516020613d1c83398151915260448201526064016108e0565b600082815260fd6020908152604080832081516101c0810183528154815260018201546001600160a01b03169381019390935260028101805491928401916126f290613c89565b80601f016020809104026020016040519081016040528092919081815260200182805461271e90613c89565b801561276b5780601f106127405761010080835404028352916020019161276b565b820191906000526020600020905b81548152906001019060200180831161274e57829003601f168201915b5050505050815260200160038201805461278490613c89565b80601f01602080910402602001604051908101604052809291908181526020018280546127b090613c89565b80156127fd5780601f106127d2576101008083540402835291602001916127fd565b820191906000526020600020905b8154815290600101906020018083116127e057829003601f168201915b5050509183525050600482015460209091019060ff16600181111561283257634e487b7160e01b600052602160045260246000fd5b600181111561285157634e487b7160e01b600052602160045260246000fd5b81526020016005820154815260200160068201548152602001600782015481526020016008820154815260200160098201805461288d90613c89565b80601f01602080910402602001604051908101604052809291908181526020018280546128b990613c89565b80156129065780601f106128db57610100808354040283529160200191612906565b820191906000526020600020905b8154815290600101906020018083116128e957829003601f168201915b5050509183525050600a8201546020820152600b82015460409091019060ff16600781111561294557634e487b7160e01b600052602160045260246000fd5b600781111561296457634e487b7160e01b600052602160045260246000fd5b8152600b82015461010090046001600160a01b03166020820152600c9091015460409182015201519392505050565b61010281815481106129a457600080fd5b600091825260209091200154905081565b60975460ff1615610f7c5760405162461bcd60e51b815260206004820152601060248201527f5061757361626c653a207061757365640000000000000000000000000000000060448201526064016108e0565b600081815260ff6020819052604090912054161515600114612a5a5760405162461bcd60e51b815260206004820152601c6024820152600080516020613d1c83398151915260448201526064016108e0565b6002600082815260fd60205260409020600b015460ff166007811115612a9057634e487b7160e01b600052602160045260246000fd5b14612add5760405162461bcd60e51b815260206004820152601b60248201527f4f70706f7274756e697479206973206e6f7420617070726f766564000000000060448201526064016108e0565b600081815260fd602052604090819020600b8101805460ff1916600490811790915560fc5492517fd204c45e0000000000000000000000000000000000000000000000000000000081526001600160a01b039093169263d204c45e92612b4b92339260099092019101613a1c565b600060405180830381600087803b158015612b6557600080fd5b505af1158015612b79573d6000803e3d6000fd5b5050505050565b60006004600083815260fd60205260409020600b015460ff166007811115612bb857634e487b7160e01b600052602160045260246000fd5b14612c2b5760405162461bcd60e51b815260206004820152602c60248201527f436f6c6c61746572616c206f6620746865204f70706f7274756e69747920697360448201527f206e6f74206d696e7465642e000000000000000000000000000000000000000060648201526084016108e0565b600082815260ff6020819052604090912054161515600114612c7d5760405162461bcd60e51b815260206004820152601c6024820152600080516020613d1c83398151915260448201526064016108e0565b60fb54600090612c95906001600160a01b03166131de565b9050612ca0816131f6565b60fb54600085815260fd60205260409020805460058201546006830154600784015460088501546004909501549698506001600160a01b03808a169763c4f31a6597909116959060ff166001811115612d0957634e487b7160e01b600052602160045260246000fd5b6040516001600160e01b031960e08a901b1681526001600160a01b039097166004880152602487019590955260448601939093526064850191909152608484015260a483015260ff1660c482015260e401600060405180830381600087803b158015612d7457600080fd5b505af1158015612d88573d6000803e3d6000fd5b5050506000938452505060fd6020526040909120600b0180547fffffffffffffffffffffff0000000000000000000000000000000000000000001660ff196101006001600160a01b038516021617600517905590565b611140813361325f565b60008281526065602090815260408083206001600160a01b038516845290915290205460ff16610ee55760008281526065602090815260408083206001600160a01b03851684529091529020805460ff19166001179055612e463390565b6001600160a01b0316816001600160a01b0316837f2f8788117e7eff1d82e926ec794901d17c78024a50270940304540a733656f0d60405160405180910390a45050565b60008281526065602090815260408083206001600160a01b038516845290915290205460ff1615610ee55760008281526065602090815260408083206001600160a01b0385168085529252808320805460ff1916905551339285917ff6391f5c32d9c69d2a47ea670b442974b53935d1edc7fd64eb21e047a839171b9190a45050565b612f156132df565b6097805460ff191690557f5db9ee0a495bf2e6ff9c91a7834c1ba4fdd244a5e8aa4e537bd38aeae4b073aa335b6040516001600160a01b03909116815260200160405180910390a1565b600054610100900460ff16612fca5760405162461bcd60e51b815260206004820152602b60248201527f496e697469616c697a61626c653a20636f6e7472616374206973206e6f74206960448201526a6e697469616c697a696e6760a81b60648201526084016108e0565b6097805460ff19169055565b612fde6129b5565b6097805460ff191660011790557f62e78cea01bee320cd4e420270b5ea74000d11b0c9f74754ebdbfc544b05a258612f423390565b600054610100900460ff16610f7c5760405162461bcd60e51b815260206004820152602b60248201527f496e697469616c697a61626c653a20636f6e7472616374206973206e6f74206960448201526a6e697469616c697a696e6760a81b60648201526084016108e0565b600054610100900460ff166130e95760405162461bcd60e51b815260206004820152602b60248201527f496e697469616c697a61626c653a20636f6e7472616374206973206e6f74206960448201526a6e697469616c697a696e6760a81b60648201526084016108e0565b600160c955565b610ee58282612de8565b600082815260656020526040808220600101805490849055905190918391839186917fbd79b86ffe0ab8e8776151514217cd7cacd52c909f66475c3af44e129f0b00ff9190a4505050565b60006001600160a01b03821663b93f9b0a825b6040518263ffffffff1660e01b815260040161317691815260200190565b60206040518083038186803b15801561318e57600080fd5b505afa1580156131a2573d6000803e3d6000fd5b505050506040513d601f19601f820116820180604052508101906106639190613745565b60006001600160a01b03821663b93f9b0a6005613158565b60006001600160a01b03821663b93f9b0a6004613158565b6000808260601b90506040517f3d602d80600a3d3981f3363d3d373d3d3d363d7300000000000000000000000081528160148201527f5af43d82803e903d91602b57fd5bf3000000000000000000000000000000000060288201526037816000f0949350505050565b60008281526065602090815260408083206001600160a01b038516845290915290205460ff16610ee55761329d816001600160a01b03166014613331565b6132a8836020613331565b6040516020016132b992919061399b565b60408051601f198184030181529082905262461bcd60e51b82526108e091600401613bce565b60975460ff16610f7c5760405162461bcd60e51b815260206004820152601460248201527f5061757361626c653a206e6f742070617573656400000000000000000000000060448201526064016108e0565b60606000613340836002613c23565b61334b906002613c0b565b67ffffffffffffffff81111561337157634e487b7160e01b600052604160045260246000fd5b6040519080825280601f01601f19166020018201604052801561339b576020820181803683370190505b5090507f3000000000000000000000000000000000000000000000000000000000000000816000815181106133e057634e487b7160e01b600052603260045260246000fd5b60200101906001600160f81b031916908160001a9053507f78000000000000000000000000000000000000000000000000000000000000008160018151811061343957634e487b7160e01b600052603260045260246000fd5b60200101906001600160f81b031916908160001a905350600061345d846002613c23565b613468906001613c0b565b90505b6001811115613509577f303132333435363738396162636465660000000000000000000000000000000085600f16601081106134b757634e487b7160e01b600052603260045260246000fd5b1a60f81b8282815181106134db57634e487b7160e01b600052603260045260246000fd5b60200101906001600160f81b031916908160001a90535060049490941c9361350281613c72565b905061346b565b5083156135585760405162461bcd60e51b815260206004820181905260248201527f537472696e67733a20686578206c656e67746820696e73756666696369656e7460448201526064016108e0565b9392505050565b604080516101c0810182526000808252602082018190526060928201839052828201929092529060808201908152602001600081526020016000815260200160008152602001600081526020016060815260200160008152602001600060078111156135db57634e487b7160e01b600052602160045260246000fd5b815260006020820181905260409091015290565b8280546135fb90613c89565b90600052602060002090601f01602090048101928261361d5760008555613663565b82601f1061363657805160ff1916838001178555613663565b82800160010185558215613663579182015b82811115613663578251825591602001919060010190613648565b5061366f929150613673565b5090565b5b8082111561366f5760008155600101613674565b803561101e81613d06565b80356002811061101e57600080fd5b600082601f8301126136b2578081fd5b813567ffffffffffffffff808211156136cd576136cd613cf0565b604051601f8301601f19908116603f011681019082821181831017156136f5576136f5613cf0565b8160405283815286602085880101111561370d578485fd5b8360208701602083013792830160200193909352509392505050565b60006020828403121561373a578081fd5b813561355881613d06565b600060208284031215613756578081fd5b815161355881613d06565b60008060408385031215613773578081fd5b823561377e81613d06565b946020939093013593505050565b60006020828403121561379d578081fd5b5035919050565b600080604083850312156137b6578182fd5b8235915060208301356137c881613d06565b809150509250929050565b600080604083850312156137e5578182fd5b82359150602083013560ff811681146137c8578182fd5b60006020828403121561380d578081fd5b81356001600160e01b031981168114613558578182fd5b600060208284031215613835578081fd5b813567ffffffffffffffff8082111561384c578283fd5b908301906101408286031215613860578283fd5b613868613be1565b61387183613688565b8152602083013582811115613884578485fd5b613890878286016136a2565b6020830152506040830135828111156138a7578485fd5b6138b3878286016136a2565b6040830152506138c560608401613693565b60608201526080830135608082015260a083013560a082015260c083013560c082015260e083013560e08201526101008084013583811115613905578586fd5b613911888287016136a2565b91830191909152506101209283013592810192909252509392505050565b6002811061393f5761393f613cda565b9052565b6008811061393f5761393f613cda565b6000815180845261396b816020860160208601613c42565b601f01601f19169290920160200192915050565b60008251613991818460208701613c42565b9190910192915050565b7f416363657373436f6e74726f6c3a206163636f756e74200000000000000000008152600083516139d3816017850160208801613c42565b7f206973206d697373696e6720726f6c65200000000000000000000000000000006017918401918201528351613a10816028840160208801613c42565b01602801949350505050565b6001600160a01b03831681526000602060408184015281845483600182811c915080831680613a4c57607f831692505b858310811415613a6a57634e487b7160e01b87526022600452602487fd5b6040880183905260608801818015613a895760018114613a9a57613ac4565b60ff19861682528782019650613ac4565b60008b815260209020895b86811015613abe57815484820152908501908901613aa5565b83019750505b50949a9950505050505050505050565b6020808252825182820181905260009190848201906040850190845b81811015613b0c57835183529284019291840191600101613af0565b50909695505050505050565b8e81526001600160a01b038e1660208201526101c060408201526000613b426101c083018f613953565b8281036060840152613b54818f613953565b9050613b63608084018e61392f565b8b60a08401528a60c08401528960e084015288610100840152828103610120840152613b8f8189613953565b91505085610140830152613ba7610160830186613943565b6001600160a01b03939093166101808201526101a001529c9b505050505050505050505050565b6020815260006135586020830184613953565b604051610140810167ffffffffffffffff81118282101715613c0557613c05613cf0565b60405290565b60008219821115613c1e57613c1e613cc4565b500190565b6000816000190483118215151615613c3d57613c3d613cc4565b500290565b60005b83811015613c5d578181015183820152602001613c45565b83811115613c6c576000848401525b50505050565b600081613c8157613c81613cc4565b506000190190565b600181811c90821680613c9d57607f821691505b60208210811415613cbe57634e487b7160e01b600052602260045260246000fd5b50919050565b634e487b7160e01b600052601160045260246000fd5b634e487b7160e01b600052602160045260246000fd5b634e487b7160e01b600052604160045260246000fd5b6001600160a01b038116811461114057600080fdfe4f70706f7274756e69747920494420646f65736e277420657869737400000000a2646970667358221220b5d090821cf87cea43e795513156d40bb9980ba89266226575f38649875bce9764736f6c63430008040033",
  "linkReferences": {},
  "deployedLinkReferences": {}
}