{
  "_format": "hh-sol-artifact-1",
  "contractName": "OpportunityOrigination",
  "sourceName": "contracts/protocol/OpportunityOrigination.sol",
  "abi": [
    {
      "anonymous": false,
      "inputs": [
        {
          "indexed": false,
          "internalType": "address",
          "name": "previousAdmin",
          "type": "address"
        },
        {
          "indexed": false,
          "internalType": "address",
          "name": "newAdmin",
          "type": "address"
        }
      ],
      "name": "AdminChanged",
      "type": "event"
    },
    {
      "anonymous": false,
      "inputs": [
        {
          "indexed": true,
          "internalType": "address",
          "name": "beacon",
          "type": "address"
        }
      ],
      "name": "BeaconUpgraded",
      "type": "event"
    },
    {
      "anonymous": false,
      "inputs": [
        {
          "indexed": false,
          "internalType": "uint8",
          "name": "version",
          "type": "uint8"
        }
      ],
      "name": "Initialized",
      "type": "event"
    },
    {
      "anonymous": false,
      "inputs": [
        {
          "indexed": false,
          "internalType": "address",
          "name": "account",
          "type": "address"
        }
      ],
      "name": "Paused",
      "type": "event"
    },
    {
      "anonymous": false,
      "inputs": [
        {
          "indexed": true,
          "internalType": "bytes32",
          "name": "role",
          "type": "bytes32"
        },
        {
          "indexed": true,
          "internalType": "bytes32",
          "name": "previousAdminRole",
          "type": "bytes32"
        },
        {
          "indexed": true,
          "internalType": "bytes32",
          "name": "newAdminRole",
          "type": "bytes32"
        }
      ],
      "name": "RoleAdminChanged",
      "type": "event"
    },
    {
      "anonymous": false,
      "inputs": [
        {
          "indexed": true,
          "internalType": "bytes32",
          "name": "role",
          "type": "bytes32"
        },
        {
          "indexed": true,
          "internalType": "address",
          "name": "account",
          "type": "address"
        },
        {
          "indexed": true,
          "internalType": "address",
          "name": "sender",
          "type": "address"
        }
      ],
      "name": "RoleGranted",
      "type": "event"
    },
    {
      "anonymous": false,
      "inputs": [
        {
          "indexed": true,
          "internalType": "bytes32",
          "name": "role",
          "type": "bytes32"
        },
        {
          "indexed": true,
          "internalType": "address",
          "name": "account",
          "type": "address"
        },
        {
          "indexed": true,
          "internalType": "address",
          "name": "sender",
          "type": "address"
        }
      ],
      "name": "RoleRevoked",
      "type": "event"
    },
    {
      "anonymous": false,
      "inputs": [
        {
          "indexed": false,
          "internalType": "address",
          "name": "account",
          "type": "address"
        }
      ],
      "name": "Unpaused",
      "type": "event"
    },
    {
      "anonymous": false,
      "inputs": [
        {
          "indexed": true,
          "internalType": "address",
          "name": "implementation",
          "type": "address"
        }
      ],
      "name": "Upgraded",
      "type": "event"
    },
    {
      "inputs": [],
      "name": "DEFAULT_ADMIN_ROLE",
      "outputs": [
        {
          "internalType": "bytes32",
          "name": "",
          "type": "bytes32"
        }
      ],
      "stateMutability": "view",
      "type": "function"
    },
    {
      "inputs": [
        {
          "internalType": "address",
          "name": "owner",
          "type": "address"
        }
      ],
      "name": "_BaseUpgradeablePausable_init",
      "outputs": [],
      "stateMutability": "nonpayable",
      "type": "function"
    },
    {
      "inputs": [],
      "name": "__PauserPausable__init",
      "outputs": [],
      "stateMutability": "nonpayable",
      "type": "function"
    },
    {
      "inputs": [
        {
          "internalType": "bytes32",
          "name": "_opportunityId",
          "type": "bytes32"
        },
        {
          "internalType": "address",
          "name": "_underwriter",
          "type": "address"
        }
      ],
      "name": "assignUnderwriters",
      "outputs": [],
      "stateMutability": "nonpayable",
      "type": "function"
    },
    {
      "inputs": [],
      "name": "collateralToken",
      "outputs": [
        {
          "internalType": "contract CollateralToken",
          "name": "",
          "type": "address"
        }
      ],
      "stateMutability": "view",
      "type": "function"
    },
    {
      "inputs": [
        {
          "components": [
            {
              "internalType": "address",
              "name": "borrower",
              "type": "address"
            },
            {
              "internalType": "string",
              "name": "opportunityName",
              "type": "string"
            },
            {
              "internalType": "string",
              "name": "opportunityInfo",
              "type": "string"
            },
            {
              "internalType": "enum IOpportunityOrigination.LoanType",
              "name": "loanType",
              "type": "uint8"
            },
            {
              "internalType": "uint256",
              "name": "loanAmount",
              "type": "uint256"
            },
            {
              "internalType": "uint256",
              "name": "loanTenureInDays",
              "type": "uint256"
            },
            {
              "internalType": "uint256",
              "name": "loanInterest",
              "type": "uint256"
            },
            {
              "internalType": "uint256",
              "name": "paymentFrequencyInDays",
              "type": "uint256"
            },
            {
              "internalType": "string",
              "name": "collateralDocument",
              "type": "string"
            },
            {
              "internalType": "uint256",
              "name": "capitalLoss",
              "type": "uint256"
            }
          ],
          "internalType": "struct IOpportunityOrigination.CreateOpportunity",
          "name": "_opportunityData",
          "type": "tuple"
        }
      ],
      "name": "createOpportunity",
      "outputs": [],
      "stateMutability": "nonpayable",
      "type": "function"
    },
    {
      "inputs": [],
      "name": "dygnifyConfig",
      "outputs": [
        {
          "internalType": "contract DygnifyConfig",
          "name": "",
          "type": "address"
        }
      ],
      "stateMutability": "view",
      "type": "function"
    },
    {
      "inputs": [
        {
          "internalType": "address",
          "name": "borrower",
          "type": "address"
        }
      ],
      "name": "getAlltheOpportunitiesOf",
      "outputs": [
        {
          "internalType": "bytes32[]",
          "name": "",
          "type": "bytes32[]"
        }
      ],
      "stateMutability": "view",
      "type": "function"
    },
    {
      "inputs": [
        {
          "internalType": "bytes32",
          "name": "id",
          "type": "bytes32"
        }
      ],
      "name": "getBorrower",
      "outputs": [
        {
          "internalType": "address",
          "name": "",
          "type": "address"
        }
      ],
      "stateMutability": "view",
      "type": "function"
    },
    {
      "inputs": [
        {
          "internalType": "bytes32",
          "name": "_opportunityId",
          "type": "bytes32"
        }
      ],
      "name": "getOpportunityNameOf",
      "outputs": [
        {
          "internalType": "string",
          "name": "",
          "type": "string"
        }
      ],
      "stateMutability": "view",
      "type": "function"
    },
    {
      "inputs": [
        {
          "internalType": "address",
          "name": "_borrower",
          "type": "address"
        }
      ],
      "name": "getOpportunityOf",
      "outputs": [
        {
          "internalType": "bytes32[]",
          "name": "",
          "type": "bytes32[]"
        }
      ],
      "stateMutability": "view",
      "type": "function"
    },
    {
      "inputs": [
        {
          "internalType": "bytes32",
          "name": "id",
          "type": "bytes32"
        }
      ],
      "name": "getOpportunityPoolAddress",
      "outputs": [
        {
          "internalType": "address",
          "name": "",
          "type": "address"
        }
      ],
      "stateMutability": "view",
      "type": "function"
    },
    {
      "inputs": [
        {
          "internalType": "bytes32",
          "name": "role",
          "type": "bytes32"
        }
      ],
      "name": "getRoleAdmin",
      "outputs": [
        {
          "internalType": "bytes32",
          "name": "",
          "type": "bytes32"
        }
      ],
      "stateMutability": "view",
      "type": "function"
    },
    {
      "inputs": [],
      "name": "getTotalOpportunities",
      "outputs": [
        {
          "internalType": "uint256",
          "name": "",
          "type": "uint256"
        }
      ],
      "stateMutability": "view",
      "type": "function"
    },
    {
      "inputs": [
        {
          "internalType": "address",
          "name": "_underwriter",
          "type": "address"
        }
      ],
      "name": "getUnderWritersOpportunities",
      "outputs": [
        {
          "internalType": "bytes32[]",
          "name": "",
          "type": "bytes32[]"
        }
      ],
      "stateMutability": "view",
      "type": "function"
    },
    {
      "inputs": [
        {
          "internalType": "bytes32",
          "name": "role",
          "type": "bytes32"
        },
        {
          "internalType": "address",
          "name": "account",
          "type": "address"
        }
      ],
      "name": "grantRole",
      "outputs": [],
      "stateMutability": "nonpayable",
      "type": "function"
    },
    {
      "inputs": [
        {
          "internalType": "bytes32",
          "name": "role",
          "type": "bytes32"
        },
        {
          "internalType": "address",
          "name": "account",
          "type": "address"
        }
      ],
      "name": "hasRole",
      "outputs": [
        {
          "internalType": "bool",
          "name": "",
          "type": "bool"
        }
      ],
      "stateMutability": "view",
      "type": "function"
    },
    {
      "inputs": [
        {
          "internalType": "contract DygnifyConfig",
          "name": "config",
          "type": "address"
        }
      ],
      "name": "initialize",
      "outputs": [],
      "stateMutability": "nonpayable",
      "type": "function"
    },
    {
      "inputs": [
        {
          "internalType": "bytes32",
          "name": "id",
          "type": "bytes32"
        }
      ],
      "name": "isActive",
      "outputs": [
        {
          "internalType": "bool",
          "name": "",
          "type": "bool"
        }
      ],
      "stateMutability": "view",
      "type": "function"
    },
    {
      "inputs": [],
      "name": "isAdmin",
      "outputs": [
        {
          "internalType": "bool",
          "name": "",
          "type": "bool"
        }
      ],
      "stateMutability": "view",
      "type": "function"
    },
    {
      "inputs": [
        {
          "internalType": "bytes32",
          "name": "id",
          "type": "bytes32"
        }
      ],
      "name": "isDrawdown",
      "outputs": [
        {
          "internalType": "bool",
          "name": "",
          "type": "bool"
        }
      ],
      "stateMutability": "view",
      "type": "function"
    },
    {
      "inputs": [
        {
          "internalType": "bytes32",
          "name": "",
          "type": "bytes32"
        }
      ],
      "name": "isOpportunity",
      "outputs": [
        {
          "internalType": "bool",
          "name": "",
          "type": "bool"
        }
      ],
      "stateMutability": "view",
      "type": "function"
    },
    {
      "inputs": [
        {
          "internalType": "bytes32",
          "name": "id",
          "type": "bytes32"
        }
      ],
      "name": "isRepaid",
      "outputs": [
        {
          "internalType": "bool",
          "name": "",
          "type": "bool"
        }
      ],
      "stateMutability": "view",
      "type": "function"
    },
    {
      "inputs": [
        {
          "internalType": "bytes32",
          "name": "id",
          "type": "bytes32"
        }
      ],
      "name": "isWriteOff",
      "outputs": [
        {
          "internalType": "bool",
          "name": "",
          "type": "bool"
        }
      ],
      "stateMutability": "view",
      "type": "function"
    },
    {
      "inputs": [
        {
          "internalType": "bytes32",
          "name": "id",
          "type": "bytes32"
        }
      ],
      "name": "markDrawDown",
      "outputs": [],
      "stateMutability": "nonpayable",
      "type": "function"
    },
    {
      "inputs": [
        {
          "internalType": "bytes32",
          "name": "id",
          "type": "bytes32"
        }
      ],
      "name": "markRepaid",
      "outputs": [],
      "stateMutability": "nonpayable",
      "type": "function"
    },
    {
      "inputs": [
        {
          "internalType": "bytes32",
          "name": "id",
          "type": "bytes32"
        },
        {
          "internalType": "address",
          "name": "_pool",
          "type": "address"
        }
      ],
      "name": "markWriteOff",
      "outputs": [],
      "stateMutability": "nonpayable",
      "type": "function"
    },
    {
      "inputs": [
        {
          "internalType": "uint256",
          "name": "",
          "type": "uint256"
        }
      ],
      "name": "opportunityIds",
      "outputs": [
        {
          "internalType": "bytes32",
          "name": "",
          "type": "bytes32"
        }
      ],
      "stateMutability": "view",
      "type": "function"
    },
    {
      "inputs": [
        {
          "internalType": "address",
          "name": "",
          "type": "address"
        },
        {
          "internalType": "uint256",
          "name": "",
          "type": "uint256"
        }
      ],
      "name": "opportunityOf",
      "outputs": [
        {
          "internalType": "bytes32",
          "name": "",
          "type": "bytes32"
        }
      ],
      "stateMutability": "view",
      "type": "function"
    },
    {
      "inputs": [
        {
          "internalType": "bytes32",
          "name": "",
          "type": "bytes32"
        }
      ],
      "name": "opportunityToId",
      "outputs": [
        {
          "internalType": "bytes32",
          "name": "opportunityID",
          "type": "bytes32"
        },
        {
          "internalType": "address",
          "name": "borrower",
          "type": "address"
        },
        {
          "internalType": "string",
          "name": "opportunityName",
          "type": "string"
        },
        {
          "internalType": "string",
          "name": "opportunityInfo",
          "type": "string"
        },
        {
          "internalType": "enum IOpportunityOrigination.LoanType",
          "name": "loanType",
          "type": "uint8"
        },
        {
          "internalType": "uint256",
          "name": "loanAmount",
          "type": "uint256"
        },
        {
          "internalType": "uint256",
          "name": "loanTenureInDays",
          "type": "uint256"
        },
        {
          "internalType": "uint256",
          "name": "loanInterest",
          "type": "uint256"
        },
        {
          "internalType": "uint256",
          "name": "paymentFrequencyInDays",
          "type": "uint256"
        },
        {
          "internalType": "string",
          "name": "collateralDocument",
          "type": "string"
        },
        {
          "internalType": "uint256",
          "name": "capitalLoss",
          "type": "uint256"
        },
        {
          "internalType": "enum IOpportunityOrigination.OpportunityStatus",
          "name": "opportunityStatus",
          "type": "uint8"
        },
        {
          "internalType": "address",
          "name": "opportunityPoolAddress",
          "type": "address"
        },
        {
          "internalType": "uint256",
          "name": "createdOn",
          "type": "uint256"
        }
      ],
      "stateMutability": "view",
      "type": "function"
    },
    {
      "inputs": [],
      "name": "pause",
      "outputs": [],
      "stateMutability": "nonpayable",
      "type": "function"
    },
    {
      "inputs": [],
      "name": "paused",
      "outputs": [
        {
          "internalType": "bool",
          "name": "",
          "type": "bool"
        }
      ],
      "stateMutability": "view",
      "type": "function"
    },
    {
      "inputs": [],
      "name": "proxiableUUID",
      "outputs": [
        {
          "internalType": "bytes32",
          "name": "",
          "type": "bytes32"
        }
      ],
      "stateMutability": "view",
      "type": "function"
    },
    {
      "inputs": [
        {
          "internalType": "bytes32",
          "name": "role",
          "type": "bytes32"
        },
        {
          "internalType": "address",
          "name": "account",
          "type": "address"
        }
      ],
      "name": "renounceRole",
      "outputs": [],
      "stateMutability": "nonpayable",
      "type": "function"
    },
    {
      "inputs": [
        {
          "internalType": "bytes32",
          "name": "role",
          "type": "bytes32"
        },
        {
          "internalType": "address",
          "name": "account",
          "type": "address"
        }
      ],
      "name": "revokeRole",
      "outputs": [],
      "stateMutability": "nonpayable",
      "type": "function"
    },
    {
      "inputs": [
        {
          "internalType": "bytes4",
          "name": "interfaceId",
          "type": "bytes4"
        }
      ],
      "name": "supportsInterface",
      "outputs": [
        {
          "internalType": "bool",
          "name": "",
          "type": "bool"
        }
      ],
      "stateMutability": "view",
      "type": "function"
    },
    {
      "inputs": [
        {
          "internalType": "address",
          "name": "",
          "type": "address"
        },
        {
          "internalType": "uint256",
          "name": "",
          "type": "uint256"
        }
      ],
      "name": "underwriterToOpportunity",
      "outputs": [
        {
          "internalType": "bytes32",
          "name": "",
          "type": "bytes32"
        }
      ],
      "stateMutability": "view",
      "type": "function"
    },
    {
      "inputs": [],
      "name": "unpause",
      "outputs": [],
      "stateMutability": "nonpayable",
      "type": "function"
    },
    {
      "inputs": [
        {
          "internalType": "address",
          "name": "newImplementation",
          "type": "address"
        }
      ],
      "name": "upgradeTo",
      "outputs": [],
      "stateMutability": "nonpayable",
      "type": "function"
    },
    {
      "inputs": [
        {
          "internalType": "address",
          "name": "newImplementation",
          "type": "address"
        },
        {
          "internalType": "bytes",
          "name": "data",
          "type": "bytes"
        }
      ],
      "name": "upgradeToAndCall",
      "outputs": [],
      "stateMutability": "payable",
      "type": "function"
    },
    {
      "inputs": [
        {
          "internalType": "bytes32",
          "name": "_opportunityId",
          "type": "bytes32"
        },
        {
          "internalType": "uint8",
          "name": "_status",
          "type": "uint8"
        }
      ],
      "name": "voteOpportunity",
      "outputs": [],
      "stateMutability": "nonpayable",
      "type": "function"
    },
    {
      "inputs": [
        {
          "internalType": "bytes32",
          "name": "",
          "type": "bytes32"
        }
      ],
      "name": "writeOffDaysOf",
      "outputs": [
        {
          "internalType": "uint256",
          "name": "",
          "type": "uint256"
        }
      ],
      "stateMutability": "view",
      "type": "function"
    }
  ],
  "bytecode": "0x60a06040523060601b60805234801561001757600080fd5b5060805160601c61430c61005260003960008181610f8801528181610fc801528181611116015281816111560152611297015261430c6000f3fe6080604052600436106102515760003560e01c8063728c3ea211610139578063af7ea944116100b6578063d547741f1161007a578063d547741f146106f9578063e0bb77e314610719578063e2f372241461074a578063e87ec15f1461076a578063f00474a61461078a578063f1bae27d146107b757600080fd5b8063af7ea94414610663578063b2016bd414610683578063b369be54146106a4578063b6db75a0146106c4578063c4d66de8146106d957600080fd5b80638456cb59116100fd5780638456cb59146105d957806389eb01fc146105ee57806391d148541461060e578063a12dde4d1461062e578063a217fddf1461064e57600080fd5b8063728c3ea2146105395780637921c67d146105595780637a8f5560146105795780637e4dc6d51461059957806381767155146105b957600080fd5b80633f4ba83a116101d257806352d1902d1161019657806352d1902d1461047e5780635c36901c146104935780635c975abb146104b35780636815322c146104cb5780636dc305f9146104eb578063718df38c1461050b57600080fd5b80633f4ba83a1461040b5780634622abe014610420578063486caf7c146104405780634f1ef28614610456578063526d81f61461046957600080fd5b80632885f8b9116102195780632885f8b9146103695780632f2ff15d1461038b578063332f1486146103ab57806336568abe146103cb5780633659cfe6146103eb57600080fd5b806301ffc9a7146102565780630bca245a1461028b5780631633f5a3146102c55780631be95459146102f2578063248a9ca31461032b575b600080fd5b34801561026257600080fd5b50610276610271366004613a93565b6107d7565b60405190151581526020015b60405180910390f35b34801561029757600080fd5b506102ab6102a6366004613a0b565b61080e565b6040516102829e9d9c9b9a99989796959493929190613d9c565b3480156102d157600080fd5b506102e56102e0366004613947565b610a32565b6040516102829190613d58565b3480156102fe57600080fd5b5061015f54610313906001600160a01b031681565b6040516001600160a01b039091168152602001610282565b34801561033757600080fd5b5061035b610346366004613a0b565b60009081526065602052604090206001015490565b604051908152602001610282565b34801561037557600080fd5b50610389610384366004613a6a565b610afd565b005b34801561039757600080fd5b506103896103a6366004613a3b565b610cfc565b3480156103b757600080fd5b506103896103c6366004613a0b565b610d26565b3480156103d757600080fd5b506103896103e6366004613a3b565b610f03565b3480156103f757600080fd5b50610389610406366004613947565b610f7d565b34801561041757600080fd5b50610389611046565b34801561042c57600080fd5b5061027661043b366004613a0b565b61107d565b34801561044c57600080fd5b506101675461035b565b61038961046436600461397f565b61110b565b34801561047557600080fd5b506103896111c1565b34801561048a57600080fd5b5061035b61128a565b34801561049f57600080fd5b506102766104ae366004613a0b565b611338565b3480156104bf57600080fd5b5060975460ff16610276565b3480156104d757600080fd5b506102766104e6366004613a0b565b611373565b3480156104f757600080fd5b50610389610506366004613a3b565b6113ae565b34801561051757600080fd5b5061035b610526366004613a0b565b6101666020526000908152604090205481565b34801561054557600080fd5b50610313610554366004613a0b565b611534565b34801561056557600080fd5b5061035b6105743660046139e0565b611588565b34801561058557600080fd5b5061035b6105943660046139e0565b6115ba565b3480156105a557600080fd5b506103136105b4366004613a0b565b6115d7565b3480156105c557600080fd5b506102766105d4366004613a0b565b61172b565b3480156105e557600080fd5b50610389611766565b3480156105fa57600080fd5b506102e5610609366004613947565b611795565b34801561061a57600080fd5b50610276610629366004613a3b565b611854565b34801561063a57600080fd5b50610389610649366004613947565b61187f565b34801561065a57600080fd5b5061035b600081565b34801561066f57600080fd5b5061038961067e366004613a0b565b611953565b34801561068f57600080fd5b5061016054610313906001600160a01b031681565b3480156106b057600080fd5b506102e56106bf366004613947565b611b2d565b3480156106d057600080fd5b50610276611bc0565b3480156106e557600080fd5b506103896106f4366004613947565b611bd2565b34801561070557600080fd5b50610389610714366004613a3b565b611d97565b34801561072557600080fd5b50610276610734366004613a0b565b6101636020526000908152604090205460ff1681565b34801561075657600080fd5b50610389610765366004613abb565b611dbc565b34801561077657600080fd5b50610389610785366004613a3b565b61243d565b34801561079657600080fd5b506107aa6107a5366004613a0b565b612591565b6040516102829190613e52565b3480156107c357600080fd5b5061035b6107d2366004613a0b565b6128b1565b60006001600160e01b03198216637965db0b60e01b148061080857506301ffc9a760e01b6001600160e01b03198316145b92915050565b6101616020526000908152604090208054600182015460028301805492936001600160a01b0390921692610841906141fd565b80601f016020809104026020016040519081016040528092919081815260200182805461086d906141fd565b80156108ba5780601f1061088f576101008083540402835291602001916108ba565b820191906000526020600020905b81548152906001019060200180831161089d57829003601f168201915b5050505050908060030180546108cf906141fd565b80601f01602080910402602001604051908101604052809291908181526020018280546108fb906141fd565b80156109485780601f1061091d57610100808354040283529160200191610948565b820191906000526020600020905b81548152906001019060200180831161092b57829003601f168201915b5050505050908060040160009054906101000a900460ff1690806005015490806006015490806007015490806008015490806009018054610988906141fd565b80601f01602080910402602001604051908101604052809291908181526020018280546109b4906141fd565b8015610a015780601f106109d657610100808354040283529160200191610a01565b820191906000526020600020905b8154815290600101906020018083116109e457829003601f168201915b50505050600a830154600b840154600c909401549293909260ff821692506101009091046001600160a01b0316908e565b60606001600160a01b038216610a8f5760405162461bcd60e51b815260206004820152601b60248201527f496e76616c696420756e6465727772697465722073646472657373000000000060448201526064015b60405180910390fd5b6001600160a01b03821660009081526101656020908152604080832080548251818502810185019093528083529192909190830182828015610af057602002820191906000526020600020905b815481526020019060010190808311610adc575b5093979650505050505050565b610b056128d3565b610b0d61292d565b600082815261016460205260409020546001600160a01b03163314610b8a5760405162461bcd60e51b815260206004820152602d60248201527f596f7520617265206e6f7420616e206175646969746f7220666f72207468697360448201526c1027b83837b93a3ab734ba3c9760991b6064820152608401610a86565b6000828152610163602052604090205460ff161515600114610bbe5760405162461bcd60e51b8152600401610a8690613e65565b600160ff821610801590610bd65750600360ff821611155b610c1a5760405162461bcd60e51b8152602060048201526015602482015274537461747573203a206f7574206f662072616e676560581b6044820152606401610a86565b600082815261016160205260408120600b015460ff166008811115610c4f57634e487b7160e01b600052602160045260246000fd5b14610c6c5760405162461bcd60e51b8152600401610a8690613f66565b8060ff166008811115610c8f57634e487b7160e01b600052602160045260246000fd5b600083815261016160205260409020600b01805460ff19166001836008811115610cc957634e487b7160e01b600052602160045260246000fd5b021790555060ff811660021415610cee57610ce382612973565b610cec82612a82565b505b610cf8600160c955565b5050565b600082815260656020526040902060010154610d1781612ca5565b610d218383612caf565b505050565b6000818152610163602052604090205460ff161515600114610d5a5760405162461bcd60e51b8152600401610a8690613e65565b6006600082815261016160205260409020600b015460ff166008811115610d9157634e487b7160e01b600052602160045260246000fd5b14610dae5760405162461bcd60e51b8152600401610a86906140c5565b600081815261016160205260409020600b015461010090046001600160a01b03163314610e315760405162461bcd60e51b815260206004820152602b60248201527f4f6e6c79204f70706f7274756e69747920506f6f6c2063616e206d61726b206960448201526a1d08185cc81c995c185a5960aa1b6064820152608401610a86565b600081815261016160205260409020600b015461010090046001600160a01b0316610e6e5760405162461bcd60e51b8152600401610a8690614037565b600081815261016160205260409020600b01805460ff1916600817905561015f54610ea1906001600160a01b0316612d35565b6001600160a01b0316632d37a3d2826040518263ffffffff1660e01b8152600401610ece91815260200190565b600060405180830381600087803b158015610ee857600080fd5b505af1158015610efc573d6000803e3d6000fd5b5050505050565b6001600160a01b0381163314610f735760405162461bcd60e51b815260206004820152602f60248201527f416363657373436f6e74726f6c3a2063616e206f6e6c792072656e6f756e636560448201526e103937b632b9903337b91039b2b63360891b6064820152608401610a86565b610cf88282612db7565b306001600160a01b037f0000000000000000000000000000000000000000000000000000000000000000161415610fc65760405162461bcd60e51b8152600401610a8690613f1a565b7f00000000000000000000000000000000000000000000000000000000000000006001600160a01b0316610ff8612e1e565b6001600160a01b03161461101e5760405162461bcd60e51b8152600401610a8690613f9d565b61102781612e3a565b6040805160008082526020820190925261104391839190612e5e565b50565b611057611051612fd8565b33611854565b6110735760405162461bcd60e51b8152600401610a8690613ece565b61107b612ffc565b565b6000818152610163602052604081205460ff1615156001146110b15760405162461bcd60e51b8152600401610a8690613e65565b60065b600083815261016160205260409020600b015460ff918216911660088111156110ed57634e487b7160e01b600052602160045260246000fd5b60ff1614156110fe57506001919050565b506000919050565b919050565b306001600160a01b037f00000000000000000000000000000000000000000000000000000000000000001614156111545760405162461bcd60e51b8152600401610a8690613f1a565b7f00000000000000000000000000000000000000000000000000000000000000006001600160a01b0316611186612e1e565b6001600160a01b0316146111ac5760405162461bcd60e51b8152600401610a8690613f9d565b6111b582612e3a565b610cf882826001612e5e565b600054610100900460ff16158080156111e15750600054600160ff909116105b806111fb5750303b1580156111fb575060005460ff166001145b6112175760405162461bcd60e51b8152600401610a8690613fe9565b6000805460ff19166001179055801561123a576000805461ff0019166101001790555b61124261304e565b8015611043576000805461ff0019169055604051600181527f7f26b83ff96e1f2b6a682f133852f6798a09c465da95921460cefb38474024989060200160405180910390a150565b6000306001600160a01b037f000000000000000000000000000000000000000000000000000000000000000016146113255760405162461bcd60e51b815260206004820152603860248201527f555550535570677261646561626c653a206d757374206e6f742062652063616c6044820152771b1959081d1a1c9bdd59da0819195b1959d85d1958d85b1b60421b6064820152608401610a86565b5060008051602061429083398151915290565b6000818152610163602052604081205460ff16151560011461136c5760405162461bcd60e51b8152600401610a8690613e65565b60056110b4565b6000818152610163602052604081205460ff1615156001146113a75760405162461bcd60e51b8152600401610a8690613e65565b60076110b4565b6000828152610163602052604090205460ff1615156001146113e25760405162461bcd60e51b8152600401610a8690613e65565b6006600083815261016160205260409020600b015460ff16600881111561141957634e487b7160e01b600052602160045260246000fd5b146114365760405162461bcd60e51b8152600401610a86906140c5565b61015f5461144c906001600160a01b0316612d35565b6001600160a01b0316336001600160a01b0316146114bf5760405162461bcd60e51b815260206004820152602a60248201527f4f6e6c79206479676e6966794b65657065722063616e206d61726b206974206160448201526939903bb934ba32b7b33360b11b6064820152608401610a86565b60008281526101616020526040808220600b01805460ff1916600717905580516312be139b60e11b815290516001600160a01b0384169263257c2736926004808201939182900301818387803b15801561151857600080fd5b505af115801561152c573d6000803e3d6000fd5b505050505050565b6000818152610163602052604081205460ff1615156001146115685760405162461bcd60e51b8152600401610a8690613e65565b50600090815261016160205260409020600101546001600160a01b031690565b61016260205281600052604060002081815481106115a557600080fd5b90600052602060002001600091509150505481565b61016560205281600052604060002081815481106115a557600080fd5b6000818152610163602052604081205460ff16151560011461160b5760405162461bcd60e51b8152600401610a8690613e65565b600082815261016160205260409020600b015460059060ff16600881111561164357634e487b7160e01b600052602160045260246000fd5b60ff1610156116a85760405162461bcd60e51b815260206004820152602b60248201527f4f70706f7274756e697479206d757374206265206163746976652f647261776e60448201526a191bdddb8bdc995c185a5960aa1b6064820152608401610a86565b600082815261016160205260409020600b015461010090046001600160a01b0316806108085760405162461bcd60e51b815260206004820152602c60248201527f4f70706f7274756e69747920706f6f6c206164647265737320686176656e277460448201526b0818dc99585d1959081e595d60a21b6064820152608401610a86565b6000818152610163602052604081205460ff16151560011461175f5760405162461bcd60e51b8152600401610a8690613e65565b60086110b4565b611771611051612fd8565b61178d5760405162461bcd60e51b8152600401610a8690613ece565b61107b613081565b60606001600160a01b0382166117e85760405162461bcd60e51b8152602060048201526018602482015277496e76616c696420426f72726f776572207364647265737360401b6044820152606401610a86565b6001600160a01b03821660009081526101626020908152604080832080548251818502810185019093528083529192909190830182828015610af05760200282019190600052602060002090815481526020019060010190808311610adc575093979650505050505050565b60009182526065602090815260408084206001600160a01b0393909316845291905290205460ff1690565b600054610100900460ff166118a65760405162461bcd60e51b8152600401610a869061407a565b6001600160a01b0381166118fc5760405162461bcd60e51b815260206004820181905260248201527f4f776e65722063616e6e6f7420626520746865207a65726f20616464726573736044820152606401610a86565b6119046130be565b61190c61304e565b6119146130e5565b61192561191f61310c565b82613130565b61193061191f612fd8565b61194861193b612fd8565b61194361310c565b61313a565b61104361193b61310c565b6000818152610163602052604090205460ff1615156001146119875760405162461bcd60e51b8152600401610a8690613e65565b6005600082815261016160205260409020600b015460ff1660088111156119be57634e487b7160e01b600052602160045260246000fd5b14611a0b5760405162461bcd60e51b815260206004820152601e60248201527f4f70706f7274756e69747920706f6f6c206973206e6f742061637469766500006044820152606401610a86565b600081815261016160205260409020600b015461010090046001600160a01b03163314611a905760405162461bcd60e51b815260206004820152602d60248201527f4f6e6c79204f70706f7274756e69747920506f6f6c2063616e206d61726b206960448201526c3a1030b990323930bbb237bbb760991b6064820152608401610a86565b600081815261016160205260409020600b015461010090046001600160a01b0316611acd5760405162461bcd60e51b8152600401610a8690614037565b600081815261016160205260409020600b01805460ff1916600617905561015f54611b00906001600160a01b0316612d35565b6001600160a01b0316633aa7c283826040518263ffffffff1660e01b8152600401610ece91815260200190565b60606001600160a01b038216611b555760405162461bcd60e51b8152600401610a8690613e9c565b6001600160a01b0382166000908152610162602090815260409182902080548351818402810184019094528084529091830182828015611bb457602002820191906000526020600020905b815481526020019060010190808311611ba0575b50505050509050919050565b6000611bcd61105161310c565b905090565b600054610100900460ff1615808015611bf25750600054600160ff909116105b80611c0c5750303b158015611c0c575060005460ff166001145b611c285760405162461bcd60e51b8152600401610a8690613fe9565b6000805460ff191660011790558015611c4b576000805461ff0019166101001790555b6001600160a01b038216611c9a5760405162461bcd60e51b8152602060048201526016602482015275496e76616c696420636f6e666967206164647265737360501b6044820152606401610a86565b61015f80546001600160a01b0319166001600160a01b038416908117909155600090611cc590613185565b90506001600160a01b038116611d0d5760405162461bcd60e51b815260206004820152600d60248201526c24b73b30b634b21027bbb732b960991b6044820152606401610a86565b611d168161187f565b61015f54611d2c906001600160a01b031661319c565b61016080546001600160a01b0319166001600160a01b0392909216919091179055508015610cf8576000805461ff0019169055604051600181527f7f26b83ff96e1f2b6a682f133852f6798a09c465da95921460cefb38474024989060200160405180910390a15050565b600082815260656020526040902060010154611db281612ca5565b610d218383612db7565b611dc46128d3565b611dcc61292d565b606081015160019081811115611df257634e487b7160e01b600052602160045260246000fd5b60ff161115611e3d5760405162461bcd60e51b81526020600482015260176024820152764c6f616e54797065203a204f7574206f662072616e676560481b6044820152606401610a86565b6000816080015111611e9c5760405162461bcd60e51b815260206004820152602260248201527f4c6f616e20416d6f756e74204d7573742062652067726561746572207468616e604482015261020360f41b6064820152608401610a86565b80516001600160a01b0316611ec35760405162461bcd60e51b8152600401610a8690613e9c565b60008160c00151118015611ee85750611ee0620f4240606461419b565b8160c0015111155b611f655760405162461bcd60e51b815260206004820152604260248201527f4c6f616e20496e746572657374204d757374206265206772656174657220746860448201527f616e203020616e64206c657373207468616e206f7220657175616c20746f2031606482015261030360f41b608482015260a401610a86565b60008160a0015111611fc45760405162461bcd60e51b815260206004820152602260248201527f4c6f616e2054656e757265204d7573742062652067726561746572207468616e604482015261020360f41b6064820152608401610a86565b60008160e00151116120295760405162461bcd60e51b815260206004820152602860248201527f5061796d656e74204672657175656e6379204d75737420626520677265617465604482015267072207468616e20360c41b6064820152608401610a86565b603281602001515111156120a55760405162461bcd60e51b815260206004820152603b60248201527f4c656e677468206f66204f70706f7274756e697479206e616d65206d7573742060448201527f6265206c657373207468616e206f7220657175616c20746f20353000000000006064820152608401610a86565b60008161010001516040516020016120bd9190613c16565b60408051601f198184030181529181528151602092830120600081815261016390935291205490915060ff161561216b5760405162461bcd60e51b815260206004820152604660248201527f53616d6520636f6c6c61746f72616c20646f63756d656e74206973206265656e60448201527f207573656420746f2063726561746520646966666572656e74206f70706f72746064820152653ab734ba3c9760d11b608482015260a401610a86565b61217361376f565b81815282516001600160a01b0316602080830191909152830151604080830191909152830151606080830191909152830151608082019060018111156121c957634e487b7160e01b600052602160045260246000fd5b908160018111156121ea57634e487b7160e01b600052602160045260246000fd5b905250608083015160a08083019190915283015160c08083019190915283015160e0808301919091528301516101008083019190915283015161012080830191909152830151610140820152426101a082015261015f54612253906001600160a01b03166131b4565b6000838152610166602090815260408083209390935561016181529082902083518155838201516001820180546001600160a01b0319166001600160a01b039092169190911790559183015180518493926122b59260028501929101906137ff565b50606082015180516122d19160038401916020909101906137ff565b50608082015160048201805460ff19166001838181111561230257634e487b7160e01b600052602160045260246000fd5b021790555060a0820151600582015560c0820151600682015560e082015160078201556101008201516008820155610120820151805161234c9160098401916020909101906137ff565b50610140820151600a820155610160820151600b8201805460ff1916600183600881111561238a57634e487b7160e01b600052602160045260246000fd5b0217905550610180820151600b82018054610100600160a81b0319166101006001600160a01b03938416021790556101a090920151600c90910155835116600090815261016260209081526040808320805460018181018355918552838520018690558584526101639092528220805460ff1916821790556101678054808301825592527f025f925b23c02f7114773957b1a876f2af957c14a29118dc622648c445020dcf909101929092555060c95550565b612445611bc0565b6124615760405162461bcd60e51b8152600401610a869061410e565b6124696128d3565b61247161292d565b6001600160a01b0381166124b95760405162461bcd60e51b815260206004820152600f60248201526e496e76616c6964204164647265737360881b6044820152606401610a86565b6000828152610163602052604090205460ff1615156001146124ed5760405162461bcd60e51b8152600401610a8690613e65565b600082815261016160205260408120600b015460ff16600881111561252257634e487b7160e01b600052602160045260246000fd5b1461253f5760405162461bcd60e51b8152600401610a8690613f66565b60008281526101646020908152604080832080546001600160a01b0319166001600160a01b038616908117909155835261016582528220805460018181018355918452919092200183905560c9555050565b6000818152610163602052604090205460609060ff1615156001146125c85760405162461bcd60e51b8152600401610a8690613e65565b60008281526101616020908152604080832081516101c0810183528154815260018201546001600160a01b0316938101939093526002810180549192840191612610906141fd565b80601f016020809104026020016040519081016040528092919081815260200182805461263c906141fd565b80156126895780601f1061265e57610100808354040283529160200191612689565b820191906000526020600020905b81548152906001019060200180831161266c57829003601f168201915b505050505081526020016003820180546126a2906141fd565b80601f01602080910402602001604051908101604052809291908181526020018280546126ce906141fd565b801561271b5780601f106126f05761010080835404028352916020019161271b565b820191906000526020600020905b8154815290600101906020018083116126fe57829003601f168201915b5050509183525050600482015460209091019060ff16600181111561275057634e487b7160e01b600052602160045260246000fd5b600181111561276f57634e487b7160e01b600052602160045260246000fd5b8152602001600582015481526020016006820154815260200160078201548152602001600882015481526020016009820180546127ab906141fd565b80601f01602080910402602001604051908101604052809291908181526020018280546127d7906141fd565b80156128245780601f106127f957610100808354040283529160200191612824565b820191906000526020600020905b81548152906001019060200180831161280757829003601f168201915b5050509183525050600a8201546020820152600b82015460409091019060ff16600881111561286357634e487b7160e01b600052602160045260246000fd5b600881111561288257634e487b7160e01b600052602160045260246000fd5b8152600b82015461010090046001600160a01b03166020820152600c9091015460409182015201519392505050565b61016781815481106128c257600080fd5b600091825260209091200154905081565b600260c95414156129265760405162461bcd60e51b815260206004820152601f60248201527f5265656e7472616e637947756172643a207265656e7472616e742063616c6c006044820152606401610a86565b600260c955565b60975460ff161561107b5760405162461bcd60e51b815260206004820152601060248201526f14185d5cd8589b194e881c185d5cd95960821b6044820152606401610a86565b6000818152610163602052604090205460ff1615156001146129a75760405162461bcd60e51b8152600401610a8690613e65565b6002600082815261016160205260409020600b015460ff1660088111156129de57634e487b7160e01b600052602160045260246000fd5b14612a2b5760405162461bcd60e51b815260206004820152601b60248201527f4f70706f7274756e697479206973206e6f7420617070726f76656400000000006044820152606401610a86565b6000818152610161602052604090819020600b8101805460ff19166004908117909155610160549251636902622f60e11b81526001600160a01b039093169263d204c45e92610ece92339260099092019101613ca1565b60006004600083815261016160205260409020600b015460ff166008811115612abb57634e487b7160e01b600052602160045260246000fd5b14612b1d5760405162461bcd60e51b815260206004820152602c60248201527f436f6c6c61746572616c206f6620746865204f70706f7274756e69747920697360448201526b103737ba1036b4b73a32b21760a11b6064820152608401610a86565b6000828152610163602052604090205460ff161515600114612b515760405162461bcd60e51b8152600401610a8690613e65565b61015f54600090612b6a906001600160a01b031661322f565b9050612b7581613247565b61015f54600085815261016160205260409020805460058201546006830154600784015460088501546004909501549698506001600160a01b03808a169763c4f31a6597909116959060ff166001811115612be057634e487b7160e01b600052602160045260246000fd5b6040516001600160e01b031960e08a901b1681526001600160a01b039097166004880152602487019590955260448601939093526064850191909152608484015260a483015260ff1660c482015260e401600060405180830381600087803b158015612c4b57600080fd5b505af1158015612c5f573d6000803e3d6000fd5b505050600093845250506101616020526040909120600b0180546001600160a81b03191660ff196101006001600160a01b038516021617600517905590565b600160c955565b6110438133613299565b612cb98282611854565b610cf85760008281526065602090815260408083206001600160a01b03851684529091529020805460ff19166001179055612cf13390565b6001600160a01b0316816001600160a01b0316837f2f8788117e7eff1d82e926ec794901d17c78024a50270940304540a733656f0d60405160405180910390a45050565b60006001600160a01b03821663b93f9b0a60095b6040518263ffffffff1660e01b8152600401612d6791815260200190565b60206040518083038186803b158015612d7f57600080fd5b505afa158015612d93573d6000803e3d6000fd5b505050506040513d601f19601f820116820180604052508101906108089190613963565b612dc18282611854565b15610cf85760008281526065602090815260408083206001600160a01b0385168085529252808320805460ff1916905551339285917ff6391f5c32d9c69d2a47ea670b442974b53935d1edc7fd64eb21e047a839171b9190a45050565b600080516020614290833981519152546001600160a01b031690565b612e42611bc0565b6110435760405162461bcd60e51b8152600401610a869061410e565b7f4910fdfa16fed3260ed0e7147f7cc6da11a60208b5b9406d12a635614ffd91435460ff1615612e9157610d21836132f2565b826001600160a01b03166352d1902d6040518163ffffffff1660e01b815260040160206040518083038186803b158015612eca57600080fd5b505afa925050508015612efa575060408051601f3d908101601f19168201909252612ef791810190613a23565b60015b612f5d5760405162461bcd60e51b815260206004820152602e60248201527f45524331393637557067726164653a206e657720696d706c656d656e7461746960448201526d6f6e206973206e6f74205555505360901b6064820152608401610a86565b6000805160206142908339815191528114612fcc5760405162461bcd60e51b815260206004820152602960248201527f45524331393637557067726164653a20756e737570706f727465642070726f786044820152681a58589b195555525160ba1b6064820152608401610a86565b50610d2183838361338e565b7f65d7a28e3265b37a6474929f336521b332c1681b933f6cb9f3376673440d862a90565b6130046133b9565b6097805460ff191690557f5db9ee0a495bf2e6ff9c91a7834c1ba4fdd244a5e8aa4e537bd38aeae4b073aa335b6040516001600160a01b03909116815260200160405180910390a1565b600054610100900460ff166130755760405162461bcd60e51b8152600401610a869061407a565b6097805460ff19169055565b61308961292d565b6097805460ff191660011790557f62e78cea01bee320cd4e420270b5ea74000d11b0c9f74754ebdbfc544b05a2586130313390565b600054610100900460ff1661107b5760405162461bcd60e51b8152600401610a869061407a565b600054610100900460ff16612c9e5760405162461bcd60e51b8152600401610a869061407a565b7fa49807205ce4d355092ef5a8a18f56e8913cf4a201fbe287825b095693c2177590565b610cf88282612caf565b600082815260656020526040808220600101805490849055905190918391839186917fbd79b86ffe0ab8e8776151514217cd7cacd52c909f66475c3af44e129f0b00ff9190a4505050565b60006001600160a01b03821663b93f9b0a82612d49565b60006001600160a01b03821663b93f9b0a6005612d49565b604051631f8ac6cb60e31b8152600560048201526000906001600160a01b0383169063fc5636589060240160206040518083038186803b1580156131f757600080fd5b505afa15801561320b573d6000803e3d6000fd5b505050506040513d601f19601f820116820180604052508101906108089190613a23565b60006001600160a01b03821663b93f9b0a6004612d49565b6000808260601b9050604051733d602d80600a3d3981f3363d3d373d3d3d363d7360601b81528160148201526e5af43d82803e903d91602b57fd5bf360881b60288201526037816000f0949350505050565b6132a38282611854565b610cf8576132b081613402565b6132bb836020613414565b6040516020016132cc929190613c32565b60408051601f198184030181529082905262461bcd60e51b8252610a8691600401613e52565b6001600160a01b0381163b61335f5760405162461bcd60e51b815260206004820152602d60248201527f455243313936373a206e657720696d706c656d656e746174696f6e206973206e60448201526c1bdd08184818dbdb9d1c9858dd609a1b6064820152608401610a86565b60008051602061429083398151915280546001600160a01b0319166001600160a01b0392909216919091179055565b613397836135fd565b6000825111806133a45750805b15610d21576133b3838361363d565b50505050565b60975460ff1661107b5760405162461bcd60e51b815260206004820152601460248201527314185d5cd8589b194e881b9bdd081c185d5cd95960621b6044820152606401610a86565b60606108086001600160a01b03831660145b6060600061342383600261419b565b61342e906002614183565b67ffffffffffffffff81111561345457634e487b7160e01b600052604160045260246000fd5b6040519080825280601f01601f19166020018201604052801561347e576020820181803683370190505b509050600360fc1b816000815181106134a757634e487b7160e01b600052603260045260246000fd5b60200101906001600160f81b031916908160001a905350600f60fb1b816001815181106134e457634e487b7160e01b600052603260045260246000fd5b60200101906001600160f81b031916908160001a905350600061350884600261419b565b613513906001614183565b90505b60018111156135a7576f181899199a1a9b1b9c1cb0b131b232b360811b85600f166010811061355557634e487b7160e01b600052603260045260246000fd5b1a60f81b82828151811061357957634e487b7160e01b600052603260045260246000fd5b60200101906001600160f81b031916908160001a90535060049490941c936135a0816141e6565b9050613516565b5083156135f65760405162461bcd60e51b815260206004820181905260248201527f537472696e67733a20686578206c656e67746820696e73756666696369656e746044820152606401610a86565b9392505050565b613606816132f2565b6040516001600160a01b038216907fbc7cd75a20ee27fd9adebab32041f755214dbc6bffa90cc0225b39da2e5c2d3b90600090a250565b60606001600160a01b0383163b6136a55760405162461bcd60e51b815260206004820152602660248201527f416464726573733a2064656c65676174652063616c6c20746f206e6f6e2d636f6044820152651b9d1c9858dd60d21b6064820152608401610a86565b600080846001600160a01b0316846040516136c09190613c16565b600060405180830381855af49150503d80600081146136fb576040519150601f19603f3d011682016040523d82523d6000602084013e613700565b606091505b509150915061372882826040518060600160405280602781526020016142b060279139613731565b95945050505050565b606083156137405750816135f6565b6135f683838151156137555781518083602001fd5b8060405162461bcd60e51b8152600401610a869190613e52565b604080516101c0810182526000808252602082018190526060928201839052828201929092529060808201908152602001600081526020016000815260200160008152602001600081526020016060815260200160008152602001600060088111156137eb57634e487b7160e01b600052602160045260246000fd5b815260006020820181905260409091015290565b82805461380b906141fd565b90600052602060002090601f01602090048101928261382d5760008555613873565b82601f1061384657805160ff1916838001178555613873565b82800160010185558215613873579182015b82811115613873578251825591602001919060010190613858565b5061387f929150613883565b5090565b5b8082111561387f5760008155600101613884565b600067ffffffffffffffff808411156138b3576138b3614264565b604051601f8501601f19908116603f011681019082821181831017156138db576138db614264565b816040528093508581528686860111156138f457600080fd5b858560208301376000602087830101525050509392505050565b80356111068161427a565b80356002811061110657600080fd5b600082601f830112613938578081fd5b6135f683833560208501613898565b600060208284031215613958578081fd5b81356135f68161427a565b600060208284031215613974578081fd5b81516135f68161427a565b60008060408385031215613991578081fd5b823561399c8161427a565b9150602083013567ffffffffffffffff8111156139b7578182fd5b8301601f810185136139c7578182fd5b6139d685823560208401613898565b9150509250929050565b600080604083850312156139f2578182fd5b82356139fd8161427a565b946020939093013593505050565b600060208284031215613a1c578081fd5b5035919050565b600060208284031215613a34578081fd5b5051919050565b60008060408385031215613a4d578182fd5b823591506020830135613a5f8161427a565b809150509250929050565b60008060408385031215613a7c578182fd5b82359150602083013560ff81168114613a5f578182fd5b600060208284031215613aa4578081fd5b81356001600160e01b0319811681146135f6578182fd5b600060208284031215613acc578081fd5b813567ffffffffffffffff80821115613ae3578283fd5b908301906101408286031215613af7578283fd5b613aff614159565b613b088361390e565b8152602083013582811115613b1b578485fd5b613b2787828601613928565b602083015250604083013582811115613b3e578485fd5b613b4a87828601613928565b604083015250613b5c60608401613919565b60608201526080830135608082015260a083013560a082015260c083013560c082015260e083013560e08201526101008084013583811115613b9c578586fd5b613ba888828701613928565b91830191909152506101209283013592810192909252509392505050565b60028110613bd657613bd661424e565b9052565b60098110613bd657613bd661424e565b60008151808452613c028160208601602086016141ba565b601f01601f19169290920160200192915050565b60008251613c288184602087016141ba565b9190910192915050565b76020b1b1b2b9b9a1b7b73a3937b61d1030b1b1b7bab73a1604d1b815260008351613c648160178501602088016141ba565b7001034b99036b4b9b9b4b733903937b6329607d1b6017918401918201528351613c958160288401602088016141ba565b01602801949350505050565b60018060a01b03831681526000602060408184015281845483600182811c915080831680613cd057607f831692505b858310811415613cee57634e487b7160e01b87526022600452602487fd5b6040880183905260608801818015613d0d5760018114613d1e57613d48565b60ff19861682528782019650613d48565b60008b815260209020895b86811015613d4257815484820152908501908901613d29565b83019750505b50949a9950505050505050505050565b6020808252825182820181905260009190848201906040850190845b81811015613d9057835183529284019291840191600101613d74565b50909695505050505050565b8e81526001600160a01b038e1660208201526101c060408201526000613dc66101c083018f613bea565b8281036060840152613dd8818f613bea565b9050613de7608084018e613bc6565b8b60a08401528a60c08401528960e084015288610100840152828103610120840152613e138189613bea565b91505085610140830152613e2b610160830186613bda565b6001600160a01b03939093166101808201526101a001529c9b505050505050505050505050565b6020815260006135f66020830184613bea565b6020808252601c908201527f4f70706f7274756e69747920494420646f65736e277420657869737400000000604082015260600190565b602080825260189082015277696e76616c696420626f72726f776572206164647265737360401b604082015260600190565b6020808252602c908201527f4d75737420686176652070617573657220726f6c6520746f20706572666f726d60408201526b103a3434b99030b1ba34b7b760a11b606082015260800190565b6020808252602c908201527f46756e6374696f6e206d7573742062652063616c6c6564207468726f7567682060408201526b19195b1959d85d1958d85b1b60a21b606082015260800190565b6020808252601d908201527f4f70706f7274756e69747920697320616c7265616479204a7564676564000000604082015260600190565b6020808252602c908201527f46756e6374696f6e206d7573742062652063616c6c6564207468726f7567682060408201526b6163746976652070726f787960a01b606082015260800190565b6020808252602e908201527f496e697469616c697a61626c653a20636f6e747261637420697320616c72656160408201526d191e481a5b9a5d1a585b1a5e995960921b606082015260800190565b60208082526023908201527f4f70706f7274756e69747920506f6f6c206973206e6f742063726561746564206040820152621e595d60ea1b606082015260800190565b6020808252602b908201527f496e697469616c697a61626c653a20636f6e7472616374206973206e6f74206960408201526a6e697469616c697a696e6760a81b606082015260800190565b60208082526029908201527f4f70706f7274756e69747920706f6f6c20697320686176656e277420647261776040820152683237bbb7103cb2ba1760b91b606082015260800190565b6020808252602b908201527f4d75737420686176652061646d696e20726f6c6520746f20706572666f726d2060408201526a3a3434b99030b1ba34b7b760a91b606082015260800190565b604051610140810167ffffffffffffffff8111828210171561417d5761417d614264565b60405290565b6000821982111561419657614196614238565b500190565b60008160001904831182151516156141b5576141b5614238565b500290565b60005b838110156141d55781810151838201526020016141bd565b838111156133b35750506000910152565b6000816141f5576141f5614238565b506000190190565b600181811c9082168061421157607f821691505b6020821081141561423257634e487b7160e01b600052602260045260246000fd5b50919050565b634e487b7160e01b600052601160045260246000fd5b634e487b7160e01b600052602160045260246000fd5b634e487b7160e01b600052604160045260246000fd5b6001600160a01b038116811461104357600080fdfe360894a13ba1a3210667c828492db98dca3e2076cc3735a920a3ca505d382bbc416464726573733a206c6f772d6c6576656c2064656c65676174652063616c6c206661696c6564a264697066735822122053b35d8d5d7594aaa972e218a182c90a1317d783a7550325f8913b4a7a1dc02864736f6c63430008040033",
  "linkReferences": {},
  "deployedLinkReferences": {}
}