{
  "_format": "hh-sol-artifact-1",
  "contractName": "OpportunityOrigination",
  "sourceName": "contracts/protocol/OpportunityOrigination.sol",
  "abi": [
    {
      "anonymous": false,
      "inputs": [
        {
          "indexed": false,
          "internalType": "address",
          "name": "previousAdmin",
          "type": "address"
        },
        {
          "indexed": false,
          "internalType": "address",
          "name": "newAdmin",
          "type": "address"
        }
      ],
      "name": "AdminChanged",
      "type": "event"
    },
    {
      "anonymous": false,
      "inputs": [
        {
          "indexed": true,
          "internalType": "address",
          "name": "beacon",
          "type": "address"
        }
      ],
      "name": "BeaconUpgraded",
      "type": "event"
    },
    {
      "anonymous": false,
      "inputs": [
        {
          "indexed": false,
          "internalType": "uint8",
          "name": "version",
          "type": "uint8"
        }
      ],
      "name": "Initialized",
      "type": "event"
    },
    {
      "anonymous": false,
      "inputs": [
        {
          "indexed": true,
          "internalType": "bytes32",
          "name": "opportunityId",
          "type": "bytes32"
        }
      ],
      "name": "MarkedDrawDown",
      "type": "event"
    },
    {
      "anonymous": false,
      "inputs": [
        {
          "indexed": true,
          "internalType": "bytes32",
          "name": "opportunityId",
          "type": "bytes32"
        }
      ],
      "name": "MarkedRepaid",
      "type": "event"
    },
    {
      "anonymous": false,
      "inputs": [
        {
          "indexed": true,
          "internalType": "bytes32",
          "name": "opportunityId",
          "type": "bytes32"
        },
        {
          "indexed": false,
          "internalType": "address",
          "name": "opportunityPool",
          "type": "address"
        }
      ],
      "name": "MarkedWriteOff",
      "type": "event"
    },
    {
      "anonymous": false,
      "inputs": [
        {
          "indexed": true,
          "internalType": "bytes32",
          "name": "opportunityId",
          "type": "bytes32"
        }
      ],
      "name": "OpportunityCreated",
      "type": "event"
    },
    {
      "anonymous": false,
      "inputs": [
        {
          "indexed": true,
          "internalType": "bytes32",
          "name": "opportunityId",
          "type": "bytes32"
        },
        {
          "indexed": false,
          "internalType": "address",
          "name": "opportunityPool",
          "type": "address"
        }
      ],
      "name": "OpportunityPoolCreated",
      "type": "event"
    },
    {
      "anonymous": false,
      "inputs": [
        {
          "indexed": true,
          "internalType": "bytes32",
          "name": "opportunityId",
          "type": "bytes32"
        },
        {
          "indexed": false,
          "internalType": "uint8",
          "name": "status",
          "type": "uint8"
        }
      ],
      "name": "OpportunityVoted",
      "type": "event"
    },
    {
      "anonymous": false,
      "inputs": [
        {
          "indexed": false,
          "internalType": "address",
          "name": "account",
          "type": "address"
        }
      ],
      "name": "Paused",
      "type": "event"
    },
    {
      "anonymous": false,
      "inputs": [
        {
          "indexed": true,
          "internalType": "bytes32",
          "name": "role",
          "type": "bytes32"
        },
        {
          "indexed": true,
          "internalType": "bytes32",
          "name": "previousAdminRole",
          "type": "bytes32"
        },
        {
          "indexed": true,
          "internalType": "bytes32",
          "name": "newAdminRole",
          "type": "bytes32"
        }
      ],
      "name": "RoleAdminChanged",
      "type": "event"
    },
    {
      "anonymous": false,
      "inputs": [
        {
          "indexed": true,
          "internalType": "bytes32",
          "name": "role",
          "type": "bytes32"
        },
        {
          "indexed": true,
          "internalType": "address",
          "name": "account",
          "type": "address"
        },
        {
          "indexed": true,
          "internalType": "address",
          "name": "sender",
          "type": "address"
        }
      ],
      "name": "RoleGranted",
      "type": "event"
    },
    {
      "anonymous": false,
      "inputs": [
        {
          "indexed": true,
          "internalType": "bytes32",
          "name": "role",
          "type": "bytes32"
        },
        {
          "indexed": true,
          "internalType": "address",
          "name": "account",
          "type": "address"
        },
        {
          "indexed": true,
          "internalType": "address",
          "name": "sender",
          "type": "address"
        }
      ],
      "name": "RoleRevoked",
      "type": "event"
    },
    {
      "anonymous": false,
      "inputs": [
        {
          "indexed": true,
          "internalType": "bytes32",
          "name": "opportunityId",
          "type": "bytes32"
        },
        {
          "indexed": false,
          "internalType": "address",
          "name": "underwriter",
          "type": "address"
        }
      ],
      "name": "UnderwritersAssigned",
      "type": "event"
    },
    {
      "anonymous": false,
      "inputs": [
        {
          "indexed": false,
          "internalType": "address",
          "name": "account",
          "type": "address"
        }
      ],
      "name": "Unpaused",
      "type": "event"
    },
    {
      "anonymous": false,
      "inputs": [
        {
          "indexed": true,
          "internalType": "address",
          "name": "implementation",
          "type": "address"
        }
      ],
      "name": "Upgraded",
      "type": "event"
    },
    {
      "inputs": [],
      "name": "DEFAULT_ADMIN_ROLE",
      "outputs": [
        {
          "internalType": "bytes32",
          "name": "",
          "type": "bytes32"
        }
      ],
      "stateMutability": "view",
      "type": "function"
    },
    {
      "inputs": [
        {
          "internalType": "address",
          "name": "owner",
          "type": "address"
        }
      ],
      "name": "_BaseUpgradeablePausable_init",
      "outputs": [],
      "stateMutability": "nonpayable",
      "type": "function"
    },
    {
      "inputs": [],
      "name": "__PauserPausable__init",
      "outputs": [],
      "stateMutability": "nonpayable",
      "type": "function"
    },
    {
      "inputs": [
        {
          "internalType": "bytes32",
          "name": "_opportunityId",
          "type": "bytes32"
        },
        {
          "internalType": "address",
          "name": "_underwriter",
          "type": "address"
        }
      ],
      "name": "assignUnderwriters",
      "outputs": [],
      "stateMutability": "nonpayable",
      "type": "function"
    },
    {
      "inputs": [],
      "name": "collateralToken",
      "outputs": [
        {
          "internalType": "contract CollateralToken",
          "name": "",
          "type": "address"
        }
      ],
      "stateMutability": "view",
      "type": "function"
    },
    {
      "inputs": [
        {
          "components": [
            {
              "internalType": "address",
              "name": "borrower",
              "type": "address"
            },
            {
              "internalType": "string",
              "name": "opportunityName",
              "type": "string"
            },
            {
              "internalType": "string",
              "name": "opportunityInfo",
              "type": "string"
            },
            {
              "internalType": "enum IOpportunityOrigination.LoanType",
              "name": "loanType",
              "type": "uint8"
            },
            {
              "internalType": "uint256",
              "name": "loanAmount",
              "type": "uint256"
            },
            {
              "internalType": "uint256",
              "name": "loanTenureInDays",
              "type": "uint256"
            },
            {
              "internalType": "uint256",
              "name": "loanInterest",
              "type": "uint256"
            },
            {
              "internalType": "uint256",
              "name": "paymentFrequencyInDays",
              "type": "uint256"
            },
            {
              "internalType": "string",
              "name": "collateralDocument",
              "type": "string"
            },
            {
              "internalType": "uint256",
              "name": "capitalLoss",
              "type": "uint256"
            }
          ],
          "internalType": "struct IOpportunityOrigination.CreateOpportunity",
          "name": "_opportunityData",
          "type": "tuple"
        }
      ],
      "name": "createOpportunity",
      "outputs": [],
      "stateMutability": "nonpayable",
      "type": "function"
    },
    {
      "inputs": [],
      "name": "dygnifyConfig",
      "outputs": [
        {
          "internalType": "contract DygnifyConfig",
          "name": "",
          "type": "address"
        }
      ],
      "stateMutability": "view",
      "type": "function"
    },
    {
      "inputs": [
        {
          "internalType": "address",
          "name": "borrower",
          "type": "address"
        }
      ],
      "name": "getAlltheOpportunitiesOf",
      "outputs": [
        {
          "internalType": "bytes32[]",
          "name": "",
          "type": "bytes32[]"
        }
      ],
      "stateMutability": "view",
      "type": "function"
    },
    {
      "inputs": [
        {
          "internalType": "bytes32",
          "name": "id",
          "type": "bytes32"
        }
      ],
      "name": "getBorrower",
      "outputs": [
        {
          "internalType": "address",
          "name": "",
          "type": "address"
        }
      ],
      "stateMutability": "view",
      "type": "function"
    },
    {
      "inputs": [
        {
          "internalType": "bytes32",
          "name": "id",
          "type": "bytes32"
        }
      ],
      "name": "getOpportunity",
      "outputs": [
        {
          "components": [
            {
              "internalType": "bytes32",
              "name": "opportunityID",
              "type": "bytes32"
            },
            {
              "internalType": "address",
              "name": "borrower",
              "type": "address"
            },
            {
              "internalType": "string",
              "name": "opportunityName",
              "type": "string"
            },
            {
              "internalType": "string",
              "name": "opportunityInfo",
              "type": "string"
            },
            {
              "internalType": "enum IOpportunityOrigination.LoanType",
              "name": "loanType",
              "type": "uint8"
            },
            {
              "internalType": "uint256",
              "name": "loanAmount",
              "type": "uint256"
            },
            {
              "internalType": "uint256",
              "name": "loanTenureInDays",
              "type": "uint256"
            },
            {
              "internalType": "uint256",
              "name": "loanInterest",
              "type": "uint256"
            },
            {
              "internalType": "uint256",
              "name": "paymentFrequencyInDays",
              "type": "uint256"
            },
            {
              "internalType": "string",
              "name": "collateralDocument",
              "type": "string"
            },
            {
              "internalType": "uint256",
              "name": "capitalLoss",
              "type": "uint256"
            },
            {
              "internalType": "enum IOpportunityOrigination.OpportunityStatus",
              "name": "opportunityStatus",
              "type": "uint8"
            },
            {
              "internalType": "address",
              "name": "opportunityPoolAddress",
              "type": "address"
            },
            {
              "internalType": "uint256",
              "name": "createdOn",
              "type": "uint256"
            }
          ],
          "internalType": "struct IOpportunityOrigination.Opportunity",
          "name": "",
          "type": "tuple"
        }
      ],
      "stateMutability": "view",
      "type": "function"
    },
    {
      "inputs": [
        {
          "internalType": "bytes32",
          "name": "_opportunityId",
          "type": "bytes32"
        }
      ],
      "name": "getOpportunityNameOf",
      "outputs": [
        {
          "internalType": "string",
          "name": "",
          "type": "string"
        }
      ],
      "stateMutability": "view",
      "type": "function"
    },
    {
      "inputs": [
        {
          "internalType": "address",
          "name": "_borrower",
          "type": "address"
        }
      ],
      "name": "getOpportunityOf",
      "outputs": [
        {
          "internalType": "bytes32[]",
          "name": "",
          "type": "bytes32[]"
        }
      ],
      "stateMutability": "view",
      "type": "function"
    },
    {
      "inputs": [
        {
          "internalType": "bytes32",
          "name": "id",
          "type": "bytes32"
        }
      ],
      "name": "getOpportunityPoolAddress",
      "outputs": [
        {
          "internalType": "address",
          "name": "",
          "type": "address"
        }
      ],
      "stateMutability": "view",
      "type": "function"
    },
    {
      "inputs": [
        {
          "internalType": "bytes32",
          "name": "role",
          "type": "bytes32"
        }
      ],
      "name": "getRoleAdmin",
      "outputs": [
        {
          "internalType": "bytes32",
          "name": "",
          "type": "bytes32"
        }
      ],
      "stateMutability": "view",
      "type": "function"
    },
    {
      "inputs": [],
      "name": "getTotalOpportunities",
      "outputs": [
        {
          "internalType": "uint256",
          "name": "",
          "type": "uint256"
        }
      ],
      "stateMutability": "view",
      "type": "function"
    },
    {
      "inputs": [
        {
          "internalType": "address",
          "name": "_underwriter",
          "type": "address"
        }
      ],
      "name": "getUnderWritersOpportunities",
      "outputs": [
        {
          "internalType": "bytes32[]",
          "name": "",
          "type": "bytes32[]"
        }
      ],
      "stateMutability": "view",
      "type": "function"
    },
    {
      "inputs": [
        {
          "internalType": "bytes32",
          "name": "role",
          "type": "bytes32"
        },
        {
          "internalType": "address",
          "name": "account",
          "type": "address"
        }
      ],
      "name": "grantRole",
      "outputs": [],
      "stateMutability": "nonpayable",
      "type": "function"
    },
    {
      "inputs": [
        {
          "internalType": "bytes32",
          "name": "role",
          "type": "bytes32"
        },
        {
          "internalType": "address",
          "name": "account",
          "type": "address"
        }
      ],
      "name": "hasRole",
      "outputs": [
        {
          "internalType": "bool",
          "name": "",
          "type": "bool"
        }
      ],
      "stateMutability": "view",
      "type": "function"
    },
    {
      "inputs": [
        {
          "internalType": "contract DygnifyConfig",
          "name": "config",
          "type": "address"
        }
      ],
      "name": "initialize",
      "outputs": [],
      "stateMutability": "nonpayable",
      "type": "function"
    },
    {
      "inputs": [
        {
          "internalType": "bytes32",
          "name": "id",
          "type": "bytes32"
        }
      ],
      "name": "isActive",
      "outputs": [
        {
          "internalType": "bool",
          "name": "",
          "type": "bool"
        }
      ],
      "stateMutability": "view",
      "type": "function"
    },
    {
      "inputs": [],
      "name": "isAdmin",
      "outputs": [
        {
          "internalType": "bool",
          "name": "",
          "type": "bool"
        }
      ],
      "stateMutability": "view",
      "type": "function"
    },
    {
      "inputs": [
        {
          "internalType": "bytes32",
          "name": "id",
          "type": "bytes32"
        }
      ],
      "name": "isDrawdown",
      "outputs": [
        {
          "internalType": "bool",
          "name": "",
          "type": "bool"
        }
      ],
      "stateMutability": "view",
      "type": "function"
    },
    {
      "inputs": [
        {
          "internalType": "bytes32",
          "name": "",
          "type": "bytes32"
        }
      ],
      "name": "isOpportunity",
      "outputs": [
        {
          "internalType": "bool",
          "name": "",
          "type": "bool"
        }
      ],
      "stateMutability": "view",
      "type": "function"
    },
    {
      "inputs": [
        {
          "internalType": "bytes32",
          "name": "id",
          "type": "bytes32"
        }
      ],
      "name": "isRepaid",
      "outputs": [
        {
          "internalType": "bool",
          "name": "",
          "type": "bool"
        }
      ],
      "stateMutability": "view",
      "type": "function"
    },
    {
      "inputs": [
        {
          "internalType": "bytes32",
          "name": "id",
          "type": "bytes32"
        }
      ],
      "name": "isWriteOff",
      "outputs": [
        {
          "internalType": "bool",
          "name": "",
          "type": "bool"
        }
      ],
      "stateMutability": "view",
      "type": "function"
    },
    {
      "inputs": [
        {
          "internalType": "bytes32",
          "name": "id",
          "type": "bytes32"
        }
      ],
      "name": "markDrawDown",
      "outputs": [],
      "stateMutability": "nonpayable",
      "type": "function"
    },
    {
      "inputs": [
        {
          "internalType": "bytes32",
          "name": "id",
          "type": "bytes32"
        }
      ],
      "name": "markRepaid",
      "outputs": [],
      "stateMutability": "nonpayable",
      "type": "function"
    },
    {
      "inputs": [
        {
          "internalType": "bytes32",
          "name": "id",
          "type": "bytes32"
        },
        {
          "internalType": "address",
          "name": "_pool",
          "type": "address"
        }
      ],
      "name": "markWriteOff",
      "outputs": [],
      "stateMutability": "nonpayable",
      "type": "function"
    },
    {
      "inputs": [
        {
          "internalType": "uint256",
          "name": "",
          "type": "uint256"
        }
      ],
      "name": "opportunityIds",
      "outputs": [
        {
          "internalType": "bytes32",
          "name": "",
          "type": "bytes32"
        }
      ],
      "stateMutability": "view",
      "type": "function"
    },
    {
      "inputs": [
        {
          "internalType": "address",
          "name": "",
          "type": "address"
        },
        {
          "internalType": "uint256",
          "name": "",
          "type": "uint256"
        }
      ],
      "name": "opportunityOf",
      "outputs": [
        {
          "internalType": "bytes32",
          "name": "",
          "type": "bytes32"
        }
      ],
      "stateMutability": "view",
      "type": "function"
    },
    {
      "inputs": [
        {
          "internalType": "bytes32",
          "name": "",
          "type": "bytes32"
        }
      ],
      "name": "opportunityToId",
      "outputs": [
        {
          "internalType": "bytes32",
          "name": "opportunityID",
          "type": "bytes32"
        },
        {
          "internalType": "address",
          "name": "borrower",
          "type": "address"
        },
        {
          "internalType": "string",
          "name": "opportunityName",
          "type": "string"
        },
        {
          "internalType": "string",
          "name": "opportunityInfo",
          "type": "string"
        },
        {
          "internalType": "enum IOpportunityOrigination.LoanType",
          "name": "loanType",
          "type": "uint8"
        },
        {
          "internalType": "uint256",
          "name": "loanAmount",
          "type": "uint256"
        },
        {
          "internalType": "uint256",
          "name": "loanTenureInDays",
          "type": "uint256"
        },
        {
          "internalType": "uint256",
          "name": "loanInterest",
          "type": "uint256"
        },
        {
          "internalType": "uint256",
          "name": "paymentFrequencyInDays",
          "type": "uint256"
        },
        {
          "internalType": "string",
          "name": "collateralDocument",
          "type": "string"
        },
        {
          "internalType": "uint256",
          "name": "capitalLoss",
          "type": "uint256"
        },
        {
          "internalType": "enum IOpportunityOrigination.OpportunityStatus",
          "name": "opportunityStatus",
          "type": "uint8"
        },
        {
          "internalType": "address",
          "name": "opportunityPoolAddress",
          "type": "address"
        },
        {
          "internalType": "uint256",
          "name": "createdOn",
          "type": "uint256"
        }
      ],
      "stateMutability": "view",
      "type": "function"
    },
    {
      "inputs": [],
      "name": "pause",
      "outputs": [],
      "stateMutability": "nonpayable",
      "type": "function"
    },
    {
      "inputs": [],
      "name": "paused",
      "outputs": [
        {
          "internalType": "bool",
          "name": "",
          "type": "bool"
        }
      ],
      "stateMutability": "view",
      "type": "function"
    },
    {
      "inputs": [],
      "name": "proxiableUUID",
      "outputs": [
        {
          "internalType": "bytes32",
          "name": "",
          "type": "bytes32"
        }
      ],
      "stateMutability": "view",
      "type": "function"
    },
    {
      "inputs": [
        {
          "internalType": "bytes32",
          "name": "role",
          "type": "bytes32"
        },
        {
          "internalType": "address",
          "name": "account",
          "type": "address"
        }
      ],
      "name": "renounceRole",
      "outputs": [],
      "stateMutability": "nonpayable",
      "type": "function"
    },
    {
      "inputs": [
        {
          "internalType": "bytes32",
          "name": "role",
          "type": "bytes32"
        },
        {
          "internalType": "address",
          "name": "account",
          "type": "address"
        }
      ],
      "name": "revokeRole",
      "outputs": [],
      "stateMutability": "nonpayable",
      "type": "function"
    },
    {
      "inputs": [
        {
          "internalType": "bytes4",
          "name": "interfaceId",
          "type": "bytes4"
        }
      ],
      "name": "supportsInterface",
      "outputs": [
        {
          "internalType": "bool",
          "name": "",
          "type": "bool"
        }
      ],
      "stateMutability": "view",
      "type": "function"
    },
    {
      "inputs": [
        {
          "internalType": "address",
          "name": "",
          "type": "address"
        },
        {
          "internalType": "uint256",
          "name": "",
          "type": "uint256"
        }
      ],
      "name": "underwriterToOpportunity",
      "outputs": [
        {
          "internalType": "bytes32",
          "name": "",
          "type": "bytes32"
        }
      ],
      "stateMutability": "view",
      "type": "function"
    },
    {
      "inputs": [],
      "name": "unpause",
      "outputs": [],
      "stateMutability": "nonpayable",
      "type": "function"
    },
    {
      "inputs": [
        {
          "internalType": "address",
          "name": "newImplementation",
          "type": "address"
        }
      ],
      "name": "upgradeTo",
      "outputs": [],
      "stateMutability": "nonpayable",
      "type": "function"
    },
    {
      "inputs": [
        {
          "internalType": "address",
          "name": "newImplementation",
          "type": "address"
        },
        {
          "internalType": "bytes",
          "name": "data",
          "type": "bytes"
        }
      ],
      "name": "upgradeToAndCall",
      "outputs": [],
      "stateMutability": "payable",
      "type": "function"
    },
    {
      "inputs": [
        {
          "internalType": "bytes32",
          "name": "_opportunityId",
          "type": "bytes32"
        },
        {
          "internalType": "uint8",
          "name": "_status",
          "type": "uint8"
        }
      ],
      "name": "voteOpportunity",
      "outputs": [],
      "stateMutability": "nonpayable",
      "type": "function"
    },
    {
      "inputs": [
        {
          "internalType": "bytes32",
          "name": "",
          "type": "bytes32"
        }
      ],
      "name": "writeOffDaysOf",
      "outputs": [
        {
          "internalType": "uint256",
          "name": "",
          "type": "uint256"
        }
      ],
      "stateMutability": "view",
      "type": "function"
    }
  ],
  "bytecode": "0x60a06040523060601b60805234801561001757600080fd5b5060805160601c6149486100526000396000818161101901528181611059015281816111a7015281816111e7015261132801526149486000f3fe60806040526004361061025c5760003560e01c8063728c3ea211610144578063b2016bd4116100b6578063d547741f1161007a578063d547741f14610726578063e0bb77e314610746578063e2f3722414610777578063e87ec15f14610797578063f00474a6146107b7578063f1bae27d146107e457600080fd5b8063b2016bd414610683578063b369be54146106a4578063b6db75a0146106c4578063bae328fa146106d9578063c4d66de81461070657600080fd5b80638456cb59116101085780638456cb59146105d957806389eb01fc146105ee57806391d148541461060e578063a12dde4d1461062e578063a217fddf1461064e578063af7ea9441461066357600080fd5b8063728c3ea2146105395780637921c67d146105595780637a8f5560146105795780637e4dc6d51461059957806381767155146105b957600080fd5b80633f4ba83a116101dd57806352d1902d116101a157806352d1902d1461047e5780635c36901c146104935780635c975abb146104b35780636815322c146104cb5780636dc305f9146104eb578063718df38c1461050b57600080fd5b80633f4ba83a1461040b5780634622abe014610420578063486caf7c146104405780634f1ef28614610456578063526d81f61461046957600080fd5b80632885f8b9116102245780632885f8b9146103695780632f2ff15d1461038b578063332f1486146103ab57806336568abe146103cb5780633659cfe6146103eb57600080fd5b806301ffc9a7146102615780630bca245a146102965780631633f5a3146102d05780631be95459146102fd578063248a9ca31461032b575b600080fd5b34801561026d57600080fd5b5061028161027c366004613fa0565b610804565b60405190151581526020015b60405180910390f35b3480156102a257600080fd5b506102b66102b1366004613f18565b61083b565b60405161028d9e9d9c9b9a999897969594939291906142bd565b3480156102dc57600080fd5b506102f06102eb366004613e54565b610a5f565b60405161028d9190614279565b34801561030957600080fd5b5061015f5461031e906001600160a01b031681565b60405161028d91906141ae565b34801561033757600080fd5b5061035b610346366004613f18565b60009081526065602052604090206001015490565b60405190815260200161028d565b34801561037557600080fd5b50610389610384366004613f77565b610b2a565b005b34801561039757600080fd5b506103896103a6366004613f48565b610d62565b3480156103b757600080fd5b506103896103c6366004613f18565b610d8c565b3480156103d757600080fd5b506103896103e6366004613f48565b610f94565b3480156103f757600080fd5b50610389610406366004613e54565b61100e565b34801561041757600080fd5b506103896110d7565b34801561042c57600080fd5b5061028161043b366004613f18565b61110e565b34801561044c57600080fd5b506101675461035b565b610389610464366004613e8c565b61119c565b34801561047557600080fd5b50610389611252565b34801561048a57600080fd5b5061035b61131b565b34801561049f57600080fd5b506102816104ae366004613f18565b6113c9565b3480156104bf57600080fd5b5060975460ff16610281565b3480156104d757600080fd5b506102816104e6366004613f18565b611404565b3480156104f757600080fd5b50610389610506366004613f48565b61143f565b34801561051757600080fd5b5061035b610526366004613f18565b6101666020526000908152604090205481565b34801561054557600080fd5b5061031e610554366004613f18565b6115fd565b34801561056557600080fd5b5061035b610574366004613eed565b611651565b34801561058557600080fd5b5061035b610594366004613eed565b611683565b3480156105a557600080fd5b5061031e6105b4366004613f18565b6116a0565b3480156105c557600080fd5b506102816105d4366004613f18565b6117f4565b3480156105e557600080fd5b5061038961182f565b3480156105fa57600080fd5b506102f0610609366004613e54565b61185e565b34801561061a57600080fd5b50610281610629366004613f48565b61191d565b34801561063a57600080fd5b50610389610649366004613e54565b611948565b34801561065a57600080fd5b5061035b600081565b34801561066f57600080fd5b5061038961067e366004613f18565b611a1c565b34801561068f57600080fd5b506101605461031e906001600160a01b031681565b3480156106b057600080fd5b506102f06106bf366004613e54565b611c56565b3480156106d057600080fd5b50610281611ce9565b3480156106e557600080fd5b506106f96106f4366004613f18565b611cfb565b60405161028d919061467a565b34801561071257600080fd5b50610389610721366004613e54565b612021565b34801561073257600080fd5b50610389610741366004613f48565b6121e6565b34801561075257600080fd5b50610281610761366004613f18565b6101636020526000908152604090205460ff1681565b34801561078357600080fd5b50610389610792366004613fc8565b61220b565b3480156107a357600080fd5b506103896107b2366004613f48565b6128b7565b3480156107c357600080fd5b506107d76107d2366004613f18565b612a34565b60405161028d9190614373565b3480156107f057600080fd5b5061035b6107ff366004613f18565b612d54565b60006001600160e01b03198216637965db0b60e01b148061083557506301ffc9a760e01b6001600160e01b03198316145b92915050565b6101616020526000908152604090208054600182015460028301805492936001600160a01b039092169261086e90614839565b80601f016020809104026020016040519081016040528092919081815260200182805461089a90614839565b80156108e75780601f106108bc576101008083540402835291602001916108e7565b820191906000526020600020905b8154815290600101906020018083116108ca57829003601f168201915b5050505050908060030180546108fc90614839565b80601f016020809104026020016040519081016040528092919081815260200182805461092890614839565b80156109755780601f1061094a57610100808354040283529160200191610975565b820191906000526020600020905b81548152906001019060200180831161095857829003601f168201915b5050505050908060040160009054906101000a900460ff16908060050154908060060154908060070154908060080154908060090180546109b590614839565b80601f01602080910402602001604051908101604052809291908181526020018280546109e190614839565b8015610a2e5780601f10610a0357610100808354040283529160200191610a2e565b820191906000526020600020905b815481529060010190602001808311610a1157829003601f168201915b50505050600a830154600b840154600c909401549293909260ff821692506101009091046001600160a01b0316908e565b60606001600160a01b038216610abc5760405162461bcd60e51b815260206004820152601b60248201527f496e76616c696420756e6465727772697465722073646472657373000000000060448201526064015b60405180910390fd5b6001600160a01b03821660009081526101656020908152604080832080548251818502810185019093528083529192909190830182828015610b1d57602002820191906000526020600020905b815481526020019060010190808311610b09575b5093979650505050505050565b610b32612d76565b610b3a612dd0565b600082815261016460205260409020546001600160a01b03163314610bb75760405162461bcd60e51b815260206004820152602d60248201527f596f7520617265206e6f7420616e206175646969746f7220666f72207468697360448201526c1027b83837b93a3ab734ba3c9760991b6064820152608401610ab3565b6000828152610163602052604090205460ff161515600114610beb5760405162461bcd60e51b8152600401610ab390614386565b600160ff821610801590610c035750600360ff821611155b610c475760405162461bcd60e51b8152602060048201526015602482015274537461747573203a206f7574206f662072616e676560581b6044820152606401610ab3565b600082815261016160205260408120600b015460ff166008811115610c7c57634e487b7160e01b600052602160045260246000fd5b14610c995760405162461bcd60e51b8152600401610ab390614487565b8060ff166008811115610cbc57634e487b7160e01b600052602160045260246000fd5b600083815261016160205260409020600b01805460ff19166001836008811115610cf657634e487b7160e01b600052602160045260246000fd5b021790555060ff811660021415610d1b57610d1082612e16565b610d1982612f5a565b505b60405160ff8216815282907f92d84d4237206a27f66f3339b0034e5f89a615cfe466cd027dae80f23d09666c906020015b60405180910390a2610d5e600160c955565b5050565b600082815260656020526040902060010154610d7d816131b8565b610d8783836131c2565b505050565b6000818152610163602052604090205460ff161515600114610dc05760405162461bcd60e51b8152600401610ab390614386565b6006600082815261016160205260409020600b015460ff166008811115610df757634e487b7160e01b600052602160045260246000fd5b14610e145760405162461bcd60e51b8152600401610ab3906145e6565b600081815261016160205260409020600b015461010090046001600160a01b03163314610e975760405162461bcd60e51b815260206004820152602b60248201527f4f6e6c79204f70706f7274756e69747920506f6f6c2063616e206d61726b206960448201526a1d08185cc81c995c185a5960aa1b6064820152608401610ab3565b600081815261016160205260409020600b015461010090046001600160a01b0316610ed45760405162461bcd60e51b8152600401610ab390614558565b600081815261016160205260409020600b01805460ff1916600817905561015f54610f07906001600160a01b0316613248565b6001600160a01b0316632d37a3d2826040518263ffffffff1660e01b8152600401610f3491815260200190565b600060405180830381600087803b158015610f4e57600080fd5b505af1158015610f62573d6000803e3d6000fd5b50506040518392507f4b384140e92e93e6391171c02a78b0269e17b1c6bf96cf931bea1ebc8a6279349150600090a250565b6001600160a01b03811633146110045760405162461bcd60e51b815260206004820152602f60248201527f416363657373436f6e74726f6c3a2063616e206f6e6c792072656e6f756e636560448201526e103937b632b9903337b91039b2b63360891b6064820152608401610ab3565b610d5e82826132ca565b306001600160a01b037f00000000000000000000000000000000000000000000000000000000000000001614156110575760405162461bcd60e51b8152600401610ab39061443b565b7f00000000000000000000000000000000000000000000000000000000000000006001600160a01b0316611089613331565b6001600160a01b0316146110af5760405162461bcd60e51b8152600401610ab3906144be565b6110b88161334d565b604080516000808252602082019092526110d491839190613371565b50565b6110e86110e26134eb565b3361191d565b6111045760405162461bcd60e51b8152600401610ab3906143ef565b61110c61350f565b565b6000818152610163602052604081205460ff1615156001146111425760405162461bcd60e51b8152600401610ab390614386565b60065b600083815261016160205260409020600b015460ff9182169116600881111561117e57634e487b7160e01b600052602160045260246000fd5b60ff16141561118f57506001919050565b506000919050565b919050565b306001600160a01b037f00000000000000000000000000000000000000000000000000000000000000001614156111e55760405162461bcd60e51b8152600401610ab39061443b565b7f00000000000000000000000000000000000000000000000000000000000000006001600160a01b0316611217613331565b6001600160a01b03161461123d5760405162461bcd60e51b8152600401610ab3906144be565b6112468261334d565b610d5e82826001613371565b600054610100900460ff16158080156112725750600054600160ff909116105b8061128c5750303b15801561128c575060005460ff166001145b6112a85760405162461bcd60e51b8152600401610ab39061450a565b6000805460ff1916600117905580156112cb576000805461ff0019166101001790555b6112d361355b565b80156110d4576000805461ff0019169055604051600181527f7f26b83ff96e1f2b6a682f133852f6798a09c465da95921460cefb38474024989060200160405180910390a150565b6000306001600160a01b037f000000000000000000000000000000000000000000000000000000000000000016146113b65760405162461bcd60e51b815260206004820152603860248201527f555550535570677261646561626c653a206d757374206e6f742062652063616c6044820152771b1959081d1a1c9bdd59da0819195b1959d85d1958d85b1b60421b6064820152608401610ab3565b506000805160206148cc83398151915290565b6000818152610163602052604081205460ff1615156001146113fd5760405162461bcd60e51b8152600401610ab390614386565b6005611145565b6000818152610163602052604081205460ff1615156001146114385760405162461bcd60e51b8152600401610ab390614386565b6007611145565b6000828152610163602052604090205460ff1615156001146114735760405162461bcd60e51b8152600401610ab390614386565b6006600083815261016160205260409020600b015460ff1660088111156114aa57634e487b7160e01b600052602160045260246000fd5b146114c75760405162461bcd60e51b8152600401610ab3906145e6565b61015f546114dd906001600160a01b0316613248565b6001600160a01b0316336001600160a01b0316146115505760405162461bcd60e51b815260206004820152602a60248201527f4f6e6c79206479676e6966794b65657065722063616e206d61726b206974206160448201526939903bb934ba32b7b33360b11b6064820152608401610ab3565b60008281526101616020526040808220600b01805460ff1916600717905580516312be139b60e11b815290516001600160a01b0384169263257c2736926004808201939182900301818387803b1580156115a957600080fd5b505af11580156115bd573d6000803e3d6000fd5b50505050817f05e59fc19fe9715c0aeecaabdb6fea5bc2b06bb0b852db2cc49974de673c4ab3826040516115f191906141ae565b60405180910390a25050565b6000818152610163602052604081205460ff1615156001146116315760405162461bcd60e51b8152600401610ab390614386565b50600090815261016160205260409020600101546001600160a01b031690565b610162602052816000526040600020818154811061166e57600080fd5b90600052602060002001600091509150505481565b610165602052816000526040600020818154811061166e57600080fd5b6000818152610163602052604081205460ff1615156001146116d45760405162461bcd60e51b8152600401610ab390614386565b600082815261016160205260409020600b015460059060ff16600881111561170c57634e487b7160e01b600052602160045260246000fd5b60ff1610156117715760405162461bcd60e51b815260206004820152602b60248201527f4f70706f7274756e697479206d757374206265206163746976652f647261776e60448201526a191bdddb8bdc995c185a5960aa1b6064820152608401610ab3565b600082815261016160205260409020600b015461010090046001600160a01b0316806108355760405162461bcd60e51b815260206004820152602c60248201527f4f70706f7274756e69747920706f6f6c206164647265737320686176656e277460448201526b0818dc99585d1959081e595d60a21b6064820152608401610ab3565b6000818152610163602052604081205460ff1615156001146118285760405162461bcd60e51b8152600401610ab390614386565b6008611145565b61183a6110e26134eb565b6118565760405162461bcd60e51b8152600401610ab3906143ef565b61110c61358e565b60606001600160a01b0382166118b15760405162461bcd60e51b8152602060048201526018602482015277496e76616c696420426f72726f776572207364647265737360401b6044820152606401610ab3565b6001600160a01b03821660009081526101626020908152604080832080548251818502810185019093528083529192909190830182828015610b1d5760200282019190600052602060002090815481526020019060010190808311610b09575093979650505050505050565b60009182526065602090815260408084206001600160a01b0393909316845291905290205460ff1690565b600054610100900460ff1661196f5760405162461bcd60e51b8152600401610ab39061459b565b6001600160a01b0381166119c55760405162461bcd60e51b815260206004820181905260248201527f4f776e65722063616e6e6f7420626520746865207a65726f20616464726573736044820152606401610ab3565b6119cd6135cb565b6119d561355b565b6119dd6135f2565b6119ee6119e8613619565b8261363d565b6119f96119e86134eb565b611a11611a046134eb565b611a0c613619565b613647565b6110d4611a04613619565b6000818152610163602052604090205460ff161515600114611a505760405162461bcd60e51b8152600401610ab390614386565b6005600082815261016160205260409020600b015460ff166008811115611a8757634e487b7160e01b600052602160045260246000fd5b14611ad45760405162461bcd60e51b815260206004820152601e60248201527f4f70706f7274756e69747920706f6f6c206973206e6f742061637469766500006044820152606401610ab3565b600081815261016160205260409020600b015461010090046001600160a01b03163314611b595760405162461bcd60e51b815260206004820152602d60248201527f4f6e6c79204f70706f7274756e69747920506f6f6c2063616e206d61726b206960448201526c3a1030b990323930bbb237bbb760991b6064820152608401610ab3565b600081815261016160205260409020600b015461010090046001600160a01b0316611b965760405162461bcd60e51b8152600401610ab390614558565b600081815261016160205260409020600b01805460ff1916600617905561015f54611bc9906001600160a01b0316613248565b6001600160a01b0316633aa7c283826040518263ffffffff1660e01b8152600401611bf691815260200190565b600060405180830381600087803b158015611c1057600080fd5b505af1158015611c24573d6000803e3d6000fd5b50506040518392507f7a741a986eb95b661a58cc9271ca63c0204659d83122fcd9764b38f4b470011c9150600090a250565b60606001600160a01b038216611c7e5760405162461bcd60e51b8152600401610ab3906143bd565b6001600160a01b0382166000908152610162602090815260409182902080548351818402810184019094528084529091830182828015611cdd57602002820191906000526020600020905b815481526020019060010190808311611cc9575b50505050509050919050565b6000611cf66110e2613619565b905090565b611d03613c7c565b6000828152610163602052604090205460ff161515600114611d375760405162461bcd60e51b8152600401610ab390614386565b6000828152610161602090815260409182902082516101c0810184528154815260018201546001600160a01b0316928101929092526002810180549293919291840191611d8390614839565b80601f0160208091040260200160405190810160405280929190818152602001828054611daf90614839565b8015611dfc5780601f10611dd157610100808354040283529160200191611dfc565b820191906000526020600020905b815481529060010190602001808311611ddf57829003601f168201915b50505050508152602001600382018054611e1590614839565b80601f0160208091040260200160405190810160405280929190818152602001828054611e4190614839565b8015611e8e5780601f10611e6357610100808354040283529160200191611e8e565b820191906000526020600020905b815481529060010190602001808311611e7157829003601f168201915b5050509183525050600482015460209091019060ff166001811115611ec357634e487b7160e01b600052602160045260246000fd5b6001811115611ee257634e487b7160e01b600052602160045260246000fd5b815260200160058201548152602001600682015481526020016007820154815260200160088201548152602001600982018054611f1e90614839565b80601f0160208091040260200160405190810160405280929190818152602001828054611f4a90614839565b8015611f975780601f10611f6c57610100808354040283529160200191611f97565b820191906000526020600020905b815481529060010190602001808311611f7a57829003601f168201915b5050509183525050600a8201546020820152600b82015460409091019060ff166008811115611fd657634e487b7160e01b600052602160045260246000fd5b6008811115611ff557634e487b7160e01b600052602160045260246000fd5b8152600b82015461010090046001600160a01b03166020820152600c9091015460409091015292915050565b600054610100900460ff16158080156120415750600054600160ff909116105b8061205b5750303b15801561205b575060005460ff166001145b6120775760405162461bcd60e51b8152600401610ab39061450a565b6000805460ff19166001179055801561209a576000805461ff0019166101001790555b6001600160a01b0382166120e95760405162461bcd60e51b8152602060048201526016602482015275496e76616c696420636f6e666967206164647265737360501b6044820152606401610ab3565b61015f80546001600160a01b0319166001600160a01b03841690811790915560009061211490613692565b90506001600160a01b03811661215c5760405162461bcd60e51b815260206004820152600d60248201526c24b73b30b634b21027bbb732b960991b6044820152606401610ab3565b61216581611948565b61015f5461217b906001600160a01b03166136a9565b61016080546001600160a01b0319166001600160a01b0392909216919091179055508015610d5e576000805461ff0019169055604051600181527f7f26b83ff96e1f2b6a682f133852f6798a09c465da95921460cefb38474024989060200160405180910390a15050565b600082815260656020526040902060010154612201816131b8565b610d8783836132ca565b612213612d76565b61221b612dd0565b60608101516001908181111561224157634e487b7160e01b600052602160045260246000fd5b60ff16111561228c5760405162461bcd60e51b81526020600482015260176024820152764c6f616e54797065203a204f7574206f662072616e676560481b6044820152606401610ab3565b60008160800151116122eb5760405162461bcd60e51b815260206004820152602260248201527f4c6f616e20416d6f756e74204d7573742062652067726561746572207468616e604482015261020360f41b6064820152608401610ab3565b80516001600160a01b03166123125760405162461bcd60e51b8152600401610ab3906143bd565b60008160c00151118015612337575061232f620f424060646147d7565b8160c0015111155b6123b45760405162461bcd60e51b815260206004820152604260248201527f4c6f616e20496e746572657374204d757374206265206772656174657220746860448201527f616e203020616e64206c657373207468616e206f7220657175616c20746f2031606482015261030360f41b608482015260a401610ab3565b60008160a00151116124135760405162461bcd60e51b815260206004820152602260248201527f4c6f616e2054656e757265204d7573742062652067726561746572207468616e604482015261020360f41b6064820152608401610ab3565b60008160e00151116124785760405162461bcd60e51b815260206004820152602860248201527f5061796d656e74204672657175656e6379204d75737420626520677265617465604482015267072207468616e20360c41b6064820152608401610ab3565b603281602001515111156124f45760405162461bcd60e51b815260206004820152603b60248201527f4c656e677468206f66204f70706f7274756e697479206e616d65206d7573742060448201527f6265206c657373207468616e206f7220657175616c20746f20353000000000006064820152608401610ab3565b600081610100015160405160200161250c9190614123565b60408051601f198184030181529181528151602092830120600081815261016390935291205490915060ff16156125ba5760405162461bcd60e51b815260206004820152604660248201527f53616d6520636f6c6c61746f72616c20646f63756d656e74206973206265656e60448201527f207573656420746f2063726561746520646966666572656e74206f70706f72746064820152653ab734ba3c9760d11b608482015260a401610ab3565b6125c2613c7c565b81815282516001600160a01b03166020808301919091528301516040808301919091528301516060808301919091528301516080820190600181111561261857634e487b7160e01b600052602160045260246000fd5b9081600181111561263957634e487b7160e01b600052602160045260246000fd5b905250608083015160a08083019190915283015160c08083019190915283015160e0808301919091528301516101008083019190915283015161012080830191909152830151610140820152426101a082015261015f546126a2906001600160a01b03166136c1565b6000838152610166602090815260408083209390935561016181529082902083518155838201516001820180546001600160a01b0319166001600160a01b03909216919091179055918301518051849392612704926002850192910190613d0c565b5060608201518051612720916003840191602090910190613d0c565b50608082015160048201805460ff19166001838181111561275157634e487b7160e01b600052602160045260246000fd5b021790555060a0820151600582015560c0820151600682015560e082015160078201556101008201516008820155610120820151805161279b916009840191602090910190613d0c565b50610140820151600a820155610160820151600b8201805460ff191660018360088111156127d957634e487b7160e01b600052602160045260246000fd5b0217905550610180820151600b82018054610100600160a81b0319166101006001600160a01b03938416021790556101a090920151600c9091015583511660009081526101626020908152604080832080546001818101835591855283852001869055858452610163909252808320805460ff1916831790556101678054928301815583527f025f925b23c02f7114773957b1a876f2af957c14a29118dc622648c445020dcf9091018490555183917fa766684c28869a5bdb31e1d3a19837eaea87dd01c229298591e2b1499ef457ce91a250506110d4600160c955565b6128bf611ce9565b6128db5760405162461bcd60e51b8152600401610ab39061462f565b6128e3612d76565b6128eb612dd0565b6001600160a01b0381166129335760405162461bcd60e51b815260206004820152600f60248201526e496e76616c6964204164647265737360881b6044820152606401610ab3565b6000828152610163602052604090205460ff1615156001146129675760405162461bcd60e51b8152600401610ab390614386565b600082815261016160205260408120600b015460ff16600881111561299c57634e487b7160e01b600052602160045260246000fd5b146129b95760405162461bcd60e51b8152600401610ab390614487565b60008281526101646020908152604080832080546001600160a01b0319166001600160a01b03861690811790915583526101658252808320805460018101825590845291909220018390555182907f81a8cc326552975e026b95af66160089977878872dbcc51c3973ddaa11af49f890610d4c9084906141ae565b6000818152610163602052604090205460609060ff161515600114612a6b5760405162461bcd60e51b8152600401610ab390614386565b60008281526101616020908152604080832081516101c0810183528154815260018201546001600160a01b0316938101939093526002810180549192840191612ab390614839565b80601f0160208091040260200160405190810160405280929190818152602001828054612adf90614839565b8015612b2c5780601f10612b0157610100808354040283529160200191612b2c565b820191906000526020600020905b815481529060010190602001808311612b0f57829003601f168201915b50505050508152602001600382018054612b4590614839565b80601f0160208091040260200160405190810160405280929190818152602001828054612b7190614839565b8015612bbe5780601f10612b9357610100808354040283529160200191612bbe565b820191906000526020600020905b815481529060010190602001808311612ba157829003601f168201915b5050509183525050600482015460209091019060ff166001811115612bf357634e487b7160e01b600052602160045260246000fd5b6001811115612c1257634e487b7160e01b600052602160045260246000fd5b815260200160058201548152602001600682015481526020016007820154815260200160088201548152602001600982018054612c4e90614839565b80601f0160208091040260200160405190810160405280929190818152602001828054612c7a90614839565b8015612cc75780601f10612c9c57610100808354040283529160200191612cc7565b820191906000526020600020905b815481529060010190602001808311612caa57829003601f168201915b5050509183525050600a8201546020820152600b82015460409091019060ff166008811115612d0657634e487b7160e01b600052602160045260246000fd5b6008811115612d2557634e487b7160e01b600052602160045260246000fd5b8152600b82015461010090046001600160a01b03166020820152600c9091015460409182015201519392505050565b6101678181548110612d6557600080fd5b600091825260209091200154905081565b600260c9541415612dc95760405162461bcd60e51b815260206004820152601f60248201527f5265656e7472616e637947756172643a207265656e7472616e742063616c6c006044820152606401610ab3565b600260c955565b60975460ff161561110c5760405162461bcd60e51b815260206004820152601060248201526f14185d5cd8589b194e881c185d5cd95960821b6044820152606401610ab3565b6000818152610163602052604090205460ff161515600114612e4a5760405162461bcd60e51b8152600401610ab390614386565b6002600082815261016160205260409020600b015460ff166008811115612e8157634e487b7160e01b600052602160045260246000fd5b14612ece5760405162461bcd60e51b815260206004820152601b60248201527f4f70706f7274756e697479206973206e6f7420617070726f76656400000000006044820152606401610ab3565b6000818152610161602052604090819020600b8101805460ff19166004908117909155610160549251636902622f60e11b81526001600160a01b039093169263d204c45e92612f25923392600990920191016141c2565b600060405180830381600087803b158015612f3f57600080fd5b505af1158015612f53573d6000803e3d6000fd5b5050505050565b60006004600083815261016160205260409020600b015460ff166008811115612f9357634e487b7160e01b600052602160045260246000fd5b14612ff55760405162461bcd60e51b815260206004820152602c60248201527f436f6c6c61746572616c206f6620746865204f70706f7274756e69747920697360448201526b103737ba1036b4b73a32b21760a11b6064820152608401610ab3565b6000828152610163602052604090205460ff1615156001146130295760405162461bcd60e51b8152600401610ab390614386565b61015f54600090613042906001600160a01b031661373c565b905061304d81613754565b61015f54600085815261016160205260409020805460058201546006830154600784015460088501546004909501549698506001600160a01b03808a169763c4f31a6597909116959060ff1660018111156130b857634e487b7160e01b600052602160045260246000fd5b6040516001600160e01b031960e08a901b1681526001600160a01b039097166004880152602487019590955260448601939093526064850191909152608484015260a483015260ff1660c482015260e401600060405180830381600087803b15801561312357600080fd5b505af1158015613137573d6000803e3d6000fd5b5050506000848152610161602052604090819020600b0180546001600160a81b03191660ff196101006001600160a01b0388160216176005179055518491507f34f84fab123faaecd80f600c68a0800a3e47c8a81e487723b1d6f454ec5ee766906131a39085906141ae565b60405180910390a250919050565b600160c955565b6110d481336137a6565b6131cc828261191d565b610d5e5760008281526065602090815260408083206001600160a01b03851684529091529020805460ff191660011790556132043390565b6001600160a01b0316816001600160a01b0316837f2f8788117e7eff1d82e926ec794901d17c78024a50270940304540a733656f0d60405160405180910390a45050565b60006001600160a01b03821663b93f9b0a60095b6040518263ffffffff1660e01b815260040161327a91815260200190565b60206040518083038186803b15801561329257600080fd5b505afa1580156132a6573d6000803e3d6000fd5b505050506040513d601f19601f820116820180604052508101906108359190613e70565b6132d4828261191d565b15610d5e5760008281526065602090815260408083206001600160a01b0385168085529252808320805460ff1916905551339285917ff6391f5c32d9c69d2a47ea670b442974b53935d1edc7fd64eb21e047a839171b9190a45050565b6000805160206148cc833981519152546001600160a01b031690565b613355611ce9565b6110d45760405162461bcd60e51b8152600401610ab39061462f565b7f4910fdfa16fed3260ed0e7147f7cc6da11a60208b5b9406d12a635614ffd91435460ff16156133a457610d87836137ff565b826001600160a01b03166352d1902d6040518163ffffffff1660e01b815260040160206040518083038186803b1580156133dd57600080fd5b505afa92505050801561340d575060408051601f3d908101601f1916820190925261340a91810190613f30565b60015b6134705760405162461bcd60e51b815260206004820152602e60248201527f45524331393637557067726164653a206e657720696d706c656d656e7461746960448201526d6f6e206973206e6f74205555505360901b6064820152608401610ab3565b6000805160206148cc83398151915281146134df5760405162461bcd60e51b815260206004820152602960248201527f45524331393637557067726164653a20756e737570706f727465642070726f786044820152681a58589b195555525160ba1b6064820152608401610ab3565b50610d8783838361389b565b7f65d7a28e3265b37a6474929f336521b332c1681b933f6cb9f3376673440d862a90565b6135176138c6565b6097805460ff191690557f5db9ee0a495bf2e6ff9c91a7834c1ba4fdd244a5e8aa4e537bd38aeae4b073aa335b60405161355191906141ae565b60405180910390a1565b600054610100900460ff166135825760405162461bcd60e51b8152600401610ab39061459b565b6097805460ff19169055565b613596612dd0565b6097805460ff191660011790557f62e78cea01bee320cd4e420270b5ea74000d11b0c9f74754ebdbfc544b05a2586135443390565b600054610100900460ff1661110c5760405162461bcd60e51b8152600401610ab39061459b565b600054610100900460ff166131b15760405162461bcd60e51b8152600401610ab39061459b565b7fa49807205ce4d355092ef5a8a18f56e8913cf4a201fbe287825b095693c2177590565b610d5e82826131c2565b600082815260656020526040808220600101805490849055905190918391839186917fbd79b86ffe0ab8e8776151514217cd7cacd52c909f66475c3af44e129f0b00ff9190a4505050565b60006001600160a01b03821663b93f9b0a8261325c565b60006001600160a01b03821663b93f9b0a600561325c565b604051631f8ac6cb60e31b8152600560048201526000906001600160a01b0383169063fc5636589060240160206040518083038186803b15801561370457600080fd5b505afa158015613718573d6000803e3d6000fd5b505050506040513d601f19601f820116820180604052508101906108359190613f30565b60006001600160a01b03821663b93f9b0a600461325c565b6000808260601b9050604051733d602d80600a3d3981f3363d3d373d3d3d363d7360601b81528160148201526e5af43d82803e903d91602b57fd5bf360881b60288201526037816000f0949350505050565b6137b0828261191d565b610d5e576137bd8161390f565b6137c8836020613921565b6040516020016137d992919061413f565b60408051601f198184030181529082905262461bcd60e51b8252610ab391600401614373565b6001600160a01b0381163b61386c5760405162461bcd60e51b815260206004820152602d60248201527f455243313936373a206e657720696d706c656d656e746174696f6e206973206e60448201526c1bdd08184818dbdb9d1c9858dd609a1b6064820152608401610ab3565b6000805160206148cc83398151915280546001600160a01b0319166001600160a01b0392909216919091179055565b6138a483613b0a565b6000825111806138b15750805b15610d87576138c08383613b4a565b50505050565b60975460ff1661110c5760405162461bcd60e51b815260206004820152601460248201527314185d5cd8589b194e881b9bdd081c185d5cd95960621b6044820152606401610ab3565b60606108356001600160a01b03831660145b606060006139308360026147d7565b61393b9060026147bf565b67ffffffffffffffff81111561396157634e487b7160e01b600052604160045260246000fd5b6040519080825280601f01601f19166020018201604052801561398b576020820181803683370190505b509050600360fc1b816000815181106139b457634e487b7160e01b600052603260045260246000fd5b60200101906001600160f81b031916908160001a905350600f60fb1b816001815181106139f157634e487b7160e01b600052603260045260246000fd5b60200101906001600160f81b031916908160001a9053506000613a158460026147d7565b613a209060016147bf565b90505b6001811115613ab4576f181899199a1a9b1b9c1cb0b131b232b360811b85600f1660108110613a6257634e487b7160e01b600052603260045260246000fd5b1a60f81b828281518110613a8657634e487b7160e01b600052603260045260246000fd5b60200101906001600160f81b031916908160001a90535060049490941c93613aad81614822565b9050613a23565b508315613b035760405162461bcd60e51b815260206004820181905260248201527f537472696e67733a20686578206c656e67746820696e73756666696369656e746044820152606401610ab3565b9392505050565b613b13816137ff565b6040516001600160a01b038216907fbc7cd75a20ee27fd9adebab32041f755214dbc6bffa90cc0225b39da2e5c2d3b90600090a250565b60606001600160a01b0383163b613bb25760405162461bcd60e51b815260206004820152602660248201527f416464726573733a2064656c65676174652063616c6c20746f206e6f6e2d636f6044820152651b9d1c9858dd60d21b6064820152608401610ab3565b600080846001600160a01b031684604051613bcd9190614123565b600060405180830381855af49150503d8060008114613c08576040519150601f19603f3d011682016040523d82523d6000602084013e613c0d565b606091505b5091509150613c3582826040518060600160405280602781526020016148ec60279139613c3e565b95945050505050565b60608315613c4d575081613b03565b613b038383815115613c625781518083602001fd5b8060405162461bcd60e51b8152600401610ab39190614373565b604080516101c081018252600080825260208201819052606092820183905282820192909252906080820190815260200160008152602001600081526020016000815260200160008152602001606081526020016000815260200160006008811115613cf857634e487b7160e01b600052602160045260246000fd5b815260006020820181905260409091015290565b828054613d1890614839565b90600052602060002090601f016020900481019282613d3a5760008555613d80565b82601f10613d5357805160ff1916838001178555613d80565b82800160010185558215613d80579182015b82811115613d80578251825591602001919060010190613d65565b50613d8c929150613d90565b5090565b5b80821115613d8c5760008155600101613d91565b600067ffffffffffffffff80841115613dc057613dc06148a0565b604051601f8501601f19908116603f01168101908282118183101715613de857613de86148a0565b81604052809350858152868686011115613e0157600080fd5b858560208301376000602087830101525050509392505050565b8035611197816148b6565b80356002811061119757600080fd5b600082601f830112613e45578081fd5b613b0383833560208501613da5565b600060208284031215613e65578081fd5b8135613b03816148b6565b600060208284031215613e81578081fd5b8151613b03816148b6565b60008060408385031215613e9e578081fd5b8235613ea9816148b6565b9150602083013567ffffffffffffffff811115613ec4578182fd5b8301601f81018513613ed4578182fd5b613ee385823560208401613da5565b9150509250929050565b60008060408385031215613eff578182fd5b8235613f0a816148b6565b946020939093013593505050565b600060208284031215613f29578081fd5b5035919050565b600060208284031215613f41578081fd5b5051919050565b60008060408385031215613f5a578182fd5b823591506020830135613f6c816148b6565b809150509250929050565b60008060408385031215613f89578182fd5b82359150602083013560ff81168114613f6c578182fd5b600060208284031215613fb1578081fd5b81356001600160e01b031981168114613b03578182fd5b600060208284031215613fd9578081fd5b813567ffffffffffffffff80821115613ff0578283fd5b908301906101408286031215614004578283fd5b61400c614795565b61401583613e1b565b8152602083013582811115614028578485fd5b61403487828601613e35565b60208301525060408301358281111561404b578485fd5b61405787828601613e35565b60408301525061406960608401613e26565b60608201526080830135608082015260a083013560a082015260c083013560c082015260e083013560e082015261010080840135838111156140a9578586fd5b6140b588828701613e35565b91830191909152506101209283013592810192909252509392505050565b600281106140e3576140e361488a565b9052565b600981106140e3576140e361488a565b6000815180845261410f8160208601602086016147f6565b601f01601f19169290920160200192915050565b600082516141358184602087016147f6565b9190910192915050565b76020b1b1b2b9b9a1b7b73a3937b61d1030b1b1b7bab73a1604d1b8152600083516141718160178501602088016147f6565b7001034b99036b4b9b9b4b733903937b6329607d1b60179184019182015283516141a28160288401602088016147f6565b01602801949350505050565b6001600160a01b0391909116815260200190565b60018060a01b03831681526000602060408184015281845483600182811c9150808316806141f157607f831692505b85831081141561420f57634e487b7160e01b87526022600452602487fd5b604088018390526060880181801561422e576001811461423f57614269565b60ff19861682528782019650614269565b60008b815260209020895b868110156142635781548482015290850190890161424a565b83019750505b50949a9950505050505050505050565b6020808252825182820181905260009190848201906040850190845b818110156142b157835183529284019291840191600101614295565b50909695505050505050565b8e81526001600160a01b038e1660208201526101c0604082015260006142e76101c083018f6140f7565b82810360608401526142f9818f6140f7565b9050614308608084018e6140d3565b8b60a08401528a60c08401528960e08401528861010084015282810361012084015261433481896140f7565b9150508561014083015261434c6101608301866140e7565b6001600160a01b03939093166101808201526101a001529c9b505050505050505050505050565b602081526000613b0360208301846140f7565b6020808252601c908201527f4f70706f7274756e69747920494420646f65736e277420657869737400000000604082015260600190565b602080825260189082015277696e76616c696420626f72726f776572206164647265737360401b604082015260600190565b6020808252602c908201527f4d75737420686176652070617573657220726f6c6520746f20706572666f726d60408201526b103a3434b99030b1ba34b7b760a11b606082015260800190565b6020808252602c908201527f46756e6374696f6e206d7573742062652063616c6c6564207468726f7567682060408201526b19195b1959d85d1958d85b1b60a21b606082015260800190565b6020808252601d908201527f4f70706f7274756e69747920697320616c7265616479204a7564676564000000604082015260600190565b6020808252602c908201527f46756e6374696f6e206d7573742062652063616c6c6564207468726f7567682060408201526b6163746976652070726f787960a01b606082015260800190565b6020808252602e908201527f496e697469616c697a61626c653a20636f6e747261637420697320616c72656160408201526d191e481a5b9a5d1a585b1a5e995960921b606082015260800190565b60208082526023908201527f4f70706f7274756e69747920506f6f6c206973206e6f742063726561746564206040820152621e595d60ea1b606082015260800190565b6020808252602b908201527f496e697469616c697a61626c653a20636f6e7472616374206973206e6f74206960408201526a6e697469616c697a696e6760a81b606082015260800190565b60208082526029908201527f4f70706f7274756e69747920706f6f6c20697320686176656e277420647261776040820152683237bbb7103cb2ba1760b91b606082015260800190565b6020808252602b908201527f4d75737420686176652061646d696e20726f6c6520746f20706572666f726d2060408201526a3a3434b99030b1ba34b7b760a91b606082015260800190565b6020815281516020820152600060208301516146a160408401826001600160a01b03169052565b5060408301516101c08060608501526146be6101e08501836140f7565b91506060850151601f19808685030160808701526146dc84836140f7565b9350608087015191506146f260a08701836140d3565b60a087015160c087015260c087015160e087015260e0870151915061010082818801528088015192505061012082818801528088015192505061014081878603018188015261474185846140f7565b908801516101608881019190915288015190945091506101809050614768818701836140e7565b86015190506101a0614784868201836001600160a01b03169052565b959095015193019290925250919050565b604051610140810167ffffffffffffffff811182821017156147b9576147b96148a0565b60405290565b600082198211156147d2576147d2614874565b500190565b60008160001904831182151516156147f1576147f1614874565b500290565b60005b838110156148115781810151838201526020016147f9565b838111156138c05750506000910152565b60008161483157614831614874565b506000190190565b600181811c9082168061484d57607f821691505b6020821081141561486e57634e487b7160e01b600052602260045260246000fd5b50919050565b634e487b7160e01b600052601160045260246000fd5b634e487b7160e01b600052602160045260246000fd5b634e487b7160e01b600052604160045260246000fd5b6001600160a01b03811681146110d457600080fdfe360894a13ba1a3210667c828492db98dca3e2076cc3735a920a3ca505d382bbc416464726573733a206c6f772d6c6576656c2064656c65676174652063616c6c206661696c6564a2646970667358221220f89736b747472627cac7a4311ac023d5d94e239889ffee1490952d6d63d9fe6f64736f6c63430008040033",
  "linkReferences": {},
  "deployedLinkReferences": {}
}