{
  "_format": "hh-sol-artifact-1",
  "contractName": "OpportunityOrigination",
  "sourceName": "contracts/protocol/OpportunityOrigination.sol",
  "abi": [
    {
      "anonymous": false,
      "inputs": [
        {
          "indexed": false,
          "internalType": "uint8",
          "name": "version",
          "type": "uint8"
        }
      ],
      "name": "Initialized",
      "type": "event"
    },
    {
      "anonymous": false,
      "inputs": [
        {
          "indexed": false,
          "internalType": "address",
          "name": "account",
          "type": "address"
        }
      ],
      "name": "Paused",
      "type": "event"
    },
    {
      "anonymous": false,
      "inputs": [
        {
          "indexed": true,
          "internalType": "bytes32",
          "name": "role",
          "type": "bytes32"
        },
        {
          "indexed": true,
          "internalType": "bytes32",
          "name": "previousAdminRole",
          "type": "bytes32"
        },
        {
          "indexed": true,
          "internalType": "bytes32",
          "name": "newAdminRole",
          "type": "bytes32"
        }
      ],
      "name": "RoleAdminChanged",
      "type": "event"
    },
    {
      "anonymous": false,
      "inputs": [
        {
          "indexed": true,
          "internalType": "bytes32",
          "name": "role",
          "type": "bytes32"
        },
        {
          "indexed": true,
          "internalType": "address",
          "name": "account",
          "type": "address"
        },
        {
          "indexed": true,
          "internalType": "address",
          "name": "sender",
          "type": "address"
        }
      ],
      "name": "RoleGranted",
      "type": "event"
    },
    {
      "anonymous": false,
      "inputs": [
        {
          "indexed": true,
          "internalType": "bytes32",
          "name": "role",
          "type": "bytes32"
        },
        {
          "indexed": true,
          "internalType": "address",
          "name": "account",
          "type": "address"
        },
        {
          "indexed": true,
          "internalType": "address",
          "name": "sender",
          "type": "address"
        }
      ],
      "name": "RoleRevoked",
      "type": "event"
    },
    {
      "anonymous": false,
      "inputs": [
        {
          "indexed": false,
          "internalType": "address",
          "name": "account",
          "type": "address"
        }
      ],
      "name": "Unpaused",
      "type": "event"
    },
    {
      "inputs": [],
      "name": "ADMIN_ROLE",
      "outputs": [
        {
          "internalType": "bytes32",
          "name": "",
          "type": "bytes32"
        }
      ],
      "stateMutability": "view",
      "type": "function"
    },
    {
      "inputs": [],
      "name": "DEFAULT_ADMIN_ROLE",
      "outputs": [
        {
          "internalType": "bytes32",
          "name": "",
          "type": "bytes32"
        }
      ],
      "stateMutability": "view",
      "type": "function"
    },
    {
      "inputs": [],
      "name": "PAUSER_ROLE",
      "outputs": [
        {
          "internalType": "bytes32",
          "name": "",
          "type": "bytes32"
        }
      ],
      "stateMutability": "view",
      "type": "function"
    },
    {
      "inputs": [
        {
          "internalType": "address",
          "name": "owner",
          "type": "address"
        }
      ],
      "name": "_BaseUpgradeablePausable_init",
      "outputs": [],
      "stateMutability": "nonpayable",
      "type": "function"
    },
    {
      "inputs": [],
      "name": "__PauserPausable__init",
      "outputs": [],
      "stateMutability": "nonpayable",
      "type": "function"
    },
    {
      "inputs": [
        {
          "internalType": "bytes32",
          "name": "_opportunityId",
          "type": "bytes32"
        },
        {
          "internalType": "address",
          "name": "_underwriter",
          "type": "address"
        }
      ],
      "name": "assignUnderwriters",
      "outputs": [],
      "stateMutability": "nonpayable",
      "type": "function"
    },
    {
      "inputs": [],
      "name": "collateralToken",
      "outputs": [
        {
          "internalType": "contract CollateralToken",
          "name": "",
          "type": "address"
        }
      ],
      "stateMutability": "view",
      "type": "function"
    },
    {
      "inputs": [
        {
          "internalType": "address",
          "name": "_borrower",
          "type": "address"
        },
        {
          "internalType": "string",
          "name": "_opportunityInfo",
          "type": "string"
        },
        {
          "internalType": "uint8",
          "name": "_loanType",
          "type": "uint8"
        },
        {
          "internalType": "uint256",
          "name": "_loanAmount",
          "type": "uint256"
        },
        {
          "internalType": "uint256",
          "name": "_loanTenureInDays",
          "type": "uint256"
        },
        {
          "internalType": "uint256",
          "name": "_loanInterest",
          "type": "uint256"
        },
        {
          "internalType": "uint256",
          "name": "_paymentFrequencyInDays",
          "type": "uint256"
        },
        {
          "internalType": "string",
          "name": "_collateralDocument",
          "type": "string"
        },
        {
          "internalType": "uint256",
          "name": "_capitalLoss",
          "type": "uint256"
        }
      ],
      "name": "createOpportunity",
      "outputs": [],
      "stateMutability": "nonpayable",
      "type": "function"
    },
    {
      "inputs": [],
      "name": "dygnifyConfig",
      "outputs": [
        {
          "internalType": "contract DygnifyConfig",
          "name": "",
          "type": "address"
        }
      ],
      "stateMutability": "view",
      "type": "function"
    },
    {
      "inputs": [
        {
          "internalType": "address",
          "name": "borrower",
          "type": "address"
        }
      ],
      "name": "getAlltheOpportunitiesOf",
      "outputs": [
        {
          "internalType": "bytes32[]",
          "name": "",
          "type": "bytes32[]"
        }
      ],
      "stateMutability": "view",
      "type": "function"
    },
    {
      "inputs": [
        {
          "internalType": "bytes32",
          "name": "id",
          "type": "bytes32"
        }
      ],
      "name": "getBorrower",
      "outputs": [
        {
          "internalType": "address",
          "name": "",
          "type": "address"
        }
      ],
      "stateMutability": "view",
      "type": "function"
    },
    {
      "inputs": [
        {
          "internalType": "address",
          "name": "_borrower",
          "type": "address"
        }
      ],
      "name": "getOpportunityOf",
      "outputs": [
        {
          "internalType": "bytes32[]",
          "name": "",
          "type": "bytes32[]"
        }
      ],
      "stateMutability": "view",
      "type": "function"
    },
    {
      "inputs": [
        {
          "internalType": "bytes32",
          "name": "id",
          "type": "bytes32"
        }
      ],
      "name": "getOpportunityPoolAddress",
      "outputs": [
        {
          "internalType": "address",
          "name": "",
          "type": "address"
        }
      ],
      "stateMutability": "view",
      "type": "function"
    },
    {
      "inputs": [
        {
          "internalType": "bytes32",
          "name": "role",
          "type": "bytes32"
        }
      ],
      "name": "getRoleAdmin",
      "outputs": [
        {
          "internalType": "bytes32",
          "name": "",
          "type": "bytes32"
        }
      ],
      "stateMutability": "view",
      "type": "function"
    },
    {
      "inputs": [],
      "name": "getTotalOpportunities",
      "outputs": [
        {
          "internalType": "uint256",
          "name": "",
          "type": "uint256"
        }
      ],
      "stateMutability": "view",
      "type": "function"
    },
    {
      "inputs": [
        {
          "internalType": "address",
          "name": "_underwriter",
          "type": "address"
        }
      ],
      "name": "getUnderWritersOpportunities",
      "outputs": [
        {
          "internalType": "bytes32[]",
          "name": "",
          "type": "bytes32[]"
        }
      ],
      "stateMutability": "view",
      "type": "function"
    },
    {
      "inputs": [
        {
          "internalType": "bytes32",
          "name": "role",
          "type": "bytes32"
        },
        {
          "internalType": "address",
          "name": "account",
          "type": "address"
        }
      ],
      "name": "grantRole",
      "outputs": [],
      "stateMutability": "nonpayable",
      "type": "function"
    },
    {
      "inputs": [
        {
          "internalType": "bytes32",
          "name": "role",
          "type": "bytes32"
        },
        {
          "internalType": "address",
          "name": "account",
          "type": "address"
        }
      ],
      "name": "hasRole",
      "outputs": [
        {
          "internalType": "bool",
          "name": "",
          "type": "bool"
        }
      ],
      "stateMutability": "view",
      "type": "function"
    },
    {
      "inputs": [
        {
          "internalType": "contract DygnifyConfig",
          "name": "config",
          "type": "address"
        }
      ],
      "name": "initialize",
      "outputs": [],
      "stateMutability": "nonpayable",
      "type": "function"
    },
    {
      "inputs": [
        {
          "internalType": "bytes32",
          "name": "id",
          "type": "bytes32"
        }
      ],
      "name": "isActive",
      "outputs": [
        {
          "internalType": "bool",
          "name": "",
          "type": "bool"
        }
      ],
      "stateMutability": "view",
      "type": "function"
    },
    {
      "inputs": [],
      "name": "isAdmin",
      "outputs": [
        {
          "internalType": "bool",
          "name": "",
          "type": "bool"
        }
      ],
      "stateMutability": "view",
      "type": "function"
    },
    {
      "inputs": [
        {
          "internalType": "bytes32",
          "name": "id",
          "type": "bytes32"
        }
      ],
      "name": "isDrawdown",
      "outputs": [
        {
          "internalType": "bool",
          "name": "",
          "type": "bool"
        }
      ],
      "stateMutability": "view",
      "type": "function"
    },
    {
      "inputs": [
        {
          "internalType": "bytes32",
          "name": "",
          "type": "bytes32"
        }
      ],
      "name": "isOpportunity",
      "outputs": [
        {
          "internalType": "bool",
          "name": "",
          "type": "bool"
        }
      ],
      "stateMutability": "view",
      "type": "function"
    },
    {
      "inputs": [
        {
          "internalType": "bytes32",
          "name": "id",
          "type": "bytes32"
        }
      ],
      "name": "isRepaid",
      "outputs": [
        {
          "internalType": "bool",
          "name": "",
          "type": "bool"
        }
      ],
      "stateMutability": "view",
      "type": "function"
    },
    {
      "inputs": [
        {
          "internalType": "bytes32",
          "name": "id",
          "type": "bytes32"
        }
      ],
      "name": "markDrawDown",
      "outputs": [],
      "stateMutability": "nonpayable",
      "type": "function"
    },
    {
      "inputs": [
        {
          "internalType": "bytes32",
          "name": "id",
          "type": "bytes32"
        }
      ],
      "name": "markRepaid",
      "outputs": [],
      "stateMutability": "nonpayable",
      "type": "function"
    },
    {
      "inputs": [
        {
          "internalType": "uint256",
          "name": "",
          "type": "uint256"
        }
      ],
      "name": "opportunityIds",
      "outputs": [
        {
          "internalType": "bytes32",
          "name": "",
          "type": "bytes32"
        }
      ],
      "stateMutability": "view",
      "type": "function"
    },
    {
      "inputs": [
        {
          "internalType": "address",
          "name": "",
          "type": "address"
        },
        {
          "internalType": "uint256",
          "name": "",
          "type": "uint256"
        }
      ],
      "name": "opportunityOf",
      "outputs": [
        {
          "internalType": "bytes32",
          "name": "",
          "type": "bytes32"
        }
      ],
      "stateMutability": "view",
      "type": "function"
    },
    {
      "inputs": [
        {
          "internalType": "bytes32",
          "name": "",
          "type": "bytes32"
        }
      ],
      "name": "opportunityToId",
      "outputs": [
        {
          "internalType": "bytes32",
          "name": "opportunityID",
          "type": "bytes32"
        },
        {
          "internalType": "address",
          "name": "borrower",
          "type": "address"
        },
        {
          "internalType": "string",
          "name": "opportunityInfo",
          "type": "string"
        },
        {
          "internalType": "enum IOpportunityOrigination.LoanType",
          "name": "loanType",
          "type": "uint8"
        },
        {
          "internalType": "uint256",
          "name": "loanAmount",
          "type": "uint256"
        },
        {
          "internalType": "uint256",
          "name": "loanTenureInDays",
          "type": "uint256"
        },
        {
          "internalType": "uint256",
          "name": "loanInterest",
          "type": "uint256"
        },
        {
          "internalType": "uint256",
          "name": "paymentFrequencyInDays",
          "type": "uint256"
        },
        {
          "internalType": "string",
          "name": "collateralDocument",
          "type": "string"
        },
        {
          "internalType": "uint256",
          "name": "capitalLoss",
          "type": "uint256"
        },
        {
          "internalType": "enum IOpportunityOrigination.OpportunityStatus",
          "name": "opportunityStatus",
          "type": "uint8"
        },
        {
          "internalType": "address",
          "name": "opportunityPoolAddress",
          "type": "address"
        },
        {
          "internalType": "uint256",
          "name": "createdOn",
          "type": "uint256"
        }
      ],
      "stateMutability": "view",
      "type": "function"
    },
    {
      "inputs": [],
      "name": "pause",
      "outputs": [],
      "stateMutability": "nonpayable",
      "type": "function"
    },
    {
      "inputs": [],
      "name": "paused",
      "outputs": [
        {
          "internalType": "bool",
          "name": "",
          "type": "bool"
        }
      ],
      "stateMutability": "view",
      "type": "function"
    },
    {
      "inputs": [
        {
          "internalType": "bytes32",
          "name": "role",
          "type": "bytes32"
        },
        {
          "internalType": "address",
          "name": "account",
          "type": "address"
        }
      ],
      "name": "renounceRole",
      "outputs": [],
      "stateMutability": "nonpayable",
      "type": "function"
    },
    {
      "inputs": [
        {
          "internalType": "bytes32",
          "name": "role",
          "type": "bytes32"
        },
        {
          "internalType": "address",
          "name": "account",
          "type": "address"
        }
      ],
      "name": "revokeRole",
      "outputs": [],
      "stateMutability": "nonpayable",
      "type": "function"
    },
    {
      "inputs": [
        {
          "internalType": "bytes4",
          "name": "interfaceId",
          "type": "bytes4"
        }
      ],
      "name": "supportsInterface",
      "outputs": [
        {
          "internalType": "bool",
          "name": "",
          "type": "bool"
        }
      ],
      "stateMutability": "view",
      "type": "function"
    },
    {
      "inputs": [
        {
          "internalType": "address",
          "name": "",
          "type": "address"
        },
        {
          "internalType": "uint256",
          "name": "",
          "type": "uint256"
        }
      ],
      "name": "underwriterToOpportunity",
      "outputs": [
        {
          "internalType": "bytes32",
          "name": "",
          "type": "bytes32"
        }
      ],
      "stateMutability": "view",
      "type": "function"
    },
    {
      "inputs": [],
      "name": "unpause",
      "outputs": [],
      "stateMutability": "nonpayable",
      "type": "function"
    },
    {
      "inputs": [
        {
          "internalType": "bytes32",
          "name": "_opportunityId",
          "type": "bytes32"
        },
        {
          "internalType": "uint8",
          "name": "_status",
          "type": "uint8"
        }
      ],
      "name": "voteOpportunity",
      "outputs": [],
      "stateMutability": "nonpayable",
      "type": "function"
    }
  ],
  "bytecode": "0x608060405234801561001057600080fd5b50613878806100206000396000f3fe608060405234801561001057600080fd5b50600436106102775760003560e01c80637921c67d11610160578063af7ea944116100d8578063d547741f1161008c578063e63ab1e911610071578063e63ab1e914610577578063e87ec15f1461059e578063f1bae27d146105b157600080fd5b8063d547741f14610540578063e0bb77e31461055357600080fd5b8063b369be54116100bd578063b369be5414610512578063b6db75a014610525578063c4d66de81461052d57600080fd5b8063af7ea944146104ec578063b2016bd4146104ff57600080fd5b80638456cb591161012f57806391d148541161011457806391d1485414610498578063a12dde4d146104d1578063a217fddf146104e457600080fd5b80638456cb591461047d57806389eb01fc1461048557600080fd5b80637921c67d146104315780637a8f5560146104445780637e4dc6d514610457578063817671551461046a57600080fd5b806336568abe116101f3578063526d81f6116101c25780635c975abb116101a75780635c975abb146103ec578063728c3ea2146103f757806375b238fc1461040a57600080fd5b8063526d81f6146103d15780635c36901c146103d957600080fd5b806336568abe1461039a5780633f4ba83a146103ad5780634622abe0146103b5578063486caf7c146103c857600080fd5b80631be954591161024a5780632885f8b91161022f5780632885f8b9146103615780632f2ff15d14610374578063332f14861461038757600080fd5b80631be9545914610305578063248a9ca31461033057600080fd5b806301ffc9a71461027c5780630bca245a146102a45780630ddc3ac1146102d05780631633f5a3146102e5575b600080fd5b61028f61028a3660046133ee565b6105c4565b60405190151581526020015b60405180910390f35b6102b76102b236600461337c565b61062d565b60405161029b9d9c9b9a999897969594939291906135f3565b6102e36102de366004613289565b6107c2565b005b6102f86102f3366004613251565b610e5d565b60405161029b91906135af565b60fb54610318906001600160a01b031681565b6040516001600160a01b03909116815260200161029b565b61035361033e36600461337c565b60009081526065602052604090206001015490565b60405190815260200161029b565b6102e361036f3660046133c3565b610f23565b6102e3610382366004613394565b6111d1565b6102e361039536600461337c565b6111fb565b6102e36103a8366004613394565b611429565b6102e36114b5565b61028f6103c336600461337c565b61154a565b61010254610353565b6102e36115ef565b61028f6103e736600461337c565b61170f565b60975460ff1661028f565b61031861040536600461337c565b6117ac565b6103537fa49807205ce4d355092ef5a8a18f56e8913cf4a201fbe287825b095693c2177581565b61035361043f366004613351565b61181c565b610353610452366004613351565b61184d565b61031861046536600461337c565b61186a565b61028f61047836600461337c565b6119fc565b6102e3611a54565b6102f8610493366004613251565b611ae7565b61028f6104a6366004613394565b60009182526065602090815260408084206001600160a01b0393909316845291905290205460ff1690565b6102e36104df366004613251565b611baa565b610353600081565b6102e36104fa36600461337c565b611d4b565b60fc54610318906001600160a01b031681565b6102f8610520366004613251565b611f4f565b61028f612011565b6102e361053b366004613251565b612042565b6102e361054e366004613394565b61228b565b61028f61056136600461337c565b60ff602081905260009182526040909120541681565b6103537f65d7a28e3265b37a6474929f336521b332c1681b933f6cb9f3376673440d862a81565b6102e36105ac366004613394565b6122b0565b6103536105bf36600461337c565b612518565b60006001600160e01b031982167f7965db0b00000000000000000000000000000000000000000000000000000000148061062757507f01ffc9a7000000000000000000000000000000000000000000000000000000006001600160e01b03198316145b92915050565b60fd6020526000908152604090208054600182015460028301805492936001600160a01b039092169261065f906137a6565b80601f016020809104026020016040519081016040528092919081815260200182805461068b906137a6565b80156106d85780601f106106ad576101008083540402835291602001916106d8565b820191906000526020600020905b8154815290600101906020018083116106bb57829003601f168201915b5050505050908060030160009054906101000a900460ff1690806004015490806005015490806006015490806007015490806008018054610718906137a6565b80601f0160208091040260200160405190810160405280929190818152602001828054610744906137a6565b80156107915780601f1061076657610100808354040283529160200191610791565b820191906000526020600020905b81548152906001019060200180831161077457829003601f168201915b505050506009830154600a840154600b909401549293909260ff821692506101009091046001600160a01b0316908d565b600260c954141561081a5760405162461bcd60e51b815260206004820152601f60248201527f5265656e7472616e637947756172643a207265656e7472616e742063616c6c0060448201526064015b60405180910390fd5b600260c95561082761253a565b600160ff8916111561087b5760405162461bcd60e51b815260206004820152601760248201527f4c6f616e54797065203a204f7574206f662072616e67650000000000000000006044820152606401610811565b600087116108d65760405162461bcd60e51b815260206004820152602260248201527f4c6f616e20416d6f756e74204d7573742062652067726561746572207468616e604482015261020360f41b6064820152608401610811565b6001600160a01b038b1661092c5760405162461bcd60e51b815260206004820152601860248201527f696e76616c696420626f72726f776572206164647265737300000000000000006044820152606401610811565b600085116109a15760405162461bcd60e51b8152602060048201526024808201527f4c6f616e20496e746572657374204d757374206265206772656174657220746860448201527f616e2030000000000000000000000000000000000000000000000000000000006064820152608401610811565b600086116109fc5760405162461bcd60e51b815260206004820152602260248201527f4c6f616e2054656e757265204d7573742062652067726561746572207468616e604482015261020360f41b6064820152608401610811565b60008411610a725760405162461bcd60e51b815260206004820152602860248201527f5061796d656e74204672657175656e6379204d7573742062652067726561746560448201527f72207468616e20300000000000000000000000000000000000000000000000006064820152608401610811565b60008383604051602001610a879291906134f4565b60408051601f198184030181529181528151602092830120600081815260ff9384905291909120549092501615610b4c5760405162461bcd60e51b815260206004820152604660248201527f53616d6520636f6c6c61746f72616c20646f63756d656e74206973206265656e60448201527f207573656420746f2063726561746520646966666572656e74206f70706f727460648201527f756e6974792e0000000000000000000000000000000000000000000000000000608482015260a401610811565b610b546130d8565b8181526001600160a01b038d1660208083019190915260408051601f8e018390048302810183019091528c8152908d908d9081908401838280828437600092019190915250505050604082015260ff8a166001811115610bc457634e487b7160e01b600052602160045260246000fd5b81606001906001811115610be857634e487b7160e01b600052602160045260246000fd5b90816001811115610c0957634e487b7160e01b600052602160045260246000fd5b9052506080810189905260a0810188905260c0810187905260e08101869052604080516020601f8701819004810282018101909252858152908690869081908401838280828437600092018290525061010086019490945250505061012082018490524261018083015282815260fd6020908152604091829020835181558184015160018201805473ffffffffffffffffffffffffffffffffffffffff19166001600160a01b03909216919091179055918301518051849392610cd3926002850192910190613160565b50606082015160038201805460ff191660018381811115610d0457634e487b7160e01b600052602160045260246000fd5b02179055506080820151600482015560a0820151600582015560c0820151600682015560e082015160078201556101008201518051610d4d916008840191602090910190613160565b506101208201516009820155610140820151600a8201805460ff19166001836007811115610d8b57634e487b7160e01b600052602160045260246000fd5b0217905550610160820151600a820180547fffffffffffffffffffffff0000000000000000000000000000000000000000ff166101006001600160a01b039384160217905561018090920151600b909101559c909c16600090815260fe602090815260408083208054600181810183559185528385200185905584845260ff9092528220805460ff1916821790556101028054808301825592527f93bdaa6a4190909b7c3fbe8d42169ffe1cab19f51dfc8db24c71abf849eced4a9091019190915560c9555050505050505050505050565b60606001600160a01b038216610eb55760405162461bcd60e51b815260206004820152601b60248201527f496e76616c696420756e646572777269746572207364647265737300000000006044820152606401610811565b6001600160a01b03821660009081526101016020908152604080832080548251818502810185019093528083529192909190830182828015610f1657602002820191906000526020600020905b815481526020019060010190808311610f02575b5093979650505050505050565b600260c9541415610f765760405162461bcd60e51b815260206004820152601f60248201527f5265656e7472616e637947756172643a207265656e7472616e742063616c6c006044820152606401610811565b600260c955610f8361253a565b600082815261010060205260409020546001600160a01b031633146110105760405162461bcd60e51b815260206004820152602d60248201527f596f7520617265206e6f7420616e206175646969746f7220666f72207468697360448201527f204f70706f7274756e6974792e000000000000000000000000000000000000006064820152608401610811565b600082815260ff60208190526040909120541615156001146110625760405162461bcd60e51b815260206004820152601c60248201526000805160206138238339815191526044820152606401610811565b600160ff82161080159061107a5750600360ff821611155b6110c65760405162461bcd60e51b815260206004820152601560248201527f537461747573203a206f7574206f662072616e676500000000000000000000006044820152606401610811565b600082815260fd60205260408120600a015460ff1660078111156110fa57634e487b7160e01b600052602160045260246000fd5b146111475760405162461bcd60e51b815260206004820152601d60248201527f4f70706f7274756e69747920697320616c7265616479204a75646765640000006044820152606401610811565b8060ff16600781111561116a57634e487b7160e01b600052602160045260246000fd5b600083815260fd60205260409020600a01805460ff191660018360078111156111a357634e487b7160e01b600052602160045260246000fd5b021790555060ff8116600214156111c8576111bd8261258d565b6111c682612705565b505b5050600160c955565b6000828152606560205260409020600101546111ec81612957565b6111f68383612961565b505050565b600081815260ff602081905260409091205416151560011461124d5760405162461bcd60e51b815260206004820152601c60248201526000805160206138238339815191526044820152606401610811565b6006600082815260fd60205260409020600a015460ff16600781111561128357634e487b7160e01b600052602160045260246000fd5b146112f65760405162461bcd60e51b815260206004820152602960248201527f4f70706f7274756e69747920706f6f6c20697320686176656e2774206472617760448201527f646f776e207965742e00000000000000000000000000000000000000000000006064820152608401610811565b600081815260fd60205260409020600a015461010090046001600160a01b0316331461138a5760405162461bcd60e51b815260206004820152602b60248201527f4f6e6c79204f70706f7274756e69747920506f6f6c2063616e206d61726b206960448201527f74206173207265706169640000000000000000000000000000000000000000006064820152608401610811565b600081815260fd60205260409020600a015461010090046001600160a01b03166114025760405162461bcd60e51b815260206004820152602360248201527f4f70706f7274756e69747920506f6f6c206973206e6f742063726561746564206044820152621e595d60ea1b6064820152608401610811565b600081815260fd60205260409020600a0180546007919060ff19166001835b021790555050565b6001600160a01b03811633146114a75760405162461bcd60e51b815260206004820152602f60248201527f416363657373436f6e74726f6c3a2063616e206f6e6c792072656e6f756e636560448201527f20726f6c657320666f722073656c6600000000000000000000000000000000006064820152608401610811565b6114b18282612a03565b5050565b6114df7f65d7a28e3265b37a6474929f336521b332c1681b933f6cb9f3376673440d862a336104a6565b6115405760405162461bcd60e51b815260206004820152602c60248201527f4d75737420686176652070617573657220726f6c6520746f20706572666f726d60448201526b103a3434b99030b1ba34b7b760a11b6064820152608401610811565b611548612a86565b565b600081815260ff6020819052604082205416151560011461159b5760405162461bcd60e51b815260206004820152601c60248201526000805160206138238339815191526044820152606401610811565b600082815260fd60205260409020600a015460069060ff1660078111156115d257634e487b7160e01b600052602160045260246000fd5b60ff16106115e257506001919050565b506000919050565b919050565b600054610100900460ff161580801561160f5750600054600160ff909116105b806116295750303b158015611629575060005460ff166001145b61169b5760405162461bcd60e51b815260206004820152602e60248201527f496e697469616c697a61626c653a20636f6e747261637420697320616c72656160448201527f647920696e697469616c697a65640000000000000000000000000000000000006064820152608401610811565b6000805460ff1916600117905580156116be576000805461ff0019166101001790555b6116c6612ad8565b801561170c576000805461ff0019169055604051600181527f7f26b83ff96e1f2b6a682f133852f6798a09c465da95921460cefb38474024989060200160405180910390a15b50565b600081815260ff602081905260408220541615156001146117605760405162461bcd60e51b815260206004820152601c60248201526000805160206138238339815191526044820152606401610811565b60055b600083815260fd60205260409020600a015460ff9182169116600781111561179b57634e487b7160e01b600052602160045260246000fd5b60ff1614156115e257506001919050565b600081815260ff602081905260408220541615156001146117fd5760405162461bcd60e51b815260206004820152601c60248201526000805160206138238339815191526044820152606401610811565b50600090815260fd60205260409020600101546001600160a01b031690565b60fe602052816000526040600020818154811061183857600080fd5b90600052602060002001600091509150505481565b610101602052816000526040600020818154811061183857600080fd5b600081815260ff602081905260408220541615156001146118bb5760405162461bcd60e51b815260206004820152601c60248201526000805160206138238339815191526044820152606401610811565b600082815260fd60205260409020600a015460059060ff1660078111156118f257634e487b7160e01b600052602160045260246000fd5b60ff1610156119695760405162461bcd60e51b815260206004820152602b60248201527f4f70706f7274756e697479206d757374206265206163746976652f647261776e60448201527f646f776e2f7265706169640000000000000000000000000000000000000000006064820152608401610811565b600082815260fd60205260409020600a015461010090046001600160a01b0316806106275760405162461bcd60e51b815260206004820152602c60248201527f4f70706f7274756e69747920706f6f6c206164647265737320686176656e277460448201527f20637265617465642079657400000000000000000000000000000000000000006064820152608401610811565b600081815260ff60208190526040822054161515600114611a4d5760405162461bcd60e51b815260206004820152601c60248201526000805160206138238339815191526044820152606401610811565b6007611763565b611a7e7f65d7a28e3265b37a6474929f336521b332c1681b933f6cb9f3376673440d862a336104a6565b611adf5760405162461bcd60e51b815260206004820152602c60248201527f4d75737420686176652070617573657220726f6c6520746f20706572666f726d60448201526b103a3434b99030b1ba34b7b760a11b6064820152608401610811565b611548612b4f565b60606001600160a01b038216611b3f5760405162461bcd60e51b815260206004820152601860248201527f496e76616c696420426f72726f776572207364647265737300000000000000006044820152606401610811565b6001600160a01b038216600090815260fe6020908152604080832080548251818502810185019093528083529192909190830182828015610f165760200282019190600052602060002090815481526020019060010190808311610f02575093979650505050505050565b600054610100900460ff16611c155760405162461bcd60e51b815260206004820152602b60248201527f496e697469616c697a61626c653a20636f6e7472616374206973206e6f74206960448201526a6e697469616c697a696e6760a81b6064820152608401610811565b6001600160a01b038116611c6b5760405162461bcd60e51b815260206004820181905260248201527f4f776e65722063616e6e6f7420626520746865207a65726f20616464726573736044820152606401610811565b611c73612b8c565b611c7b612ad8565b611c83612bf7565b611cad7fa49807205ce4d355092ef5a8a18f56e8913cf4a201fbe287825b095693c2177582612c69565b611cd77f65d7a28e3265b37a6474929f336521b332c1681b933f6cb9f3376673440d862a82612c69565b611d217f65d7a28e3265b37a6474929f336521b332c1681b933f6cb9f3376673440d862a7fa49807205ce4d355092ef5a8a18f56e8913cf4a201fbe287825b095693c21775612c73565b61170c7fa49807205ce4d355092ef5a8a18f56e8913cf4a201fbe287825b095693c2177580612c73565b600081815260ff6020819052604090912054161515600114611d9d5760405162461bcd60e51b815260206004820152601c60248201526000805160206138238339815191526044820152606401610811565b6005600082815260fd60205260409020600a015460ff166007811115611dd357634e487b7160e01b600052602160045260246000fd5b14611e205760405162461bcd60e51b815260206004820152601e60248201527f4f70706f7274756e69747920706f6f6c206973206e6f742061637469766500006044820152606401610811565b600081815260fd60205260409020600a015461010090046001600160a01b03163314611eb45760405162461bcd60e51b815260206004820152602d60248201527f4f6e6c79204f70706f7274756e69747920506f6f6c2063616e206d61726b206960448201527f742061732064726177646f776e000000000000000000000000000000000000006064820152608401610811565b600081815260fd60205260409020600a015461010090046001600160a01b0316611f2c5760405162461bcd60e51b815260206004820152602360248201527f4f70706f7274756e69747920506f6f6c206973206e6f742063726561746564206044820152621e595d60ea1b6064820152608401610811565b600081815260fd60205260409020600a0180546006919060ff1916600183611421565b60606001600160a01b038216611fa75760405162461bcd60e51b815260206004820152601860248201527f696e76616c696420626f72726f776572206164647265737300000000000000006044820152606401610811565b6001600160a01b038216600090815260fe60209081526040918290208054835181840281018401909452808452909183018282801561200557602002820191906000526020600020905b815481526020019060010190808311611ff1575b50505050509050919050565b600061203d7fa49807205ce4d355092ef5a8a18f56e8913cf4a201fbe287825b095693c21775336104a6565b905090565b600054610100900460ff16158080156120625750600054600160ff909116105b8061207c5750303b15801561207c575060005460ff166001145b6120ee5760405162461bcd60e51b815260206004820152602e60248201527f496e697469616c697a61626c653a20636f6e747261637420697320616c72656160448201527f647920696e697469616c697a65640000000000000000000000000000000000006064820152608401610811565b6000805460ff191660011790558015612111576000805461ff0019166101001790555b6001600160a01b0382166121675760405162461bcd60e51b815260206004820152601660248201527f496e76616c696420636f6e6669672061646472657373000000000000000000006044820152606401610811565b60fb805473ffffffffffffffffffffffffffffffffffffffff19166001600160a01b03841690811790915560009061219e90612cbe565b90506001600160a01b0381166121f65760405162461bcd60e51b815260206004820152600d60248201527f496e76616c6964204f776e6572000000000000000000000000000000000000006044820152606401610811565b6121ff81611baa565b60fb54612214906001600160a01b0316612d3f565b60fc805473ffffffffffffffffffffffffffffffffffffffff19166001600160a01b03929092169190911790555080156114b1576000805461ff0019169055604051600181527f7f26b83ff96e1f2b6a682f133852f6798a09c465da95921460cefb38474024989060200160405180910390a15050565b6000828152606560205260409020600101546122a681612957565b6111f68383612a03565b6122b8612011565b61232a5760405162461bcd60e51b815260206004820152602b60248201527f4d75737420686176652061646d696e20726f6c6520746f20706572666f726d2060448201527f7468697320616374696f6e0000000000000000000000000000000000000000006064820152608401610811565b600260c954141561237d5760405162461bcd60e51b815260206004820152601f60248201527f5265656e7472616e637947756172643a207265656e7472616e742063616c6c006044820152606401610811565b600260c95561238a61253a565b6001600160a01b0381166123e05760405162461bcd60e51b815260206004820152600f60248201527f496e76616c6964204164647265737300000000000000000000000000000000006044820152606401610811565b600082815260ff60208190526040909120541615156001146124325760405162461bcd60e51b815260206004820152601c60248201526000805160206138238339815191526044820152606401610811565b600082815260fd60205260408120600a015460ff16600781111561246657634e487b7160e01b600052602160045260246000fd5b146124b35760405162461bcd60e51b815260206004820152601d60248201527f4f70706f7274756e69747920697320616c7265616479204a75646765640000006044820152606401610811565b600082815261010060205260408120829101805473ffffffffffffffffffffffffffffffffffffffff19166001600160a01b0392831617905516600090815261010160209081526040822080546001818101835591845291909220019190915560c955565b610102818154811061252957600080fd5b600091825260209091200154905081565b60975460ff16156115485760405162461bcd60e51b815260206004820152601060248201527f5061757361626c653a20706175736564000000000000000000000000000000006044820152606401610811565b600081815260ff60208190526040909120541615156001146125df5760405162461bcd60e51b815260206004820152601c60248201526000805160206138238339815191526044820152606401610811565b6002600082815260fd60205260409020600a015460ff16600781111561261557634e487b7160e01b600052602160045260246000fd5b146126625760405162461bcd60e51b815260206004820152601b60248201527f4f70706f7274756e697479206973206e6f7420617070726f76656400000000006044820152606401610811565b600081815260fd602052604090819020600a8101805460ff1916600490811790915560fc5492517fd204c45e0000000000000000000000000000000000000000000000000000000081526001600160a01b039093169263d204c45e926126d092339260089092019101613585565b600060405180830381600087803b1580156126ea57600080fd5b505af11580156126fe573d6000803e3d6000fd5b5050505050565b60006004600083815260fd60205260409020600a015460ff16600781111561273d57634e487b7160e01b600052602160045260246000fd5b146127b05760405162461bcd60e51b815260206004820152602c60248201527f436f6c6c61746572616c206f6620746865204f70706f7274756e69747920697360448201527f206e6f74206d696e7465642e00000000000000000000000000000000000000006064820152608401610811565b600082815260ff60208190526040909120541615156001146128025760405162461bcd60e51b815260206004820152601c60248201526000805160206138238339815191526044820152606401610811565b60fb5460009061281a906001600160a01b0316612d57565b905061282581612d6f565b60fb54600085815260fd60205260409020805460038201549395506001600160a01b038087169463d9f7130d94909116926002019060ff16600181111561287c57634e487b7160e01b600052602160045260246000fd5b600089815260fd602052604090819020600480820154600583015460068401546007850154600986015496516001600160e01b031960e08e901b1681526128d39b9a9998979496939592949193600801920161369d565b600060405180830381600087803b1580156128ed57600080fd5b505af1158015612901573d6000803e3d6000fd5b5050506000938452505060fd6020526040909120600a0180547fffffffffffffffffffffff0000000000000000000000000000000000000000001660ff196101006001600160a01b038516021617600517905590565b61170c8133612dd8565b60008281526065602090815260408083206001600160a01b038516845290915290205460ff166114b15760008281526065602090815260408083206001600160a01b03851684529091529020805460ff191660011790556129bf3390565b6001600160a01b0316816001600160a01b0316837f2f8788117e7eff1d82e926ec794901d17c78024a50270940304540a733656f0d60405160405180910390a45050565b60008281526065602090815260408083206001600160a01b038516845290915290205460ff16156114b15760008281526065602090815260408083206001600160a01b0385168085529252808320805460ff1916905551339285917ff6391f5c32d9c69d2a47ea670b442974b53935d1edc7fd64eb21e047a839171b9190a45050565b612a8e612e58565b6097805460ff191690557f5db9ee0a495bf2e6ff9c91a7834c1ba4fdd244a5e8aa4e537bd38aeae4b073aa335b6040516001600160a01b03909116815260200160405180910390a1565b600054610100900460ff16612b435760405162461bcd60e51b815260206004820152602b60248201527f496e697469616c697a61626c653a20636f6e7472616374206973206e6f74206960448201526a6e697469616c697a696e6760a81b6064820152608401610811565b6097805460ff19169055565b612b5761253a565b6097805460ff191660011790557f62e78cea01bee320cd4e420270b5ea74000d11b0c9f74754ebdbfc544b05a258612abb3390565b600054610100900460ff166115485760405162461bcd60e51b815260206004820152602b60248201527f496e697469616c697a61626c653a20636f6e7472616374206973206e6f74206960448201526a6e697469616c697a696e6760a81b6064820152608401610811565b600054610100900460ff16612c625760405162461bcd60e51b815260206004820152602b60248201527f496e697469616c697a61626c653a20636f6e7472616374206973206e6f74206960448201526a6e697469616c697a696e6760a81b6064820152608401610811565b600160c955565b6114b18282612961565b600082815260656020526040808220600101805490849055905190918391839186917fbd79b86ffe0ab8e8776151514217cd7cacd52c909f66475c3af44e129f0b00ff9190a4505050565b60006001600160a01b03821663b93f9b0a825b6040518263ffffffff1660e01b8152600401612cef91815260200190565b60206040518083038186803b158015612d0757600080fd5b505afa158015612d1b573d6000803e3d6000fd5b505050506040513d601f19601f82011682018060405250810190610627919061326d565b60006001600160a01b03821663b93f9b0a6005612cd1565b60006001600160a01b03821663b93f9b0a6004612cd1565b6000808260601b90506040517f3d602d80600a3d3981f3363d3d373d3d3d363d7300000000000000000000000081528160148201527f5af43d82803e903d91602b57fd5bf3000000000000000000000000000000000060288201526037816000f0949350505050565b60008281526065602090815260408083206001600160a01b038516845290915290205460ff166114b157612e16816001600160a01b03166014612eaa565b612e21836020612eaa565b604051602001612e32929190613504565b60408051601f198184030181529082905262461bcd60e51b825261081191600401613715565b60975460ff166115485760405162461bcd60e51b815260206004820152601460248201527f5061757361626c653a206e6f74207061757365640000000000000000000000006044820152606401610811565b60606000612eb9836002613740565b612ec4906002613728565b67ffffffffffffffff811115612eea57634e487b7160e01b600052604160045260246000fd5b6040519080825280601f01601f191660200182016040528015612f14576020820181803683370190505b5090507f300000000000000000000000000000000000000000000000000000000000000081600081518110612f5957634e487b7160e01b600052603260045260246000fd5b60200101906001600160f81b031916908160001a9053507f780000000000000000000000000000000000000000000000000000000000000081600181518110612fb257634e487b7160e01b600052603260045260246000fd5b60200101906001600160f81b031916908160001a9053506000612fd6846002613740565b612fe1906001613728565b90505b6001811115613082577f303132333435363738396162636465660000000000000000000000000000000085600f166010811061303057634e487b7160e01b600052603260045260246000fd5b1a60f81b82828151811061305457634e487b7160e01b600052603260045260246000fd5b60200101906001600160f81b031916908160001a90535060049490941c9361307b8161378f565b9050612fe4565b5083156130d15760405162461bcd60e51b815260206004820181905260248201527f537472696e67733a20686578206c656e67746820696e73756666696369656e746044820152606401610811565b9392505050565b604080516101a0810182526000808252602082018190526060928201839052909182019081526020016000815260200160008152602001600081526020016000815260200160608152602001600081526020016000600781111561314c57634e487b7160e01b600052602160045260246000fd5b815260006020820181905260409091015290565b82805461316c906137a6565b90600052602060002090601f01602090048101928261318e57600085556131d4565b82601f106131a757805160ff19168380011785556131d4565b828001600101855582156131d4579182015b828111156131d45782518255916020019190600101906131b9565b506131e09291506131e4565b5090565b5b808211156131e057600081556001016131e5565b60008083601f84011261320a578182fd5b50813567ffffffffffffffff811115613221578182fd5b60208301915083602082850101111561323957600080fd5b9250929050565b803560ff811681146115ea57600080fd5b600060208284031215613262578081fd5b81356130d18161380d565b60006020828403121561327e578081fd5b81516130d18161380d565b60008060008060008060008060008060006101208c8e0312156132aa578687fd5b6132b48c3561380d565b8b359a5067ffffffffffffffff8060208e013511156132d1578788fd5b6132e18e60208f01358f016131f9565b909b5099506132f260408e01613240565b985060608d0135975060808d0135965060a08d0135955060c08d013594508060e08e01351115613320578384fd5b506133318d60e08e01358e016131f9565b81945080935050506101008c013590509295989b509295989b9093969950565b60008060408385031215613363578182fd5b823561336e8161380d565b946020939093013593505050565b60006020828403121561338d578081fd5b5035919050565b600080604083850312156133a6578182fd5b8235915060208301356133b88161380d565b809150509250929050565b600080604083850312156133d5578182fd5b823591506133e560208401613240565b90509250929050565b6000602082840312156133ff578081fd5b81356001600160e01b0319811681146130d1578182fd5b60088110613426576134266137f7565b9052565b6000815180845261344281602086016020860161375f565b601f01601f19169290920160200192915050565b8054600090600181811c908083168061347057607f831692505b602080841082141561349057634e487b7160e01b86526022600452602486fd5b838852602088018280156134ab57600181146134bc576134e7565b60ff198716825282820197506134e7565b60008981526020902060005b878110156134e1578154848201529086019084016134c8565b83019850505b5050505050505092915050565b8183823760009101908152919050565b7f416363657373436f6e74726f6c3a206163636f756e742000000000000000000081526000835161353c81601785016020880161375f565b7f206973206d697373696e6720726f6c6520000000000000000000000000000000601791840191820152835161357981602884016020880161375f565b01602801949350505050565b6001600160a01b03831681526040602082015260006135a76040830184613456565b949350505050565b6020808252825182820181905260009190848201906040850190845b818110156135e7578351835292840192918401916001016135cb565b50909695505050505050565b60006101a08f83526001600160a01b038f16602084015280604084015261361c8184018f61342a565b905060028d1061362e5761362e6137f7565b8c60608401528b60808401528a60a08401528960c08401528860e084015282810361010084015261365f818961342a565b91505085610120830152613677610140830186613416565b6001600160a01b039390931661016082015261018001529b9a5050505050505050505050565b60006101406001600160a01b038d1683528b60208401528060408401526136c68184018c613456565b905060ff8a1660608401528860808401528760a08401528660c08401528560e08401528281036101008401526136fc8186613456565b915050826101208301529b9a5050505050505050505050565b6020815260006130d1602083018461342a565b6000821982111561373b5761373b6137e1565b500190565b600081600019048311821515161561375a5761375a6137e1565b500290565b60005b8381101561377a578181015183820152602001613762565b83811115613789576000848401525b50505050565b60008161379e5761379e6137e1565b506000190190565b600181811c908216806137ba57607f821691505b602082108114156137db57634e487b7160e01b600052602260045260246000fd5b50919050565b634e487b7160e01b600052601160045260246000fd5b634e487b7160e01b600052602160045260246000fd5b6001600160a01b038116811461170c57600080fdfe4f70706f7274756e69747920494420646f65736e277420657869737400000000a2646970667358221220fa4affd2caedb52ad4838492ac7b953741f259cee3c84eeb9c961284937e3a2064736f6c63430008040033",
  "linkReferences": {},
  "deployedLinkReferences": {}
}