{
  "_format": "hh-sol-artifact-1",
  "contractName": "OpportunityOrigination",
  "sourceName": "contracts/protocol/OpportunityOrigination.sol",
  "abi": [
    {
      "anonymous": false,
      "inputs": [
        {
          "indexed": false,
          "internalType": "address",
          "name": "previousAdmin",
          "type": "address"
        },
        {
          "indexed": false,
          "internalType": "address",
          "name": "newAdmin",
          "type": "address"
        }
      ],
      "name": "AdminChanged",
      "type": "event"
    },
    {
      "anonymous": false,
      "inputs": [
        {
          "indexed": true,
          "internalType": "address",
          "name": "beacon",
          "type": "address"
        }
      ],
      "name": "BeaconUpgraded",
      "type": "event"
    },
    {
      "anonymous": false,
      "inputs": [
        {
          "indexed": false,
          "internalType": "uint8",
          "name": "version",
          "type": "uint8"
        }
      ],
      "name": "Initialized",
      "type": "event"
    },
    {
      "anonymous": false,
      "inputs": [
        {
          "indexed": true,
          "internalType": "bytes32",
          "name": "opportunityId",
          "type": "bytes32"
        }
      ],
      "name": "MarkedDrawDown",
      "type": "event"
    },
    {
      "anonymous": false,
      "inputs": [
        {
          "indexed": true,
          "internalType": "bytes32",
          "name": "opportunityId",
          "type": "bytes32"
        }
      ],
      "name": "MarkedRepaid",
      "type": "event"
    },
    {
      "anonymous": false,
      "inputs": [
        {
          "indexed": true,
          "internalType": "bytes32",
          "name": "opportunityId",
          "type": "bytes32"
        },
        {
          "indexed": false,
          "internalType": "address",
          "name": "opportunityPool",
          "type": "address"
        }
      ],
      "name": "MarkedWriteOff",
      "type": "event"
    },
    {
      "anonymous": false,
      "inputs": [
        {
          "indexed": true,
          "internalType": "bytes32",
          "name": "opportunityId",
          "type": "bytes32"
        }
      ],
      "name": "OpportunityCreated",
      "type": "event"
    },
    {
      "anonymous": false,
      "inputs": [
        {
          "indexed": true,
          "internalType": "bytes32",
          "name": "opportunityId",
          "type": "bytes32"
        },
        {
          "indexed": false,
          "internalType": "address",
          "name": "opportunityPool",
          "type": "address"
        }
      ],
      "name": "OpportunityPoolCreated",
      "type": "event"
    },
    {
      "anonymous": false,
      "inputs": [
        {
          "indexed": true,
          "internalType": "bytes32",
          "name": "opportunityId",
          "type": "bytes32"
        },
        {
          "indexed": false,
          "internalType": "uint8",
          "name": "status",
          "type": "uint8"
        }
      ],
      "name": "OpportunityVoted",
      "type": "event"
    },
    {
      "anonymous": false,
      "inputs": [
        {
          "indexed": false,
          "internalType": "address",
          "name": "account",
          "type": "address"
        }
      ],
      "name": "Paused",
      "type": "event"
    },
    {
      "anonymous": false,
      "inputs": [
        {
          "indexed": true,
          "internalType": "bytes32",
          "name": "role",
          "type": "bytes32"
        },
        {
          "indexed": true,
          "internalType": "bytes32",
          "name": "previousAdminRole",
          "type": "bytes32"
        },
        {
          "indexed": true,
          "internalType": "bytes32",
          "name": "newAdminRole",
          "type": "bytes32"
        }
      ],
      "name": "RoleAdminChanged",
      "type": "event"
    },
    {
      "anonymous": false,
      "inputs": [
        {
          "indexed": true,
          "internalType": "bytes32",
          "name": "role",
          "type": "bytes32"
        },
        {
          "indexed": true,
          "internalType": "address",
          "name": "account",
          "type": "address"
        },
        {
          "indexed": true,
          "internalType": "address",
          "name": "sender",
          "type": "address"
        }
      ],
      "name": "RoleGranted",
      "type": "event"
    },
    {
      "anonymous": false,
      "inputs": [
        {
          "indexed": true,
          "internalType": "bytes32",
          "name": "role",
          "type": "bytes32"
        },
        {
          "indexed": true,
          "internalType": "address",
          "name": "account",
          "type": "address"
        },
        {
          "indexed": true,
          "internalType": "address",
          "name": "sender",
          "type": "address"
        }
      ],
      "name": "RoleRevoked",
      "type": "event"
    },
    {
      "anonymous": false,
      "inputs": [
        {
          "indexed": true,
          "internalType": "bytes32",
          "name": "opportunityId",
          "type": "bytes32"
        },
        {
          "indexed": false,
          "internalType": "address",
          "name": "underwriter",
          "type": "address"
        }
      ],
      "name": "UnderwritersAssigned",
      "type": "event"
    },
    {
      "anonymous": false,
      "inputs": [
        {
          "indexed": false,
          "internalType": "address",
          "name": "account",
          "type": "address"
        }
      ],
      "name": "Unpaused",
      "type": "event"
    },
    {
      "anonymous": false,
      "inputs": [
        {
          "indexed": true,
          "internalType": "address",
          "name": "implementation",
          "type": "address"
        }
      ],
      "name": "Upgraded",
      "type": "event"
    },
    {
      "inputs": [],
      "name": "DEFAULT_ADMIN_ROLE",
      "outputs": [
        {
          "internalType": "bytes32",
          "name": "",
          "type": "bytes32"
        }
      ],
      "stateMutability": "view",
      "type": "function"
    },
    {
      "inputs": [
        {
          "internalType": "address",
          "name": "owner",
          "type": "address"
        }
      ],
      "name": "_BaseUpgradeablePausable_init",
      "outputs": [],
      "stateMutability": "nonpayable",
      "type": "function"
    },
    {
      "inputs": [],
      "name": "__PauserPausable__init",
      "outputs": [],
      "stateMutability": "nonpayable",
      "type": "function"
    },
    {
      "inputs": [
        {
          "internalType": "bytes32",
          "name": "_opportunityId",
          "type": "bytes32"
        },
        {
          "internalType": "address",
          "name": "_underwriter",
          "type": "address"
        }
      ],
      "name": "assignUnderwriters",
      "outputs": [],
      "stateMutability": "nonpayable",
      "type": "function"
    },
    {
      "inputs": [],
      "name": "collateralToken",
      "outputs": [
        {
          "internalType": "contract CollateralToken",
          "name": "",
          "type": "address"
        }
      ],
      "stateMutability": "view",
      "type": "function"
    },
    {
      "inputs": [
        {
          "components": [
            {
              "internalType": "address",
              "name": "borrower",
              "type": "address"
            },
            {
              "internalType": "string",
              "name": "opportunityName",
              "type": "string"
            },
            {
              "internalType": "string",
              "name": "opportunityInfo",
              "type": "string"
            },
            {
              "internalType": "enum IOpportunityOrigination.LoanType",
              "name": "loanType",
              "type": "uint8"
            },
            {
              "internalType": "uint256",
              "name": "loanAmount",
              "type": "uint256"
            },
            {
              "internalType": "uint256",
              "name": "loanTenureInDays",
              "type": "uint256"
            },
            {
              "internalType": "uint256",
              "name": "loanInterest",
              "type": "uint256"
            },
            {
              "internalType": "uint256",
              "name": "paymentFrequencyInDays",
              "type": "uint256"
            },
            {
              "internalType": "string",
              "name": "collateralDocument",
              "type": "string"
            },
            {
              "internalType": "uint256",
              "name": "capitalLoss",
              "type": "uint256"
            }
          ],
          "internalType": "struct IOpportunityOrigination.CreateOpportunity",
          "name": "_opportunityData",
          "type": "tuple"
        }
      ],
      "name": "createOpportunity",
      "outputs": [],
      "stateMutability": "nonpayable",
      "type": "function"
    },
    {
      "inputs": [],
      "name": "dygnifyConfig",
      "outputs": [
        {
          "internalType": "contract DygnifyConfig",
          "name": "",
          "type": "address"
        }
      ],
      "stateMutability": "view",
      "type": "function"
    },
    {
      "inputs": [
        {
          "internalType": "address",
          "name": "borrower",
          "type": "address"
        }
      ],
      "name": "getAlltheOpportunitiesOf",
      "outputs": [
        {
          "internalType": "bytes32[]",
          "name": "",
          "type": "bytes32[]"
        }
      ],
      "stateMutability": "view",
      "type": "function"
    },
    {
      "inputs": [
        {
          "internalType": "bytes32",
          "name": "id",
          "type": "bytes32"
        }
      ],
      "name": "getBorrower",
      "outputs": [
        {
          "internalType": "address",
          "name": "",
          "type": "address"
        }
      ],
      "stateMutability": "view",
      "type": "function"
    },
    {
      "inputs": [
        {
          "internalType": "bytes32",
          "name": "_opportunityId",
          "type": "bytes32"
        }
      ],
      "name": "getOpportunityNameOf",
      "outputs": [
        {
          "internalType": "string",
          "name": "",
          "type": "string"
        }
      ],
      "stateMutability": "view",
      "type": "function"
    },
    {
      "inputs": [
        {
          "internalType": "address",
          "name": "_borrower",
          "type": "address"
        }
      ],
      "name": "getOpportunityOf",
      "outputs": [
        {
          "internalType": "bytes32[]",
          "name": "",
          "type": "bytes32[]"
        }
      ],
      "stateMutability": "view",
      "type": "function"
    },
    {
      "inputs": [
        {
          "internalType": "bytes32",
          "name": "id",
          "type": "bytes32"
        }
      ],
      "name": "getOpportunityPoolAddress",
      "outputs": [
        {
          "internalType": "address",
          "name": "",
          "type": "address"
        }
      ],
      "stateMutability": "view",
      "type": "function"
    },
    {
      "inputs": [
        {
          "internalType": "bytes32",
          "name": "role",
          "type": "bytes32"
        }
      ],
      "name": "getRoleAdmin",
      "outputs": [
        {
          "internalType": "bytes32",
          "name": "",
          "type": "bytes32"
        }
      ],
      "stateMutability": "view",
      "type": "function"
    },
    {
      "inputs": [],
      "name": "getTotalOpportunities",
      "outputs": [
        {
          "internalType": "uint256",
          "name": "",
          "type": "uint256"
        }
      ],
      "stateMutability": "view",
      "type": "function"
    },
    {
      "inputs": [
        {
          "internalType": "address",
          "name": "_underwriter",
          "type": "address"
        }
      ],
      "name": "getUnderWritersOpportunities",
      "outputs": [
        {
          "internalType": "bytes32[]",
          "name": "",
          "type": "bytes32[]"
        }
      ],
      "stateMutability": "view",
      "type": "function"
    },
    {
      "inputs": [
        {
          "internalType": "bytes32",
          "name": "role",
          "type": "bytes32"
        },
        {
          "internalType": "address",
          "name": "account",
          "type": "address"
        }
      ],
      "name": "grantRole",
      "outputs": [],
      "stateMutability": "nonpayable",
      "type": "function"
    },
    {
      "inputs": [
        {
          "internalType": "bytes32",
          "name": "role",
          "type": "bytes32"
        },
        {
          "internalType": "address",
          "name": "account",
          "type": "address"
        }
      ],
      "name": "hasRole",
      "outputs": [
        {
          "internalType": "bool",
          "name": "",
          "type": "bool"
        }
      ],
      "stateMutability": "view",
      "type": "function"
    },
    {
      "inputs": [
        {
          "internalType": "contract DygnifyConfig",
          "name": "config",
          "type": "address"
        }
      ],
      "name": "initialize",
      "outputs": [],
      "stateMutability": "nonpayable",
      "type": "function"
    },
    {
      "inputs": [
        {
          "internalType": "bytes32",
          "name": "id",
          "type": "bytes32"
        }
      ],
      "name": "isActive",
      "outputs": [
        {
          "internalType": "bool",
          "name": "",
          "type": "bool"
        }
      ],
      "stateMutability": "view",
      "type": "function"
    },
    {
      "inputs": [],
      "name": "isAdmin",
      "outputs": [
        {
          "internalType": "bool",
          "name": "",
          "type": "bool"
        }
      ],
      "stateMutability": "view",
      "type": "function"
    },
    {
      "inputs": [
        {
          "internalType": "bytes32",
          "name": "id",
          "type": "bytes32"
        }
      ],
      "name": "isDrawdown",
      "outputs": [
        {
          "internalType": "bool",
          "name": "",
          "type": "bool"
        }
      ],
      "stateMutability": "view",
      "type": "function"
    },
    {
      "inputs": [
        {
          "internalType": "bytes32",
          "name": "",
          "type": "bytes32"
        }
      ],
      "name": "isOpportunity",
      "outputs": [
        {
          "internalType": "bool",
          "name": "",
          "type": "bool"
        }
      ],
      "stateMutability": "view",
      "type": "function"
    },
    {
      "inputs": [
        {
          "internalType": "bytes32",
          "name": "id",
          "type": "bytes32"
        }
      ],
      "name": "isRepaid",
      "outputs": [
        {
          "internalType": "bool",
          "name": "",
          "type": "bool"
        }
      ],
      "stateMutability": "view",
      "type": "function"
    },
    {
      "inputs": [
        {
          "internalType": "bytes32",
          "name": "id",
          "type": "bytes32"
        }
      ],
      "name": "isWriteOff",
      "outputs": [
        {
          "internalType": "bool",
          "name": "",
          "type": "bool"
        }
      ],
      "stateMutability": "view",
      "type": "function"
    },
    {
      "inputs": [
        {
          "internalType": "bytes32",
          "name": "id",
          "type": "bytes32"
        }
      ],
      "name": "markDrawDown",
      "outputs": [],
      "stateMutability": "nonpayable",
      "type": "function"
    },
    {
      "inputs": [
        {
          "internalType": "bytes32",
          "name": "id",
          "type": "bytes32"
        }
      ],
      "name": "markRepaid",
      "outputs": [],
      "stateMutability": "nonpayable",
      "type": "function"
    },
    {
      "inputs": [
        {
          "internalType": "bytes32",
          "name": "id",
          "type": "bytes32"
        },
        {
          "internalType": "address",
          "name": "_pool",
          "type": "address"
        }
      ],
      "name": "markWriteOff",
      "outputs": [],
      "stateMutability": "nonpayable",
      "type": "function"
    },
    {
      "inputs": [
        {
          "internalType": "uint256",
          "name": "",
          "type": "uint256"
        }
      ],
      "name": "opportunityIds",
      "outputs": [
        {
          "internalType": "bytes32",
          "name": "",
          "type": "bytes32"
        }
      ],
      "stateMutability": "view",
      "type": "function"
    },
    {
      "inputs": [
        {
          "internalType": "address",
          "name": "",
          "type": "address"
        },
        {
          "internalType": "uint256",
          "name": "",
          "type": "uint256"
        }
      ],
      "name": "opportunityOf",
      "outputs": [
        {
          "internalType": "bytes32",
          "name": "",
          "type": "bytes32"
        }
      ],
      "stateMutability": "view",
      "type": "function"
    },
    {
      "inputs": [
        {
          "internalType": "bytes32",
          "name": "",
          "type": "bytes32"
        }
      ],
      "name": "opportunityToId",
      "outputs": [
        {
          "internalType": "bytes32",
          "name": "opportunityID",
          "type": "bytes32"
        },
        {
          "internalType": "address",
          "name": "borrower",
          "type": "address"
        },
        {
          "internalType": "string",
          "name": "opportunityName",
          "type": "string"
        },
        {
          "internalType": "string",
          "name": "opportunityInfo",
          "type": "string"
        },
        {
          "internalType": "enum IOpportunityOrigination.LoanType",
          "name": "loanType",
          "type": "uint8"
        },
        {
          "internalType": "uint256",
          "name": "loanAmount",
          "type": "uint256"
        },
        {
          "internalType": "uint256",
          "name": "loanTenureInDays",
          "type": "uint256"
        },
        {
          "internalType": "uint256",
          "name": "loanInterest",
          "type": "uint256"
        },
        {
          "internalType": "uint256",
          "name": "paymentFrequencyInDays",
          "type": "uint256"
        },
        {
          "internalType": "string",
          "name": "collateralDocument",
          "type": "string"
        },
        {
          "internalType": "uint256",
          "name": "capitalLoss",
          "type": "uint256"
        },
        {
          "internalType": "enum IOpportunityOrigination.OpportunityStatus",
          "name": "opportunityStatus",
          "type": "uint8"
        },
        {
          "internalType": "address",
          "name": "opportunityPoolAddress",
          "type": "address"
        },
        {
          "internalType": "uint256",
          "name": "createdOn",
          "type": "uint256"
        }
      ],
      "stateMutability": "view",
      "type": "function"
    },
    {
      "inputs": [],
      "name": "pause",
      "outputs": [],
      "stateMutability": "nonpayable",
      "type": "function"
    },
    {
      "inputs": [],
      "name": "paused",
      "outputs": [
        {
          "internalType": "bool",
          "name": "",
          "type": "bool"
        }
      ],
      "stateMutability": "view",
      "type": "function"
    },
    {
      "inputs": [],
      "name": "proxiableUUID",
      "outputs": [
        {
          "internalType": "bytes32",
          "name": "",
          "type": "bytes32"
        }
      ],
      "stateMutability": "view",
      "type": "function"
    },
    {
      "inputs": [
        {
          "internalType": "bytes32",
          "name": "role",
          "type": "bytes32"
        },
        {
          "internalType": "address",
          "name": "account",
          "type": "address"
        }
      ],
      "name": "renounceRole",
      "outputs": [],
      "stateMutability": "nonpayable",
      "type": "function"
    },
    {
      "inputs": [
        {
          "internalType": "bytes32",
          "name": "role",
          "type": "bytes32"
        },
        {
          "internalType": "address",
          "name": "account",
          "type": "address"
        }
      ],
      "name": "revokeRole",
      "outputs": [],
      "stateMutability": "nonpayable",
      "type": "function"
    },
    {
      "inputs": [
        {
          "internalType": "bytes4",
          "name": "interfaceId",
          "type": "bytes4"
        }
      ],
      "name": "supportsInterface",
      "outputs": [
        {
          "internalType": "bool",
          "name": "",
          "type": "bool"
        }
      ],
      "stateMutability": "view",
      "type": "function"
    },
    {
      "inputs": [
        {
          "internalType": "address",
          "name": "",
          "type": "address"
        },
        {
          "internalType": "uint256",
          "name": "",
          "type": "uint256"
        }
      ],
      "name": "underwriterToOpportunity",
      "outputs": [
        {
          "internalType": "bytes32",
          "name": "",
          "type": "bytes32"
        }
      ],
      "stateMutability": "view",
      "type": "function"
    },
    {
      "inputs": [],
      "name": "unpause",
      "outputs": [],
      "stateMutability": "nonpayable",
      "type": "function"
    },
    {
      "inputs": [
        {
          "internalType": "address",
          "name": "newImplementation",
          "type": "address"
        }
      ],
      "name": "upgradeTo",
      "outputs": [],
      "stateMutability": "nonpayable",
      "type": "function"
    },
    {
      "inputs": [
        {
          "internalType": "address",
          "name": "newImplementation",
          "type": "address"
        },
        {
          "internalType": "bytes",
          "name": "data",
          "type": "bytes"
        }
      ],
      "name": "upgradeToAndCall",
      "outputs": [],
      "stateMutability": "payable",
      "type": "function"
    },
    {
      "inputs": [
        {
          "internalType": "bytes32",
          "name": "_opportunityId",
          "type": "bytes32"
        },
        {
          "internalType": "uint8",
          "name": "_status",
          "type": "uint8"
        }
      ],
      "name": "voteOpportunity",
      "outputs": [],
      "stateMutability": "nonpayable",
      "type": "function"
    },
    {
      "inputs": [
        {
          "internalType": "bytes32",
          "name": "",
          "type": "bytes32"
        }
      ],
      "name": "writeOffDaysOf",
      "outputs": [
        {
          "internalType": "uint256",
          "name": "",
          "type": "uint256"
        }
      ],
      "stateMutability": "view",
      "type": "function"
    }
  ],
  "bytecode": "0x60a06040523060601b60805234801561001757600080fd5b5060805160601c6144cf61005260003960008181610fe1015281816110210152818161116f015281816111af01526112f001526144cf6000f3fe6080604052600436106102515760003560e01c8063728c3ea211610139578063af7ea944116100b6578063d547741f1161007a578063d547741f146106ee578063e0bb77e31461070e578063e2f372241461073f578063e87ec15f1461075f578063f00474a61461077f578063f1bae27d146107ac57600080fd5b8063af7ea94414610658578063b2016bd414610678578063b369be5414610699578063b6db75a0146106b9578063c4d66de8146106ce57600080fd5b80638456cb59116100fd5780638456cb59146105ce57806389eb01fc146105e357806391d1485414610603578063a12dde4d14610623578063a217fddf1461064357600080fd5b8063728c3ea21461052e5780637921c67d1461054e5780637a8f55601461056e5780637e4dc6d51461058e57806381767155146105ae57600080fd5b80633f4ba83a116101d257806352d1902d1161019657806352d1902d146104735780635c36901c146104885780635c975abb146104a85780636815322c146104c05780636dc305f9146104e0578063718df38c1461050057600080fd5b80633f4ba83a146104005780634622abe014610415578063486caf7c146104355780634f1ef2861461044b578063526d81f61461045e57600080fd5b80632885f8b9116102195780632885f8b91461035e5780632f2ff15d14610380578063332f1486146103a057806336568abe146103c05780633659cfe6146103e057600080fd5b806301ffc9a7146102565780630bca245a1461028b5780631633f5a3146102c55780631be95459146102f2578063248a9ca314610320575b600080fd5b34801561026257600080fd5b50610276610271366004613c42565b6107cc565b60405190151581526020015b60405180910390f35b34801561029757600080fd5b506102ab6102a6366004613bba565b610803565b6040516102829e9d9c9b9a99989796959493929190613f5f565b3480156102d157600080fd5b506102e56102e0366004613af6565b610a27565b6040516102829190613f1b565b3480156102fe57600080fd5b5061015f54610313906001600160a01b031681565b6040516102829190613e50565b34801561032c57600080fd5b5061035061033b366004613bba565b60009081526065602052604090206001015490565b604051908152602001610282565b34801561036a57600080fd5b5061037e610379366004613c19565b610af2565b005b34801561038c57600080fd5b5061037e61039b366004613bea565b610d2a565b3480156103ac57600080fd5b5061037e6103bb366004613bba565b610d54565b3480156103cc57600080fd5b5061037e6103db366004613bea565b610f5c565b3480156103ec57600080fd5b5061037e6103fb366004613af6565b610fd6565b34801561040c57600080fd5b5061037e61109f565b34801561042157600080fd5b50610276610430366004613bba565b6110d6565b34801561044157600080fd5b5061016754610350565b61037e610459366004613b2e565b611164565b34801561046a57600080fd5b5061037e61121a565b34801561047f57600080fd5b506103506112e3565b34801561049457600080fd5b506102766104a3366004613bba565b611391565b3480156104b457600080fd5b5060975460ff16610276565b3480156104cc57600080fd5b506102766104db366004613bba565b6113cc565b3480156104ec57600080fd5b5061037e6104fb366004613bea565b611407565b34801561050c57600080fd5b5061035061051b366004613bba565b6101666020526000908152604090205481565b34801561053a57600080fd5b50610313610549366004613bba565b6115c5565b34801561055a57600080fd5b50610350610569366004613b8f565b611619565b34801561057a57600080fd5b50610350610589366004613b8f565b61164b565b34801561059a57600080fd5b506103136105a9366004613bba565b611668565b3480156105ba57600080fd5b506102766105c9366004613bba565b6117bc565b3480156105da57600080fd5b5061037e6117f7565b3480156105ef57600080fd5b506102e56105fe366004613af6565b611826565b34801561060f57600080fd5b5061027661061e366004613bea565b6118e5565b34801561062f57600080fd5b5061037e61063e366004613af6565b611910565b34801561064f57600080fd5b50610350600081565b34801561066457600080fd5b5061037e610673366004613bba565b6119e4565b34801561068457600080fd5b5061016054610313906001600160a01b031681565b3480156106a557600080fd5b506102e56106b4366004613af6565b611c1e565b3480156106c557600080fd5b50610276611cb1565b3480156106da57600080fd5b5061037e6106e9366004613af6565b611cc3565b3480156106fa57600080fd5b5061037e610709366004613bea565b611e88565b34801561071a57600080fd5b50610276610729366004613bba565b6101636020526000908152604090205460ff1681565b34801561074b57600080fd5b5061037e61075a366004613c6a565b611ead565b34801561076b57600080fd5b5061037e61077a366004613bea565b612559565b34801561078b57600080fd5b5061079f61079a366004613bba565b6126d6565b6040516102829190614015565b3480156107b857600080fd5b506103506107c7366004613bba565b6129f6565b60006001600160e01b03198216637965db0b60e01b14806107fd57506301ffc9a760e01b6001600160e01b03198316145b92915050565b6101616020526000908152604090208054600182015460028301805492936001600160a01b0390921692610836906143c0565b80601f0160208091040260200160405190810160405280929190818152602001828054610862906143c0565b80156108af5780601f10610884576101008083540402835291602001916108af565b820191906000526020600020905b81548152906001019060200180831161089257829003601f168201915b5050505050908060030180546108c4906143c0565b80601f01602080910402602001604051908101604052809291908181526020018280546108f0906143c0565b801561093d5780601f106109125761010080835404028352916020019161093d565b820191906000526020600020905b81548152906001019060200180831161092057829003601f168201915b5050505050908060040160009054906101000a900460ff169080600501549080600601549080600701549080600801549080600901805461097d906143c0565b80601f01602080910402602001604051908101604052809291908181526020018280546109a9906143c0565b80156109f65780601f106109cb576101008083540402835291602001916109f6565b820191906000526020600020905b8154815290600101906020018083116109d957829003601f168201915b50505050600a830154600b840154600c909401549293909260ff821692506101009091046001600160a01b0316908e565b60606001600160a01b038216610a845760405162461bcd60e51b815260206004820152601b60248201527f496e76616c696420756e6465727772697465722073646472657373000000000060448201526064015b60405180910390fd5b6001600160a01b03821660009081526101656020908152604080832080548251818502810185019093528083529192909190830182828015610ae557602002820191906000526020600020905b815481526020019060010190808311610ad1575b5093979650505050505050565b610afa612a18565b610b02612a72565b600082815261016460205260409020546001600160a01b03163314610b7f5760405162461bcd60e51b815260206004820152602d60248201527f596f7520617265206e6f7420616e206175646969746f7220666f72207468697360448201526c1027b83837b93a3ab734ba3c9760991b6064820152608401610a7b565b6000828152610163602052604090205460ff161515600114610bb35760405162461bcd60e51b8152600401610a7b90614028565b600160ff821610801590610bcb5750600360ff821611155b610c0f5760405162461bcd60e51b8152602060048201526015602482015274537461747573203a206f7574206f662072616e676560581b6044820152606401610a7b565b600082815261016160205260408120600b015460ff166008811115610c4457634e487b7160e01b600052602160045260246000fd5b14610c615760405162461bcd60e51b8152600401610a7b90614129565b8060ff166008811115610c8457634e487b7160e01b600052602160045260246000fd5b600083815261016160205260409020600b01805460ff19166001836008811115610cbe57634e487b7160e01b600052602160045260246000fd5b021790555060ff811660021415610ce357610cd882612ab8565b610ce182612bfc565b505b60405160ff8216815282907f92d84d4237206a27f66f3339b0034e5f89a615cfe466cd027dae80f23d09666c906020015b60405180910390a2610d26600160c955565b5050565b600082815260656020526040902060010154610d4581612e5a565b610d4f8383612e64565b505050565b6000818152610163602052604090205460ff161515600114610d885760405162461bcd60e51b8152600401610a7b90614028565b6006600082815261016160205260409020600b015460ff166008811115610dbf57634e487b7160e01b600052602160045260246000fd5b14610ddc5760405162461bcd60e51b8152600401610a7b90614288565b600081815261016160205260409020600b015461010090046001600160a01b03163314610e5f5760405162461bcd60e51b815260206004820152602b60248201527f4f6e6c79204f70706f7274756e69747920506f6f6c2063616e206d61726b206960448201526a1d08185cc81c995c185a5960aa1b6064820152608401610a7b565b600081815261016160205260409020600b015461010090046001600160a01b0316610e9c5760405162461bcd60e51b8152600401610a7b906141fa565b600081815261016160205260409020600b01805460ff1916600817905561015f54610ecf906001600160a01b0316612eea565b6001600160a01b0316632d37a3d2826040518263ffffffff1660e01b8152600401610efc91815260200190565b600060405180830381600087803b158015610f1657600080fd5b505af1158015610f2a573d6000803e3d6000fd5b50506040518392507f4b384140e92e93e6391171c02a78b0269e17b1c6bf96cf931bea1ebc8a6279349150600090a250565b6001600160a01b0381163314610fcc5760405162461bcd60e51b815260206004820152602f60248201527f416363657373436f6e74726f6c3a2063616e206f6e6c792072656e6f756e636560448201526e103937b632b9903337b91039b2b63360891b6064820152608401610a7b565b610d268282612f6c565b306001600160a01b037f000000000000000000000000000000000000000000000000000000000000000016141561101f5760405162461bcd60e51b8152600401610a7b906140dd565b7f00000000000000000000000000000000000000000000000000000000000000006001600160a01b0316611051612fd3565b6001600160a01b0316146110775760405162461bcd60e51b8152600401610a7b90614160565b61108081612fef565b6040805160008082526020820190925261109c91839190613013565b50565b6110b06110aa61318d565b336118e5565b6110cc5760405162461bcd60e51b8152600401610a7b90614091565b6110d46131b1565b565b6000818152610163602052604081205460ff16151560011461110a5760405162461bcd60e51b8152600401610a7b90614028565b60065b600083815261016160205260409020600b015460ff9182169116600881111561114657634e487b7160e01b600052602160045260246000fd5b60ff16141561115757506001919050565b506000919050565b919050565b306001600160a01b037f00000000000000000000000000000000000000000000000000000000000000001614156111ad5760405162461bcd60e51b8152600401610a7b906140dd565b7f00000000000000000000000000000000000000000000000000000000000000006001600160a01b03166111df612fd3565b6001600160a01b0316146112055760405162461bcd60e51b8152600401610a7b90614160565b61120e82612fef565b610d2682826001613013565b600054610100900460ff161580801561123a5750600054600160ff909116105b806112545750303b158015611254575060005460ff166001145b6112705760405162461bcd60e51b8152600401610a7b906141ac565b6000805460ff191660011790558015611293576000805461ff0019166101001790555b61129b6131fd565b801561109c576000805461ff0019169055604051600181527f7f26b83ff96e1f2b6a682f133852f6798a09c465da95921460cefb38474024989060200160405180910390a150565b6000306001600160a01b037f0000000000000000000000000000000000000000000000000000000000000000161461137e5760405162461bcd60e51b815260206004820152603860248201527f555550535570677261646561626c653a206d757374206e6f742062652063616c6044820152771b1959081d1a1c9bdd59da0819195b1959d85d1958d85b1b60421b6064820152608401610a7b565b5060008051602061445383398151915290565b6000818152610163602052604081205460ff1615156001146113c55760405162461bcd60e51b8152600401610a7b90614028565b600561110d565b6000818152610163602052604081205460ff1615156001146114005760405162461bcd60e51b8152600401610a7b90614028565b600761110d565b6000828152610163602052604090205460ff16151560011461143b5760405162461bcd60e51b8152600401610a7b90614028565b6006600083815261016160205260409020600b015460ff16600881111561147257634e487b7160e01b600052602160045260246000fd5b1461148f5760405162461bcd60e51b8152600401610a7b90614288565b61015f546114a5906001600160a01b0316612eea565b6001600160a01b0316336001600160a01b0316146115185760405162461bcd60e51b815260206004820152602a60248201527f4f6e6c79206479676e6966794b65657065722063616e206d61726b206974206160448201526939903bb934ba32b7b33360b11b6064820152608401610a7b565b60008281526101616020526040808220600b01805460ff1916600717905580516312be139b60e11b815290516001600160a01b0384169263257c2736926004808201939182900301818387803b15801561157157600080fd5b505af1158015611585573d6000803e3d6000fd5b50505050817f05e59fc19fe9715c0aeecaabdb6fea5bc2b06bb0b852db2cc49974de673c4ab3826040516115b99190613e50565b60405180910390a25050565b6000818152610163602052604081205460ff1615156001146115f95760405162461bcd60e51b8152600401610a7b90614028565b50600090815261016160205260409020600101546001600160a01b031690565b610162602052816000526040600020818154811061163657600080fd5b90600052602060002001600091509150505481565b610165602052816000526040600020818154811061163657600080fd5b6000818152610163602052604081205460ff16151560011461169c5760405162461bcd60e51b8152600401610a7b90614028565b600082815261016160205260409020600b015460059060ff1660088111156116d457634e487b7160e01b600052602160045260246000fd5b60ff1610156117395760405162461bcd60e51b815260206004820152602b60248201527f4f70706f7274756e697479206d757374206265206163746976652f647261776e60448201526a191bdddb8bdc995c185a5960aa1b6064820152608401610a7b565b600082815261016160205260409020600b015461010090046001600160a01b0316806107fd5760405162461bcd60e51b815260206004820152602c60248201527f4f70706f7274756e69747920706f6f6c206164647265737320686176656e277460448201526b0818dc99585d1959081e595d60a21b6064820152608401610a7b565b6000818152610163602052604081205460ff1615156001146117f05760405162461bcd60e51b8152600401610a7b90614028565b600861110d565b6118026110aa61318d565b61181e5760405162461bcd60e51b8152600401610a7b90614091565b6110d4613230565b60606001600160a01b0382166118795760405162461bcd60e51b8152602060048201526018602482015277496e76616c696420426f72726f776572207364647265737360401b6044820152606401610a7b565b6001600160a01b03821660009081526101626020908152604080832080548251818502810185019093528083529192909190830182828015610ae55760200282019190600052602060002090815481526020019060010190808311610ad1575093979650505050505050565b60009182526065602090815260408084206001600160a01b0393909316845291905290205460ff1690565b600054610100900460ff166119375760405162461bcd60e51b8152600401610a7b9061423d565b6001600160a01b03811661198d5760405162461bcd60e51b815260206004820181905260248201527f4f776e65722063616e6e6f7420626520746865207a65726f20616464726573736044820152606401610a7b565b61199561326d565b61199d6131fd565b6119a5613294565b6119b66119b06132bb565b826132df565b6119c16119b061318d565b6119d96119cc61318d565b6119d46132bb565b6132e9565b61109c6119cc6132bb565b6000818152610163602052604090205460ff161515600114611a185760405162461bcd60e51b8152600401610a7b90614028565b6005600082815261016160205260409020600b015460ff166008811115611a4f57634e487b7160e01b600052602160045260246000fd5b14611a9c5760405162461bcd60e51b815260206004820152601e60248201527f4f70706f7274756e69747920706f6f6c206973206e6f742061637469766500006044820152606401610a7b565b600081815261016160205260409020600b015461010090046001600160a01b03163314611b215760405162461bcd60e51b815260206004820152602d60248201527f4f6e6c79204f70706f7274756e69747920506f6f6c2063616e206d61726b206960448201526c3a1030b990323930bbb237bbb760991b6064820152608401610a7b565b600081815261016160205260409020600b015461010090046001600160a01b0316611b5e5760405162461bcd60e51b8152600401610a7b906141fa565b600081815261016160205260409020600b01805460ff1916600617905561015f54611b91906001600160a01b0316612eea565b6001600160a01b0316633aa7c283826040518263ffffffff1660e01b8152600401611bbe91815260200190565b600060405180830381600087803b158015611bd857600080fd5b505af1158015611bec573d6000803e3d6000fd5b50506040518392507f7a741a986eb95b661a58cc9271ca63c0204659d83122fcd9764b38f4b470011c9150600090a250565b60606001600160a01b038216611c465760405162461bcd60e51b8152600401610a7b9061405f565b6001600160a01b0382166000908152610162602090815260409182902080548351818402810184019094528084529091830182828015611ca557602002820191906000526020600020905b815481526020019060010190808311611c91575b50505050509050919050565b6000611cbe6110aa6132bb565b905090565b600054610100900460ff1615808015611ce35750600054600160ff909116105b80611cfd5750303b158015611cfd575060005460ff166001145b611d195760405162461bcd60e51b8152600401610a7b906141ac565b6000805460ff191660011790558015611d3c576000805461ff0019166101001790555b6001600160a01b038216611d8b5760405162461bcd60e51b8152602060048201526016602482015275496e76616c696420636f6e666967206164647265737360501b6044820152606401610a7b565b61015f80546001600160a01b0319166001600160a01b038416908117909155600090611db690613334565b90506001600160a01b038116611dfe5760405162461bcd60e51b815260206004820152600d60248201526c24b73b30b634b21027bbb732b960991b6044820152606401610a7b565b611e0781611910565b61015f54611e1d906001600160a01b031661334b565b61016080546001600160a01b0319166001600160a01b0392909216919091179055508015610d26576000805461ff0019169055604051600181527f7f26b83ff96e1f2b6a682f133852f6798a09c465da95921460cefb38474024989060200160405180910390a15050565b600082815260656020526040902060010154611ea381612e5a565b610d4f8383612f6c565b611eb5612a18565b611ebd612a72565b606081015160019081811115611ee357634e487b7160e01b600052602160045260246000fd5b60ff161115611f2e5760405162461bcd60e51b81526020600482015260176024820152764c6f616e54797065203a204f7574206f662072616e676560481b6044820152606401610a7b565b6000816080015111611f8d5760405162461bcd60e51b815260206004820152602260248201527f4c6f616e20416d6f756e74204d7573742062652067726561746572207468616e604482015261020360f41b6064820152608401610a7b565b80516001600160a01b0316611fb45760405162461bcd60e51b8152600401610a7b9061405f565b60008160c00151118015611fd95750611fd1620f4240606461435e565b8160c0015111155b6120565760405162461bcd60e51b815260206004820152604260248201527f4c6f616e20496e746572657374204d757374206265206772656174657220746860448201527f616e203020616e64206c657373207468616e206f7220657175616c20746f2031606482015261030360f41b608482015260a401610a7b565b60008160a00151116120b55760405162461bcd60e51b815260206004820152602260248201527f4c6f616e2054656e757265204d7573742062652067726561746572207468616e604482015261020360f41b6064820152608401610a7b565b60008160e001511161211a5760405162461bcd60e51b815260206004820152602860248201527f5061796d656e74204672657175656e6379204d75737420626520677265617465604482015267072207468616e20360c41b6064820152608401610a7b565b603281602001515111156121965760405162461bcd60e51b815260206004820152603b60248201527f4c656e677468206f66204f70706f7274756e697479206e616d65206d7573742060448201527f6265206c657373207468616e206f7220657175616c20746f20353000000000006064820152608401610a7b565b60008161010001516040516020016121ae9190613dc5565b60408051601f198184030181529181528151602092830120600081815261016390935291205490915060ff161561225c5760405162461bcd60e51b815260206004820152604660248201527f53616d6520636f6c6c61746f72616c20646f63756d656e74206973206265656e60448201527f207573656420746f2063726561746520646966666572656e74206f70706f72746064820152653ab734ba3c9760d11b608482015260a401610a7b565b61226461391e565b81815282516001600160a01b0316602080830191909152830151604080830191909152830151606080830191909152830151608082019060018111156122ba57634e487b7160e01b600052602160045260246000fd5b908160018111156122db57634e487b7160e01b600052602160045260246000fd5b905250608083015160a08083019190915283015160c08083019190915283015160e0808301919091528301516101008083019190915283015161012080830191909152830151610140820152426101a082015261015f54612344906001600160a01b0316613363565b6000838152610166602090815260408083209390935561016181529082902083518155838201516001820180546001600160a01b0319166001600160a01b039092169190911790559183015180518493926123a69260028501929101906139ae565b50606082015180516123c29160038401916020909101906139ae565b50608082015160048201805460ff1916600183818111156123f357634e487b7160e01b600052602160045260246000fd5b021790555060a0820151600582015560c0820151600682015560e082015160078201556101008201516008820155610120820151805161243d9160098401916020909101906139ae565b50610140820151600a820155610160820151600b8201805460ff1916600183600881111561247b57634e487b7160e01b600052602160045260246000fd5b0217905550610180820151600b82018054610100600160a81b0319166101006001600160a01b03938416021790556101a090920151600c9091015583511660009081526101626020908152604080832080546001818101835591855283852001869055858452610163909252808320805460ff1916831790556101678054928301815583527f025f925b23c02f7114773957b1a876f2af957c14a29118dc622648c445020dcf9091018490555183917fa766684c28869a5bdb31e1d3a19837eaea87dd01c229298591e2b1499ef457ce91a2505061109c600160c955565b612561611cb1565b61257d5760405162461bcd60e51b8152600401610a7b906142d1565b612585612a18565b61258d612a72565b6001600160a01b0381166125d55760405162461bcd60e51b815260206004820152600f60248201526e496e76616c6964204164647265737360881b6044820152606401610a7b565b6000828152610163602052604090205460ff1615156001146126095760405162461bcd60e51b8152600401610a7b90614028565b600082815261016160205260408120600b015460ff16600881111561263e57634e487b7160e01b600052602160045260246000fd5b1461265b5760405162461bcd60e51b8152600401610a7b90614129565b60008281526101646020908152604080832080546001600160a01b0319166001600160a01b03861690811790915583526101658252808320805460018101825590845291909220018390555182907f81a8cc326552975e026b95af66160089977878872dbcc51c3973ddaa11af49f890610d14908490613e50565b6000818152610163602052604090205460609060ff16151560011461270d5760405162461bcd60e51b8152600401610a7b90614028565b60008281526101616020908152604080832081516101c0810183528154815260018201546001600160a01b0316938101939093526002810180549192840191612755906143c0565b80601f0160208091040260200160405190810160405280929190818152602001828054612781906143c0565b80156127ce5780601f106127a3576101008083540402835291602001916127ce565b820191906000526020600020905b8154815290600101906020018083116127b157829003601f168201915b505050505081526020016003820180546127e7906143c0565b80601f0160208091040260200160405190810160405280929190818152602001828054612813906143c0565b80156128605780601f1061283557610100808354040283529160200191612860565b820191906000526020600020905b81548152906001019060200180831161284357829003601f168201915b5050509183525050600482015460209091019060ff16600181111561289557634e487b7160e01b600052602160045260246000fd5b60018111156128b457634e487b7160e01b600052602160045260246000fd5b8152602001600582015481526020016006820154815260200160078201548152602001600882015481526020016009820180546128f0906143c0565b80601f016020809104026020016040519081016040528092919081815260200182805461291c906143c0565b80156129695780601f1061293e57610100808354040283529160200191612969565b820191906000526020600020905b81548152906001019060200180831161294c57829003601f168201915b5050509183525050600a8201546020820152600b82015460409091019060ff1660088111156129a857634e487b7160e01b600052602160045260246000fd5b60088111156129c757634e487b7160e01b600052602160045260246000fd5b8152600b82015461010090046001600160a01b03166020820152600c9091015460409182015201519392505050565b6101678181548110612a0757600080fd5b600091825260209091200154905081565b600260c9541415612a6b5760405162461bcd60e51b815260206004820152601f60248201527f5265656e7472616e637947756172643a207265656e7472616e742063616c6c006044820152606401610a7b565b600260c955565b60975460ff16156110d45760405162461bcd60e51b815260206004820152601060248201526f14185d5cd8589b194e881c185d5cd95960821b6044820152606401610a7b565b6000818152610163602052604090205460ff161515600114612aec5760405162461bcd60e51b8152600401610a7b90614028565b6002600082815261016160205260409020600b015460ff166008811115612b2357634e487b7160e01b600052602160045260246000fd5b14612b705760405162461bcd60e51b815260206004820152601b60248201527f4f70706f7274756e697479206973206e6f7420617070726f76656400000000006044820152606401610a7b565b6000818152610161602052604090819020600b8101805460ff19166004908117909155610160549251636902622f60e11b81526001600160a01b039093169263d204c45e92612bc792339260099092019101613e64565b600060405180830381600087803b158015612be157600080fd5b505af1158015612bf5573d6000803e3d6000fd5b5050505050565b60006004600083815261016160205260409020600b015460ff166008811115612c3557634e487b7160e01b600052602160045260246000fd5b14612c975760405162461bcd60e51b815260206004820152602c60248201527f436f6c6c61746572616c206f6620746865204f70706f7274756e69747920697360448201526b103737ba1036b4b73a32b21760a11b6064820152608401610a7b565b6000828152610163602052604090205460ff161515600114612ccb5760405162461bcd60e51b8152600401610a7b90614028565b61015f54600090612ce4906001600160a01b03166133de565b9050612cef816133f6565b61015f54600085815261016160205260409020805460058201546006830154600784015460088501546004909501549698506001600160a01b03808a169763c4f31a6597909116959060ff166001811115612d5a57634e487b7160e01b600052602160045260246000fd5b6040516001600160e01b031960e08a901b1681526001600160a01b039097166004880152602487019590955260448601939093526064850191909152608484015260a483015260ff1660c482015260e401600060405180830381600087803b158015612dc557600080fd5b505af1158015612dd9573d6000803e3d6000fd5b5050506000848152610161602052604090819020600b0180546001600160a81b03191660ff196101006001600160a01b0388160216176005179055518491507f34f84fab123faaecd80f600c68a0800a3e47c8a81e487723b1d6f454ec5ee76690612e45908590613e50565b60405180910390a250919050565b600160c955565b61109c8133613448565b612e6e82826118e5565b610d265760008281526065602090815260408083206001600160a01b03851684529091529020805460ff19166001179055612ea63390565b6001600160a01b0316816001600160a01b0316837f2f8788117e7eff1d82e926ec794901d17c78024a50270940304540a733656f0d60405160405180910390a45050565b60006001600160a01b03821663b93f9b0a60095b6040518263ffffffff1660e01b8152600401612f1c91815260200190565b60206040518083038186803b158015612f3457600080fd5b505afa158015612f48573d6000803e3d6000fd5b505050506040513d601f19601f820116820180604052508101906107fd9190613b12565b612f7682826118e5565b15610d265760008281526065602090815260408083206001600160a01b0385168085529252808320805460ff1916905551339285917ff6391f5c32d9c69d2a47ea670b442974b53935d1edc7fd64eb21e047a839171b9190a45050565b600080516020614453833981519152546001600160a01b031690565b612ff7611cb1565b61109c5760405162461bcd60e51b8152600401610a7b906142d1565b7f4910fdfa16fed3260ed0e7147f7cc6da11a60208b5b9406d12a635614ffd91435460ff161561304657610d4f836134a1565b826001600160a01b03166352d1902d6040518163ffffffff1660e01b815260040160206040518083038186803b15801561307f57600080fd5b505afa9250505080156130af575060408051601f3d908101601f191682019092526130ac91810190613bd2565b60015b6131125760405162461bcd60e51b815260206004820152602e60248201527f45524331393637557067726164653a206e657720696d706c656d656e7461746960448201526d6f6e206973206e6f74205555505360901b6064820152608401610a7b565b60008051602061445383398151915281146131815760405162461bcd60e51b815260206004820152602960248201527f45524331393637557067726164653a20756e737570706f727465642070726f786044820152681a58589b195555525160ba1b6064820152608401610a7b565b50610d4f83838361353d565b7f65d7a28e3265b37a6474929f336521b332c1681b933f6cb9f3376673440d862a90565b6131b9613568565b6097805460ff191690557f5db9ee0a495bf2e6ff9c91a7834c1ba4fdd244a5e8aa4e537bd38aeae4b073aa335b6040516131f39190613e50565b60405180910390a1565b600054610100900460ff166132245760405162461bcd60e51b8152600401610a7b9061423d565b6097805460ff19169055565b613238612a72565b6097805460ff191660011790557f62e78cea01bee320cd4e420270b5ea74000d11b0c9f74754ebdbfc544b05a2586131e63390565b600054610100900460ff166110d45760405162461bcd60e51b8152600401610a7b9061423d565b600054610100900460ff16612e535760405162461bcd60e51b8152600401610a7b9061423d565b7fa49807205ce4d355092ef5a8a18f56e8913cf4a201fbe287825b095693c2177590565b610d268282612e64565b600082815260656020526040808220600101805490849055905190918391839186917fbd79b86ffe0ab8e8776151514217cd7cacd52c909f66475c3af44e129f0b00ff9190a4505050565b60006001600160a01b03821663b93f9b0a82612efe565b60006001600160a01b03821663b93f9b0a6005612efe565b604051631f8ac6cb60e31b8152600560048201526000906001600160a01b0383169063fc5636589060240160206040518083038186803b1580156133a657600080fd5b505afa1580156133ba573d6000803e3d6000fd5b505050506040513d601f19601f820116820180604052508101906107fd9190613bd2565b60006001600160a01b03821663b93f9b0a6004612efe565b6000808260601b9050604051733d602d80600a3d3981f3363d3d373d3d3d363d7360601b81528160148201526e5af43d82803e903d91602b57fd5bf360881b60288201526037816000f0949350505050565b61345282826118e5565b610d265761345f816135b1565b61346a8360206135c3565b60405160200161347b929190613de1565b60408051601f198184030181529082905262461bcd60e51b8252610a7b91600401614015565b6001600160a01b0381163b61350e5760405162461bcd60e51b815260206004820152602d60248201527f455243313936373a206e657720696d706c656d656e746174696f6e206973206e60448201526c1bdd08184818dbdb9d1c9858dd609a1b6064820152608401610a7b565b60008051602061445383398151915280546001600160a01b0319166001600160a01b0392909216919091179055565b613546836137ac565b6000825111806135535750805b15610d4f5761356283836137ec565b50505050565b60975460ff166110d45760405162461bcd60e51b815260206004820152601460248201527314185d5cd8589b194e881b9bdd081c185d5cd95960621b6044820152606401610a7b565b60606107fd6001600160a01b03831660145b606060006135d283600261435e565b6135dd906002614346565b67ffffffffffffffff81111561360357634e487b7160e01b600052604160045260246000fd5b6040519080825280601f01601f19166020018201604052801561362d576020820181803683370190505b509050600360fc1b8160008151811061365657634e487b7160e01b600052603260045260246000fd5b60200101906001600160f81b031916908160001a905350600f60fb1b8160018151811061369357634e487b7160e01b600052603260045260246000fd5b60200101906001600160f81b031916908160001a90535060006136b784600261435e565b6136c2906001614346565b90505b6001811115613756576f181899199a1a9b1b9c1cb0b131b232b360811b85600f166010811061370457634e487b7160e01b600052603260045260246000fd5b1a60f81b82828151811061372857634e487b7160e01b600052603260045260246000fd5b60200101906001600160f81b031916908160001a90535060049490941c9361374f816143a9565b90506136c5565b5083156137a55760405162461bcd60e51b815260206004820181905260248201527f537472696e67733a20686578206c656e67746820696e73756666696369656e746044820152606401610a7b565b9392505050565b6137b5816134a1565b6040516001600160a01b038216907fbc7cd75a20ee27fd9adebab32041f755214dbc6bffa90cc0225b39da2e5c2d3b90600090a250565b60606001600160a01b0383163b6138545760405162461bcd60e51b815260206004820152602660248201527f416464726573733a2064656c65676174652063616c6c20746f206e6f6e2d636f6044820152651b9d1c9858dd60d21b6064820152608401610a7b565b600080846001600160a01b03168460405161386f9190613dc5565b600060405180830381855af49150503d80600081146138aa576040519150601f19603f3d011682016040523d82523d6000602084013e6138af565b606091505b50915091506138d78282604051806060016040528060278152602001614473602791396138e0565b95945050505050565b606083156138ef5750816137a5565b6137a583838151156139045781518083602001fd5b8060405162461bcd60e51b8152600401610a7b9190614015565b604080516101c08101825260008082526020820181905260609282018390528282019290925290608082019081526020016000815260200160008152602001600081526020016000815260200160608152602001600081526020016000600881111561399a57634e487b7160e01b600052602160045260246000fd5b815260006020820181905260409091015290565b8280546139ba906143c0565b90600052602060002090601f0160209004810192826139dc5760008555613a22565b82601f106139f557805160ff1916838001178555613a22565b82800160010185558215613a22579182015b82811115613a22578251825591602001919060010190613a07565b50613a2e929150613a32565b5090565b5b80821115613a2e5760008155600101613a33565b600067ffffffffffffffff80841115613a6257613a62614427565b604051601f8501601f19908116603f01168101908282118183101715613a8a57613a8a614427565b81604052809350858152868686011115613aa357600080fd5b858560208301376000602087830101525050509392505050565b803561115f8161443d565b80356002811061115f57600080fd5b600082601f830112613ae7578081fd5b6137a583833560208501613a47565b600060208284031215613b07578081fd5b81356137a58161443d565b600060208284031215613b23578081fd5b81516137a58161443d565b60008060408385031215613b40578081fd5b8235613b4b8161443d565b9150602083013567ffffffffffffffff811115613b66578182fd5b8301601f81018513613b76578182fd5b613b8585823560208401613a47565b9150509250929050565b60008060408385031215613ba1578182fd5b8235613bac8161443d565b946020939093013593505050565b600060208284031215613bcb578081fd5b5035919050565b600060208284031215613be3578081fd5b5051919050565b60008060408385031215613bfc578182fd5b823591506020830135613c0e8161443d565b809150509250929050565b60008060408385031215613c2b578182fd5b82359150602083013560ff81168114613c0e578182fd5b600060208284031215613c53578081fd5b81356001600160e01b0319811681146137a5578182fd5b600060208284031215613c7b578081fd5b813567ffffffffffffffff80821115613c92578283fd5b908301906101408286031215613ca6578283fd5b613cae61431c565b613cb783613abd565b8152602083013582811115613cca578485fd5b613cd687828601613ad7565b602083015250604083013582811115613ced578485fd5b613cf987828601613ad7565b604083015250613d0b60608401613ac8565b60608201526080830135608082015260a083013560a082015260c083013560c082015260e083013560e08201526101008084013583811115613d4b578586fd5b613d5788828701613ad7565b91830191909152506101209283013592810192909252509392505050565b60028110613d8557613d85614411565b9052565b60098110613d8557613d85614411565b60008151808452613db181602086016020860161437d565b601f01601f19169290920160200192915050565b60008251613dd781846020870161437d565b9190910192915050565b76020b1b1b2b9b9a1b7b73a3937b61d1030b1b1b7bab73a1604d1b815260008351613e1381601785016020880161437d565b7001034b99036b4b9b9b4b733903937b6329607d1b6017918401918201528351613e4481602884016020880161437d565b01602801949350505050565b6001600160a01b0391909116815260200190565b60018060a01b03831681526000602060408184015281845483600182811c915080831680613e9357607f831692505b858310811415613eb157634e487b7160e01b87526022600452602487fd5b6040880183905260608801818015613ed05760018114613ee157613f0b565b60ff19861682528782019650613f0b565b60008b815260209020895b86811015613f0557815484820152908501908901613eec565b83019750505b50949a9950505050505050505050565b6020808252825182820181905260009190848201906040850190845b81811015613f5357835183529284019291840191600101613f37565b50909695505050505050565b8e81526001600160a01b038e1660208201526101c060408201526000613f896101c083018f613d99565b8281036060840152613f9b818f613d99565b9050613faa608084018e613d75565b8b60a08401528a60c08401528960e084015288610100840152828103610120840152613fd68189613d99565b91505085610140830152613fee610160830186613d89565b6001600160a01b03939093166101808201526101a001529c9b505050505050505050505050565b6020815260006137a56020830184613d99565b6020808252601c908201527f4f70706f7274756e69747920494420646f65736e277420657869737400000000604082015260600190565b602080825260189082015277696e76616c696420626f72726f776572206164647265737360401b604082015260600190565b6020808252602c908201527f4d75737420686176652070617573657220726f6c6520746f20706572666f726d60408201526b103a3434b99030b1ba34b7b760a11b606082015260800190565b6020808252602c908201527f46756e6374696f6e206d7573742062652063616c6c6564207468726f7567682060408201526b19195b1959d85d1958d85b1b60a21b606082015260800190565b6020808252601d908201527f4f70706f7274756e69747920697320616c7265616479204a7564676564000000604082015260600190565b6020808252602c908201527f46756e6374696f6e206d7573742062652063616c6c6564207468726f7567682060408201526b6163746976652070726f787960a01b606082015260800190565b6020808252602e908201527f496e697469616c697a61626c653a20636f6e747261637420697320616c72656160408201526d191e481a5b9a5d1a585b1a5e995960921b606082015260800190565b60208082526023908201527f4f70706f7274756e69747920506f6f6c206973206e6f742063726561746564206040820152621e595d60ea1b606082015260800190565b6020808252602b908201527f496e697469616c697a61626c653a20636f6e7472616374206973206e6f74206960408201526a6e697469616c697a696e6760a81b606082015260800190565b60208082526029908201527f4f70706f7274756e69747920706f6f6c20697320686176656e277420647261776040820152683237bbb7103cb2ba1760b91b606082015260800190565b6020808252602b908201527f4d75737420686176652061646d696e20726f6c6520746f20706572666f726d2060408201526a3a3434b99030b1ba34b7b760a91b606082015260800190565b604051610140810167ffffffffffffffff8111828210171561434057614340614427565b60405290565b60008219821115614359576143596143fb565b500190565b6000816000190483118215151615614378576143786143fb565b500290565b60005b83811015614398578181015183820152602001614380565b838111156135625750506000910152565b6000816143b8576143b86143fb565b506000190190565b600181811c908216806143d457607f821691505b602082108114156143f557634e487b7160e01b600052602260045260246000fd5b50919050565b634e487b7160e01b600052601160045260246000fd5b634e487b7160e01b600052602160045260246000fd5b634e487b7160e01b600052604160045260246000fd5b6001600160a01b038116811461109c57600080fdfe360894a13ba1a3210667c828492db98dca3e2076cc3735a920a3ca505d382bbc416464726573733a206c6f772d6c6576656c2064656c65676174652063616c6c206661696c6564a264697066735822122033dbb597dff17369ff92834aa646e81e33957f15bb6b57290b4362cecd1266d264736f6c63430008040033",
  "linkReferences": {},
  "deployedLinkReferences": {}
}