{
  "_format": "hh-sol-artifact-1",
  "contractName": "DSMath",
  "sourceName": "contracts/protocol/DSMath.sol",
  "abi": [
    {
      "inputs": [],
      "name": "RAY",
      "outputs": [
        {
          "internalType": "uint256",
          "name": "",
          "type": "uint256"
        }
      ],
      "stateMutability": "view",
      "type": "function"
    }
  ],
  "bytecode": "0x6092610038600b82828239805160001a607314602b57634e487b7160e01b600052600060045260246000fd5b30600052607381538281f3fe730000000000000000000000000000000000000000301460806040526004361060335760003560e01c8063552033c4146038575b600080fd5b604a6b033b2e3c9fd0803ce800000081565b60405190815260200160405180910390f3fea2646970667358221220c804f7b993bdce9711ad905a844f4902830a7648d64f57957cc90ad36f56e22264736f6c63430008040033",
  "linkReferences": {},
  "deployedLinkReferences": {}
}