{
  "_format": "hh-sol-artifact-1",
  "contractName": "MultiSigWallet",
  "sourceName": "contracts/protocol/MultiSign.sol",
  "abi": [
    {
      "inputs": [
        {
          "internalType": "address[]",
          "name": "_owners",
          "type": "address[]"
        },
        {
          "internalType": "uint256",
          "name": "_numConfirmationsRequired",
          "type": "uint256"
        }
      ],
      "stateMutability": "nonpayable",
      "type": "constructor"
    },
    {
      "anonymous": false,
      "inputs": [
        {
          "indexed": true,
          "internalType": "address",
          "name": "owner",
          "type": "address"
        },
        {
          "indexed": true,
          "internalType": "uint256",
          "name": "txIndex",
          "type": "uint256"
        }
      ],
      "name": "ConfirmTransaction",
      "type": "event"
    },
    {
      "anonymous": false,
      "inputs": [
        {
          "indexed": true,
          "internalType": "address",
          "name": "sender",
          "type": "address"
        },
        {
          "indexed": false,
          "internalType": "uint256",
          "name": "amount",
          "type": "uint256"
        },
        {
          "indexed": false,
          "internalType": "uint256",
          "name": "balance",
          "type": "uint256"
        }
      ],
      "name": "Deposit",
      "type": "event"
    },
    {
      "anonymous": false,
      "inputs": [
        {
          "indexed": true,
          "internalType": "address",
          "name": "owner",
          "type": "address"
        },
        {
          "indexed": true,
          "internalType": "uint256",
          "name": "txIndex",
          "type": "uint256"
        }
      ],
      "name": "ExecuteTransaction",
      "type": "event"
    },
    {
      "anonymous": false,
      "inputs": [
        {
          "indexed": true,
          "internalType": "address",
          "name": "owner",
          "type": "address"
        },
        {
          "indexed": true,
          "internalType": "uint256",
          "name": "txIndex",
          "type": "uint256"
        }
      ],
      "name": "RevokeConfirmation",
      "type": "event"
    },
    {
      "anonymous": false,
      "inputs": [
        {
          "indexed": true,
          "internalType": "address",
          "name": "owner",
          "type": "address"
        },
        {
          "indexed": true,
          "internalType": "uint256",
          "name": "txIndex",
          "type": "uint256"
        },
        {
          "indexed": true,
          "internalType": "address",
          "name": "to",
          "type": "address"
        },
        {
          "indexed": false,
          "internalType": "uint256",
          "name": "value",
          "type": "uint256"
        }
      ],
      "name": "SubmitTransaction",
      "type": "event"
    },
    {
      "inputs": [
        {
          "internalType": "uint256",
          "name": "_txIndex",
          "type": "uint256"
        }
      ],
      "name": "confirmTransaction",
      "outputs": [],
      "stateMutability": "nonpayable",
      "type": "function"
    },
    {
      "inputs": [
        {
          "internalType": "uint256",
          "name": "_txIndex",
          "type": "uint256"
        }
      ],
      "name": "executeTransaction",
      "outputs": [],
      "stateMutability": "nonpayable",
      "type": "function"
    },
    {
      "inputs": [],
      "name": "getOwners",
      "outputs": [
        {
          "internalType": "address[]",
          "name": "",
          "type": "address[]"
        }
      ],
      "stateMutability": "view",
      "type": "function"
    },
    {
      "inputs": [
        {
          "internalType": "uint256",
          "name": "_txIndex",
          "type": "uint256"
        }
      ],
      "name": "getTransaction",
      "outputs": [
        {
          "internalType": "address",
          "name": "to",
          "type": "address"
        },
        {
          "internalType": "uint256",
          "name": "value",
          "type": "uint256"
        },
        {
          "internalType": "bool",
          "name": "executed",
          "type": "bool"
        },
        {
          "internalType": "uint256",
          "name": "numConfirmations",
          "type": "uint256"
        }
      ],
      "stateMutability": "view",
      "type": "function"
    },
    {
      "inputs": [],
      "name": "getTransactionCount",
      "outputs": [
        {
          "internalType": "uint256",
          "name": "",
          "type": "uint256"
        }
      ],
      "stateMutability": "view",
      "type": "function"
    },
    {
      "inputs": [
        {
          "internalType": "uint256",
          "name": "",
          "type": "uint256"
        },
        {
          "internalType": "address",
          "name": "",
          "type": "address"
        }
      ],
      "name": "isConfirmed",
      "outputs": [
        {
          "internalType": "bool",
          "name": "",
          "type": "bool"
        }
      ],
      "stateMutability": "view",
      "type": "function"
    },
    {
      "inputs": [
        {
          "internalType": "address",
          "name": "",
          "type": "address"
        }
      ],
      "name": "isOwner",
      "outputs": [
        {
          "internalType": "bool",
          "name": "",
          "type": "bool"
        }
      ],
      "stateMutability": "view",
      "type": "function"
    },
    {
      "inputs": [],
      "name": "numConfirmationsRequired",
      "outputs": [
        {
          "internalType": "uint256",
          "name": "",
          "type": "uint256"
        }
      ],
      "stateMutability": "view",
      "type": "function"
    },
    {
      "inputs": [
        {
          "internalType": "uint256",
          "name": "",
          "type": "uint256"
        }
      ],
      "name": "owners",
      "outputs": [
        {
          "internalType": "address",
          "name": "",
          "type": "address"
        }
      ],
      "stateMutability": "view",
      "type": "function"
    },
    {
      "inputs": [
        {
          "internalType": "uint256",
          "name": "_txIndex",
          "type": "uint256"
        }
      ],
      "name": "revokeConfirmation",
      "outputs": [],
      "stateMutability": "nonpayable",
      "type": "function"
    },
    {
      "inputs": [
        {
          "internalType": "address",
          "name": "_address",
          "type": "address"
        }
      ],
      "name": "setTresuryWalletAddress",
      "outputs": [],
      "stateMutability": "nonpayable",
      "type": "function"
    },
    {
      "inputs": [
        {
          "internalType": "address",
          "name": "_to",
          "type": "address"
        },
        {
          "internalType": "uint256",
          "name": "_value",
          "type": "uint256"
        }
      ],
      "name": "submitTransaction",
      "outputs": [],
      "stateMutability": "nonpayable",
      "type": "function"
    },
    {
      "inputs": [
        {
          "internalType": "uint256",
          "name": "",
          "type": "uint256"
        }
      ],
      "name": "transactions",
      "outputs": [
        {
          "internalType": "address",
          "name": "to",
          "type": "address"
        },
        {
          "internalType": "uint256",
          "name": "value",
          "type": "uint256"
        },
        {
          "internalType": "bool",
          "name": "executed",
          "type": "bool"
        },
        {
          "internalType": "uint256",
          "name": "numConfirmations",
          "type": "uint256"
        }
      ],
      "stateMutability": "view",
      "type": "function"
    }
  ],
  "bytecode": "0x60806040523480156200001157600080fd5b5060405162000fc938038062000fc9833981016040819052620000349162000278565b60008251116200007d5760405162461bcd60e51b815260206004820152600f60248201526e1bdddb995c9cc81c995c5d5a5c9959608a1b60448201526064015b60405180910390fd5b6000811180156200008f575081518111155b620000ee5760405162461bcd60e51b815260206004820152602860248201527f696e76616c6964206e756d626572206f6620726571756972656420636f6e6669604482015267726d6174696f6e7360c01b606482015260840162000074565b60005b8251811015620002505760008382815181106200011e57634e487b7160e01b600052603260045260246000fd5b6020026020010151905060006001600160a01b0316816001600160a01b031614156200017d5760405162461bcd60e51b815260206004820152600d60248201526c34b73b30b634b21037bbb732b960991b604482015260640162000074565b6001600160a01b03811660009081526001602052604090205460ff1615620001db5760405162461bcd60e51b815260206004820152601060248201526f6f776e6572206e6f7420756e6971756560801b604482015260640162000074565b6001600160a01b031660008181526001602081905260408220805460ff191682179055815490810182559080527f290decd9548b62a8d60345a988386fc84ba6bc95484008f6362f93160ef3e5630180546001600160a01b031916909117905580620002478162000354565b915050620000f1565b506002555062000392565b80516001600160a01b03811681146200027357600080fd5b919050565b600080604083850312156200028b578182fd5b82516001600160401b0380821115620002a2578384fd5b818501915085601f830112620002b6578384fd5b8151602082821115620002cd57620002cd6200037c565b8160051b604051601f19603f83011681018181108682111715620002f557620002f56200037c565b604052838152828101945085830182870184018b101562000314578889fd5b8896505b8487101562000341576200032c816200025b565b86526001969096019594830194830162000318565b5097909101519698969750505050505050565b60006000198214156200037557634e487b7160e01b81526011600452602481fd5b5060010190565b634e487b7160e01b600052604160045260246000fd5b610c2780620003a26000396000f3fe608060405234801561001057600080fd5b50600436106100bf5760003560e01c806358a944c71161007c57806358a944c7146101a457806380f59a65146101d45780639ace38c214610202578063a0e67e2b14610215578063c01a8c841461022a578063d0549b851461023d578063ee22610b1461024657600080fd5b8063025e7c27146100c45780631d43b653146100f457806320ea8d86146101095780632e7700f01461011c5780632f54bf6e1461012e57806333ea3dc814610161575b600080fd5b6100d76100d2366004610aa1565b610259565b6040516001600160a01b0390911681526020015b60405180910390f35b610107610102366004610a78565b610283565b005b610107610117366004610aa1565b6103f5565b6005545b6040519081526020016100eb565b61015161013c366004610a57565b60016020526000908152604090205460ff1681565b60405190151581526020016100eb565b61017461016f366004610aa1565b610593565b604080516001600160a01b03909516855260208501939093529015159183019190915260608201526080016100eb565b6101076101b2366004610a57565b600380546001600160a01b0319166001600160a01b0392909216919091179055565b6101516101e2366004610ab9565b600460209081526000928352604080842090915290825290205460ff1681565b610174610210366004610aa1565b6105fc565b61021d610643565b6040516100eb9190610ae4565b610107610238366004610aa1565b6106a5565b61012060025481565b610107610254366004610aa1565b610865565b6000818154811061026957600080fd5b6000918252602090912001546001600160a01b0316905081565b3260009081526001602052604090205460ff166102bb5760405162461bcd60e51b81526004016102b290610b89565b60405180910390fd5b60058054604080516080810182526001600160a01b03868116808352602080840188815260008587018181526060870182815260018a018b559990915294517f036b6384b5eca791c62761152d0c79bb0604c104a5fb6f4eb0703f3154bb3db06004890290810180546001600160a01b0319169290961691909117909455517f036b6384b5eca791c62761152d0c79bb0604c104a5fb6f4eb0703f3154bb3db184015592517f036b6384b5eca791c62761152d0c79bb0604c104a5fb6f4eb0703f3154bb3db28301805460ff191691151591909117905594517f036b6384b5eca791c62761152d0c79bb0604c104a5fb6f4eb0703f3154bb3db3909101559051848152919291839133917fcd144288a078b7562351164feb1762115faca27f30827b4142f2bbe27166e320910160405180910390a4505050565b3260009081526001602052604090205460ff166104245760405162461bcd60e51b81526004016102b290610b89565b600554819081106104475760405162461bcd60e51b81526004016102b290610b31565b816005818154811061046957634e487b7160e01b600052603260045260246000fd5b600091825260209091206002600490920201015460ff161561049d5760405162461bcd60e51b81526004016102b290610b5c565b6000600584815481106104c057634e487b7160e01b600052603260045260246000fd5b600091825260208083208784526004808352604080862033875290935291909320549102909101915060ff1661052b5760405162461bcd60e51b815260206004820152601060248201526f1d1e081b9bdd0818dbdb999a5c9b595960821b60448201526064016102b2565b60018160030160008282546105409190610bc4565b90915550506000848152600460209081526040808320338085529252808320805460ff191690555186927ff0dca620e2e81f7841d07bcc105e1704fb01475b278a9d4c236e1c62945edd5591a350505050565b6000806000806000600586815481106105bc57634e487b7160e01b600052603260045260246000fd5b600091825260209091206004909102018054600182015460028301546003909301546001600160a01b039092169990985060ff9092169650945092505050565b6005818154811061060c57600080fd5b600091825260209091206004909102018054600182015460028301546003909301546001600160a01b0390921693509160ff169084565b6060600080548060200260200160405190810160405280929190818152602001828054801561069b57602002820191906000526020600020905b81546001600160a01b0316815260019091019060200180831161067d575b5050505050905090565b3260009081526001602052604090205460ff166106d45760405162461bcd60e51b81526004016102b290610b89565b600554819081106106f75760405162461bcd60e51b81526004016102b290610b31565b816005818154811061071957634e487b7160e01b600052603260045260246000fd5b600091825260209091206002600490920201015460ff161561074d5760405162461bcd60e51b81526004016102b290610b5c565b6000838152600460209081526040808320338452909152902054839060ff16156107b05760405162461bcd60e51b81526020600482015260146024820152731d1e08185b1c9958591e4818dbdb999a5c9b595960621b60448201526064016102b2565b6000600585815481106107d357634e487b7160e01b600052603260045260246000fd5b9060005260206000209060040201905060018160030160008282546107f89190610bac565b90915550506000858152600460209081526040808320338085529252808320805460ff191660011790555187927f5cbe105e36805f7820e291f799d5794ff948af2a5f664e580382defb6339004191a360025481600301541061085e5761085e85610865565b5050505050565b3260009081526001602052604090205460ff166108945760405162461bcd60e51b81526004016102b290610b89565b600554819081106108b75760405162461bcd60e51b81526004016102b290610b31565b81600581815481106108d957634e487b7160e01b600052603260045260246000fd5b600091825260209091206002600490920201015460ff161561090d5760405162461bcd60e51b81526004016102b290610b5c565b60006005848154811061093057634e487b7160e01b600052603260045260246000fd5b906000526020600020906004020190506002548160030154101561098a5760405162461bcd60e51b81526020600482015260116024820152700c6c2dcdcdee840caf0cac6eae8ca40e8f607b1b60448201526064016102b2565b60028101805460ff1916600190811790915560035482549183015460405163f3fef3a360e01b81526001600160a01b039384166004820152602481019190915291169063f3fef3a390604401600060405180830381600087803b1580156109f057600080fd5b505af1158015610a04573d6000803e3d6000fd5b50506040518692503391507f5445f318f4f5fcfb66592e68e0cc5822aa15664039bd5f0ffde24c5a8142b1ac90600090a350505050565b80356001600160a01b0381168114610a5257600080fd5b919050565b600060208284031215610a68578081fd5b610a7182610a3b565b9392505050565b60008060408385031215610a8a578081fd5b610a9383610a3b565b946020939093013593505050565b600060208284031215610ab2578081fd5b5035919050565b60008060408385031215610acb578182fd5b82359150610adb60208401610a3b565b90509250929050565b6020808252825182820181905260009190848201906040850190845b81811015610b255783516001600160a01b031683529284019291840191600101610b00565b50909695505050505050565b6020808252601190820152701d1e08191bd95cc81b9bdd08195e1a5cdd607a1b604082015260600190565b6020808252601390820152721d1e08185b1c9958591e48195e1958dd5d1959606a1b604082015260600190565b6020808252600990820152683737ba1037bbb732b960b91b604082015260600190565b60008219821115610bbf57610bbf610bdb565b500190565b600082821015610bd657610bd6610bdb565b500390565b634e487b7160e01b600052601160045260246000fdfea26469706673582212202f18508d17ffbbd232ae914d21f7bba9d2e9a2eb31af64f8f648a63f2908333164736f6c63430008040033",
  "linkReferences": {},
  "deployedLinkReferences": {}
}