{
  "_format": "hh-sol-artifact-1",
  "contractName": "MultiSign",
  "sourceName": "contracts/protocol/MultiSign.sol",
  "abi": [
    {
      "anonymous": false,
      "inputs": [
        {
          "indexed": false,
          "internalType": "address",
          "name": "previousAdmin",
          "type": "address"
        },
        {
          "indexed": false,
          "internalType": "address",
          "name": "newAdmin",
          "type": "address"
        }
      ],
      "name": "AdminChanged",
      "type": "event"
    },
    {
      "anonymous": false,
      "inputs": [
        {
          "indexed": true,
          "internalType": "address",
          "name": "beacon",
          "type": "address"
        }
      ],
      "name": "BeaconUpgraded",
      "type": "event"
    },
    {
      "anonymous": false,
      "inputs": [
        {
          "indexed": true,
          "internalType": "address",
          "name": "owner",
          "type": "address"
        },
        {
          "indexed": true,
          "internalType": "uint256",
          "name": "txIndex",
          "type": "uint256"
        }
      ],
      "name": "ConfirmTransaction",
      "type": "event"
    },
    {
      "anonymous": false,
      "inputs": [
        {
          "indexed": false,
          "internalType": "uint256",
          "name": "numConfirmationsRequired",
          "type": "uint256"
        }
      ],
      "name": "ConfirmationsRequiredUpdated",
      "type": "event"
    },
    {
      "anonymous": false,
      "inputs": [
        {
          "indexed": true,
          "internalType": "address",
          "name": "sender",
          "type": "address"
        },
        {
          "indexed": false,
          "internalType": "uint256",
          "name": "amount",
          "type": "uint256"
        },
        {
          "indexed": false,
          "internalType": "uint256",
          "name": "balance",
          "type": "uint256"
        }
      ],
      "name": "Deposit",
      "type": "event"
    },
    {
      "anonymous": false,
      "inputs": [
        {
          "indexed": true,
          "internalType": "address",
          "name": "owner",
          "type": "address"
        },
        {
          "indexed": true,
          "internalType": "uint256",
          "name": "txIndex",
          "type": "uint256"
        }
      ],
      "name": "ExecuteTransaction",
      "type": "event"
    },
    {
      "anonymous": false,
      "inputs": [
        {
          "indexed": false,
          "internalType": "uint8",
          "name": "version",
          "type": "uint8"
        }
      ],
      "name": "Initialized",
      "type": "event"
    },
    {
      "anonymous": false,
      "inputs": [
        {
          "indexed": true,
          "internalType": "address",
          "name": "owner",
          "type": "address"
        }
      ],
      "name": "OwnerAdded",
      "type": "event"
    },
    {
      "anonymous": false,
      "inputs": [
        {
          "indexed": true,
          "internalType": "address",
          "name": "owner",
          "type": "address"
        }
      ],
      "name": "OwnerRemoved",
      "type": "event"
    },
    {
      "anonymous": false,
      "inputs": [
        {
          "indexed": false,
          "internalType": "address",
          "name": "account",
          "type": "address"
        }
      ],
      "name": "Paused",
      "type": "event"
    },
    {
      "anonymous": false,
      "inputs": [
        {
          "indexed": true,
          "internalType": "address",
          "name": "owner",
          "type": "address"
        },
        {
          "indexed": true,
          "internalType": "uint256",
          "name": "txIndex",
          "type": "uint256"
        }
      ],
      "name": "RevokeConfirmation",
      "type": "event"
    },
    {
      "anonymous": false,
      "inputs": [
        {
          "indexed": true,
          "internalType": "bytes32",
          "name": "role",
          "type": "bytes32"
        },
        {
          "indexed": true,
          "internalType": "bytes32",
          "name": "previousAdminRole",
          "type": "bytes32"
        },
        {
          "indexed": true,
          "internalType": "bytes32",
          "name": "newAdminRole",
          "type": "bytes32"
        }
      ],
      "name": "RoleAdminChanged",
      "type": "event"
    },
    {
      "anonymous": false,
      "inputs": [
        {
          "indexed": true,
          "internalType": "bytes32",
          "name": "role",
          "type": "bytes32"
        },
        {
          "indexed": true,
          "internalType": "address",
          "name": "account",
          "type": "address"
        },
        {
          "indexed": true,
          "internalType": "address",
          "name": "sender",
          "type": "address"
        }
      ],
      "name": "RoleGranted",
      "type": "event"
    },
    {
      "anonymous": false,
      "inputs": [
        {
          "indexed": true,
          "internalType": "bytes32",
          "name": "role",
          "type": "bytes32"
        },
        {
          "indexed": true,
          "internalType": "address",
          "name": "account",
          "type": "address"
        },
        {
          "indexed": true,
          "internalType": "address",
          "name": "sender",
          "type": "address"
        }
      ],
      "name": "RoleRevoked",
      "type": "event"
    },
    {
      "anonymous": false,
      "inputs": [
        {
          "indexed": true,
          "internalType": "address",
          "name": "owner",
          "type": "address"
        },
        {
          "indexed": true,
          "internalType": "uint256",
          "name": "txIndex",
          "type": "uint256"
        },
        {
          "indexed": true,
          "internalType": "address",
          "name": "to",
          "type": "address"
        },
        {
          "indexed": false,
          "internalType": "uint256",
          "name": "value",
          "type": "uint256"
        },
        {
          "indexed": false,
          "internalType": "bytes",
          "name": "data",
          "type": "bytes"
        }
      ],
      "name": "SubmitTransaction",
      "type": "event"
    },
    {
      "anonymous": false,
      "inputs": [
        {
          "indexed": false,
          "internalType": "address",
          "name": "account",
          "type": "address"
        }
      ],
      "name": "Unpaused",
      "type": "event"
    },
    {
      "anonymous": false,
      "inputs": [
        {
          "indexed": true,
          "internalType": "address",
          "name": "implementation",
          "type": "address"
        }
      ],
      "name": "Upgraded",
      "type": "event"
    },
    {
      "inputs": [],
      "name": "DEFAULT_ADMIN_ROLE",
      "outputs": [
        {
          "internalType": "bytes32",
          "name": "",
          "type": "bytes32"
        }
      ],
      "stateMutability": "view",
      "type": "function"
    },
    {
      "inputs": [
        {
          "internalType": "address",
          "name": "owner",
          "type": "address"
        }
      ],
      "name": "_BaseUpgradeablePausable_init",
      "outputs": [],
      "stateMutability": "nonpayable",
      "type": "function"
    },
    {
      "inputs": [
        {
          "internalType": "address[]",
          "name": "_owners",
          "type": "address[]"
        },
        {
          "internalType": "uint256",
          "name": "_numConfirmationsRequired",
          "type": "uint256"
        }
      ],
      "name": "_MultiSign_init",
      "outputs": [],
      "stateMutability": "nonpayable",
      "type": "function"
    },
    {
      "inputs": [],
      "name": "__PauserPausable__init",
      "outputs": [],
      "stateMutability": "nonpayable",
      "type": "function"
    },
    {
      "inputs": [
        {
          "internalType": "address",
          "name": "owner",
          "type": "address"
        }
      ],
      "name": "addOwner",
      "outputs": [],
      "stateMutability": "nonpayable",
      "type": "function"
    },
    {
      "inputs": [
        {
          "internalType": "uint256",
          "name": "_txIndex",
          "type": "uint256"
        }
      ],
      "name": "confirmTransaction",
      "outputs": [],
      "stateMutability": "nonpayable",
      "type": "function"
    },
    {
      "inputs": [],
      "name": "getOwners",
      "outputs": [
        {
          "internalType": "address[]",
          "name": "",
          "type": "address[]"
        }
      ],
      "stateMutability": "view",
      "type": "function"
    },
    {
      "inputs": [
        {
          "internalType": "bytes32",
          "name": "role",
          "type": "bytes32"
        }
      ],
      "name": "getRoleAdmin",
      "outputs": [
        {
          "internalType": "bytes32",
          "name": "",
          "type": "bytes32"
        }
      ],
      "stateMutability": "view",
      "type": "function"
    },
    {
      "inputs": [
        {
          "internalType": "uint256",
          "name": "_txIndex",
          "type": "uint256"
        }
      ],
      "name": "getTransaction",
      "outputs": [
        {
          "internalType": "address",
          "name": "to",
          "type": "address"
        },
        {
          "internalType": "uint256",
          "name": "value",
          "type": "uint256"
        },
        {
          "internalType": "bytes",
          "name": "data",
          "type": "bytes"
        },
        {
          "internalType": "bool",
          "name": "executed",
          "type": "bool"
        },
        {
          "internalType": "uint256",
          "name": "numConfirmations",
          "type": "uint256"
        }
      ],
      "stateMutability": "view",
      "type": "function"
    },
    {
      "inputs": [],
      "name": "getTransactionCount",
      "outputs": [
        {
          "internalType": "uint256",
          "name": "",
          "type": "uint256"
        }
      ],
      "stateMutability": "view",
      "type": "function"
    },
    {
      "inputs": [
        {
          "internalType": "bytes32",
          "name": "role",
          "type": "bytes32"
        },
        {
          "internalType": "address",
          "name": "account",
          "type": "address"
        }
      ],
      "name": "grantRole",
      "outputs": [],
      "stateMutability": "nonpayable",
      "type": "function"
    },
    {
      "inputs": [
        {
          "internalType": "bytes32",
          "name": "role",
          "type": "bytes32"
        },
        {
          "internalType": "address",
          "name": "account",
          "type": "address"
        }
      ],
      "name": "hasRole",
      "outputs": [
        {
          "internalType": "bool",
          "name": "",
          "type": "bool"
        }
      ],
      "stateMutability": "view",
      "type": "function"
    },
    {
      "inputs": [],
      "name": "isAdmin",
      "outputs": [
        {
          "internalType": "bool",
          "name": "",
          "type": "bool"
        }
      ],
      "stateMutability": "view",
      "type": "function"
    },
    {
      "inputs": [
        {
          "internalType": "uint256",
          "name": "",
          "type": "uint256"
        },
        {
          "internalType": "address",
          "name": "",
          "type": "address"
        }
      ],
      "name": "isConfirmed",
      "outputs": [
        {
          "internalType": "bool",
          "name": "",
          "type": "bool"
        }
      ],
      "stateMutability": "view",
      "type": "function"
    },
    {
      "inputs": [
        {
          "internalType": "address",
          "name": "",
          "type": "address"
        }
      ],
      "name": "isOwner",
      "outputs": [
        {
          "internalType": "bool",
          "name": "",
          "type": "bool"
        }
      ],
      "stateMutability": "view",
      "type": "function"
    },
    {
      "inputs": [],
      "name": "numConfirmationsRequired",
      "outputs": [
        {
          "internalType": "uint256",
          "name": "",
          "type": "uint256"
        }
      ],
      "stateMutability": "view",
      "type": "function"
    },
    {
      "inputs": [
        {
          "internalType": "uint256",
          "name": "",
          "type": "uint256"
        }
      ],
      "name": "owners",
      "outputs": [
        {
          "internalType": "address",
          "name": "",
          "type": "address"
        }
      ],
      "stateMutability": "view",
      "type": "function"
    },
    {
      "inputs": [],
      "name": "pause",
      "outputs": [],
      "stateMutability": "nonpayable",
      "type": "function"
    },
    {
      "inputs": [],
      "name": "paused",
      "outputs": [
        {
          "internalType": "bool",
          "name": "",
          "type": "bool"
        }
      ],
      "stateMutability": "view",
      "type": "function"
    },
    {
      "inputs": [],
      "name": "proxiableUUID",
      "outputs": [
        {
          "internalType": "bytes32",
          "name": "",
          "type": "bytes32"
        }
      ],
      "stateMutability": "view",
      "type": "function"
    },
    {
      "inputs": [
        {
          "internalType": "address",
          "name": "owner",
          "type": "address"
        }
      ],
      "name": "removeOwner",
      "outputs": [],
      "stateMutability": "nonpayable",
      "type": "function"
    },
    {
      "inputs": [
        {
          "internalType": "bytes32",
          "name": "role",
          "type": "bytes32"
        },
        {
          "internalType": "address",
          "name": "account",
          "type": "address"
        }
      ],
      "name": "renounceRole",
      "outputs": [],
      "stateMutability": "nonpayable",
      "type": "function"
    },
    {
      "inputs": [
        {
          "internalType": "uint256",
          "name": "_txIndex",
          "type": "uint256"
        }
      ],
      "name": "revokeConfirmation",
      "outputs": [],
      "stateMutability": "nonpayable",
      "type": "function"
    },
    {
      "inputs": [
        {
          "internalType": "bytes32",
          "name": "role",
          "type": "bytes32"
        },
        {
          "internalType": "address",
          "name": "account",
          "type": "address"
        }
      ],
      "name": "revokeRole",
      "outputs": [],
      "stateMutability": "nonpayable",
      "type": "function"
    },
    {
      "inputs": [
        {
          "internalType": "address",
          "name": "_to",
          "type": "address"
        },
        {
          "internalType": "uint256",
          "name": "_value",
          "type": "uint256"
        },
        {
          "internalType": "bytes",
          "name": "_data",
          "type": "bytes"
        }
      ],
      "name": "submitTransaction",
      "outputs": [],
      "stateMutability": "nonpayable",
      "type": "function"
    },
    {
      "inputs": [
        {
          "internalType": "bytes4",
          "name": "interfaceId",
          "type": "bytes4"
        }
      ],
      "name": "supportsInterface",
      "outputs": [
        {
          "internalType": "bool",
          "name": "",
          "type": "bool"
        }
      ],
      "stateMutability": "view",
      "type": "function"
    },
    {
      "inputs": [
        {
          "internalType": "uint256",
          "name": "",
          "type": "uint256"
        }
      ],
      "name": "transactions",
      "outputs": [
        {
          "internalType": "address",
          "name": "to",
          "type": "address"
        },
        {
          "internalType": "uint256",
          "name": "value",
          "type": "uint256"
        },
        {
          "internalType": "bytes",
          "name": "data",
          "type": "bytes"
        },
        {
          "internalType": "bool",
          "name": "executed",
          "type": "bool"
        },
        {
          "internalType": "uint256",
          "name": "numConfirmations",
          "type": "uint256"
        }
      ],
      "stateMutability": "view",
      "type": "function"
    },
    {
      "inputs": [],
      "name": "unpause",
      "outputs": [],
      "stateMutability": "nonpayable",
      "type": "function"
    },
    {
      "inputs": [
        {
          "internalType": "uint256",
          "name": "_numConfirmationsRequired",
          "type": "uint256"
        }
      ],
      "name": "updateNumConfirmationsRequired",
      "outputs": [],
      "stateMutability": "nonpayable",
      "type": "function"
    },
    {
      "inputs": [
        {
          "internalType": "address",
          "name": "newImplementation",
          "type": "address"
        }
      ],
      "name": "upgradeTo",
      "outputs": [],
      "stateMutability": "nonpayable",
      "type": "function"
    },
    {
      "inputs": [
        {
          "internalType": "address",
          "name": "newImplementation",
          "type": "address"
        },
        {
          "internalType": "bytes",
          "name": "data",
          "type": "bytes"
        }
      ],
      "name": "upgradeToAndCall",
      "outputs": [],
      "stateMutability": "payable",
      "type": "function"
    }
  ],
  "bytecode": "0x60a06040523060601b60805234801561001757600080fd5b5060805160601c612e8d61005260003960008181610bde01528181610c1e01528181610daf01528181610def0152610f2a0152612e8d6000f3fe6080604052600436106101985760003560e01c806352d1902d116100e2578063a12dde4d11610085578063a12dde4d146104bf578063a217fddf146104df578063b6db75a0146104f4578063c01a8c8414610509578063c642747414610529578063ce24b7a914610549578063d0549b8514610569578063d547741f1461058057600080fd5b806352d1902d146103bf5780635c975abb146103d45780637065cb48146103ec57806380f59a651461040c5780638456cb591461044857806391d148541461045d5780639ace38c21461047d578063a0e67e2b1461049d57600080fd5b80632f54bf6e1161014a5780632f54bf6e146102c057806333ea3dc8146102f157806336568abe146103225780633659cfe6146103425780633aa9f599146103625780633f4ba83a146103825780634f1ef28614610397578063526d81f6146103aa57600080fd5b806301ffc9a71461019d578063025e7c27146101d2578063173825d91461020a57806320ea8d861461022c578063248a9ca31461024c5780632e7700f01461028a5780632f2ff15d146102a0575b600080fd5b3480156101a957600080fd5b506101bd6101b8366004612802565b6105a0565b60405190151581526020015b60405180910390f35b3480156101de57600080fd5b506101f26101ed3660046127a7565b6105d7565b6040516001600160a01b0390911681526020016101c9565b34801561021657600080fd5b5061022a610225366004612637565b610602565b005b34801561023857600080fd5b5061022a6102473660046127a7565b61087d565b34801561025857600080fd5b5061027c6102673660046127a7565b60009081526065602052604090206001015490565b6040519081526020016101c9565b34801561029657600080fd5b506101635461027c565b3480156102ac57600080fd5b5061022a6102bb3660046127d7565b610a21565b3480156102cc57600080fd5b506101bd6102db366004612637565b6101606020526000908152604090205460ff1681565b3480156102fd57600080fd5b5061031161030c3660046127a7565b610a4b565b6040516101c995949392919061297c565b34801561032e57600080fd5b5061022a61033d3660046127d7565b610b55565b34801561034e57600080fd5b5061022a61035d366004612637565b610bd3565b34801561036e57600080fd5b5061022a61037d3660046127a7565b610c9c565b34801561038e57600080fd5b5061022a610d6d565b61022a6103a5366004612651565b610da4565b3480156103b657600080fd5b5061022a610e5a565b3480156103cb57600080fd5b5061027c610f1d565b3480156103e057600080fd5b5060975460ff166101bd565b3480156103f857600080fd5b5061022a610407366004612637565b610fcb565b34801561041857600080fd5b506101bd6104273660046127d7565b61016260209081526000928352604080842090915290825290205460ff1681565b34801561045457600080fd5b5061022a6110f6565b34801561046957600080fd5b506101bd6104783660046127d7565b611125565b34801561048957600080fd5b506103116104983660046127a7565b611150565b3480156104a957600080fd5b506104b261122a565b6040516101c991906129b7565b3480156104cb57600080fd5b5061022a6104da366004612637565b61128d565b3480156104eb57600080fd5b5061027c600081565b34801561050057600080fd5b506101bd611361565b34801561051557600080fd5b5061022a6105243660046127a7565b611373565b34801561053557600080fd5b5061022a61054436600461269d565b61153a565b34801561055557600080fd5b5061022a6105643660046126f2565b6116db565b34801561057557600080fd5b5061027c6101615481565b34801561058c57600080fd5b5061022a61059b3660046127d7565b61197c565b60006001600160e01b03198216637965db0b60e01b14806105d157506301ffc9a760e01b6001600160e01b03198316145b92915050565b61015f81815481106105e857600080fd5b6000918252602090912001546001600160a01b0316905081565b61060a611361565b61062f5760405162461bcd60e51b815260040161062690612c60565b60405180910390fd5b6001600160a01b0381166106555760405162461bcd60e51b815260040161062690612b25565b6001600160a01b0381166000908152610160602052604090205460ff166106b55760405162461bcd60e51b81526020600482015260146024820152731bdddb995c88191bd95cc81b9bdd08195e1a5cdd60621b6044820152606401610626565b6001600160a01b038116600090815261016060205260408120805460ff191690555b61015f546106e790600190612d34565b8110156107e457816001600160a01b031661015f828154811061071a57634e487b7160e01b600052603260045260246000fd5b6000918252602090912001546001600160a01b031614156107d25761015f805461074690600190612d34565b8154811061076457634e487b7160e01b600052603260045260246000fd5b60009182526020909120015461015f80546001600160a01b03909216918390811061079f57634e487b7160e01b600052603260045260246000fd5b9060005260206000200160006101000a8154816001600160a01b0302191690836001600160a01b031602179055506107e4565b806107dc81612dc9565b9150506106d7565b5061015f80548061080557634e487b7160e01b600052603160045260246000fd5b6001900381819060005260206000200160006101000a8154906001600160a01b0302191690559055600161016160008282546108419190612d34565b90915550506040516001600160a01b038216907f58619076adf5bb0943d100ef88d52d7c3fd691b19d3a9071b555b651fbf418da90600090a250565b336000908152610160602052604090205460ff166108ad5760405162461bcd60e51b815260040161062690612c3d565b61016354819081106108d15760405162461bcd60e51b815260040161062690612b9a565b8161016381815481106108f457634e487b7160e01b600052603260045260246000fd5b600091825260209091206003600590920201015460ff16156109285760405162461bcd60e51b815260040161062690612c10565b6000610163848154811061094c57634e487b7160e01b600052603260045260246000fd5b60009182526020808320878452610162825260408085203386529092529220546005909102909101915060ff166109b85760405162461bcd60e51b815260206004820152601060248201526f1d1e081b9bdd0818dbdb999a5c9b595960821b6044820152606401610626565b60018160040160008282546109cd9190612d34565b9091555050600084815261016260209081526040808320338085529252808320805460ff191690555186927ff0dca620e2e81f7841d07bcc105e1704fb01475b278a9d4c236e1c62945edd5591a350505050565b600082815260656020526040902060010154610a3c816119a1565b610a4683836119ab565b505050565b600080606060008060006101638781548110610a7757634e487b7160e01b600052603260045260246000fd5b6000918252602090912060059091020180546001820154600383015460048401546002850180549596506001600160a01b039094169492939260ff909216918390610ac190612d8e565b80601f0160208091040260200160405190810160405280929190818152602001828054610aed90612d8e565b8015610b3a5780601f10610b0f57610100808354040283529160200191610b3a565b820191906000526020600020905b815481529060010190602001808311610b1d57829003601f168201915b50505050509250955095509550955095505091939590929450565b6001600160a01b0381163314610bc55760405162461bcd60e51b815260206004820152602f60248201527f416363657373436f6e74726f6c3a2063616e206f6e6c792072656e6f756e636560448201526e103937b632b9903337b91039b2b63360891b6064820152608401610626565b610bcf8282611a31565b5050565b306001600160a01b037f0000000000000000000000000000000000000000000000000000000000000000161415610c1c5760405162461bcd60e51b815260040161062690612a8d565b7f00000000000000000000000000000000000000000000000000000000000000006001600160a01b0316610c4e611a98565b6001600160a01b031614610c745760405162461bcd60e51b815260040161062690612ad9565b610c7d81611ab4565b60408051600080825260208201909252610c9991839190611ad8565b50565b610ca4611361565b610cc05760405162461bcd60e51b815260040161062690612c60565b600081118015610cd3575061015f548111155b610d305760405162461bcd60e51b815260206004820152602860248201527f696e76616c6964206e756d626572206f6620636f6e6669726d6174696f6e73206044820152671c995c5d5a5c995960c21b6064820152608401610626565b6101618190556040518181527f9f75fbfb9443245a9ddd58e8251616e2eca7226042274e46d917d5610f7871ce906020015b60405180910390a150565b610d7e610d78611c52565b33611125565b610d9a5760405162461bcd60e51b815260040161062690612a41565b610da2611c76565b565b306001600160a01b037f0000000000000000000000000000000000000000000000000000000000000000161415610ded5760405162461bcd60e51b815260040161062690612a8d565b7f00000000000000000000000000000000000000000000000000000000000000006001600160a01b0316610e1f611a98565b6001600160a01b031614610e455760405162461bcd60e51b815260040161062690612ad9565b610e4e82611ab4565b610bcf82826001611ad8565b600054610100900460ff1615808015610e7a5750600054600160ff909116105b80610e945750303b158015610e94575060005460ff166001145b610eb05760405162461bcd60e51b815260040161062690612b4c565b6000805460ff191660011790558015610ed3576000805461ff0019166101001790555b610edb611cc8565b8015610c99576000805461ff0019169055604051600181527f7f26b83ff96e1f2b6a682f133852f6798a09c465da95921460cefb384740249890602001610d62565b6000306001600160a01b037f00000000000000000000000000000000000000000000000000000000000000001614610fb85760405162461bcd60e51b815260206004820152603860248201527f555550535570677261646561626c653a206d757374206e6f742062652063616c6044820152771b1959081d1a1c9bdd59da0819195b1959d85d1958d85b1b60421b6064820152608401610626565b50600080516020612e1183398151915290565b610fd3611361565b610fef5760405162461bcd60e51b815260040161062690612c60565b6001600160a01b0381166110155760405162461bcd60e51b815260040161062690612b25565b6001600160a01b0381166000908152610160602052604090205460ff161561104f5760405162461bcd60e51b815260040161062690612a17565b6001600160a01b03811660008181526101606020526040808220805460ff1916600190811790915561015f8054918201815583527f8c9815a58669fc89297bdc7dd447c098116f98e79093735c0992d0967b696ed90180546001600160a01b03191684179055517f994a936646fe87ffe4f1e469d3d6aa417d6b855598397f323de5b449f765f0c39190a2600161016160008282546110ee9190612cfd565b909155505050565b611101610d78611c52565b61111d5760405162461bcd60e51b815260040161062690612a41565b610da2611cfb565b60009182526065602090815260408084206001600160a01b0393909316845291905290205460ff1690565b610163818154811061116157600080fd5b60009182526020909120600590910201805460018201546002830180546001600160a01b03909316945090929161119790612d8e565b80601f01602080910402602001604051908101604052809291908181526020018280546111c390612d8e565b80156112105780601f106111e557610100808354040283529160200191611210565b820191906000526020600020905b8154815290600101906020018083116111f357829003601f168201915b505050506003830154600490930154919260ff1691905085565b606061015f80548060200260200160405190810160405280929190818152602001828054801561128357602002820191906000526020600020905b81546001600160a01b03168152600190910190602001808311611265575b5050505050905090565b600054610100900460ff166112b45760405162461bcd60e51b815260040161062690612bc5565b6001600160a01b03811661130a5760405162461bcd60e51b815260206004820181905260248201527f4f776e65722063616e6e6f7420626520746865207a65726f20616464726573736044820152606401610626565b611312611d38565b61131a611cc8565b611322611d5f565b61133361132d611d8d565b82611db1565b61133e61132d611c52565b611356611349611c52565b611351611d8d565b611dbb565b610c99611349611d8d565b600061136e610d78611d8d565b905090565b336000908152610160602052604090205460ff166113a35760405162461bcd60e51b815260040161062690612c3d565b61016354819081106113c75760405162461bcd60e51b815260040161062690612b9a565b8161016381815481106113ea57634e487b7160e01b600052603260045260246000fd5b600091825260209091206003600590920201015460ff161561141e5760405162461bcd60e51b815260040161062690612c10565b600083815261016260209081526040808320338452909152902054839060ff16156114825760405162461bcd60e51b81526020600482015260146024820152731d1e08185b1c9958591e4818dbdb999a5c9b595960621b6044820152606401610626565b600061016385815481106114a657634e487b7160e01b600052603260045260246000fd5b9060005260206000209060050201905060018160040160008282546114cb9190612cfd565b9091555050600085815261016260209081526040808320338085529252808320805460ff191660011790555187927f5cbe105e36805f7820e291f799d5794ff948af2a5f664e580382defb6339004191a3610161548160040154106115335761153385611e06565b5050505050565b6001600160a01b0383166115825760405162461bcd60e51b815260206004820152600f60248201526e696e76616c6964206164647265737360881b6044820152606401610626565b61016380546040805160a0810182526001600160a01b0387811682526020808301888152938301878152600060608501819052608085018190526001870188559690965282517fb0f3e90519fd0de3100ca1a24094c0a25e5cbf467d74a2603172b5a5204555b36005870290810180546001600160a01b0319169290941691909117835593517fb0f3e90519fd0de3100ca1a24094c0a25e5cbf467d74a2603172b5a5204555b485015594518051949592949193611667937fb0f3e90519fd0de3100ca1a24094c0a25e5cbf467d74a2603172b5a5204555b590910192910190612517565b50606082015160038201805460ff19169115159190911790556080909101516004909101556040516001600160a01b03851690829033907fd5a05bf70715ad82a09a756320284a1b54c9ff74cd0f8cce6219e79b563fe59d906116cd9088908890612cab565b60405180910390a450505050565b600054610100900460ff16158080156116fb5750600054600160ff909116105b806117155750303b158015611715575060005460ff166001145b6117315760405162461bcd60e51b815260040161062690612b4c565b6000805460ff191660011790558015611754576000805461ff0019166101001790555b60008351116117975760405162461bcd60e51b815260206004820152600f60248201526e1bdddb995c9cc81c995c5d5a5c9959608a1b6044820152606401610626565b6000821180156117a8575082518211155b6118055760405162461bcd60e51b815260206004820152602860248201527f696e76616c6964206e756d626572206f6620726571756972656420636f6e6669604482015267726d6174696f6e7360c01b6064820152608401610626565b61180e3361128d565b60005b835181101561192b57600084828151811061183c57634e487b7160e01b600052603260045260246000fd5b6020026020010151905060006001600160a01b0316816001600160a01b031614156118795760405162461bcd60e51b815260040161062690612b25565b6001600160a01b0381166000908152610160602052604090205460ff16156118b35760405162461bcd60e51b815260040161062690612a17565b6001600160a01b0316600081815261016060205260408120805460ff1916600190811790915561015f805491820181559091527f8c9815a58669fc89297bdc7dd447c098116f98e79093735c0992d0967b696ed90180546001600160a01b03191690911790558061192381612dc9565b915050611811565b506101618290558015610a46576000805461ff0019169055604051600181527f7f26b83ff96e1f2b6a682f133852f6798a09c465da95921460cefb38474024989060200160405180910390a1505050565b600082815260656020526040902060010154611997816119a1565b610a468383611a31565b610c998133612007565b6119b58282611125565b610bcf5760008281526065602090815260408083206001600160a01b03851684529091529020805460ff191660011790556119ed3390565b6001600160a01b0316816001600160a01b0316837f2f8788117e7eff1d82e926ec794901d17c78024a50270940304540a733656f0d60405160405180910390a45050565b611a3b8282611125565b15610bcf5760008281526065602090815260408083206001600160a01b0385168085529252808320805460ff1916905551339285917ff6391f5c32d9c69d2a47ea670b442974b53935d1edc7fd64eb21e047a839171b9190a45050565b600080516020612e11833981519152546001600160a01b031690565b611abc611361565b610c995760405162461bcd60e51b815260040161062690612c60565b7f4910fdfa16fed3260ed0e7147f7cc6da11a60208b5b9406d12a635614ffd91435460ff1615611b0b57610a468361206b565b826001600160a01b03166352d1902d6040518163ffffffff1660e01b815260040160206040518083038186803b158015611b4457600080fd5b505afa925050508015611b74575060408051601f3d908101601f19168201909252611b71918101906127bf565b60015b611bd75760405162461bcd60e51b815260206004820152602e60248201527f45524331393637557067726164653a206e657720696d706c656d656e7461746960448201526d6f6e206973206e6f74205555505360901b6064820152608401610626565b600080516020612e118339815191528114611c465760405162461bcd60e51b815260206004820152602960248201527f45524331393637557067726164653a20756e737570706f727465642070726f786044820152681a58589b195555525160ba1b6064820152608401610626565b50610a46838383612107565b7f65d7a28e3265b37a6474929f336521b332c1681b933f6cb9f3376673440d862a90565b611c7e612132565b6097805460ff191690557f5db9ee0a495bf2e6ff9c91a7834c1ba4fdd244a5e8aa4e537bd38aeae4b073aa335b6040516001600160a01b03909116815260200160405180910390a1565b600054610100900460ff16611cef5760405162461bcd60e51b815260040161062690612bc5565b6097805460ff19169055565b611d0361217b565b6097805460ff191660011790557f62e78cea01bee320cd4e420270b5ea74000d11b0c9f74754ebdbfc544b05a258611cab3390565b600054610100900460ff16610da25760405162461bcd60e51b815260040161062690612bc5565b600054610100900460ff16611d865760405162461bcd60e51b815260040161062690612bc5565b600160c955565b7fa49807205ce4d355092ef5a8a18f56e8913cf4a201fbe287825b095693c2177590565b610bcf82826119ab565b600082815260656020526040808220600101805490849055905190918391839186917fbd79b86ffe0ab8e8776151514217cd7cacd52c909f66475c3af44e129f0b00ff9190a4505050565b336000908152610160602052604090205460ff16611e365760405162461bcd60e51b815260040161062690612c3d565b6101635481908110611e5a5760405162461bcd60e51b815260040161062690612b9a565b816101638181548110611e7d57634e487b7160e01b600052603260045260246000fd5b600091825260209091206003600590920201015460ff1615611eb15760405162461bcd60e51b815260040161062690612c10565b60006101638481548110611ed557634e487b7160e01b600052603260045260246000fd5b906000526020600020906005020190506101615481600401541015611f305760405162461bcd60e51b81526020600482015260116024820152700c6c2dcdcdee840caf0cac6eae8ca40e8f607b1b6044820152606401610626565b60038101805460ff1916600190811790915581549082015460405160009283926001600160a01b0390911691611f6a906002870190612872565b60006040518083038185875af1925050503d8060008114611fa7576040519150601f19603f3d011682016040523d82523d6000602084013e611fac565b606091505b5091509150818190611fd15760405162461bcd60e51b81526004016106269190612a04565b50604051869033907f5445f318f4f5fcfb66592e68e0cc5822aa15664039bd5f0ffde24c5a8142b1ac90600090a3505050505050565b6120118282611125565b610bcf57612029816001600160a01b031660146121c1565b6120348360206121c1565b60405160200161204592919061290d565b60408051601f198184030181529082905262461bcd60e51b825261062691600401612a04565b6001600160a01b0381163b6120d85760405162461bcd60e51b815260206004820152602d60248201527f455243313936373a206e657720696d706c656d656e746174696f6e206973206e60448201526c1bdd08184818dbdb9d1c9858dd609a1b6064820152608401610626565b600080516020612e1183398151915280546001600160a01b0319166001600160a01b0392909216919091179055565b612110836123aa565b60008251118061211d5750805b15610a465761212c83836123ea565b50505050565b60975460ff16610da25760405162461bcd60e51b815260206004820152601460248201527314185d5cd8589b194e881b9bdd081c185d5cd95960621b6044820152606401610626565b60975460ff1615610da25760405162461bcd60e51b815260206004820152601060248201526f14185d5cd8589b194e881c185d5cd95960821b6044820152606401610626565b606060006121d0836002612d15565b6121db906002612cfd565b67ffffffffffffffff81111561220157634e487b7160e01b600052604160045260246000fd5b6040519080825280601f01601f19166020018201604052801561222b576020820181803683370190505b509050600360fc1b8160008151811061225457634e487b7160e01b600052603260045260246000fd5b60200101906001600160f81b031916908160001a905350600f60fb1b8160018151811061229157634e487b7160e01b600052603260045260246000fd5b60200101906001600160f81b031916908160001a90535060006122b5846002612d15565b6122c0906001612cfd565b90505b6001811115612354576f181899199a1a9b1b9c1cb0b131b232b360811b85600f166010811061230257634e487b7160e01b600052603260045260246000fd5b1a60f81b82828151811061232657634e487b7160e01b600052603260045260246000fd5b60200101906001600160f81b031916908160001a90535060049490941c9361234d81612d77565b90506122c3565b5083156123a35760405162461bcd60e51b815260206004820181905260248201527f537472696e67733a20686578206c656e67746820696e73756666696369656e746044820152606401610626565b9392505050565b6123b38161206b565b6040516001600160a01b038216907fbc7cd75a20ee27fd9adebab32041f755214dbc6bffa90cc0225b39da2e5c2d3b90600090a250565b60606001600160a01b0383163b6124525760405162461bcd60e51b815260206004820152602660248201527f416464726573733a2064656c65676174652063616c6c20746f206e6f6e2d636f6044820152651b9d1c9858dd60d21b6064820152608401610626565b600080846001600160a01b03168460405161246d9190612856565b600060405180830381855af49150503d80600081146124a8576040519150601f19603f3d011682016040523d82523d6000602084013e6124ad565b606091505b50915091506124d58282604051806060016040528060278152602001612e31602791396124de565b95945050505050565b606083156124ed5750816123a3565b8251156124fd5782518084602001fd5b8160405162461bcd60e51b81526004016106269190612a04565b82805461252390612d8e565b90600052602060002090601f016020900481019282612545576000855561258b565b82601f1061255e57805160ff191683800117855561258b565b8280016001018555821561258b579182015b8281111561258b578251825591602001919060010190612570565b5061259792915061259b565b5090565b5b80821115612597576000815560010161259c565b80356001600160a01b03811681146125c757600080fd5b919050565b600082601f8301126125dc578081fd5b813567ffffffffffffffff8111156125f6576125f6612dfa565b612609601f8201601f1916602001612ccc565b81815284602083860101111561261d578283fd5b816020850160208301379081016020019190915292915050565b600060208284031215612648578081fd5b6123a3826125b0565b60008060408385031215612663578081fd5b61266c836125b0565b9150602083013567ffffffffffffffff811115612687578182fd5b612693858286016125cc565b9150509250929050565b6000806000606084860312156126b1578081fd5b6126ba846125b0565b925060208401359150604084013567ffffffffffffffff8111156126dc578182fd5b6126e8868287016125cc565b9150509250925092565b60008060408385031215612704578182fd5b823567ffffffffffffffff8082111561271b578384fd5b818501915085601f83011261272e578384fd5b813560208282111561274257612742612dfa565b8160051b9250612753818401612ccc565b8281528181019085830185870184018b101561276d578889fd5b8896505b8487101561279657612782816125b0565b835260019690960195918301918301612771565b509997909101359750505050505050565b6000602082840312156127b8578081fd5b5035919050565b6000602082840312156127d0578081fd5b5051919050565b600080604083850312156127e9578182fd5b823591506127f9602084016125b0565b90509250929050565b600060208284031215612813578081fd5b81356001600160e01b0319811681146123a3578182fd5b60008151808452612842816020860160208601612d4b565b601f01601f19169290920160200192915050565b60008251612868818460208701612d4b565b9190910192915050565b600080835482600182811c91508083168061288e57607f831692505b60208084108214156128ae57634e487b7160e01b87526022600452602487fd5b8180156128c257600181146128d3576128ff565b60ff198616895284890196506128ff565b60008a815260209020885b868110156128f75781548b8201529085019083016128de565b505084890196505b509498975050505050505050565b76020b1b1b2b9b9a1b7b73a3937b61d1030b1b1b7bab73a1604d1b81526000835161293f816017850160208801612d4b565b7001034b99036b4b9b9b4b733903937b6329607d1b6017918401918201528351612970816028840160208801612d4b565b01602801949350505050565b60018060a01b038616815284602082015260a0604082015260006129a360a083018661282a565b931515606083015250608001529392505050565b6020808252825182820181905260009190848201906040850190845b818110156129f85783516001600160a01b0316835292840192918401916001016129d3565b50909695505050505050565b6020815260006123a3602083018461282a565b60208082526010908201526f6f776e6572206e6f7420756e6971756560801b604082015260600190565b6020808252602c908201527f4d75737420686176652070617573657220726f6c6520746f20706572666f726d60408201526b103a3434b99030b1ba34b7b760a11b606082015260800190565b6020808252602c908201527f46756e6374696f6e206d7573742062652063616c6c6564207468726f7567682060408201526b19195b1959d85d1958d85b1b60a21b606082015260800190565b6020808252602c908201527f46756e6374696f6e206d7573742062652063616c6c6564207468726f7567682060408201526b6163746976652070726f787960a01b606082015260800190565b6020808252600d908201526c34b73b30b634b21037bbb732b960991b604082015260600190565b6020808252602e908201527f496e697469616c697a61626c653a20636f6e747261637420697320616c72656160408201526d191e481a5b9a5d1a585b1a5e995960921b606082015260800190565b6020808252601190820152701d1e08191bd95cc81b9bdd08195e1a5cdd607a1b604082015260600190565b6020808252602b908201527f496e697469616c697a61626c653a20636f6e7472616374206973206e6f74206960408201526a6e697469616c697a696e6760a81b606082015260800190565b6020808252601390820152721d1e08185b1c9958591e48195e1958dd5d1959606a1b604082015260600190565b6020808252600990820152683737ba1037bbb732b960b91b604082015260600190565b6020808252602b908201527f4d75737420686176652061646d696e20726f6c6520746f20706572666f726d2060408201526a3a3434b99030b1ba34b7b760a91b606082015260800190565b828152604060208201526000612cc4604083018461282a565b949350505050565b604051601f8201601f1916810167ffffffffffffffff81118282101715612cf557612cf5612dfa565b604052919050565b60008219821115612d1057612d10612de4565b500190565b6000816000190483118215151615612d2f57612d2f612de4565b500290565b600082821015612d4657612d46612de4565b500390565b60005b83811015612d66578181015183820152602001612d4e565b8381111561212c5750506000910152565b600081612d8657612d86612de4565b506000190190565b600181811c90821680612da257607f821691505b60208210811415612dc357634e487b7160e01b600052602260045260246000fd5b50919050565b6000600019821415612ddd57612ddd612de4565b5060010190565b634e487b7160e01b600052601160045260246000fd5b634e487b7160e01b600052604160045260246000fdfe360894a13ba1a3210667c828492db98dca3e2076cc3735a920a3ca505d382bbc416464726573733a206c6f772d6c6576656c2064656c65676174652063616c6c206661696c6564a264697066735822122092926c3cfb58cc7b4552501bbdc2f1e172652e7951e4067088e26c1f0173ad9e64736f6c63430008040033",
  "linkReferences": {},
  "deployedLinkReferences": {}
}