{
  "_format": "hh-sol-artifact-1",
  "contractName": "MultiSign",
  "sourceName": "contracts/protocol/MultiSign.sol",
  "abi": [
    {
      "anonymous": false,
      "inputs": [
        {
          "indexed": false,
          "internalType": "address",
          "name": "previousAdmin",
          "type": "address"
        },
        {
          "indexed": false,
          "internalType": "address",
          "name": "newAdmin",
          "type": "address"
        }
      ],
      "name": "AdminChanged",
      "type": "event"
    },
    {
      "anonymous": false,
      "inputs": [
        {
          "indexed": true,
          "internalType": "address",
          "name": "beacon",
          "type": "address"
        }
      ],
      "name": "BeaconUpgraded",
      "type": "event"
    },
    {
      "anonymous": false,
      "inputs": [
        {
          "indexed": true,
          "internalType": "address",
          "name": "owner",
          "type": "address"
        },
        {
          "indexed": true,
          "internalType": "uint256",
          "name": "txIndex",
          "type": "uint256"
        }
      ],
      "name": "ConfirmTransaction",
      "type": "event"
    },
    {
      "anonymous": false,
      "inputs": [
        {
          "indexed": true,
          "internalType": "address",
          "name": "sender",
          "type": "address"
        },
        {
          "indexed": false,
          "internalType": "uint256",
          "name": "amount",
          "type": "uint256"
        },
        {
          "indexed": false,
          "internalType": "uint256",
          "name": "balance",
          "type": "uint256"
        }
      ],
      "name": "Deposit",
      "type": "event"
    },
    {
      "anonymous": false,
      "inputs": [
        {
          "indexed": true,
          "internalType": "address",
          "name": "owner",
          "type": "address"
        },
        {
          "indexed": true,
          "internalType": "uint256",
          "name": "txIndex",
          "type": "uint256"
        }
      ],
      "name": "ExecuteTransaction",
      "type": "event"
    },
    {
      "anonymous": false,
      "inputs": [
        {
          "indexed": false,
          "internalType": "uint8",
          "name": "version",
          "type": "uint8"
        }
      ],
      "name": "Initialized",
      "type": "event"
    },
    {
      "anonymous": false,
      "inputs": [
        {
          "indexed": false,
          "internalType": "address",
          "name": "account",
          "type": "address"
        }
      ],
      "name": "Paused",
      "type": "event"
    },
    {
      "anonymous": false,
      "inputs": [
        {
          "indexed": true,
          "internalType": "address",
          "name": "owner",
          "type": "address"
        },
        {
          "indexed": true,
          "internalType": "uint256",
          "name": "txIndex",
          "type": "uint256"
        }
      ],
      "name": "RevokeConfirmation",
      "type": "event"
    },
    {
      "anonymous": false,
      "inputs": [
        {
          "indexed": true,
          "internalType": "bytes32",
          "name": "role",
          "type": "bytes32"
        },
        {
          "indexed": true,
          "internalType": "bytes32",
          "name": "previousAdminRole",
          "type": "bytes32"
        },
        {
          "indexed": true,
          "internalType": "bytes32",
          "name": "newAdminRole",
          "type": "bytes32"
        }
      ],
      "name": "RoleAdminChanged",
      "type": "event"
    },
    {
      "anonymous": false,
      "inputs": [
        {
          "indexed": true,
          "internalType": "bytes32",
          "name": "role",
          "type": "bytes32"
        },
        {
          "indexed": true,
          "internalType": "address",
          "name": "account",
          "type": "address"
        },
        {
          "indexed": true,
          "internalType": "address",
          "name": "sender",
          "type": "address"
        }
      ],
      "name": "RoleGranted",
      "type": "event"
    },
    {
      "anonymous": false,
      "inputs": [
        {
          "indexed": true,
          "internalType": "bytes32",
          "name": "role",
          "type": "bytes32"
        },
        {
          "indexed": true,
          "internalType": "address",
          "name": "account",
          "type": "address"
        },
        {
          "indexed": true,
          "internalType": "address",
          "name": "sender",
          "type": "address"
        }
      ],
      "name": "RoleRevoked",
      "type": "event"
    },
    {
      "anonymous": false,
      "inputs": [
        {
          "indexed": true,
          "internalType": "address",
          "name": "owner",
          "type": "address"
        },
        {
          "indexed": true,
          "internalType": "uint256",
          "name": "txIndex",
          "type": "uint256"
        },
        {
          "indexed": true,
          "internalType": "address",
          "name": "to",
          "type": "address"
        },
        {
          "indexed": false,
          "internalType": "uint256",
          "name": "value",
          "type": "uint256"
        }
      ],
      "name": "SubmitTransaction",
      "type": "event"
    },
    {
      "anonymous": false,
      "inputs": [
        {
          "indexed": false,
          "internalType": "address",
          "name": "account",
          "type": "address"
        }
      ],
      "name": "Unpaused",
      "type": "event"
    },
    {
      "anonymous": false,
      "inputs": [
        {
          "indexed": true,
          "internalType": "address",
          "name": "implementation",
          "type": "address"
        }
      ],
      "name": "Upgraded",
      "type": "event"
    },
    {
      "inputs": [],
      "name": "DEFAULT_ADMIN_ROLE",
      "outputs": [
        {
          "internalType": "bytes32",
          "name": "",
          "type": "bytes32"
        }
      ],
      "stateMutability": "view",
      "type": "function"
    },
    {
      "inputs": [
        {
          "internalType": "address",
          "name": "owner",
          "type": "address"
        }
      ],
      "name": "_BaseUpgradeablePausable_init",
      "outputs": [],
      "stateMutability": "nonpayable",
      "type": "function"
    },
    {
      "inputs": [],
      "name": "__PauserPausable__init",
      "outputs": [],
      "stateMutability": "nonpayable",
      "type": "function"
    },
    {
      "inputs": [
        {
          "internalType": "uint256",
          "name": "_txIndex",
          "type": "uint256"
        }
      ],
      "name": "confirmTransaction",
      "outputs": [],
      "stateMutability": "nonpayable",
      "type": "function"
    },
    {
      "inputs": [
        {
          "internalType": "uint256",
          "name": "_txIndex",
          "type": "uint256"
        }
      ],
      "name": "executeTransaction",
      "outputs": [],
      "stateMutability": "nonpayable",
      "type": "function"
    },
    {
      "inputs": [],
      "name": "getOwners",
      "outputs": [
        {
          "internalType": "address[]",
          "name": "",
          "type": "address[]"
        }
      ],
      "stateMutability": "view",
      "type": "function"
    },
    {
      "inputs": [
        {
          "internalType": "bytes32",
          "name": "role",
          "type": "bytes32"
        }
      ],
      "name": "getRoleAdmin",
      "outputs": [
        {
          "internalType": "bytes32",
          "name": "",
          "type": "bytes32"
        }
      ],
      "stateMutability": "view",
      "type": "function"
    },
    {
      "inputs": [
        {
          "internalType": "uint256",
          "name": "_txIndex",
          "type": "uint256"
        }
      ],
      "name": "getTransaction",
      "outputs": [
        {
          "internalType": "address",
          "name": "to",
          "type": "address"
        },
        {
          "internalType": "uint256",
          "name": "value",
          "type": "uint256"
        },
        {
          "internalType": "bool",
          "name": "executed",
          "type": "bool"
        },
        {
          "internalType": "uint256",
          "name": "numConfirmations",
          "type": "uint256"
        }
      ],
      "stateMutability": "view",
      "type": "function"
    },
    {
      "inputs": [],
      "name": "getTransactionCount",
      "outputs": [
        {
          "internalType": "uint256",
          "name": "",
          "type": "uint256"
        }
      ],
      "stateMutability": "view",
      "type": "function"
    },
    {
      "inputs": [
        {
          "internalType": "bytes32",
          "name": "role",
          "type": "bytes32"
        },
        {
          "internalType": "address",
          "name": "account",
          "type": "address"
        }
      ],
      "name": "grantRole",
      "outputs": [],
      "stateMutability": "nonpayable",
      "type": "function"
    },
    {
      "inputs": [
        {
          "internalType": "bytes32",
          "name": "role",
          "type": "bytes32"
        },
        {
          "internalType": "address",
          "name": "account",
          "type": "address"
        }
      ],
      "name": "hasRole",
      "outputs": [
        {
          "internalType": "bool",
          "name": "",
          "type": "bool"
        }
      ],
      "stateMutability": "view",
      "type": "function"
    },
    {
      "inputs": [
        {
          "internalType": "address[]",
          "name": "_owners",
          "type": "address[]"
        },
        {
          "internalType": "uint256",
          "name": "_numConfirmationsRequired",
          "type": "uint256"
        }
      ],
      "name": "initialize",
      "outputs": [],
      "stateMutability": "nonpayable",
      "type": "function"
    },
    {
      "inputs": [],
      "name": "isAdmin",
      "outputs": [
        {
          "internalType": "bool",
          "name": "",
          "type": "bool"
        }
      ],
      "stateMutability": "view",
      "type": "function"
    },
    {
      "inputs": [
        {
          "internalType": "uint256",
          "name": "",
          "type": "uint256"
        },
        {
          "internalType": "address",
          "name": "",
          "type": "address"
        }
      ],
      "name": "isConfirmed",
      "outputs": [
        {
          "internalType": "bool",
          "name": "",
          "type": "bool"
        }
      ],
      "stateMutability": "view",
      "type": "function"
    },
    {
      "inputs": [
        {
          "internalType": "address",
          "name": "",
          "type": "address"
        }
      ],
      "name": "isOwner",
      "outputs": [
        {
          "internalType": "bool",
          "name": "",
          "type": "bool"
        }
      ],
      "stateMutability": "view",
      "type": "function"
    },
    {
      "inputs": [],
      "name": "numConfirmationsRequired",
      "outputs": [
        {
          "internalType": "uint256",
          "name": "",
          "type": "uint256"
        }
      ],
      "stateMutability": "view",
      "type": "function"
    },
    {
      "inputs": [
        {
          "internalType": "uint256",
          "name": "",
          "type": "uint256"
        }
      ],
      "name": "owners",
      "outputs": [
        {
          "internalType": "address",
          "name": "",
          "type": "address"
        }
      ],
      "stateMutability": "view",
      "type": "function"
    },
    {
      "inputs": [],
      "name": "pause",
      "outputs": [],
      "stateMutability": "nonpayable",
      "type": "function"
    },
    {
      "inputs": [],
      "name": "paused",
      "outputs": [
        {
          "internalType": "bool",
          "name": "",
          "type": "bool"
        }
      ],
      "stateMutability": "view",
      "type": "function"
    },
    {
      "inputs": [],
      "name": "proxiableUUID",
      "outputs": [
        {
          "internalType": "bytes32",
          "name": "",
          "type": "bytes32"
        }
      ],
      "stateMutability": "view",
      "type": "function"
    },
    {
      "inputs": [
        {
          "internalType": "bytes32",
          "name": "role",
          "type": "bytes32"
        },
        {
          "internalType": "address",
          "name": "account",
          "type": "address"
        }
      ],
      "name": "renounceRole",
      "outputs": [],
      "stateMutability": "nonpayable",
      "type": "function"
    },
    {
      "inputs": [
        {
          "internalType": "uint256",
          "name": "_txIndex",
          "type": "uint256"
        }
      ],
      "name": "revokeConfirmation",
      "outputs": [],
      "stateMutability": "nonpayable",
      "type": "function"
    },
    {
      "inputs": [
        {
          "internalType": "bytes32",
          "name": "role",
          "type": "bytes32"
        },
        {
          "internalType": "address",
          "name": "account",
          "type": "address"
        }
      ],
      "name": "revokeRole",
      "outputs": [],
      "stateMutability": "nonpayable",
      "type": "function"
    },
    {
      "inputs": [
        {
          "internalType": "address",
          "name": "_address",
          "type": "address"
        }
      ],
      "name": "setTresuryWalletAddress",
      "outputs": [],
      "stateMutability": "nonpayable",
      "type": "function"
    },
    {
      "inputs": [
        {
          "internalType": "address",
          "name": "_to",
          "type": "address"
        },
        {
          "internalType": "uint256",
          "name": "_value",
          "type": "uint256"
        }
      ],
      "name": "submitTransaction",
      "outputs": [],
      "stateMutability": "nonpayable",
      "type": "function"
    },
    {
      "inputs": [
        {
          "internalType": "bytes4",
          "name": "interfaceId",
          "type": "bytes4"
        }
      ],
      "name": "supportsInterface",
      "outputs": [
        {
          "internalType": "bool",
          "name": "",
          "type": "bool"
        }
      ],
      "stateMutability": "view",
      "type": "function"
    },
    {
      "inputs": [
        {
          "internalType": "uint256",
          "name": "",
          "type": "uint256"
        }
      ],
      "name": "transactions",
      "outputs": [
        {
          "internalType": "address",
          "name": "to",
          "type": "address"
        },
        {
          "internalType": "uint256",
          "name": "value",
          "type": "uint256"
        },
        {
          "internalType": "bool",
          "name": "executed",
          "type": "bool"
        },
        {
          "internalType": "uint256",
          "name": "numConfirmations",
          "type": "uint256"
        }
      ],
      "stateMutability": "view",
      "type": "function"
    },
    {
      "inputs": [],
      "name": "unpause",
      "outputs": [],
      "stateMutability": "nonpayable",
      "type": "function"
    },
    {
      "inputs": [
        {
          "internalType": "address",
          "name": "newImplementation",
          "type": "address"
        }
      ],
      "name": "upgradeTo",
      "outputs": [],
      "stateMutability": "nonpayable",
      "type": "function"
    },
    {
      "inputs": [
        {
          "internalType": "address",
          "name": "newImplementation",
          "type": "address"
        },
        {
          "internalType": "bytes",
          "name": "data",
          "type": "bytes"
        }
      ],
      "name": "upgradeToAndCall",
      "outputs": [],
      "stateMutability": "payable",
      "type": "function"
    }
  ],
  "bytecode": "0x60a06040523060601b60805234801561001757600080fd5b5060805160601c61267b61005260003960008181610a4901528181610a8901528181610b4901528181610b890152610cca015261267b6000f3fe60806040526004361061018d5760003560e01c806358a944c7116100d7578063a0e67e2b11610085578063a0e67e2b146104cf578063a12dde4d146104f1578063a217fddf14610511578063b6db75a014610526578063c01a8c841461053b578063d0549b851461055b578063d547741f14610572578063ee22610b1461059257600080fd5b806358a944c7146103c85780635c975abb1461040657806360b5bb3f1461041e57806380f59a651461043e5780638456cb591461047a57806391d148541461048f5780639ace38c2146104af57600080fd5b80632f54bf6e1161013f5780632f54bf6e146102b557806333ea3dc8146102e657806336568abe146103365780633659cfe6146103565780633f4ba83a146103765780634f1ef2861461038b578063526d81f61461039e57806352d1902d146103b357600080fd5b806301ffc9a714610192578063025e7c27146101c75780631d43b653146101ff57806320ea8d8614610221578063248a9ca3146102415780632e7700f01461027f5780632f2ff15d14610295575b600080fd5b34801561019e57600080fd5b506101b26101ad3660046121ca565b6105b2565b60405190151581526020015b60405180910390f35b3480156101d357600080fd5b506101e76101e236600461216f565b6105e9565b6040516001600160a01b0390911681526020016101be565b34801561020b57600080fd5b5061021f61021a366004612091565b610614565b005b34801561022d57600080fd5b5061021f61023c36600461216f565b610788565b34801561024d57600080fd5b5061027161025c36600461216f565b60009081526065602052604090206001015490565b6040519081526020016101be565b34801561028b57600080fd5b5061016454610271565b3480156102a157600080fd5b5061021f6102b036600461219f565b61092c565b3480156102c157600080fd5b506101b26102d0366004611fd7565b6101606020526000908152604090205460ff1681565b3480156102f257600080fd5b5061030661030136600461216f565b610956565b604080516001600160a01b03909516855260208501939093529015159183019190915260608201526080016101be565b34801561034257600080fd5b5061021f61035136600461219f565b6109c0565b34801561036257600080fd5b5061021f610371366004611fd7565b610a3e565b34801561038257600080fd5b5061021f610b07565b61021f610399366004611ff1565b610b3e565b3480156103aa57600080fd5b5061021f610bf4565b3480156103bf57600080fd5b50610271610cbd565b3480156103d457600080fd5b5061021f6103e3366004611fd7565b61016280546001600160a01b0319166001600160a01b0392909216919091179055565b34801561041257600080fd5b5060975460ff166101b2565b34801561042a57600080fd5b5061021f6104393660046120ba565b610d6b565b34801561044a57600080fd5b506101b261045936600461219f565b61016360209081526000928352604080842090915290825290205460ff1681565b34801561048657600080fd5b5061021f61104f565b34801561049b57600080fd5b506101b26104aa36600461219f565b61107e565b3480156104bb57600080fd5b506103066104ca36600461216f565b6110a9565b3480156104db57600080fd5b506104e46110f1565b6040516101be919061227d565b3480156104fd57600080fd5b5061021f61050c366004611fd7565b611154565b34801561051d57600080fd5b50610271600081565b34801561053257600080fd5b506101b2611228565b34801561054757600080fd5b5061021f61055636600461216f565b61123a565b34801561056757600080fd5b506102716101615481565b34801561057e57600080fd5b5061021f61058d36600461219f565b611401565b34801561059e57600080fd5b5061021f6105ad36600461216f565b611426565b60006001600160e01b03198216637965db0b60e01b14806105e357506301ffc9a760e01b6001600160e01b03198316145b92915050565b61015f81815481106105fa57600080fd5b6000918252602090912001546001600160a01b0316905081565b326000908152610160602052604090205460ff1661064d5760405162461bcd60e51b8152600401610644906124d2565b60405180910390fd5b6101648054604080516080810182526001600160a01b03868116808352602080840188815260008587018181526060870182815260018a018b559990915294517f5bc19ff2299cdd9c52c622a9137c53ea8dded8f746ee6e3f831227e4983e3f386004890290810180546001600160a01b0319169290961691909117909455517f5bc19ff2299cdd9c52c622a9137c53ea8dded8f746ee6e3f831227e4983e3f3984015592517f5bc19ff2299cdd9c52c622a9137c53ea8dded8f746ee6e3f831227e4983e3f3a8301805460ff191691151591909117905594517f5bc19ff2299cdd9c52c622a9137c53ea8dded8f746ee6e3f831227e4983e3f3b909101559051848152919291839133917fcd144288a078b7562351164feb1762115faca27f30827b4142f2bbe27166e320910160405180910390a4505050565b326000908152610160602052604090205460ff166107b85760405162461bcd60e51b8152600401610644906124d2565b61016454819081106107dc5760405162461bcd60e51b81526004016106449061242f565b8161016481815481106107ff57634e487b7160e01b600052603260045260246000fd5b600091825260209091206002600490920201015460ff16156108335760405162461bcd60e51b8152600401610644906124a5565b6000610164848154811061085757634e487b7160e01b600052603260045260246000fd5b60009182526020808320878452610163825260408085203386529092529220546004909102909101915060ff166108c35760405162461bcd60e51b815260206004820152601060248201526f1d1e081b9bdd0818dbdb999a5c9b595960821b6044820152606401610644565b60018160030160008282546108d8919061255d565b9091555050600084815261016360209081526040808320338085529252808320805460ff191690555186927ff0dca620e2e81f7841d07bcc105e1704fb01475b278a9d4c236e1c62945edd5591a350505050565b60008281526065602052604090206001015461094781611602565b610951838361160c565b505050565b6000806000806000610164868154811061098057634e487b7160e01b600052603260045260246000fd5b600091825260209091206004909102018054600182015460028301546003909301546001600160a01b039092169990985060ff9092169650945092505050565b6001600160a01b0381163314610a305760405162461bcd60e51b815260206004820152602f60248201527f416363657373436f6e74726f6c3a2063616e206f6e6c792072656e6f756e636560448201526e103937b632b9903337b91039b2b63360891b6064820152608401610644565b610a3a8282611692565b5050565b306001600160a01b037f0000000000000000000000000000000000000000000000000000000000000000161415610a875760405162461bcd60e51b815260040161064490612349565b7f00000000000000000000000000000000000000000000000000000000000000006001600160a01b0316610ab96116f9565b6001600160a01b031614610adf5760405162461bcd60e51b815260040161064490612395565b610ae881611715565b60408051600080825260208201909252610b049183919061177d565b50565b610b18610b126118f7565b3361107e565b610b345760405162461bcd60e51b8152600401610644906122fd565b610b3c61191b565b565b306001600160a01b037f0000000000000000000000000000000000000000000000000000000000000000161415610b875760405162461bcd60e51b815260040161064490612349565b7f00000000000000000000000000000000000000000000000000000000000000006001600160a01b0316610bb96116f9565b6001600160a01b031614610bdf5760405162461bcd60e51b815260040161064490612395565b610be882611715565b610a3a8282600161177d565b600054610100900460ff1615808015610c145750600054600160ff909116105b80610c2e5750303b158015610c2e575060005460ff166001145b610c4a5760405162461bcd60e51b8152600401610644906123e1565b6000805460ff191660011790558015610c6d576000805461ff0019166101001790555b610c7561196d565b8015610b04576000805461ff0019169055604051600181527f7f26b83ff96e1f2b6a682f133852f6798a09c465da95921460cefb38474024989060200160405180910390a150565b6000306001600160a01b037f00000000000000000000000000000000000000000000000000000000000000001614610d585760405162461bcd60e51b815260206004820152603860248201527f555550535570677261646561626c653a206d757374206e6f742062652063616c6044820152771b1959081d1a1c9bdd59da0819195b1959d85d1958d85b1b60421b6064820152608401610644565b506000805160206125ff83398151915290565b600054610100900460ff1615808015610d8b5750600054600160ff909116105b80610da55750303b158015610da5575060005460ff166001145b610dc15760405162461bcd60e51b8152600401610644906123e1565b6000805460ff191660011790558015610de4576000805461ff0019166101001790555b6000835111610e275760405162461bcd60e51b815260206004820152600f60248201526e1bdddb995c9cc81c995c5d5a5c9959608a1b6044820152606401610644565b600082118015610e38575082518211155b610e955760405162461bcd60e51b815260206004820152602860248201527f696e76616c6964206e756d626572206f6620726571756972656420636f6e6669604482015267726d6174696f6e7360c01b6064820152608401610644565b610e9e33611154565b60005b8351811015610ffe576000848281518110610ecc57634e487b7160e01b600052603260045260246000fd5b6020026020010151905060006001600160a01b0316816001600160a01b03161415610f295760405162461bcd60e51b815260206004820152600d60248201526c34b73b30b634b21037bbb732b960991b6044820152606401610644565b6001600160a01b0381166000908152610160602052604090205460ff1615610f865760405162461bcd60e51b815260206004820152601060248201526f6f776e6572206e6f7420756e6971756560801b6044820152606401610644565b6001600160a01b0316600081815261016060205260408120805460ff1916600190811790915561015f805491820181559091527f8c9815a58669fc89297bdc7dd447c098116f98e79093735c0992d0967b696ed90180546001600160a01b031916909117905580610ff6816125b7565b915050610ea1565b506101618290558015610951576000805461ff0019169055604051600181527f7f26b83ff96e1f2b6a682f133852f6798a09c465da95921460cefb38474024989060200160405180910390a1505050565b61105a610b126118f7565b6110765760405162461bcd60e51b8152600401610644906122fd565b610b3c6119a0565b60009182526065602090815260408084206001600160a01b0393909316845291905290205460ff1690565b61016481815481106110ba57600080fd5b600091825260209091206004909102018054600182015460028301546003909301546001600160a01b0390921693509160ff169084565b606061015f80548060200260200160405190810160405280929190818152602001828054801561114a57602002820191906000526020600020905b81546001600160a01b0316815260019091019060200180831161112c575b5050505050905090565b600054610100900460ff1661117b5760405162461bcd60e51b81526004016106449061245a565b6001600160a01b0381166111d15760405162461bcd60e51b815260206004820181905260248201527f4f776e65722063616e6e6f7420626520746865207a65726f20616464726573736044820152606401610644565b6111d96119dd565b6111e161196d565b6111e9611a04565b6111fa6111f4611a32565b82611a56565b6112056111f46118f7565b61121d6112106118f7565b611218611a32565b611a60565b610b04611210611a32565b6000611235610b12611a32565b905090565b326000908152610160602052604090205460ff1661126a5760405162461bcd60e51b8152600401610644906124d2565b610164548190811061128e5760405162461bcd60e51b81526004016106449061242f565b8161016481815481106112b157634e487b7160e01b600052603260045260246000fd5b600091825260209091206002600490920201015460ff16156112e55760405162461bcd60e51b8152600401610644906124a5565b600083815261016360209081526040808320338452909152902054839060ff16156113495760405162461bcd60e51b81526020600482015260146024820152731d1e08185b1c9958591e4818dbdb999a5c9b595960621b6044820152606401610644565b6000610164858154811061136d57634e487b7160e01b600052603260045260246000fd5b9060005260206000209060040201905060018160030160008282546113929190612526565b9091555050600085815261016360209081526040808320338085529252808320805460ff191660011790555187927f5cbe105e36805f7820e291f799d5794ff948af2a5f664e580382defb6339004191a3610161548160030154106113fa576113fa85611426565b5050505050565b60008281526065602052604090206001015461141c81611602565b6109518383611692565b326000908152610160602052604090205460ff166114565760405162461bcd60e51b8152600401610644906124d2565b610164548190811061147a5760405162461bcd60e51b81526004016106449061242f565b81610164818154811061149d57634e487b7160e01b600052603260045260246000fd5b600091825260209091206002600490920201015460ff16156114d15760405162461bcd60e51b8152600401610644906124a5565b600061016484815481106114f557634e487b7160e01b600052603260045260246000fd5b9060005260206000209060040201905061016154816003015410156115505760405162461bcd60e51b81526020600482015260116024820152700c6c2dcdcdee840caf0cac6eae8ca40e8f607b1b6044820152606401610644565b60028101805460ff191660019081179091556101625482549183015460405163f3fef3a360e01b81526001600160a01b039384166004820152602481019190915291169063f3fef3a390604401600060405180830381600087803b1580156115b757600080fd5b505af11580156115cb573d6000803e3d6000fd5b50506040518692503391507f5445f318f4f5fcfb66592e68e0cc5822aa15664039bd5f0ffde24c5a8142b1ac90600090a350505050565b610b048133611aab565b611616828261107e565b610a3a5760008281526065602090815260408083206001600160a01b03851684529091529020805460ff1916600117905561164e3390565b6001600160a01b0316816001600160a01b0316837f2f8788117e7eff1d82e926ec794901d17c78024a50270940304540a733656f0d60405160405180910390a45050565b61169c828261107e565b15610a3a5760008281526065602090815260408083206001600160a01b0385168085529252808320805460ff1916905551339285917ff6391f5c32d9c69d2a47ea670b442974b53935d1edc7fd64eb21e047a839171b9190a45050565b6000805160206125ff833981519152546001600160a01b031690565b61171d611228565b610b045760405162461bcd60e51b815260206004820152602b60248201527f4d75737420686176652061646d696e20726f6c6520746f20706572666f726d2060448201526a3a3434b99030b1ba34b7b760a91b6064820152608401610644565b7f4910fdfa16fed3260ed0e7147f7cc6da11a60208b5b9406d12a635614ffd91435460ff16156117b05761095183611b0f565b826001600160a01b03166352d1902d6040518163ffffffff1660e01b815260040160206040518083038186803b1580156117e957600080fd5b505afa925050508015611819575060408051601f3d908101601f1916820190925261181691810190612187565b60015b61187c5760405162461bcd60e51b815260206004820152602e60248201527f45524331393637557067726164653a206e657720696d706c656d656e7461746960448201526d6f6e206973206e6f74205555505360901b6064820152608401610644565b6000805160206125ff83398151915281146118eb5760405162461bcd60e51b815260206004820152602960248201527f45524331393637557067726164653a20756e737570706f727465642070726f786044820152681a58589b195555525160ba1b6064820152608401610644565b50610951838383611bab565b7f65d7a28e3265b37a6474929f336521b332c1681b933f6cb9f3376673440d862a90565b611923611bd6565b6097805460ff191690557f5db9ee0a495bf2e6ff9c91a7834c1ba4fdd244a5e8aa4e537bd38aeae4b073aa335b6040516001600160a01b03909116815260200160405180910390a1565b600054610100900460ff166119945760405162461bcd60e51b81526004016106449061245a565b6097805460ff19169055565b6119a8611c1f565b6097805460ff191660011790557f62e78cea01bee320cd4e420270b5ea74000d11b0c9f74754ebdbfc544b05a2586119503390565b600054610100900460ff16610b3c5760405162461bcd60e51b81526004016106449061245a565b600054610100900460ff16611a2b5760405162461bcd60e51b81526004016106449061245a565b600160c955565b7fa49807205ce4d355092ef5a8a18f56e8913cf4a201fbe287825b095693c2177590565b610a3a828261160c565b600082815260656020526040808220600101805490849055905190918391839186917fbd79b86ffe0ab8e8776151514217cd7cacd52c909f66475c3af44e129f0b00ff9190a4505050565b611ab5828261107e565b610a3a57611acd816001600160a01b03166014611c65565b611ad8836020611c65565b604051602001611ae992919061220e565b60408051601f198184030181529082905262461bcd60e51b8252610644916004016122ca565b6001600160a01b0381163b611b7c5760405162461bcd60e51b815260206004820152602d60248201527f455243313936373a206e657720696d706c656d656e746174696f6e206973206e60448201526c1bdd08184818dbdb9d1c9858dd609a1b6064820152608401610644565b6000805160206125ff83398151915280546001600160a01b0319166001600160a01b0392909216919091179055565b611bb483611e4e565b600082511180611bc15750805b1561095157611bd08383611e8e565b50505050565b60975460ff16610b3c5760405162461bcd60e51b815260206004820152601460248201527314185d5cd8589b194e881b9bdd081c185d5cd95960621b6044820152606401610644565b60975460ff1615610b3c5760405162461bcd60e51b815260206004820152601060248201526f14185d5cd8589b194e881c185d5cd95960821b6044820152606401610644565b60606000611c7483600261253e565b611c7f906002612526565b67ffffffffffffffff811115611ca557634e487b7160e01b600052604160045260246000fd5b6040519080825280601f01601f191660200182016040528015611ccf576020820181803683370190505b509050600360fc1b81600081518110611cf857634e487b7160e01b600052603260045260246000fd5b60200101906001600160f81b031916908160001a905350600f60fb1b81600181518110611d3557634e487b7160e01b600052603260045260246000fd5b60200101906001600160f81b031916908160001a9053506000611d5984600261253e565b611d64906001612526565b90505b6001811115611df8576f181899199a1a9b1b9c1cb0b131b232b360811b85600f1660108110611da657634e487b7160e01b600052603260045260246000fd5b1a60f81b828281518110611dca57634e487b7160e01b600052603260045260246000fd5b60200101906001600160f81b031916908160001a90535060049490941c93611df1816125a0565b9050611d67565b508315611e475760405162461bcd60e51b815260206004820181905260248201527f537472696e67733a20686578206c656e67746820696e73756666696369656e746044820152606401610644565b9392505050565b611e5781611b0f565b6040516001600160a01b038216907fbc7cd75a20ee27fd9adebab32041f755214dbc6bffa90cc0225b39da2e5c2d3b90600090a250565b60606001600160a01b0383163b611ef65760405162461bcd60e51b815260206004820152602660248201527f416464726573733a2064656c65676174652063616c6c20746f206e6f6e2d636f6044820152651b9d1c9858dd60d21b6064820152608401610644565b600080846001600160a01b031684604051611f1191906121f2565b600060405180830381855af49150503d8060008114611f4c576040519150601f19603f3d011682016040523d82523d6000602084013e611f51565b606091505b5091509150611f79828260405180606001604052806027815260200161261f60279139611f82565b95945050505050565b60608315611f91575081611e47565b825115611fa15782518084602001fd5b8160405162461bcd60e51b815260040161064491906122ca565b80356001600160a01b0381168114611fd257600080fd5b919050565b600060208284031215611fe8578081fd5b611e4782611fbb565b60008060408385031215612003578081fd5b61200c83611fbb565b915060208084013567ffffffffffffffff80821115612029578384fd5b818601915086601f83011261203c578384fd5b81358181111561204e5761204e6125e8565b612060601f8201601f191685016124f5565b91508082528784828501011115612075578485fd5b8084840185840137810190920192909252919491935090915050565b600080604083850312156120a3578182fd5b6120ac83611fbb565b946020939093013593505050565b600080604083850312156120cc578182fd5b823567ffffffffffffffff808211156120e3578384fd5b818501915085601f8301126120f6578384fd5b813560208282111561210a5761210a6125e8565b8160051b925061211b8184016124f5565b8281528181019085830185870184018b1015612135578889fd5b8896505b8487101561215e5761214a81611fbb565b835260019690960195918301918301612139565b509997909101359750505050505050565b600060208284031215612180578081fd5b5035919050565b600060208284031215612198578081fd5b5051919050565b600080604083850312156121b1578182fd5b823591506121c160208401611fbb565b90509250929050565b6000602082840312156121db578081fd5b81356001600160e01b031981168114611e47578182fd5b60008251612204818460208701612574565b9190910192915050565b76020b1b1b2b9b9a1b7b73a3937b61d1030b1b1b7bab73a1604d1b815260008351612240816017850160208801612574565b7001034b99036b4b9b9b4b733903937b6329607d1b6017918401918201528351612271816028840160208801612574565b01602801949350505050565b6020808252825182820181905260009190848201906040850190845b818110156122be5783516001600160a01b031683529284019291840191600101612299565b50909695505050505050565b60208152600082518060208401526122e9816040850160208701612574565b601f01601f19169190910160400192915050565b6020808252602c908201527f4d75737420686176652070617573657220726f6c6520746f20706572666f726d60408201526b103a3434b99030b1ba34b7b760a11b606082015260800190565b6020808252602c908201527f46756e6374696f6e206d7573742062652063616c6c6564207468726f7567682060408201526b19195b1959d85d1958d85b1b60a21b606082015260800190565b6020808252602c908201527f46756e6374696f6e206d7573742062652063616c6c6564207468726f7567682060408201526b6163746976652070726f787960a01b606082015260800190565b6020808252602e908201527f496e697469616c697a61626c653a20636f6e747261637420697320616c72656160408201526d191e481a5b9a5d1a585b1a5e995960921b606082015260800190565b6020808252601190820152701d1e08191bd95cc81b9bdd08195e1a5cdd607a1b604082015260600190565b6020808252602b908201527f496e697469616c697a61626c653a20636f6e7472616374206973206e6f74206960408201526a6e697469616c697a696e6760a81b606082015260800190565b6020808252601390820152721d1e08185b1c9958591e48195e1958dd5d1959606a1b604082015260600190565b6020808252600990820152683737ba1037bbb732b960b91b604082015260600190565b604051601f8201601f1916810167ffffffffffffffff8111828210171561251e5761251e6125e8565b604052919050565b60008219821115612539576125396125d2565b500190565b6000816000190483118215151615612558576125586125d2565b500290565b60008282101561256f5761256f6125d2565b500390565b60005b8381101561258f578181015183820152602001612577565b83811115611bd05750506000910152565b6000816125af576125af6125d2565b506000190190565b60006000198214156125cb576125cb6125d2565b5060010190565b634e487b7160e01b600052601160045260246000fd5b634e487b7160e01b600052604160045260246000fdfe360894a13ba1a3210667c828492db98dca3e2076cc3735a920a3ca505d382bbc416464726573733a206c6f772d6c6576656c2064656c65676174652063616c6c206661696c6564a2646970667358221220fa586ea0f113d1a2582471a5f091d6b4fbbf3e7f80e8fb8549b66b3114ba64fc64736f6c63430008040033",
  "linkReferences": {},
  "deployedLinkReferences": {}
}