{
  "_format": "hh-sol-artifact-1",
  "contractName": "MultiSign",
  "sourceName": "contracts/protocol/MultiSign.sol",
  "abi": [
    {
      "anonymous": false,
      "inputs": [
        {
          "indexed": false,
          "internalType": "address",
          "name": "previousAdmin",
          "type": "address"
        },
        {
          "indexed": false,
          "internalType": "address",
          "name": "newAdmin",
          "type": "address"
        }
      ],
      "name": "AdminChanged",
      "type": "event"
    },
    {
      "anonymous": false,
      "inputs": [
        {
          "indexed": true,
          "internalType": "address",
          "name": "beacon",
          "type": "address"
        }
      ],
      "name": "BeaconUpgraded",
      "type": "event"
    },
    {
      "anonymous": false,
      "inputs": [
        {
          "indexed": true,
          "internalType": "address",
          "name": "owner",
          "type": "address"
        },
        {
          "indexed": true,
          "internalType": "uint256",
          "name": "txIndex",
          "type": "uint256"
        }
      ],
      "name": "ConfirmTransaction",
      "type": "event"
    },
    {
      "anonymous": false,
      "inputs": [
        {
          "indexed": true,
          "internalType": "address",
          "name": "sender",
          "type": "address"
        },
        {
          "indexed": false,
          "internalType": "uint256",
          "name": "amount",
          "type": "uint256"
        },
        {
          "indexed": false,
          "internalType": "uint256",
          "name": "balance",
          "type": "uint256"
        }
      ],
      "name": "Deposit",
      "type": "event"
    },
    {
      "anonymous": false,
      "inputs": [
        {
          "indexed": true,
          "internalType": "address",
          "name": "owner",
          "type": "address"
        },
        {
          "indexed": true,
          "internalType": "uint256",
          "name": "txIndex",
          "type": "uint256"
        }
      ],
      "name": "ExecuteTransaction",
      "type": "event"
    },
    {
      "anonymous": false,
      "inputs": [
        {
          "indexed": false,
          "internalType": "uint8",
          "name": "version",
          "type": "uint8"
        }
      ],
      "name": "Initialized",
      "type": "event"
    },
    {
      "anonymous": false,
      "inputs": [
        {
          "indexed": false,
          "internalType": "address",
          "name": "account",
          "type": "address"
        }
      ],
      "name": "Paused",
      "type": "event"
    },
    {
      "anonymous": false,
      "inputs": [
        {
          "indexed": true,
          "internalType": "address",
          "name": "owner",
          "type": "address"
        },
        {
          "indexed": true,
          "internalType": "uint256",
          "name": "txIndex",
          "type": "uint256"
        }
      ],
      "name": "RevokeConfirmation",
      "type": "event"
    },
    {
      "anonymous": false,
      "inputs": [
        {
          "indexed": true,
          "internalType": "bytes32",
          "name": "role",
          "type": "bytes32"
        },
        {
          "indexed": true,
          "internalType": "bytes32",
          "name": "previousAdminRole",
          "type": "bytes32"
        },
        {
          "indexed": true,
          "internalType": "bytes32",
          "name": "newAdminRole",
          "type": "bytes32"
        }
      ],
      "name": "RoleAdminChanged",
      "type": "event"
    },
    {
      "anonymous": false,
      "inputs": [
        {
          "indexed": true,
          "internalType": "bytes32",
          "name": "role",
          "type": "bytes32"
        },
        {
          "indexed": true,
          "internalType": "address",
          "name": "account",
          "type": "address"
        },
        {
          "indexed": true,
          "internalType": "address",
          "name": "sender",
          "type": "address"
        }
      ],
      "name": "RoleGranted",
      "type": "event"
    },
    {
      "anonymous": false,
      "inputs": [
        {
          "indexed": true,
          "internalType": "bytes32",
          "name": "role",
          "type": "bytes32"
        },
        {
          "indexed": true,
          "internalType": "address",
          "name": "account",
          "type": "address"
        },
        {
          "indexed": true,
          "internalType": "address",
          "name": "sender",
          "type": "address"
        }
      ],
      "name": "RoleRevoked",
      "type": "event"
    },
    {
      "anonymous": false,
      "inputs": [
        {
          "indexed": true,
          "internalType": "address",
          "name": "owner",
          "type": "address"
        },
        {
          "indexed": true,
          "internalType": "uint256",
          "name": "txIndex",
          "type": "uint256"
        },
        {
          "indexed": true,
          "internalType": "address",
          "name": "to",
          "type": "address"
        },
        {
          "indexed": false,
          "internalType": "uint256",
          "name": "value",
          "type": "uint256"
        }
      ],
      "name": "SubmitTransaction",
      "type": "event"
    },
    {
      "anonymous": false,
      "inputs": [
        {
          "indexed": false,
          "internalType": "address",
          "name": "account",
          "type": "address"
        }
      ],
      "name": "Unpaused",
      "type": "event"
    },
    {
      "anonymous": false,
      "inputs": [
        {
          "indexed": true,
          "internalType": "address",
          "name": "implementation",
          "type": "address"
        }
      ],
      "name": "Upgraded",
      "type": "event"
    },
    {
      "inputs": [],
      "name": "DEFAULT_ADMIN_ROLE",
      "outputs": [
        {
          "internalType": "bytes32",
          "name": "",
          "type": "bytes32"
        }
      ],
      "stateMutability": "view",
      "type": "function"
    },
    {
      "inputs": [
        {
          "internalType": "address",
          "name": "owner",
          "type": "address"
        }
      ],
      "name": "_BaseUpgradeablePausable_init",
      "outputs": [],
      "stateMutability": "nonpayable",
      "type": "function"
    },
    {
      "inputs": [],
      "name": "__PauserPausable__init",
      "outputs": [],
      "stateMutability": "nonpayable",
      "type": "function"
    },
    {
      "inputs": [
        {
          "internalType": "uint256",
          "name": "_txIndex",
          "type": "uint256"
        }
      ],
      "name": "confirmTransaction",
      "outputs": [],
      "stateMutability": "nonpayable",
      "type": "function"
    },
    {
      "inputs": [
        {
          "internalType": "uint256",
          "name": "_txIndex",
          "type": "uint256"
        }
      ],
      "name": "executeTransaction",
      "outputs": [],
      "stateMutability": "nonpayable",
      "type": "function"
    },
    {
      "inputs": [],
      "name": "getOwners",
      "outputs": [
        {
          "internalType": "address[]",
          "name": "",
          "type": "address[]"
        }
      ],
      "stateMutability": "view",
      "type": "function"
    },
    {
      "inputs": [
        {
          "internalType": "bytes32",
          "name": "role",
          "type": "bytes32"
        }
      ],
      "name": "getRoleAdmin",
      "outputs": [
        {
          "internalType": "bytes32",
          "name": "",
          "type": "bytes32"
        }
      ],
      "stateMutability": "view",
      "type": "function"
    },
    {
      "inputs": [
        {
          "internalType": "uint256",
          "name": "_txIndex",
          "type": "uint256"
        }
      ],
      "name": "getTransaction",
      "outputs": [
        {
          "internalType": "address",
          "name": "to",
          "type": "address"
        },
        {
          "internalType": "uint256",
          "name": "value",
          "type": "uint256"
        },
        {
          "internalType": "bool",
          "name": "executed",
          "type": "bool"
        },
        {
          "internalType": "uint256",
          "name": "numConfirmations",
          "type": "uint256"
        }
      ],
      "stateMutability": "view",
      "type": "function"
    },
    {
      "inputs": [],
      "name": "getTransactionCount",
      "outputs": [
        {
          "internalType": "uint256",
          "name": "",
          "type": "uint256"
        }
      ],
      "stateMutability": "view",
      "type": "function"
    },
    {
      "inputs": [
        {
          "internalType": "bytes32",
          "name": "role",
          "type": "bytes32"
        },
        {
          "internalType": "address",
          "name": "account",
          "type": "address"
        }
      ],
      "name": "grantRole",
      "outputs": [],
      "stateMutability": "nonpayable",
      "type": "function"
    },
    {
      "inputs": [
        {
          "internalType": "bytes32",
          "name": "role",
          "type": "bytes32"
        },
        {
          "internalType": "address",
          "name": "account",
          "type": "address"
        }
      ],
      "name": "hasRole",
      "outputs": [
        {
          "internalType": "bool",
          "name": "",
          "type": "bool"
        }
      ],
      "stateMutability": "view",
      "type": "function"
    },
    {
      "inputs": [
        {
          "internalType": "address[]",
          "name": "_owners",
          "type": "address[]"
        },
        {
          "internalType": "uint256",
          "name": "_numConfirmationsRequired",
          "type": "uint256"
        }
      ],
      "name": "initialize",
      "outputs": [],
      "stateMutability": "nonpayable",
      "type": "function"
    },
    {
      "inputs": [],
      "name": "isAdmin",
      "outputs": [
        {
          "internalType": "bool",
          "name": "",
          "type": "bool"
        }
      ],
      "stateMutability": "view",
      "type": "function"
    },
    {
      "inputs": [
        {
          "internalType": "uint256",
          "name": "",
          "type": "uint256"
        },
        {
          "internalType": "address",
          "name": "",
          "type": "address"
        }
      ],
      "name": "isConfirmed",
      "outputs": [
        {
          "internalType": "bool",
          "name": "",
          "type": "bool"
        }
      ],
      "stateMutability": "view",
      "type": "function"
    },
    {
      "inputs": [
        {
          "internalType": "address",
          "name": "",
          "type": "address"
        }
      ],
      "name": "isOwner",
      "outputs": [
        {
          "internalType": "bool",
          "name": "",
          "type": "bool"
        }
      ],
      "stateMutability": "view",
      "type": "function"
    },
    {
      "inputs": [],
      "name": "numConfirmationsRequired",
      "outputs": [
        {
          "internalType": "uint256",
          "name": "",
          "type": "uint256"
        }
      ],
      "stateMutability": "view",
      "type": "function"
    },
    {
      "inputs": [
        {
          "internalType": "uint256",
          "name": "",
          "type": "uint256"
        }
      ],
      "name": "owners",
      "outputs": [
        {
          "internalType": "address",
          "name": "",
          "type": "address"
        }
      ],
      "stateMutability": "view",
      "type": "function"
    },
    {
      "inputs": [],
      "name": "pause",
      "outputs": [],
      "stateMutability": "nonpayable",
      "type": "function"
    },
    {
      "inputs": [],
      "name": "paused",
      "outputs": [
        {
          "internalType": "bool",
          "name": "",
          "type": "bool"
        }
      ],
      "stateMutability": "view",
      "type": "function"
    },
    {
      "inputs": [],
      "name": "proxiableUUID",
      "outputs": [
        {
          "internalType": "bytes32",
          "name": "",
          "type": "bytes32"
        }
      ],
      "stateMutability": "view",
      "type": "function"
    },
    {
      "inputs": [
        {
          "internalType": "bytes32",
          "name": "role",
          "type": "bytes32"
        },
        {
          "internalType": "address",
          "name": "account",
          "type": "address"
        }
      ],
      "name": "renounceRole",
      "outputs": [],
      "stateMutability": "nonpayable",
      "type": "function"
    },
    {
      "inputs": [
        {
          "internalType": "uint256",
          "name": "_txIndex",
          "type": "uint256"
        }
      ],
      "name": "revokeConfirmation",
      "outputs": [],
      "stateMutability": "nonpayable",
      "type": "function"
    },
    {
      "inputs": [
        {
          "internalType": "bytes32",
          "name": "role",
          "type": "bytes32"
        },
        {
          "internalType": "address",
          "name": "account",
          "type": "address"
        }
      ],
      "name": "revokeRole",
      "outputs": [],
      "stateMutability": "nonpayable",
      "type": "function"
    },
    {
      "inputs": [
        {
          "internalType": "address",
          "name": "_address",
          "type": "address"
        }
      ],
      "name": "setTresuryWalletAddress",
      "outputs": [],
      "stateMutability": "nonpayable",
      "type": "function"
    },
    {
      "inputs": [
        {
          "internalType": "address",
          "name": "_to",
          "type": "address"
        },
        {
          "internalType": "uint256",
          "name": "_value",
          "type": "uint256"
        }
      ],
      "name": "submitTransaction",
      "outputs": [],
      "stateMutability": "nonpayable",
      "type": "function"
    },
    {
      "inputs": [
        {
          "internalType": "bytes4",
          "name": "interfaceId",
          "type": "bytes4"
        }
      ],
      "name": "supportsInterface",
      "outputs": [
        {
          "internalType": "bool",
          "name": "",
          "type": "bool"
        }
      ],
      "stateMutability": "view",
      "type": "function"
    },
    {
      "inputs": [
        {
          "internalType": "uint256",
          "name": "",
          "type": "uint256"
        }
      ],
      "name": "transactions",
      "outputs": [
        {
          "internalType": "address",
          "name": "to",
          "type": "address"
        },
        {
          "internalType": "uint256",
          "name": "value",
          "type": "uint256"
        },
        {
          "internalType": "bool",
          "name": "executed",
          "type": "bool"
        },
        {
          "internalType": "uint256",
          "name": "numConfirmations",
          "type": "uint256"
        }
      ],
      "stateMutability": "view",
      "type": "function"
    },
    {
      "inputs": [],
      "name": "unpause",
      "outputs": [],
      "stateMutability": "nonpayable",
      "type": "function"
    },
    {
      "inputs": [
        {
          "internalType": "address",
          "name": "newImplementation",
          "type": "address"
        }
      ],
      "name": "upgradeTo",
      "outputs": [],
      "stateMutability": "nonpayable",
      "type": "function"
    },
    {
      "inputs": [
        {
          "internalType": "address",
          "name": "newImplementation",
          "type": "address"
        },
        {
          "internalType": "bytes",
          "name": "data",
          "type": "bytes"
        }
      ],
      "name": "upgradeToAndCall",
      "outputs": [],
      "stateMutability": "payable",
      "type": "function"
    }
  ],
  "bytecode": "0x60a06040523060601b60805234801561001757600080fd5b5060805160601c61267261005260003960008181610a4901528181610a8901528181610b4901528181610b890152610cca01526126726000f3fe60806040526004361061018d5760003560e01c806358a944c7116100d7578063a0e67e2b11610085578063a0e67e2b146104cf578063a12dde4d146104f1578063a217fddf14610511578063b6db75a014610526578063c01a8c841461053b578063d0549b851461055b578063d547741f14610572578063ee22610b1461059257600080fd5b806358a944c7146103c85780635c975abb1461040657806360b5bb3f1461041e57806380f59a651461043e5780638456cb591461047a57806391d148541461048f5780639ace38c2146104af57600080fd5b80632f54bf6e1161013f5780632f54bf6e146102b557806333ea3dc8146102e657806336568abe146103365780633659cfe6146103565780633f4ba83a146103765780634f1ef2861461038b578063526d81f61461039e57806352d1902d146103b357600080fd5b806301ffc9a714610192578063025e7c27146101c75780631d43b653146101ff57806320ea8d8614610221578063248a9ca3146102415780632e7700f01461027f5780632f2ff15d14610295575b600080fd5b34801561019e57600080fd5b506101b26101ad3660046121c1565b6105b2565b60405190151581526020015b60405180910390f35b3480156101d357600080fd5b506101e76101e2366004612166565b6105e9565b6040516001600160a01b0390911681526020016101be565b34801561020b57600080fd5b5061021f61021a366004612088565b610614565b005b34801561022d57600080fd5b5061021f61023c366004612166565b610788565b34801561024d57600080fd5b5061027161025c366004612166565b60009081526065602052604090206001015490565b6040519081526020016101be565b34801561028b57600080fd5b5061016454610271565b3480156102a157600080fd5b5061021f6102b0366004612196565b61092c565b3480156102c157600080fd5b506101b26102d0366004611fce565b6101606020526000908152604090205460ff1681565b3480156102f257600080fd5b50610306610301366004612166565b610956565b604080516001600160a01b03909516855260208501939093529015159183019190915260608201526080016101be565b34801561034257600080fd5b5061021f610351366004612196565b6109c0565b34801561036257600080fd5b5061021f610371366004611fce565b610a3e565b34801561038257600080fd5b5061021f610b07565b61021f610399366004611fe8565b610b3e565b3480156103aa57600080fd5b5061021f610bf4565b3480156103bf57600080fd5b50610271610cbd565b3480156103d457600080fd5b5061021f6103e3366004611fce565b61016280546001600160a01b0319166001600160a01b0392909216919091179055565b34801561041257600080fd5b5060975460ff166101b2565b34801561042a57600080fd5b5061021f6104393660046120b1565b610d6b565b34801561044a57600080fd5b506101b2610459366004612196565b61016360209081526000928352604080842090915290825290205460ff1681565b34801561048657600080fd5b5061021f611046565b34801561049b57600080fd5b506101b26104aa366004612196565b611075565b3480156104bb57600080fd5b506103066104ca366004612166565b6110a0565b3480156104db57600080fd5b506104e46110e8565b6040516101be9190612274565b3480156104fd57600080fd5b5061021f61050c366004611fce565b61114b565b34801561051d57600080fd5b50610271600081565b34801561053257600080fd5b506101b261121f565b34801561054757600080fd5b5061021f610556366004612166565b611231565b34801561056757600080fd5b506102716101615481565b34801561057e57600080fd5b5061021f61058d366004612196565b6113f8565b34801561059e57600080fd5b5061021f6105ad366004612166565b61141d565b60006001600160e01b03198216637965db0b60e01b14806105e357506301ffc9a760e01b6001600160e01b03198316145b92915050565b61015f81815481106105fa57600080fd5b6000918252602090912001546001600160a01b0316905081565b326000908152610160602052604090205460ff1661064d5760405162461bcd60e51b8152600401610644906124c9565b60405180910390fd5b6101648054604080516080810182526001600160a01b03868116808352602080840188815260008587018181526060870182815260018a018b559990915294517f5bc19ff2299cdd9c52c622a9137c53ea8dded8f746ee6e3f831227e4983e3f386004890290810180546001600160a01b0319169290961691909117909455517f5bc19ff2299cdd9c52c622a9137c53ea8dded8f746ee6e3f831227e4983e3f3984015592517f5bc19ff2299cdd9c52c622a9137c53ea8dded8f746ee6e3f831227e4983e3f3a8301805460ff191691151591909117905594517f5bc19ff2299cdd9c52c622a9137c53ea8dded8f746ee6e3f831227e4983e3f3b909101559051848152919291839133917fcd144288a078b7562351164feb1762115faca27f30827b4142f2bbe27166e320910160405180910390a4505050565b326000908152610160602052604090205460ff166107b85760405162461bcd60e51b8152600401610644906124c9565b61016454819081106107dc5760405162461bcd60e51b815260040161064490612426565b8161016481815481106107ff57634e487b7160e01b600052603260045260246000fd5b600091825260209091206002600490920201015460ff16156108335760405162461bcd60e51b81526004016106449061249c565b6000610164848154811061085757634e487b7160e01b600052603260045260246000fd5b60009182526020808320878452610163825260408085203386529092529220546004909102909101915060ff166108c35760405162461bcd60e51b815260206004820152601060248201526f1d1e081b9bdd0818dbdb999a5c9b595960821b6044820152606401610644565b60018160030160008282546108d89190612554565b9091555050600084815261016360209081526040808320338085529252808320805460ff191690555186927ff0dca620e2e81f7841d07bcc105e1704fb01475b278a9d4c236e1c62945edd5591a350505050565b600082815260656020526040902060010154610947816115f9565b6109518383611603565b505050565b6000806000806000610164868154811061098057634e487b7160e01b600052603260045260246000fd5b600091825260209091206004909102018054600182015460028301546003909301546001600160a01b039092169990985060ff9092169650945092505050565b6001600160a01b0381163314610a305760405162461bcd60e51b815260206004820152602f60248201527f416363657373436f6e74726f6c3a2063616e206f6e6c792072656e6f756e636560448201526e103937b632b9903337b91039b2b63360891b6064820152608401610644565b610a3a8282611689565b5050565b306001600160a01b037f0000000000000000000000000000000000000000000000000000000000000000161415610a875760405162461bcd60e51b815260040161064490612340565b7f00000000000000000000000000000000000000000000000000000000000000006001600160a01b0316610ab96116f0565b6001600160a01b031614610adf5760405162461bcd60e51b81526004016106449061238c565b610ae88161170c565b60408051600080825260208201909252610b0491839190611774565b50565b610b18610b126118ee565b33611075565b610b345760405162461bcd60e51b8152600401610644906122f4565b610b3c611912565b565b306001600160a01b037f0000000000000000000000000000000000000000000000000000000000000000161415610b875760405162461bcd60e51b815260040161064490612340565b7f00000000000000000000000000000000000000000000000000000000000000006001600160a01b0316610bb96116f0565b6001600160a01b031614610bdf5760405162461bcd60e51b81526004016106449061238c565b610be88261170c565b610a3a82826001611774565b600054610100900460ff1615808015610c145750600054600160ff909116105b80610c2e5750303b158015610c2e575060005460ff166001145b610c4a5760405162461bcd60e51b8152600401610644906123d8565b6000805460ff191660011790558015610c6d576000805461ff0019166101001790555b610c75611964565b8015610b04576000805461ff0019169055604051600181527f7f26b83ff96e1f2b6a682f133852f6798a09c465da95921460cefb38474024989060200160405180910390a150565b6000306001600160a01b037f00000000000000000000000000000000000000000000000000000000000000001614610d585760405162461bcd60e51b815260206004820152603860248201527f555550535570677261646561626c653a206d757374206e6f742062652063616c6044820152771b1959081d1a1c9bdd59da0819195b1959d85d1958d85b1b60421b6064820152608401610644565b506000805160206125f683398151915290565b600054610100900460ff1615808015610d8b5750600054600160ff909116105b80610da55750303b158015610da5575060005460ff166001145b610dc15760405162461bcd60e51b8152600401610644906123d8565b6000805460ff191660011790558015610de4576000805461ff0019166101001790555b6000835111610e275760405162461bcd60e51b815260206004820152600f60248201526e1bdddb995c9cc81c995c5d5a5c9959608a1b6044820152606401610644565b600082118015610e38575082518211155b610e955760405162461bcd60e51b815260206004820152602860248201527f696e76616c6964206e756d626572206f6620726571756972656420636f6e6669604482015267726d6174696f6e7360c01b6064820152608401610644565b60005b8351811015610ff5576000848281518110610ec357634e487b7160e01b600052603260045260246000fd5b6020026020010151905060006001600160a01b0316816001600160a01b03161415610f205760405162461bcd60e51b815260206004820152600d60248201526c34b73b30b634b21037bbb732b960991b6044820152606401610644565b6001600160a01b0381166000908152610160602052604090205460ff1615610f7d5760405162461bcd60e51b815260206004820152601060248201526f6f776e6572206e6f7420756e6971756560801b6044820152606401610644565b6001600160a01b0316600081815261016060205260408120805460ff1916600190811790915561015f805491820181559091527f8c9815a58669fc89297bdc7dd447c098116f98e79093735c0992d0967b696ed90180546001600160a01b031916909117905580610fed816125ae565b915050610e98565b506101618290558015610951576000805461ff0019169055604051600181527f7f26b83ff96e1f2b6a682f133852f6798a09c465da95921460cefb38474024989060200160405180910390a1505050565b611051610b126118ee565b61106d5760405162461bcd60e51b8152600401610644906122f4565b610b3c611997565b60009182526065602090815260408084206001600160a01b0393909316845291905290205460ff1690565b61016481815481106110b157600080fd5b600091825260209091206004909102018054600182015460028301546003909301546001600160a01b0390921693509160ff169084565b606061015f80548060200260200160405190810160405280929190818152602001828054801561114157602002820191906000526020600020905b81546001600160a01b03168152600190910190602001808311611123575b5050505050905090565b600054610100900460ff166111725760405162461bcd60e51b815260040161064490612451565b6001600160a01b0381166111c85760405162461bcd60e51b815260206004820181905260248201527f4f776e65722063616e6e6f7420626520746865207a65726f20616464726573736044820152606401610644565b6111d06119d4565b6111d8611964565b6111e06119fb565b6111f16111eb611a29565b82611a4d565b6111fc6111eb6118ee565b6112146112076118ee565b61120f611a29565b611a57565b610b04611207611a29565b600061122c610b12611a29565b905090565b326000908152610160602052604090205460ff166112615760405162461bcd60e51b8152600401610644906124c9565b61016454819081106112855760405162461bcd60e51b815260040161064490612426565b8161016481815481106112a857634e487b7160e01b600052603260045260246000fd5b600091825260209091206002600490920201015460ff16156112dc5760405162461bcd60e51b81526004016106449061249c565b600083815261016360209081526040808320338452909152902054839060ff16156113405760405162461bcd60e51b81526020600482015260146024820152731d1e08185b1c9958591e4818dbdb999a5c9b595960621b6044820152606401610644565b6000610164858154811061136457634e487b7160e01b600052603260045260246000fd5b906000526020600020906004020190506001816003016000828254611389919061251d565b9091555050600085815261016360209081526040808320338085529252808320805460ff191660011790555187927f5cbe105e36805f7820e291f799d5794ff948af2a5f664e580382defb6339004191a3610161548160030154106113f1576113f18561141d565b5050505050565b600082815260656020526040902060010154611413816115f9565b6109518383611689565b326000908152610160602052604090205460ff1661144d5760405162461bcd60e51b8152600401610644906124c9565b61016454819081106114715760405162461bcd60e51b815260040161064490612426565b81610164818154811061149457634e487b7160e01b600052603260045260246000fd5b600091825260209091206002600490920201015460ff16156114c85760405162461bcd60e51b81526004016106449061249c565b600061016484815481106114ec57634e487b7160e01b600052603260045260246000fd5b9060005260206000209060040201905061016154816003015410156115475760405162461bcd60e51b81526020600482015260116024820152700c6c2dcdcdee840caf0cac6eae8ca40e8f607b1b6044820152606401610644565b60028101805460ff191660019081179091556101625482549183015460405163f3fef3a360e01b81526001600160a01b039384166004820152602481019190915291169063f3fef3a390604401600060405180830381600087803b1580156115ae57600080fd5b505af11580156115c2573d6000803e3d6000fd5b50506040518692503391507f5445f318f4f5fcfb66592e68e0cc5822aa15664039bd5f0ffde24c5a8142b1ac90600090a350505050565b610b048133611aa2565b61160d8282611075565b610a3a5760008281526065602090815260408083206001600160a01b03851684529091529020805460ff191660011790556116453390565b6001600160a01b0316816001600160a01b0316837f2f8788117e7eff1d82e926ec794901d17c78024a50270940304540a733656f0d60405160405180910390a45050565b6116938282611075565b15610a3a5760008281526065602090815260408083206001600160a01b0385168085529252808320805460ff1916905551339285917ff6391f5c32d9c69d2a47ea670b442974b53935d1edc7fd64eb21e047a839171b9190a45050565b6000805160206125f6833981519152546001600160a01b031690565b61171461121f565b610b045760405162461bcd60e51b815260206004820152602b60248201527f4d75737420686176652061646d696e20726f6c6520746f20706572666f726d2060448201526a3a3434b99030b1ba34b7b760a91b6064820152608401610644565b7f4910fdfa16fed3260ed0e7147f7cc6da11a60208b5b9406d12a635614ffd91435460ff16156117a75761095183611b06565b826001600160a01b03166352d1902d6040518163ffffffff1660e01b815260040160206040518083038186803b1580156117e057600080fd5b505afa925050508015611810575060408051601f3d908101601f1916820190925261180d9181019061217e565b60015b6118735760405162461bcd60e51b815260206004820152602e60248201527f45524331393637557067726164653a206e657720696d706c656d656e7461746960448201526d6f6e206973206e6f74205555505360901b6064820152608401610644565b6000805160206125f683398151915281146118e25760405162461bcd60e51b815260206004820152602960248201527f45524331393637557067726164653a20756e737570706f727465642070726f786044820152681a58589b195555525160ba1b6064820152608401610644565b50610951838383611ba2565b7f65d7a28e3265b37a6474929f336521b332c1681b933f6cb9f3376673440d862a90565b61191a611bcd565b6097805460ff191690557f5db9ee0a495bf2e6ff9c91a7834c1ba4fdd244a5e8aa4e537bd38aeae4b073aa335b6040516001600160a01b03909116815260200160405180910390a1565b600054610100900460ff1661198b5760405162461bcd60e51b815260040161064490612451565b6097805460ff19169055565b61199f611c16565b6097805460ff191660011790557f62e78cea01bee320cd4e420270b5ea74000d11b0c9f74754ebdbfc544b05a2586119473390565b600054610100900460ff16610b3c5760405162461bcd60e51b815260040161064490612451565b600054610100900460ff16611a225760405162461bcd60e51b815260040161064490612451565b600160c955565b7fa49807205ce4d355092ef5a8a18f56e8913cf4a201fbe287825b095693c2177590565b610a3a8282611603565b600082815260656020526040808220600101805490849055905190918391839186917fbd79b86ffe0ab8e8776151514217cd7cacd52c909f66475c3af44e129f0b00ff9190a4505050565b611aac8282611075565b610a3a57611ac4816001600160a01b03166014611c5c565b611acf836020611c5c565b604051602001611ae0929190612205565b60408051601f198184030181529082905262461bcd60e51b8252610644916004016122c1565b6001600160a01b0381163b611b735760405162461bcd60e51b815260206004820152602d60248201527f455243313936373a206e657720696d706c656d656e746174696f6e206973206e60448201526c1bdd08184818dbdb9d1c9858dd609a1b6064820152608401610644565b6000805160206125f683398151915280546001600160a01b0319166001600160a01b0392909216919091179055565b611bab83611e45565b600082511180611bb85750805b1561095157611bc78383611e85565b50505050565b60975460ff16610b3c5760405162461bcd60e51b815260206004820152601460248201527314185d5cd8589b194e881b9bdd081c185d5cd95960621b6044820152606401610644565b60975460ff1615610b3c5760405162461bcd60e51b815260206004820152601060248201526f14185d5cd8589b194e881c185d5cd95960821b6044820152606401610644565b60606000611c6b836002612535565b611c7690600261251d565b67ffffffffffffffff811115611c9c57634e487b7160e01b600052604160045260246000fd5b6040519080825280601f01601f191660200182016040528015611cc6576020820181803683370190505b509050600360fc1b81600081518110611cef57634e487b7160e01b600052603260045260246000fd5b60200101906001600160f81b031916908160001a905350600f60fb1b81600181518110611d2c57634e487b7160e01b600052603260045260246000fd5b60200101906001600160f81b031916908160001a9053506000611d50846002612535565b611d5b90600161251d565b90505b6001811115611def576f181899199a1a9b1b9c1cb0b131b232b360811b85600f1660108110611d9d57634e487b7160e01b600052603260045260246000fd5b1a60f81b828281518110611dc157634e487b7160e01b600052603260045260246000fd5b60200101906001600160f81b031916908160001a90535060049490941c93611de881612597565b9050611d5e565b508315611e3e5760405162461bcd60e51b815260206004820181905260248201527f537472696e67733a20686578206c656e67746820696e73756666696369656e746044820152606401610644565b9392505050565b611e4e81611b06565b6040516001600160a01b038216907fbc7cd75a20ee27fd9adebab32041f755214dbc6bffa90cc0225b39da2e5c2d3b90600090a250565b60606001600160a01b0383163b611eed5760405162461bcd60e51b815260206004820152602660248201527f416464726573733a2064656c65676174652063616c6c20746f206e6f6e2d636f6044820152651b9d1c9858dd60d21b6064820152608401610644565b600080846001600160a01b031684604051611f0891906121e9565b600060405180830381855af49150503d8060008114611f43576040519150601f19603f3d011682016040523d82523d6000602084013e611f48565b606091505b5091509150611f70828260405180606001604052806027815260200161261660279139611f79565b95945050505050565b60608315611f88575081611e3e565b825115611f985782518084602001fd5b8160405162461bcd60e51b815260040161064491906122c1565b80356001600160a01b0381168114611fc957600080fd5b919050565b600060208284031215611fdf578081fd5b611e3e82611fb2565b60008060408385031215611ffa578081fd5b61200383611fb2565b915060208084013567ffffffffffffffff80821115612020578384fd5b818601915086601f830112612033578384fd5b813581811115612045576120456125df565b612057601f8201601f191685016124ec565b9150808252878482850101111561206c578485fd5b8084840185840137810190920192909252919491935090915050565b6000806040838503121561209a578182fd5b6120a383611fb2565b946020939093013593505050565b600080604083850312156120c3578182fd5b823567ffffffffffffffff808211156120da578384fd5b818501915085601f8301126120ed578384fd5b8135602082821115612101576121016125df565b8160051b92506121128184016124ec565b8281528181019085830185870184018b101561212c578889fd5b8896505b848710156121555761214181611fb2565b835260019690960195918301918301612130565b509997909101359750505050505050565b600060208284031215612177578081fd5b5035919050565b60006020828403121561218f578081fd5b5051919050565b600080604083850312156121a8578182fd5b823591506121b860208401611fb2565b90509250929050565b6000602082840312156121d2578081fd5b81356001600160e01b031981168114611e3e578182fd5b600082516121fb81846020870161256b565b9190910192915050565b76020b1b1b2b9b9a1b7b73a3937b61d1030b1b1b7bab73a1604d1b81526000835161223781601785016020880161256b565b7001034b99036b4b9b9b4b733903937b6329607d1b601791840191820152835161226881602884016020880161256b565b01602801949350505050565b6020808252825182820181905260009190848201906040850190845b818110156122b55783516001600160a01b031683529284019291840191600101612290565b50909695505050505050565b60208152600082518060208401526122e081604085016020870161256b565b601f01601f19169190910160400192915050565b6020808252602c908201527f4d75737420686176652070617573657220726f6c6520746f20706572666f726d60408201526b103a3434b99030b1ba34b7b760a11b606082015260800190565b6020808252602c908201527f46756e6374696f6e206d7573742062652063616c6c6564207468726f7567682060408201526b19195b1959d85d1958d85b1b60a21b606082015260800190565b6020808252602c908201527f46756e6374696f6e206d7573742062652063616c6c6564207468726f7567682060408201526b6163746976652070726f787960a01b606082015260800190565b6020808252602e908201527f496e697469616c697a61626c653a20636f6e747261637420697320616c72656160408201526d191e481a5b9a5d1a585b1a5e995960921b606082015260800190565b6020808252601190820152701d1e08191bd95cc81b9bdd08195e1a5cdd607a1b604082015260600190565b6020808252602b908201527f496e697469616c697a61626c653a20636f6e7472616374206973206e6f74206960408201526a6e697469616c697a696e6760a81b606082015260800190565b6020808252601390820152721d1e08185b1c9958591e48195e1958dd5d1959606a1b604082015260600190565b6020808252600990820152683737ba1037bbb732b960b91b604082015260600190565b604051601f8201601f1916810167ffffffffffffffff81118282101715612515576125156125df565b604052919050565b60008219821115612530576125306125c9565b500190565b600081600019048311821515161561254f5761254f6125c9565b500290565b600082821015612566576125666125c9565b500390565b60005b8381101561258657818101518382015260200161256e565b83811115611bc75750506000910152565b6000816125a6576125a66125c9565b506000190190565b60006000198214156125c2576125c26125c9565b5060010190565b634e487b7160e01b600052601160045260246000fd5b634e487b7160e01b600052604160045260246000fdfe360894a13ba1a3210667c828492db98dca3e2076cc3735a920a3ca505d382bbc416464726573733a206c6f772d6c6576656c2064656c65676174652063616c6c206661696c6564a2646970667358221220d24e5b2ed034f3050011e25ac8c66aa95b1049067a93a395e0d16fd33ba233ec64736f6c63430008040033",
  "linkReferences": {},
  "deployedLinkReferences": {}
}