{
  "_format": "hh-sol-artifact-1",
  "contractName": "UsdcToken",
  "sourceName": "contracts/test-contract/UsdcToken.sol",
  "abi": [
    {
      "anonymous": false,
      "inputs": [
        {
          "indexed": true,
          "internalType": "address",
          "name": "owner",
          "type": "address"
        },
        {
          "indexed": true,
          "internalType": "address",
          "name": "spender",
          "type": "address"
        },
        {
          "indexed": false,
          "internalType": "uint256",
          "name": "value",
          "type": "uint256"
        }
      ],
      "name": "Approval",
      "type": "event"
    },
    {
      "anonymous": false,
      "inputs": [
        {
          "indexed": false,
          "internalType": "uint8",
          "name": "version",
          "type": "uint8"
        }
      ],
      "name": "Initialized",
      "type": "event"
    },
    {
      "anonymous": false,
      "inputs": [
        {
          "indexed": true,
          "internalType": "address",
          "name": "from",
          "type": "address"
        },
        {
          "indexed": true,
          "internalType": "address",
          "name": "to",
          "type": "address"
        },
        {
          "indexed": false,
          "internalType": "uint256",
          "name": "value",
          "type": "uint256"
        }
      ],
      "name": "Transfer",
      "type": "event"
    },
    {
      "inputs": [
        {
          "internalType": "address",
          "name": "owner",
          "type": "address"
        },
        {
          "internalType": "address",
          "name": "spender",
          "type": "address"
        }
      ],
      "name": "allowance",
      "outputs": [
        {
          "internalType": "uint256",
          "name": "",
          "type": "uint256"
        }
      ],
      "stateMutability": "view",
      "type": "function"
    },
    {
      "inputs": [
        {
          "internalType": "address",
          "name": "spender",
          "type": "address"
        },
        {
          "internalType": "uint256",
          "name": "amount",
          "type": "uint256"
        }
      ],
      "name": "approve",
      "outputs": [
        {
          "internalType": "bool",
          "name": "",
          "type": "bool"
        }
      ],
      "stateMutability": "nonpayable",
      "type": "function"
    },
    {
      "inputs": [
        {
          "internalType": "address",
          "name": "account",
          "type": "address"
        }
      ],
      "name": "balanceOf",
      "outputs": [
        {
          "internalType": "uint256",
          "name": "",
          "type": "uint256"
        }
      ],
      "stateMutability": "view",
      "type": "function"
    },
    {
      "inputs": [],
      "name": "decimals",
      "outputs": [
        {
          "internalType": "uint8",
          "name": "",
          "type": "uint8"
        }
      ],
      "stateMutability": "view",
      "type": "function"
    },
    {
      "inputs": [
        {
          "internalType": "address",
          "name": "spender",
          "type": "address"
        },
        {
          "internalType": "uint256",
          "name": "subtractedValue",
          "type": "uint256"
        }
      ],
      "name": "decreaseAllowance",
      "outputs": [
        {
          "internalType": "bool",
          "name": "",
          "type": "bool"
        }
      ],
      "stateMutability": "nonpayable",
      "type": "function"
    },
    {
      "inputs": [
        {
          "internalType": "address",
          "name": "spender",
          "type": "address"
        },
        {
          "internalType": "uint256",
          "name": "addedValue",
          "type": "uint256"
        }
      ],
      "name": "increaseAllowance",
      "outputs": [
        {
          "internalType": "bool",
          "name": "",
          "type": "bool"
        }
      ],
      "stateMutability": "nonpayable",
      "type": "function"
    },
    {
      "inputs": [],
      "name": "initialize",
      "outputs": [],
      "stateMutability": "nonpayable",
      "type": "function"
    },
    {
      "inputs": [],
      "name": "name",
      "outputs": [
        {
          "internalType": "string",
          "name": "",
          "type": "string"
        }
      ],
      "stateMutability": "view",
      "type": "function"
    },
    {
      "inputs": [],
      "name": "symbol",
      "outputs": [
        {
          "internalType": "string",
          "name": "",
          "type": "string"
        }
      ],
      "stateMutability": "view",
      "type": "function"
    },
    {
      "inputs": [],
      "name": "totalSupply",
      "outputs": [
        {
          "internalType": "uint256",
          "name": "",
          "type": "uint256"
        }
      ],
      "stateMutability": "view",
      "type": "function"
    },
    {
      "inputs": [
        {
          "internalType": "address",
          "name": "to",
          "type": "address"
        },
        {
          "internalType": "uint256",
          "name": "amount",
          "type": "uint256"
        }
      ],
      "name": "transfer",
      "outputs": [
        {
          "internalType": "bool",
          "name": "",
          "type": "bool"
        }
      ],
      "stateMutability": "nonpayable",
      "type": "function"
    },
    {
      "inputs": [
        {
          "internalType": "address",
          "name": "from",
          "type": "address"
        },
        {
          "internalType": "address",
          "name": "to",
          "type": "address"
        },
        {
          "internalType": "uint256",
          "name": "amount",
          "type": "uint256"
        }
      ],
      "name": "transferFrom",
      "outputs": [
        {
          "internalType": "bool",
          "name": "",
          "type": "bool"
        }
      ],
      "stateMutability": "nonpayable",
      "type": "function"
    }
  ],
  "bytecode": "0x608060405234801561001057600080fd5b50610d68806100206000396000f3fe608060405234801561001057600080fd5b50600436106100b45760003560e01c806370a082311161007157806370a08231146101415780638129fc1c1461016a57806395d89b4114610174578063a457c2d71461017c578063a9059cbb1461018f578063dd62ed3e146101a257600080fd5b806306fdde03146100b9578063095ea7b3146100d757806318160ddd146100fa57806323b872dd1461010c578063313ce5671461011f578063395093511461012e575b600080fd5b6100c16101b5565b6040516100ce9190610b1e565b60405180910390f35b6100ea6100e5366004610af5565b610247565b60405190151581526020016100ce565b6035545b6040519081526020016100ce565b6100ea61011a366004610aba565b610261565b604051601281526020016100ce565b6100ea61013c366004610af5565b610285565b6100fe61014f366004610a67565b6001600160a01b031660009081526033602052604090205490565b6101726102a7565b005b6100c1610420565b6100ea61018a366004610af5565b61042f565b6100ea61019d366004610af5565b6104aa565b6100fe6101b0366004610a88565b6104b8565b6060603680546101c490610ce1565b80601f01602080910402602001604051908101604052809291908181526020018280546101f090610ce1565b801561023d5780601f106102125761010080835404028352916020019161023d565b820191906000526020600020905b81548152906001019060200180831161022057829003601f168201915b5050505050905090565b6000336102558185856104e3565b60019150505b92915050565b60003361026f858285610607565b61027a858585610681565b506001949350505050565b60003361025581858561029883836104b8565b6102a29190610bbc565b6104e3565b600054610100900460ff16158080156102c75750600054600160ff909116105b806102e15750303b1580156102e1575060005460ff166001145b6103495760405162461bcd60e51b815260206004820152602e60248201527f496e697469616c697a61626c653a20636f6e747261637420697320616c72656160448201526d191e481a5b9a5d1a585b1a5e995960921b60648201526084015b60405180910390fd5b6000805460ff19166001179055801561036c576000805461ff0019166101001790555b6103b3604051806040016040528060098152602001682ab9b231aa37b5b2b760b91b815250604051806040016040528060048152602001635553444360e01b81525061084f565b6103d7336103c36012600a610c17565b6103d29064174876e800610cc2565b610884565b801561041d576000805461ff0019169055604051600181527f7f26b83ff96e1f2b6a682f133852f6798a09c465da95921460cefb38474024989060200160405180910390a15b50565b6060603780546101c490610ce1565b6000338161043d82866104b8565b90508381101561049d5760405162461bcd60e51b815260206004820152602560248201527f45524332303a2064656372656173656420616c6c6f77616e63652062656c6f77604482015264207a65726f60d81b6064820152608401610340565b61027a82868684036104e3565b600033610255818585610681565b6001600160a01b03918216600090815260346020908152604080832093909416825291909152205490565b6001600160a01b0383166105455760405162461bcd60e51b8152602060048201526024808201527f45524332303a20617070726f76652066726f6d20746865207a65726f206164646044820152637265737360e01b6064820152608401610340565b6001600160a01b0382166105a65760405162461bcd60e51b815260206004820152602260248201527f45524332303a20617070726f766520746f20746865207a65726f206164647265604482015261737360f01b6064820152608401610340565b6001600160a01b0383811660008181526034602090815260408083209487168084529482529182902085905590518481527f8c5be1e5ebec7d5bd14f71427d1e84f3dd0314c0f7b2291e5b200ac8c7c3b925910160405180910390a3505050565b600061061384846104b8565b9050600019811461067b578181101561066e5760405162461bcd60e51b815260206004820152601d60248201527f45524332303a20696e73756666696369656e7420616c6c6f77616e63650000006044820152606401610340565b61067b84848484036104e3565b50505050565b6001600160a01b0383166106e55760405162461bcd60e51b815260206004820152602560248201527f45524332303a207472616e736665722066726f6d20746865207a65726f206164604482015264647265737360d81b6064820152608401610340565b6001600160a01b0382166107475760405162461bcd60e51b815260206004820152602360248201527f45524332303a207472616e7366657220746f20746865207a65726f206164647260448201526265737360e81b6064820152608401610340565b6001600160a01b038316600090815260336020526040902054818110156107bf5760405162461bcd60e51b815260206004820152602660248201527f45524332303a207472616e7366657220616d6f756e7420657863656564732062604482015265616c616e636560d01b6064820152608401610340565b6001600160a01b038085166000908152603360205260408082208585039055918516815290812080548492906107f6908490610bbc565b92505081905550826001600160a01b0316846001600160a01b03167fddf252ad1be2c89b69c2b068fc378daa952ba7f163c4a11628f55a4df523b3ef8460405161084291815260200190565b60405180910390a361067b565b600054610100900460ff166108765760405162461bcd60e51b815260040161034090610b71565b6108808282610968565b5050565b6001600160a01b0382166108da5760405162461bcd60e51b815260206004820152601f60248201527f45524332303a206d696e7420746f20746865207a65726f2061646472657373006044820152606401610340565b80603560008282546108ec9190610bbc565b90915550506001600160a01b03821660009081526033602052604081208054839290610919908490610bbc565b90915550506040518181526001600160a01b038316906000907fddf252ad1be2c89b69c2b068fc378daa952ba7f163c4a11628f55a4df523b3ef9060200160405180910390a35050565b505050565b600054610100900460ff1661098f5760405162461bcd60e51b815260040161034090610b71565b81516109a29060369060208501906109b2565b5080516109639060379060208401905b8280546109be90610ce1565b90600052602060002090601f0160209004810192826109e05760008555610a26565b82601f106109f957805160ff1916838001178555610a26565b82800160010185558215610a26579182015b82811115610a26578251825591602001919060010190610a0b565b50610a32929150610a36565b5090565b5b80821115610a325760008155600101610a37565b80356001600160a01b0381168114610a6257600080fd5b919050565b600060208284031215610a78578081fd5b610a8182610a4b565b9392505050565b60008060408385031215610a9a578081fd5b610aa383610a4b565b9150610ab160208401610a4b565b90509250929050565b600080600060608486031215610ace578081fd5b610ad784610a4b565b9250610ae560208501610a4b565b9150604084013590509250925092565b60008060408385031215610b07578182fd5b610b1083610a4b565b946020939093013593505050565b6000602080835283518082850152825b81811015610b4a57858101830151858201604001528201610b2e565b81811115610b5b5783604083870101525b50601f01601f1916929092016040019392505050565b6020808252602b908201527f496e697469616c697a61626c653a20636f6e7472616374206973206e6f74206960408201526a6e697469616c697a696e6760a81b606082015260800190565b60008219821115610bcf57610bcf610d1c565b500190565b600181815b80851115610c0f578160001904821115610bf557610bf5610d1c565b80851615610c0257918102915b93841c9390800290610bd9565b509250929050565b6000610a8160ff841683600082610c305750600161025b565b81610c3d5750600061025b565b8160018114610c535760028114610c5d57610c79565b600191505061025b565b60ff841115610c6e57610c6e610d1c565b50506001821b61025b565b5060208310610133831016604e8410600b8410161715610c9c575081810a61025b565b610ca68383610bd4565b8060001904821115610cba57610cba610d1c565b029392505050565b6000816000190483118215151615610cdc57610cdc610d1c565b500290565b600181811c90821680610cf557607f821691505b60208210811415610d1657634e487b7160e01b600052602260045260246000fd5b50919050565b634e487b7160e01b600052601160045260246000fdfea26469706673582212203d531361e234f7e0108c7334e7c4535c6ef01e461a8b35fa9543c9412d4ee26864736f6c63430008040033",
  "linkReferences": {},
  "deployedLinkReferences": {}
}