{
  "_format": "hh-sol-artifact-1",
  "contractName": "SeniorPool",
  "sourceName": "contracts/protocol/SeniorPool.sol",
  "abi": [
    {
      "anonymous": false,
      "inputs": [
        {
          "indexed": false,
          "internalType": "address",
          "name": "previousAdmin",
          "type": "address"
        },
        {
          "indexed": false,
          "internalType": "address",
          "name": "newAdmin",
          "type": "address"
        }
      ],
      "name": "AdminChanged",
      "type": "event"
    },
    {
      "anonymous": false,
      "inputs": [
        {
          "indexed": true,
          "internalType": "address",
          "name": "beacon",
          "type": "address"
        }
      ],
      "name": "BeaconUpgraded",
      "type": "event"
    },
    {
      "anonymous": false,
      "inputs": [
        {
          "indexed": false,
          "internalType": "uint8",
          "name": "version",
          "type": "uint8"
        }
      ],
      "name": "Initialized",
      "type": "event"
    },
    {
      "anonymous": false,
      "inputs": [
        {
          "indexed": false,
          "internalType": "address",
          "name": "account",
          "type": "address"
        }
      ],
      "name": "Paused",
      "type": "event"
    },
    {
      "anonymous": false,
      "inputs": [
        {
          "indexed": true,
          "internalType": "bytes32",
          "name": "role",
          "type": "bytes32"
        },
        {
          "indexed": true,
          "internalType": "bytes32",
          "name": "previousAdminRole",
          "type": "bytes32"
        },
        {
          "indexed": true,
          "internalType": "bytes32",
          "name": "newAdminRole",
          "type": "bytes32"
        }
      ],
      "name": "RoleAdminChanged",
      "type": "event"
    },
    {
      "anonymous": false,
      "inputs": [
        {
          "indexed": true,
          "internalType": "bytes32",
          "name": "role",
          "type": "bytes32"
        },
        {
          "indexed": true,
          "internalType": "address",
          "name": "account",
          "type": "address"
        },
        {
          "indexed": true,
          "internalType": "address",
          "name": "sender",
          "type": "address"
        }
      ],
      "name": "RoleGranted",
      "type": "event"
    },
    {
      "anonymous": false,
      "inputs": [
        {
          "indexed": true,
          "internalType": "bytes32",
          "name": "role",
          "type": "bytes32"
        },
        {
          "indexed": true,
          "internalType": "address",
          "name": "account",
          "type": "address"
        },
        {
          "indexed": true,
          "internalType": "address",
          "name": "sender",
          "type": "address"
        }
      ],
      "name": "RoleRevoked",
      "type": "event"
    },
    {
      "anonymous": false,
      "inputs": [
        {
          "indexed": true,
          "internalType": "address",
          "name": "from",
          "type": "address"
        },
        {
          "indexed": false,
          "internalType": "uint256",
          "name": "amount",
          "type": "uint256"
        }
      ],
      "name": "Stake",
      "type": "event"
    },
    {
      "anonymous": false,
      "inputs": [
        {
          "indexed": false,
          "internalType": "address",
          "name": "account",
          "type": "address"
        }
      ],
      "name": "Unpaused",
      "type": "event"
    },
    {
      "anonymous": false,
      "inputs": [
        {
          "indexed": true,
          "internalType": "address",
          "name": "from",
          "type": "address"
        },
        {
          "indexed": false,
          "internalType": "uint256",
          "name": "amount",
          "type": "uint256"
        }
      ],
      "name": "Unstake",
      "type": "event"
    },
    {
      "anonymous": false,
      "inputs": [
        {
          "indexed": true,
          "internalType": "address",
          "name": "implementation",
          "type": "address"
        }
      ],
      "name": "Upgraded",
      "type": "event"
    },
    {
      "anonymous": false,
      "inputs": [
        {
          "indexed": true,
          "internalType": "address",
          "name": "to",
          "type": "address"
        },
        {
          "indexed": false,
          "internalType": "uint256",
          "name": "amount",
          "type": "uint256"
        }
      ],
      "name": "YieldWithdraw",
      "type": "event"
    },
    {
      "inputs": [],
      "name": "DEFAULT_ADMIN_ROLE",
      "outputs": [
        {
          "internalType": "bytes32",
          "name": "",
          "type": "bytes32"
        }
      ],
      "stateMutability": "view",
      "type": "function"
    },
    {
      "inputs": [
        {
          "internalType": "address",
          "name": "owner",
          "type": "address"
        }
      ],
      "name": "_BaseUpgradeablePausable_init",
      "outputs": [],
      "stateMutability": "nonpayable",
      "type": "function"
    },
    {
      "inputs": [],
      "name": "__PauserPausable__init",
      "outputs": [],
      "stateMutability": "nonpayable",
      "type": "function"
    },
    {
      "inputs": [
        {
          "internalType": "address",
          "name": "user",
          "type": "address"
        }
      ],
      "name": "approveUSDC",
      "outputs": [],
      "stateMutability": "nonpayable",
      "type": "function"
    },
    {
      "inputs": [],
      "name": "contractName",
      "outputs": [
        {
          "internalType": "string",
          "name": "",
          "type": "string"
        }
      ],
      "stateMutability": "view",
      "type": "function"
    },
    {
      "inputs": [],
      "name": "getDefaultLockinMonths",
      "outputs": [
        {
          "internalType": "uint256",
          "name": "",
          "type": "uint256"
        }
      ],
      "stateMutability": "view",
      "type": "function"
    },
    {
      "inputs": [
        {
          "internalType": "bytes32",
          "name": "role",
          "type": "bytes32"
        }
      ],
      "name": "getRoleAdmin",
      "outputs": [
        {
          "internalType": "bytes32",
          "name": "",
          "type": "bytes32"
        }
      ],
      "stateMutability": "view",
      "type": "function"
    },
    {
      "inputs": [],
      "name": "getUserInvestment",
      "outputs": [
        {
          "internalType": "uint256",
          "name": "withdrawableAmt",
          "type": "uint256"
        },
        {
          "internalType": "uint256",
          "name": "stakingAmt",
          "type": "uint256"
        }
      ],
      "stateMutability": "view",
      "type": "function"
    },
    {
      "inputs": [
        {
          "internalType": "bytes32",
          "name": "role",
          "type": "bytes32"
        },
        {
          "internalType": "address",
          "name": "account",
          "type": "address"
        }
      ],
      "name": "grantRole",
      "outputs": [],
      "stateMutability": "nonpayable",
      "type": "function"
    },
    {
      "inputs": [
        {
          "internalType": "bytes32",
          "name": "role",
          "type": "bytes32"
        },
        {
          "internalType": "address",
          "name": "account",
          "type": "address"
        }
      ],
      "name": "hasRole",
      "outputs": [
        {
          "internalType": "bool",
          "name": "",
          "type": "bool"
        }
      ],
      "stateMutability": "view",
      "type": "function"
    },
    {
      "inputs": [
        {
          "internalType": "contract DygnifyConfig",
          "name": "_dygnifyConfig",
          "type": "address"
        }
      ],
      "name": "initialize",
      "outputs": [],
      "stateMutability": "nonpayable",
      "type": "function"
    },
    {
      "inputs": [
        {
          "internalType": "bytes32",
          "name": "opportunityId",
          "type": "bytes32"
        }
      ],
      "name": "invest",
      "outputs": [],
      "stateMutability": "nonpayable",
      "type": "function"
    },
    {
      "inputs": [],
      "name": "investmentLockinInMonths",
      "outputs": [
        {
          "internalType": "uint256",
          "name": "",
          "type": "uint256"
        }
      ],
      "stateMutability": "view",
      "type": "function"
    },
    {
      "inputs": [],
      "name": "isAdmin",
      "outputs": [
        {
          "internalType": "bool",
          "name": "",
          "type": "bool"
        }
      ],
      "stateMutability": "view",
      "type": "function"
    },
    {
      "inputs": [
        {
          "internalType": "address",
          "name": "",
          "type": "address"
        }
      ],
      "name": "isStaking",
      "outputs": [
        {
          "internalType": "bool",
          "name": "",
          "type": "bool"
        }
      ],
      "stateMutability": "view",
      "type": "function"
    },
    {
      "inputs": [
        {
          "internalType": "address",
          "name": "",
          "type": "address"
        }
      ],
      "name": "kycOf",
      "outputs": [
        {
          "internalType": "bool",
          "name": "isDoucument",
          "type": "bool"
        },
        {
          "internalType": "bool",
          "name": "isLiveliness",
          "type": "bool"
        },
        {
          "internalType": "bool",
          "name": "isAddress",
          "type": "bool"
        },
        {
          "internalType": "bool",
          "name": "isAML",
          "type": "bool"
        },
        {
          "internalType": "bool",
          "name": "imageHash",
          "type": "bool"
        },
        {
          "internalType": "bool",
          "name": "result",
          "type": "bool"
        }
      ],
      "stateMutability": "view",
      "type": "function"
    },
    {
      "inputs": [],
      "name": "pause",
      "outputs": [],
      "stateMutability": "nonpayable",
      "type": "function"
    },
    {
      "inputs": [],
      "name": "paused",
      "outputs": [
        {
          "internalType": "bool",
          "name": "",
          "type": "bool"
        }
      ],
      "stateMutability": "view",
      "type": "function"
    },
    {
      "inputs": [],
      "name": "proxiableUUID",
      "outputs": [
        {
          "internalType": "bytes32",
          "name": "",
          "type": "bytes32"
        }
      ],
      "stateMutability": "view",
      "type": "function"
    },
    {
      "inputs": [
        {
          "internalType": "bytes32",
          "name": "role",
          "type": "bytes32"
        },
        {
          "internalType": "address",
          "name": "account",
          "type": "address"
        }
      ],
      "name": "renounceRole",
      "outputs": [],
      "stateMutability": "nonpayable",
      "type": "function"
    },
    {
      "inputs": [
        {
          "internalType": "bytes32",
          "name": "role",
          "type": "bytes32"
        },
        {
          "internalType": "address",
          "name": "account",
          "type": "address"
        }
      ],
      "name": "revokeRole",
      "outputs": [],
      "stateMutability": "nonpayable",
      "type": "function"
    },
    {
      "inputs": [],
      "name": "seniorPoolBal",
      "outputs": [
        {
          "internalType": "uint256",
          "name": "",
          "type": "uint256"
        }
      ],
      "stateMutability": "view",
      "type": "function"
    },
    {
      "inputs": [],
      "name": "sharePrice",
      "outputs": [
        {
          "internalType": "uint256",
          "name": "",
          "type": "uint256"
        }
      ],
      "stateMutability": "view",
      "type": "function"
    },
    {
      "inputs": [
        {
          "internalType": "uint256",
          "name": "amount",
          "type": "uint256"
        }
      ],
      "name": "stake",
      "outputs": [],
      "stateMutability": "nonpayable",
      "type": "function"
    },
    {
      "inputs": [
        {
          "internalType": "bytes4",
          "name": "interfaceId",
          "type": "bytes4"
        }
      ],
      "name": "supportsInterface",
      "outputs": [
        {
          "internalType": "bool",
          "name": "",
          "type": "bool"
        }
      ],
      "stateMutability": "view",
      "type": "function"
    },
    {
      "inputs": [],
      "name": "unpause",
      "outputs": [],
      "stateMutability": "nonpayable",
      "type": "function"
    },
    {
      "inputs": [
        {
          "internalType": "address",
          "name": "newImplementation",
          "type": "address"
        }
      ],
      "name": "upgradeTo",
      "outputs": [],
      "stateMutability": "nonpayable",
      "type": "function"
    },
    {
      "inputs": [
        {
          "internalType": "address",
          "name": "newImplementation",
          "type": "address"
        },
        {
          "internalType": "bytes",
          "name": "data",
          "type": "bytes"
        }
      ],
      "name": "upgradeToAndCall",
      "outputs": [],
      "stateMutability": "payable",
      "type": "function"
    },
    {
      "inputs": [
        {
          "internalType": "bool",
          "name": "_isWriteOff",
          "type": "bool"
        },
        {
          "internalType": "bytes32",
          "name": "opportunityId",
          "type": "bytes32"
        },
        {
          "internalType": "uint256",
          "name": "_amount",
          "type": "uint256"
        }
      ],
      "name": "withDrawFromOpportunity",
      "outputs": [],
      "stateMutability": "nonpayable",
      "type": "function"
    },
    {
      "inputs": [
        {
          "internalType": "uint256",
          "name": "amount",
          "type": "uint256"
        },
        {
          "internalType": "address",
          "name": "_receiver",
          "type": "address"
        }
      ],
      "name": "withdrawTo",
      "outputs": [],
      "stateMutability": "nonpayable",
      "type": "function"
    },
    {
      "inputs": [
        {
          "internalType": "uint256",
          "name": "amount",
          "type": "uint256"
        }
      ],
      "name": "withdrawWithLP",
      "outputs": [],
      "stateMutability": "nonpayable",
      "type": "function"
    }
  ],
  "bytecode": "0x3060601b60805260e0604052600b60a08190526a14d95b9a5bdc88141bdbdb60aa1b60c0908152620000369161016691906200004b565b503480156200004457600080fd5b506200012e565b8280546200005990620000f1565b90600052602060002090601f0160209004810192826200007d5760008555620000c8565b82601f106200009857805160ff1916838001178555620000c8565b82800160010185558215620000c8579182015b82811115620000c8578251825591602001919060010190620000ab565b50620000d6929150620000da565b5090565b5b80821115620000d65760008155600101620000db565b600181811c908216806200010657607f821691505b602082108114156200012857634e487b7160e01b600052602260045260246000fd5b50919050565b60805160601c6134a16200016960003960008181610b2701528181610b6701528181610c2701528181610c670152610da801526134a16000f3fe6080604052600436106101985760003560e01c80636f49712b116100e2578063a694fc3a11610085578063a694fc3a146104e4578063a972f0a014610504578063b6db75a014610524578063c257600414610539578063c4d66de814610559578063c86283c814610579578063d547741f14610599578063f92496b6146105b957600080fd5b80636f49712b146103f957806375d0c0dc1461042a57806376797d3a1461044c5780638456cb5914610463578063872697291461047857806391d148541461048f578063a12dde4d146104af578063a217fddf146104cf57600080fd5b80633968e6221161014a5780633968e622146102b25780633f4ba83a1461034f57806345e88089146103645780634f1ef2861461037a578063526d81f61461038d57806352d1902d146103a25780635c975abb146103b757806361c030ab146103cf57600080fd5b806301ffc9a71461019d5780631c3e3688146101d257806323fe5e5a146101f4578063248a9ca3146102145780632f2ff15d1461025257806336568abe146102725780633659cfe614610292575b600080fd5b3480156101a957600080fd5b506101bd6101b8366004612ed1565b6105d0565b60405190151581526020015b60405180910390f35b3480156101de57600080fd5b506101f26101ed366004612e3e565b610607565b005b34801561020057600080fd5b506101f261020f366004612d2b565b6109c9565b34801561022057600080fd5b5061024461022f366004612e72565b60009081526065602052604090206001015490565b6040519081526020016101c9565b34801561025e57600080fd5b506101f261026d366004612ea2565b610a78565b34801561027e57600080fd5b506101f261028d366004612ea2565b610aa2565b34801561029e57600080fd5b506101f26102ad366004612d2b565b610b1c565b3480156102be57600080fd5b506103166102cd366004612d2b565b6101656020526000908152604090205460ff8082169161010081048216916201000082048116916301000000810482169164010000000082048116916501000000000090041686565b604080519615158752941515602087015292151593850193909352151560608401529015156080830152151560a082015260c0016101c9565b34801561035b57600080fd5b506101f2610be5565b34801561037057600080fd5b5061016954610244565b6101f2610388366004612d63565b610c1c565b34801561039957600080fd5b506101f2610cd2565b3480156103ae57600080fd5b50610244610d9b565b3480156103c357600080fd5b5060975460ff166101bd565b3480156103db57600080fd5b506103e4610e49565b604080519283526020830191909152016101c9565b34801561040557600080fd5b506101bd610414366004612d2b565b6101636020526000908152604090205460ff1681565b34801561043657600080fd5b5061043f61102c565b6040516101c99190612fb1565b34801561045857600080fd5b5061024461016a5481565b34801561046f57600080fd5b506101f26110bb565b34801561048457600080fd5b5061024461016b5481565b34801561049b57600080fd5b506101bd6104aa366004612ea2565b6110ea565b3480156104bb57600080fd5b506101f26104ca366004612d2b565b611115565b3480156104db57600080fd5b50610244600081565b3480156104f057600080fd5b506101f26104ff366004612e72565b6111e9565b34801561051057600080fd5b506101f261051f366004612e72565b61145b565b34801561053057600080fd5b506101bd611921565b34801561054557600080fd5b506101f2610554366004612e72565b611933565b34801561056557600080fd5b506101f2610574366004612d2b565b611bec565b34801561058557600080fd5b506101f2610594366004612ea2565b611e27565b3480156105a557600080fd5b506101f26105b4366004612ea2565b611fa9565b3480156105c557600080fd5b506102446101695481565b60006001600160e01b03198216637965db0b60e01b148061060157506301ffc9a760e01b6001600160e01b03198316145b92915050565b61016054604051638176715560e01b8152600481018490526001600160a01b039091169063817671559060240160206040518083038186803b15801561064c57600080fd5b505afa158015610660573d6000803e3d6000fd5b505050506040513d601f19601f820116820180604052508101906106849190612e22565b15156001148061069657506001831515145b6106f65760405162461bcd60e51b815260206004820152602660248201527f4f70706f7274756e697479206973206e6f742072657061696420627920626f726044820152653937bbb2b91760d11b60648201526084015b60405180910390fd5b61016054604051637e4dc6d560e01b8152600481018490526000916001600160a01b031690637e4dc6d59060240160206040518083038186803b15801561073c57600080fd5b505afa158015610750573d6000803e3d6000fd5b505050506040513d601f19601f820116820180604052508101906107749190612d47565b905080336001600160a01b038216146107db5760405162461bcd60e51b815260206004820152602360248201527f6f6e6c79204f70706f7274756e69747920506f6f6c2063616e2077697468647260448201526230bb9760e91b60648201526084016106ed565b6000600186151514156107ef575082610863565b816001600160a01b031663d661d3206040518163ffffffff1660e01b815260040160206040518083038186803b15801561082857600080fd5b505afa15801561083c573d6000803e3d6000fd5b505050506040513d601f19601f820116820180604052508101906108609190612e8a565b90505b6101685460408051633a98ef3960e01b815290516000926001600160a01b031691633a98ef39916004808301926020929190829003018186803b1580156108a957600080fd5b505afa1580156108bd573d6000803e3d6000fd5b505050506040513d601f19601f820116820180604052508101906108e19190612e8a565b90506000610901826108fb6108f4611fce565b8690611fdc565b90611fef565b61016b549091506109129082611ffb565b61016b55876109ab576000846001600160a01b03166383933a2b6040518163ffffffff1660e01b8152600401602060405180830381600087803b15801561095857600080fd5b505af115801561096c573d6000803e3d6000fd5b505050506040513d601f19601f820116820180604052508101906109909190612e8a565b90508061016a546109a191906131e3565b61016a55506109bf565b8561016a546109ba91906131e3565b61016a555b5050505050505050565b6109d1611921565b6109ed5760405162461bcd60e51b81526004016106ed90613198565b6101675460405163095ea7b360e01b81526001600160a01b039091169063095ea7b390610a2290849060001990600401612f98565b602060405180830381600087803b158015610a3c57600080fd5b505af1158015610a50573d6000803e3d6000fd5b505050506040513d601f19601f82011682018060405250810190610a749190612e22565b5050565b600082815260656020526040902060010154610a9381612007565b610a9d8383612011565b505050565b6001600160a01b0381163314610b125760405162461bcd60e51b815260206004820152602f60248201527f416363657373436f6e74726f6c3a2063616e206f6e6c792072656e6f756e636560448201526e103937b632b9903337b91039b2b63360891b60648201526084016106ed565b610a748282612097565b306001600160a01b037f0000000000000000000000000000000000000000000000000000000000000000161415610b655760405162461bcd60e51b81526004016106ed90613030565b7f00000000000000000000000000000000000000000000000000000000000000006001600160a01b0316610b976120fe565b6001600160a01b031614610bbd5760405162461bcd60e51b81526004016106ed9061307c565b610bc68161211a565b60408051600080825260208201909252610be29183919061213e565b50565b610bf6610bf06122b8565b336110ea565b610c125760405162461bcd60e51b81526004016106ed90612fe4565b610c1a6122dc565b565b306001600160a01b037f0000000000000000000000000000000000000000000000000000000000000000161415610c655760405162461bcd60e51b81526004016106ed90613030565b7f00000000000000000000000000000000000000000000000000000000000000006001600160a01b0316610c976120fe565b6001600160a01b031614610cbd5760405162461bcd60e51b81526004016106ed9061307c565b610cc68261211a565b610a748282600161213e565b600054610100900460ff1615808015610cf25750600054600160ff909116105b80610d0c5750303b158015610d0c575060005460ff166001145b610d285760405162461bcd60e51b81526004016106ed906130c8565b6000805460ff191660011790558015610d4b576000805461ff0019166101001790555b610d53612328565b8015610be2576000805461ff0019169055604051600181527f7f26b83ff96e1f2b6a682f133852f6798a09c465da95921460cefb38474024989060200160405180910390a150565b6000306001600160a01b037f00000000000000000000000000000000000000000000000000000000000000001614610e365760405162461bcd60e51b815260206004820152603860248201527f555550535570677261646561626c653a206d757374206e6f742062652063616c6044820152771b1959081d1a1c9bdd59da0819195b1959d85d1958d85b1b60421b60648201526084016106ed565b5060008051602061342583398151915290565b3360009081526101636020526040812054819060ff161515600114610e805760405162461bcd60e51b81526004016106ed90613116565b6000806000610e8d61235b565b61016954610e9b9190613306565b3360009081526101616020908152604080832080548251818502810185019093528083529495509293909291849084015b82821015610f1257838290600052602060002090600202016040518060400160405290816000820154815260200160018201548152505081526020019060010190610ecc565b50505050905060005b8151811015610feb574283838381518110610f4657634e487b7160e01b600052603260045260246000fd5b602002602001015160000151610f5c91906131e3565b11610f9f57818181518110610f8157634e487b7160e01b600052603260045260246000fd5b60200260200101516020015184610f9891906131e3565b9350610fd9565b818181518110610fbf57634e487b7160e01b600052603260045260246000fd5b60200260200101516020015185610fd691906131e3565b94505b80610fe3816133ba565b915050610f1b565b5033600090815261016260205260409020541561102057336000908152610162602052604090205461101d90846131e3565b92505b50909491935090915050565b610166805461103a9061337f565b80601f01602080910402602001604051908101604052809291908181526020018280546110669061337f565b80156110b35780601f10611088576101008083540402835291602001916110b3565b820191906000526020600020905b81548152906001019060200180831161109657829003601f168201915b505050505081565b6110c6610bf06122b8565b6110e25760405162461bcd60e51b81526004016106ed90612fe4565b610c1a61236b565b60009182526065602090815260408084206001600160a01b0393909316845291905290205460ff1690565b600054610100900460ff1661113c5760405162461bcd60e51b81526004016106ed9061314d565b6001600160a01b0381166111925760405162461bcd60e51b815260206004820181905260248201527f4f776e65722063616e6e6f7420626520746865207a65726f206164647265737360448201526064016106ed565b61119a6123a8565b6111a2612328565b6111aa6123cf565b6111bb6111b56123fd565b82612421565b6111c66111b56122b8565b6111de6111d16122b8565b6111d96123fd565b61242b565b610be26111d16123fd565b6000811180156112785750610167546040516370a0823160e01b815282916001600160a01b0316906370a0823190611225903390600401612f84565b60206040518083038186803b15801561123d57600080fd5b505afa158015611251573d6000803e3d6000fd5b505050506040513d601f19601f820116820180604052508101906112759190612e8a565b10155b6112c45760405162461bcd60e51b815260206004820152601c60248201527f596f752063616e6e6f74207374616b65207a65726f20746f6b656e730000000060448201526064016106ed565b33600081815261016160209081526040808320815180830183524281528084018781528254600181810185559387528587209251600290910290920191825551908201559383526101639091529020805460ff1916909117905561016a5461132d9082906131e3565b61016a55610167546040516323b872dd60e01b8152336004820152306024820152604481018390526001600160a01b03909116906323b872dd90606401602060405180830381600087803b15801561138457600080fd5b505af1158015611398573d6000803e3d6000fd5b505050506040513d601f19601f820116820180604052508101906113bc9190612e22565b50610168546040516340c10f1960e01b815233916001600160a01b0316906340c10f19906113f09084908690600401612f98565b600060405180830381600087803b15801561140a57600080fd5b505af115801561141e573d6000803e3d6000fd5b50506040518481523392507febedb8b3c678666e7f36970bc8f57abf6d8fa2e828c0da91ea5b75bf68ed101a915060200160405180910390a25050565b336000908152610163602052604090205460ff16151560011480156114805750600081115b6115005760405162461bcd60e51b815260206004820152604560248201527f5573657220686173206e6f7420696e76657374656420696e207468697320706f60448201527f6f6c206f7220616d6f756e742073686f756c6420626520677265617465722074606482015264068616e20360dc1b608482015260a4016106ed565b60008061150b61235b565b610169546115199190613306565b336000908152610161602052604081209192505b815481101561167457428383838154811061155857634e487b7160e01b600052603260045260246000fd5b90600052602060002090600202016000015461157491906131e3565b116116225781818154811061159957634e487b7160e01b600052603260045260246000fd5b9060005260206000209060020201600101546101626000336001600160a01b03166001600160a01b0316815260200190815260200160002060008282546115e091906131e3565b9250508190555081818154811061160757634e487b7160e01b600052603260045260246000fd5b60009182526020822060029091020181815560010155611662565b81818154811061164257634e487b7160e01b600052603260045260246000fd5b9060005260206000209060020201600101548461165f91906131e3565b93505b8061166c816133ba565b91505061152d565b5033600090815261016260205260409020546116908582612476565b9450848110156117085760405162461bcd60e51b815260206004820152603c60248201527f576974686472617720616d6f756e7420697320686967686572207468616e206160448201527f6d6f756e7420617661696c61626c6520666f722077697468647261770000000060648201526084016106ed565b336000908152610162602052604081208054879290611728908490613325565b9091555061173690506124a9565b15801561175157503360009081526101626020526040902054155b1561176f5733600090815261016360205260409020805460ff191690555b600061177a866125b4565b61016a5490915061178b90826125da565b61016a55611797611fce565b61016a5410156117ac57600061016b556117f9565b60006117c0876117ba6125e6565b906125da565b905060006117da8261016a546125da90919063ffffffff16565b90506117f2826108fb6117eb611fce565b8490611fdc565b61016b5550505b61016854604051632770a7eb60e21b81526001600160a01b0390911690639dc29fac9061182c9033908a90600401612f98565b600060405180830381600087803b15801561184657600080fd5b505af115801561185a573d6000803e3d6000fd5b50506101675460405163a9059cbb60e01b81526001600160a01b03909116925063a9059cbb91506118919033908590600401612f98565b602060405180830381600087803b1580156118ab57600080fd5b505af11580156118bf573d6000803e3d6000fd5b505050506040513d601f19601f820116820180604052508101906118e39190612e22565b5060405186815233907f85082129d87b2fe11527cb1b3b7a520aeb5aa6913f88a3d8757fe40d1db02fdd9060200160405180910390a2505050505050565b600061192e610bf06123fd565b905090565b61193b611921565b6119575760405162461bcd60e51b81526004016106ed90613198565b6101605460405163170da40760e21b8152600481018390526001600160a01b0390911690635c36901c9060240160206040518083038186803b15801561199c57600080fd5b505afa1580156119b0573d6000803e3d6000fd5b505050506040513d601f19601f820116820180604052508101906119d49190612e22565b1515600114611a335760405162461bcd60e51b815260206004820152602560248201527f4f70706f7274756e697479206973206e6f742061637469766520666f722066756044820152646e64696e6760d81b60648201526084016106ed565b61016054604051637e4dc6d560e01b8152600481018390526000916001600160a01b031690637e4dc6d59060240160206040518083038186803b158015611a7957600080fd5b505afa158015611a8d573d6000803e3d6000fd5b505050506040513d601f19601f82011682018060405250810190611ab19190612d47565b905060008190506000816001600160a01b0316639f964fe66040518163ffffffff1660e01b815260040160206040518083038186803b158015611af357600080fd5b505afa158015611b07573d6000803e3d6000fd5b505050506040513d601f19601f82011682018060405250810190611b2b9190612e8a565b905061016a54811115611b7c5760405162461bcd60e51b8152602060048201526019602482015278696e73756666696369656e7420506f6f6c2062616c616e636560381b60448201526064016106ed565b8061016a54611b8b9190613325565b61016a5560405163f4d4c9d760e01b815260016004820152602481018290526001600160a01b0383169063f4d4c9d790604401600060405180830381600087803b158015611bd857600080fd5b505af11580156109bf573d6000803e3d6000fd5b600054610100900460ff1615808015611c0c5750600054600160ff909116105b80611c265750303b158015611c26575060005460ff166001145b611c425760405162461bcd60e51b81526004016106ed906130c8565b6000805460ff191660011790558015611c65576000805461ff0019166101001790555b6001600160a01b038216611cb45760405162461bcd60e51b8152602060048201526016602482015275496e76616c696420636f6e666967206164647265737360501b60448201526064016106ed565b61015f80546001600160a01b0319166001600160a01b038416908117909155600090611cdf906126df565b90506001600160a01b038116611d275760405162461bcd60e51b815260206004820152600d60248201526c24b73b30b634b21027bbb732b960991b60448201526064016106ed565b61015f54611d3d906001600160a01b0316612760565b61016080546001600160a01b0319166001600160a01b0392909216919091179055611d6781611115565b61015f54611d7d906001600160a01b0316612778565b61016780546001600160a01b0319166001600160a01b0392831617905561015f54611da89116612790565b61016880546001600160a01b0319166001600160a01b0392831617905561015f54611dd391166127a8565b6101695550600061016b558015610a74576000805461ff0019169055604051600181527f7f26b83ff96e1f2b6a682f133852f6798a09c465da95921460cefb38474024989060200160405180910390a15050565b611e2f611921565b611e4b5760405162461bcd60e51b81526004016106ed90613198565b610167546040516370a0823160e01b815283916001600160a01b0316906370a0823190611e7c903090600401612f84565b60206040518083038186803b158015611e9457600080fd5b505afa158015611ea8573d6000803e3d6000fd5b505050506040513d601f19601f82011682018060405250810190611ecc9190612e8a565b1015611f115760405162461bcd60e51b8152602060048201526014602482015273496e73756666696369656e742042616c616e636560601b60448201526064016106ed565b8161016a54611f209190613325565b61016a556101675460405163a9059cbb60e01b81526001600160a01b039091169063a9059cbb90611f579084908690600401612f98565b602060405180830381600087803b158015611f7157600080fd5b505af1158015611f85573d6000803e3d6000fd5b505050506040513d601f19601f82011682018060405250810190610a9d9190612e22565b600082815260656020526040902060010154611fc481612007565b610a9d8383612097565b600061192e6006600a61325e565b6000611fe88284613306565b9392505050565b6000611fe882846131fb565b6000611fe882846131e3565b610be28133612822565b61201b82826110ea565b610a745760008281526065602090815260408083206001600160a01b03851684529091529020805460ff191660011790556120533390565b6001600160a01b0316816001600160a01b0316837f2f8788117e7eff1d82e926ec794901d17c78024a50270940304540a733656f0d60405160405180910390a45050565b6120a182826110ea565b15610a745760008281526065602090815260408083206001600160a01b0385168085529252808320805460ff1916905551339285917ff6391f5c32d9c69d2a47ea670b442974b53935d1edc7fd64eb21e047a839171b9190a45050565b600080516020613425833981519152546001600160a01b031690565b612122611921565b610be25760405162461bcd60e51b81526004016106ed90613198565b7f4910fdfa16fed3260ed0e7147f7cc6da11a60208b5b9406d12a635614ffd91435460ff161561217157610a9d83612886565b826001600160a01b03166352d1902d6040518163ffffffff1660e01b815260040160206040518083038186803b1580156121aa57600080fd5b505afa9250505080156121da575060408051601f3d908101601f191682019092526121d791810190612e8a565b60015b61223d5760405162461bcd60e51b815260206004820152602e60248201527f45524331393637557067726164653a206e657720696d706c656d656e7461746960448201526d6f6e206973206e6f74205555505360901b60648201526084016106ed565b60008051602061342583398151915281146122ac5760405162461bcd60e51b815260206004820152602960248201527f45524331393637557067726164653a20756e737570706f727465642070726f786044820152681a58589b195555525160ba1b60648201526084016106ed565b50610a9d838383612922565b7f65d7a28e3265b37a6474929f336521b332c1681b933f6cb9f3376673440d862a90565b6122e461294d565b6097805460ff191690557f5db9ee0a495bf2e6ff9c91a7834c1ba4fdd244a5e8aa4e537bd38aeae4b073aa335b60405161231e9190612f84565b60405180910390a1565b600054610100900460ff1661234f5760405162461bcd60e51b81526004016106ed9061314d565b6097805460ff19169055565b600061192e62015180601e613306565b612373612996565b6097805460ff191660011790557f62e78cea01bee320cd4e420270b5ea74000d11b0c9f74754ebdbfc544b05a2586123113390565b600054610100900460ff16610c1a5760405162461bcd60e51b81526004016106ed9061314d565b600054610100900460ff166123f65760405162461bcd60e51b81526004016106ed9061314d565b600160c955565b7fa49807205ce4d355092ef5a8a18f56e8913cf4a201fbe287825b095693c2177590565b610a748282612011565b600082815260656020526040808220600101805490849055905190918391839186917fbd79b86ffe0ab8e8776151514217cd7cacd52c909f66475c3af44e129f0b00ff9190a4505050565b60008183118015612496575061248a611fce565b61249484846125da565b105b156124a2575080610601565b5090919050565b336000908152610163602052604081205460ff1615156001146124de5760405162461bcd60e51b81526004016106ed90613116565b3360009081526101616020908152604080832080548251818502810185019093528083528493849084015b8282101561254f57838290600052602060002090600202016040518060400160405290816000820154815260200160018201548152505081526020019060010190612509565b50505050905060005b81518110156125ac5781818151811061258157634e487b7160e01b600052603260045260246000fd5b6020026020010151602001518361259891906131e3565b9250806125a4816133ba565b915050612558565b509092915050565b60006106016125d36125c4611fce565b61016b546108fb908690611fdc565b8390611ffb565b6000611fe88284613325565b610168546000906001600160a01b03166126585760405162461bcd60e51b815260206004820152602d60248201527f53656e696f7220506f6f6c20436f6e7472616374206e6f7420696e697469616c60448201526c697a65642070726f7065726c7960981b60648201526084016106ed565b61016860009054906101000a90046001600160a01b03166001600160a01b0316633a98ef396040518163ffffffff1660e01b815260040160206040518083038186803b1580156126a757600080fd5b505afa1580156126bb573d6000803e3d6000fd5b505050506040513d601f19601f8201168201806040525081019061192e9190612e8a565b60006001600160a01b03821663b93f9b0a825b6040518263ffffffff1660e01b815260040161271091815260200190565b60206040518083038186803b15801561272857600080fd5b505afa15801561273c573d6000803e3d6000fd5b505050506040513d601f19601f820116820180604052508101906106019190612d47565b60006001600160a01b03821663b93f9b0a60066126f2565b60006001600160a01b03821663b93f9b0a60026126f2565b60006001600160a01b03821663b93f9b0a60016126f2565b604051631f8ac6cb60e31b81526004818101526000906001600160a01b0383169063fc5636589060240160206040518083038186803b1580156127ea57600080fd5b505afa1580156127fe573d6000803e3d6000fd5b505050506040513d601f19601f820116820180604052508101906106019190612e8a565b61282c82826110ea565b610a7457612844816001600160a01b031660146129dc565b61284f8360206129dc565b604051602001612860929190612f15565b60408051601f198184030181529082905262461bcd60e51b82526106ed91600401612fb1565b6001600160a01b0381163b6128f35760405162461bcd60e51b815260206004820152602d60248201527f455243313936373a206e657720696d706c656d656e746174696f6e206973206e60448201526c1bdd08184818dbdb9d1c9858dd609a1b60648201526084016106ed565b60008051602061342583398151915280546001600160a01b0319166001600160a01b0392909216919091179055565b61292b83612bbe565b6000825111806129385750805b15610a9d576129478383612bfe565b50505050565b60975460ff16610c1a5760405162461bcd60e51b815260206004820152601460248201527314185d5cd8589b194e881b9bdd081c185d5cd95960621b60448201526064016106ed565b60975460ff1615610c1a5760405162461bcd60e51b815260206004820152601060248201526f14185d5cd8589b194e881c185d5cd95960821b60448201526064016106ed565b606060006129eb836002613306565b6129f69060026131e3565b67ffffffffffffffff811115612a1c57634e487b7160e01b600052604160045260246000fd5b6040519080825280601f01601f191660200182016040528015612a46576020820181803683370190505b509050600360fc1b81600081518110612a6f57634e487b7160e01b600052603260045260246000fd5b60200101906001600160f81b031916908160001a905350600f60fb1b81600181518110612aac57634e487b7160e01b600052603260045260246000fd5b60200101906001600160f81b031916908160001a9053506000612ad0846002613306565b612adb9060016131e3565b90505b6001811115612b6f576f181899199a1a9b1b9c1cb0b131b232b360811b85600f1660108110612b1d57634e487b7160e01b600052603260045260246000fd5b1a60f81b828281518110612b4157634e487b7160e01b600052603260045260246000fd5b60200101906001600160f81b031916908160001a90535060049490941c93612b6881613368565b9050612ade565b508315611fe85760405162461bcd60e51b815260206004820181905260248201527f537472696e67733a20686578206c656e67746820696e73756666696369656e7460448201526064016106ed565b612bc781612886565b6040516001600160a01b038216907fbc7cd75a20ee27fd9adebab32041f755214dbc6bffa90cc0225b39da2e5c2d3b90600090a250565b60606001600160a01b0383163b612c665760405162461bcd60e51b815260206004820152602660248201527f416464726573733a2064656c65676174652063616c6c20746f206e6f6e2d636f6044820152651b9d1c9858dd60d21b60648201526084016106ed565b600080846001600160a01b031684604051612c819190612ef9565b600060405180830381855af49150503d8060008114612cbc576040519150601f19603f3d011682016040523d82523d6000602084013e612cc1565b606091505b5091509150612ce9828260405180606001604052806027815260200161344560279139612cf2565b95945050505050565b60608315612d01575081611fe8565b825115612d115782518084602001fd5b8160405162461bcd60e51b81526004016106ed9190612fb1565b600060208284031215612d3c578081fd5b8135611fe881613401565b600060208284031215612d58578081fd5b8151611fe881613401565b60008060408385031215612d75578081fd5b8235612d8081613401565b9150602083013567ffffffffffffffff80821115612d9c578283fd5b818501915085601f830112612daf578283fd5b813581811115612dc157612dc16133eb565b604051601f8201601f19908116603f01168101908382118183101715612de957612de96133eb565b81604052828152886020848701011115612e01578586fd5b82602086016020830137856020848301015280955050505050509250929050565b600060208284031215612e33578081fd5b8151611fe881613416565b600080600060608486031215612e52578081fd5b8335612e5d81613416565b95602085013595506040909401359392505050565b600060208284031215612e83578081fd5b5035919050565b600060208284031215612e9b578081fd5b5051919050565b60008060408385031215612eb4578182fd5b823591506020830135612ec681613401565b809150509250929050565b600060208284031215612ee2578081fd5b81356001600160e01b031981168114611fe8578182fd5b60008251612f0b81846020870161333c565b9190910192915050565b76020b1b1b2b9b9a1b7b73a3937b61d1030b1b1b7bab73a1604d1b815260008351612f4781601785016020880161333c565b7001034b99036b4b9b9b4b733903937b6329607d1b6017918401918201528351612f7881602884016020880161333c565b01602801949350505050565b6001600160a01b0391909116815260200190565b6001600160a01b03929092168252602082015260400190565b6020815260008251806020840152612fd081604085016020870161333c565b601f01601f19169190910160400192915050565b6020808252602c908201527f4d75737420686176652070617573657220726f6c6520746f20706572666f726d60408201526b103a3434b99030b1ba34b7b760a11b606082015260800190565b6020808252602c908201527f46756e6374696f6e206d7573742062652063616c6c6564207468726f7567682060408201526b19195b1959d85d1958d85b1b60a21b606082015260800190565b6020808252602c908201527f46756e6374696f6e206d7573742062652063616c6c6564207468726f7567682060408201526b6163746976652070726f787960a01b606082015260800190565b6020808252602e908201527f496e697469616c697a61626c653a20636f6e747261637420697320616c72656160408201526d191e481a5b9a5d1a585b1a5e995960921b606082015260800190565b6020808252601e908201527f5573657220686173206e6f74207374616b656420616e7920616d6f756e740000604082015260600190565b6020808252602b908201527f496e697469616c697a61626c653a20636f6e7472616374206973206e6f74206960408201526a6e697469616c697a696e6760a81b606082015260800190565b6020808252602b908201527f4d75737420686176652061646d696e20726f6c6520746f20706572666f726d2060408201526a3a3434b99030b1ba34b7b760a91b606082015260800190565b600082198211156131f6576131f66133d5565b500190565b60008261321657634e487b7160e01b81526012600452602481fd5b500490565b600181815b8085111561325657816000190482111561323c5761323c6133d5565b8085161561324957918102915b93841c9390800290613220565b509250929050565b6000611fe8838360008261327457506001610601565b8161328157506000610601565b816001811461329757600281146132a1576132bd565b6001915050610601565b60ff8411156132b2576132b26133d5565b50506001821b610601565b5060208310610133831016604e8410600b84101617156132e0575081810a610601565b6132ea838361321b565b80600019048211156132fe576132fe6133d5565b029392505050565b6000816000190483118215151615613320576133206133d5565b500290565b600082821015613337576133376133d5565b500390565b60005b8381101561335757818101518382015260200161333f565b838111156129475750506000910152565b600081613377576133776133d5565b506000190190565b600181811c9082168061339357607f821691505b602082108114156133b457634e487b7160e01b600052602260045260246000fd5b50919050565b60006000198214156133ce576133ce6133d5565b5060010190565b634e487b7160e01b600052601160045260246000fd5b634e487b7160e01b600052604160045260246000fd5b6001600160a01b0381168114610be257600080fd5b8015158114610be257600080fdfe360894a13ba1a3210667c828492db98dca3e2076cc3735a920a3ca505d382bbc416464726573733a206c6f772d6c6576656c2064656c65676174652063616c6c206661696c6564a2646970667358221220d70384bcf86d1b64ca76fb1f6ade8297363992c58d772030e355faa929546f7a64736f6c63430008040033",
  "linkReferences": {},
  "deployedLinkReferences": {}
}