{
  "_format": "hh-sol-artifact-1",
  "contractName": "SeniorPool",
  "sourceName": "contracts/protocol/SeniorPool.sol",
  "abi": [
    {
      "anonymous": false,
      "inputs": [
        {
          "indexed": false,
          "internalType": "address",
          "name": "previousAdmin",
          "type": "address"
        },
        {
          "indexed": false,
          "internalType": "address",
          "name": "newAdmin",
          "type": "address"
        }
      ],
      "name": "AdminChanged",
      "type": "event"
    },
    {
      "anonymous": false,
      "inputs": [
        {
          "indexed": true,
          "internalType": "address",
          "name": "beacon",
          "type": "address"
        }
      ],
      "name": "BeaconUpgraded",
      "type": "event"
    },
    {
      "anonymous": false,
      "inputs": [
        {
          "indexed": false,
          "internalType": "uint8",
          "name": "version",
          "type": "uint8"
        }
      ],
      "name": "Initialized",
      "type": "event"
    },
    {
      "anonymous": false,
      "inputs": [
        {
          "indexed": false,
          "internalType": "address",
          "name": "account",
          "type": "address"
        }
      ],
      "name": "Paused",
      "type": "event"
    },
    {
      "anonymous": false,
      "inputs": [
        {
          "indexed": true,
          "internalType": "bytes32",
          "name": "role",
          "type": "bytes32"
        },
        {
          "indexed": true,
          "internalType": "bytes32",
          "name": "previousAdminRole",
          "type": "bytes32"
        },
        {
          "indexed": true,
          "internalType": "bytes32",
          "name": "newAdminRole",
          "type": "bytes32"
        }
      ],
      "name": "RoleAdminChanged",
      "type": "event"
    },
    {
      "anonymous": false,
      "inputs": [
        {
          "indexed": true,
          "internalType": "bytes32",
          "name": "role",
          "type": "bytes32"
        },
        {
          "indexed": true,
          "internalType": "address",
          "name": "account",
          "type": "address"
        },
        {
          "indexed": true,
          "internalType": "address",
          "name": "sender",
          "type": "address"
        }
      ],
      "name": "RoleGranted",
      "type": "event"
    },
    {
      "anonymous": false,
      "inputs": [
        {
          "indexed": true,
          "internalType": "bytes32",
          "name": "role",
          "type": "bytes32"
        },
        {
          "indexed": true,
          "internalType": "address",
          "name": "account",
          "type": "address"
        },
        {
          "indexed": true,
          "internalType": "address",
          "name": "sender",
          "type": "address"
        }
      ],
      "name": "RoleRevoked",
      "type": "event"
    },
    {
      "anonymous": false,
      "inputs": [
        {
          "indexed": true,
          "internalType": "address",
          "name": "from",
          "type": "address"
        },
        {
          "indexed": false,
          "internalType": "uint256",
          "name": "amount",
          "type": "uint256"
        }
      ],
      "name": "Stake",
      "type": "event"
    },
    {
      "anonymous": false,
      "inputs": [
        {
          "indexed": false,
          "internalType": "address",
          "name": "account",
          "type": "address"
        }
      ],
      "name": "Unpaused",
      "type": "event"
    },
    {
      "anonymous": false,
      "inputs": [
        {
          "indexed": true,
          "internalType": "address",
          "name": "from",
          "type": "address"
        },
        {
          "indexed": false,
          "internalType": "uint256",
          "name": "amount",
          "type": "uint256"
        }
      ],
      "name": "Unstake",
      "type": "event"
    },
    {
      "anonymous": false,
      "inputs": [
        {
          "indexed": true,
          "internalType": "address",
          "name": "implementation",
          "type": "address"
        }
      ],
      "name": "Upgraded",
      "type": "event"
    },
    {
      "anonymous": false,
      "inputs": [
        {
          "indexed": true,
          "internalType": "address",
          "name": "to",
          "type": "address"
        },
        {
          "indexed": false,
          "internalType": "uint256",
          "name": "amount",
          "type": "uint256"
        }
      ],
      "name": "YieldWithdraw",
      "type": "event"
    },
    {
      "inputs": [],
      "name": "ADMIN_ROLE",
      "outputs": [
        {
          "internalType": "bytes32",
          "name": "",
          "type": "bytes32"
        }
      ],
      "stateMutability": "view",
      "type": "function"
    },
    {
      "inputs": [],
      "name": "DEFAULT_ADMIN_ROLE",
      "outputs": [
        {
          "internalType": "bytes32",
          "name": "",
          "type": "bytes32"
        }
      ],
      "stateMutability": "view",
      "type": "function"
    },
    {
      "inputs": [],
      "name": "PAUSER_ROLE",
      "outputs": [
        {
          "internalType": "bytes32",
          "name": "",
          "type": "bytes32"
        }
      ],
      "stateMutability": "view",
      "type": "function"
    },
    {
      "inputs": [
        {
          "internalType": "address",
          "name": "owner",
          "type": "address"
        }
      ],
      "name": "_BaseUpgradeablePausable_init",
      "outputs": [],
      "stateMutability": "nonpayable",
      "type": "function"
    },
    {
      "inputs": [],
      "name": "__PauserPausable__init",
      "outputs": [],
      "stateMutability": "nonpayable",
      "type": "function"
    },
    {
      "inputs": [
        {
          "internalType": "address",
          "name": "user",
          "type": "address"
        }
      ],
      "name": "approveUSDC",
      "outputs": [],
      "stateMutability": "nonpayable",
      "type": "function"
    },
    {
      "inputs": [],
      "name": "contractName",
      "outputs": [
        {
          "internalType": "string",
          "name": "",
          "type": "string"
        }
      ],
      "stateMutability": "view",
      "type": "function"
    },
    {
      "inputs": [],
      "name": "getDefaultLockinMonths",
      "outputs": [
        {
          "internalType": "uint256",
          "name": "",
          "type": "uint256"
        }
      ],
      "stateMutability": "view",
      "type": "function"
    },
    {
      "inputs": [
        {
          "internalType": "bytes32",
          "name": "role",
          "type": "bytes32"
        }
      ],
      "name": "getRoleAdmin",
      "outputs": [
        {
          "internalType": "bytes32",
          "name": "",
          "type": "bytes32"
        }
      ],
      "stateMutability": "view",
      "type": "function"
    },
    {
      "inputs": [],
      "name": "getUserInvestment",
      "outputs": [
        {
          "internalType": "uint256",
          "name": "withdrawableAmt",
          "type": "uint256"
        },
        {
          "internalType": "uint256",
          "name": "stakingAmt",
          "type": "uint256"
        }
      ],
      "stateMutability": "view",
      "type": "function"
    },
    {
      "inputs": [
        {
          "internalType": "bytes32",
          "name": "role",
          "type": "bytes32"
        },
        {
          "internalType": "address",
          "name": "account",
          "type": "address"
        }
      ],
      "name": "grantRole",
      "outputs": [],
      "stateMutability": "nonpayable",
      "type": "function"
    },
    {
      "inputs": [
        {
          "internalType": "bytes32",
          "name": "role",
          "type": "bytes32"
        },
        {
          "internalType": "address",
          "name": "account",
          "type": "address"
        }
      ],
      "name": "hasRole",
      "outputs": [
        {
          "internalType": "bool",
          "name": "",
          "type": "bool"
        }
      ],
      "stateMutability": "view",
      "type": "function"
    },
    {
      "inputs": [
        {
          "internalType": "contract DygnifyConfig",
          "name": "_dygnifyConfig",
          "type": "address"
        }
      ],
      "name": "initialize",
      "outputs": [],
      "stateMutability": "nonpayable",
      "type": "function"
    },
    {
      "inputs": [
        {
          "internalType": "bytes32",
          "name": "opportunityId",
          "type": "bytes32"
        }
      ],
      "name": "invest",
      "outputs": [],
      "stateMutability": "nonpayable",
      "type": "function"
    },
    {
      "inputs": [],
      "name": "investmentLockinInMonths",
      "outputs": [
        {
          "internalType": "uint256",
          "name": "",
          "type": "uint256"
        }
      ],
      "stateMutability": "view",
      "type": "function"
    },
    {
      "inputs": [],
      "name": "isAdmin",
      "outputs": [
        {
          "internalType": "bool",
          "name": "",
          "type": "bool"
        }
      ],
      "stateMutability": "view",
      "type": "function"
    },
    {
      "inputs": [
        {
          "internalType": "address",
          "name": "",
          "type": "address"
        }
      ],
      "name": "isStaking",
      "outputs": [
        {
          "internalType": "bool",
          "name": "",
          "type": "bool"
        }
      ],
      "stateMutability": "view",
      "type": "function"
    },
    {
      "inputs": [
        {
          "internalType": "address",
          "name": "",
          "type": "address"
        }
      ],
      "name": "kycOf",
      "outputs": [
        {
          "internalType": "bool",
          "name": "isDoucument",
          "type": "bool"
        },
        {
          "internalType": "bool",
          "name": "isLiveliness",
          "type": "bool"
        },
        {
          "internalType": "bool",
          "name": "isAddress",
          "type": "bool"
        },
        {
          "internalType": "bool",
          "name": "isAML",
          "type": "bool"
        },
        {
          "internalType": "bool",
          "name": "imageHash",
          "type": "bool"
        },
        {
          "internalType": "bool",
          "name": "result",
          "type": "bool"
        }
      ],
      "stateMutability": "view",
      "type": "function"
    },
    {
      "inputs": [],
      "name": "oneMonth",
      "outputs": [
        {
          "internalType": "uint256",
          "name": "",
          "type": "uint256"
        }
      ],
      "stateMutability": "view",
      "type": "function"
    },
    {
      "inputs": [],
      "name": "oneday",
      "outputs": [
        {
          "internalType": "uint256",
          "name": "",
          "type": "uint256"
        }
      ],
      "stateMutability": "view",
      "type": "function"
    },
    {
      "inputs": [],
      "name": "pause",
      "outputs": [],
      "stateMutability": "nonpayable",
      "type": "function"
    },
    {
      "inputs": [],
      "name": "paused",
      "outputs": [
        {
          "internalType": "bool",
          "name": "",
          "type": "bool"
        }
      ],
      "stateMutability": "view",
      "type": "function"
    },
    {
      "inputs": [],
      "name": "proxiableUUID",
      "outputs": [
        {
          "internalType": "bytes32",
          "name": "",
          "type": "bytes32"
        }
      ],
      "stateMutability": "view",
      "type": "function"
    },
    {
      "inputs": [
        {
          "internalType": "bytes32",
          "name": "role",
          "type": "bytes32"
        },
        {
          "internalType": "address",
          "name": "account",
          "type": "address"
        }
      ],
      "name": "renounceRole",
      "outputs": [],
      "stateMutability": "nonpayable",
      "type": "function"
    },
    {
      "inputs": [
        {
          "internalType": "bytes32",
          "name": "role",
          "type": "bytes32"
        },
        {
          "internalType": "address",
          "name": "account",
          "type": "address"
        }
      ],
      "name": "revokeRole",
      "outputs": [],
      "stateMutability": "nonpayable",
      "type": "function"
    },
    {
      "inputs": [],
      "name": "seniorPoolBal",
      "outputs": [
        {
          "internalType": "uint256",
          "name": "",
          "type": "uint256"
        }
      ],
      "stateMutability": "view",
      "type": "function"
    },
    {
      "inputs": [],
      "name": "sharePrice",
      "outputs": [
        {
          "internalType": "uint256",
          "name": "",
          "type": "uint256"
        }
      ],
      "stateMutability": "view",
      "type": "function"
    },
    {
      "inputs": [
        {
          "internalType": "uint256",
          "name": "amount",
          "type": "uint256"
        }
      ],
      "name": "stake",
      "outputs": [],
      "stateMutability": "nonpayable",
      "type": "function"
    },
    {
      "inputs": [
        {
          "internalType": "bytes4",
          "name": "interfaceId",
          "type": "bytes4"
        }
      ],
      "name": "supportsInterface",
      "outputs": [
        {
          "internalType": "bool",
          "name": "",
          "type": "bool"
        }
      ],
      "stateMutability": "view",
      "type": "function"
    },
    {
      "inputs": [],
      "name": "unpause",
      "outputs": [],
      "stateMutability": "nonpayable",
      "type": "function"
    },
    {
      "inputs": [
        {
          "internalType": "address",
          "name": "newImplementation",
          "type": "address"
        }
      ],
      "name": "upgradeTo",
      "outputs": [],
      "stateMutability": "nonpayable",
      "type": "function"
    },
    {
      "inputs": [
        {
          "internalType": "address",
          "name": "newImplementation",
          "type": "address"
        },
        {
          "internalType": "bytes",
          "name": "data",
          "type": "bytes"
        }
      ],
      "name": "upgradeToAndCall",
      "outputs": [],
      "stateMutability": "payable",
      "type": "function"
    },
    {
      "inputs": [
        {
          "internalType": "bytes32",
          "name": "opportunityId",
          "type": "bytes32"
        }
      ],
      "name": "withDrawFromOpportunity",
      "outputs": [],
      "stateMutability": "nonpayable",
      "type": "function"
    },
    {
      "inputs": [
        {
          "internalType": "uint256",
          "name": "amount",
          "type": "uint256"
        },
        {
          "internalType": "address",
          "name": "_receiver",
          "type": "address"
        }
      ],
      "name": "withdrawTo",
      "outputs": [],
      "stateMutability": "nonpayable",
      "type": "function"
    },
    {
      "inputs": [
        {
          "internalType": "uint256",
          "name": "amount",
          "type": "uint256"
        }
      ],
      "name": "withdrawWithLP",
      "outputs": [],
      "stateMutability": "nonpayable",
      "type": "function"
    }
  ],
  "bytecode": "0x3060601b60805260e0604052600b60a08190526a14d95b9a5bdc88141bdbdb60aa1b60c0908152620000369161016591906200004b565b503480156200004457600080fd5b506200012e565b8280546200005990620000f1565b90600052602060002090601f0160209004810192826200007d5760008555620000c8565b82601f106200009857805160ff1916838001178555620000c8565b82800160010185558215620000c8579182015b82811115620000c8578251825591602001919060010190620000ab565b50620000d6929150620000da565b5090565b5b80821115620000d65760008155600101620000db565b600181811c908216806200010657607f821691505b602082108114156200012857634e487b7160e01b600052602260045260246000fd5b50919050565b60805160601c613a6262000169600039600081816109e701528181610a6c01528181610bf701528181610c7c0152610e780152613a626000f3fe6080604052600436106102345760003560e01c806375d0c0dc11610138578063a972f0a0116100b0578063c86283c81161007f578063d547741f11610064578063d547741f146106ea578063e63ab1e91461070a578063f92496b61461073e57600080fd5b8063c86283c8146106b5578063c8b18b5b146106d557600080fd5b8063a972f0a014610611578063b6db75a014610631578063c257600414610675578063c4d66de81461069557600080fd5b80638726972911610107578063a12dde4d116100ec578063a12dde4d146105bc578063a217fddf146105dc578063a694fc3a146105f157600080fd5b8063872697291461055f57806391d148541461057657600080fd5b806375d0c0dc146104f157806376797d3a1461051357806383f012a91461052a5780638456cb591461054a57600080fd5b806341434351116101cb57806352d1902d1161019a57806361c030ab1161017f57806361c030ab146104625780636f49712b1461048c57806375b238fc146104bd57600080fd5b806352d1902d146104355780635c975abb1461044a57600080fd5b806341434351146103e057806345e88089146103f75780634f1ef2861461040d578063526d81f61461042057600080fd5b806336568abe1161020757806336568abe146102ee5780633659cfe61461030e5780633968e6221461032e5780633f4ba83a146103cb57600080fd5b806301ffc9a71461023957806323fe5e5a1461026e578063248a9ca3146102905780632f2ff15d146102ce575b600080fd5b34801561024557600080fd5b506102596102543660046136c2565b610755565b60405190151581526020015b60405180910390f35b34801561027a57600080fd5b5061028e61028936600461354c565b6107ee565b005b34801561029c57600080fd5b506102c06102ab366004613663565b60009081526065602052604090206001015490565b604051908152602001610265565b3480156102da57600080fd5b5061028e6102e9366004613693565b61092a565b3480156102fa57600080fd5b5061028e610309366004613693565b610954565b34801561031a57600080fd5b5061028e61032936600461354c565b6109dc565b34801561033a57600080fd5b5061039261034936600461354c565b61016b6020526000908152604090205460ff8082169161010081048216916201000082048116916301000000810482169164010000000082048116916501000000000090041686565b604080519615158752941515602087015292151593850193909352151560608401529015156080830152151560a082015260c001610265565b3480156103d757600080fd5b5061028e610b4f565b3480156103ec57600080fd5b506102c06201518081565b34801561040357600080fd5b50610168546102c0565b61028e61041b366004613584565b610bec565b34801561042c57600080fd5b5061028e610d4c565b34801561044157600080fd5b506102c0610e6b565b34801561045657600080fd5b5060975460ff16610259565b34801561046e57600080fd5b50610477610f30565b60408051928352602083019190915201610265565b34801561049857600080fd5b506102596104a736600461354c565b6101636020526000908152604090205460ff1681565b3480156104c957600080fd5b506102c07fa49807205ce4d355092ef5a8a18f56e8913cf4a201fbe287825b095693c2177581565b3480156104fd57600080fd5b50610506611148565b604051610265919061379f565b34801561051f57600080fd5b506102c06101695481565b34801561053657600080fd5b5061028e610545366004613663565b6111d7565b34801561055657600080fd5b5061028e6115e2565b34801561056b57600080fd5b506102c061016a5481565b34801561058257600080fd5b50610259610591366004613693565b60009182526065602090815260408084206001600160a01b0393909316845291905290205460ff1690565b3480156105c857600080fd5b5061028e6105d736600461354c565b61167d565b3480156105e857600080fd5b506102c0600081565b3480156105fd57600080fd5b5061028e61060c366004613663565b61181e565b34801561061d57600080fd5b5061028e61062c366004613663565b611abe565b34801561063d57600080fd5b503360009081527f2c01dc0041dfb6d4238a91e5a638996136aed16f837d5beb45610732cf9bf4b0602052604090205460ff16610259565b34801561068157600080fd5b5061028e610690366004613663565b611f34565b3480156106a157600080fd5b5061028e6106b036600461354c565b6122b3565b3480156106c157600080fd5b5061028e6106d0366004613693565b61255b565b3480156106e157600080fd5b506102c0612751565b3480156106f657600080fd5b5061028e610705366004613693565b612762565b34801561071657600080fd5b506102c07f65d7a28e3265b37a6474929f336521b332c1681b933f6cb9f3376673440d862a81565b34801561074a57600080fd5b506102c06101685481565b60007fffffffff0000000000000000000000000000000000000000000000000000000082167f7965db0b0000000000000000000000000000000000000000000000000000000014806107e857507f01ffc9a7000000000000000000000000000000000000000000000000000000007fffffffff000000000000000000000000000000000000000000000000000000008316145b92915050565b3360009081527f2c01dc0041dfb6d4238a91e5a638996136aed16f837d5beb45610732cf9bf4b0602052604090205460ff166108855760405162461bcd60e51b815260206004820152602b60248201527f4d75737420686176652061646d696e20726f6c6520746f20706572666f726d2060448201526a3a3434b99030b1ba34b7b760a91b60648201526084015b60405180910390fd5b610166546040517f095ea7b30000000000000000000000000000000000000000000000000000000081526001600160a01b03838116600483015260001960248301529091169063095ea7b390604401602060405180830381600087803b1580156108ee57600080fd5b505af1158015610902573d6000803e3d6000fd5b505050506040513d601f19601f820116820180604052508101906109269190613643565b5050565b60008281526065602052604090206001015461094581612787565b61094f8383612791565b505050565b6001600160a01b03811633146109d25760405162461bcd60e51b815260206004820152602f60248201527f416363657373436f6e74726f6c3a2063616e206f6e6c792072656e6f756e636560448201527f20726f6c657320666f722073656c660000000000000000000000000000000000606482015260840161087c565b6109268282612833565b306001600160a01b037f0000000000000000000000000000000000000000000000000000000000000000161415610a6a5760405162461bcd60e51b815260206004820152602c60248201527f46756e6374696f6e206d7573742062652063616c6c6564207468726f7567682060448201526b19195b1959d85d1958d85b1b60a21b606482015260840161087c565b7f00000000000000000000000000000000000000000000000000000000000000006001600160a01b0316610ac57f360894a13ba1a3210667c828492db98dca3e2076cc3735a920a3ca505d382bbc546001600160a01b031690565b6001600160a01b031614610b305760405162461bcd60e51b815260206004820152602c60248201527f46756e6374696f6e206d7573742062652063616c6c6564207468726f7567682060448201526b6163746976652070726f787960a01b606482015260840161087c565b60408051600080825260208201909252610b4c918391906128b6565b50565b3360009081527fbfe93621c6aa2dbf737e9056c9b79e4d30ee4f6b28b18be2cb71aac8a7bf258e602052604090205460ff16610be25760405162461bcd60e51b815260206004820152602c60248201527f4d75737420686176652070617573657220726f6c6520746f20706572666f726d60448201526b103a3434b99030b1ba34b7b760a11b606482015260840161087c565b610bea612a65565b565b306001600160a01b037f0000000000000000000000000000000000000000000000000000000000000000161415610c7a5760405162461bcd60e51b815260206004820152602c60248201527f46756e6374696f6e206d7573742062652063616c6c6564207468726f7567682060448201526b19195b1959d85d1958d85b1b60a21b606482015260840161087c565b7f00000000000000000000000000000000000000000000000000000000000000006001600160a01b0316610cd57f360894a13ba1a3210667c828492db98dca3e2076cc3735a920a3ca505d382bbc546001600160a01b031690565b6001600160a01b031614610d405760405162461bcd60e51b815260206004820152602c60248201527f46756e6374696f6e206d7573742062652063616c6c6564207468726f7567682060448201526b6163746976652070726f787960a01b606482015260840161087c565b610926828260016128b6565b600054610100900460ff1615808015610d6c5750600054600160ff909116105b80610d865750303b158015610d86575060005460ff166001145b610df85760405162461bcd60e51b815260206004820152602e60248201527f496e697469616c697a61626c653a20636f6e747261637420697320616c72656160448201527f647920696e697469616c697a6564000000000000000000000000000000000000606482015260840161087c565b6000805460ff191660011790558015610e1b576000805461ff0019166101001790555b610e23612ab7565b8015610b4c576000805461ff0019169055604051600181527f7f26b83ff96e1f2b6a682f133852f6798a09c465da95921460cefb38474024989060200160405180910390a150565b6000306001600160a01b037f00000000000000000000000000000000000000000000000000000000000000001614610f0b5760405162461bcd60e51b815260206004820152603860248201527f555550535570677261646561626c653a206d757374206e6f742062652063616c60448201527f6c6564207468726f7567682064656c656761746563616c6c0000000000000000606482015260840161087c565b507f360894a13ba1a3210667c828492db98dca3e2076cc3735a920a3ca505d382bbc90565b3360009081526101636020526040812054819060ff161515600114610f975760405162461bcd60e51b815260206004820152601e60248201527f5573657220686173206e6f74207374616b656420616e7920616d6f756e740000604482015260640161087c565b60008080610fa962015180601e6138f5565b61016854610fb791906138f5565b3360009081526101616020908152604080832080548251818502810185019093528083529495509293909291849084015b8282101561102e57838290600052602060002090600202016040518060400160405290816000820154815260200160018201548152505081526020019060010190610fe8565b50505050905060005b815181101561110757428383838151811061106257634e487b7160e01b600052603260045260246000fd5b60200260200101516000015161107891906137d2565b116110bb5781818151811061109d57634e487b7160e01b600052603260045260246000fd5b602002602001015160200151846110b491906137d2565b93506110f5565b8181815181106110db57634e487b7160e01b600052603260045260246000fd5b602002602001015160200151856110f291906137d2565b94505b806110ff816139a9565b915050611037565b5033600090815261016260205260409020541561113c57336000908152610162602052604090205461113a908490612b2e565b505b50909491935090915050565b61016580546111569061396e565b80601f01602080910402602001604051908101604052809291908181526020018280546111829061396e565b80156111cf5780601f106111a4576101008083540402835291602001916111cf565b820191906000526020600020905b8154815290600101906020018083116111b257829003601f168201915b505050505081565b3360009081527f2c01dc0041dfb6d4238a91e5a638996136aed16f837d5beb45610732cf9bf4b0602052604090205460ff166112695760405162461bcd60e51b815260206004820152602b60248201527f4d75737420686176652061646d696e20726f6c6520746f20706572666f726d2060448201526a3a3434b99030b1ba34b7b760a91b606482015260840161087c565b610160546040517f81767155000000000000000000000000000000000000000000000000000000008152600481018390526001600160a01b039091169063817671559060240160206040518083038186803b1580156112c757600080fd5b505afa1580156112db573d6000803e3d6000fd5b505050506040513d601f19601f820116820180604052508101906112ff9190613643565b15156001146113765760405162461bcd60e51b815260206004820152602660248201527f4f70706f7274756e697479206973206e6f742072657061696420627920626f7260448201527f726f7765722e0000000000000000000000000000000000000000000000000000606482015260840161087c565b61016054604051637e4dc6d560e01b8152600481018390526000916001600160a01b031690637e4dc6d59060240160206040518083038186803b1580156113bc57600080fd5b505afa1580156113d0573d6000803e3d6000fd5b505050506040513d601f19601f820116820180604052508101906113f49190613568565b905060008190506000816001600160a01b031663d661d3206040518163ffffffff1660e01b815260040160206040518083038186803b15801561143657600080fd5b505afa15801561144a573d6000803e3d6000fd5b505050506040513d601f19601f8201168201806040525081019061146e919061367b565b9050600061016760009054906101000a90046001600160a01b03166001600160a01b0316633a98ef396040518163ffffffff1660e01b815260040160206040518083038186803b1580156114c157600080fd5b505afa1580156114d5573d6000803e3d6000fd5b505050506040513d601f19601f820116820180604052508101906114f9919061367b565b905060006115198261151361150c612b41565b8690612b4f565b90612b5b565b61016a5490915061152a9082612b2e565b61016a556040517f53654e85000000000000000000000000000000000000000000000000000000008152600160048201526000906001600160a01b038616906353654e8590602401602060405180830381600087803b15801561158c57600080fd5b505af11580156115a0573d6000803e3d6000fd5b505050506040513d601f19601f820116820180604052508101906115c4919061367b565b905080610169546115d591906137d2565b6101695550505050505050565b3360009081527fbfe93621c6aa2dbf737e9056c9b79e4d30ee4f6b28b18be2cb71aac8a7bf258e602052604090205460ff166116755760405162461bcd60e51b815260206004820152602c60248201527f4d75737420686176652070617573657220726f6c6520746f20706572666f726d60448201526b103a3434b99030b1ba34b7b760a11b606482015260840161087c565b610bea612b67565b600054610100900460ff166116e85760405162461bcd60e51b815260206004820152602b60248201527f496e697469616c697a61626c653a20636f6e7472616374206973206e6f74206960448201526a6e697469616c697a696e6760a81b606482015260840161087c565b6001600160a01b03811661173e5760405162461bcd60e51b815260206004820181905260248201527f4f776e65722063616e6e6f7420626520746865207a65726f2061646472657373604482015260640161087c565b611746612ba4565b61174e612ab7565b611756612c0f565b6117807fa49807205ce4d355092ef5a8a18f56e8913cf4a201fbe287825b095693c2177582612c81565b6117aa7f65d7a28e3265b37a6474929f336521b332c1681b933f6cb9f3376673440d862a82612c81565b6117f47f65d7a28e3265b37a6474929f336521b332c1681b933f6cb9f3376673440d862a7fa49807205ce4d355092ef5a8a18f56e8913cf4a201fbe287825b095693c21775612c8b565b610b4c7fa49807205ce4d355092ef5a8a18f56e8913cf4a201fbe287825b095693c2177580612c8b565b6000811180156118a85750610166546040516370a0823160e01b815233600482015282916001600160a01b0316906370a082319060240160206040518083038186803b15801561186d57600080fd5b505afa158015611881573d6000803e3d6000fd5b505050506040513d601f19601f820116820180604052508101906118a5919061367b565b10155b6118f45760405162461bcd60e51b815260206004820152601c60248201527f596f752063616e6e6f74207374616b65207a65726f20746f6b656e7300000000604482015260640161087c565b33600081815261016160209081526040808320815180830183524281528084018781528254600181810185559387528587209251600290910290920191825551908201559383526101639091529020805460ff191690911790556101695461195d9082906137d2565b61016955610166546040517f23b872dd000000000000000000000000000000000000000000000000000000008152336004820152306024820152604481018390526001600160a01b03909116906323b872dd90606401602060405180830381600087803b1580156119cd57600080fd5b505af11580156119e1573d6000803e3d6000fd5b505050506040513d601f19601f82011682018060405250810190611a059190613643565b50610167546040517f40c10f19000000000000000000000000000000000000000000000000000000008152336004820181905260248201849052916001600160a01b0316906340c10f1990604401600060405180830381600087803b158015611a6d57600080fd5b505af1158015611a81573d6000803e3d6000fd5b50506040518481523392507febedb8b3c678666e7f36970bc8f57abf6d8fa2e828c0da91ea5b75bf68ed101a915060200160405180910390a25050565b336000908152610163602052604090205460ff1615156001148015611ae35750600081115b611b7b5760405162461bcd60e51b815260206004820152604560248201527f5573657220686173206e6f7420696e76657374656420696e207468697320706f60448201527f6f6c206f7220616d6f756e742073686f756c642062652067726561746572207460648201527f68616e2030000000000000000000000000000000000000000000000000000000608482015260a40161087c565b600080611b8c62015180601e6138f5565b61016854611b9a91906138f5565b336000908152610161602052604081209192505b8154811015611cf5574283838381548110611bd957634e487b7160e01b600052603260045260246000fd5b906000526020600020906002020160000154611bf591906137d2565b11611ca357818181548110611c1a57634e487b7160e01b600052603260045260246000fd5b9060005260206000209060020201600101546101626000336001600160a01b03166001600160a01b031681526020019081526020016000206000828254611c6191906137d2565b92505081905550818181548110611c8857634e487b7160e01b600052603260045260246000fd5b60009182526020822060029091020181815560010155611ce3565b818181548110611cc357634e487b7160e01b600052603260045260246000fd5b90600052602060002090600202016001015484611ce091906137d2565b93505b80611ced816139a9565b915050611bae565b503360009081526101626020526040902054841115611d7c5760405162461bcd60e51b815260206004820152603c60248201527f576974686472617720616d6f756e7420697320686967686572207468616e206160448201527f6d6f756e7420617661696c61626c6520666f7220776974686472617700000000606482015260840161087c565b336000908152610162602052604081208054869290611d9c908490613914565b90915550611daa9050612cd6565b158015611dc557503360009081526101626020526040902054155b15611de35733600090815261016360205260409020805460ff191690555b610167546040517f9dc29fac000000000000000000000000000000000000000000000000000000008152336004820152602481018690526001600160a01b0390911690639dc29fac90604401600060405180830381600087803b158015611e4957600080fd5b505af1158015611e5d573d6000803e3d6000fd5b505050506000611e6c85612e11565b6101665460405163a9059cbb60e01b8152336004820152602481018390529192506001600160a01b03169063a9059cbb90604401602060405180830381600087803b158015611eba57600080fd5b505af1158015611ece573d6000803e3d6000fd5b505050506040513d601f19601f82011682018060405250810190611ef29190613643565b5060405185815233907f85082129d87b2fe11527cb1b3b7a520aeb5aa6913f88a3d8757fe40d1db02fdd9060200160405180910390a25050505050565b905090565b3360009081527f2c01dc0041dfb6d4238a91e5a638996136aed16f837d5beb45610732cf9bf4b0602052604090205460ff16611fc65760405162461bcd60e51b815260206004820152602b60248201527f4d75737420686176652061646d696e20726f6c6520746f20706572666f726d2060448201526a3a3434b99030b1ba34b7b760a91b606482015260840161087c565b610160546040517f5c36901c000000000000000000000000000000000000000000000000000000008152600481018390526001600160a01b0390911690635c36901c9060240160206040518083038186803b15801561202457600080fd5b505afa158015612038573d6000803e3d6000fd5b505050506040513d601f19601f8201168201806040525081019061205c9190613643565b15156001146120d35760405162461bcd60e51b815260206004820152602560248201527f4f70706f7274756e697479206973206e6f742061637469766520666f7220667560448201527f6e64696e67000000000000000000000000000000000000000000000000000000606482015260840161087c565b61016054604051637e4dc6d560e01b8152600481018390526000916001600160a01b031690637e4dc6d59060240160206040518083038186803b15801561211957600080fd5b505afa15801561212d573d6000803e3d6000fd5b505050506040513d601f19601f820116820180604052508101906121519190613568565b905060008190506000816001600160a01b0316639f964fe66040518163ffffffff1660e01b815260040160206040518083038186803b15801561219357600080fd5b505afa1580156121a7573d6000803e3d6000fd5b505050506040513d601f19601f820116820180604052508101906121cb919061367b565b9050610169548111156122205760405162461bcd60e51b815260206004820152601960248201527f696e73756666696369656e7420506f6f6c2062616c616e636500000000000000604482015260640161087c565b806101695461222f9190613914565b610169556040517ff4d4c9d700000000000000000000000000000000000000000000000000000000815260016004820152602481018290526001600160a01b0383169063f4d4c9d790604401600060405180830381600087803b15801561229557600080fd5b505af11580156122a9573d6000803e3d6000fd5b5050505050505050565b600054610100900460ff16158080156122d35750600054600160ff909116105b806122ed5750303b1580156122ed575060005460ff166001145b61235f5760405162461bcd60e51b815260206004820152602e60248201527f496e697469616c697a61626c653a20636f6e747261637420697320616c72656160448201527f647920696e697469616c697a6564000000000000000000000000000000000000606482015260840161087c565b6000805460ff191660011790558015612382576000805461ff0019166101001790555b6001600160a01b0382166123d85760405162461bcd60e51b815260206004820152601660248201527f496e76616c696420636f6e666967206164647265737300000000000000000000604482015260640161087c565b61015f80546001600160a01b0319166001600160a01b03841690811790915560009061240390612e37565b90506001600160a01b03811661245b5760405162461bcd60e51b815260206004820152600d60248201527f496e76616c6964204f776e657200000000000000000000000000000000000000604482015260640161087c565b61015f54612471906001600160a01b0316612eb8565b61016080546001600160a01b0319166001600160a01b039290921691909117905561249b8161167d565b61015f546124b1906001600160a01b0316612ed0565b61016680546001600160a01b0319166001600160a01b0392831617905561015f546124dc9116612ee8565b61016780546001600160a01b0319166001600160a01b0392831617905561015f546125079116612f00565b6101685550600061016a558015610926576000805461ff0019169055604051600181527f7f26b83ff96e1f2b6a682f133852f6798a09c465da95921460cefb38474024989060200160405180910390a15050565b3360009081527f2c01dc0041dfb6d4238a91e5a638996136aed16f837d5beb45610732cf9bf4b0602052604090205460ff166125ed5760405162461bcd60e51b815260206004820152602b60248201527f4d75737420686176652061646d696e20726f6c6520746f20706572666f726d2060448201526a3a3434b99030b1ba34b7b760a91b606482015260840161087c565b610166546040516370a0823160e01b815230600482015283916001600160a01b0316906370a082319060240160206040518083038186803b15801561263157600080fd5b505afa158015612645573d6000803e3d6000fd5b505050506040513d601f19601f82011682018060405250810190612669919061367b565b10156126b75760405162461bcd60e51b815260206004820152601460248201527f496e73756666696369656e742042616c616e6365000000000000000000000000604482015260640161087c565b81610169546126c69190613914565b610169556101665460405163a9059cbb60e01b81526001600160a01b038381166004830152602482018590529091169063a9059cbb90604401602060405180830381600087803b15801561271957600080fd5b505af115801561272d573d6000803e3d6000fd5b505050506040513d601f19601f8201168201806040525081019061094f9190613643565b61275f62015180601e6138f5565b81565b60008281526065602052604090206001015461277d81612787565b61094f8383612833565b610b4c8133612f93565b60008281526065602090815260408083206001600160a01b038516845290915290205460ff166109265760008281526065602090815260408083206001600160a01b03851684529091529020805460ff191660011790556127ef3390565b6001600160a01b0316816001600160a01b0316837f2f8788117e7eff1d82e926ec794901d17c78024a50270940304540a733656f0d60405160405180910390a45050565b60008281526065602090815260408083206001600160a01b038516845290915290205460ff16156109265760008281526065602090815260408083206001600160a01b0385168085529252808320805460ff1916905551339285917ff6391f5c32d9c69d2a47ea670b442974b53935d1edc7fd64eb21e047a839171b9190a45050565b7f4910fdfa16fed3260ed0e7147f7cc6da11a60208b5b9406d12a635614ffd91435460ff16156128e95761094f83613013565b826001600160a01b03166352d1902d6040518163ffffffff1660e01b815260040160206040518083038186803b15801561292257600080fd5b505afa925050508015612952575060408051601f3d908101601f1916820190925261294f9181019061367b565b60015b6129c45760405162461bcd60e51b815260206004820152602e60248201527f45524331393637557067726164653a206e657720696d706c656d656e7461746960448201527f6f6e206973206e6f742055555053000000000000000000000000000000000000606482015260840161087c565b7f360894a13ba1a3210667c828492db98dca3e2076cc3735a920a3ca505d382bbc8114612a595760405162461bcd60e51b815260206004820152602960248201527f45524331393637557067726164653a20756e737570706f727465642070726f7860448201527f6961626c65555549440000000000000000000000000000000000000000000000606482015260840161087c565b5061094f8383836130d1565b612a6d6130fc565b6097805460ff191690557f5db9ee0a495bf2e6ff9c91a7834c1ba4fdd244a5e8aa4e537bd38aeae4b073aa335b6040516001600160a01b03909116815260200160405180910390a1565b600054610100900460ff16612b225760405162461bcd60e51b815260206004820152602b60248201527f496e697469616c697a61626c653a20636f6e7472616374206973206e6f74206960448201526a6e697469616c697a696e6760a81b606482015260840161087c565b6097805460ff19169055565b6000612b3a82846137d2565b9392505050565b6000611f2f6006600a61384d565b6000612b3a82846138f5565b6000612b3a82846137ea565b612b6f61314e565b6097805460ff191660011790557f62e78cea01bee320cd4e420270b5ea74000d11b0c9f74754ebdbfc544b05a258612a9a3390565b600054610100900460ff16610bea5760405162461bcd60e51b815260206004820152602b60248201527f496e697469616c697a61626c653a20636f6e7472616374206973206e6f74206960448201526a6e697469616c697a696e6760a81b606482015260840161087c565b600054610100900460ff16612c7a5760405162461bcd60e51b815260206004820152602b60248201527f496e697469616c697a61626c653a20636f6e7472616374206973206e6f74206960448201526a6e697469616c697a696e6760a81b606482015260840161087c565b600160c955565b6109268282612791565b600082815260656020526040808220600101805490849055905190918391839186917fbd79b86ffe0ab8e8776151514217cd7cacd52c909f66475c3af44e129f0b00ff9190a4505050565b336000908152610163602052604081205460ff161515600114612d3b5760405162461bcd60e51b815260206004820152601e60248201527f5573657220686173206e6f74207374616b656420616e7920616d6f756e740000604482015260640161087c565b3360009081526101616020908152604080832080548251818502810185019093528083528493849084015b82821015612dac57838290600052602060002090600202016040518060400160405290816000820154815260200160018201548152505081526020019060010190612d66565b50505050905060005b8151811015612e0957818181518110612dde57634e487b7160e01b600052603260045260246000fd5b60200260200101516020015183612df591906137d2565b925080612e01816139a9565b915050612db5565b509092915050565b60006107e8612e30612e21612b41565b61016a54611513908690612b4f565b8390612b2e565b60006001600160a01b03821663b93f9b0a825b6040518263ffffffff1660e01b8152600401612e6891815260200190565b60206040518083038186803b158015612e8057600080fd5b505afa158015612e94573d6000803e3d6000fd5b505050506040513d601f19601f820116820180604052508101906107e89190613568565b60006001600160a01b03821663b93f9b0a6006612e4a565b60006001600160a01b03821663b93f9b0a6002612e4a565b60006001600160a01b03821663b93f9b0a6001612e4a565b6040517ffc5636580000000000000000000000000000000000000000000000000000000081526004818101526000906001600160a01b0383169063fc5636589060240160206040518083038186803b158015612f5b57600080fd5b505afa158015612f6f573d6000803e3d6000fd5b505050506040513d601f19601f820116820180604052508101906107e8919061367b565b60008281526065602090815260408083206001600160a01b038516845290915290205460ff1661092657612fd1816001600160a01b031660146131a1565b612fdc8360206131a1565b604051602001612fed92919061371e565b60408051601f198184030181529082905262461bcd60e51b825261087c9160040161379f565b6001600160a01b0381163b6130905760405162461bcd60e51b815260206004820152602d60248201527f455243313936373a206e657720696d706c656d656e746174696f6e206973206e60448201527f6f74206120636f6e747261637400000000000000000000000000000000000000606482015260840161087c565b7f360894a13ba1a3210667c828492db98dca3e2076cc3735a920a3ca505d382bbc80546001600160a01b0319166001600160a01b0392909216919091179055565b6130da836133c8565b6000825111806130e75750805b1561094f576130f68383613408565b50505050565b60975460ff16610bea5760405162461bcd60e51b815260206004820152601460248201527f5061757361626c653a206e6f7420706175736564000000000000000000000000604482015260640161087c565b60975460ff1615610bea5760405162461bcd60e51b815260206004820152601060248201527f5061757361626c653a2070617573656400000000000000000000000000000000604482015260640161087c565b606060006131b08360026138f5565b6131bb9060026137d2565b67ffffffffffffffff8111156131e157634e487b7160e01b600052604160045260246000fd5b6040519080825280601f01601f19166020018201604052801561320b576020820181803683370190505b5090507f30000000000000000000000000000000000000000000000000000000000000008160008151811061325057634e487b7160e01b600052603260045260246000fd5b60200101906001600160f81b031916908160001a9053507f7800000000000000000000000000000000000000000000000000000000000000816001815181106132a957634e487b7160e01b600052603260045260246000fd5b60200101906001600160f81b031916908160001a90535060006132cd8460026138f5565b6132d89060016137d2565b90505b6001811115613379577f303132333435363738396162636465660000000000000000000000000000000085600f166010811061332757634e487b7160e01b600052603260045260246000fd5b1a60f81b82828151811061334b57634e487b7160e01b600052603260045260246000fd5b60200101906001600160f81b031916908160001a90535060049490941c9361337281613957565b90506132db565b508315612b3a5760405162461bcd60e51b815260206004820181905260248201527f537472696e67733a20686578206c656e67746820696e73756666696369656e74604482015260640161087c565b6133d181613013565b6040516001600160a01b038216907fbc7cd75a20ee27fd9adebab32041f755214dbc6bffa90cc0225b39da2e5c2d3b90600090a250565b60606001600160a01b0383163b6134875760405162461bcd60e51b815260206004820152602660248201527f416464726573733a2064656c65676174652063616c6c20746f206e6f6e2d636f60448201527f6e74726163740000000000000000000000000000000000000000000000000000606482015260840161087c565b600080846001600160a01b0316846040516134a29190613702565b600060405180830381855af49150503d80600081146134dd576040519150601f19603f3d011682016040523d82523d6000602084013e6134e2565b606091505b509150915061350a8282604051806060016040528060278152602001613a0660279139613513565b95945050505050565b60608315613522575081612b3a565b8251156135325782518084602001fd5b8160405162461bcd60e51b815260040161087c919061379f565b60006020828403121561355d578081fd5b8135612b3a816139f0565b600060208284031215613579578081fd5b8151612b3a816139f0565b60008060408385031215613596578081fd5b82356135a1816139f0565b9150602083013567ffffffffffffffff808211156135bd578283fd5b818501915085601f8301126135d0578283fd5b8135818111156135e2576135e26139da565b604051601f8201601f19908116603f0116810190838211818310171561360a5761360a6139da565b81604052828152886020848701011115613622578586fd5b82602086016020830137856020848301015280955050505050509250929050565b600060208284031215613654578081fd5b81518015158114612b3a578182fd5b600060208284031215613674578081fd5b5035919050565b60006020828403121561368c578081fd5b5051919050565b600080604083850312156136a5578182fd5b8235915060208301356136b7816139f0565b809150509250929050565b6000602082840312156136d3578081fd5b81357fffffffff0000000000000000000000000000000000000000000000000000000081168114612b3a578182fd5b6000825161371481846020870161392b565b9190910192915050565b7f416363657373436f6e74726f6c3a206163636f756e742000000000000000000081526000835161375681601785016020880161392b565b7f206973206d697373696e6720726f6c6520000000000000000000000000000000601791840191820152835161379381602884016020880161392b565b01602801949350505050565b60208152600082518060208401526137be81604085016020870161392b565b601f01601f19169190910160400192915050565b600082198211156137e5576137e56139c4565b500190565b60008261380557634e487b7160e01b81526012600452602481fd5b500490565b600181815b8085111561384557816000190482111561382b5761382b6139c4565b8085161561383857918102915b93841c939080029061380f565b509250929050565b6000612b3a8383600082613863575060016107e8565b81613870575060006107e8565b81600181146138865760028114613890576138ac565b60019150506107e8565b60ff8411156138a1576138a16139c4565b50506001821b6107e8565b5060208310610133831016604e8410600b84101617156138cf575081810a6107e8565b6138d9838361380a565b80600019048211156138ed576138ed6139c4565b029392505050565b600081600019048311821515161561390f5761390f6139c4565b500290565b600082821015613926576139266139c4565b500390565b60005b8381101561394657818101518382015260200161392e565b838111156130f65750506000910152565b600081613966576139666139c4565b506000190190565b600181811c9082168061398257607f821691505b602082108114156139a357634e487b7160e01b600052602260045260246000fd5b50919050565b60006000198214156139bd576139bd6139c4565b5060010190565b634e487b7160e01b600052601160045260246000fd5b634e487b7160e01b600052604160045260246000fd5b6001600160a01b0381168114610b4c57600080fdfe416464726573733a206c6f772d6c6576656c2064656c65676174652063616c6c206661696c6564a2646970667358221220cb81526648e7c72f2bd3eb1e2f77b7c149069d76c03d5d4dfaa8a4982578f53364736f6c63430008040033",
  "linkReferences": {},
  "deployedLinkReferences": {}
}