{
  "_format": "hh-sol-artifact-1",
  "contractName": "SeniorPool",
  "sourceName": "contracts/protocol/SeniorPool.sol",
  "abi": [
    {
      "anonymous": false,
      "inputs": [
        {
          "indexed": false,
          "internalType": "address",
          "name": "previousAdmin",
          "type": "address"
        },
        {
          "indexed": false,
          "internalType": "address",
          "name": "newAdmin",
          "type": "address"
        }
      ],
      "name": "AdminChanged",
      "type": "event"
    },
    {
      "anonymous": false,
      "inputs": [
        {
          "indexed": true,
          "internalType": "address",
          "name": "beacon",
          "type": "address"
        }
      ],
      "name": "BeaconUpgraded",
      "type": "event"
    },
    {
      "anonymous": false,
      "inputs": [
        {
          "indexed": false,
          "internalType": "uint8",
          "name": "version",
          "type": "uint8"
        }
      ],
      "name": "Initialized",
      "type": "event"
    },
    {
      "anonymous": false,
      "inputs": [
        {
          "indexed": false,
          "internalType": "address",
          "name": "account",
          "type": "address"
        }
      ],
      "name": "Paused",
      "type": "event"
    },
    {
      "anonymous": false,
      "inputs": [
        {
          "indexed": true,
          "internalType": "bytes32",
          "name": "role",
          "type": "bytes32"
        },
        {
          "indexed": true,
          "internalType": "bytes32",
          "name": "previousAdminRole",
          "type": "bytes32"
        },
        {
          "indexed": true,
          "internalType": "bytes32",
          "name": "newAdminRole",
          "type": "bytes32"
        }
      ],
      "name": "RoleAdminChanged",
      "type": "event"
    },
    {
      "anonymous": false,
      "inputs": [
        {
          "indexed": true,
          "internalType": "bytes32",
          "name": "role",
          "type": "bytes32"
        },
        {
          "indexed": true,
          "internalType": "address",
          "name": "account",
          "type": "address"
        },
        {
          "indexed": true,
          "internalType": "address",
          "name": "sender",
          "type": "address"
        }
      ],
      "name": "RoleGranted",
      "type": "event"
    },
    {
      "anonymous": false,
      "inputs": [
        {
          "indexed": true,
          "internalType": "bytes32",
          "name": "role",
          "type": "bytes32"
        },
        {
          "indexed": true,
          "internalType": "address",
          "name": "account",
          "type": "address"
        },
        {
          "indexed": true,
          "internalType": "address",
          "name": "sender",
          "type": "address"
        }
      ],
      "name": "RoleRevoked",
      "type": "event"
    },
    {
      "anonymous": false,
      "inputs": [
        {
          "indexed": true,
          "internalType": "address",
          "name": "from",
          "type": "address"
        },
        {
          "indexed": false,
          "internalType": "uint256",
          "name": "amount",
          "type": "uint256"
        }
      ],
      "name": "Stake",
      "type": "event"
    },
    {
      "anonymous": false,
      "inputs": [
        {
          "indexed": false,
          "internalType": "address",
          "name": "account",
          "type": "address"
        }
      ],
      "name": "Unpaused",
      "type": "event"
    },
    {
      "anonymous": false,
      "inputs": [
        {
          "indexed": true,
          "internalType": "address",
          "name": "from",
          "type": "address"
        },
        {
          "indexed": false,
          "internalType": "uint256",
          "name": "amount",
          "type": "uint256"
        }
      ],
      "name": "Unstake",
      "type": "event"
    },
    {
      "anonymous": false,
      "inputs": [
        {
          "indexed": true,
          "internalType": "address",
          "name": "implementation",
          "type": "address"
        }
      ],
      "name": "Upgraded",
      "type": "event"
    },
    {
      "anonymous": false,
      "inputs": [
        {
          "indexed": true,
          "internalType": "address",
          "name": "to",
          "type": "address"
        },
        {
          "indexed": false,
          "internalType": "uint256",
          "name": "amount",
          "type": "uint256"
        }
      ],
      "name": "YieldWithdraw",
      "type": "event"
    },
    {
      "inputs": [],
      "name": "DEFAULT_ADMIN_ROLE",
      "outputs": [
        {
          "internalType": "bytes32",
          "name": "",
          "type": "bytes32"
        }
      ],
      "stateMutability": "view",
      "type": "function"
    },
    {
      "inputs": [
        {
          "internalType": "address",
          "name": "owner",
          "type": "address"
        }
      ],
      "name": "_BaseUpgradeablePausable_init",
      "outputs": [],
      "stateMutability": "nonpayable",
      "type": "function"
    },
    {
      "inputs": [],
      "name": "__PauserPausable__init",
      "outputs": [],
      "stateMutability": "nonpayable",
      "type": "function"
    },
    {
      "inputs": [
        {
          "internalType": "address",
          "name": "user",
          "type": "address"
        }
      ],
      "name": "approveUSDC",
      "outputs": [],
      "stateMutability": "nonpayable",
      "type": "function"
    },
    {
      "inputs": [],
      "name": "getDefaultLockinMonths",
      "outputs": [
        {
          "internalType": "uint256",
          "name": "",
          "type": "uint256"
        }
      ],
      "stateMutability": "view",
      "type": "function"
    },
    {
      "inputs": [
        {
          "internalType": "bytes32",
          "name": "role",
          "type": "bytes32"
        }
      ],
      "name": "getRoleAdmin",
      "outputs": [
        {
          "internalType": "bytes32",
          "name": "",
          "type": "bytes32"
        }
      ],
      "stateMutability": "view",
      "type": "function"
    },
    {
      "inputs": [],
      "name": "getUserInvestment",
      "outputs": [
        {
          "internalType": "uint256",
          "name": "withdrawableAmt",
          "type": "uint256"
        },
        {
          "internalType": "uint256",
          "name": "stakingAmt",
          "type": "uint256"
        }
      ],
      "stateMutability": "view",
      "type": "function"
    },
    {
      "inputs": [
        {
          "internalType": "bytes32",
          "name": "role",
          "type": "bytes32"
        },
        {
          "internalType": "address",
          "name": "account",
          "type": "address"
        }
      ],
      "name": "grantRole",
      "outputs": [],
      "stateMutability": "nonpayable",
      "type": "function"
    },
    {
      "inputs": [
        {
          "internalType": "bytes32",
          "name": "role",
          "type": "bytes32"
        },
        {
          "internalType": "address",
          "name": "account",
          "type": "address"
        }
      ],
      "name": "hasRole",
      "outputs": [
        {
          "internalType": "bool",
          "name": "",
          "type": "bool"
        }
      ],
      "stateMutability": "view",
      "type": "function"
    },
    {
      "inputs": [
        {
          "internalType": "contract DygnifyConfig",
          "name": "_dygnifyConfig",
          "type": "address"
        }
      ],
      "name": "initialize",
      "outputs": [],
      "stateMutability": "nonpayable",
      "type": "function"
    },
    {
      "inputs": [
        {
          "internalType": "bytes32",
          "name": "opportunityId",
          "type": "bytes32"
        }
      ],
      "name": "invest",
      "outputs": [],
      "stateMutability": "nonpayable",
      "type": "function"
    },
    {
      "inputs": [],
      "name": "investmentLockinInMonths",
      "outputs": [
        {
          "internalType": "uint256",
          "name": "",
          "type": "uint256"
        }
      ],
      "stateMutability": "view",
      "type": "function"
    },
    {
      "inputs": [],
      "name": "isAdmin",
      "outputs": [
        {
          "internalType": "bool",
          "name": "",
          "type": "bool"
        }
      ],
      "stateMutability": "view",
      "type": "function"
    },
    {
      "inputs": [
        {
          "internalType": "address",
          "name": "",
          "type": "address"
        }
      ],
      "name": "isStaking",
      "outputs": [
        {
          "internalType": "bool",
          "name": "",
          "type": "bool"
        }
      ],
      "stateMutability": "view",
      "type": "function"
    },
    {
      "inputs": [
        {
          "internalType": "address",
          "name": "",
          "type": "address"
        }
      ],
      "name": "kycOf",
      "outputs": [
        {
          "internalType": "bool",
          "name": "isDoucument",
          "type": "bool"
        },
        {
          "internalType": "bool",
          "name": "isLiveliness",
          "type": "bool"
        },
        {
          "internalType": "bool",
          "name": "isAddress",
          "type": "bool"
        },
        {
          "internalType": "bool",
          "name": "isAML",
          "type": "bool"
        },
        {
          "internalType": "bool",
          "name": "imageHash",
          "type": "bool"
        },
        {
          "internalType": "bool",
          "name": "result",
          "type": "bool"
        }
      ],
      "stateMutability": "view",
      "type": "function"
    },
    {
      "inputs": [],
      "name": "pause",
      "outputs": [],
      "stateMutability": "nonpayable",
      "type": "function"
    },
    {
      "inputs": [],
      "name": "paused",
      "outputs": [
        {
          "internalType": "bool",
          "name": "",
          "type": "bool"
        }
      ],
      "stateMutability": "view",
      "type": "function"
    },
    {
      "inputs": [],
      "name": "proxiableUUID",
      "outputs": [
        {
          "internalType": "bytes32",
          "name": "",
          "type": "bytes32"
        }
      ],
      "stateMutability": "view",
      "type": "function"
    },
    {
      "inputs": [
        {
          "internalType": "bytes32",
          "name": "role",
          "type": "bytes32"
        },
        {
          "internalType": "address",
          "name": "account",
          "type": "address"
        }
      ],
      "name": "renounceRole",
      "outputs": [],
      "stateMutability": "nonpayable",
      "type": "function"
    },
    {
      "inputs": [
        {
          "internalType": "bytes32",
          "name": "role",
          "type": "bytes32"
        },
        {
          "internalType": "address",
          "name": "account",
          "type": "address"
        }
      ],
      "name": "revokeRole",
      "outputs": [],
      "stateMutability": "nonpayable",
      "type": "function"
    },
    {
      "inputs": [],
      "name": "seniorPoolBal",
      "outputs": [
        {
          "internalType": "uint256",
          "name": "",
          "type": "uint256"
        }
      ],
      "stateMutability": "view",
      "type": "function"
    },
    {
      "inputs": [],
      "name": "sharePrice",
      "outputs": [
        {
          "internalType": "uint256",
          "name": "",
          "type": "uint256"
        }
      ],
      "stateMutability": "view",
      "type": "function"
    },
    {
      "inputs": [
        {
          "internalType": "uint256",
          "name": "amount",
          "type": "uint256"
        }
      ],
      "name": "stake",
      "outputs": [],
      "stateMutability": "nonpayable",
      "type": "function"
    },
    {
      "inputs": [
        {
          "internalType": "bytes4",
          "name": "interfaceId",
          "type": "bytes4"
        }
      ],
      "name": "supportsInterface",
      "outputs": [
        {
          "internalType": "bool",
          "name": "",
          "type": "bool"
        }
      ],
      "stateMutability": "view",
      "type": "function"
    },
    {
      "inputs": [],
      "name": "unpause",
      "outputs": [],
      "stateMutability": "nonpayable",
      "type": "function"
    },
    {
      "inputs": [
        {
          "internalType": "address",
          "name": "newImplementation",
          "type": "address"
        }
      ],
      "name": "upgradeTo",
      "outputs": [],
      "stateMutability": "nonpayable",
      "type": "function"
    },
    {
      "inputs": [
        {
          "internalType": "address",
          "name": "newImplementation",
          "type": "address"
        },
        {
          "internalType": "bytes",
          "name": "data",
          "type": "bytes"
        }
      ],
      "name": "upgradeToAndCall",
      "outputs": [],
      "stateMutability": "payable",
      "type": "function"
    },
    {
      "inputs": [
        {
          "internalType": "bool",
          "name": "_isWriteOff",
          "type": "bool"
        },
        {
          "internalType": "bytes32",
          "name": "opportunityId",
          "type": "bytes32"
        },
        {
          "internalType": "uint256",
          "name": "_amount",
          "type": "uint256"
        }
      ],
      "name": "withDrawFromOpportunity",
      "outputs": [],
      "stateMutability": "nonpayable",
      "type": "function"
    },
    {
      "inputs": [
        {
          "internalType": "uint256",
          "name": "amount",
          "type": "uint256"
        },
        {
          "internalType": "address",
          "name": "_receiver",
          "type": "address"
        }
      ],
      "name": "withdrawTo",
      "outputs": [],
      "stateMutability": "nonpayable",
      "type": "function"
    },
    {
      "inputs": [
        {
          "internalType": "uint256",
          "name": "amount",
          "type": "uint256"
        }
      ],
      "name": "withdrawWithLP",
      "outputs": [],
      "stateMutability": "nonpayable",
      "type": "function"
    }
  ],
  "bytecode": "0x60a06040523060601b60805234801561001757600080fd5b5060805160601c6133b861005260003960008181610afa01528181610b3a01528181610bfa01528181610c3a0152610d7b01526133b86000f3fe60806040526004361061018d5760003560e01c80636f49712b116100d7578063a694fc3a11610085578063a694fc3a146104b7578063a972f0a0146104d7578063b6db75a0146104f7578063c25760041461050c578063c4d66de81461052c578063c86283c81461054c578063d547741f1461056c578063f92496b61461058c57600080fd5b80636f49712b146103ee57806376797d3a1461041f5780638456cb5914610436578063872697291461044b57806391d1485414610462578063a12dde4d14610482578063a217fddf146104a257600080fd5b80633968e6221161013f5780633968e622146102a75780633f4ba83a1461034457806345e88089146103595780634f1ef2861461036f578063526d81f61461038257806352d1902d146103975780635c975abb146103ac57806361c030ab146103c457600080fd5b806301ffc9a7146101925780631c3e3688146101c757806323fe5e5a146101e9578063248a9ca3146102095780632f2ff15d1461024757806336568abe146102675780633659cfe614610287575b600080fd5b34801561019e57600080fd5b506101b26101ad366004612e23565b6105a3565b60405190151581526020015b60405180910390f35b3480156101d357600080fd5b506101e76101e2366004612d90565b6105da565b005b3480156101f557600080fd5b506101e7610204366004612c7d565b61099c565b34801561021557600080fd5b50610239610224366004612dc4565b60009081526065602052604090206001015490565b6040519081526020016101be565b34801561025357600080fd5b506101e7610262366004612df4565b610a4b565b34801561027357600080fd5b506101e7610282366004612df4565b610a75565b34801561029357600080fd5b506101e76102a2366004612c7d565b610aef565b3480156102b357600080fd5b5061030b6102c2366004612c7d565b6101656020526000908152604090205460ff8082169161010081048216916201000082048116916301000000810482169164010000000082048116916501000000000090041686565b604080519615158752941515602087015292151593850193909352151560608401529015156080830152151560a082015260c0016101be565b34801561035057600080fd5b506101e7610bb8565b34801561036557600080fd5b5061016854610239565b6101e761037d366004612cb5565b610bef565b34801561038e57600080fd5b506101e7610ca5565b3480156103a357600080fd5b50610239610d6e565b3480156103b857600080fd5b5060975460ff166101b2565b3480156103d057600080fd5b506103d9610e1c565b604080519283526020830191909152016101be565b3480156103fa57600080fd5b506101b2610409366004612c7d565b6101636020526000908152604090205460ff1681565b34801561042b57600080fd5b506102396101695481565b34801561044257600080fd5b506101e7610fff565b34801561045757600080fd5b5061023961016a5481565b34801561046e57600080fd5b506101b261047d366004612df4565b61102e565b34801561048e57600080fd5b506101e761049d366004612c7d565b611059565b3480156104ae57600080fd5b50610239600081565b3480156104c357600080fd5b506101e76104d2366004612dc4565b61112d565b3480156104e357600080fd5b506101e76104f2366004612dc4565b61139f565b34801561050357600080fd5b506101b2611867565b34801561051857600080fd5b506101e7610527366004612dc4565b611879565b34801561053857600080fd5b506101e7610547366004612c7d565b611b32565b34801561055857600080fd5b506101e7610567366004612df4565b611d6d565b34801561057857600080fd5b506101e7610587366004612df4565b611eef565b34801561059857600080fd5b506102396101685481565b60006001600160e01b03198216637965db0b60e01b14806105d457506301ffc9a760e01b6001600160e01b03198316145b92915050565b61016054604051638176715560e01b8152600481018490526001600160a01b039091169063817671559060240160206040518083038186803b15801561061f57600080fd5b505afa158015610633573d6000803e3d6000fd5b505050506040513d601f19601f820116820180604052508101906106579190612d74565b15156001148061066957506001831515145b6106c95760405162461bcd60e51b815260206004820152602660248201527f4f70706f7274756e697479206973206e6f742072657061696420627920626f726044820152653937bbb2b91760d11b60648201526084015b60405180910390fd5b61016054604051637e4dc6d560e01b8152600481018490526000916001600160a01b031690637e4dc6d59060240160206040518083038186803b15801561070f57600080fd5b505afa158015610723573d6000803e3d6000fd5b505050506040513d601f19601f820116820180604052508101906107479190612c99565b905080336001600160a01b038216146107ae5760405162461bcd60e51b815260206004820152602360248201527f6f6e6c79204f70706f7274756e69747920506f6f6c2063616e2077697468647260448201526230bb9760e91b60648201526084016106c0565b6000600186151514156107c2575082610836565b816001600160a01b031663d661d3206040518163ffffffff1660e01b815260040160206040518083038186803b1580156107fb57600080fd5b505afa15801561080f573d6000803e3d6000fd5b505050506040513d601f19601f820116820180604052508101906108339190612ddc565b90505b6101675460408051633a98ef3960e01b815290516000926001600160a01b031691633a98ef39916004808301926020929190829003018186803b15801561087c57600080fd5b505afa158015610890573d6000803e3d6000fd5b505050506040513d601f19601f820116820180604052508101906108b49190612ddc565b905060006108d4826108ce6108c7611f14565b8690611f22565b90611f35565b61016a549091506108e59082611f41565b61016a558761097e576000846001600160a01b03166383933a2b6040518163ffffffff1660e01b8152600401602060405180830381600087803b15801561092b57600080fd5b505af115801561093f573d6000803e3d6000fd5b505050506040513d601f19601f820116820180604052508101906109639190612ddc565b905080610169546109749190613135565b6101695550610992565b856101695461098d9190613135565b610169555b5050505050505050565b6109a4611867565b6109c05760405162461bcd60e51b81526004016106c0906130ea565b6101665460405163095ea7b360e01b81526001600160a01b039091169063095ea7b3906109f590849060001990600401612eea565b602060405180830381600087803b158015610a0f57600080fd5b505af1158015610a23573d6000803e3d6000fd5b505050506040513d601f19601f82011682018060405250810190610a479190612d74565b5050565b600082815260656020526040902060010154610a6681611f4d565b610a708383611f57565b505050565b6001600160a01b0381163314610ae55760405162461bcd60e51b815260206004820152602f60248201527f416363657373436f6e74726f6c3a2063616e206f6e6c792072656e6f756e636560448201526e103937b632b9903337b91039b2b63360891b60648201526084016106c0565b610a478282611fdd565b306001600160a01b037f0000000000000000000000000000000000000000000000000000000000000000161415610b385760405162461bcd60e51b81526004016106c090612f82565b7f00000000000000000000000000000000000000000000000000000000000000006001600160a01b0316610b6a612044565b6001600160a01b031614610b905760405162461bcd60e51b81526004016106c090612fce565b610b9981612060565b60408051600080825260208201909252610bb591839190612084565b50565b610bc9610bc36121fe565b3361102e565b610be55760405162461bcd60e51b81526004016106c090612f36565b610bed612222565b565b306001600160a01b037f0000000000000000000000000000000000000000000000000000000000000000161415610c385760405162461bcd60e51b81526004016106c090612f82565b7f00000000000000000000000000000000000000000000000000000000000000006001600160a01b0316610c6a612044565b6001600160a01b031614610c905760405162461bcd60e51b81526004016106c090612fce565b610c9982612060565b610a4782826001612084565b600054610100900460ff1615808015610cc55750600054600160ff909116105b80610cdf5750303b158015610cdf575060005460ff166001145b610cfb5760405162461bcd60e51b81526004016106c09061301a565b6000805460ff191660011790558015610d1e576000805461ff0019166101001790555b610d2661226e565b8015610bb5576000805461ff0019169055604051600181527f7f26b83ff96e1f2b6a682f133852f6798a09c465da95921460cefb38474024989060200160405180910390a150565b6000306001600160a01b037f00000000000000000000000000000000000000000000000000000000000000001614610e095760405162461bcd60e51b815260206004820152603860248201527f555550535570677261646561626c653a206d757374206e6f742062652063616c6044820152771b1959081d1a1c9bdd59da0819195b1959d85d1958d85b1b60421b60648201526084016106c0565b5060008051602061333c83398151915290565b3360009081526101636020526040812054819060ff161515600114610e535760405162461bcd60e51b81526004016106c090613068565b6000806000610e606122a1565b61016854610e6e9190613258565b3360009081526101616020908152604080832080548251818502810185019093528083529495509293909291849084015b82821015610ee557838290600052602060002090600202016040518060400160405290816000820154815260200160018201548152505081526020019060010190610e9f565b50505050905060005b8151811015610fbe574283838381518110610f1957634e487b7160e01b600052603260045260246000fd5b602002602001015160000151610f2f9190613135565b11610f7257818181518110610f5457634e487b7160e01b600052603260045260246000fd5b60200260200101516020015184610f6b9190613135565b9350610fac565b818181518110610f9257634e487b7160e01b600052603260045260246000fd5b60200260200101516020015185610fa99190613135565b94505b80610fb6816132d1565b915050610eee565b50336000908152610162602052604090205415610ff3573360009081526101626020526040902054610ff09084613135565b92505b50909491935090915050565b61100a610bc36121fe565b6110265760405162461bcd60e51b81526004016106c090612f36565b610bed6122b1565b60009182526065602090815260408084206001600160a01b0393909316845291905290205460ff1690565b600054610100900460ff166110805760405162461bcd60e51b81526004016106c09061309f565b6001600160a01b0381166110d65760405162461bcd60e51b815260206004820181905260248201527f4f776e65722063616e6e6f7420626520746865207a65726f206164647265737360448201526064016106c0565b6110de6122ee565b6110e661226e565b6110ee612315565b6110ff6110f9612343565b82612367565b61110a6110f96121fe565b6111226111156121fe565b61111d612343565b612371565b610bb5611115612343565b6000811180156111bc5750610166546040516370a0823160e01b815282916001600160a01b0316906370a0823190611169903390600401612ed6565b60206040518083038186803b15801561118157600080fd5b505afa158015611195573d6000803e3d6000fd5b505050506040513d601f19601f820116820180604052508101906111b99190612ddc565b10155b6112085760405162461bcd60e51b815260206004820152601c60248201527f596f752063616e6e6f74207374616b65207a65726f20746f6b656e730000000060448201526064016106c0565b33600081815261016160209081526040808320815180830183524281528084018781528254600181810185559387528587209251600290910290920191825551908201559383526101639091529020805460ff1916909117905561016954611271908290613135565b61016955610166546040516323b872dd60e01b8152336004820152306024820152604481018390526001600160a01b03909116906323b872dd90606401602060405180830381600087803b1580156112c857600080fd5b505af11580156112dc573d6000803e3d6000fd5b505050506040513d601f19601f820116820180604052508101906113009190612d74565b50610167546040516340c10f1960e01b815233916001600160a01b0316906340c10f19906113349084908690600401612eea565b600060405180830381600087803b15801561134e57600080fd5b505af1158015611362573d6000803e3d6000fd5b50506040518481523392507febedb8b3c678666e7f36970bc8f57abf6d8fa2e828c0da91ea5b75bf68ed101a915060200160405180910390a25050565b336000908152610163602052604090205460ff16151560011480156113c45750600081115b6114445760405162461bcd60e51b815260206004820152604560248201527f5573657220686173206e6f7420696e76657374656420696e207468697320706f60448201527f6f6c206f7220616d6f756e742073686f756c6420626520677265617465722074606482015264068616e20360dc1b608482015260a4016106c0565b60008061144f6122a1565b6101685461145d9190613258565b336000908152610161602052604081209192505b81548110156115b857428383838154811061149c57634e487b7160e01b600052603260045260246000fd5b9060005260206000209060020201600001546114b89190613135565b11611566578181815481106114dd57634e487b7160e01b600052603260045260246000fd5b9060005260206000209060020201600101546101626000336001600160a01b03166001600160a01b0316815260200190815260200160002060008282546115249190613135565b9250508190555081818154811061154b57634e487b7160e01b600052603260045260246000fd5b600091825260208220600290910201818155600101556115a6565b81818154811061158657634e487b7160e01b600052603260045260246000fd5b906000526020600020906002020160010154846115a39190613135565b93505b806115b0816132d1565b915050611471565b5033600090815261016260205260409020546115d485826123bc565b94508481101561164c5760405162461bcd60e51b815260206004820152603c60248201527f576974686472617720616d6f756e7420697320686967686572207468616e206160448201527f6d6f756e7420617661696c61626c6520666f722077697468647261770000000060648201526084016106c0565b33600090815261016260205260408120805487929061166c908490613277565b9091555061167a90506123ef565b15801561169557503360009081526101626020526040902054155b156116b35733600090815261016360205260409020805460ff191690555b60006116be866124fa565b610169549091506116cf9082612520565b6101695560006116e7876116e161252c565b90612520565b90506116f1611f14565b6101695410806116ff575080155b1561170f57600061016a5561173e565b610169546000906117209083612520565b9050611738826108ce611731611f14565b8490611f22565b61016a55505b61016754604051632770a7eb60e21b81526001600160a01b0390911690639dc29fac906117719033908b90600401612eea565b600060405180830381600087803b15801561178b57600080fd5b505af115801561179f573d6000803e3d6000fd5b50506101665460405163a9059cbb60e01b81526001600160a01b03909116925063a9059cbb91506117d69033908690600401612eea565b602060405180830381600087803b1580156117f057600080fd5b505af1158015611804573d6000803e3d6000fd5b505050506040513d601f19601f820116820180604052508101906118289190612d74565b5060405187815233907f85082129d87b2fe11527cb1b3b7a520aeb5aa6913f88a3d8757fe40d1db02fdd9060200160405180910390a250505050505050565b6000611874610bc3612343565b905090565b611881611867565b61189d5760405162461bcd60e51b81526004016106c0906130ea565b6101605460405163170da40760e21b8152600481018390526001600160a01b0390911690635c36901c9060240160206040518083038186803b1580156118e257600080fd5b505afa1580156118f6573d6000803e3d6000fd5b505050506040513d601f19601f8201168201806040525081019061191a9190612d74565b15156001146119795760405162461bcd60e51b815260206004820152602560248201527f4f70706f7274756e697479206973206e6f742061637469766520666f722066756044820152646e64696e6760d81b60648201526084016106c0565b61016054604051637e4dc6d560e01b8152600481018390526000916001600160a01b031690637e4dc6d59060240160206040518083038186803b1580156119bf57600080fd5b505afa1580156119d3573d6000803e3d6000fd5b505050506040513d601f19601f820116820180604052508101906119f79190612c99565b905060008190506000816001600160a01b0316639f964fe66040518163ffffffff1660e01b815260040160206040518083038186803b158015611a3957600080fd5b505afa158015611a4d573d6000803e3d6000fd5b505050506040513d601f19601f82011682018060405250810190611a719190612ddc565b905061016954811115611ac25760405162461bcd60e51b8152602060048201526019602482015278696e73756666696369656e7420506f6f6c2062616c616e636560381b60448201526064016106c0565b8061016954611ad19190613277565b6101695560405163f4d4c9d760e01b815260016004820152602481018290526001600160a01b0383169063f4d4c9d790604401600060405180830381600087803b158015611b1e57600080fd5b505af1158015610992573d6000803e3d6000fd5b600054610100900460ff1615808015611b525750600054600160ff909116105b80611b6c5750303b158015611b6c575060005460ff166001145b611b885760405162461bcd60e51b81526004016106c09061301a565b6000805460ff191660011790558015611bab576000805461ff0019166101001790555b6001600160a01b038216611bfa5760405162461bcd60e51b8152602060048201526016602482015275496e76616c696420636f6e666967206164647265737360501b60448201526064016106c0565b61015f80546001600160a01b0319166001600160a01b038416908117909155600090611c2590612625565b90506001600160a01b038116611c6d5760405162461bcd60e51b815260206004820152600d60248201526c24b73b30b634b21027bbb732b960991b60448201526064016106c0565b61015f54611c83906001600160a01b03166126a6565b61016080546001600160a01b0319166001600160a01b0392909216919091179055611cad81611059565b61015f54611cc3906001600160a01b03166126be565b61016680546001600160a01b0319166001600160a01b0392831617905561015f54611cee91166126d6565b61016780546001600160a01b0319166001600160a01b0392831617905561015f54611d1991166126ee565b6101685550600061016a558015610a47576000805461ff0019169055604051600181527f7f26b83ff96e1f2b6a682f133852f6798a09c465da95921460cefb38474024989060200160405180910390a15050565b611d75611867565b611d915760405162461bcd60e51b81526004016106c0906130ea565b610166546040516370a0823160e01b815283916001600160a01b0316906370a0823190611dc2903090600401612ed6565b60206040518083038186803b158015611dda57600080fd5b505afa158015611dee573d6000803e3d6000fd5b505050506040513d601f19601f82011682018060405250810190611e129190612ddc565b1015611e575760405162461bcd60e51b8152602060048201526014602482015273496e73756666696369656e742042616c616e636560601b60448201526064016106c0565b8161016954611e669190613277565b610169556101665460405163a9059cbb60e01b81526001600160a01b039091169063a9059cbb90611e9d9084908690600401612eea565b602060405180830381600087803b158015611eb757600080fd5b505af1158015611ecb573d6000803e3d6000fd5b505050506040513d601f19601f82011682018060405250810190610a709190612d74565b600082815260656020526040902060010154611f0a81611f4d565b610a708383611fdd565b60006118746006600a6131b0565b6000611f2e8284613258565b9392505050565b6000611f2e828461314d565b6000611f2e8284613135565b610bb58133612768565b611f61828261102e565b610a475760008281526065602090815260408083206001600160a01b03851684529091529020805460ff19166001179055611f993390565b6001600160a01b0316816001600160a01b0316837f2f8788117e7eff1d82e926ec794901d17c78024a50270940304540a733656f0d60405160405180910390a45050565b611fe7828261102e565b15610a475760008281526065602090815260408083206001600160a01b0385168085529252808320805460ff1916905551339285917ff6391f5c32d9c69d2a47ea670b442974b53935d1edc7fd64eb21e047a839171b9190a45050565b60008051602061333c833981519152546001600160a01b031690565b612068611867565b610bb55760405162461bcd60e51b81526004016106c0906130ea565b7f4910fdfa16fed3260ed0e7147f7cc6da11a60208b5b9406d12a635614ffd91435460ff16156120b757610a70836127c1565b826001600160a01b03166352d1902d6040518163ffffffff1660e01b815260040160206040518083038186803b1580156120f057600080fd5b505afa925050508015612120575060408051601f3d908101601f1916820190925261211d91810190612ddc565b60015b6121835760405162461bcd60e51b815260206004820152602e60248201527f45524331393637557067726164653a206e657720696d706c656d656e7461746960448201526d6f6e206973206e6f74205555505360901b60648201526084016106c0565b60008051602061333c83398151915281146121f25760405162461bcd60e51b815260206004820152602960248201527f45524331393637557067726164653a20756e737570706f727465642070726f786044820152681a58589b195555525160ba1b60648201526084016106c0565b50610a7083838361285d565b7f65d7a28e3265b37a6474929f336521b332c1681b933f6cb9f3376673440d862a90565b61222a612888565b6097805460ff191690557f5db9ee0a495bf2e6ff9c91a7834c1ba4fdd244a5e8aa4e537bd38aeae4b073aa335b6040516122649190612ed6565b60405180910390a1565b600054610100900460ff166122955760405162461bcd60e51b81526004016106c09061309f565b6097805460ff19169055565b600061187462015180601e613258565b6122b96128d1565b6097805460ff191660011790557f62e78cea01bee320cd4e420270b5ea74000d11b0c9f74754ebdbfc544b05a2586122573390565b600054610100900460ff16610bed5760405162461bcd60e51b81526004016106c09061309f565b600054610100900460ff1661233c5760405162461bcd60e51b81526004016106c09061309f565b600160c955565b7fa49807205ce4d355092ef5a8a18f56e8913cf4a201fbe287825b095693c2177590565b610a478282611f57565b600082815260656020526040808220600101805490849055905190918391839186917fbd79b86ffe0ab8e8776151514217cd7cacd52c909f66475c3af44e129f0b00ff9190a4505050565b600081831180156123dc57506123d0611f14565b6123da8484612520565b105b156123e85750806105d4565b5090919050565b336000908152610163602052604081205460ff1615156001146124245760405162461bcd60e51b81526004016106c090613068565b3360009081526101616020908152604080832080548251818502810185019093528083528493849084015b828210156124955783829060005260206000209060020201604051806040016040529081600082015481526020016001820154815250508152602001906001019061244f565b50505050905060005b81518110156124f2578181815181106124c757634e487b7160e01b600052603260045260246000fd5b602002602001015160200151836124de9190613135565b9250806124ea816132d1565b91505061249e565b509092915050565b60006105d461251961250a611f14565b61016a546108ce908690611f22565b8390611f41565b6000611f2e8284613277565b610167546000906001600160a01b031661259e5760405162461bcd60e51b815260206004820152602d60248201527f53656e696f7220506f6f6c20436f6e7472616374206e6f7420696e697469616c60448201526c697a65642070726f7065726c7960981b60648201526084016106c0565b61016760009054906101000a90046001600160a01b03166001600160a01b0316633a98ef396040518163ffffffff1660e01b815260040160206040518083038186803b1580156125ed57600080fd5b505afa158015612601573d6000803e3d6000fd5b505050506040513d601f19601f820116820180604052508101906118749190612ddc565b60006001600160a01b03821663b93f9b0a825b6040518263ffffffff1660e01b815260040161265691815260200190565b60206040518083038186803b15801561266e57600080fd5b505afa158015612682573d6000803e3d6000fd5b505050506040513d601f19601f820116820180604052508101906105d49190612c99565b60006001600160a01b03821663b93f9b0a6006612638565b60006001600160a01b03821663b93f9b0a6002612638565b60006001600160a01b03821663b93f9b0a6001612638565b604051631f8ac6cb60e31b81526004818101526000906001600160a01b0383169063fc5636589060240160206040518083038186803b15801561273057600080fd5b505afa158015612744573d6000803e3d6000fd5b505050506040513d601f19601f820116820180604052508101906105d49190612ddc565b612772828261102e565b610a475761277f81612917565b61278a836020612929565b60405160200161279b929190612e67565b60408051601f198184030181529082905262461bcd60e51b82526106c091600401612f03565b6001600160a01b0381163b61282e5760405162461bcd60e51b815260206004820152602d60248201527f455243313936373a206e657720696d706c656d656e746174696f6e206973206e60448201526c1bdd08184818dbdb9d1c9858dd609a1b60648201526084016106c0565b60008051602061333c83398151915280546001600160a01b0319166001600160a01b0392909216919091179055565b61286683612b0b565b6000825111806128735750805b15610a70576128828383612b4b565b50505050565b60975460ff16610bed5760405162461bcd60e51b815260206004820152601460248201527314185d5cd8589b194e881b9bdd081c185d5cd95960621b60448201526064016106c0565b60975460ff1615610bed5760405162461bcd60e51b815260206004820152601060248201526f14185d5cd8589b194e881c185d5cd95960821b60448201526064016106c0565b60606105d46001600160a01b03831660145b60606000612938836002613258565b612943906002613135565b67ffffffffffffffff81111561296957634e487b7160e01b600052604160045260246000fd5b6040519080825280601f01601f191660200182016040528015612993576020820181803683370190505b509050600360fc1b816000815181106129bc57634e487b7160e01b600052603260045260246000fd5b60200101906001600160f81b031916908160001a905350600f60fb1b816001815181106129f957634e487b7160e01b600052603260045260246000fd5b60200101906001600160f81b031916908160001a9053506000612a1d846002613258565b612a28906001613135565b90505b6001811115612abc576f181899199a1a9b1b9c1cb0b131b232b360811b85600f1660108110612a6a57634e487b7160e01b600052603260045260246000fd5b1a60f81b828281518110612a8e57634e487b7160e01b600052603260045260246000fd5b60200101906001600160f81b031916908160001a90535060049490941c93612ab5816132ba565b9050612a2b565b508315611f2e5760405162461bcd60e51b815260206004820181905260248201527f537472696e67733a20686578206c656e67746820696e73756666696369656e7460448201526064016106c0565b612b14816127c1565b6040516001600160a01b038216907fbc7cd75a20ee27fd9adebab32041f755214dbc6bffa90cc0225b39da2e5c2d3b90600090a250565b60606001600160a01b0383163b612bb35760405162461bcd60e51b815260206004820152602660248201527f416464726573733a2064656c65676174652063616c6c20746f206e6f6e2d636f6044820152651b9d1c9858dd60d21b60648201526084016106c0565b600080846001600160a01b031684604051612bce9190612e4b565b600060405180830381855af49150503d8060008114612c09576040519150601f19603f3d011682016040523d82523d6000602084013e612c0e565b606091505b5091509150612c36828260405180606001604052806027815260200161335c60279139612c3f565b95945050505050565b60608315612c4e575081611f2e565b611f2e8383815115612c635781518083602001fd5b8060405162461bcd60e51b81526004016106c09190612f03565b600060208284031215612c8e578081fd5b8135611f2e81613318565b600060208284031215612caa578081fd5b8151611f2e81613318565b60008060408385031215612cc7578081fd5b8235612cd281613318565b9150602083013567ffffffffffffffff80821115612cee578283fd5b818501915085601f830112612d01578283fd5b813581811115612d1357612d13613302565b604051601f8201601f19908116603f01168101908382118183101715612d3b57612d3b613302565b81604052828152886020848701011115612d53578586fd5b82602086016020830137856020848301015280955050505050509250929050565b600060208284031215612d85578081fd5b8151611f2e8161332d565b600080600060608486031215612da4578081fd5b8335612daf8161332d565b95602085013595506040909401359392505050565b600060208284031215612dd5578081fd5b5035919050565b600060208284031215612ded578081fd5b5051919050565b60008060408385031215612e06578182fd5b823591506020830135612e1881613318565b809150509250929050565b600060208284031215612e34578081fd5b81356001600160e01b031981168114611f2e578182fd5b60008251612e5d81846020870161328e565b9190910192915050565b76020b1b1b2b9b9a1b7b73a3937b61d1030b1b1b7bab73a1604d1b815260008351612e9981601785016020880161328e565b7001034b99036b4b9b9b4b733903937b6329607d1b6017918401918201528351612eca81602884016020880161328e565b01602801949350505050565b6001600160a01b0391909116815260200190565b6001600160a01b03929092168252602082015260400190565b6020815260008251806020840152612f2281604085016020870161328e565b601f01601f19169190910160400192915050565b6020808252602c908201527f4d75737420686176652070617573657220726f6c6520746f20706572666f726d60408201526b103a3434b99030b1ba34b7b760a11b606082015260800190565b6020808252602c908201527f46756e6374696f6e206d7573742062652063616c6c6564207468726f7567682060408201526b19195b1959d85d1958d85b1b60a21b606082015260800190565b6020808252602c908201527f46756e6374696f6e206d7573742062652063616c6c6564207468726f7567682060408201526b6163746976652070726f787960a01b606082015260800190565b6020808252602e908201527f496e697469616c697a61626c653a20636f6e747261637420697320616c72656160408201526d191e481a5b9a5d1a585b1a5e995960921b606082015260800190565b6020808252601e908201527f5573657220686173206e6f74207374616b656420616e7920616d6f756e740000604082015260600190565b6020808252602b908201527f496e697469616c697a61626c653a20636f6e7472616374206973206e6f74206960408201526a6e697469616c697a696e6760a81b606082015260800190565b6020808252602b908201527f4d75737420686176652061646d696e20726f6c6520746f20706572666f726d2060408201526a3a3434b99030b1ba34b7b760a91b606082015260800190565b60008219821115613148576131486132ec565b500190565b60008261316857634e487b7160e01b81526012600452602481fd5b500490565b600181815b808511156131a857816000190482111561318e5761318e6132ec565b8085161561319b57918102915b93841c9390800290613172565b509250929050565b6000611f2e83836000826131c6575060016105d4565b816131d3575060006105d4565b81600181146131e957600281146131f35761320f565b60019150506105d4565b60ff841115613204576132046132ec565b50506001821b6105d4565b5060208310610133831016604e8410600b8410161715613232575081810a6105d4565b61323c838361316d565b8060001904821115613250576132506132ec565b029392505050565b6000816000190483118215151615613272576132726132ec565b500290565b600082821015613289576132896132ec565b500390565b60005b838110156132a9578181015183820152602001613291565b838111156128825750506000910152565b6000816132c9576132c96132ec565b506000190190565b60006000198214156132e5576132e56132ec565b5060010190565b634e487b7160e01b600052601160045260246000fd5b634e487b7160e01b600052604160045260246000fd5b6001600160a01b0381168114610bb557600080fd5b8015158114610bb557600080fdfe360894a13ba1a3210667c828492db98dca3e2076cc3735a920a3ca505d382bbc416464726573733a206c6f772d6c6576656c2064656c65676174652063616c6c206661696c6564a264697066735822122013eb618544bf5e0c05a39cc4ab54afa077115c8916b04ea5abd9168f9d393cda64736f6c63430008040033",
  "linkReferences": {},
  "deployedLinkReferences": {}
}