{
  "_format": "hh-sol-artifact-1",
  "contractName": "SeniorPool",
  "sourceName": "contracts/protocol/SeniorPool.sol",
  "abi": [
    {
      "anonymous": false,
      "inputs": [
        {
          "indexed": false,
          "internalType": "address",
          "name": "previousAdmin",
          "type": "address"
        },
        {
          "indexed": false,
          "internalType": "address",
          "name": "newAdmin",
          "type": "address"
        }
      ],
      "name": "AdminChanged",
      "type": "event"
    },
    {
      "anonymous": false,
      "inputs": [
        {
          "indexed": true,
          "internalType": "address",
          "name": "beacon",
          "type": "address"
        }
      ],
      "name": "BeaconUpgraded",
      "type": "event"
    },
    {
      "anonymous": false,
      "inputs": [
        {
          "indexed": false,
          "internalType": "uint8",
          "name": "version",
          "type": "uint8"
        }
      ],
      "name": "Initialized",
      "type": "event"
    },
    {
      "anonymous": false,
      "inputs": [
        {
          "indexed": false,
          "internalType": "address",
          "name": "account",
          "type": "address"
        }
      ],
      "name": "Paused",
      "type": "event"
    },
    {
      "anonymous": false,
      "inputs": [
        {
          "indexed": true,
          "internalType": "bytes32",
          "name": "role",
          "type": "bytes32"
        },
        {
          "indexed": true,
          "internalType": "bytes32",
          "name": "previousAdminRole",
          "type": "bytes32"
        },
        {
          "indexed": true,
          "internalType": "bytes32",
          "name": "newAdminRole",
          "type": "bytes32"
        }
      ],
      "name": "RoleAdminChanged",
      "type": "event"
    },
    {
      "anonymous": false,
      "inputs": [
        {
          "indexed": true,
          "internalType": "bytes32",
          "name": "role",
          "type": "bytes32"
        },
        {
          "indexed": true,
          "internalType": "address",
          "name": "account",
          "type": "address"
        },
        {
          "indexed": true,
          "internalType": "address",
          "name": "sender",
          "type": "address"
        }
      ],
      "name": "RoleGranted",
      "type": "event"
    },
    {
      "anonymous": false,
      "inputs": [
        {
          "indexed": true,
          "internalType": "bytes32",
          "name": "role",
          "type": "bytes32"
        },
        {
          "indexed": true,
          "internalType": "address",
          "name": "account",
          "type": "address"
        },
        {
          "indexed": true,
          "internalType": "address",
          "name": "sender",
          "type": "address"
        }
      ],
      "name": "RoleRevoked",
      "type": "event"
    },
    {
      "anonymous": false,
      "inputs": [
        {
          "indexed": true,
          "internalType": "address",
          "name": "from",
          "type": "address"
        },
        {
          "indexed": false,
          "internalType": "uint256",
          "name": "amount",
          "type": "uint256"
        }
      ],
      "name": "Stake",
      "type": "event"
    },
    {
      "anonymous": false,
      "inputs": [
        {
          "indexed": false,
          "internalType": "address",
          "name": "account",
          "type": "address"
        }
      ],
      "name": "Unpaused",
      "type": "event"
    },
    {
      "anonymous": false,
      "inputs": [
        {
          "indexed": true,
          "internalType": "address",
          "name": "from",
          "type": "address"
        },
        {
          "indexed": false,
          "internalType": "uint256",
          "name": "amount",
          "type": "uint256"
        }
      ],
      "name": "Unstake",
      "type": "event"
    },
    {
      "anonymous": false,
      "inputs": [
        {
          "indexed": true,
          "internalType": "address",
          "name": "implementation",
          "type": "address"
        }
      ],
      "name": "Upgraded",
      "type": "event"
    },
    {
      "anonymous": false,
      "inputs": [
        {
          "indexed": true,
          "internalType": "address",
          "name": "to",
          "type": "address"
        },
        {
          "indexed": false,
          "internalType": "uint256",
          "name": "amount",
          "type": "uint256"
        }
      ],
      "name": "YieldWithdraw",
      "type": "event"
    },
    {
      "inputs": [],
      "name": "ADMIN_ROLE",
      "outputs": [
        {
          "internalType": "bytes32",
          "name": "",
          "type": "bytes32"
        }
      ],
      "stateMutability": "view",
      "type": "function"
    },
    {
      "inputs": [],
      "name": "DEFAULT_ADMIN_ROLE",
      "outputs": [
        {
          "internalType": "bytes32",
          "name": "",
          "type": "bytes32"
        }
      ],
      "stateMutability": "view",
      "type": "function"
    },
    {
      "inputs": [],
      "name": "PAUSER_ROLE",
      "outputs": [
        {
          "internalType": "bytes32",
          "name": "",
          "type": "bytes32"
        }
      ],
      "stateMutability": "view",
      "type": "function"
    },
    {
      "inputs": [
        {
          "internalType": "address",
          "name": "owner",
          "type": "address"
        }
      ],
      "name": "_BaseUpgradeablePausable_init",
      "outputs": [],
      "stateMutability": "nonpayable",
      "type": "function"
    },
    {
      "inputs": [],
      "name": "__PauserPausable__init",
      "outputs": [],
      "stateMutability": "nonpayable",
      "type": "function"
    },
    {
      "inputs": [
        {
          "internalType": "address",
          "name": "user",
          "type": "address"
        }
      ],
      "name": "approveUSDC",
      "outputs": [],
      "stateMutability": "nonpayable",
      "type": "function"
    },
    {
      "inputs": [],
      "name": "contractName",
      "outputs": [
        {
          "internalType": "string",
          "name": "",
          "type": "string"
        }
      ],
      "stateMutability": "view",
      "type": "function"
    },
    {
      "inputs": [],
      "name": "getDefaultLockinMonths",
      "outputs": [
        {
          "internalType": "uint256",
          "name": "",
          "type": "uint256"
        }
      ],
      "stateMutability": "view",
      "type": "function"
    },
    {
      "inputs": [
        {
          "internalType": "bytes32",
          "name": "role",
          "type": "bytes32"
        }
      ],
      "name": "getRoleAdmin",
      "outputs": [
        {
          "internalType": "bytes32",
          "name": "",
          "type": "bytes32"
        }
      ],
      "stateMutability": "view",
      "type": "function"
    },
    {
      "inputs": [],
      "name": "getUserInvestment",
      "outputs": [
        {
          "internalType": "uint256",
          "name": "withdrawableAmt",
          "type": "uint256"
        },
        {
          "internalType": "uint256",
          "name": "stakingAmt",
          "type": "uint256"
        }
      ],
      "stateMutability": "view",
      "type": "function"
    },
    {
      "inputs": [
        {
          "internalType": "bytes32",
          "name": "role",
          "type": "bytes32"
        },
        {
          "internalType": "address",
          "name": "account",
          "type": "address"
        }
      ],
      "name": "grantRole",
      "outputs": [],
      "stateMutability": "nonpayable",
      "type": "function"
    },
    {
      "inputs": [
        {
          "internalType": "bytes32",
          "name": "role",
          "type": "bytes32"
        },
        {
          "internalType": "address",
          "name": "account",
          "type": "address"
        }
      ],
      "name": "hasRole",
      "outputs": [
        {
          "internalType": "bool",
          "name": "",
          "type": "bool"
        }
      ],
      "stateMutability": "view",
      "type": "function"
    },
    {
      "inputs": [
        {
          "internalType": "contract DygnifyConfig",
          "name": "_dygnifyConfig",
          "type": "address"
        }
      ],
      "name": "initialize",
      "outputs": [],
      "stateMutability": "nonpayable",
      "type": "function"
    },
    {
      "inputs": [
        {
          "internalType": "bytes32",
          "name": "opportunityId",
          "type": "bytes32"
        }
      ],
      "name": "invest",
      "outputs": [],
      "stateMutability": "nonpayable",
      "type": "function"
    },
    {
      "inputs": [],
      "name": "investmentLockinInMonths",
      "outputs": [
        {
          "internalType": "uint256",
          "name": "",
          "type": "uint256"
        }
      ],
      "stateMutability": "view",
      "type": "function"
    },
    {
      "inputs": [],
      "name": "isAdmin",
      "outputs": [
        {
          "internalType": "bool",
          "name": "",
          "type": "bool"
        }
      ],
      "stateMutability": "view",
      "type": "function"
    },
    {
      "inputs": [
        {
          "internalType": "address",
          "name": "",
          "type": "address"
        }
      ],
      "name": "isStaking",
      "outputs": [
        {
          "internalType": "bool",
          "name": "",
          "type": "bool"
        }
      ],
      "stateMutability": "view",
      "type": "function"
    },
    {
      "inputs": [
        {
          "internalType": "address",
          "name": "",
          "type": "address"
        }
      ],
      "name": "kycOf",
      "outputs": [
        {
          "internalType": "bool",
          "name": "isDoucument",
          "type": "bool"
        },
        {
          "internalType": "bool",
          "name": "isLiveliness",
          "type": "bool"
        },
        {
          "internalType": "bool",
          "name": "isAddress",
          "type": "bool"
        },
        {
          "internalType": "bool",
          "name": "isAML",
          "type": "bool"
        },
        {
          "internalType": "bool",
          "name": "imageHash",
          "type": "bool"
        },
        {
          "internalType": "bool",
          "name": "result",
          "type": "bool"
        }
      ],
      "stateMutability": "view",
      "type": "function"
    },
    {
      "inputs": [],
      "name": "oneMonth",
      "outputs": [
        {
          "internalType": "uint256",
          "name": "",
          "type": "uint256"
        }
      ],
      "stateMutability": "view",
      "type": "function"
    },
    {
      "inputs": [],
      "name": "oneday",
      "outputs": [
        {
          "internalType": "uint256",
          "name": "",
          "type": "uint256"
        }
      ],
      "stateMutability": "view",
      "type": "function"
    },
    {
      "inputs": [],
      "name": "pause",
      "outputs": [],
      "stateMutability": "nonpayable",
      "type": "function"
    },
    {
      "inputs": [],
      "name": "paused",
      "outputs": [
        {
          "internalType": "bool",
          "name": "",
          "type": "bool"
        }
      ],
      "stateMutability": "view",
      "type": "function"
    },
    {
      "inputs": [],
      "name": "proxiableUUID",
      "outputs": [
        {
          "internalType": "bytes32",
          "name": "",
          "type": "bytes32"
        }
      ],
      "stateMutability": "view",
      "type": "function"
    },
    {
      "inputs": [
        {
          "internalType": "bytes32",
          "name": "role",
          "type": "bytes32"
        },
        {
          "internalType": "address",
          "name": "account",
          "type": "address"
        }
      ],
      "name": "renounceRole",
      "outputs": [],
      "stateMutability": "nonpayable",
      "type": "function"
    },
    {
      "inputs": [
        {
          "internalType": "bytes32",
          "name": "role",
          "type": "bytes32"
        },
        {
          "internalType": "address",
          "name": "account",
          "type": "address"
        }
      ],
      "name": "revokeRole",
      "outputs": [],
      "stateMutability": "nonpayable",
      "type": "function"
    },
    {
      "inputs": [],
      "name": "seniorPoolBal",
      "outputs": [
        {
          "internalType": "uint256",
          "name": "",
          "type": "uint256"
        }
      ],
      "stateMutability": "view",
      "type": "function"
    },
    {
      "inputs": [],
      "name": "sharePrice",
      "outputs": [
        {
          "internalType": "uint256",
          "name": "",
          "type": "uint256"
        }
      ],
      "stateMutability": "view",
      "type": "function"
    },
    {
      "inputs": [
        {
          "internalType": "uint256",
          "name": "amount",
          "type": "uint256"
        }
      ],
      "name": "stake",
      "outputs": [],
      "stateMutability": "nonpayable",
      "type": "function"
    },
    {
      "inputs": [
        {
          "internalType": "bytes4",
          "name": "interfaceId",
          "type": "bytes4"
        }
      ],
      "name": "supportsInterface",
      "outputs": [
        {
          "internalType": "bool",
          "name": "",
          "type": "bool"
        }
      ],
      "stateMutability": "view",
      "type": "function"
    },
    {
      "inputs": [],
      "name": "unpause",
      "outputs": [],
      "stateMutability": "nonpayable",
      "type": "function"
    },
    {
      "inputs": [
        {
          "internalType": "address",
          "name": "newImplementation",
          "type": "address"
        }
      ],
      "name": "upgradeTo",
      "outputs": [],
      "stateMutability": "nonpayable",
      "type": "function"
    },
    {
      "inputs": [
        {
          "internalType": "address",
          "name": "newImplementation",
          "type": "address"
        },
        {
          "internalType": "bytes",
          "name": "data",
          "type": "bytes"
        }
      ],
      "name": "upgradeToAndCall",
      "outputs": [],
      "stateMutability": "payable",
      "type": "function"
    },
    {
      "inputs": [
        {
          "internalType": "bytes32",
          "name": "opportunityId",
          "type": "bytes32"
        }
      ],
      "name": "withDrawFromOpportunity",
      "outputs": [],
      "stateMutability": "nonpayable",
      "type": "function"
    },
    {
      "inputs": [
        {
          "internalType": "uint256",
          "name": "amount",
          "type": "uint256"
        },
        {
          "internalType": "address",
          "name": "_receiver",
          "type": "address"
        }
      ],
      "name": "withdrawTo",
      "outputs": [],
      "stateMutability": "nonpayable",
      "type": "function"
    },
    {
      "inputs": [
        {
          "internalType": "uint256",
          "name": "amount",
          "type": "uint256"
        }
      ],
      "name": "withdrawWithLP",
      "outputs": [],
      "stateMutability": "nonpayable",
      "type": "function"
    }
  ],
  "bytecode": "0x3060601b60805260e0604052600b60a08190526a14d95b9a5bdc88141bdbdb60aa1b60c0908152620000369161016591906200004b565b503480156200004457600080fd5b506200012e565b8280546200005990620000f1565b90600052602060002090601f0160209004810192826200007d5760008555620000c8565b82601f106200009857805160ff1916838001178555620000c8565b82800160010185558215620000c8579182015b82811115620000c8578251825591602001919060010190620000ab565b50620000d6929150620000da565b5090565b5b80821115620000d65760008155600101620000db565b600181811c908216806200010657607f821691505b602082108114156200012857634e487b7160e01b600052602260045260246000fd5b50919050565b60805160601c613b0662000169600039600081816109e701528181610a6c01528181610c0001528181610c850152610e8a0152613b066000f3fe6080604052600436106102345760003560e01c806375d0c0dc11610138578063a972f0a0116100b0578063c86283c81161007f578063d547741f11610064578063d547741f146106ea578063e63ab1e91461070a578063f92496b61461073e57600080fd5b8063c86283c8146106b5578063c8b18b5b146106d557600080fd5b8063a972f0a014610611578063b6db75a014610631578063c257600414610675578063c4d66de81461069557600080fd5b80638726972911610107578063a12dde4d116100ec578063a12dde4d146105bc578063a217fddf146105dc578063a694fc3a146105f157600080fd5b8063872697291461055f57806391d148541461057657600080fd5b806375d0c0dc146104f157806376797d3a1461051357806383f012a91461052a5780638456cb591461054a57600080fd5b806341434351116101cb57806352d1902d1161019a57806361c030ab1161017f57806361c030ab146104625780636f49712b1461048c57806375b238fc146104bd57600080fd5b806352d1902d146104355780635c975abb1461044a57600080fd5b806341434351146103e057806345e88089146103f75780634f1ef2861461040d578063526d81f61461042057600080fd5b806336568abe1161020757806336568abe146102ee5780633659cfe61461030e5780633968e6221461032e5780633f4ba83a146103cb57600080fd5b806301ffc9a71461023957806323fe5e5a1461026e578063248a9ca3146102905780632f2ff15d146102ce575b600080fd5b34801561024557600080fd5b50610259610254366004613766565b610755565b60405190151581526020015b60405180910390f35b34801561027a57600080fd5b5061028e6102893660046135f0565b6107ee565b005b34801561029c57600080fd5b506102c06102ab366004613707565b60009081526065602052604090206001015490565b604051908152602001610265565b3480156102da57600080fd5b5061028e6102e9366004613737565b61092a565b3480156102fa57600080fd5b5061028e610309366004613737565b610954565b34801561031a57600080fd5b5061028e6103293660046135f0565b6109dc565b34801561033a57600080fd5b506103926103493660046135f0565b61016b6020526000908152604090205460ff8082169161010081048216916201000082048116916301000000810482169164010000000082048116916501000000000090041686565b604080519615158752941515602087015292151593850193909352151560608401529015156080830152151560a082015260c001610265565b3480156103d757600080fd5b5061028e610b58565b3480156103ec57600080fd5b506102c06201518081565b34801561040357600080fd5b50610168546102c0565b61028e61041b366004613628565b610bf5565b34801561042c57600080fd5b5061028e610d5e565b34801561044157600080fd5b506102c0610e7d565b34801561045657600080fd5b5060975460ff16610259565b34801561046e57600080fd5b50610477610f42565b60408051928352602083019190915201610265565b34801561049857600080fd5b506102596104a73660046135f0565b6101636020526000908152604090205460ff1681565b3480156104c957600080fd5b506102c07fa49807205ce4d355092ef5a8a18f56e8913cf4a201fbe287825b095693c2177581565b3480156104fd57600080fd5b5061050661115a565b6040516102659190613843565b34801561051f57600080fd5b506102c06101695481565b34801561053657600080fd5b5061028e610545366004613707565b6111e9565b34801561055657600080fd5b5061028e6115f4565b34801561056b57600080fd5b506102c061016a5481565b34801561058257600080fd5b50610259610591366004613737565b60009182526065602090815260408084206001600160a01b0393909316845291905290205460ff1690565b3480156105c857600080fd5b5061028e6105d73660046135f0565b61168f565b3480156105e857600080fd5b506102c0600081565b3480156105fd57600080fd5b5061028e61060c366004613707565b611830565b34801561061d57600080fd5b5061028e61062c366004613707565b611ad0565b34801561063d57600080fd5b503360009081527f2c01dc0041dfb6d4238a91e5a638996136aed16f837d5beb45610732cf9bf4b0602052604090205460ff16610259565b34801561068157600080fd5b5061028e610690366004613707565b611f46565b3480156106a157600080fd5b5061028e6106b03660046135f0565b6122c5565b3480156106c157600080fd5b5061028e6106d0366004613737565b61256d565b3480156106e157600080fd5b506102c0612763565b3480156106f657600080fd5b5061028e610705366004613737565b612774565b34801561071657600080fd5b506102c07f65d7a28e3265b37a6474929f336521b332c1681b933f6cb9f3376673440d862a81565b34801561074a57600080fd5b506102c06101685481565b60007fffffffff0000000000000000000000000000000000000000000000000000000082167f7965db0b0000000000000000000000000000000000000000000000000000000014806107e857507f01ffc9a7000000000000000000000000000000000000000000000000000000007fffffffff000000000000000000000000000000000000000000000000000000008316145b92915050565b3360009081527f2c01dc0041dfb6d4238a91e5a638996136aed16f837d5beb45610732cf9bf4b0602052604090205460ff166108855760405162461bcd60e51b815260206004820152602b60248201527f4d75737420686176652061646d696e20726f6c6520746f20706572666f726d2060448201526a3a3434b99030b1ba34b7b760a91b60648201526084015b60405180910390fd5b610166546040517f095ea7b30000000000000000000000000000000000000000000000000000000081526001600160a01b03838116600483015260001960248301529091169063095ea7b390604401602060405180830381600087803b1580156108ee57600080fd5b505af1158015610902573d6000803e3d6000fd5b505050506040513d601f19601f8201168201806040525081019061092691906136e7565b5050565b60008281526065602052604090206001015461094581612799565b61094f83836127a3565b505050565b6001600160a01b03811633146109d25760405162461bcd60e51b815260206004820152602f60248201527f416363657373436f6e74726f6c3a2063616e206f6e6c792072656e6f756e636560448201527f20726f6c657320666f722073656c660000000000000000000000000000000000606482015260840161087c565b6109268282612845565b306001600160a01b037f0000000000000000000000000000000000000000000000000000000000000000161415610a6a5760405162461bcd60e51b815260206004820152602c60248201527f46756e6374696f6e206d7573742062652063616c6c6564207468726f7567682060448201526b19195b1959d85d1958d85b1b60a21b606482015260840161087c565b7f00000000000000000000000000000000000000000000000000000000000000006001600160a01b0316610ac57f360894a13ba1a3210667c828492db98dca3e2076cc3735a920a3ca505d382bbc546001600160a01b031690565b6001600160a01b031614610b305760405162461bcd60e51b815260206004820152602c60248201527f46756e6374696f6e206d7573742062652063616c6c6564207468726f7567682060448201526b6163746976652070726f787960a01b606482015260840161087c565b610b39816128c8565b60408051600080825260208201909252610b559183919061295a565b50565b3360009081527fbfe93621c6aa2dbf737e9056c9b79e4d30ee4f6b28b18be2cb71aac8a7bf258e602052604090205460ff16610beb5760405162461bcd60e51b815260206004820152602c60248201527f4d75737420686176652070617573657220726f6c6520746f20706572666f726d60448201526b103a3434b99030b1ba34b7b760a11b606482015260840161087c565b610bf3612b09565b565b306001600160a01b037f0000000000000000000000000000000000000000000000000000000000000000161415610c835760405162461bcd60e51b815260206004820152602c60248201527f46756e6374696f6e206d7573742062652063616c6c6564207468726f7567682060448201526b19195b1959d85d1958d85b1b60a21b606482015260840161087c565b7f00000000000000000000000000000000000000000000000000000000000000006001600160a01b0316610cde7f360894a13ba1a3210667c828492db98dca3e2076cc3735a920a3ca505d382bbc546001600160a01b031690565b6001600160a01b031614610d495760405162461bcd60e51b815260206004820152602c60248201527f46756e6374696f6e206d7573742062652063616c6c6564207468726f7567682060448201526b6163746976652070726f787960a01b606482015260840161087c565b610d52826128c8565b6109268282600161295a565b600054610100900460ff1615808015610d7e5750600054600160ff909116105b80610d985750303b158015610d98575060005460ff166001145b610e0a5760405162461bcd60e51b815260206004820152602e60248201527f496e697469616c697a61626c653a20636f6e747261637420697320616c72656160448201527f647920696e697469616c697a6564000000000000000000000000000000000000606482015260840161087c565b6000805460ff191660011790558015610e2d576000805461ff0019166101001790555b610e35612b5b565b8015610b55576000805461ff0019169055604051600181527f7f26b83ff96e1f2b6a682f133852f6798a09c465da95921460cefb38474024989060200160405180910390a150565b6000306001600160a01b037f00000000000000000000000000000000000000000000000000000000000000001614610f1d5760405162461bcd60e51b815260206004820152603860248201527f555550535570677261646561626c653a206d757374206e6f742062652063616c60448201527f6c6564207468726f7567682064656c656761746563616c6c0000000000000000606482015260840161087c565b507f360894a13ba1a3210667c828492db98dca3e2076cc3735a920a3ca505d382bbc90565b3360009081526101636020526040812054819060ff161515600114610fa95760405162461bcd60e51b815260206004820152601e60248201527f5573657220686173206e6f74207374616b656420616e7920616d6f756e740000604482015260640161087c565b60008080610fbb62015180601e613999565b61016854610fc99190613999565b3360009081526101616020908152604080832080548251818502810185019093528083529495509293909291849084015b8282101561104057838290600052602060002090600202016040518060400160405290816000820154815260200160018201548152505081526020019060010190610ffa565b50505050905060005b815181101561111957428383838151811061107457634e487b7160e01b600052603260045260246000fd5b60200260200101516000015161108a9190613876565b116110cd578181815181106110af57634e487b7160e01b600052603260045260246000fd5b602002602001015160200151846110c69190613876565b9350611107565b8181815181106110ed57634e487b7160e01b600052603260045260246000fd5b602002602001015160200151856111049190613876565b94505b8061111181613a4d565b915050611049565b5033600090815261016260205260409020541561114e57336000908152610162602052604090205461114b9084613876565b92505b50909491935090915050565b610165805461116890613a12565b80601f016020809104026020016040519081016040528092919081815260200182805461119490613a12565b80156111e15780601f106111b6576101008083540402835291602001916111e1565b820191906000526020600020905b8154815290600101906020018083116111c457829003601f168201915b505050505081565b3360009081527f2c01dc0041dfb6d4238a91e5a638996136aed16f837d5beb45610732cf9bf4b0602052604090205460ff1661127b5760405162461bcd60e51b815260206004820152602b60248201527f4d75737420686176652061646d696e20726f6c6520746f20706572666f726d2060448201526a3a3434b99030b1ba34b7b760a91b606482015260840161087c565b610160546040517f81767155000000000000000000000000000000000000000000000000000000008152600481018390526001600160a01b039091169063817671559060240160206040518083038186803b1580156112d957600080fd5b505afa1580156112ed573d6000803e3d6000fd5b505050506040513d601f19601f8201168201806040525081019061131191906136e7565b15156001146113885760405162461bcd60e51b815260206004820152602660248201527f4f70706f7274756e697479206973206e6f742072657061696420627920626f7260448201527f726f7765722e0000000000000000000000000000000000000000000000000000606482015260840161087c565b61016054604051637e4dc6d560e01b8152600481018390526000916001600160a01b031690637e4dc6d59060240160206040518083038186803b1580156113ce57600080fd5b505afa1580156113e2573d6000803e3d6000fd5b505050506040513d601f19601f82011682018060405250810190611406919061360c565b905060008190506000816001600160a01b031663d661d3206040518163ffffffff1660e01b815260040160206040518083038186803b15801561144857600080fd5b505afa15801561145c573d6000803e3d6000fd5b505050506040513d601f19601f82011682018060405250810190611480919061371f565b9050600061016760009054906101000a90046001600160a01b03166001600160a01b0316633a98ef396040518163ffffffff1660e01b815260040160206040518083038186803b1580156114d357600080fd5b505afa1580156114e7573d6000803e3d6000fd5b505050506040513d601f19601f8201168201806040525081019061150b919061371f565b9050600061152b8261152561151e612bd2565b8690612be0565b90612bf3565b61016a5490915061153c9082612bff565b61016a556040517f53654e85000000000000000000000000000000000000000000000000000000008152600160048201526000906001600160a01b038616906353654e8590602401602060405180830381600087803b15801561159e57600080fd5b505af11580156115b2573d6000803e3d6000fd5b505050506040513d601f19601f820116820180604052508101906115d6919061371f565b905080610169546115e79190613876565b6101695550505050505050565b3360009081527fbfe93621c6aa2dbf737e9056c9b79e4d30ee4f6b28b18be2cb71aac8a7bf258e602052604090205460ff166116875760405162461bcd60e51b815260206004820152602c60248201527f4d75737420686176652070617573657220726f6c6520746f20706572666f726d60448201526b103a3434b99030b1ba34b7b760a11b606482015260840161087c565b610bf3612c0b565b600054610100900460ff166116fa5760405162461bcd60e51b815260206004820152602b60248201527f496e697469616c697a61626c653a20636f6e7472616374206973206e6f74206960448201526a6e697469616c697a696e6760a81b606482015260840161087c565b6001600160a01b0381166117505760405162461bcd60e51b815260206004820181905260248201527f4f776e65722063616e6e6f7420626520746865207a65726f2061646472657373604482015260640161087c565b611758612c48565b611760612b5b565b611768612cb3565b6117927fa49807205ce4d355092ef5a8a18f56e8913cf4a201fbe287825b095693c2177582612d25565b6117bc7f65d7a28e3265b37a6474929f336521b332c1681b933f6cb9f3376673440d862a82612d25565b6118067f65d7a28e3265b37a6474929f336521b332c1681b933f6cb9f3376673440d862a7fa49807205ce4d355092ef5a8a18f56e8913cf4a201fbe287825b095693c21775612d2f565b610b557fa49807205ce4d355092ef5a8a18f56e8913cf4a201fbe287825b095693c2177580612d2f565b6000811180156118ba5750610166546040516370a0823160e01b815233600482015282916001600160a01b0316906370a082319060240160206040518083038186803b15801561187f57600080fd5b505afa158015611893573d6000803e3d6000fd5b505050506040513d601f19601f820116820180604052508101906118b7919061371f565b10155b6119065760405162461bcd60e51b815260206004820152601c60248201527f596f752063616e6e6f74207374616b65207a65726f20746f6b656e7300000000604482015260640161087c565b33600081815261016160209081526040808320815180830183524281528084018781528254600181810185559387528587209251600290910290920191825551908201559383526101639091529020805460ff191690911790556101695461196f908290613876565b61016955610166546040517f23b872dd000000000000000000000000000000000000000000000000000000008152336004820152306024820152604481018390526001600160a01b03909116906323b872dd90606401602060405180830381600087803b1580156119df57600080fd5b505af11580156119f3573d6000803e3d6000fd5b505050506040513d601f19601f82011682018060405250810190611a1791906136e7565b50610167546040517f40c10f19000000000000000000000000000000000000000000000000000000008152336004820181905260248201849052916001600160a01b0316906340c10f1990604401600060405180830381600087803b158015611a7f57600080fd5b505af1158015611a93573d6000803e3d6000fd5b50506040518481523392507febedb8b3c678666e7f36970bc8f57abf6d8fa2e828c0da91ea5b75bf68ed101a915060200160405180910390a25050565b336000908152610163602052604090205460ff1615156001148015611af55750600081115b611b8d5760405162461bcd60e51b815260206004820152604560248201527f5573657220686173206e6f7420696e76657374656420696e207468697320706f60448201527f6f6c206f7220616d6f756e742073686f756c642062652067726561746572207460648201527f68616e2030000000000000000000000000000000000000000000000000000000608482015260a40161087c565b600080611b9e62015180601e613999565b61016854611bac9190613999565b336000908152610161602052604081209192505b8154811015611d07574283838381548110611beb57634e487b7160e01b600052603260045260246000fd5b906000526020600020906002020160000154611c079190613876565b11611cb557818181548110611c2c57634e487b7160e01b600052603260045260246000fd5b9060005260206000209060020201600101546101626000336001600160a01b03166001600160a01b031681526020019081526020016000206000828254611c739190613876565b92505081905550818181548110611c9a57634e487b7160e01b600052603260045260246000fd5b60009182526020822060029091020181815560010155611cf5565b818181548110611cd557634e487b7160e01b600052603260045260246000fd5b90600052602060002090600202016001015484611cf29190613876565b93505b80611cff81613a4d565b915050611bc0565b503360009081526101626020526040902054841115611d8e5760405162461bcd60e51b815260206004820152603c60248201527f576974686472617720616d6f756e7420697320686967686572207468616e206160448201527f6d6f756e7420617661696c61626c6520666f7220776974686472617700000000606482015260840161087c565b336000908152610162602052604081208054869290611dae9084906139b8565b90915550611dbc9050612d7a565b158015611dd757503360009081526101626020526040902054155b15611df55733600090815261016360205260409020805460ff191690555b610167546040517f9dc29fac000000000000000000000000000000000000000000000000000000008152336004820152602481018690526001600160a01b0390911690639dc29fac90604401600060405180830381600087803b158015611e5b57600080fd5b505af1158015611e6f573d6000803e3d6000fd5b505050506000611e7e85612eb5565b6101665460405163a9059cbb60e01b8152336004820152602481018390529192506001600160a01b03169063a9059cbb90604401602060405180830381600087803b158015611ecc57600080fd5b505af1158015611ee0573d6000803e3d6000fd5b505050506040513d601f19601f82011682018060405250810190611f0491906136e7565b5060405185815233907f85082129d87b2fe11527cb1b3b7a520aeb5aa6913f88a3d8757fe40d1db02fdd9060200160405180910390a25050505050565b905090565b3360009081527f2c01dc0041dfb6d4238a91e5a638996136aed16f837d5beb45610732cf9bf4b0602052604090205460ff16611fd85760405162461bcd60e51b815260206004820152602b60248201527f4d75737420686176652061646d696e20726f6c6520746f20706572666f726d2060448201526a3a3434b99030b1ba34b7b760a91b606482015260840161087c565b610160546040517f5c36901c000000000000000000000000000000000000000000000000000000008152600481018390526001600160a01b0390911690635c36901c9060240160206040518083038186803b15801561203657600080fd5b505afa15801561204a573d6000803e3d6000fd5b505050506040513d601f19601f8201168201806040525081019061206e91906136e7565b15156001146120e55760405162461bcd60e51b815260206004820152602560248201527f4f70706f7274756e697479206973206e6f742061637469766520666f7220667560448201527f6e64696e67000000000000000000000000000000000000000000000000000000606482015260840161087c565b61016054604051637e4dc6d560e01b8152600481018390526000916001600160a01b031690637e4dc6d59060240160206040518083038186803b15801561212b57600080fd5b505afa15801561213f573d6000803e3d6000fd5b505050506040513d601f19601f82011682018060405250810190612163919061360c565b905060008190506000816001600160a01b0316639f964fe66040518163ffffffff1660e01b815260040160206040518083038186803b1580156121a557600080fd5b505afa1580156121b9573d6000803e3d6000fd5b505050506040513d601f19601f820116820180604052508101906121dd919061371f565b9050610169548111156122325760405162461bcd60e51b815260206004820152601960248201527f696e73756666696369656e7420506f6f6c2062616c616e636500000000000000604482015260640161087c565b806101695461224191906139b8565b610169556040517ff4d4c9d700000000000000000000000000000000000000000000000000000000815260016004820152602481018290526001600160a01b0383169063f4d4c9d790604401600060405180830381600087803b1580156122a757600080fd5b505af11580156122bb573d6000803e3d6000fd5b5050505050505050565b600054610100900460ff16158080156122e55750600054600160ff909116105b806122ff5750303b1580156122ff575060005460ff166001145b6123715760405162461bcd60e51b815260206004820152602e60248201527f496e697469616c697a61626c653a20636f6e747261637420697320616c72656160448201527f647920696e697469616c697a6564000000000000000000000000000000000000606482015260840161087c565b6000805460ff191660011790558015612394576000805461ff0019166101001790555b6001600160a01b0382166123ea5760405162461bcd60e51b815260206004820152601660248201527f496e76616c696420636f6e666967206164647265737300000000000000000000604482015260640161087c565b61015f80546001600160a01b0319166001600160a01b03841690811790915560009061241590612edb565b90506001600160a01b03811661246d5760405162461bcd60e51b815260206004820152600d60248201527f496e76616c6964204f776e657200000000000000000000000000000000000000604482015260640161087c565b61015f54612483906001600160a01b0316612f5c565b61016080546001600160a01b0319166001600160a01b03929092169190911790556124ad8161168f565b61015f546124c3906001600160a01b0316612f74565b61016680546001600160a01b0319166001600160a01b0392831617905561015f546124ee9116612f8c565b61016780546001600160a01b0319166001600160a01b0392831617905561015f546125199116612fa4565b6101685550600061016a558015610926576000805461ff0019169055604051600181527f7f26b83ff96e1f2b6a682f133852f6798a09c465da95921460cefb38474024989060200160405180910390a15050565b3360009081527f2c01dc0041dfb6d4238a91e5a638996136aed16f837d5beb45610732cf9bf4b0602052604090205460ff166125ff5760405162461bcd60e51b815260206004820152602b60248201527f4d75737420686176652061646d696e20726f6c6520746f20706572666f726d2060448201526a3a3434b99030b1ba34b7b760a91b606482015260840161087c565b610166546040516370a0823160e01b815230600482015283916001600160a01b0316906370a082319060240160206040518083038186803b15801561264357600080fd5b505afa158015612657573d6000803e3d6000fd5b505050506040513d601f19601f8201168201806040525081019061267b919061371f565b10156126c95760405162461bcd60e51b815260206004820152601460248201527f496e73756666696369656e742042616c616e6365000000000000000000000000604482015260640161087c565b81610169546126d891906139b8565b610169556101665460405163a9059cbb60e01b81526001600160a01b038381166004830152602482018590529091169063a9059cbb90604401602060405180830381600087803b15801561272b57600080fd5b505af115801561273f573d6000803e3d6000fd5b505050506040513d601f19601f8201168201806040525081019061094f91906136e7565b61277162015180601e613999565b81565b60008281526065602052604090206001015461278f81612799565b61094f8383612845565b610b558133613037565b60008281526065602090815260408083206001600160a01b038516845290915290205460ff166109265760008281526065602090815260408083206001600160a01b03851684529091529020805460ff191660011790556128013390565b6001600160a01b0316816001600160a01b0316837f2f8788117e7eff1d82e926ec794901d17c78024a50270940304540a733656f0d60405160405180910390a45050565b60008281526065602090815260408083206001600160a01b038516845290915290205460ff16156109265760008281526065602090815260408083206001600160a01b0385168085529252808320805460ff1916905551339285917ff6391f5c32d9c69d2a47ea670b442974b53935d1edc7fd64eb21e047a839171b9190a45050565b3360009081527f2c01dc0041dfb6d4238a91e5a638996136aed16f837d5beb45610732cf9bf4b0602052604090205460ff16610b555760405162461bcd60e51b815260206004820152602b60248201527f4d75737420686176652061646d696e20726f6c6520746f20706572666f726d2060448201526a3a3434b99030b1ba34b7b760a91b606482015260840161087c565b7f4910fdfa16fed3260ed0e7147f7cc6da11a60208b5b9406d12a635614ffd91435460ff161561298d5761094f836130b7565b826001600160a01b03166352d1902d6040518163ffffffff1660e01b815260040160206040518083038186803b1580156129c657600080fd5b505afa9250505080156129f6575060408051601f3d908101601f191682019092526129f39181019061371f565b60015b612a685760405162461bcd60e51b815260206004820152602e60248201527f45524331393637557067726164653a206e657720696d706c656d656e7461746960448201527f6f6e206973206e6f742055555053000000000000000000000000000000000000606482015260840161087c565b7f360894a13ba1a3210667c828492db98dca3e2076cc3735a920a3ca505d382bbc8114612afd5760405162461bcd60e51b815260206004820152602960248201527f45524331393637557067726164653a20756e737570706f727465642070726f7860448201527f6961626c65555549440000000000000000000000000000000000000000000000606482015260840161087c565b5061094f838383613175565b612b116131a0565b6097805460ff191690557f5db9ee0a495bf2e6ff9c91a7834c1ba4fdd244a5e8aa4e537bd38aeae4b073aa335b6040516001600160a01b03909116815260200160405180910390a1565b600054610100900460ff16612bc65760405162461bcd60e51b815260206004820152602b60248201527f496e697469616c697a61626c653a20636f6e7472616374206973206e6f74206960448201526a6e697469616c697a696e6760a81b606482015260840161087c565b6097805460ff19169055565b6000611f416006600a6138f1565b6000612bec8284613999565b9392505050565b6000612bec828461388e565b6000612bec8284613876565b612c136131f2565b6097805460ff191660011790557f62e78cea01bee320cd4e420270b5ea74000d11b0c9f74754ebdbfc544b05a258612b3e3390565b600054610100900460ff16610bf35760405162461bcd60e51b815260206004820152602b60248201527f496e697469616c697a61626c653a20636f6e7472616374206973206e6f74206960448201526a6e697469616c697a696e6760a81b606482015260840161087c565b600054610100900460ff16612d1e5760405162461bcd60e51b815260206004820152602b60248201527f496e697469616c697a61626c653a20636f6e7472616374206973206e6f74206960448201526a6e697469616c697a696e6760a81b606482015260840161087c565b600160c955565b61092682826127a3565b600082815260656020526040808220600101805490849055905190918391839186917fbd79b86ffe0ab8e8776151514217cd7cacd52c909f66475c3af44e129f0b00ff9190a4505050565b336000908152610163602052604081205460ff161515600114612ddf5760405162461bcd60e51b815260206004820152601e60248201527f5573657220686173206e6f74207374616b656420616e7920616d6f756e740000604482015260640161087c565b3360009081526101616020908152604080832080548251818502810185019093528083528493849084015b82821015612e5057838290600052602060002090600202016040518060400160405290816000820154815260200160018201548152505081526020019060010190612e0a565b50505050905060005b8151811015612ead57818181518110612e8257634e487b7160e01b600052603260045260246000fd5b60200260200101516020015183612e999190613876565b925080612ea581613a4d565b915050612e59565b509092915050565b60006107e8612ed4612ec5612bd2565b61016a54611525908690612be0565b8390612bff565b60006001600160a01b03821663b93f9b0a825b6040518263ffffffff1660e01b8152600401612f0c91815260200190565b60206040518083038186803b158015612f2457600080fd5b505afa158015612f38573d6000803e3d6000fd5b505050506040513d601f19601f820116820180604052508101906107e8919061360c565b60006001600160a01b03821663b93f9b0a6006612eee565b60006001600160a01b03821663b93f9b0a6002612eee565b60006001600160a01b03821663b93f9b0a6001612eee565b6040517ffc5636580000000000000000000000000000000000000000000000000000000081526004818101526000906001600160a01b0383169063fc5636589060240160206040518083038186803b158015612fff57600080fd5b505afa158015613013573d6000803e3d6000fd5b505050506040513d601f19601f820116820180604052508101906107e8919061371f565b60008281526065602090815260408083206001600160a01b038516845290915290205460ff1661092657613075816001600160a01b03166014613245565b613080836020613245565b6040516020016130919291906137c2565b60408051601f198184030181529082905262461bcd60e51b825261087c91600401613843565b6001600160a01b0381163b6131345760405162461bcd60e51b815260206004820152602d60248201527f455243313936373a206e657720696d706c656d656e746174696f6e206973206e60448201527f6f74206120636f6e747261637400000000000000000000000000000000000000606482015260840161087c565b7f360894a13ba1a3210667c828492db98dca3e2076cc3735a920a3ca505d382bbc80546001600160a01b0319166001600160a01b0392909216919091179055565b61317e8361346c565b60008251118061318b5750805b1561094f5761319a83836134ac565b50505050565b60975460ff16610bf35760405162461bcd60e51b815260206004820152601460248201527f5061757361626c653a206e6f7420706175736564000000000000000000000000604482015260640161087c565b60975460ff1615610bf35760405162461bcd60e51b815260206004820152601060248201527f5061757361626c653a2070617573656400000000000000000000000000000000604482015260640161087c565b60606000613254836002613999565b61325f906002613876565b67ffffffffffffffff81111561328557634e487b7160e01b600052604160045260246000fd5b6040519080825280601f01601f1916602001820160405280156132af576020820181803683370190505b5090507f3000000000000000000000000000000000000000000000000000000000000000816000815181106132f457634e487b7160e01b600052603260045260246000fd5b60200101906001600160f81b031916908160001a9053507f78000000000000000000000000000000000000000000000000000000000000008160018151811061334d57634e487b7160e01b600052603260045260246000fd5b60200101906001600160f81b031916908160001a9053506000613371846002613999565b61337c906001613876565b90505b600181111561341d577f303132333435363738396162636465660000000000000000000000000000000085600f16601081106133cb57634e487b7160e01b600052603260045260246000fd5b1a60f81b8282815181106133ef57634e487b7160e01b600052603260045260246000fd5b60200101906001600160f81b031916908160001a90535060049490941c93613416816139fb565b905061337f565b508315612bec5760405162461bcd60e51b815260206004820181905260248201527f537472696e67733a20686578206c656e67746820696e73756666696369656e74604482015260640161087c565b613475816130b7565b6040516001600160a01b038216907fbc7cd75a20ee27fd9adebab32041f755214dbc6bffa90cc0225b39da2e5c2d3b90600090a250565b60606001600160a01b0383163b61352b5760405162461bcd60e51b815260206004820152602660248201527f416464726573733a2064656c65676174652063616c6c20746f206e6f6e2d636f60448201527f6e74726163740000000000000000000000000000000000000000000000000000606482015260840161087c565b600080846001600160a01b03168460405161354691906137a6565b600060405180830381855af49150503d8060008114613581576040519150601f19603f3d011682016040523d82523d6000602084013e613586565b606091505b50915091506135ae8282604051806060016040528060278152602001613aaa602791396135b7565b95945050505050565b606083156135c6575081612bec565b8251156135d65782518084602001fd5b8160405162461bcd60e51b815260040161087c9190613843565b600060208284031215613601578081fd5b8135612bec81613a94565b60006020828403121561361d578081fd5b8151612bec81613a94565b6000806040838503121561363a578081fd5b823561364581613a94565b9150602083013567ffffffffffffffff80821115613661578283fd5b818501915085601f830112613674578283fd5b81358181111561368657613686613a7e565b604051601f8201601f19908116603f011681019083821181831017156136ae576136ae613a7e565b816040528281528860208487010111156136c6578586fd5b82602086016020830137856020848301015280955050505050509250929050565b6000602082840312156136f8578081fd5b81518015158114612bec578182fd5b600060208284031215613718578081fd5b5035919050565b600060208284031215613730578081fd5b5051919050565b60008060408385031215613749578182fd5b82359150602083013561375b81613a94565b809150509250929050565b600060208284031215613777578081fd5b81357fffffffff0000000000000000000000000000000000000000000000000000000081168114612bec578182fd5b600082516137b88184602087016139cf565b9190910192915050565b7f416363657373436f6e74726f6c3a206163636f756e74200000000000000000008152600083516137fa8160178501602088016139cf565b7f206973206d697373696e6720726f6c652000000000000000000000000000000060179184019182015283516138378160288401602088016139cf565b01602801949350505050565b60208152600082518060208401526138628160408501602087016139cf565b601f01601f19169190910160400192915050565b6000821982111561388957613889613a68565b500190565b6000826138a957634e487b7160e01b81526012600452602481fd5b500490565b600181815b808511156138e95781600019048211156138cf576138cf613a68565b808516156138dc57918102915b93841c93908002906138b3565b509250929050565b6000612bec8383600082613907575060016107e8565b81613914575060006107e8565b816001811461392a576002811461393457613950565b60019150506107e8565b60ff84111561394557613945613a68565b50506001821b6107e8565b5060208310610133831016604e8410600b8410161715613973575081810a6107e8565b61397d83836138ae565b806000190482111561399157613991613a68565b029392505050565b60008160001904831182151516156139b3576139b3613a68565b500290565b6000828210156139ca576139ca613a68565b500390565b60005b838110156139ea5781810151838201526020016139d2565b8381111561319a5750506000910152565b600081613a0a57613a0a613a68565b506000190190565b600181811c90821680613a2657607f821691505b60208210811415613a4757634e487b7160e01b600052602260045260246000fd5b50919050565b6000600019821415613a6157613a61613a68565b5060010190565b634e487b7160e01b600052601160045260246000fd5b634e487b7160e01b600052604160045260246000fd5b6001600160a01b0381168114610b5557600080fdfe416464726573733a206c6f772d6c6576656c2064656c65676174652063616c6c206661696c6564a26469706673582212206ced4c43caa032022b4a346c84755f433edbe7a83fef4b19532248936331400d64736f6c63430008040033",
  "linkReferences": {},
  "deployedLinkReferences": {}
}