{
  "_format": "hh-sol-artifact-1",
  "contractName": "SeniorPool",
  "sourceName": "contracts/protocol/SeniorPool.sol",
  "abi": [
    {
      "anonymous": false,
      "inputs": [
        {
          "indexed": false,
          "internalType": "address",
          "name": "previousAdmin",
          "type": "address"
        },
        {
          "indexed": false,
          "internalType": "address",
          "name": "newAdmin",
          "type": "address"
        }
      ],
      "name": "AdminChanged",
      "type": "event"
    },
    {
      "anonymous": false,
      "inputs": [
        {
          "indexed": true,
          "internalType": "address",
          "name": "beacon",
          "type": "address"
        }
      ],
      "name": "BeaconUpgraded",
      "type": "event"
    },
    {
      "anonymous": false,
      "inputs": [
        {
          "indexed": false,
          "internalType": "uint8",
          "name": "version",
          "type": "uint8"
        }
      ],
      "name": "Initialized",
      "type": "event"
    },
    {
      "anonymous": false,
      "inputs": [
        {
          "indexed": false,
          "internalType": "address",
          "name": "account",
          "type": "address"
        }
      ],
      "name": "Paused",
      "type": "event"
    },
    {
      "anonymous": false,
      "inputs": [
        {
          "indexed": true,
          "internalType": "bytes32",
          "name": "role",
          "type": "bytes32"
        },
        {
          "indexed": true,
          "internalType": "bytes32",
          "name": "previousAdminRole",
          "type": "bytes32"
        },
        {
          "indexed": true,
          "internalType": "bytes32",
          "name": "newAdminRole",
          "type": "bytes32"
        }
      ],
      "name": "RoleAdminChanged",
      "type": "event"
    },
    {
      "anonymous": false,
      "inputs": [
        {
          "indexed": true,
          "internalType": "bytes32",
          "name": "role",
          "type": "bytes32"
        },
        {
          "indexed": true,
          "internalType": "address",
          "name": "account",
          "type": "address"
        },
        {
          "indexed": true,
          "internalType": "address",
          "name": "sender",
          "type": "address"
        }
      ],
      "name": "RoleGranted",
      "type": "event"
    },
    {
      "anonymous": false,
      "inputs": [
        {
          "indexed": true,
          "internalType": "bytes32",
          "name": "role",
          "type": "bytes32"
        },
        {
          "indexed": true,
          "internalType": "address",
          "name": "account",
          "type": "address"
        },
        {
          "indexed": true,
          "internalType": "address",
          "name": "sender",
          "type": "address"
        }
      ],
      "name": "RoleRevoked",
      "type": "event"
    },
    {
      "anonymous": false,
      "inputs": [
        {
          "indexed": true,
          "internalType": "address",
          "name": "from",
          "type": "address"
        },
        {
          "indexed": false,
          "internalType": "uint256",
          "name": "amount",
          "type": "uint256"
        }
      ],
      "name": "Stake",
      "type": "event"
    },
    {
      "anonymous": false,
      "inputs": [
        {
          "indexed": false,
          "internalType": "address",
          "name": "account",
          "type": "address"
        }
      ],
      "name": "Unpaused",
      "type": "event"
    },
    {
      "anonymous": false,
      "inputs": [
        {
          "indexed": true,
          "internalType": "address",
          "name": "from",
          "type": "address"
        },
        {
          "indexed": false,
          "internalType": "uint256",
          "name": "amount",
          "type": "uint256"
        }
      ],
      "name": "Unstake",
      "type": "event"
    },
    {
      "anonymous": false,
      "inputs": [
        {
          "indexed": true,
          "internalType": "address",
          "name": "implementation",
          "type": "address"
        }
      ],
      "name": "Upgraded",
      "type": "event"
    },
    {
      "anonymous": false,
      "inputs": [
        {
          "indexed": true,
          "internalType": "address",
          "name": "to",
          "type": "address"
        },
        {
          "indexed": false,
          "internalType": "uint256",
          "name": "amount",
          "type": "uint256"
        }
      ],
      "name": "YieldWithdraw",
      "type": "event"
    },
    {
      "inputs": [],
      "name": "ADMIN_ROLE",
      "outputs": [
        {
          "internalType": "bytes32",
          "name": "",
          "type": "bytes32"
        }
      ],
      "stateMutability": "view",
      "type": "function"
    },
    {
      "inputs": [],
      "name": "DEFAULT_ADMIN_ROLE",
      "outputs": [
        {
          "internalType": "bytes32",
          "name": "",
          "type": "bytes32"
        }
      ],
      "stateMutability": "view",
      "type": "function"
    },
    {
      "inputs": [],
      "name": "PAUSER_ROLE",
      "outputs": [
        {
          "internalType": "bytes32",
          "name": "",
          "type": "bytes32"
        }
      ],
      "stateMutability": "view",
      "type": "function"
    },
    {
      "inputs": [
        {
          "internalType": "address",
          "name": "owner",
          "type": "address"
        }
      ],
      "name": "_BaseUpgradeablePausable_init",
      "outputs": [],
      "stateMutability": "nonpayable",
      "type": "function"
    },
    {
      "inputs": [],
      "name": "__PauserPausable__init",
      "outputs": [],
      "stateMutability": "nonpayable",
      "type": "function"
    },
    {
      "inputs": [
        {
          "internalType": "address",
          "name": "user",
          "type": "address"
        }
      ],
      "name": "approveUSDC",
      "outputs": [],
      "stateMutability": "nonpayable",
      "type": "function"
    },
    {
      "inputs": [],
      "name": "contractName",
      "outputs": [
        {
          "internalType": "string",
          "name": "",
          "type": "string"
        }
      ],
      "stateMutability": "view",
      "type": "function"
    },
    {
      "inputs": [],
      "name": "getDefaultLockinMonths",
      "outputs": [
        {
          "internalType": "uint256",
          "name": "",
          "type": "uint256"
        }
      ],
      "stateMutability": "view",
      "type": "function"
    },
    {
      "inputs": [
        {
          "internalType": "uint256",
          "name": "amount",
          "type": "uint256"
        }
      ],
      "name": "getNumShares",
      "outputs": [
        {
          "internalType": "uint256",
          "name": "",
          "type": "uint256"
        }
      ],
      "stateMutability": "view",
      "type": "function"
    },
    {
      "inputs": [
        {
          "internalType": "bytes32",
          "name": "role",
          "type": "bytes32"
        }
      ],
      "name": "getRoleAdmin",
      "outputs": [
        {
          "internalType": "bytes32",
          "name": "",
          "type": "bytes32"
        }
      ],
      "stateMutability": "view",
      "type": "function"
    },
    {
      "inputs": [],
      "name": "getUserInvestment",
      "outputs": [
        {
          "internalType": "uint256",
          "name": "withdrawableAmt",
          "type": "uint256"
        },
        {
          "internalType": "uint256",
          "name": "stakingAmt",
          "type": "uint256"
        }
      ],
      "stateMutability": "view",
      "type": "function"
    },
    {
      "inputs": [
        {
          "internalType": "bytes32",
          "name": "role",
          "type": "bytes32"
        },
        {
          "internalType": "address",
          "name": "account",
          "type": "address"
        }
      ],
      "name": "grantRole",
      "outputs": [],
      "stateMutability": "nonpayable",
      "type": "function"
    },
    {
      "inputs": [
        {
          "internalType": "bytes32",
          "name": "role",
          "type": "bytes32"
        },
        {
          "internalType": "address",
          "name": "account",
          "type": "address"
        }
      ],
      "name": "hasRole",
      "outputs": [
        {
          "internalType": "bool",
          "name": "",
          "type": "bool"
        }
      ],
      "stateMutability": "view",
      "type": "function"
    },
    {
      "inputs": [
        {
          "internalType": "contract DygnifyConfig",
          "name": "_dygnifyConfig",
          "type": "address"
        },
        {
          "internalType": "uint256",
          "name": "_lockInMonths",
          "type": "uint256"
        }
      ],
      "name": "initialize",
      "outputs": [],
      "stateMutability": "nonpayable",
      "type": "function"
    },
    {
      "inputs": [
        {
          "internalType": "bytes32",
          "name": "opportunityId",
          "type": "bytes32"
        }
      ],
      "name": "invest",
      "outputs": [],
      "stateMutability": "nonpayable",
      "type": "function"
    },
    {
      "inputs": [],
      "name": "investmentLockinInMonths",
      "outputs": [
        {
          "internalType": "uint256",
          "name": "",
          "type": "uint256"
        }
      ],
      "stateMutability": "view",
      "type": "function"
    },
    {
      "inputs": [],
      "name": "isAdmin",
      "outputs": [
        {
          "internalType": "bool",
          "name": "",
          "type": "bool"
        }
      ],
      "stateMutability": "view",
      "type": "function"
    },
    {
      "inputs": [
        {
          "internalType": "address",
          "name": "",
          "type": "address"
        }
      ],
      "name": "isStaking",
      "outputs": [
        {
          "internalType": "bool",
          "name": "",
          "type": "bool"
        }
      ],
      "stateMutability": "view",
      "type": "function"
    },
    {
      "inputs": [
        {
          "internalType": "address",
          "name": "",
          "type": "address"
        }
      ],
      "name": "kycOf",
      "outputs": [
        {
          "internalType": "bool",
          "name": "isDoucument",
          "type": "bool"
        },
        {
          "internalType": "bool",
          "name": "isLiveliness",
          "type": "bool"
        },
        {
          "internalType": "bool",
          "name": "isAddress",
          "type": "bool"
        },
        {
          "internalType": "bool",
          "name": "isAML",
          "type": "bool"
        },
        {
          "internalType": "bool",
          "name": "imageHash",
          "type": "bool"
        },
        {
          "internalType": "bool",
          "name": "result",
          "type": "bool"
        }
      ],
      "stateMutability": "view",
      "type": "function"
    },
    {
      "inputs": [],
      "name": "oneMonth",
      "outputs": [
        {
          "internalType": "uint256",
          "name": "",
          "type": "uint256"
        }
      ],
      "stateMutability": "view",
      "type": "function"
    },
    {
      "inputs": [],
      "name": "oneday",
      "outputs": [
        {
          "internalType": "uint256",
          "name": "",
          "type": "uint256"
        }
      ],
      "stateMutability": "view",
      "type": "function"
    },
    {
      "inputs": [],
      "name": "pause",
      "outputs": [],
      "stateMutability": "nonpayable",
      "type": "function"
    },
    {
      "inputs": [],
      "name": "paused",
      "outputs": [
        {
          "internalType": "bool",
          "name": "",
          "type": "bool"
        }
      ],
      "stateMutability": "view",
      "type": "function"
    },
    {
      "inputs": [],
      "name": "proxiableUUID",
      "outputs": [
        {
          "internalType": "bytes32",
          "name": "",
          "type": "bytes32"
        }
      ],
      "stateMutability": "view",
      "type": "function"
    },
    {
      "inputs": [
        {
          "internalType": "bytes32",
          "name": "role",
          "type": "bytes32"
        },
        {
          "internalType": "address",
          "name": "account",
          "type": "address"
        }
      ],
      "name": "renounceRole",
      "outputs": [],
      "stateMutability": "nonpayable",
      "type": "function"
    },
    {
      "inputs": [
        {
          "internalType": "bytes32",
          "name": "role",
          "type": "bytes32"
        },
        {
          "internalType": "address",
          "name": "account",
          "type": "address"
        }
      ],
      "name": "revokeRole",
      "outputs": [],
      "stateMutability": "nonpayable",
      "type": "function"
    },
    {
      "inputs": [],
      "name": "seniorPoolBal",
      "outputs": [
        {
          "internalType": "uint256",
          "name": "",
          "type": "uint256"
        }
      ],
      "stateMutability": "view",
      "type": "function"
    },
    {
      "inputs": [],
      "name": "sharePrice",
      "outputs": [
        {
          "internalType": "uint256",
          "name": "",
          "type": "uint256"
        }
      ],
      "stateMutability": "view",
      "type": "function"
    },
    {
      "inputs": [
        {
          "internalType": "uint256",
          "name": "amount",
          "type": "uint256"
        }
      ],
      "name": "stake",
      "outputs": [],
      "stateMutability": "nonpayable",
      "type": "function"
    },
    {
      "inputs": [
        {
          "internalType": "bytes4",
          "name": "interfaceId",
          "type": "bytes4"
        }
      ],
      "name": "supportsInterface",
      "outputs": [
        {
          "internalType": "bool",
          "name": "",
          "type": "bool"
        }
      ],
      "stateMutability": "view",
      "type": "function"
    },
    {
      "inputs": [],
      "name": "unpause",
      "outputs": [],
      "stateMutability": "nonpayable",
      "type": "function"
    },
    {
      "inputs": [
        {
          "internalType": "address",
          "name": "newImplementation",
          "type": "address"
        }
      ],
      "name": "upgradeTo",
      "outputs": [],
      "stateMutability": "nonpayable",
      "type": "function"
    },
    {
      "inputs": [
        {
          "internalType": "address",
          "name": "newImplementation",
          "type": "address"
        },
        {
          "internalType": "bytes",
          "name": "data",
          "type": "bytes"
        }
      ],
      "name": "upgradeToAndCall",
      "outputs": [],
      "stateMutability": "payable",
      "type": "function"
    },
    {
      "inputs": [
        {
          "internalType": "bytes32",
          "name": "opportunityId",
          "type": "bytes32"
        }
      ],
      "name": "withDrawFromOpportunity",
      "outputs": [],
      "stateMutability": "nonpayable",
      "type": "function"
    },
    {
      "inputs": [
        {
          "internalType": "uint256",
          "name": "amount",
          "type": "uint256"
        },
        {
          "internalType": "address",
          "name": "_receiver",
          "type": "address"
        }
      ],
      "name": "withdrawTo",
      "outputs": [],
      "stateMutability": "nonpayable",
      "type": "function"
    },
    {
      "inputs": [
        {
          "internalType": "uint256",
          "name": "amount",
          "type": "uint256"
        }
      ],
      "name": "withdrawWithLP",
      "outputs": [],
      "stateMutability": "nonpayable",
      "type": "function"
    }
  ],
  "bytecode": "0x3060601b60805260e0604052600b60a08190526a14d95b9a5bdc88141bdbdb60aa1b60c0908152620000369161016591906200004b565b503480156200004457600080fd5b506200012e565b8280546200005990620000f1565b90600052602060002090601f0160209004810192826200007d5760008555620000c8565b82601f106200009857805160ff1916838001178555620000c8565b82800160010185558215620000c8579182015b82811115620000c8578251825591602001919060010190620000ab565b50620000d6929150620000da565b5090565b5b80821115620000d65760008155600101620000db565b600181811c908216806200010657607f821691505b602082108114156200012857634e487b7160e01b600052602260045260246000fd5b50919050565b60805160601c613a836200016960003960008181610a2201528181610aa701528181610c3201528181610cb70152610eb30152613a836000f3fe60806040526004361061024f5760003560e01c806376797d3a11610138578063a972f0a0116100b0578063c8b18b5b1161007f578063d547741f11610064578063d547741f14610725578063e63ab1e914610745578063f92496b61461077957600080fd5b8063c8b18b5b146106f0578063cd6dc6871461070557600080fd5b8063a972f0a01461064c578063b6db75a01461066c578063c2576004146106b0578063c86283c8146106d057600080fd5b80638726972911610107578063a12dde4d116100ec578063a12dde4d146105f7578063a217fddf14610617578063a694fc3a1461062c57600080fd5b8063872697291461059a57806391d14854146105b157600080fd5b806376797d3a1461052e57806383f012a9146105455780638456cb5914610565578063855cb21b1461057a57600080fd5b806345e88089116101cb5780635c975abb1161019a5780636f49712b1161017f5780636f49712b146104a757806375b238fc146104d857806375d0c0dc1461050c57600080fd5b80635c975abb1461046557806361c030ab1461047d57600080fd5b806345e88089146104125780634f1ef28614610428578063526d81f61461043b57806352d1902d1461045057600080fd5b806336568abe116102225780633968e622116102075780633968e622146103495780633f4ba83a146103e657806341434351146103fb57600080fd5b806336568abe146103095780633659cfe61461032957600080fd5b806301ffc9a71461025457806323fe5e5a14610289578063248a9ca3146102ab5780632f2ff15d146102e9575b600080fd5b34801561026057600080fd5b5061027461026f3660046136b8565b610790565b60405190151581526020015b60405180910390f35b34801561029557600080fd5b506102a96102a4366004613542565b610829565b005b3480156102b757600080fd5b506102db6102c6366004613659565b60009081526065602052604090206001015490565b604051908152602001610280565b3480156102f557600080fd5b506102a9610304366004613689565b610965565b34801561031557600080fd5b506102a9610324366004613689565b61098f565b34801561033557600080fd5b506102a9610344366004613542565b610a17565b34801561035557600080fd5b506103ad610364366004613542565b61016b6020526000908152604090205460ff8082169161010081048216916201000082048116916301000000810482169164010000000082048116916501000000000090041686565b604080519615158752941515602087015292151593850193909352151560608401529015156080830152151560a082015260c001610280565b3480156103f257600080fd5b506102a9610b8a565b34801561040757600080fd5b506102db6201518081565b34801561041e57600080fd5b50610168546102db565b6102a961043636600461357a565b610c27565b34801561044757600080fd5b506102a9610d87565b34801561045c57600080fd5b506102db610ea6565b34801561047157600080fd5b5060975460ff16610274565b34801561048957600080fd5b50610492610f6b565b60408051928352602083019190915201610280565b3480156104b357600080fd5b506102746104c2366004613542565b6101636020526000908152604090205460ff1681565b3480156104e457600080fd5b506102db7fa49807205ce4d355092ef5a8a18f56e8913cf4a201fbe287825b095693c2177581565b34801561051857600080fd5b5061052161114f565b60405161028091906137c0565b34801561053a57600080fd5b506102db6101695481565b34801561055157600080fd5b506102a9610560366004613659565b6111de565b34801561057157600080fd5b506102a96115f2565b34801561058657600080fd5b506102db610595366004613659565b61168d565b3480156105a657600080fd5b506102db61016a5481565b3480156105bd57600080fd5b506102746105cc366004613689565b60009182526065602090815260408084206001600160a01b0393909316845291905290205460ff1690565b34801561060357600080fd5b506102a9610612366004613542565b6116b0565b34801561062357600080fd5b506102db600081565b34801561063857600080fd5b506102a9610647366004613659565b611851565b34801561065857600080fd5b506102a9610667366004613659565b611b01565b34801561067857600080fd5b503360009081527f2c01dc0041dfb6d4238a91e5a638996136aed16f837d5beb45610732cf9bf4b0602052604090205460ff16610274565b3480156106bc57600080fd5b506102a96106cb366004613659565b611f77565b3480156106dc57600080fd5b506102a96106eb366004613689565b6122f6565b3480156106fc57600080fd5b506102db6124ec565b34801561071157600080fd5b506102a96107203660046136f8565b6124fd565b34801561073157600080fd5b506102a9610740366004613689565b6127a5565b34801561075157600080fd5b506102db7f65d7a28e3265b37a6474929f336521b332c1681b933f6cb9f3376673440d862a81565b34801561078557600080fd5b506102db6101685481565b60007fffffffff0000000000000000000000000000000000000000000000000000000082167f7965db0b00000000000000000000000000000000000000000000000000000000148061082357507f01ffc9a7000000000000000000000000000000000000000000000000000000007fffffffff000000000000000000000000000000000000000000000000000000008316145b92915050565b3360009081527f2c01dc0041dfb6d4238a91e5a638996136aed16f837d5beb45610732cf9bf4b0602052604090205460ff166108c05760405162461bcd60e51b815260206004820152602b60248201527f4d75737420686176652061646d696e20726f6c6520746f20706572666f726d2060448201526a3a3434b99030b1ba34b7b760a91b60648201526084015b60405180910390fd5b610166546040517f095ea7b30000000000000000000000000000000000000000000000000000000081526001600160a01b03838116600483015260001960248301529091169063095ea7b390604401602060405180830381600087803b15801561092957600080fd5b505af115801561093d573d6000803e3d6000fd5b505050506040513d601f19601f820116820180604052508101906109619190613639565b5050565b600082815260656020526040902060010154610980816127ca565b61098a83836127d4565b505050565b6001600160a01b0381163314610a0d5760405162461bcd60e51b815260206004820152602f60248201527f416363657373436f6e74726f6c3a2063616e206f6e6c792072656e6f756e636560448201527f20726f6c657320666f722073656c66000000000000000000000000000000000060648201526084016108b7565b6109618282612876565b306001600160a01b037f0000000000000000000000000000000000000000000000000000000000000000161415610aa55760405162461bcd60e51b815260206004820152602c60248201527f46756e6374696f6e206d7573742062652063616c6c6564207468726f7567682060448201526b19195b1959d85d1958d85b1b60a21b60648201526084016108b7565b7f00000000000000000000000000000000000000000000000000000000000000006001600160a01b0316610b007f360894a13ba1a3210667c828492db98dca3e2076cc3735a920a3ca505d382bbc546001600160a01b031690565b6001600160a01b031614610b6b5760405162461bcd60e51b815260206004820152602c60248201527f46756e6374696f6e206d7573742062652063616c6c6564207468726f7567682060448201526b6163746976652070726f787960a01b60648201526084016108b7565b60408051600080825260208201909252610b87918391906128f9565b50565b3360009081527fbfe93621c6aa2dbf737e9056c9b79e4d30ee4f6b28b18be2cb71aac8a7bf258e602052604090205460ff16610c1d5760405162461bcd60e51b815260206004820152602c60248201527f4d75737420686176652070617573657220726f6c6520746f20706572666f726d60448201526b103a3434b99030b1ba34b7b760a11b60648201526084016108b7565b610c25612aa8565b565b306001600160a01b037f0000000000000000000000000000000000000000000000000000000000000000161415610cb55760405162461bcd60e51b815260206004820152602c60248201527f46756e6374696f6e206d7573742062652063616c6c6564207468726f7567682060448201526b19195b1959d85d1958d85b1b60a21b60648201526084016108b7565b7f00000000000000000000000000000000000000000000000000000000000000006001600160a01b0316610d107f360894a13ba1a3210667c828492db98dca3e2076cc3735a920a3ca505d382bbc546001600160a01b031690565b6001600160a01b031614610d7b5760405162461bcd60e51b815260206004820152602c60248201527f46756e6374696f6e206d7573742062652063616c6c6564207468726f7567682060448201526b6163746976652070726f787960a01b60648201526084016108b7565b610961828260016128f9565b600054610100900460ff1615808015610da75750600054600160ff909116105b80610dc15750303b158015610dc1575060005460ff166001145b610e335760405162461bcd60e51b815260206004820152602e60248201527f496e697469616c697a61626c653a20636f6e747261637420697320616c72656160448201527f647920696e697469616c697a656400000000000000000000000000000000000060648201526084016108b7565b6000805460ff191660011790558015610e56576000805461ff0019166101001790555b610e5e612afa565b8015610b87576000805461ff0019169055604051600181527f7f26b83ff96e1f2b6a682f133852f6798a09c465da95921460cefb38474024989060200160405180910390a150565b6000306001600160a01b037f00000000000000000000000000000000000000000000000000000000000000001614610f465760405162461bcd60e51b815260206004820152603860248201527f555550535570677261646561626c653a206d757374206e6f742062652063616c60448201527f6c6564207468726f7567682064656c656761746563616c6c000000000000000060648201526084016108b7565b507f360894a13ba1a3210667c828492db98dca3e2076cc3735a920a3ca505d382bbc90565b3360009081526101636020526040812054819060ff161515600114610fd25760405162461bcd60e51b815260206004820152601e60248201527f5573657220686173206e6f74207374616b656420616e7920616d6f756e74000060448201526064016108b7565b60008080610fe462015180601e613916565b61016854610ff29190613916565b3360009081526101616020908152604080832080548251818502810185019093528083529495509293909291849084015b8282101561106957838290600052602060002090600202016040518060400160405290816000820154815260200160018201548152505081526020019060010190611023565b50505050905060005b815181101561114257428383838151811061109d57634e487b7160e01b600052603260045260246000fd5b6020026020010151600001516110b391906137f3565b116110f6578181815181106110d857634e487b7160e01b600052603260045260246000fd5b602002602001015160200151846110ef91906137f3565b9350611130565b81818151811061111657634e487b7160e01b600052603260045260246000fd5b6020026020010151602001518561112d91906137f3565b94505b8061113a816139ca565b915050611072565b5091959294509192505050565b610165805461115d9061398f565b80601f01602080910402602001604051908101604052809291908181526020018280546111899061398f565b80156111d65780601f106111ab576101008083540402835291602001916111d6565b820191906000526020600020905b8154815290600101906020018083116111b957829003601f168201915b505050505081565b3360009081527f2c01dc0041dfb6d4238a91e5a638996136aed16f837d5beb45610732cf9bf4b0602052604090205460ff166112705760405162461bcd60e51b815260206004820152602b60248201527f4d75737420686176652061646d696e20726f6c6520746f20706572666f726d2060448201526a3a3434b99030b1ba34b7b760a91b60648201526084016108b7565b610160546040517f81767155000000000000000000000000000000000000000000000000000000008152600481018390526001600160a01b039091169063817671559060240160206040518083038186803b1580156112ce57600080fd5b505afa1580156112e2573d6000803e3d6000fd5b505050506040513d601f19601f820116820180604052508101906113069190613639565b151560011461137d5760405162461bcd60e51b815260206004820152602660248201527f4f70706f7274756e697479206973206e6f742072657061696420627920626f7260448201527f726f7765722e000000000000000000000000000000000000000000000000000060648201526084016108b7565b61016054604051637e4dc6d560e01b8152600481018390526000916001600160a01b031690637e4dc6d59060240160206040518083038186803b1580156113c357600080fd5b505afa1580156113d7573d6000803e3d6000fd5b505050506040513d601f19601f820116820180604052508101906113fb919061355e565b6040517f53654e850000000000000000000000000000000000000000000000000000000081526001600482015290915081906000906001600160a01b038316906353654e8590602401602060405180830381600087803b15801561145e57600080fd5b505af1158015611472573d6000803e3d6000fd5b505050506040513d601f19601f820116820180604052508101906114969190613671565b905080610169546114a791906137f3565b610169819055506000611529836001600160a01b031663d661d3206040518163ffffffff1660e01b815260040160206040518083038186803b1580156114ec57600080fd5b505afa158015611500573d6000803e3d6000fd5b505050506040513d601f19601f820116820180604052508101906115249190613671565b612b71565b9050600061016760009054906101000a90046001600160a01b03166001600160a01b0316633a98ef396040518163ffffffff1660e01b815260040160206040518083038186803b15801561157c57600080fd5b505afa158015611590573d6000803e3d6000fd5b505050506040513d601f19601f820116820180604052508101906115b49190613671565b905060006115d4826115ce85670de0b6b3a7640000612b8c565b90612b9f565b61016a549091506115e59082612bab565b61016a5550505050505050565b3360009081527fbfe93621c6aa2dbf737e9056c9b79e4d30ee4f6b28b18be2cb71aac8a7bf258e602052604090205460ff166116855760405162461bcd60e51b815260206004820152602c60248201527f4d75737420686176652070617573657220726f6c6520746f20706572666f726d60448201526b103a3434b99030b1ba34b7b760a11b60648201526084016108b7565b610c25612bb7565b600061082361016a546115ce6116a1612bf4565b6116aa86612b71565b90612b8c565b600054610100900460ff1661171b5760405162461bcd60e51b815260206004820152602b60248201527f496e697469616c697a61626c653a20636f6e7472616374206973206e6f74206960448201526a6e697469616c697a696e6760a81b60648201526084016108b7565b6001600160a01b0381166117715760405162461bcd60e51b815260206004820181905260248201527f4f776e65722063616e6e6f7420626520746865207a65726f206164647265737360448201526064016108b7565b611779612c02565b611781612afa565b611789612c6d565b6117b37fa49807205ce4d355092ef5a8a18f56e8913cf4a201fbe287825b095693c2177582612cdf565b6117dd7f65d7a28e3265b37a6474929f336521b332c1681b933f6cb9f3376673440d862a82612cdf565b6118277f65d7a28e3265b37a6474929f336521b332c1681b933f6cb9f3376673440d862a7fa49807205ce4d355092ef5a8a18f56e8913cf4a201fbe287825b095693c21775612ce9565b610b877fa49807205ce4d355092ef5a8a18f56e8913cf4a201fbe287825b095693c2177580612ce9565b6000811180156118db5750610166546040516370a0823160e01b815233600482015282916001600160a01b0316906370a082319060240160206040518083038186803b1580156118a057600080fd5b505afa1580156118b4573d6000803e3d6000fd5b505050506040513d601f19601f820116820180604052508101906118d89190613671565b10155b6119275760405162461bcd60e51b815260206004820152601c60248201527f596f752063616e6e6f74207374616b65207a65726f20746f6b656e730000000060448201526064016108b7565b33600081815261016160209081526040808320815180830183524281528084018781528254600181810185559387528587209251600290910290920191825551908201559383526101639091529020805460ff19169091179055610169546119909082906137f3565b61016955610166546040517f23b872dd000000000000000000000000000000000000000000000000000000008152336004820152306024820152604481018390526001600160a01b03909116906323b872dd90606401602060405180830381600087803b158015611a0057600080fd5b505af1158015611a14573d6000803e3d6000fd5b505050506040513d601f19601f82011682018060405250810190611a389190613639565b50336000611a458361168d565b610167546040517f40c10f190000000000000000000000000000000000000000000000000000000081526001600160a01b038581166004830152602482018490529293509116906340c10f1990604401600060405180830381600087803b158015611aaf57600080fd5b505af1158015611ac3573d6000803e3d6000fd5b50506040518581523392507febedb8b3c678666e7f36970bc8f57abf6d8fa2e828c0da91ea5b75bf68ed101a915060200160405180910390a2505050565b336000908152610163602052604090205460ff1615156001148015611b265750600081115b611bbe5760405162461bcd60e51b815260206004820152604560248201527f5573657220686173206e6f7420696e76657374656420696e207468697320706f60448201527f6f6c206f7220616d6f756e742073686f756c642062652067726561746572207460648201527f68616e2030000000000000000000000000000000000000000000000000000000608482015260a4016108b7565b600080611bcf62015180601e613916565b61016854611bdd9190613916565b336000908152610161602052604081209192505b8154811015611d38574283838381548110611c1c57634e487b7160e01b600052603260045260246000fd5b906000526020600020906002020160000154611c3891906137f3565b11611ce657818181548110611c5d57634e487b7160e01b600052603260045260246000fd5b9060005260206000209060020201600101546101626000336001600160a01b03166001600160a01b031681526020019081526020016000206000828254611ca491906137f3565b92505081905550818181548110611ccb57634e487b7160e01b600052603260045260246000fd5b60009182526020822060029091020181815560010155611d26565b818181548110611d0657634e487b7160e01b600052603260045260246000fd5b90600052602060002090600202016001015484611d2391906137f3565b93505b80611d30816139ca565b915050611bf1565b503360009081526101626020526040902054841115611dbf5760405162461bcd60e51b815260206004820152603c60248201527f576974686472617720616d6f756e7420697320686967686572207468616e206160448201527f6d6f756e7420617661696c61626c6520666f722077697468647261770000000060648201526084016108b7565b336000908152610162602052604081208054869290611ddf908490613935565b90915550611ded9050612d34565b158015611e0857503360009081526101626020526040902054155b15611e265733600090815261016360205260409020805460ff191690555b610167546040517f9dc29fac000000000000000000000000000000000000000000000000000000008152336004820152602481018690526001600160a01b0390911690639dc29fac90604401600060405180830381600087803b158015611e8c57600080fd5b505af1158015611ea0573d6000803e3d6000fd5b505050506000611eaf85612e6f565b6101665460405163a9059cbb60e01b8152336004820152602481018390529192506001600160a01b03169063a9059cbb90604401602060405180830381600087803b158015611efd57600080fd5b505af1158015611f11573d6000803e3d6000fd5b505050506040513d601f19601f82011682018060405250810190611f359190613639565b5060405185815233907f85082129d87b2fe11527cb1b3b7a520aeb5aa6913f88a3d8757fe40d1db02fdd9060200160405180910390a25050505050565b905090565b3360009081527f2c01dc0041dfb6d4238a91e5a638996136aed16f837d5beb45610732cf9bf4b0602052604090205460ff166120095760405162461bcd60e51b815260206004820152602b60248201527f4d75737420686176652061646d696e20726f6c6520746f20706572666f726d2060448201526a3a3434b99030b1ba34b7b760a91b60648201526084016108b7565b610160546040517f5c36901c000000000000000000000000000000000000000000000000000000008152600481018390526001600160a01b0390911690635c36901c9060240160206040518083038186803b15801561206757600080fd5b505afa15801561207b573d6000803e3d6000fd5b505050506040513d601f19601f8201168201806040525081019061209f9190613639565b15156001146121165760405162461bcd60e51b815260206004820152602560248201527f4f70706f7274756e697479206973206e6f742061637469766520666f7220667560448201527f6e64696e6700000000000000000000000000000000000000000000000000000060648201526084016108b7565b61016054604051637e4dc6d560e01b8152600481018390526000916001600160a01b031690637e4dc6d59060240160206040518083038186803b15801561215c57600080fd5b505afa158015612170573d6000803e3d6000fd5b505050506040513d601f19601f82011682018060405250810190612194919061355e565b905060008190506000816001600160a01b0316639f964fe66040518163ffffffff1660e01b815260040160206040518083038186803b1580156121d657600080fd5b505afa1580156121ea573d6000803e3d6000fd5b505050506040513d601f19601f8201168201806040525081019061220e9190613671565b9050610169548111156122635760405162461bcd60e51b815260206004820152601960248201527f696e73756666696369656e7420506f6f6c2062616c616e63650000000000000060448201526064016108b7565b80610169546122729190613935565b610169556040517ff4d4c9d700000000000000000000000000000000000000000000000000000000815260016004820152602481018290526001600160a01b0383169063f4d4c9d790604401600060405180830381600087803b1580156122d857600080fd5b505af11580156122ec573d6000803e3d6000fd5b5050505050505050565b3360009081527f2c01dc0041dfb6d4238a91e5a638996136aed16f837d5beb45610732cf9bf4b0602052604090205460ff166123885760405162461bcd60e51b815260206004820152602b60248201527f4d75737420686176652061646d696e20726f6c6520746f20706572666f726d2060448201526a3a3434b99030b1ba34b7b760a91b60648201526084016108b7565b610166546040516370a0823160e01b815230600482015283916001600160a01b0316906370a082319060240160206040518083038186803b1580156123cc57600080fd5b505afa1580156123e0573d6000803e3d6000fd5b505050506040513d601f19601f820116820180604052508101906124049190613671565b10156124525760405162461bcd60e51b815260206004820152601460248201527f496e73756666696369656e742042616c616e636500000000000000000000000060448201526064016108b7565b81610169546124619190613935565b610169556101665460405163a9059cbb60e01b81526001600160a01b038381166004830152602482018590529091169063a9059cbb90604401602060405180830381600087803b1580156124b457600080fd5b505af11580156124c8573d6000803e3d6000fd5b505050506040513d601f19601f8201168201806040525081019061098a9190613639565b6124fa62015180601e613916565b81565b600054610100900460ff161580801561251d5750600054600160ff909116105b806125375750303b158015612537575060005460ff166001145b6125a95760405162461bcd60e51b815260206004820152602e60248201527f496e697469616c697a61626c653a20636f6e747261637420697320616c72656160448201527f647920696e697469616c697a656400000000000000000000000000000000000060648201526084016108b7565b6000805460ff1916600117905580156125cc576000805461ff0019166101001790555b6001600160a01b0383166126225760405162461bcd60e51b815260206004820152601660248201527f496e76616c696420636f6e66696720616464726573730000000000000000000060448201526064016108b7565b61015f80546001600160a01b0319166001600160a01b03851690811790915560009061264d90612e93565b90506001600160a01b0381166126a55760405162461bcd60e51b815260206004820152600d60248201527f496e76616c6964204f776e65720000000000000000000000000000000000000060448201526064016108b7565b61015f546126bb906001600160a01b0316612f14565b61016080546001600160a01b0319166001600160a01b03929092169190911790556126e5816116b0565b61015f546126fb906001600160a01b0316612f2c565b61016680546001600160a01b0319166001600160a01b0392831617905561015f546127269116612f44565b61016780546001600160a01b0319166001600160a01b039290921691909117905550610168829055670de0b6b3a764000061016a55801561098a576000805461ff0019169055604051600181527f7f26b83ff96e1f2b6a682f133852f6798a09c465da95921460cefb38474024989060200160405180910390a1505050565b6000828152606560205260409020600101546127c0816127ca565b61098a8383612876565b610b878133612f5c565b60008281526065602090815260408083206001600160a01b038516845290915290205460ff166109615760008281526065602090815260408083206001600160a01b03851684529091529020805460ff191660011790556128323390565b6001600160a01b0316816001600160a01b0316837f2f8788117e7eff1d82e926ec794901d17c78024a50270940304540a733656f0d60405160405180910390a45050565b60008281526065602090815260408083206001600160a01b038516845290915290205460ff16156109615760008281526065602090815260408083206001600160a01b0385168085529252808320805460ff1916905551339285917ff6391f5c32d9c69d2a47ea670b442974b53935d1edc7fd64eb21e047a839171b9190a45050565b7f4910fdfa16fed3260ed0e7147f7cc6da11a60208b5b9406d12a635614ffd91435460ff161561292c5761098a83612fdc565b826001600160a01b03166352d1902d6040518163ffffffff1660e01b815260040160206040518083038186803b15801561296557600080fd5b505afa925050508015612995575060408051601f3d908101601f1916820190925261299291810190613671565b60015b612a075760405162461bcd60e51b815260206004820152602e60248201527f45524331393637557067726164653a206e657720696d706c656d656e7461746960448201527f6f6e206973206e6f74205555505300000000000000000000000000000000000060648201526084016108b7565b7f360894a13ba1a3210667c828492db98dca3e2076cc3735a920a3ca505d382bbc8114612a9c5760405162461bcd60e51b815260206004820152602960248201527f45524331393637557067726164653a20756e737570706f727465642070726f7860448201527f6961626c6555554944000000000000000000000000000000000000000000000060648201526084016108b7565b5061098a83838361309a565b612ab06130c5565b6097805460ff191690557f5db9ee0a495bf2e6ff9c91a7834c1ba4fdd244a5e8aa4e537bd38aeae4b073aa335b6040516001600160a01b03909116815260200160405180910390a1565b600054610100900460ff16612b655760405162461bcd60e51b815260206004820152602b60248201527f496e697469616c697a61626c653a20636f6e7472616374206973206e6f74206960448201526a6e697469616c697a696e6760a81b60648201526084016108b7565b6097805460ff19169055565b6000610823612b7e613117565b6115ce612b89612bf4565b85905b6000612b988284613916565b9392505050565b6000612b98828461380b565b6000612b9882846137f3565b612bbf613125565b6097805460ff191660011790557f62e78cea01bee320cd4e420270b5ea74000d11b0c9f74754ebdbfc544b05a258612add3390565b6000611f726012600a61386e565b600054610100900460ff16610c255760405162461bcd60e51b815260206004820152602b60248201527f496e697469616c697a61626c653a20636f6e7472616374206973206e6f74206960448201526a6e697469616c697a696e6760a81b60648201526084016108b7565b600054610100900460ff16612cd85760405162461bcd60e51b815260206004820152602b60248201527f496e697469616c697a61626c653a20636f6e7472616374206973206e6f74206960448201526a6e697469616c697a696e6760a81b60648201526084016108b7565b600160c955565b61096182826127d4565b600082815260656020526040808220600101805490849055905190918391839186917fbd79b86ffe0ab8e8776151514217cd7cacd52c909f66475c3af44e129f0b00ff9190a4505050565b336000908152610163602052604081205460ff161515600114612d995760405162461bcd60e51b815260206004820152601e60248201527f5573657220686173206e6f74207374616b656420616e7920616d6f756e74000060448201526064016108b7565b3360009081526101616020908152604080832080548251818502810185019093528083528493849084015b82821015612e0a57838290600052602060002090600202016040518060400160405290816000820154815260200160018201548152505081526020019060010190612dc4565b50505050905060005b8151811015612e6757818181518110612e3c57634e487b7160e01b600052603260045260246000fd5b60200260200101516020015183612e5391906137f3565b925080612e5f816139ca565b915050612e13565b509092915050565b6000610823612e8e612e7f612bf4565b61016a546115ce908690612b8c565b613178565b60006001600160a01b03821663b93f9b0a825b6040518263ffffffff1660e01b8152600401612ec491815260200190565b60206040518083038186803b158015612edc57600080fd5b505afa158015612ef0573d6000803e3d6000fd5b505050506040513d601f19601f82011682018060405250810190610823919061355e565b60006001600160a01b03821663b93f9b0a6006612ea6565b60006001600160a01b03821663b93f9b0a6002612ea6565b60006001600160a01b03821663b93f9b0a6001612ea6565b60008281526065602090815260408083206001600160a01b038516845290915290205460ff1661096157612f9a816001600160a01b03166014613197565b612fa5836020613197565b604051602001612fb692919061373f565b60408051601f198184030181529082905262461bcd60e51b82526108b7916004016137c0565b6001600160a01b0381163b6130595760405162461bcd60e51b815260206004820152602d60248201527f455243313936373a206e657720696d706c656d656e746174696f6e206973206e60448201527f6f74206120636f6e74726163740000000000000000000000000000000000000060648201526084016108b7565b7f360894a13ba1a3210667c828492db98dca3e2076cc3735a920a3ca505d382bbc80546001600160a01b0319166001600160a01b0392909216919091179055565b6130a3836133be565b6000825111806130b05750805b1561098a576130bf83836133fe565b50505050565b60975460ff16610c255760405162461bcd60e51b815260206004820152601460248201527f5061757361626c653a206e6f742070617573656400000000000000000000000060448201526064016108b7565b6000611f726006600a61386e565b60975460ff1615610c255760405162461bcd60e51b815260206004820152601060248201527f5061757361626c653a207061757365640000000000000000000000000000000060448201526064016108b7565b6000610823613190613188613117565b6115ce612bf4565b8390612b9f565b606060006131a6836002613916565b6131b19060026137f3565b67ffffffffffffffff8111156131d757634e487b7160e01b600052604160045260246000fd5b6040519080825280601f01601f191660200182016040528015613201576020820181803683370190505b5090507f30000000000000000000000000000000000000000000000000000000000000008160008151811061324657634e487b7160e01b600052603260045260246000fd5b60200101906001600160f81b031916908160001a9053507f78000000000000000000000000000000000000000000000000000000000000008160018151811061329f57634e487b7160e01b600052603260045260246000fd5b60200101906001600160f81b031916908160001a90535060006132c3846002613916565b6132ce9060016137f3565b90505b600181111561336f577f303132333435363738396162636465660000000000000000000000000000000085600f166010811061331d57634e487b7160e01b600052603260045260246000fd5b1a60f81b82828151811061334157634e487b7160e01b600052603260045260246000fd5b60200101906001600160f81b031916908160001a90535060049490941c9361336881613978565b90506132d1565b508315612b985760405162461bcd60e51b815260206004820181905260248201527f537472696e67733a20686578206c656e67746820696e73756666696369656e7460448201526064016108b7565b6133c781612fdc565b6040516001600160a01b038216907fbc7cd75a20ee27fd9adebab32041f755214dbc6bffa90cc0225b39da2e5c2d3b90600090a250565b60606001600160a01b0383163b61347d5760405162461bcd60e51b815260206004820152602660248201527f416464726573733a2064656c65676174652063616c6c20746f206e6f6e2d636f60448201527f6e7472616374000000000000000000000000000000000000000000000000000060648201526084016108b7565b600080846001600160a01b0316846040516134989190613723565b600060405180830381855af49150503d80600081146134d3576040519150601f19603f3d011682016040523d82523d6000602084013e6134d8565b606091505b50915091506135008282604051806060016040528060278152602001613a2760279139613509565b95945050505050565b60608315613518575081612b98565b8251156135285782518084602001fd5b8160405162461bcd60e51b81526004016108b791906137c0565b600060208284031215613553578081fd5b8135612b9881613a11565b60006020828403121561356f578081fd5b8151612b9881613a11565b6000806040838503121561358c578081fd5b823561359781613a11565b9150602083013567ffffffffffffffff808211156135b3578283fd5b818501915085601f8301126135c6578283fd5b8135818111156135d8576135d86139fb565b604051601f8201601f19908116603f01168101908382118183101715613600576136006139fb565b81604052828152886020848701011115613618578586fd5b82602086016020830137856020848301015280955050505050509250929050565b60006020828403121561364a578081fd5b81518015158114612b98578182fd5b60006020828403121561366a578081fd5b5035919050565b600060208284031215613682578081fd5b5051919050565b6000806040838503121561369b578182fd5b8235915060208301356136ad81613a11565b809150509250929050565b6000602082840312156136c9578081fd5b81357fffffffff0000000000000000000000000000000000000000000000000000000081168114612b98578182fd5b6000806040838503121561370a578182fd5b823561371581613a11565b946020939093013593505050565b6000825161373581846020870161394c565b9190910192915050565b7f416363657373436f6e74726f6c3a206163636f756e742000000000000000000081526000835161377781601785016020880161394c565b7f206973206d697373696e6720726f6c652000000000000000000000000000000060179184019182015283516137b481602884016020880161394c565b01602801949350505050565b60208152600082518060208401526137df81604085016020870161394c565b601f01601f19169190910160400192915050565b60008219821115613806576138066139e5565b500190565b60008261382657634e487b7160e01b81526012600452602481fd5b500490565b600181815b8085111561386657816000190482111561384c5761384c6139e5565b8085161561385957918102915b93841c9390800290613830565b509250929050565b6000612b98838360008261388457506001610823565b8161389157506000610823565b81600181146138a757600281146138b1576138cd565b6001915050610823565b60ff8411156138c2576138c26139e5565b50506001821b610823565b5060208310610133831016604e8410600b84101617156138f0575081810a610823565b6138fa838361382b565b806000190482111561390e5761390e6139e5565b029392505050565b6000816000190483118215151615613930576139306139e5565b500290565b600082821015613947576139476139e5565b500390565b60005b8381101561396757818101518382015260200161394f565b838111156130bf5750506000910152565b600081613987576139876139e5565b506000190190565b600181811c908216806139a357607f821691505b602082108114156139c457634e487b7160e01b600052602260045260246000fd5b50919050565b60006000198214156139de576139de6139e5565b5060010190565b634e487b7160e01b600052601160045260246000fd5b634e487b7160e01b600052604160045260246000fd5b6001600160a01b0381168114610b8757600080fdfe416464726573733a206c6f772d6c6576656c2064656c65676174652063616c6c206661696c6564a26469706673582212208153574b53feb276cec65da9413ccba5036829a77e8ef9a6423b3a3321433c6664736f6c63430008040033",
  "linkReferences": {},
  "deployedLinkReferences": {}
}