{
  "_format": "hh-sol-artifact-1",
  "contractName": "SeniorPool",
  "sourceName": "contracts/protocol/SeniorPool.sol",
  "abi": [
    {
      "anonymous": false,
      "inputs": [
        {
          "indexed": false,
          "internalType": "address",
          "name": "previousAdmin",
          "type": "address"
        },
        {
          "indexed": false,
          "internalType": "address",
          "name": "newAdmin",
          "type": "address"
        }
      ],
      "name": "AdminChanged",
      "type": "event"
    },
    {
      "anonymous": false,
      "inputs": [
        {
          "indexed": true,
          "internalType": "address",
          "name": "beacon",
          "type": "address"
        }
      ],
      "name": "BeaconUpgraded",
      "type": "event"
    },
    {
      "anonymous": false,
      "inputs": [
        {
          "indexed": false,
          "internalType": "uint8",
          "name": "version",
          "type": "uint8"
        }
      ],
      "name": "Initialized",
      "type": "event"
    },
    {
      "anonymous": false,
      "inputs": [
        {
          "indexed": false,
          "internalType": "address",
          "name": "account",
          "type": "address"
        }
      ],
      "name": "Paused",
      "type": "event"
    },
    {
      "anonymous": false,
      "inputs": [
        {
          "indexed": true,
          "internalType": "bytes32",
          "name": "role",
          "type": "bytes32"
        },
        {
          "indexed": true,
          "internalType": "bytes32",
          "name": "previousAdminRole",
          "type": "bytes32"
        },
        {
          "indexed": true,
          "internalType": "bytes32",
          "name": "newAdminRole",
          "type": "bytes32"
        }
      ],
      "name": "RoleAdminChanged",
      "type": "event"
    },
    {
      "anonymous": false,
      "inputs": [
        {
          "indexed": true,
          "internalType": "bytes32",
          "name": "role",
          "type": "bytes32"
        },
        {
          "indexed": true,
          "internalType": "address",
          "name": "account",
          "type": "address"
        },
        {
          "indexed": true,
          "internalType": "address",
          "name": "sender",
          "type": "address"
        }
      ],
      "name": "RoleGranted",
      "type": "event"
    },
    {
      "anonymous": false,
      "inputs": [
        {
          "indexed": true,
          "internalType": "bytes32",
          "name": "role",
          "type": "bytes32"
        },
        {
          "indexed": true,
          "internalType": "address",
          "name": "account",
          "type": "address"
        },
        {
          "indexed": true,
          "internalType": "address",
          "name": "sender",
          "type": "address"
        }
      ],
      "name": "RoleRevoked",
      "type": "event"
    },
    {
      "anonymous": false,
      "inputs": [
        {
          "indexed": true,
          "internalType": "address",
          "name": "from",
          "type": "address"
        },
        {
          "indexed": false,
          "internalType": "uint256",
          "name": "amount",
          "type": "uint256"
        }
      ],
      "name": "Stake",
      "type": "event"
    },
    {
      "anonymous": false,
      "inputs": [
        {
          "indexed": false,
          "internalType": "address",
          "name": "account",
          "type": "address"
        }
      ],
      "name": "Unpaused",
      "type": "event"
    },
    {
      "anonymous": false,
      "inputs": [
        {
          "indexed": true,
          "internalType": "address",
          "name": "from",
          "type": "address"
        },
        {
          "indexed": false,
          "internalType": "uint256",
          "name": "amount",
          "type": "uint256"
        }
      ],
      "name": "Unstake",
      "type": "event"
    },
    {
      "anonymous": false,
      "inputs": [
        {
          "indexed": true,
          "internalType": "address",
          "name": "implementation",
          "type": "address"
        }
      ],
      "name": "Upgraded",
      "type": "event"
    },
    {
      "anonymous": false,
      "inputs": [
        {
          "indexed": true,
          "internalType": "address",
          "name": "to",
          "type": "address"
        },
        {
          "indexed": false,
          "internalType": "uint256",
          "name": "amount",
          "type": "uint256"
        }
      ],
      "name": "YieldWithdraw",
      "type": "event"
    },
    {
      "inputs": [],
      "name": "ADMIN_ROLE",
      "outputs": [
        {
          "internalType": "bytes32",
          "name": "",
          "type": "bytes32"
        }
      ],
      "stateMutability": "view",
      "type": "function"
    },
    {
      "inputs": [],
      "name": "DEFAULT_ADMIN_ROLE",
      "outputs": [
        {
          "internalType": "bytes32",
          "name": "",
          "type": "bytes32"
        }
      ],
      "stateMutability": "view",
      "type": "function"
    },
    {
      "inputs": [],
      "name": "PAUSER_ROLE",
      "outputs": [
        {
          "internalType": "bytes32",
          "name": "",
          "type": "bytes32"
        }
      ],
      "stateMutability": "view",
      "type": "function"
    },
    {
      "inputs": [
        {
          "internalType": "address",
          "name": "owner",
          "type": "address"
        }
      ],
      "name": "_BaseUpgradeablePausable_init",
      "outputs": [],
      "stateMutability": "nonpayable",
      "type": "function"
    },
    {
      "inputs": [],
      "name": "__PauserPausable__init",
      "outputs": [],
      "stateMutability": "nonpayable",
      "type": "function"
    },
    {
      "inputs": [
        {
          "internalType": "address",
          "name": "user",
          "type": "address"
        }
      ],
      "name": "approveUSDC",
      "outputs": [],
      "stateMutability": "nonpayable",
      "type": "function"
    },
    {
      "inputs": [
        {
          "internalType": "address",
          "name": "",
          "type": "address"
        }
      ],
      "name": "availableForWithdrawal",
      "outputs": [
        {
          "internalType": "uint256",
          "name": "",
          "type": "uint256"
        }
      ],
      "stateMutability": "view",
      "type": "function"
    },
    {
      "inputs": [],
      "name": "contractName",
      "outputs": [
        {
          "internalType": "string",
          "name": "",
          "type": "string"
        }
      ],
      "stateMutability": "view",
      "type": "function"
    },
    {
      "inputs": [],
      "name": "getDefaultLockinMonths",
      "outputs": [
        {
          "internalType": "uint256",
          "name": "",
          "type": "uint256"
        }
      ],
      "stateMutability": "view",
      "type": "function"
    },
    {
      "inputs": [
        {
          "internalType": "bytes32",
          "name": "role",
          "type": "bytes32"
        }
      ],
      "name": "getRoleAdmin",
      "outputs": [
        {
          "internalType": "bytes32",
          "name": "",
          "type": "bytes32"
        }
      ],
      "stateMutability": "view",
      "type": "function"
    },
    {
      "inputs": [],
      "name": "getUserInvestment",
      "outputs": [
        {
          "internalType": "uint256",
          "name": "withdrawableAmt",
          "type": "uint256"
        },
        {
          "internalType": "uint256",
          "name": "stakingAmt",
          "type": "uint256"
        }
      ],
      "stateMutability": "view",
      "type": "function"
    },
    {
      "inputs": [
        {
          "internalType": "bytes32",
          "name": "role",
          "type": "bytes32"
        },
        {
          "internalType": "address",
          "name": "account",
          "type": "address"
        }
      ],
      "name": "grantRole",
      "outputs": [],
      "stateMutability": "nonpayable",
      "type": "function"
    },
    {
      "inputs": [
        {
          "internalType": "bytes32",
          "name": "role",
          "type": "bytes32"
        },
        {
          "internalType": "address",
          "name": "account",
          "type": "address"
        }
      ],
      "name": "hasRole",
      "outputs": [
        {
          "internalType": "bool",
          "name": "",
          "type": "bool"
        }
      ],
      "stateMutability": "view",
      "type": "function"
    },
    {
      "inputs": [
        {
          "internalType": "contract DygnifyConfig",
          "name": "_dygnifyConfig",
          "type": "address"
        }
      ],
      "name": "initialize",
      "outputs": [],
      "stateMutability": "nonpayable",
      "type": "function"
    },
    {
      "inputs": [
        {
          "internalType": "bytes32",
          "name": "opportunityId",
          "type": "bytes32"
        }
      ],
      "name": "invest",
      "outputs": [],
      "stateMutability": "nonpayable",
      "type": "function"
    },
    {
      "inputs": [],
      "name": "investmentLockinInMonths",
      "outputs": [
        {
          "internalType": "uint256",
          "name": "",
          "type": "uint256"
        }
      ],
      "stateMutability": "view",
      "type": "function"
    },
    {
      "inputs": [],
      "name": "isAdmin",
      "outputs": [
        {
          "internalType": "bool",
          "name": "",
          "type": "bool"
        }
      ],
      "stateMutability": "view",
      "type": "function"
    },
    {
      "inputs": [
        {
          "internalType": "address",
          "name": "",
          "type": "address"
        }
      ],
      "name": "isStaking",
      "outputs": [
        {
          "internalType": "bool",
          "name": "",
          "type": "bool"
        }
      ],
      "stateMutability": "view",
      "type": "function"
    },
    {
      "inputs": [
        {
          "internalType": "address",
          "name": "",
          "type": "address"
        }
      ],
      "name": "kycOf",
      "outputs": [
        {
          "internalType": "bool",
          "name": "isDoucument",
          "type": "bool"
        },
        {
          "internalType": "bool",
          "name": "isLiveliness",
          "type": "bool"
        },
        {
          "internalType": "bool",
          "name": "isAddress",
          "type": "bool"
        },
        {
          "internalType": "bool",
          "name": "isAML",
          "type": "bool"
        },
        {
          "internalType": "bool",
          "name": "imageHash",
          "type": "bool"
        },
        {
          "internalType": "bool",
          "name": "result",
          "type": "bool"
        }
      ],
      "stateMutability": "view",
      "type": "function"
    },
    {
      "inputs": [],
      "name": "oneMonth",
      "outputs": [
        {
          "internalType": "uint256",
          "name": "",
          "type": "uint256"
        }
      ],
      "stateMutability": "view",
      "type": "function"
    },
    {
      "inputs": [],
      "name": "oneday",
      "outputs": [
        {
          "internalType": "uint256",
          "name": "",
          "type": "uint256"
        }
      ],
      "stateMutability": "view",
      "type": "function"
    },
    {
      "inputs": [],
      "name": "pause",
      "outputs": [],
      "stateMutability": "nonpayable",
      "type": "function"
    },
    {
      "inputs": [],
      "name": "paused",
      "outputs": [
        {
          "internalType": "bool",
          "name": "",
          "type": "bool"
        }
      ],
      "stateMutability": "view",
      "type": "function"
    },
    {
      "inputs": [],
      "name": "proxiableUUID",
      "outputs": [
        {
          "internalType": "bytes32",
          "name": "",
          "type": "bytes32"
        }
      ],
      "stateMutability": "view",
      "type": "function"
    },
    {
      "inputs": [
        {
          "internalType": "bytes32",
          "name": "role",
          "type": "bytes32"
        },
        {
          "internalType": "address",
          "name": "account",
          "type": "address"
        }
      ],
      "name": "renounceRole",
      "outputs": [],
      "stateMutability": "nonpayable",
      "type": "function"
    },
    {
      "inputs": [
        {
          "internalType": "bytes32",
          "name": "role",
          "type": "bytes32"
        },
        {
          "internalType": "address",
          "name": "account",
          "type": "address"
        }
      ],
      "name": "revokeRole",
      "outputs": [],
      "stateMutability": "nonpayable",
      "type": "function"
    },
    {
      "inputs": [],
      "name": "seniorPoolBal",
      "outputs": [
        {
          "internalType": "uint256",
          "name": "",
          "type": "uint256"
        }
      ],
      "stateMutability": "view",
      "type": "function"
    },
    {
      "inputs": [],
      "name": "sharePrice",
      "outputs": [
        {
          "internalType": "uint256",
          "name": "",
          "type": "uint256"
        }
      ],
      "stateMutability": "view",
      "type": "function"
    },
    {
      "inputs": [
        {
          "internalType": "address",
          "name": "",
          "type": "address"
        },
        {
          "internalType": "uint256",
          "name": "",
          "type": "uint256"
        }
      ],
      "name": "stackingAmount",
      "outputs": [
        {
          "internalType": "uint256",
          "name": "timestamp",
          "type": "uint256"
        },
        {
          "internalType": "uint256",
          "name": "amount",
          "type": "uint256"
        }
      ],
      "stateMutability": "view",
      "type": "function"
    },
    {
      "inputs": [
        {
          "internalType": "uint256",
          "name": "amount",
          "type": "uint256"
        }
      ],
      "name": "stake",
      "outputs": [],
      "stateMutability": "nonpayable",
      "type": "function"
    },
    {
      "inputs": [
        {
          "internalType": "bytes4",
          "name": "interfaceId",
          "type": "bytes4"
        }
      ],
      "name": "supportsInterface",
      "outputs": [
        {
          "internalType": "bool",
          "name": "",
          "type": "bool"
        }
      ],
      "stateMutability": "view",
      "type": "function"
    },
    {
      "inputs": [],
      "name": "unpause",
      "outputs": [],
      "stateMutability": "nonpayable",
      "type": "function"
    },
    {
      "inputs": [
        {
          "internalType": "address",
          "name": "newImplementation",
          "type": "address"
        }
      ],
      "name": "upgradeTo",
      "outputs": [],
      "stateMutability": "nonpayable",
      "type": "function"
    },
    {
      "inputs": [
        {
          "internalType": "address",
          "name": "newImplementation",
          "type": "address"
        },
        {
          "internalType": "bytes",
          "name": "data",
          "type": "bytes"
        }
      ],
      "name": "upgradeToAndCall",
      "outputs": [],
      "stateMutability": "payable",
      "type": "function"
    },
    {
      "inputs": [
        {
          "internalType": "bytes32",
          "name": "opportunityId",
          "type": "bytes32"
        }
      ],
      "name": "withDrawFromOpportunity",
      "outputs": [],
      "stateMutability": "nonpayable",
      "type": "function"
    },
    {
      "inputs": [
        {
          "internalType": "uint256",
          "name": "amount",
          "type": "uint256"
        },
        {
          "internalType": "address",
          "name": "_receiver",
          "type": "address"
        }
      ],
      "name": "withdrawTo",
      "outputs": [],
      "stateMutability": "nonpayable",
      "type": "function"
    },
    {
      "inputs": [
        {
          "internalType": "uint256",
          "name": "amount",
          "type": "uint256"
        }
      ],
      "name": "withdrawWithLP",
      "outputs": [],
      "stateMutability": "nonpayable",
      "type": "function"
    }
  ],
  "bytecode": "0x3060601b60805260e0604052600b60a08190526a14d95b9a5bdc88141bdbdb60aa1b60c0908152620000369161016591906200004b565b503480156200004457600080fd5b506200012e565b8280546200005990620000f1565b90600052602060002090601f0160209004810192826200007d5760008555620000c8565b82601f106200009857805160ff1916838001178555620000c8565b82800160010185558215620000c8579182015b82811115620000c8578251825591602001919060010190620000ab565b50620000d6929150620000da565b5090565b5b80821115620000d65760008155600101620000db565b600181811c908216806200010657607f821691505b602082108114156200012857634e487b7160e01b600052602260045260246000fd5b50919050565b60805160601c613d126200016960003960008181610a6b01528181610af001528181610c7b01528181610d000152610efc0152613d126000f3fe60806040526004361061026a5760003560e01c806375d0c0dc11610153578063a972f0a0116100cb578063c8b18b5b1161007f578063e63ab1e911610064578063e63ab1e91461076e578063f92496b6146107a2578063fb44c719146107b957600080fd5b8063c8b18b5b14610739578063d547741f1461074e57600080fd5b8063c2576004116100b0578063c2576004146106d9578063c4d66de8146106f9578063c86283c81461071957600080fd5b8063a972f0a014610675578063b6db75a01461069557600080fd5b80638726972911610122578063a12dde4d11610107578063a12dde4d14610620578063a217fddf14610640578063a694fc3a1461065557600080fd5b806387269729146105c357806391d14854146105da57600080fd5b806375d0c0dc1461055557806376797d3a1461057757806383f012a91461058e5780638456cb59146105ae57600080fd5b806345e88089116101e65780635c975abb116101b557806365c59e7d1161019a57806365c59e7d146104c25780636f49712b146104f057806375b238fc1461052157600080fd5b80635c975abb1461048057806361c030ab1461049857600080fd5b806345e880891461042d5780634f1ef28614610443578063526d81f61461045657806352d1902d1461046b57600080fd5b806336568abe1161023d5780633968e622116102225780633968e622146103645780633f4ba83a14610401578063414343511461041657600080fd5b806336568abe146103245780633659cfe61461034457600080fd5b806301ffc9a71461026f57806323fe5e5a146102a4578063248a9ca3146102c65780632f2ff15d14610304575b600080fd5b34801561027b57600080fd5b5061028f61028a366004613944565b6107d9565b60405190151581526020015b60405180910390f35b3480156102b057600080fd5b506102c46102bf3660046137a3565b610872565b005b3480156102d257600080fd5b506102f66102e13660046138e5565b60009081526065602052604090206001015490565b60405190815260200161029b565b34801561031057600080fd5b506102c461031f366004613915565b6109ae565b34801561033057600080fd5b506102c461033f366004613915565b6109d8565b34801561035057600080fd5b506102c461035f3660046137a3565b610a60565b34801561037057600080fd5b506103c861037f3660046137a3565b61016b6020526000908152604090205460ff8082169161010081048216916201000082048116916301000000810482169164010000000082048116916501000000000090041686565b604080519615158752941515602087015292151593850193909352151560608401529015156080830152151560a082015260c00161029b565b34801561040d57600080fd5b506102c4610bd3565b34801561042257600080fd5b506102f66201518081565b34801561043957600080fd5b50610168546102f6565b6102c46104513660046137db565b610c70565b34801561046257600080fd5b506102c4610dd0565b34801561047757600080fd5b506102f6610eef565b34801561048c57600080fd5b5060975460ff1661028f565b3480156104a457600080fd5b506104ad610fb4565b6040805192835260208301919091520161029b565b3480156104ce57600080fd5b506102f66104dd3660046137a3565b6101626020526000908152604090205481565b3480156104fc57600080fd5b5061028f61050b3660046137a3565b6101636020526000908152604090205460ff1681565b34801561052d57600080fd5b506102f67fa49807205ce4d355092ef5a8a18f56e8913cf4a201fbe287825b095693c2177581565b34801561056157600080fd5b5061056a61125d565b60405161029b9190613a4d565b34801561058357600080fd5b506102f66101695481565b34801561059a57600080fd5b506102c46105a93660046138e5565b6112ec565b3480156105ba57600080fd5b506102c46116f7565b3480156105cf57600080fd5b506102f661016a5481565b3480156105e657600080fd5b5061028f6105f5366004613915565b60009182526065602090815260408084206001600160a01b0393909316845291905290205460ff1690565b34801561062c57600080fd5b506102c461063b3660046137a3565b611792565b34801561064c57600080fd5b506102f6600081565b34801561066157600080fd5b506102c46106703660046138e5565b611933565b34801561068157600080fd5b506102c46106903660046138e5565b611bd3565b3480156106a157600080fd5b503360009081527f2c01dc0041dfb6d4238a91e5a638996136aed16f837d5beb45610732cf9bf4b0602052604090205460ff1661028f565b3480156106e557600080fd5b506102c46106f43660046138e5565b612049565b34801561070557600080fd5b506102c46107143660046137a3565b6123c8565b34801561072557600080fd5b506102c4610734366004613915565b612670565b34801561074557600080fd5b506102f6612866565b34801561075a57600080fd5b506102c4610769366004613915565b612877565b34801561077a57600080fd5b506102f67f65d7a28e3265b37a6474929f336521b332c1681b933f6cb9f3376673440d862a81565b3480156107ae57600080fd5b506102f66101685481565b3480156107c557600080fd5b506104ad6107d436600461389a565b61289c565b60007fffffffff0000000000000000000000000000000000000000000000000000000082167f7965db0b00000000000000000000000000000000000000000000000000000000148061086c57507f01ffc9a7000000000000000000000000000000000000000000000000000000007fffffffff000000000000000000000000000000000000000000000000000000008316145b92915050565b3360009081527f2c01dc0041dfb6d4238a91e5a638996136aed16f837d5beb45610732cf9bf4b0602052604090205460ff166109095760405162461bcd60e51b815260206004820152602b60248201527f4d75737420686176652061646d696e20726f6c6520746f20706572666f726d2060448201526a3a3434b99030b1ba34b7b760a91b60648201526084015b60405180910390fd5b610166546040517f095ea7b30000000000000000000000000000000000000000000000000000000081526001600160a01b03838116600483015260001960248301529091169063095ea7b390604401602060405180830381600087803b15801561097257600080fd5b505af1158015610986573d6000803e3d6000fd5b505050506040513d601f19601f820116820180604052508101906109aa91906138c5565b5050565b6000828152606560205260409020600101546109c9816128d9565b6109d383836128e3565b505050565b6001600160a01b0381163314610a565760405162461bcd60e51b815260206004820152602f60248201527f416363657373436f6e74726f6c3a2063616e206f6e6c792072656e6f756e636560448201527f20726f6c657320666f722073656c6600000000000000000000000000000000006064820152608401610900565b6109aa8282612985565b306001600160a01b037f0000000000000000000000000000000000000000000000000000000000000000161415610aee5760405162461bcd60e51b815260206004820152602c60248201527f46756e6374696f6e206d7573742062652063616c6c6564207468726f7567682060448201526b19195b1959d85d1958d85b1b60a21b6064820152608401610900565b7f00000000000000000000000000000000000000000000000000000000000000006001600160a01b0316610b497f360894a13ba1a3210667c828492db98dca3e2076cc3735a920a3ca505d382bbc546001600160a01b031690565b6001600160a01b031614610bb45760405162461bcd60e51b815260206004820152602c60248201527f46756e6374696f6e206d7573742062652063616c6c6564207468726f7567682060448201526b6163746976652070726f787960a01b6064820152608401610900565b60408051600080825260208201909252610bd091839190612a08565b50565b3360009081527fbfe93621c6aa2dbf737e9056c9b79e4d30ee4f6b28b18be2cb71aac8a7bf258e602052604090205460ff16610c665760405162461bcd60e51b815260206004820152602c60248201527f4d75737420686176652070617573657220726f6c6520746f20706572666f726d60448201526b103a3434b99030b1ba34b7b760a11b6064820152608401610900565b610c6e612bb7565b565b306001600160a01b037f0000000000000000000000000000000000000000000000000000000000000000161415610cfe5760405162461bcd60e51b815260206004820152602c60248201527f46756e6374696f6e206d7573742062652063616c6c6564207468726f7567682060448201526b19195b1959d85d1958d85b1b60a21b6064820152608401610900565b7f00000000000000000000000000000000000000000000000000000000000000006001600160a01b0316610d597f360894a13ba1a3210667c828492db98dca3e2076cc3735a920a3ca505d382bbc546001600160a01b031690565b6001600160a01b031614610dc45760405162461bcd60e51b815260206004820152602c60248201527f46756e6374696f6e206d7573742062652063616c6c6564207468726f7567682060448201526b6163746976652070726f787960a01b6064820152608401610900565b6109aa82826001612a08565b600054610100900460ff1615808015610df05750600054600160ff909116105b80610e0a5750303b158015610e0a575060005460ff166001145b610e7c5760405162461bcd60e51b815260206004820152602e60248201527f496e697469616c697a61626c653a20636f6e747261637420697320616c72656160448201527f647920696e697469616c697a65640000000000000000000000000000000000006064820152608401610900565b6000805460ff191660011790558015610e9f576000805461ff0019166101001790555b610ea7612c09565b8015610bd0576000805461ff0019169055604051600181527f7f26b83ff96e1f2b6a682f133852f6798a09c465da95921460cefb38474024989060200160405180910390a150565b6000306001600160a01b037f00000000000000000000000000000000000000000000000000000000000000001614610f8f5760405162461bcd60e51b815260206004820152603860248201527f555550535570677261646561626c653a206d757374206e6f742062652063616c60448201527f6c6564207468726f7567682064656c656761746563616c6c00000000000000006064820152608401610900565b507f360894a13ba1a3210667c828492db98dca3e2076cc3735a920a3ca505d382bbc90565b3360009081526101636020526040812054819060ff16151560011461101b5760405162461bcd60e51b815260206004820152601e60248201527f5573657220686173206e6f74207374616b656420616e7920616d6f756e7400006044820152606401610900565b6000808061102d62015180601e613ba5565b6101685461103b9190613ba5565b3360009081526101616020908152604080832080548251818502810185019093528083529495509293909291849084015b828210156110b25783829060005260206000209060020201604051806040016040529081600082015481526020016001820154815250508152602001906001019061106c565b50505050905060005b815181101561118b5742838383815181106110e657634e487b7160e01b600052603260045260246000fd5b6020026020010151600001516110fc9190613a82565b1161113f5781818151811061112157634e487b7160e01b600052603260045260246000fd5b602002602001015160200151846111389190613a82565b9350611179565b81818151811061115f57634e487b7160e01b600052603260045260246000fd5b602002602001015160200151856111769190613a82565b94505b8061118381613c59565b9150506110bb565b506111b660405180604001604052806008815260200167151515151515151560c11b81525084612c80565b3360009081526101626020526040902054156112515761120a6040518060400160405280601181526020017f2a2a2a2a2a2a2a2a496e73696465206966000000000000000000000000000000815250612cf3565b33600090815261016260205260409020546112259084613a82565b925061125160405180604001604052806008815260200167151515151515151560c11b81525084612c80565b50909491935090915050565b610165805461126b90613c1e565b80601f016020809104026020016040519081016040528092919081815260200182805461129790613c1e565b80156112e45780601f106112b9576101008083540402835291602001916112e4565b820191906000526020600020905b8154815290600101906020018083116112c757829003601f168201915b505050505081565b3360009081527f2c01dc0041dfb6d4238a91e5a638996136aed16f837d5beb45610732cf9bf4b0602052604090205460ff1661137e5760405162461bcd60e51b815260206004820152602b60248201527f4d75737420686176652061646d696e20726f6c6520746f20706572666f726d2060448201526a3a3434b99030b1ba34b7b760a91b6064820152608401610900565b610160546040517f81767155000000000000000000000000000000000000000000000000000000008152600481018390526001600160a01b039091169063817671559060240160206040518083038186803b1580156113dc57600080fd5b505afa1580156113f0573d6000803e3d6000fd5b505050506040513d601f19601f8201168201806040525081019061141491906138c5565b151560011461148b5760405162461bcd60e51b815260206004820152602660248201527f4f70706f7274756e697479206973206e6f742072657061696420627920626f7260448201527f726f7765722e00000000000000000000000000000000000000000000000000006064820152608401610900565b61016054604051637e4dc6d560e01b8152600481018390526000916001600160a01b031690637e4dc6d59060240160206040518083038186803b1580156114d157600080fd5b505afa1580156114e5573d6000803e3d6000fd5b505050506040513d601f19601f8201168201806040525081019061150991906137bf565b905060008190506000816001600160a01b031663d661d3206040518163ffffffff1660e01b815260040160206040518083038186803b15801561154b57600080fd5b505afa15801561155f573d6000803e3d6000fd5b505050506040513d601f19601f8201168201806040525081019061158391906138fd565b9050600061016760009054906101000a90046001600160a01b03166001600160a01b0316633a98ef396040518163ffffffff1660e01b815260040160206040518083038186803b1580156115d657600080fd5b505afa1580156115ea573d6000803e3d6000fd5b505050506040513d601f19601f8201168201806040525081019061160e91906138fd565b9050600061162e82611628611621612d64565b8690612d72565b90612d85565b61016a5490915061163f9082612d91565b61016a556040517f53654e85000000000000000000000000000000000000000000000000000000008152600160048201526000906001600160a01b038616906353654e8590602401602060405180830381600087803b1580156116a157600080fd5b505af11580156116b5573d6000803e3d6000fd5b505050506040513d601f19601f820116820180604052508101906116d991906138fd565b905080610169546116ea9190613a82565b6101695550505050505050565b3360009081527fbfe93621c6aa2dbf737e9056c9b79e4d30ee4f6b28b18be2cb71aac8a7bf258e602052604090205460ff1661178a5760405162461bcd60e51b815260206004820152602c60248201527f4d75737420686176652070617573657220726f6c6520746f20706572666f726d60448201526b103a3434b99030b1ba34b7b760a11b6064820152608401610900565b610c6e612d9d565b600054610100900460ff166117fd5760405162461bcd60e51b815260206004820152602b60248201527f496e697469616c697a61626c653a20636f6e7472616374206973206e6f74206960448201526a6e697469616c697a696e6760a81b6064820152608401610900565b6001600160a01b0381166118535760405162461bcd60e51b815260206004820181905260248201527f4f776e65722063616e6e6f7420626520746865207a65726f20616464726573736044820152606401610900565b61185b612dda565b611863612c09565b61186b612e45565b6118957fa49807205ce4d355092ef5a8a18f56e8913cf4a201fbe287825b095693c2177582612eb7565b6118bf7f65d7a28e3265b37a6474929f336521b332c1681b933f6cb9f3376673440d862a82612eb7565b6119097f65d7a28e3265b37a6474929f336521b332c1681b933f6cb9f3376673440d862a7fa49807205ce4d355092ef5a8a18f56e8913cf4a201fbe287825b095693c21775612ec1565b610bd07fa49807205ce4d355092ef5a8a18f56e8913cf4a201fbe287825b095693c2177580612ec1565b6000811180156119bd5750610166546040516370a0823160e01b815233600482015282916001600160a01b0316906370a082319060240160206040518083038186803b15801561198257600080fd5b505afa158015611996573d6000803e3d6000fd5b505050506040513d601f19601f820116820180604052508101906119ba91906138fd565b10155b611a095760405162461bcd60e51b815260206004820152601c60248201527f596f752063616e6e6f74207374616b65207a65726f20746f6b656e73000000006044820152606401610900565b33600081815261016160209081526040808320815180830183524281528084018781528254600181810185559387528587209251600290910290920191825551908201559383526101639091529020805460ff1916909117905561016954611a72908290613a82565b61016955610166546040517f23b872dd000000000000000000000000000000000000000000000000000000008152336004820152306024820152604481018390526001600160a01b03909116906323b872dd90606401602060405180830381600087803b158015611ae257600080fd5b505af1158015611af6573d6000803e3d6000fd5b505050506040513d601f19601f82011682018060405250810190611b1a91906138c5565b50610167546040517f40c10f19000000000000000000000000000000000000000000000000000000008152336004820181905260248201849052916001600160a01b0316906340c10f1990604401600060405180830381600087803b158015611b8257600080fd5b505af1158015611b96573d6000803e3d6000fd5b50506040518481523392507febedb8b3c678666e7f36970bc8f57abf6d8fa2e828c0da91ea5b75bf68ed101a915060200160405180910390a25050565b336000908152610163602052604090205460ff1615156001148015611bf85750600081115b611c905760405162461bcd60e51b815260206004820152604560248201527f5573657220686173206e6f7420696e76657374656420696e207468697320706f60448201527f6f6c206f7220616d6f756e742073686f756c642062652067726561746572207460648201527f68616e2030000000000000000000000000000000000000000000000000000000608482015260a401610900565b600080611ca162015180601e613ba5565b61016854611caf9190613ba5565b336000908152610161602052604081209192505b8154811015611e0a574283838381548110611cee57634e487b7160e01b600052603260045260246000fd5b906000526020600020906002020160000154611d0a9190613a82565b11611db857818181548110611d2f57634e487b7160e01b600052603260045260246000fd5b9060005260206000209060020201600101546101626000336001600160a01b03166001600160a01b031681526020019081526020016000206000828254611d769190613a82565b92505081905550818181548110611d9d57634e487b7160e01b600052603260045260246000fd5b60009182526020822060029091020181815560010155611df8565b818181548110611dd857634e487b7160e01b600052603260045260246000fd5b90600052602060002090600202016001015484611df59190613a82565b93505b80611e0281613c59565b915050611cc3565b503360009081526101626020526040902054841115611e915760405162461bcd60e51b815260206004820152603c60248201527f576974686472617720616d6f756e7420697320686967686572207468616e206160448201527f6d6f756e7420617661696c61626c6520666f72207769746864726177000000006064820152608401610900565b336000908152610162602052604081208054869290611eb1908490613bc4565b90915550611ebf9050612f0c565b158015611eda57503360009081526101626020526040902054155b15611ef85733600090815261016360205260409020805460ff191690555b610167546040517f9dc29fac000000000000000000000000000000000000000000000000000000008152336004820152602481018690526001600160a01b0390911690639dc29fac90604401600060405180830381600087803b158015611f5e57600080fd5b505af1158015611f72573d6000803e3d6000fd5b505050506000611f8185613047565b6101665460405163a9059cbb60e01b8152336004820152602481018390529192506001600160a01b03169063a9059cbb90604401602060405180830381600087803b158015611fcf57600080fd5b505af1158015611fe3573d6000803e3d6000fd5b505050506040513d601f19601f8201168201806040525081019061200791906138c5565b5060405185815233907f85082129d87b2fe11527cb1b3b7a520aeb5aa6913f88a3d8757fe40d1db02fdd9060200160405180910390a25050505050565b905090565b3360009081527f2c01dc0041dfb6d4238a91e5a638996136aed16f837d5beb45610732cf9bf4b0602052604090205460ff166120db5760405162461bcd60e51b815260206004820152602b60248201527f4d75737420686176652061646d696e20726f6c6520746f20706572666f726d2060448201526a3a3434b99030b1ba34b7b760a91b6064820152608401610900565b610160546040517f5c36901c000000000000000000000000000000000000000000000000000000008152600481018390526001600160a01b0390911690635c36901c9060240160206040518083038186803b15801561213957600080fd5b505afa15801561214d573d6000803e3d6000fd5b505050506040513d601f19601f8201168201806040525081019061217191906138c5565b15156001146121e85760405162461bcd60e51b815260206004820152602560248201527f4f70706f7274756e697479206973206e6f742061637469766520666f7220667560448201527f6e64696e670000000000000000000000000000000000000000000000000000006064820152608401610900565b61016054604051637e4dc6d560e01b8152600481018390526000916001600160a01b031690637e4dc6d59060240160206040518083038186803b15801561222e57600080fd5b505afa158015612242573d6000803e3d6000fd5b505050506040513d601f19601f8201168201806040525081019061226691906137bf565b905060008190506000816001600160a01b0316639f964fe66040518163ffffffff1660e01b815260040160206040518083038186803b1580156122a857600080fd5b505afa1580156122bc573d6000803e3d6000fd5b505050506040513d601f19601f820116820180604052508101906122e091906138fd565b9050610169548111156123355760405162461bcd60e51b815260206004820152601960248201527f696e73756666696369656e7420506f6f6c2062616c616e6365000000000000006044820152606401610900565b80610169546123449190613bc4565b610169556040517ff4d4c9d700000000000000000000000000000000000000000000000000000000815260016004820152602481018290526001600160a01b0383169063f4d4c9d790604401600060405180830381600087803b1580156123aa57600080fd5b505af11580156123be573d6000803e3d6000fd5b5050505050505050565b600054610100900460ff16158080156123e85750600054600160ff909116105b806124025750303b158015612402575060005460ff166001145b6124745760405162461bcd60e51b815260206004820152602e60248201527f496e697469616c697a61626c653a20636f6e747261637420697320616c72656160448201527f647920696e697469616c697a65640000000000000000000000000000000000006064820152608401610900565b6000805460ff191660011790558015612497576000805461ff0019166101001790555b6001600160a01b0382166124ed5760405162461bcd60e51b815260206004820152601660248201527f496e76616c696420636f6e6669672061646472657373000000000000000000006044820152606401610900565b61015f80546001600160a01b0319166001600160a01b0384169081179091556000906125189061306d565b90506001600160a01b0381166125705760405162461bcd60e51b815260206004820152600d60248201527f496e76616c6964204f776e6572000000000000000000000000000000000000006044820152606401610900565b61015f54612586906001600160a01b03166130ee565b61016080546001600160a01b0319166001600160a01b03929092169190911790556125b081611792565b61015f546125c6906001600160a01b0316613106565b61016680546001600160a01b0319166001600160a01b0392831617905561015f546125f1911661311e565b61016780546001600160a01b0319166001600160a01b0392831617905561015f5461261c9116613136565b6101685550600061016a5580156109aa576000805461ff0019169055604051600181527f7f26b83ff96e1f2b6a682f133852f6798a09c465da95921460cefb38474024989060200160405180910390a15050565b3360009081527f2c01dc0041dfb6d4238a91e5a638996136aed16f837d5beb45610732cf9bf4b0602052604090205460ff166127025760405162461bcd60e51b815260206004820152602b60248201527f4d75737420686176652061646d696e20726f6c6520746f20706572666f726d2060448201526a3a3434b99030b1ba34b7b760a91b6064820152608401610900565b610166546040516370a0823160e01b815230600482015283916001600160a01b0316906370a082319060240160206040518083038186803b15801561274657600080fd5b505afa15801561275a573d6000803e3d6000fd5b505050506040513d601f19601f8201168201806040525081019061277e91906138fd565b10156127cc5760405162461bcd60e51b815260206004820152601460248201527f496e73756666696369656e742042616c616e63650000000000000000000000006044820152606401610900565b81610169546127db9190613bc4565b610169556101665460405163a9059cbb60e01b81526001600160a01b038381166004830152602482018590529091169063a9059cbb90604401602060405180830381600087803b15801561282e57600080fd5b505af1158015612842573d6000803e3d6000fd5b505050506040513d601f19601f820116820180604052508101906109d391906138c5565b61287462015180601e613ba5565b81565b600082815260656020526040902060010154612892816128d9565b6109d38383612985565b61016160205281600052604060002081815481106128b957600080fd5b600091825260209091206002909102018054600190910154909250905082565b610bd081336131c9565b60008281526065602090815260408083206001600160a01b038516845290915290205460ff166109aa5760008281526065602090815260408083206001600160a01b03851684529091529020805460ff191660011790556129413390565b6001600160a01b0316816001600160a01b0316837f2f8788117e7eff1d82e926ec794901d17c78024a50270940304540a733656f0d60405160405180910390a45050565b60008281526065602090815260408083206001600160a01b038516845290915290205460ff16156109aa5760008281526065602090815260408083206001600160a01b0385168085529252808320805460ff1916905551339285917ff6391f5c32d9c69d2a47ea670b442974b53935d1edc7fd64eb21e047a839171b9190a45050565b7f4910fdfa16fed3260ed0e7147f7cc6da11a60208b5b9406d12a635614ffd91435460ff1615612a3b576109d383613249565b826001600160a01b03166352d1902d6040518163ffffffff1660e01b815260040160206040518083038186803b158015612a7457600080fd5b505afa925050508015612aa4575060408051601f3d908101601f19168201909252612aa1918101906138fd565b60015b612b165760405162461bcd60e51b815260206004820152602e60248201527f45524331393637557067726164653a206e657720696d706c656d656e7461746960448201527f6f6e206973206e6f7420555550530000000000000000000000000000000000006064820152608401610900565b7f360894a13ba1a3210667c828492db98dca3e2076cc3735a920a3ca505d382bbc8114612bab5760405162461bcd60e51b815260206004820152602960248201527f45524331393637557067726164653a20756e737570706f727465642070726f7860448201527f6961626c655555494400000000000000000000000000000000000000000000006064820152608401610900565b506109d3838383613307565b612bbf613332565b6097805460ff191690557f5db9ee0a495bf2e6ff9c91a7834c1ba4fdd244a5e8aa4e537bd38aeae4b073aa335b6040516001600160a01b03909116815260200160405180910390a1565b600054610100900460ff16612c745760405162461bcd60e51b815260206004820152602b60248201527f496e697469616c697a61626c653a20636f6e7472616374206973206e6f74206960448201526a6e697469616c697a696e6760a81b6064820152608401610900565b6097805460ff19169055565b6109aa8282604051602401612c96929190613a60565b60408051601f198184030181529190526020810180517bffffffffffffffffffffffffffffffffffffffffffffffffffffffff167f9710a9d000000000000000000000000000000000000000000000000000000000179052613384565b610bd081604051602401612d079190613a4d565b60408051601f198184030181529190526020810180517bffffffffffffffffffffffffffffffffffffffffffffffffffffffff167f41304fac00000000000000000000000000000000000000000000000000000000179052613384565b60006120446006600a613afd565b6000612d7e8284613ba5565b9392505050565b6000612d7e8284613a9a565b6000612d7e8284613a82565b612da56133a5565b6097805460ff191660011790557f62e78cea01bee320cd4e420270b5ea74000d11b0c9f74754ebdbfc544b05a258612bec3390565b600054610100900460ff16610c6e5760405162461bcd60e51b815260206004820152602b60248201527f496e697469616c697a61626c653a20636f6e7472616374206973206e6f74206960448201526a6e697469616c697a696e6760a81b6064820152608401610900565b600054610100900460ff16612eb05760405162461bcd60e51b815260206004820152602b60248201527f496e697469616c697a61626c653a20636f6e7472616374206973206e6f74206960448201526a6e697469616c697a696e6760a81b6064820152608401610900565b600160c955565b6109aa82826128e3565b600082815260656020526040808220600101805490849055905190918391839186917fbd79b86ffe0ab8e8776151514217cd7cacd52c909f66475c3af44e129f0b00ff9190a4505050565b336000908152610163602052604081205460ff161515600114612f715760405162461bcd60e51b815260206004820152601e60248201527f5573657220686173206e6f74207374616b656420616e7920616d6f756e7400006044820152606401610900565b3360009081526101616020908152604080832080548251818502810185019093528083528493849084015b82821015612fe257838290600052602060002090600202016040518060400160405290816000820154815260200160018201548152505081526020019060010190612f9c565b50505050905060005b815181101561303f5781818151811061301457634e487b7160e01b600052603260045260246000fd5b6020026020010151602001518361302b9190613a82565b92508061303781613c59565b915050612feb565b509092915050565b600061086c613066613057612d64565b61016a54611628908690612d72565b8390612d91565b60006001600160a01b03821663b93f9b0a825b6040518263ffffffff1660e01b815260040161309e91815260200190565b60206040518083038186803b1580156130b657600080fd5b505afa1580156130ca573d6000803e3d6000fd5b505050506040513d601f19601f8201168201806040525081019061086c91906137bf565b60006001600160a01b03821663b93f9b0a6006613080565b60006001600160a01b03821663b93f9b0a6002613080565b60006001600160a01b03821663b93f9b0a6001613080565b6040517ffc5636580000000000000000000000000000000000000000000000000000000081526004818101526000906001600160a01b0383169063fc5636589060240160206040518083038186803b15801561319157600080fd5b505afa1580156131a5573d6000803e3d6000fd5b505050506040513d601f19601f8201168201806040525081019061086c91906138fd565b60008281526065602090815260408083206001600160a01b038516845290915290205460ff166109aa57613207816001600160a01b031660146133f8565b6132128360206133f8565b6040516020016132239291906139cc565b60408051601f198184030181529082905262461bcd60e51b825261090091600401613a4d565b6001600160a01b0381163b6132c65760405162461bcd60e51b815260206004820152602d60248201527f455243313936373a206e657720696d706c656d656e746174696f6e206973206e60448201527f6f74206120636f6e7472616374000000000000000000000000000000000000006064820152608401610900565b7f360894a13ba1a3210667c828492db98dca3e2076cc3735a920a3ca505d382bbc80546001600160a01b0319166001600160a01b0392909216919091179055565b6133108361361f565b60008251118061331d5750805b156109d35761332c838361365f565b50505050565b60975460ff16610c6e5760405162461bcd60e51b815260206004820152601460248201527f5061757361626c653a206e6f74207061757365640000000000000000000000006044820152606401610900565b80516a636f6e736f6c652e6c6f67602083016000808483855afa5050505050565b60975460ff1615610c6e5760405162461bcd60e51b815260206004820152601060248201527f5061757361626c653a20706175736564000000000000000000000000000000006044820152606401610900565b60606000613407836002613ba5565b613412906002613a82565b67ffffffffffffffff81111561343857634e487b7160e01b600052604160045260246000fd5b6040519080825280601f01601f191660200182016040528015613462576020820181803683370190505b5090507f3000000000000000000000000000000000000000000000000000000000000000816000815181106134a757634e487b7160e01b600052603260045260246000fd5b60200101906001600160f81b031916908160001a9053507f78000000000000000000000000000000000000000000000000000000000000008160018151811061350057634e487b7160e01b600052603260045260246000fd5b60200101906001600160f81b031916908160001a9053506000613524846002613ba5565b61352f906001613a82565b90505b60018111156135d0577f303132333435363738396162636465660000000000000000000000000000000085600f166010811061357e57634e487b7160e01b600052603260045260246000fd5b1a60f81b8282815181106135a257634e487b7160e01b600052603260045260246000fd5b60200101906001600160f81b031916908160001a90535060049490941c936135c981613c07565b9050613532565b508315612d7e5760405162461bcd60e51b815260206004820181905260248201527f537472696e67733a20686578206c656e67746820696e73756666696369656e746044820152606401610900565b61362881613249565b6040516001600160a01b038216907fbc7cd75a20ee27fd9adebab32041f755214dbc6bffa90cc0225b39da2e5c2d3b90600090a250565b60606001600160a01b0383163b6136de5760405162461bcd60e51b815260206004820152602660248201527f416464726573733a2064656c65676174652063616c6c20746f206e6f6e2d636f60448201527f6e747261637400000000000000000000000000000000000000000000000000006064820152608401610900565b600080846001600160a01b0316846040516136f991906139b0565b600060405180830381855af49150503d8060008114613734576040519150601f19603f3d011682016040523d82523d6000602084013e613739565b606091505b50915091506137618282604051806060016040528060278152602001613cb66027913961376a565b95945050505050565b60608315613779575081612d7e565b8251156137895782518084602001fd5b8160405162461bcd60e51b81526004016109009190613a4d565b6000602082840312156137b4578081fd5b8135612d7e81613ca0565b6000602082840312156137d0578081fd5b8151612d7e81613ca0565b600080604083850312156137ed578081fd5b82356137f881613ca0565b9150602083013567ffffffffffffffff80821115613814578283fd5b818501915085601f830112613827578283fd5b81358181111561383957613839613c8a565b604051601f8201601f19908116603f0116810190838211818310171561386157613861613c8a565b81604052828152886020848701011115613879578586fd5b82602086016020830137856020848301015280955050505050509250929050565b600080604083850312156138ac578182fd5b82356138b781613ca0565b946020939093013593505050565b6000602082840312156138d6578081fd5b81518015158114612d7e578182fd5b6000602082840312156138f6578081fd5b5035919050565b60006020828403121561390e578081fd5b5051919050565b60008060408385031215613927578182fd5b82359150602083013561393981613ca0565b809150509250929050565b600060208284031215613955578081fd5b81357fffffffff0000000000000000000000000000000000000000000000000000000081168114612d7e578182fd5b6000815180845261399c816020860160208601613bdb565b601f01601f19169290920160200192915050565b600082516139c2818460208701613bdb565b9190910192915050565b7f416363657373436f6e74726f6c3a206163636f756e7420000000000000000000815260008351613a04816017850160208801613bdb565b7f206973206d697373696e6720726f6c65200000000000000000000000000000006017918401918201528351613a41816028840160208801613bdb565b01602801949350505050565b602081526000612d7e6020830184613984565b604081526000613a736040830185613984565b90508260208301529392505050565b60008219821115613a9557613a95613c74565b500190565b600082613ab557634e487b7160e01b81526012600452602481fd5b500490565b600181815b80851115613af5578160001904821115613adb57613adb613c74565b80851615613ae857918102915b93841c9390800290613abf565b509250929050565b6000612d7e8383600082613b135750600161086c565b81613b205750600061086c565b8160018114613b365760028114613b4057613b5c565b600191505061086c565b60ff841115613b5157613b51613c74565b50506001821b61086c565b5060208310610133831016604e8410600b8410161715613b7f575081810a61086c565b613b898383613aba565b8060001904821115613b9d57613b9d613c74565b029392505050565b6000816000190483118215151615613bbf57613bbf613c74565b500290565b600082821015613bd657613bd6613c74565b500390565b60005b83811015613bf6578181015183820152602001613bde565b8381111561332c5750506000910152565b600081613c1657613c16613c74565b506000190190565b600181811c90821680613c3257607f821691505b60208210811415613c5357634e487b7160e01b600052602260045260246000fd5b50919050565b6000600019821415613c6d57613c6d613c74565b5060010190565b634e487b7160e01b600052601160045260246000fd5b634e487b7160e01b600052604160045260246000fd5b6001600160a01b0381168114610bd057600080fdfe416464726573733a206c6f772d6c6576656c2064656c65676174652063616c6c206661696c6564a264697066735822122091dfd2cab309fedd324a4a58e6ba9c678944d5ce5b7bf271d7cccc65a549d6a864736f6c63430008040033",
  "linkReferences": {},
  "deployedLinkReferences": {}
}