{
  "_format": "hh-sol-artifact-1",
  "contractName": "MockOpportunityOrigination",
  "sourceName": "contracts/test-contract/MockOpportunityOrigination.sol",
  "abi": [
    {
      "inputs": [
        {
          "internalType": "address",
          "name": "_borrowerAddress",
          "type": "address"
        }
      ],
      "stateMutability": "nonpayable",
      "type": "constructor"
    },
    {
      "inputs": [
        {
          "internalType": "bytes32",
          "name": "",
          "type": "bytes32"
        }
      ],
      "name": "getBorrower",
      "outputs": [
        {
          "internalType": "address",
          "name": "",
          "type": "address"
        }
      ],
      "stateMutability": "view",
      "type": "function"
    },
    {
      "inputs": [
        {
          "internalType": "bytes32",
          "name": "",
          "type": "bytes32"
        }
      ],
      "name": "getOpportunityPoolAddress",
      "outputs": [
        {
          "internalType": "address",
          "name": "",
          "type": "address"
        }
      ],
      "stateMutability": "view",
      "type": "function"
    },
    {
      "inputs": [
        {
          "internalType": "bytes32",
          "name": "",
          "type": "bytes32"
        }
      ],
      "name": "isActive",
      "outputs": [
        {
          "internalType": "bool",
          "name": "",
          "type": "bool"
        }
      ],
      "stateMutability": "view",
      "type": "function"
    },
    {
      "inputs": [
        {
          "internalType": "bytes32",
          "name": "",
          "type": "bytes32"
        }
      ],
      "name": "isDrawdown",
      "outputs": [
        {
          "internalType": "bool",
          "name": "",
          "type": "bool"
        }
      ],
      "stateMutability": "view",
      "type": "function"
    },
    {
      "inputs": [
        {
          "internalType": "bytes32",
          "name": "",
          "type": "bytes32"
        }
      ],
      "name": "isRepaid",
      "outputs": [
        {
          "internalType": "bool",
          "name": "",
          "type": "bool"
        }
      ],
      "stateMutability": "view",
      "type": "function"
    },
    {
      "inputs": [
        {
          "internalType": "bytes32",
          "name": "",
          "type": "bytes32"
        }
      ],
      "name": "isWriteOff",
      "outputs": [
        {
          "internalType": "bool",
          "name": "",
          "type": "bool"
        }
      ],
      "stateMutability": "pure",
      "type": "function"
    },
    {
      "inputs": [],
      "name": "makeIsActiveFalse",
      "outputs": [],
      "stateMutability": "nonpayable",
      "type": "function"
    },
    {
      "inputs": [],
      "name": "makeIsRepaidFalse",
      "outputs": [],
      "stateMutability": "nonpayable",
      "type": "function"
    },
    {
      "inputs": [
        {
          "internalType": "bytes32",
          "name": "",
          "type": "bytes32"
        }
      ],
      "name": "markDrawDown",
      "outputs": [],
      "stateMutability": "nonpayable",
      "type": "function"
    },
    {
      "inputs": [
        {
          "internalType": "bytes32",
          "name": "",
          "type": "bytes32"
        }
      ],
      "name": "markRepaid",
      "outputs": [],
      "stateMutability": "nonpayable",
      "type": "function"
    },
    {
      "inputs": [
        {
          "internalType": "bytes32",
          "name": "id",
          "type": "bytes32"
        },
        {
          "internalType": "address",
          "name": "add",
          "type": "address"
        }
      ],
      "name": "markWriteOff",
      "outputs": [],
      "stateMutability": "nonpayable",
      "type": "function"
    },
    {
      "inputs": [
        {
          "internalType": "bytes32",
          "name": "_id",
          "type": "bytes32"
        },
        {
          "internalType": "address",
          "name": "keeperAddress",
          "type": "address"
        }
      ],
      "name": "markdrawDown",
      "outputs": [],
      "stateMutability": "nonpayable",
      "type": "function"
    },
    {
      "inputs": [
        {
          "internalType": "bytes32",
          "name": "_id",
          "type": "bytes32"
        },
        {
          "internalType": "address",
          "name": "keeperAddress",
          "type": "address"
        }
      ],
      "name": "markrepaid",
      "outputs": [],
      "stateMutability": "nonpayable",
      "type": "function"
    },
    {
      "inputs": [
        {
          "internalType": "bool",
          "name": "val",
          "type": "bool"
        }
      ],
      "name": "setIsDrawdown",
      "outputs": [],
      "stateMutability": "nonpayable",
      "type": "function"
    },
    {
      "inputs": [
        {
          "internalType": "address",
          "name": "_poolAddress",
          "type": "address"
        }
      ],
      "name": "setPoolAddress",
      "outputs": [],
      "stateMutability": "nonpayable",
      "type": "function"
    },
    {
      "inputs": [
        {
          "internalType": "uint256",
          "name": "_writeOffDays",
          "type": "uint256"
        }
      ],
      "name": "setWriteOffDays",
      "outputs": [],
      "stateMutability": "nonpayable",
      "type": "function"
    },
    {
      "inputs": [
        {
          "internalType": "bytes32",
          "name": "",
          "type": "bytes32"
        }
      ],
      "name": "writeOffDaysOf",
      "outputs": [
        {
          "internalType": "uint256",
          "name": "",
          "type": "uint256"
        }
      ],
      "stateMutability": "view",
      "type": "function"
    },
    {
      "inputs": [
        {
          "internalType": "address",
          "name": "_opportunityPool",
          "type": "address"
        }
      ],
      "name": "writeOffOpportunity",
      "outputs": [],
      "stateMutability": "nonpayable",
      "type": "function"
    }
  ],
  "bytecode": "0x60806040526000805463ffffffff60a01b19166201010160a81b17905534801561002857600080fd5b5060405161057e38038061057e8339810160408190526100479161006c565b600280546001600160a01b0319166001600160a01b039290921691909117905561009a565b60006020828403121561007d578081fd5b81516001600160a01b0381168114610093578182fd5b9392505050565b6104d5806100a96000396000f3fe608060405234801561001057600080fd5b50600436106100f65760003560e01c8063728c3ea211610092578063728c3ea2146101d65780637e4dc6d51461020c578063817671551461022a578063a45d42681461023d578063a8f1a73b1461024f578063af7ea94414610262578063cbbcc32314610286578063e9e15b4f146102b2578063fbb26793146102e257600080fd5b8063332f1486146100fb57806341dd56c21461010e5780634622abe0146101205780635600c5ad146101545780635c36901c14610167578063674b13721461017a5780636815322c1461018d5780636dc305f9146101a1578063718df38c146101b3575b600080fd5b61010c61010936600461045c565b50565b005b61010c6000805460ff60b01b19169055565b61013f61012e36600461045c565b50600254600160a01b900460ff1690565b60405190151581526020015b60405180910390f35b61010c61016236600461041b565b6102f5565b61013f61017536600461045c565b610351565b61010c610188366004610474565b610374565b61013f61019b36600461045c565b50600190565b61010c6101af366004610474565b5050565b6101c86101c136600461045c565b5060015490565b60405190815260200161014b565b6101f46101e436600461045c565b506002546001600160a01b031690565b6040516001600160a01b03909116815260200161014b565b6101f461021a36600461045c565b506000546001600160a01b031690565b61013f61023836600461045c565b6103b7565b61010c6000805460ff60b81b19169055565b61010c61025d36600461045c565b600155565b61010c61027036600461045c565b506002805460ff60a01b1916600160a01b179055565b61010c61029436600461043c565b60028054911515600160a01b0260ff60a01b19909216919091179055565b61010c6102c036600461041b565b600080546001600160a01b0319166001600160a01b0392909216919091179055565b61010c6102f0366004610474565b6103d2565b6000819050806001600160a01b031663257c27366040518163ffffffff1660e01b8152600401600060405180830381600087803b15801561033557600080fd5b505af1158015610349573d6000803e3d6000fd5b505050505050565b60008054600160b01b900460ff161561036c57506001919050565b506000919050565b604051633aa7c28360e01b8152600481018390526001600160a01b03821690633aa7c283906024015b600060405180830381600087803b15801561033557600080fd5b60008054600160b81b900460ff161561036c57506001919050565b60405163169bd1e960e11b8152600481018390526001600160a01b03821690632d37a3d29060240161039d565b80356001600160a01b038116811461041657600080fd5b919050565b60006020828403121561042c578081fd5b610435826103ff565b9392505050565b60006020828403121561044d578081fd5b81358015158114610435578182fd5b60006020828403121561046d578081fd5b5035919050565b60008060408385031215610486578081fd5b82359150610496602084016103ff565b9050925092905056fea264697066735822122083cbad5046069fcbb8e5643b0f3637f921be13f599dd0bc923261327106b50e664736f6c63430008040033",
  "linkReferences": {},
  "deployedLinkReferences": {}
}