{
  "_format": "hh-sol-artifact-1",
  "contractName": "MockOpportunityOrigination",
  "sourceName": "contracts/test-contract/MockOpportunityOrigination.sol",
  "abi": [
    {
      "inputs": [
        {
          "internalType": "address",
          "name": "_poolAddress",
          "type": "address"
        }
      ],
      "stateMutability": "nonpayable",
      "type": "constructor"
    },
    {
      "inputs": [
        {
          "internalType": "bytes32",
          "name": "id",
          "type": "bytes32"
        }
      ],
      "name": "getOpportunityPoolAddress",
      "outputs": [
        {
          "internalType": "address",
          "name": "",
          "type": "address"
        }
      ],
      "stateMutability": "view",
      "type": "function"
    }
  ],
  "bytecode": "0x608060405234801561001057600080fd5b5060405161014138038061014183398101604081905261002f91610054565b600080546001600160a01b0319166001600160a01b0392909216919091179055610082565b600060208284031215610065578081fd5b81516001600160a01b038116811461007b578182fd5b9392505050565b60b1806100906000396000f3fe6080604052348015600f57600080fd5b506004361060285760003560e01c80637e4dc6d514602d575b600080fd5b604860383660046064565b506000546001600160a01b031690565b6040516001600160a01b03909116815260200160405180910390f35b6000602082840312156074578081fd5b503591905056fea2646970667358221220620d00e139a64673e9aeafce98977b1e36b777c2ce10d6b68146e79a220aeb6864736f6c63430008040033",
  "linkReferences": {},
  "deployedLinkReferences": {}
}