{
  "_format": "hh-sol-artifact-1",
  "contractName": "ConfigHelperLibrary",
  "sourceName": "contracts/test-contract/ConfigHelperLibrary.sol",
  "abi": [
    {
      "inputs": [
        {
          "internalType": "contract DygnifyConfig",
          "name": "config",
          "type": "address"
        }
      ],
      "name": "collateralTokenAddress",
      "outputs": [
        {
          "internalType": "address",
          "name": "",
          "type": "address"
        }
      ],
      "stateMutability": "view",
      "type": "function"
    },
    {
      "inputs": [
        {
          "internalType": "contract DygnifyConfig",
          "name": "config",
          "type": "address"
        }
      ],
      "name": "dygnifyAdminAddress",
      "outputs": [
        {
          "internalType": "address",
          "name": "",
          "type": "address"
        }
      ],
      "stateMutability": "view",
      "type": "function"
    },
    {
      "inputs": [
        {
          "internalType": "contract DygnifyConfig",
          "name": "config",
          "type": "address"
        }
      ],
      "name": "dygnifyKeeperAddress",
      "outputs": [
        {
          "internalType": "address",
          "name": "",
          "type": "address"
        }
      ],
      "stateMutability": "view",
      "type": "function"
    },
    {
      "inputs": [
        {
          "internalType": "contract DygnifyConfig",
          "name": "config",
          "type": "address"
        }
      ],
      "name": "dygnifyTreasuryAddress",
      "outputs": [
        {
          "internalType": "address",
          "name": "",
          "type": "address"
        }
      ],
      "stateMutability": "view",
      "type": "function"
    },
    {
      "inputs": [
        {
          "internalType": "contract DygnifyConfig",
          "name": "config",
          "type": "address"
        }
      ],
      "name": "getAdjustmentOffset",
      "outputs": [
        {
          "internalType": "uint256",
          "name": "",
          "type": "uint256"
        }
      ],
      "stateMutability": "view",
      "type": "function"
    },
    {
      "inputs": [
        {
          "internalType": "contract DygnifyConfig",
          "name": "config",
          "type": "address"
        }
      ],
      "name": "getDygnifyFee",
      "outputs": [
        {
          "internalType": "uint256",
          "name": "",
          "type": "uint256"
        }
      ],
      "stateMutability": "view",
      "type": "function"
    },
    {
      "inputs": [
        {
          "internalType": "contract DygnifyConfig",
          "name": "config",
          "type": "address"
        }
      ],
      "name": "getJuniorSubpoolFee",
      "outputs": [
        {
          "internalType": "uint256",
          "name": "",
          "type": "uint256"
        }
      ],
      "stateMutability": "view",
      "type": "function"
    },
    {
      "inputs": [
        {
          "internalType": "contract DygnifyConfig",
          "name": "config",
          "type": "address"
        }
      ],
      "name": "getLeverageRatio",
      "outputs": [
        {
          "internalType": "uint256",
          "name": "",
          "type": "uint256"
        }
      ],
      "stateMutability": "view",
      "type": "function"
    },
    {
      "inputs": [
        {
          "internalType": "contract DygnifyConfig",
          "name": "config",
          "type": "address"
        }
      ],
      "name": "getOpportunityOrigination",
      "outputs": [
        {
          "internalType": "address",
          "name": "",
          "type": "address"
        }
      ],
      "stateMutability": "view",
      "type": "function"
    },
    {
      "inputs": [
        {
          "internalType": "contract DygnifyConfig",
          "name": "config",
          "type": "address"
        }
      ],
      "name": "getOverDueFee",
      "outputs": [
        {
          "internalType": "uint256",
          "name": "",
          "type": "uint256"
        }
      ],
      "stateMutability": "view",
      "type": "function"
    },
    {
      "inputs": [
        {
          "internalType": "contract DygnifyConfig",
          "name": "config",
          "type": "address"
        }
      ],
      "name": "getSeniorPoolLockinMonths",
      "outputs": [
        {
          "internalType": "uint256",
          "name": "",
          "type": "uint256"
        }
      ],
      "stateMutability": "view",
      "type": "function"
    },
    {
      "inputs": [
        {
          "internalType": "contract DygnifyConfig",
          "name": "config",
          "type": "address"
        }
      ],
      "name": "getWriteOffDays",
      "outputs": [
        {
          "internalType": "uint256",
          "name": "",
          "type": "uint256"
        }
      ],
      "stateMutability": "view",
      "type": "function"
    },
    {
      "inputs": [
        {
          "internalType": "contract DygnifyConfig",
          "name": "config",
          "type": "address"
        }
      ],
      "name": "identityTokenAddress",
      "outputs": [
        {
          "internalType": "address",
          "name": "",
          "type": "address"
        }
      ],
      "stateMutability": "view",
      "type": "function"
    },
    {
      "inputs": [
        {
          "internalType": "contract DygnifyConfig",
          "name": "config",
          "type": "address"
        }
      ],
      "name": "investorContractAddress",
      "outputs": [
        {
          "internalType": "address",
          "name": "",
          "type": "address"
        }
      ],
      "stateMutability": "view",
      "type": "function"
    },
    {
      "inputs": [
        {
          "internalType": "contract DygnifyConfig",
          "name": "config",
          "type": "address"
        }
      ],
      "name": "lpTokenAddress",
      "outputs": [
        {
          "internalType": "address",
          "name": "",
          "type": "address"
        }
      ],
      "stateMutability": "view",
      "type": "function"
    },
    {
      "inputs": [
        {
          "internalType": "contract DygnifyConfig",
          "name": "config",
          "type": "address"
        }
      ],
      "name": "poolImplAddress",
      "outputs": [
        {
          "internalType": "address",
          "name": "",
          "type": "address"
        }
      ],
      "stateMutability": "view",
      "type": "function"
    },
    {
      "inputs": [
        {
          "internalType": "contract DygnifyConfig",
          "name": "config",
          "type": "address"
        }
      ],
      "name": "seniorPoolAddress",
      "outputs": [
        {
          "internalType": "address",
          "name": "",
          "type": "address"
        }
      ],
      "stateMutability": "view",
      "type": "function"
    },
    {
      "inputs": [
        {
          "internalType": "contract DygnifyConfig",
          "name": "config",
          "type": "address"
        }
      ],
      "name": "usdcAddress",
      "outputs": [
        {
          "internalType": "address",
          "name": "",
          "type": "address"
        }
      ],
      "stateMutability": "view",
      "type": "function"
    }
  ],
  "bytecode": "0x608060405234801561001057600080fd5b5061066f806100206000396000f3fe608060405234801561001057600080fd5b50600436106100f65760003560e01c8063996b6c9111610092578063996b6c91146101d1578063a64c40aa146101e4578063af9df8ac146101f7578063b546fa981461020a578063b8dbc2131461021d578063bf04108414610230578063c077e3af14610243578063cbe7f00614610256578063ea59e73a1461026957600080fd5b80630df74eaf146100fb5780631ba243fe1461012b5780631dbe8e3b1461014c578063208b67421461015f578063298a39021461017257806338db43031461018557806345f5b6e01461019857806373e0532b146101ab5780638063ac8e146101be575b600080fd5b61010e6101093660046105ed565b61027c565b6040516001600160a01b0390911681526020015b60405180910390f35b61013e6101393660046105ed565b61028d565b604051908152602001610122565b61010e61015a3660046105ed565b610298565b61013e61016d3660046105ed565b6102a3565b61013e6101803660046105ed565b6102ae565b61010e6101933660046105ed565b6102b9565b61010e6101a63660046105ed565b6102c4565b61010e6101b93660046105ed565b6102cf565b61010e6101cc3660046105ed565b6102da565b61010e6101df3660046105ed565b6102e5565b61010e6101f23660046105ed565b6102f0565b61013e6102053660046105ed565b6102fb565b61010e6102183660046105ed565b610306565b61013e61022b3660046105ed565b610311565b61010e61023e3660046105ed565b61031c565b61013e6102513660046105ed565b610327565b61013e6102643660046105ed565b610332565b61010e6102773660046105ed565b61033d565b600061028782610348565b92915050565b6000610287826103ca565b60006102878261044c565b600061028782610464565b60006102878261047c565b600061028782610494565b6000610287826104ac565b6000610287826104c4565b6000610287826104dc565b6000610287826104f4565b60006102878261050b565b600061028782610523565b60006102878261053b565b600061028782610553565b60006102878261056a565b600061028782610582565b60006102878261059a565b6000610287826105b2565b60006001600160a01b03821663b93f9b0a60075b6040518263ffffffff1660e01b815260040161037a91815260200190565b60206040518083038186803b15801561039257600080fd5b505afa1580156103a6573d6000803e3d6000fd5b505050506040513d601f19601f8201168201806040525081019061028791906105ca565b60006001600160a01b03821663fc56365860065b6040518263ffffffff1660e01b81526004016103fc91815260200190565b60206040518083038186803b15801561041457600080fd5b505afa158015610428573d6000803e3d6000fd5b505050506040513d601f19601f820116820180604052508101906102879190610609565b60006001600160a01b03821663b93f9b0a600961035c565b60006001600160a01b03821663fc56365860016103de565b60006001600160a01b03821663fc56365860036103de565b60006001600160a01b03821663b93f9b0a600161035c565b60006001600160a01b03821663b93f9b0a600461035c565b60006001600160a01b03821663b93f9b0a600a61035c565b60006001600160a01b03821663b93f9b0a600861035c565b60006001600160a01b03821663b93f9b0a8261035c565b60006001600160a01b03821663b93f9b0a600361035c565b60006001600160a01b03821663fc56365860046103de565b60006001600160a01b03821663b93f9b0a600661035c565b60006001600160a01b03821663fc563658826103de565b60006001600160a01b03821663b93f9b0a600561035c565b60006001600160a01b03821663fc56365860056103de565b60006001600160a01b03821663fc56365860026103de565b60006001600160a01b03821663b93f9b0a600261035c565b6000602082840312156105db578081fd5b81516105e681610621565b9392505050565b6000602082840312156105fe578081fd5b81356105e681610621565b60006020828403121561061a578081fd5b5051919050565b6001600160a01b038116811461063657600080fd5b5056fea2646970667358221220fe8392dc6fe7e7430f5e49cb2dee5a7cc1ae1941e3804a0543605b51588ded7764736f6c63430008040033",
  "linkReferences": {},
  "deployedLinkReferences": {}
}