{
  "_format": "hh-sol-artifact-1",
  "contractName": "MockDygnifyKeeper",
  "sourceName": "contracts/test-contract/MockDygnifyKeeper.sol",
  "abi": [
    {
      "inputs": [
        {
          "internalType": "address",
          "name": "_opportunityOriginationAddress",
          "type": "address"
        },
        {
          "internalType": "bytes32",
          "name": "_id",
          "type": "bytes32"
        },
        {
          "internalType": "address",
          "name": "_pool",
          "type": "address"
        }
      ],
      "name": "toCheckMarkWriteOff",
      "outputs": [],
      "stateMutability": "nonpayable",
      "type": "function"
    }
  ],
  "bytecode": "0x608060405234801561001057600080fd5b5061012e806100206000396000f3fe6080604052348015600f57600080fd5b506004361060285760003560e01c80632c4dc99f14602d575b600080fd5b603c603836600460c2565b603e565b005b604051636dc305f960e01b8152600481018390526001600160a01b038281166024830152849190821690636dc305f990604401600060405180830381600087803b158015608a57600080fd5b505af1158015609d573d6000803e3d6000fd5b5050505050505050565b80356001600160a01b038116811460bd57600080fd5b919050565b60008060006060848603121560d5578283fd5b60dc8460a7565b92506020840135915060ef6040850160a7565b9050925092509256fea2646970667358221220d7f264e7e7636d5fc23dd30d124ab11ce123f6e8f637ccdbf5d44910de40fd4a64736f6c63430008040033",
  "linkReferences": {},
  "deployedLinkReferences": {}
}