{
  "_format": "hh-sol-artifact-1",
  "contractName": "MockOpportunityOriginationForOpportunityPool",
  "sourceName": "contracts/test-contract/MockOpportunityOriginationForOpportunityPool.sol",
  "abi": [
    {
      "inputs": [
        {
          "internalType": "address",
          "name": "_borrowerAddress",
          "type": "address"
        }
      ],
      "stateMutability": "nonpayable",
      "type": "constructor"
    },
    {
      "inputs": [
        {
          "internalType": "bytes32",
          "name": "",
          "type": "bytes32"
        }
      ],
      "name": "getBorrower",
      "outputs": [
        {
          "internalType": "address",
          "name": "",
          "type": "address"
        }
      ],
      "stateMutability": "view",
      "type": "function"
    },
    {
      "inputs": [
        {
          "internalType": "bytes32",
          "name": "",
          "type": "bytes32"
        }
      ],
      "name": "isDrawdown",
      "outputs": [
        {
          "internalType": "bool",
          "name": "",
          "type": "bool"
        }
      ],
      "stateMutability": "view",
      "type": "function"
    },
    {
      "inputs": [
        {
          "internalType": "bytes32",
          "name": "",
          "type": "bytes32"
        }
      ],
      "name": "isRepaid",
      "outputs": [
        {
          "internalType": "bool",
          "name": "",
          "type": "bool"
        }
      ],
      "stateMutability": "pure",
      "type": "function"
    },
    {
      "inputs": [
        {
          "internalType": "bytes32",
          "name": "",
          "type": "bytes32"
        }
      ],
      "name": "isWriteOff",
      "outputs": [
        {
          "internalType": "bool",
          "name": "",
          "type": "bool"
        }
      ],
      "stateMutability": "pure",
      "type": "function"
    },
    {
      "inputs": [
        {
          "internalType": "bytes32",
          "name": "",
          "type": "bytes32"
        }
      ],
      "name": "markDrawDown",
      "outputs": [],
      "stateMutability": "nonpayable",
      "type": "function"
    },
    {
      "inputs": [
        {
          "internalType": "bytes32",
          "name": "",
          "type": "bytes32"
        }
      ],
      "name": "markRepaid",
      "outputs": [],
      "stateMutability": "nonpayable",
      "type": "function"
    },
    {
      "inputs": [
        {
          "internalType": "address",
          "name": "_opportunityPool",
          "type": "address"
        }
      ],
      "name": "writeOffOpportunity",
      "outputs": [],
      "stateMutability": "nonpayable",
      "type": "function"
    }
  ],
  "bytecode": "0x608060405234801561001057600080fd5b506040516102a33803806102a383398101604081905261002f91610054565b600080546001600160a01b0319166001600160a01b0392909216919091179055610082565b600060208284031215610065578081fd5b81516001600160a01b038116811461007b578182fd5b9392505050565b610212806100916000396000f3fe608060405234801561001057600080fd5b506004361061006d5760003560e01c8063332f1486146100725780634622abe0146100855780635600c5ad146100b95780636815322c146100cc578063728c3ea2146100e057806381767155146100cc578063af7ea94414610116575b600080fd5b6100836100803660046101c4565b50565b005b6100a46100933660046101c4565b50600054600160a01b900460ff1690565b60405190151581526020015b60405180910390f35b6100836100c7366004610196565b61013a565b6100a46100da3660046101c4565b50600190565b6100fe6100ee3660046101c4565b506000546001600160a01b031690565b6040516001600160a01b0390911681526020016100b0565b6100836101243660046101c4565b506000805460ff60a01b1916600160a01b179055565b6000819050806001600160a01b031663257c27366040518163ffffffff1660e01b8152600401600060405180830381600087803b15801561017a57600080fd5b505af115801561018e573d6000803e3d6000fd5b505050505050565b6000602082840312156101a7578081fd5b81356001600160a01b03811681146101bd578182fd5b9392505050565b6000602082840312156101d5578081fd5b503591905056fea26469706673582212200da82ca04fea341b5120223a0175359b7b0c22ec8588428b5287b64f458e863c64736f6c63430008040033",
  "linkReferences": {},
  "deployedLinkReferences": {}
}