{
  "_format": "hh-sol-artifact-1",
  "contractName": "MockOpportunityOriginationForTestingOO",
  "sourceName": "contracts/test-contract/MockOpportunityOriginationForTestingOO.sol",
  "abi": [
    {
      "inputs": [
        {
          "internalType": "contract DygnifyConfig",
          "name": "config",
          "type": "address"
        },
        {
          "internalType": "address",
          "name": "_poolAddress",
          "type": "address"
        },
        {
          "internalType": "address",
          "name": "_dygnifyKeeperAddress",
          "type": "address"
        }
      ],
      "stateMutability": "nonpayable",
      "type": "constructor"
    },
    {
      "inputs": [
        {
          "components": [
            {
              "internalType": "address",
              "name": "borrower",
              "type": "address"
            },
            {
              "internalType": "string",
              "name": "opportunityName",
              "type": "string"
            },
            {
              "internalType": "string",
              "name": "opportunityInfo",
              "type": "string"
            },
            {
              "internalType": "enum MockOpportunityOriginationForTestingOO.LoanType",
              "name": "loanType",
              "type": "uint8"
            },
            {
              "internalType": "uint256",
              "name": "loanAmount",
              "type": "uint256"
            },
            {
              "internalType": "uint256",
              "name": "loanTenureInDays",
              "type": "uint256"
            },
            {
              "internalType": "uint256",
              "name": "loanInterest",
              "type": "uint256"
            },
            {
              "internalType": "uint256",
              "name": "paymentFrequencyInDays",
              "type": "uint256"
            },
            {
              "internalType": "string",
              "name": "collateralDocument",
              "type": "string"
            },
            {
              "internalType": "uint256",
              "name": "capitalLoss",
              "type": "uint256"
            }
          ],
          "internalType": "struct MockOpportunityOriginationForTestingOO.CreateOpportunity",
          "name": "_opportunityData",
          "type": "tuple"
        },
        {
          "internalType": "enum MockOpportunityOriginationForTestingOO.OpportunityStatus",
          "name": "status",
          "type": "uint8"
        }
      ],
      "name": "createOpportunity",
      "outputs": [],
      "stateMutability": "nonpayable",
      "type": "function"
    },
    {
      "inputs": [],
      "name": "dygnifyConfig",
      "outputs": [
        {
          "internalType": "contract DygnifyConfig",
          "name": "",
          "type": "address"
        }
      ],
      "stateMutability": "view",
      "type": "function"
    },
    {
      "inputs": [
        {
          "internalType": "bytes32",
          "name": "id",
          "type": "bytes32"
        }
      ],
      "name": "getOpportunityPoolAddress",
      "outputs": [
        {
          "internalType": "address",
          "name": "",
          "type": "address"
        }
      ],
      "stateMutability": "view",
      "type": "function"
    },
    {
      "inputs": [
        {
          "internalType": "bytes32",
          "name": "id",
          "type": "bytes32"
        }
      ],
      "name": "isDrawdown",
      "outputs": [
        {
          "internalType": "bool",
          "name": "",
          "type": "bool"
        }
      ],
      "stateMutability": "pure",
      "type": "function"
    },
    {
      "inputs": [
        {
          "internalType": "bytes32",
          "name": "",
          "type": "bytes32"
        }
      ],
      "name": "isOpportunity",
      "outputs": [
        {
          "internalType": "bool",
          "name": "",
          "type": "bool"
        }
      ],
      "stateMutability": "view",
      "type": "function"
    },
    {
      "inputs": [
        {
          "internalType": "bytes32",
          "name": "id",
          "type": "bytes32"
        }
      ],
      "name": "markDrawDown",
      "outputs": [],
      "stateMutability": "nonpayable",
      "type": "function"
    },
    {
      "inputs": [
        {
          "internalType": "bytes32",
          "name": "id",
          "type": "bytes32"
        }
      ],
      "name": "markRepaid",
      "outputs": [],
      "stateMutability": "nonpayable",
      "type": "function"
    },
    {
      "inputs": [
        {
          "internalType": "bytes32",
          "name": "id",
          "type": "bytes32"
        },
        {
          "internalType": "address",
          "name": "_pool",
          "type": "address"
        }
      ],
      "name": "markWriteOff",
      "outputs": [],
      "stateMutability": "nonpayable",
      "type": "function"
    },
    {
      "inputs": [
        {
          "internalType": "bytes32",
          "name": "",
          "type": "bytes32"
        }
      ],
      "name": "opportunityToId",
      "outputs": [
        {
          "internalType": "bytes32",
          "name": "opportunityID",
          "type": "bytes32"
        },
        {
          "internalType": "address",
          "name": "borrower",
          "type": "address"
        },
        {
          "internalType": "string",
          "name": "opportunityName",
          "type": "string"
        },
        {
          "internalType": "string",
          "name": "opportunityInfo",
          "type": "string"
        },
        {
          "internalType": "enum MockOpportunityOriginationForTestingOO.LoanType",
          "name": "loanType",
          "type": "uint8"
        },
        {
          "internalType": "uint256",
          "name": "loanAmount",
          "type": "uint256"
        },
        {
          "internalType": "uint256",
          "name": "loanTenureInDays",
          "type": "uint256"
        },
        {
          "internalType": "uint256",
          "name": "loanInterest",
          "type": "uint256"
        },
        {
          "internalType": "uint256",
          "name": "paymentFrequencyInDays",
          "type": "uint256"
        },
        {
          "internalType": "string",
          "name": "collateralDocument",
          "type": "string"
        },
        {
          "internalType": "uint256",
          "name": "capitalLoss",
          "type": "uint256"
        },
        {
          "internalType": "enum MockOpportunityOriginationForTestingOO.OpportunityStatus",
          "name": "opportunityStatus",
          "type": "uint8"
        },
        {
          "internalType": "address",
          "name": "opportunityPoolAddress",
          "type": "address"
        },
        {
          "internalType": "uint256",
          "name": "createdOn",
          "type": "uint256"
        }
      ],
      "stateMutability": "view",
      "type": "function"
    }
  ],
  "bytecode": "0x608060405234801561001057600080fd5b50604051620013a7380380620013a783398101604081905261003191610073565b600280546001600160a01b039485166001600160a01b0319918216179091556001805492851692821692909217909155600080549290931691161790556100d7565b600080600060608486031215610087578283fd5b8351610092816100bf565b60208501519093506100a3816100bf565b60408501519092506100b4816100bf565b809150509250925092565b6001600160a01b03811681146100d457600080fd5b50565b6112c080620000e76000396000f3fe608060405234801561001057600080fd5b50600436106100835760003560e01c80630bca245a146100885780631be95459146100be578063332f1486146100e95780634622abe0146100fe57806350789457146101225780636dc305f9146101355780637e4dc6d514610148578063af7ea94414610166578063e0bb77e314610179575b600080fd5b61009b610096366004610e45565b61019c565b6040516100b59e9d9c9b9a99989796959493929190611014565b60405180910390f35b6002546100d1906001600160a01b031681565b6040516001600160a01b0390911681526020016100b5565b6100fc6100f7366004610e45565b6103bf565b005b61011261010c366004610e45565b50600190565b60405190151581526020016100b5565b6100fc610130366004610e8c565b61058b565b6100fc610143366004610e5d565b61087d565b6100d1610156366004610e45565b506000546001600160a01b031690565b6100fc610174366004610e45565b6109ff565b610112610187366004610e45565b60046020526000908152604090205460ff1681565b60036020526000908152604090208054600182015460028301805492936001600160a01b03909216926101ce9061120b565b80601f01602080910402602001604051908101604052809291908181526020018280546101fa9061120b565b80156102475780601f1061021c57610100808354040283529160200191610247565b820191906000526020600020905b81548152906001019060200180831161022a57829003601f168201915b50505050509080600301805461025c9061120b565b80601f01602080910402602001604051908101604052809291908181526020018280546102889061120b565b80156102d55780601f106102aa576101008083540402835291602001916102d5565b820191906000526020600020905b8154815290600101906020018083116102b857829003601f168201915b5050505050908060040160009054906101000a900460ff16908060050154908060060154908060070154908060080154908060090180546103159061120b565b80601f01602080910402602001604051908101604052809291908181526020018280546103419061120b565b801561038e5780601f106103635761010080835404028352916020019161038e565b820191906000526020600020905b81548152906001019060200180831161037157829003601f168201915b50505050600a830154600b840154600c909401549293909260ff821692506101009091046001600160a01b0316908e565b60008181526004602052604090205460ff1615156001146103fb5760405162461bcd60e51b81526004016103f2906110ca565b60405180910390fd5b60066000828152600360205260409020600b015460ff16600881111561043157634e487b7160e01b600052602160045260246000fd5b1461044e5760405162461bcd60e51b81526004016103f290611144565b6000818152600360205260409020600b015461010090046001600160a01b031633146104d05760405162461bcd60e51b815260206004820152602b60248201527f4f6e6c79204f70706f7274756e69747920506f6f6c2063616e206d61726b206960448201526a1d08185cc81c995c185a5960aa1b60648201526084016103f2565b6000818152600360205260409020600b015461010090046001600160a01b031661050c5760405162461bcd60e51b81526004016103f290611101565b60008181526003602052604090819020600b01805460ff19166008179055600154905163169bd1e960e11b8152600481018390526001600160a01b0390911690632d37a3d2906024015b600060405180830381600087803b15801561057057600080fd5b505af1158015610584573d6000803e3d6000fd5b5050505050565b60008261010001516040516020016105a39190610ff8565b6040516020818303038152906040528051906020012090506105c3610c44565b81815283516001600160a01b03166020808301919091528401516040808301919091528401516060808301919091528401516080820190600181111561061957634e487b7160e01b600052602160045260246000fd5b9081600181111561063a57634e487b7160e01b600052602160045260246000fd5b905250608084015160a0820180516106539083906111b7565b90525060a084015160c08083019190915284015160e0808301919091528401516101008083019190915284015161012080830191909152840151610140820152426101a08201526000546001600160a01b031661018082015261016081018360088111156106d157634e487b7160e01b600052602160045260246000fd5b908160088111156106f257634e487b7160e01b600052602160045260246000fd5b90525060008281526003602090815260409182902083518155838201516001820180546001600160a01b0319166001600160a01b0390921691909117905591830151805184939261074a926002850192910190610cd4565b5060608201518051610766916003840191602090910190610cd4565b50608082015160048201805460ff19166001838181111561079757634e487b7160e01b600052602160045260246000fd5b021790555060a0820151600582015560c0820151600682015560e08201516007820155610100820151600882015561012082015180516107e1916009840191602090910190610cd4565b50610140820151600a820155610160820151600b8201805460ff1916600183600881111561081f57634e487b7160e01b600052602160045260246000fd5b0217905550610180820151600b820180546001600160a01b0390921661010002610100600160a81b03199092169190911790556101a090910151600c90910155506000908152600460205260409020805460ff191660011790555050565b60008281526004602052604090205460ff1615156001146108b05760405162461bcd60e51b81526004016103f2906110ca565b60066000838152600360205260409020600b015460ff1660088111156108e657634e487b7160e01b600052602160045260246000fd5b146109035760405162461bcd60e51b81526004016103f290611144565b600254610918906001600160a01b0316610bc3565b6001600160a01b0316336001600160a01b03161461098b5760405162461bcd60e51b815260206004820152602a60248201527f4f6e6c79206479676e6966794b65657065722063616e206d61726b206974206160448201526939903bb934ba32b7b33360b11b60648201526084016103f2565b600082815260036020526040808220600b01805460ff1916600717905580516312be139b60e11b815290516001600160a01b0384169263257c2736926004808201939182900301818387803b1580156109e357600080fd5b505af11580156109f7573d6000803e3d6000fd5b505050505050565b60008181526004602052604090205460ff161515600114610a325760405162461bcd60e51b81526004016103f2906110ca565b60056000828152600360205260409020600b015460ff166008811115610a6857634e487b7160e01b600052602160045260246000fd5b14610ab55760405162461bcd60e51b815260206004820152601e60248201527f4f70706f7274756e69747920706f6f6c206973206e6f7420616374697665000060448201526064016103f2565b6000818152600360205260409020600b015461010090046001600160a01b03163314610b395760405162461bcd60e51b815260206004820152602d60248201527f4f6e6c79204f70706f7274756e69747920506f6f6c2063616e206d61726b206960448201526c3a1030b990323930bbb237bbb760991b60648201526084016103f2565b6000818152600360205260409020600b015461010090046001600160a01b0316610b755760405162461bcd60e51b81526004016103f290611101565b60008181526003602052604090819020600b01805460ff191660061790556001549051633aa7c28360e01b8152600481018390526001600160a01b0390911690633aa7c28390602401610556565b604051635c9fcd8560e11b8152600960048201526000906001600160a01b0383169063b93f9b0a9060240160206040518083038186803b158015610c0657600080fd5b505afa158015610c1a573d6000803e3d6000fd5b505050506040513d601f19601f82011682018060405250810190610c3e9190610e22565b92915050565b604080516101c081018252600080825260208201819052606092820183905282820192909252906080820190815260200160008152602001600081526020016000815260200160008152602001606081526020016000815260200160006008811115610cc057634e487b7160e01b600052602160045260246000fd5b815260006020820181905260409091015290565b828054610ce09061120b565b90600052602060002090601f016020900481019282610d025760008555610d48565b82601f10610d1b57805160ff1916838001178555610d48565b82800160010185558215610d48579182015b82811115610d48578251825591602001919060010190610d2d565b50610d54929150610d58565b5090565b5b80821115610d545760008155600101610d59565b8035610d7881611272565b919050565b803560028110610d7857600080fd5b803560098110610d7857600080fd5b600082601f830112610dab578081fd5b813567ffffffffffffffff80821115610dc657610dc661125c565b604051601f8301601f19908116603f01168101908282118183101715610dee57610dee61125c565b81604052838152866020858801011115610e06578485fd5b8360208701602083013792830160200193909352509392505050565b600060208284031215610e33578081fd5b8151610e3e81611272565b9392505050565b600060208284031215610e56578081fd5b5035919050565b60008060408385031215610e6f578081fd5b823591506020830135610e8181611272565b809150509250929050565b60008060408385031215610e9e578182fd5b823567ffffffffffffffff80821115610eb5578384fd5b908401906101408287031215610ec9578384fd5b610ed161118d565b610eda83610d6d565b8152602083013582811115610eed578586fd5b610ef988828601610d9b565b602083015250604083013582811115610f10578586fd5b610f1c88828601610d9b565b604083015250610f2e60608401610d7d565b60608201526080830135608082015260a083013560a082015260c083013560c082015260e083013560e08201526101008084013583811115610f6e578687fd5b610f7a89828701610d9b565b82840152505061012091508183013582820152809450505050610f9f60208401610d8c565b90509250929050565b60028110610fb857610fb8611246565b9052565b60098110610fb857610fb8611246565b60008151808452610fe48160208601602086016111db565b601f01601f19169290920160200192915050565b6000825161100a8184602087016111db565b9190910192915050565b8e81526001600160a01b038e1660208201526101c06040820152600061103e6101c083018f610fcc565b8281036060840152611050818f610fcc565b905061105f608084018e610fa8565b8b60a08401528a60c08401528960e08401528861010084015282810361012084015261108b8189610fcc565b915050856101408301526110a3610160830186610fbc565b6001600160a01b03939093166101808201526101a001529c9b505050505050505050505050565b6020808252601c908201527f4f70706f7274756e69747920494420646f65736e277420657869737400000000604082015260600190565b60208082526023908201527f4f70706f7274756e69747920506f6f6c206973206e6f742063726561746564206040820152621e595d60ea1b606082015260800190565b60208082526029908201527f4f70706f7274756e69747920706f6f6c20697320686176656e277420647261776040820152683237bbb7103cb2ba1760b91b606082015260800190565b604051610140810167ffffffffffffffff811182821017156111b1576111b161125c565b60405290565b600082198211156111d657634e487b7160e01b81526011600452602481fd5b500190565b60005b838110156111f65781810151838201526020016111de565b83811115611205576000848401525b50505050565b600181811c9082168061121f57607f821691505b6020821081141561124057634e487b7160e01b600052602260045260246000fd5b50919050565b634e487b7160e01b600052602160045260246000fd5b634e487b7160e01b600052604160045260246000fd5b6001600160a01b038116811461128757600080fd5b5056fea2646970667358221220ac6bffffd856ddf4f4b55a92856aaf5312baa7d4ff8e77ac9e5785764e47a72964736f6c63430008040033",
  "linkReferences": {},
  "deployedLinkReferences": {}
}