{
  "_format": "hh-sol-artifact-1",
  "contractName": "NFTMinter",
  "sourceName": "contracts/protocol/old/NFT_minter.sol",
  "abi": [
    {
      "inputs": [],
      "stateMutability": "nonpayable",
      "type": "constructor"
    },
    {
      "anonymous": false,
      "inputs": [
        {
          "indexed": true,
          "internalType": "address",
          "name": "owner",
          "type": "address"
        },
        {
          "indexed": true,
          "internalType": "address",
          "name": "approved",
          "type": "address"
        },
        {
          "indexed": true,
          "internalType": "uint256",
          "name": "tokenId",
          "type": "uint256"
        }
      ],
      "name": "Approval",
      "type": "event"
    },
    {
      "anonymous": false,
      "inputs": [
        {
          "indexed": true,
          "internalType": "address",
          "name": "owner",
          "type": "address"
        },
        {
          "indexed": true,
          "internalType": "address",
          "name": "operator",
          "type": "address"
        },
        {
          "indexed": false,
          "internalType": "bool",
          "name": "approved",
          "type": "bool"
        }
      ],
      "name": "ApprovalForAll",
      "type": "event"
    },
    {
      "anonymous": false,
      "inputs": [
        {
          "indexed": true,
          "internalType": "address",
          "name": "from",
          "type": "address"
        },
        {
          "indexed": true,
          "internalType": "address",
          "name": "to",
          "type": "address"
        },
        {
          "indexed": true,
          "internalType": "uint256",
          "name": "tokenId",
          "type": "uint256"
        }
      ],
      "name": "Transfer",
      "type": "event"
    },
    {
      "inputs": [
        {
          "internalType": "address",
          "name": "to",
          "type": "address"
        },
        {
          "internalType": "uint256",
          "name": "tokenId",
          "type": "uint256"
        }
      ],
      "name": "approve",
      "outputs": [],
      "stateMutability": "nonpayable",
      "type": "function"
    },
    {
      "inputs": [
        {
          "internalType": "address",
          "name": "owner",
          "type": "address"
        }
      ],
      "name": "balanceOf",
      "outputs": [
        {
          "internalType": "uint256",
          "name": "",
          "type": "uint256"
        }
      ],
      "stateMutability": "view",
      "type": "function"
    },
    {
      "inputs": [
        {
          "internalType": "uint256",
          "name": "tokenId",
          "type": "uint256"
        }
      ],
      "name": "getApproved",
      "outputs": [
        {
          "internalType": "address",
          "name": "",
          "type": "address"
        }
      ],
      "stateMutability": "view",
      "type": "function"
    },
    {
      "inputs": [
        {
          "internalType": "address",
          "name": "owner",
          "type": "address"
        },
        {
          "internalType": "address",
          "name": "operator",
          "type": "address"
        }
      ],
      "name": "isApprovedForAll",
      "outputs": [
        {
          "internalType": "bool",
          "name": "",
          "type": "bool"
        }
      ],
      "stateMutability": "view",
      "type": "function"
    },
    {
      "inputs": [
        {
          "internalType": "string",
          "name": "tokenURI",
          "type": "string"
        }
      ],
      "name": "mint",
      "outputs": [
        {
          "internalType": "uint256",
          "name": "",
          "type": "uint256"
        }
      ],
      "stateMutability": "nonpayable",
      "type": "function"
    },
    {
      "inputs": [],
      "name": "name",
      "outputs": [
        {
          "internalType": "string",
          "name": "",
          "type": "string"
        }
      ],
      "stateMutability": "view",
      "type": "function"
    },
    {
      "inputs": [
        {
          "internalType": "uint256",
          "name": "tokenId",
          "type": "uint256"
        }
      ],
      "name": "ownerOf",
      "outputs": [
        {
          "internalType": "address",
          "name": "",
          "type": "address"
        }
      ],
      "stateMutability": "view",
      "type": "function"
    },
    {
      "inputs": [
        {
          "internalType": "address",
          "name": "from",
          "type": "address"
        },
        {
          "internalType": "address",
          "name": "to",
          "type": "address"
        },
        {
          "internalType": "uint256",
          "name": "tokenId",
          "type": "uint256"
        }
      ],
      "name": "safeTransferFrom",
      "outputs": [],
      "stateMutability": "nonpayable",
      "type": "function"
    },
    {
      "inputs": [
        {
          "internalType": "address",
          "name": "from",
          "type": "address"
        },
        {
          "internalType": "address",
          "name": "to",
          "type": "address"
        },
        {
          "internalType": "uint256",
          "name": "tokenId",
          "type": "uint256"
        },
        {
          "internalType": "bytes",
          "name": "data",
          "type": "bytes"
        }
      ],
      "name": "safeTransferFrom",
      "outputs": [],
      "stateMutability": "nonpayable",
      "type": "function"
    },
    {
      "inputs": [
        {
          "internalType": "address",
          "name": "operator",
          "type": "address"
        },
        {
          "internalType": "bool",
          "name": "approved",
          "type": "bool"
        }
      ],
      "name": "setApprovalForAll",
      "outputs": [],
      "stateMutability": "nonpayable",
      "type": "function"
    },
    {
      "inputs": [
        {
          "internalType": "bytes4",
          "name": "interfaceId",
          "type": "bytes4"
        }
      ],
      "name": "supportsInterface",
      "outputs": [
        {
          "internalType": "bool",
          "name": "",
          "type": "bool"
        }
      ],
      "stateMutability": "view",
      "type": "function"
    },
    {
      "inputs": [],
      "name": "symbol",
      "outputs": [
        {
          "internalType": "string",
          "name": "",
          "type": "string"
        }
      ],
      "stateMutability": "view",
      "type": "function"
    },
    {
      "inputs": [
        {
          "internalType": "uint256",
          "name": "tokenId",
          "type": "uint256"
        }
      ],
      "name": "tokenURI",
      "outputs": [
        {
          "internalType": "string",
          "name": "",
          "type": "string"
        }
      ],
      "stateMutability": "view",
      "type": "function"
    },
    {
      "inputs": [],
      "name": "totalSupply",
      "outputs": [
        {
          "internalType": "uint256",
          "name": "",
          "type": "uint256"
        }
      ],
      "stateMutability": "view",
      "type": "function"
    },
    {
      "inputs": [
        {
          "internalType": "address",
          "name": "from",
          "type": "address"
        },
        {
          "internalType": "address",
          "name": "to",
          "type": "address"
        },
        {
          "internalType": "uint256",
          "name": "tokenId",
          "type": "uint256"
        }
      ],
      "name": "transferFrom",
      "outputs": [],
      "stateMutability": "nonpayable",
      "type": "function"
    }
  ],
  "bytecode": "0x60806040523480156200001157600080fd5b5060408051808201825260088152674e6674566572736560c01b602080830191825283518085019094526002845261272b60f11b9084015281519192916200005c916000916200007b565b508051620000729060019060208401906200007b565b5050506200015e565b828054620000899062000121565b90600052602060002090601f016020900481019282620000ad5760008555620000f8565b82601f10620000c857805160ff1916838001178555620000f8565b82800160010185558215620000f8579182015b82811115620000f8578251825591602001919060010190620000db565b50620001069291506200010a565b5090565b5b808211156200010657600081556001016200010b565b600181811c908216806200013657607f821691505b602082108114156200015857634e487b7160e01b600052602260045260246000fd5b50919050565b6114ed806200016e6000396000f3fe608060405234801561001057600080fd5b50600436106100d55760003560e01c80636352211e116100875780636352211e1461019357806370a08231146101a657806395d89b41146101b9578063a22cb465146101c1578063b88d4fde146101d4578063c87b56dd146101e7578063d85d3d27146101fa578063e985e9c51461020d57600080fd5b806301ffc9a7146100da57806306fdde0314610102578063081812fc14610117578063095ea7b31461014257806318160ddd1461015757806323b872dd1461016d57806342842e0e14610180575b600080fd5b6100ed6100e8366004611151565b610220565b60405190151581526020015b60405180910390f35b61010a610272565b6040516100f9919061127f565b61012a6101253660046111cf565b610304565b6040516001600160a01b0390911681526020016100f9565b610155610150366004611128565b61032b565b005b61015f610446565b6040519081526020016100f9565b61015561017b36600461103a565b610456565b61015561018e36600461103a565b610487565b61012a6101a13660046111cf565b6104a2565b61015f6101b4366004610fee565b6104d7565b61010a61055d565b6101556101cf3660046110ee565b61056c565b6101556101e2366004611075565b61057b565b61010a6101f53660046111cf565b6105b3565b61015f610208366004611189565b610627565b6100ed61021b366004611008565b610658565b60006001600160e01b031982166380ac58cd60e01b148061025157506001600160e01b03198216635b5e139f60e01b145b8061026c57506301ffc9a760e01b6001600160e01b03198316145b92915050565b6060600080546102819061143a565b80601f01602080910402602001604051908101604052809291908181526020018280546102ad9061143a565b80156102fa5780601f106102cf576101008083540402835291602001916102fa565b820191906000526020600020905b8154815290600101906020018083116102dd57829003601f168201915b5050505050905090565b600061030f82610686565b506000908152600460205260409020546001600160a01b031690565b6000610336826104a2565b9050806001600160a01b0316836001600160a01b031614156103a95760405162461bcd60e51b815260206004820152602160248201527f4552433732313a20617070726f76616c20746f2063757272656e74206f776e656044820152603960f91b60648201526084015b60405180910390fd5b336001600160a01b03821614806103c557506103c58133610658565b6104375760405162461bcd60e51b815260206004820152603d60248201527f4552433732313a20617070726f76652063616c6c6572206973206e6f7420746f60448201527f6b656e206f776e6572206f7220617070726f76656420666f7220616c6c00000060648201526084016103a0565b61044183836106ae565b505050565b600061045160065490565b905090565b610460338261071c565b61047c5760405162461bcd60e51b81526004016103a090611292565b61044183838361077b565b6104418383836040518060200160405280600081525061057b565b6000818152600260205260408120546001600160a01b03168061026c5760405162461bcd60e51b81526004016103a0906113ad565b60006001600160a01b0382166105415760405162461bcd60e51b815260206004820152602960248201527f4552433732313a2061646472657373207a65726f206973206e6f7420612076616044820152683634b21037bbb732b960b91b60648201526084016103a0565b506001600160a01b031660009081526003602052604090205490565b6060600180546102819061143a565b6105773383836108ec565b5050565b610585338361071c565b6105a15760405162461bcd60e51b81526004016103a090611292565b6105ad848484846109b7565b50505050565b60606105be82610686565b60006105d560408051602081019091526000815290565b905060008151116105f55760405180602001604052806000815250610620565b806105ff846109ea565b604051602001610610929190611213565b6040516020818303038152906040525b9392505050565b6000610637600680546001019055565b600061064260065490565b905061064e3382610a95565b61026c8184610bb0565b6001600160a01b03918216600090815260056020908152604080832093909416825291909152205460ff1690565b61068f81610c39565b6106ab5760405162461bcd60e51b81526004016103a0906113ad565b50565b600081815260046020526040902080546001600160a01b0319166001600160a01b03841690811790915581906106e3826104a2565b6001600160a01b03167f8c5be1e5ebec7d5bd14f71427d1e84f3dd0314c0f7b2291e5b200ac8c7c3b92560405160405180910390a45050565b600080610728836104a2565b9050806001600160a01b0316846001600160a01b0316148061074f575061074f8185610658565b806107735750836001600160a01b031661076884610304565b6001600160a01b0316145b949350505050565b826001600160a01b031661078e826104a2565b6001600160a01b0316146107b45760405162461bcd60e51b81526004016103a090611331565b6001600160a01b0382166108165760405162461bcd60e51b8152602060048201526024808201527f4552433732313a207472616e7366657220746f20746865207a65726f206164646044820152637265737360e01b60648201526084016103a0565b6108238383836001610c56565b826001600160a01b0316610836826104a2565b6001600160a01b03161461085c5760405162461bcd60e51b81526004016103a090611331565b600081815260046020908152604080832080546001600160a01b03199081169091556001600160a01b0387811680865260038552838620805460001901905590871680865283862080546001019055868652600290945282852080549092168417909155905184937fddf252ad1be2c89b69c2b068fc378daa952ba7f163c4a11628f55a4df523b3ef91a4505050565b816001600160a01b0316836001600160a01b0316141561094a5760405162461bcd60e51b815260206004820152601960248201527822a9219b99189d1030b8383937bb32903a379031b0b63632b960391b60448201526064016103a0565b6001600160a01b03838116600081815260056020908152604080832094871680845294825291829020805460ff191686151590811790915591519182527f17307eab39ab6107e8899845ad3d59bd9653f200f220920489ca2b5937696c31910160405180910390a3505050565b6109c284848461077b565b6109ce84848484610cde565b6105ad5760405162461bcd60e51b81526004016103a0906112df565b606060006109f783610deb565b600101905060008167ffffffffffffffff811115610a2557634e487b7160e01b600052604160045260246000fd5b6040519080825280601f01601f191660200182016040528015610a4f576020820181803683370190505b5090508181016020015b600019016f181899199a1a9b1b9c1cb0b131b232b360811b600a86061a8153600a8504945084610a8857610a8d565b610a59565b509392505050565b6001600160a01b038216610aeb5760405162461bcd60e51b815260206004820181905260248201527f4552433732313a206d696e7420746f20746865207a65726f206164647265737360448201526064016103a0565b610af481610c39565b15610b115760405162461bcd60e51b81526004016103a090611376565b610b1f600083836001610c56565b610b2881610c39565b15610b455760405162461bcd60e51b81526004016103a090611376565b6001600160a01b038216600081815260036020908152604080832080546001019055848352600290915280822080546001600160a01b0319168417905551839291907fddf252ad1be2c89b69c2b068fc378daa952ba7f163c4a11628f55a4df523b3ef908290a45050565b610bb982610c39565b610c1a5760405162461bcd60e51b815260206004820152602c60248201527f4552433732314d657461646174613a2055524920736574206f66206e6f6e657860448201526b34b9ba32b73a103a37b5b2b760a11b60648201526084016103a0565b6000828152600760209081526040909120825161044192840190610ec3565b6000908152600260205260409020546001600160a01b0316151590565b60018111156105ad576001600160a01b03841615610c9c576001600160a01b03841660009081526003602052604081208054839290610c969084906113f7565b90915550505b6001600160a01b038316156105ad576001600160a01b03831660009081526003602052604081208054839290610cd39084906113df565b909155505050505050565b60006001600160a01b0384163b15610de057604051630a85bd0160e11b81526001600160a01b0385169063150b7a0290610d22903390899088908890600401611242565b602060405180830381600087803b158015610d3c57600080fd5b505af1925050508015610d6c575060408051601f3d908101601f19168201909252610d699181019061116d565b60015b610dc6573d808015610d9a576040519150601f19603f3d011682016040523d82523d6000602084013e610d9f565b606091505b508051610dbe5760405162461bcd60e51b81526004016103a0906112df565b805181602001fd5b6001600160e01b031916630a85bd0160e11b149050610773565b506001949350505050565b60008072184f03e93ff9f4daa797ed6e38ed64bf6a1f0160401b8310610e2a5772184f03e93ff9f4daa797ed6e38ed64bf6a1f0160401b830492506040015b6d04ee2d6d415b85acef81000000008310610e56576d04ee2d6d415b85acef8100000000830492506020015b662386f26fc100008310610e7457662386f26fc10000830492506010015b6305f5e1008310610e8c576305f5e100830492506008015b6127108310610ea057612710830492506004015b60648310610eb2576064830492506002015b600a831061026c5760010192915050565b828054610ecf9061143a565b90600052602060002090601f016020900481019282610ef15760008555610f37565b82601f10610f0a57805160ff1916838001178555610f37565b82800160010185558215610f37579182015b82811115610f37578251825591602001919060010190610f1c565b50610f43929150610f47565b5090565b5b80821115610f435760008155600101610f48565b600067ffffffffffffffff80841115610f7757610f7761148b565b604051601f8501601f19908116603f01168101908282118183101715610f9f57610f9f61148b565b81604052809350858152868686011115610fb857600080fd5b858560208301376000602087830101525050509392505050565b80356001600160a01b0381168114610fe957600080fd5b919050565b600060208284031215610fff578081fd5b61062082610fd2565b6000806040838503121561101a578081fd5b61102383610fd2565b915061103160208401610fd2565b90509250929050565b60008060006060848603121561104e578081fd5b61105784610fd2565b925061106560208501610fd2565b9150604084013590509250925092565b6000806000806080858703121561108a578081fd5b61109385610fd2565b93506110a160208601610fd2565b925060408501359150606085013567ffffffffffffffff8111156110c3578182fd5b8501601f810187136110d3578182fd5b6110e287823560208401610f5c565b91505092959194509250565b60008060408385031215611100578182fd5b61110983610fd2565b91506020830135801515811461111d578182fd5b809150509250929050565b6000806040838503121561113a578182fd5b61114383610fd2565b946020939093013593505050565b600060208284031215611162578081fd5b8135610620816114a1565b60006020828403121561117e578081fd5b8151610620816114a1565b60006020828403121561119a578081fd5b813567ffffffffffffffff8111156111b0578182fd5b8201601f810184136111c0578182fd5b61077384823560208401610f5c565b6000602082840312156111e0578081fd5b5035919050565b600081518084526111ff81602086016020860161140e565b601f01601f19169290920160200192915050565b6000835161122581846020880161140e565b83519083019061123981836020880161140e565b01949350505050565b6001600160a01b0385811682528416602082015260408101839052608060608201819052600090611275908301846111e7565b9695505050505050565b60208152600061062060208301846111e7565b6020808252602d908201527f4552433732313a2063616c6c6572206973206e6f7420746f6b656e206f776e6560408201526c1c881bdc88185c1c1c9bdd9959609a1b606082015260800190565b60208082526032908201527f4552433732313a207472616e7366657220746f206e6f6e20455243373231526560408201527131b2b4bb32b91034b6b83632b6b2b73a32b960711b606082015260800190565b60208082526025908201527f4552433732313a207472616e736665722066726f6d20696e636f72726563742060408201526437bbb732b960d91b606082015260800190565b6020808252601c908201527f4552433732313a20746f6b656e20616c7265616479206d696e74656400000000604082015260600190565b602080825260189082015277115490cdcc8c4e881a5b9d985b1a59081d1bdad95b88125160421b604082015260600190565b600082198211156113f2576113f2611475565b500190565b60008282101561140957611409611475565b500390565b60005b83811015611429578181015183820152602001611411565b838111156105ad5750506000910152565b600181811c9082168061144e57607f821691505b6020821081141561146f57634e487b7160e01b600052602260045260246000fd5b50919050565b634e487b7160e01b600052601160045260246000fd5b634e487b7160e01b600052604160045260246000fd5b6001600160e01b0319811681146106ab57600080fdfea2646970667358221220766ae5ee75452be357fea7b9a9947ce0d077034e0de4808272b5d5550f5b3ba364736f6c63430008040033",
  "linkReferences": {},
  "deployedLinkReferences": {}
}