{
  "_format": "hh-sol-artifact-1",
  "contractName": "IdentityToken",
  "sourceName": "contracts/protocol/IdentityToken.sol",
  "abi": [
    {
      "anonymous": false,
      "inputs": [
        {
          "indexed": false,
          "internalType": "address",
          "name": "previousAdmin",
          "type": "address"
        },
        {
          "indexed": false,
          "internalType": "address",
          "name": "newAdmin",
          "type": "address"
        }
      ],
      "name": "AdminChanged",
      "type": "event"
    },
    {
      "anonymous": false,
      "inputs": [
        {
          "indexed": true,
          "internalType": "address",
          "name": "owner",
          "type": "address"
        },
        {
          "indexed": true,
          "internalType": "address",
          "name": "approved",
          "type": "address"
        },
        {
          "indexed": true,
          "internalType": "uint256",
          "name": "tokenId",
          "type": "uint256"
        }
      ],
      "name": "Approval",
      "type": "event"
    },
    {
      "anonymous": false,
      "inputs": [
        {
          "indexed": true,
          "internalType": "address",
          "name": "owner",
          "type": "address"
        },
        {
          "indexed": true,
          "internalType": "address",
          "name": "operator",
          "type": "address"
        },
        {
          "indexed": false,
          "internalType": "bool",
          "name": "approved",
          "type": "bool"
        }
      ],
      "name": "ApprovalForAll",
      "type": "event"
    },
    {
      "anonymous": false,
      "inputs": [
        {
          "indexed": true,
          "internalType": "address",
          "name": "beacon",
          "type": "address"
        }
      ],
      "name": "BeaconUpgraded",
      "type": "event"
    },
    {
      "anonymous": false,
      "inputs": [
        {
          "indexed": false,
          "internalType": "uint8",
          "name": "version",
          "type": "uint8"
        }
      ],
      "name": "Initialized",
      "type": "event"
    },
    {
      "anonymous": false,
      "inputs": [
        {
          "indexed": false,
          "internalType": "address",
          "name": "account",
          "type": "address"
        }
      ],
      "name": "Paused",
      "type": "event"
    },
    {
      "anonymous": false,
      "inputs": [
        {
          "indexed": true,
          "internalType": "bytes32",
          "name": "role",
          "type": "bytes32"
        },
        {
          "indexed": true,
          "internalType": "bytes32",
          "name": "previousAdminRole",
          "type": "bytes32"
        },
        {
          "indexed": true,
          "internalType": "bytes32",
          "name": "newAdminRole",
          "type": "bytes32"
        }
      ],
      "name": "RoleAdminChanged",
      "type": "event"
    },
    {
      "anonymous": false,
      "inputs": [
        {
          "indexed": true,
          "internalType": "bytes32",
          "name": "role",
          "type": "bytes32"
        },
        {
          "indexed": true,
          "internalType": "address",
          "name": "account",
          "type": "address"
        },
        {
          "indexed": true,
          "internalType": "address",
          "name": "sender",
          "type": "address"
        }
      ],
      "name": "RoleGranted",
      "type": "event"
    },
    {
      "anonymous": false,
      "inputs": [
        {
          "indexed": true,
          "internalType": "bytes32",
          "name": "role",
          "type": "bytes32"
        },
        {
          "indexed": true,
          "internalType": "address",
          "name": "account",
          "type": "address"
        },
        {
          "indexed": true,
          "internalType": "address",
          "name": "sender",
          "type": "address"
        }
      ],
      "name": "RoleRevoked",
      "type": "event"
    },
    {
      "anonymous": false,
      "inputs": [
        {
          "indexed": true,
          "internalType": "address",
          "name": "from",
          "type": "address"
        },
        {
          "indexed": true,
          "internalType": "address",
          "name": "to",
          "type": "address"
        },
        {
          "indexed": true,
          "internalType": "uint256",
          "name": "tokenId",
          "type": "uint256"
        }
      ],
      "name": "Transfer",
      "type": "event"
    },
    {
      "anonymous": false,
      "inputs": [
        {
          "indexed": false,
          "internalType": "address",
          "name": "account",
          "type": "address"
        }
      ],
      "name": "Unpaused",
      "type": "event"
    },
    {
      "anonymous": false,
      "inputs": [
        {
          "indexed": true,
          "internalType": "address",
          "name": "implementation",
          "type": "address"
        }
      ],
      "name": "Upgraded",
      "type": "event"
    },
    {
      "inputs": [],
      "name": "DEFAULT_ADMIN_ROLE",
      "outputs": [
        {
          "internalType": "bytes32",
          "name": "",
          "type": "bytes32"
        }
      ],
      "stateMutability": "view",
      "type": "function"
    },
    {
      "inputs": [
        {
          "internalType": "address",
          "name": "to",
          "type": "address"
        },
        {
          "internalType": "uint256",
          "name": "tokenId",
          "type": "uint256"
        }
      ],
      "name": "approve",
      "outputs": [],
      "stateMutability": "nonpayable",
      "type": "function"
    },
    {
      "inputs": [
        {
          "internalType": "address",
          "name": "owner",
          "type": "address"
        }
      ],
      "name": "balanceOf",
      "outputs": [
        {
          "internalType": "uint256",
          "name": "",
          "type": "uint256"
        }
      ],
      "stateMutability": "view",
      "type": "function"
    },
    {
      "inputs": [
        {
          "internalType": "uint256",
          "name": "tokenId",
          "type": "uint256"
        }
      ],
      "name": "burn",
      "outputs": [],
      "stateMutability": "nonpayable",
      "type": "function"
    },
    {
      "inputs": [
        {
          "internalType": "uint256",
          "name": "tokenId",
          "type": "uint256"
        }
      ],
      "name": "getApproved",
      "outputs": [
        {
          "internalType": "address",
          "name": "",
          "type": "address"
        }
      ],
      "stateMutability": "view",
      "type": "function"
    },
    {
      "inputs": [
        {
          "internalType": "bytes32",
          "name": "role",
          "type": "bytes32"
        }
      ],
      "name": "getRoleAdmin",
      "outputs": [
        {
          "internalType": "bytes32",
          "name": "",
          "type": "bytes32"
        }
      ],
      "stateMutability": "view",
      "type": "function"
    },
    {
      "inputs": [
        {
          "internalType": "bytes32",
          "name": "role",
          "type": "bytes32"
        },
        {
          "internalType": "address",
          "name": "account",
          "type": "address"
        }
      ],
      "name": "grantRole",
      "outputs": [],
      "stateMutability": "nonpayable",
      "type": "function"
    },
    {
      "inputs": [
        {
          "internalType": "bytes32",
          "name": "role",
          "type": "bytes32"
        },
        {
          "internalType": "address",
          "name": "account",
          "type": "address"
        }
      ],
      "name": "hasRole",
      "outputs": [
        {
          "internalType": "bool",
          "name": "",
          "type": "bool"
        }
      ],
      "stateMutability": "view",
      "type": "function"
    },
    {
      "inputs": [],
      "name": "initialize",
      "outputs": [],
      "stateMutability": "nonpayable",
      "type": "function"
    },
    {
      "inputs": [
        {
          "internalType": "address",
          "name": "owner",
          "type": "address"
        },
        {
          "internalType": "address",
          "name": "operator",
          "type": "address"
        }
      ],
      "name": "isApprovedForAll",
      "outputs": [
        {
          "internalType": "bool",
          "name": "",
          "type": "bool"
        }
      ],
      "stateMutability": "view",
      "type": "function"
    },
    {
      "inputs": [],
      "name": "name",
      "outputs": [
        {
          "internalType": "string",
          "name": "",
          "type": "string"
        }
      ],
      "stateMutability": "view",
      "type": "function"
    },
    {
      "inputs": [
        {
          "internalType": "uint256",
          "name": "tokenId",
          "type": "uint256"
        }
      ],
      "name": "ownerOf",
      "outputs": [
        {
          "internalType": "address",
          "name": "",
          "type": "address"
        }
      ],
      "stateMutability": "view",
      "type": "function"
    },
    {
      "inputs": [],
      "name": "pause",
      "outputs": [],
      "stateMutability": "nonpayable",
      "type": "function"
    },
    {
      "inputs": [],
      "name": "paused",
      "outputs": [
        {
          "internalType": "bool",
          "name": "",
          "type": "bool"
        }
      ],
      "stateMutability": "view",
      "type": "function"
    },
    {
      "inputs": [],
      "name": "proxiableUUID",
      "outputs": [
        {
          "internalType": "bytes32",
          "name": "",
          "type": "bytes32"
        }
      ],
      "stateMutability": "view",
      "type": "function"
    },
    {
      "inputs": [
        {
          "internalType": "bytes32",
          "name": "role",
          "type": "bytes32"
        },
        {
          "internalType": "address",
          "name": "account",
          "type": "address"
        }
      ],
      "name": "renounceRole",
      "outputs": [],
      "stateMutability": "nonpayable",
      "type": "function"
    },
    {
      "inputs": [
        {
          "internalType": "bytes32",
          "name": "role",
          "type": "bytes32"
        },
        {
          "internalType": "address",
          "name": "account",
          "type": "address"
        }
      ],
      "name": "revokeRole",
      "outputs": [],
      "stateMutability": "nonpayable",
      "type": "function"
    },
    {
      "inputs": [
        {
          "internalType": "address",
          "name": "to",
          "type": "address"
        },
        {
          "internalType": "string",
          "name": "uri",
          "type": "string"
        }
      ],
      "name": "safeMint",
      "outputs": [],
      "stateMutability": "nonpayable",
      "type": "function"
    },
    {
      "inputs": [
        {
          "internalType": "address",
          "name": "from",
          "type": "address"
        },
        {
          "internalType": "address",
          "name": "to",
          "type": "address"
        },
        {
          "internalType": "uint256",
          "name": "tokenId",
          "type": "uint256"
        }
      ],
      "name": "safeTransferFrom",
      "outputs": [],
      "stateMutability": "nonpayable",
      "type": "function"
    },
    {
      "inputs": [
        {
          "internalType": "address",
          "name": "from",
          "type": "address"
        },
        {
          "internalType": "address",
          "name": "to",
          "type": "address"
        },
        {
          "internalType": "uint256",
          "name": "tokenId",
          "type": "uint256"
        },
        {
          "internalType": "bytes",
          "name": "data",
          "type": "bytes"
        }
      ],
      "name": "safeTransferFrom",
      "outputs": [],
      "stateMutability": "nonpayable",
      "type": "function"
    },
    {
      "inputs": [
        {
          "internalType": "address",
          "name": "operator",
          "type": "address"
        },
        {
          "internalType": "bool",
          "name": "approved",
          "type": "bool"
        }
      ],
      "name": "setApprovalForAll",
      "outputs": [],
      "stateMutability": "nonpayable",
      "type": "function"
    },
    {
      "inputs": [
        {
          "internalType": "bytes4",
          "name": "interfaceId",
          "type": "bytes4"
        }
      ],
      "name": "supportsInterface",
      "outputs": [
        {
          "internalType": "bool",
          "name": "",
          "type": "bool"
        }
      ],
      "stateMutability": "view",
      "type": "function"
    },
    {
      "inputs": [],
      "name": "symbol",
      "outputs": [
        {
          "internalType": "string",
          "name": "",
          "type": "string"
        }
      ],
      "stateMutability": "view",
      "type": "function"
    },
    {
      "inputs": [
        {
          "internalType": "uint256",
          "name": "tokenId",
          "type": "uint256"
        }
      ],
      "name": "tokenURI",
      "outputs": [
        {
          "internalType": "string",
          "name": "",
          "type": "string"
        }
      ],
      "stateMutability": "view",
      "type": "function"
    },
    {
      "inputs": [
        {
          "internalType": "address",
          "name": "from",
          "type": "address"
        },
        {
          "internalType": "address",
          "name": "to",
          "type": "address"
        },
        {
          "internalType": "uint256",
          "name": "tokenId",
          "type": "uint256"
        }
      ],
      "name": "transferFrom",
      "outputs": [],
      "stateMutability": "nonpayable",
      "type": "function"
    },
    {
      "inputs": [],
      "name": "unpause",
      "outputs": [],
      "stateMutability": "nonpayable",
      "type": "function"
    },
    {
      "inputs": [
        {
          "internalType": "address",
          "name": "newImplementation",
          "type": "address"
        }
      ],
      "name": "upgradeTo",
      "outputs": [],
      "stateMutability": "nonpayable",
      "type": "function"
    },
    {
      "inputs": [
        {
          "internalType": "address",
          "name": "newImplementation",
          "type": "address"
        },
        {
          "internalType": "bytes",
          "name": "data",
          "type": "bytes"
        }
      ],
      "name": "upgradeToAndCall",
      "outputs": [],
      "stateMutability": "payable",
      "type": "function"
    }
  ],
  "bytecode": "0x60a06040523060601b60805234801561001757600080fd5b5060805160601c612ba5610052600039600081816107b9015281816107f9015281816108e401528181610924015261099c0152612ba56000f3fe6080604052600436106101775760003560e01c80635c975abb116100cc578063a217fddf1161007a578063a217fddf1461041f578063a22cb46514610434578063b88d4fde14610454578063c87b56dd14610474578063d204c45e14610494578063d547741f146104b4578063e985e9c5146104d457600080fd5b80635c975abb146103685780636352211e1461038057806370a08231146103a05780638129fc1c146103c05780638456cb59146103d557806391d14854146103ea57806395d89b411461040a57600080fd5b806336568abe1161012957806336568abe146102ab5780633659cfe6146102cb5780633f4ba83a146102eb57806342842e0e1461030057806342966c68146103205780634f1ef2861461034057806352d1902d1461035357600080fd5b806301ffc9a71461017c57806306fdde03146101b1578063081812fc146101d3578063095ea7b31461020b57806323b872dd1461022d578063248a9ca31461024d5780632f2ff15d1461028b575b600080fd5b34801561018857600080fd5b5061019c61019736600461267e565b6104f4565b60405190151581526020015b60405180910390f35b3480156101bd57600080fd5b506101c6610505565b6040516101a891906127d9565b3480156101df57600080fd5b506101f36101ee36600461262c565b610597565b6040516001600160a01b0390911681526020016101a8565b34801561021757600080fd5b5061022b610226366004612603565b6105be565b005b34801561023957600080fd5b5061022b610248366004612487565b6106d9565b34801561025957600080fd5b5061027d61026836600461262c565b600090815260fb602052604090206001015490565b6040519081526020016101a8565b34801561029757600080fd5b5061022b6102a636600461265c565b61070b565b3480156102b757600080fd5b5061022b6102c636600461265c565b610730565b3480156102d757600080fd5b5061022b6102e636600461243b565b6107ae565b3480156102f757600080fd5b5061022b610877565b34801561030c57600080fd5b5061022b61031b366004612487565b610890565b34801561032c57600080fd5b5061022b61033b36600461262c565b6108ab565b61022b61034e366004612562565b6108d9565b34801561035f57600080fd5b5061027d61098f565b34801561037457600080fd5b5060c95460ff1661019c565b34801561038c57600080fd5b506101f361039b36600461262c565b610a3d565b3480156103ac57600080fd5b5061027d6103bb36600461243b565b610a72565b3480156103cc57600080fd5b5061022b610af8565b3480156103e157600080fd5b5061022b610cdf565b3480156103f657600080fd5b5061019c61040536600461265c565b610cf8565b34801561041657600080fd5b506101c6610d23565b34801561042b57600080fd5b5061027d600081565b34801561044057600080fd5b5061022b61044f366004612528565b610d32565b34801561046057600080fd5b5061022b61046f3660046124c2565b610d3d565b34801561048057600080fd5b506101c661048f36600461262c565b610d75565b3480156104a057600080fd5b5061022b6104af3660046125ae565b610d80565b3480156104c057600080fd5b5061022b6104cf36600461265c565b610ddb565b3480156104e057600080fd5b5061019c6104ef366004612455565b610e00565b60006104ff82610e2e565b92915050565b60606065805461051490612a46565b80601f016020809104026020016040519081016040528092919081815260200182805461054090612a46565b801561058d5780601f106105625761010080835404028352916020019161058d565b820191906000526020600020905b81548152906001019060200180831161057057829003601f168201915b5050505050905090565b60006105a282610e53565b506000908152606960205260409020546001600160a01b031690565b60006105c982610a3d565b9050806001600160a01b0316836001600160a01b0316141561063c5760405162461bcd60e51b815260206004820152602160248201527f4552433732313a20617070726f76616c20746f2063757272656e74206f776e656044820152603960f91b60648201526084015b60405180910390fd5b336001600160a01b038216148061065857506106588133610e00565b6106ca5760405162461bcd60e51b815260206004820152603e60248201527f4552433732313a20617070726f76652063616c6c6572206973206e6f7420746f60448201527f6b656e206f776e6572206e6f7220617070726f76656420666f7220616c6c00006064820152608401610633565b6106d48383610e78565b505050565b6106e4335b82610ee6565b6107005760405162461bcd60e51b815260040161063390612953565b6106d4838383610f45565b600082815260fb6020526040902060010154610726816110da565b6106d483836110e4565b6001600160a01b03811633146107a05760405162461bcd60e51b815260206004820152602f60248201527f416363657373436f6e74726f6c3a2063616e206f6e6c792072656e6f756e636560448201526e103937b632b9903337b91039b2b63360891b6064820152608401610633565b6107aa828261116a565b5050565b306001600160a01b037f00000000000000000000000000000000000000000000000000000000000000001614156107f75760405162461bcd60e51b81526004016106339061283e565b7f00000000000000000000000000000000000000000000000000000000000000006001600160a01b03166108296111d1565b6001600160a01b03161461084f5760405162461bcd60e51b81526004016106339061288a565b610858816111ed565b6040805160008082526020820190925261087491839190611217565b50565b61087f611391565b610888816110da565b6108746113b5565b6106d483838360405180602001604052806000815250610d3d565b6108b4336106de565b6108d05760405162461bcd60e51b815260040161063390612953565b61087481611407565b306001600160a01b037f00000000000000000000000000000000000000000000000000000000000000001614156109225760405162461bcd60e51b81526004016106339061283e565b7f00000000000000000000000000000000000000000000000000000000000000006001600160a01b03166109546111d1565b6001600160a01b03161461097a5760405162461bcd60e51b81526004016106339061288a565b610983826111ed565b6107aa82826001611217565b6000306001600160a01b037f00000000000000000000000000000000000000000000000000000000000000001614610a2a5760405162461bcd60e51b815260206004820152603860248201527f555550535570677261646561626c653a206d757374206e6f742062652063616c6044820152771b1959081d1a1c9bdd59da0819195b1959d85d1958d85b1b60421b6064820152608401610633565b50600080516020612b0983398151915290565b6000818152606760205260408120546001600160a01b0316806104ff5760405162461bcd60e51b8152600401610633906128d6565b60006001600160a01b038216610adc5760405162461bcd60e51b815260206004820152602960248201527f4552433732313a2061646472657373207a65726f206973206e6f7420612076616044820152683634b21037bbb732b960b91b6064820152608401610633565b506001600160a01b031660009081526068602052604090205490565b600054610100900460ff1615808015610b185750600054600160ff909116105b80610b325750303b158015610b32575060005460ff166001145b610b955760405162461bcd60e51b815260206004820152602e60248201527f496e697469616c697a61626c653a20636f6e747261637420697320616c72656160448201526d191e481a5b9a5d1a585b1a5e995960921b6064820152608401610633565b6000805460ff191660011790558015610bb8576000805461ff0019166101001790555b610c016040518060400160405280600d81526020016c24b232b73a34ba3caa37b5b2b760991b81525060405180604001604052806002815260200161125160f21b815250611410565b610c09611441565b610c1161146a565b610c19611441565b610c21611441565b610c29611441565b610c346000336110e4565b610c45610c3f611391565b336110e4565b610c6e7f9f2df0fed2c77648de5860a4cc508cd0818c85b8b8a1ab4ceeef8d981c8956a6610c3f565b610c977f189ab7a9244df0848122154315af71fe140f3db0fe014031783b0946b8c9d2e3610c3f565b8015610874576000805461ff0019169055604051600181527f7f26b83ff96e1f2b6a682f133852f6798a09c465da95921460cefb38474024989060200160405180910390a150565b610ce7611391565b610cf0816110da565b610874611499565b600091825260fb602090815260408084206001600160a01b0393909316845291905290205460ff1690565b60606066805461051490612a46565b6107aa3383836114d6565b610d473383610ee6565b610d635760405162461bcd60e51b815260040161063390612953565b610d6f848484846115a1565b50505050565b60606104ff826115d4565b7f9f2df0fed2c77648de5860a4cc508cd0818c85b8b8a1ab4ceeef8d981c8956a6610daa816110da565b6000610db66101c35490565b9050610dc76101c380546001019055565b610dd184826116d0565b610d6f81846116ea565b600082815260fb6020526040902060010154610df6816110da565b6106d4838361116a565b6001600160a01b039182166000908152606a6020908152604080832093909416825291909152205460ff1690565b60006001600160e01b03198216637965db0b60e01b14806104ff57506104ff82611775565b610e5c816117c5565b6108745760405162461bcd60e51b8152600401610633906128d6565b600081815260696020526040902080546001600160a01b0319166001600160a01b0384169081179091558190610ead82610a3d565b6001600160a01b03167f8c5be1e5ebec7d5bd14f71427d1e84f3dd0314c0f7b2291e5b200ac8c7c3b92560405160405180910390a45050565b600080610ef283610a3d565b9050806001600160a01b0316846001600160a01b03161480610f195750610f198185610e00565b80610f3d5750836001600160a01b0316610f3284610597565b6001600160a01b0316145b949350505050565b826001600160a01b0316610f5882610a3d565b6001600160a01b031614610fbc5760405162461bcd60e51b815260206004820152602560248201527f4552433732313a207472616e736665722066726f6d20696e636f72726563742060448201526437bbb732b960d91b6064820152608401610633565b6001600160a01b03821661101e5760405162461bcd60e51b8152602060048201526024808201527f4552433732313a207472616e7366657220746f20746865207a65726f206164646044820152637265737360e01b6064820152608401610633565b6110298383836117e2565b611034600082610e78565b6001600160a01b038316600090815260686020526040812080546001929061105d9084906129ec565b90915550506001600160a01b038216600090815260686020526040812080546001929061108b9084906129a1565b909155505060008181526067602052604080822080546001600160a01b0319166001600160a01b038681169182179092559151849391871691600080516020612b5083398151915291a4505050565b6108748133611853565b6110ee8282610cf8565b6107aa57600082815260fb602090815260408083206001600160a01b03851684529091529020805460ff191660011790556111263390565b6001600160a01b0316816001600160a01b0316837f2f8788117e7eff1d82e926ec794901d17c78024a50270940304540a733656f0d60405160405180910390a45050565b6111748282610cf8565b156107aa57600082815260fb602090815260408083206001600160a01b0385168085529252808320805460ff1916905551339285917ff6391f5c32d9c69d2a47ea670b442974b53935d1edc7fd64eb21e047a839171b9190a45050565b600080516020612b09833981519152546001600160a01b031690565b7f189ab7a9244df0848122154315af71fe140f3db0fe014031783b0946b8c9d2e36107aa816110da565b7f4910fdfa16fed3260ed0e7147f7cc6da11a60208b5b9406d12a635614ffd91435460ff161561124a576106d4836118b7565b826001600160a01b03166352d1902d6040518163ffffffff1660e01b815260040160206040518083038186803b15801561128357600080fd5b505afa9250505080156112b3575060408051601f3d908101601f191682019092526112b091810190612644565b60015b6113165760405162461bcd60e51b815260206004820152602e60248201527f45524331393637557067726164653a206e657720696d706c656d656e7461746960448201526d6f6e206973206e6f74205555505360901b6064820152608401610633565b600080516020612b0983398151915281146113855760405162461bcd60e51b815260206004820152602960248201527f45524331393637557067726164653a20756e737570706f727465642070726f786044820152681a58589b195555525160ba1b6064820152608401610633565b506106d4838383611953565b7f65d7a28e3265b37a6474929f336521b332c1681b933f6cb9f3376673440d862a90565b6113bd611978565b60c9805460ff191690557f5db9ee0a495bf2e6ff9c91a7834c1ba4fdd244a5e8aa4e537bd38aeae4b073aa335b6040516001600160a01b03909116815260200160405180910390a1565b610874816119c1565b600054610100900460ff166114375760405162461bcd60e51b815260040161063390612908565b6107aa8282611a01565b600054610100900460ff166114685760405162461bcd60e51b815260040161063390612908565b565b600054610100900460ff166114915760405162461bcd60e51b815260040161063390612908565b611468611a4f565b6114a1611a82565b60c9805460ff191660011790557f62e78cea01bee320cd4e420270b5ea74000d11b0c9f74754ebdbfc544b05a2586113ea3390565b816001600160a01b0316836001600160a01b031614156115345760405162461bcd60e51b815260206004820152601960248201527822a9219b99189d1030b8383937bb32903a379031b0b63632b960391b6044820152606401610633565b6001600160a01b038381166000818152606a6020908152604080832094871680845294825291829020805460ff191686151590811790915591519182527f17307eab39ab6107e8899845ad3d59bd9653f200f220920489ca2b5937696c31910160405180910390a3505050565b6115ac848484610f45565b6115b884848484611ac8565b610d6f5760405162461bcd60e51b8152600401610633906127ec565b60606115df82610e53565b600082815260976020526040812080546115f890612a46565b80601f016020809104026020016040519081016040528092919081815260200182805461162490612a46565b80156116715780601f1061164657610100808354040283529160200191611671565b820191906000526020600020905b81548152906001019060200180831161165457829003601f168201915b505050505090506000611682611bd5565b9050805160001415611695575092915050565b8151156116c75780826040516020016116af9291906126fe565b60405160208183030381529060405292505050919050565b610f3d84611bf6565b6107aa828260405180602001604052806000815250611c5d565b6116f3826117c5565b6117565760405162461bcd60e51b815260206004820152602e60248201527f45524337323155524953746f726167653a2055524920736574206f66206e6f6e60448201526d32bc34b9ba32b73a103a37b5b2b760911b6064820152608401610633565b600082815260976020908152604090912082516106d4928401906122bb565b60006001600160e01b031982166380ac58cd60e01b14806117a657506001600160e01b03198216635b5e139f60e01b145b806104ff57506301ffc9a760e01b6001600160e01b03198316146104ff565b6000908152606760205260409020546001600160a01b0316151590565b6117ea611a82565b6001600160a01b038316158061180757506001600160a01b038216155b6106d45760405162461bcd60e51b815260206004820152601d60248201527f4e6f7420616c6c6f77656420746f207472616e7366657220746f6b656e0000006044820152606401610633565b61185d8282610cf8565b6107aa57611875816001600160a01b03166014611c90565b611880836020611c90565b60405160200161189192919061272d565b60408051601f198184030181529082905262461bcd60e51b8252610633916004016127d9565b6001600160a01b0381163b6119245760405162461bcd60e51b815260206004820152602d60248201527f455243313936373a206e657720696d706c656d656e746174696f6e206973206e60448201526c1bdd08184818dbdb9d1c9858dd609a1b6064820152608401610633565b600080516020612b0983398151915280546001600160a01b0319166001600160a01b0392909216919091179055565b61195c83611e72565b6000825111806119695750805b156106d457610d6f8383611eb2565b60c95460ff166114685760405162461bcd60e51b815260206004820152601460248201527314185d5cd8589b194e881b9bdd081c185d5cd95960621b6044820152606401610633565b6119ca81611fa6565b600081815260976020526040902080546119e390612a46565b1590506108745760008181526097602052604081206108749161233f565b600054610100900460ff16611a285760405162461bcd60e51b815260040161063390612908565b8151611a3b9060659060208501906122bb565b5080516106d49060669060208401906122bb565b600054610100900460ff16611a765760405162461bcd60e51b815260040161063390612908565b60c9805460ff19169055565b60c95460ff16156114685760405162461bcd60e51b815260206004820152601060248201526f14185d5cd8589b194e881c185d5cd95960821b6044820152606401610633565b60006001600160a01b0384163b15611bca57604051630a85bd0160e11b81526001600160a01b0385169063150b7a0290611b0c90339089908890889060040161279c565b602060405180830381600087803b158015611b2657600080fd5b505af1925050508015611b56575060408051601f3d908101601f19168201909252611b539181019061269a565b60015b611bb0573d808015611b84576040519150601f19603f3d011682016040523d82523d6000602084013e611b89565b606091505b508051611ba85760405162461bcd60e51b8152600401610633906127ec565b805181602001fd5b6001600160e01b031916630a85bd0160e11b149050610f3d565b506001949350505050565b604080518082019091526007815266697066733a2f2f60c81b602082015290565b6060611c0182610e53565b6000611c0b611bd5565b90506000815111611c2b5760405180602001604052806000815250611c56565b80611c358461203b565b604051602001611c469291906126fe565b6040516020818303038152906040525b9392505050565b611c678383612155565b611c746000848484611ac8565b6106d45760405162461bcd60e51b8152600401610633906127ec565b60606000611c9f8360026129cd565b611caa9060026129a1565b67ffffffffffffffff811115611cd057634e487b7160e01b600052604160045260246000fd5b6040519080825280601f01601f191660200182016040528015611cfa576020820181803683370190505b509050600360fc1b81600081518110611d2357634e487b7160e01b600052603260045260246000fd5b60200101906001600160f81b031916908160001a905350600f60fb1b81600181518110611d6057634e487b7160e01b600052603260045260246000fd5b60200101906001600160f81b031916908160001a9053506000611d848460026129cd565b611d8f9060016129a1565b90505b6001811115611e23576f181899199a1a9b1b9c1cb0b131b232b360811b85600f1660108110611dd157634e487b7160e01b600052603260045260246000fd5b1a60f81b828281518110611df557634e487b7160e01b600052603260045260246000fd5b60200101906001600160f81b031916908160001a90535060049490941c93611e1c81612a2f565b9050611d92565b508315611c565760405162461bcd60e51b815260206004820181905260248201527f537472696e67733a20686578206c656e67746820696e73756666696369656e746044820152606401610633565b611e7b816118b7565b6040516001600160a01b038216907fbc7cd75a20ee27fd9adebab32041f755214dbc6bffa90cc0225b39da2e5c2d3b90600090a250565b60606001600160a01b0383163b611f1a5760405162461bcd60e51b815260206004820152602660248201527f416464726573733a2064656c65676174652063616c6c20746f206e6f6e2d636f6044820152651b9d1c9858dd60d21b6064820152608401610633565b600080846001600160a01b031684604051611f3591906126e2565b600060405180830381855af49150503d8060008114611f70576040519150601f19603f3d011682016040523d82523d6000602084013e611f75565b606091505b5091509150611f9d8282604051806060016040528060278152602001612b2960279139612282565b95945050505050565b6000611fb182610a3d565b9050611fbf816000846117e2565b611fca600083610e78565b6001600160a01b0381166000908152606860205260408120805460019290611ff39084906129ec565b909155505060008281526067602052604080822080546001600160a01b0319169055518391906001600160a01b03841690600080516020612b50833981519152908390a45050565b60608161205f5750506040805180820190915260018152600360fc1b602082015290565b8160005b8115612089578061207381612a81565b91506120829050600a836129b9565b9150612063565b60008167ffffffffffffffff8111156120b257634e487b7160e01b600052604160045260246000fd5b6040519080825280601f01601f1916602001820160405280156120dc576020820181803683370190505b5090505b8415610f3d576120f16001836129ec565b91506120fe600a86612a9c565b6121099060306129a1565b60f81b81838151811061212c57634e487b7160e01b600052603260045260246000fd5b60200101906001600160f81b031916908160001a90535061214e600a866129b9565b94506120e0565b6001600160a01b0382166121ab5760405162461bcd60e51b815260206004820181905260248201527f4552433732313a206d696e7420746f20746865207a65726f20616464726573736044820152606401610633565b6121b4816117c5565b156122015760405162461bcd60e51b815260206004820152601c60248201527f4552433732313a20746f6b656e20616c7265616479206d696e746564000000006044820152606401610633565b61220d600083836117e2565b6001600160a01b03821660009081526068602052604081208054600192906122369084906129a1565b909155505060008181526067602052604080822080546001600160a01b0319166001600160a01b0386169081179091559051839290600080516020612b50833981519152908290a45050565b60608315612291575081611c56565b8251156122a15782518084602001fd5b8160405162461bcd60e51b815260040161063391906127d9565b8280546122c790612a46565b90600052602060002090601f0160209004810192826122e9576000855561232f565b82601f1061230257805160ff191683800117855561232f565b8280016001018555821561232f579182015b8281111561232f578251825591602001919060010190612314565b5061233b929150612375565b5090565b50805461234b90612a46565b6000825580601f1061235b575050565b601f01602090049060005260206000209081019061087491905b5b8082111561233b5760008155600101612376565b600067ffffffffffffffff808411156123a5576123a5612adc565b604051601f8501601f19908116603f011681019082821181831017156123cd576123cd612adc565b816040528093508581528686860111156123e657600080fd5b858560208301376000602087830101525050509392505050565b80356001600160a01b038116811461241757600080fd5b919050565b600082601f83011261242c578081fd5b611c568383356020850161238a565b60006020828403121561244c578081fd5b611c5682612400565b60008060408385031215612467578081fd5b61247083612400565b915061247e60208401612400565b90509250929050565b60008060006060848603121561249b578081fd5b6124a484612400565b92506124b260208501612400565b9150604084013590509250925092565b600080600080608085870312156124d7578081fd5b6124e085612400565b93506124ee60208601612400565b925060408501359150606085013567ffffffffffffffff811115612510578182fd5b61251c8782880161241c565b91505092959194509250565b6000806040838503121561253a578182fd5b61254383612400565b915060208301358015158114612557578182fd5b809150509250929050565b60008060408385031215612574578182fd5b61257d83612400565b9150602083013567ffffffffffffffff811115612598578182fd5b6125a48582860161241c565b9150509250929050565b600080604083850312156125c0578182fd5b6125c983612400565b9150602083013567ffffffffffffffff8111156125e4578182fd5b8301601f810185136125f4578182fd5b6125a48582356020840161238a565b60008060408385031215612615578182fd5b61261e83612400565b946020939093013593505050565b60006020828403121561263d578081fd5b5035919050565b600060208284031215612655578081fd5b5051919050565b6000806040838503121561266e578182fd5b8235915061247e60208401612400565b60006020828403121561268f578081fd5b8135611c5681612af2565b6000602082840312156126ab578081fd5b8151611c5681612af2565b600081518084526126ce816020860160208601612a03565b601f01601f19169290920160200192915050565b600082516126f4818460208701612a03565b9190910192915050565b60008351612710818460208801612a03565b835190830190612724818360208801612a03565b01949350505050565b76020b1b1b2b9b9a1b7b73a3937b61d1030b1b1b7bab73a1604d1b81526000835161275f816017850160208801612a03565b7001034b99036b4b9b9b4b733903937b6329607d1b6017918401918201528351612790816028840160208801612a03565b01602801949350505050565b6001600160a01b03858116825284166020820152604081018390526080606082018190526000906127cf908301846126b6565b9695505050505050565b602081526000611c5660208301846126b6565b60208082526032908201527f4552433732313a207472616e7366657220746f206e6f6e20455243373231526560408201527131b2b4bb32b91034b6b83632b6b2b73a32b960711b606082015260800190565b6020808252602c908201527f46756e6374696f6e206d7573742062652063616c6c6564207468726f7567682060408201526b19195b1959d85d1958d85b1b60a21b606082015260800190565b6020808252602c908201527f46756e6374696f6e206d7573742062652063616c6c6564207468726f7567682060408201526b6163746976652070726f787960a01b606082015260800190565b602080825260189082015277115490cdcc8c4e881a5b9d985b1a59081d1bdad95b88125160421b604082015260600190565b6020808252602b908201527f496e697469616c697a61626c653a20636f6e7472616374206973206e6f74206960408201526a6e697469616c697a696e6760a81b606082015260800190565b6020808252602e908201527f4552433732313a2063616c6c6572206973206e6f7420746f6b656e206f776e6560408201526d1c881b9bdc88185c1c1c9bdd995960921b606082015260800190565b600082198211156129b4576129b4612ab0565b500190565b6000826129c8576129c8612ac6565b500490565b60008160001904831182151516156129e7576129e7612ab0565b500290565b6000828210156129fe576129fe612ab0565b500390565b60005b83811015612a1e578181015183820152602001612a06565b83811115610d6f5750506000910152565b600081612a3e57612a3e612ab0565b506000190190565b600181811c90821680612a5a57607f821691505b60208210811415612a7b57634e487b7160e01b600052602260045260246000fd5b50919050565b6000600019821415612a9557612a95612ab0565b5060010190565b600082612aab57612aab612ac6565b500690565b634e487b7160e01b600052601160045260246000fd5b634e487b7160e01b600052601260045260246000fd5b634e487b7160e01b600052604160045260246000fd5b6001600160e01b03198116811461087457600080fdfe360894a13ba1a3210667c828492db98dca3e2076cc3735a920a3ca505d382bbc416464726573733a206c6f772d6c6576656c2064656c65676174652063616c6c206661696c6564ddf252ad1be2c89b69c2b068fc378daa952ba7f163c4a11628f55a4df523b3efa26469706673582212204e215b369082a7c2d75b517965cd0b186650cc09a806f72603a09e31eb09a6a464736f6c63430008040033",
  "linkReferences": {},
  "deployedLinkReferences": {}
}