{
  "_format": "hh-sol-artifact-1",
  "contractName": "IdentityToken",
  "sourceName": "contracts/protocol/IdentityToken.sol",
  "abi": [
    {
      "anonymous": false,
      "inputs": [
        {
          "indexed": false,
          "internalType": "address",
          "name": "previousAdmin",
          "type": "address"
        },
        {
          "indexed": false,
          "internalType": "address",
          "name": "newAdmin",
          "type": "address"
        }
      ],
      "name": "AdminChanged",
      "type": "event"
    },
    {
      "anonymous": false,
      "inputs": [
        {
          "indexed": true,
          "internalType": "address",
          "name": "owner",
          "type": "address"
        },
        {
          "indexed": true,
          "internalType": "address",
          "name": "approved",
          "type": "address"
        },
        {
          "indexed": true,
          "internalType": "uint256",
          "name": "tokenId",
          "type": "uint256"
        }
      ],
      "name": "Approval",
      "type": "event"
    },
    {
      "anonymous": false,
      "inputs": [
        {
          "indexed": true,
          "internalType": "address",
          "name": "owner",
          "type": "address"
        },
        {
          "indexed": true,
          "internalType": "address",
          "name": "operator",
          "type": "address"
        },
        {
          "indexed": false,
          "internalType": "bool",
          "name": "approved",
          "type": "bool"
        }
      ],
      "name": "ApprovalForAll",
      "type": "event"
    },
    {
      "anonymous": false,
      "inputs": [
        {
          "indexed": true,
          "internalType": "address",
          "name": "beacon",
          "type": "address"
        }
      ],
      "name": "BeaconUpgraded",
      "type": "event"
    },
    {
      "anonymous": false,
      "inputs": [
        {
          "indexed": false,
          "internalType": "uint8",
          "name": "version",
          "type": "uint8"
        }
      ],
      "name": "Initialized",
      "type": "event"
    },
    {
      "anonymous": false,
      "inputs": [
        {
          "indexed": false,
          "internalType": "address",
          "name": "account",
          "type": "address"
        }
      ],
      "name": "Paused",
      "type": "event"
    },
    {
      "anonymous": false,
      "inputs": [
        {
          "indexed": true,
          "internalType": "bytes32",
          "name": "role",
          "type": "bytes32"
        },
        {
          "indexed": true,
          "internalType": "bytes32",
          "name": "previousAdminRole",
          "type": "bytes32"
        },
        {
          "indexed": true,
          "internalType": "bytes32",
          "name": "newAdminRole",
          "type": "bytes32"
        }
      ],
      "name": "RoleAdminChanged",
      "type": "event"
    },
    {
      "anonymous": false,
      "inputs": [
        {
          "indexed": true,
          "internalType": "bytes32",
          "name": "role",
          "type": "bytes32"
        },
        {
          "indexed": true,
          "internalType": "address",
          "name": "account",
          "type": "address"
        },
        {
          "indexed": true,
          "internalType": "address",
          "name": "sender",
          "type": "address"
        }
      ],
      "name": "RoleGranted",
      "type": "event"
    },
    {
      "anonymous": false,
      "inputs": [
        {
          "indexed": true,
          "internalType": "bytes32",
          "name": "role",
          "type": "bytes32"
        },
        {
          "indexed": true,
          "internalType": "address",
          "name": "account",
          "type": "address"
        },
        {
          "indexed": true,
          "internalType": "address",
          "name": "sender",
          "type": "address"
        }
      ],
      "name": "RoleRevoked",
      "type": "event"
    },
    {
      "anonymous": false,
      "inputs": [
        {
          "indexed": true,
          "internalType": "address",
          "name": "from",
          "type": "address"
        },
        {
          "indexed": true,
          "internalType": "address",
          "name": "to",
          "type": "address"
        },
        {
          "indexed": true,
          "internalType": "uint256",
          "name": "tokenId",
          "type": "uint256"
        }
      ],
      "name": "Transfer",
      "type": "event"
    },
    {
      "anonymous": false,
      "inputs": [
        {
          "indexed": false,
          "internalType": "address",
          "name": "account",
          "type": "address"
        }
      ],
      "name": "Unpaused",
      "type": "event"
    },
    {
      "anonymous": false,
      "inputs": [
        {
          "indexed": true,
          "internalType": "address",
          "name": "implementation",
          "type": "address"
        }
      ],
      "name": "Upgraded",
      "type": "event"
    },
    {
      "inputs": [],
      "name": "DEFAULT_ADMIN_ROLE",
      "outputs": [
        {
          "internalType": "bytes32",
          "name": "",
          "type": "bytes32"
        }
      ],
      "stateMutability": "view",
      "type": "function"
    },
    {
      "inputs": [
        {
          "internalType": "address",
          "name": "to",
          "type": "address"
        },
        {
          "internalType": "uint256",
          "name": "tokenId",
          "type": "uint256"
        }
      ],
      "name": "approve",
      "outputs": [],
      "stateMutability": "nonpayable",
      "type": "function"
    },
    {
      "inputs": [
        {
          "internalType": "address",
          "name": "owner",
          "type": "address"
        }
      ],
      "name": "balanceOf",
      "outputs": [
        {
          "internalType": "uint256",
          "name": "",
          "type": "uint256"
        }
      ],
      "stateMutability": "view",
      "type": "function"
    },
    {
      "inputs": [
        {
          "internalType": "uint256",
          "name": "tokenId",
          "type": "uint256"
        }
      ],
      "name": "burn",
      "outputs": [],
      "stateMutability": "nonpayable",
      "type": "function"
    },
    {
      "inputs": [
        {
          "internalType": "uint256",
          "name": "tokenId",
          "type": "uint256"
        }
      ],
      "name": "getApproved",
      "outputs": [
        {
          "internalType": "address",
          "name": "",
          "type": "address"
        }
      ],
      "stateMutability": "view",
      "type": "function"
    },
    {
      "inputs": [
        {
          "internalType": "bytes32",
          "name": "role",
          "type": "bytes32"
        }
      ],
      "name": "getRoleAdmin",
      "outputs": [
        {
          "internalType": "bytes32",
          "name": "",
          "type": "bytes32"
        }
      ],
      "stateMutability": "view",
      "type": "function"
    },
    {
      "inputs": [
        {
          "internalType": "bytes32",
          "name": "role",
          "type": "bytes32"
        },
        {
          "internalType": "address",
          "name": "account",
          "type": "address"
        }
      ],
      "name": "grantRole",
      "outputs": [],
      "stateMutability": "nonpayable",
      "type": "function"
    },
    {
      "inputs": [
        {
          "internalType": "bytes32",
          "name": "role",
          "type": "bytes32"
        },
        {
          "internalType": "address",
          "name": "account",
          "type": "address"
        }
      ],
      "name": "hasRole",
      "outputs": [
        {
          "internalType": "bool",
          "name": "",
          "type": "bool"
        }
      ],
      "stateMutability": "view",
      "type": "function"
    },
    {
      "inputs": [],
      "name": "initialize",
      "outputs": [],
      "stateMutability": "nonpayable",
      "type": "function"
    },
    {
      "inputs": [
        {
          "internalType": "address",
          "name": "owner",
          "type": "address"
        },
        {
          "internalType": "address",
          "name": "operator",
          "type": "address"
        }
      ],
      "name": "isApprovedForAll",
      "outputs": [
        {
          "internalType": "bool",
          "name": "",
          "type": "bool"
        }
      ],
      "stateMutability": "view",
      "type": "function"
    },
    {
      "inputs": [],
      "name": "name",
      "outputs": [
        {
          "internalType": "string",
          "name": "",
          "type": "string"
        }
      ],
      "stateMutability": "view",
      "type": "function"
    },
    {
      "inputs": [
        {
          "internalType": "uint256",
          "name": "tokenId",
          "type": "uint256"
        }
      ],
      "name": "ownerOf",
      "outputs": [
        {
          "internalType": "address",
          "name": "",
          "type": "address"
        }
      ],
      "stateMutability": "view",
      "type": "function"
    },
    {
      "inputs": [],
      "name": "pause",
      "outputs": [],
      "stateMutability": "nonpayable",
      "type": "function"
    },
    {
      "inputs": [],
      "name": "paused",
      "outputs": [
        {
          "internalType": "bool",
          "name": "",
          "type": "bool"
        }
      ],
      "stateMutability": "view",
      "type": "function"
    },
    {
      "inputs": [],
      "name": "proxiableUUID",
      "outputs": [
        {
          "internalType": "bytes32",
          "name": "",
          "type": "bytes32"
        }
      ],
      "stateMutability": "view",
      "type": "function"
    },
    {
      "inputs": [
        {
          "internalType": "bytes32",
          "name": "role",
          "type": "bytes32"
        },
        {
          "internalType": "address",
          "name": "account",
          "type": "address"
        }
      ],
      "name": "renounceRole",
      "outputs": [],
      "stateMutability": "nonpayable",
      "type": "function"
    },
    {
      "inputs": [
        {
          "internalType": "bytes32",
          "name": "role",
          "type": "bytes32"
        },
        {
          "internalType": "address",
          "name": "account",
          "type": "address"
        }
      ],
      "name": "revokeRole",
      "outputs": [],
      "stateMutability": "nonpayable",
      "type": "function"
    },
    {
      "inputs": [
        {
          "internalType": "address",
          "name": "to",
          "type": "address"
        },
        {
          "internalType": "string",
          "name": "uri",
          "type": "string"
        }
      ],
      "name": "safeMint",
      "outputs": [],
      "stateMutability": "nonpayable",
      "type": "function"
    },
    {
      "inputs": [
        {
          "internalType": "address",
          "name": "from",
          "type": "address"
        },
        {
          "internalType": "address",
          "name": "to",
          "type": "address"
        },
        {
          "internalType": "uint256",
          "name": "tokenId",
          "type": "uint256"
        }
      ],
      "name": "safeTransferFrom",
      "outputs": [],
      "stateMutability": "nonpayable",
      "type": "function"
    },
    {
      "inputs": [
        {
          "internalType": "address",
          "name": "from",
          "type": "address"
        },
        {
          "internalType": "address",
          "name": "to",
          "type": "address"
        },
        {
          "internalType": "uint256",
          "name": "tokenId",
          "type": "uint256"
        },
        {
          "internalType": "bytes",
          "name": "data",
          "type": "bytes"
        }
      ],
      "name": "safeTransferFrom",
      "outputs": [],
      "stateMutability": "nonpayable",
      "type": "function"
    },
    {
      "inputs": [
        {
          "internalType": "address",
          "name": "operator",
          "type": "address"
        },
        {
          "internalType": "bool",
          "name": "approved",
          "type": "bool"
        }
      ],
      "name": "setApprovalForAll",
      "outputs": [],
      "stateMutability": "nonpayable",
      "type": "function"
    },
    {
      "inputs": [
        {
          "internalType": "bytes4",
          "name": "interfaceId",
          "type": "bytes4"
        }
      ],
      "name": "supportsInterface",
      "outputs": [
        {
          "internalType": "bool",
          "name": "",
          "type": "bool"
        }
      ],
      "stateMutability": "view",
      "type": "function"
    },
    {
      "inputs": [],
      "name": "symbol",
      "outputs": [
        {
          "internalType": "string",
          "name": "",
          "type": "string"
        }
      ],
      "stateMutability": "view",
      "type": "function"
    },
    {
      "inputs": [
        {
          "internalType": "uint256",
          "name": "tokenId",
          "type": "uint256"
        }
      ],
      "name": "tokenURI",
      "outputs": [
        {
          "internalType": "string",
          "name": "",
          "type": "string"
        }
      ],
      "stateMutability": "view",
      "type": "function"
    },
    {
      "inputs": [
        {
          "internalType": "address",
          "name": "from",
          "type": "address"
        },
        {
          "internalType": "address",
          "name": "to",
          "type": "address"
        },
        {
          "internalType": "uint256",
          "name": "tokenId",
          "type": "uint256"
        }
      ],
      "name": "transferFrom",
      "outputs": [],
      "stateMutability": "nonpayable",
      "type": "function"
    },
    {
      "inputs": [],
      "name": "unpause",
      "outputs": [],
      "stateMutability": "nonpayable",
      "type": "function"
    },
    {
      "inputs": [
        {
          "internalType": "address",
          "name": "newImplementation",
          "type": "address"
        }
      ],
      "name": "upgradeTo",
      "outputs": [],
      "stateMutability": "nonpayable",
      "type": "function"
    },
    {
      "inputs": [
        {
          "internalType": "address",
          "name": "newImplementation",
          "type": "address"
        },
        {
          "internalType": "bytes",
          "name": "data",
          "type": "bytes"
        }
      ],
      "name": "upgradeToAndCall",
      "outputs": [],
      "stateMutability": "payable",
      "type": "function"
    }
  ],
  "bytecode": "0x60a06040523060601b60805234801561001757600080fd5b5060805160601c613188610052600039600081816108b90152818161093e01528181610af701528181610b7c0152610c6201526131886000f3fe6080604052600436106101b75760003560e01c80635c975abb116100ec578063a217fddf1161008a578063c87b56dd11610064578063c87b56dd146104da578063d204c45e146104fa578063d547741f1461051a578063e985e9c51461053a57600080fd5b8063a217fddf14610485578063a22cb4651461049a578063b88d4fde146104ba57600080fd5b80638129fc1c116100c65780638129fc1c146104005780638456cb591461041557806391d148541461042a57806395d89b411461047057600080fd5b80635c975abb146103a85780636352211e146103c057806370a08231146103e057600080fd5b806336568abe1161015957806342842e0e1161013357806342842e0e1461034057806342966c68146103605780634f1ef2861461038057806352d1902d1461039357600080fd5b806336568abe146102eb5780633659cfe61461030b5780633f4ba83a1461032b57600080fd5b8063095ea7b311610195578063095ea7b31461024b57806323b872dd1461026d578063248a9ca31461028d5780632f2ff15d146102cb57600080fd5b806301ffc9a7146101bc57806306fdde03146101f1578063081812fc14610213575b600080fd5b3480156101c857600080fd5b506101dc6101d7366004612e45565b610583565b60405190151581526020015b60405180910390f35b3480156101fd57600080fd5b50610206610594565b6040516101e89190612fb1565b34801561021f57600080fd5b5061023361022e366004612df3565b610626565b6040516001600160a01b0390911681526020016101e8565b34801561025757600080fd5b5061026b610266366004612dca565b61064d565b005b34801561027957600080fd5b5061026b610288366004612c4e565b610784565b34801561029957600080fd5b506102bd6102a8366004612df3565b600090815260fb602052604090206001015490565b6040519081526020016101e8565b3480156102d757600080fd5b5061026b6102e6366004612e23565b6107fd565b3480156102f757600080fd5b5061026b610306366004612e23565b610822565b34801561031757600080fd5b5061026b610326366004612c02565b6108ae565b34801561033757600080fd5b5061026b610a2a565b34801561034c57600080fd5b5061026b61035b366004612c4e565b610a5c565b34801561036c57600080fd5b5061026b61037b366004612df3565b610a77565b61026b61038e366004612d29565b610aec565b34801561039f57600080fd5b506102bd610c55565b3480156103b457600080fd5b5060c95460ff166101dc565b3480156103cc57600080fd5b506102336103db366004612df3565b610d1a565b3480156103ec57600080fd5b506102bd6103fb366004612c02565b610d7f565b34801561040c57600080fd5b5061026b610e19565b34801561042157600080fd5b5061026b611054565b34801561043657600080fd5b506101dc610445366004612e23565b600091825260fb602090815260408084206001600160a01b0393909316845291905290205460ff1690565b34801561047c57600080fd5b50610206611086565b34801561049157600080fd5b506102bd600081565b3480156104a657600080fd5b5061026b6104b5366004612cef565b611095565b3480156104c657600080fd5b5061026b6104d5366004612c89565b6110a0565b3480156104e657600080fd5b506102066104f5366004612df3565b61111f565b34801561050657600080fd5b5061026b610515366004612d75565b61112a565b34801561052657600080fd5b5061026b610535366004612e23565b611185565b34801561054657600080fd5b506101dc610555366004612c1c565b6001600160a01b039182166000908152606a6020908152604080832093909416825291909152205460ff1690565b600061058e826111aa565b92915050565b6060606580546105a390613069565b80601f01602080910402602001604051908101604052809291908181526020018280546105cf90613069565b801561061c5780601f106105f15761010080835404028352916020019161061c565b820191906000526020600020905b8154815290600101906020018083116105ff57829003601f168201915b5050505050905090565b6000610631826111e8565b506000908152606960205260409020546001600160a01b031690565b600061065882610d1a565b9050806001600160a01b0316836001600160a01b031614156106e75760405162461bcd60e51b815260206004820152602160248201527f4552433732313a20617070726f76616c20746f2063757272656e74206f776e6560448201527f720000000000000000000000000000000000000000000000000000000000000060648201526084015b60405180910390fd5b336001600160a01b038216148061070357506107038133610555565b6107755760405162461bcd60e51b815260206004820152603e60248201527f4552433732313a20617070726f76652063616c6c6572206973206e6f7420746f60448201527f6b656e206f776e6572206e6f7220617070726f76656420666f7220616c6c000060648201526084016106de565b61077f838361124c565b505050565b61078f335b826112ba565b6107f25760405162461bcd60e51b815260206004820152602e60248201527f4552433732313a2063616c6c6572206973206e6f7420746f6b656e206f776e6560448201526d1c881b9bdc88185c1c1c9bdd995960921b60648201526084016106de565b61077f838383611339565b600082815260fb602052604090206001015461081881611511565b61077f838361151b565b6001600160a01b03811633146108a05760405162461bcd60e51b815260206004820152602f60248201527f416363657373436f6e74726f6c3a2063616e206f6e6c792072656e6f756e636560448201527f20726f6c657320666f722073656c66000000000000000000000000000000000060648201526084016106de565b6108aa82826115bd565b5050565b306001600160a01b037f000000000000000000000000000000000000000000000000000000000000000016141561093c5760405162461bcd60e51b815260206004820152602c60248201527f46756e6374696f6e206d7573742062652063616c6c6564207468726f7567682060448201526b19195b1959d85d1958d85b1b60a21b60648201526084016106de565b7f00000000000000000000000000000000000000000000000000000000000000006001600160a01b03166109977f360894a13ba1a3210667c828492db98dca3e2076cc3735a920a3ca505d382bbc546001600160a01b031690565b6001600160a01b031614610a025760405162461bcd60e51b815260206004820152602c60248201527f46756e6374696f6e206d7573742062652063616c6c6564207468726f7567682060448201526b6163746976652070726f787960a01b60648201526084016106de565b610a0b81611640565b60408051600080825260208201909252610a279183919061166a565b50565b7f65d7a28e3265b37a6474929f336521b332c1681b933f6cb9f3376673440d862a610a5481611511565b610a27611819565b61077f838383604051806020016040528060008152506110a0565b610a8033610789565b610ae35760405162461bcd60e51b815260206004820152602e60248201527f4552433732313a2063616c6c6572206973206e6f7420746f6b656e206f776e6560448201526d1c881b9bdc88185c1c1c9bdd995960921b60648201526084016106de565b610a278161186b565b306001600160a01b037f0000000000000000000000000000000000000000000000000000000000000000161415610b7a5760405162461bcd60e51b815260206004820152602c60248201527f46756e6374696f6e206d7573742062652063616c6c6564207468726f7567682060448201526b19195b1959d85d1958d85b1b60a21b60648201526084016106de565b7f00000000000000000000000000000000000000000000000000000000000000006001600160a01b0316610bd57f360894a13ba1a3210667c828492db98dca3e2076cc3735a920a3ca505d382bbc546001600160a01b031690565b6001600160a01b031614610c405760405162461bcd60e51b815260206004820152602c60248201527f46756e6374696f6e206d7573742062652063616c6c6564207468726f7567682060448201526b6163746976652070726f787960a01b60648201526084016106de565b610c4982611640565b6108aa8282600161166a565b6000306001600160a01b037f00000000000000000000000000000000000000000000000000000000000000001614610cf55760405162461bcd60e51b815260206004820152603860248201527f555550535570677261646561626c653a206d757374206e6f742062652063616c60448201527f6c6564207468726f7567682064656c656761746563616c6c000000000000000060648201526084016106de565b507f360894a13ba1a3210667c828492db98dca3e2076cc3735a920a3ca505d382bbc90565b6000818152606760205260408120546001600160a01b03168061058e5760405162461bcd60e51b815260206004820152601860248201527f4552433732313a20696e76616c696420746f6b656e204944000000000000000060448201526064016106de565b60006001600160a01b038216610dfd5760405162461bcd60e51b815260206004820152602960248201527f4552433732313a2061646472657373207a65726f206973206e6f74206120766160448201527f6c6964206f776e6572000000000000000000000000000000000000000000000060648201526084016106de565b506001600160a01b031660009081526068602052604090205490565b600054610100900460ff1615808015610e395750600054600160ff909116105b80610e535750303b158015610e53575060005460ff166001145b610ec55760405162461bcd60e51b815260206004820152602e60248201527f496e697469616c697a61626c653a20636f6e747261637420697320616c72656160448201527f647920696e697469616c697a656400000000000000000000000000000000000060648201526084016106de565b6000805460ff191660011790558015610ee8576000805461ff0019166101001790555b610f5c6040518060400160405280600d81526020017f4964656e74697479546f6b656e000000000000000000000000000000000000008152506040518060400160405280600281526020017f4944000000000000000000000000000000000000000000000000000000000000815250611874565b610f646118e9565b610f6c611956565b610f746118e9565b610f7c6118e9565b610f846118e9565b610f8f60003361151b565b610fba7f65d7a28e3265b37a6474929f336521b332c1681b933f6cb9f3376673440d862a5b3361151b565b610fe37f9f2df0fed2c77648de5860a4cc508cd0818c85b8b8a1ab4ceeef8d981c8956a6610fb4565b61100c7f189ab7a9244df0848122154315af71fe140f3db0fe014031783b0946b8c9d2e3610fb4565b8015610a27576000805461ff0019169055604051600181527f7f26b83ff96e1f2b6a682f133852f6798a09c465da95921460cefb38474024989060200160405180910390a150565b7f65d7a28e3265b37a6474929f336521b332c1681b933f6cb9f3376673440d862a61107e81611511565b610a276119c9565b6060606680546105a390613069565b6108aa338383611a06565b6110aa33836112ba565b61110d5760405162461bcd60e51b815260206004820152602e60248201527f4552433732313a2063616c6c6572206973206e6f7420746f6b656e206f776e6560448201526d1c881b9bdc88185c1c1c9bdd995960921b60648201526084016106de565b61111984848484611ad5565b50505050565b606061058e82611b53565b7f9f2df0fed2c77648de5860a4cc508cd0818c85b8b8a1ab4ceeef8d981c8956a661115481611511565b60006111606101c35490565b90506111716101c380546001019055565b61117b8482611c6b565b6111198184611c85565b600082815260fb60205260409020600101546111a081611511565b61077f83836115bd565b60006001600160e01b031982167f7965db0b00000000000000000000000000000000000000000000000000000000148061058e575061058e82611d2e565b6000818152606760205260409020546001600160a01b0316610a275760405162461bcd60e51b815260206004820152601860248201527f4552433732313a20696e76616c696420746f6b656e204944000000000000000060448201526064016106de565b600081815260696020526040902080546001600160a01b0319166001600160a01b038416908117909155819061128182610d1a565b6001600160a01b03167f8c5be1e5ebec7d5bd14f71427d1e84f3dd0314c0f7b2291e5b200ac8c7c3b92560405160405180910390a45050565b6000806112c683610d1a565b9050806001600160a01b0316846001600160a01b0316148061130d57506001600160a01b038082166000908152606a602090815260408083209388168352929052205460ff165b806113315750836001600160a01b031661132684610626565b6001600160a01b0316145b949350505050565b826001600160a01b031661134c82610d1a565b6001600160a01b0316146113c85760405162461bcd60e51b815260206004820152602560248201527f4552433732313a207472616e736665722066726f6d20696e636f72726563742060448201527f6f776e657200000000000000000000000000000000000000000000000000000060648201526084016106de565b6001600160a01b0382166114435760405162461bcd60e51b8152602060048201526024808201527f4552433732313a207472616e7366657220746f20746865207a65726f2061646460448201527f726573730000000000000000000000000000000000000000000000000000000060648201526084016106de565b61144e838383611dc9565b61145960008261124c565b6001600160a01b038316600090815260686020526040812080546001929061148290849061300f565b90915550506001600160a01b03821660009081526068602052604081208054600192906114b0908490612fc4565b909155505060008181526067602052604080822080546001600160a01b0319166001600160a01b0386811691821790925591518493918716917fddf252ad1be2c89b69c2b068fc378daa952ba7f163c4a11628f55a4df523b3ef91a4505050565b610a278133611e3a565b600082815260fb602090815260408083206001600160a01b038516845290915290205460ff166108aa57600082815260fb602090815260408083206001600160a01b03851684529091529020805460ff191660011790556115793390565b6001600160a01b0316816001600160a01b0316837f2f8788117e7eff1d82e926ec794901d17c78024a50270940304540a733656f0d60405160405180910390a45050565b600082815260fb602090815260408083206001600160a01b038516845290915290205460ff16156108aa57600082815260fb602090815260408083206001600160a01b0385168085529252808320805460ff1916905551339285917ff6391f5c32d9c69d2a47ea670b442974b53935d1edc7fd64eb21e047a839171b9190a45050565b7f189ab7a9244df0848122154315af71fe140f3db0fe014031783b0946b8c9d2e36108aa81611511565b7f4910fdfa16fed3260ed0e7147f7cc6da11a60208b5b9406d12a635614ffd91435460ff161561169d5761077f83611eba565b826001600160a01b03166352d1902d6040518163ffffffff1660e01b815260040160206040518083038186803b1580156116d657600080fd5b505afa925050508015611706575060408051601f3d908101601f1916820190925261170391810190612e0b565b60015b6117785760405162461bcd60e51b815260206004820152602e60248201527f45524331393637557067726164653a206e657720696d706c656d656e7461746960448201527f6f6e206973206e6f74205555505300000000000000000000000000000000000060648201526084016106de565b7f360894a13ba1a3210667c828492db98dca3e2076cc3735a920a3ca505d382bbc811461180d5760405162461bcd60e51b815260206004820152602960248201527f45524331393637557067726164653a20756e737570706f727465642070726f7860448201527f6961626c6555554944000000000000000000000000000000000000000000000060648201526084016106de565b5061077f838383611f78565b611821611f9d565b60c9805460ff191690557f5db9ee0a495bf2e6ff9c91a7834c1ba4fdd244a5e8aa4e537bd38aeae4b073aa335b6040516001600160a01b03909116815260200160405180910390a1565b610a2781611fef565b600054610100900460ff166118df5760405162461bcd60e51b815260206004820152602b60248201527f496e697469616c697a61626c653a20636f6e7472616374206973206e6f74206960448201526a6e697469616c697a696e6760a81b60648201526084016106de565b6108aa828261202f565b600054610100900460ff166119545760405162461bcd60e51b815260206004820152602b60248201527f496e697469616c697a61626c653a20636f6e7472616374206973206e6f74206960448201526a6e697469616c697a696e6760a81b60648201526084016106de565b565b600054610100900460ff166119c15760405162461bcd60e51b815260206004820152602b60248201527f496e697469616c697a61626c653a20636f6e7472616374206973206e6f74206960448201526a6e697469616c697a696e6760a81b60648201526084016106de565b6119546120c1565b6119d1612138565b60c9805460ff191660011790557f62e78cea01bee320cd4e420270b5ea74000d11b0c9f74754ebdbfc544b05a25861184e3390565b816001600160a01b0316836001600160a01b03161415611a685760405162461bcd60e51b815260206004820152601960248201527f4552433732313a20617070726f766520746f2063616c6c65720000000000000060448201526064016106de565b6001600160a01b038381166000818152606a6020908152604080832094871680845294825291829020805460ff191686151590811790915591519182527f17307eab39ab6107e8899845ad3d59bd9653f200f220920489ca2b5937696c31910160405180910390a3505050565b611ae0848484611339565b611aec8484848461218b565b6111195760405162461bcd60e51b815260206004820152603260248201527f4552433732313a207472616e7366657220746f206e6f6e20455243373231526560448201527131b2b4bb32b91034b6b83632b6b2b73a32b960711b60648201526084016106de565b6060611b5e826111e8565b60008281526097602052604081208054611b7790613069565b80601f0160208091040260200160405190810160405280929190818152602001828054611ba390613069565b8015611bf05780601f10611bc557610100808354040283529160200191611bf0565b820191906000526020600020905b815481529060010190602001808311611bd357829003601f168201915b505050505090506000611c1d604080518082019091526007815266697066733a2f2f60c81b602082015290565b9050805160001415611c30575092915050565b815115611c62578082604051602001611c4a929190612ec5565b60405160208183030381529060405292505050919050565b611331846122e3565b6108aa828260405180602001604052806000815250612366565b6000828152606760205260409020546001600160a01b0316611d0f5760405162461bcd60e51b815260206004820152602e60248201527f45524337323155524953746f726167653a2055524920736574206f66206e6f6e60448201527f6578697374656e7420746f6b656e00000000000000000000000000000000000060648201526084016106de565b6000828152609760209081526040909120825161077f92840190612a82565b60006001600160e01b031982167f80ac58cd000000000000000000000000000000000000000000000000000000001480611d9157506001600160e01b031982167f5b5e139f00000000000000000000000000000000000000000000000000000000145b8061058e57507f01ffc9a7000000000000000000000000000000000000000000000000000000006001600160e01b031983161461058e565b611dd1612138565b6001600160a01b0383161580611dee57506001600160a01b038216155b61077f5760405162461bcd60e51b815260206004820152601d60248201527f4e6f7420616c6c6f77656420746f207472616e7366657220746f6b656e00000060448201526064016106de565b600082815260fb602090815260408083206001600160a01b038516845290915290205460ff166108aa57611e78816001600160a01b031660146123e4565b611e838360206123e4565b604051602001611e94929190612ef4565b60408051601f198184030181529082905262461bcd60e51b82526106de91600401612fb1565b6001600160a01b0381163b611f375760405162461bcd60e51b815260206004820152602d60248201527f455243313936373a206e657720696d706c656d656e746174696f6e206973206e60448201527f6f74206120636f6e74726163740000000000000000000000000000000000000060648201526084016106de565b7f360894a13ba1a3210667c828492db98dca3e2076cc3735a920a3ca505d382bbc80546001600160a01b0319166001600160a01b0392909216919091179055565b611f81836125ef565b600082511180611f8e5750805b1561077f57611119838361262f565b60c95460ff166119545760405162461bcd60e51b815260206004820152601460248201527f5061757361626c653a206e6f742070617573656400000000000000000000000060448201526064016106de565b611ff88161273a565b6000818152609760205260409020805461201190613069565b159050610a27576000818152609760205260408120610a2791612b06565b600054610100900460ff1661209a5760405162461bcd60e51b815260206004820152602b60248201527f496e697469616c697a61626c653a20636f6e7472616374206973206e6f74206960448201526a6e697469616c697a696e6760a81b60648201526084016106de565b81516120ad906065906020850190612a82565b50805161077f906066906020840190612a82565b600054610100900460ff1661212c5760405162461bcd60e51b815260206004820152602b60248201527f496e697469616c697a61626c653a20636f6e7472616374206973206e6f74206960448201526a6e697469616c697a696e6760a81b60648201526084016106de565b60c9805460ff19169055565b60c95460ff16156119545760405162461bcd60e51b815260206004820152601060248201527f5061757361626c653a207061757365640000000000000000000000000000000060448201526064016106de565b60006001600160a01b0384163b156122d857604051630a85bd0160e11b81526001600160a01b0385169063150b7a02906121cf903390899088908890600401612f75565b602060405180830381600087803b1580156121e957600080fd5b505af1925050508015612219575060408051601f3d908101601f1916820190925261221691810190612e61565b60015b6122be573d808015612247576040519150601f19603f3d011682016040523d82523d6000602084013e61224c565b606091505b5080516122b65760405162461bcd60e51b815260206004820152603260248201527f4552433732313a207472616e7366657220746f206e6f6e20455243373231526560448201527131b2b4bb32b91034b6b83632b6b2b73a32b960711b60648201526084016106de565b805181602001fd5b6001600160e01b031916630a85bd0160e11b149050611331565b506001949350505050565b60606122ee826111e8565b6000612314604080518082019091526007815266697066733a2f2f60c81b602082015290565b90506000815111612334576040518060200160405280600081525061235f565b8061233e846127e1565b60405160200161234f929190612ec5565b6040516020818303038152906040525b9392505050565b61237083836128fb565b61237d600084848461218b565b61077f5760405162461bcd60e51b815260206004820152603260248201527f4552433732313a207472616e7366657220746f206e6f6e20455243373231526560448201527131b2b4bb32b91034b6b83632b6b2b73a32b960711b60648201526084016106de565b606060006123f3836002612ff0565b6123fe906002612fc4565b67ffffffffffffffff81111561242457634e487b7160e01b600052604160045260246000fd5b6040519080825280601f01601f19166020018201604052801561244e576020820181803683370190505b509050600360fc1b8160008151811061247757634e487b7160e01b600052603260045260246000fd5b60200101906001600160f81b031916908160001a9053507f7800000000000000000000000000000000000000000000000000000000000000816001815181106124d057634e487b7160e01b600052603260045260246000fd5b60200101906001600160f81b031916908160001a90535060006124f4846002612ff0565b6124ff906001612fc4565b90505b60018111156125a0577f303132333435363738396162636465660000000000000000000000000000000085600f166010811061254e57634e487b7160e01b600052603260045260246000fd5b1a60f81b82828151811061257257634e487b7160e01b600052603260045260246000fd5b60200101906001600160f81b031916908160001a90535060049490941c9361259981613052565b9050612502565b50831561235f5760405162461bcd60e51b815260206004820181905260248201527f537472696e67733a20686578206c656e67746820696e73756666696369656e7460448201526064016106de565b6125f881611eba565b6040516001600160a01b038216907fbc7cd75a20ee27fd9adebab32041f755214dbc6bffa90cc0225b39da2e5c2d3b90600090a250565b60606001600160a01b0383163b6126ae5760405162461bcd60e51b815260206004820152602660248201527f416464726573733a2064656c65676174652063616c6c20746f206e6f6e2d636f60448201527f6e7472616374000000000000000000000000000000000000000000000000000060648201526084016106de565b600080846001600160a01b0316846040516126c99190612ea9565b600060405180830381855af49150503d8060008114612704576040519150601f19603f3d011682016040523d82523d6000602084013e612709565b606091505b5091509150612731828260405180606001604052806027815260200161312c60279139612a49565b95945050505050565b600061274582610d1a565b905061275381600084611dc9565b61275e60008361124c565b6001600160a01b038116600090815260686020526040812080546001929061278790849061300f565b909155505060008281526067602052604080822080546001600160a01b0319169055518391906001600160a01b038416907fddf252ad1be2c89b69c2b068fc378daa952ba7f163c4a11628f55a4df523b3ef908390a45050565b6060816128055750506040805180820190915260018152600360fc1b602082015290565b8160005b811561282f5780612819816130a4565b91506128289050600a83612fdc565b9150612809565b60008167ffffffffffffffff81111561285857634e487b7160e01b600052604160045260246000fd5b6040519080825280601f01601f191660200182016040528015612882576020820181803683370190505b5090505b84156113315761289760018361300f565b91506128a4600a866130bf565b6128af906030612fc4565b60f81b8183815181106128d257634e487b7160e01b600052603260045260246000fd5b60200101906001600160f81b031916908160001a9053506128f4600a86612fdc565b9450612886565b6001600160a01b0382166129515760405162461bcd60e51b815260206004820181905260248201527f4552433732313a206d696e7420746f20746865207a65726f206164647265737360448201526064016106de565b6000818152606760205260409020546001600160a01b0316156129b65760405162461bcd60e51b815260206004820152601c60248201527f4552433732313a20746f6b656e20616c7265616479206d696e7465640000000060448201526064016106de565b6129c260008383611dc9565b6001600160a01b03821660009081526068602052604081208054600192906129eb908490612fc4565b909155505060008181526067602052604080822080546001600160a01b0319166001600160a01b03861690811790915590518392907fddf252ad1be2c89b69c2b068fc378daa952ba7f163c4a11628f55a4df523b3ef908290a45050565b60608315612a5857508161235f565b825115612a685782518084602001fd5b8160405162461bcd60e51b81526004016106de9190612fb1565b828054612a8e90613069565b90600052602060002090601f016020900481019282612ab05760008555612af6565b82601f10612ac957805160ff1916838001178555612af6565b82800160010185558215612af6579182015b82811115612af6578251825591602001919060010190612adb565b50612b02929150612b3c565b5090565b508054612b1290613069565b6000825580601f10612b22575050565b601f016020900490600052602060002090810190610a2791905b5b80821115612b025760008155600101612b3d565b600067ffffffffffffffff80841115612b6c57612b6c6130ff565b604051601f8501601f19908116603f01168101908282118183101715612b9457612b946130ff565b81604052809350858152868686011115612bad57600080fd5b858560208301376000602087830101525050509392505050565b80356001600160a01b0381168114612bde57600080fd5b919050565b600082601f830112612bf3578081fd5b61235f83833560208501612b51565b600060208284031215612c13578081fd5b61235f82612bc7565b60008060408385031215612c2e578081fd5b612c3783612bc7565b9150612c4560208401612bc7565b90509250929050565b600080600060608486031215612c62578081fd5b612c6b84612bc7565b9250612c7960208501612bc7565b9150604084013590509250925092565b60008060008060808587031215612c9e578081fd5b612ca785612bc7565b9350612cb560208601612bc7565b925060408501359150606085013567ffffffffffffffff811115612cd7578182fd5b612ce387828801612be3565b91505092959194509250565b60008060408385031215612d01578182fd5b612d0a83612bc7565b915060208301358015158114612d1e578182fd5b809150509250929050565b60008060408385031215612d3b578182fd5b612d4483612bc7565b9150602083013567ffffffffffffffff811115612d5f578182fd5b612d6b85828601612be3565b9150509250929050565b60008060408385031215612d87578182fd5b612d9083612bc7565b9150602083013567ffffffffffffffff811115612dab578182fd5b8301601f81018513612dbb578182fd5b612d6b85823560208401612b51565b60008060408385031215612ddc578182fd5b612de583612bc7565b946020939093013593505050565b600060208284031215612e04578081fd5b5035919050565b600060208284031215612e1c578081fd5b5051919050565b60008060408385031215612e35578182fd5b82359150612c4560208401612bc7565b600060208284031215612e56578081fd5b813561235f81613115565b600060208284031215612e72578081fd5b815161235f81613115565b60008151808452612e95816020860160208601613026565b601f01601f19169290920160200192915050565b60008251612ebb818460208701613026565b9190910192915050565b60008351612ed7818460208801613026565b835190830190612eeb818360208801613026565b01949350505050565b7f416363657373436f6e74726f6c3a206163636f756e7420000000000000000000815260008351612f2c816017850160208801613026565b7f206973206d697373696e6720726f6c65200000000000000000000000000000006017918401918201528351612f69816028840160208801613026565b01602801949350505050565b60006001600160a01b03808716835280861660208401525083604083015260806060830152612fa76080830184612e7d565b9695505050505050565b60208152600061235f6020830184612e7d565b60008219821115612fd757612fd76130d3565b500190565b600082612feb57612feb6130e9565b500490565b600081600019048311821515161561300a5761300a6130d3565b500290565b600082821015613021576130216130d3565b500390565b60005b83811015613041578181015183820152602001613029565b838111156111195750506000910152565b600081613061576130616130d3565b506000190190565b600181811c9082168061307d57607f821691505b6020821081141561309e57634e487b7160e01b600052602260045260246000fd5b50919050565b60006000198214156130b8576130b86130d3565b5060010190565b6000826130ce576130ce6130e9565b500690565b634e487b7160e01b600052601160045260246000fd5b634e487b7160e01b600052601260045260246000fd5b634e487b7160e01b600052604160045260246000fd5b6001600160e01b031981168114610a2757600080fdfe416464726573733a206c6f772d6c6576656c2064656c65676174652063616c6c206661696c6564a2646970667358221220d93f41aec1412e4c71a16d57ff57a1eaa8a3f7e812b6f533b6f7ee3419b0b0a564736f6c63430008040033",
  "linkReferences": {},
  "deployedLinkReferences": {}
}