{
  "_format": "hh-sol-artifact-1",
  "contractName": "IdentityToken",
  "sourceName": "contracts/protocol/IdentityToken.sol",
  "abi": [
    {
      "anonymous": false,
      "inputs": [
        {
          "indexed": false,
          "internalType": "address",
          "name": "previousAdmin",
          "type": "address"
        },
        {
          "indexed": false,
          "internalType": "address",
          "name": "newAdmin",
          "type": "address"
        }
      ],
      "name": "AdminChanged",
      "type": "event"
    },
    {
      "anonymous": false,
      "inputs": [
        {
          "indexed": true,
          "internalType": "address",
          "name": "owner",
          "type": "address"
        },
        {
          "indexed": true,
          "internalType": "address",
          "name": "approved",
          "type": "address"
        },
        {
          "indexed": true,
          "internalType": "uint256",
          "name": "tokenId",
          "type": "uint256"
        }
      ],
      "name": "Approval",
      "type": "event"
    },
    {
      "anonymous": false,
      "inputs": [
        {
          "indexed": true,
          "internalType": "address",
          "name": "owner",
          "type": "address"
        },
        {
          "indexed": true,
          "internalType": "address",
          "name": "operator",
          "type": "address"
        },
        {
          "indexed": false,
          "internalType": "bool",
          "name": "approved",
          "type": "bool"
        }
      ],
      "name": "ApprovalForAll",
      "type": "event"
    },
    {
      "anonymous": false,
      "inputs": [
        {
          "indexed": true,
          "internalType": "address",
          "name": "beacon",
          "type": "address"
        }
      ],
      "name": "BeaconUpgraded",
      "type": "event"
    },
    {
      "anonymous": false,
      "inputs": [
        {
          "indexed": false,
          "internalType": "uint8",
          "name": "version",
          "type": "uint8"
        }
      ],
      "name": "Initialized",
      "type": "event"
    },
    {
      "anonymous": false,
      "inputs": [
        {
          "indexed": false,
          "internalType": "address",
          "name": "account",
          "type": "address"
        }
      ],
      "name": "Paused",
      "type": "event"
    },
    {
      "anonymous": false,
      "inputs": [
        {
          "indexed": true,
          "internalType": "bytes32",
          "name": "role",
          "type": "bytes32"
        },
        {
          "indexed": true,
          "internalType": "bytes32",
          "name": "previousAdminRole",
          "type": "bytes32"
        },
        {
          "indexed": true,
          "internalType": "bytes32",
          "name": "newAdminRole",
          "type": "bytes32"
        }
      ],
      "name": "RoleAdminChanged",
      "type": "event"
    },
    {
      "anonymous": false,
      "inputs": [
        {
          "indexed": true,
          "internalType": "bytes32",
          "name": "role",
          "type": "bytes32"
        },
        {
          "indexed": true,
          "internalType": "address",
          "name": "account",
          "type": "address"
        },
        {
          "indexed": true,
          "internalType": "address",
          "name": "sender",
          "type": "address"
        }
      ],
      "name": "RoleGranted",
      "type": "event"
    },
    {
      "anonymous": false,
      "inputs": [
        {
          "indexed": true,
          "internalType": "bytes32",
          "name": "role",
          "type": "bytes32"
        },
        {
          "indexed": true,
          "internalType": "address",
          "name": "account",
          "type": "address"
        },
        {
          "indexed": true,
          "internalType": "address",
          "name": "sender",
          "type": "address"
        }
      ],
      "name": "RoleRevoked",
      "type": "event"
    },
    {
      "anonymous": false,
      "inputs": [
        {
          "indexed": true,
          "internalType": "address",
          "name": "from",
          "type": "address"
        },
        {
          "indexed": true,
          "internalType": "address",
          "name": "to",
          "type": "address"
        },
        {
          "indexed": true,
          "internalType": "uint256",
          "name": "tokenId",
          "type": "uint256"
        }
      ],
      "name": "Transfer",
      "type": "event"
    },
    {
      "anonymous": false,
      "inputs": [
        {
          "indexed": false,
          "internalType": "address",
          "name": "account",
          "type": "address"
        }
      ],
      "name": "Unpaused",
      "type": "event"
    },
    {
      "anonymous": false,
      "inputs": [
        {
          "indexed": true,
          "internalType": "address",
          "name": "implementation",
          "type": "address"
        }
      ],
      "name": "Upgraded",
      "type": "event"
    },
    {
      "inputs": [],
      "name": "DEFAULT_ADMIN_ROLE",
      "outputs": [
        {
          "internalType": "bytes32",
          "name": "",
          "type": "bytes32"
        }
      ],
      "stateMutability": "view",
      "type": "function"
    },
    {
      "inputs": [],
      "name": "MINTER_ROLE",
      "outputs": [
        {
          "internalType": "bytes32",
          "name": "",
          "type": "bytes32"
        }
      ],
      "stateMutability": "view",
      "type": "function"
    },
    {
      "inputs": [],
      "name": "PAUSER_ROLE",
      "outputs": [
        {
          "internalType": "bytes32",
          "name": "",
          "type": "bytes32"
        }
      ],
      "stateMutability": "view",
      "type": "function"
    },
    {
      "inputs": [],
      "name": "UPGRADER_ROLE",
      "outputs": [
        {
          "internalType": "bytes32",
          "name": "",
          "type": "bytes32"
        }
      ],
      "stateMutability": "view",
      "type": "function"
    },
    {
      "inputs": [
        {
          "internalType": "address",
          "name": "to",
          "type": "address"
        },
        {
          "internalType": "uint256",
          "name": "tokenId",
          "type": "uint256"
        }
      ],
      "name": "approve",
      "outputs": [],
      "stateMutability": "nonpayable",
      "type": "function"
    },
    {
      "inputs": [
        {
          "internalType": "address",
          "name": "owner",
          "type": "address"
        }
      ],
      "name": "balanceOf",
      "outputs": [
        {
          "internalType": "uint256",
          "name": "",
          "type": "uint256"
        }
      ],
      "stateMutability": "view",
      "type": "function"
    },
    {
      "inputs": [
        {
          "internalType": "uint256",
          "name": "tokenId",
          "type": "uint256"
        }
      ],
      "name": "burn",
      "outputs": [],
      "stateMutability": "nonpayable",
      "type": "function"
    },
    {
      "inputs": [
        {
          "internalType": "uint256",
          "name": "tokenId",
          "type": "uint256"
        }
      ],
      "name": "getApproved",
      "outputs": [
        {
          "internalType": "address",
          "name": "",
          "type": "address"
        }
      ],
      "stateMutability": "view",
      "type": "function"
    },
    {
      "inputs": [
        {
          "internalType": "bytes32",
          "name": "role",
          "type": "bytes32"
        }
      ],
      "name": "getRoleAdmin",
      "outputs": [
        {
          "internalType": "bytes32",
          "name": "",
          "type": "bytes32"
        }
      ],
      "stateMutability": "view",
      "type": "function"
    },
    {
      "inputs": [
        {
          "internalType": "bytes32",
          "name": "role",
          "type": "bytes32"
        },
        {
          "internalType": "address",
          "name": "account",
          "type": "address"
        }
      ],
      "name": "grantRole",
      "outputs": [],
      "stateMutability": "nonpayable",
      "type": "function"
    },
    {
      "inputs": [
        {
          "internalType": "bytes32",
          "name": "role",
          "type": "bytes32"
        },
        {
          "internalType": "address",
          "name": "account",
          "type": "address"
        }
      ],
      "name": "hasRole",
      "outputs": [
        {
          "internalType": "bool",
          "name": "",
          "type": "bool"
        }
      ],
      "stateMutability": "view",
      "type": "function"
    },
    {
      "inputs": [],
      "name": "initialize",
      "outputs": [],
      "stateMutability": "nonpayable",
      "type": "function"
    },
    {
      "inputs": [
        {
          "internalType": "address",
          "name": "owner",
          "type": "address"
        },
        {
          "internalType": "address",
          "name": "operator",
          "type": "address"
        }
      ],
      "name": "isApprovedForAll",
      "outputs": [
        {
          "internalType": "bool",
          "name": "",
          "type": "bool"
        }
      ],
      "stateMutability": "view",
      "type": "function"
    },
    {
      "inputs": [],
      "name": "name",
      "outputs": [
        {
          "internalType": "string",
          "name": "",
          "type": "string"
        }
      ],
      "stateMutability": "view",
      "type": "function"
    },
    {
      "inputs": [
        {
          "internalType": "uint256",
          "name": "tokenId",
          "type": "uint256"
        }
      ],
      "name": "ownerOf",
      "outputs": [
        {
          "internalType": "address",
          "name": "",
          "type": "address"
        }
      ],
      "stateMutability": "view",
      "type": "function"
    },
    {
      "inputs": [],
      "name": "pause",
      "outputs": [],
      "stateMutability": "nonpayable",
      "type": "function"
    },
    {
      "inputs": [],
      "name": "paused",
      "outputs": [
        {
          "internalType": "bool",
          "name": "",
          "type": "bool"
        }
      ],
      "stateMutability": "view",
      "type": "function"
    },
    {
      "inputs": [],
      "name": "proxiableUUID",
      "outputs": [
        {
          "internalType": "bytes32",
          "name": "",
          "type": "bytes32"
        }
      ],
      "stateMutability": "view",
      "type": "function"
    },
    {
      "inputs": [
        {
          "internalType": "bytes32",
          "name": "role",
          "type": "bytes32"
        },
        {
          "internalType": "address",
          "name": "account",
          "type": "address"
        }
      ],
      "name": "renounceRole",
      "outputs": [],
      "stateMutability": "nonpayable",
      "type": "function"
    },
    {
      "inputs": [
        {
          "internalType": "bytes32",
          "name": "role",
          "type": "bytes32"
        },
        {
          "internalType": "address",
          "name": "account",
          "type": "address"
        }
      ],
      "name": "revokeRole",
      "outputs": [],
      "stateMutability": "nonpayable",
      "type": "function"
    },
    {
      "inputs": [
        {
          "internalType": "address",
          "name": "to",
          "type": "address"
        },
        {
          "internalType": "string",
          "name": "uri",
          "type": "string"
        }
      ],
      "name": "safeMint",
      "outputs": [],
      "stateMutability": "nonpayable",
      "type": "function"
    },
    {
      "inputs": [
        {
          "internalType": "address",
          "name": "from",
          "type": "address"
        },
        {
          "internalType": "address",
          "name": "to",
          "type": "address"
        },
        {
          "internalType": "uint256",
          "name": "tokenId",
          "type": "uint256"
        }
      ],
      "name": "safeTransferFrom",
      "outputs": [],
      "stateMutability": "nonpayable",
      "type": "function"
    },
    {
      "inputs": [
        {
          "internalType": "address",
          "name": "from",
          "type": "address"
        },
        {
          "internalType": "address",
          "name": "to",
          "type": "address"
        },
        {
          "internalType": "uint256",
          "name": "tokenId",
          "type": "uint256"
        },
        {
          "internalType": "bytes",
          "name": "data",
          "type": "bytes"
        }
      ],
      "name": "safeTransferFrom",
      "outputs": [],
      "stateMutability": "nonpayable",
      "type": "function"
    },
    {
      "inputs": [
        {
          "internalType": "address",
          "name": "operator",
          "type": "address"
        },
        {
          "internalType": "bool",
          "name": "approved",
          "type": "bool"
        }
      ],
      "name": "setApprovalForAll",
      "outputs": [],
      "stateMutability": "nonpayable",
      "type": "function"
    },
    {
      "inputs": [
        {
          "internalType": "bytes4",
          "name": "interfaceId",
          "type": "bytes4"
        }
      ],
      "name": "supportsInterface",
      "outputs": [
        {
          "internalType": "bool",
          "name": "",
          "type": "bool"
        }
      ],
      "stateMutability": "view",
      "type": "function"
    },
    {
      "inputs": [],
      "name": "symbol",
      "outputs": [
        {
          "internalType": "string",
          "name": "",
          "type": "string"
        }
      ],
      "stateMutability": "view",
      "type": "function"
    },
    {
      "inputs": [
        {
          "internalType": "uint256",
          "name": "tokenId",
          "type": "uint256"
        }
      ],
      "name": "tokenURI",
      "outputs": [
        {
          "internalType": "string",
          "name": "",
          "type": "string"
        }
      ],
      "stateMutability": "view",
      "type": "function"
    },
    {
      "inputs": [
        {
          "internalType": "address",
          "name": "from",
          "type": "address"
        },
        {
          "internalType": "address",
          "name": "to",
          "type": "address"
        },
        {
          "internalType": "uint256",
          "name": "tokenId",
          "type": "uint256"
        }
      ],
      "name": "transferFrom",
      "outputs": [],
      "stateMutability": "nonpayable",
      "type": "function"
    },
    {
      "inputs": [],
      "name": "unpause",
      "outputs": [],
      "stateMutability": "nonpayable",
      "type": "function"
    },
    {
      "inputs": [
        {
          "internalType": "address",
          "name": "newImplementation",
          "type": "address"
        }
      ],
      "name": "upgradeTo",
      "outputs": [],
      "stateMutability": "nonpayable",
      "type": "function"
    },
    {
      "inputs": [
        {
          "internalType": "address",
          "name": "newImplementation",
          "type": "address"
        },
        {
          "internalType": "bytes",
          "name": "data",
          "type": "bytes"
        }
      ],
      "name": "upgradeToAndCall",
      "outputs": [],
      "stateMutability": "payable",
      "type": "function"
    }
  ],
  "bytecode": "0x60a06040523060601b60805234801561001757600080fd5b5060805160601c61324661005260003960008181610976015281816109fb01528181610bb401528181610c390152610d1f01526132466000f3fe6080604052600436106101d85760003560e01c80636352211e11610102578063b88d4fde11610095578063d547741f11610064578063d547741f1461056f578063e63ab1e91461058f578063e985e9c5146105c3578063f72c0d8b1461060c57600080fd5b8063b88d4fde146104db578063c87b56dd146104fb578063d204c45e1461051b578063d53913931461053b57600080fd5b806391d14854116100d157806391d148541461044b57806395d89b4114610491578063a217fddf146104a6578063a22cb465146104bb57600080fd5b80636352211e146103e157806370a08231146104015780638129fc1c146104215780638456cb591461043657600080fd5b806336568abe1161017a57806342966c681161014957806342966c68146103815780634f1ef286146103a157806352d1902d146103b45780635c975abb146103c957600080fd5b806336568abe1461030c5780633659cfe61461032c5780633f4ba83a1461034c57806342842e0e1461036157600080fd5b8063095ea7b3116101b6578063095ea7b31461026c57806323b872dd1461028e578063248a9ca3146102ae5780632f2ff15d146102ec57600080fd5b806301ffc9a7146101dd57806306fdde0314610212578063081812fc14610234575b600080fd5b3480156101e957600080fd5b506101fd6101f8366004612f03565b610640565b60405190151581526020015b60405180910390f35b34801561021e57600080fd5b50610227610651565b604051610209919061306f565b34801561024057600080fd5b5061025461024f366004612eb1565b6106e3565b6040516001600160a01b039091168152602001610209565b34801561027857600080fd5b5061028c610287366004612e88565b61070a565b005b34801561029a57600080fd5b5061028c6102a9366004612d0c565b610841565b3480156102ba57600080fd5b506102de6102c9366004612eb1565b600090815260fb602052604090206001015490565b604051908152602001610209565b3480156102f857600080fd5b5061028c610307366004612ee1565b6108ba565b34801561031857600080fd5b5061028c610327366004612ee1565b6108df565b34801561033857600080fd5b5061028c610347366004612cc0565b61096b565b34801561035857600080fd5b5061028c610ae7565b34801561036d57600080fd5b5061028c61037c366004612d0c565b610b19565b34801561038d57600080fd5b5061028c61039c366004612eb1565b610b34565b61028c6103af366004612de7565b610ba9565b3480156103c057600080fd5b506102de610d12565b3480156103d557600080fd5b5060c95460ff166101fd565b3480156103ed57600080fd5b506102546103fc366004612eb1565b610dd7565b34801561040d57600080fd5b506102de61041c366004612cc0565b610e3c565b34801561042d57600080fd5b5061028c610ed6565b34801561044257600080fd5b5061028c611112565b34801561045757600080fd5b506101fd610466366004612ee1565b600091825260fb602090815260408084206001600160a01b0393909316845291905290205460ff1690565b34801561049d57600080fd5b50610227611144565b3480156104b257600080fd5b506102de600081565b3480156104c757600080fd5b5061028c6104d6366004612dad565b611153565b3480156104e757600080fd5b5061028c6104f6366004612d47565b61115e565b34801561050757600080fd5b50610227610516366004612eb1565b6111dd565b34801561052757600080fd5b5061028c610536366004612e33565b6111e8565b34801561054757600080fd5b506102de7f9f2df0fed2c77648de5860a4cc508cd0818c85b8b8a1ab4ceeef8d981c8956a681565b34801561057b57600080fd5b5061028c61058a366004612ee1565b611243565b34801561059b57600080fd5b506102de7f65d7a28e3265b37a6474929f336521b332c1681b933f6cb9f3376673440d862a81565b3480156105cf57600080fd5b506101fd6105de366004612cda565b6001600160a01b039182166000908152606a6020908152604080832093909416825291909152205460ff1690565b34801561061857600080fd5b506102de7f189ab7a9244df0848122154315af71fe140f3db0fe014031783b0946b8c9d2e381565b600061064b82611268565b92915050565b60606065805461066090613127565b80601f016020809104026020016040519081016040528092919081815260200182805461068c90613127565b80156106d95780601f106106ae576101008083540402835291602001916106d9565b820191906000526020600020905b8154815290600101906020018083116106bc57829003601f168201915b5050505050905090565b60006106ee826112a6565b506000908152606960205260409020546001600160a01b031690565b600061071582610dd7565b9050806001600160a01b0316836001600160a01b031614156107a45760405162461bcd60e51b815260206004820152602160248201527f4552433732313a20617070726f76616c20746f2063757272656e74206f776e6560448201527f720000000000000000000000000000000000000000000000000000000000000060648201526084015b60405180910390fd5b336001600160a01b03821614806107c057506107c081336105de565b6108325760405162461bcd60e51b815260206004820152603e60248201527f4552433732313a20617070726f76652063616c6c6572206973206e6f7420746f60448201527f6b656e206f776e6572206e6f7220617070726f76656420666f7220616c6c0000606482015260840161079b565b61083c838361130a565b505050565b61084c335b82611378565b6108af5760405162461bcd60e51b815260206004820152602e60248201527f4552433732313a2063616c6c6572206973206e6f7420746f6b656e206f776e6560448201526d1c881b9bdc88185c1c1c9bdd995960921b606482015260840161079b565b61083c8383836113f7565b600082815260fb60205260409020600101546108d5816115cf565b61083c83836115d9565b6001600160a01b038116331461095d5760405162461bcd60e51b815260206004820152602f60248201527f416363657373436f6e74726f6c3a2063616e206f6e6c792072656e6f756e636560448201527f20726f6c657320666f722073656c660000000000000000000000000000000000606482015260840161079b565b610967828261167b565b5050565b306001600160a01b037f00000000000000000000000000000000000000000000000000000000000000001614156109f95760405162461bcd60e51b815260206004820152602c60248201527f46756e6374696f6e206d7573742062652063616c6c6564207468726f7567682060448201526b19195b1959d85d1958d85b1b60a21b606482015260840161079b565b7f00000000000000000000000000000000000000000000000000000000000000006001600160a01b0316610a547f360894a13ba1a3210667c828492db98dca3e2076cc3735a920a3ca505d382bbc546001600160a01b031690565b6001600160a01b031614610abf5760405162461bcd60e51b815260206004820152602c60248201527f46756e6374696f6e206d7573742062652063616c6c6564207468726f7567682060448201526b6163746976652070726f787960a01b606482015260840161079b565b610ac8816116fe565b60408051600080825260208201909252610ae491839190611728565b50565b7f65d7a28e3265b37a6474929f336521b332c1681b933f6cb9f3376673440d862a610b11816115cf565b610ae46118d7565b61083c8383836040518060200160405280600081525061115e565b610b3d33610846565b610ba05760405162461bcd60e51b815260206004820152602e60248201527f4552433732313a2063616c6c6572206973206e6f7420746f6b656e206f776e6560448201526d1c881b9bdc88185c1c1c9bdd995960921b606482015260840161079b565b610ae481611929565b306001600160a01b037f0000000000000000000000000000000000000000000000000000000000000000161415610c375760405162461bcd60e51b815260206004820152602c60248201527f46756e6374696f6e206d7573742062652063616c6c6564207468726f7567682060448201526b19195b1959d85d1958d85b1b60a21b606482015260840161079b565b7f00000000000000000000000000000000000000000000000000000000000000006001600160a01b0316610c927f360894a13ba1a3210667c828492db98dca3e2076cc3735a920a3ca505d382bbc546001600160a01b031690565b6001600160a01b031614610cfd5760405162461bcd60e51b815260206004820152602c60248201527f46756e6374696f6e206d7573742062652063616c6c6564207468726f7567682060448201526b6163746976652070726f787960a01b606482015260840161079b565b610d06826116fe565b61096782826001611728565b6000306001600160a01b037f00000000000000000000000000000000000000000000000000000000000000001614610db25760405162461bcd60e51b815260206004820152603860248201527f555550535570677261646561626c653a206d757374206e6f742062652063616c60448201527f6c6564207468726f7567682064656c656761746563616c6c0000000000000000606482015260840161079b565b507f360894a13ba1a3210667c828492db98dca3e2076cc3735a920a3ca505d382bbc90565b6000818152606760205260408120546001600160a01b03168061064b5760405162461bcd60e51b815260206004820152601860248201527f4552433732313a20696e76616c696420746f6b656e2049440000000000000000604482015260640161079b565b60006001600160a01b038216610eba5760405162461bcd60e51b815260206004820152602960248201527f4552433732313a2061646472657373207a65726f206973206e6f74206120766160448201527f6c6964206f776e65720000000000000000000000000000000000000000000000606482015260840161079b565b506001600160a01b031660009081526068602052604090205490565b600054610100900460ff1615808015610ef65750600054600160ff909116105b80610f105750303b158015610f10575060005460ff166001145b610f825760405162461bcd60e51b815260206004820152602e60248201527f496e697469616c697a61626c653a20636f6e747261637420697320616c72656160448201527f647920696e697469616c697a6564000000000000000000000000000000000000606482015260840161079b565b6000805460ff191660011790558015610fa5576000805461ff0019166101001790555b6110196040518060400160405280600d81526020017f4964656e74697479546f6b656e000000000000000000000000000000000000008152506040518060400160405280600281526020017f4944000000000000000000000000000000000000000000000000000000000000815250611932565b6110216119a7565b611029611a14565b6110316119a7565b6110396119a7565b6110416119a7565b61104c6000336115d9565b6110767f65d7a28e3265b37a6474929f336521b332c1681b933f6cb9f3376673440d862a336115d9565b6110a07f9f2df0fed2c77648de5860a4cc508cd0818c85b8b8a1ab4ceeef8d981c8956a6336115d9565b6110ca7f189ab7a9244df0848122154315af71fe140f3db0fe014031783b0946b8c9d2e3336115d9565b8015610ae4576000805461ff0019169055604051600181527f7f26b83ff96e1f2b6a682f133852f6798a09c465da95921460cefb38474024989060200160405180910390a150565b7f65d7a28e3265b37a6474929f336521b332c1681b933f6cb9f3376673440d862a61113c816115cf565b610ae4611a87565b60606066805461066090613127565b610967338383611ac4565b6111683383611378565b6111cb5760405162461bcd60e51b815260206004820152602e60248201527f4552433732313a2063616c6c6572206973206e6f7420746f6b656e206f776e6560448201526d1c881b9bdc88185c1c1c9bdd995960921b606482015260840161079b565b6111d784848484611b93565b50505050565b606061064b82611c11565b7f9f2df0fed2c77648de5860a4cc508cd0818c85b8b8a1ab4ceeef8d981c8956a6611212816115cf565b600061121e6101c35490565b905061122f6101c380546001019055565b6112398482611d29565b6111d78184611d43565b600082815260fb602052604090206001015461125e816115cf565b61083c838361167b565b60006001600160e01b031982167f7965db0b00000000000000000000000000000000000000000000000000000000148061064b575061064b82611dec565b6000818152606760205260409020546001600160a01b0316610ae45760405162461bcd60e51b815260206004820152601860248201527f4552433732313a20696e76616c696420746f6b656e2049440000000000000000604482015260640161079b565b600081815260696020526040902080546001600160a01b0319166001600160a01b038416908117909155819061133f82610dd7565b6001600160a01b03167f8c5be1e5ebec7d5bd14f71427d1e84f3dd0314c0f7b2291e5b200ac8c7c3b92560405160405180910390a45050565b60008061138483610dd7565b9050806001600160a01b0316846001600160a01b031614806113cb57506001600160a01b038082166000908152606a602090815260408083209388168352929052205460ff165b806113ef5750836001600160a01b03166113e4846106e3565b6001600160a01b0316145b949350505050565b826001600160a01b031661140a82610dd7565b6001600160a01b0316146114865760405162461bcd60e51b815260206004820152602560248201527f4552433732313a207472616e736665722066726f6d20696e636f72726563742060448201527f6f776e6572000000000000000000000000000000000000000000000000000000606482015260840161079b565b6001600160a01b0382166115015760405162461bcd60e51b8152602060048201526024808201527f4552433732313a207472616e7366657220746f20746865207a65726f2061646460448201527f7265737300000000000000000000000000000000000000000000000000000000606482015260840161079b565b61150c838383611e87565b61151760008261130a565b6001600160a01b03831660009081526068602052604081208054600192906115409084906130cd565b90915550506001600160a01b038216600090815260686020526040812080546001929061156e908490613082565b909155505060008181526067602052604080822080546001600160a01b0319166001600160a01b0386811691821790925591518493918716917fddf252ad1be2c89b69c2b068fc378daa952ba7f163c4a11628f55a4df523b3ef91a4505050565b610ae48133611ef8565b600082815260fb602090815260408083206001600160a01b038516845290915290205460ff1661096757600082815260fb602090815260408083206001600160a01b03851684529091529020805460ff191660011790556116373390565b6001600160a01b0316816001600160a01b0316837f2f8788117e7eff1d82e926ec794901d17c78024a50270940304540a733656f0d60405160405180910390a45050565b600082815260fb602090815260408083206001600160a01b038516845290915290205460ff161561096757600082815260fb602090815260408083206001600160a01b0385168085529252808320805460ff1916905551339285917ff6391f5c32d9c69d2a47ea670b442974b53935d1edc7fd64eb21e047a839171b9190a45050565b7f189ab7a9244df0848122154315af71fe140f3db0fe014031783b0946b8c9d2e3610967816115cf565b7f4910fdfa16fed3260ed0e7147f7cc6da11a60208b5b9406d12a635614ffd91435460ff161561175b5761083c83611f78565b826001600160a01b03166352d1902d6040518163ffffffff1660e01b815260040160206040518083038186803b15801561179457600080fd5b505afa9250505080156117c4575060408051601f3d908101601f191682019092526117c191810190612ec9565b60015b6118365760405162461bcd60e51b815260206004820152602e60248201527f45524331393637557067726164653a206e657720696d706c656d656e7461746960448201527f6f6e206973206e6f742055555053000000000000000000000000000000000000606482015260840161079b565b7f360894a13ba1a3210667c828492db98dca3e2076cc3735a920a3ca505d382bbc81146118cb5760405162461bcd60e51b815260206004820152602960248201527f45524331393637557067726164653a20756e737570706f727465642070726f7860448201527f6961626c65555549440000000000000000000000000000000000000000000000606482015260840161079b565b5061083c838383612036565b6118df61205b565b60c9805460ff191690557f5db9ee0a495bf2e6ff9c91a7834c1ba4fdd244a5e8aa4e537bd38aeae4b073aa335b6040516001600160a01b03909116815260200160405180910390a1565b610ae4816120ad565b600054610100900460ff1661199d5760405162461bcd60e51b815260206004820152602b60248201527f496e697469616c697a61626c653a20636f6e7472616374206973206e6f74206960448201526a6e697469616c697a696e6760a81b606482015260840161079b565b61096782826120ed565b600054610100900460ff16611a125760405162461bcd60e51b815260206004820152602b60248201527f496e697469616c697a61626c653a20636f6e7472616374206973206e6f74206960448201526a6e697469616c697a696e6760a81b606482015260840161079b565b565b600054610100900460ff16611a7f5760405162461bcd60e51b815260206004820152602b60248201527f496e697469616c697a61626c653a20636f6e7472616374206973206e6f74206960448201526a6e697469616c697a696e6760a81b606482015260840161079b565b611a1261217f565b611a8f6121f6565b60c9805460ff191660011790557f62e78cea01bee320cd4e420270b5ea74000d11b0c9f74754ebdbfc544b05a25861190c3390565b816001600160a01b0316836001600160a01b03161415611b265760405162461bcd60e51b815260206004820152601960248201527f4552433732313a20617070726f766520746f2063616c6c657200000000000000604482015260640161079b565b6001600160a01b038381166000818152606a6020908152604080832094871680845294825291829020805460ff191686151590811790915591519182527f17307eab39ab6107e8899845ad3d59bd9653f200f220920489ca2b5937696c31910160405180910390a3505050565b611b9e8484846113f7565b611baa84848484612249565b6111d75760405162461bcd60e51b815260206004820152603260248201527f4552433732313a207472616e7366657220746f206e6f6e20455243373231526560448201527131b2b4bb32b91034b6b83632b6b2b73a32b960711b606482015260840161079b565b6060611c1c826112a6565b60008281526097602052604081208054611c3590613127565b80601f0160208091040260200160405190810160405280929190818152602001828054611c6190613127565b8015611cae5780601f10611c8357610100808354040283529160200191611cae565b820191906000526020600020905b815481529060010190602001808311611c9157829003601f168201915b505050505090506000611cdb604080518082019091526007815266697066733a2f2f60c81b602082015290565b9050805160001415611cee575092915050565b815115611d20578082604051602001611d08929190612f83565b60405160208183030381529060405292505050919050565b6113ef846123a1565b610967828260405180602001604052806000815250612424565b6000828152606760205260409020546001600160a01b0316611dcd5760405162461bcd60e51b815260206004820152602e60248201527f45524337323155524953746f726167653a2055524920736574206f66206e6f6e60448201527f6578697374656e7420746f6b656e000000000000000000000000000000000000606482015260840161079b565b6000828152609760209081526040909120825161083c92840190612b40565b60006001600160e01b031982167f80ac58cd000000000000000000000000000000000000000000000000000000001480611e4f57506001600160e01b031982167f5b5e139f00000000000000000000000000000000000000000000000000000000145b8061064b57507f01ffc9a7000000000000000000000000000000000000000000000000000000006001600160e01b031983161461064b565b611e8f6121f6565b6001600160a01b0383161580611eac57506001600160a01b038216155b61083c5760405162461bcd60e51b815260206004820152601d60248201527f4e6f7420616c6c6f77656420746f207472616e7366657220746f6b656e000000604482015260640161079b565b600082815260fb602090815260408083206001600160a01b038516845290915290205460ff1661096757611f36816001600160a01b031660146124a2565b611f418360206124a2565b604051602001611f52929190612fb2565b60408051601f198184030181529082905262461bcd60e51b825261079b9160040161306f565b6001600160a01b0381163b611ff55760405162461bcd60e51b815260206004820152602d60248201527f455243313936373a206e657720696d706c656d656e746174696f6e206973206e60448201527f6f74206120636f6e747261637400000000000000000000000000000000000000606482015260840161079b565b7f360894a13ba1a3210667c828492db98dca3e2076cc3735a920a3ca505d382bbc80546001600160a01b0319166001600160a01b0392909216919091179055565b61203f836126ad565b60008251118061204c5750805b1561083c576111d783836126ed565b60c95460ff16611a125760405162461bcd60e51b815260206004820152601460248201527f5061757361626c653a206e6f7420706175736564000000000000000000000000604482015260640161079b565b6120b6816127f8565b600081815260976020526040902080546120cf90613127565b159050610ae4576000818152609760205260408120610ae491612bc4565b600054610100900460ff166121585760405162461bcd60e51b815260206004820152602b60248201527f496e697469616c697a61626c653a20636f6e7472616374206973206e6f74206960448201526a6e697469616c697a696e6760a81b606482015260840161079b565b815161216b906065906020850190612b40565b50805161083c906066906020840190612b40565b600054610100900460ff166121ea5760405162461bcd60e51b815260206004820152602b60248201527f496e697469616c697a61626c653a20636f6e7472616374206973206e6f74206960448201526a6e697469616c697a696e6760a81b606482015260840161079b565b60c9805460ff19169055565b60c95460ff1615611a125760405162461bcd60e51b815260206004820152601060248201527f5061757361626c653a2070617573656400000000000000000000000000000000604482015260640161079b565b60006001600160a01b0384163b1561239657604051630a85bd0160e11b81526001600160a01b0385169063150b7a029061228d903390899088908890600401613033565b602060405180830381600087803b1580156122a757600080fd5b505af19250505080156122d7575060408051601f3d908101601f191682019092526122d491810190612f1f565b60015b61237c573d808015612305576040519150601f19603f3d011682016040523d82523d6000602084013e61230a565b606091505b5080516123745760405162461bcd60e51b815260206004820152603260248201527f4552433732313a207472616e7366657220746f206e6f6e20455243373231526560448201527131b2b4bb32b91034b6b83632b6b2b73a32b960711b606482015260840161079b565b805181602001fd5b6001600160e01b031916630a85bd0160e11b1490506113ef565b506001949350505050565b60606123ac826112a6565b60006123d2604080518082019091526007815266697066733a2f2f60c81b602082015290565b905060008151116123f2576040518060200160405280600081525061241d565b806123fc8461289f565b60405160200161240d929190612f83565b6040516020818303038152906040525b9392505050565b61242e83836129b9565b61243b6000848484612249565b61083c5760405162461bcd60e51b815260206004820152603260248201527f4552433732313a207472616e7366657220746f206e6f6e20455243373231526560448201527131b2b4bb32b91034b6b83632b6b2b73a32b960711b606482015260840161079b565b606060006124b18360026130ae565b6124bc906002613082565b67ffffffffffffffff8111156124e257634e487b7160e01b600052604160045260246000fd5b6040519080825280601f01601f19166020018201604052801561250c576020820181803683370190505b509050600360fc1b8160008151811061253557634e487b7160e01b600052603260045260246000fd5b60200101906001600160f81b031916908160001a9053507f78000000000000000000000000000000000000000000000000000000000000008160018151811061258e57634e487b7160e01b600052603260045260246000fd5b60200101906001600160f81b031916908160001a90535060006125b28460026130ae565b6125bd906001613082565b90505b600181111561265e577f303132333435363738396162636465660000000000000000000000000000000085600f166010811061260c57634e487b7160e01b600052603260045260246000fd5b1a60f81b82828151811061263057634e487b7160e01b600052603260045260246000fd5b60200101906001600160f81b031916908160001a90535060049490941c9361265781613110565b90506125c0565b50831561241d5760405162461bcd60e51b815260206004820181905260248201527f537472696e67733a20686578206c656e67746820696e73756666696369656e74604482015260640161079b565b6126b681611f78565b6040516001600160a01b038216907fbc7cd75a20ee27fd9adebab32041f755214dbc6bffa90cc0225b39da2e5c2d3b90600090a250565b60606001600160a01b0383163b61276c5760405162461bcd60e51b815260206004820152602660248201527f416464726573733a2064656c65676174652063616c6c20746f206e6f6e2d636f60448201527f6e74726163740000000000000000000000000000000000000000000000000000606482015260840161079b565b600080846001600160a01b0316846040516127879190612f67565b600060405180830381855af49150503d80600081146127c2576040519150601f19603f3d011682016040523d82523d6000602084013e6127c7565b606091505b50915091506127ef82826040518060600160405280602781526020016131ea60279139612b07565b95945050505050565b600061280382610dd7565b905061281181600084611e87565b61281c60008361130a565b6001600160a01b03811660009081526068602052604081208054600192906128459084906130cd565b909155505060008281526067602052604080822080546001600160a01b0319169055518391906001600160a01b038416907fddf252ad1be2c89b69c2b068fc378daa952ba7f163c4a11628f55a4df523b3ef908390a45050565b6060816128c35750506040805180820190915260018152600360fc1b602082015290565b8160005b81156128ed57806128d781613162565b91506128e69050600a8361309a565b91506128c7565b60008167ffffffffffffffff81111561291657634e487b7160e01b600052604160045260246000fd5b6040519080825280601f01601f191660200182016040528015612940576020820181803683370190505b5090505b84156113ef576129556001836130cd565b9150612962600a8661317d565b61296d906030613082565b60f81b81838151811061299057634e487b7160e01b600052603260045260246000fd5b60200101906001600160f81b031916908160001a9053506129b2600a8661309a565b9450612944565b6001600160a01b038216612a0f5760405162461bcd60e51b815260206004820181905260248201527f4552433732313a206d696e7420746f20746865207a65726f2061646472657373604482015260640161079b565b6000818152606760205260409020546001600160a01b031615612a745760405162461bcd60e51b815260206004820152601c60248201527f4552433732313a20746f6b656e20616c7265616479206d696e74656400000000604482015260640161079b565b612a8060008383611e87565b6001600160a01b0382166000908152606860205260408120805460019290612aa9908490613082565b909155505060008181526067602052604080822080546001600160a01b0319166001600160a01b03861690811790915590518392907fddf252ad1be2c89b69c2b068fc378daa952ba7f163c4a11628f55a4df523b3ef908290a45050565b60608315612b1657508161241d565b825115612b265782518084602001fd5b8160405162461bcd60e51b815260040161079b919061306f565b828054612b4c90613127565b90600052602060002090601f016020900481019282612b6e5760008555612bb4565b82601f10612b8757805160ff1916838001178555612bb4565b82800160010185558215612bb4579182015b82811115612bb4578251825591602001919060010190612b99565b50612bc0929150612bfa565b5090565b508054612bd090613127565b6000825580601f10612be0575050565b601f016020900490600052602060002090810190610ae491905b5b80821115612bc05760008155600101612bfb565b600067ffffffffffffffff80841115612c2a57612c2a6131bd565b604051601f8501601f19908116603f01168101908282118183101715612c5257612c526131bd565b81604052809350858152868686011115612c6b57600080fd5b858560208301376000602087830101525050509392505050565b80356001600160a01b0381168114612c9c57600080fd5b919050565b600082601f830112612cb1578081fd5b61241d83833560208501612c0f565b600060208284031215612cd1578081fd5b61241d82612c85565b60008060408385031215612cec578081fd5b612cf583612c85565b9150612d0360208401612c85565b90509250929050565b600080600060608486031215612d20578081fd5b612d2984612c85565b9250612d3760208501612c85565b9150604084013590509250925092565b60008060008060808587031215612d5c578081fd5b612d6585612c85565b9350612d7360208601612c85565b925060408501359150606085013567ffffffffffffffff811115612d95578182fd5b612da187828801612ca1565b91505092959194509250565b60008060408385031215612dbf578182fd5b612dc883612c85565b915060208301358015158114612ddc578182fd5b809150509250929050565b60008060408385031215612df9578182fd5b612e0283612c85565b9150602083013567ffffffffffffffff811115612e1d578182fd5b612e2985828601612ca1565b9150509250929050565b60008060408385031215612e45578182fd5b612e4e83612c85565b9150602083013567ffffffffffffffff811115612e69578182fd5b8301601f81018513612e79578182fd5b612e2985823560208401612c0f565b60008060408385031215612e9a578182fd5b612ea383612c85565b946020939093013593505050565b600060208284031215612ec2578081fd5b5035919050565b600060208284031215612eda578081fd5b5051919050565b60008060408385031215612ef3578182fd5b82359150612d0360208401612c85565b600060208284031215612f14578081fd5b813561241d816131d3565b600060208284031215612f30578081fd5b815161241d816131d3565b60008151808452612f538160208601602086016130e4565b601f01601f19169290920160200192915050565b60008251612f798184602087016130e4565b9190910192915050565b60008351612f958184602088016130e4565b835190830190612fa98183602088016130e4565b01949350505050565b7f416363657373436f6e74726f6c3a206163636f756e7420000000000000000000815260008351612fea8160178501602088016130e4565b7f206973206d697373696e6720726f6c652000000000000000000000000000000060179184019182015283516130278160288401602088016130e4565b01602801949350505050565b60006001600160a01b038087168352808616602084015250836040830152608060608301526130656080830184612f3b565b9695505050505050565b60208152600061241d6020830184612f3b565b6000821982111561309557613095613191565b500190565b6000826130a9576130a96131a7565b500490565b60008160001904831182151516156130c8576130c8613191565b500290565b6000828210156130df576130df613191565b500390565b60005b838110156130ff5781810151838201526020016130e7565b838111156111d75750506000910152565b60008161311f5761311f613191565b506000190190565b600181811c9082168061313b57607f821691505b6020821081141561315c57634e487b7160e01b600052602260045260246000fd5b50919050565b600060001982141561317657613176613191565b5060010190565b60008261318c5761318c6131a7565b500690565b634e487b7160e01b600052601160045260246000fd5b634e487b7160e01b600052601260045260246000fd5b634e487b7160e01b600052604160045260246000fd5b6001600160e01b031981168114610ae457600080fdfe416464726573733a206c6f772d6c6576656c2064656c65676174652063616c6c206661696c6564a2646970667358221220ee3c9b0aa1fd7daa7065f432c5997960bcbea771e3de30e8043bd8b5b168760364736f6c63430008040033",
  "linkReferences": {},
  "deployedLinkReferences": {}
}