{
  "_format": "hh-sol-artifact-1",
  "contractName": "MockSeniorPoolForOpportunityPool",
  "sourceName": "contracts/test-contract/MockSeniorPoolForOpportunityPool.sol",
  "abi": [
    {
      "inputs": [
        {
          "internalType": "address",
          "name": "_opportunityPoolAddress",
          "type": "address"
        }
      ],
      "stateMutability": "nonpayable",
      "type": "constructor"
    },
    {
      "inputs": [
        {
          "internalType": "uint8",
          "name": "_subpoolId",
          "type": "uint8"
        },
        {
          "internalType": "uint256",
          "name": "amount",
          "type": "uint256"
        }
      ],
      "name": "deposit",
      "outputs": [],
      "stateMutability": "nonpayable",
      "type": "function"
    },
    {
      "inputs": [],
      "name": "getOpportunityName",
      "outputs": [
        {
          "internalType": "string",
          "name": "",
          "type": "string"
        }
      ],
      "stateMutability": "pure",
      "type": "function"
    },
    {
      "inputs": [
        {
          "internalType": "contract DygnifyConfig",
          "name": "_dygnifyConfig",
          "type": "address"
        },
        {
          "internalType": "bytes32",
          "name": "_opportunityID",
          "type": "bytes32"
        },
        {
          "internalType": "uint256",
          "name": "_loanAmount",
          "type": "uint256"
        },
        {
          "internalType": "uint256",
          "name": "_loanTenureInDays",
          "type": "uint256"
        },
        {
          "internalType": "uint256",
          "name": "_loanInterest",
          "type": "uint256"
        },
        {
          "internalType": "uint256",
          "name": "_paymentFrequencyInDays",
          "type": "uint256"
        },
        {
          "internalType": "uint8",
          "name": "_loanType",
          "type": "uint8"
        }
      ],
      "name": "initPool",
      "outputs": [],
      "stateMutability": "nonpayable",
      "type": "function"
    },
    {
      "inputs": [
        {
          "internalType": "address",
          "name": "usdcAddress",
          "type": "address"
        },
        {
          "internalType": "address",
          "name": "spender",
          "type": "address"
        },
        {
          "internalType": "uint256",
          "name": "amount",
          "type": "uint256"
        }
      ],
      "name": "setAllowance",
      "outputs": [],
      "stateMutability": "nonpayable",
      "type": "function"
    },
    {
      "inputs": [
        {
          "internalType": "bool",
          "name": "",
          "type": "bool"
        },
        {
          "internalType": "bytes32",
          "name": "",
          "type": "bytes32"
        },
        {
          "internalType": "uint256",
          "name": "",
          "type": "uint256"
        }
      ],
      "name": "withDrawFromOpportunity",
      "outputs": [],
      "stateMutability": "nonpayable",
      "type": "function"
    },
    {
      "inputs": [
        {
          "internalType": "uint8",
          "name": "_subpoolId",
          "type": "uint8"
        }
      ],
      "name": "withdrawAll",
      "outputs": [
        {
          "internalType": "uint256",
          "name": "",
          "type": "uint256"
        }
      ],
      "stateMutability": "nonpayable",
      "type": "function"
    }
  ],
  "bytecode": "0x608060405234801561001057600080fd5b506040516105d33803806105d383398101604081905261002f91610054565b600080546001600160a01b0319166001600160a01b0392909216919091179055610082565b600060208284031215610065578081fd5b81516001600160a01b038116811461007b578182fd5b9392505050565b610542806100916000396000f3fe608060405234801561001057600080fd5b50600436106100625760003560e01c80631c3e36881461006757806353654e851461007c5780635d01e1f6146100a2578063da46098c146100b5578063ddc22b74146100c8578063f4d4c9d7146100f6575b600080fd5b61007a6100753660046103a0565b505050565b005b61008f61008a366004610450565b610109565b6040519081526020015b60405180910390f35b61007a6100b03660046103d4565b610196565b61007a6100c336600461033d565b61022d565b604080518082018252600c81526b4f70706f7274756e6974793160a01b602082015290516100999190610493565b61007a61010436600461046a565b6102b9565b600080546040516353654e8560e01b815260ff841660048201526001600160a01b0390911690829082906353654e8590602401602060405180830381600087803b15801561015657600080fd5b505af115801561016a573d6000803e3d6000fd5b505050506040513d601f19601f8201168201806040525081019061018e9190610438565b949350505050565b60005460405163c4f31a6560e01b81526001600160a01b0389811660048301526024820189905260448201889052606482018790526084820186905260a4820185905260ff841660c483015290911690819063c4f31a659060e401600060405180830381600087803b15801561020b57600080fd5b505af115801561021f573d6000803e3d6000fd5b505050505050505050505050565b60405163095ea7b360e01b81526001600160a01b0383811660048301526024820183905284919082169063095ea7b390604401602060405180830381600087803b15801561027a57600080fd5b505af115801561028e573d6000803e3d6000fd5b505050506040513d601f19601f820116820180604052508101906102b2919061037d565b5050505050565b60005460405163f4d4c9d760e01b815260ff84166004820152602481018390526001600160a01b0390911690819063f4d4c9d790604401600060405180830381600087803b15801561030a57600080fd5b505af115801561031e573d6000803e3d6000fd5b50505050505050565b803560ff8116811461033857600080fd5b919050565b600080600060608486031215610351578283fd5b833561035c816104e6565b9250602084013561036c816104e6565b929592945050506040919091013590565b60006020828403121561038e578081fd5b8151610399816104fe565b9392505050565b6000806000606084860312156103b4578283fd5b83356103bf816104fe565b95602085013595506040909401359392505050565b600080600080600080600060e0888a0312156103ee578283fd5b87356103f9816104e6565b96506020880135955060408801359450606088013593506080880135925060a0880135915061042a60c08901610327565b905092959891949750929550565b600060208284031215610449578081fd5b5051919050565b600060208284031215610461578081fd5b61039982610327565b6000806040838503121561047c578182fd5b61048583610327565b946020939093013593505050565b6000602080835283518082850152825b818110156104bf578581018301518582016040015282016104a3565b818111156104d05783604083870101525b50601f01601f1916929092016040019392505050565b6001600160a01b03811681146104fb57600080fd5b50565b80151581146104fb57600080fdfea26469706673582212208cadd60d78100cbd421d084721e0e7fb361302bd5ad3421e3144adfde1de4a4b64736f6c63430008040033",
  "linkReferences": {},
  "deployedLinkReferences": {}
}