{
  "_format": "hh-sol-artifact-1",
  "contractName": "AuthorizeUser",
  "sourceName": "contracts/protocol/AuthorizeUser.sol",
  "abi": [
    {
      "anonymous": false,
      "inputs": [
        {
          "indexed": false,
          "internalType": "address",
          "name": "previousAdmin",
          "type": "address"
        },
        {
          "indexed": false,
          "internalType": "address",
          "name": "newAdmin",
          "type": "address"
        }
      ],
      "name": "AdminChanged",
      "type": "event"
    },
    {
      "anonymous": false,
      "inputs": [
        {
          "indexed": true,
          "internalType": "address",
          "name": "member",
          "type": "address"
        }
      ],
      "name": "AuthorizeUserListed",
      "type": "event"
    },
    {
      "anonymous": false,
      "inputs": [
        {
          "indexed": true,
          "internalType": "address",
          "name": "member",
          "type": "address"
        }
      ],
      "name": "AuthorizeUserNotListed",
      "type": "event"
    },
    {
      "anonymous": false,
      "inputs": [
        {
          "indexed": true,
          "internalType": "address",
          "name": "beacon",
          "type": "address"
        }
      ],
      "name": "BeaconUpgraded",
      "type": "event"
    },
    {
      "anonymous": false,
      "inputs": [
        {
          "indexed": false,
          "internalType": "uint8",
          "name": "version",
          "type": "uint8"
        }
      ],
      "name": "Initialized",
      "type": "event"
    },
    {
      "anonymous": false,
      "inputs": [
        {
          "indexed": false,
          "internalType": "address",
          "name": "account",
          "type": "address"
        }
      ],
      "name": "Paused",
      "type": "event"
    },
    {
      "anonymous": false,
      "inputs": [
        {
          "indexed": true,
          "internalType": "bytes32",
          "name": "role",
          "type": "bytes32"
        },
        {
          "indexed": true,
          "internalType": "bytes32",
          "name": "previousAdminRole",
          "type": "bytes32"
        },
        {
          "indexed": true,
          "internalType": "bytes32",
          "name": "newAdminRole",
          "type": "bytes32"
        }
      ],
      "name": "RoleAdminChanged",
      "type": "event"
    },
    {
      "anonymous": false,
      "inputs": [
        {
          "indexed": true,
          "internalType": "bytes32",
          "name": "role",
          "type": "bytes32"
        },
        {
          "indexed": true,
          "internalType": "address",
          "name": "account",
          "type": "address"
        },
        {
          "indexed": true,
          "internalType": "address",
          "name": "sender",
          "type": "address"
        }
      ],
      "name": "RoleGranted",
      "type": "event"
    },
    {
      "anonymous": false,
      "inputs": [
        {
          "indexed": true,
          "internalType": "bytes32",
          "name": "role",
          "type": "bytes32"
        },
        {
          "indexed": true,
          "internalType": "address",
          "name": "account",
          "type": "address"
        },
        {
          "indexed": true,
          "internalType": "address",
          "name": "sender",
          "type": "address"
        }
      ],
      "name": "RoleRevoked",
      "type": "event"
    },
    {
      "anonymous": false,
      "inputs": [
        {
          "indexed": false,
          "internalType": "address",
          "name": "account",
          "type": "address"
        }
      ],
      "name": "Unpaused",
      "type": "event"
    },
    {
      "anonymous": false,
      "inputs": [
        {
          "indexed": true,
          "internalType": "address",
          "name": "implementation",
          "type": "address"
        }
      ],
      "name": "Upgraded",
      "type": "event"
    },
    {
      "inputs": [],
      "name": "DEFAULT_ADMIN_ROLE",
      "outputs": [
        {
          "internalType": "bytes32",
          "name": "",
          "type": "bytes32"
        }
      ],
      "stateMutability": "view",
      "type": "function"
    },
    {
      "inputs": [
        {
          "internalType": "address",
          "name": "owner",
          "type": "address"
        }
      ],
      "name": "_BaseUpgradeablePausable_init",
      "outputs": [],
      "stateMutability": "nonpayable",
      "type": "function"
    },
    {
      "inputs": [],
      "name": "__PauserPausable__init",
      "outputs": [],
      "stateMutability": "nonpayable",
      "type": "function"
    },
    {
      "inputs": [
        {
          "internalType": "address",
          "name": "_user",
          "type": "address"
        }
      ],
      "name": "addToauthorizedUserList",
      "outputs": [],
      "stateMutability": "nonpayable",
      "type": "function"
    },
    {
      "inputs": [
        {
          "internalType": "address",
          "name": "",
          "type": "address"
        }
      ],
      "name": "authorizedUserList",
      "outputs": [
        {
          "internalType": "bool",
          "name": "",
          "type": "bool"
        }
      ],
      "stateMutability": "view",
      "type": "function"
    },
    {
      "inputs": [
        {
          "internalType": "bytes32",
          "name": "role",
          "type": "bytes32"
        }
      ],
      "name": "getRoleAdmin",
      "outputs": [
        {
          "internalType": "bytes32",
          "name": "",
          "type": "bytes32"
        }
      ],
      "stateMutability": "view",
      "type": "function"
    },
    {
      "inputs": [
        {
          "internalType": "bytes32",
          "name": "role",
          "type": "bytes32"
        },
        {
          "internalType": "address",
          "name": "account",
          "type": "address"
        }
      ],
      "name": "grantRole",
      "outputs": [],
      "stateMutability": "nonpayable",
      "type": "function"
    },
    {
      "inputs": [
        {
          "internalType": "bytes32",
          "name": "role",
          "type": "bytes32"
        },
        {
          "internalType": "address",
          "name": "account",
          "type": "address"
        }
      ],
      "name": "hasRole",
      "outputs": [
        {
          "internalType": "bool",
          "name": "",
          "type": "bool"
        }
      ],
      "stateMutability": "view",
      "type": "function"
    },
    {
      "inputs": [
        {
          "internalType": "contract DygnifyConfig",
          "name": "_dygnifyConfig",
          "type": "address"
        }
      ],
      "name": "initialize",
      "outputs": [],
      "stateMutability": "nonpayable",
      "type": "function"
    },
    {
      "inputs": [],
      "name": "isAdmin",
      "outputs": [
        {
          "internalType": "bool",
          "name": "",
          "type": "bool"
        }
      ],
      "stateMutability": "view",
      "type": "function"
    },
    {
      "inputs": [
        {
          "internalType": "address",
          "name": "_user",
          "type": "address"
        }
      ],
      "name": "isUserAuthorized",
      "outputs": [
        {
          "internalType": "bool",
          "name": "",
          "type": "bool"
        }
      ],
      "stateMutability": "view",
      "type": "function"
    },
    {
      "inputs": [],
      "name": "pause",
      "outputs": [],
      "stateMutability": "nonpayable",
      "type": "function"
    },
    {
      "inputs": [],
      "name": "paused",
      "outputs": [
        {
          "internalType": "bool",
          "name": "",
          "type": "bool"
        }
      ],
      "stateMutability": "view",
      "type": "function"
    },
    {
      "inputs": [],
      "name": "proxiableUUID",
      "outputs": [
        {
          "internalType": "bytes32",
          "name": "",
          "type": "bytes32"
        }
      ],
      "stateMutability": "view",
      "type": "function"
    },
    {
      "inputs": [
        {
          "internalType": "address",
          "name": "_user",
          "type": "address"
        }
      ],
      "name": "removeFromauthorizedUserList",
      "outputs": [],
      "stateMutability": "nonpayable",
      "type": "function"
    },
    {
      "inputs": [
        {
          "internalType": "bytes32",
          "name": "role",
          "type": "bytes32"
        },
        {
          "internalType": "address",
          "name": "account",
          "type": "address"
        }
      ],
      "name": "renounceRole",
      "outputs": [],
      "stateMutability": "nonpayable",
      "type": "function"
    },
    {
      "inputs": [
        {
          "internalType": "bytes32",
          "name": "role",
          "type": "bytes32"
        },
        {
          "internalType": "address",
          "name": "account",
          "type": "address"
        }
      ],
      "name": "revokeRole",
      "outputs": [],
      "stateMutability": "nonpayable",
      "type": "function"
    },
    {
      "inputs": [
        {
          "internalType": "bytes4",
          "name": "interfaceId",
          "type": "bytes4"
        }
      ],
      "name": "supportsInterface",
      "outputs": [
        {
          "internalType": "bool",
          "name": "",
          "type": "bool"
        }
      ],
      "stateMutability": "view",
      "type": "function"
    },
    {
      "inputs": [],
      "name": "unpause",
      "outputs": [],
      "stateMutability": "nonpayable",
      "type": "function"
    },
    {
      "inputs": [
        {
          "internalType": "address",
          "name": "newImplementation",
          "type": "address"
        }
      ],
      "name": "upgradeTo",
      "outputs": [],
      "stateMutability": "nonpayable",
      "type": "function"
    },
    {
      "inputs": [
        {
          "internalType": "address",
          "name": "newImplementation",
          "type": "address"
        },
        {
          "internalType": "bytes",
          "name": "data",
          "type": "bytes"
        }
      ],
      "name": "upgradeToAndCall",
      "outputs": [],
      "stateMutability": "payable",
      "type": "function"
    }
  ],
  "bytecode": "0x60a06040523060601b60805234801561001757600080fd5b5060805160601c6122156100526000396000818161058301528181610608015281816108d2015281816109570152610b5c01526122156000f3fe60806040526004361061016a5760003560e01c806352d1902d116100cb57806391d148541161007f578063b6db75a011610059578063b6db75a0146103cf578063c4d66de8146103e4578063d547741f1461040457600080fd5b806391d1485414610354578063a12dde4d1461039a578063a217fddf146103ba57600080fd5b80636852595e116100b05780636852595e146102ff5780638456cb591461031f578063894e5f2d1461033457600080fd5b806352d1902d146102d25780635c975abb146102e757600080fd5b80633659cfe61161012257806348333d961161010757806348333d961461028a5780634f1ef286146102aa578063526d81f6146102bd57600080fd5b80633659cfe6146102555780633f4ba83a1461027557600080fd5b8063248a9ca311610153578063248a9ca3146101d55780632f2ff15d1461021357806336568abe1461023557600080fd5b806301ffc9a71461016f578063238d8d87146101a4575b600080fd5b34801561017b57600080fd5b5061018f61018a366004611fed565b610424565b60405190151581526020015b60405180910390f35b3480156101b057600080fd5b5061018f6101bf366004611e97565b6101606020526000908152604090205460ff1681565b3480156101e157600080fd5b506102056101f0366004611f8e565b60009081526065602052604090206001015490565b60405190815260200161019b565b34801561021f57600080fd5b5061023361022e366004611fbe565b6104bd565b005b34801561024157600080fd5b50610233610250366004611fbe565b6104e7565b34801561026157600080fd5b50610233610270366004611e97565b610578565b34801561028157600080fd5b506102336106f4565b34801561029657600080fd5b506102336102a5366004611e97565b61078a565b6102336102b8366004611ecf565b6108c7565b3480156102c957600080fd5b50610233610a30565b3480156102de57600080fd5b50610205610b4f565b3480156102f357600080fd5b5060975460ff1661018f565b34801561030b57600080fd5b5061023361031a366004611e97565b610c14565b34801561032b57600080fd5b50610233610d4e565b34801561034057600080fd5b5061018f61034f366004611e97565b610de0565b34801561036057600080fd5b5061018f61036f366004611fbe565b60009182526065602090815260408084206001600160a01b0393909316845291905290205460ff1690565b3480156103a657600080fd5b506102336103b5366004611e97565b610e58565b3480156103c657600080fd5b50610205600081565b3480156103db57600080fd5b5061018f610ff9565b3480156103f057600080fd5b506102336103ff366004611e97565b611029565b34801561041057600080fd5b5061023361041f366004611fbe565b611281565b60007fffffffff0000000000000000000000000000000000000000000000000000000082167f7965db0b0000000000000000000000000000000000000000000000000000000014806104b757507f01ffc9a7000000000000000000000000000000000000000000000000000000007fffffffff000000000000000000000000000000000000000000000000000000008316145b92915050565b6000828152606560205260409020600101546104d8816112a6565b6104e283836112b0565b505050565b6001600160a01b038116331461056a5760405162461bcd60e51b815260206004820152602f60248201527f416363657373436f6e74726f6c3a2063616e206f6e6c792072656e6f756e636560448201527f20726f6c657320666f722073656c66000000000000000000000000000000000060648201526084015b60405180910390fd5b6105748282611352565b5050565b306001600160a01b037f00000000000000000000000000000000000000000000000000000000000000001614156106065760405162461bcd60e51b815260206004820152602c60248201527f46756e6374696f6e206d7573742062652063616c6c6564207468726f7567682060448201526b19195b1959d85d1958d85b1b60a21b6064820152608401610561565b7f00000000000000000000000000000000000000000000000000000000000000006001600160a01b03166106617f360894a13ba1a3210667c828492db98dca3e2076cc3735a920a3ca505d382bbc546001600160a01b031690565b6001600160a01b0316146106cc5760405162461bcd60e51b815260206004820152602c60248201527f46756e6374696f6e206d7573742062652063616c6c6564207468726f7567682060448201526b6163746976652070726f787960a01b6064820152608401610561565b6106d5816113d5565b604080516000808252602082019092526106f19183919061144f565b50565b61071f7f65d7a28e3265b37a6474929f336521b332c1681b933f6cb9f3376673440d862a5b3361036f565b6107805760405162461bcd60e51b815260206004820152602c60248201527f4d75737420686176652070617573657220726f6c6520746f20706572666f726d60448201526b103a3434b99030b1ba34b7b760a11b6064820152608401610561565b6107886115fe565b565b6107b27ed019c3fe031f78f9be1b03002222adc4e715a6b649958ca83ec871af2c2cd7610719565b6108245760405162461bcd60e51b815260206004820152603460248201527f4d757374206861766520415554484f52495a455f555345525f524f4c4520746f60448201527f20706572666f726d207468697320616374696f6e0000000000000000000000006064820152608401610561565b6001600160a01b03811661087a5760405162461bcd60e51b815260206004820152601c60248201527f5573657220616464726573732063616e6e6f7420626520656d707479000000006044820152606401610561565b6001600160a01b03811660008181526101606020526040808220805460ff19166001179055517fc75545572d9a5cfd304e6f4ed7df14070d813df061c036f7b37a19bc5502682d9190a250565b306001600160a01b037f00000000000000000000000000000000000000000000000000000000000000001614156109555760405162461bcd60e51b815260206004820152602c60248201527f46756e6374696f6e206d7573742062652063616c6c6564207468726f7567682060448201526b19195b1959d85d1958d85b1b60a21b6064820152608401610561565b7f00000000000000000000000000000000000000000000000000000000000000006001600160a01b03166109b07f360894a13ba1a3210667c828492db98dca3e2076cc3735a920a3ca505d382bbc546001600160a01b031690565b6001600160a01b031614610a1b5760405162461bcd60e51b815260206004820152602c60248201527f46756e6374696f6e206d7573742062652063616c6c6564207468726f7567682060448201526b6163746976652070726f787960a01b6064820152608401610561565b610a24826113d5565b6105748282600161144f565b600054610100900460ff1615808015610a505750600054600160ff909116105b80610a6a5750303b158015610a6a575060005460ff166001145b610adc5760405162461bcd60e51b815260206004820152602e60248201527f496e697469616c697a61626c653a20636f6e747261637420697320616c72656160448201527f647920696e697469616c697a65640000000000000000000000000000000000006064820152608401610561565b6000805460ff191660011790558015610aff576000805461ff0019166101001790555b610b07611650565b80156106f1576000805461ff0019169055604051600181527f7f26b83ff96e1f2b6a682f133852f6798a09c465da95921460cefb38474024989060200160405180910390a150565b6000306001600160a01b037f00000000000000000000000000000000000000000000000000000000000000001614610bef5760405162461bcd60e51b815260206004820152603860248201527f555550535570677261646561626c653a206d757374206e6f742062652063616c60448201527f6c6564207468726f7567682064656c656761746563616c6c00000000000000006064820152608401610561565b507f360894a13ba1a3210667c828492db98dca3e2076cc3735a920a3ca505d382bbc90565b610c3c7ed019c3fe031f78f9be1b03002222adc4e715a6b649958ca83ec871af2c2cd7610719565b610cae5760405162461bcd60e51b815260206004820152603460248201527f4d757374206861766520415554484f52495a455f555345525f524f4c4520746f60448201527f20706572666f726d207468697320616374696f6e0000000000000000000000006064820152608401610561565b6001600160a01b038116610d045760405162461bcd60e51b815260206004820152601c60248201527f5573657220616464726573732063616e6e6f7420626520656d707479000000006044820152606401610561565b6001600160a01b03811660008181526101606020526040808220805460ff19169055517f089433aac4b737b0c70f26490535436ccd8ad509130e0dfff48450edcf703f829190a250565b610d777f65d7a28e3265b37a6474929f336521b332c1681b933f6cb9f3376673440d862a610719565b610dd85760405162461bcd60e51b815260206004820152602c60248201527f4d75737420686176652070617573657220726f6c6520746f20706572666f726d60448201526b103a3434b99030b1ba34b7b760a11b6064820152608401610561565b6107886116c7565b60006001600160a01b038216610e385760405162461bcd60e51b815260206004820152601c60248201527f5573657220616464726573732063616e6e6f7420626520656d707479000000006044820152606401610561565b506001600160a01b03166000908152610160602052604090205460ff1690565b600054610100900460ff16610ec35760405162461bcd60e51b815260206004820152602b60248201527f496e697469616c697a61626c653a20636f6e7472616374206973206e6f74206960448201526a6e697469616c697a696e6760a81b6064820152608401610561565b6001600160a01b038116610f195760405162461bcd60e51b815260206004820181905260248201527f4f776e65722063616e6e6f7420626520746865207a65726f20616464726573736044820152606401610561565b610f21611704565b610f29611650565b610f3161176f565b610f5c7fa49807205ce4d355092ef5a8a18f56e8913cf4a201fbe287825b095693c217755b826117e1565b610f857f65d7a28e3265b37a6474929f336521b332c1681b933f6cb9f3376673440d862a610f56565b610fd07f65d7a28e3265b37a6474929f336521b332c1681b933f6cb9f3376673440d862a5b7fa49807205ce4d355092ef5a8a18f56e8913cf4a201fbe287825b095693c217756117eb565b6106f17fa49807205ce4d355092ef5a8a18f56e8913cf4a201fbe287825b095693c21775610faa565b60006110247fa49807205ce4d355092ef5a8a18f56e8913cf4a201fbe287825b095693c21775610719565b905090565b600054610100900460ff16158080156110495750600054600160ff909116105b806110635750303b158015611063575060005460ff166001145b6110d55760405162461bcd60e51b815260206004820152602e60248201527f496e697469616c697a61626c653a20636f6e747261637420697320616c72656160448201527f647920696e697469616c697a65640000000000000000000000000000000000006064820152608401610561565b6000805460ff1916600117905580156110f8576000805461ff0019166101001790555b6001600160a01b03821661114e5760405162461bcd60e51b815260206004820152601660248201527f496e76616c696420636f6e6669672061646472657373000000000000000000006044820152606401610561565b61015f805473ffffffffffffffffffffffffffffffffffffffff19166001600160a01b03841690811790915560009061118690611836565b90506001600160a01b0381166111de5760405162461bcd60e51b815260206004820152600d60248201527f496e76616c6964204f776e6572000000000000000000000000000000000000006044820152606401610561565b6111e781610e58565b61120f7ed019c3fe031f78f9be1b03002222adc4e715a6b649958ca83ec871af2c2cd7610f56565b6112377ed019c3fe031f78f9be1b03002222adc4e715a6b649958ca83ec871af2c2cd7610faa565b508015610574576000805461ff0019169055604051600181527f7f26b83ff96e1f2b6a682f133852f6798a09c465da95921460cefb38474024989060200160405180910390a15050565b60008281526065602052604090206001015461129c816112a6565b6104e28383611352565b6106f181336118ca565b60008281526065602090815260408083206001600160a01b038516845290915290205460ff166105745760008281526065602090815260408083206001600160a01b03851684529091529020805460ff1916600117905561130e3390565b6001600160a01b0316816001600160a01b0316837f2f8788117e7eff1d82e926ec794901d17c78024a50270940304540a733656f0d60405160405180910390a45050565b60008281526065602090815260408083206001600160a01b038516845290915290205460ff16156105745760008281526065602090815260408083206001600160a01b0385168085529252808320805460ff1916905551339285917ff6391f5c32d9c69d2a47ea670b442974b53935d1edc7fd64eb21e047a839171b9190a45050565b6113dd610ff9565b6106f15760405162461bcd60e51b815260206004820152602b60248201527f4d75737420686176652061646d696e20726f6c6520746f20706572666f726d2060448201527f7468697320616374696f6e0000000000000000000000000000000000000000006064820152608401610561565b7f4910fdfa16fed3260ed0e7147f7cc6da11a60208b5b9406d12a635614ffd91435460ff1615611482576104e28361194a565b826001600160a01b03166352d1902d6040518163ffffffff1660e01b815260040160206040518083038186803b1580156114bb57600080fd5b505afa9250505080156114eb575060408051601f3d908101601f191682019092526114e891810190611fa6565b60015b61155d5760405162461bcd60e51b815260206004820152602e60248201527f45524331393637557067726164653a206e657720696d706c656d656e7461746960448201527f6f6e206973206e6f7420555550530000000000000000000000000000000000006064820152608401610561565b7f360894a13ba1a3210667c828492db98dca3e2076cc3735a920a3ca505d382bbc81146115f25760405162461bcd60e51b815260206004820152602960248201527f45524331393637557067726164653a20756e737570706f727465642070726f7860448201527f6961626c655555494400000000000000000000000000000000000000000000006064820152608401610561565b506104e2838383611a15565b611606611a40565b6097805460ff191690557f5db9ee0a495bf2e6ff9c91a7834c1ba4fdd244a5e8aa4e537bd38aeae4b073aa335b6040516001600160a01b03909116815260200160405180910390a1565b600054610100900460ff166116bb5760405162461bcd60e51b815260206004820152602b60248201527f496e697469616c697a61626c653a20636f6e7472616374206973206e6f74206960448201526a6e697469616c697a696e6760a81b6064820152608401610561565b6097805460ff19169055565b6116cf611a92565b6097805460ff191660011790557f62e78cea01bee320cd4e420270b5ea74000d11b0c9f74754ebdbfc544b05a2586116333390565b600054610100900460ff166107885760405162461bcd60e51b815260206004820152602b60248201527f496e697469616c697a61626c653a20636f6e7472616374206973206e6f74206960448201526a6e697469616c697a696e6760a81b6064820152608401610561565b600054610100900460ff166117da5760405162461bcd60e51b815260206004820152602b60248201527f496e697469616c697a61626c653a20636f6e7472616374206973206e6f74206960448201526a6e697469616c697a696e6760a81b6064820152608401610561565b600160c955565b61057482826112b0565b600082815260656020526040808220600101805490849055905190918391839186917fbd79b86ffe0ab8e8776151514217cd7cacd52c909f66475c3af44e129f0b00ff9190a4505050565b6040517fb93f9b0a000000000000000000000000000000000000000000000000000000008152600060048201819052906001600160a01b0383169063b93f9b0a9060240160206040518083038186803b15801561189257600080fd5b505afa1580156118a6573d6000803e3d6000fd5b505050506040513d601f19601f820116820180604052508101906104b79190611eb3565b60008281526065602090815260408083206001600160a01b038516845290915290205460ff1661057457611908816001600160a01b03166014611ae5565b611913836020611ae5565b604051602001611924929190612049565b60408051601f198184030181529082905262461bcd60e51b8252610561916004016120ca565b6001600160a01b0381163b6119c75760405162461bcd60e51b815260206004820152602d60248201527f455243313936373a206e657720696d706c656d656e746174696f6e206973206e60448201527f6f74206120636f6e7472616374000000000000000000000000000000000000006064820152608401610561565b7f360894a13ba1a3210667c828492db98dca3e2076cc3735a920a3ca505d382bbc805473ffffffffffffffffffffffffffffffffffffffff19166001600160a01b0392909216919091179055565b611a1e83611d13565b600082511180611a2b5750805b156104e257611a3a8383611d53565b50505050565b60975460ff166107885760405162461bcd60e51b815260206004820152601460248201527f5061757361626c653a206e6f74207061757365640000000000000000000000006044820152606401610561565b60975460ff16156107885760405162461bcd60e51b815260206004820152601060248201527f5061757361626c653a20706175736564000000000000000000000000000000006044820152606401610561565b60606000611af4836002612115565b611aff9060026120fd565b67ffffffffffffffff811115611b2557634e487b7160e01b600052604160045260246000fd5b6040519080825280601f01601f191660200182016040528015611b4f576020820181803683370190505b5090507f300000000000000000000000000000000000000000000000000000000000000081600081518110611b9457634e487b7160e01b600052603260045260246000fd5b60200101906001600160f81b031916908160001a9053507f780000000000000000000000000000000000000000000000000000000000000081600181518110611bed57634e487b7160e01b600052603260045260246000fd5b60200101906001600160f81b031916908160001a9053506000611c11846002612115565b611c1c9060016120fd565b90505b6001811115611cbd577f303132333435363738396162636465660000000000000000000000000000000085600f1660108110611c6b57634e487b7160e01b600052603260045260246000fd5b1a60f81b828281518110611c8f57634e487b7160e01b600052603260045260246000fd5b60200101906001600160f81b031916908160001a90535060049490941c93611cb681612160565b9050611c1f565b508315611d0c5760405162461bcd60e51b815260206004820181905260248201527f537472696e67733a20686578206c656e67746820696e73756666696369656e746044820152606401610561565b9392505050565b611d1c8161194a565b6040516001600160a01b038216907fbc7cd75a20ee27fd9adebab32041f755214dbc6bffa90cc0225b39da2e5c2d3b90600090a250565b60606001600160a01b0383163b611dd25760405162461bcd60e51b815260206004820152602660248201527f416464726573733a2064656c65676174652063616c6c20746f206e6f6e2d636f60448201527f6e747261637400000000000000000000000000000000000000000000000000006064820152608401610561565b600080846001600160a01b031684604051611ded919061202d565b600060405180830381855af49150503d8060008114611e28576040519150601f19603f3d011682016040523d82523d6000602084013e611e2d565b606091505b5091509150611e5582826040518060600160405280602781526020016121b960279139611e5e565b95945050505050565b60608315611e6d575081611d0c565b825115611e7d5782518084602001fd5b8160405162461bcd60e51b815260040161056191906120ca565b600060208284031215611ea8578081fd5b8135611d0c816121a3565b600060208284031215611ec4578081fd5b8151611d0c816121a3565b60008060408385031215611ee1578081fd5b8235611eec816121a3565b9150602083013567ffffffffffffffff80821115611f08578283fd5b818501915085601f830112611f1b578283fd5b813581811115611f2d57611f2d61218d565b604051601f8201601f19908116603f01168101908382118183101715611f5557611f5561218d565b81604052828152886020848701011115611f6d578586fd5b82602086016020830137856020848301015280955050505050509250929050565b600060208284031215611f9f578081fd5b5035919050565b600060208284031215611fb7578081fd5b5051919050565b60008060408385031215611fd0578182fd5b823591506020830135611fe2816121a3565b809150509250929050565b600060208284031215611ffe578081fd5b81357fffffffff0000000000000000000000000000000000000000000000000000000081168114611d0c578182fd5b6000825161203f818460208701612134565b9190910192915050565b7f416363657373436f6e74726f6c3a206163636f756e7420000000000000000000815260008351612081816017850160208801612134565b7f206973206d697373696e6720726f6c652000000000000000000000000000000060179184019182015283516120be816028840160208801612134565b01602801949350505050565b60208152600082518060208401526120e9816040850160208701612134565b601f01601f19169190910160400192915050565b6000821982111561211057612110612177565b500190565b600081600019048311821515161561212f5761212f612177565b500290565b60005b8381101561214f578181015183820152602001612137565b83811115611a3a5750506000910152565b60008161216f5761216f612177565b506000190190565b634e487b7160e01b600052601160045260246000fd5b634e487b7160e01b600052604160045260246000fd5b6001600160a01b03811681146106f157600080fdfe416464726573733a206c6f772d6c6576656c2064656c65676174652063616c6c206661696c6564a26469706673582212200aafb04097e43fb11304c52bf18df80ccda0522a14971d4db3e19539693e31ef64736f6c63430008040033",
  "linkReferences": {},
  "deployedLinkReferences": {}
}