{
  "_format": "hh-sol-artifact-1",
  "contractName": "AuthorizeUser",
  "sourceName": "contracts/protocol/AuthorizeUser.sol",
  "abi": [
    {
      "anonymous": false,
      "inputs": [
        {
          "indexed": true,
          "internalType": "address",
          "name": "member",
          "type": "address"
        }
      ],
      "name": "AuthorizeUserListed",
      "type": "event"
    },
    {
      "anonymous": false,
      "inputs": [
        {
          "indexed": true,
          "internalType": "address",
          "name": "member",
          "type": "address"
        }
      ],
      "name": "AuthorizeUserNotListed",
      "type": "event"
    },
    {
      "anonymous": false,
      "inputs": [
        {
          "indexed": false,
          "internalType": "uint8",
          "name": "version",
          "type": "uint8"
        }
      ],
      "name": "Initialized",
      "type": "event"
    },
    {
      "anonymous": false,
      "inputs": [
        {
          "indexed": false,
          "internalType": "address",
          "name": "account",
          "type": "address"
        }
      ],
      "name": "Paused",
      "type": "event"
    },
    {
      "anonymous": false,
      "inputs": [
        {
          "indexed": true,
          "internalType": "bytes32",
          "name": "role",
          "type": "bytes32"
        },
        {
          "indexed": true,
          "internalType": "bytes32",
          "name": "previousAdminRole",
          "type": "bytes32"
        },
        {
          "indexed": true,
          "internalType": "bytes32",
          "name": "newAdminRole",
          "type": "bytes32"
        }
      ],
      "name": "RoleAdminChanged",
      "type": "event"
    },
    {
      "anonymous": false,
      "inputs": [
        {
          "indexed": true,
          "internalType": "bytes32",
          "name": "role",
          "type": "bytes32"
        },
        {
          "indexed": true,
          "internalType": "address",
          "name": "account",
          "type": "address"
        },
        {
          "indexed": true,
          "internalType": "address",
          "name": "sender",
          "type": "address"
        }
      ],
      "name": "RoleGranted",
      "type": "event"
    },
    {
      "anonymous": false,
      "inputs": [
        {
          "indexed": true,
          "internalType": "bytes32",
          "name": "role",
          "type": "bytes32"
        },
        {
          "indexed": true,
          "internalType": "address",
          "name": "account",
          "type": "address"
        },
        {
          "indexed": true,
          "internalType": "address",
          "name": "sender",
          "type": "address"
        }
      ],
      "name": "RoleRevoked",
      "type": "event"
    },
    {
      "anonymous": false,
      "inputs": [
        {
          "indexed": false,
          "internalType": "address",
          "name": "account",
          "type": "address"
        }
      ],
      "name": "Unpaused",
      "type": "event"
    },
    {
      "inputs": [],
      "name": "ADMIN_ROLE",
      "outputs": [
        {
          "internalType": "bytes32",
          "name": "",
          "type": "bytes32"
        }
      ],
      "stateMutability": "view",
      "type": "function"
    },
    {
      "inputs": [],
      "name": "AUTHORIZE_USER_ROLE",
      "outputs": [
        {
          "internalType": "bytes32",
          "name": "",
          "type": "bytes32"
        }
      ],
      "stateMutability": "view",
      "type": "function"
    },
    {
      "inputs": [],
      "name": "DEFAULT_ADMIN_ROLE",
      "outputs": [
        {
          "internalType": "bytes32",
          "name": "",
          "type": "bytes32"
        }
      ],
      "stateMutability": "view",
      "type": "function"
    },
    {
      "inputs": [],
      "name": "PAUSER_ROLE",
      "outputs": [
        {
          "internalType": "bytes32",
          "name": "",
          "type": "bytes32"
        }
      ],
      "stateMutability": "view",
      "type": "function"
    },
    {
      "inputs": [
        {
          "internalType": "address",
          "name": "owner",
          "type": "address"
        }
      ],
      "name": "_BaseUpgradeablePausable_init",
      "outputs": [],
      "stateMutability": "nonpayable",
      "type": "function"
    },
    {
      "inputs": [],
      "name": "__PauserPausable__init",
      "outputs": [],
      "stateMutability": "nonpayable",
      "type": "function"
    },
    {
      "inputs": [
        {
          "internalType": "address",
          "name": "_user",
          "type": "address"
        }
      ],
      "name": "addToauthorizedUserList",
      "outputs": [],
      "stateMutability": "nonpayable",
      "type": "function"
    },
    {
      "inputs": [
        {
          "internalType": "address",
          "name": "",
          "type": "address"
        }
      ],
      "name": "authorizedUserList",
      "outputs": [
        {
          "internalType": "bool",
          "name": "",
          "type": "bool"
        }
      ],
      "stateMutability": "view",
      "type": "function"
    },
    {
      "inputs": [
        {
          "internalType": "bytes32",
          "name": "role",
          "type": "bytes32"
        }
      ],
      "name": "getRoleAdmin",
      "outputs": [
        {
          "internalType": "bytes32",
          "name": "",
          "type": "bytes32"
        }
      ],
      "stateMutability": "view",
      "type": "function"
    },
    {
      "inputs": [
        {
          "internalType": "bytes32",
          "name": "role",
          "type": "bytes32"
        },
        {
          "internalType": "address",
          "name": "account",
          "type": "address"
        }
      ],
      "name": "grantRole",
      "outputs": [],
      "stateMutability": "nonpayable",
      "type": "function"
    },
    {
      "inputs": [
        {
          "internalType": "bytes32",
          "name": "role",
          "type": "bytes32"
        },
        {
          "internalType": "address",
          "name": "account",
          "type": "address"
        }
      ],
      "name": "hasRole",
      "outputs": [
        {
          "internalType": "bool",
          "name": "",
          "type": "bool"
        }
      ],
      "stateMutability": "view",
      "type": "function"
    },
    {
      "inputs": [
        {
          "internalType": "contract DygnifyConfig",
          "name": "_dygnifyConfig",
          "type": "address"
        }
      ],
      "name": "initialize",
      "outputs": [],
      "stateMutability": "nonpayable",
      "type": "function"
    },
    {
      "inputs": [],
      "name": "isAdmin",
      "outputs": [
        {
          "internalType": "bool",
          "name": "",
          "type": "bool"
        }
      ],
      "stateMutability": "view",
      "type": "function"
    },
    {
      "inputs": [
        {
          "internalType": "address",
          "name": "_user",
          "type": "address"
        }
      ],
      "name": "isUserAuthorized",
      "outputs": [
        {
          "internalType": "bool",
          "name": "",
          "type": "bool"
        }
      ],
      "stateMutability": "view",
      "type": "function"
    },
    {
      "inputs": [],
      "name": "pause",
      "outputs": [],
      "stateMutability": "nonpayable",
      "type": "function"
    },
    {
      "inputs": [],
      "name": "paused",
      "outputs": [
        {
          "internalType": "bool",
          "name": "",
          "type": "bool"
        }
      ],
      "stateMutability": "view",
      "type": "function"
    },
    {
      "inputs": [
        {
          "internalType": "address",
          "name": "_user",
          "type": "address"
        }
      ],
      "name": "removeFromauthorizedUserList",
      "outputs": [],
      "stateMutability": "nonpayable",
      "type": "function"
    },
    {
      "inputs": [
        {
          "internalType": "bytes32",
          "name": "role",
          "type": "bytes32"
        },
        {
          "internalType": "address",
          "name": "account",
          "type": "address"
        }
      ],
      "name": "renounceRole",
      "outputs": [],
      "stateMutability": "nonpayable",
      "type": "function"
    },
    {
      "inputs": [
        {
          "internalType": "bytes32",
          "name": "role",
          "type": "bytes32"
        },
        {
          "internalType": "address",
          "name": "account",
          "type": "address"
        }
      ],
      "name": "revokeRole",
      "outputs": [],
      "stateMutability": "nonpayable",
      "type": "function"
    },
    {
      "inputs": [
        {
          "internalType": "bytes4",
          "name": "interfaceId",
          "type": "bytes4"
        }
      ],
      "name": "supportsInterface",
      "outputs": [
        {
          "internalType": "bool",
          "name": "",
          "type": "bool"
        }
      ],
      "stateMutability": "view",
      "type": "function"
    },
    {
      "inputs": [],
      "name": "unpause",
      "outputs": [],
      "stateMutability": "nonpayable",
      "type": "function"
    }
  ],
  "bytecode": "0x608060405234801561001057600080fd5b50611817806100206000396000f3fe608060405234801561001057600080fd5b50600436106101775760003560e01c80636852595e116100d8578063a12dde4d1161008c578063c4d66de811610066578063c4d66de814610325578063d547741f14610338578063e63ab1e91461034b57600080fd5b8063a12dde4d14610302578063a217fddf14610315578063b6db75a01461031d57600080fd5b80638456cb59116100bd5780638456cb59146102ae578063894e5f2d146102b657806391d14854146102c957600080fd5b80636852595e1461027457806375b238fc1461028757600080fd5b806336568abe1161012f57806348333d961161011457806348333d961461024e578063526d81f6146102615780635c975abb1461026957600080fd5b806336568abe146102335780633f4ba83a1461024657600080fd5b8063238d8d8711610160578063238d8d87146101d8578063248a9ca3146101fb5780632f2ff15d1461021e57600080fd5b806301ffc9a71461017c57806312a5a4bb146101a4575b600080fd5b61018f61018a366004611644565b610372565b60405190151581526020015b60405180910390f35b6101ca7ed019c3fe031f78f9be1b03002222adc4e715a6b649958ca83ec871af2c2cd781565b60405190815260200161019b565b61018f6101e63660046115c5565b60fc6020526000908152604090205460ff1681565b6101ca6102093660046115fd565b60009081526065602052604090206001015490565b61023161022c366004611615565b61040b565b005b610231610241366004611615565b610435565b6102316104c6565b61023161025c3660046115c5565b61055b565b610231610698565b60975460ff1661018f565b6102316102823660046115c5565b6107b8565b6101ca7fa49807205ce4d355092ef5a8a18f56e8913cf4a201fbe287825b095693c2177581565b6102316108f2565b61018f6102c43660046115c5565b610985565b61018f6102d7366004611615565b60009182526065602090815260408084206001600160a01b0393909316845291905290205460ff1690565b6102316103103660046115c5565b6109fc565b6101ca600081565b61018f610b9d565b6102316103333660046115c5565b610bce565b610231610346366004611615565b610e52565b6101ca7f65d7a28e3265b37a6474929f336521b332c1681b933f6cb9f3376673440d862a81565b60007fffffffff0000000000000000000000000000000000000000000000000000000082167f7965db0b00000000000000000000000000000000000000000000000000000000148061040557507f01ffc9a7000000000000000000000000000000000000000000000000000000007fffffffff000000000000000000000000000000000000000000000000000000008316145b92915050565b60008281526065602052604090206001015461042681610e77565b6104308383610e81565b505050565b6001600160a01b03811633146104b85760405162461bcd60e51b815260206004820152602f60248201527f416363657373436f6e74726f6c3a2063616e206f6e6c792072656e6f756e636560448201527f20726f6c657320666f722073656c66000000000000000000000000000000000060648201526084015b60405180910390fd5b6104c28282610f23565b5050565b6104f07f65d7a28e3265b37a6474929f336521b332c1681b933f6cb9f3376673440d862a336102d7565b6105515760405162461bcd60e51b815260206004820152602c60248201527f4d75737420686176652070617573657220726f6c6520746f20706572666f726d60448201526b103a3434b99030b1ba34b7b760a11b60648201526084016104af565b610559610fa6565b565b6105847ed019c3fe031f78f9be1b03002222adc4e715a6b649958ca83ec871af2c2cd7336102d7565b6105f65760405162461bcd60e51b815260206004820152603460248201527f4d757374206861766520415554484f52495a455f555345525f524f4c4520746f60448201527f20706572666f726d207468697320616374696f6e00000000000000000000000060648201526084016104af565b6001600160a01b03811661064c5760405162461bcd60e51b815260206004820152601c60248201527f5573657220616464726573732063616e6e6f7420626520656d7074790000000060448201526064016104af565b6001600160a01b038116600081815260fc6020526040808220805460ff19166001179055517fc75545572d9a5cfd304e6f4ed7df14070d813df061c036f7b37a19bc5502682d9190a250565b600054610100900460ff16158080156106b85750600054600160ff909116105b806106d25750303b1580156106d2575060005460ff166001145b6107445760405162461bcd60e51b815260206004820152602e60248201527f496e697469616c697a61626c653a20636f6e747261637420697320616c72656160448201527f647920696e697469616c697a656400000000000000000000000000000000000060648201526084016104af565b6000805460ff191660011790558015610767576000805461ff0019166101001790555b61076f610ff8565b80156107b5576000805461ff0019169055604051600181527f7f26b83ff96e1f2b6a682f133852f6798a09c465da95921460cefb38474024989060200160405180910390a15b50565b6107e17ed019c3fe031f78f9be1b03002222adc4e715a6b649958ca83ec871af2c2cd7336102d7565b6108535760405162461bcd60e51b815260206004820152603460248201527f4d757374206861766520415554484f52495a455f555345525f524f4c4520746f60448201527f20706572666f726d207468697320616374696f6e00000000000000000000000060648201526084016104af565b6001600160a01b0381166108a95760405162461bcd60e51b815260206004820152601c60248201527f5573657220616464726573732063616e6e6f7420626520656d7074790000000060448201526064016104af565b6001600160a01b038116600081815260fc6020526040808220805460ff19169055517f089433aac4b737b0c70f26490535436ccd8ad509130e0dfff48450edcf703f829190a250565b61091c7f65d7a28e3265b37a6474929f336521b332c1681b933f6cb9f3376673440d862a336102d7565b61097d5760405162461bcd60e51b815260206004820152602c60248201527f4d75737420686176652070617573657220726f6c6520746f20706572666f726d60448201526b103a3434b99030b1ba34b7b760a11b60648201526084016104af565b61055961106f565b60006001600160a01b0382166109dd5760405162461bcd60e51b815260206004820152601c60248201527f5573657220616464726573732063616e6e6f7420626520656d7074790000000060448201526064016104af565b506001600160a01b0316600090815260fc602052604090205460ff1690565b600054610100900460ff16610a675760405162461bcd60e51b815260206004820152602b60248201527f496e697469616c697a61626c653a20636f6e7472616374206973206e6f74206960448201526a6e697469616c697a696e6760a81b60648201526084016104af565b6001600160a01b038116610abd5760405162461bcd60e51b815260206004820181905260248201527f4f776e65722063616e6e6f7420626520746865207a65726f206164647265737360448201526064016104af565b610ac56110ac565b610acd610ff8565b610ad5611117565b610aff7fa49807205ce4d355092ef5a8a18f56e8913cf4a201fbe287825b095693c2177582611189565b610b297f65d7a28e3265b37a6474929f336521b332c1681b933f6cb9f3376673440d862a82611189565b610b737f65d7a28e3265b37a6474929f336521b332c1681b933f6cb9f3376673440d862a7fa49807205ce4d355092ef5a8a18f56e8913cf4a201fbe287825b095693c21775611193565b6107b57fa49807205ce4d355092ef5a8a18f56e8913cf4a201fbe287825b095693c2177580611193565b6000610bc97fa49807205ce4d355092ef5a8a18f56e8913cf4a201fbe287825b095693c21775336102d7565b905090565b600054610100900460ff1615808015610bee5750600054600160ff909116105b80610c085750303b158015610c08575060005460ff166001145b610c7a5760405162461bcd60e51b815260206004820152602e60248201527f496e697469616c697a61626c653a20636f6e747261637420697320616c72656160448201527f647920696e697469616c697a656400000000000000000000000000000000000060648201526084016104af565b6000805460ff191660011790558015610c9d576000805461ff0019166101001790555b6001600160a01b038216610cf35760405162461bcd60e51b815260206004820152601660248201527f496e76616c696420636f6e66696720616464726573730000000000000000000060448201526064016104af565b60fb80547fffffffffffffffffffffffff0000000000000000000000000000000000000000166001600160a01b038416908117909155600090610d35906111de565b90506001600160a01b038116610d8d5760405162461bcd60e51b815260206004820152600d60248201527f496e76616c6964204f776e65720000000000000000000000000000000000000060448201526064016104af565b610d96816109fc565b610dbf7ed019c3fe031f78f9be1b03002222adc4e715a6b649958ca83ec871af2c2cd782611189565b610e087ed019c3fe031f78f9be1b03002222adc4e715a6b649958ca83ec871af2c2cd77fa49807205ce4d355092ef5a8a18f56e8913cf4a201fbe287825b095693c21775611193565b5080156104c2576000805461ff0019169055604051600181527f7f26b83ff96e1f2b6a682f133852f6798a09c465da95921460cefb38474024989060200160405180910390a15050565b600082815260656020526040902060010154610e6d81610e77565b6104308383610f23565b6107b58133611272565b60008281526065602090815260408083206001600160a01b038516845290915290205460ff166104c25760008281526065602090815260408083206001600160a01b03851684529091529020805460ff19166001179055610edf3390565b6001600160a01b0316816001600160a01b0316837f2f8788117e7eff1d82e926ec794901d17c78024a50270940304540a733656f0d60405160405180910390a45050565b60008281526065602090815260408083206001600160a01b038516845290915290205460ff16156104c25760008281526065602090815260408083206001600160a01b0385168085529252808320805460ff1916905551339285917ff6391f5c32d9c69d2a47ea670b442974b53935d1edc7fd64eb21e047a839171b9190a45050565b610fae6112f2565b6097805460ff191690557f5db9ee0a495bf2e6ff9c91a7834c1ba4fdd244a5e8aa4e537bd38aeae4b073aa335b6040516001600160a01b03909116815260200160405180910390a1565b600054610100900460ff166110635760405162461bcd60e51b815260206004820152602b60248201527f496e697469616c697a61626c653a20636f6e7472616374206973206e6f74206960448201526a6e697469616c697a696e6760a81b60648201526084016104af565b6097805460ff19169055565b611077611344565b6097805460ff191660011790557f62e78cea01bee320cd4e420270b5ea74000d11b0c9f74754ebdbfc544b05a258610fdb3390565b600054610100900460ff166105595760405162461bcd60e51b815260206004820152602b60248201527f496e697469616c697a61626c653a20636f6e7472616374206973206e6f74206960448201526a6e697469616c697a696e6760a81b60648201526084016104af565b600054610100900460ff166111825760405162461bcd60e51b815260206004820152602b60248201527f496e697469616c697a61626c653a20636f6e7472616374206973206e6f74206960448201526a6e697469616c697a696e6760a81b60648201526084016104af565b600160c955565b6104c28282610e81565b600082815260656020526040808220600101805490849055905190918391839186917fbd79b86ffe0ab8e8776151514217cd7cacd52c909f66475c3af44e129f0b00ff9190a4505050565b6040517fb93f9b0a000000000000000000000000000000000000000000000000000000008152600060048201819052906001600160a01b0383169063b93f9b0a9060240160206040518083038186803b15801561123a57600080fd5b505afa15801561124e573d6000803e3d6000fd5b505050506040513d601f19601f8201168201806040525081019061040591906115e1565b60008281526065602090815260408083206001600160a01b038516845290915290205460ff166104c2576112b0816001600160a01b03166014611397565b6112bb836020611397565b6040516020016112cc929190611684565b60408051601f198184030181529082905262461bcd60e51b82526104af91600401611705565b60975460ff166105595760405162461bcd60e51b815260206004820152601460248201527f5061757361626c653a206e6f742070617573656400000000000000000000000060448201526064016104af565b60975460ff16156105595760405162461bcd60e51b815260206004820152601060248201527f5061757361626c653a207061757365640000000000000000000000000000000060448201526064016104af565b606060006113a6836002611750565b6113b1906002611738565b67ffffffffffffffff8111156113d757634e487b7160e01b600052604160045260246000fd5b6040519080825280601f01601f191660200182016040528015611401576020820181803683370190505b5090507f30000000000000000000000000000000000000000000000000000000000000008160008151811061144657634e487b7160e01b600052603260045260246000fd5b60200101906001600160f81b031916908160001a9053507f78000000000000000000000000000000000000000000000000000000000000008160018151811061149f57634e487b7160e01b600052603260045260246000fd5b60200101906001600160f81b031916908160001a90535060006114c3846002611750565b6114ce906001611738565b90505b600181111561156f577f303132333435363738396162636465660000000000000000000000000000000085600f166010811061151d57634e487b7160e01b600052603260045260246000fd5b1a60f81b82828151811061154157634e487b7160e01b600052603260045260246000fd5b60200101906001600160f81b031916908160001a90535060049490941c936115688161179f565b90506114d1565b5083156115be5760405162461bcd60e51b815260206004820181905260248201527f537472696e67733a20686578206c656e67746820696e73756666696369656e7460448201526064016104af565b9392505050565b6000602082840312156115d6578081fd5b81356115be816117cc565b6000602082840312156115f2578081fd5b81516115be816117cc565b60006020828403121561160e578081fd5b5035919050565b60008060408385031215611627578081fd5b823591506020830135611639816117cc565b809150509250929050565b600060208284031215611655578081fd5b81357fffffffff00000000000000000000000000000000000000000000000000000000811681146115be578182fd5b7f416363657373436f6e74726f6c3a206163636f756e74200000000000000000008152600083516116bc81601785016020880161176f565b7f206973206d697373696e6720726f6c652000000000000000000000000000000060179184019182015283516116f981602884016020880161176f565b01602801949350505050565b602081526000825180602084015261172481604085016020870161176f565b601f01601f19169190910160400192915050565b6000821982111561174b5761174b6117b6565b500190565b600081600019048311821515161561176a5761176a6117b6565b500290565b60005b8381101561178a578181015183820152602001611772565b83811115611799576000848401525b50505050565b6000816117ae576117ae6117b6565b506000190190565b634e487b7160e01b600052601160045260246000fd5b6001600160a01b03811681146107b557600080fdfea2646970667358221220e148a7d3a10c3544167dc00b01fbad98f0e13bef2bbec7c8f09287ae1349135c64736f6c63430008040033",
  "linkReferences": {},
  "deployedLinkReferences": {}
}