{
  "_format": "hh-sol-artifact-1",
  "contractName": "AuthorizeUser",
  "sourceName": "contracts/protocol/AuthorizeUser.sol",
  "abi": [
    {
      "anonymous": false,
      "inputs": [
        {
          "indexed": false,
          "internalType": "address",
          "name": "previousAdmin",
          "type": "address"
        },
        {
          "indexed": false,
          "internalType": "address",
          "name": "newAdmin",
          "type": "address"
        }
      ],
      "name": "AdminChanged",
      "type": "event"
    },
    {
      "anonymous": false,
      "inputs": [
        {
          "indexed": true,
          "internalType": "address",
          "name": "member",
          "type": "address"
        }
      ],
      "name": "AuthorizeUserListed",
      "type": "event"
    },
    {
      "anonymous": false,
      "inputs": [
        {
          "indexed": true,
          "internalType": "address",
          "name": "member",
          "type": "address"
        }
      ],
      "name": "AuthorizeUserNotListed",
      "type": "event"
    },
    {
      "anonymous": false,
      "inputs": [
        {
          "indexed": true,
          "internalType": "address",
          "name": "beacon",
          "type": "address"
        }
      ],
      "name": "BeaconUpgraded",
      "type": "event"
    },
    {
      "anonymous": false,
      "inputs": [
        {
          "indexed": false,
          "internalType": "uint8",
          "name": "version",
          "type": "uint8"
        }
      ],
      "name": "Initialized",
      "type": "event"
    },
    {
      "anonymous": false,
      "inputs": [
        {
          "indexed": false,
          "internalType": "address",
          "name": "account",
          "type": "address"
        }
      ],
      "name": "Paused",
      "type": "event"
    },
    {
      "anonymous": false,
      "inputs": [
        {
          "indexed": true,
          "internalType": "bytes32",
          "name": "role",
          "type": "bytes32"
        },
        {
          "indexed": true,
          "internalType": "bytes32",
          "name": "previousAdminRole",
          "type": "bytes32"
        },
        {
          "indexed": true,
          "internalType": "bytes32",
          "name": "newAdminRole",
          "type": "bytes32"
        }
      ],
      "name": "RoleAdminChanged",
      "type": "event"
    },
    {
      "anonymous": false,
      "inputs": [
        {
          "indexed": true,
          "internalType": "bytes32",
          "name": "role",
          "type": "bytes32"
        },
        {
          "indexed": true,
          "internalType": "address",
          "name": "account",
          "type": "address"
        },
        {
          "indexed": true,
          "internalType": "address",
          "name": "sender",
          "type": "address"
        }
      ],
      "name": "RoleGranted",
      "type": "event"
    },
    {
      "anonymous": false,
      "inputs": [
        {
          "indexed": true,
          "internalType": "bytes32",
          "name": "role",
          "type": "bytes32"
        },
        {
          "indexed": true,
          "internalType": "address",
          "name": "account",
          "type": "address"
        },
        {
          "indexed": true,
          "internalType": "address",
          "name": "sender",
          "type": "address"
        }
      ],
      "name": "RoleRevoked",
      "type": "event"
    },
    {
      "anonymous": false,
      "inputs": [
        {
          "indexed": false,
          "internalType": "address",
          "name": "account",
          "type": "address"
        }
      ],
      "name": "Unpaused",
      "type": "event"
    },
    {
      "anonymous": false,
      "inputs": [
        {
          "indexed": true,
          "internalType": "address",
          "name": "implementation",
          "type": "address"
        }
      ],
      "name": "Upgraded",
      "type": "event"
    },
    {
      "inputs": [],
      "name": "ADMIN_ROLE",
      "outputs": [
        {
          "internalType": "bytes32",
          "name": "",
          "type": "bytes32"
        }
      ],
      "stateMutability": "view",
      "type": "function"
    },
    {
      "inputs": [],
      "name": "AUTHORIZE_USER_ROLE",
      "outputs": [
        {
          "internalType": "bytes32",
          "name": "",
          "type": "bytes32"
        }
      ],
      "stateMutability": "view",
      "type": "function"
    },
    {
      "inputs": [],
      "name": "DEFAULT_ADMIN_ROLE",
      "outputs": [
        {
          "internalType": "bytes32",
          "name": "",
          "type": "bytes32"
        }
      ],
      "stateMutability": "view",
      "type": "function"
    },
    {
      "inputs": [],
      "name": "PAUSER_ROLE",
      "outputs": [
        {
          "internalType": "bytes32",
          "name": "",
          "type": "bytes32"
        }
      ],
      "stateMutability": "view",
      "type": "function"
    },
    {
      "inputs": [
        {
          "internalType": "address",
          "name": "owner",
          "type": "address"
        }
      ],
      "name": "_BaseUpgradeablePausable_init",
      "outputs": [],
      "stateMutability": "nonpayable",
      "type": "function"
    },
    {
      "inputs": [],
      "name": "__PauserPausable__init",
      "outputs": [],
      "stateMutability": "nonpayable",
      "type": "function"
    },
    {
      "inputs": [
        {
          "internalType": "address",
          "name": "_user",
          "type": "address"
        }
      ],
      "name": "addToauthorizedUserList",
      "outputs": [],
      "stateMutability": "nonpayable",
      "type": "function"
    },
    {
      "inputs": [
        {
          "internalType": "address",
          "name": "",
          "type": "address"
        }
      ],
      "name": "authorizedUserList",
      "outputs": [
        {
          "internalType": "bool",
          "name": "",
          "type": "bool"
        }
      ],
      "stateMutability": "view",
      "type": "function"
    },
    {
      "inputs": [
        {
          "internalType": "bytes32",
          "name": "role",
          "type": "bytes32"
        }
      ],
      "name": "getRoleAdmin",
      "outputs": [
        {
          "internalType": "bytes32",
          "name": "",
          "type": "bytes32"
        }
      ],
      "stateMutability": "view",
      "type": "function"
    },
    {
      "inputs": [
        {
          "internalType": "bytes32",
          "name": "role",
          "type": "bytes32"
        },
        {
          "internalType": "address",
          "name": "account",
          "type": "address"
        }
      ],
      "name": "grantRole",
      "outputs": [],
      "stateMutability": "nonpayable",
      "type": "function"
    },
    {
      "inputs": [
        {
          "internalType": "bytes32",
          "name": "role",
          "type": "bytes32"
        },
        {
          "internalType": "address",
          "name": "account",
          "type": "address"
        }
      ],
      "name": "hasRole",
      "outputs": [
        {
          "internalType": "bool",
          "name": "",
          "type": "bool"
        }
      ],
      "stateMutability": "view",
      "type": "function"
    },
    {
      "inputs": [
        {
          "internalType": "contract DygnifyConfig",
          "name": "_dygnifyConfig",
          "type": "address"
        }
      ],
      "name": "initialize",
      "outputs": [],
      "stateMutability": "nonpayable",
      "type": "function"
    },
    {
      "inputs": [],
      "name": "isAdmin",
      "outputs": [
        {
          "internalType": "bool",
          "name": "",
          "type": "bool"
        }
      ],
      "stateMutability": "view",
      "type": "function"
    },
    {
      "inputs": [
        {
          "internalType": "address",
          "name": "_user",
          "type": "address"
        }
      ],
      "name": "isUserAuthorized",
      "outputs": [
        {
          "internalType": "bool",
          "name": "",
          "type": "bool"
        }
      ],
      "stateMutability": "view",
      "type": "function"
    },
    {
      "inputs": [],
      "name": "pause",
      "outputs": [],
      "stateMutability": "nonpayable",
      "type": "function"
    },
    {
      "inputs": [],
      "name": "paused",
      "outputs": [
        {
          "internalType": "bool",
          "name": "",
          "type": "bool"
        }
      ],
      "stateMutability": "view",
      "type": "function"
    },
    {
      "inputs": [],
      "name": "proxiableUUID",
      "outputs": [
        {
          "internalType": "bytes32",
          "name": "",
          "type": "bytes32"
        }
      ],
      "stateMutability": "view",
      "type": "function"
    },
    {
      "inputs": [
        {
          "internalType": "address",
          "name": "_user",
          "type": "address"
        }
      ],
      "name": "removeFromauthorizedUserList",
      "outputs": [],
      "stateMutability": "nonpayable",
      "type": "function"
    },
    {
      "inputs": [
        {
          "internalType": "bytes32",
          "name": "role",
          "type": "bytes32"
        },
        {
          "internalType": "address",
          "name": "account",
          "type": "address"
        }
      ],
      "name": "renounceRole",
      "outputs": [],
      "stateMutability": "nonpayable",
      "type": "function"
    },
    {
      "inputs": [
        {
          "internalType": "bytes32",
          "name": "role",
          "type": "bytes32"
        },
        {
          "internalType": "address",
          "name": "account",
          "type": "address"
        }
      ],
      "name": "revokeRole",
      "outputs": [],
      "stateMutability": "nonpayable",
      "type": "function"
    },
    {
      "inputs": [
        {
          "internalType": "bytes4",
          "name": "interfaceId",
          "type": "bytes4"
        }
      ],
      "name": "supportsInterface",
      "outputs": [
        {
          "internalType": "bool",
          "name": "",
          "type": "bool"
        }
      ],
      "stateMutability": "view",
      "type": "function"
    },
    {
      "inputs": [],
      "name": "unpause",
      "outputs": [],
      "stateMutability": "nonpayable",
      "type": "function"
    },
    {
      "inputs": [
        {
          "internalType": "address",
          "name": "newImplementation",
          "type": "address"
        }
      ],
      "name": "upgradeTo",
      "outputs": [],
      "stateMutability": "nonpayable",
      "type": "function"
    },
    {
      "inputs": [
        {
          "internalType": "address",
          "name": "newImplementation",
          "type": "address"
        },
        {
          "internalType": "bytes",
          "name": "data",
          "type": "bytes"
        }
      ],
      "name": "upgradeToAndCall",
      "outputs": [],
      "stateMutability": "payable",
      "type": "function"
    }
  ],
  "bytecode": "0x60a06040523060601b60805234801561001757600080fd5b5060805160601c6122f66100526000396000818161063f015281816106c40152818161098e01528181610a130152610c1801526122f66000f3fe60806040526004361061018b5760003560e01c80635c975abb116100d6578063a12dde4d1161007f578063c4d66de811610059578063c4d66de81461046c578063d547741f1461048c578063e63ab1e9146104ac57600080fd5b8063a12dde4d14610422578063a217fddf14610442578063b6db75a01461045757600080fd5b80638456cb59116100b05780638456cb59146103a7578063894e5f2d146103bc57806391d14854146103dc57600080fd5b80635c975abb1461033b5780636852595e1461035357806375b238fc1461037357600080fd5b80633659cfe6116101385780634f1ef286116101125780634f1ef286146102fe578063526d81f61461031157806352d1902d1461032657600080fd5b80633659cfe6146102a95780633f4ba83a146102c957806348333d96146102de57600080fd5b8063248a9ca311610169578063248a9ca3146102375780632f2ff15d1461026757806336568abe1461028957600080fd5b806301ffc9a71461019057806312a5a4bb146101c5578063238d8d8714610206575b600080fd5b34801561019c57600080fd5b506101b06101ab3660046120ce565b6104e0565b60405190151581526020015b60405180910390f35b3480156101d157600080fd5b506101f87ed019c3fe031f78f9be1b03002222adc4e715a6b649958ca83ec871af2c2cd781565b6040519081526020016101bc565b34801561021257600080fd5b506101b0610221366004611f78565b6101606020526000908152604090205460ff1681565b34801561024357600080fd5b506101f861025236600461206f565b60009081526065602052604090206001015490565b34801561027357600080fd5b5061028761028236600461209f565b610579565b005b34801561029557600080fd5b506102876102a436600461209f565b6105a3565b3480156102b557600080fd5b506102876102c4366004611f78565b610634565b3480156102d557600080fd5b506102876107b0565b3480156102ea57600080fd5b506102876102f9366004611f78565b610845565b61028761030c366004611fb0565b610983565b34801561031d57600080fd5b50610287610aec565b34801561033257600080fd5b506101f8610c0b565b34801561034757600080fd5b5060975460ff166101b0565b34801561035f57600080fd5b5061028761036e366004611f78565b610cd0565b34801561037f57600080fd5b506101f87fa49807205ce4d355092ef5a8a18f56e8913cf4a201fbe287825b095693c2177581565b3480156103b357600080fd5b50610287610e0b565b3480156103c857600080fd5b506101b06103d7366004611f78565b610e9e565b3480156103e857600080fd5b506101b06103f736600461209f565b60009182526065602090815260408084206001600160a01b0393909316845291905290205460ff1690565b34801561042e57600080fd5b5061028761043d366004611f78565b610f16565b34801561044e57600080fd5b506101f8600081565b34801561046357600080fd5b506101b06110b7565b34801561047857600080fd5b50610287610487366004611f78565b6110e8565b34801561049857600080fd5b506102876104a736600461209f565b611362565b3480156104b857600080fd5b506101f87f65d7a28e3265b37a6474929f336521b332c1681b933f6cb9f3376673440d862a81565b60007fffffffff0000000000000000000000000000000000000000000000000000000082167f7965db0b00000000000000000000000000000000000000000000000000000000148061057357507f01ffc9a7000000000000000000000000000000000000000000000000000000007fffffffff000000000000000000000000000000000000000000000000000000008316145b92915050565b60008281526065602052604090206001015461059481611387565b61059e8383611391565b505050565b6001600160a01b03811633146106265760405162461bcd60e51b815260206004820152602f60248201527f416363657373436f6e74726f6c3a2063616e206f6e6c792072656e6f756e636560448201527f20726f6c657320666f722073656c66000000000000000000000000000000000060648201526084015b60405180910390fd5b6106308282611433565b5050565b306001600160a01b037f00000000000000000000000000000000000000000000000000000000000000001614156106c25760405162461bcd60e51b815260206004820152602c60248201527f46756e6374696f6e206d7573742062652063616c6c6564207468726f7567682060448201526b19195b1959d85d1958d85b1b60a21b606482015260840161061d565b7f00000000000000000000000000000000000000000000000000000000000000006001600160a01b031661071d7f360894a13ba1a3210667c828492db98dca3e2076cc3735a920a3ca505d382bbc546001600160a01b031690565b6001600160a01b0316146107885760405162461bcd60e51b815260206004820152602c60248201527f46756e6374696f6e206d7573742062652063616c6c6564207468726f7567682060448201526b6163746976652070726f787960a01b606482015260840161061d565b610791816114b6565b604080516000808252602082019092526107ad91839190611530565b50565b6107da7f65d7a28e3265b37a6474929f336521b332c1681b933f6cb9f3376673440d862a336103f7565b61083b5760405162461bcd60e51b815260206004820152602c60248201527f4d75737420686176652070617573657220726f6c6520746f20706572666f726d60448201526b103a3434b99030b1ba34b7b760a11b606482015260840161061d565b6108436116df565b565b61086e7ed019c3fe031f78f9be1b03002222adc4e715a6b649958ca83ec871af2c2cd7336103f7565b6108e05760405162461bcd60e51b815260206004820152603460248201527f4d757374206861766520415554484f52495a455f555345525f524f4c4520746f60448201527f20706572666f726d207468697320616374696f6e000000000000000000000000606482015260840161061d565b6001600160a01b0381166109365760405162461bcd60e51b815260206004820152601c60248201527f5573657220616464726573732063616e6e6f7420626520656d70747900000000604482015260640161061d565b6001600160a01b03811660008181526101606020526040808220805460ff19166001179055517fc75545572d9a5cfd304e6f4ed7df14070d813df061c036f7b37a19bc5502682d9190a250565b306001600160a01b037f0000000000000000000000000000000000000000000000000000000000000000161415610a115760405162461bcd60e51b815260206004820152602c60248201527f46756e6374696f6e206d7573742062652063616c6c6564207468726f7567682060448201526b19195b1959d85d1958d85b1b60a21b606482015260840161061d565b7f00000000000000000000000000000000000000000000000000000000000000006001600160a01b0316610a6c7f360894a13ba1a3210667c828492db98dca3e2076cc3735a920a3ca505d382bbc546001600160a01b031690565b6001600160a01b031614610ad75760405162461bcd60e51b815260206004820152602c60248201527f46756e6374696f6e206d7573742062652063616c6c6564207468726f7567682060448201526b6163746976652070726f787960a01b606482015260840161061d565b610ae0826114b6565b61063082826001611530565b600054610100900460ff1615808015610b0c5750600054600160ff909116105b80610b265750303b158015610b26575060005460ff166001145b610b985760405162461bcd60e51b815260206004820152602e60248201527f496e697469616c697a61626c653a20636f6e747261637420697320616c72656160448201527f647920696e697469616c697a6564000000000000000000000000000000000000606482015260840161061d565b6000805460ff191660011790558015610bbb576000805461ff0019166101001790555b610bc3611731565b80156107ad576000805461ff0019169055604051600181527f7f26b83ff96e1f2b6a682f133852f6798a09c465da95921460cefb38474024989060200160405180910390a150565b6000306001600160a01b037f00000000000000000000000000000000000000000000000000000000000000001614610cab5760405162461bcd60e51b815260206004820152603860248201527f555550535570677261646561626c653a206d757374206e6f742062652063616c60448201527f6c6564207468726f7567682064656c656761746563616c6c0000000000000000606482015260840161061d565b507f360894a13ba1a3210667c828492db98dca3e2076cc3735a920a3ca505d382bbc90565b610cf97ed019c3fe031f78f9be1b03002222adc4e715a6b649958ca83ec871af2c2cd7336103f7565b610d6b5760405162461bcd60e51b815260206004820152603460248201527f4d757374206861766520415554484f52495a455f555345525f524f4c4520746f60448201527f20706572666f726d207468697320616374696f6e000000000000000000000000606482015260840161061d565b6001600160a01b038116610dc15760405162461bcd60e51b815260206004820152601c60248201527f5573657220616464726573732063616e6e6f7420626520656d70747900000000604482015260640161061d565b6001600160a01b03811660008181526101606020526040808220805460ff19169055517f089433aac4b737b0c70f26490535436ccd8ad509130e0dfff48450edcf703f829190a250565b610e357f65d7a28e3265b37a6474929f336521b332c1681b933f6cb9f3376673440d862a336103f7565b610e965760405162461bcd60e51b815260206004820152602c60248201527f4d75737420686176652070617573657220726f6c6520746f20706572666f726d60448201526b103a3434b99030b1ba34b7b760a11b606482015260840161061d565b6108436117a8565b60006001600160a01b038216610ef65760405162461bcd60e51b815260206004820152601c60248201527f5573657220616464726573732063616e6e6f7420626520656d70747900000000604482015260640161061d565b506001600160a01b03166000908152610160602052604090205460ff1690565b600054610100900460ff16610f815760405162461bcd60e51b815260206004820152602b60248201527f496e697469616c697a61626c653a20636f6e7472616374206973206e6f74206960448201526a6e697469616c697a696e6760a81b606482015260840161061d565b6001600160a01b038116610fd75760405162461bcd60e51b815260206004820181905260248201527f4f776e65722063616e6e6f7420626520746865207a65726f2061646472657373604482015260640161061d565b610fdf6117e5565b610fe7611731565b610fef611850565b6110197fa49807205ce4d355092ef5a8a18f56e8913cf4a201fbe287825b095693c21775826118c2565b6110437f65d7a28e3265b37a6474929f336521b332c1681b933f6cb9f3376673440d862a826118c2565b61108d7f65d7a28e3265b37a6474929f336521b332c1681b933f6cb9f3376673440d862a7fa49807205ce4d355092ef5a8a18f56e8913cf4a201fbe287825b095693c217756118cc565b6107ad7fa49807205ce4d355092ef5a8a18f56e8913cf4a201fbe287825b095693c21775806118cc565b60006110e37fa49807205ce4d355092ef5a8a18f56e8913cf4a201fbe287825b095693c21775336103f7565b905090565b600054610100900460ff16158080156111085750600054600160ff909116105b806111225750303b158015611122575060005460ff166001145b6111945760405162461bcd60e51b815260206004820152602e60248201527f496e697469616c697a61626c653a20636f6e747261637420697320616c72656160448201527f647920696e697469616c697a6564000000000000000000000000000000000000606482015260840161061d565b6000805460ff1916600117905580156111b7576000805461ff0019166101001790555b6001600160a01b03821661120d5760405162461bcd60e51b815260206004820152601660248201527f496e76616c696420636f6e666967206164647265737300000000000000000000604482015260640161061d565b61015f805473ffffffffffffffffffffffffffffffffffffffff19166001600160a01b03841690811790915560009061124590611917565b90506001600160a01b03811661129d5760405162461bcd60e51b815260206004820152600d60248201527f496e76616c6964204f776e657200000000000000000000000000000000000000604482015260640161061d565b6112a681610f16565b6112cf7ed019c3fe031f78f9be1b03002222adc4e715a6b649958ca83ec871af2c2cd7826118c2565b6113187ed019c3fe031f78f9be1b03002222adc4e715a6b649958ca83ec871af2c2cd77fa49807205ce4d355092ef5a8a18f56e8913cf4a201fbe287825b095693c217756118cc565b508015610630576000805461ff0019169055604051600181527f7f26b83ff96e1f2b6a682f133852f6798a09c465da95921460cefb38474024989060200160405180910390a15050565b60008281526065602052604090206001015461137d81611387565b61059e8383611433565b6107ad81336119ab565b60008281526065602090815260408083206001600160a01b038516845290915290205460ff166106305760008281526065602090815260408083206001600160a01b03851684529091529020805460ff191660011790556113ef3390565b6001600160a01b0316816001600160a01b0316837f2f8788117e7eff1d82e926ec794901d17c78024a50270940304540a733656f0d60405160405180910390a45050565b60008281526065602090815260408083206001600160a01b038516845290915290205460ff16156106305760008281526065602090815260408083206001600160a01b0385168085529252808320805460ff1916905551339285917ff6391f5c32d9c69d2a47ea670b442974b53935d1edc7fd64eb21e047a839171b9190a45050565b6114be6110b7565b6107ad5760405162461bcd60e51b815260206004820152602b60248201527f4d75737420686176652061646d696e20726f6c6520746f20706572666f726d2060448201527f7468697320616374696f6e000000000000000000000000000000000000000000606482015260840161061d565b7f4910fdfa16fed3260ed0e7147f7cc6da11a60208b5b9406d12a635614ffd91435460ff16156115635761059e83611a2b565b826001600160a01b03166352d1902d6040518163ffffffff1660e01b815260040160206040518083038186803b15801561159c57600080fd5b505afa9250505080156115cc575060408051601f3d908101601f191682019092526115c991810190612087565b60015b61163e5760405162461bcd60e51b815260206004820152602e60248201527f45524331393637557067726164653a206e657720696d706c656d656e7461746960448201527f6f6e206973206e6f742055555053000000000000000000000000000000000000606482015260840161061d565b7f360894a13ba1a3210667c828492db98dca3e2076cc3735a920a3ca505d382bbc81146116d35760405162461bcd60e51b815260206004820152602960248201527f45524331393637557067726164653a20756e737570706f727465642070726f7860448201527f6961626c65555549440000000000000000000000000000000000000000000000606482015260840161061d565b5061059e838383611af6565b6116e7611b21565b6097805460ff191690557f5db9ee0a495bf2e6ff9c91a7834c1ba4fdd244a5e8aa4e537bd38aeae4b073aa335b6040516001600160a01b03909116815260200160405180910390a1565b600054610100900460ff1661179c5760405162461bcd60e51b815260206004820152602b60248201527f496e697469616c697a61626c653a20636f6e7472616374206973206e6f74206960448201526a6e697469616c697a696e6760a81b606482015260840161061d565b6097805460ff19169055565b6117b0611b73565b6097805460ff191660011790557f62e78cea01bee320cd4e420270b5ea74000d11b0c9f74754ebdbfc544b05a2586117143390565b600054610100900460ff166108435760405162461bcd60e51b815260206004820152602b60248201527f496e697469616c697a61626c653a20636f6e7472616374206973206e6f74206960448201526a6e697469616c697a696e6760a81b606482015260840161061d565b600054610100900460ff166118bb5760405162461bcd60e51b815260206004820152602b60248201527f496e697469616c697a61626c653a20636f6e7472616374206973206e6f74206960448201526a6e697469616c697a696e6760a81b606482015260840161061d565b600160c955565b6106308282611391565b600082815260656020526040808220600101805490849055905190918391839186917fbd79b86ffe0ab8e8776151514217cd7cacd52c909f66475c3af44e129f0b00ff9190a4505050565b6040517fb93f9b0a000000000000000000000000000000000000000000000000000000008152600060048201819052906001600160a01b0383169063b93f9b0a9060240160206040518083038186803b15801561197357600080fd5b505afa158015611987573d6000803e3d6000fd5b505050506040513d601f19601f820116820180604052508101906105739190611f94565b60008281526065602090815260408083206001600160a01b038516845290915290205460ff16610630576119e9816001600160a01b03166014611bc6565b6119f4836020611bc6565b604051602001611a0592919061212a565b60408051601f198184030181529082905262461bcd60e51b825261061d916004016121ab565b6001600160a01b0381163b611aa85760405162461bcd60e51b815260206004820152602d60248201527f455243313936373a206e657720696d706c656d656e746174696f6e206973206e60448201527f6f74206120636f6e747261637400000000000000000000000000000000000000606482015260840161061d565b7f360894a13ba1a3210667c828492db98dca3e2076cc3735a920a3ca505d382bbc805473ffffffffffffffffffffffffffffffffffffffff19166001600160a01b0392909216919091179055565b611aff83611df4565b600082511180611b0c5750805b1561059e57611b1b8383611e34565b50505050565b60975460ff166108435760405162461bcd60e51b815260206004820152601460248201527f5061757361626c653a206e6f7420706175736564000000000000000000000000604482015260640161061d565b60975460ff16156108435760405162461bcd60e51b815260206004820152601060248201527f5061757361626c653a2070617573656400000000000000000000000000000000604482015260640161061d565b60606000611bd58360026121f6565b611be09060026121de565b67ffffffffffffffff811115611c0657634e487b7160e01b600052604160045260246000fd5b6040519080825280601f01601f191660200182016040528015611c30576020820181803683370190505b5090507f300000000000000000000000000000000000000000000000000000000000000081600081518110611c7557634e487b7160e01b600052603260045260246000fd5b60200101906001600160f81b031916908160001a9053507f780000000000000000000000000000000000000000000000000000000000000081600181518110611cce57634e487b7160e01b600052603260045260246000fd5b60200101906001600160f81b031916908160001a9053506000611cf28460026121f6565b611cfd9060016121de565b90505b6001811115611d9e577f303132333435363738396162636465660000000000000000000000000000000085600f1660108110611d4c57634e487b7160e01b600052603260045260246000fd5b1a60f81b828281518110611d7057634e487b7160e01b600052603260045260246000fd5b60200101906001600160f81b031916908160001a90535060049490941c93611d9781612241565b9050611d00565b508315611ded5760405162461bcd60e51b815260206004820181905260248201527f537472696e67733a20686578206c656e67746820696e73756666696369656e74604482015260640161061d565b9392505050565b611dfd81611a2b565b6040516001600160a01b038216907fbc7cd75a20ee27fd9adebab32041f755214dbc6bffa90cc0225b39da2e5c2d3b90600090a250565b60606001600160a01b0383163b611eb35760405162461bcd60e51b815260206004820152602660248201527f416464726573733a2064656c65676174652063616c6c20746f206e6f6e2d636f60448201527f6e74726163740000000000000000000000000000000000000000000000000000606482015260840161061d565b600080846001600160a01b031684604051611ece919061210e565b600060405180830381855af49150503d8060008114611f09576040519150601f19603f3d011682016040523d82523d6000602084013e611f0e565b606091505b5091509150611f36828260405180606001604052806027815260200161229a60279139611f3f565b95945050505050565b60608315611f4e575081611ded565b825115611f5e5782518084602001fd5b8160405162461bcd60e51b815260040161061d91906121ab565b600060208284031215611f89578081fd5b8135611ded81612284565b600060208284031215611fa5578081fd5b8151611ded81612284565b60008060408385031215611fc2578081fd5b8235611fcd81612284565b9150602083013567ffffffffffffffff80821115611fe9578283fd5b818501915085601f830112611ffc578283fd5b81358181111561200e5761200e61226e565b604051601f8201601f19908116603f011681019083821181831017156120365761203661226e565b8160405282815288602084870101111561204e578586fd5b82602086016020830137856020848301015280955050505050509250929050565b600060208284031215612080578081fd5b5035919050565b600060208284031215612098578081fd5b5051919050565b600080604083850312156120b1578182fd5b8235915060208301356120c381612284565b809150509250929050565b6000602082840312156120df578081fd5b81357fffffffff0000000000000000000000000000000000000000000000000000000081168114611ded578182fd5b60008251612120818460208701612215565b9190910192915050565b7f416363657373436f6e74726f6c3a206163636f756e7420000000000000000000815260008351612162816017850160208801612215565b7f206973206d697373696e6720726f6c6520000000000000000000000000000000601791840191820152835161219f816028840160208801612215565b01602801949350505050565b60208152600082518060208401526121ca816040850160208701612215565b601f01601f19169190910160400192915050565b600082198211156121f1576121f1612258565b500190565b600081600019048311821515161561221057612210612258565b500290565b60005b83811015612230578181015183820152602001612218565b83811115611b1b5750506000910152565b60008161225057612250612258565b506000190190565b634e487b7160e01b600052601160045260246000fd5b634e487b7160e01b600052604160045260246000fd5b6001600160a01b03811681146107ad57600080fdfe416464726573733a206c6f772d6c6576656c2064656c65676174652063616c6c206661696c6564a26469706673582212200a0e360d9ebaa08224dc7726811af2efb73524f9de5ae789c5e7c454e56a692564736f6c63430008040033",
  "linkReferences": {},
  "deployedLinkReferences": {}
}