{
  "_format": "hh-sol-artifact-1",
  "contractName": "PauserPausable",
  "sourceName": "contracts/protocol/PauserPausable.sol",
  "abi": [
    {
      "anonymous": false,
      "inputs": [
        {
          "indexed": false,
          "internalType": "uint8",
          "name": "version",
          "type": "uint8"
        }
      ],
      "name": "Initialized",
      "type": "event"
    },
    {
      "anonymous": false,
      "inputs": [
        {
          "indexed": false,
          "internalType": "address",
          "name": "account",
          "type": "address"
        }
      ],
      "name": "Paused",
      "type": "event"
    },
    {
      "anonymous": false,
      "inputs": [
        {
          "indexed": true,
          "internalType": "bytes32",
          "name": "role",
          "type": "bytes32"
        },
        {
          "indexed": true,
          "internalType": "bytes32",
          "name": "previousAdminRole",
          "type": "bytes32"
        },
        {
          "indexed": true,
          "internalType": "bytes32",
          "name": "newAdminRole",
          "type": "bytes32"
        }
      ],
      "name": "RoleAdminChanged",
      "type": "event"
    },
    {
      "anonymous": false,
      "inputs": [
        {
          "indexed": true,
          "internalType": "bytes32",
          "name": "role",
          "type": "bytes32"
        },
        {
          "indexed": true,
          "internalType": "address",
          "name": "account",
          "type": "address"
        },
        {
          "indexed": true,
          "internalType": "address",
          "name": "sender",
          "type": "address"
        }
      ],
      "name": "RoleGranted",
      "type": "event"
    },
    {
      "anonymous": false,
      "inputs": [
        {
          "indexed": true,
          "internalType": "bytes32",
          "name": "role",
          "type": "bytes32"
        },
        {
          "indexed": true,
          "internalType": "address",
          "name": "account",
          "type": "address"
        },
        {
          "indexed": true,
          "internalType": "address",
          "name": "sender",
          "type": "address"
        }
      ],
      "name": "RoleRevoked",
      "type": "event"
    },
    {
      "anonymous": false,
      "inputs": [
        {
          "indexed": false,
          "internalType": "address",
          "name": "account",
          "type": "address"
        }
      ],
      "name": "Unpaused",
      "type": "event"
    },
    {
      "inputs": [],
      "name": "DEFAULT_ADMIN_ROLE",
      "outputs": [
        {
          "internalType": "bytes32",
          "name": "",
          "type": "bytes32"
        }
      ],
      "stateMutability": "view",
      "type": "function"
    },
    {
      "inputs": [],
      "name": "PAUSER_ROLE",
      "outputs": [
        {
          "internalType": "bytes32",
          "name": "",
          "type": "bytes32"
        }
      ],
      "stateMutability": "view",
      "type": "function"
    },
    {
      "inputs": [],
      "name": "__PauserPausable__init",
      "outputs": [],
      "stateMutability": "nonpayable",
      "type": "function"
    },
    {
      "inputs": [
        {
          "internalType": "bytes32",
          "name": "role",
          "type": "bytes32"
        }
      ],
      "name": "getRoleAdmin",
      "outputs": [
        {
          "internalType": "bytes32",
          "name": "",
          "type": "bytes32"
        }
      ],
      "stateMutability": "view",
      "type": "function"
    },
    {
      "inputs": [
        {
          "internalType": "bytes32",
          "name": "role",
          "type": "bytes32"
        },
        {
          "internalType": "address",
          "name": "account",
          "type": "address"
        }
      ],
      "name": "grantRole",
      "outputs": [],
      "stateMutability": "nonpayable",
      "type": "function"
    },
    {
      "inputs": [
        {
          "internalType": "bytes32",
          "name": "role",
          "type": "bytes32"
        },
        {
          "internalType": "address",
          "name": "account",
          "type": "address"
        }
      ],
      "name": "hasRole",
      "outputs": [
        {
          "internalType": "bool",
          "name": "",
          "type": "bool"
        }
      ],
      "stateMutability": "view",
      "type": "function"
    },
    {
      "inputs": [],
      "name": "pause",
      "outputs": [],
      "stateMutability": "nonpayable",
      "type": "function"
    },
    {
      "inputs": [],
      "name": "paused",
      "outputs": [
        {
          "internalType": "bool",
          "name": "",
          "type": "bool"
        }
      ],
      "stateMutability": "view",
      "type": "function"
    },
    {
      "inputs": [
        {
          "internalType": "bytes32",
          "name": "role",
          "type": "bytes32"
        },
        {
          "internalType": "address",
          "name": "account",
          "type": "address"
        }
      ],
      "name": "renounceRole",
      "outputs": [],
      "stateMutability": "nonpayable",
      "type": "function"
    },
    {
      "inputs": [
        {
          "internalType": "bytes32",
          "name": "role",
          "type": "bytes32"
        },
        {
          "internalType": "address",
          "name": "account",
          "type": "address"
        }
      ],
      "name": "revokeRole",
      "outputs": [],
      "stateMutability": "nonpayable",
      "type": "function"
    },
    {
      "inputs": [
        {
          "internalType": "bytes4",
          "name": "interfaceId",
          "type": "bytes4"
        }
      ],
      "name": "supportsInterface",
      "outputs": [
        {
          "internalType": "bool",
          "name": "",
          "type": "bool"
        }
      ],
      "stateMutability": "view",
      "type": "function"
    },
    {
      "inputs": [],
      "name": "unpause",
      "outputs": [],
      "stateMutability": "nonpayable",
      "type": "function"
    }
  ],
  "bytecode": "0x608060405234801561001057600080fd5b50610d63806100206000396000f3fe608060405234801561001057600080fd5b50600436106100d45760003560e01c80635c975abb11610081578063a217fddf1161005b578063a217fddf146101b6578063d547741f146101be578063e63ab1e9146101d157600080fd5b80635c975abb1461016a5780638456cb591461017557806391d148541461017d57600080fd5b806336568abe116100b257806336568abe146101475780633f4ba83a1461015a578063526d81f61461016257600080fd5b806301ffc9a7146100d9578063248a9ca3146101015780632f2ff15d14610132575b600080fd5b6100ec6100e7366004610ba5565b6101f8565b60405190151581526020015b60405180910390f35b61012461010f366004610b53565b60009081526065602052604090206001015490565b6040519081526020016100f8565b610145610140366004610b6b565b610291565b005b610145610155366004610b6b565b6102bb565b61014561034c565b6101456103e1565b60975460ff166100ec565b610145610501565b6100ec61018b366004610b6b565b60009182526065602090815260408084206001600160a01b0393909316845291905290205460ff1690565b610124600081565b6101456101cc366004610b6b565b610594565b6101247f65d7a28e3265b37a6474929f336521b332c1681b933f6cb9f3376673440d862a81565b60007fffffffff0000000000000000000000000000000000000000000000000000000082167f7965db0b00000000000000000000000000000000000000000000000000000000148061028b57507f01ffc9a7000000000000000000000000000000000000000000000000000000007fffffffff000000000000000000000000000000000000000000000000000000008316145b92915050565b6000828152606560205260409020600101546102ac816105b9565b6102b683836105c3565b505050565b6001600160a01b038116331461033e5760405162461bcd60e51b815260206004820152602f60248201527f416363657373436f6e74726f6c3a2063616e206f6e6c792072656e6f756e636560448201527f20726f6c657320666f722073656c66000000000000000000000000000000000060648201526084015b60405180910390fd5b6103488282610665565b5050565b6103767f65d7a28e3265b37a6474929f336521b332c1681b933f6cb9f3376673440d862a3361018b565b6103d75760405162461bcd60e51b815260206004820152602c60248201527f4d75737420686176652070617573657220726f6c6520746f20706572666f726d60448201526b103a3434b99030b1ba34b7b760a11b6064820152608401610335565b6103df6106e8565b565b600054610100900460ff16158080156104015750600054600160ff909116105b8061041b5750303b15801561041b575060005460ff166001145b61048d5760405162461bcd60e51b815260206004820152602e60248201527f496e697469616c697a61626c653a20636f6e747261637420697320616c72656160448201527f647920696e697469616c697a65640000000000000000000000000000000000006064820152608401610335565b6000805460ff1916600117905580156104b0576000805461ff0019166101001790555b6104b861073a565b80156104fe576000805461ff0019169055604051600181527f7f26b83ff96e1f2b6a682f133852f6798a09c465da95921460cefb38474024989060200160405180910390a15b50565b61052b7f65d7a28e3265b37a6474929f336521b332c1681b933f6cb9f3376673440d862a3361018b565b61058c5760405162461bcd60e51b815260206004820152602c60248201527f4d75737420686176652070617573657220726f6c6520746f20706572666f726d60448201526b103a3434b99030b1ba34b7b760a11b6064820152608401610335565b6103df6107c3565b6000828152606560205260409020600101546105af816105b9565b6102b68383610665565b6104fe8133610800565b60008281526065602090815260408083206001600160a01b038516845290915290205460ff166103485760008281526065602090815260408083206001600160a01b03851684529091529020805460ff191660011790556106213390565b6001600160a01b0316816001600160a01b0316837f2f8788117e7eff1d82e926ec794901d17c78024a50270940304540a733656f0d60405160405180910390a45050565b60008281526065602090815260408083206001600160a01b038516845290915290205460ff16156103485760008281526065602090815260408083206001600160a01b0385168085529252808320805460ff1916905551339285917ff6391f5c32d9c69d2a47ea670b442974b53935d1edc7fd64eb21e047a839171b9190a45050565b6106f0610880565b6097805460ff191690557f5db9ee0a495bf2e6ff9c91a7834c1ba4fdd244a5e8aa4e537bd38aeae4b073aa335b6040516001600160a01b03909116815260200160405180910390a1565b600054610100900460ff166107b75760405162461bcd60e51b815260206004820152602b60248201527f496e697469616c697a61626c653a20636f6e7472616374206973206e6f74206960448201527f6e697469616c697a696e670000000000000000000000000000000000000000006064820152608401610335565b6097805460ff19169055565b6107cb6108d2565b6097805460ff191660011790557f62e78cea01bee320cd4e420270b5ea74000d11b0c9f74754ebdbfc544b05a25861071d3390565b60008281526065602090815260408083206001600160a01b038516845290915290205460ff166103485761083e816001600160a01b03166014610925565b610849836020610925565b60405160200161085a929190610be5565b60408051601f198184030181529082905262461bcd60e51b825261033591600401610c66565b60975460ff166103df5760405162461bcd60e51b815260206004820152601460248201527f5061757361626c653a206e6f74207061757365640000000000000000000000006044820152606401610335565b60975460ff16156103df5760405162461bcd60e51b815260206004820152601060248201527f5061757361626c653a20706175736564000000000000000000000000000000006044820152606401610335565b60606000610934836002610cb1565b61093f906002610c99565b67ffffffffffffffff81111561096557634e487b7160e01b600052604160045260246000fd5b6040519080825280601f01601f19166020018201604052801561098f576020820181803683370190505b5090507f3000000000000000000000000000000000000000000000000000000000000000816000815181106109d457634e487b7160e01b600052603260045260246000fd5b60200101906001600160f81b031916908160001a9053507f780000000000000000000000000000000000000000000000000000000000000081600181518110610a2d57634e487b7160e01b600052603260045260246000fd5b60200101906001600160f81b031916908160001a9053506000610a51846002610cb1565b610a5c906001610c99565b90505b6001811115610afd577f303132333435363738396162636465660000000000000000000000000000000085600f1660108110610aab57634e487b7160e01b600052603260045260246000fd5b1a60f81b828281518110610acf57634e487b7160e01b600052603260045260246000fd5b60200101906001600160f81b031916908160001a90535060049490941c93610af681610d00565b9050610a5f565b508315610b4c5760405162461bcd60e51b815260206004820181905260248201527f537472696e67733a20686578206c656e67746820696e73756666696369656e746044820152606401610335565b9392505050565b600060208284031215610b64578081fd5b5035919050565b60008060408385031215610b7d578081fd5b8235915060208301356001600160a01b0381168114610b9a578182fd5b809150509250929050565b600060208284031215610bb6578081fd5b81357fffffffff0000000000000000000000000000000000000000000000000000000081168114610b4c578182fd5b7f416363657373436f6e74726f6c3a206163636f756e7420000000000000000000815260008351610c1d816017850160208801610cd0565b7f206973206d697373696e6720726f6c65200000000000000000000000000000006017918401918201528351610c5a816028840160208801610cd0565b01602801949350505050565b6020815260008251806020840152610c85816040850160208701610cd0565b601f01601f19169190910160400192915050565b60008219821115610cac57610cac610d17565b500190565b6000816000190483118215151615610ccb57610ccb610d17565b500290565b60005b83811015610ceb578181015183820152602001610cd3565b83811115610cfa576000848401525b50505050565b600081610d0f57610d0f610d17565b506000190190565b634e487b7160e01b600052601160045260246000fdfea2646970667358221220846063c7d836af5c401bde690f0949e18006f7eed2aa7ba4c0686b34ca74da7564736f6c63430008040033",
  "linkReferences": {},
  "deployedLinkReferences": {}
}