{
  "_format": "hh-sol-artifact-1",
  "contractName": "PauserPausable",
  "sourceName": "contracts/protocol/PauserPausable.sol",
  "abi": [
    {
      "anonymous": false,
      "inputs": [
        {
          "indexed": false,
          "internalType": "uint8",
          "name": "version",
          "type": "uint8"
        }
      ],
      "name": "Initialized",
      "type": "event"
    },
    {
      "anonymous": false,
      "inputs": [
        {
          "indexed": false,
          "internalType": "address",
          "name": "account",
          "type": "address"
        }
      ],
      "name": "Paused",
      "type": "event"
    },
    {
      "anonymous": false,
      "inputs": [
        {
          "indexed": true,
          "internalType": "bytes32",
          "name": "role",
          "type": "bytes32"
        },
        {
          "indexed": true,
          "internalType": "bytes32",
          "name": "previousAdminRole",
          "type": "bytes32"
        },
        {
          "indexed": true,
          "internalType": "bytes32",
          "name": "newAdminRole",
          "type": "bytes32"
        }
      ],
      "name": "RoleAdminChanged",
      "type": "event"
    },
    {
      "anonymous": false,
      "inputs": [
        {
          "indexed": true,
          "internalType": "bytes32",
          "name": "role",
          "type": "bytes32"
        },
        {
          "indexed": true,
          "internalType": "address",
          "name": "account",
          "type": "address"
        },
        {
          "indexed": true,
          "internalType": "address",
          "name": "sender",
          "type": "address"
        }
      ],
      "name": "RoleGranted",
      "type": "event"
    },
    {
      "anonymous": false,
      "inputs": [
        {
          "indexed": true,
          "internalType": "bytes32",
          "name": "role",
          "type": "bytes32"
        },
        {
          "indexed": true,
          "internalType": "address",
          "name": "account",
          "type": "address"
        },
        {
          "indexed": true,
          "internalType": "address",
          "name": "sender",
          "type": "address"
        }
      ],
      "name": "RoleRevoked",
      "type": "event"
    },
    {
      "anonymous": false,
      "inputs": [
        {
          "indexed": false,
          "internalType": "address",
          "name": "account",
          "type": "address"
        }
      ],
      "name": "Unpaused",
      "type": "event"
    },
    {
      "inputs": [],
      "name": "DEFAULT_ADMIN_ROLE",
      "outputs": [
        {
          "internalType": "bytes32",
          "name": "",
          "type": "bytes32"
        }
      ],
      "stateMutability": "view",
      "type": "function"
    },
    {
      "inputs": [],
      "name": "__PauserPausable__init",
      "outputs": [],
      "stateMutability": "nonpayable",
      "type": "function"
    },
    {
      "inputs": [
        {
          "internalType": "bytes32",
          "name": "role",
          "type": "bytes32"
        }
      ],
      "name": "getRoleAdmin",
      "outputs": [
        {
          "internalType": "bytes32",
          "name": "",
          "type": "bytes32"
        }
      ],
      "stateMutability": "view",
      "type": "function"
    },
    {
      "inputs": [
        {
          "internalType": "bytes32",
          "name": "role",
          "type": "bytes32"
        },
        {
          "internalType": "address",
          "name": "account",
          "type": "address"
        }
      ],
      "name": "grantRole",
      "outputs": [],
      "stateMutability": "nonpayable",
      "type": "function"
    },
    {
      "inputs": [
        {
          "internalType": "bytes32",
          "name": "role",
          "type": "bytes32"
        },
        {
          "internalType": "address",
          "name": "account",
          "type": "address"
        }
      ],
      "name": "hasRole",
      "outputs": [
        {
          "internalType": "bool",
          "name": "",
          "type": "bool"
        }
      ],
      "stateMutability": "view",
      "type": "function"
    },
    {
      "inputs": [],
      "name": "pause",
      "outputs": [],
      "stateMutability": "nonpayable",
      "type": "function"
    },
    {
      "inputs": [],
      "name": "paused",
      "outputs": [
        {
          "internalType": "bool",
          "name": "",
          "type": "bool"
        }
      ],
      "stateMutability": "view",
      "type": "function"
    },
    {
      "inputs": [
        {
          "internalType": "bytes32",
          "name": "role",
          "type": "bytes32"
        },
        {
          "internalType": "address",
          "name": "account",
          "type": "address"
        }
      ],
      "name": "renounceRole",
      "outputs": [],
      "stateMutability": "nonpayable",
      "type": "function"
    },
    {
      "inputs": [
        {
          "internalType": "bytes32",
          "name": "role",
          "type": "bytes32"
        },
        {
          "internalType": "address",
          "name": "account",
          "type": "address"
        }
      ],
      "name": "revokeRole",
      "outputs": [],
      "stateMutability": "nonpayable",
      "type": "function"
    },
    {
      "inputs": [
        {
          "internalType": "bytes4",
          "name": "interfaceId",
          "type": "bytes4"
        }
      ],
      "name": "supportsInterface",
      "outputs": [
        {
          "internalType": "bool",
          "name": "",
          "type": "bool"
        }
      ],
      "stateMutability": "view",
      "type": "function"
    },
    {
      "inputs": [],
      "name": "unpause",
      "outputs": [],
      "stateMutability": "nonpayable",
      "type": "function"
    }
  ],
  "bytecode": "0x608060405234801561001057600080fd5b50610d31806100206000396000f3fe608060405234801561001057600080fd5b50600436106100c95760003560e01c8063526d81f61161008157806391d148541161005b57806391d1485414610172578063a217fddf146101ab578063d547741f146101b357600080fd5b8063526d81f6146101575780635c975abb1461015f5780638456cb591461016a57600080fd5b80632f2ff15d116100b25780632f2ff15d1461012757806336568abe1461013c5780633f4ba83a1461014f57600080fd5b806301ffc9a7146100ce578063248a9ca3146100f6575b600080fd5b6100e16100dc366004610b73565b6101c6565b60405190151581526020015b60405180910390f35b610119610104366004610b21565b60009081526065602052604090206001015490565b6040519081526020016100ed565b61013a610135366004610b39565b61025f565b005b61013a61014a366004610b39565b610289565b61013a61031a565b61013a6103b0565b60975460ff166100e1565b61013a6104d0565b6100e1610180366004610b39565b60009182526065602090815260408084206001600160a01b0393909316845291905290205460ff1690565b610119600081565b61013a6101c1366004610b39565b610562565b60007fffffffff0000000000000000000000000000000000000000000000000000000082167f7965db0b00000000000000000000000000000000000000000000000000000000148061025957507f01ffc9a7000000000000000000000000000000000000000000000000000000007fffffffff000000000000000000000000000000000000000000000000000000008316145b92915050565b60008281526065602052604090206001015461027a81610587565b6102848383610591565b505050565b6001600160a01b038116331461030c5760405162461bcd60e51b815260206004820152602f60248201527f416363657373436f6e74726f6c3a2063616e206f6e6c792072656e6f756e636560448201527f20726f6c657320666f722073656c66000000000000000000000000000000000060648201526084015b60405180910390fd5b6103168282610633565b5050565b6103457f65d7a28e3265b37a6474929f336521b332c1681b933f6cb9f3376673440d862a5b33610180565b6103a65760405162461bcd60e51b815260206004820152602c60248201527f4d75737420686176652070617573657220726f6c6520746f20706572666f726d60448201526b103a3434b99030b1ba34b7b760a11b6064820152608401610303565b6103ae6106b6565b565b600054610100900460ff16158080156103d05750600054600160ff909116105b806103ea5750303b1580156103ea575060005460ff166001145b61045c5760405162461bcd60e51b815260206004820152602e60248201527f496e697469616c697a61626c653a20636f6e747261637420697320616c72656160448201527f647920696e697469616c697a65640000000000000000000000000000000000006064820152608401610303565b6000805460ff19166001179055801561047f576000805461ff0019166101001790555b610487610708565b80156104cd576000805461ff0019169055604051600181527f7f26b83ff96e1f2b6a682f133852f6798a09c465da95921460cefb38474024989060200160405180910390a15b50565b6104f97f65d7a28e3265b37a6474929f336521b332c1681b933f6cb9f3376673440d862a61033f565b61055a5760405162461bcd60e51b815260206004820152602c60248201527f4d75737420686176652070617573657220726f6c6520746f20706572666f726d60448201526b103a3434b99030b1ba34b7b760a11b6064820152608401610303565b6103ae610791565b60008281526065602052604090206001015461057d81610587565b6102848383610633565b6104cd81336107ce565b60008281526065602090815260408083206001600160a01b038516845290915290205460ff166103165760008281526065602090815260408083206001600160a01b03851684529091529020805460ff191660011790556105ef3390565b6001600160a01b0316816001600160a01b0316837f2f8788117e7eff1d82e926ec794901d17c78024a50270940304540a733656f0d60405160405180910390a45050565b60008281526065602090815260408083206001600160a01b038516845290915290205460ff16156103165760008281526065602090815260408083206001600160a01b0385168085529252808320805460ff1916905551339285917ff6391f5c32d9c69d2a47ea670b442974b53935d1edc7fd64eb21e047a839171b9190a45050565b6106be61084e565b6097805460ff191690557f5db9ee0a495bf2e6ff9c91a7834c1ba4fdd244a5e8aa4e537bd38aeae4b073aa335b6040516001600160a01b03909116815260200160405180910390a1565b600054610100900460ff166107855760405162461bcd60e51b815260206004820152602b60248201527f496e697469616c697a61626c653a20636f6e7472616374206973206e6f74206960448201527f6e697469616c697a696e670000000000000000000000000000000000000000006064820152608401610303565b6097805460ff19169055565b6107996108a0565b6097805460ff191660011790557f62e78cea01bee320cd4e420270b5ea74000d11b0c9f74754ebdbfc544b05a2586106eb3390565b60008281526065602090815260408083206001600160a01b038516845290915290205460ff166103165761080c816001600160a01b031660146108f3565b6108178360206108f3565b604051602001610828929190610bb3565b60408051601f198184030181529082905262461bcd60e51b825261030391600401610c34565b60975460ff166103ae5760405162461bcd60e51b815260206004820152601460248201527f5061757361626c653a206e6f74207061757365640000000000000000000000006044820152606401610303565b60975460ff16156103ae5760405162461bcd60e51b815260206004820152601060248201527f5061757361626c653a20706175736564000000000000000000000000000000006044820152606401610303565b60606000610902836002610c7f565b61090d906002610c67565b67ffffffffffffffff81111561093357634e487b7160e01b600052604160045260246000fd5b6040519080825280601f01601f19166020018201604052801561095d576020820181803683370190505b5090507f3000000000000000000000000000000000000000000000000000000000000000816000815181106109a257634e487b7160e01b600052603260045260246000fd5b60200101906001600160f81b031916908160001a9053507f7800000000000000000000000000000000000000000000000000000000000000816001815181106109fb57634e487b7160e01b600052603260045260246000fd5b60200101906001600160f81b031916908160001a9053506000610a1f846002610c7f565b610a2a906001610c67565b90505b6001811115610acb577f303132333435363738396162636465660000000000000000000000000000000085600f1660108110610a7957634e487b7160e01b600052603260045260246000fd5b1a60f81b828281518110610a9d57634e487b7160e01b600052603260045260246000fd5b60200101906001600160f81b031916908160001a90535060049490941c93610ac481610cce565b9050610a2d565b508315610b1a5760405162461bcd60e51b815260206004820181905260248201527f537472696e67733a20686578206c656e67746820696e73756666696369656e746044820152606401610303565b9392505050565b600060208284031215610b32578081fd5b5035919050565b60008060408385031215610b4b578081fd5b8235915060208301356001600160a01b0381168114610b68578182fd5b809150509250929050565b600060208284031215610b84578081fd5b81357fffffffff0000000000000000000000000000000000000000000000000000000081168114610b1a578182fd5b7f416363657373436f6e74726f6c3a206163636f756e7420000000000000000000815260008351610beb816017850160208801610c9e565b7f206973206d697373696e6720726f6c65200000000000000000000000000000006017918401918201528351610c28816028840160208801610c9e565b01602801949350505050565b6020815260008251806020840152610c53816040850160208701610c9e565b601f01601f19169190910160400192915050565b60008219821115610c7a57610c7a610ce5565b500190565b6000816000190483118215151615610c9957610c99610ce5565b500290565b60005b83811015610cb9578181015183820152602001610ca1565b83811115610cc8576000848401525b50505050565b600081610cdd57610cdd610ce5565b506000190190565b634e487b7160e01b600052601160045260246000fdfea2646970667358221220ad22a9335626f9e3a02da0a7f2e0ede5f9ca8b53b13c4ee614c77be431cefb4464736f6c63430008040033",
  "linkReferences": {},
  "deployedLinkReferences": {}
}