{
  "_format": "hh-sol-artifact-1",
  "contractName": "PauserPausable",
  "sourceName": "contracts/protocol/PauserPausable.sol",
  "abi": [
    {
      "anonymous": false,
      "inputs": [
        {
          "indexed": false,
          "internalType": "uint8",
          "name": "version",
          "type": "uint8"
        }
      ],
      "name": "Initialized",
      "type": "event"
    },
    {
      "anonymous": false,
      "inputs": [
        {
          "indexed": false,
          "internalType": "address",
          "name": "account",
          "type": "address"
        }
      ],
      "name": "Paused",
      "type": "event"
    },
    {
      "anonymous": false,
      "inputs": [
        {
          "indexed": true,
          "internalType": "bytes32",
          "name": "role",
          "type": "bytes32"
        },
        {
          "indexed": true,
          "internalType": "bytes32",
          "name": "previousAdminRole",
          "type": "bytes32"
        },
        {
          "indexed": true,
          "internalType": "bytes32",
          "name": "newAdminRole",
          "type": "bytes32"
        }
      ],
      "name": "RoleAdminChanged",
      "type": "event"
    },
    {
      "anonymous": false,
      "inputs": [
        {
          "indexed": true,
          "internalType": "bytes32",
          "name": "role",
          "type": "bytes32"
        },
        {
          "indexed": true,
          "internalType": "address",
          "name": "account",
          "type": "address"
        },
        {
          "indexed": true,
          "internalType": "address",
          "name": "sender",
          "type": "address"
        }
      ],
      "name": "RoleGranted",
      "type": "event"
    },
    {
      "anonymous": false,
      "inputs": [
        {
          "indexed": true,
          "internalType": "bytes32",
          "name": "role",
          "type": "bytes32"
        },
        {
          "indexed": true,
          "internalType": "address",
          "name": "account",
          "type": "address"
        },
        {
          "indexed": true,
          "internalType": "address",
          "name": "sender",
          "type": "address"
        }
      ],
      "name": "RoleRevoked",
      "type": "event"
    },
    {
      "anonymous": false,
      "inputs": [
        {
          "indexed": false,
          "internalType": "address",
          "name": "account",
          "type": "address"
        }
      ],
      "name": "Unpaused",
      "type": "event"
    },
    {
      "inputs": [],
      "name": "DEFAULT_ADMIN_ROLE",
      "outputs": [
        {
          "internalType": "bytes32",
          "name": "",
          "type": "bytes32"
        }
      ],
      "stateMutability": "view",
      "type": "function"
    },
    {
      "inputs": [],
      "name": "__PauserPausable__init",
      "outputs": [],
      "stateMutability": "nonpayable",
      "type": "function"
    },
    {
      "inputs": [
        {
          "internalType": "bytes32",
          "name": "role",
          "type": "bytes32"
        }
      ],
      "name": "getRoleAdmin",
      "outputs": [
        {
          "internalType": "bytes32",
          "name": "",
          "type": "bytes32"
        }
      ],
      "stateMutability": "view",
      "type": "function"
    },
    {
      "inputs": [
        {
          "internalType": "bytes32",
          "name": "role",
          "type": "bytes32"
        },
        {
          "internalType": "address",
          "name": "account",
          "type": "address"
        }
      ],
      "name": "grantRole",
      "outputs": [],
      "stateMutability": "nonpayable",
      "type": "function"
    },
    {
      "inputs": [
        {
          "internalType": "bytes32",
          "name": "role",
          "type": "bytes32"
        },
        {
          "internalType": "address",
          "name": "account",
          "type": "address"
        }
      ],
      "name": "hasRole",
      "outputs": [
        {
          "internalType": "bool",
          "name": "",
          "type": "bool"
        }
      ],
      "stateMutability": "view",
      "type": "function"
    },
    {
      "inputs": [],
      "name": "pause",
      "outputs": [],
      "stateMutability": "nonpayable",
      "type": "function"
    },
    {
      "inputs": [],
      "name": "paused",
      "outputs": [
        {
          "internalType": "bool",
          "name": "",
          "type": "bool"
        }
      ],
      "stateMutability": "view",
      "type": "function"
    },
    {
      "inputs": [
        {
          "internalType": "bytes32",
          "name": "role",
          "type": "bytes32"
        },
        {
          "internalType": "address",
          "name": "account",
          "type": "address"
        }
      ],
      "name": "renounceRole",
      "outputs": [],
      "stateMutability": "nonpayable",
      "type": "function"
    },
    {
      "inputs": [
        {
          "internalType": "bytes32",
          "name": "role",
          "type": "bytes32"
        },
        {
          "internalType": "address",
          "name": "account",
          "type": "address"
        }
      ],
      "name": "revokeRole",
      "outputs": [],
      "stateMutability": "nonpayable",
      "type": "function"
    },
    {
      "inputs": [
        {
          "internalType": "bytes4",
          "name": "interfaceId",
          "type": "bytes4"
        }
      ],
      "name": "supportsInterface",
      "outputs": [
        {
          "internalType": "bool",
          "name": "",
          "type": "bool"
        }
      ],
      "stateMutability": "view",
      "type": "function"
    },
    {
      "inputs": [],
      "name": "unpause",
      "outputs": [],
      "stateMutability": "nonpayable",
      "type": "function"
    }
  ],
  "bytecode": "0x608060405234801561001057600080fd5b50610b75806100206000396000f3fe608060405234801561001057600080fd5b50600436106100a95760003560e01c8063526d81f611610071578063526d81f6146101375780635c975abb1461013f5780638456cb591461014a57806391d1485414610152578063a217fddf14610165578063d547741f1461016d57600080fd5b806301ffc9a7146100ae578063248a9ca3146100d65780632f2ff15d1461010757806336568abe1461011c5780633f4ba83a1461012f575b600080fd5b6100c16100bc366004610995565b610180565b60405190151581526020015b60405180910390f35b6100f96100e4366004610943565b60009081526065602052604090206001015490565b6040519081526020016100cd565b61011a61011536600461095b565b6101b7565b005b61011a61012a36600461095b565b6101e1565b61011a610264565b61011a6102b5565b60975460ff166100c1565b61011a6103c6565b6100c161016036600461095b565b610413565b6100f9600081565b61011a61017b36600461095b565b61043e565b60006001600160e01b03198216637965db0b60e01b14806101b157506301ffc9a760e01b6001600160e01b03198316145b92915050565b6000828152606560205260409020600101546101d281610463565b6101dc838361046d565b505050565b6001600160a01b03811633146102565760405162461bcd60e51b815260206004820152602f60248201527f416363657373436f6e74726f6c3a2063616e206f6e6c792072656e6f756e636560448201526e103937b632b9903337b91039b2b63360891b60648201526084015b60405180910390fd5b61026082826104f3565b5050565b61028f7f65d7a28e3265b37a6474929f336521b332c1681b933f6cb9f3376673440d862a5b33610413565b6102ab5760405162461bcd60e51b815260040161024d90610a5f565b6102b361055a565b565b600054610100900460ff16158080156102d55750600054600160ff909116105b806102ef5750303b1580156102ef575060005460ff166001145b6103525760405162461bcd60e51b815260206004820152602e60248201527f496e697469616c697a61626c653a20636f6e747261637420697320616c72656160448201526d191e481a5b9a5d1a585b1a5e995960921b606482015260840161024d565b6000805460ff191660011790558015610375576000805461ff0019166101001790555b61037d6105ac565b80156103c3576000805461ff0019169055604051600181527f7f26b83ff96e1f2b6a682f133852f6798a09c465da95921460cefb38474024989060200160405180910390a15b50565b6103ef7f65d7a28e3265b37a6474929f336521b332c1681b933f6cb9f3376673440d862a610289565b61040b5760405162461bcd60e51b815260040161024d90610a5f565b6102b3610623565b60009182526065602090815260408084206001600160a01b0393909316845291905290205460ff1690565b60008281526065602052604090206001015461045981610463565b6101dc83836104f3565b6103c38133610660565b6104778282610413565b6102605760008281526065602090815260408083206001600160a01b03851684529091529020805460ff191660011790556104af3390565b6001600160a01b0316816001600160a01b0316837f2f8788117e7eff1d82e926ec794901d17c78024a50270940304540a733656f0d60405160405180910390a45050565b6104fd8282610413565b156102605760008281526065602090815260408083206001600160a01b0385168085529252808320805460ff1916905551339285917ff6391f5c32d9c69d2a47ea670b442974b53935d1edc7fd64eb21e047a839171b9190a45050565b6105626106b9565b6097805460ff191690557f5db9ee0a495bf2e6ff9c91a7834c1ba4fdd244a5e8aa4e537bd38aeae4b073aa335b6040516001600160a01b03909116815260200160405180910390a1565b600054610100900460ff166106175760405162461bcd60e51b815260206004820152602b60248201527f496e697469616c697a61626c653a20636f6e7472616374206973206e6f74206960448201526a6e697469616c697a696e6760a81b606482015260840161024d565b6097805460ff19169055565b61062b610702565b6097805460ff191660011790557f62e78cea01bee320cd4e420270b5ea74000d11b0c9f74754ebdbfc544b05a25861058f3390565b61066a8282610413565b6102605761067781610748565b61068283602061075a565b6040516020016106939291906109bd565b60408051601f198184030181529082905262461bcd60e51b825261024d91600401610a2c565b60975460ff166102b35760405162461bcd60e51b815260206004820152601460248201527314185d5cd8589b194e881b9bdd081c185d5cd95960621b604482015260640161024d565b60975460ff16156102b35760405162461bcd60e51b815260206004820152601060248201526f14185d5cd8589b194e881c185d5cd95960821b604482015260640161024d565b60606101b16001600160a01b03831660145b60606000610769836002610ac3565b610774906002610aab565b67ffffffffffffffff81111561079a57634e487b7160e01b600052604160045260246000fd5b6040519080825280601f01601f1916602001820160405280156107c4576020820181803683370190505b509050600360fc1b816000815181106107ed57634e487b7160e01b600052603260045260246000fd5b60200101906001600160f81b031916908160001a905350600f60fb1b8160018151811061082a57634e487b7160e01b600052603260045260246000fd5b60200101906001600160f81b031916908160001a905350600061084e846002610ac3565b610859906001610aab565b90505b60018111156108ed576f181899199a1a9b1b9c1cb0b131b232b360811b85600f166010811061089b57634e487b7160e01b600052603260045260246000fd5b1a60f81b8282815181106108bf57634e487b7160e01b600052603260045260246000fd5b60200101906001600160f81b031916908160001a90535060049490941c936108e681610b12565b905061085c565b50831561093c5760405162461bcd60e51b815260206004820181905260248201527f537472696e67733a20686578206c656e67746820696e73756666696369656e74604482015260640161024d565b9392505050565b600060208284031215610954578081fd5b5035919050565b6000806040838503121561096d578081fd5b8235915060208301356001600160a01b038116811461098a578182fd5b809150509250929050565b6000602082840312156109a6578081fd5b81356001600160e01b03198116811461093c578182fd5b76020b1b1b2b9b9a1b7b73a3937b61d1030b1b1b7bab73a1604d1b8152600083516109ef816017850160208801610ae2565b7001034b99036b4b9b9b4b733903937b6329607d1b6017918401918201528351610a20816028840160208801610ae2565b01602801949350505050565b6020815260008251806020840152610a4b816040850160208701610ae2565b601f01601f19169190910160400192915050565b6020808252602c908201527f4d75737420686176652070617573657220726f6c6520746f20706572666f726d60408201526b103a3434b99030b1ba34b7b760a11b606082015260800190565b60008219821115610abe57610abe610b29565b500190565b6000816000190483118215151615610add57610add610b29565b500290565b60005b83811015610afd578181015183820152602001610ae5565b83811115610b0c576000848401525b50505050565b600081610b2157610b21610b29565b506000190190565b634e487b7160e01b600052601160045260246000fdfea264697066735822122074591a45adba16e28221dd32a46311638450509139c67f8b1a023ab16cdbb8d964736f6c63430008040033",
  "linkReferences": {},
  "deployedLinkReferences": {}
}