{
  "_format": "hh-sol-artifact-1",
  "contractName": "MockSeniorPool",
  "sourceName": "contracts/test-contract/MockSeniorPool.sol",
  "abi": [
    {
      "inputs": [
        {
          "internalType": "address",
          "name": "seniorPoolContractAddress",
          "type": "address"
        },
        {
          "internalType": "address",
          "name": "usdcContractAddress",
          "type": "address"
        }
      ],
      "stateMutability": "nonpayable",
      "type": "constructor"
    },
    {
      "inputs": [
        {
          "internalType": "uint256",
          "name": "amount",
          "type": "uint256"
        }
      ],
      "name": "stake",
      "outputs": [],
      "stateMutability": "nonpayable",
      "type": "function"
    },
    {
      "inputs": [
        {
          "internalType": "uint256",
          "name": "amount",
          "type": "uint256"
        }
      ],
      "name": "withdrawWithLP",
      "outputs": [],
      "stateMutability": "nonpayable",
      "type": "function"
    }
  ],
  "bytecode": "0x608060405234801561001057600080fd5b506040516102bd3803806102bd83398101604081905261002f9161007c565b600080546001600160a01b039384166001600160a01b031991821617909155600180549290931691161790556100ae565b80516001600160a01b038116811461007757600080fd5b919050565b6000806040838503121561008e578182fd5b61009783610060565b91506100a560208401610060565b90509250929050565b610200806100bd6000396000f3fe608060405234801561001057600080fd5b50600436106100365760003560e01c8063a694fc3a1461003b578063a972f0a014610050575b600080fd5b61004e6100493660046101b2565b610063565b005b61004e61005e3660046101b2565b6100ce565b61006c816100ff565b60005460405163534a7e1d60e11b8152600481018390526001600160a01b039091169063a694fc3a906024015b600060405180830381600087803b1580156100b357600080fd5b505af11580156100c7573d6000803e3d6000fd5b5050505050565b60005460405163054b978560e51b8152600481018390526001600160a01b039091169063a972f0a090602401610099565b60015460005460405163095ea7b360e01b81526001600160a01b0391821660048201526024810184905291169063095ea7b390604401602060405180830381600087803b15801561014f57600080fd5b505af1158015610163573d6000803e3d6000fd5b505050506040513d601f19601f82011682018060405250810190610187919061018b565b5050565b60006020828403121561019c578081fd5b815180151581146101ab578182fd5b9392505050565b6000602082840312156101c3578081fd5b503591905056fea26469706673582212205590a75036bee18ad03c310294da6f1ddb426808f5b62678e204af601abfa8a464736f6c63430008040033",
  "linkReferences": {},
  "deployedLinkReferences": {}
}