{
  "_format": "hh-sol-artifact-1",
  "contractName": "Accounting",
  "sourceName": "contracts/protocol/Accounting.sol",
  "abi": [
    {
      "inputs": [],
      "name": "currentDecimals",
      "outputs": [
        {
          "internalType": "uint256",
          "name": "",
          "type": "uint256"
        }
      ],
      "stateMutability": "view",
      "type": "function"
    }
  ],
  "bytecode": "0x6087610038600b82828239805160001a607314602b57634e487b7160e01b600052600060045260246000fd5b30600052607381538281f3fe730000000000000000000000000000000000000000301460806040526004361060335760003560e01c80634118b184146038575b600080fd5b603f600681565b60405190815260200160405180910390f3fea2646970667358221220c57255489c49a5a8c008bba92e0e6c0a12391bb9b5aa07b4a99840897054a77a64736f6c63430008040033",
  "linkReferences": {},
  "deployedLinkReferences": {}
}