{
  "_format": "hh-sol-artifact-1",
  "contractName": "DygnifyConfig",
  "sourceName": "contracts/protocol/DygnifyConfig.sol",
  "abi": [
    {
      "anonymous": false,
      "inputs": [
        {
          "indexed": false,
          "internalType": "address",
          "name": "previousAdmin",
          "type": "address"
        },
        {
          "indexed": false,
          "internalType": "address",
          "name": "newAdmin",
          "type": "address"
        }
      ],
      "name": "AdminChanged",
      "type": "event"
    },
    {
      "anonymous": false,
      "inputs": [
        {
          "indexed": true,
          "internalType": "address",
          "name": "beacon",
          "type": "address"
        }
      ],
      "name": "BeaconUpgraded",
      "type": "event"
    },
    {
      "anonymous": false,
      "inputs": [
        {
          "indexed": false,
          "internalType": "uint8",
          "name": "version",
          "type": "uint8"
        }
      ],
      "name": "Initialized",
      "type": "event"
    },
    {
      "anonymous": false,
      "inputs": [
        {
          "indexed": false,
          "internalType": "address",
          "name": "account",
          "type": "address"
        }
      ],
      "name": "Paused",
      "type": "event"
    },
    {
      "anonymous": false,
      "inputs": [
        {
          "indexed": true,
          "internalType": "bytes32",
          "name": "role",
          "type": "bytes32"
        },
        {
          "indexed": true,
          "internalType": "bytes32",
          "name": "previousAdminRole",
          "type": "bytes32"
        },
        {
          "indexed": true,
          "internalType": "bytes32",
          "name": "newAdminRole",
          "type": "bytes32"
        }
      ],
      "name": "RoleAdminChanged",
      "type": "event"
    },
    {
      "anonymous": false,
      "inputs": [
        {
          "indexed": true,
          "internalType": "bytes32",
          "name": "role",
          "type": "bytes32"
        },
        {
          "indexed": true,
          "internalType": "address",
          "name": "account",
          "type": "address"
        },
        {
          "indexed": true,
          "internalType": "address",
          "name": "sender",
          "type": "address"
        }
      ],
      "name": "RoleGranted",
      "type": "event"
    },
    {
      "anonymous": false,
      "inputs": [
        {
          "indexed": true,
          "internalType": "bytes32",
          "name": "role",
          "type": "bytes32"
        },
        {
          "indexed": true,
          "internalType": "address",
          "name": "account",
          "type": "address"
        },
        {
          "indexed": true,
          "internalType": "address",
          "name": "sender",
          "type": "address"
        }
      ],
      "name": "RoleRevoked",
      "type": "event"
    },
    {
      "anonymous": false,
      "inputs": [
        {
          "indexed": false,
          "internalType": "address",
          "name": "account",
          "type": "address"
        }
      ],
      "name": "Unpaused",
      "type": "event"
    },
    {
      "anonymous": false,
      "inputs": [
        {
          "indexed": true,
          "internalType": "address",
          "name": "implementation",
          "type": "address"
        }
      ],
      "name": "Upgraded",
      "type": "event"
    },
    {
      "inputs": [],
      "name": "DEFAULT_ADMIN_ROLE",
      "outputs": [
        {
          "internalType": "bytes32",
          "name": "",
          "type": "bytes32"
        }
      ],
      "stateMutability": "view",
      "type": "function"
    },
    {
      "inputs": [
        {
          "internalType": "address",
          "name": "owner",
          "type": "address"
        }
      ],
      "name": "_BaseUpgradeablePausable_init",
      "outputs": [],
      "stateMutability": "nonpayable",
      "type": "function"
    },
    {
      "inputs": [],
      "name": "__PauserPausable__init",
      "outputs": [],
      "stateMutability": "nonpayable",
      "type": "function"
    },
    {
      "inputs": [
        {
          "internalType": "uint256",
          "name": "",
          "type": "uint256"
        }
      ],
      "name": "addresses",
      "outputs": [
        {
          "internalType": "address",
          "name": "",
          "type": "address"
        }
      ],
      "stateMutability": "view",
      "type": "function"
    },
    {
      "inputs": [
        {
          "internalType": "bytes32",
          "name": "",
          "type": "bytes32"
        }
      ],
      "name": "flag",
      "outputs": [
        {
          "internalType": "bool",
          "name": "",
          "type": "bool"
        }
      ],
      "stateMutability": "view",
      "type": "function"
    },
    {
      "inputs": [
        {
          "internalType": "uint256",
          "name": "addressIndex",
          "type": "uint256"
        }
      ],
      "name": "getAddress",
      "outputs": [
        {
          "internalType": "address",
          "name": "",
          "type": "address"
        }
      ],
      "stateMutability": "view",
      "type": "function"
    },
    {
      "inputs": [
        {
          "internalType": "bytes32",
          "name": "id",
          "type": "bytes32"
        }
      ],
      "name": "getFlag",
      "outputs": [
        {
          "internalType": "bool",
          "name": "",
          "type": "bool"
        }
      ],
      "stateMutability": "view",
      "type": "function"
    },
    {
      "inputs": [
        {
          "internalType": "uint256",
          "name": "id",
          "type": "uint256"
        }
      ],
      "name": "getNumber",
      "outputs": [
        {
          "internalType": "uint256",
          "name": "",
          "type": "uint256"
        }
      ],
      "stateMutability": "view",
      "type": "function"
    },
    {
      "inputs": [
        {
          "internalType": "bytes32",
          "name": "role",
          "type": "bytes32"
        }
      ],
      "name": "getRoleAdmin",
      "outputs": [
        {
          "internalType": "bytes32",
          "name": "",
          "type": "bytes32"
        }
      ],
      "stateMutability": "view",
      "type": "function"
    },
    {
      "inputs": [
        {
          "internalType": "bytes32",
          "name": "role",
          "type": "bytes32"
        },
        {
          "internalType": "address",
          "name": "account",
          "type": "address"
        }
      ],
      "name": "grantRole",
      "outputs": [],
      "stateMutability": "nonpayable",
      "type": "function"
    },
    {
      "inputs": [
        {
          "internalType": "bytes32",
          "name": "role",
          "type": "bytes32"
        },
        {
          "internalType": "address",
          "name": "account",
          "type": "address"
        }
      ],
      "name": "hasRole",
      "outputs": [
        {
          "internalType": "bool",
          "name": "",
          "type": "bool"
        }
      ],
      "stateMutability": "view",
      "type": "function"
    },
    {
      "inputs": [],
      "name": "initialize",
      "outputs": [],
      "stateMutability": "nonpayable",
      "type": "function"
    },
    {
      "inputs": [],
      "name": "isAdmin",
      "outputs": [
        {
          "internalType": "bool",
          "name": "",
          "type": "bool"
        }
      ],
      "stateMutability": "view",
      "type": "function"
    },
    {
      "inputs": [
        {
          "internalType": "uint256",
          "name": "",
          "type": "uint256"
        }
      ],
      "name": "numbers",
      "outputs": [
        {
          "internalType": "uint256",
          "name": "",
          "type": "uint256"
        }
      ],
      "stateMutability": "view",
      "type": "function"
    },
    {
      "inputs": [],
      "name": "pause",
      "outputs": [],
      "stateMutability": "nonpayable",
      "type": "function"
    },
    {
      "inputs": [],
      "name": "paused",
      "outputs": [
        {
          "internalType": "bool",
          "name": "",
          "type": "bool"
        }
      ],
      "stateMutability": "view",
      "type": "function"
    },
    {
      "inputs": [],
      "name": "proxiableUUID",
      "outputs": [
        {
          "internalType": "bytes32",
          "name": "",
          "type": "bytes32"
        }
      ],
      "stateMutability": "view",
      "type": "function"
    },
    {
      "inputs": [
        {
          "internalType": "bytes32",
          "name": "role",
          "type": "bytes32"
        },
        {
          "internalType": "address",
          "name": "account",
          "type": "address"
        }
      ],
      "name": "renounceRole",
      "outputs": [],
      "stateMutability": "nonpayable",
      "type": "function"
    },
    {
      "inputs": [
        {
          "internalType": "bytes32",
          "name": "role",
          "type": "bytes32"
        },
        {
          "internalType": "address",
          "name": "account",
          "type": "address"
        }
      ],
      "name": "revokeRole",
      "outputs": [],
      "stateMutability": "nonpayable",
      "type": "function"
    },
    {
      "inputs": [
        {
          "internalType": "uint256",
          "name": "addressIndex",
          "type": "uint256"
        },
        {
          "internalType": "address",
          "name": "newAddress",
          "type": "address"
        }
      ],
      "name": "setAddress",
      "outputs": [],
      "stateMutability": "nonpayable",
      "type": "function"
    },
    {
      "inputs": [
        {
          "internalType": "bytes32",
          "name": "id",
          "type": "bytes32"
        },
        {
          "internalType": "bool",
          "name": "isflag",
          "type": "bool"
        }
      ],
      "name": "setFlag",
      "outputs": [],
      "stateMutability": "nonpayable",
      "type": "function"
    },
    {
      "inputs": [
        {
          "internalType": "uint256",
          "name": "id",
          "type": "uint256"
        },
        {
          "internalType": "uint256",
          "name": "newNumber",
          "type": "uint256"
        }
      ],
      "name": "setNumber",
      "outputs": [],
      "stateMutability": "nonpayable",
      "type": "function"
    },
    {
      "inputs": [
        {
          "internalType": "bytes4",
          "name": "interfaceId",
          "type": "bytes4"
        }
      ],
      "name": "supportsInterface",
      "outputs": [
        {
          "internalType": "bool",
          "name": "",
          "type": "bool"
        }
      ],
      "stateMutability": "view",
      "type": "function"
    },
    {
      "inputs": [],
      "name": "unpause",
      "outputs": [],
      "stateMutability": "nonpayable",
      "type": "function"
    },
    {
      "inputs": [
        {
          "internalType": "address",
          "name": "newImplementation",
          "type": "address"
        }
      ],
      "name": "upgradeTo",
      "outputs": [],
      "stateMutability": "nonpayable",
      "type": "function"
    },
    {
      "inputs": [
        {
          "internalType": "address",
          "name": "newImplementation",
          "type": "address"
        },
        {
          "internalType": "bytes",
          "name": "data",
          "type": "bytes"
        }
      ],
      "name": "upgradeToAndCall",
      "outputs": [],
      "stateMutability": "payable",
      "type": "function"
    }
  ],
  "bytecode": "0x60a06040523060601b60805234801561001757600080fd5b5060805160601c611c03610052600039600081816105ec0152818161062c0152818161075e0152818161079e01526108df0152611c036000f3fe6080604052600436106101615760003560e01c80638129fc1c116100c1578063b6db75a01161007a578063b6db75a0146103b5578063b93f9b0a146103ca578063d39fa23314610419578063d547741f14610447578063e4a3d78414610467578063edf26d9b14610498578063fc563658146104cf57600080fd5b80638129fc1c146103165780638456cb591461032b57806391d1485414610340578063a12dde4d14610360578063a217fddf14610380578063ac4ce2c61461039557600080fd5b80633f4ba83a1161011e5780633f4ba83a1461025b5780634f1ef28614610270578063526d81f61461028357806352d1902d146102985780635c975abb146102ad5780636b19e8c7146102c557806378165a48146102e557600080fd5b806301ffc9a714610166578063248a9ca31461019b5780632f2ff15d146101d957806336568abe146101fb5780633659cfe61461021b57806339b220bb1461023b575b600080fd5b34801561017257600080fd5b506101866101813660046117da565b6104fd565b60405190151581526020015b60405180910390f35b3480156101a757600080fd5b506101cb6101b636600461174c565b60009081526065602052604090206001015490565b604051908152602001610192565b3480156101e557600080fd5b506101f96101f436600461177c565b610534565b005b34801561020757600080fd5b506101f961021636600461177c565b61055e565b34801561022757600080fd5b506101f9610236366004611675565b6105e1565b34801561024757600080fd5b506101f96102563660046117a7565b6106aa565b34801561026757600080fd5b506101f961071c565b6101f961027e36600461168f565b610753565b34801561028f57600080fd5b506101f9610809565b3480156102a457600080fd5b506101cb6108d2565b3480156102b957600080fd5b5060975460ff16610186565b3480156102d157600080fd5b506101f96102e0366004611802565b610980565b3480156102f157600080fd5b5061018661030036600461174c565b6101616020526000908152604090205460ff1681565b34801561032257600080fd5b506101f96109e4565b34801561033757600080fd5b506101f9610ab7565b34801561034c57600080fd5b5061018661035b36600461177c565b610ae6565b34801561036c57600080fd5b506101f961037b366004611675565b610b11565b34801561038c57600080fd5b506101cb600081565b3480156103a157600080fd5b506101f96103b036600461177c565b610be5565b3480156103c157600080fd5b50610186610cad565b3480156103d657600080fd5b506104016103e536600461174c565b600090815261015f60205260409020546001600160a01b031690565b6040516001600160a01b039091168152602001610192565b34801561042557600080fd5b506101cb61043436600461174c565b6101606020526000908152604090205481565b34801561045357600080fd5b506101f961046236600461177c565b610cbf565b34801561047357600080fd5b5061018661048236600461174c565b6000908152610161602052604090205460ff1690565b3480156104a457600080fd5b506104016104b336600461174c565b61015f602052600090815260409020546001600160a01b031681565b3480156104db57600080fd5b506101cb6104ea36600461174c565b6000908152610160602052604090205490565b60006001600160e01b03198216637965db0b60e01b148061052e57506301ffc9a760e01b6001600160e01b03198316145b92915050565b60008281526065602052604090206001015461054f81610ce4565b6105598383610cee565b505050565b6001600160a01b03811633146105d35760405162461bcd60e51b815260206004820152602f60248201527f416363657373436f6e74726f6c3a2063616e206f6e6c792072656e6f756e636560448201526e103937b632b9903337b91039b2b63360891b60648201526084015b60405180910390fd5b6105dd8282610d74565b5050565b306001600160a01b037f000000000000000000000000000000000000000000000000000000000000000016141561062a5760405162461bcd60e51b81526004016105ca9061192d565b7f00000000000000000000000000000000000000000000000000000000000000006001600160a01b031661065c610ddb565b6001600160a01b0316146106825760405162461bcd60e51b81526004016105ca90611979565b61068b81610df7565b604080516000808252602082019092526106a791839190610e1b565b50565b600260c95414156106cd5760405162461bcd60e51b81526004016105ca90611a5e565b600260c9556106da610cad565b6106f65760405162461bcd60e51b81526004016105ca90611a95565b60009182526101616020526040909120805460ff1916911515919091179055600160c955565b61072d610727610f95565b33610ae6565b6107495760405162461bcd60e51b81526004016105ca906118e1565b610751610fb9565b565b306001600160a01b037f000000000000000000000000000000000000000000000000000000000000000016141561079c5760405162461bcd60e51b81526004016105ca9061192d565b7f00000000000000000000000000000000000000000000000000000000000000006001600160a01b03166107ce610ddb565b6001600160a01b0316146107f45760405162461bcd60e51b81526004016105ca90611979565b6107fd82610df7565b6105dd82826001610e1b565b600054610100900460ff16158080156108295750600054600160ff909116105b806108435750303b158015610843575060005460ff166001145b61085f5760405162461bcd60e51b81526004016105ca906119c5565b6000805460ff191660011790558015610882576000805461ff0019166101001790555b61088a61100b565b80156106a7576000805461ff0019169055604051600181527f7f26b83ff96e1f2b6a682f133852f6798a09c465da95921460cefb38474024989060200160405180910390a150565b6000306001600160a01b037f0000000000000000000000000000000000000000000000000000000000000000161461096d5760405162461bcd60e51b815260206004820152603860248201527f555550535570677261646561626c653a206d757374206e6f742062652063616c6044820152771b1959081d1a1c9bdd59da0819195b1959d85d1958d85b1b60421b60648201526084016105ca565b50600080516020611b8783398151915290565b600260c95414156109a35760405162461bcd60e51b81526004016105ca90611a5e565b600260c9556109b0610cad565b6109cc5760405162461bcd60e51b81526004016105ca90611a95565b6000918252610160602052604090912055600160c955565b600054610100900460ff1615808015610a045750600054600160ff909116105b80610a1e5750303b158015610a1e575060005460ff166001145b610a3a5760405162461bcd60e51b81526004016105ca906119c5565b6000805460ff191660011790558015610a5d576000805461ff0019166101001790555b33610aa35760405162461bcd60e51b8152602060048201526016602482015275496e76616c69642073656e646572206164647265737360501b60448201526064016105ca565b610aac33610b11565b61088a600033610be5565b610ac2610727610f95565b610ade5760405162461bcd60e51b81526004016105ca906118e1565b61075161103e565b60009182526065602090815260408084206001600160a01b0393909316845291905290205460ff1690565b600054610100900460ff16610b385760405162461bcd60e51b81526004016105ca90611a13565b6001600160a01b038116610b8e5760405162461bcd60e51b815260206004820181905260248201527f4f776e65722063616e6e6f7420626520746865207a65726f206164647265737360448201526064016105ca565b610b9661107b565b610b9e61100b565b610ba66110a2565b610bb7610bb16110d0565b826110f4565b610bc2610bb1610f95565b610bda610bcd610f95565b610bd56110d0565b6110fe565b6106a7610bcd6110d0565b600260c9541415610c085760405162461bcd60e51b81526004016105ca90611a5e565b600260c955610c15610cad565b610c315760405162461bcd60e51b81526004016105ca90611a95565b6001600160a01b038116610c795760405162461bcd60e51b815260206004820152600f60248201526e496e76616c6964204164647265737360881b60448201526064016105ca565b600091825261015f602052604090912080546001600160a01b0319166001600160a01b03909216919091179055600160c955565b6000610cba6107276110d0565b905090565b600082815260656020526040902060010154610cda81610ce4565b6105598383610d74565b6106a78133611149565b610cf88282610ae6565b6105dd5760008281526065602090815260408083206001600160a01b03851684529091529020805460ff19166001179055610d303390565b6001600160a01b0316816001600160a01b0316837f2f8788117e7eff1d82e926ec794901d17c78024a50270940304540a733656f0d60405160405180910390a45050565b610d7e8282610ae6565b156105dd5760008281526065602090815260408083206001600160a01b0385168085529252808320805460ff1916905551339285917ff6391f5c32d9c69d2a47ea670b442974b53935d1edc7fd64eb21e047a839171b9190a45050565b600080516020611b87833981519152546001600160a01b031690565b610dff610cad565b6106a75760405162461bcd60e51b81526004016105ca90611a95565b7f4910fdfa16fed3260ed0e7147f7cc6da11a60208b5b9406d12a635614ffd91435460ff1615610e4e57610559836111ad565b826001600160a01b03166352d1902d6040518163ffffffff1660e01b815260040160206040518083038186803b158015610e8757600080fd5b505afa925050508015610eb7575060408051601f3d908101601f19168201909252610eb491810190611764565b60015b610f1a5760405162461bcd60e51b815260206004820152602e60248201527f45524331393637557067726164653a206e657720696d706c656d656e7461746960448201526d6f6e206973206e6f74205555505360901b60648201526084016105ca565b600080516020611b878339815191528114610f895760405162461bcd60e51b815260206004820152602960248201527f45524331393637557067726164653a20756e737570706f727465642070726f786044820152681a58589b195555525160ba1b60648201526084016105ca565b50610559838383611249565b7f65d7a28e3265b37a6474929f336521b332c1681b933f6cb9f3376673440d862a90565b610fc1611274565b6097805460ff191690557f5db9ee0a495bf2e6ff9c91a7834c1ba4fdd244a5e8aa4e537bd38aeae4b073aa335b6040516001600160a01b03909116815260200160405180910390a1565b600054610100900460ff166110325760405162461bcd60e51b81526004016105ca90611a13565b6097805460ff19169055565b6110466112bd565b6097805460ff191660011790557f62e78cea01bee320cd4e420270b5ea74000d11b0c9f74754ebdbfc544b05a258610fee3390565b600054610100900460ff166107515760405162461bcd60e51b81526004016105ca90611a13565b600054610100900460ff166110c95760405162461bcd60e51b81526004016105ca90611a13565b600160c955565b7fa49807205ce4d355092ef5a8a18f56e8913cf4a201fbe287825b095693c2177590565b6105dd8282610cee565b600082815260656020526040808220600101805490849055905190918391839186917fbd79b86ffe0ab8e8776151514217cd7cacd52c909f66475c3af44e129f0b00ff9190a4505050565b6111538282610ae6565b6105dd5761116b816001600160a01b03166014611303565b611176836020611303565b60405160200161118792919061183f565b60408051601f198184030181529082905262461bcd60e51b82526105ca916004016118ae565b6001600160a01b0381163b61121a5760405162461bcd60e51b815260206004820152602d60248201527f455243313936373a206e657720696d706c656d656e746174696f6e206973206e60448201526c1bdd08184818dbdb9d1c9858dd609a1b60648201526084016105ca565b600080516020611b8783398151915280546001600160a01b0319166001600160a01b0392909216919091179055565b611252836114ec565b60008251118061125f5750805b156105595761126e838361152c565b50505050565b60975460ff166107515760405162461bcd60e51b815260206004820152601460248201527314185d5cd8589b194e881b9bdd081c185d5cd95960621b60448201526064016105ca565b60975460ff16156107515760405162461bcd60e51b815260206004820152601060248201526f14185d5cd8589b194e881c185d5cd95960821b60448201526064016105ca565b60606000611312836002611af8565b61131d906002611ae0565b67ffffffffffffffff81111561134357634e487b7160e01b600052604160045260246000fd5b6040519080825280601f01601f19166020018201604052801561136d576020820181803683370190505b509050600360fc1b8160008151811061139657634e487b7160e01b600052603260045260246000fd5b60200101906001600160f81b031916908160001a905350600f60fb1b816001815181106113d357634e487b7160e01b600052603260045260246000fd5b60200101906001600160f81b031916908160001a90535060006113f7846002611af8565b611402906001611ae0565b90505b6001811115611496576f181899199a1a9b1b9c1cb0b131b232b360811b85600f166010811061144457634e487b7160e01b600052603260045260246000fd5b1a60f81b82828151811061146857634e487b7160e01b600052603260045260246000fd5b60200101906001600160f81b031916908160001a90535060049490941c9361148f81611b43565b9050611405565b5083156114e55760405162461bcd60e51b815260206004820181905260248201527f537472696e67733a20686578206c656e67746820696e73756666696369656e7460448201526064016105ca565b9392505050565b6114f5816111ad565b6040516001600160a01b038216907fbc7cd75a20ee27fd9adebab32041f755214dbc6bffa90cc0225b39da2e5c2d3b90600090a250565b60606001600160a01b0383163b6115945760405162461bcd60e51b815260206004820152602660248201527f416464726573733a2064656c65676174652063616c6c20746f206e6f6e2d636f6044820152651b9d1c9858dd60d21b60648201526084016105ca565b600080846001600160a01b0316846040516115af9190611823565b600060405180830381855af49150503d80600081146115ea576040519150601f19603f3d011682016040523d82523d6000602084013e6115ef565b606091505b50915091506116178282604051806060016040528060278152602001611ba760279139611620565b95945050505050565b6060831561162f5750816114e5565b82511561163f5782518084602001fd5b8160405162461bcd60e51b81526004016105ca91906118ae565b80356001600160a01b038116811461167057600080fd5b919050565b600060208284031215611686578081fd5b6114e582611659565b600080604083850312156116a1578081fd5b6116aa83611659565b9150602083013567ffffffffffffffff808211156116c6578283fd5b818501915085601f8301126116d9578283fd5b8135818111156116eb576116eb611b70565b604051601f8201601f19908116603f0116810190838211818310171561171357611713611b70565b8160405282815288602084870101111561172b578586fd5b82602086016020830137856020848301015280955050505050509250929050565b60006020828403121561175d578081fd5b5035919050565b600060208284031215611775578081fd5b5051919050565b6000806040838503121561178e578182fd5b8235915061179e60208401611659565b90509250929050565b600080604083850312156117b9578182fd5b82359150602083013580151581146117cf578182fd5b809150509250929050565b6000602082840312156117eb578081fd5b81356001600160e01b0319811681146114e5578182fd5b60008060408385031215611814578182fd5b50508035926020909101359150565b60008251611835818460208701611b17565b9190910192915050565b76020b1b1b2b9b9a1b7b73a3937b61d1030b1b1b7bab73a1604d1b815260008351611871816017850160208801611b17565b7001034b99036b4b9b9b4b733903937b6329607d1b60179184019182015283516118a2816028840160208801611b17565b01602801949350505050565b60208152600082518060208401526118cd816040850160208701611b17565b601f01601f19169190910160400192915050565b6020808252602c908201527f4d75737420686176652070617573657220726f6c6520746f20706572666f726d60408201526b103a3434b99030b1ba34b7b760a11b606082015260800190565b6020808252602c908201527f46756e6374696f6e206d7573742062652063616c6c6564207468726f7567682060408201526b19195b1959d85d1958d85b1b60a21b606082015260800190565b6020808252602c908201527f46756e6374696f6e206d7573742062652063616c6c6564207468726f7567682060408201526b6163746976652070726f787960a01b606082015260800190565b6020808252602e908201527f496e697469616c697a61626c653a20636f6e747261637420697320616c72656160408201526d191e481a5b9a5d1a585b1a5e995960921b606082015260800190565b6020808252602b908201527f496e697469616c697a61626c653a20636f6e7472616374206973206e6f74206960408201526a6e697469616c697a696e6760a81b606082015260800190565b6020808252601f908201527f5265656e7472616e637947756172643a207265656e7472616e742063616c6c00604082015260600190565b6020808252602b908201527f4d75737420686176652061646d696e20726f6c6520746f20706572666f726d2060408201526a3a3434b99030b1ba34b7b760a91b606082015260800190565b60008219821115611af357611af3611b5a565b500190565b6000816000190483118215151615611b1257611b12611b5a565b500290565b60005b83811015611b32578181015183820152602001611b1a565b8381111561126e5750506000910152565b600081611b5257611b52611b5a565b506000190190565b634e487b7160e01b600052601160045260246000fd5b634e487b7160e01b600052604160045260246000fdfe360894a13ba1a3210667c828492db98dca3e2076cc3735a920a3ca505d382bbc416464726573733a206c6f772d6c6576656c2064656c65676174652063616c6c206661696c6564a2646970667358221220b35349cb877c8d8969e0b72fa08beeaceb148e0f1d66f44cd88ff4769fabb5e964736f6c63430008040033",
  "linkReferences": {},
  "deployedLinkReferences": {}
}