{
  "_format": "hh-sol-artifact-1",
  "contractName": "DygnifyConfig",
  "sourceName": "contracts/protocol/DygnifyConfig.sol",
  "abi": [
    {
      "anonymous": false,
      "inputs": [
        {
          "indexed": false,
          "internalType": "address",
          "name": "previousAdmin",
          "type": "address"
        },
        {
          "indexed": false,
          "internalType": "address",
          "name": "newAdmin",
          "type": "address"
        }
      ],
      "name": "AdminChanged",
      "type": "event"
    },
    {
      "anonymous": false,
      "inputs": [
        {
          "indexed": true,
          "internalType": "address",
          "name": "beacon",
          "type": "address"
        }
      ],
      "name": "BeaconUpgraded",
      "type": "event"
    },
    {
      "anonymous": false,
      "inputs": [
        {
          "indexed": false,
          "internalType": "uint8",
          "name": "version",
          "type": "uint8"
        }
      ],
      "name": "Initialized",
      "type": "event"
    },
    {
      "anonymous": false,
      "inputs": [
        {
          "indexed": false,
          "internalType": "address",
          "name": "account",
          "type": "address"
        }
      ],
      "name": "Paused",
      "type": "event"
    },
    {
      "anonymous": false,
      "inputs": [
        {
          "indexed": true,
          "internalType": "bytes32",
          "name": "role",
          "type": "bytes32"
        },
        {
          "indexed": true,
          "internalType": "bytes32",
          "name": "previousAdminRole",
          "type": "bytes32"
        },
        {
          "indexed": true,
          "internalType": "bytes32",
          "name": "newAdminRole",
          "type": "bytes32"
        }
      ],
      "name": "RoleAdminChanged",
      "type": "event"
    },
    {
      "anonymous": false,
      "inputs": [
        {
          "indexed": true,
          "internalType": "bytes32",
          "name": "role",
          "type": "bytes32"
        },
        {
          "indexed": true,
          "internalType": "address",
          "name": "account",
          "type": "address"
        },
        {
          "indexed": true,
          "internalType": "address",
          "name": "sender",
          "type": "address"
        }
      ],
      "name": "RoleGranted",
      "type": "event"
    },
    {
      "anonymous": false,
      "inputs": [
        {
          "indexed": true,
          "internalType": "bytes32",
          "name": "role",
          "type": "bytes32"
        },
        {
          "indexed": true,
          "internalType": "address",
          "name": "account",
          "type": "address"
        },
        {
          "indexed": true,
          "internalType": "address",
          "name": "sender",
          "type": "address"
        }
      ],
      "name": "RoleRevoked",
      "type": "event"
    },
    {
      "anonymous": false,
      "inputs": [
        {
          "indexed": false,
          "internalType": "address",
          "name": "account",
          "type": "address"
        }
      ],
      "name": "Unpaused",
      "type": "event"
    },
    {
      "anonymous": false,
      "inputs": [
        {
          "indexed": true,
          "internalType": "address",
          "name": "implementation",
          "type": "address"
        }
      ],
      "name": "Upgraded",
      "type": "event"
    },
    {
      "inputs": [],
      "name": "ADMIN_ROLE",
      "outputs": [
        {
          "internalType": "bytes32",
          "name": "",
          "type": "bytes32"
        }
      ],
      "stateMutability": "view",
      "type": "function"
    },
    {
      "inputs": [],
      "name": "DEFAULT_ADMIN_ROLE",
      "outputs": [
        {
          "internalType": "bytes32",
          "name": "",
          "type": "bytes32"
        }
      ],
      "stateMutability": "view",
      "type": "function"
    },
    {
      "inputs": [],
      "name": "PAUSER_ROLE",
      "outputs": [
        {
          "internalType": "bytes32",
          "name": "",
          "type": "bytes32"
        }
      ],
      "stateMutability": "view",
      "type": "function"
    },
    {
      "inputs": [
        {
          "internalType": "address",
          "name": "owner",
          "type": "address"
        }
      ],
      "name": "_BaseUpgradeablePausable_init",
      "outputs": [],
      "stateMutability": "nonpayable",
      "type": "function"
    },
    {
      "inputs": [],
      "name": "__PauserPausable__init",
      "outputs": [],
      "stateMutability": "nonpayable",
      "type": "function"
    },
    {
      "inputs": [
        {
          "internalType": "uint256",
          "name": "",
          "type": "uint256"
        }
      ],
      "name": "addresses",
      "outputs": [
        {
          "internalType": "address",
          "name": "",
          "type": "address"
        }
      ],
      "stateMutability": "view",
      "type": "function"
    },
    {
      "inputs": [
        {
          "internalType": "bytes32",
          "name": "",
          "type": "bytes32"
        }
      ],
      "name": "flag",
      "outputs": [
        {
          "internalType": "bool",
          "name": "",
          "type": "bool"
        }
      ],
      "stateMutability": "view",
      "type": "function"
    },
    {
      "inputs": [
        {
          "internalType": "uint256",
          "name": "addressIndex",
          "type": "uint256"
        }
      ],
      "name": "getAddress",
      "outputs": [
        {
          "internalType": "address",
          "name": "",
          "type": "address"
        }
      ],
      "stateMutability": "view",
      "type": "function"
    },
    {
      "inputs": [
        {
          "internalType": "bytes32",
          "name": "id",
          "type": "bytes32"
        }
      ],
      "name": "getFlag",
      "outputs": [
        {
          "internalType": "bool",
          "name": "",
          "type": "bool"
        }
      ],
      "stateMutability": "view",
      "type": "function"
    },
    {
      "inputs": [
        {
          "internalType": "uint256",
          "name": "id",
          "type": "uint256"
        }
      ],
      "name": "getNumber",
      "outputs": [
        {
          "internalType": "uint256",
          "name": "",
          "type": "uint256"
        }
      ],
      "stateMutability": "view",
      "type": "function"
    },
    {
      "inputs": [
        {
          "internalType": "bytes32",
          "name": "role",
          "type": "bytes32"
        }
      ],
      "name": "getRoleAdmin",
      "outputs": [
        {
          "internalType": "bytes32",
          "name": "",
          "type": "bytes32"
        }
      ],
      "stateMutability": "view",
      "type": "function"
    },
    {
      "inputs": [
        {
          "internalType": "bytes32",
          "name": "role",
          "type": "bytes32"
        },
        {
          "internalType": "address",
          "name": "account",
          "type": "address"
        }
      ],
      "name": "grantRole",
      "outputs": [],
      "stateMutability": "nonpayable",
      "type": "function"
    },
    {
      "inputs": [
        {
          "internalType": "bytes32",
          "name": "role",
          "type": "bytes32"
        },
        {
          "internalType": "address",
          "name": "account",
          "type": "address"
        }
      ],
      "name": "hasRole",
      "outputs": [
        {
          "internalType": "bool",
          "name": "",
          "type": "bool"
        }
      ],
      "stateMutability": "view",
      "type": "function"
    },
    {
      "inputs": [],
      "name": "initialize",
      "outputs": [],
      "stateMutability": "nonpayable",
      "type": "function"
    },
    {
      "inputs": [],
      "name": "isAdmin",
      "outputs": [
        {
          "internalType": "bool",
          "name": "",
          "type": "bool"
        }
      ],
      "stateMutability": "view",
      "type": "function"
    },
    {
      "inputs": [
        {
          "internalType": "uint256",
          "name": "",
          "type": "uint256"
        }
      ],
      "name": "numbers",
      "outputs": [
        {
          "internalType": "uint256",
          "name": "",
          "type": "uint256"
        }
      ],
      "stateMutability": "view",
      "type": "function"
    },
    {
      "inputs": [],
      "name": "pause",
      "outputs": [],
      "stateMutability": "nonpayable",
      "type": "function"
    },
    {
      "inputs": [],
      "name": "paused",
      "outputs": [
        {
          "internalType": "bool",
          "name": "",
          "type": "bool"
        }
      ],
      "stateMutability": "view",
      "type": "function"
    },
    {
      "inputs": [],
      "name": "proxiableUUID",
      "outputs": [
        {
          "internalType": "bytes32",
          "name": "",
          "type": "bytes32"
        }
      ],
      "stateMutability": "view",
      "type": "function"
    },
    {
      "inputs": [
        {
          "internalType": "bytes32",
          "name": "role",
          "type": "bytes32"
        },
        {
          "internalType": "address",
          "name": "account",
          "type": "address"
        }
      ],
      "name": "renounceRole",
      "outputs": [],
      "stateMutability": "nonpayable",
      "type": "function"
    },
    {
      "inputs": [
        {
          "internalType": "bytes32",
          "name": "role",
          "type": "bytes32"
        },
        {
          "internalType": "address",
          "name": "account",
          "type": "address"
        }
      ],
      "name": "revokeRole",
      "outputs": [],
      "stateMutability": "nonpayable",
      "type": "function"
    },
    {
      "inputs": [
        {
          "internalType": "uint256",
          "name": "addressIndex",
          "type": "uint256"
        },
        {
          "internalType": "address",
          "name": "newAddress",
          "type": "address"
        }
      ],
      "name": "setAddress",
      "outputs": [],
      "stateMutability": "nonpayable",
      "type": "function"
    },
    {
      "inputs": [
        {
          "internalType": "bytes32",
          "name": "id",
          "type": "bytes32"
        },
        {
          "internalType": "bool",
          "name": "isflag",
          "type": "bool"
        }
      ],
      "name": "setFlag",
      "outputs": [],
      "stateMutability": "nonpayable",
      "type": "function"
    },
    {
      "inputs": [
        {
          "internalType": "uint256",
          "name": "id",
          "type": "uint256"
        },
        {
          "internalType": "uint256",
          "name": "newNumber",
          "type": "uint256"
        }
      ],
      "name": "setNumber",
      "outputs": [],
      "stateMutability": "nonpayable",
      "type": "function"
    },
    {
      "inputs": [
        {
          "internalType": "bytes4",
          "name": "interfaceId",
          "type": "bytes4"
        }
      ],
      "name": "supportsInterface",
      "outputs": [
        {
          "internalType": "bool",
          "name": "",
          "type": "bool"
        }
      ],
      "stateMutability": "view",
      "type": "function"
    },
    {
      "inputs": [],
      "name": "unpause",
      "outputs": [],
      "stateMutability": "nonpayable",
      "type": "function"
    },
    {
      "inputs": [
        {
          "internalType": "address",
          "name": "newImplementation",
          "type": "address"
        }
      ],
      "name": "upgradeTo",
      "outputs": [],
      "stateMutability": "nonpayable",
      "type": "function"
    },
    {
      "inputs": [
        {
          "internalType": "address",
          "name": "newImplementation",
          "type": "address"
        },
        {
          "internalType": "bytes",
          "name": "data",
          "type": "bytes"
        }
      ],
      "name": "upgradeToAndCall",
      "outputs": [],
      "stateMutability": "payable",
      "type": "function"
    }
  ],
  "bytecode": "0x60a06040523060601b60805234801561001757600080fd5b5060805160601c61226261005260003960008181610740015281816107c501528181610a3701528181610abc0152610cc101526122626000f3fe6080604052600436106101b75760003560e01c80638129fc1c116100ec578063b93f9b0a1161008a578063e4a3d78411610064578063e4a3d78414610517578063e63ab1e914610548578063edf26d9b1461057c578063fc563658146105b357600080fd5b8063b93f9b0a1461047a578063d39fa233146104c9578063d547741f146104f757600080fd5b8063a12dde4d116100c6578063a12dde4d14610410578063a217fddf14610430578063ac4ce2c614610445578063b6db75a01461046557600080fd5b80638129fc1c146103a05780638456cb59146103b557806391d14854146103ca57600080fd5b80634f1ef286116101595780635c975abb116101335780635c975abb146103035780636b19e8c71461031b57806375b238fc1461033b57806378165a481461036f57600080fd5b80634f1ef286146102c6578063526d81f6146102d957806352d1902d146102ee57600080fd5b806336568abe1161019557806336568abe146102515780633659cfe61461027157806339b220bb146102915780633f4ba83a146102b157600080fd5b806301ffc9a7146101bc578063248a9ca3146101f15780632f2ff15d1461022f575b600080fd5b3480156101c857600080fd5b506101dc6101d736600461202e565b6105e1565b60405190151581526020015b60405180910390f35b3480156101fd57600080fd5b5061022161020c366004611fa0565b60009081526065602052604090206001015490565b6040519081526020016101e8565b34801561023b57600080fd5b5061024f61024a366004611fd0565b61067a565b005b34801561025d57600080fd5b5061024f61026c366004611fd0565b6106a4565b34801561027d57600080fd5b5061024f61028c366004611ec9565b610735565b34801561029d57600080fd5b5061024f6102ac366004611ffb565b6108b1565b3480156102bd57600080fd5b5061024f610997565b61024f6102d4366004611ee3565b610a2c565b3480156102e557600080fd5b5061024f610b95565b3480156102fa57600080fd5b50610221610cb4565b34801561030f57600080fd5b5060975460ff166101dc565b34801561032757600080fd5b5061024f61033636600461206e565b610d79565b34801561034757600080fd5b506102217fa49807205ce4d355092ef5a8a18f56e8913cf4a201fbe287825b095693c2177581565b34801561037b57600080fd5b506101dc61038a366004611fa0565b6101616020526000908152604090205460ff1681565b3480156103ac57600080fd5b5061024f610e51565b3480156103c157600080fd5b5061024f610f81565b3480156103d657600080fd5b506101dc6103e5366004611fd0565b60009182526065602090815260408084206001600160a01b0393909316845291905290205460ff1690565b34801561041c57600080fd5b5061024f61042b366004611ec9565b611014565b34801561043c57600080fd5b50610221600081565b34801561045157600080fd5b5061024f610460366004611fd0565b6111b5565b34801561047157600080fd5b506101dc61130c565b34801561048657600080fd5b506104b1610495366004611fa0565b600090815261015f60205260409020546001600160a01b031690565b6040516001600160a01b0390911681526020016101e8565b3480156104d557600080fd5b506102216104e4366004611fa0565b6101606020526000908152604090205481565b34801561050357600080fd5b5061024f610512366004611fd0565b61133d565b34801561052357600080fd5b506101dc610532366004611fa0565b6000908152610161602052604090205460ff1690565b34801561055457600080fd5b506102217f65d7a28e3265b37a6474929f336521b332c1681b933f6cb9f3376673440d862a81565b34801561058857600080fd5b506104b1610597366004611fa0565b61015f602052600090815260409020546001600160a01b031681565b3480156105bf57600080fd5b506102216105ce366004611fa0565b6000908152610160602052604090205490565b60007fffffffff0000000000000000000000000000000000000000000000000000000082167f7965db0b00000000000000000000000000000000000000000000000000000000148061067457507f01ffc9a7000000000000000000000000000000000000000000000000000000007fffffffff000000000000000000000000000000000000000000000000000000008316145b92915050565b60008281526065602052604090206001015461069581611362565b61069f838361136c565b505050565b6001600160a01b03811633146107275760405162461bcd60e51b815260206004820152602f60248201527f416363657373436f6e74726f6c3a2063616e206f6e6c792072656e6f756e636560448201527f20726f6c657320666f722073656c66000000000000000000000000000000000060648201526084015b60405180910390fd5b610731828261140e565b5050565b306001600160a01b037f00000000000000000000000000000000000000000000000000000000000000001614156107c35760405162461bcd60e51b815260206004820152602c60248201527f46756e6374696f6e206d7573742062652063616c6c6564207468726f7567682060448201526b19195b1959d85d1958d85b1b60a21b606482015260840161071e565b7f00000000000000000000000000000000000000000000000000000000000000006001600160a01b031661081e7f360894a13ba1a3210667c828492db98dca3e2076cc3735a920a3ca505d382bbc546001600160a01b031690565b6001600160a01b0316146108895760405162461bcd60e51b815260206004820152602c60248201527f46756e6374696f6e206d7573742062652063616c6c6564207468726f7567682060448201526b6163746976652070726f787960a01b606482015260840161071e565b61089281611491565b604080516000808252602082019092526108ae918391906114f9565b50565b600260c95414156109045760405162461bcd60e51b815260206004820152601f60248201527f5265656e7472616e637947756172643a207265656e7472616e742063616c6c00604482015260640161071e565b600260c95561091161130c565b6109715760405162461bcd60e51b815260206004820152602b60248201527f4d75737420686176652061646d696e20726f6c6520746f20706572666f726d2060448201526a3a3434b99030b1ba34b7b760a91b606482015260840161071e565b60009182526101616020526040909120805460ff1916911515919091179055600160c955565b6109c17f65d7a28e3265b37a6474929f336521b332c1681b933f6cb9f3376673440d862a336103e5565b610a225760405162461bcd60e51b815260206004820152602c60248201527f4d75737420686176652070617573657220726f6c6520746f20706572666f726d60448201526b103a3434b99030b1ba34b7b760a11b606482015260840161071e565b610a2a6116a8565b565b306001600160a01b037f0000000000000000000000000000000000000000000000000000000000000000161415610aba5760405162461bcd60e51b815260206004820152602c60248201527f46756e6374696f6e206d7573742062652063616c6c6564207468726f7567682060448201526b19195b1959d85d1958d85b1b60a21b606482015260840161071e565b7f00000000000000000000000000000000000000000000000000000000000000006001600160a01b0316610b157f360894a13ba1a3210667c828492db98dca3e2076cc3735a920a3ca505d382bbc546001600160a01b031690565b6001600160a01b031614610b805760405162461bcd60e51b815260206004820152602c60248201527f46756e6374696f6e206d7573742062652063616c6c6564207468726f7567682060448201526b6163746976652070726f787960a01b606482015260840161071e565b610b8982611491565b610731828260016114f9565b600054610100900460ff1615808015610bb55750600054600160ff909116105b80610bcf5750303b158015610bcf575060005460ff166001145b610c415760405162461bcd60e51b815260206004820152602e60248201527f496e697469616c697a61626c653a20636f6e747261637420697320616c72656160448201527f647920696e697469616c697a6564000000000000000000000000000000000000606482015260840161071e565b6000805460ff191660011790558015610c64576000805461ff0019166101001790555b610c6c6116fa565b80156108ae576000805461ff0019169055604051600181527f7f26b83ff96e1f2b6a682f133852f6798a09c465da95921460cefb38474024989060200160405180910390a150565b6000306001600160a01b037f00000000000000000000000000000000000000000000000000000000000000001614610d545760405162461bcd60e51b815260206004820152603860248201527f555550535570677261646561626c653a206d757374206e6f742062652063616c60448201527f6c6564207468726f7567682064656c656761746563616c6c0000000000000000606482015260840161071e565b507f360894a13ba1a3210667c828492db98dca3e2076cc3735a920a3ca505d382bbc90565b600260c9541415610dcc5760405162461bcd60e51b815260206004820152601f60248201527f5265656e7472616e637947756172643a207265656e7472616e742063616c6c00604482015260640161071e565b600260c955610dd961130c565b610e395760405162461bcd60e51b815260206004820152602b60248201527f4d75737420686176652061646d696e20726f6c6520746f20706572666f726d2060448201526a3a3434b99030b1ba34b7b760a91b606482015260840161071e565b6000918252610160602052604090912055600160c955565b600054610100900460ff1615808015610e715750600054600160ff909116105b80610e8b5750303b158015610e8b575060005460ff166001145b610efd5760405162461bcd60e51b815260206004820152602e60248201527f496e697469616c697a61626c653a20636f6e747261637420697320616c72656160448201527f647920696e697469616c697a6564000000000000000000000000000000000000606482015260840161071e565b6000805460ff191660011790558015610f20576000805461ff0019166101001790555b33610f6d5760405162461bcd60e51b815260206004820152601660248201527f496e76616c69642073656e646572206164647265737300000000000000000000604482015260640161071e565b610f7633611014565b610c6c6000336111b5565b610fab7f65d7a28e3265b37a6474929f336521b332c1681b933f6cb9f3376673440d862a336103e5565b61100c5760405162461bcd60e51b815260206004820152602c60248201527f4d75737420686176652070617573657220726f6c6520746f20706572666f726d60448201526b103a3434b99030b1ba34b7b760a11b606482015260840161071e565b610a2a611771565b600054610100900460ff1661107f5760405162461bcd60e51b815260206004820152602b60248201527f496e697469616c697a61626c653a20636f6e7472616374206973206e6f74206960448201526a6e697469616c697a696e6760a81b606482015260840161071e565b6001600160a01b0381166110d55760405162461bcd60e51b815260206004820181905260248201527f4f776e65722063616e6e6f7420626520746865207a65726f2061646472657373604482015260640161071e565b6110dd6117ae565b6110e56116fa565b6110ed611819565b6111177fa49807205ce4d355092ef5a8a18f56e8913cf4a201fbe287825b095693c217758261188b565b6111417f65d7a28e3265b37a6474929f336521b332c1681b933f6cb9f3376673440d862a8261188b565b61118b7f65d7a28e3265b37a6474929f336521b332c1681b933f6cb9f3376673440d862a7fa49807205ce4d355092ef5a8a18f56e8913cf4a201fbe287825b095693c21775611895565b6108ae7fa49807205ce4d355092ef5a8a18f56e8913cf4a201fbe287825b095693c2177580611895565b600260c95414156112085760405162461bcd60e51b815260206004820152601f60248201527f5265656e7472616e637947756172643a207265656e7472616e742063616c6c00604482015260640161071e565b600260c95561121561130c565b6112755760405162461bcd60e51b815260206004820152602b60248201527f4d75737420686176652061646d696e20726f6c6520746f20706572666f726d2060448201526a3a3434b99030b1ba34b7b760a91b606482015260840161071e565b6001600160a01b0381166112cb5760405162461bcd60e51b815260206004820152600f60248201527f496e76616c696420416464726573730000000000000000000000000000000000604482015260640161071e565b600091825261015f6020526040909120805473ffffffffffffffffffffffffffffffffffffffff19166001600160a01b03909216919091179055600160c955565b60006113387fa49807205ce4d355092ef5a8a18f56e8913cf4a201fbe287825b095693c21775336103e5565b905090565b60008281526065602052604090206001015461135881611362565b61069f838361140e565b6108ae81336118e0565b60008281526065602090815260408083206001600160a01b038516845290915290205460ff166107315760008281526065602090815260408083206001600160a01b03851684529091529020805460ff191660011790556113ca3390565b6001600160a01b0316816001600160a01b0316837f2f8788117e7eff1d82e926ec794901d17c78024a50270940304540a733656f0d60405160405180910390a45050565b60008281526065602090815260408083206001600160a01b038516845290915290205460ff16156107315760008281526065602090815260408083206001600160a01b0385168085529252808320805460ff1916905551339285917ff6391f5c32d9c69d2a47ea670b442974b53935d1edc7fd64eb21e047a839171b9190a45050565b61149961130c565b6108ae5760405162461bcd60e51b815260206004820152602b60248201527f4d75737420686176652061646d696e20726f6c6520746f20706572666f726d2060448201526a3a3434b99030b1ba34b7b760a91b606482015260840161071e565b7f4910fdfa16fed3260ed0e7147f7cc6da11a60208b5b9406d12a635614ffd91435460ff161561152c5761069f83611960565b826001600160a01b03166352d1902d6040518163ffffffff1660e01b815260040160206040518083038186803b15801561156557600080fd5b505afa925050508015611595575060408051601f3d908101601f1916820190925261159291810190611fb8565b60015b6116075760405162461bcd60e51b815260206004820152602e60248201527f45524331393637557067726164653a206e657720696d706c656d656e7461746960448201527f6f6e206973206e6f742055555053000000000000000000000000000000000000606482015260840161071e565b7f360894a13ba1a3210667c828492db98dca3e2076cc3735a920a3ca505d382bbc811461169c5760405162461bcd60e51b815260206004820152602960248201527f45524331393637557067726164653a20756e737570706f727465642070726f7860448201527f6961626c65555549440000000000000000000000000000000000000000000000606482015260840161071e565b5061069f838383611a2b565b6116b0611a56565b6097805460ff191690557f5db9ee0a495bf2e6ff9c91a7834c1ba4fdd244a5e8aa4e537bd38aeae4b073aa335b6040516001600160a01b03909116815260200160405180910390a1565b600054610100900460ff166117655760405162461bcd60e51b815260206004820152602b60248201527f496e697469616c697a61626c653a20636f6e7472616374206973206e6f74206960448201526a6e697469616c697a696e6760a81b606482015260840161071e565b6097805460ff19169055565b611779611aa8565b6097805460ff191660011790557f62e78cea01bee320cd4e420270b5ea74000d11b0c9f74754ebdbfc544b05a2586116dd3390565b600054610100900460ff16610a2a5760405162461bcd60e51b815260206004820152602b60248201527f496e697469616c697a61626c653a20636f6e7472616374206973206e6f74206960448201526a6e697469616c697a696e6760a81b606482015260840161071e565b600054610100900460ff166118845760405162461bcd60e51b815260206004820152602b60248201527f496e697469616c697a61626c653a20636f6e7472616374206973206e6f74206960448201526a6e697469616c697a696e6760a81b606482015260840161071e565b600160c955565b610731828261136c565b600082815260656020526040808220600101805490849055905190918391839186917fbd79b86ffe0ab8e8776151514217cd7cacd52c909f66475c3af44e129f0b00ff9190a4505050565b60008281526065602090815260408083206001600160a01b038516845290915290205460ff166107315761191e816001600160a01b03166014611afb565b611929836020611afb565b60405160200161193a9291906120ab565b60408051601f198184030181529082905262461bcd60e51b825261071e9160040161212c565b6001600160a01b0381163b6119dd5760405162461bcd60e51b815260206004820152602d60248201527f455243313936373a206e657720696d706c656d656e746174696f6e206973206e60448201527f6f74206120636f6e747261637400000000000000000000000000000000000000606482015260840161071e565b7f360894a13ba1a3210667c828492db98dca3e2076cc3735a920a3ca505d382bbc805473ffffffffffffffffffffffffffffffffffffffff19166001600160a01b0392909216919091179055565b611a3483611d29565b600082511180611a415750805b1561069f57611a508383611d69565b50505050565b60975460ff16610a2a5760405162461bcd60e51b815260206004820152601460248201527f5061757361626c653a206e6f7420706175736564000000000000000000000000604482015260640161071e565b60975460ff1615610a2a5760405162461bcd60e51b815260206004820152601060248201527f5061757361626c653a2070617573656400000000000000000000000000000000604482015260640161071e565b60606000611b0a836002612177565b611b1590600261215f565b67ffffffffffffffff811115611b3b57634e487b7160e01b600052604160045260246000fd5b6040519080825280601f01601f191660200182016040528015611b65576020820181803683370190505b5090507f300000000000000000000000000000000000000000000000000000000000000081600081518110611baa57634e487b7160e01b600052603260045260246000fd5b60200101906001600160f81b031916908160001a9053507f780000000000000000000000000000000000000000000000000000000000000081600181518110611c0357634e487b7160e01b600052603260045260246000fd5b60200101906001600160f81b031916908160001a9053506000611c27846002612177565b611c3290600161215f565b90505b6001811115611cd3577f303132333435363738396162636465660000000000000000000000000000000085600f1660108110611c8157634e487b7160e01b600052603260045260246000fd5b1a60f81b828281518110611ca557634e487b7160e01b600052603260045260246000fd5b60200101906001600160f81b031916908160001a90535060049490941c93611ccc816121c2565b9050611c35565b508315611d225760405162461bcd60e51b815260206004820181905260248201527f537472696e67733a20686578206c656e67746820696e73756666696369656e74604482015260640161071e565b9392505050565b611d3281611960565b6040516001600160a01b038216907fbc7cd75a20ee27fd9adebab32041f755214dbc6bffa90cc0225b39da2e5c2d3b90600090a250565b60606001600160a01b0383163b611de85760405162461bcd60e51b815260206004820152602660248201527f416464726573733a2064656c65676174652063616c6c20746f206e6f6e2d636f60448201527f6e74726163740000000000000000000000000000000000000000000000000000606482015260840161071e565b600080846001600160a01b031684604051611e03919061208f565b600060405180830381855af49150503d8060008114611e3e576040519150601f19603f3d011682016040523d82523d6000602084013e611e43565b606091505b5091509150611e6b828260405180606001604052806027815260200161220660279139611e74565b95945050505050565b60608315611e83575081611d22565b825115611e935782518084602001fd5b8160405162461bcd60e51b815260040161071e919061212c565b80356001600160a01b0381168114611ec457600080fd5b919050565b600060208284031215611eda578081fd5b611d2282611ead565b60008060408385031215611ef5578081fd5b611efe83611ead565b9150602083013567ffffffffffffffff80821115611f1a578283fd5b818501915085601f830112611f2d578283fd5b813581811115611f3f57611f3f6121ef565b604051601f8201601f19908116603f01168101908382118183101715611f6757611f676121ef565b81604052828152886020848701011115611f7f578586fd5b82602086016020830137856020848301015280955050505050509250929050565b600060208284031215611fb1578081fd5b5035919050565b600060208284031215611fc9578081fd5b5051919050565b60008060408385031215611fe2578182fd5b82359150611ff260208401611ead565b90509250929050565b6000806040838503121561200d578182fd5b8235915060208301358015158114612023578182fd5b809150509250929050565b60006020828403121561203f578081fd5b81357fffffffff0000000000000000000000000000000000000000000000000000000081168114611d22578182fd5b60008060408385031215612080578182fd5b50508035926020909101359150565b600082516120a1818460208701612196565b9190910192915050565b7f416363657373436f6e74726f6c3a206163636f756e74200000000000000000008152600083516120e3816017850160208801612196565b7f206973206d697373696e6720726f6c65200000000000000000000000000000006017918401918201528351612120816028840160208801612196565b01602801949350505050565b602081526000825180602084015261214b816040850160208701612196565b601f01601f19169190910160400192915050565b60008219821115612172576121726121d9565b500190565b6000816000190483118215151615612191576121916121d9565b500290565b60005b838110156121b1578181015183820152602001612199565b83811115611a505750506000910152565b6000816121d1576121d16121d9565b506000190190565b634e487b7160e01b600052601160045260246000fd5b634e487b7160e01b600052604160045260246000fdfe416464726573733a206c6f772d6c6576656c2064656c65676174652063616c6c206661696c6564a26469706673582212206ca27a5cb77a0e50291129da06990900ff6e27c0f0c6f96445aa3a1fcdc559ac64736f6c63430008040033",
  "linkReferences": {},
  "deployedLinkReferences": {}
}