{
  "_format": "hh-sol-artifact-1",
  "contractName": "DygnifyConfig",
  "sourceName": "contracts/protocol/DygnifyConfig.sol",
  "abi": [
    {
      "anonymous": false,
      "inputs": [
        {
          "indexed": false,
          "internalType": "uint8",
          "name": "version",
          "type": "uint8"
        }
      ],
      "name": "Initialized",
      "type": "event"
    },
    {
      "anonymous": false,
      "inputs": [
        {
          "indexed": false,
          "internalType": "address",
          "name": "account",
          "type": "address"
        }
      ],
      "name": "Paused",
      "type": "event"
    },
    {
      "anonymous": false,
      "inputs": [
        {
          "indexed": true,
          "internalType": "bytes32",
          "name": "role",
          "type": "bytes32"
        },
        {
          "indexed": true,
          "internalType": "bytes32",
          "name": "previousAdminRole",
          "type": "bytes32"
        },
        {
          "indexed": true,
          "internalType": "bytes32",
          "name": "newAdminRole",
          "type": "bytes32"
        }
      ],
      "name": "RoleAdminChanged",
      "type": "event"
    },
    {
      "anonymous": false,
      "inputs": [
        {
          "indexed": true,
          "internalType": "bytes32",
          "name": "role",
          "type": "bytes32"
        },
        {
          "indexed": true,
          "internalType": "address",
          "name": "account",
          "type": "address"
        },
        {
          "indexed": true,
          "internalType": "address",
          "name": "sender",
          "type": "address"
        }
      ],
      "name": "RoleGranted",
      "type": "event"
    },
    {
      "anonymous": false,
      "inputs": [
        {
          "indexed": true,
          "internalType": "bytes32",
          "name": "role",
          "type": "bytes32"
        },
        {
          "indexed": true,
          "internalType": "address",
          "name": "account",
          "type": "address"
        },
        {
          "indexed": true,
          "internalType": "address",
          "name": "sender",
          "type": "address"
        }
      ],
      "name": "RoleRevoked",
      "type": "event"
    },
    {
      "anonymous": false,
      "inputs": [
        {
          "indexed": false,
          "internalType": "address",
          "name": "account",
          "type": "address"
        }
      ],
      "name": "Unpaused",
      "type": "event"
    },
    {
      "inputs": [],
      "name": "ADMIN_ROLE",
      "outputs": [
        {
          "internalType": "bytes32",
          "name": "",
          "type": "bytes32"
        }
      ],
      "stateMutability": "view",
      "type": "function"
    },
    {
      "inputs": [],
      "name": "DEFAULT_ADMIN_ROLE",
      "outputs": [
        {
          "internalType": "bytes32",
          "name": "",
          "type": "bytes32"
        }
      ],
      "stateMutability": "view",
      "type": "function"
    },
    {
      "inputs": [],
      "name": "PAUSER_ROLE",
      "outputs": [
        {
          "internalType": "bytes32",
          "name": "",
          "type": "bytes32"
        }
      ],
      "stateMutability": "view",
      "type": "function"
    },
    {
      "inputs": [
        {
          "internalType": "address",
          "name": "owner",
          "type": "address"
        }
      ],
      "name": "_BaseUpgradeablePausable_init",
      "outputs": [],
      "stateMutability": "nonpayable",
      "type": "function"
    },
    {
      "inputs": [],
      "name": "__PauserPausable__init",
      "outputs": [],
      "stateMutability": "nonpayable",
      "type": "function"
    },
    {
      "inputs": [
        {
          "internalType": "uint256",
          "name": "",
          "type": "uint256"
        }
      ],
      "name": "addresses",
      "outputs": [
        {
          "internalType": "address",
          "name": "",
          "type": "address"
        }
      ],
      "stateMutability": "view",
      "type": "function"
    },
    {
      "inputs": [
        {
          "internalType": "bytes32",
          "name": "",
          "type": "bytes32"
        }
      ],
      "name": "flag",
      "outputs": [
        {
          "internalType": "bool",
          "name": "",
          "type": "bool"
        }
      ],
      "stateMutability": "view",
      "type": "function"
    },
    {
      "inputs": [
        {
          "internalType": "uint256",
          "name": "addressIndex",
          "type": "uint256"
        }
      ],
      "name": "getAddress",
      "outputs": [
        {
          "internalType": "address",
          "name": "",
          "type": "address"
        }
      ],
      "stateMutability": "view",
      "type": "function"
    },
    {
      "inputs": [
        {
          "internalType": "bytes32",
          "name": "id",
          "type": "bytes32"
        }
      ],
      "name": "getFlag",
      "outputs": [
        {
          "internalType": "bool",
          "name": "",
          "type": "bool"
        }
      ],
      "stateMutability": "view",
      "type": "function"
    },
    {
      "inputs": [
        {
          "internalType": "uint256",
          "name": "id",
          "type": "uint256"
        }
      ],
      "name": "getNumber",
      "outputs": [
        {
          "internalType": "uint256",
          "name": "",
          "type": "uint256"
        }
      ],
      "stateMutability": "view",
      "type": "function"
    },
    {
      "inputs": [
        {
          "internalType": "bytes32",
          "name": "role",
          "type": "bytes32"
        }
      ],
      "name": "getRoleAdmin",
      "outputs": [
        {
          "internalType": "bytes32",
          "name": "",
          "type": "bytes32"
        }
      ],
      "stateMutability": "view",
      "type": "function"
    },
    {
      "inputs": [
        {
          "internalType": "bytes32",
          "name": "role",
          "type": "bytes32"
        },
        {
          "internalType": "address",
          "name": "account",
          "type": "address"
        }
      ],
      "name": "grantRole",
      "outputs": [],
      "stateMutability": "nonpayable",
      "type": "function"
    },
    {
      "inputs": [
        {
          "internalType": "bytes32",
          "name": "role",
          "type": "bytes32"
        },
        {
          "internalType": "address",
          "name": "account",
          "type": "address"
        }
      ],
      "name": "hasRole",
      "outputs": [
        {
          "internalType": "bool",
          "name": "",
          "type": "bool"
        }
      ],
      "stateMutability": "view",
      "type": "function"
    },
    {
      "inputs": [],
      "name": "initialize",
      "outputs": [],
      "stateMutability": "nonpayable",
      "type": "function"
    },
    {
      "inputs": [],
      "name": "isAdmin",
      "outputs": [
        {
          "internalType": "bool",
          "name": "",
          "type": "bool"
        }
      ],
      "stateMutability": "view",
      "type": "function"
    },
    {
      "inputs": [
        {
          "internalType": "uint256",
          "name": "",
          "type": "uint256"
        }
      ],
      "name": "numbers",
      "outputs": [
        {
          "internalType": "uint256",
          "name": "",
          "type": "uint256"
        }
      ],
      "stateMutability": "view",
      "type": "function"
    },
    {
      "inputs": [],
      "name": "pause",
      "outputs": [],
      "stateMutability": "nonpayable",
      "type": "function"
    },
    {
      "inputs": [],
      "name": "paused",
      "outputs": [
        {
          "internalType": "bool",
          "name": "",
          "type": "bool"
        }
      ],
      "stateMutability": "view",
      "type": "function"
    },
    {
      "inputs": [
        {
          "internalType": "bytes32",
          "name": "role",
          "type": "bytes32"
        },
        {
          "internalType": "address",
          "name": "account",
          "type": "address"
        }
      ],
      "name": "renounceRole",
      "outputs": [],
      "stateMutability": "nonpayable",
      "type": "function"
    },
    {
      "inputs": [
        {
          "internalType": "bytes32",
          "name": "role",
          "type": "bytes32"
        },
        {
          "internalType": "address",
          "name": "account",
          "type": "address"
        }
      ],
      "name": "revokeRole",
      "outputs": [],
      "stateMutability": "nonpayable",
      "type": "function"
    },
    {
      "inputs": [
        {
          "internalType": "uint256",
          "name": "addressIndex",
          "type": "uint256"
        },
        {
          "internalType": "address",
          "name": "newAddress",
          "type": "address"
        }
      ],
      "name": "setAddress",
      "outputs": [],
      "stateMutability": "nonpayable",
      "type": "function"
    },
    {
      "inputs": [
        {
          "internalType": "bytes32",
          "name": "id",
          "type": "bytes32"
        },
        {
          "internalType": "bool",
          "name": "isflag",
          "type": "bool"
        }
      ],
      "name": "setFlag",
      "outputs": [],
      "stateMutability": "nonpayable",
      "type": "function"
    },
    {
      "inputs": [
        {
          "internalType": "uint256",
          "name": "id",
          "type": "uint256"
        },
        {
          "internalType": "uint256",
          "name": "newNumber",
          "type": "uint256"
        }
      ],
      "name": "setNumber",
      "outputs": [],
      "stateMutability": "nonpayable",
      "type": "function"
    },
    {
      "inputs": [
        {
          "internalType": "bytes4",
          "name": "interfaceId",
          "type": "bytes4"
        }
      ],
      "name": "supportsInterface",
      "outputs": [
        {
          "internalType": "bool",
          "name": "",
          "type": "bool"
        }
      ],
      "stateMutability": "view",
      "type": "function"
    },
    {
      "inputs": [],
      "name": "unpause",
      "outputs": [],
      "stateMutability": "nonpayable",
      "type": "function"
    }
  ],
  "bytecode": "0x608060405234801561001057600080fd5b50611771806100206000396000f3fe608060405234801561001057600080fd5b50600436106101a35760003560e01c80638456cb59116100ee578063b93f9b0a11610097578063e4a3d78411610071578063e4a3d784146103a7578063e63ab1e9146103ca578063edf26d9b146103f1578063fc5636581461041a57600080fd5b8063b93f9b0a14610333578063d39fa23314610374578063d547741f1461039457600080fd5b8063a217fddf116100c8578063a217fddf14610310578063ac4ce2c614610318578063b6db75a01461032b57600080fd5b80638456cb59146102bc57806391d14854146102c4578063a12dde4d146102fd57600080fd5b8063526d81f61161015057806375b238fc1161012a57806375b238fc1461026a57806378165a48146102915780638129fc1c146102b457600080fd5b8063526d81f6146102445780635c975abb1461024c5780636b19e8c71461025757600080fd5b806336568abe1161018157806336568abe1461021657806339b220bb146102295780633f4ba83a1461023c57600080fd5b806301ffc9a7146101a8578063248a9ca3146101d05780632f2ff15d14610201575b600080fd5b6101bb6101b6366004611580565b61043a565b60405190151581526020015b60405180910390f35b6101f36101de36600461150a565b60009081526065602052604090206001015490565b6040519081526020016101c7565b61021461020f366004611522565b6104d3565b005b610214610224366004611522565b6104fd565b61021461023736600461154d565b61058e565b610214610673565b610214610708565b60975460ff166101bb565b6102146102653660046115d2565b610828565b6101f37fa49807205ce4d355092ef5a8a18f56e8913cf4a201fbe287825b095693c2177581565b6101bb61029f36600461150a565b60fd6020526000908152604090205460ff1681565b6102146108ff565b610214610a2f565b6101bb6102d2366004611522565b60009182526065602090815260408084206001600160a01b0393909316845291905290205460ff1690565b61021461030b3660046114f0565b610ac2565b6101f3600081565b6102146103263660046115c0565b610c63565b6101bb610dc4565b61035c61034136600461150a565b600090815260fb60205260409020546001600160a01b031690565b6040516001600160a01b0390911681526020016101c7565b6101f361038236600461150a565b60fc6020526000908152604090205481565b6102146103a2366004611522565b610df5565b6101bb6103b536600461150a565b600090815260fd602052604090205460ff1690565b6101f37f65d7a28e3265b37a6474929f336521b332c1681b933f6cb9f3376673440d862a81565b61035c6103ff36600461150a565b60fb602052600090815260409020546001600160a01b031681565b6101f361042836600461150a565b600090815260fc602052604090205490565b60007fffffffff0000000000000000000000000000000000000000000000000000000082167f7965db0b0000000000000000000000000000000000000000000000000000000014806104cd57507f01ffc9a7000000000000000000000000000000000000000000000000000000007fffffffff000000000000000000000000000000000000000000000000000000008316145b92915050565b6000828152606560205260409020600101546104ee81610e1a565b6104f88383610e24565b505050565b6001600160a01b03811633146105805760405162461bcd60e51b815260206004820152602f60248201527f416363657373436f6e74726f6c3a2063616e206f6e6c792072656e6f756e636560448201527f20726f6c657320666f722073656c66000000000000000000000000000000000060648201526084015b60405180910390fd5b61058a8282610ec6565b5050565b600260c95414156105e15760405162461bcd60e51b815260206004820152601f60248201527f5265656e7472616e637947756172643a207265656e7472616e742063616c6c006044820152606401610577565b600260c9556105ee610dc4565b61064e5760405162461bcd60e51b815260206004820152602b60248201527f4d75737420686176652061646d696e20726f6c6520746f20706572666f726d2060448201526a3a3434b99030b1ba34b7b760a91b6064820152608401610577565b600091825260fd6020526040909120805460ff1916911515919091179055600160c955565b61069d7f65d7a28e3265b37a6474929f336521b332c1681b933f6cb9f3376673440d862a336102d2565b6106fe5760405162461bcd60e51b815260206004820152602c60248201527f4d75737420686176652070617573657220726f6c6520746f20706572666f726d60448201526b103a3434b99030b1ba34b7b760a11b6064820152608401610577565b610706610f49565b565b600054610100900460ff16158080156107285750600054600160ff909116105b806107425750303b158015610742575060005460ff166001145b6107b45760405162461bcd60e51b815260206004820152602e60248201527f496e697469616c697a61626c653a20636f6e747261637420697320616c72656160448201527f647920696e697469616c697a65640000000000000000000000000000000000006064820152608401610577565b6000805460ff1916600117905580156107d7576000805461ff0019166101001790555b6107df610f9b565b8015610825576000805461ff0019169055604051600181527f7f26b83ff96e1f2b6a682f133852f6798a09c465da95921460cefb38474024989060200160405180910390a15b50565b600260c954141561087b5760405162461bcd60e51b815260206004820152601f60248201527f5265656e7472616e637947756172643a207265656e7472616e742063616c6c006044820152606401610577565b600260c955610888610dc4565b6108e85760405162461bcd60e51b815260206004820152602b60248201527f4d75737420686176652061646d696e20726f6c6520746f20706572666f726d2060448201526a3a3434b99030b1ba34b7b760a91b6064820152608401610577565b600091825260fc602052604090912055600160c955565b600054610100900460ff161580801561091f5750600054600160ff909116105b806109395750303b158015610939575060005460ff166001145b6109ab5760405162461bcd60e51b815260206004820152602e60248201527f496e697469616c697a61626c653a20636f6e747261637420697320616c72656160448201527f647920696e697469616c697a65640000000000000000000000000000000000006064820152608401610577565b6000805460ff1916600117905580156109ce576000805461ff0019166101001790555b33610a1b5760405162461bcd60e51b815260206004820152601660248201527f496e76616c69642073656e6465722061646472657373000000000000000000006044820152606401610577565b610a2433610ac2565b6107df600033610c63565b610a597f65d7a28e3265b37a6474929f336521b332c1681b933f6cb9f3376673440d862a336102d2565b610aba5760405162461bcd60e51b815260206004820152602c60248201527f4d75737420686176652070617573657220726f6c6520746f20706572666f726d60448201526b103a3434b99030b1ba34b7b760a11b6064820152608401610577565b610706611012565b600054610100900460ff16610b2d5760405162461bcd60e51b815260206004820152602b60248201527f496e697469616c697a61626c653a20636f6e7472616374206973206e6f74206960448201526a6e697469616c697a696e6760a81b6064820152608401610577565b6001600160a01b038116610b835760405162461bcd60e51b815260206004820181905260248201527f4f776e65722063616e6e6f7420626520746865207a65726f20616464726573736044820152606401610577565b610b8b61104f565b610b93610f9b565b610b9b6110ba565b610bc57fa49807205ce4d355092ef5a8a18f56e8913cf4a201fbe287825b095693c217758261112c565b610bef7f65d7a28e3265b37a6474929f336521b332c1681b933f6cb9f3376673440d862a8261112c565b610c397f65d7a28e3265b37a6474929f336521b332c1681b933f6cb9f3376673440d862a7fa49807205ce4d355092ef5a8a18f56e8913cf4a201fbe287825b095693c21775611136565b6108257fa49807205ce4d355092ef5a8a18f56e8913cf4a201fbe287825b095693c2177580611136565b600260c9541415610cb65760405162461bcd60e51b815260206004820152601f60248201527f5265656e7472616e637947756172643a207265656e7472616e742063616c6c006044820152606401610577565b600260c955610cc3610dc4565b610d235760405162461bcd60e51b815260206004820152602b60248201527f4d75737420686176652061646d696e20726f6c6520746f20706572666f726d2060448201526a3a3434b99030b1ba34b7b760a91b6064820152608401610577565b6001600160a01b038116610d795760405162461bcd60e51b815260206004820152600f60248201527f496e76616c6964204164647265737300000000000000000000000000000000006044820152606401610577565b600091825260fb602052604090912080547fffffffffffffffffffffffff0000000000000000000000000000000000000000166001600160a01b03909216919091179055600160c955565b6000610df07fa49807205ce4d355092ef5a8a18f56e8913cf4a201fbe287825b095693c21775336102d2565b905090565b600082815260656020526040902060010154610e1081610e1a565b6104f88383610ec6565b6108258133611181565b60008281526065602090815260408083206001600160a01b038516845290915290205460ff1661058a5760008281526065602090815260408083206001600160a01b03851684529091529020805460ff19166001179055610e823390565b6001600160a01b0316816001600160a01b0316837f2f8788117e7eff1d82e926ec794901d17c78024a50270940304540a733656f0d60405160405180910390a45050565b60008281526065602090815260408083206001600160a01b038516845290915290205460ff161561058a5760008281526065602090815260408083206001600160a01b0385168085529252808320805460ff1916905551339285917ff6391f5c32d9c69d2a47ea670b442974b53935d1edc7fd64eb21e047a839171b9190a45050565b610f51611201565b6097805460ff191690557f5db9ee0a495bf2e6ff9c91a7834c1ba4fdd244a5e8aa4e537bd38aeae4b073aa335b6040516001600160a01b03909116815260200160405180910390a1565b600054610100900460ff166110065760405162461bcd60e51b815260206004820152602b60248201527f496e697469616c697a61626c653a20636f6e7472616374206973206e6f74206960448201526a6e697469616c697a696e6760a81b6064820152608401610577565b6097805460ff19169055565b61101a611253565b6097805460ff191660011790557f62e78cea01bee320cd4e420270b5ea74000d11b0c9f74754ebdbfc544b05a258610f7e3390565b600054610100900460ff166107065760405162461bcd60e51b815260206004820152602b60248201527f496e697469616c697a61626c653a20636f6e7472616374206973206e6f74206960448201526a6e697469616c697a696e6760a81b6064820152608401610577565b600054610100900460ff166111255760405162461bcd60e51b815260206004820152602b60248201527f496e697469616c697a61626c653a20636f6e7472616374206973206e6f74206960448201526a6e697469616c697a696e6760a81b6064820152608401610577565b600160c955565b61058a8282610e24565b600082815260656020526040808220600101805490849055905190918391839186917fbd79b86ffe0ab8e8776151514217cd7cacd52c909f66475c3af44e129f0b00ff9190a4505050565b60008281526065602090815260408083206001600160a01b038516845290915290205460ff1661058a576111bf816001600160a01b031660146112a6565b6111ca8360206112a6565b6040516020016111db9291906115f3565b60408051601f198184030181529082905262461bcd60e51b825261057791600401611674565b60975460ff166107065760405162461bcd60e51b815260206004820152601460248201527f5061757361626c653a206e6f74207061757365640000000000000000000000006044820152606401610577565b60975460ff16156107065760405162461bcd60e51b815260206004820152601060248201527f5061757361626c653a20706175736564000000000000000000000000000000006044820152606401610577565b606060006112b58360026116bf565b6112c09060026116a7565b67ffffffffffffffff8111156112e657634e487b7160e01b600052604160045260246000fd5b6040519080825280601f01601f191660200182016040528015611310576020820181803683370190505b5090507f30000000000000000000000000000000000000000000000000000000000000008160008151811061135557634e487b7160e01b600052603260045260246000fd5b60200101906001600160f81b031916908160001a9053507f7800000000000000000000000000000000000000000000000000000000000000816001815181106113ae57634e487b7160e01b600052603260045260246000fd5b60200101906001600160f81b031916908160001a90535060006113d28460026116bf565b6113dd9060016116a7565b90505b600181111561147e577f303132333435363738396162636465660000000000000000000000000000000085600f166010811061142c57634e487b7160e01b600052603260045260246000fd5b1a60f81b82828151811061145057634e487b7160e01b600052603260045260246000fd5b60200101906001600160f81b031916908160001a90535060049490941c936114778161170e565b90506113e0565b5083156114cd5760405162461bcd60e51b815260206004820181905260248201527f537472696e67733a20686578206c656e67746820696e73756666696369656e746044820152606401610577565b9392505050565b80356001600160a01b03811681146114eb57600080fd5b919050565b600060208284031215611501578081fd5b6114cd826114d4565b60006020828403121561151b578081fd5b5035919050565b60008060408385031215611534578081fd5b82359150611544602084016114d4565b90509250929050565b6000806040838503121561155f578182fd5b8235915060208301358015158114611575578182fd5b809150509250929050565b600060208284031215611591578081fd5b81357fffffffff00000000000000000000000000000000000000000000000000000000811681146114cd578182fd5b60008060408385031215611534578182fd5b600080604083850312156115e4578182fd5b50508035926020909101359150565b7f416363657373436f6e74726f6c3a206163636f756e742000000000000000000081526000835161162b8160178501602088016116de565b7f206973206d697373696e6720726f6c652000000000000000000000000000000060179184019182015283516116688160288401602088016116de565b01602801949350505050565b60208152600082518060208401526116938160408501602087016116de565b601f01601f19169190910160400192915050565b600082198211156116ba576116ba611725565b500190565b60008160001904831182151516156116d9576116d9611725565b500290565b60005b838110156116f95781810151838201526020016116e1565b83811115611708576000848401525b50505050565b60008161171d5761171d611725565b506000190190565b634e487b7160e01b600052601160045260246000fdfea2646970667358221220db35a84ed8e5b0fbf9eaf30dfc9d75c2d391f2f8060dd187efe28c571d68720764736f6c63430008040033",
  "linkReferences": {},
  "deployedLinkReferences": {}
}