{
  "_format": "hh-sol-artifact-1",
  "contractName": "LPToken",
  "sourceName": "contracts/protocol/LPToken.sol",
  "abi": [
    {
      "anonymous": false,
      "inputs": [
        {
          "indexed": false,
          "internalType": "address",
          "name": "previousAdmin",
          "type": "address"
        },
        {
          "indexed": false,
          "internalType": "address",
          "name": "newAdmin",
          "type": "address"
        }
      ],
      "name": "AdminChanged",
      "type": "event"
    },
    {
      "anonymous": false,
      "inputs": [
        {
          "indexed": true,
          "internalType": "address",
          "name": "owner",
          "type": "address"
        },
        {
          "indexed": true,
          "internalType": "address",
          "name": "spender",
          "type": "address"
        },
        {
          "indexed": false,
          "internalType": "uint256",
          "name": "value",
          "type": "uint256"
        }
      ],
      "name": "Approval",
      "type": "event"
    },
    {
      "anonymous": false,
      "inputs": [
        {
          "indexed": true,
          "internalType": "address",
          "name": "beacon",
          "type": "address"
        }
      ],
      "name": "BeaconUpgraded",
      "type": "event"
    },
    {
      "anonymous": false,
      "inputs": [
        {
          "indexed": false,
          "internalType": "uint8",
          "name": "version",
          "type": "uint8"
        }
      ],
      "name": "Initialized",
      "type": "event"
    },
    {
      "anonymous": false,
      "inputs": [
        {
          "indexed": false,
          "internalType": "address",
          "name": "account",
          "type": "address"
        }
      ],
      "name": "Paused",
      "type": "event"
    },
    {
      "anonymous": false,
      "inputs": [
        {
          "indexed": true,
          "internalType": "bytes32",
          "name": "role",
          "type": "bytes32"
        },
        {
          "indexed": true,
          "internalType": "bytes32",
          "name": "previousAdminRole",
          "type": "bytes32"
        },
        {
          "indexed": true,
          "internalType": "bytes32",
          "name": "newAdminRole",
          "type": "bytes32"
        }
      ],
      "name": "RoleAdminChanged",
      "type": "event"
    },
    {
      "anonymous": false,
      "inputs": [
        {
          "indexed": true,
          "internalType": "bytes32",
          "name": "role",
          "type": "bytes32"
        },
        {
          "indexed": true,
          "internalType": "address",
          "name": "account",
          "type": "address"
        },
        {
          "indexed": true,
          "internalType": "address",
          "name": "sender",
          "type": "address"
        }
      ],
      "name": "RoleGranted",
      "type": "event"
    },
    {
      "anonymous": false,
      "inputs": [
        {
          "indexed": true,
          "internalType": "bytes32",
          "name": "role",
          "type": "bytes32"
        },
        {
          "indexed": true,
          "internalType": "address",
          "name": "account",
          "type": "address"
        },
        {
          "indexed": true,
          "internalType": "address",
          "name": "sender",
          "type": "address"
        }
      ],
      "name": "RoleRevoked",
      "type": "event"
    },
    {
      "anonymous": false,
      "inputs": [
        {
          "indexed": true,
          "internalType": "address",
          "name": "from",
          "type": "address"
        },
        {
          "indexed": true,
          "internalType": "address",
          "name": "to",
          "type": "address"
        },
        {
          "indexed": false,
          "internalType": "uint256",
          "name": "value",
          "type": "uint256"
        }
      ],
      "name": "Transfer",
      "type": "event"
    },
    {
      "anonymous": false,
      "inputs": [
        {
          "indexed": false,
          "internalType": "address",
          "name": "account",
          "type": "address"
        }
      ],
      "name": "Unpaused",
      "type": "event"
    },
    {
      "anonymous": false,
      "inputs": [
        {
          "indexed": true,
          "internalType": "address",
          "name": "implementation",
          "type": "address"
        }
      ],
      "name": "Upgraded",
      "type": "event"
    },
    {
      "inputs": [],
      "name": "DEFAULT_ADMIN_ROLE",
      "outputs": [
        {
          "internalType": "bytes32",
          "name": "",
          "type": "bytes32"
        }
      ],
      "stateMutability": "view",
      "type": "function"
    },
    {
      "inputs": [
        {
          "internalType": "address",
          "name": "owner",
          "type": "address"
        }
      ],
      "name": "_BaseUpgradeablePausable_init",
      "outputs": [],
      "stateMutability": "nonpayable",
      "type": "function"
    },
    {
      "inputs": [],
      "name": "__PauserPausable__init",
      "outputs": [],
      "stateMutability": "nonpayable",
      "type": "function"
    },
    {
      "inputs": [
        {
          "internalType": "address",
          "name": "owner",
          "type": "address"
        },
        {
          "internalType": "address",
          "name": "spender",
          "type": "address"
        }
      ],
      "name": "allowance",
      "outputs": [
        {
          "internalType": "uint256",
          "name": "",
          "type": "uint256"
        }
      ],
      "stateMutability": "view",
      "type": "function"
    },
    {
      "inputs": [
        {
          "internalType": "address",
          "name": "spender",
          "type": "address"
        },
        {
          "internalType": "uint256",
          "name": "amount",
          "type": "uint256"
        }
      ],
      "name": "approve",
      "outputs": [
        {
          "internalType": "bool",
          "name": "",
          "type": "bool"
        }
      ],
      "stateMutability": "nonpayable",
      "type": "function"
    },
    {
      "inputs": [
        {
          "internalType": "address",
          "name": "account",
          "type": "address"
        }
      ],
      "name": "balanceOf",
      "outputs": [
        {
          "internalType": "uint256",
          "name": "",
          "type": "uint256"
        }
      ],
      "stateMutability": "view",
      "type": "function"
    },
    {
      "inputs": [
        {
          "internalType": "address",
          "name": "_to",
          "type": "address"
        },
        {
          "internalType": "uint256",
          "name": "amount",
          "type": "uint256"
        }
      ],
      "name": "burn",
      "outputs": [],
      "stateMutability": "nonpayable",
      "type": "function"
    },
    {
      "inputs": [],
      "name": "decimals",
      "outputs": [
        {
          "internalType": "uint8",
          "name": "",
          "type": "uint8"
        }
      ],
      "stateMutability": "view",
      "type": "function"
    },
    {
      "inputs": [
        {
          "internalType": "address",
          "name": "spender",
          "type": "address"
        },
        {
          "internalType": "uint256",
          "name": "subtractedValue",
          "type": "uint256"
        }
      ],
      "name": "decreaseAllowance",
      "outputs": [
        {
          "internalType": "bool",
          "name": "",
          "type": "bool"
        }
      ],
      "stateMutability": "nonpayable",
      "type": "function"
    },
    {
      "inputs": [
        {
          "internalType": "bytes32",
          "name": "role",
          "type": "bytes32"
        }
      ],
      "name": "getRoleAdmin",
      "outputs": [
        {
          "internalType": "bytes32",
          "name": "",
          "type": "bytes32"
        }
      ],
      "stateMutability": "view",
      "type": "function"
    },
    {
      "inputs": [
        {
          "internalType": "bytes32",
          "name": "role",
          "type": "bytes32"
        },
        {
          "internalType": "address",
          "name": "account",
          "type": "address"
        }
      ],
      "name": "grantRole",
      "outputs": [],
      "stateMutability": "nonpayable",
      "type": "function"
    },
    {
      "inputs": [
        {
          "internalType": "bytes32",
          "name": "role",
          "type": "bytes32"
        },
        {
          "internalType": "address",
          "name": "account",
          "type": "address"
        }
      ],
      "name": "hasRole",
      "outputs": [
        {
          "internalType": "bool",
          "name": "",
          "type": "bool"
        }
      ],
      "stateMutability": "view",
      "type": "function"
    },
    {
      "inputs": [
        {
          "internalType": "address",
          "name": "spender",
          "type": "address"
        },
        {
          "internalType": "uint256",
          "name": "addedValue",
          "type": "uint256"
        }
      ],
      "name": "increaseAllowance",
      "outputs": [
        {
          "internalType": "bool",
          "name": "",
          "type": "bool"
        }
      ],
      "stateMutability": "nonpayable",
      "type": "function"
    },
    {
      "inputs": [
        {
          "internalType": "address",
          "name": "_stakingContract",
          "type": "address"
        }
      ],
      "name": "initialize",
      "outputs": [],
      "stateMutability": "nonpayable",
      "type": "function"
    },
    {
      "inputs": [],
      "name": "isAdmin",
      "outputs": [
        {
          "internalType": "bool",
          "name": "",
          "type": "bool"
        }
      ],
      "stateMutability": "view",
      "type": "function"
    },
    {
      "inputs": [
        {
          "internalType": "address",
          "name": "_to",
          "type": "address"
        },
        {
          "internalType": "uint256",
          "name": "amount",
          "type": "uint256"
        }
      ],
      "name": "mint",
      "outputs": [],
      "stateMutability": "nonpayable",
      "type": "function"
    },
    {
      "inputs": [],
      "name": "name",
      "outputs": [
        {
          "internalType": "string",
          "name": "",
          "type": "string"
        }
      ],
      "stateMutability": "view",
      "type": "function"
    },
    {
      "inputs": [],
      "name": "pause",
      "outputs": [],
      "stateMutability": "nonpayable",
      "type": "function"
    },
    {
      "inputs": [],
      "name": "paused",
      "outputs": [
        {
          "internalType": "bool",
          "name": "",
          "type": "bool"
        }
      ],
      "stateMutability": "view",
      "type": "function"
    },
    {
      "inputs": [],
      "name": "proxiableUUID",
      "outputs": [
        {
          "internalType": "bytes32",
          "name": "",
          "type": "bytes32"
        }
      ],
      "stateMutability": "view",
      "type": "function"
    },
    {
      "inputs": [
        {
          "internalType": "bytes32",
          "name": "role",
          "type": "bytes32"
        },
        {
          "internalType": "address",
          "name": "account",
          "type": "address"
        }
      ],
      "name": "renounceRole",
      "outputs": [],
      "stateMutability": "nonpayable",
      "type": "function"
    },
    {
      "inputs": [
        {
          "internalType": "bytes32",
          "name": "role",
          "type": "bytes32"
        },
        {
          "internalType": "address",
          "name": "account",
          "type": "address"
        }
      ],
      "name": "revokeRole",
      "outputs": [],
      "stateMutability": "nonpayable",
      "type": "function"
    },
    {
      "inputs": [
        {
          "internalType": "bytes4",
          "name": "interfaceId",
          "type": "bytes4"
        }
      ],
      "name": "supportsInterface",
      "outputs": [
        {
          "internalType": "bool",
          "name": "",
          "type": "bool"
        }
      ],
      "stateMutability": "view",
      "type": "function"
    },
    {
      "inputs": [],
      "name": "symbol",
      "outputs": [
        {
          "internalType": "string",
          "name": "",
          "type": "string"
        }
      ],
      "stateMutability": "view",
      "type": "function"
    },
    {
      "inputs": [],
      "name": "totalShares",
      "outputs": [
        {
          "internalType": "uint256",
          "name": "",
          "type": "uint256"
        }
      ],
      "stateMutability": "view",
      "type": "function"
    },
    {
      "inputs": [],
      "name": "totalSupply",
      "outputs": [
        {
          "internalType": "uint256",
          "name": "",
          "type": "uint256"
        }
      ],
      "stateMutability": "view",
      "type": "function"
    },
    {
      "inputs": [
        {
          "internalType": "address",
          "name": "to",
          "type": "address"
        },
        {
          "internalType": "uint256",
          "name": "amount",
          "type": "uint256"
        }
      ],
      "name": "transfer",
      "outputs": [
        {
          "internalType": "bool",
          "name": "",
          "type": "bool"
        }
      ],
      "stateMutability": "nonpayable",
      "type": "function"
    },
    {
      "inputs": [
        {
          "internalType": "address",
          "name": "from",
          "type": "address"
        },
        {
          "internalType": "address",
          "name": "to",
          "type": "address"
        },
        {
          "internalType": "uint256",
          "name": "amount",
          "type": "uint256"
        }
      ],
      "name": "transferFrom",
      "outputs": [
        {
          "internalType": "bool",
          "name": "",
          "type": "bool"
        }
      ],
      "stateMutability": "nonpayable",
      "type": "function"
    },
    {
      "inputs": [],
      "name": "unpause",
      "outputs": [],
      "stateMutability": "nonpayable",
      "type": "function"
    },
    {
      "inputs": [
        {
          "internalType": "address",
          "name": "newImplementation",
          "type": "address"
        }
      ],
      "name": "upgradeTo",
      "outputs": [],
      "stateMutability": "nonpayable",
      "type": "function"
    },
    {
      "inputs": [
        {
          "internalType": "address",
          "name": "newImplementation",
          "type": "address"
        },
        {
          "internalType": "bytes",
          "name": "data",
          "type": "bytes"
        }
      ],
      "name": "upgradeToAndCall",
      "outputs": [],
      "stateMutability": "payable",
      "type": "function"
    }
  ],
  "bytecode": "0x60a06040523060601b60805234801561001757600080fd5b5060805160601c6124d26100526000396000818161070b0152818161074b01528181610871015281816108b101526109f201526124d26000f3fe6080604052600436106101985760003560e01c8063526d81f6116100e2578063a12dde4d11610085578063a12dde4d14610462578063a217fddf14610482578063a457c2d714610497578063a9059cbb146104b7578063b6db75a0146104d7578063c4d66de8146104ec578063d547741f1461050c578063dd62ed3e1461052c57600080fd5b8063526d81f61461038057806352d1902d146103955780635c975abb146103aa57806370a08231146103c25780638456cb59146103f857806391d148541461040d57806395d89b411461042d5780639dc29fac1461044257600080fd5b8063313ce5671161014a578063313ce567146102a557806336568abe146102c15780633659cfe6146102e157806339509351146103015780633a98ef39146103215780633f4ba83a1461033857806340c10f191461034d5780634f1ef2861461036d57600080fd5b806301ffc9a71461019d57806306fdde03146101d2578063095ea7b3146101f457806318160ddd1461021457806323b872dd14610233578063248a9ca3146102535780632f2ff15d14610283575b600080fd5b3480156101a957600080fd5b506101bd6101b83660046120ab565b61054c565b60405190151581526020015b60405180910390f35b3480156101de57600080fd5b506101e7610583565b6040516101c9919061215e565b34801561020057600080fd5b506101bd61020f366004612030565b610615565b34801561022057600080fd5b506099545b6040519081526020016101c9565b34801561023f57600080fd5b506101bd61024e366004611f38565b61062d565b34801561025f57600080fd5b5061022561026e366004612059565b60009081526065602052604090206001015490565b34801561028f57600080fd5b506102a361029e366004612089565b610653565b005b3480156102b157600080fd5b50604051600681526020016101c9565b3480156102cd57600080fd5b506102a36102dc366004612089565b61067d565b3480156102ed57600080fd5b506102a36102fc366004611eec565b610700565b34801561030d57600080fd5b506101bd61031c366004612030565b6107c9565b34801561032d57600080fd5b506102256101915481565b34801561034457600080fd5b506102a36107eb565b34801561035957600080fd5b506102a3610368366004612030565b610822565b6102a361037b366004611f73565b610866565b34801561038c57600080fd5b506102a361091c565b3480156103a157600080fd5b506102256109e5565b3480156103b657600080fd5b5060c95460ff166101bd565b3480156103ce57600080fd5b506102256103dd366004611eec565b6001600160a01b031660009081526097602052604090205490565b34801561040457600080fd5b506102a3610a93565b34801561041957600080fd5b506101bd610428366004612089565b610ac2565b34801561043957600080fd5b506101e7610aed565b34801561044e57600080fd5b506102a361045d366004612030565b610afc565b34801561046e57600080fd5b506102a361047d366004611eec565b610b40565b34801561048e57600080fd5b50610225600081565b3480156104a357600080fd5b506101bd6104b2366004612030565b610c14565b3480156104c357600080fd5b506101bd6104d2366004612030565b610c9a565b3480156104e357600080fd5b506101bd610ca8565b3480156104f857600080fd5b506102a3610507366004611eec565b610cba565b34801561051857600080fd5b506102a3610527366004612089565b610e35565b34801561053857600080fd5b50610225610547366004611f06565b610e5a565b60006001600160e01b03198216637965db0b60e01b148061057d57506301ffc9a760e01b6001600160e01b03198316145b92915050565b6060609a8054610592906123ce565b80601f01602080910402602001604051908101604052809291908181526020018280546105be906123ce565b801561060b5780601f106105e05761010080835404028352916020019161060b565b820191906000526020600020905b8154815290600101906020018083116105ee57829003601f168201915b5050505050905090565b600033610623818585610e85565b5060019392505050565b60003361063b858285610fa9565b610646858585611023565b60019150505b9392505050565b60008281526065602052604090206001015461066e816111df565b61067883836111e9565b505050565b6001600160a01b03811633146106f25760405162461bcd60e51b815260206004820152602f60248201527f416363657373436f6e74726f6c3a2063616e206f6e6c792072656e6f756e636560448201526e103937b632b9903337b91039b2b63360891b60648201526084015b60405180910390fd5b6106fc828261126f565b5050565b306001600160a01b037f00000000000000000000000000000000000000000000000000000000000000001614156107495760405162461bcd60e51b81526004016106e9906121dd565b7f00000000000000000000000000000000000000000000000000000000000000006001600160a01b031661077b6112d6565b6001600160a01b0316146107a15760405162461bcd60e51b81526004016106e990612229565b6107aa816112f2565b604080516000808252602082019092526107c69183919061135a565b50565b6000336106238185856107dc8383610e5a565b6107e6919061233d565b610e85565b6107fc6107f66114d4565b33610ac2565b6108185760405162461bcd60e51b81526004016106e990612191565b6108206114f8565b565b61082d6107f661154a565b6108495760405162461bcd60e51b81526004016106e990612275565b8061019154610858919061233d565b610191556106fc828261156e565b306001600160a01b037f00000000000000000000000000000000000000000000000000000000000000001614156108af5760405162461bcd60e51b81526004016106e9906121dd565b7f00000000000000000000000000000000000000000000000000000000000000006001600160a01b03166108e16112d6565b6001600160a01b0316146109075760405162461bcd60e51b81526004016106e990612229565b610910826112f2565b6106fc8282600161135a565b600054610100900460ff161580801561093c5750600054600160ff909116105b806109565750303b158015610956575060005460ff166001145b6109725760405162461bcd60e51b81526004016106e9906122a4565b6000805460ff191660011790558015610995576000805461ff0019166101001790555b61099d61163b565b80156107c6576000805461ff0019169055604051600181527f7f26b83ff96e1f2b6a682f133852f6798a09c465da95921460cefb38474024989060200160405180910390a150565b6000306001600160a01b037f00000000000000000000000000000000000000000000000000000000000000001614610a805760405162461bcd60e51b815260206004820152603860248201527f555550535570677261646561626c653a206d757374206e6f742062652063616c6044820152771b1959081d1a1c9bdd59da0819195b1959d85d1958d85b1b60421b60648201526084016106e9565b5060008051602061243683398151915290565b610a9e6107f66114d4565b610aba5760405162461bcd60e51b81526004016106e990612191565b61082061166e565b60009182526065602090815260408084206001600160a01b0393909316845291905290205460ff1690565b6060609b8054610592906123ce565b610b076107f661154a565b610b235760405162461bcd60e51b81526004016106e990612275565b8061019154610b329190612374565b610191556106fc82826116ab565b600054610100900460ff16610b675760405162461bcd60e51b81526004016106e9906122f2565b6001600160a01b038116610bbd5760405162461bcd60e51b815260206004820181905260248201527f4f776e65722063616e6e6f7420626520746865207a65726f206164647265737360448201526064016106e9565b610bc56117e7565b610bcd61163b565b610bd561180e565b610be6610be061183c565b82611860565b610bf1610be06114d4565b610c09610bfc6114d4565b610c0461183c565b61186a565b6107c6610bfc61183c565b60003381610c228286610e5a565b905083811015610c825760405162461bcd60e51b815260206004820152602560248201527f45524332303a2064656372656173656420616c6c6f77616e63652062656c6f77604482015264207a65726f60d81b60648201526084016106e9565b610c8f8286868403610e85565b506001949350505050565b600033610623818585611023565b6000610cb56107f661183c565b905090565b600054610100900460ff1615808015610cda5750600054600160ff909116105b80610cf45750303b158015610cf4575060005460ff166001145b610d105760405162461bcd60e51b81526004016106e9906122a4565b6000805460ff191660011790558015610d33576000805461ff0019166101001790555b6001600160a01b038216610d835760405162461bcd60e51b8152602060048201526017602482015276496e76616c6964207374616b696e67206164647265737360481b60448201526064016106e9565b610dc760405180604001604052806008815260200167088f2cedcd2ccf2b60c31b81525060405180604001604052806002815260200161088b60f31b8152506118b5565b610dd8610dd261154a565b83611860565b610de3600033611860565b610dec33610b40565b80156106fc576000805461ff0019169055604051600181527f7f26b83ff96e1f2b6a682f133852f6798a09c465da95921460cefb38474024989060200160405180910390a15050565b600082815260656020526040902060010154610e50816111df565b610678838361126f565b6001600160a01b03918216600090815260986020908152604080832093909416825291909152205490565b6001600160a01b038316610ee75760405162461bcd60e51b8152602060048201526024808201527f45524332303a20617070726f76652066726f6d20746865207a65726f206164646044820152637265737360e01b60648201526084016106e9565b6001600160a01b038216610f485760405162461bcd60e51b815260206004820152602260248201527f45524332303a20617070726f766520746f20746865207a65726f206164647265604482015261737360f01b60648201526084016106e9565b6001600160a01b0383811660008181526098602090815260408083209487168084529482529182902085905590518481527f8c5be1e5ebec7d5bd14f71427d1e84f3dd0314c0f7b2291e5b200ac8c7c3b925910160405180910390a3505050565b6000610fb58484610e5a565b9050600019811461101d57818110156110105760405162461bcd60e51b815260206004820152601d60248201527f45524332303a20696e73756666696369656e7420616c6c6f77616e636500000060448201526064016106e9565b61101d8484848403610e85565b50505050565b6001600160a01b0383166110875760405162461bcd60e51b815260206004820152602560248201527f45524332303a207472616e736665722066726f6d20746865207a65726f206164604482015264647265737360d81b60648201526084016106e9565b6001600160a01b0382166110e95760405162461bcd60e51b815260206004820152602360248201527f45524332303a207472616e7366657220746f20746865207a65726f206164647260448201526265737360e81b60648201526084016106e9565b6001600160a01b038316600090815260976020526040902054818110156111615760405162461bcd60e51b815260206004820152602660248201527f45524332303a207472616e7366657220616d6f756e7420657863656564732062604482015265616c616e636560d01b60648201526084016106e9565b6001600160a01b0380851660009081526097602052604080822085850390559185168152908120805484929061119890849061233d565b92505081905550826001600160a01b0316846001600160a01b031660008051602061247d833981519152846040516111d291815260200190565b60405180910390a361101d565b6107c681336118e6565b6111f38282610ac2565b6106fc5760008281526065602090815260408083206001600160a01b03851684529091529020805460ff1916600117905561122b3390565b6001600160a01b0316816001600160a01b0316837f2f8788117e7eff1d82e926ec794901d17c78024a50270940304540a733656f0d60405160405180910390a45050565b6112798282610ac2565b156106fc5760008281526065602090815260408083206001600160a01b0385168085529252808320805460ff1916905551339285917ff6391f5c32d9c69d2a47ea670b442974b53935d1edc7fd64eb21e047a839171b9190a45050565b600080516020612436833981519152546001600160a01b031690565b6112fa610ca8565b6107c65760405162461bcd60e51b815260206004820152602b60248201527f4d75737420686176652061646d696e20726f6c6520746f20706572666f726d2060448201526a3a3434b99030b1ba34b7b760a91b60648201526084016106e9565b7f4910fdfa16fed3260ed0e7147f7cc6da11a60208b5b9406d12a635614ffd91435460ff161561138d576106788361194a565b826001600160a01b03166352d1902d6040518163ffffffff1660e01b815260040160206040518083038186803b1580156113c657600080fd5b505afa9250505080156113f6575060408051601f3d908101601f191682019092526113f391810190612071565b60015b6114595760405162461bcd60e51b815260206004820152602e60248201527f45524331393637557067726164653a206e657720696d706c656d656e7461746960448201526d6f6e206973206e6f74205555505360901b60648201526084016106e9565b60008051602061243683398151915281146114c85760405162461bcd60e51b815260206004820152602960248201527f45524331393637557067726164653a20756e737570706f727465642070726f786044820152681a58589b195555525160ba1b60648201526084016106e9565b506106788383836119e6565b7f65d7a28e3265b37a6474929f336521b332c1681b933f6cb9f3376673440d862a90565b611500611a0b565b60c9805460ff191690557f5db9ee0a495bf2e6ff9c91a7834c1ba4fdd244a5e8aa4e537bd38aeae4b073aa335b6040516001600160a01b03909116815260200160405180910390a1565b7f6270edb7c868f86fda4adedba75108201087268ea345934db8bad688e1feb91b90565b6001600160a01b0382166115c45760405162461bcd60e51b815260206004820152601f60248201527f45524332303a206d696e7420746f20746865207a65726f20616464726573730060448201526064016106e9565b80609960008282546115d6919061233d565b90915550506001600160a01b0382166000908152609760205260408120805483929061160390849061233d565b90915550506040518181526001600160a01b0383169060009060008051602061247d8339815191529060200160405180910390a35050565b600054610100900460ff166116625760405162461bcd60e51b81526004016106e9906122f2565b60c9805460ff19169055565b611676611a54565b60c9805460ff191660011790557f62e78cea01bee320cd4e420270b5ea74000d11b0c9f74754ebdbfc544b05a25861152d3390565b6001600160a01b03821661170b5760405162461bcd60e51b815260206004820152602160248201527f45524332303a206275726e2066726f6d20746865207a65726f206164647265736044820152607360f81b60648201526084016106e9565b6001600160a01b0382166000908152609760205260409020548181101561177f5760405162461bcd60e51b815260206004820152602260248201527f45524332303a206275726e20616d6f756e7420657863656564732062616c616e604482015261636560f01b60648201526084016106e9565b6001600160a01b03831660009081526097602052604081208383039055609980548492906117ae908490612374565b90915550506040518281526000906001600160a01b0385169060008051602061247d8339815191529060200160405180910390a3505050565b600054610100900460ff166108205760405162461bcd60e51b81526004016106e9906122f2565b600054610100900460ff166118355760405162461bcd60e51b81526004016106e9906122f2565b600160fb55565b7fa49807205ce4d355092ef5a8a18f56e8913cf4a201fbe287825b095693c2177590565b6106fc82826111e9565b600082815260656020526040808220600101805490849055905190918391839186917fbd79b86ffe0ab8e8776151514217cd7cacd52c909f66475c3af44e129f0b00ff9190a4505050565b600054610100900460ff166118dc5760405162461bcd60e51b81526004016106e9906122f2565b6106fc8282611a9a565b6118f08282610ac2565b6106fc57611908816001600160a01b03166014611ae8565b611913836020611ae8565b6040516020016119249291906120ef565b60408051601f198184030181529082905262461bcd60e51b82526106e99160040161215e565b6001600160a01b0381163b6119b75760405162461bcd60e51b815260206004820152602d60248201527f455243313936373a206e657720696d706c656d656e746174696f6e206973206e60448201526c1bdd08184818dbdb9d1c9858dd609a1b60648201526084016106e9565b60008051602061243683398151915280546001600160a01b0319166001600160a01b0392909216919091179055565b6119ef83611cca565b6000825111806119fc5750805b156106785761101d8383611d0a565b60c95460ff166108205760405162461bcd60e51b815260206004820152601460248201527314185d5cd8589b194e881b9bdd081c185d5cd95960621b60448201526064016106e9565b60c95460ff16156108205760405162461bcd60e51b815260206004820152601060248201526f14185d5cd8589b194e881c185d5cd95960821b60448201526064016106e9565b600054610100900460ff16611ac15760405162461bcd60e51b81526004016106e9906122f2565b8151611ad490609a906020850190611e37565b50805161067890609b906020840190611e37565b60606000611af7836002612355565b611b0290600261233d565b67ffffffffffffffff811115611b2857634e487b7160e01b600052604160045260246000fd5b6040519080825280601f01601f191660200182016040528015611b52576020820181803683370190505b509050600360fc1b81600081518110611b7b57634e487b7160e01b600052603260045260246000fd5b60200101906001600160f81b031916908160001a905350600f60fb1b81600181518110611bb857634e487b7160e01b600052603260045260246000fd5b60200101906001600160f81b031916908160001a9053506000611bdc846002612355565b611be790600161233d565b90505b6001811115611c7b576f181899199a1a9b1b9c1cb0b131b232b360811b85600f1660108110611c2957634e487b7160e01b600052603260045260246000fd5b1a60f81b828281518110611c4d57634e487b7160e01b600052603260045260246000fd5b60200101906001600160f81b031916908160001a90535060049490941c93611c74816123b7565b9050611bea565b50831561064c5760405162461bcd60e51b815260206004820181905260248201527f537472696e67733a20686578206c656e67746820696e73756666696369656e7460448201526064016106e9565b611cd38161194a565b6040516001600160a01b038216907fbc7cd75a20ee27fd9adebab32041f755214dbc6bffa90cc0225b39da2e5c2d3b90600090a250565b60606001600160a01b0383163b611d725760405162461bcd60e51b815260206004820152602660248201527f416464726573733a2064656c65676174652063616c6c20746f206e6f6e2d636f6044820152651b9d1c9858dd60d21b60648201526084016106e9565b600080846001600160a01b031684604051611d8d91906120d3565b600060405180830381855af49150503d8060008114611dc8576040519150601f19603f3d011682016040523d82523d6000602084013e611dcd565b606091505b5091509150611df5828260405180606001604052806027815260200161245660279139611dfe565b95945050505050565b60608315611e0d57508161064c565b825115611e1d5782518084602001fd5b8160405162461bcd60e51b81526004016106e9919061215e565b828054611e43906123ce565b90600052602060002090601f016020900481019282611e655760008555611eab565b82601f10611e7e57805160ff1916838001178555611eab565b82800160010185558215611eab579182015b82811115611eab578251825591602001919060010190611e90565b50611eb7929150611ebb565b5090565b5b80821115611eb75760008155600101611ebc565b80356001600160a01b0381168114611ee757600080fd5b919050565b600060208284031215611efd578081fd5b61064c82611ed0565b60008060408385031215611f18578081fd5b611f2183611ed0565b9150611f2f60208401611ed0565b90509250929050565b600080600060608486031215611f4c578081fd5b611f5584611ed0565b9250611f6360208501611ed0565b9150604084013590509250925092565b60008060408385031215611f85578182fd5b611f8e83611ed0565b9150602083013567ffffffffffffffff80821115611faa578283fd5b818501915085601f830112611fbd578283fd5b813581811115611fcf57611fcf61241f565b604051601f8201601f19908116603f01168101908382118183101715611ff757611ff761241f565b8160405282815288602084870101111561200f578586fd5b82602086016020830137856020848301015280955050505050509250929050565b60008060408385031215612042578182fd5b61204b83611ed0565b946020939093013593505050565b60006020828403121561206a578081fd5b5035919050565b600060208284031215612082578081fd5b5051919050565b6000806040838503121561209b578182fd5b82359150611f2f60208401611ed0565b6000602082840312156120bc578081fd5b81356001600160e01b03198116811461064c578182fd5b600082516120e581846020870161238b565b9190910192915050565b76020b1b1b2b9b9a1b7b73a3937b61d1030b1b1b7bab73a1604d1b81526000835161212181601785016020880161238b565b7001034b99036b4b9b9b4b733903937b6329607d1b601791840191820152835161215281602884016020880161238b565b01602801949350505050565b602081526000825180602084015261217d81604085016020870161238b565b601f01601f19169190910160400192915050565b6020808252602c908201527f4d75737420686176652070617573657220726f6c6520746f20706572666f726d60408201526b103a3434b99030b1ba34b7b760a11b606082015260800190565b6020808252602c908201527f46756e6374696f6e206d7573742062652063616c6c6564207468726f7567682060408201526b19195b1959d85d1958d85b1b60a21b606082015260800190565b6020808252602c908201527f46756e6374696f6e206d7573742062652063616c6c6564207468726f7567682060408201526b6163746976652070726f787960a01b606082015260800190565b60208082526015908201527421b0b63632b91034b9903737ba10309027bbb732b960591b604082015260600190565b6020808252602e908201527f496e697469616c697a61626c653a20636f6e747261637420697320616c72656160408201526d191e481a5b9a5d1a585b1a5e995960921b606082015260800190565b6020808252602b908201527f496e697469616c697a61626c653a20636f6e7472616374206973206e6f74206960408201526a6e697469616c697a696e6760a81b606082015260800190565b6000821982111561235057612350612409565b500190565b600081600019048311821515161561236f5761236f612409565b500290565b60008282101561238657612386612409565b500390565b60005b838110156123a657818101518382015260200161238e565b8381111561101d5750506000910152565b6000816123c6576123c6612409565b506000190190565b600181811c908216806123e257607f821691505b6020821081141561240357634e487b7160e01b600052602260045260246000fd5b50919050565b634e487b7160e01b600052601160045260246000fd5b634e487b7160e01b600052604160045260246000fdfe360894a13ba1a3210667c828492db98dca3e2076cc3735a920a3ca505d382bbc416464726573733a206c6f772d6c6576656c2064656c65676174652063616c6c206661696c6564ddf252ad1be2c89b69c2b068fc378daa952ba7f163c4a11628f55a4df523b3efa26469706673582212209f0fe7ff46cb3598f7fbc7e89cabba5c4207566e20600b14eb33db5a9ba967fe64736f6c63430008040033",
  "linkReferences": {},
  "deployedLinkReferences": {}
}