{
  "_format": "hh-sol-artifact-1",
  "contractName": "LPToken",
  "sourceName": "contracts/protocol/LPToken.sol",
  "abi": [
    {
      "anonymous": false,
      "inputs": [
        {
          "indexed": true,
          "internalType": "address",
          "name": "owner",
          "type": "address"
        },
        {
          "indexed": true,
          "internalType": "address",
          "name": "spender",
          "type": "address"
        },
        {
          "indexed": false,
          "internalType": "uint256",
          "name": "value",
          "type": "uint256"
        }
      ],
      "name": "Approval",
      "type": "event"
    },
    {
      "anonymous": false,
      "inputs": [
        {
          "indexed": false,
          "internalType": "uint8",
          "name": "version",
          "type": "uint8"
        }
      ],
      "name": "Initialized",
      "type": "event"
    },
    {
      "anonymous": false,
      "inputs": [
        {
          "indexed": true,
          "internalType": "bytes32",
          "name": "role",
          "type": "bytes32"
        },
        {
          "indexed": true,
          "internalType": "bytes32",
          "name": "previousAdminRole",
          "type": "bytes32"
        },
        {
          "indexed": true,
          "internalType": "bytes32",
          "name": "newAdminRole",
          "type": "bytes32"
        }
      ],
      "name": "RoleAdminChanged",
      "type": "event"
    },
    {
      "anonymous": false,
      "inputs": [
        {
          "indexed": true,
          "internalType": "bytes32",
          "name": "role",
          "type": "bytes32"
        },
        {
          "indexed": true,
          "internalType": "address",
          "name": "account",
          "type": "address"
        },
        {
          "indexed": true,
          "internalType": "address",
          "name": "sender",
          "type": "address"
        }
      ],
      "name": "RoleGranted",
      "type": "event"
    },
    {
      "anonymous": false,
      "inputs": [
        {
          "indexed": true,
          "internalType": "bytes32",
          "name": "role",
          "type": "bytes32"
        },
        {
          "indexed": true,
          "internalType": "address",
          "name": "account",
          "type": "address"
        },
        {
          "indexed": true,
          "internalType": "address",
          "name": "sender",
          "type": "address"
        }
      ],
      "name": "RoleRevoked",
      "type": "event"
    },
    {
      "anonymous": false,
      "inputs": [
        {
          "indexed": true,
          "internalType": "address",
          "name": "from",
          "type": "address"
        },
        {
          "indexed": true,
          "internalType": "address",
          "name": "to",
          "type": "address"
        },
        {
          "indexed": false,
          "internalType": "uint256",
          "name": "value",
          "type": "uint256"
        }
      ],
      "name": "Transfer",
      "type": "event"
    },
    {
      "inputs": [],
      "name": "DEFAULT_ADMIN_ROLE",
      "outputs": [
        {
          "internalType": "bytes32",
          "name": "",
          "type": "bytes32"
        }
      ],
      "stateMutability": "view",
      "type": "function"
    },
    {
      "inputs": [
        {
          "internalType": "address",
          "name": "owner",
          "type": "address"
        },
        {
          "internalType": "address",
          "name": "spender",
          "type": "address"
        }
      ],
      "name": "allowance",
      "outputs": [
        {
          "internalType": "uint256",
          "name": "",
          "type": "uint256"
        }
      ],
      "stateMutability": "view",
      "type": "function"
    },
    {
      "inputs": [
        {
          "internalType": "address",
          "name": "spender",
          "type": "address"
        },
        {
          "internalType": "uint256",
          "name": "amount",
          "type": "uint256"
        }
      ],
      "name": "approve",
      "outputs": [
        {
          "internalType": "bool",
          "name": "",
          "type": "bool"
        }
      ],
      "stateMutability": "nonpayable",
      "type": "function"
    },
    {
      "inputs": [
        {
          "internalType": "address",
          "name": "account",
          "type": "address"
        }
      ],
      "name": "balanceOf",
      "outputs": [
        {
          "internalType": "uint256",
          "name": "",
          "type": "uint256"
        }
      ],
      "stateMutability": "view",
      "type": "function"
    },
    {
      "inputs": [
        {
          "internalType": "address",
          "name": "_to",
          "type": "address"
        },
        {
          "internalType": "uint256",
          "name": "amount",
          "type": "uint256"
        }
      ],
      "name": "burn",
      "outputs": [],
      "stateMutability": "nonpayable",
      "type": "function"
    },
    {
      "inputs": [],
      "name": "decimals",
      "outputs": [
        {
          "internalType": "uint8",
          "name": "",
          "type": "uint8"
        }
      ],
      "stateMutability": "view",
      "type": "function"
    },
    {
      "inputs": [
        {
          "internalType": "address",
          "name": "spender",
          "type": "address"
        },
        {
          "internalType": "uint256",
          "name": "subtractedValue",
          "type": "uint256"
        }
      ],
      "name": "decreaseAllowance",
      "outputs": [
        {
          "internalType": "bool",
          "name": "",
          "type": "bool"
        }
      ],
      "stateMutability": "nonpayable",
      "type": "function"
    },
    {
      "inputs": [
        {
          "internalType": "bytes32",
          "name": "role",
          "type": "bytes32"
        }
      ],
      "name": "getRoleAdmin",
      "outputs": [
        {
          "internalType": "bytes32",
          "name": "",
          "type": "bytes32"
        }
      ],
      "stateMutability": "view",
      "type": "function"
    },
    {
      "inputs": [
        {
          "internalType": "bytes32",
          "name": "role",
          "type": "bytes32"
        },
        {
          "internalType": "address",
          "name": "account",
          "type": "address"
        }
      ],
      "name": "grantRole",
      "outputs": [],
      "stateMutability": "nonpayable",
      "type": "function"
    },
    {
      "inputs": [
        {
          "internalType": "bytes32",
          "name": "role",
          "type": "bytes32"
        },
        {
          "internalType": "address",
          "name": "account",
          "type": "address"
        }
      ],
      "name": "hasRole",
      "outputs": [
        {
          "internalType": "bool",
          "name": "",
          "type": "bool"
        }
      ],
      "stateMutability": "view",
      "type": "function"
    },
    {
      "inputs": [
        {
          "internalType": "address",
          "name": "spender",
          "type": "address"
        },
        {
          "internalType": "uint256",
          "name": "addedValue",
          "type": "uint256"
        }
      ],
      "name": "increaseAllowance",
      "outputs": [
        {
          "internalType": "bool",
          "name": "",
          "type": "bool"
        }
      ],
      "stateMutability": "nonpayable",
      "type": "function"
    },
    {
      "inputs": [
        {
          "internalType": "address",
          "name": "_stakingContract",
          "type": "address"
        }
      ],
      "name": "initialize",
      "outputs": [],
      "stateMutability": "nonpayable",
      "type": "function"
    },
    {
      "inputs": [
        {
          "internalType": "address",
          "name": "_to",
          "type": "address"
        },
        {
          "internalType": "uint256",
          "name": "amount",
          "type": "uint256"
        }
      ],
      "name": "mint",
      "outputs": [],
      "stateMutability": "nonpayable",
      "type": "function"
    },
    {
      "inputs": [],
      "name": "name",
      "outputs": [
        {
          "internalType": "string",
          "name": "",
          "type": "string"
        }
      ],
      "stateMutability": "view",
      "type": "function"
    },
    {
      "inputs": [
        {
          "internalType": "bytes32",
          "name": "role",
          "type": "bytes32"
        },
        {
          "internalType": "address",
          "name": "account",
          "type": "address"
        }
      ],
      "name": "renounceRole",
      "outputs": [],
      "stateMutability": "nonpayable",
      "type": "function"
    },
    {
      "inputs": [
        {
          "internalType": "bytes32",
          "name": "role",
          "type": "bytes32"
        },
        {
          "internalType": "address",
          "name": "account",
          "type": "address"
        }
      ],
      "name": "revokeRole",
      "outputs": [],
      "stateMutability": "nonpayable",
      "type": "function"
    },
    {
      "inputs": [
        {
          "internalType": "bytes4",
          "name": "interfaceId",
          "type": "bytes4"
        }
      ],
      "name": "supportsInterface",
      "outputs": [
        {
          "internalType": "bool",
          "name": "",
          "type": "bool"
        }
      ],
      "stateMutability": "view",
      "type": "function"
    },
    {
      "inputs": [],
      "name": "symbol",
      "outputs": [
        {
          "internalType": "string",
          "name": "",
          "type": "string"
        }
      ],
      "stateMutability": "view",
      "type": "function"
    },
    {
      "inputs": [],
      "name": "totalShares",
      "outputs": [
        {
          "internalType": "uint256",
          "name": "",
          "type": "uint256"
        }
      ],
      "stateMutability": "view",
      "type": "function"
    },
    {
      "inputs": [],
      "name": "totalSupply",
      "outputs": [
        {
          "internalType": "uint256",
          "name": "",
          "type": "uint256"
        }
      ],
      "stateMutability": "view",
      "type": "function"
    },
    {
      "inputs": [
        {
          "internalType": "address",
          "name": "to",
          "type": "address"
        },
        {
          "internalType": "uint256",
          "name": "amount",
          "type": "uint256"
        }
      ],
      "name": "transfer",
      "outputs": [
        {
          "internalType": "bool",
          "name": "",
          "type": "bool"
        }
      ],
      "stateMutability": "nonpayable",
      "type": "function"
    },
    {
      "inputs": [
        {
          "internalType": "address",
          "name": "from",
          "type": "address"
        },
        {
          "internalType": "address",
          "name": "to",
          "type": "address"
        },
        {
          "internalType": "uint256",
          "name": "amount",
          "type": "uint256"
        }
      ],
      "name": "transferFrom",
      "outputs": [
        {
          "internalType": "bool",
          "name": "",
          "type": "bool"
        }
      ],
      "stateMutability": "nonpayable",
      "type": "function"
    }
  ],
  "bytecode": "0x608060405234801561001057600080fd5b50611930806100206000396000f3fe608060405234801561001057600080fd5b50600436106101825760003560e01c806340c10f19116100d8578063a217fddf1161008c578063c4d66de811610066578063c4d66de814610330578063d547741f14610343578063dd62ed3e1461035657600080fd5b8063a217fddf14610302578063a457c2d71461030a578063a9059cbb1461031d57600080fd5b806391d14854116100bd57806391d14854146102ae57806395d89b41146102e75780639dc29fac146102ef57600080fd5b806340c10f191461027257806370a082311461028557600080fd5b8063248a9ca31161013a57806336568abe1161011457806336568abe1461024357806339509351146102565780633a98ef391461026957600080fd5b8063248a9ca3146101fc5780632f2ff15d1461021f578063313ce5671461023457600080fd5b8063095ea7b31161016b578063095ea7b3146101c457806318160ddd146101d757806323b872dd146101e957600080fd5b806301ffc9a71461018757806306fdde03146101af575b600080fd5b61019a610195366004611724565b61038f565b60405190151581526020015b60405180910390f35b6101b7610428565b6040516101a691906117e5565b61019a6101d23660046116c1565b6104ba565b6099545b6040519081526020016101a6565b61019a6101f7366004611686565b6104d2565b6101db61020a3660046116ea565b60009081526065602052604090206001015490565b61023261022d366004611702565b6104f6565b005b604051600681526020016101a6565b610232610251366004611702565b610520565b61019a6102643660046116c1565b6105b1565b6101db60c95481565b6102326102803660046116c1565b6105f0565b6101db61029336600461163a565b6001600160a01b031660009081526097602052604090205490565b61019a6102bc366004611702565b60009182526065602090815260408084206001600160a01b0393909316845291905290205460ff1690565b6101b761069c565b6102326102fd3660046116c1565b6106ab565b6101db600081565b61019a6103183660046116c1565b61073b565b61019a61032b3660046116c1565b6107e5565b61023261033e36600461163a565b6107f3565b610232610351366004611702565b610a0a565b6101db610364366004611654565b6001600160a01b03918216600090815260986020908152604080832093909416825291909152205490565b60007fffffffff0000000000000000000000000000000000000000000000000000000082167f7965db0b00000000000000000000000000000000000000000000000000000000148061042257507f01ffc9a7000000000000000000000000000000000000000000000000000000007fffffffff000000000000000000000000000000000000000000000000000000008316145b92915050565b6060609a8054610437906118a9565b80601f0160208091040260200160405190810160405280929190818152602001828054610463906118a9565b80156104b05780601f10610485576101008083540402835291602001916104b0565b820191906000526020600020905b81548152906001019060200180831161049357829003601f168201915b5050505050905090565b6000336104c8818585610a2f565b5060019392505050565b6000336104e0858285610b87565b6104eb858585610c19565b506001949350505050565b60008281526065602052604090206001015461051181610e30565b61051b8383610e3d565b505050565b6001600160a01b03811633146105a35760405162461bcd60e51b815260206004820152602f60248201527f416363657373436f6e74726f6c3a2063616e206f6e6c792072656e6f756e636560448201527f20726f6c657320666f722073656c66000000000000000000000000000000000060648201526084015b60405180910390fd5b6105ad8282610edf565b5050565b3360008181526098602090815260408083206001600160a01b03871684529091528120549091906104c890829086906105eb908790611818565b610a2f565b6106357f6270edb7c868f86fda4adedba75108201087268ea345934db8bad688e1feb91b5b600090815260656020908152604080832033845290915290205460ff1690565b6106815760405162461bcd60e51b815260206004820152601560248201527f43616c6c6572206973206e6f742061204f776e65720000000000000000000000604482015260640161059a565b8060c95461068f9190611818565b60c9556105ad8282610f62565b6060609b8054610437906118a9565b6106d47f6270edb7c868f86fda4adedba75108201087268ea345934db8bad688e1feb91b610615565b6107205760405162461bcd60e51b815260206004820152601560248201527f43616c6c6572206973206e6f742061204f776e65720000000000000000000000604482015260640161059a565b8060c95461072e919061184f565b60c9556105ad8282611041565b3360008181526098602090815260408083206001600160a01b0387168452909152812054909190838110156107d85760405162461bcd60e51b815260206004820152602560248201527f45524332303a2064656372656173656420616c6c6f77616e63652062656c6f7760448201527f207a65726f000000000000000000000000000000000000000000000000000000606482015260840161059a565b6104eb8286868403610a2f565b6000336104c8818585610c19565b600054610100900460ff16158080156108135750600054600160ff909116105b8061082d5750303b15801561082d575060005460ff166001145b61089f5760405162461bcd60e51b815260206004820152602e60248201527f496e697469616c697a61626c653a20636f6e747261637420697320616c72656160448201527f647920696e697469616c697a6564000000000000000000000000000000000000606482015260840161059a565b6000805460ff1916600117905580156108c2576000805461ff0019166101001790555b6001600160a01b0382166109185760405162461bcd60e51b815260206004820152601760248201527f496e76616c6964207374616b696e672061646472657373000000000000000000604482015260640161059a565b61098c6040518060400160405280600881526020017f4479676e696679580000000000000000000000000000000000000000000000008152506040518060400160405280600281526020017f44580000000000000000000000000000000000000000000000000000000000008152506111c6565b6109b67f6270edb7c868f86fda4adedba75108201087268ea345934db8bad688e1feb91b8361123b565b6109c160003361123b565b80156105ad576000805461ff0019169055604051600181527f7f26b83ff96e1f2b6a682f133852f6798a09c465da95921460cefb38474024989060200160405180910390a15050565b600082815260656020526040902060010154610a2581610e30565b61051b8383610edf565b6001600160a01b038316610aaa5760405162461bcd60e51b8152602060048201526024808201527f45524332303a20617070726f76652066726f6d20746865207a65726f2061646460448201527f7265737300000000000000000000000000000000000000000000000000000000606482015260840161059a565b6001600160a01b038216610b265760405162461bcd60e51b815260206004820152602260248201527f45524332303a20617070726f766520746f20746865207a65726f20616464726560448201527f7373000000000000000000000000000000000000000000000000000000000000606482015260840161059a565b6001600160a01b0383811660008181526098602090815260408083209487168084529482529182902085905590518481527f8c5be1e5ebec7d5bd14f71427d1e84f3dd0314c0f7b2291e5b200ac8c7c3b925910160405180910390a3505050565b6001600160a01b038381166000908152609860209081526040808320938616835292905220546000198114610c135781811015610c065760405162461bcd60e51b815260206004820152601d60248201527f45524332303a20696e73756666696369656e7420616c6c6f77616e6365000000604482015260640161059a565b610c138484848403610a2f565b50505050565b6001600160a01b038316610c955760405162461bcd60e51b815260206004820152602560248201527f45524332303a207472616e736665722066726f6d20746865207a65726f20616460448201527f6472657373000000000000000000000000000000000000000000000000000000606482015260840161059a565b6001600160a01b038216610d115760405162461bcd60e51b815260206004820152602360248201527f45524332303a207472616e7366657220746f20746865207a65726f206164647260448201527f6573730000000000000000000000000000000000000000000000000000000000606482015260840161059a565b6001600160a01b03831660009081526097602052604090205481811015610da05760405162461bcd60e51b815260206004820152602660248201527f45524332303a207472616e7366657220616d6f756e742065786365656473206260448201527f616c616e63650000000000000000000000000000000000000000000000000000606482015260840161059a565b6001600160a01b03808516600090815260976020526040808220858503905591851681529081208054849290610dd7908490611818565b92505081905550826001600160a01b0316846001600160a01b03167fddf252ad1be2c89b69c2b068fc378daa952ba7f163c4a11628f55a4df523b3ef84604051610e2391815260200190565b60405180910390a3610c13565b610e3a8133611245565b50565b60008281526065602090815260408083206001600160a01b038516845290915290205460ff166105ad5760008281526065602090815260408083206001600160a01b03851684529091529020805460ff19166001179055610e9b3390565b6001600160a01b0316816001600160a01b0316837f2f8788117e7eff1d82e926ec794901d17c78024a50270940304540a733656f0d60405160405180910390a45050565b60008281526065602090815260408083206001600160a01b038516845290915290205460ff16156105ad5760008281526065602090815260408083206001600160a01b0385168085529252808320805460ff1916905551339285917ff6391f5c32d9c69d2a47ea670b442974b53935d1edc7fd64eb21e047a839171b9190a45050565b6001600160a01b038216610fb85760405162461bcd60e51b815260206004820152601f60248201527f45524332303a206d696e7420746f20746865207a65726f206164647265737300604482015260640161059a565b8060996000828254610fca9190611818565b90915550506001600160a01b03821660009081526097602052604081208054839290610ff7908490611818565b90915550506040518181526001600160a01b038316906000907fddf252ad1be2c89b69c2b068fc378daa952ba7f163c4a11628f55a4df523b3ef9060200160405180910390a35050565b6001600160a01b0382166110bd5760405162461bcd60e51b815260206004820152602160248201527f45524332303a206275726e2066726f6d20746865207a65726f2061646472657360448201527f7300000000000000000000000000000000000000000000000000000000000000606482015260840161059a565b6001600160a01b0382166000908152609760205260409020548181101561114c5760405162461bcd60e51b815260206004820152602260248201527f45524332303a206275726e20616d6f756e7420657863656564732062616c616e60448201527f6365000000000000000000000000000000000000000000000000000000000000606482015260840161059a565b6001600160a01b038316600090815260976020526040812083830390556099805484929061117b90849061184f565b90915550506040518281526000906001600160a01b038516907fddf252ad1be2c89b69c2b068fc378daa952ba7f163c4a11628f55a4df523b3ef9060200160405180910390a3505050565b600054610100900460ff166112315760405162461bcd60e51b815260206004820152602b60248201527f496e697469616c697a61626c653a20636f6e7472616374206973206e6f74206960448201526a6e697469616c697a696e6760a81b606482015260840161059a565b6105ad82826112c5565b6105ad8282610e3d565b60008281526065602090815260408083206001600160a01b038516845290915290205460ff166105ad57611283816001600160a01b03166014611357565b61128e836020611357565b60405160200161129f929190611764565b60408051601f198184030181529082905262461bcd60e51b825261059a916004016117e5565b600054610100900460ff166113305760405162461bcd60e51b815260206004820152602b60248201527f496e697469616c697a61626c653a20636f6e7472616374206973206e6f74206960448201526a6e697469616c697a696e6760a81b606482015260840161059a565b815161134390609a906020850190611585565b50805161051b90609b906020840190611585565b60606000611366836002611830565b611371906002611818565b67ffffffffffffffff81111561139757634e487b7160e01b600052604160045260246000fd5b6040519080825280601f01601f1916602001820160405280156113c1576020820181803683370190505b5090507f30000000000000000000000000000000000000000000000000000000000000008160008151811061140657634e487b7160e01b600052603260045260246000fd5b60200101906001600160f81b031916908160001a9053507f78000000000000000000000000000000000000000000000000000000000000008160018151811061145f57634e487b7160e01b600052603260045260246000fd5b60200101906001600160f81b031916908160001a9053506000611483846002611830565b61148e906001611818565b90505b600181111561152f577f303132333435363738396162636465660000000000000000000000000000000085600f16601081106114dd57634e487b7160e01b600052603260045260246000fd5b1a60f81b82828151811061150157634e487b7160e01b600052603260045260246000fd5b60200101906001600160f81b031916908160001a90535060049490941c9361152881611892565b9050611491565b50831561157e5760405162461bcd60e51b815260206004820181905260248201527f537472696e67733a20686578206c656e67746820696e73756666696369656e74604482015260640161059a565b9392505050565b828054611591906118a9565b90600052602060002090601f0160209004810192826115b357600085556115f9565b82601f106115cc57805160ff19168380011785556115f9565b828001600101855582156115f9579182015b828111156115f95782518255916020019190600101906115de565b50611605929150611609565b5090565b5b80821115611605576000815560010161160a565b80356001600160a01b038116811461163557600080fd5b919050565b60006020828403121561164b578081fd5b61157e8261161e565b60008060408385031215611666578081fd5b61166f8361161e565b915061167d6020840161161e565b90509250929050565b60008060006060848603121561169a578081fd5b6116a38461161e565b92506116b16020850161161e565b9150604084013590509250925092565b600080604083850312156116d3578182fd5b6116dc8361161e565b946020939093013593505050565b6000602082840312156116fb578081fd5b5035919050565b60008060408385031215611714578182fd5b8235915061167d6020840161161e565b600060208284031215611735578081fd5b81357fffffffff000000000000000000000000000000000000000000000000000000008116811461157e578182fd5b7f416363657373436f6e74726f6c3a206163636f756e742000000000000000000081526000835161179c816017850160208801611866565b7f206973206d697373696e6720726f6c652000000000000000000000000000000060179184019182015283516117d9816028840160208801611866565b01602801949350505050565b6020815260008251806020840152611804816040850160208701611866565b601f01601f19169190910160400192915050565b6000821982111561182b5761182b6118e4565b500190565b600081600019048311821515161561184a5761184a6118e4565b500290565b600082821015611861576118616118e4565b500390565b60005b83811015611881578181015183820152602001611869565b83811115610c135750506000910152565b6000816118a1576118a16118e4565b506000190190565b600181811c908216806118bd57607f821691505b602082108114156118de57634e487b7160e01b600052602260045260246000fd5b50919050565b634e487b7160e01b600052601160045260246000fdfea26469706673582212205414d27cce4be9a07abddf3ea267d33d8492d8e0d2a6560367efea9a7520225d64736f6c63430008040033",
  "linkReferences": {},
  "deployedLinkReferences": {}
}