{
  "_format": "hh-sol-artifact-1",
  "contractName": "LPToken",
  "sourceName": "contracts/protocol/LPToken.sol",
  "abi": [
    {
      "anonymous": false,
      "inputs": [
        {
          "indexed": true,
          "internalType": "address",
          "name": "owner",
          "type": "address"
        },
        {
          "indexed": true,
          "internalType": "address",
          "name": "spender",
          "type": "address"
        },
        {
          "indexed": false,
          "internalType": "uint256",
          "name": "value",
          "type": "uint256"
        }
      ],
      "name": "Approval",
      "type": "event"
    },
    {
      "anonymous": false,
      "inputs": [
        {
          "indexed": false,
          "internalType": "uint8",
          "name": "version",
          "type": "uint8"
        }
      ],
      "name": "Initialized",
      "type": "event"
    },
    {
      "anonymous": false,
      "inputs": [
        {
          "indexed": true,
          "internalType": "bytes32",
          "name": "role",
          "type": "bytes32"
        },
        {
          "indexed": true,
          "internalType": "bytes32",
          "name": "previousAdminRole",
          "type": "bytes32"
        },
        {
          "indexed": true,
          "internalType": "bytes32",
          "name": "newAdminRole",
          "type": "bytes32"
        }
      ],
      "name": "RoleAdminChanged",
      "type": "event"
    },
    {
      "anonymous": false,
      "inputs": [
        {
          "indexed": true,
          "internalType": "bytes32",
          "name": "role",
          "type": "bytes32"
        },
        {
          "indexed": true,
          "internalType": "address",
          "name": "account",
          "type": "address"
        },
        {
          "indexed": true,
          "internalType": "address",
          "name": "sender",
          "type": "address"
        }
      ],
      "name": "RoleGranted",
      "type": "event"
    },
    {
      "anonymous": false,
      "inputs": [
        {
          "indexed": true,
          "internalType": "bytes32",
          "name": "role",
          "type": "bytes32"
        },
        {
          "indexed": true,
          "internalType": "address",
          "name": "account",
          "type": "address"
        },
        {
          "indexed": true,
          "internalType": "address",
          "name": "sender",
          "type": "address"
        }
      ],
      "name": "RoleRevoked",
      "type": "event"
    },
    {
      "anonymous": false,
      "inputs": [
        {
          "indexed": true,
          "internalType": "address",
          "name": "from",
          "type": "address"
        },
        {
          "indexed": true,
          "internalType": "address",
          "name": "to",
          "type": "address"
        },
        {
          "indexed": false,
          "internalType": "uint256",
          "name": "value",
          "type": "uint256"
        }
      ],
      "name": "Transfer",
      "type": "event"
    },
    {
      "inputs": [],
      "name": "DEFAULT_ADMIN_ROLE",
      "outputs": [
        {
          "internalType": "bytes32",
          "name": "",
          "type": "bytes32"
        }
      ],
      "stateMutability": "view",
      "type": "function"
    },
    {
      "inputs": [
        {
          "internalType": "address",
          "name": "owner",
          "type": "address"
        },
        {
          "internalType": "address",
          "name": "spender",
          "type": "address"
        }
      ],
      "name": "allowance",
      "outputs": [
        {
          "internalType": "uint256",
          "name": "",
          "type": "uint256"
        }
      ],
      "stateMutability": "view",
      "type": "function"
    },
    {
      "inputs": [
        {
          "internalType": "address",
          "name": "spender",
          "type": "address"
        },
        {
          "internalType": "uint256",
          "name": "amount",
          "type": "uint256"
        }
      ],
      "name": "approve",
      "outputs": [
        {
          "internalType": "bool",
          "name": "",
          "type": "bool"
        }
      ],
      "stateMutability": "nonpayable",
      "type": "function"
    },
    {
      "inputs": [
        {
          "internalType": "address",
          "name": "account",
          "type": "address"
        }
      ],
      "name": "balanceOf",
      "outputs": [
        {
          "internalType": "uint256",
          "name": "",
          "type": "uint256"
        }
      ],
      "stateMutability": "view",
      "type": "function"
    },
    {
      "inputs": [
        {
          "internalType": "address",
          "name": "_to",
          "type": "address"
        },
        {
          "internalType": "uint256",
          "name": "amount",
          "type": "uint256"
        }
      ],
      "name": "burn",
      "outputs": [],
      "stateMutability": "nonpayable",
      "type": "function"
    },
    {
      "inputs": [],
      "name": "decimals",
      "outputs": [
        {
          "internalType": "uint8",
          "name": "",
          "type": "uint8"
        }
      ],
      "stateMutability": "view",
      "type": "function"
    },
    {
      "inputs": [
        {
          "internalType": "address",
          "name": "spender",
          "type": "address"
        },
        {
          "internalType": "uint256",
          "name": "subtractedValue",
          "type": "uint256"
        }
      ],
      "name": "decreaseAllowance",
      "outputs": [
        {
          "internalType": "bool",
          "name": "",
          "type": "bool"
        }
      ],
      "stateMutability": "nonpayable",
      "type": "function"
    },
    {
      "inputs": [
        {
          "internalType": "bytes32",
          "name": "role",
          "type": "bytes32"
        }
      ],
      "name": "getRoleAdmin",
      "outputs": [
        {
          "internalType": "bytes32",
          "name": "",
          "type": "bytes32"
        }
      ],
      "stateMutability": "view",
      "type": "function"
    },
    {
      "inputs": [
        {
          "internalType": "bytes32",
          "name": "role",
          "type": "bytes32"
        },
        {
          "internalType": "address",
          "name": "account",
          "type": "address"
        }
      ],
      "name": "grantRole",
      "outputs": [],
      "stateMutability": "nonpayable",
      "type": "function"
    },
    {
      "inputs": [
        {
          "internalType": "bytes32",
          "name": "role",
          "type": "bytes32"
        },
        {
          "internalType": "address",
          "name": "account",
          "type": "address"
        }
      ],
      "name": "hasRole",
      "outputs": [
        {
          "internalType": "bool",
          "name": "",
          "type": "bool"
        }
      ],
      "stateMutability": "view",
      "type": "function"
    },
    {
      "inputs": [
        {
          "internalType": "address",
          "name": "spender",
          "type": "address"
        },
        {
          "internalType": "uint256",
          "name": "addedValue",
          "type": "uint256"
        }
      ],
      "name": "increaseAllowance",
      "outputs": [
        {
          "internalType": "bool",
          "name": "",
          "type": "bool"
        }
      ],
      "stateMutability": "nonpayable",
      "type": "function"
    },
    {
      "inputs": [
        {
          "internalType": "address",
          "name": "_stakingContract",
          "type": "address"
        }
      ],
      "name": "initialize",
      "outputs": [],
      "stateMutability": "nonpayable",
      "type": "function"
    },
    {
      "inputs": [
        {
          "internalType": "address",
          "name": "_to",
          "type": "address"
        },
        {
          "internalType": "uint256",
          "name": "amount",
          "type": "uint256"
        }
      ],
      "name": "mint",
      "outputs": [],
      "stateMutability": "nonpayable",
      "type": "function"
    },
    {
      "inputs": [],
      "name": "name",
      "outputs": [
        {
          "internalType": "string",
          "name": "",
          "type": "string"
        }
      ],
      "stateMutability": "view",
      "type": "function"
    },
    {
      "inputs": [
        {
          "internalType": "bytes32",
          "name": "role",
          "type": "bytes32"
        },
        {
          "internalType": "address",
          "name": "account",
          "type": "address"
        }
      ],
      "name": "renounceRole",
      "outputs": [],
      "stateMutability": "nonpayable",
      "type": "function"
    },
    {
      "inputs": [
        {
          "internalType": "bytes32",
          "name": "role",
          "type": "bytes32"
        },
        {
          "internalType": "address",
          "name": "account",
          "type": "address"
        }
      ],
      "name": "revokeRole",
      "outputs": [],
      "stateMutability": "nonpayable",
      "type": "function"
    },
    {
      "inputs": [
        {
          "internalType": "bytes4",
          "name": "interfaceId",
          "type": "bytes4"
        }
      ],
      "name": "supportsInterface",
      "outputs": [
        {
          "internalType": "bool",
          "name": "",
          "type": "bool"
        }
      ],
      "stateMutability": "view",
      "type": "function"
    },
    {
      "inputs": [],
      "name": "symbol",
      "outputs": [
        {
          "internalType": "string",
          "name": "",
          "type": "string"
        }
      ],
      "stateMutability": "view",
      "type": "function"
    },
    {
      "inputs": [],
      "name": "totalShares",
      "outputs": [
        {
          "internalType": "uint256",
          "name": "",
          "type": "uint256"
        }
      ],
      "stateMutability": "view",
      "type": "function"
    },
    {
      "inputs": [],
      "name": "totalSupply",
      "outputs": [
        {
          "internalType": "uint256",
          "name": "",
          "type": "uint256"
        }
      ],
      "stateMutability": "view",
      "type": "function"
    },
    {
      "inputs": [
        {
          "internalType": "address",
          "name": "to",
          "type": "address"
        },
        {
          "internalType": "uint256",
          "name": "amount",
          "type": "uint256"
        }
      ],
      "name": "transfer",
      "outputs": [
        {
          "internalType": "bool",
          "name": "",
          "type": "bool"
        }
      ],
      "stateMutability": "nonpayable",
      "type": "function"
    },
    {
      "inputs": [
        {
          "internalType": "address",
          "name": "from",
          "type": "address"
        },
        {
          "internalType": "address",
          "name": "to",
          "type": "address"
        },
        {
          "internalType": "uint256",
          "name": "amount",
          "type": "uint256"
        }
      ],
      "name": "transferFrom",
      "outputs": [
        {
          "internalType": "bool",
          "name": "",
          "type": "bool"
        }
      ],
      "stateMutability": "nonpayable",
      "type": "function"
    }
  ],
  "bytecode": "0x608060405234801561001057600080fd5b5061159f806100206000396000f3fe608060405234801561001057600080fd5b50600436106101425760003560e01c806340c10f19116100b8578063a217fddf1161007c578063a217fddf1461029c578063a457c2d7146102a4578063a9059cbb146102b7578063c4d66de8146102ca578063d547741f146102dd578063dd62ed3e146102f057600080fd5b806340c10f191461023257806370a082311461024557806391d148541461026e57806395d89b41146102815780639dc29fac1461028957600080fd5b8063248a9ca31161010a578063248a9ca3146101bc5780632f2ff15d146101df578063313ce567146101f457806336568abe1461020357806339509351146102165780633a98ef391461022957600080fd5b806301ffc9a71461014757806306fdde031461016f578063095ea7b31461018457806318160ddd1461019757806323b872dd146101a9575b600080fd5b61015a610155366004611323565b610303565b60405190151581526020015b60405180910390f35b61017761033a565b60405161016691906113ba565b61015a6101923660046112c0565b6103cc565b6099545b604051908152602001610166565b61015a6101b7366004611285565b6103e4565b61019b6101ca3660046112e9565b60009081526065602052604090206001015490565b6101f26101ed366004611301565b610408565b005b60405160068152602001610166565b6101f2610211366004611301565b610432565b61015a6102243660046112c0565b6104b5565b61019b60c95481565b6101f26102403660046112c0565b6104d7565b61019b610253366004611239565b6001600160a01b031660009081526097602052604090205490565b61015a61027c366004611301565b61051f565b61017761054a565b6101f26102973660046112c0565b610559565b61019b600081565b61015a6102b23660046112c0565b61059b565b61015a6102c53660046112c0565b610616565b6101f26102d8366004611239565b610624565b6101f26102eb366004611301565b6107dd565b61019b6102fe366004611253565b610802565b60006001600160e01b03198216637965db0b60e01b148061033457506301ffc9a760e01b6001600160e01b03198316145b92915050565b6060609a8054610349906114f8565b80601f0160208091040260200160405190810160405280929190818152602001828054610375906114f8565b80156103c25780601f10610397576101008083540402835291602001916103c2565b820191906000526020600020905b8154815290600101906020018083116103a557829003601f168201915b5050505050905090565b6000336103da81858561082d565b5060019392505050565b6000336103f2858285610951565b6103fd8585856109cb565b506001949350505050565b60008281526065602052604090206001015461042381610b87565b61042d8383610b94565b505050565b6001600160a01b03811633146104a75760405162461bcd60e51b815260206004820152602f60248201527f416363657373436f6e74726f6c3a2063616e206f6e6c792072656e6f756e636560448201526e103937b632b9903337b91039b2b63360891b60648201526084015b60405180910390fd5b6104b18282610c1a565b5050565b6000336103da8185856104c88383610802565b6104d29190611467565b61082d565b6104e86104e2610c81565b3361051f565b6105045760405162461bcd60e51b815260040161049e906113ed565b8060c9546105129190611467565b60c9556104b18282610ca5565b60009182526065602090815260408084206001600160a01b0393909316845291905290205460ff1690565b6060609b8054610349906114f8565b6105646104e2610c81565b6105805760405162461bcd60e51b815260040161049e906113ed565b8060c95461058e919061149e565b60c9556104b18282610d72565b600033816105a98286610802565b9050838110156106095760405162461bcd60e51b815260206004820152602560248201527f45524332303a2064656372656173656420616c6c6f77616e63652062656c6f77604482015264207a65726f60d81b606482015260840161049e565b6103fd828686840361082d565b6000336103da8185856109cb565b600054610100900460ff16158080156106445750600054600160ff909116105b8061065e5750303b15801561065e575060005460ff166001145b6106c15760405162461bcd60e51b815260206004820152602e60248201527f496e697469616c697a61626c653a20636f6e747261637420697320616c72656160448201526d191e481a5b9a5d1a585b1a5e995960921b606482015260840161049e565b6000805460ff1916600117905580156106e4576000805461ff0019166101001790555b6001600160a01b0382166107345760405162461bcd60e51b8152602060048201526017602482015276496e76616c6964207374616b696e67206164647265737360481b604482015260640161049e565b61077860405180604001604052806008815260200167088f2cedcd2ccf2b60c31b81525060405180604001604052806002815260200161088b60f31b815250610eae565b610789610783610c81565b83610edf565b610794600033610edf565b80156104b1576000805461ff0019169055604051600181527f7f26b83ff96e1f2b6a682f133852f6798a09c465da95921460cefb38474024989060200160405180910390a15050565b6000828152606560205260409020600101546107f881610b87565b61042d8383610c1a565b6001600160a01b03918216600090815260986020908152604080832093909416825291909152205490565b6001600160a01b03831661088f5760405162461bcd60e51b8152602060048201526024808201527f45524332303a20617070726f76652066726f6d20746865207a65726f206164646044820152637265737360e01b606482015260840161049e565b6001600160a01b0382166108f05760405162461bcd60e51b815260206004820152602260248201527f45524332303a20617070726f766520746f20746865207a65726f206164647265604482015261737360f01b606482015260840161049e565b6001600160a01b0383811660008181526098602090815260408083209487168084529482529182902085905590518481527f8c5be1e5ebec7d5bd14f71427d1e84f3dd0314c0f7b2291e5b200ac8c7c3b925910160405180910390a3505050565b600061095d8484610802565b905060001981146109c557818110156109b85760405162461bcd60e51b815260206004820152601d60248201527f45524332303a20696e73756666696369656e7420616c6c6f77616e6365000000604482015260640161049e565b6109c5848484840361082d565b50505050565b6001600160a01b038316610a2f5760405162461bcd60e51b815260206004820152602560248201527f45524332303a207472616e736665722066726f6d20746865207a65726f206164604482015264647265737360d81b606482015260840161049e565b6001600160a01b038216610a915760405162461bcd60e51b815260206004820152602360248201527f45524332303a207472616e7366657220746f20746865207a65726f206164647260448201526265737360e81b606482015260840161049e565b6001600160a01b03831660009081526097602052604090205481811015610b095760405162461bcd60e51b815260206004820152602660248201527f45524332303a207472616e7366657220616d6f756e7420657863656564732062604482015265616c616e636560d01b606482015260840161049e565b6001600160a01b03808516600090815260976020526040808220858503905591851681529081208054849290610b40908490611467565b92505081905550826001600160a01b0316846001600160a01b031660008051602061154a83398151915284604051610b7a91815260200190565b60405180910390a36109c5565b610b918133610ee9565b50565b610b9e828261051f565b6104b15760008281526065602090815260408083206001600160a01b03851684529091529020805460ff19166001179055610bd63390565b6001600160a01b0316816001600160a01b0316837f2f8788117e7eff1d82e926ec794901d17c78024a50270940304540a733656f0d60405160405180910390a45050565b610c24828261051f565b156104b15760008281526065602090815260408083206001600160a01b0385168085529252808320805460ff1916905551339285917ff6391f5c32d9c69d2a47ea670b442974b53935d1edc7fd64eb21e047a839171b9190a45050565b7f6270edb7c868f86fda4adedba75108201087268ea345934db8bad688e1feb91b90565b6001600160a01b038216610cfb5760405162461bcd60e51b815260206004820152601f60248201527f45524332303a206d696e7420746f20746865207a65726f206164647265737300604482015260640161049e565b8060996000828254610d0d9190611467565b90915550506001600160a01b03821660009081526097602052604081208054839290610d3a908490611467565b90915550506040518181526001600160a01b0383169060009060008051602061154a8339815191529060200160405180910390a35050565b6001600160a01b038216610dd25760405162461bcd60e51b815260206004820152602160248201527f45524332303a206275726e2066726f6d20746865207a65726f206164647265736044820152607360f81b606482015260840161049e565b6001600160a01b03821660009081526097602052604090205481811015610e465760405162461bcd60e51b815260206004820152602260248201527f45524332303a206275726e20616d6f756e7420657863656564732062616c616e604482015261636560f01b606482015260840161049e565b6001600160a01b0383166000908152609760205260408120838303905560998054849290610e7590849061149e565b90915550506040518281526000906001600160a01b0385169060008051602061154a8339815191529060200160405180910390a3505050565b600054610100900460ff16610ed55760405162461bcd60e51b815260040161049e9061141c565b6104b18282610f4d565b6104b18282610b94565b610ef3828261051f565b6104b157610f0b816001600160a01b03166014610f9b565b610f16836020610f9b565b604051602001610f2792919061134b565b60408051601f198184030181529082905262461bcd60e51b825261049e916004016113ba565b600054610100900460ff16610f745760405162461bcd60e51b815260040161049e9061141c565b8151610f8790609a906020850190611184565b50805161042d90609b906020840190611184565b60606000610faa83600261147f565b610fb5906002611467565b67ffffffffffffffff811115610fdb57634e487b7160e01b600052604160045260246000fd5b6040519080825280601f01601f191660200182016040528015611005576020820181803683370190505b509050600360fc1b8160008151811061102e57634e487b7160e01b600052603260045260246000fd5b60200101906001600160f81b031916908160001a905350600f60fb1b8160018151811061106b57634e487b7160e01b600052603260045260246000fd5b60200101906001600160f81b031916908160001a905350600061108f84600261147f565b61109a906001611467565b90505b600181111561112e576f181899199a1a9b1b9c1cb0b131b232b360811b85600f16601081106110dc57634e487b7160e01b600052603260045260246000fd5b1a60f81b82828151811061110057634e487b7160e01b600052603260045260246000fd5b60200101906001600160f81b031916908160001a90535060049490941c93611127816114e1565b905061109d565b50831561117d5760405162461bcd60e51b815260206004820181905260248201527f537472696e67733a20686578206c656e67746820696e73756666696369656e74604482015260640161049e565b9392505050565b828054611190906114f8565b90600052602060002090601f0160209004810192826111b257600085556111f8565b82601f106111cb57805160ff19168380011785556111f8565b828001600101855582156111f8579182015b828111156111f85782518255916020019190600101906111dd565b50611204929150611208565b5090565b5b808211156112045760008155600101611209565b80356001600160a01b038116811461123457600080fd5b919050565b60006020828403121561124a578081fd5b61117d8261121d565b60008060408385031215611265578081fd5b61126e8361121d565b915061127c6020840161121d565b90509250929050565b600080600060608486031215611299578081fd5b6112a28461121d565b92506112b06020850161121d565b9150604084013590509250925092565b600080604083850312156112d2578182fd5b6112db8361121d565b946020939093013593505050565b6000602082840312156112fa578081fd5b5035919050565b60008060408385031215611313578182fd5b8235915061127c6020840161121d565b600060208284031215611334578081fd5b81356001600160e01b03198116811461117d578182fd5b76020b1b1b2b9b9a1b7b73a3937b61d1030b1b1b7bab73a1604d1b81526000835161137d8160178501602088016114b5565b7001034b99036b4b9b9b4b733903937b6329607d1b60179184019182015283516113ae8160288401602088016114b5565b01602801949350505050565b60208152600082518060208401526113d98160408501602087016114b5565b601f01601f19169190910160400192915050565b60208082526015908201527421b0b63632b91034b9903737ba10309027bbb732b960591b604082015260600190565b6020808252602b908201527f496e697469616c697a61626c653a20636f6e7472616374206973206e6f74206960408201526a6e697469616c697a696e6760a81b606082015260800190565b6000821982111561147a5761147a611533565b500190565b600081600019048311821515161561149957611499611533565b500290565b6000828210156114b0576114b0611533565b500390565b60005b838110156114d05781810151838201526020016114b8565b838111156109c55750506000910152565b6000816114f0576114f0611533565b506000190190565b600181811c9082168061150c57607f821691505b6020821081141561152d57634e487b7160e01b600052602260045260246000fd5b50919050565b634e487b7160e01b600052601160045260246000fdfeddf252ad1be2c89b69c2b068fc378daa952ba7f163c4a11628f55a4df523b3efa264697066735822122037029d0637dc40c1addc669a4324ca871e7f4449f7669df4aa72a5e2b0bc353764736f6c63430008040033",
  "linkReferences": {},
  "deployedLinkReferences": {}
}