{
  "_format": "hh-sol-artifact-1",
  "contractName": "LPToken",
  "sourceName": "contracts/protocol/LPToken.sol",
  "abi": [
    {
      "anonymous": false,
      "inputs": [
        {
          "indexed": true,
          "internalType": "address",
          "name": "owner",
          "type": "address"
        },
        {
          "indexed": true,
          "internalType": "address",
          "name": "spender",
          "type": "address"
        },
        {
          "indexed": false,
          "internalType": "uint256",
          "name": "value",
          "type": "uint256"
        }
      ],
      "name": "Approval",
      "type": "event"
    },
    {
      "anonymous": false,
      "inputs": [
        {
          "indexed": false,
          "internalType": "uint8",
          "name": "version",
          "type": "uint8"
        }
      ],
      "name": "Initialized",
      "type": "event"
    },
    {
      "anonymous": false,
      "inputs": [
        {
          "indexed": true,
          "internalType": "bytes32",
          "name": "role",
          "type": "bytes32"
        },
        {
          "indexed": true,
          "internalType": "bytes32",
          "name": "previousAdminRole",
          "type": "bytes32"
        },
        {
          "indexed": true,
          "internalType": "bytes32",
          "name": "newAdminRole",
          "type": "bytes32"
        }
      ],
      "name": "RoleAdminChanged",
      "type": "event"
    },
    {
      "anonymous": false,
      "inputs": [
        {
          "indexed": true,
          "internalType": "bytes32",
          "name": "role",
          "type": "bytes32"
        },
        {
          "indexed": true,
          "internalType": "address",
          "name": "account",
          "type": "address"
        },
        {
          "indexed": true,
          "internalType": "address",
          "name": "sender",
          "type": "address"
        }
      ],
      "name": "RoleGranted",
      "type": "event"
    },
    {
      "anonymous": false,
      "inputs": [
        {
          "indexed": true,
          "internalType": "bytes32",
          "name": "role",
          "type": "bytes32"
        },
        {
          "indexed": true,
          "internalType": "address",
          "name": "account",
          "type": "address"
        },
        {
          "indexed": true,
          "internalType": "address",
          "name": "sender",
          "type": "address"
        }
      ],
      "name": "RoleRevoked",
      "type": "event"
    },
    {
      "anonymous": false,
      "inputs": [
        {
          "indexed": true,
          "internalType": "address",
          "name": "from",
          "type": "address"
        },
        {
          "indexed": true,
          "internalType": "address",
          "name": "to",
          "type": "address"
        },
        {
          "indexed": false,
          "internalType": "uint256",
          "name": "value",
          "type": "uint256"
        }
      ],
      "name": "Transfer",
      "type": "event"
    },
    {
      "inputs": [],
      "name": "DEFAULT_ADMIN_ROLE",
      "outputs": [
        {
          "internalType": "bytes32",
          "name": "",
          "type": "bytes32"
        }
      ],
      "stateMutability": "view",
      "type": "function"
    },
    {
      "inputs": [],
      "name": "OWNER",
      "outputs": [
        {
          "internalType": "bytes32",
          "name": "",
          "type": "bytes32"
        }
      ],
      "stateMutability": "view",
      "type": "function"
    },
    {
      "inputs": [
        {
          "internalType": "address",
          "name": "owner",
          "type": "address"
        },
        {
          "internalType": "address",
          "name": "spender",
          "type": "address"
        }
      ],
      "name": "allowance",
      "outputs": [
        {
          "internalType": "uint256",
          "name": "",
          "type": "uint256"
        }
      ],
      "stateMutability": "view",
      "type": "function"
    },
    {
      "inputs": [
        {
          "internalType": "address",
          "name": "spender",
          "type": "address"
        },
        {
          "internalType": "uint256",
          "name": "amount",
          "type": "uint256"
        }
      ],
      "name": "approve",
      "outputs": [
        {
          "internalType": "bool",
          "name": "",
          "type": "bool"
        }
      ],
      "stateMutability": "nonpayable",
      "type": "function"
    },
    {
      "inputs": [
        {
          "internalType": "address",
          "name": "account",
          "type": "address"
        }
      ],
      "name": "balanceOf",
      "outputs": [
        {
          "internalType": "uint256",
          "name": "",
          "type": "uint256"
        }
      ],
      "stateMutability": "view",
      "type": "function"
    },
    {
      "inputs": [
        {
          "internalType": "address",
          "name": "_to",
          "type": "address"
        },
        {
          "internalType": "uint256",
          "name": "amount",
          "type": "uint256"
        }
      ],
      "name": "burn",
      "outputs": [],
      "stateMutability": "nonpayable",
      "type": "function"
    },
    {
      "inputs": [],
      "name": "decimals",
      "outputs": [
        {
          "internalType": "uint8",
          "name": "",
          "type": "uint8"
        }
      ],
      "stateMutability": "view",
      "type": "function"
    },
    {
      "inputs": [
        {
          "internalType": "address",
          "name": "spender",
          "type": "address"
        },
        {
          "internalType": "uint256",
          "name": "subtractedValue",
          "type": "uint256"
        }
      ],
      "name": "decreaseAllowance",
      "outputs": [
        {
          "internalType": "bool",
          "name": "",
          "type": "bool"
        }
      ],
      "stateMutability": "nonpayable",
      "type": "function"
    },
    {
      "inputs": [
        {
          "internalType": "bytes32",
          "name": "role",
          "type": "bytes32"
        }
      ],
      "name": "getRoleAdmin",
      "outputs": [
        {
          "internalType": "bytes32",
          "name": "",
          "type": "bytes32"
        }
      ],
      "stateMutability": "view",
      "type": "function"
    },
    {
      "inputs": [
        {
          "internalType": "bytes32",
          "name": "role",
          "type": "bytes32"
        },
        {
          "internalType": "address",
          "name": "account",
          "type": "address"
        }
      ],
      "name": "grantRole",
      "outputs": [],
      "stateMutability": "nonpayable",
      "type": "function"
    },
    {
      "inputs": [
        {
          "internalType": "bytes32",
          "name": "role",
          "type": "bytes32"
        },
        {
          "internalType": "address",
          "name": "account",
          "type": "address"
        }
      ],
      "name": "hasRole",
      "outputs": [
        {
          "internalType": "bool",
          "name": "",
          "type": "bool"
        }
      ],
      "stateMutability": "view",
      "type": "function"
    },
    {
      "inputs": [
        {
          "internalType": "address",
          "name": "spender",
          "type": "address"
        },
        {
          "internalType": "uint256",
          "name": "addedValue",
          "type": "uint256"
        }
      ],
      "name": "increaseAllowance",
      "outputs": [
        {
          "internalType": "bool",
          "name": "",
          "type": "bool"
        }
      ],
      "stateMutability": "nonpayable",
      "type": "function"
    },
    {
      "inputs": [
        {
          "internalType": "address",
          "name": "_stakingContract",
          "type": "address"
        }
      ],
      "name": "initialize",
      "outputs": [],
      "stateMutability": "nonpayable",
      "type": "function"
    },
    {
      "inputs": [
        {
          "internalType": "address",
          "name": "_to",
          "type": "address"
        },
        {
          "internalType": "uint256",
          "name": "amount",
          "type": "uint256"
        }
      ],
      "name": "mint",
      "outputs": [],
      "stateMutability": "nonpayable",
      "type": "function"
    },
    {
      "inputs": [],
      "name": "name",
      "outputs": [
        {
          "internalType": "string",
          "name": "",
          "type": "string"
        }
      ],
      "stateMutability": "view",
      "type": "function"
    },
    {
      "inputs": [
        {
          "internalType": "bytes32",
          "name": "role",
          "type": "bytes32"
        },
        {
          "internalType": "address",
          "name": "account",
          "type": "address"
        }
      ],
      "name": "renounceRole",
      "outputs": [],
      "stateMutability": "nonpayable",
      "type": "function"
    },
    {
      "inputs": [
        {
          "internalType": "bytes32",
          "name": "role",
          "type": "bytes32"
        },
        {
          "internalType": "address",
          "name": "account",
          "type": "address"
        }
      ],
      "name": "revokeRole",
      "outputs": [],
      "stateMutability": "nonpayable",
      "type": "function"
    },
    {
      "inputs": [
        {
          "internalType": "bytes4",
          "name": "interfaceId",
          "type": "bytes4"
        }
      ],
      "name": "supportsInterface",
      "outputs": [
        {
          "internalType": "bool",
          "name": "",
          "type": "bool"
        }
      ],
      "stateMutability": "view",
      "type": "function"
    },
    {
      "inputs": [],
      "name": "symbol",
      "outputs": [
        {
          "internalType": "string",
          "name": "",
          "type": "string"
        }
      ],
      "stateMutability": "view",
      "type": "function"
    },
    {
      "inputs": [],
      "name": "totalShares",
      "outputs": [
        {
          "internalType": "uint256",
          "name": "",
          "type": "uint256"
        }
      ],
      "stateMutability": "view",
      "type": "function"
    },
    {
      "inputs": [],
      "name": "totalSupply",
      "outputs": [
        {
          "internalType": "uint256",
          "name": "",
          "type": "uint256"
        }
      ],
      "stateMutability": "view",
      "type": "function"
    },
    {
      "inputs": [
        {
          "internalType": "address",
          "name": "to",
          "type": "address"
        },
        {
          "internalType": "uint256",
          "name": "amount",
          "type": "uint256"
        }
      ],
      "name": "transfer",
      "outputs": [
        {
          "internalType": "bool",
          "name": "",
          "type": "bool"
        }
      ],
      "stateMutability": "nonpayable",
      "type": "function"
    },
    {
      "inputs": [
        {
          "internalType": "address",
          "name": "from",
          "type": "address"
        },
        {
          "internalType": "address",
          "name": "to",
          "type": "address"
        },
        {
          "internalType": "uint256",
          "name": "amount",
          "type": "uint256"
        }
      ],
      "name": "transferFrom",
      "outputs": [
        {
          "internalType": "bool",
          "name": "",
          "type": "bool"
        }
      ],
      "stateMutability": "nonpayable",
      "type": "function"
    }
  ],
  "bytecode": "0x608060405234801561001057600080fd5b5061195c806100206000396000f3fe608060405234801561001057600080fd5b506004361061018d5760003560e01c80633a98ef39116100e3578063a217fddf1161008c578063c4d66de811610066578063c4d66de814610366578063d547741f14610379578063dd62ed3e1461038c57600080fd5b8063a217fddf14610338578063a457c2d714610340578063a9059cbb1461035357600080fd5b806391d14854116100bd57806391d14854146102e457806395d89b411461031d5780639dc29fac1461032557600080fd5b80633a98ef391461029f57806340c10f19146102a857806370a08231146102bb57600080fd5b806323b872dd11610145578063313ce5671161011f578063313ce5671461026a57806336568abe14610279578063395093511461028c57600080fd5b806323b872dd1461021f578063248a9ca3146102325780632f2ff15d1461025557600080fd5b8063095ea7b311610176578063095ea7b3146101cf578063117803e3146101e257806318160ddd1461021757600080fd5b806301ffc9a71461019257806306fdde03146101ba575b600080fd5b6101a56101a0366004611750565b6103c5565b60405190151581526020015b60405180910390f35b6101c261045e565b6040516101b19190611811565b6101a56101dd3660046116ed565b6104f0565b6102097f6270edb7c868f86fda4adedba75108201087268ea345934db8bad688e1feb91b81565b6040519081526020016101b1565b609954610209565b6101a561022d3660046116b2565b610508565b610209610240366004611716565b60009081526065602052604090206001015490565b61026861026336600461172e565b61052c565b005b604051601281526020016101b1565b61026861028736600461172e565b610556565b6101a561029a3660046116ed565b6105e7565b61020960c95481565b6102686102b63660046116ed565b610626565b6102096102c9366004611666565b6001600160a01b031660009081526097602052604090205490565b6101a56102f236600461172e565b60009182526065602090815260408084206001600160a01b0393909316845291905290205460ff1690565b6101c26106bf565b6102686103333660046116ed565b6106ce565b610209600081565b6101a561034e3660046116ed565b610767565b6101a56103613660046116ed565b610811565b610268610374366004611666565b61081f565b61026861038736600461172e565b610a36565b61020961039a366004611680565b6001600160a01b03918216600090815260986020908152604080832093909416825291909152205490565b60007fffffffff0000000000000000000000000000000000000000000000000000000082167f7965db0b00000000000000000000000000000000000000000000000000000000148061045857507f01ffc9a7000000000000000000000000000000000000000000000000000000007fffffffff000000000000000000000000000000000000000000000000000000008316145b92915050565b6060609a805461046d906118d5565b80601f0160208091040260200160405190810160405280929190818152602001828054610499906118d5565b80156104e65780601f106104bb576101008083540402835291602001916104e6565b820191906000526020600020905b8154815290600101906020018083116104c957829003601f168201915b5050505050905090565b6000336104fe818585610a5b565b5060019392505050565b600033610516858285610bb3565b610521858585610c45565b506001949350505050565b60008281526065602052604090206001015461054781610e5c565b6105518383610e69565b505050565b6001600160a01b03811633146105d95760405162461bcd60e51b815260206004820152602f60248201527f416363657373436f6e74726f6c3a2063616e206f6e6c792072656e6f756e636560448201527f20726f6c657320666f722073656c66000000000000000000000000000000000060648201526084015b60405180910390fd5b6105e38282610f0b565b5050565b3360008181526098602090815260408083206001600160a01b03871684529091528120549091906104fe9082908690610621908790611844565b610a5b565b3360009081527f077c9007150f571447365d3bd382bfccc7ce27caa9a880faf975f29f5cafcb79602052604090205460ff166106a45760405162461bcd60e51b815260206004820152601560248201527f43616c6c6572206973206e6f742061204f776e6572000000000000000000000060448201526064016105d0565b8060c9546106b29190611844565b60c9556105e38282610f8e565b6060609b805461046d906118d5565b3360009081527f077c9007150f571447365d3bd382bfccc7ce27caa9a880faf975f29f5cafcb79602052604090205460ff1661074c5760405162461bcd60e51b815260206004820152601560248201527f43616c6c6572206973206e6f742061204f776e6572000000000000000000000060448201526064016105d0565b8060c95461075a919061187b565b60c9556105e3828261106d565b3360008181526098602090815260408083206001600160a01b0387168452909152812054909190838110156108045760405162461bcd60e51b815260206004820152602560248201527f45524332303a2064656372656173656420616c6c6f77616e63652062656c6f7760448201527f207a65726f00000000000000000000000000000000000000000000000000000060648201526084016105d0565b6105218286868403610a5b565b6000336104fe818585610c45565b600054610100900460ff161580801561083f5750600054600160ff909116105b806108595750303b158015610859575060005460ff166001145b6108cb5760405162461bcd60e51b815260206004820152602e60248201527f496e697469616c697a61626c653a20636f6e747261637420697320616c72656160448201527f647920696e697469616c697a656400000000000000000000000000000000000060648201526084016105d0565b6000805460ff1916600117905580156108ee576000805461ff0019166101001790555b6001600160a01b0382166109445760405162461bcd60e51b815260206004820152601760248201527f496e76616c6964207374616b696e67206164647265737300000000000000000060448201526064016105d0565b6109b86040518060400160405280600881526020017f4479676e696679580000000000000000000000000000000000000000000000008152506040518060400160405280600281526020017f44580000000000000000000000000000000000000000000000000000000000008152506111f2565b6109e27f6270edb7c868f86fda4adedba75108201087268ea345934db8bad688e1feb91b83611267565b6109ed600033611267565b80156105e3576000805461ff0019169055604051600181527f7f26b83ff96e1f2b6a682f133852f6798a09c465da95921460cefb38474024989060200160405180910390a15050565b600082815260656020526040902060010154610a5181610e5c565b6105518383610f0b565b6001600160a01b038316610ad65760405162461bcd60e51b8152602060048201526024808201527f45524332303a20617070726f76652066726f6d20746865207a65726f2061646460448201527f726573730000000000000000000000000000000000000000000000000000000060648201526084016105d0565b6001600160a01b038216610b525760405162461bcd60e51b815260206004820152602260248201527f45524332303a20617070726f766520746f20746865207a65726f20616464726560448201527f737300000000000000000000000000000000000000000000000000000000000060648201526084016105d0565b6001600160a01b0383811660008181526098602090815260408083209487168084529482529182902085905590518481527f8c5be1e5ebec7d5bd14f71427d1e84f3dd0314c0f7b2291e5b200ac8c7c3b925910160405180910390a3505050565b6001600160a01b038381166000908152609860209081526040808320938616835292905220546000198114610c3f5781811015610c325760405162461bcd60e51b815260206004820152601d60248201527f45524332303a20696e73756666696369656e7420616c6c6f77616e636500000060448201526064016105d0565b610c3f8484848403610a5b565b50505050565b6001600160a01b038316610cc15760405162461bcd60e51b815260206004820152602560248201527f45524332303a207472616e736665722066726f6d20746865207a65726f20616460448201527f647265737300000000000000000000000000000000000000000000000000000060648201526084016105d0565b6001600160a01b038216610d3d5760405162461bcd60e51b815260206004820152602360248201527f45524332303a207472616e7366657220746f20746865207a65726f206164647260448201527f657373000000000000000000000000000000000000000000000000000000000060648201526084016105d0565b6001600160a01b03831660009081526097602052604090205481811015610dcc5760405162461bcd60e51b815260206004820152602660248201527f45524332303a207472616e7366657220616d6f756e742065786365656473206260448201527f616c616e6365000000000000000000000000000000000000000000000000000060648201526084016105d0565b6001600160a01b03808516600090815260976020526040808220858503905591851681529081208054849290610e03908490611844565b92505081905550826001600160a01b0316846001600160a01b03167fddf252ad1be2c89b69c2b068fc378daa952ba7f163c4a11628f55a4df523b3ef84604051610e4f91815260200190565b60405180910390a3610c3f565b610e668133611271565b50565b60008281526065602090815260408083206001600160a01b038516845290915290205460ff166105e35760008281526065602090815260408083206001600160a01b03851684529091529020805460ff19166001179055610ec73390565b6001600160a01b0316816001600160a01b0316837f2f8788117e7eff1d82e926ec794901d17c78024a50270940304540a733656f0d60405160405180910390a45050565b60008281526065602090815260408083206001600160a01b038516845290915290205460ff16156105e35760008281526065602090815260408083206001600160a01b0385168085529252808320805460ff1916905551339285917ff6391f5c32d9c69d2a47ea670b442974b53935d1edc7fd64eb21e047a839171b9190a45050565b6001600160a01b038216610fe45760405162461bcd60e51b815260206004820152601f60248201527f45524332303a206d696e7420746f20746865207a65726f20616464726573730060448201526064016105d0565b8060996000828254610ff69190611844565b90915550506001600160a01b03821660009081526097602052604081208054839290611023908490611844565b90915550506040518181526001600160a01b038316906000907fddf252ad1be2c89b69c2b068fc378daa952ba7f163c4a11628f55a4df523b3ef9060200160405180910390a35050565b6001600160a01b0382166110e95760405162461bcd60e51b815260206004820152602160248201527f45524332303a206275726e2066726f6d20746865207a65726f2061646472657360448201527f730000000000000000000000000000000000000000000000000000000000000060648201526084016105d0565b6001600160a01b038216600090815260976020526040902054818110156111785760405162461bcd60e51b815260206004820152602260248201527f45524332303a206275726e20616d6f756e7420657863656564732062616c616e60448201527f636500000000000000000000000000000000000000000000000000000000000060648201526084016105d0565b6001600160a01b03831660009081526097602052604081208383039055609980548492906111a790849061187b565b90915550506040518281526000906001600160a01b038516907fddf252ad1be2c89b69c2b068fc378daa952ba7f163c4a11628f55a4df523b3ef9060200160405180910390a3505050565b600054610100900460ff1661125d5760405162461bcd60e51b815260206004820152602b60248201527f496e697469616c697a61626c653a20636f6e7472616374206973206e6f74206960448201526a6e697469616c697a696e6760a81b60648201526084016105d0565b6105e382826112f1565b6105e38282610e69565b60008281526065602090815260408083206001600160a01b038516845290915290205460ff166105e3576112af816001600160a01b03166014611383565b6112ba836020611383565b6040516020016112cb929190611790565b60408051601f198184030181529082905262461bcd60e51b82526105d091600401611811565b600054610100900460ff1661135c5760405162461bcd60e51b815260206004820152602b60248201527f496e697469616c697a61626c653a20636f6e7472616374206973206e6f74206960448201526a6e697469616c697a696e6760a81b60648201526084016105d0565b815161136f90609a9060208501906115b1565b50805161055190609b9060208401906115b1565b6060600061139283600261185c565b61139d906002611844565b67ffffffffffffffff8111156113c357634e487b7160e01b600052604160045260246000fd5b6040519080825280601f01601f1916602001820160405280156113ed576020820181803683370190505b5090507f30000000000000000000000000000000000000000000000000000000000000008160008151811061143257634e487b7160e01b600052603260045260246000fd5b60200101906001600160f81b031916908160001a9053507f78000000000000000000000000000000000000000000000000000000000000008160018151811061148b57634e487b7160e01b600052603260045260246000fd5b60200101906001600160f81b031916908160001a90535060006114af84600261185c565b6114ba906001611844565b90505b600181111561155b577f303132333435363738396162636465660000000000000000000000000000000085600f166010811061150957634e487b7160e01b600052603260045260246000fd5b1a60f81b82828151811061152d57634e487b7160e01b600052603260045260246000fd5b60200101906001600160f81b031916908160001a90535060049490941c93611554816118be565b90506114bd565b5083156115aa5760405162461bcd60e51b815260206004820181905260248201527f537472696e67733a20686578206c656e67746820696e73756666696369656e7460448201526064016105d0565b9392505050565b8280546115bd906118d5565b90600052602060002090601f0160209004810192826115df5760008555611625565b82601f106115f857805160ff1916838001178555611625565b82800160010185558215611625579182015b8281111561162557825182559160200191906001019061160a565b50611631929150611635565b5090565b5b808211156116315760008155600101611636565b80356001600160a01b038116811461166157600080fd5b919050565b600060208284031215611677578081fd5b6115aa8261164a565b60008060408385031215611692578081fd5b61169b8361164a565b91506116a96020840161164a565b90509250929050565b6000806000606084860312156116c6578081fd5b6116cf8461164a565b92506116dd6020850161164a565b9150604084013590509250925092565b600080604083850312156116ff578182fd5b6117088361164a565b946020939093013593505050565b600060208284031215611727578081fd5b5035919050565b60008060408385031215611740578182fd5b823591506116a96020840161164a565b600060208284031215611761578081fd5b81357fffffffff00000000000000000000000000000000000000000000000000000000811681146115aa578182fd5b7f416363657373436f6e74726f6c3a206163636f756e74200000000000000000008152600083516117c8816017850160208801611892565b7f206973206d697373696e6720726f6c65200000000000000000000000000000006017918401918201528351611805816028840160208801611892565b01602801949350505050565b6020815260008251806020840152611830816040850160208701611892565b601f01601f19169190910160400192915050565b6000821982111561185757611857611910565b500190565b600081600019048311821515161561187657611876611910565b500290565b60008282101561188d5761188d611910565b500390565b60005b838110156118ad578181015183820152602001611895565b83811115610c3f5750506000910152565b6000816118cd576118cd611910565b506000190190565b600181811c908216806118e957607f821691505b6020821081141561190a57634e487b7160e01b600052602260045260246000fd5b50919050565b634e487b7160e01b600052601160045260246000fdfea2646970667358221220190287c77a2233f9b8ac38bb02502196f1465daf5a85c729cb62775647935e3f64736f6c63430008040033",
  "linkReferences": {},
  "deployedLinkReferences": {}
}