{
  "_format": "hh-sol-artifact-1",
  "contractName": "AuthorizeUser",
  "sourceName": "contracts/protocol/old/AuthorizeUser.sol",
  "abi": [
    {
      "anonymous": false,
      "inputs": [
        {
          "indexed": false,
          "internalType": "address",
          "name": "previousAdmin",
          "type": "address"
        },
        {
          "indexed": false,
          "internalType": "address",
          "name": "newAdmin",
          "type": "address"
        }
      ],
      "name": "AdminChanged",
      "type": "event"
    },
    {
      "anonymous": false,
      "inputs": [
        {
          "indexed": true,
          "internalType": "address",
          "name": "member",
          "type": "address"
        }
      ],
      "name": "AuthorizeUserListed",
      "type": "event"
    },
    {
      "anonymous": false,
      "inputs": [
        {
          "indexed": true,
          "internalType": "address",
          "name": "member",
          "type": "address"
        }
      ],
      "name": "AuthorizeUserNotListed",
      "type": "event"
    },
    {
      "anonymous": false,
      "inputs": [
        {
          "indexed": true,
          "internalType": "address",
          "name": "beacon",
          "type": "address"
        }
      ],
      "name": "BeaconUpgraded",
      "type": "event"
    },
    {
      "anonymous": false,
      "inputs": [
        {
          "indexed": false,
          "internalType": "uint8",
          "name": "version",
          "type": "uint8"
        }
      ],
      "name": "Initialized",
      "type": "event"
    },
    {
      "anonymous": false,
      "inputs": [
        {
          "indexed": false,
          "internalType": "address",
          "name": "account",
          "type": "address"
        }
      ],
      "name": "Paused",
      "type": "event"
    },
    {
      "anonymous": false,
      "inputs": [
        {
          "indexed": true,
          "internalType": "bytes32",
          "name": "role",
          "type": "bytes32"
        },
        {
          "indexed": true,
          "internalType": "bytes32",
          "name": "previousAdminRole",
          "type": "bytes32"
        },
        {
          "indexed": true,
          "internalType": "bytes32",
          "name": "newAdminRole",
          "type": "bytes32"
        }
      ],
      "name": "RoleAdminChanged",
      "type": "event"
    },
    {
      "anonymous": false,
      "inputs": [
        {
          "indexed": true,
          "internalType": "bytes32",
          "name": "role",
          "type": "bytes32"
        },
        {
          "indexed": true,
          "internalType": "address",
          "name": "account",
          "type": "address"
        },
        {
          "indexed": true,
          "internalType": "address",
          "name": "sender",
          "type": "address"
        }
      ],
      "name": "RoleGranted",
      "type": "event"
    },
    {
      "anonymous": false,
      "inputs": [
        {
          "indexed": true,
          "internalType": "bytes32",
          "name": "role",
          "type": "bytes32"
        },
        {
          "indexed": true,
          "internalType": "address",
          "name": "account",
          "type": "address"
        },
        {
          "indexed": true,
          "internalType": "address",
          "name": "sender",
          "type": "address"
        }
      ],
      "name": "RoleRevoked",
      "type": "event"
    },
    {
      "anonymous": false,
      "inputs": [
        {
          "indexed": false,
          "internalType": "address",
          "name": "account",
          "type": "address"
        }
      ],
      "name": "Unpaused",
      "type": "event"
    },
    {
      "anonymous": false,
      "inputs": [
        {
          "indexed": true,
          "internalType": "address",
          "name": "implementation",
          "type": "address"
        }
      ],
      "name": "Upgraded",
      "type": "event"
    },
    {
      "inputs": [],
      "name": "DEFAULT_ADMIN_ROLE",
      "outputs": [
        {
          "internalType": "bytes32",
          "name": "",
          "type": "bytes32"
        }
      ],
      "stateMutability": "view",
      "type": "function"
    },
    {
      "inputs": [
        {
          "internalType": "address",
          "name": "owner",
          "type": "address"
        }
      ],
      "name": "_BaseUpgradeablePausable_init",
      "outputs": [],
      "stateMutability": "nonpayable",
      "type": "function"
    },
    {
      "inputs": [],
      "name": "__PauserPausable__init",
      "outputs": [],
      "stateMutability": "nonpayable",
      "type": "function"
    },
    {
      "inputs": [
        {
          "internalType": "address",
          "name": "_user",
          "type": "address"
        }
      ],
      "name": "addToauthorizedUserList",
      "outputs": [],
      "stateMutability": "nonpayable",
      "type": "function"
    },
    {
      "inputs": [
        {
          "internalType": "address",
          "name": "",
          "type": "address"
        }
      ],
      "name": "authorizedUserList",
      "outputs": [
        {
          "internalType": "bool",
          "name": "",
          "type": "bool"
        }
      ],
      "stateMutability": "view",
      "type": "function"
    },
    {
      "inputs": [
        {
          "internalType": "bytes32",
          "name": "role",
          "type": "bytes32"
        }
      ],
      "name": "getRoleAdmin",
      "outputs": [
        {
          "internalType": "bytes32",
          "name": "",
          "type": "bytes32"
        }
      ],
      "stateMutability": "view",
      "type": "function"
    },
    {
      "inputs": [
        {
          "internalType": "bytes32",
          "name": "role",
          "type": "bytes32"
        },
        {
          "internalType": "address",
          "name": "account",
          "type": "address"
        }
      ],
      "name": "grantRole",
      "outputs": [],
      "stateMutability": "nonpayable",
      "type": "function"
    },
    {
      "inputs": [
        {
          "internalType": "bytes32",
          "name": "role",
          "type": "bytes32"
        },
        {
          "internalType": "address",
          "name": "account",
          "type": "address"
        }
      ],
      "name": "hasRole",
      "outputs": [
        {
          "internalType": "bool",
          "name": "",
          "type": "bool"
        }
      ],
      "stateMutability": "view",
      "type": "function"
    },
    {
      "inputs": [
        {
          "internalType": "contract DygnifyConfig",
          "name": "_dygnifyConfig",
          "type": "address"
        }
      ],
      "name": "initialize",
      "outputs": [],
      "stateMutability": "nonpayable",
      "type": "function"
    },
    {
      "inputs": [],
      "name": "isAdmin",
      "outputs": [
        {
          "internalType": "bool",
          "name": "",
          "type": "bool"
        }
      ],
      "stateMutability": "view",
      "type": "function"
    },
    {
      "inputs": [
        {
          "internalType": "address",
          "name": "_user",
          "type": "address"
        }
      ],
      "name": "isUserAuthorized",
      "outputs": [
        {
          "internalType": "bool",
          "name": "",
          "type": "bool"
        }
      ],
      "stateMutability": "view",
      "type": "function"
    },
    {
      "inputs": [],
      "name": "pause",
      "outputs": [],
      "stateMutability": "nonpayable",
      "type": "function"
    },
    {
      "inputs": [],
      "name": "paused",
      "outputs": [
        {
          "internalType": "bool",
          "name": "",
          "type": "bool"
        }
      ],
      "stateMutability": "view",
      "type": "function"
    },
    {
      "inputs": [],
      "name": "proxiableUUID",
      "outputs": [
        {
          "internalType": "bytes32",
          "name": "",
          "type": "bytes32"
        }
      ],
      "stateMutability": "view",
      "type": "function"
    },
    {
      "inputs": [
        {
          "internalType": "address",
          "name": "_user",
          "type": "address"
        }
      ],
      "name": "removeFromauthorizedUserList",
      "outputs": [],
      "stateMutability": "nonpayable",
      "type": "function"
    },
    {
      "inputs": [
        {
          "internalType": "bytes32",
          "name": "role",
          "type": "bytes32"
        },
        {
          "internalType": "address",
          "name": "account",
          "type": "address"
        }
      ],
      "name": "renounceRole",
      "outputs": [],
      "stateMutability": "nonpayable",
      "type": "function"
    },
    {
      "inputs": [
        {
          "internalType": "bytes32",
          "name": "role",
          "type": "bytes32"
        },
        {
          "internalType": "address",
          "name": "account",
          "type": "address"
        }
      ],
      "name": "revokeRole",
      "outputs": [],
      "stateMutability": "nonpayable",
      "type": "function"
    },
    {
      "inputs": [
        {
          "internalType": "bytes4",
          "name": "interfaceId",
          "type": "bytes4"
        }
      ],
      "name": "supportsInterface",
      "outputs": [
        {
          "internalType": "bool",
          "name": "",
          "type": "bool"
        }
      ],
      "stateMutability": "view",
      "type": "function"
    },
    {
      "inputs": [],
      "name": "unpause",
      "outputs": [],
      "stateMutability": "nonpayable",
      "type": "function"
    },
    {
      "inputs": [
        {
          "internalType": "address",
          "name": "newImplementation",
          "type": "address"
        }
      ],
      "name": "upgradeTo",
      "outputs": [],
      "stateMutability": "nonpayable",
      "type": "function"
    },
    {
      "inputs": [
        {
          "internalType": "address",
          "name": "newImplementation",
          "type": "address"
        },
        {
          "internalType": "bytes",
          "name": "data",
          "type": "bytes"
        }
      ],
      "name": "upgradeToAndCall",
      "outputs": [],
      "stateMutability": "payable",
      "type": "function"
    }
  ],
  "bytecode": "0x60a06040523060601b60805234801561001757600080fd5b5060805160601c611c24610052600039600081816104ad015281816104ed015281816106470152818161068701526107c80152611c246000f3fe60806040526004361061012a5760003560e01c806352d1902d116100ab57806391d148541161006f57806391d1485414610314578063a12dde4d14610334578063a217fddf14610354578063b6db75a014610369578063c4d66de81461037e578063d547741f1461039e57600080fd5b806352d1902d146102925780635c975abb146102a75780636852595e146102bf5780638456cb59146102df578063894e5f2d146102f457600080fd5b80633659cfe6116100f25780633659cfe6146102155780633f4ba83a1461023557806348333d961461024a5780634f1ef2861461026a578063526d81f61461027d57600080fd5b806301ffc9a71461012f578063238d8d8714610164578063248a9ca3146101955780632f2ff15d146101d357806336568abe146101f5575b600080fd5b34801561013b57600080fd5b5061014f61014a3660046117fe565b6103be565b60405190151581526020015b60405180910390f35b34801561017057600080fd5b5061014f61017f3660046116a8565b6101606020526000908152604090205460ff1681565b3480156101a157600080fd5b506101c56101b036600461179f565b60009081526065602052604090206001015490565b60405190815260200161015b565b3480156101df57600080fd5b506101f36101ee3660046117cf565b6103f5565b005b34801561020157600080fd5b506101f36102103660046117cf565b61041f565b34801561022157600080fd5b506101f36102303660046116a8565b6104a2565b34801561024157600080fd5b506101f361056b565b34801561025657600080fd5b506101f36102653660046116a8565b6105a2565b6101f36102783660046116e0565b61063c565b34801561028957600080fd5b506101f36106f2565b34801561029e57600080fd5b506101c56107bb565b3480156102b357600080fd5b5060975460ff1661014f565b3480156102cb57600080fd5b506101f36102da3660046116a8565b610869565b3480156102eb57600080fd5b506101f3610900565b34801561030057600080fd5b5061014f61030f3660046116a8565b61092f565b34801561032057600080fd5b5061014f61032f3660046117cf565b610977565b34801561034057600080fd5b506101f361034f3660046116a8565b6109a2565b34801561036057600080fd5b506101c5600081565b34801561037557600080fd5b5061014f610a76565b34801561038a57600080fd5b506101f36103993660046116a8565b610a88565b3480156103aa57600080fd5b506101f36103b93660046117cf565b610c2c565b60006001600160e01b03198216637965db0b60e01b14806103ef57506301ffc9a760e01b6001600160e01b03198316145b92915050565b60008281526065602052604090206001015461041081610c51565b61041a8383610c5b565b505050565b6001600160a01b03811633146104945760405162461bcd60e51b815260206004820152602f60248201527f416363657373436f6e74726f6c3a2063616e206f6e6c792072656e6f756e636560448201526e103937b632b9903337b91039b2b63360891b60648201526084015b60405180910390fd5b61049e8282610ce1565b5050565b306001600160a01b037f00000000000000000000000000000000000000000000000000000000000000001614156104eb5760405162461bcd60e51b815260040161048b906119bb565b7f00000000000000000000000000000000000000000000000000000000000000006001600160a01b031661051d610d48565b6001600160a01b0316146105435760405162461bcd60e51b815260040161048b90611a07565b61054c81610d64565b6040805160008082526020820190925261056891839190610dcc565b50565b61057c610576610f46565b33610977565b6105985760405162461bcd60e51b815260040161048b9061196f565b6105a0610f6a565b565b6105ad610576610fbc565b6105c95760405162461bcd60e51b815260040161048b9061191b565b6001600160a01b0381166105ef5760405162461bcd60e51b815260040161048b906118e4565b6001600160a01b03811660008181526101606020526040808220805460ff19166001179055517fc75545572d9a5cfd304e6f4ed7df14070d813df061c036f7b37a19bc5502682d9190a250565b306001600160a01b037f00000000000000000000000000000000000000000000000000000000000000001614156106855760405162461bcd60e51b815260040161048b906119bb565b7f00000000000000000000000000000000000000000000000000000000000000006001600160a01b03166106b7610d48565b6001600160a01b0316146106dd5760405162461bcd60e51b815260040161048b90611a07565b6106e682610d64565b61049e82826001610dcc565b600054610100900460ff16158080156107125750600054600160ff909116105b8061072c5750303b15801561072c575060005460ff166001145b6107485760405162461bcd60e51b815260040161048b90611a53565b6000805460ff19166001179055801561076b576000805461ff0019166101001790555b610773610fdf565b8015610568576000805461ff0019169055604051600181527f7f26b83ff96e1f2b6a682f133852f6798a09c465da95921460cefb38474024989060200160405180910390a150565b6000306001600160a01b037f000000000000000000000000000000000000000000000000000000000000000016146108565760405162461bcd60e51b815260206004820152603860248201527f555550535570677261646561626c653a206d757374206e6f742062652063616c6044820152771b1959081d1a1c9bdd59da0819195b1959d85d1958d85b1b60421b606482015260840161048b565b50600080516020611ba883398151915290565b610874610576610fbc565b6108905760405162461bcd60e51b815260040161048b9061191b565b6001600160a01b0381166108b65760405162461bcd60e51b815260040161048b906118e4565b6001600160a01b03811660008181526101606020526040808220805460ff19169055517f089433aac4b737b0c70f26490535436ccd8ad509130e0dfff48450edcf703f829190a250565b61090b610576610f46565b6109275760405162461bcd60e51b815260040161048b9061196f565b6105a0611012565b60006001600160a01b0382166109575760405162461bcd60e51b815260040161048b906118e4565b506001600160a01b03166000908152610160602052604090205460ff1690565b60009182526065602090815260408084206001600160a01b0393909316845291905290205460ff1690565b600054610100900460ff166109c95760405162461bcd60e51b815260040161048b90611aa1565b6001600160a01b038116610a1f5760405162461bcd60e51b815260206004820181905260248201527f4f776e65722063616e6e6f7420626520746865207a65726f2061646472657373604482015260640161048b565b610a2761104f565b610a2f610fdf565b610a37611076565b610a48610a426110a4565b826110c8565b610a53610a42610f46565b610a6b610a5e610f46565b610a666110a4565b6110d2565b610568610a5e6110a4565b6000610a836105766110a4565b905090565b600054610100900460ff1615808015610aa85750600054600160ff909116105b80610ac25750303b158015610ac2575060005460ff166001145b610ade5760405162461bcd60e51b815260040161048b90611a53565b6000805460ff191660011790558015610b01576000805461ff0019166101001790555b6001600160a01b038216610b505760405162461bcd60e51b8152602060048201526016602482015275496e76616c696420636f6e666967206164647265737360501b604482015260640161048b565b61015f80546001600160a01b0319166001600160a01b038416908117909155600090610b7b9061111d565b90506001600160a01b038116610bc35760405162461bcd60e51b815260206004820152600d60248201526c24b73b30b634b21027bbb732b960991b604482015260640161048b565b610bcc816109a2565b610bd7610a42610fbc565b610be2610a5e610fbc565b50801561049e576000805461ff0019169055604051600181527f7f26b83ff96e1f2b6a682f133852f6798a09c465da95921460cefb38474024989060200160405180910390a15050565b600082815260656020526040902060010154610c4781610c51565b61041a8383610ce1565b6105688133611198565b610c658282610977565b61049e5760008281526065602090815260408083206001600160a01b03851684529091529020805460ff19166001179055610c9d3390565b6001600160a01b0316816001600160a01b0316837f2f8788117e7eff1d82e926ec794901d17c78024a50270940304540a733656f0d60405160405180910390a45050565b610ceb8282610977565b1561049e5760008281526065602090815260408083206001600160a01b0385168085529252808320805460ff1916905551339285917ff6391f5c32d9c69d2a47ea670b442974b53935d1edc7fd64eb21e047a839171b9190a45050565b600080516020611ba8833981519152546001600160a01b031690565b610d6c610a76565b6105685760405162461bcd60e51b815260206004820152602b60248201527f4d75737420686176652061646d696e20726f6c6520746f20706572666f726d2060448201526a3a3434b99030b1ba34b7b760a91b606482015260840161048b565b7f4910fdfa16fed3260ed0e7147f7cc6da11a60208b5b9406d12a635614ffd91435460ff1615610dff5761041a836111fc565b826001600160a01b03166352d1902d6040518163ffffffff1660e01b815260040160206040518083038186803b158015610e3857600080fd5b505afa925050508015610e68575060408051601f3d908101601f19168201909252610e65918101906117b7565b60015b610ecb5760405162461bcd60e51b815260206004820152602e60248201527f45524331393637557067726164653a206e657720696d706c656d656e7461746960448201526d6f6e206973206e6f74205555505360901b606482015260840161048b565b600080516020611ba88339815191528114610f3a5760405162461bcd60e51b815260206004820152602960248201527f45524331393637557067726164653a20756e737570706f727465642070726f786044820152681a58589b195555525160ba1b606482015260840161048b565b5061041a838383611298565b7f65d7a28e3265b37a6474929f336521b332c1681b933f6cb9f3376673440d862a90565b610f726112c3565b6097805460ff191690557f5db9ee0a495bf2e6ff9c91a7834c1ba4fdd244a5e8aa4e537bd38aeae4b073aa335b6040516001600160a01b03909116815260200160405180910390a1565b7ed019c3fe031f78f9be1b03002222adc4e715a6b649958ca83ec871af2c2cd790565b600054610100900460ff166110065760405162461bcd60e51b815260040161048b90611aa1565b6097805460ff19169055565b61101a61130c565b6097805460ff191660011790557f62e78cea01bee320cd4e420270b5ea74000d11b0c9f74754ebdbfc544b05a258610f9f3390565b600054610100900460ff166105a05760405162461bcd60e51b815260040161048b90611aa1565b600054610100900460ff1661109d5760405162461bcd60e51b815260040161048b90611aa1565b600160c955565b7fa49807205ce4d355092ef5a8a18f56e8913cf4a201fbe287825b095693c2177590565b61049e8282610c5b565b600082815260656020526040808220600101805490849055905190918391839186917fbd79b86ffe0ab8e8776151514217cd7cacd52c909f66475c3af44e129f0b00ff9190a4505050565b604051635c9fcd8560e11b8152600060048201819052906001600160a01b0383169063b93f9b0a9060240160206040518083038186803b15801561116057600080fd5b505afa158015611174573d6000803e3d6000fd5b505050506040513d601f19601f820116820180604052508101906103ef91906116c4565b6111a28282610977565b61049e576111ba816001600160a01b03166014611352565b6111c5836020611352565b6040516020016111d6929190611842565b60408051601f198184030181529082905262461bcd60e51b825261048b916004016118b1565b6001600160a01b0381163b6112695760405162461bcd60e51b815260206004820152602d60248201527f455243313936373a206e657720696d706c656d656e746174696f6e206973206e60448201526c1bdd08184818dbdb9d1c9858dd609a1b606482015260840161048b565b600080516020611ba883398151915280546001600160a01b0319166001600160a01b0392909216919091179055565b6112a18361153b565b6000825111806112ae5750805b1561041a576112bd838361157b565b50505050565b60975460ff166105a05760405162461bcd60e51b815260206004820152601460248201527314185d5cd8589b194e881b9bdd081c185d5cd95960621b604482015260640161048b565b60975460ff16156105a05760405162461bcd60e51b815260206004820152601060248201526f14185d5cd8589b194e881c185d5cd95960821b604482015260640161048b565b60606000611361836002611b04565b61136c906002611aec565b67ffffffffffffffff81111561139257634e487b7160e01b600052604160045260246000fd5b6040519080825280601f01601f1916602001820160405280156113bc576020820181803683370190505b509050600360fc1b816000815181106113e557634e487b7160e01b600052603260045260246000fd5b60200101906001600160f81b031916908160001a905350600f60fb1b8160018151811061142257634e487b7160e01b600052603260045260246000fd5b60200101906001600160f81b031916908160001a9053506000611446846002611b04565b611451906001611aec565b90505b60018111156114e5576f181899199a1a9b1b9c1cb0b131b232b360811b85600f166010811061149357634e487b7160e01b600052603260045260246000fd5b1a60f81b8282815181106114b757634e487b7160e01b600052603260045260246000fd5b60200101906001600160f81b031916908160001a90535060049490941c936114de81611b4f565b9050611454565b5083156115345760405162461bcd60e51b815260206004820181905260248201527f537472696e67733a20686578206c656e67746820696e73756666696369656e74604482015260640161048b565b9392505050565b611544816111fc565b6040516001600160a01b038216907fbc7cd75a20ee27fd9adebab32041f755214dbc6bffa90cc0225b39da2e5c2d3b90600090a250565b60606001600160a01b0383163b6115e35760405162461bcd60e51b815260206004820152602660248201527f416464726573733a2064656c65676174652063616c6c20746f206e6f6e2d636f6044820152651b9d1c9858dd60d21b606482015260840161048b565b600080846001600160a01b0316846040516115fe9190611826565b600060405180830381855af49150503d8060008114611639576040519150601f19603f3d011682016040523d82523d6000602084013e61163e565b606091505b50915091506116668282604051806060016040528060278152602001611bc86027913961166f565b95945050505050565b6060831561167e575081611534565b82511561168e5782518084602001fd5b8160405162461bcd60e51b815260040161048b91906118b1565b6000602082840312156116b9578081fd5b813561153481611b92565b6000602082840312156116d5578081fd5b815161153481611b92565b600080604083850312156116f2578081fd5b82356116fd81611b92565b9150602083013567ffffffffffffffff80821115611719578283fd5b818501915085601f83011261172c578283fd5b81358181111561173e5761173e611b7c565b604051601f8201601f19908116603f0116810190838211818310171561176657611766611b7c565b8160405282815288602084870101111561177e578586fd5b82602086016020830137856020848301015280955050505050509250929050565b6000602082840312156117b0578081fd5b5035919050565b6000602082840312156117c8578081fd5b5051919050565b600080604083850312156117e1578182fd5b8235915060208301356117f381611b92565b809150509250929050565b60006020828403121561180f578081fd5b81356001600160e01b031981168114611534578182fd5b60008251611838818460208701611b23565b9190910192915050565b76020b1b1b2b9b9a1b7b73a3937b61d1030b1b1b7bab73a1604d1b815260008351611874816017850160208801611b23565b7001034b99036b4b9b9b4b733903937b6329607d1b60179184019182015283516118a5816028840160208801611b23565b01602801949350505050565b60208152600082518060208401526118d0816040850160208701611b23565b601f01601f19169190910160400192915050565b6020808252601c908201527f5573657220616464726573732063616e6e6f7420626520656d70747900000000604082015260600190565b60208082526034908201527f4d757374206861766520415554484f52495a455f555345525f524f4c4520746f604082015273103832b93337b936903a3434b99030b1ba34b7b760611b606082015260800190565b6020808252602c908201527f4d75737420686176652070617573657220726f6c6520746f20706572666f726d60408201526b103a3434b99030b1ba34b7b760a11b606082015260800190565b6020808252602c908201527f46756e6374696f6e206d7573742062652063616c6c6564207468726f7567682060408201526b19195b1959d85d1958d85b1b60a21b606082015260800190565b6020808252602c908201527f46756e6374696f6e206d7573742062652063616c6c6564207468726f7567682060408201526b6163746976652070726f787960a01b606082015260800190565b6020808252602e908201527f496e697469616c697a61626c653a20636f6e747261637420697320616c72656160408201526d191e481a5b9a5d1a585b1a5e995960921b606082015260800190565b6020808252602b908201527f496e697469616c697a61626c653a20636f6e7472616374206973206e6f74206960408201526a6e697469616c697a696e6760a81b606082015260800190565b60008219821115611aff57611aff611b66565b500190565b6000816000190483118215151615611b1e57611b1e611b66565b500290565b60005b83811015611b3e578181015183820152602001611b26565b838111156112bd5750506000910152565b600081611b5e57611b5e611b66565b506000190190565b634e487b7160e01b600052601160045260246000fd5b634e487b7160e01b600052604160045260246000fd5b6001600160a01b038116811461056857600080fdfe360894a13ba1a3210667c828492db98dca3e2076cc3735a920a3ca505d382bbc416464726573733a206c6f772d6c6576656c2064656c65676174652063616c6c206661696c6564a2646970667358221220a94682c2d640f8191a3bad272918998756739ea9c543240d3bb33af384ebbccc64736f6c63430008040033",
  "linkReferences": {},
  "deployedLinkReferences": {}
}