{
  "_format": "hh-sol-artifact-1",
  "contractName": "OpportunityPool",
  "sourceName": "contracts/protocol/OpportunityPool.sol",
  "abi": [
    {
      "anonymous": false,
      "inputs": [
        {
          "indexed": true,
          "internalType": "address",
          "name": "executor",
          "type": "address"
        },
        {
          "indexed": true,
          "internalType": "uint8",
          "name": "subpool",
          "type": "uint8"
        },
        {
          "indexed": false,
          "internalType": "uint256",
          "name": "amount",
          "type": "uint256"
        }
      ],
      "name": "Deposited",
      "type": "event"
    },
    {
      "anonymous": false,
      "inputs": [
        {
          "indexed": false,
          "internalType": "uint8",
          "name": "version",
          "type": "uint8"
        }
      ],
      "name": "Initialized",
      "type": "event"
    },
    {
      "anonymous": false,
      "inputs": [
        {
          "indexed": false,
          "internalType": "address",
          "name": "account",
          "type": "address"
        }
      ],
      "name": "Paused",
      "type": "event"
    },
    {
      "anonymous": false,
      "inputs": [
        {
          "indexed": true,
          "internalType": "bytes32",
          "name": "role",
          "type": "bytes32"
        },
        {
          "indexed": true,
          "internalType": "bytes32",
          "name": "previousAdminRole",
          "type": "bytes32"
        },
        {
          "indexed": true,
          "internalType": "bytes32",
          "name": "newAdminRole",
          "type": "bytes32"
        }
      ],
      "name": "RoleAdminChanged",
      "type": "event"
    },
    {
      "anonymous": false,
      "inputs": [
        {
          "indexed": true,
          "internalType": "bytes32",
          "name": "role",
          "type": "bytes32"
        },
        {
          "indexed": true,
          "internalType": "address",
          "name": "account",
          "type": "address"
        },
        {
          "indexed": true,
          "internalType": "address",
          "name": "sender",
          "type": "address"
        }
      ],
      "name": "RoleGranted",
      "type": "event"
    },
    {
      "anonymous": false,
      "inputs": [
        {
          "indexed": true,
          "internalType": "bytes32",
          "name": "role",
          "type": "bytes32"
        },
        {
          "indexed": true,
          "internalType": "address",
          "name": "account",
          "type": "address"
        },
        {
          "indexed": true,
          "internalType": "address",
          "name": "sender",
          "type": "address"
        }
      ],
      "name": "RoleRevoked",
      "type": "event"
    },
    {
      "anonymous": false,
      "inputs": [
        {
          "indexed": false,
          "internalType": "address",
          "name": "account",
          "type": "address"
        }
      ],
      "name": "Unpaused",
      "type": "event"
    },
    {
      "anonymous": false,
      "inputs": [
        {
          "indexed": true,
          "internalType": "address",
          "name": "executor",
          "type": "address"
        },
        {
          "indexed": true,
          "internalType": "uint8",
          "name": "subpool",
          "type": "uint8"
        },
        {
          "indexed": false,
          "internalType": "uint256",
          "name": "amount",
          "type": "uint256"
        }
      ],
      "name": "Withdrew",
      "type": "event"
    },
    {
      "inputs": [],
      "name": "ADMIN_ROLE",
      "outputs": [
        {
          "internalType": "bytes32",
          "name": "",
          "type": "bytes32"
        }
      ],
      "stateMutability": "view",
      "type": "function"
    },
    {
      "inputs": [],
      "name": "BORROWER_ROLE",
      "outputs": [
        {
          "internalType": "bytes32",
          "name": "",
          "type": "bytes32"
        }
      ],
      "stateMutability": "view",
      "type": "function"
    },
    {
      "inputs": [],
      "name": "DEFAULT_ADMIN_ROLE",
      "outputs": [
        {
          "internalType": "bytes32",
          "name": "",
          "type": "bytes32"
        }
      ],
      "stateMutability": "view",
      "type": "function"
    },
    {
      "inputs": [],
      "name": "PAUSER_ROLE",
      "outputs": [
        {
          "internalType": "bytes32",
          "name": "",
          "type": "bytes32"
        }
      ],
      "stateMutability": "view",
      "type": "function"
    },
    {
      "inputs": [],
      "name": "POOL_LOCKER_ROLE",
      "outputs": [
        {
          "internalType": "bytes32",
          "name": "",
          "type": "bytes32"
        }
      ],
      "stateMutability": "view",
      "type": "function"
    },
    {
      "inputs": [],
      "name": "SENIOR_POOL_ROLE",
      "outputs": [
        {
          "internalType": "bytes32",
          "name": "",
          "type": "bytes32"
        }
      ],
      "stateMutability": "view",
      "type": "function"
    },
    {
      "inputs": [
        {
          "internalType": "address",
          "name": "owner",
          "type": "address"
        }
      ],
      "name": "_BaseUpgradeablePausable_init",
      "outputs": [],
      "stateMutability": "nonpayable",
      "type": "function"
    },
    {
      "inputs": [],
      "name": "__PauserPausable__init",
      "outputs": [],
      "stateMutability": "nonpayable",
      "type": "function"
    },
    {
      "inputs": [],
      "name": "amountWithoutEMI",
      "outputs": [
        {
          "internalType": "uint256",
          "name": "",
          "type": "uint256"
        }
      ],
      "stateMutability": "view",
      "type": "function"
    },
    {
      "inputs": [],
      "name": "capitalLoss",
      "outputs": [
        {
          "internalType": "uint256",
          "name": "",
          "type": "uint256"
        }
      ],
      "stateMutability": "view",
      "type": "function"
    },
    {
      "inputs": [],
      "name": "collateralDocument",
      "outputs": [
        {
          "internalType": "string",
          "name": "",
          "type": "string"
        }
      ],
      "stateMutability": "view",
      "type": "function"
    },
    {
      "inputs": [],
      "name": "dailyInterestRate",
      "outputs": [
        {
          "internalType": "uint256",
          "name": "",
          "type": "uint256"
        }
      ],
      "stateMutability": "view",
      "type": "function"
    },
    {
      "inputs": [
        {
          "internalType": "uint8",
          "name": "_subpoolId",
          "type": "uint8"
        },
        {
          "internalType": "uint256",
          "name": "amount",
          "type": "uint256"
        }
      ],
      "name": "deposit",
      "outputs": [],
      "stateMutability": "nonpayable",
      "type": "function"
    },
    {
      "inputs": [],
      "name": "drawdown",
      "outputs": [],
      "stateMutability": "nonpayable",
      "type": "function"
    },
    {
      "inputs": [],
      "name": "dygnifyConfig",
      "outputs": [
        {
          "internalType": "contract DygnifyConfig",
          "name": "",
          "type": "address"
        }
      ],
      "stateMutability": "view",
      "type": "function"
    },
    {
      "inputs": [],
      "name": "emiAmount",
      "outputs": [
        {
          "internalType": "uint256",
          "name": "",
          "type": "uint256"
        }
      ],
      "stateMutability": "view",
      "type": "function"
    },
    {
      "inputs": [],
      "name": "getOverDuePercentage",
      "outputs": [
        {
          "internalType": "uint256",
          "name": "",
          "type": "uint256"
        },
        {
          "internalType": "uint256",
          "name": "",
          "type": "uint256"
        }
      ],
      "stateMutability": "view",
      "type": "function"
    },
    {
      "inputs": [],
      "name": "getRepaymentAmount",
      "outputs": [
        {
          "internalType": "uint256",
          "name": "",
          "type": "uint256"
        }
      ],
      "stateMutability": "view",
      "type": "function"
    },
    {
      "inputs": [
        {
          "internalType": "bytes32",
          "name": "role",
          "type": "bytes32"
        }
      ],
      "name": "getRoleAdmin",
      "outputs": [
        {
          "internalType": "bytes32",
          "name": "",
          "type": "bytes32"
        }
      ],
      "stateMutability": "view",
      "type": "function"
    },
    {
      "inputs": [],
      "name": "getSeniorProfit",
      "outputs": [
        {
          "internalType": "uint256",
          "name": "",
          "type": "uint256"
        }
      ],
      "stateMutability": "view",
      "type": "function"
    },
    {
      "inputs": [],
      "name": "getSeniorTotalDepositable",
      "outputs": [
        {
          "internalType": "uint256",
          "name": "",
          "type": "uint256"
        }
      ],
      "stateMutability": "view",
      "type": "function"
    },
    {
      "inputs": [],
      "name": "getYieldPercentage",
      "outputs": [
        {
          "internalType": "uint256",
          "name": "",
          "type": "uint256"
        },
        {
          "internalType": "uint256",
          "name": "",
          "type": "uint256"
        }
      ],
      "stateMutability": "view",
      "type": "function"
    },
    {
      "inputs": [
        {
          "internalType": "bytes32",
          "name": "role",
          "type": "bytes32"
        },
        {
          "internalType": "address",
          "name": "account",
          "type": "address"
        }
      ],
      "name": "grantRole",
      "outputs": [],
      "stateMutability": "nonpayable",
      "type": "function"
    },
    {
      "inputs": [
        {
          "internalType": "bytes32",
          "name": "role",
          "type": "bytes32"
        },
        {
          "internalType": "address",
          "name": "account",
          "type": "address"
        }
      ],
      "name": "hasRole",
      "outputs": [
        {
          "internalType": "bool",
          "name": "",
          "type": "bool"
        }
      ],
      "stateMutability": "view",
      "type": "function"
    },
    {
      "inputs": [
        {
          "internalType": "contract DygnifyConfig",
          "name": "_dygnifyConfig",
          "type": "address"
        },
        {
          "internalType": "bytes32",
          "name": "_opportunityID",
          "type": "bytes32"
        },
        {
          "internalType": "string",
          "name": "_opportunityInfo",
          "type": "string"
        },
        {
          "internalType": "uint8",
          "name": "_loanType",
          "type": "uint8"
        },
        {
          "internalType": "uint256",
          "name": "_loanAmount",
          "type": "uint256"
        },
        {
          "internalType": "uint256",
          "name": "_loanTenureInDays",
          "type": "uint256"
        },
        {
          "internalType": "uint256",
          "name": "_loanInterest",
          "type": "uint256"
        },
        {
          "internalType": "uint256",
          "name": "_paymentFrequencyInDays",
          "type": "uint256"
        },
        {
          "internalType": "string",
          "name": "_collateralDocument",
          "type": "string"
        },
        {
          "internalType": "uint256",
          "name": "_capitalLoss",
          "type": "uint256"
        }
      ],
      "name": "initialize",
      "outputs": [],
      "stateMutability": "nonpayable",
      "type": "function"
    },
    {
      "inputs": [],
      "name": "investor",
      "outputs": [
        {
          "internalType": "contract Investor",
          "name": "",
          "type": "address"
        }
      ],
      "stateMutability": "view",
      "type": "function"
    },
    {
      "inputs": [],
      "name": "isAdmin",
      "outputs": [
        {
          "internalType": "bool",
          "name": "",
          "type": "bool"
        }
      ],
      "stateMutability": "view",
      "type": "function"
    },
    {
      "inputs": [],
      "name": "isDrawdownsPaused",
      "outputs": [
        {
          "internalType": "bool",
          "name": "",
          "type": "bool"
        }
      ],
      "stateMutability": "view",
      "type": "function"
    },
    {
      "inputs": [
        {
          "internalType": "address",
          "name": "",
          "type": "address"
        }
      ],
      "name": "isStaking",
      "outputs": [
        {
          "internalType": "bool",
          "name": "",
          "type": "bool"
        }
      ],
      "stateMutability": "view",
      "type": "function"
    },
    {
      "inputs": [],
      "name": "juniorOverduePerecentage",
      "outputs": [
        {
          "internalType": "uint256",
          "name": "",
          "type": "uint256"
        }
      ],
      "stateMutability": "view",
      "type": "function"
    },
    {
      "inputs": [],
      "name": "juniorSubpoolDetails",
      "outputs": [
        {
          "internalType": "uint256",
          "name": "id",
          "type": "uint256"
        },
        {
          "internalType": "uint256",
          "name": "totalDepositable",
          "type": "uint256"
        },
        {
          "internalType": "uint256",
          "name": "depositedAmount",
          "type": "uint256"
        },
        {
          "internalType": "bool",
          "name": "isPoolLocked",
          "type": "bool"
        },
        {
          "internalType": "uint256",
          "name": "fundsLockedUntil",
          "type": "uint256"
        },
        {
          "internalType": "uint256",
          "name": "yieldGenerated",
          "type": "uint256"
        },
        {
          "internalType": "uint256",
          "name": "overdueGenerated",
          "type": "uint256"
        }
      ],
      "stateMutability": "view",
      "type": "function"
    },
    {
      "inputs": [],
      "name": "juniorYieldPerecentage",
      "outputs": [
        {
          "internalType": "uint256",
          "name": "",
          "type": "uint256"
        }
      ],
      "stateMutability": "view",
      "type": "function"
    },
    {
      "inputs": [],
      "name": "loanAmount",
      "outputs": [
        {
          "internalType": "uint256",
          "name": "",
          "type": "uint256"
        }
      ],
      "stateMutability": "view",
      "type": "function"
    },
    {
      "inputs": [],
      "name": "loanInterest",
      "outputs": [
        {
          "internalType": "uint256",
          "name": "",
          "type": "uint256"
        }
      ],
      "stateMutability": "view",
      "type": "function"
    },
    {
      "inputs": [],
      "name": "loanTenureInDays",
      "outputs": [
        {
          "internalType": "uint256",
          "name": "",
          "type": "uint256"
        }
      ],
      "stateMutability": "view",
      "type": "function"
    },
    {
      "inputs": [],
      "name": "loanType",
      "outputs": [
        {
          "internalType": "uint8",
          "name": "",
          "type": "uint8"
        }
      ],
      "stateMutability": "view",
      "type": "function"
    },
    {
      "inputs": [
        {
          "internalType": "uint8",
          "name": "_subpoolId",
          "type": "uint8"
        }
      ],
      "name": "lockPool",
      "outputs": [],
      "stateMutability": "nonpayable",
      "type": "function"
    },
    {
      "inputs": [],
      "name": "lpToken",
      "outputs": [
        {
          "internalType": "contract LPToken",
          "name": "",
          "type": "address"
        }
      ],
      "stateMutability": "view",
      "type": "function"
    },
    {
      "inputs": [],
      "name": "nextRepaymentTime",
      "outputs": [
        {
          "internalType": "uint256",
          "name": "",
          "type": "uint256"
        }
      ],
      "stateMutability": "view",
      "type": "function"
    },
    {
      "inputs": [],
      "name": "opportunityID",
      "outputs": [
        {
          "internalType": "bytes32",
          "name": "",
          "type": "bytes32"
        }
      ],
      "stateMutability": "view",
      "type": "function"
    },
    {
      "inputs": [],
      "name": "opportunityInfo",
      "outputs": [
        {
          "internalType": "string",
          "name": "",
          "type": "string"
        }
      ],
      "stateMutability": "view",
      "type": "function"
    },
    {
      "inputs": [],
      "name": "opportunityOrigination",
      "outputs": [
        {
          "internalType": "contract OpportunityOrigination",
          "name": "",
          "type": "address"
        }
      ],
      "stateMutability": "view",
      "type": "function"
    },
    {
      "inputs": [],
      "name": "pause",
      "outputs": [],
      "stateMutability": "nonpayable",
      "type": "function"
    },
    {
      "inputs": [],
      "name": "pauseDrawdown",
      "outputs": [],
      "stateMutability": "nonpayable",
      "type": "function"
    },
    {
      "inputs": [],
      "name": "paused",
      "outputs": [
        {
          "internalType": "bool",
          "name": "",
          "type": "bool"
        }
      ],
      "stateMutability": "view",
      "type": "function"
    },
    {
      "inputs": [],
      "name": "paymentFrequencyInDays",
      "outputs": [
        {
          "internalType": "uint256",
          "name": "",
          "type": "uint256"
        }
      ],
      "stateMutability": "view",
      "type": "function"
    },
    {
      "inputs": [],
      "name": "poolBalance",
      "outputs": [
        {
          "internalType": "uint256",
          "name": "",
          "type": "uint256"
        }
      ],
      "stateMutability": "view",
      "type": "function"
    },
    {
      "inputs": [
        {
          "internalType": "bytes32",
          "name": "role",
          "type": "bytes32"
        },
        {
          "internalType": "address",
          "name": "account",
          "type": "address"
        }
      ],
      "name": "renounceRole",
      "outputs": [],
      "stateMutability": "nonpayable",
      "type": "function"
    },
    {
      "inputs": [],
      "name": "repayment",
      "outputs": [],
      "stateMutability": "nonpayable",
      "type": "function"
    },
    {
      "inputs": [],
      "name": "repaymentCounter",
      "outputs": [
        {
          "internalType": "uint256",
          "name": "",
          "type": "uint256"
        }
      ],
      "stateMutability": "view",
      "type": "function"
    },
    {
      "inputs": [],
      "name": "repaymentStartTime",
      "outputs": [
        {
          "internalType": "uint256",
          "name": "",
          "type": "uint256"
        }
      ],
      "stateMutability": "view",
      "type": "function"
    },
    {
      "inputs": [
        {
          "internalType": "bytes32",
          "name": "role",
          "type": "bytes32"
        },
        {
          "internalType": "address",
          "name": "account",
          "type": "address"
        }
      ],
      "name": "revokeRole",
      "outputs": [],
      "stateMutability": "nonpayable",
      "type": "function"
    },
    {
      "inputs": [],
      "name": "seniorOverduePerecentage",
      "outputs": [
        {
          "internalType": "uint256",
          "name": "",
          "type": "uint256"
        }
      ],
      "stateMutability": "view",
      "type": "function"
    },
    {
      "inputs": [],
      "name": "seniorSubpoolDetails",
      "outputs": [
        {
          "internalType": "uint256",
          "name": "id",
          "type": "uint256"
        },
        {
          "internalType": "uint256",
          "name": "totalDepositable",
          "type": "uint256"
        },
        {
          "internalType": "uint256",
          "name": "depositedAmount",
          "type": "uint256"
        },
        {
          "internalType": "bool",
          "name": "isPoolLocked",
          "type": "bool"
        },
        {
          "internalType": "uint256",
          "name": "fundsLockedUntil",
          "type": "uint256"
        },
        {
          "internalType": "uint256",
          "name": "yieldGenerated",
          "type": "uint256"
        },
        {
          "internalType": "uint256",
          "name": "overdueGenerated",
          "type": "uint256"
        }
      ],
      "stateMutability": "view",
      "type": "function"
    },
    {
      "inputs": [],
      "name": "seniorYieldPerecentage",
      "outputs": [
        {
          "internalType": "uint256",
          "name": "",
          "type": "uint256"
        }
      ],
      "stateMutability": "view",
      "type": "function"
    },
    {
      "inputs": [
        {
          "internalType": "address",
          "name": "",
          "type": "address"
        }
      ],
      "name": "stakingBalance",
      "outputs": [
        {
          "internalType": "uint256",
          "name": "",
          "type": "uint256"
        }
      ],
      "stateMutability": "view",
      "type": "function"
    },
    {
      "inputs": [
        {
          "internalType": "bytes4",
          "name": "interfaceId",
          "type": "bytes4"
        }
      ],
      "name": "supportsInterface",
      "outputs": [
        {
          "internalType": "bool",
          "name": "",
          "type": "bool"
        }
      ],
      "stateMutability": "view",
      "type": "function"
    },
    {
      "inputs": [],
      "name": "totalRepaidAmount",
      "outputs": [
        {
          "internalType": "uint256",
          "name": "",
          "type": "uint256"
        }
      ],
      "stateMutability": "view",
      "type": "function"
    },
    {
      "inputs": [],
      "name": "totalRepayments",
      "outputs": [
        {
          "internalType": "uint256",
          "name": "",
          "type": "uint256"
        }
      ],
      "stateMutability": "view",
      "type": "function"
    },
    {
      "inputs": [
        {
          "internalType": "uint8",
          "name": "_subpoolId",
          "type": "uint8"
        }
      ],
      "name": "unLockPool",
      "outputs": [],
      "stateMutability": "nonpayable",
      "type": "function"
    },
    {
      "inputs": [],
      "name": "unpause",
      "outputs": [],
      "stateMutability": "nonpayable",
      "type": "function"
    },
    {
      "inputs": [],
      "name": "unpauseDrawdown",
      "outputs": [],
      "stateMutability": "nonpayable",
      "type": "function"
    },
    {
      "inputs": [],
      "name": "usdcToken",
      "outputs": [
        {
          "internalType": "contract IERC20",
          "name": "",
          "type": "address"
        }
      ],
      "stateMutability": "view",
      "type": "function"
    },
    {
      "inputs": [
        {
          "internalType": "uint8",
          "name": "_subpoolId",
          "type": "uint8"
        },
        {
          "internalType": "uint256",
          "name": "amount",
          "type": "uint256"
        }
      ],
      "name": "withdraw",
      "outputs": [],
      "stateMutability": "nonpayable",
      "type": "function"
    },
    {
      "inputs": [
        {
          "internalType": "uint8",
          "name": "_subpoolId",
          "type": "uint8"
        }
      ],
      "name": "withdrawAll",
      "outputs": [
        {
          "internalType": "uint256",
          "name": "",
          "type": "uint256"
        }
      ],
      "stateMutability": "nonpayable",
      "type": "function"
    }
  ],
  "bytecode": "0x608060405234801561001057600080fd5b50614861806100206000396000f3fe608060405234801561001057600080fd5b50600436106103eb5760003560e01c806375b238fc1161021a578063bbbf13ea11610135578063dee05609116100c8578063e77ef21f11610097578063f4d4c9d71161007c578063f4d4c9d7146108a2578063ff3779f0146108b5578063ff3a5644146108dc57600080fd5b8063e77ef21f14610890578063eedffb961461089857600080fd5b8063dee0560914610830578063df9fd1c11461083a578063e0fdf7c614610842578063e63ab1e91461086957600080fd5b8063d547741f11610104578063d547741f146107fa578063d661d3201461080d578063d9f7130d14610815578063dadfecca1461082857600080fd5b8063bbbf13ea146107a7578063c5e2bf1a146107b1578063c8dd7bf3146107c4578063cab9bd00146107ce57600080fd5b80639b021fa2116101ad578063a217fddf1161017c578063a217fddf14610783578063a46078341461078b578063a7292ea414610795578063b6db75a01461079f57600080fd5b80639b021fa2146107535780639d585f7f1461075d5780639f964fe614610767578063a12dde4d1461077057600080fd5b8063891369b2116101e9578063891369b2146106fc57806391d148541461070657806396365d441461073f57806399e7f2501461074957600080fd5b806375b238fc146106bb5780637930d944146106e25780637fca631f146106ea5780638456cb59146106f457600080fd5b80632588d1681161030a57806346e35faa1161029d5780635c975abb1161026c5780635c975abb146106665780635fcbd285146106715780636a15633b146106845780636f49712b1461069757600080fd5b806346e35faa14610637578063526d81f61461064157806353654e85146106495780635b483e4c1461065c57600080fd5b80633e5e89be116102d95780633e5e89be146105e65780633f489914146105fb5780633f4ba83a1461060e57806345bc78ab1461061657600080fd5b80632588d168146105a55780632f2ff15d146105b857806334d93fb4146105cb57806336568abe146105d357600080fd5b806311eac855116103825780631e0018d6116103515780631e0018d61461055b5780632159e4581461056e57806322eac12c14610578578063248a9ca31461058257600080fd5b806311eac8551461050b57806317cd802d146105365780631be954591461053e5780631daa910e1461055157600080fd5b806307a7c08a116103be57806307a7c08a146104af5780630a2c1505146104cc5780630b4a45fd146104da5780630e7b949e146104e457600080fd5b806301ffc9a7146103f0578063031994941461041857806304419b7614610479578063074f254314610499575b600080fd5b6104036103fe3660046144d5565b6108e6565b60405190151581526020015b60405180910390f35b61011f546101205461012154610122546101235461012454610125546104449695949360ff1692919087565b604080519788526020880196909652948601939093529015156060850152608084015260a083015260c082015260e00161040f565b610101546104879060ff1681565b60405160ff909116815260200161040f565b6104a161097f565b60405190815260200161040f565b6104b7610b4c565b6040805192835260208301919091520161040f565b610115546104039060ff1681565b6104e2610c07565b005b6104a17f2344277e405079ec07749d374ba0b5862a4e45a6a05ac889dbb4a991c6f9354d81565b60fe5461051e906001600160a01b031681565b6040516001600160a01b03909116815260200161040f565b6104e2610c7f565b60fb5461051e906001600160a01b031681565b6104a16101125481565b60fd5461051e906001600160a01b031681565b6104a161010e5481565b6104a161010c5481565b6104a161059036600461448e565b60009081526065602052604090206001015490565b60fc5461051e906001600160a01b031681565b6104e26105c63660046144a6565b61112a565b6104e2611154565b6104e26105e13660046144a6565b6111c9565b6105ee611255565b60405161040f91906146cb565b6104e2610609366004614605565b6112e4565b6104e2611885565b6104a1610624366004614436565b6101166020526000908152604090205481565b6104a16101135481565b6104e261191a565b6104a16106573660046145eb565b611a3a565b6104a161010d5481565b60975460ff16610403565b60ff5461051e906001600160a01b031681565b6104e26106923660046145eb565b612002565b6104036106a5366004614436565b6101176020526000908152604090205460ff1681565b6104a17fa49807205ce4d355092ef5a8a18f56e8913cf4a201fbe287825b095693c2177581565b6105ee612121565b6104a161010f5481565b6104e261212f565b6104a16101105481565b6104036107143660046144a6565b60009182526065602090815260408084206001600160a01b0393909316845291905290205460ff1690565b6104a16101095481565b6104a16101045481565b6104a161010b5481565b6104a16101025481565b610119546104a1565b6104e261077e366004614436565b6121c2565b6104a1600081565b6104a16101085481565b6104a16101055481565b610403612363565b6104a161010a5481565b6104e26107bf3660046145eb565b612394565b6104a16101005481565b610118546101195461011a5461011b5461011c5461011d5461011e546104449695949360ff1692919087565b6104e26108083660046144a6565b6124ad565b6104a16124d2565b6104e2610823366004614515565b6124e6565b6104b7612ca0565b6104a16101115481565b6104a1612d75565b6104a17ffa4b6f760d780a02797df53a6c2ccf476001dc02ee4f9b6b1426dafc21ff6baf81565b6104a17f65d7a28e3265b37a6474929f336521b332c1681b933f6cb9f3376673440d862a81565b6104e2612dfb565b6104a16101145481565b6104e26108b0366004614605565b61319d565b6104a17fa794a061bac4a541306b6778cc120a221216f325de0020c39b67101d49158ca281565b6104a16101065481565b60007fffffffff0000000000000000000000000000000000000000000000000000000082167f7965db0b00000000000000000000000000000000000000000000000000000000148061097957507f01ffc9a7000000000000000000000000000000000000000000000000000000007fffffffff000000000000000000000000000000000000000000000000000000008316145b92915050565b600061010c5461010b5411156109dc5760405162461bcd60e51b815260206004820152601960248201527f52657061796d656e742050726f6365737320697320646f6e650000000000000060448201526064015b60405180910390fd5b60fc5461010054604051630231155f60e51b81526001600160a01b0390921691634622abe091610a129160040190815260200190565b60206040518083038186803b158015610a2a57600080fd5b505afa158015610a3e573d6000803e3d6000fd5b505050506040513d601f19601f82011682018060405250810190610a62919061446e565b1515600114610ac65760405162461bcd60e51b815260206004820152602a60248201527f46756e647320696e206f70706f7274756e69747920686176656e2774206472616044820152693bb237bbb7103cb2ba1760b11b60648201526084016109d3565b61010d54426000610ad5612d75565b90506000818311610ae557610b39565b6000610afe62015180610af8868661373e565b90613751565b9050610b35620f4240610af861010d54610b2f610b28606461010f5461375190919063ffffffff16565b869061375d565b9061375d565b9150505b610b438482613769565b95945050505050565b600080600061010e5461010d54610b639190614755565b60fb54909150600090610b9790610b82906001600160a01b0316613775565b610b8d9060016146fe565b61010e5490613751565b60fb54909150600090610bbd90610bb6906001600160a01b0316613775565b839061375d565b90506000610bdb84610af8610111548561375d90919063ffffffff16565b90506000610bf985610af8610112548761375d90919063ffffffff16565b919791965090945050505050565b610c0f612363565b610c6f5760405162461bcd60e51b815260206004820152602b60248201527f4d75737420686176652061646d696e20726f6c6520746f20706572666f726d2060448201526a3a3434b99030b1ba34b7b760a91b60648201526084016109d3565b610115805460ff19166001179055565b600260c9541415610cd25760405162461bcd60e51b815260206004820152601f60248201527f5265656e7472616e637947756172643a207265656e7472616e742063616c6c0060448201526064016109d3565b600260c955610cdf6137f6565b3360009081527f3a5c5fdc6d68aca0335558f1dead9769256edaf7721e28efaba2044a61fcc1c2602052604090205460ff16610d745760405162461bcd60e51b815260206004820152602e60248201527f4d757374206861766520626f72726f77657220726f6c6520746f20706572666f60448201526d3936903a3434b99030b1ba34b7b760911b60648201526084016109d3565b61010c5461010b541115610dca5760405162461bcd60e51b815260206004820152601960248201527f52657061796d656e742050726f6365737320697320646f6e650000000000000060448201526064016109d3565b60fc5461010054604051630231155f60e51b81526001600160a01b0390921691634622abe091610e009160040190815260200190565b60206040518083038186803b158015610e1857600080fd5b505afa158015610e2c573d6000803e3d6000fd5b505050506040513d601f19601f82011682018060405250810190610e50919061446e565b1515600114610eb45760405162461bcd60e51b815260206004820152602a60248201527f46756e647320696e206f70706f7274756e69747920686176656e2774206472616044820152693bb237bbb7103cb2ba1760b11b60648201526084016109d3565b61010c5461010b541415610f445760fc54610100546040517f332f14860000000000000000000000000000000000000000000000000000000081526001600160a01b039092169163332f148691610f119160040190815260200190565b600060405180830381600087803b158015610f2b57600080fd5b505af1158015610f3f573d6000803e3d6000fd5b505050505b61010d546101108054829190600090610f5e9084906146fe565b909155504290506000610f6f612d75565b90506000818311610f7f57610fc0565b6000610f9262015180610af8868661373e565b9050610fbc620f4240610af861010d54610b2f610b28606461010f5461375190919063ffffffff16565b9150505b60fb54600090610fe990610b8d90600190610fe3906001600160a01b0316613775565b90613769565b60fb5490915060009061100890610bb6906001600160a01b0316613775565b61011a549091506110199082613769565b61011a556101215461102b9083613769565b61012155610111546110549061104a90620f424090610af8908561375d565b61011d5490613769565b61011d556101125461107d9061107390620f424090610af8908661375d565b6101245490613769565b61012455610114546110a69061109c90620f424090610af8908761375d565b6101255490613769565b61012555610113546110cf906110c590620f424090610af8908761375d565b61011e5490613769565b61011e556110dd8684613769565b610109549096506110ee9087613769565b6101095561010b54611101906001613769565b61010b5560fe5461111d906001600160a01b0316333089613849565b5050600160c95550505050565b600082815260656020526040902060010154611145816138d7565b61114f83836138e1565b505050565b61115c612363565b6111bc5760405162461bcd60e51b815260206004820152602b60248201527f4d75737420686176652061646d696e20726f6c6520746f20706572666f726d2060448201526a3a3434b99030b1ba34b7b760a91b60648201526084016109d3565b610115805460ff19169055565b6001600160a01b03811633146112475760405162461bcd60e51b815260206004820152602f60248201527f416363657373436f6e74726f6c3a2063616e206f6e6c792072656e6f756e636560448201527f20726f6c657320666f722073656c66000000000000000000000000000000000060648201526084016109d3565b6112518282613983565b5050565b6101078054611263906147af565b80601f016020809104026020016040519081016040528092919081815260200182805461128f906147af565b80156112dc5780601f106112b1576101008083540402835291602001916112dc565b820191906000526020600020905b8154815290600101906020018083116112bf57829003601f168201915b505050505081565b600260c95414156113375760405162461bcd60e51b815260206004820152601f60248201527f5265656e7472616e637947756172643a207265656e7472616e742063616c6c0060448201526064016109d3565b600260c9556113446137f6565b600160ff831611156113985760405162461bcd60e51b815260206004820152601860248201527f537562706f6f6c4944203a206f7574206f662072616e6765000000000000000060448201526064016109d3565b600081116113e85760405162461bcd60e51b815260206004820181905260248201527f416d6f756e74204d7573742062652067726561746572207468616e207a65726f60448201526064016109d3565b60ff82166001141561158a5761011b5460ff16156114485760405162461bcd60e51b815260206004820152601860248201527f53656e696f7220537562706f6f6c206973206c6f636b6564000000000000000060448201526064016109d3565b3360009081527f2892c78fbc31f59255f157a1512973f37f8ab9b97be744fa9c97d26a902864ae602052604090205460ff166114fa5760405162461bcd60e51b8152602060048201526044602482018190527f596f75206d75737420686176652053656e696f7220706f6f6c20726f6c652069908201527f6e206f7264657220746f206465706f73697420696e2073656e696f72207375626064820152631c1bdbdb60e21b608482015260a4016109d3565b61011a548111156115735760405162461bcd60e51b815260206004820152603b60248201527f416d6f756e7420657863656564732074686520546f74616c206465706f73697460448201527f656420616d6f756e74206f662073656e696f7220737562706f6f6c000000000060648201526084016109d3565b61011a54611581908261373e565b61011a55611817565b60ff821661181757610123544210156115e55760405162461bcd60e51b815260206004820181905260248201527f66756e647320617265206c6f636b20756e74696c204c6f616e2054656e75726560448201526064016109d3565b6101225460ff16156116395760405162461bcd60e51b815260206004820152601860248201527f4a756e696f7220537562706f6f6c206973206c6f636b6564000000000000000060448201526064016109d3565b3360009081526101166020908152604080832054610117909252909120805460ff19169183111591821790556116d75760405162461bcd60e51b815260206004820152603560248201527f796f757220776974686472617720616d6f756e7420697320686967686572207460448201527f68616e206465706f736974656420616d6f756e742e000000000000000000000060648201526084016109d3565b610121548111156117505760405162461bcd60e51b815260206004820152603b60248201527f416d6f756e7420657863656564732074686520546f74616c206465706f73697460448201527f656420616d6f756e74206f66206a756e696f7220737562706f6f6c000000000060648201526084016109d3565b6101215461175e908261373e565b61012155336000908152610116602052604090205461177d908261373e565b3360009081526101166020526040902081905561181757336000818152610117602052604090819020805460ff1916905560fd54610100549151631bd3b3dd60e31b8152600481019390935260248301919091526001600160a01b03169063de9d9ee890604401600060405180830381600087803b1580156117fe57600080fd5b505af1158015611812573d6000803e3d6000fd5b505050505b61010954611825908261373e565b6101095560fe54611841906001600160a01b0316303384613849565b60405181815260ff83169033907fd5717d2b2bcb82b3f3aea5c8c75e2194c2a7b177469cd9a5cef423e940ab81c7906020015b60405180910390a35050600160c955565b6118af7f65d7a28e3265b37a6474929f336521b332c1681b933f6cb9f3376673440d862a33610714565b6119105760405162461bcd60e51b815260206004820152602c60248201527f4d75737420686176652070617573657220726f6c6520746f20706572666f726d60448201526b103a3434b99030b1ba34b7b760a11b60648201526084016109d3565b611918613a06565b565b600054610100900460ff161580801561193a5750600054600160ff909116105b806119545750303b158015611954575060005460ff166001145b6119c65760405162461bcd60e51b815260206004820152602e60248201527f496e697469616c697a61626c653a20636f6e747261637420697320616c72656160448201527f647920696e697469616c697a656400000000000000000000000000000000000060648201526084016109d3565b6000805460ff1916600117905580156119e9576000805461ff0019166101001790555b6119f1613a58565b8015611a37576000805461ff0019169055604051600181527f7f26b83ff96e1f2b6a682f133852f6798a09c465da95921460cefb38474024989060200160405180910390a15b50565b6000600260c9541415611a8f5760405162461bcd60e51b815260206004820152601f60248201527f5265656e7472616e637947756172643a207265656e7472616e742063616c6c0060448201526064016109d3565b600260c955611a9c6137f6565b600160ff83161115611af05760405162461bcd60e51b815260206004820152601860248201527f537562706f6f6c4944203a206f7574206f662072616e6765000000000000000060448201526064016109d3565b600060ff831660011415611cc05761011b5460ff1615611b525760405162461bcd60e51b815260206004820152601860248201527f53656e696f7220537562706f6f6c206973206c6f636b6564000000000000000060448201526064016109d3565b3360009081527f2892c78fbc31f59255f157a1512973f37f8ab9b97be744fa9c97d26a902864ae602052604090205460ff16611c045760405162461bcd60e51b8152602060048201526044602482018190527f596f75206d75737420686176652053656e696f7220706f6f6c20726f6c652069908201527f6e206f7264657220746f206465706f73697420696e2073656e696f72207375626064820152631c1bdbdb60e21b608482015260a4016109d3565b61011a54611c7a5760405162461bcd60e51b815260206004820152602b60248201527f62616c616e6365206f662073656e696f7220737562706f6f6c206973207a657260448201527f6f2063757272656e746c7900000000000000000000000000000000000000000060648201526084016109d3565b61011d5461011a54611c8b91613769565b61011e5490915015611caf5761011e54611ca6908290613769565b600061011e5590505b600061011a81905561011d55611fcd565b60ff8316611fcd576101225460ff1615611d1c5760405162461bcd60e51b815260206004820152601860248201527f4a756e696f7220537562706f6f6c206973206c6f636b6564000000000000000060448201526064016109d3565b336000908152610117602052604090205460ff1615156001148015611d505750336000908152610116602052604090205415155b611d9c5760405162461bcd60e51b815260206004820152601760248201527f7a65726f20616d6f756e7420746f206465706f7369742e00000000000000000060448201526064016109d3565b6101215433600090815261011660205260409020541115611e155760405162461bcd60e51b815260206004820152602d60248201527f63757272656e746c79206a756e696f7220737562706f6f6c20646f6e2774206860448201526c617665204c697175696469747960981b60648201526084016109d3565b336000908152610116602052604081205461011254611e3c91620f424091610af89161375d565b61012454909150811115611ea85760405162461bcd60e51b815260206004820152602d60248201527f63757272656e746c79206a756e696f7220737562706f6f6c20646f6e2774206860448201526c617665204c697175696469747960981b60648201526084016109d3565b336000908152610116602052604090205461012154611ec69161373e565b6101215561012454611ed8908261373e565b6101245533600090815261011760209081526040808320805460ff191690556101169091528120819055611f0c9082613769565b6101255490925015611f6257336000908152610116602052604081205461011454611f3f91620f424091610af89161375d565b9050611f4b8382613769565b61012554909350611f5c908261373e565b61012555505b60fd5461010054604051631bd3b3dd60e31b815233600482015260248101919091526001600160a01b039091169063de9d9ee890604401600060405180830381600087803b158015611fb357600080fd5b505af1158015611fc7573d6000803e3d6000fd5b50505050505b61010954611fdb908261373e565b6101095560fe54611ff7906001600160a01b0316303384613849565b600160c95592915050565b3360009081527f0cc05db404293ecdddd3d47ddbcbafd5d44e2adcb65cd3b9fb9fd65c065747be602052604090205460ff166120975760405162461bcd60e51b815260206004820152602e60248201527f4d757374206861766520626f72726f77657220726f6c6520746f20706572666f60448201526d3936903a3434b99030b1ba34b7b760911b60648201526084016109d3565b600160ff821611156120eb5760405162461bcd60e51b815260206004820152601860248201527f537562706f6f6c4944203a206f7574206f662072616e6765000000000000000060448201526064016109d3565b60ff8116600114156121085761011b805460ff1916600117905550565b60ff8116611a3757610122805460ff1916600117905550565b6101038054611263906147af565b6121597f65d7a28e3265b37a6474929f336521b332c1681b933f6cb9f3376673440d862a33610714565b6121ba5760405162461bcd60e51b815260206004820152602c60248201527f4d75737420686176652070617573657220726f6c6520746f20706572666f726d60448201526b103a3434b99030b1ba34b7b760a11b60648201526084016109d3565b611918613acf565b600054610100900460ff1661222d5760405162461bcd60e51b815260206004820152602b60248201527f496e697469616c697a61626c653a20636f6e7472616374206973206e6f74206960448201526a6e697469616c697a696e6760a81b60648201526084016109d3565b6001600160a01b0381166122835760405162461bcd60e51b815260206004820181905260248201527f4f776e65722063616e6e6f7420626520746865207a65726f206164647265737360448201526064016109d3565b61228b613b0c565b612293613a58565b61229b613b77565b6122c57fa49807205ce4d355092ef5a8a18f56e8913cf4a201fbe287825b095693c2177582613be9565b6122ef7f65d7a28e3265b37a6474929f336521b332c1681b933f6cb9f3376673440d862a82613be9565b6123397f65d7a28e3265b37a6474929f336521b332c1681b933f6cb9f3376673440d862a7fa49807205ce4d355092ef5a8a18f56e8913cf4a201fbe287825b095693c21775613bf3565b611a377fa49807205ce4d355092ef5a8a18f56e8913cf4a201fbe287825b095693c2177580613bf3565b600061238f7fa49807205ce4d355092ef5a8a18f56e8913cf4a201fbe287825b095693c2177533610714565b905090565b3360009081527f0cc05db404293ecdddd3d47ddbcbafd5d44e2adcb65cd3b9fb9fd65c065747be602052604090205460ff166124295760405162461bcd60e51b815260206004820152602e60248201527f4d757374206861766520626f72726f77657220726f6c6520746f20706572666f60448201526d3936903a3434b99030b1ba34b7b760911b60648201526084016109d3565b600160ff8216111561247d5760405162461bcd60e51b815260206004820152601860248201527f537562706f6f6c4944203a206f7574206f662072616e6765000000000000000060448201526064016109d3565b60ff8116600114156124975761011b805460ff1916905550565b60ff8116611a3757610122805460ff1916905550565b6000828152606560205260409020600101546124c8816138d7565b61114f8383613983565b61011e5461011d5460009161238f916146fe565b600054610100900460ff16158080156125065750600054600160ff909116105b806125205750303b158015612520575060005460ff166001145b6125925760405162461bcd60e51b815260206004820152602e60248201527f496e697469616c697a61626c653a20636f6e747261637420697320616c72656160448201527f647920696e697469616c697a656400000000000000000000000000000000000060648201526084016109d3565b6000805460ff1916600117905580156125b5576000805461ff0019166101001790555b6001600160a01b038b1661260b5760405162461bcd60e51b815260206004820152601660248201527f496e76616c696420636f6e66696720616464726573730000000000000000000060448201526064016109d3565b60fb80546001600160a01b0319166001600160a01b038d1690811790915560009061263590613c3e565b90506001600160a01b03811661268d5760405162461bcd60e51b815260206004820152600d60248201527f496e76616c6964204f776e65720000000000000000000000000000000000000060448201526064016109d3565b60fb546126a2906001600160a01b0316613cbf565b60fc80546001600160a01b0319166001600160a01b0392831617905560fb546126cb9116613cd7565b60fd80546001600160a01b0319166001600160a01b03929092169190911790556126f4816121c2565b60fb54612709906001600160a01b0316613cef565b60fe80546001600160a01b0319166001600160a01b0392831617905560fb546127329116613d07565b60ff80546001600160a01b0319166001600160a01b039290921691909117905561279c7fa794a061bac4a541306b6778cc120a221216f325de0020c39b67101d49158ca27fa49807205ce4d355092ef5a8a18f56e8913cf4a201fbe287825b095693c21775613bf3565b60fb546127dc907fa794a061bac4a541306b6778cc120a221216f325de0020c39b67101d49158ca2906127d7906001600160a01b0316613d1f565b613be9565b6128267f2344277e405079ec07749d374ba0b5862a4e45a6a05ac889dbb4a991c6f9354d7fa49807205ce4d355092ef5a8a18f56e8913cf4a201fbe287825b095693c21775613bf3565b6128707ffa4b6f760d780a02797df53a6c2ccf476001dc02ee4f9b6b1426dafc21ff6baf7fa49807205ce4d355092ef5a8a18f56e8913cf4a201fbe287825b095693c21775613bf3565b61289a7ffa4b6f760d780a02797df53a6c2ccf476001dc02ee4f9b6b1426dafc21ff6baf82613be9565b6101008b905589516128b4906101039060208d01906142f5565b50610101805460ff191660ff8b1617905561010288905561010487905561010586905561010685905583516128f1906101079060208701906142f5565b50610108839055600161010b5560fb546040517fe4a3d784000000000000000000000000000000000000000000000000000000008152600481018d90526001600160a01b039091169063e4a3d7849060240160206040518083038186803b15801561295b57600080fd5b505afa15801561296f573d6000803e3d6000fd5b505050506040513d601f19601f82011682018060405250810190612993919061446e565b612a175761011b805460ff1916600117905560fb546000906129d6906129c1906001600160a01b0316613775565b6129cc9060016146fe565b6101025490613751565b60fb549091506129f9906129f2906001600160a01b0316613775565b829061375d565b61011981905561010254612a0d9190614755565b6101205550612a2e565b610122805460ff1916600117905561010254610119555b60006101045462015180612a429190614736565b9050612a4e81426146fe565b6101235561010554600090612a8990612a7f90620f424090610af890612a75906064613751565b610102549061375d565b6101025490613769565b9050612aae612aa7610106546101045461375190919063ffffffff16565b8290613751565b61010d5560fb54600090612ad890612ace906001600160a01b0316613d37565b6101055490613769565b9050612af0610104548261375190919063ffffffff16565b61010f81905550612b21620f4240610b2f6129cc620f4240610b2f610106546101045461375190919063ffffffff16565b61010e556101065461010454612b3691613751565b61010c55612b42612ca0565b6101125561011155612b52610b4c565b610114556101135560fe546040517f095ea7b300000000000000000000000000000000000000000000000000000000815230600482015260001960248201526000916001600160a01b03169063095ea7b390604401602060405180830381600087803b158015612bc157600080fd5b505af1158015612bd5573d6000803e3d6000fd5b505050506040513d601f19601f82011682018060405250810190612bf9919061446e565b905080612c485760405162461bcd60e51b815260206004820152601660248201527f4661696c656420746f20617070726f766520555344430000000000000000000060448201526064016109d3565b50505050508015612c93576000805461ff0019169055604051600181527f7f26b83ff96e1f2b6a682f133852f6798a09c465da95921460cefb38474024989060200160405180910390a15b5050505050505050505050565b60fb546000908190620f4240908290612d04908390610af890612cf590612ccf906001600160a01b0316613d4f565b60fb54612cef90612ce8906001600160a01b0316613d67565b889061373e565b9061373e565b61010554610b2f906064613751565b60fb54909150600090612d6990620f424090610af890612cf590612d4990612d34906001600160a01b0316613775565b60fb54610b2f906001600160a01b0316613d4f565b60fb54610fe390612d62906001600160a01b0316613d67565b899061373e565b91959194509092505050565b600061010c5461010b541115612dcd5760405162461bcd60e51b815260206004820152601960248201527f52657061796d656e742050726f6365737320697320646f6e650000000000000060448201526064016109d3565b6000610979612df16101065462015180612de79190614736565b61010b549061375d565b61010a5490613769565b600260c9541415612e4e5760405162461bcd60e51b815260206004820152601f60248201527f5265656e7472616e637947756172643a207265656e7472616e742063616c6c0060448201526064016109d3565b600260c955612e5b6137f6565b3360009081527f3a5c5fdc6d68aca0335558f1dead9769256edaf7721e28efaba2044a61fcc1c2602052604090205460ff16612ef05760405162461bcd60e51b815260206004820152602e60248201527f4d757374206861766520626f72726f77657220726f6c6520746f20706572666f60448201526d3936903a3434b99030b1ba34b7b760911b60648201526084016109d3565b60fc5461010054604051630231155f60e51b81526001600160a01b0390921691634622abe091612f269160040190815260200190565b60206040518083038186803b158015612f3e57600080fd5b505afa158015612f52573d6000803e3d6000fd5b505050506040513d601f19601f82011682018060405250810190612f76919061446e565b15612fe95760405162461bcd60e51b815260206004820152602a60248201527f46756e647320696e206f70706f7274756e6974792061726520616c726561647960448201527f2064726177646f776e2e0000000000000000000000000000000000000000000060648201526084016109d3565b6101155460ff161561303d5760405162461bcd60e51b815260206004820152601260248201527f44726177646f776e20697320706175736564000000000000000000000000000060448201526064016109d3565b6101025461010954146130de5760405162461bcd60e51b815260206004820152604760248201527f546f74616c204465706f736974656420616d6f756e7420696e206f70706f727460448201527f756e69747920706f6f6c206d75737420626520657175616c20746f206c6f616e60648201527f20616d6f756e7400000000000000000000000000000000000000000000000000608482015260a4016109d3565b610109805460009182905561012182905561011a919091554261010a5560fc54610100546040517faf7ea9440000000000000000000000000000000000000000000000000000000081526001600160a01b039092169163af7ea9449161314a9160040190815260200190565b600060405180830381600087803b15801561316457600080fd5b505af1158015613178573d6000803e3d6000fd5b505060fe5461319592506001600160a01b03169050303384613849565b50600160c955565b600260c95414156131f05760405162461bcd60e51b815260206004820152601f60248201527f5265656e7472616e637947756172643a207265656e7472616e742063616c6c0060448201526064016109d3565b600260c9556131fd6137f6565b600160ff831611156132515760405162461bcd60e51b815260206004820152601860248201527f537562706f6f6c4944203a206f7574206f662072616e6765000000000000000060448201526064016109d3565b600081116132a15760405162461bcd60e51b815260206004820181905260248201527f416d6f756e74204d7573742062652067726561746572207468616e207a65726f60448201526064016109d3565b60ff8216600114156134595761011b5460ff16156133015760405162461bcd60e51b815260206004820152601860248201527f53656e696f7220537562706f6f6c206973206c6f636b6564000000000000000060448201526064016109d3565b3360009081527f2892c78fbc31f59255f157a1512973f37f8ab9b97be744fa9c97d26a902864ae602052604090205460ff166133b35760405162461bcd60e51b8152602060048201526044602482018190527f596f75206d75737420686176652053656e696f7220706f6f6c20726f6c652069908201527f6e206f7264657220746f206465706f73697420696e2073656e696f72207375626064820152631c1bdbdb60e21b608482015260a4016109d3565b61011a546000906133c5908390613769565b610119549091508111156134415760405162461bcd60e51b815260206004820152603860248201527f416d6f756e7420657863656564732074686520546f74616c206465706f73697460448201527f206c696d6974206f662073656e696f7220737562706f6f6c000000000000000060648201526084016109d3565b61011a5461344f9083613769565b61011a55506136dd565b60ff82166136dd576101225460ff16156134b55760405162461bcd60e51b815260206004820152601860248201527f4a756e696f7220537562706f6f6c206973206c6f636b6564000000000000000060448201526064016109d3565b610121546000906134c7908390613769565b610120549091508111156135435760405162461bcd60e51b815260206004820152603860248201527f416d6f756e7420657863656564732074686520546f74616c206465706f73697460448201527f206c696d6974206f66206a756e696f7220737562706f6f6c000000000000000060648201526084016109d3565b610121546135519083613769565b6101215533600090815261011660205260409020546135709083613769565b33600081815261011660209081526040808320949094556101179052829020805460ff1916600117905560fd546101005492517fe954539d000000000000000000000000000000000000000000000000000000008152600481019290925260248201929092526001600160a01b039091169063e954539d9060440160206040518083038186803b15801561360357600080fd5b505afa158015613617573d6000803e3d6000fd5b505050506040513d601f19601f8201168201806040525081019061363b919061446e565b6136c25760fd54610100546040517fa68a132200000000000000000000000000000000000000000000000000000000815233600482015260248101919091526001600160a01b039091169063a68a132290604401600060405180830381600087803b1580156136a957600080fd5b505af11580156136bd573d6000803e3d6000fd5b505050505b6101205481106136db5761011b805460ff191660011790555b505b610109546136eb9082613769565b6101095560fe54613707906001600160a01b0316333084613849565b60405181815260ff83169033907f1d0787aee899a49ef81d0b11da9aca5455b46aefed042a41bd398d74619cab0090602001611874565b600061374a8284614755565b9392505050565b600061374a8284614716565b600061374a8284614736565b600061374a82846146fe565b60006001600160a01b03821663fc563658825b6040518263ffffffff1660e01b81526004016137a691815260200190565b60206040518083038186803b1580156137be57600080fd5b505afa1580156137d2573d6000803e3d6000fd5b505050506040513d601f19601f8201168201806040525081019061097991906145d3565b60975460ff16156119185760405162461bcd60e51b815260206004820152601060248201527f5061757361626c653a207061757365640000000000000000000000000000000060448201526064016109d3565b604080516001600160a01b0385811660248301528416604482015260648082018490528251808303909101815260849091019091526020810180517bffffffffffffffffffffffffffffffffffffffffffffffffffffffff167f23b872dd000000000000000000000000000000000000000000000000000000001790526138d1908590613d7f565b50505050565b611a378133613e64565b60008281526065602090815260408083206001600160a01b038516845290915290205460ff166112515760008281526065602090815260408083206001600160a01b03851684529091529020805460ff1916600117905561393f3390565b6001600160a01b0316816001600160a01b0316837f2f8788117e7eff1d82e926ec794901d17c78024a50270940304540a733656f0d60405160405180910390a45050565b60008281526065602090815260408083206001600160a01b038516845290915290205460ff16156112515760008281526065602090815260408083206001600160a01b0385168085529252808320805460ff1916905551339285917ff6391f5c32d9c69d2a47ea670b442974b53935d1edc7fd64eb21e047a839171b9190a45050565b613a0e613ee4565b6097805460ff191690557f5db9ee0a495bf2e6ff9c91a7834c1ba4fdd244a5e8aa4e537bd38aeae4b073aa335b6040516001600160a01b03909116815260200160405180910390a1565b600054610100900460ff16613ac35760405162461bcd60e51b815260206004820152602b60248201527f496e697469616c697a61626c653a20636f6e7472616374206973206e6f74206960448201526a6e697469616c697a696e6760a81b60648201526084016109d3565b6097805460ff19169055565b613ad76137f6565b6097805460ff191660011790557f62e78cea01bee320cd4e420270b5ea74000d11b0c9f74754ebdbfc544b05a258613a3b3390565b600054610100900460ff166119185760405162461bcd60e51b815260206004820152602b60248201527f496e697469616c697a61626c653a20636f6e7472616374206973206e6f74206960448201526a6e697469616c697a696e6760a81b60648201526084016109d3565b600054610100900460ff16613be25760405162461bcd60e51b815260206004820152602b60248201527f496e697469616c697a61626c653a20636f6e7472616374206973206e6f74206960448201526a6e697469616c697a696e6760a81b60648201526084016109d3565b600160c955565b61125182826138e1565b600082815260656020526040808220600101805490849055905190918391839186917fbd79b86ffe0ab8e8776151514217cd7cacd52c909f66475c3af44e129f0b00ff9190a4505050565b60006001600160a01b03821663b93f9b0a825b6040518263ffffffff1660e01b8152600401613c6f91815260200190565b60206040518083038186803b158015613c8757600080fd5b505afa158015613c9b573d6000803e3d6000fd5b505050506040513d601f19601f820116820180604052508101906109799190614452565b60006001600160a01b03821663b93f9b0a6006613c51565b60006001600160a01b03821663b93f9b0a6007613c51565b60006001600160a01b03821663b93f9b0a6002613c51565b60006001600160a01b03821663b93f9b0a6001613c51565b60006001600160a01b03821663b93f9b0a6003613c51565b60006001600160a01b03821663fc5636586002613788565b60006001600160a01b03821663fc5636586003613788565b60006001600160a01b03821663fc5636586001613788565b6000613dd4826040518060400160405280602081526020017f5361666545524332303a206c6f772d6c6576656c2063616c6c206661696c6564815250856001600160a01b0316613f369092919063ffffffff16565b80519091501561114f5780806020019051810190613df2919061446e565b61114f5760405162461bcd60e51b815260206004820152602a60248201527f5361666545524332303a204552433230206f7065726174696f6e20646964206e60448201527f6f7420737563636565640000000000000000000000000000000000000000000060648201526084016109d3565b60008281526065602090815260408083206001600160a01b038516845290915290205460ff1661125157613ea2816001600160a01b03166014613f4d565b613ead836020613f4d565b604051602001613ebe92919061464a565b60408051601f198184030181529082905262461bcd60e51b82526109d3916004016146cb565b60975460ff166119185760405162461bcd60e51b815260206004820152601460248201527f5061757361626c653a206e6f742070617573656400000000000000000000000060448201526064016109d3565b6060613f458484600085614174565b949350505050565b60606000613f5c836002614736565b613f679060026146fe565b67ffffffffffffffff811115613f8d57634e487b7160e01b600052604160045260246000fd5b6040519080825280601f01601f191660200182016040528015613fb7576020820181803683370190505b5090507f300000000000000000000000000000000000000000000000000000000000000081600081518110613ffc57634e487b7160e01b600052603260045260246000fd5b60200101906001600160f81b031916908160001a9053507f78000000000000000000000000000000000000000000000000000000000000008160018151811061405557634e487b7160e01b600052603260045260246000fd5b60200101906001600160f81b031916908160001a9053506000614079846002614736565b6140849060016146fe565b90505b6001811115614125577f303132333435363738396162636465660000000000000000000000000000000085600f16601081106140d357634e487b7160e01b600052603260045260246000fd5b1a60f81b8282815181106140f757634e487b7160e01b600052603260045260246000fd5b60200101906001600160f81b031916908160001a90535060049490941c9361411e81614798565b9050614087565b50831561374a5760405162461bcd60e51b815260206004820181905260248201527f537472696e67733a20686578206c656e67746820696e73756666696369656e7460448201526064016109d3565b6060824710156141ec5760405162461bcd60e51b815260206004820152602660248201527f416464726573733a20696e73756666696369656e742062616c616e636520666f60448201527f722063616c6c000000000000000000000000000000000000000000000000000060648201526084016109d3565b6001600160a01b0385163b6142435760405162461bcd60e51b815260206004820152601d60248201527f416464726573733a2063616c6c20746f206e6f6e2d636f6e747261637400000060448201526064016109d3565b600080866001600160a01b0316858760405161425f919061462e565b60006040518083038185875af1925050503d806000811461429c576040519150601f19603f3d011682016040523d82523d6000602084013e6142a1565b606091505b50915091506142b18282866142bc565b979650505050505050565b606083156142cb57508161374a565b8251156142db5782518084602001fd5b8160405162461bcd60e51b81526004016109d391906146cb565b828054614301906147af565b90600052602060002090601f0160209004810192826143235760008555614369565b82601f1061433c57805160ff1916838001178555614369565b82800160010185558215614369579182015b8281111561436957825182559160200191906001019061434e565b50614375929150614379565b5090565b5b80821115614375576000815560010161437a565b803561439981614816565b919050565b600082601f8301126143ae578081fd5b813567ffffffffffffffff808211156143c9576143c9614800565b604051601f8301601f19908116603f011681019082821181831017156143f1576143f1614800565b81604052838152866020858801011115614409578485fd5b8360208701602083013792830160200193909352509392505050565b803560ff8116811461439957600080fd5b600060208284031215614447578081fd5b813561374a81614816565b600060208284031215614463578081fd5b815161374a81614816565b60006020828403121561447f578081fd5b8151801515811461374a578182fd5b60006020828403121561449f578081fd5b5035919050565b600080604083850312156144b8578081fd5b8235915060208301356144ca81614816565b809150509250929050565b6000602082840312156144e6578081fd5b81357fffffffff000000000000000000000000000000000000000000000000000000008116811461374a578182fd5b6000806000806000806000806000806101408b8d031215614534578586fd5b61453d8b61438e565b995060208b0135985060408b013567ffffffffffffffff80821115614560578788fd5b61456c8e838f0161439e565b995061457a60608e01614425565b985060808d0135975060a08d0135965060c08d0135955060e08d013594506101008d01359150808211156145ac578384fd5b506145b98d828e0161439e565b9250506101208b013590509295989b9194979a5092959850565b6000602082840312156145e4578081fd5b5051919050565b6000602082840312156145fc578081fd5b61374a82614425565b60008060408385031215614617578182fd5b61462083614425565b946020939093013593505050565b6000825161464081846020870161476c565b9190910192915050565b7f416363657373436f6e74726f6c3a206163636f756e742000000000000000000081526000835161468281601785016020880161476c565b7f206973206d697373696e6720726f6c652000000000000000000000000000000060179184019182015283516146bf81602884016020880161476c565b01602801949350505050565b60208152600082518060208401526146ea81604085016020870161476c565b601f01601f19169190910160400192915050565b60008219821115614711576147116147ea565b500190565b60008261473157634e487b7160e01b81526012600452602481fd5b500490565b6000816000190483118215151615614750576147506147ea565b500290565b600082821015614767576147676147ea565b500390565b60005b8381101561478757818101518382015260200161476f565b838111156138d15750506000910152565b6000816147a7576147a76147ea565b506000190190565b600181811c908216806147c357607f821691505b602082108114156147e457634e487b7160e01b600052602260045260246000fd5b50919050565b634e487b7160e01b600052601160045260246000fd5b634e487b7160e01b600052604160045260246000fd5b6001600160a01b0381168114611a3757600080fdfea264697066735822122038b8c63d5400d73662dfe2ea8361c2644d9a139a3a4f69fa324816750703ab6164736f6c63430008040033",
  "linkReferences": {},
  "deployedLinkReferences": {}
}