{
  "_format": "hh-sol-artifact-1",
  "contractName": "OpportunityPool",
  "sourceName": "contracts/protocol/OpportunityPool.sol",
  "abi": [
    {
      "anonymous": false,
      "inputs": [
        {
          "indexed": true,
          "internalType": "address",
          "name": "executor",
          "type": "address"
        },
        {
          "indexed": true,
          "internalType": "uint8",
          "name": "subpool",
          "type": "uint8"
        },
        {
          "indexed": false,
          "internalType": "uint256",
          "name": "amount",
          "type": "uint256"
        }
      ],
      "name": "Deposited",
      "type": "event"
    },
    {
      "anonymous": false,
      "inputs": [
        {
          "indexed": false,
          "internalType": "uint8",
          "name": "version",
          "type": "uint8"
        }
      ],
      "name": "Initialized",
      "type": "event"
    },
    {
      "anonymous": false,
      "inputs": [
        {
          "indexed": false,
          "internalType": "address",
          "name": "account",
          "type": "address"
        }
      ],
      "name": "Paused",
      "type": "event"
    },
    {
      "anonymous": false,
      "inputs": [
        {
          "indexed": true,
          "internalType": "bytes32",
          "name": "role",
          "type": "bytes32"
        },
        {
          "indexed": true,
          "internalType": "bytes32",
          "name": "previousAdminRole",
          "type": "bytes32"
        },
        {
          "indexed": true,
          "internalType": "bytes32",
          "name": "newAdminRole",
          "type": "bytes32"
        }
      ],
      "name": "RoleAdminChanged",
      "type": "event"
    },
    {
      "anonymous": false,
      "inputs": [
        {
          "indexed": true,
          "internalType": "bytes32",
          "name": "role",
          "type": "bytes32"
        },
        {
          "indexed": true,
          "internalType": "address",
          "name": "account",
          "type": "address"
        },
        {
          "indexed": true,
          "internalType": "address",
          "name": "sender",
          "type": "address"
        }
      ],
      "name": "RoleGranted",
      "type": "event"
    },
    {
      "anonymous": false,
      "inputs": [
        {
          "indexed": true,
          "internalType": "bytes32",
          "name": "role",
          "type": "bytes32"
        },
        {
          "indexed": true,
          "internalType": "address",
          "name": "account",
          "type": "address"
        },
        {
          "indexed": true,
          "internalType": "address",
          "name": "sender",
          "type": "address"
        }
      ],
      "name": "RoleRevoked",
      "type": "event"
    },
    {
      "anonymous": false,
      "inputs": [
        {
          "indexed": false,
          "internalType": "address",
          "name": "account",
          "type": "address"
        }
      ],
      "name": "Unpaused",
      "type": "event"
    },
    {
      "anonymous": false,
      "inputs": [
        {
          "indexed": true,
          "internalType": "address",
          "name": "executor",
          "type": "address"
        },
        {
          "indexed": true,
          "internalType": "uint8",
          "name": "subpool",
          "type": "uint8"
        },
        {
          "indexed": false,
          "internalType": "uint256",
          "name": "amount",
          "type": "uint256"
        }
      ],
      "name": "Withdrew",
      "type": "event"
    },
    {
      "inputs": [],
      "name": "ADMIN_ROLE",
      "outputs": [
        {
          "internalType": "bytes32",
          "name": "",
          "type": "bytes32"
        }
      ],
      "stateMutability": "view",
      "type": "function"
    },
    {
      "inputs": [],
      "name": "BORROWER_ROLE",
      "outputs": [
        {
          "internalType": "bytes32",
          "name": "",
          "type": "bytes32"
        }
      ],
      "stateMutability": "view",
      "type": "function"
    },
    {
      "inputs": [],
      "name": "DEFAULT_ADMIN_ROLE",
      "outputs": [
        {
          "internalType": "bytes32",
          "name": "",
          "type": "bytes32"
        }
      ],
      "stateMutability": "view",
      "type": "function"
    },
    {
      "inputs": [],
      "name": "PAUSER_ROLE",
      "outputs": [
        {
          "internalType": "bytes32",
          "name": "",
          "type": "bytes32"
        }
      ],
      "stateMutability": "view",
      "type": "function"
    },
    {
      "inputs": [],
      "name": "POOL_LOCKER_ROLE",
      "outputs": [
        {
          "internalType": "bytes32",
          "name": "",
          "type": "bytes32"
        }
      ],
      "stateMutability": "view",
      "type": "function"
    },
    {
      "inputs": [],
      "name": "SENIOR_POOL_ROLE",
      "outputs": [
        {
          "internalType": "bytes32",
          "name": "",
          "type": "bytes32"
        }
      ],
      "stateMutability": "view",
      "type": "function"
    },
    {
      "inputs": [
        {
          "internalType": "address",
          "name": "owner",
          "type": "address"
        }
      ],
      "name": "_BaseUpgradeablePausable_init",
      "outputs": [],
      "stateMutability": "nonpayable",
      "type": "function"
    },
    {
      "inputs": [],
      "name": "__PauserPausable__init",
      "outputs": [],
      "stateMutability": "nonpayable",
      "type": "function"
    },
    {
      "inputs": [],
      "name": "amountWithoutEMI",
      "outputs": [
        {
          "internalType": "uint256",
          "name": "",
          "type": "uint256"
        }
      ],
      "stateMutability": "view",
      "type": "function"
    },
    {
      "inputs": [],
      "name": "dailyInterestRate",
      "outputs": [
        {
          "internalType": "uint256",
          "name": "",
          "type": "uint256"
        }
      ],
      "stateMutability": "view",
      "type": "function"
    },
    {
      "inputs": [
        {
          "internalType": "uint8",
          "name": "_subpoolId",
          "type": "uint8"
        },
        {
          "internalType": "uint256",
          "name": "amount",
          "type": "uint256"
        }
      ],
      "name": "deposit",
      "outputs": [],
      "stateMutability": "nonpayable",
      "type": "function"
    },
    {
      "inputs": [],
      "name": "drawdown",
      "outputs": [],
      "stateMutability": "nonpayable",
      "type": "function"
    },
    {
      "inputs": [],
      "name": "dygnifyConfig",
      "outputs": [
        {
          "internalType": "contract DygnifyConfig",
          "name": "",
          "type": "address"
        }
      ],
      "stateMutability": "view",
      "type": "function"
    },
    {
      "inputs": [],
      "name": "emiAmount",
      "outputs": [
        {
          "internalType": "uint256",
          "name": "",
          "type": "uint256"
        }
      ],
      "stateMutability": "view",
      "type": "function"
    },
    {
      "inputs": [],
      "name": "getOpportunityName",
      "outputs": [
        {
          "internalType": "string",
          "name": "",
          "type": "string"
        }
      ],
      "stateMutability": "view",
      "type": "function"
    },
    {
      "inputs": [],
      "name": "getOverDuePercentage",
      "outputs": [
        {
          "internalType": "uint256",
          "name": "",
          "type": "uint256"
        },
        {
          "internalType": "uint256",
          "name": "",
          "type": "uint256"
        }
      ],
      "stateMutability": "view",
      "type": "function"
    },
    {
      "inputs": [],
      "name": "getRepaymentAmount",
      "outputs": [
        {
          "internalType": "uint256",
          "name": "",
          "type": "uint256"
        }
      ],
      "stateMutability": "view",
      "type": "function"
    },
    {
      "inputs": [
        {
          "internalType": "bytes32",
          "name": "role",
          "type": "bytes32"
        }
      ],
      "name": "getRoleAdmin",
      "outputs": [
        {
          "internalType": "bytes32",
          "name": "",
          "type": "bytes32"
        }
      ],
      "stateMutability": "view",
      "type": "function"
    },
    {
      "inputs": [],
      "name": "getSeniorProfit",
      "outputs": [
        {
          "internalType": "uint256",
          "name": "",
          "type": "uint256"
        }
      ],
      "stateMutability": "view",
      "type": "function"
    },
    {
      "inputs": [],
      "name": "getSeniorTotalDepositable",
      "outputs": [
        {
          "internalType": "uint256",
          "name": "",
          "type": "uint256"
        }
      ],
      "stateMutability": "view",
      "type": "function"
    },
    {
      "inputs": [],
      "name": "getUserWithdrawableAmount",
      "outputs": [
        {
          "internalType": "uint256",
          "name": "",
          "type": "uint256"
        }
      ],
      "stateMutability": "view",
      "type": "function"
    },
    {
      "inputs": [],
      "name": "getYieldPercentage",
      "outputs": [
        {
          "internalType": "uint256",
          "name": "",
          "type": "uint256"
        },
        {
          "internalType": "uint256",
          "name": "",
          "type": "uint256"
        }
      ],
      "stateMutability": "view",
      "type": "function"
    },
    {
      "inputs": [
        {
          "internalType": "bytes32",
          "name": "role",
          "type": "bytes32"
        },
        {
          "internalType": "address",
          "name": "account",
          "type": "address"
        }
      ],
      "name": "grantRole",
      "outputs": [],
      "stateMutability": "nonpayable",
      "type": "function"
    },
    {
      "inputs": [
        {
          "internalType": "bytes32",
          "name": "role",
          "type": "bytes32"
        },
        {
          "internalType": "address",
          "name": "account",
          "type": "address"
        }
      ],
      "name": "hasRole",
      "outputs": [
        {
          "internalType": "bool",
          "name": "",
          "type": "bool"
        }
      ],
      "stateMutability": "view",
      "type": "function"
    },
    {
      "inputs": [
        {
          "internalType": "contract DygnifyConfig",
          "name": "_dygnifyConfig",
          "type": "address"
        },
        {
          "internalType": "bytes32",
          "name": "_opportunityID",
          "type": "bytes32"
        },
        {
          "internalType": "uint256",
          "name": "_loanAmount",
          "type": "uint256"
        },
        {
          "internalType": "uint256",
          "name": "_loanTenureInDays",
          "type": "uint256"
        },
        {
          "internalType": "uint256",
          "name": "_loanInterest",
          "type": "uint256"
        },
        {
          "internalType": "uint256",
          "name": "_paymentFrequencyInDays",
          "type": "uint256"
        },
        {
          "internalType": "uint8",
          "name": "_loanType",
          "type": "uint8"
        }
      ],
      "name": "initialize",
      "outputs": [],
      "stateMutability": "nonpayable",
      "type": "function"
    },
    {
      "inputs": [],
      "name": "investor",
      "outputs": [
        {
          "internalType": "contract IInvestor",
          "name": "",
          "type": "address"
        }
      ],
      "stateMutability": "view",
      "type": "function"
    },
    {
      "inputs": [],
      "name": "isAdmin",
      "outputs": [
        {
          "internalType": "bool",
          "name": "",
          "type": "bool"
        }
      ],
      "stateMutability": "view",
      "type": "function"
    },
    {
      "inputs": [],
      "name": "isDrawdownsPaused",
      "outputs": [
        {
          "internalType": "bool",
          "name": "",
          "type": "bool"
        }
      ],
      "stateMutability": "view",
      "type": "function"
    },
    {
      "inputs": [
        {
          "internalType": "address",
          "name": "",
          "type": "address"
        }
      ],
      "name": "isStaking",
      "outputs": [
        {
          "internalType": "bool",
          "name": "",
          "type": "bool"
        }
      ],
      "stateMutability": "view",
      "type": "function"
    },
    {
      "inputs": [],
      "name": "juniorOverduePerecentage",
      "outputs": [
        {
          "internalType": "uint256",
          "name": "",
          "type": "uint256"
        }
      ],
      "stateMutability": "view",
      "type": "function"
    },
    {
      "inputs": [],
      "name": "juniorSubpoolDetails",
      "outputs": [
        {
          "internalType": "uint256",
          "name": "id",
          "type": "uint256"
        },
        {
          "internalType": "uint256",
          "name": "totalDepositable",
          "type": "uint256"
        },
        {
          "internalType": "uint256",
          "name": "depositedAmount",
          "type": "uint256"
        },
        {
          "internalType": "bool",
          "name": "isPoolLocked",
          "type": "bool"
        },
        {
          "internalType": "uint256",
          "name": "fundsLockedUntil",
          "type": "uint256"
        },
        {
          "internalType": "uint256",
          "name": "yieldGenerated",
          "type": "uint256"
        },
        {
          "internalType": "uint256",
          "name": "overdueGenerated",
          "type": "uint256"
        }
      ],
      "stateMutability": "view",
      "type": "function"
    },
    {
      "inputs": [],
      "name": "juniorYieldPerecentage",
      "outputs": [
        {
          "internalType": "uint256",
          "name": "",
          "type": "uint256"
        }
      ],
      "stateMutability": "view",
      "type": "function"
    },
    {
      "inputs": [],
      "name": "loanAmount",
      "outputs": [
        {
          "internalType": "uint256",
          "name": "",
          "type": "uint256"
        }
      ],
      "stateMutability": "view",
      "type": "function"
    },
    {
      "inputs": [],
      "name": "loanInterest",
      "outputs": [
        {
          "internalType": "uint256",
          "name": "",
          "type": "uint256"
        }
      ],
      "stateMutability": "view",
      "type": "function"
    },
    {
      "inputs": [],
      "name": "loanTenureInDays",
      "outputs": [
        {
          "internalType": "uint256",
          "name": "",
          "type": "uint256"
        }
      ],
      "stateMutability": "view",
      "type": "function"
    },
    {
      "inputs": [],
      "name": "loanType",
      "outputs": [
        {
          "internalType": "uint8",
          "name": "",
          "type": "uint8"
        }
      ],
      "stateMutability": "view",
      "type": "function"
    },
    {
      "inputs": [
        {
          "internalType": "uint8",
          "name": "_subpoolId",
          "type": "uint8"
        }
      ],
      "name": "lockPool",
      "outputs": [],
      "stateMutability": "nonpayable",
      "type": "function"
    },
    {
      "inputs": [],
      "name": "lpToken",
      "outputs": [
        {
          "internalType": "contract ILPToken",
          "name": "",
          "type": "address"
        }
      ],
      "stateMutability": "view",
      "type": "function"
    },
    {
      "inputs": [],
      "name": "nextRepaymentTime",
      "outputs": [
        {
          "internalType": "uint256",
          "name": "",
          "type": "uint256"
        }
      ],
      "stateMutability": "view",
      "type": "function"
    },
    {
      "inputs": [],
      "name": "oneYearInDays",
      "outputs": [
        {
          "internalType": "uint256",
          "name": "",
          "type": "uint256"
        }
      ],
      "stateMutability": "view",
      "type": "function"
    },
    {
      "inputs": [],
      "name": "opportunityID",
      "outputs": [
        {
          "internalType": "bytes32",
          "name": "",
          "type": "bytes32"
        }
      ],
      "stateMutability": "view",
      "type": "function"
    },
    {
      "inputs": [],
      "name": "opportunityOrigination",
      "outputs": [
        {
          "internalType": "contract IOpportunityOrigination",
          "name": "",
          "type": "address"
        }
      ],
      "stateMutability": "view",
      "type": "function"
    },
    {
      "inputs": [],
      "name": "pause",
      "outputs": [],
      "stateMutability": "nonpayable",
      "type": "function"
    },
    {
      "inputs": [],
      "name": "pauseDrawdown",
      "outputs": [],
      "stateMutability": "nonpayable",
      "type": "function"
    },
    {
      "inputs": [],
      "name": "paused",
      "outputs": [
        {
          "internalType": "bool",
          "name": "",
          "type": "bool"
        }
      ],
      "stateMutability": "view",
      "type": "function"
    },
    {
      "inputs": [],
      "name": "paymentFrequencyInDays",
      "outputs": [
        {
          "internalType": "uint256",
          "name": "",
          "type": "uint256"
        }
      ],
      "stateMutability": "view",
      "type": "function"
    },
    {
      "inputs": [],
      "name": "poolBalance",
      "outputs": [
        {
          "internalType": "uint256",
          "name": "",
          "type": "uint256"
        }
      ],
      "stateMutability": "view",
      "type": "function"
    },
    {
      "inputs": [
        {
          "internalType": "bytes32",
          "name": "role",
          "type": "bytes32"
        },
        {
          "internalType": "address",
          "name": "account",
          "type": "address"
        }
      ],
      "name": "renounceRole",
      "outputs": [],
      "stateMutability": "nonpayable",
      "type": "function"
    },
    {
      "inputs": [],
      "name": "repayment",
      "outputs": [],
      "stateMutability": "nonpayable",
      "type": "function"
    },
    {
      "inputs": [],
      "name": "repaymentCounter",
      "outputs": [
        {
          "internalType": "uint256",
          "name": "",
          "type": "uint256"
        }
      ],
      "stateMutability": "view",
      "type": "function"
    },
    {
      "inputs": [],
      "name": "repaymentStartTime",
      "outputs": [
        {
          "internalType": "uint256",
          "name": "",
          "type": "uint256"
        }
      ],
      "stateMutability": "view",
      "type": "function"
    },
    {
      "inputs": [
        {
          "internalType": "bytes32",
          "name": "role",
          "type": "bytes32"
        },
        {
          "internalType": "address",
          "name": "account",
          "type": "address"
        }
      ],
      "name": "revokeRole",
      "outputs": [],
      "stateMutability": "nonpayable",
      "type": "function"
    },
    {
      "inputs": [],
      "name": "seniorOverduePerecentage",
      "outputs": [
        {
          "internalType": "uint256",
          "name": "",
          "type": "uint256"
        }
      ],
      "stateMutability": "view",
      "type": "function"
    },
    {
      "inputs": [],
      "name": "seniorSubpoolDetails",
      "outputs": [
        {
          "internalType": "uint256",
          "name": "id",
          "type": "uint256"
        },
        {
          "internalType": "uint256",
          "name": "totalDepositable",
          "type": "uint256"
        },
        {
          "internalType": "uint256",
          "name": "depositedAmount",
          "type": "uint256"
        },
        {
          "internalType": "bool",
          "name": "isPoolLocked",
          "type": "bool"
        },
        {
          "internalType": "uint256",
          "name": "fundsLockedUntil",
          "type": "uint256"
        },
        {
          "internalType": "uint256",
          "name": "yieldGenerated",
          "type": "uint256"
        },
        {
          "internalType": "uint256",
          "name": "overdueGenerated",
          "type": "uint256"
        }
      ],
      "stateMutability": "view",
      "type": "function"
    },
    {
      "inputs": [],
      "name": "seniorYieldPerecentage",
      "outputs": [
        {
          "internalType": "uint256",
          "name": "",
          "type": "uint256"
        }
      ],
      "stateMutability": "view",
      "type": "function"
    },
    {
      "inputs": [],
      "name": "sixDecimal",
      "outputs": [
        {
          "internalType": "uint256",
          "name": "",
          "type": "uint256"
        }
      ],
      "stateMutability": "view",
      "type": "function"
    },
    {
      "inputs": [
        {
          "internalType": "address",
          "name": "",
          "type": "address"
        }
      ],
      "name": "stakingBalance",
      "outputs": [
        {
          "internalType": "uint256",
          "name": "",
          "type": "uint256"
        }
      ],
      "stateMutability": "view",
      "type": "function"
    },
    {
      "inputs": [
        {
          "internalType": "bytes4",
          "name": "interfaceId",
          "type": "bytes4"
        }
      ],
      "name": "supportsInterface",
      "outputs": [
        {
          "internalType": "bool",
          "name": "",
          "type": "bool"
        }
      ],
      "stateMutability": "view",
      "type": "function"
    },
    {
      "inputs": [],
      "name": "totalRepaidAmount",
      "outputs": [
        {
          "internalType": "uint256",
          "name": "",
          "type": "uint256"
        }
      ],
      "stateMutability": "view",
      "type": "function"
    },
    {
      "inputs": [],
      "name": "totalRepayments",
      "outputs": [
        {
          "internalType": "uint256",
          "name": "",
          "type": "uint256"
        }
      ],
      "stateMutability": "view",
      "type": "function"
    },
    {
      "inputs": [
        {
          "internalType": "uint8",
          "name": "_subpoolId",
          "type": "uint8"
        }
      ],
      "name": "unLockPool",
      "outputs": [],
      "stateMutability": "nonpayable",
      "type": "function"
    },
    {
      "inputs": [],
      "name": "unpause",
      "outputs": [],
      "stateMutability": "nonpayable",
      "type": "function"
    },
    {
      "inputs": [],
      "name": "unpauseDrawdown",
      "outputs": [],
      "stateMutability": "nonpayable",
      "type": "function"
    },
    {
      "inputs": [],
      "name": "usdcToken",
      "outputs": [
        {
          "internalType": "contract IERC20",
          "name": "",
          "type": "address"
        }
      ],
      "stateMutability": "view",
      "type": "function"
    },
    {
      "inputs": [
        {
          "internalType": "uint8",
          "name": "_subpoolId",
          "type": "uint8"
        },
        {
          "internalType": "uint256",
          "name": "amount",
          "type": "uint256"
        }
      ],
      "name": "withdraw",
      "outputs": [],
      "stateMutability": "nonpayable",
      "type": "function"
    },
    {
      "inputs": [
        {
          "internalType": "uint8",
          "name": "_subpoolId",
          "type": "uint8"
        }
      ],
      "name": "withdrawAll",
      "outputs": [
        {
          "internalType": "uint256",
          "name": "",
          "type": "uint256"
        }
      ],
      "stateMutability": "nonpayable",
      "type": "function"
    },
    {
      "inputs": [],
      "name": "writeOffOpportunity",
      "outputs": [],
      "stateMutability": "nonpayable",
      "type": "function"
    }
  ],
  "bytecode": "0x608060405234801561001057600080fd5b5061550a806100206000396000f3fe608060405234801561001057600080fd5b50600436106104215760003560e01c80637101fd1611610235578063c4f31a6511610135578063dee05609116100c8578063e77ef21f11610097578063f4d4c9d71161007c578063f4d4c9d7146108e9578063ff3779f0146108fc578063ff3a56441461092357600080fd5b8063e77ef21f146108d7578063eedffb96146108df57600080fd5b8063dee0560914610877578063df9fd1c114610881578063e0fdf7c614610889578063e63ab1e9146108b057600080fd5b8063d547741f11610104578063d547741f1461083f578063d661d32014610852578063dadfecca1461085a578063ddc22b741461086257600080fd5b8063c4f31a65146107e3578063c5e2bf1a146107f6578063c8dd7bf314610809578063cab9bd001461081357600080fd5b80639b021fa2116101c8578063a217fddf11610197578063a7292ea41161017c578063a7292ea4146107c7578063b6db75a0146107d1578063bbbf13ea146107d957600080fd5b8063a217fddf146107b6578063a5bb19b2146107be57600080fd5b80639b021fa2146107865780639d585f7f146107905780639f964fe61461079a578063a12dde4d146107a357600080fd5b8063891369b211610204578063891369b21461072f57806391d148541461073957806396365d441461077257806399e7f2501461077c57600080fd5b80637101fd16146106ee57806375b238fc146106f65780637fca631f1461071d5780638456cb591461072757600080fd5b8063257c27361161034057806345bc78ab116102d35780635b483e4c116102a25780635fcbd285116102875780635fcbd285146106a45780636a15633b146106b75780636f49712b146106ca57600080fd5b80635b483e4c1461068f5780635c975abb1461069957600080fd5b806345bc78ab1461064957806346e35faa1461066a578063526d81f61461067457806353654e851461067c57600080fd5b806334d93fb41161030f57806334d93fb41461061357806336568abe1461061b5780633f4899141461062e5780633f4ba83a1461064157600080fd5b8063257c2736146105db5780632588d168146105e35780632f2ff15d146105f6578063338039fb1461060957600080fd5b806311eac855116103b85780631e0018d6116103875780631e0018d6146105915780632159e458146105a457806322eac12c146105ae578063248a9ca3146105b857600080fd5b806311eac8551461054157806317cd802d1461056c5780631be95459146105745780631daa910e1461058757600080fd5b806307a7c08a116103f457806307a7c08a146104e55780630a2c1505146105025780630b4a45fd146105105780630e7b949e1461051a57600080fd5b806301ffc9a714610426578063031994941461044e57806304419b76146104af578063074f2543146104cf575b600080fd5b61043961043436600461518d565b61092d565b60405190151581526020015b60405180910390f35b61011c5461011d5461011e5461011f5461012054610121546101225461047a9695949360ff1692919087565b604080519788526020880196909652948601939093529015156060850152608084015260a083015260c082015260e001610445565b610101546104bd9060ff1681565b60405160ff9091168152602001610445565b6104d7610996565b604051908152602001610445565b6104ed610c1a565b60408051928352602083019190915201610445565b610112546104399060ff1681565b610518610cd5565b005b6104d77f2344277e405079ec07749d374ba0b5862a4e45a6a05ac889dbb4a991c6f9354d81565b60fe54610554906001600160a01b031681565b6040516001600160a01b039091168152602001610445565b610518610d4d565b60fb54610554906001600160a01b031681565b6104d761010f5481565b60fd54610554906001600160a01b031681565b6104d761010b5481565b6104d76101095481565b6104d76105c6366004615146565b60009081526065602052604090206001015490565b610518611710565b60fc54610554906001600160a01b031681565b61051861060436600461515e565b611beb565b6104d7620f424081565b610518611c15565b61051861062936600461515e565b611c8a565b61051861063c3660046152e9565b611d16565b6105186122b7565b6104d76106573660046150ee565b6101136020526000908152604090205481565b6104d76101105481565b61051861234c565b6104d761068a3660046152cf565b61246c565b6104d761010a5481565b60975460ff16610439565b60ff54610554906001600160a01b031681565b6105186106c53660046152cf565b612b2d565b6104396106d83660046150ee565b6101146020526000908152604090205460ff1681565b6104d7612c4c565b6104d77fa49807205ce4d355092ef5a8a18f56e8913cf4a201fbe287825b095693c2177581565b6104d761010c5481565b610518612de6565b6104d761010d5481565b61043961074736600461515e565b60009182526065602090815260408084206001600160a01b0393909316845291905290205460ff1690565b6104d76101065481565b6104d76101035481565b6104d76101085481565b6104d76101025481565b610116546104d7565b6105186107b13660046150ee565b612e79565b6104d7600081565b6104d761016d81565b6104d76101045481565b61043961301a565b6104d76101075481565b6105186107f13660046151b5565b61304b565b6105186108043660046152cf565b61388a565b6104d76101005481565b610115546101165461011754610118546101195461011a5461011b5461047a9695949360ff1692919087565b61051861084d36600461515e565b6139a3565b6104d76139c8565b6104ed6139dc565b61086a613ab1565b60405161044591906153af565b6104d761010e5481565b6104d7613b50565b6104d77ffa4b6f760d780a02797df53a6c2ccf476001dc02ee4f9b6b1426dafc21ff6baf81565b6104d77f65d7a28e3265b37a6474929f336521b332c1681b933f6cb9f3376673440d862a81565b610518613bd6565b6104d76101115481565b6105186108f73660046152e9565b613f78565b6104d77fa794a061bac4a541306b6778cc120a221216f325de0020c39b67101d49158ca281565b6104d76101055481565b60006001600160e01b031982167f7965db0b00000000000000000000000000000000000000000000000000000000148061099057507f01ffc9a7000000000000000000000000000000000000000000000000000000006001600160e01b03198316145b92915050565b6000610109546101085411156109f35760405162461bcd60e51b815260206004820152601960248201527f52657061796d656e742050726f6365737320697320646f6e650000000000000060448201526064015b60405180910390fd5b60fc5461010054604051630231155f60e51b81526001600160a01b0390921691634622abe091610a299160040190815260200190565b60206040518083038186803b158015610a4157600080fd5b505afa158015610a55573d6000803e3d6000fd5b505050506040513d601f19601f82011682018060405250810190610a799190615126565b1515600114610add5760405162461bcd60e51b815260206004820152602a60248201527f46756e647320696e206f70706f7274756e69747920686176656e2774206472616044820152693bb237bbb7103cb2ba1760b11b60648201526084016109ea565b6101015460009060ff1660011415610b72575061010a54426000610aff613b50565b9050600081831115610b5f576000610b2462015180610b1e868661450e565b90614521565b9050610b5b620f4240610b1e61010a54610b55610b4e606461010c5461452190919063ffffffff16565b869061452d565b9061452d565b9150505b610b698482614539565b95945050505050565b61010b5461010a54610b839161450e565b9050426000610b90613b50565b9050600081831115610bda576000610baf62015180610b1e868661450e565b9050610bd6620f4240610b1e87610b55610b4e606461010c5461452190919063ffffffff16565b9150505b610be48482614539565b935061010954610108541415610c115761011d5461011654610b6991610c0a9190614539565b8590614539565b5050505b919050565b600080600061010b5461010a54610c319190615439565b60fb54909150600090610c6590610c50906001600160a01b0316614545565b610c5b9060016153e2565b61010b5490614521565b60fb54909150600090610c8b90610c84906001600160a01b0316614545565b839061452d565b90506000610ca984610b1e61010e548561452d90919063ffffffff16565b90506000610cc785610b1e61010f548761452d90919063ffffffff16565b919791965090945050505050565b610cdd61301a565b610d3d5760405162461bcd60e51b815260206004820152602b60248201527f4d75737420686176652061646d696e20726f6c6520746f20706572666f726d2060448201526a3a3434b99030b1ba34b7b760a91b60648201526084016109ea565b610112805460ff19166001179055565b600260c9541415610da05760405162461bcd60e51b815260206004820152601f60248201527f5265656e7472616e637947756172643a207265656e7472616e742063616c6c0060448201526064016109ea565b600260c9553360009081527f3a5c5fdc6d68aca0335558f1dead9769256edaf7721e28efaba2044a61fcc1c2602052604090205460ff16610e3a5760405162461bcd60e51b815260206004820152602e60248201527f4d757374206861766520626f72726f77657220726f6c6520746f20706572666f60448201526d3936903a3434b99030b1ba34b7b760911b60648201526084016109ea565b61010954610108541115610e905760405162461bcd60e51b815260206004820152601960248201527f52657061796d656e742050726f6365737320697320646f6e650000000000000060448201526064016109ea565b60fc5461010054604051630231155f60e51b81526001600160a01b0390921691634622abe091610ec69160040190815260200190565b60206040518083038186803b158015610ede57600080fd5b505afa158015610ef2573d6000803e3d6000fd5b505050506040513d601f19601f82011682018060405250810190610f169190615126565b1515600114610f7a5760405162461bcd60e51b815260206004820152602a60248201527f46756e647320696e206f70706f7274756e69747920686176656e2774206472616044820152693bb237bbb7103cb2ba1760b11b60648201526084016109ea565b6101015460ff16600114156112755761010a5461010d8054829190600090610fa39084906153e2565b909155504290506000610fb4613b50565b9050600081831115611001576000610fd362015180610b1e868661450e565b9050610ffd620f4240610b1e61010a54610b55610b4e606461010c5461452190919063ffffffff16565b9150505b60fb5460009061102a90610c5b90600190611024906001600160a01b0316614545565b90614539565b60fb5490915060009061104990610c84906001600160a01b0316614545565b6101175490915061105a9082614539565b6101175561011e5461106c9083614539565b61011e5561010e546110959061108b90620f424090610b1e908561452d565b61011a5490614539565b61011a5561010f546110be906110b490620f424090610b1e908661452d565b6101215490614539565b61012155610111546110e7906110dd90620f424090610b1e908761452d565b6101225490614539565b61012255610110546111109061110690620f424090610b1e908761452d565b61011b5490614539565b61011b5561010b5461010a54600091829161112a9161450e565b60fb5490915061115690620f424090610b1e9061114f906001600160a01b03166145c6565b849061452d565b60fb5490925061118290620f424090610b1e9061117b906001600160a01b03166145c6565b889061452d565b61118c90836153e2565b91506111988886614539565b610106549098506111a99089614539565b6101065560fe546111c5906001600160a01b031633308b6145de565b60fe5460fb546001600160a01b039182169163a9059cbb916111e7911661466c565b6040516001600160e01b031960e084901b1681526001600160a01b03909116600482015260248101859052604401602060405180830381600087803b15801561122f57600080fd5b505af1158015611243573d6000803e3d6000fd5b505050506040513d601f19601f820116820180604052508101906112679190615126565b505050505050505050611572565b600061129061010b5461010a5461450e90919063ffffffff16565b90508061010d60008282546112a591906153e2565b9091555042905060006112b6613b50565b90506000818311156113005760006112d562015180610b1e868661450e565b90506112fc620f4240610b1e87610b55610b4e606461010c5461452190919063ffffffff16565b9150505b60fb5460009061132390610c5b90600190611024906001600160a01b0316614545565b60fb5490915060009061134290610c84906001600160a01b0316614545565b905061136461108b620f4240610b1e8461010e5461452d90919063ffffffff16565b61011a5561010f54611383906110b490620f424090610b1e908661452d565b61012155610111546113a2906110dd90620f424090610b1e908761452d565b61012255610110546113c19061110690620f424090610b1e908761452d565b61011b5561010b5461010a5460009182916113db9161450e565b60fb5490915061140090620f424090610b1e9061114f906001600160a01b03166145c6565b60fb5490925061142590620f424090610b1e9061117b906001600160a01b03166145c6565b61142f90836153e2565b91506101095461010854141561148f576101165461011781905561011d5461011e819055611468916114619190614539565b8990614539565b6101175461011e5491995061148a9161148091614539565b61010d5490614539565b61010d555b6114998886614539565b610106549098506114aa9089614539565b6101065560fe546114c6906001600160a01b031633308b6145de565b60fe5460fb546001600160a01b039182169163a9059cbb916114e8911661466c565b6040516001600160e01b031960e084901b1681526001600160a01b03909116600482015260248101859052604401602060405180830381600087803b15801561153057600080fd5b505af1158015611544573d6000803e3d6000fd5b505050506040513d601f19601f820116820180604052508101906115689190615126565b5050505050505050505b610109546101085414156116f65760fc54610100546040517f332f14860000000000000000000000000000000000000000000000000000000081526001600160a01b039092169163332f1486916115cf9160040190815260200190565b600060405180830381600087803b1580156115e957600080fd5b505af11580156115fd573d6000803e3d6000fd5b50506101175461011a5461011b546000945091925061161b916153e2565b61162591906153e2565b905080610106600082825461163a9190615439565b9091555050600061011b81905561011781905561011a5560fe5460fb546001600160a01b039182169163a9059cbb9161167391166146ee565b6040516001600160e01b031960e084901b1681526001600160a01b03909116600482015260248101849052604401602060405180830381600087803b1580156116bb57600080fd5b505af11580156116cf573d6000803e3d6000fd5b505050506040513d601f19601f820116820180604052508101906116f39190615126565b50505b61010854611705906001614539565b61010855600160c955565b60fc54610100546040517f6815322c0000000000000000000000000000000000000000000000000000000081526001600160a01b0390921691636815322c9161175f9160040190815260200190565b60206040518083038186803b15801561177757600080fd5b505afa15801561178b573d6000803e3d6000fd5b505050506040513d601f19601f820116820180604052508101906117af9190615126565b15156001146118265760405162461bcd60e51b815260206004820152602960248201527f4f70706f7274756e69747920706f6f6c20697320686176656e2774205772697460448201527f656f6666207965742e000000000000000000000000000000000000000000000060648201526084016109ea565b60fb5461183b906001600160a01b0316614706565b6001600160a01b0316336001600160a01b0316146118c15760405162461bcd60e51b815260206004820152603060248201527f4f6e6c79204f70706f7274756e6974794f726967696e6174696f6e2063616e2060448201527f657865637574652077726974656f66660000000000000000000000000000000060648201526084016109ea565b60fb546000906118f5906118e490600190611024906001600160a01b0316614545565b6101095461010b54610b1e9161452d565b60fb5490915060009061191490610c84906001600160a01b0316614545565b90506000611935620f4240610b1e8461010e5461452d90919063ffffffff16565b6101015490915060009060ff16600114156119ac57426000611955613b50565b90506000818311156119a257600061197462015180610b1e868661450e565b905061199e620f4240610b1e61010a54610b55610b4e606461010c5461452190919063ffffffff16565b9150505b9250611a24915050565b60006119c761010b5461010a5461450e90919063ffffffff16565b90504260006119d4613b50565b9050600081831115611a1e5760006119f362015180610b1e868661450e565b9050611a1a620f4240610b1e87610b55610b4e606461010c5461452190919063ffffffff16565b9150505b93505050505b611a41620f4240610b1e836101105461452d90919063ffffffff16565b61011b54909150600090611a5590836153e2565b61011654909150600090611a6985846153e2565b611a7391906153e2565b905080610106541115611b3d5760008161010654611a919190615439565b60fe5460fb549192506001600160a01b039081169163a9059cbb91611ab691166146ee565b6040516001600160e01b031960e084901b1681526001600160a01b03909116600482015260248101859052604401602060405180830381600087803b158015611afe57600080fd5b505af1158015611b12573d6000803e3d6000fd5b505050506040513d601f19601f82011682018060405250810190611b369190615126565b5050611be3565b60fe5460fb546001600160a01b039182169163a9059cbb91611b5f91166146ee565b610106546040516001600160e01b031960e085901b1681526001600160a01b0390921660048301526024820152604401602060405180830381600087803b158015611ba957600080fd5b505af1158015611bbd573d6000803e3d6000fd5b505050506040513d601f19601f82011682018060405250810190611be19190615126565b505b505050505050565b600082815260656020526040902060010154611c068161471e565b611c108383614728565b505050565b611c1d61301a565b611c7d5760405162461bcd60e51b815260206004820152602b60248201527f4d75737420686176652061646d696e20726f6c6520746f20706572666f726d2060448201526a3a3434b99030b1ba34b7b760a91b60648201526084016109ea565b610112805460ff19169055565b6001600160a01b0381163314611d085760405162461bcd60e51b815260206004820152602f60248201527f416363657373436f6e74726f6c3a2063616e206f6e6c792072656e6f756e636560448201527f20726f6c657320666f722073656c66000000000000000000000000000000000060648201526084016109ea565b611d1282826147ca565b5050565b600260c9541415611d695760405162461bcd60e51b815260206004820152601f60248201527f5265656e7472616e637947756172643a207265656e7472616e742063616c6c0060448201526064016109ea565b600260c955611d7661484d565b600160ff83161115611dca5760405162461bcd60e51b815260206004820152601860248201527f537562706f6f6c4944203a206f7574206f662072616e6765000000000000000060448201526064016109ea565b60008111611e1a5760405162461bcd60e51b815260206004820181905260248201527f416d6f756e74204d7573742062652067726561746572207468616e207a65726f60448201526064016109ea565b60ff821660011415611fbc576101185460ff1615611e7a5760405162461bcd60e51b815260206004820152601860248201527f53656e696f7220537562706f6f6c206973206c6f636b6564000000000000000060448201526064016109ea565b3360009081527f2892c78fbc31f59255f157a1512973f37f8ab9b97be744fa9c97d26a902864ae602052604090205460ff16611f2c5760405162461bcd60e51b8152602060048201526044602482018190527f596f75206d75737420686176652053656e696f7220706f6f6c20726f6c652069908201527f6e206f7264657220746f206465706f73697420696e2073656e696f72207375626064820152631c1bdbdb60e21b608482015260a4016109ea565b61011754811115611fa55760405162461bcd60e51b815260206004820152603b60248201527f416d6f756e7420657863656564732074686520546f74616c206465706f73697460448201527f656420616d6f756e74206f662073656e696f7220737562706f6f6c000000000060648201526084016109ea565b61011754611fb3908261450e565b61011755612249565b60ff821661224957610120544210156120175760405162461bcd60e51b815260206004820181905260248201527f66756e647320617265206c6f636b20756e74696c204c6f616e2054656e75726560448201526064016109ea565b61011f5460ff161561206b5760405162461bcd60e51b815260206004820152601860248201527f4a756e696f7220537562706f6f6c206973206c6f636b6564000000000000000060448201526064016109ea565b3360009081526101136020908152604080832054610114909252909120805460ff19169183111591821790556121095760405162461bcd60e51b815260206004820152603560248201527f796f757220776974686472617720616d6f756e7420697320686967686572207460448201527f68616e206465706f736974656420616d6f756e742e000000000000000000000060648201526084016109ea565b61011e548111156121825760405162461bcd60e51b815260206004820152603b60248201527f416d6f756e7420657863656564732074686520546f74616c206465706f73697460448201527f656420616d6f756e74206f66206a756e696f7220737562706f6f6c000000000060648201526084016109ea565b61011e54612190908261450e565b61011e5533600090815261011360205260409020546121af908261450e565b3360009081526101136020526040902081905561224957336000818152610114602052604090819020805460ff1916905560fd54610100549151631bd3b3dd60e31b8152600481019390935260248301919091526001600160a01b03169063de9d9ee890604401600060405180830381600087803b15801561223057600080fd5b505af1158015612244573d6000803e3d6000fd5b505050505b61010654612257908261450e565b6101065560fe54612273906001600160a01b03163033846145de565b60405181815260ff83169033907fd5717d2b2bcb82b3f3aea5c8c75e2194c2a7b177469cd9a5cef423e940ab81c7906020015b60405180910390a35050600160c955565b6122e17f65d7a28e3265b37a6474929f336521b332c1681b933f6cb9f3376673440d862a33610747565b6123425760405162461bcd60e51b815260206004820152602c60248201527f4d75737420686176652070617573657220726f6c6520746f20706572666f726d60448201526b103a3434b99030b1ba34b7b760a11b60648201526084016109ea565b61234a6148a0565b565b600054610100900460ff161580801561236c5750600054600160ff909116105b806123865750303b158015612386575060005460ff166001145b6123f85760405162461bcd60e51b815260206004820152602e60248201527f496e697469616c697a61626c653a20636f6e747261637420697320616c72656160448201527f647920696e697469616c697a656400000000000000000000000000000000000060648201526084016109ea565b6000805460ff19166001179055801561241b576000805461ff0019166101001790555b6124236148f2565b8015612469576000805461ff0019169055604051600181527f7f26b83ff96e1f2b6a682f133852f6798a09c465da95921460cefb38474024989060200160405180910390a15b50565b6000600260c95414156124c15760405162461bcd60e51b815260206004820152601f60248201527f5265656e7472616e637947756172643a207265656e7472616e742063616c6c0060448201526064016109ea565b600260c9556124ce61484d565b600160ff831611156125225760405162461bcd60e51b815260206004820152601860248201527f537562706f6f6c4944203a206f7574206f662072616e6765000000000000000060448201526064016109ea565b60fc5461010054604051638176715560e01b81526001600160a01b03909216916381767155916125589160040190815260200190565b60206040518083038186803b15801561257057600080fd5b505afa158015612584573d6000803e3d6000fd5b505050506040513d601f19601f820116820180604052508101906125a89190615126565b151560011461260c5760405162461bcd60e51b815260206004820152602a60248201527f46756e647320696e206f70706f7274756e69747920686176656e2774206472616044820152693bb237bbb7103cb2ba1760b11b60648201526084016109ea565b600060ff8316600114156127dc576101185460ff161561266e5760405162461bcd60e51b815260206004820152601860248201527f53656e696f7220537562706f6f6c206973206c6f636b6564000000000000000060448201526064016109ea565b3360009081527f2892c78fbc31f59255f157a1512973f37f8ab9b97be744fa9c97d26a902864ae602052604090205460ff166127205760405162461bcd60e51b8152602060048201526044602482018190527f596f75206d75737420686176652053656e696f7220706f6f6c20726f6c652069908201527f6e206f7264657220746f206465706f73697420696e2073656e696f72207375626064820152631c1bdbdb60e21b608482015260a4016109ea565b610117546127965760405162461bcd60e51b815260206004820152602b60248201527f62616c616e6365206f662073656e696f7220737562706f6f6c206973207a657260448201527f6f2063757272656e746c7900000000000000000000000000000000000000000060648201526084016109ea565b61011a54610117546127a791614539565b61011b54909150156127cb5761011b546127c2908290614539565b600061011b5590505b600061011781905561011a55612af8565b60ff8316612af85761011f5460ff16156128385760405162461bcd60e51b815260206004820152601860248201527f4a756e696f7220537562706f6f6c206973206c6f636b6564000000000000000060448201526064016109ea565b336000908152610114602052604090205460ff161515600114801561286c5750336000908152610113602052604090205415155b6128b85760405162461bcd60e51b815260206004820152601760248201527f7a65726f20616d6f756e7420746f206465706f7369742e00000000000000000060448201526064016109ea565b61011e54336000908152610113602052604090205411156129315760405162461bcd60e51b815260206004820152602d60248201527f63757272656e746c79206a756e696f7220737562706f6f6c20646f6e2774206860448201526c617665204c697175696469747960981b60648201526084016109ea565b336000908152610113602052604081205461010f5461295891620f424091610b1e9161452d565b610121549091508111156129c45760405162461bcd60e51b815260206004820152602d60248201527f63757272656e746c79206a756e696f7220737562706f6f6c20646f6e2774206860448201526c617665204c697175696469747960981b60648201526084016109ea565b336000908152610113602052604090205461011e546129e29161450e565b61011e55610121546129f4908261450e565b6101215533600090815261011460209081526040808320805460ff19169055610113909152902054612a269082614539565b6101225490925015612a7c57336000908152610113602052604081205461011154612a5991620f424091610b1e9161452d565b9050612a658382614539565b61012254909350612a76908261450e565b61012255505b60fd5461010054604051631bd3b3dd60e31b815233600482015260248101919091526001600160a01b039091169063de9d9ee890604401600060405180830381600087803b158015612acd57600080fd5b505af1158015612ae1573d6000803e3d6000fd5b505033600090815261011360205260408120555050505b61010654612b06908261450e565b6101065560fe54612b22906001600160a01b03163033846145de565b600160c95592915050565b3360009081527f0cc05db404293ecdddd3d47ddbcbafd5d44e2adcb65cd3b9fb9fd65c065747be602052604090205460ff16612bc25760405162461bcd60e51b815260206004820152602e60248201527f4d757374206861766520626f72726f77657220726f6c6520746f20706572666f60448201526d3936903a3434b99030b1ba34b7b760911b60648201526084016109ea565b600160ff82161115612c165760405162461bcd60e51b815260206004820152601860248201527f537562706f6f6c4944203a206f7574206f662072616e6765000000000000000060448201526064016109ea565b60ff811660011415612c3357610118805460ff1916600117905550565b60ff81166124695761011f805460ff1916600117905550565b336000908152610114602052604081205460ff1615156001148015612c805750336000908152610113602052604090205415155b612ccc5760405162461bcd60e51b815260206004820152601960248201527f7a65726f20616d6f756e7420746f206465706f73697465642e0000000000000060448201526064016109ea565b60fc5461010054604051638176715560e01b815260048101919091526000916001600160a01b03169063817671559060240160206040518083038186803b158015612d1657600080fd5b505afa158015612d2a573d6000803e3d6000fd5b505050506040513d601f19601f82011682018060405250810190612d4e9190615126565b151560011415610c1557336000908152610113602052604081205461010f54612d7f91620f424091610b1e9161452d565b3360009081526101136020526040902054909150612d9d9082614539565b6101225490925015612de057336000908152610113602052604081205461011154612dd091620f424091610b1e9161452d565b9050612ddc8382614539565b9250505b50919050565b612e107f65d7a28e3265b37a6474929f336521b332c1681b933f6cb9f3376673440d862a33610747565b612e715760405162461bcd60e51b815260206004820152602c60248201527f4d75737420686176652070617573657220726f6c6520746f20706572666f726d60448201526b103a3434b99030b1ba34b7b760a11b60648201526084016109ea565b61234a614969565b600054610100900460ff16612ee45760405162461bcd60e51b815260206004820152602b60248201527f496e697469616c697a61626c653a20636f6e7472616374206973206e6f74206960448201526a6e697469616c697a696e6760a81b60648201526084016109ea565b6001600160a01b038116612f3a5760405162461bcd60e51b815260206004820181905260248201527f4f776e65722063616e6e6f7420626520746865207a65726f206164647265737360448201526064016109ea565b612f426149a6565b612f4a6148f2565b612f52614a11565b612f7c7fa49807205ce4d355092ef5a8a18f56e8913cf4a201fbe287825b095693c2177582614a83565b612fa67f65d7a28e3265b37a6474929f336521b332c1681b933f6cb9f3376673440d862a82614a83565b612ff07f65d7a28e3265b37a6474929f336521b332c1681b933f6cb9f3376673440d862a7fa49807205ce4d355092ef5a8a18f56e8913cf4a201fbe287825b095693c21775614a8d565b6124697fa49807205ce4d355092ef5a8a18f56e8913cf4a201fbe287825b095693c2177580614a8d565b60006130467fa49807205ce4d355092ef5a8a18f56e8913cf4a201fbe287825b095693c2177533610747565b905090565b600054610100900460ff161580801561306b5750600054600160ff909116105b806130855750303b158015613085575060005460ff166001145b6130f75760405162461bcd60e51b815260206004820152602e60248201527f496e697469616c697a61626c653a20636f6e747261637420697320616c72656160448201527f647920696e697469616c697a656400000000000000000000000000000000000060648201526084016109ea565b6000805460ff19166001179055801561311a576000805461ff0019166101001790555b6001600160a01b0388166131705760405162461bcd60e51b815260206004820152601660248201527f496e76616c696420636f6e66696720616464726573730000000000000000000060448201526064016109ea565b60fb80546001600160a01b0319166001600160a01b038a1690811790915560009061319a90614ad8565b90506001600160a01b0381166131f25760405162461bcd60e51b815260206004820152600d60248201527f496e76616c6964204f776e65720000000000000000000000000000000000000060448201526064016109ea565b60fb54613207906001600160a01b0316614706565b60fc80546001600160a01b0319166001600160a01b0392831617905560fb546132309116614aef565b60fd80546001600160a01b0319166001600160a01b039290921691909117905561325981612e79565b60fb5461326e906001600160a01b0316614b07565b60fe80546001600160a01b0319166001600160a01b0392831617905560fb546132979116614b1f565b60ff80546001600160a01b0319166001600160a01b03929092169190911790556133017fa794a061bac4a541306b6778cc120a221216f325de0020c39b67101d49158ca27fa49807205ce4d355092ef5a8a18f56e8913cf4a201fbe287825b095693c21775614a8d565b60fb54613341907fa794a061bac4a541306b6778cc120a221216f325de0020c39b67101d49158ca29061333c906001600160a01b03166146ee565b614a83565b61338b7f2344277e405079ec07749d374ba0b5862a4e45a6a05ac889dbb4a991c6f9354d7fa49807205ce4d355092ef5a8a18f56e8913cf4a201fbe287825b095693c21775614a8d565b6133d57ffa4b6f760d780a02797df53a6c2ccf476001dc02ee4f9b6b1426dafc21ff6baf7fa49807205ce4d355092ef5a8a18f56e8913cf4a201fbe287825b095693c21775614a8d565b6133ff7ffa4b6f760d780a02797df53a6c2ccf476001dc02ee4f9b6b1426dafc21ff6baf82614a83565b60fc546040517f728c3ea2000000000000000000000000000000000000000000000000000000008152600481018a90526000916001600160a01b03169063728c3ea29060240160206040518083038186803b15801561345d57600080fd5b505afa158015613471573d6000803e3d6000fd5b505050506040513d601f19601f82011682018060405250810190613495919061510a565b90506134c17f2344277e405079ec07749d374ba0b5862a4e45a6a05ac889dbb4a991c6f9354d82614a83565b610100899055610102889055610103879055610104869055610105859055600161010855610101805460ff191660ff861617905560fb546040517fe4a3d784000000000000000000000000000000000000000000000000000000008152600481018b90526001600160a01b039091169063e4a3d7849060240160206040518083038186803b15801561355257600080fd5b505afa158015613566573d6000803e3d6000fd5b505050506040513d601f19601f8201168201806040525081019061358a9190615126565b61360e57610118805460ff1916600117905560fb546000906135cd906135b8906001600160a01b0316614545565b6135c39060016153e2565b6101025490614521565b60fb549091506135f0906135e9906001600160a01b0316614545565b829061452d565b610116819055610102546136049190615439565b61011d5550613625565b61011f805460ff1916600117905561010254610116555b60006101035462015180613639919061541a565b905061364581426153e2565b6101205561010354610104546000916136669161016d91610b1e919061452d565b9050600061369661368c620f4240610b1e613682866064614521565b610102549061452d565b6101025490614539565b90506136bb6136b4610105546101035461452190919063ffffffff16565b8290614521565b61010a5560fb546136dc9061016d90610b1e906001600160a01b0316614b37565b61010c8190555061370d620f4240610b556135c3620f4240610b55610105546101035461452190919063ffffffff16565b61010b55610105546101035461372291614521565b6101095561372e6139dc565b61010f5561010e5561373e610c1a565b610111556101105560fe546040517f095ea7b300000000000000000000000000000000000000000000000000000000815230600482015260001960248201526000916001600160a01b03169063095ea7b390604401602060405180830381600087803b1580156137ad57600080fd5b505af11580156137c1573d6000803e3d6000fd5b505050506040513d601f19601f820116820180604052508101906137e59190615126565b9050806138345760405162461bcd60e51b815260206004820152601660248201527f4661696c656420746f20617070726f766520555344430000000000000000000060448201526064016109ea565b5050505050508015613880576000805461ff0019169055604051600181527f7f26b83ff96e1f2b6a682f133852f6798a09c465da95921460cefb38474024989060200160405180910390a15b5050505050505050565b3360009081527f0cc05db404293ecdddd3d47ddbcbafd5d44e2adcb65cd3b9fb9fd65c065747be602052604090205460ff1661391f5760405162461bcd60e51b815260206004820152602e60248201527f4d757374206861766520626f72726f77657220726f6c6520746f20706572666f60448201526d3936903a3434b99030b1ba34b7b760911b60648201526084016109ea565b600160ff821611156139735760405162461bcd60e51b815260206004820152601860248201527f537562706f6f6c4944203a206f7574206f662072616e6765000000000000000060448201526064016109ea565b60ff81166001141561398d57610118805460ff1916905550565b60ff81166124695761011f805460ff1916905550565b6000828152606560205260409020600101546139be8161471e565b611c1083836147ca565b61011b5461011a54600091613046916153e2565b60fb546000908190620f4240908290613a40908390610b1e90613a3190613a0b906001600160a01b0316614b4f565b60fb54613a2b90613a24906001600160a01b03166145c6565b889061450e565b9061450e565b61010454610b55906064614521565b60fb54909150600090613aa590620f424090610b1e90613a3190613a8590613a70906001600160a01b0316614545565b60fb54610b55906001600160a01b0316614b4f565b60fb5461102490613a9e906001600160a01b03166145c6565b899061450e565b91959194509092505050565b60fc54610100546040517ff00474a600000000000000000000000000000000000000000000000000000000815260048101919091526060916001600160a01b03169063f00474a69060240160006040518083038186803b158015613b1457600080fd5b505afa158015613b28573d6000803e3d6000fd5b505050506040513d6000823e601f3d908101601f191682016040526130469190810190615219565b600061010954610108541115613ba85760405162461bcd60e51b815260206004820152601960248201527f52657061796d656e742050726f6365737320697320646f6e650000000000000060448201526064016109ea565b6000610990613bcc6101055462015180613bc2919061541a565b610108549061452d565b6101075490614539565b600260c9541415613c295760405162461bcd60e51b815260206004820152601f60248201527f5265656e7472616e637947756172643a207265656e7472616e742063616c6c0060448201526064016109ea565b600260c955613c3661484d565b3360009081527f3a5c5fdc6d68aca0335558f1dead9769256edaf7721e28efaba2044a61fcc1c2602052604090205460ff16613ccb5760405162461bcd60e51b815260206004820152602e60248201527f4d757374206861766520626f72726f77657220726f6c6520746f20706572666f60448201526d3936903a3434b99030b1ba34b7b760911b60648201526084016109ea565b60fc5461010054604051630231155f60e51b81526001600160a01b0390921691634622abe091613d019160040190815260200190565b60206040518083038186803b158015613d1957600080fd5b505afa158015613d2d573d6000803e3d6000fd5b505050506040513d601f19601f82011682018060405250810190613d519190615126565b15613dc45760405162461bcd60e51b815260206004820152602a60248201527f46756e647320696e206f70706f7274756e6974792061726520616c726561647960448201527f2064726177646f776e2e0000000000000000000000000000000000000000000060648201526084016109ea565b6101125460ff1615613e185760405162461bcd60e51b815260206004820152601260248201527f44726177646f776e20697320706175736564000000000000000000000000000060448201526064016109ea565b610102546101065414613eb95760405162461bcd60e51b815260206004820152604760248201527f546f74616c204465706f736974656420616d6f756e7420696e206f70706f727460448201527f756e69747920706f6f6c206d75737420626520657175616c20746f206c6f616e60648201527f20616d6f756e7400000000000000000000000000000000000000000000000000608482015260a4016109ea565b610106805460009182905561011e82905561011791909155426101075560fc54610100546040517faf7ea9440000000000000000000000000000000000000000000000000000000081526001600160a01b039092169163af7ea94491613f259160040190815260200190565b600060405180830381600087803b158015613f3f57600080fd5b505af1158015613f53573d6000803e3d6000fd5b505060fe54613f7092506001600160a01b031690503033846145de565b50600160c955565b600260c9541415613fcb5760405162461bcd60e51b815260206004820152601f60248201527f5265656e7472616e637947756172643a207265656e7472616e742063616c6c0060448201526064016109ea565b600260c955600160ff831611156140245760405162461bcd60e51b815260206004820152601860248201527f537562706f6f6c4944203a206f7574206f662072616e6765000000000000000060448201526064016109ea565b600081116140745760405162461bcd60e51b815260206004820181905260248201527f416d6f756e74204d7573742062652067726561746572207468616e207a65726f60448201526064016109ea565b60ff82166001141561422c576101185460ff16156140d45760405162461bcd60e51b815260206004820152601860248201527f53656e696f7220537562706f6f6c206973206c6f636b6564000000000000000060448201526064016109ea565b3360009081527f2892c78fbc31f59255f157a1512973f37f8ab9b97be744fa9c97d26a902864ae602052604090205460ff166141865760405162461bcd60e51b8152602060048201526044602482018190527f596f75206d75737420686176652053656e696f7220706f6f6c20726f6c652069908201527f6e206f7264657220746f206465706f73697420696e2073656e696f72207375626064820152631c1bdbdb60e21b608482015260a4016109ea565b61011754600090614198908390614539565b610116549091508111156142145760405162461bcd60e51b815260206004820152603860248201527f416d6f756e7420657863656564732074686520546f74616c206465706f73697460448201527f206c696d6974206f662073656e696f7220737562706f6f6c000000000000000060648201526084016109ea565b610117546142229083614539565b61011755506144ad565b60ff82166144ad5761011f5460ff16156142885760405162461bcd60e51b815260206004820152601860248201527f4a756e696f7220537562706f6f6c206973206c6f636b6564000000000000000060448201526064016109ea565b61011e5460009061429a908390614539565b61011d549091508111156143165760405162461bcd60e51b815260206004820152603860248201527f416d6f756e7420657863656564732074686520546f74616c206465706f73697460448201527f206c696d6974206f66206a756e696f7220737562706f6f6c000000000000000060648201526084016109ea565b61011e546143249083614539565b61011e5533600090815261011360205260409020546143439083614539565b33600081815261011360209081526040808320949094556101149052829020805460ff1916600117905560fd546101005492517fe954539d000000000000000000000000000000000000000000000000000000008152600481019290925260248201929092526001600160a01b039091169063e954539d9060440160206040518083038186803b1580156143d657600080fd5b505afa1580156143ea573d6000803e3d6000fd5b505050506040513d601f19601f8201168201806040525081019061440e9190615126565b6144955760fd54610100546040517fa68a132200000000000000000000000000000000000000000000000000000000815233600482015260248101919091526001600160a01b039091169063a68a132290604401600060405180830381600087803b15801561447c57600080fd5b505af1158015614490573d6000803e3d6000fd5b505050505b61011d5481106144ab57610118805460ff191690555b505b610106546144bb9082614539565b6101065560fe546144d7906001600160a01b03163330846145de565b60405181815260ff83169033907f1d0787aee899a49ef81d0b11da9aca5455b46aefed042a41bd398d74619cab00906020016122a6565b600061451a8284615439565b9392505050565b600061451a82846153fa565b600061451a828461541a565b600061451a82846153e2565b60006001600160a01b03821663fc563658825b6040518263ffffffff1660e01b815260040161457691815260200190565b60206040518083038186803b15801561458e57600080fd5b505afa1580156145a2573d6000803e3d6000fd5b505050506040513d601f19601f8201168201806040525081019061099091906152b7565b60006001600160a01b03821663fc5636586001614558565b604080516001600160a01b0385811660248301528416604482015260648082018490528251808303909101815260849091019091526020810180517bffffffffffffffffffffffffffffffffffffffffffffffffffffffff167f23b872dd00000000000000000000000000000000000000000000000000000000179052614666908590614b67565b50505050565b60006001600160a01b03821663b93f9b0a60085b6040518263ffffffff1660e01b815260040161469e91815260200190565b60206040518083038186803b1580156146b657600080fd5b505afa1580156146ca573d6000803e3d6000fd5b505050506040513d601f19601f82011682018060405250810190610990919061510a565b60006001600160a01b03821663b93f9b0a6003614680565b60006001600160a01b03821663b93f9b0a6006614680565b6124698133614c4c565b60008281526065602090815260408083206001600160a01b038516845290915290205460ff16611d125760008281526065602090815260408083206001600160a01b03851684529091529020805460ff191660011790556147863390565b6001600160a01b0316816001600160a01b0316837f2f8788117e7eff1d82e926ec794901d17c78024a50270940304540a733656f0d60405160405180910390a45050565b60008281526065602090815260408083206001600160a01b038516845290915290205460ff1615611d125760008281526065602090815260408083206001600160a01b0385168085529252808320805460ff1916905551339285917ff6391f5c32d9c69d2a47ea670b442974b53935d1edc7fd64eb21e047a839171b9190a45050565b60975460ff161561234a5760405162461bcd60e51b815260206004820152601060248201527f5061757361626c653a207061757365640000000000000000000000000000000060448201526064016109ea565b6148a8614ccc565b6097805460ff191690557f5db9ee0a495bf2e6ff9c91a7834c1ba4fdd244a5e8aa4e537bd38aeae4b073aa335b6040516001600160a01b03909116815260200160405180910390a1565b600054610100900460ff1661495d5760405162461bcd60e51b815260206004820152602b60248201527f496e697469616c697a61626c653a20636f6e7472616374206973206e6f74206960448201526a6e697469616c697a696e6760a81b60648201526084016109ea565b6097805460ff19169055565b61497161484d565b6097805460ff191660011790557f62e78cea01bee320cd4e420270b5ea74000d11b0c9f74754ebdbfc544b05a2586148d53390565b600054610100900460ff1661234a5760405162461bcd60e51b815260206004820152602b60248201527f496e697469616c697a61626c653a20636f6e7472616374206973206e6f74206960448201526a6e697469616c697a696e6760a81b60648201526084016109ea565b600054610100900460ff16614a7c5760405162461bcd60e51b815260206004820152602b60248201527f496e697469616c697a61626c653a20636f6e7472616374206973206e6f74206960448201526a6e697469616c697a696e6760a81b60648201526084016109ea565b600160c955565b611d128282614728565b600082815260656020526040808220600101805490849055905190918391839186917fbd79b86ffe0ab8e8776151514217cd7cacd52c909f66475c3af44e129f0b00ff9190a4505050565b60006001600160a01b03821663b93f9b0a82614680565b60006001600160a01b03821663b93f9b0a6007614680565b60006001600160a01b03821663b93f9b0a6002614680565b60006001600160a01b03821663b93f9b0a6001614680565b60006001600160a01b03821663fc5636586002614558565b60006001600160a01b03821663fc5636586003614558565b6000614bbc826040518060400160405280602081526020017f5361666545524332303a206c6f772d6c6576656c2063616c6c206661696c6564815250856001600160a01b0316614d1e9092919063ffffffff16565b805190915015611c105780806020019051810190614bda9190615126565b611c105760405162461bcd60e51b815260206004820152602a60248201527f5361666545524332303a204552433230206f7065726174696f6e20646964206e60448201527f6f7420737563636565640000000000000000000000000000000000000000000060648201526084016109ea565b60008281526065602090815260408083206001600160a01b038516845290915290205460ff16611d1257614c8a816001600160a01b03166014614d35565b614c95836020614d35565b604051602001614ca692919061532e565b60408051601f198184030181529082905262461bcd60e51b82526109ea916004016153af565b60975460ff1661234a5760405162461bcd60e51b815260206004820152601460248201527f5061757361626c653a206e6f742070617573656400000000000000000000000060448201526064016109ea565b6060614d2d8484600085614f5c565b949350505050565b60606000614d4483600261541a565b614d4f9060026153e2565b67ffffffffffffffff811115614d7557634e487b7160e01b600052604160045260246000fd5b6040519080825280601f01601f191660200182016040528015614d9f576020820181803683370190505b5090507f300000000000000000000000000000000000000000000000000000000000000081600081518110614de457634e487b7160e01b600052603260045260246000fd5b60200101906001600160f81b031916908160001a9053507f780000000000000000000000000000000000000000000000000000000000000081600181518110614e3d57634e487b7160e01b600052603260045260246000fd5b60200101906001600160f81b031916908160001a9053506000614e6184600261541a565b614e6c9060016153e2565b90505b6001811115614f0d577f303132333435363738396162636465660000000000000000000000000000000085600f1660108110614ebb57634e487b7160e01b600052603260045260246000fd5b1a60f81b828281518110614edf57634e487b7160e01b600052603260045260246000fd5b60200101906001600160f81b031916908160001a90535060049490941c93614f068161547c565b9050614e6f565b50831561451a5760405162461bcd60e51b815260206004820181905260248201527f537472696e67733a20686578206c656e67746820696e73756666696369656e7460448201526064016109ea565b606082471015614fd45760405162461bcd60e51b815260206004820152602660248201527f416464726573733a20696e73756666696369656e742062616c616e636520666f60448201527f722063616c6c000000000000000000000000000000000000000000000000000060648201526084016109ea565b6001600160a01b0385163b61502b5760405162461bcd60e51b815260206004820152601d60248201527f416464726573733a2063616c6c20746f206e6f6e2d636f6e747261637400000060448201526064016109ea565b600080866001600160a01b031685876040516150479190615312565b60006040518083038185875af1925050503d8060008114615084576040519150601f19603f3d011682016040523d82523d6000602084013e615089565b606091505b50915091506150998282866150a4565b979650505050505050565b606083156150b357508161451a565b8251156150c35782518084602001fd5b8160405162461bcd60e51b81526004016109ea91906153af565b803560ff81168114610c1557600080fd5b6000602082840312156150ff578081fd5b813561451a816154bf565b60006020828403121561511b578081fd5b815161451a816154bf565b600060208284031215615137578081fd5b8151801515811461451a578182fd5b600060208284031215615157578081fd5b5035919050565b60008060408385031215615170578081fd5b823591506020830135615182816154bf565b809150509250929050565b60006020828403121561519e578081fd5b81356001600160e01b03198116811461451a578182fd5b600080600080600080600060e0888a0312156151cf578283fd5b87356151da816154bf565b96506020880135955060408801359450606088013593506080880135925060a0880135915061520b60c089016150dd565b905092959891949750929550565b60006020828403121561522a578081fd5b815167ffffffffffffffff80821115615241578283fd5b818401915084601f830112615254578283fd5b815181811115615266576152666154a9565b604051601f8201601f19908116603f0116810190838211818310171561528e5761528e6154a9565b816040528281528760208487010111156152a6578586fd5b615099836020830160208801615450565b6000602082840312156152c8578081fd5b5051919050565b6000602082840312156152e0578081fd5b61451a826150dd565b600080604083850312156152fb578182fd5b615304836150dd565b946020939093013593505050565b60008251615324818460208701615450565b9190910192915050565b7f416363657373436f6e74726f6c3a206163636f756e7420000000000000000000815260008351615366816017850160208801615450565b7f206973206d697373696e6720726f6c652000000000000000000000000000000060179184019182015283516153a3816028840160208801615450565b01602801949350505050565b60208152600082518060208401526153ce816040850160208701615450565b601f01601f19169190910160400192915050565b600082198211156153f5576153f5615493565b500190565b60008261541557634e487b7160e01b81526012600452602481fd5b500490565b600081600019048311821515161561543457615434615493565b500290565b60008282101561544b5761544b615493565b500390565b60005b8381101561546b578181015183820152602001615453565b838111156146665750506000910152565b60008161548b5761548b615493565b506000190190565b634e487b7160e01b600052601160045260246000fd5b634e487b7160e01b600052604160045260246000fd5b6001600160a01b038116811461246957600080fdfea264697066735822122040c23e94eb4b9ce8c5fe38524c427882fbf0b9eac5bc44eb9732c9971955a41964736f6c63430008040033",
  "linkReferences": {},
  "deployedLinkReferences": {}
}