{
  "_format": "hh-sol-artifact-1",
  "contractName": "OpportunityPool",
  "sourceName": "contracts/protocol/OpportunityPool.sol",
  "abi": [
    {
      "anonymous": false,
      "inputs": [
        {
          "indexed": true,
          "internalType": "address",
          "name": "executor",
          "type": "address"
        },
        {
          "indexed": true,
          "internalType": "uint8",
          "name": "subpool",
          "type": "uint8"
        },
        {
          "indexed": false,
          "internalType": "uint256",
          "name": "amount",
          "type": "uint256"
        }
      ],
      "name": "Deposited",
      "type": "event"
    },
    {
      "anonymous": false,
      "inputs": [
        {
          "indexed": false,
          "internalType": "uint8",
          "name": "version",
          "type": "uint8"
        }
      ],
      "name": "Initialized",
      "type": "event"
    },
    {
      "anonymous": false,
      "inputs": [
        {
          "indexed": false,
          "internalType": "address",
          "name": "account",
          "type": "address"
        }
      ],
      "name": "Paused",
      "type": "event"
    },
    {
      "anonymous": false,
      "inputs": [
        {
          "indexed": true,
          "internalType": "bytes32",
          "name": "role",
          "type": "bytes32"
        },
        {
          "indexed": true,
          "internalType": "bytes32",
          "name": "previousAdminRole",
          "type": "bytes32"
        },
        {
          "indexed": true,
          "internalType": "bytes32",
          "name": "newAdminRole",
          "type": "bytes32"
        }
      ],
      "name": "RoleAdminChanged",
      "type": "event"
    },
    {
      "anonymous": false,
      "inputs": [
        {
          "indexed": true,
          "internalType": "bytes32",
          "name": "role",
          "type": "bytes32"
        },
        {
          "indexed": true,
          "internalType": "address",
          "name": "account",
          "type": "address"
        },
        {
          "indexed": true,
          "internalType": "address",
          "name": "sender",
          "type": "address"
        }
      ],
      "name": "RoleGranted",
      "type": "event"
    },
    {
      "anonymous": false,
      "inputs": [
        {
          "indexed": true,
          "internalType": "bytes32",
          "name": "role",
          "type": "bytes32"
        },
        {
          "indexed": true,
          "internalType": "address",
          "name": "account",
          "type": "address"
        },
        {
          "indexed": true,
          "internalType": "address",
          "name": "sender",
          "type": "address"
        }
      ],
      "name": "RoleRevoked",
      "type": "event"
    },
    {
      "anonymous": false,
      "inputs": [
        {
          "indexed": false,
          "internalType": "address",
          "name": "account",
          "type": "address"
        }
      ],
      "name": "Unpaused",
      "type": "event"
    },
    {
      "anonymous": false,
      "inputs": [
        {
          "indexed": true,
          "internalType": "address",
          "name": "executor",
          "type": "address"
        },
        {
          "indexed": true,
          "internalType": "uint8",
          "name": "subpool",
          "type": "uint8"
        },
        {
          "indexed": false,
          "internalType": "uint256",
          "name": "amount",
          "type": "uint256"
        }
      ],
      "name": "Withdrew",
      "type": "event"
    },
    {
      "inputs": [],
      "name": "ADMIN_ROLE",
      "outputs": [
        {
          "internalType": "bytes32",
          "name": "",
          "type": "bytes32"
        }
      ],
      "stateMutability": "view",
      "type": "function"
    },
    {
      "inputs": [],
      "name": "BORROWER_ROLE",
      "outputs": [
        {
          "internalType": "bytes32",
          "name": "",
          "type": "bytes32"
        }
      ],
      "stateMutability": "view",
      "type": "function"
    },
    {
      "inputs": [],
      "name": "DEFAULT_ADMIN_ROLE",
      "outputs": [
        {
          "internalType": "bytes32",
          "name": "",
          "type": "bytes32"
        }
      ],
      "stateMutability": "view",
      "type": "function"
    },
    {
      "inputs": [],
      "name": "PAUSER_ROLE",
      "outputs": [
        {
          "internalType": "bytes32",
          "name": "",
          "type": "bytes32"
        }
      ],
      "stateMutability": "view",
      "type": "function"
    },
    {
      "inputs": [],
      "name": "POOL_LOCKER_ROLE",
      "outputs": [
        {
          "internalType": "bytes32",
          "name": "",
          "type": "bytes32"
        }
      ],
      "stateMutability": "view",
      "type": "function"
    },
    {
      "inputs": [],
      "name": "SENIOR_POOL_ROLE",
      "outputs": [
        {
          "internalType": "bytes32",
          "name": "",
          "type": "bytes32"
        }
      ],
      "stateMutability": "view",
      "type": "function"
    },
    {
      "inputs": [
        {
          "internalType": "address",
          "name": "owner",
          "type": "address"
        }
      ],
      "name": "_BaseUpgradeablePausable_init",
      "outputs": [],
      "stateMutability": "nonpayable",
      "type": "function"
    },
    {
      "inputs": [],
      "name": "__PauserPausable__init",
      "outputs": [],
      "stateMutability": "nonpayable",
      "type": "function"
    },
    {
      "inputs": [],
      "name": "amountWithoutEMI",
      "outputs": [
        {
          "internalType": "uint256",
          "name": "",
          "type": "uint256"
        }
      ],
      "stateMutability": "view",
      "type": "function"
    },
    {
      "inputs": [],
      "name": "dailyInterestRate",
      "outputs": [
        {
          "internalType": "uint256",
          "name": "",
          "type": "uint256"
        }
      ],
      "stateMutability": "view",
      "type": "function"
    },
    {
      "inputs": [
        {
          "internalType": "uint8",
          "name": "_subpoolId",
          "type": "uint8"
        },
        {
          "internalType": "uint256",
          "name": "amount",
          "type": "uint256"
        }
      ],
      "name": "deposit",
      "outputs": [],
      "stateMutability": "nonpayable",
      "type": "function"
    },
    {
      "inputs": [],
      "name": "drawdown",
      "outputs": [],
      "stateMutability": "nonpayable",
      "type": "function"
    },
    {
      "inputs": [],
      "name": "dygnifyConfig",
      "outputs": [
        {
          "internalType": "contract DygnifyConfig",
          "name": "",
          "type": "address"
        }
      ],
      "stateMutability": "view",
      "type": "function"
    },
    {
      "inputs": [],
      "name": "emiAmount",
      "outputs": [
        {
          "internalType": "uint256",
          "name": "",
          "type": "uint256"
        }
      ],
      "stateMutability": "view",
      "type": "function"
    },
    {
      "inputs": [],
      "name": "getOpportunityName",
      "outputs": [
        {
          "internalType": "string",
          "name": "",
          "type": "string"
        }
      ],
      "stateMutability": "view",
      "type": "function"
    },
    {
      "inputs": [],
      "name": "getOverDuePercentage",
      "outputs": [
        {
          "internalType": "uint256",
          "name": "",
          "type": "uint256"
        },
        {
          "internalType": "uint256",
          "name": "",
          "type": "uint256"
        }
      ],
      "stateMutability": "view",
      "type": "function"
    },
    {
      "inputs": [],
      "name": "getRepaymentAmount",
      "outputs": [
        {
          "internalType": "uint256",
          "name": "",
          "type": "uint256"
        }
      ],
      "stateMutability": "view",
      "type": "function"
    },
    {
      "inputs": [
        {
          "internalType": "bytes32",
          "name": "role",
          "type": "bytes32"
        }
      ],
      "name": "getRoleAdmin",
      "outputs": [
        {
          "internalType": "bytes32",
          "name": "",
          "type": "bytes32"
        }
      ],
      "stateMutability": "view",
      "type": "function"
    },
    {
      "inputs": [],
      "name": "getSeniorProfit",
      "outputs": [
        {
          "internalType": "uint256",
          "name": "",
          "type": "uint256"
        }
      ],
      "stateMutability": "view",
      "type": "function"
    },
    {
      "inputs": [],
      "name": "getSeniorTotalDepositable",
      "outputs": [
        {
          "internalType": "uint256",
          "name": "",
          "type": "uint256"
        }
      ],
      "stateMutability": "view",
      "type": "function"
    },
    {
      "inputs": [],
      "name": "getUserWithdrawableAmount",
      "outputs": [
        {
          "internalType": "uint256",
          "name": "",
          "type": "uint256"
        }
      ],
      "stateMutability": "view",
      "type": "function"
    },
    {
      "inputs": [],
      "name": "getYieldPercentage",
      "outputs": [
        {
          "internalType": "uint256",
          "name": "",
          "type": "uint256"
        },
        {
          "internalType": "uint256",
          "name": "",
          "type": "uint256"
        }
      ],
      "stateMutability": "view",
      "type": "function"
    },
    {
      "inputs": [
        {
          "internalType": "bytes32",
          "name": "role",
          "type": "bytes32"
        },
        {
          "internalType": "address",
          "name": "account",
          "type": "address"
        }
      ],
      "name": "grantRole",
      "outputs": [],
      "stateMutability": "nonpayable",
      "type": "function"
    },
    {
      "inputs": [
        {
          "internalType": "bytes32",
          "name": "role",
          "type": "bytes32"
        },
        {
          "internalType": "address",
          "name": "account",
          "type": "address"
        }
      ],
      "name": "hasRole",
      "outputs": [
        {
          "internalType": "bool",
          "name": "",
          "type": "bool"
        }
      ],
      "stateMutability": "view",
      "type": "function"
    },
    {
      "inputs": [
        {
          "internalType": "contract DygnifyConfig",
          "name": "_dygnifyConfig",
          "type": "address"
        },
        {
          "internalType": "bytes32",
          "name": "_opportunityID",
          "type": "bytes32"
        },
        {
          "internalType": "uint256",
          "name": "_loanAmount",
          "type": "uint256"
        },
        {
          "internalType": "uint256",
          "name": "_loanTenureInDays",
          "type": "uint256"
        },
        {
          "internalType": "uint256",
          "name": "_loanInterest",
          "type": "uint256"
        },
        {
          "internalType": "uint256",
          "name": "_paymentFrequencyInDays",
          "type": "uint256"
        },
        {
          "internalType": "uint8",
          "name": "_loanType",
          "type": "uint8"
        }
      ],
      "name": "initialize",
      "outputs": [],
      "stateMutability": "nonpayable",
      "type": "function"
    },
    {
      "inputs": [],
      "name": "investor",
      "outputs": [
        {
          "internalType": "contract Investor",
          "name": "",
          "type": "address"
        }
      ],
      "stateMutability": "view",
      "type": "function"
    },
    {
      "inputs": [],
      "name": "isAdmin",
      "outputs": [
        {
          "internalType": "bool",
          "name": "",
          "type": "bool"
        }
      ],
      "stateMutability": "view",
      "type": "function"
    },
    {
      "inputs": [],
      "name": "isDrawdownsPaused",
      "outputs": [
        {
          "internalType": "bool",
          "name": "",
          "type": "bool"
        }
      ],
      "stateMutability": "view",
      "type": "function"
    },
    {
      "inputs": [
        {
          "internalType": "address",
          "name": "",
          "type": "address"
        }
      ],
      "name": "isStaking",
      "outputs": [
        {
          "internalType": "bool",
          "name": "",
          "type": "bool"
        }
      ],
      "stateMutability": "view",
      "type": "function"
    },
    {
      "inputs": [],
      "name": "juniorOverduePerecentage",
      "outputs": [
        {
          "internalType": "uint256",
          "name": "",
          "type": "uint256"
        }
      ],
      "stateMutability": "view",
      "type": "function"
    },
    {
      "inputs": [],
      "name": "juniorSubpoolDetails",
      "outputs": [
        {
          "internalType": "uint256",
          "name": "id",
          "type": "uint256"
        },
        {
          "internalType": "uint256",
          "name": "totalDepositable",
          "type": "uint256"
        },
        {
          "internalType": "uint256",
          "name": "depositedAmount",
          "type": "uint256"
        },
        {
          "internalType": "bool",
          "name": "isPoolLocked",
          "type": "bool"
        },
        {
          "internalType": "uint256",
          "name": "fundsLockedUntil",
          "type": "uint256"
        },
        {
          "internalType": "uint256",
          "name": "yieldGenerated",
          "type": "uint256"
        },
        {
          "internalType": "uint256",
          "name": "overdueGenerated",
          "type": "uint256"
        }
      ],
      "stateMutability": "view",
      "type": "function"
    },
    {
      "inputs": [],
      "name": "juniorYieldPerecentage",
      "outputs": [
        {
          "internalType": "uint256",
          "name": "",
          "type": "uint256"
        }
      ],
      "stateMutability": "view",
      "type": "function"
    },
    {
      "inputs": [],
      "name": "loanAmount",
      "outputs": [
        {
          "internalType": "uint256",
          "name": "",
          "type": "uint256"
        }
      ],
      "stateMutability": "view",
      "type": "function"
    },
    {
      "inputs": [],
      "name": "loanInterest",
      "outputs": [
        {
          "internalType": "uint256",
          "name": "",
          "type": "uint256"
        }
      ],
      "stateMutability": "view",
      "type": "function"
    },
    {
      "inputs": [],
      "name": "loanTenureInDays",
      "outputs": [
        {
          "internalType": "uint256",
          "name": "",
          "type": "uint256"
        }
      ],
      "stateMutability": "view",
      "type": "function"
    },
    {
      "inputs": [],
      "name": "loanType",
      "outputs": [
        {
          "internalType": "uint8",
          "name": "",
          "type": "uint8"
        }
      ],
      "stateMutability": "view",
      "type": "function"
    },
    {
      "inputs": [
        {
          "internalType": "uint8",
          "name": "_subpoolId",
          "type": "uint8"
        }
      ],
      "name": "lockPool",
      "outputs": [],
      "stateMutability": "nonpayable",
      "type": "function"
    },
    {
      "inputs": [],
      "name": "lpToken",
      "outputs": [
        {
          "internalType": "contract LPToken",
          "name": "",
          "type": "address"
        }
      ],
      "stateMutability": "view",
      "type": "function"
    },
    {
      "inputs": [],
      "name": "nextRepaymentTime",
      "outputs": [
        {
          "internalType": "uint256",
          "name": "",
          "type": "uint256"
        }
      ],
      "stateMutability": "view",
      "type": "function"
    },
    {
      "inputs": [],
      "name": "oneYearInDays",
      "outputs": [
        {
          "internalType": "uint256",
          "name": "",
          "type": "uint256"
        }
      ],
      "stateMutability": "view",
      "type": "function"
    },
    {
      "inputs": [],
      "name": "opportunityID",
      "outputs": [
        {
          "internalType": "bytes32",
          "name": "",
          "type": "bytes32"
        }
      ],
      "stateMutability": "view",
      "type": "function"
    },
    {
      "inputs": [],
      "name": "opportunityOrigination",
      "outputs": [
        {
          "internalType": "contract OpportunityOrigination",
          "name": "",
          "type": "address"
        }
      ],
      "stateMutability": "view",
      "type": "function"
    },
    {
      "inputs": [],
      "name": "pause",
      "outputs": [],
      "stateMutability": "nonpayable",
      "type": "function"
    },
    {
      "inputs": [],
      "name": "pauseDrawdown",
      "outputs": [],
      "stateMutability": "nonpayable",
      "type": "function"
    },
    {
      "inputs": [],
      "name": "paused",
      "outputs": [
        {
          "internalType": "bool",
          "name": "",
          "type": "bool"
        }
      ],
      "stateMutability": "view",
      "type": "function"
    },
    {
      "inputs": [],
      "name": "paymentFrequencyInDays",
      "outputs": [
        {
          "internalType": "uint256",
          "name": "",
          "type": "uint256"
        }
      ],
      "stateMutability": "view",
      "type": "function"
    },
    {
      "inputs": [],
      "name": "poolBalance",
      "outputs": [
        {
          "internalType": "uint256",
          "name": "",
          "type": "uint256"
        }
      ],
      "stateMutability": "view",
      "type": "function"
    },
    {
      "inputs": [
        {
          "internalType": "bytes32",
          "name": "role",
          "type": "bytes32"
        },
        {
          "internalType": "address",
          "name": "account",
          "type": "address"
        }
      ],
      "name": "renounceRole",
      "outputs": [],
      "stateMutability": "nonpayable",
      "type": "function"
    },
    {
      "inputs": [],
      "name": "repayment",
      "outputs": [],
      "stateMutability": "nonpayable",
      "type": "function"
    },
    {
      "inputs": [],
      "name": "repaymentCounter",
      "outputs": [
        {
          "internalType": "uint256",
          "name": "",
          "type": "uint256"
        }
      ],
      "stateMutability": "view",
      "type": "function"
    },
    {
      "inputs": [],
      "name": "repaymentStartTime",
      "outputs": [
        {
          "internalType": "uint256",
          "name": "",
          "type": "uint256"
        }
      ],
      "stateMutability": "view",
      "type": "function"
    },
    {
      "inputs": [
        {
          "internalType": "bytes32",
          "name": "role",
          "type": "bytes32"
        },
        {
          "internalType": "address",
          "name": "account",
          "type": "address"
        }
      ],
      "name": "revokeRole",
      "outputs": [],
      "stateMutability": "nonpayable",
      "type": "function"
    },
    {
      "inputs": [],
      "name": "seniorOverduePerecentage",
      "outputs": [
        {
          "internalType": "uint256",
          "name": "",
          "type": "uint256"
        }
      ],
      "stateMutability": "view",
      "type": "function"
    },
    {
      "inputs": [],
      "name": "seniorSubpoolDetails",
      "outputs": [
        {
          "internalType": "uint256",
          "name": "id",
          "type": "uint256"
        },
        {
          "internalType": "uint256",
          "name": "totalDepositable",
          "type": "uint256"
        },
        {
          "internalType": "uint256",
          "name": "depositedAmount",
          "type": "uint256"
        },
        {
          "internalType": "bool",
          "name": "isPoolLocked",
          "type": "bool"
        },
        {
          "internalType": "uint256",
          "name": "fundsLockedUntil",
          "type": "uint256"
        },
        {
          "internalType": "uint256",
          "name": "yieldGenerated",
          "type": "uint256"
        },
        {
          "internalType": "uint256",
          "name": "overdueGenerated",
          "type": "uint256"
        }
      ],
      "stateMutability": "view",
      "type": "function"
    },
    {
      "inputs": [],
      "name": "seniorYieldPerecentage",
      "outputs": [
        {
          "internalType": "uint256",
          "name": "",
          "type": "uint256"
        }
      ],
      "stateMutability": "view",
      "type": "function"
    },
    {
      "inputs": [],
      "name": "sixDecimal",
      "outputs": [
        {
          "internalType": "uint256",
          "name": "",
          "type": "uint256"
        }
      ],
      "stateMutability": "view",
      "type": "function"
    },
    {
      "inputs": [
        {
          "internalType": "address",
          "name": "",
          "type": "address"
        }
      ],
      "name": "stakingBalance",
      "outputs": [
        {
          "internalType": "uint256",
          "name": "",
          "type": "uint256"
        }
      ],
      "stateMutability": "view",
      "type": "function"
    },
    {
      "inputs": [
        {
          "internalType": "bytes4",
          "name": "interfaceId",
          "type": "bytes4"
        }
      ],
      "name": "supportsInterface",
      "outputs": [
        {
          "internalType": "bool",
          "name": "",
          "type": "bool"
        }
      ],
      "stateMutability": "view",
      "type": "function"
    },
    {
      "inputs": [],
      "name": "totalRepaidAmount",
      "outputs": [
        {
          "internalType": "uint256",
          "name": "",
          "type": "uint256"
        }
      ],
      "stateMutability": "view",
      "type": "function"
    },
    {
      "inputs": [],
      "name": "totalRepayments",
      "outputs": [
        {
          "internalType": "uint256",
          "name": "",
          "type": "uint256"
        }
      ],
      "stateMutability": "view",
      "type": "function"
    },
    {
      "inputs": [
        {
          "internalType": "uint8",
          "name": "_subpoolId",
          "type": "uint8"
        }
      ],
      "name": "unLockPool",
      "outputs": [],
      "stateMutability": "nonpayable",
      "type": "function"
    },
    {
      "inputs": [],
      "name": "unpause",
      "outputs": [],
      "stateMutability": "nonpayable",
      "type": "function"
    },
    {
      "inputs": [],
      "name": "unpauseDrawdown",
      "outputs": [],
      "stateMutability": "nonpayable",
      "type": "function"
    },
    {
      "inputs": [],
      "name": "usdcToken",
      "outputs": [
        {
          "internalType": "contract IERC20",
          "name": "",
          "type": "address"
        }
      ],
      "stateMutability": "view",
      "type": "function"
    },
    {
      "inputs": [
        {
          "internalType": "uint8",
          "name": "_subpoolId",
          "type": "uint8"
        },
        {
          "internalType": "uint256",
          "name": "amount",
          "type": "uint256"
        }
      ],
      "name": "withdraw",
      "outputs": [],
      "stateMutability": "nonpayable",
      "type": "function"
    },
    {
      "inputs": [
        {
          "internalType": "uint8",
          "name": "_subpoolId",
          "type": "uint8"
        }
      ],
      "name": "withdrawAll",
      "outputs": [
        {
          "internalType": "uint256",
          "name": "",
          "type": "uint256"
        }
      ],
      "stateMutability": "nonpayable",
      "type": "function"
    }
  ],
  "bytecode": "0x608060405234801561001057600080fd5b5061501c806100206000396000f3fe608060405234801561001057600080fd5b50600436106104065760003560e01c806375b238fc1161021a578063c4f31a6511610135578063dee05609116100c8578063e77ef21f11610097578063f4d4c9d71161007c578063f4d4c9d7146108c6578063ff3779f0146108d9578063ff3a56441461090057600080fd5b8063e77ef21f146108b4578063eedffb96146108bc57600080fd5b8063dee0560914610854578063df9fd1c11461085e578063e0fdf7c614610866578063e63ab1e91461088d57600080fd5b8063d547741f11610104578063d547741f1461081c578063d661d3201461082f578063dadfecca14610837578063ddc22b741461083f57600080fd5b8063c4f31a65146107c0578063c5e2bf1a146107d3578063c8dd7bf3146107e6578063cab9bd00146107f057600080fd5b80639d585f7f116101ad578063a5bb19b21161017c578063a5bb19b21461079b578063a7292ea4146107a4578063b6db75a0146107ae578063bbbf13ea146107b657600080fd5b80639d585f7f1461076d5780639f964fe614610777578063a12dde4d14610780578063a217fddf1461079357600080fd5b806391d14854116101e957806391d148541461071657806396365d441461074f57806399e7f250146107595780639b021fa21461076357600080fd5b806375b238fc146106d35780637fca631f146106fa5780638456cb5914610704578063891369b21461070c57600080fd5b80632588d1681161032557806346e35faa116102b85780635c975abb116102875780636a15633b1161026c5780636a15633b146106945780636f49712b146106a75780637101fd16146106cb57600080fd5b80635c975abb146106765780635fcbd2851461068157600080fd5b806346e35faa14610647578063526d81f61461065157806353654e85146106595780635b483e4c1461066c57600080fd5b806336568abe116102f457806336568abe146105f85780633f4899141461060b5780633f4ba83a1461061e57806345bc78ab1461062657600080fd5b80632588d168146105c05780632f2ff15d146105d3578063338039fb146105e657806334d93fb4146105f057600080fd5b806311eac8551161039d5780631e0018d61161036c5780631e0018d6146105765780632159e4581461058957806322eac12c14610593578063248a9ca31461059d57600080fd5b806311eac8551461052657806317cd802d146105515780631be95459146105595780631daa910e1461056c57600080fd5b806307a7c08a116103d957806307a7c08a146104ca5780630a2c1505146104e75780630b4a45fd146104f55780630e7b949e146104ff57600080fd5b806301ffc9a71461040b578063031994941461043357806304419b7614610494578063074f2543146104b4575b600080fd5b61041e610419366004614c9f565b61090a565b60405190151581526020015b60405180910390f35b61011c5461011d5461011e5461011f5461012054610121546101225461045f9695949360ff1692919087565b604080519788526020880196909652948601939093529015156060850152608084015260a083015260c082015260e00161042a565b610101546104a29060ff1681565b60405160ff909116815260200161042a565b6104bc610973565b60405190815260200161042a565b6104d2610bf7565b6040805192835260208301919091520161042a565b6101125461041e9060ff1681565b6104fd610cb2565b005b6104bc7f2344277e405079ec07749d374ba0b5862a4e45a6a05ac889dbb4a991c6f9354d81565b60fe54610539906001600160a01b031681565b6040516001600160a01b03909116815260200161042a565b6104fd610d2a565b60fb54610539906001600160a01b031681565b6104bc61010f5481565b60fd54610539906001600160a01b031681565b6104bc61010b5481565b6104bc6101095481565b6104bc6105ab366004614c58565b60009081526065602052604090206001015490565b60fc54610539906001600160a01b031681565b6104fd6105e1366004614c70565b6116f5565b6104bc620f424081565b6104fd61171f565b6104fd610606366004614c70565b611794565b6104fd610619366004614dfb565b611820565b6104fd611dc1565b6104bc610634366004614c00565b6101136020526000908152604090205481565b6104bc6101105481565b6104fd611e56565b6104bc610667366004614de1565b611f76565b6104bc61010a5481565b60975460ff1661041e565b60ff54610539906001600160a01b031681565b6104fd6106a2366004614de1565b612637565b61041e6106b5366004614c00565b6101146020526000908152604090205460ff1681565b6104bc612756565b6104bc7fa49807205ce4d355092ef5a8a18f56e8913cf4a201fbe287825b095693c2177581565b6104bc61010c5481565b6104fd6128f0565b6104bc61010d5481565b61041e610724366004614c70565b60009182526065602090815260408084206001600160a01b0393909316845291905290205460ff1690565b6104bc6101065481565b6104bc6101035481565b6104bc6101085481565b6104bc6101025481565b610116546104bc565b6104fd61078e366004614c00565b612983565b6104bc600081565b6104bc61016d81565b6104bc6101045481565b61041e612b24565b6104bc6101075481565b6104fd6107ce366004614cc7565b612b55565b6104fd6107e1366004614de1565b613394565b6104bc6101005481565b610115546101165461011754610118546101195461011a5461011b5461045f9695949360ff1692919087565b6104fd61082a366004614c70565b6134ad565b6104bc6134d2565b6104d26134e6565b6108476135bb565b60405161042a9190614ec1565b6104bc61010e5481565b6104bc61365a565b6104bc7ffa4b6f760d780a02797df53a6c2ccf476001dc02ee4f9b6b1426dafc21ff6baf81565b6104bc7f65d7a28e3265b37a6474929f336521b332c1681b933f6cb9f3376673440d862a81565b6104fd6136e0565b6104bc6101115481565b6104fd6108d4366004614dfb565b613a82565b6104bc7fa794a061bac4a541306b6778cc120a221216f325de0020c39b67101d49158ca281565b6104bc6101055481565b60006001600160e01b031982167f7965db0b00000000000000000000000000000000000000000000000000000000148061096d57507f01ffc9a7000000000000000000000000000000000000000000000000000000006001600160e01b03198316145b92915050565b6000610109546101085411156109d05760405162461bcd60e51b815260206004820152601960248201527f52657061796d656e742050726f6365737320697320646f6e650000000000000060448201526064015b60405180910390fd5b60fc5461010054604051630231155f60e51b81526001600160a01b0390921691634622abe091610a069160040190815260200190565b60206040518083038186803b158015610a1e57600080fd5b505afa158015610a32573d6000803e3d6000fd5b505050506040513d601f19601f82011682018060405250810190610a569190614c38565b1515600114610aba5760405162461bcd60e51b815260206004820152602a60248201527f46756e647320696e206f70706f7274756e69747920686176656e2774206472616044820152693bb237bbb7103cb2ba1760b11b60648201526084016109c7565b6101015460009060ff1660011415610b4f575061010a54426000610adc61365a565b9050600081831115610b3c576000610b0162015180610afb8686614020565b90614033565b9050610b38620f4240610afb61010a54610b32610b2b606461010c5461403390919063ffffffff16565b869061403f565b9061403f565b9150505b610b46848261404b565b95945050505050565b61010b5461010a54610b6091614020565b9050426000610b6d61365a565b9050600081831115610bb7576000610b8c62015180610afb8686614020565b9050610bb3620f4240610afb87610b32610b2b606461010c5461403390919063ffffffff16565b9150505b610bc1848261404b565b935061010954610108541415610bee5761011d5461011654610b4691610be7919061404b565b859061404b565b5050505b919050565b600080600061010b5461010a54610c0e9190614f4b565b60fb54909150600090610c4290610c2d906001600160a01b0316614057565b610c38906001614ef4565b61010b5490614033565b60fb54909150600090610c6890610c61906001600160a01b0316614057565b839061403f565b90506000610c8684610afb61010e548561403f90919063ffffffff16565b90506000610ca485610afb61010f548761403f90919063ffffffff16565b919791965090945050505050565b610cba612b24565b610d1a5760405162461bcd60e51b815260206004820152602b60248201527f4d75737420686176652061646d696e20726f6c6520746f20706572666f726d2060448201526a3a3434b99030b1ba34b7b760a91b60648201526084016109c7565b610112805460ff19166001179055565b600260c9541415610d7d5760405162461bcd60e51b815260206004820152601f60248201527f5265656e7472616e637947756172643a207265656e7472616e742063616c6c0060448201526064016109c7565b600260c955610d8a6140d8565b3360009081527f3a5c5fdc6d68aca0335558f1dead9769256edaf7721e28efaba2044a61fcc1c2602052604090205460ff16610e1f5760405162461bcd60e51b815260206004820152602e60248201527f4d757374206861766520626f72726f77657220726f6c6520746f20706572666f60448201526d3936903a3434b99030b1ba34b7b760911b60648201526084016109c7565b61010954610108541115610e755760405162461bcd60e51b815260206004820152601960248201527f52657061796d656e742050726f6365737320697320646f6e650000000000000060448201526064016109c7565b60fc5461010054604051630231155f60e51b81526001600160a01b0390921691634622abe091610eab9160040190815260200190565b60206040518083038186803b158015610ec357600080fd5b505afa158015610ed7573d6000803e3d6000fd5b505050506040513d601f19601f82011682018060405250810190610efb9190614c38565b1515600114610f5f5760405162461bcd60e51b815260206004820152602a60248201527f46756e647320696e206f70706f7274756e69747920686176656e2774206472616044820152693bb237bbb7103cb2ba1760b11b60648201526084016109c7565b6101015460ff166001141561125a5761010a5461010d8054829190600090610f88908490614ef4565b909155504290506000610f9961365a565b9050600081831115610fe6576000610fb862015180610afb8686614020565b9050610fe2620f4240610afb61010a54610b32610b2b606461010c5461403390919063ffffffff16565b9150505b60fb5460009061100f90610c3890600190611009906001600160a01b0316614057565b9061404b565b60fb5490915060009061102e90610c61906001600160a01b0316614057565b6101175490915061103f908261404b565b6101175561011e54611051908361404b565b61011e5561010e5461107a9061107090620f424090610afb908561403f565b61011a549061404b565b61011a5561010f546110a39061109990620f424090610afb908661403f565b610121549061404b565b61012155610111546110cc906110c290620f424090610afb908761403f565b610122549061404b565b61012255610110546110f5906110eb90620f424090610afb908761403f565b61011b549061404b565b61011b5561010b5461010a54600091829161110f91614020565b60fb5490915061113b90620f424090610afb90611134906001600160a01b031661412b565b849061403f565b60fb5490925061116790620f424090610afb90611160906001600160a01b031661412b565b889061403f565b6111719083614ef4565b915061117d888661404b565b6101065490985061118e908961404b565b6101065560fe546111aa906001600160a01b031633308b614143565b60fe5460fb546001600160a01b039182169163a9059cbb916111cc91166141d1565b6040516001600160e01b031960e084901b1681526001600160a01b03909116600482015260248101859052604401602060405180830381600087803b15801561121457600080fd5b505af1158015611228573d6000803e3d6000fd5b505050506040513d601f19601f8201168201806040525081019061124c9190614c38565b505050505050505050611557565b600061127561010b5461010a5461402090919063ffffffff16565b90508061010d600082825461128a9190614ef4565b90915550429050600061129b61365a565b90506000818311156112e55760006112ba62015180610afb8686614020565b90506112e1620f4240610afb87610b32610b2b606461010c5461403390919063ffffffff16565b9150505b60fb5460009061130890610c3890600190611009906001600160a01b0316614057565b60fb5490915060009061132790610c61906001600160a01b0316614057565b9050611349611070620f4240610afb8461010e5461403f90919063ffffffff16565b61011a5561010f546113689061109990620f424090610afb908661403f565b6101215561011154611387906110c290620f424090610afb908761403f565b61012255610110546113a6906110eb90620f424090610afb908761403f565b61011b5561010b5461010a5460009182916113c091614020565b60fb549091506113e590620f424090610afb90611134906001600160a01b031661412b565b60fb5490925061140a90620f424090610afb90611160906001600160a01b031661412b565b6114149083614ef4565b915061010954610108541415611474576101165461011781905561011d5461011e81905561144d91611446919061404b565b899061404b565b6101175461011e5491995061146f916114659161404b565b61010d549061404b565b61010d555b61147e888661404b565b6101065490985061148f908961404b565b6101065560fe546114ab906001600160a01b031633308b614143565b60fe5460fb546001600160a01b039182169163a9059cbb916114cd91166141d1565b6040516001600160e01b031960e084901b1681526001600160a01b03909116600482015260248101859052604401602060405180830381600087803b15801561151557600080fd5b505af1158015611529573d6000803e3d6000fd5b505050506040513d601f19601f8201168201806040525081019061154d9190614c38565b5050505050505050505b610109546101085414156116db5760fc54610100546040517f332f14860000000000000000000000000000000000000000000000000000000081526001600160a01b039092169163332f1486916115b49160040190815260200190565b600060405180830381600087803b1580156115ce57600080fd5b505af11580156115e2573d6000803e3d6000fd5b50506101175461011a5461011b546000945091925061160091614ef4565b61160a9190614ef4565b905080610106600082825461161f9190614f4b565b9091555050600061011b81905561011781905561011a5560fe5460fb546001600160a01b039182169163a9059cbb916116589116614253565b6040516001600160e01b031960e084901b1681526001600160a01b03909116600482015260248101849052604401602060405180830381600087803b1580156116a057600080fd5b505af11580156116b4573d6000803e3d6000fd5b505050506040513d601f19601f820116820180604052508101906116d89190614c38565b50505b610108546116ea90600161404b565b61010855600160c955565b6000828152606560205260409020600101546117108161426b565b61171a8383614275565b505050565b611727612b24565b6117875760405162461bcd60e51b815260206004820152602b60248201527f4d75737420686176652061646d696e20726f6c6520746f20706572666f726d2060448201526a3a3434b99030b1ba34b7b760a91b60648201526084016109c7565b610112805460ff19169055565b6001600160a01b03811633146118125760405162461bcd60e51b815260206004820152602f60248201527f416363657373436f6e74726f6c3a2063616e206f6e6c792072656e6f756e636560448201527f20726f6c657320666f722073656c66000000000000000000000000000000000060648201526084016109c7565b61181c8282614317565b5050565b600260c95414156118735760405162461bcd60e51b815260206004820152601f60248201527f5265656e7472616e637947756172643a207265656e7472616e742063616c6c0060448201526064016109c7565b600260c9556118806140d8565b600160ff831611156118d45760405162461bcd60e51b815260206004820152601860248201527f537562706f6f6c4944203a206f7574206f662072616e6765000000000000000060448201526064016109c7565b600081116119245760405162461bcd60e51b815260206004820181905260248201527f416d6f756e74204d7573742062652067726561746572207468616e207a65726f60448201526064016109c7565b60ff821660011415611ac6576101185460ff16156119845760405162461bcd60e51b815260206004820152601860248201527f53656e696f7220537562706f6f6c206973206c6f636b6564000000000000000060448201526064016109c7565b3360009081527f2892c78fbc31f59255f157a1512973f37f8ab9b97be744fa9c97d26a902864ae602052604090205460ff16611a365760405162461bcd60e51b8152602060048201526044602482018190527f596f75206d75737420686176652053656e696f7220706f6f6c20726f6c652069908201527f6e206f7264657220746f206465706f73697420696e2073656e696f72207375626064820152631c1bdbdb60e21b608482015260a4016109c7565b61011754811115611aaf5760405162461bcd60e51b815260206004820152603b60248201527f416d6f756e7420657863656564732074686520546f74616c206465706f73697460448201527f656420616d6f756e74206f662073656e696f7220737562706f6f6c000000000060648201526084016109c7565b61011754611abd9082614020565b61011755611d53565b60ff8216611d535761012054421015611b215760405162461bcd60e51b815260206004820181905260248201527f66756e647320617265206c6f636b20756e74696c204c6f616e2054656e75726560448201526064016109c7565b61011f5460ff1615611b755760405162461bcd60e51b815260206004820152601860248201527f4a756e696f7220537562706f6f6c206973206c6f636b6564000000000000000060448201526064016109c7565b3360009081526101136020908152604080832054610114909252909120805460ff1916918311159182179055611c135760405162461bcd60e51b815260206004820152603560248201527f796f757220776974686472617720616d6f756e7420697320686967686572207460448201527f68616e206465706f736974656420616d6f756e742e000000000000000000000060648201526084016109c7565b61011e54811115611c8c5760405162461bcd60e51b815260206004820152603b60248201527f416d6f756e7420657863656564732074686520546f74616c206465706f73697460448201527f656420616d6f756e74206f66206a756e696f7220737562706f6f6c000000000060648201526084016109c7565b61011e54611c9a9082614020565b61011e553360009081526101136020526040902054611cb99082614020565b33600090815261011360205260409020819055611d5357336000818152610114602052604090819020805460ff1916905560fd54610100549151631bd3b3dd60e31b8152600481019390935260248301919091526001600160a01b03169063de9d9ee890604401600060405180830381600087803b158015611d3a57600080fd5b505af1158015611d4e573d6000803e3d6000fd5b505050505b61010654611d619082614020565b6101065560fe54611d7d906001600160a01b0316303384614143565b60405181815260ff83169033907fd5717d2b2bcb82b3f3aea5c8c75e2194c2a7b177469cd9a5cef423e940ab81c7906020015b60405180910390a35050600160c955565b611deb7f65d7a28e3265b37a6474929f336521b332c1681b933f6cb9f3376673440d862a33610724565b611e4c5760405162461bcd60e51b815260206004820152602c60248201527f4d75737420686176652070617573657220726f6c6520746f20706572666f726d60448201526b103a3434b99030b1ba34b7b760a11b60648201526084016109c7565b611e5461439a565b565b600054610100900460ff1615808015611e765750600054600160ff909116105b80611e905750303b158015611e90575060005460ff166001145b611f025760405162461bcd60e51b815260206004820152602e60248201527f496e697469616c697a61626c653a20636f6e747261637420697320616c72656160448201527f647920696e697469616c697a656400000000000000000000000000000000000060648201526084016109c7565b6000805460ff191660011790558015611f25576000805461ff0019166101001790555b611f2d6143ec565b8015611f73576000805461ff0019169055604051600181527f7f26b83ff96e1f2b6a682f133852f6798a09c465da95921460cefb38474024989060200160405180910390a15b50565b6000600260c9541415611fcb5760405162461bcd60e51b815260206004820152601f60248201527f5265656e7472616e637947756172643a207265656e7472616e742063616c6c0060448201526064016109c7565b600260c955611fd86140d8565b600160ff8316111561202c5760405162461bcd60e51b815260206004820152601860248201527f537562706f6f6c4944203a206f7574206f662072616e6765000000000000000060448201526064016109c7565b60fc5461010054604051638176715560e01b81526001600160a01b03909216916381767155916120629160040190815260200190565b60206040518083038186803b15801561207a57600080fd5b505afa15801561208e573d6000803e3d6000fd5b505050506040513d601f19601f820116820180604052508101906120b29190614c38565b15156001146121165760405162461bcd60e51b815260206004820152602a60248201527f46756e647320696e206f70706f7274756e69747920686176656e2774206472616044820152693bb237bbb7103cb2ba1760b11b60648201526084016109c7565b600060ff8316600114156122e6576101185460ff16156121785760405162461bcd60e51b815260206004820152601860248201527f53656e696f7220537562706f6f6c206973206c6f636b6564000000000000000060448201526064016109c7565b3360009081527f2892c78fbc31f59255f157a1512973f37f8ab9b97be744fa9c97d26a902864ae602052604090205460ff1661222a5760405162461bcd60e51b8152602060048201526044602482018190527f596f75206d75737420686176652053656e696f7220706f6f6c20726f6c652069908201527f6e206f7264657220746f206465706f73697420696e2073656e696f72207375626064820152631c1bdbdb60e21b608482015260a4016109c7565b610117546122a05760405162461bcd60e51b815260206004820152602b60248201527f62616c616e6365206f662073656e696f7220737562706f6f6c206973207a657260448201527f6f2063757272656e746c7900000000000000000000000000000000000000000060648201526084016109c7565b61011a54610117546122b19161404b565b61011b54909150156122d55761011b546122cc90829061404b565b600061011b5590505b600061011781905561011a55612602565b60ff83166126025761011f5460ff16156123425760405162461bcd60e51b815260206004820152601860248201527f4a756e696f7220537562706f6f6c206973206c6f636b6564000000000000000060448201526064016109c7565b336000908152610114602052604090205460ff16151560011480156123765750336000908152610113602052604090205415155b6123c25760405162461bcd60e51b815260206004820152601760248201527f7a65726f20616d6f756e7420746f206465706f7369742e00000000000000000060448201526064016109c7565b61011e543360009081526101136020526040902054111561243b5760405162461bcd60e51b815260206004820152602d60248201527f63757272656e746c79206a756e696f7220737562706f6f6c20646f6e2774206860448201526c617665204c697175696469747960981b60648201526084016109c7565b336000908152610113602052604081205461010f5461246291620f424091610afb9161403f565b610121549091508111156124ce5760405162461bcd60e51b815260206004820152602d60248201527f63757272656e746c79206a756e696f7220737562706f6f6c20646f6e2774206860448201526c617665204c697175696469747960981b60648201526084016109c7565b336000908152610113602052604090205461011e546124ec91614020565b61011e55610121546124fe9082614020565b6101215533600090815261011460209081526040808320805460ff19169055610113909152902054612530908261404b565b61012254909250156125865733600090815261011360205260408120546101115461256391620f424091610afb9161403f565b905061256f838261404b565b610122549093506125809082614020565b61012255505b60fd5461010054604051631bd3b3dd60e31b815233600482015260248101919091526001600160a01b039091169063de9d9ee890604401600060405180830381600087803b1580156125d757600080fd5b505af11580156125eb573d6000803e3d6000fd5b505033600090815261011360205260408120555050505b610106546126109082614020565b6101065560fe5461262c906001600160a01b0316303384614143565b600160c95592915050565b3360009081527f0cc05db404293ecdddd3d47ddbcbafd5d44e2adcb65cd3b9fb9fd65c065747be602052604090205460ff166126cc5760405162461bcd60e51b815260206004820152602e60248201527f4d757374206861766520626f72726f77657220726f6c6520746f20706572666f60448201526d3936903a3434b99030b1ba34b7b760911b60648201526084016109c7565b600160ff821611156127205760405162461bcd60e51b815260206004820152601860248201527f537562706f6f6c4944203a206f7574206f662072616e6765000000000000000060448201526064016109c7565b60ff81166001141561273d57610118805460ff1916600117905550565b60ff8116611f735761011f805460ff1916600117905550565b336000908152610114602052604081205460ff161515600114801561278a5750336000908152610113602052604090205415155b6127d65760405162461bcd60e51b815260206004820152601960248201527f7a65726f20616d6f756e7420746f206465706f73697465642e0000000000000060448201526064016109c7565b60fc5461010054604051638176715560e01b815260048101919091526000916001600160a01b03169063817671559060240160206040518083038186803b15801561282057600080fd5b505afa158015612834573d6000803e3d6000fd5b505050506040513d601f19601f820116820180604052508101906128589190614c38565b151560011415610bf257336000908152610113602052604081205461010f5461288991620f424091610afb9161403f565b33600090815261011360205260409020549091506128a7908261404b565b61012254909250156128ea573360009081526101136020526040812054610111546128da91620f424091610afb9161403f565b90506128e6838261404b565b9250505b50919050565b61291a7f65d7a28e3265b37a6474929f336521b332c1681b933f6cb9f3376673440d862a33610724565b61297b5760405162461bcd60e51b815260206004820152602c60248201527f4d75737420686176652070617573657220726f6c6520746f20706572666f726d60448201526b103a3434b99030b1ba34b7b760a11b60648201526084016109c7565b611e54614463565b600054610100900460ff166129ee5760405162461bcd60e51b815260206004820152602b60248201527f496e697469616c697a61626c653a20636f6e7472616374206973206e6f74206960448201526a6e697469616c697a696e6760a81b60648201526084016109c7565b6001600160a01b038116612a445760405162461bcd60e51b815260206004820181905260248201527f4f776e65722063616e6e6f7420626520746865207a65726f206164647265737360448201526064016109c7565b612a4c6144a0565b612a546143ec565b612a5c61450b565b612a867fa49807205ce4d355092ef5a8a18f56e8913cf4a201fbe287825b095693c217758261457d565b612ab07f65d7a28e3265b37a6474929f336521b332c1681b933f6cb9f3376673440d862a8261457d565b612afa7f65d7a28e3265b37a6474929f336521b332c1681b933f6cb9f3376673440d862a7fa49807205ce4d355092ef5a8a18f56e8913cf4a201fbe287825b095693c21775614587565b611f737fa49807205ce4d355092ef5a8a18f56e8913cf4a201fbe287825b095693c2177580614587565b6000612b507fa49807205ce4d355092ef5a8a18f56e8913cf4a201fbe287825b095693c2177533610724565b905090565b600054610100900460ff1615808015612b755750600054600160ff909116105b80612b8f5750303b158015612b8f575060005460ff166001145b612c015760405162461bcd60e51b815260206004820152602e60248201527f496e697469616c697a61626c653a20636f6e747261637420697320616c72656160448201527f647920696e697469616c697a656400000000000000000000000000000000000060648201526084016109c7565b6000805460ff191660011790558015612c24576000805461ff0019166101001790555b6001600160a01b038816612c7a5760405162461bcd60e51b815260206004820152601660248201527f496e76616c696420636f6e66696720616464726573730000000000000000000060448201526064016109c7565b60fb80546001600160a01b0319166001600160a01b038a16908117909155600090612ca4906145d2565b90506001600160a01b038116612cfc5760405162461bcd60e51b815260206004820152600d60248201527f496e76616c6964204f776e65720000000000000000000000000000000000000060448201526064016109c7565b60fb54612d11906001600160a01b03166145e9565b60fc80546001600160a01b0319166001600160a01b0392831617905560fb54612d3a9116614601565b60fd80546001600160a01b0319166001600160a01b0392909216919091179055612d6381612983565b60fb54612d78906001600160a01b0316614619565b60fe80546001600160a01b0319166001600160a01b0392831617905560fb54612da19116614631565b60ff80546001600160a01b0319166001600160a01b0392909216919091179055612e0b7fa794a061bac4a541306b6778cc120a221216f325de0020c39b67101d49158ca27fa49807205ce4d355092ef5a8a18f56e8913cf4a201fbe287825b095693c21775614587565b60fb54612e4b907fa794a061bac4a541306b6778cc120a221216f325de0020c39b67101d49158ca290612e46906001600160a01b0316614253565b61457d565b612e957f2344277e405079ec07749d374ba0b5862a4e45a6a05ac889dbb4a991c6f9354d7fa49807205ce4d355092ef5a8a18f56e8913cf4a201fbe287825b095693c21775614587565b612edf7ffa4b6f760d780a02797df53a6c2ccf476001dc02ee4f9b6b1426dafc21ff6baf7fa49807205ce4d355092ef5a8a18f56e8913cf4a201fbe287825b095693c21775614587565b612f097ffa4b6f760d780a02797df53a6c2ccf476001dc02ee4f9b6b1426dafc21ff6baf8261457d565b60fc546040517f728c3ea2000000000000000000000000000000000000000000000000000000008152600481018a90526000916001600160a01b03169063728c3ea29060240160206040518083038186803b158015612f6757600080fd5b505afa158015612f7b573d6000803e3d6000fd5b505050506040513d601f19601f82011682018060405250810190612f9f9190614c1c565b9050612fcb7f2344277e405079ec07749d374ba0b5862a4e45a6a05ac889dbb4a991c6f9354d8261457d565b610100899055610102889055610103879055610104869055610105859055600161010855610101805460ff191660ff861617905560fb546040517fe4a3d784000000000000000000000000000000000000000000000000000000008152600481018b90526001600160a01b039091169063e4a3d7849060240160206040518083038186803b15801561305c57600080fd5b505afa158015613070573d6000803e3d6000fd5b505050506040513d601f19601f820116820180604052508101906130949190614c38565b61311857610118805460ff1916600117905560fb546000906130d7906130c2906001600160a01b0316614057565b6130cd906001614ef4565b6101025490614033565b60fb549091506130fa906130f3906001600160a01b0316614057565b829061403f565b6101168190556101025461310e9190614f4b565b61011d555061312f565b61011f805460ff1916600117905561010254610116555b600061010354620151806131439190614f2c565b905061314f8142614ef4565b6101205561010354610104546000916131709161016d91610afb919061403f565b905060006131a0613196620f4240610afb61318c866064614033565b610102549061403f565b610102549061404b565b90506131c56131be610105546101035461403390919063ffffffff16565b8290614033565b61010a5560fb546131e69061016d90610afb906001600160a01b0316614649565b61010c81905550613217620f4240610b326130cd620f4240610b32610105546101035461403390919063ffffffff16565b61010b55610105546101035461322c91614033565b610109556132386134e6565b61010f5561010e55613248610bf7565b610111556101105560fe546040517f095ea7b300000000000000000000000000000000000000000000000000000000815230600482015260001960248201526000916001600160a01b03169063095ea7b390604401602060405180830381600087803b1580156132b757600080fd5b505af11580156132cb573d6000803e3d6000fd5b505050506040513d601f19601f820116820180604052508101906132ef9190614c38565b90508061333e5760405162461bcd60e51b815260206004820152601660248201527f4661696c656420746f20617070726f766520555344430000000000000000000060448201526064016109c7565b505050505050801561338a576000805461ff0019169055604051600181527f7f26b83ff96e1f2b6a682f133852f6798a09c465da95921460cefb38474024989060200160405180910390a15b5050505050505050565b3360009081527f0cc05db404293ecdddd3d47ddbcbafd5d44e2adcb65cd3b9fb9fd65c065747be602052604090205460ff166134295760405162461bcd60e51b815260206004820152602e60248201527f4d757374206861766520626f72726f77657220726f6c6520746f20706572666f60448201526d3936903a3434b99030b1ba34b7b760911b60648201526084016109c7565b600160ff8216111561347d5760405162461bcd60e51b815260206004820152601860248201527f537562706f6f6c4944203a206f7574206f662072616e6765000000000000000060448201526064016109c7565b60ff81166001141561349757610118805460ff1916905550565b60ff8116611f735761011f805460ff1916905550565b6000828152606560205260409020600101546134c88161426b565b61171a8383614317565b61011b5461011a54600091612b5091614ef4565b60fb546000908190620f424090829061354a908390610afb9061353b90613515906001600160a01b0316614661565b60fb546135359061352e906001600160a01b031661412b565b8890614020565b90614020565b61010454610b32906064614033565b60fb549091506000906135af90620f424090610afb9061353b9061358f9061357a906001600160a01b0316614057565b60fb54610b32906001600160a01b0316614661565b60fb54611009906135a8906001600160a01b031661412b565b8990614020565b91959194509092505050565b60fc54610100546040517ff00474a600000000000000000000000000000000000000000000000000000000815260048101919091526060916001600160a01b03169063f00474a69060240160006040518083038186803b15801561361e57600080fd5b505afa158015613632573d6000803e3d6000fd5b505050506040513d6000823e601f3d908101601f19168201604052612b509190810190614d2b565b6000610109546101085411156136b25760405162461bcd60e51b815260206004820152601960248201527f52657061796d656e742050726f6365737320697320646f6e650000000000000060448201526064016109c7565b600061096d6136d661010554620151806136cc9190614f2c565b610108549061403f565b610107549061404b565b600260c95414156137335760405162461bcd60e51b815260206004820152601f60248201527f5265656e7472616e637947756172643a207265656e7472616e742063616c6c0060448201526064016109c7565b600260c9556137406140d8565b3360009081527f3a5c5fdc6d68aca0335558f1dead9769256edaf7721e28efaba2044a61fcc1c2602052604090205460ff166137d55760405162461bcd60e51b815260206004820152602e60248201527f4d757374206861766520626f72726f77657220726f6c6520746f20706572666f60448201526d3936903a3434b99030b1ba34b7b760911b60648201526084016109c7565b60fc5461010054604051630231155f60e51b81526001600160a01b0390921691634622abe09161380b9160040190815260200190565b60206040518083038186803b15801561382357600080fd5b505afa158015613837573d6000803e3d6000fd5b505050506040513d601f19601f8201168201806040525081019061385b9190614c38565b156138ce5760405162461bcd60e51b815260206004820152602a60248201527f46756e647320696e206f70706f7274756e6974792061726520616c726561647960448201527f2064726177646f776e2e0000000000000000000000000000000000000000000060648201526084016109c7565b6101125460ff16156139225760405162461bcd60e51b815260206004820152601260248201527f44726177646f776e20697320706175736564000000000000000000000000000060448201526064016109c7565b6101025461010654146139c35760405162461bcd60e51b815260206004820152604760248201527f546f74616c204465706f736974656420616d6f756e7420696e206f70706f727460448201527f756e69747920706f6f6c206d75737420626520657175616c20746f206c6f616e60648201527f20616d6f756e7400000000000000000000000000000000000000000000000000608482015260a4016109c7565b610106805460009182905561011e82905561011791909155426101075560fc54610100546040517faf7ea9440000000000000000000000000000000000000000000000000000000081526001600160a01b039092169163af7ea94491613a2f9160040190815260200190565b600060405180830381600087803b158015613a4957600080fd5b505af1158015613a5d573d6000803e3d6000fd5b505060fe54613a7a92506001600160a01b03169050303384614143565b50600160c955565b600260c9541415613ad55760405162461bcd60e51b815260206004820152601f60248201527f5265656e7472616e637947756172643a207265656e7472616e742063616c6c0060448201526064016109c7565b600260c955613ae26140d8565b600160ff83161115613b365760405162461bcd60e51b815260206004820152601860248201527f537562706f6f6c4944203a206f7574206f662072616e6765000000000000000060448201526064016109c7565b60008111613b865760405162461bcd60e51b815260206004820181905260248201527f416d6f756e74204d7573742062652067726561746572207468616e207a65726f60448201526064016109c7565b60ff821660011415613d3e576101185460ff1615613be65760405162461bcd60e51b815260206004820152601860248201527f53656e696f7220537562706f6f6c206973206c6f636b6564000000000000000060448201526064016109c7565b3360009081527f2892c78fbc31f59255f157a1512973f37f8ab9b97be744fa9c97d26a902864ae602052604090205460ff16613c985760405162461bcd60e51b8152602060048201526044602482018190527f596f75206d75737420686176652053656e696f7220706f6f6c20726f6c652069908201527f6e206f7264657220746f206465706f73697420696e2073656e696f72207375626064820152631c1bdbdb60e21b608482015260a4016109c7565b61011754600090613caa90839061404b565b61011654909150811115613d265760405162461bcd60e51b815260206004820152603860248201527f416d6f756e7420657863656564732074686520546f74616c206465706f73697460448201527f206c696d6974206f662073656e696f7220737562706f6f6c000000000000000060648201526084016109c7565b61011754613d34908361404b565b6101175550613fbf565b60ff8216613fbf5761011f5460ff1615613d9a5760405162461bcd60e51b815260206004820152601860248201527f4a756e696f7220537562706f6f6c206973206c6f636b6564000000000000000060448201526064016109c7565b61011e54600090613dac90839061404b565b61011d54909150811115613e285760405162461bcd60e51b815260206004820152603860248201527f416d6f756e7420657863656564732074686520546f74616c206465706f73697460448201527f206c696d6974206f66206a756e696f7220737562706f6f6c000000000000000060648201526084016109c7565b61011e54613e36908361404b565b61011e553360009081526101136020526040902054613e55908361404b565b33600081815261011360209081526040808320949094556101149052829020805460ff1916600117905560fd546101005492517fe954539d000000000000000000000000000000000000000000000000000000008152600481019290925260248201929092526001600160a01b039091169063e954539d9060440160206040518083038186803b158015613ee857600080fd5b505afa158015613efc573d6000803e3d6000fd5b505050506040513d601f19601f82011682018060405250810190613f209190614c38565b613fa75760fd54610100546040517fa68a132200000000000000000000000000000000000000000000000000000000815233600482015260248101919091526001600160a01b039091169063a68a132290604401600060405180830381600087803b158015613f8e57600080fd5b505af1158015613fa2573d6000803e3d6000fd5b505050505b61011d548110613fbd57610118805460ff191690555b505b61010654613fcd908261404b565b6101065560fe54613fe9906001600160a01b0316333084614143565b60405181815260ff83169033907f1d0787aee899a49ef81d0b11da9aca5455b46aefed042a41bd398d74619cab0090602001611db0565b600061402c8284614f4b565b9392505050565b600061402c8284614f0c565b600061402c8284614f2c565b600061402c8284614ef4565b60006001600160a01b03821663fc563658825b6040518263ffffffff1660e01b815260040161408891815260200190565b60206040518083038186803b1580156140a057600080fd5b505afa1580156140b4573d6000803e3d6000fd5b505050506040513d601f19601f8201168201806040525081019061096d9190614dc9565b60975460ff1615611e545760405162461bcd60e51b815260206004820152601060248201527f5061757361626c653a207061757365640000000000000000000000000000000060448201526064016109c7565b60006001600160a01b03821663fc563658600161406a565b604080516001600160a01b0385811660248301528416604482015260648082018490528251808303909101815260849091019091526020810180517bffffffffffffffffffffffffffffffffffffffffffffffffffffffff167f23b872dd000000000000000000000000000000000000000000000000000000001790526141cb908590614679565b50505050565b60006001600160a01b03821663b93f9b0a60085b6040518263ffffffff1660e01b815260040161420391815260200190565b60206040518083038186803b15801561421b57600080fd5b505afa15801561422f573d6000803e3d6000fd5b505050506040513d601f19601f8201168201806040525081019061096d9190614c1c565b60006001600160a01b03821663b93f9b0a60036141e5565b611f73813361475e565b60008281526065602090815260408083206001600160a01b038516845290915290205460ff1661181c5760008281526065602090815260408083206001600160a01b03851684529091529020805460ff191660011790556142d33390565b6001600160a01b0316816001600160a01b0316837f2f8788117e7eff1d82e926ec794901d17c78024a50270940304540a733656f0d60405160405180910390a45050565b60008281526065602090815260408083206001600160a01b038516845290915290205460ff161561181c5760008281526065602090815260408083206001600160a01b0385168085529252808320805460ff1916905551339285917ff6391f5c32d9c69d2a47ea670b442974b53935d1edc7fd64eb21e047a839171b9190a45050565b6143a26147de565b6097805460ff191690557f5db9ee0a495bf2e6ff9c91a7834c1ba4fdd244a5e8aa4e537bd38aeae4b073aa335b6040516001600160a01b03909116815260200160405180910390a1565b600054610100900460ff166144575760405162461bcd60e51b815260206004820152602b60248201527f496e697469616c697a61626c653a20636f6e7472616374206973206e6f74206960448201526a6e697469616c697a696e6760a81b60648201526084016109c7565b6097805460ff19169055565b61446b6140d8565b6097805460ff191660011790557f62e78cea01bee320cd4e420270b5ea74000d11b0c9f74754ebdbfc544b05a2586143cf3390565b600054610100900460ff16611e545760405162461bcd60e51b815260206004820152602b60248201527f496e697469616c697a61626c653a20636f6e7472616374206973206e6f74206960448201526a6e697469616c697a696e6760a81b60648201526084016109c7565b600054610100900460ff166145765760405162461bcd60e51b815260206004820152602b60248201527f496e697469616c697a61626c653a20636f6e7472616374206973206e6f74206960448201526a6e697469616c697a696e6760a81b60648201526084016109c7565b600160c955565b61181c8282614275565b600082815260656020526040808220600101805490849055905190918391839186917fbd79b86ffe0ab8e8776151514217cd7cacd52c909f66475c3af44e129f0b00ff9190a4505050565b60006001600160a01b03821663b93f9b0a826141e5565b60006001600160a01b03821663b93f9b0a60066141e5565b60006001600160a01b03821663b93f9b0a60076141e5565b60006001600160a01b03821663b93f9b0a60026141e5565b60006001600160a01b03821663b93f9b0a60016141e5565b60006001600160a01b03821663fc563658600261406a565b60006001600160a01b03821663fc563658600361406a565b60006146ce826040518060400160405280602081526020017f5361666545524332303a206c6f772d6c6576656c2063616c6c206661696c6564815250856001600160a01b03166148309092919063ffffffff16565b80519091501561171a57808060200190518101906146ec9190614c38565b61171a5760405162461bcd60e51b815260206004820152602a60248201527f5361666545524332303a204552433230206f7065726174696f6e20646964206e60448201527f6f7420737563636565640000000000000000000000000000000000000000000060648201526084016109c7565b60008281526065602090815260408083206001600160a01b038516845290915290205460ff1661181c5761479c816001600160a01b03166014614847565b6147a7836020614847565b6040516020016147b8929190614e40565b60408051601f198184030181529082905262461bcd60e51b82526109c791600401614ec1565b60975460ff16611e545760405162461bcd60e51b815260206004820152601460248201527f5061757361626c653a206e6f742070617573656400000000000000000000000060448201526064016109c7565b606061483f8484600085614a6e565b949350505050565b60606000614856836002614f2c565b614861906002614ef4565b67ffffffffffffffff81111561488757634e487b7160e01b600052604160045260246000fd5b6040519080825280601f01601f1916602001820160405280156148b1576020820181803683370190505b5090507f3000000000000000000000000000000000000000000000000000000000000000816000815181106148f657634e487b7160e01b600052603260045260246000fd5b60200101906001600160f81b031916908160001a9053507f78000000000000000000000000000000000000000000000000000000000000008160018151811061494f57634e487b7160e01b600052603260045260246000fd5b60200101906001600160f81b031916908160001a9053506000614973846002614f2c565b61497e906001614ef4565b90505b6001811115614a1f577f303132333435363738396162636465660000000000000000000000000000000085600f16601081106149cd57634e487b7160e01b600052603260045260246000fd5b1a60f81b8282815181106149f157634e487b7160e01b600052603260045260246000fd5b60200101906001600160f81b031916908160001a90535060049490941c93614a1881614f8e565b9050614981565b50831561402c5760405162461bcd60e51b815260206004820181905260248201527f537472696e67733a20686578206c656e67746820696e73756666696369656e7460448201526064016109c7565b606082471015614ae65760405162461bcd60e51b815260206004820152602660248201527f416464726573733a20696e73756666696369656e742062616c616e636520666f60448201527f722063616c6c000000000000000000000000000000000000000000000000000060648201526084016109c7565b6001600160a01b0385163b614b3d5760405162461bcd60e51b815260206004820152601d60248201527f416464726573733a2063616c6c20746f206e6f6e2d636f6e747261637400000060448201526064016109c7565b600080866001600160a01b03168587604051614b599190614e24565b60006040518083038185875af1925050503d8060008114614b96576040519150601f19603f3d011682016040523d82523d6000602084013e614b9b565b606091505b5091509150614bab828286614bb6565b979650505050505050565b60608315614bc557508161402c565b825115614bd55782518084602001fd5b8160405162461bcd60e51b81526004016109c79190614ec1565b803560ff81168114610bf257600080fd5b600060208284031215614c11578081fd5b813561402c81614fd1565b600060208284031215614c2d578081fd5b815161402c81614fd1565b600060208284031215614c49578081fd5b8151801515811461402c578182fd5b600060208284031215614c69578081fd5b5035919050565b60008060408385031215614c82578081fd5b823591506020830135614c9481614fd1565b809150509250929050565b600060208284031215614cb0578081fd5b81356001600160e01b03198116811461402c578182fd5b600080600080600080600060e0888a031215614ce1578283fd5b8735614cec81614fd1565b96506020880135955060408801359450606088013593506080880135925060a08801359150614d1d60c08901614bef565b905092959891949750929550565b600060208284031215614d3c578081fd5b815167ffffffffffffffff80821115614d53578283fd5b818401915084601f830112614d66578283fd5b815181811115614d7857614d78614fbb565b604051601f8201601f19908116603f01168101908382118183101715614da057614da0614fbb565b81604052828152876020848701011115614db8578586fd5b614bab836020830160208801614f62565b600060208284031215614dda578081fd5b5051919050565b600060208284031215614df2578081fd5b61402c82614bef565b60008060408385031215614e0d578182fd5b614e1683614bef565b946020939093013593505050565b60008251614e36818460208701614f62565b9190910192915050565b7f416363657373436f6e74726f6c3a206163636f756e7420000000000000000000815260008351614e78816017850160208801614f62565b7f206973206d697373696e6720726f6c65200000000000000000000000000000006017918401918201528351614eb5816028840160208801614f62565b01602801949350505050565b6020815260008251806020840152614ee0816040850160208701614f62565b601f01601f19169190910160400192915050565b60008219821115614f0757614f07614fa5565b500190565b600082614f2757634e487b7160e01b81526012600452602481fd5b500490565b6000816000190483118215151615614f4657614f46614fa5565b500290565b600082821015614f5d57614f5d614fa5565b500390565b60005b83811015614f7d578181015183820152602001614f65565b838111156141cb5750506000910152565b600081614f9d57614f9d614fa5565b506000190190565b634e487b7160e01b600052601160045260246000fd5b634e487b7160e01b600052604160045260246000fd5b6001600160a01b0381168114611f7357600080fdfea26469706673582212207fbb59e9cfd1ac0be6f61e4b6e0b9a74ff5897442b43d269d4ad83f4acadfc0464736f6c63430008040033",
  "linkReferences": {},
  "deployedLinkReferences": {}
}