{
  "_format": "hh-sol-artifact-1",
  "contractName": "OpportunityPool",
  "sourceName": "contracts/protocol/OpportunityPool.sol",
  "abi": [
    {
      "anonymous": false,
      "inputs": [
        {
          "indexed": false,
          "internalType": "address",
          "name": "previousAdmin",
          "type": "address"
        },
        {
          "indexed": false,
          "internalType": "address",
          "name": "newAdmin",
          "type": "address"
        }
      ],
      "name": "AdminChanged",
      "type": "event"
    },
    {
      "anonymous": false,
      "inputs": [
        {
          "indexed": true,
          "internalType": "address",
          "name": "beacon",
          "type": "address"
        }
      ],
      "name": "BeaconUpgraded",
      "type": "event"
    },
    {
      "anonymous": false,
      "inputs": [
        {
          "indexed": true,
          "internalType": "address",
          "name": "executor",
          "type": "address"
        },
        {
          "indexed": true,
          "internalType": "uint8",
          "name": "subpool",
          "type": "uint8"
        },
        {
          "indexed": false,
          "internalType": "uint256",
          "name": "amount",
          "type": "uint256"
        }
      ],
      "name": "Deposited",
      "type": "event"
    },
    {
      "anonymous": false,
      "inputs": [
        {
          "indexed": false,
          "internalType": "uint8",
          "name": "version",
          "type": "uint8"
        }
      ],
      "name": "Initialized",
      "type": "event"
    },
    {
      "anonymous": false,
      "inputs": [
        {
          "indexed": false,
          "internalType": "address",
          "name": "account",
          "type": "address"
        }
      ],
      "name": "Paused",
      "type": "event"
    },
    {
      "anonymous": false,
      "inputs": [
        {
          "indexed": true,
          "internalType": "bytes32",
          "name": "role",
          "type": "bytes32"
        },
        {
          "indexed": true,
          "internalType": "bytes32",
          "name": "previousAdminRole",
          "type": "bytes32"
        },
        {
          "indexed": true,
          "internalType": "bytes32",
          "name": "newAdminRole",
          "type": "bytes32"
        }
      ],
      "name": "RoleAdminChanged",
      "type": "event"
    },
    {
      "anonymous": false,
      "inputs": [
        {
          "indexed": true,
          "internalType": "bytes32",
          "name": "role",
          "type": "bytes32"
        },
        {
          "indexed": true,
          "internalType": "address",
          "name": "account",
          "type": "address"
        },
        {
          "indexed": true,
          "internalType": "address",
          "name": "sender",
          "type": "address"
        }
      ],
      "name": "RoleGranted",
      "type": "event"
    },
    {
      "anonymous": false,
      "inputs": [
        {
          "indexed": true,
          "internalType": "bytes32",
          "name": "role",
          "type": "bytes32"
        },
        {
          "indexed": true,
          "internalType": "address",
          "name": "account",
          "type": "address"
        },
        {
          "indexed": true,
          "internalType": "address",
          "name": "sender",
          "type": "address"
        }
      ],
      "name": "RoleRevoked",
      "type": "event"
    },
    {
      "anonymous": false,
      "inputs": [
        {
          "indexed": false,
          "internalType": "address",
          "name": "account",
          "type": "address"
        }
      ],
      "name": "Unpaused",
      "type": "event"
    },
    {
      "anonymous": false,
      "inputs": [
        {
          "indexed": true,
          "internalType": "address",
          "name": "implementation",
          "type": "address"
        }
      ],
      "name": "Upgraded",
      "type": "event"
    },
    {
      "anonymous": false,
      "inputs": [
        {
          "indexed": true,
          "internalType": "address",
          "name": "executor",
          "type": "address"
        },
        {
          "indexed": true,
          "internalType": "uint8",
          "name": "subpool",
          "type": "uint8"
        },
        {
          "indexed": false,
          "internalType": "uint256",
          "name": "amount",
          "type": "uint256"
        }
      ],
      "name": "Withdrew",
      "type": "event"
    },
    {
      "inputs": [],
      "name": "DEFAULT_ADMIN_ROLE",
      "outputs": [
        {
          "internalType": "bytes32",
          "name": "",
          "type": "bytes32"
        }
      ],
      "stateMutability": "view",
      "type": "function"
    },
    {
      "inputs": [
        {
          "internalType": "address",
          "name": "owner",
          "type": "address"
        }
      ],
      "name": "_BaseUpgradeablePausable_init",
      "outputs": [],
      "stateMutability": "nonpayable",
      "type": "function"
    },
    {
      "inputs": [],
      "name": "__PauserPausable__init",
      "outputs": [],
      "stateMutability": "nonpayable",
      "type": "function"
    },
    {
      "inputs": [],
      "name": "dailyOverdueInterestRate",
      "outputs": [
        {
          "internalType": "uint256",
          "name": "",
          "type": "uint256"
        }
      ],
      "stateMutability": "view",
      "type": "function"
    },
    {
      "inputs": [
        {
          "internalType": "uint8",
          "name": "_subpoolId",
          "type": "uint8"
        },
        {
          "internalType": "uint256",
          "name": "amount",
          "type": "uint256"
        }
      ],
      "name": "deposit",
      "outputs": [],
      "stateMutability": "nonpayable",
      "type": "function"
    },
    {
      "inputs": [],
      "name": "drawdown",
      "outputs": [],
      "stateMutability": "nonpayable",
      "type": "function"
    },
    {
      "inputs": [],
      "name": "dygnifyConfig",
      "outputs": [
        {
          "internalType": "contract DygnifyConfig",
          "name": "",
          "type": "address"
        }
      ],
      "stateMutability": "view",
      "type": "function"
    },
    {
      "inputs": [],
      "name": "emiAmount",
      "outputs": [
        {
          "internalType": "uint256",
          "name": "",
          "type": "uint256"
        }
      ],
      "stateMutability": "view",
      "type": "function"
    },
    {
      "inputs": [],
      "name": "getOpportunityName",
      "outputs": [
        {
          "internalType": "string",
          "name": "",
          "type": "string"
        }
      ],
      "stateMutability": "view",
      "type": "function"
    },
    {
      "inputs": [],
      "name": "getOverDuePercentage",
      "outputs": [
        {
          "internalType": "uint256",
          "name": "",
          "type": "uint256"
        },
        {
          "internalType": "uint256",
          "name": "",
          "type": "uint256"
        }
      ],
      "stateMutability": "view",
      "type": "function"
    },
    {
      "inputs": [],
      "name": "getRepaymentAmount",
      "outputs": [
        {
          "internalType": "uint256",
          "name": "",
          "type": "uint256"
        }
      ],
      "stateMutability": "view",
      "type": "function"
    },
    {
      "inputs": [
        {
          "internalType": "bytes32",
          "name": "role",
          "type": "bytes32"
        }
      ],
      "name": "getRoleAdmin",
      "outputs": [
        {
          "internalType": "bytes32",
          "name": "",
          "type": "bytes32"
        }
      ],
      "stateMutability": "view",
      "type": "function"
    },
    {
      "inputs": [],
      "name": "getSeniorPoolWithdrawableAmount",
      "outputs": [
        {
          "internalType": "uint256",
          "name": "amount",
          "type": "uint256"
        }
      ],
      "stateMutability": "view",
      "type": "function"
    },
    {
      "inputs": [],
      "name": "getSeniorProfit",
      "outputs": [
        {
          "internalType": "uint256",
          "name": "",
          "type": "uint256"
        }
      ],
      "stateMutability": "view",
      "type": "function"
    },
    {
      "inputs": [],
      "name": "getSeniorTotalDepositable",
      "outputs": [
        {
          "internalType": "uint256",
          "name": "",
          "type": "uint256"
        }
      ],
      "stateMutability": "view",
      "type": "function"
    },
    {
      "inputs": [],
      "name": "getUserWithdrawableAmount",
      "outputs": [
        {
          "internalType": "uint256",
          "name": "",
          "type": "uint256"
        }
      ],
      "stateMutability": "view",
      "type": "function"
    },
    {
      "inputs": [
        {
          "internalType": "bytes32",
          "name": "role",
          "type": "bytes32"
        },
        {
          "internalType": "address",
          "name": "account",
          "type": "address"
        }
      ],
      "name": "grantRole",
      "outputs": [],
      "stateMutability": "nonpayable",
      "type": "function"
    },
    {
      "inputs": [
        {
          "internalType": "bytes32",
          "name": "role",
          "type": "bytes32"
        },
        {
          "internalType": "address",
          "name": "account",
          "type": "address"
        }
      ],
      "name": "hasRole",
      "outputs": [
        {
          "internalType": "bool",
          "name": "",
          "type": "bool"
        }
      ],
      "stateMutability": "view",
      "type": "function"
    },
    {
      "inputs": [
        {
          "internalType": "contract DygnifyConfig",
          "name": "_dygnifyConfig",
          "type": "address"
        },
        {
          "internalType": "bytes32",
          "name": "_opportunityID",
          "type": "bytes32"
        },
        {
          "internalType": "uint256",
          "name": "_loanAmount",
          "type": "uint256"
        },
        {
          "internalType": "uint256",
          "name": "_loanTenureInDays",
          "type": "uint256"
        },
        {
          "internalType": "uint256",
          "name": "_loanInterest",
          "type": "uint256"
        },
        {
          "internalType": "uint256",
          "name": "_paymentFrequencyInDays",
          "type": "uint256"
        },
        {
          "internalType": "uint8",
          "name": "_loanType",
          "type": "uint8"
        }
      ],
      "name": "initialize",
      "outputs": [],
      "stateMutability": "nonpayable",
      "type": "function"
    },
    {
      "inputs": [],
      "name": "investor",
      "outputs": [
        {
          "internalType": "contract IInvestor",
          "name": "",
          "type": "address"
        }
      ],
      "stateMutability": "view",
      "type": "function"
    },
    {
      "inputs": [],
      "name": "isAdmin",
      "outputs": [
        {
          "internalType": "bool",
          "name": "",
          "type": "bool"
        }
      ],
      "stateMutability": "view",
      "type": "function"
    },
    {
      "inputs": [],
      "name": "isDrawdownsPaused",
      "outputs": [
        {
          "internalType": "bool",
          "name": "",
          "type": "bool"
        }
      ],
      "stateMutability": "view",
      "type": "function"
    },
    {
      "inputs": [
        {
          "internalType": "address",
          "name": "",
          "type": "address"
        }
      ],
      "name": "isStaking",
      "outputs": [
        {
          "internalType": "bool",
          "name": "",
          "type": "bool"
        }
      ],
      "stateMutability": "view",
      "type": "function"
    },
    {
      "inputs": [],
      "name": "juniorOverduePerecentage",
      "outputs": [
        {
          "internalType": "uint256",
          "name": "",
          "type": "uint256"
        }
      ],
      "stateMutability": "view",
      "type": "function"
    },
    {
      "inputs": [],
      "name": "juniorSubpoolDetails",
      "outputs": [
        {
          "internalType": "uint256",
          "name": "id",
          "type": "uint256"
        },
        {
          "internalType": "uint256",
          "name": "totalDepositable",
          "type": "uint256"
        },
        {
          "internalType": "uint256",
          "name": "depositedAmount",
          "type": "uint256"
        },
        {
          "internalType": "bool",
          "name": "isPoolLocked",
          "type": "bool"
        },
        {
          "internalType": "uint256",
          "name": "fundsLockedUntil",
          "type": "uint256"
        },
        {
          "internalType": "uint256",
          "name": "yieldGenerated",
          "type": "uint256"
        },
        {
          "internalType": "uint256",
          "name": "overdueGenerated",
          "type": "uint256"
        }
      ],
      "stateMutability": "view",
      "type": "function"
    },
    {
      "inputs": [],
      "name": "juniorYieldPerecentage",
      "outputs": [
        {
          "internalType": "uint256",
          "name": "",
          "type": "uint256"
        }
      ],
      "stateMutability": "view",
      "type": "function"
    },
    {
      "inputs": [],
      "name": "loanAmount",
      "outputs": [
        {
          "internalType": "uint256",
          "name": "",
          "type": "uint256"
        }
      ],
      "stateMutability": "view",
      "type": "function"
    },
    {
      "inputs": [],
      "name": "loanInterest",
      "outputs": [
        {
          "internalType": "uint256",
          "name": "",
          "type": "uint256"
        }
      ],
      "stateMutability": "view",
      "type": "function"
    },
    {
      "inputs": [],
      "name": "loanTenureInDays",
      "outputs": [
        {
          "internalType": "uint256",
          "name": "",
          "type": "uint256"
        }
      ],
      "stateMutability": "view",
      "type": "function"
    },
    {
      "inputs": [],
      "name": "loanType",
      "outputs": [
        {
          "internalType": "uint8",
          "name": "",
          "type": "uint8"
        }
      ],
      "stateMutability": "view",
      "type": "function"
    },
    {
      "inputs": [
        {
          "internalType": "uint8",
          "name": "_subpoolId",
          "type": "uint8"
        }
      ],
      "name": "lockPool",
      "outputs": [],
      "stateMutability": "nonpayable",
      "type": "function"
    },
    {
      "inputs": [],
      "name": "lpToken",
      "outputs": [
        {
          "internalType": "contract ILPToken",
          "name": "",
          "type": "address"
        }
      ],
      "stateMutability": "view",
      "type": "function"
    },
    {
      "inputs": [],
      "name": "nextRepaymentTime",
      "outputs": [
        {
          "internalType": "uint256",
          "name": "",
          "type": "uint256"
        }
      ],
      "stateMutability": "view",
      "type": "function"
    },
    {
      "inputs": [],
      "name": "opportunityID",
      "outputs": [
        {
          "internalType": "bytes32",
          "name": "",
          "type": "bytes32"
        }
      ],
      "stateMutability": "view",
      "type": "function"
    },
    {
      "inputs": [],
      "name": "opportunityOrigination",
      "outputs": [
        {
          "internalType": "contract IOpportunityOrigination",
          "name": "",
          "type": "address"
        }
      ],
      "stateMutability": "view",
      "type": "function"
    },
    {
      "inputs": [],
      "name": "pause",
      "outputs": [],
      "stateMutability": "nonpayable",
      "type": "function"
    },
    {
      "inputs": [],
      "name": "pauseDrawdown",
      "outputs": [],
      "stateMutability": "nonpayable",
      "type": "function"
    },
    {
      "inputs": [],
      "name": "paused",
      "outputs": [
        {
          "internalType": "bool",
          "name": "",
          "type": "bool"
        }
      ],
      "stateMutability": "view",
      "type": "function"
    },
    {
      "inputs": [],
      "name": "paymentFrequencyInDays",
      "outputs": [
        {
          "internalType": "uint256",
          "name": "",
          "type": "uint256"
        }
      ],
      "stateMutability": "view",
      "type": "function"
    },
    {
      "inputs": [],
      "name": "poolBalance",
      "outputs": [
        {
          "internalType": "uint256",
          "name": "",
          "type": "uint256"
        }
      ],
      "stateMutability": "view",
      "type": "function"
    },
    {
      "inputs": [],
      "name": "proxiableUUID",
      "outputs": [
        {
          "internalType": "bytes32",
          "name": "",
          "type": "bytes32"
        }
      ],
      "stateMutability": "view",
      "type": "function"
    },
    {
      "inputs": [
        {
          "internalType": "bytes32",
          "name": "role",
          "type": "bytes32"
        },
        {
          "internalType": "address",
          "name": "account",
          "type": "address"
        }
      ],
      "name": "renounceRole",
      "outputs": [],
      "stateMutability": "nonpayable",
      "type": "function"
    },
    {
      "inputs": [],
      "name": "repayment",
      "outputs": [],
      "stateMutability": "nonpayable",
      "type": "function"
    },
    {
      "inputs": [],
      "name": "repaymentCounter",
      "outputs": [
        {
          "internalType": "uint256",
          "name": "",
          "type": "uint256"
        }
      ],
      "stateMutability": "view",
      "type": "function"
    },
    {
      "inputs": [],
      "name": "repaymentStartTime",
      "outputs": [
        {
          "internalType": "uint256",
          "name": "",
          "type": "uint256"
        }
      ],
      "stateMutability": "view",
      "type": "function"
    },
    {
      "inputs": [
        {
          "internalType": "bytes32",
          "name": "role",
          "type": "bytes32"
        },
        {
          "internalType": "address",
          "name": "account",
          "type": "address"
        }
      ],
      "name": "revokeRole",
      "outputs": [],
      "stateMutability": "nonpayable",
      "type": "function"
    },
    {
      "inputs": [],
      "name": "seniorOverduePerecentage",
      "outputs": [
        {
          "internalType": "uint256",
          "name": "",
          "type": "uint256"
        }
      ],
      "stateMutability": "view",
      "type": "function"
    },
    {
      "inputs": [],
      "name": "seniorSubpoolDetails",
      "outputs": [
        {
          "internalType": "uint256",
          "name": "id",
          "type": "uint256"
        },
        {
          "internalType": "uint256",
          "name": "totalDepositable",
          "type": "uint256"
        },
        {
          "internalType": "uint256",
          "name": "depositedAmount",
          "type": "uint256"
        },
        {
          "internalType": "bool",
          "name": "isPoolLocked",
          "type": "bool"
        },
        {
          "internalType": "uint256",
          "name": "fundsLockedUntil",
          "type": "uint256"
        },
        {
          "internalType": "uint256",
          "name": "yieldGenerated",
          "type": "uint256"
        },
        {
          "internalType": "uint256",
          "name": "overdueGenerated",
          "type": "uint256"
        }
      ],
      "stateMutability": "view",
      "type": "function"
    },
    {
      "inputs": [],
      "name": "seniorYieldPerecentage",
      "outputs": [
        {
          "internalType": "uint256",
          "name": "",
          "type": "uint256"
        }
      ],
      "stateMutability": "view",
      "type": "function"
    },
    {
      "inputs": [
        {
          "internalType": "address",
          "name": "",
          "type": "address"
        }
      ],
      "name": "stakingBalance",
      "outputs": [
        {
          "internalType": "uint256",
          "name": "",
          "type": "uint256"
        }
      ],
      "stateMutability": "view",
      "type": "function"
    },
    {
      "inputs": [
        {
          "internalType": "bytes4",
          "name": "interfaceId",
          "type": "bytes4"
        }
      ],
      "name": "supportsInterface",
      "outputs": [
        {
          "internalType": "bool",
          "name": "",
          "type": "bool"
        }
      ],
      "stateMutability": "view",
      "type": "function"
    },
    {
      "inputs": [],
      "name": "totalOutstandingPrincipal",
      "outputs": [
        {
          "internalType": "uint256",
          "name": "",
          "type": "uint256"
        }
      ],
      "stateMutability": "view",
      "type": "function"
    },
    {
      "inputs": [],
      "name": "totalRepaidAmount",
      "outputs": [
        {
          "internalType": "uint256",
          "name": "",
          "type": "uint256"
        }
      ],
      "stateMutability": "view",
      "type": "function"
    },
    {
      "inputs": [],
      "name": "totalRepayments",
      "outputs": [
        {
          "internalType": "uint256",
          "name": "",
          "type": "uint256"
        }
      ],
      "stateMutability": "view",
      "type": "function"
    },
    {
      "inputs": [
        {
          "internalType": "uint8",
          "name": "_subpoolId",
          "type": "uint8"
        }
      ],
      "name": "unLockPool",
      "outputs": [],
      "stateMutability": "nonpayable",
      "type": "function"
    },
    {
      "inputs": [],
      "name": "unpause",
      "outputs": [],
      "stateMutability": "nonpayable",
      "type": "function"
    },
    {
      "inputs": [],
      "name": "unpauseDrawdown",
      "outputs": [],
      "stateMutability": "nonpayable",
      "type": "function"
    },
    {
      "inputs": [
        {
          "internalType": "address",
          "name": "newImplementation",
          "type": "address"
        }
      ],
      "name": "upgradeTo",
      "outputs": [],
      "stateMutability": "nonpayable",
      "type": "function"
    },
    {
      "inputs": [
        {
          "internalType": "address",
          "name": "newImplementation",
          "type": "address"
        },
        {
          "internalType": "bytes",
          "name": "data",
          "type": "bytes"
        }
      ],
      "name": "upgradeToAndCall",
      "outputs": [],
      "stateMutability": "payable",
      "type": "function"
    },
    {
      "inputs": [],
      "name": "usdcToken",
      "outputs": [
        {
          "internalType": "contract IERC20Upgradeable",
          "name": "",
          "type": "address"
        }
      ],
      "stateMutability": "view",
      "type": "function"
    },
    {
      "inputs": [
        {
          "internalType": "uint8",
          "name": "_subpoolId",
          "type": "uint8"
        }
      ],
      "name": "withdrawAll",
      "outputs": [
        {
          "internalType": "uint256",
          "name": "",
          "type": "uint256"
        }
      ],
      "stateMutability": "nonpayable",
      "type": "function"
    },
    {
      "inputs": [],
      "name": "writeOffOpportunity",
      "outputs": [],
      "stateMutability": "nonpayable",
      "type": "function"
    }
  ],
  "bytecode": "0x60a06040523060601b60805234801561001757600080fd5b5060805160601c61576b6200005360003960008181611b6601528181611ba601528181611c5e01528181611c9e0152611de6015261576b6000f3fe60806040526004361061032d5760003560e01c80636f49712b116101a7578063b6db75a0116100ed578063ddc22b7411610090578063ddc22b74146109ae578063dee05609146109d0578063df9fd1c1146109e7578063e77ef21f146109fc578063eedffb9614610a11578063f4d4c9d714610a28578063f51c879b14610a48578063ff3a564414610a5f57600080fd5b8063b6db75a0146108bd578063bbbf13ea146108d2578063c4f31a65146108e9578063c5e2bf1a14610909578063c8dd7bf314610929578063cab9bd0014610940578063d547741f14610979578063d661d3201461099957600080fd5b806396365d441161015557806396365d44146107ff57806399e7f250146108165780639b021fa21461082d5780639d585f7f146108445780639f964fe61461085b578063a12dde4d14610871578063a217fddf14610891578063a7292ea4146108a657600080fd5b80636f49712b146107415780637101fd16146107725780637a374e121461078757806383933a2b1461079e5780638456cb59146107b3578063891369b2146107c857806391d14854146107df57600080fd5b80632588d168116102775780634f1ef2861161021a5780634f1ef28614610674578063526d81f61461068757806352d1902d1461069c57806353654e85146106b15780635b483e4c146106d15780635c975abb146106e85780635fcbd285146107005780636a15633b1461072157600080fd5b80632588d168146105845780632f2ff15d146105a557806334d93fb4146105c557806336568abe146105da5780633659cfe6146105fa5780633f4ba83a1461061a57806345bc78ab1461062f57806346e35faa1461065d57600080fd5b806311eac855116102df57806311eac8551461048157806317cd802d146104ba5780631be95459146104cf5780631daa910e146104f05780631e0018d61461050757806322eac12c14610528578063248a9ca31461053f578063257c27361461056f57600080fd5b806301ffc9a714610332578063031994941461036757806304419b76146103d5578063074f25431461040257806307a7c08a146104255780630a2c15051461044f5780630b4a45fd1461046a575b600080fd5b34801561033e57600080fd5b5061035261034d366004614ecb565b610a76565b60405190151581526020015b60405180910390f35b34801561037357600080fd5b50610180546101815461018254610183546101845461018554610186546103a09695949360ff1692919087565b604080519788526020880196909652948601939093529015156060850152608084015260a083015260c082015260e00161035e565b3480156103e157600080fd5b50610165546103f09060ff1681565b60405160ff909116815260200161035e565b34801561040e57600080fd5b50610417610aad565b60405190815260200161035e565b34801561043157600080fd5b5061043a610ca9565b6040805192835260208301919091520161035e565b34801561045b57600080fd5b50610176546103529060ff1681565b34801561047657600080fd5b5061047f610d68565b005b34801561048d57600080fd5b50610162546104a2906001600160a01b031681565b6040516001600160a01b03909116815260200161035e565b3480156104c657600080fd5b5061047f610d9c565b3480156104db57600080fd5b5061015f546104a2906001600160a01b031681565b3480156104fc57600080fd5b506104176101735481565b34801561051357600080fd5b50610161546104a2906001600160a01b031681565b34801561053457600080fd5b5061041761016d5481565b34801561054b57600080fd5b5061041761055a366004614e6c565b60009081526065602052604090206001015490565b34801561057b57600080fd5b5061047f61164f565b34801561059057600080fd5b50610160546104a2906001600160a01b031681565b3480156105b157600080fd5b5061047f6105c0366004614e9c565b611a82565b3480156105d157600080fd5b5061047f611aac565b3480156105e657600080fd5b5061047f6105f5366004614e9c565b611add565b34801561060657600080fd5b5061047f610615366004614d87565b611b5b565b34801561062657600080fd5b5061047f611c24565b34801561063b57600080fd5b5061041761064a366004614d87565b6101776020526000908152604090205481565b34801561066957600080fd5b506104176101745481565b61047f610682366004614dbf565b611c53565b34801561069357600080fd5b5061047f611d09565b3480156106a857600080fd5b50610417611dd9565b3480156106bd57600080fd5b506104176106cc366004614fc1565b611e87565b3480156106dd57600080fd5b5061041761016e5481565b3480156106f457600080fd5b5060975460ff16610352565b34801561070c57600080fd5b50610163546104a2906001600160a01b031681565b34801561072d57600080fd5b5061047f61073c366004614fc1565b612439565b34801561074d57600080fd5b5061035261075c366004614d87565b6101786020526000908152604090205460ff1681565b34801561077e57600080fd5b506104176124ba565b34801561079357600080fd5b5061041761016f5481565b3480156107aa57600080fd5b5061041761261f565b3480156107bf57600080fd5b5061047f61266e565b3480156107d457600080fd5b506104176101705481565b3480156107eb57600080fd5b506103526107fa366004614e9c565b61269d565b34801561080b57600080fd5b5061041761016a5481565b34801561082257600080fd5b506104176101675481565b34801561083957600080fd5b5061041761016c5481565b34801561085057600080fd5b506104176101665481565b34801561086757600080fd5b5061017a54610417565b34801561087d57600080fd5b5061047f61088c366004614d87565b6126c8565b34801561089d57600080fd5b50610417600081565b3480156108b257600080fd5b506104176101685481565b3480156108c957600080fd5b5061035261279c565b3480156108de57600080fd5b5061041761016b5481565b3480156108f557600080fd5b5061047f610904366004614ef3565b6127a9565b34801561091557600080fd5b5061047f610924366004614fc1565b612df9565b34801561093557600080fd5b506104176101645481565b34801561094c57600080fd5b506101795461017a5461017b5461017c5461017d5461017e5461017f546103a09695949360ff1692919087565b34801561098557600080fd5b5061047f610994366004614e9c565b612e74565b3480156109a557600080fd5b50610417612e99565b3480156109ba57600080fd5b506109c3612ead565b60405161035e91906150a8565b3480156109dc57600080fd5b506104176101725481565b3480156109f357600080fd5b50610417612f34565b348015610a0857600080fd5b5061047f612f8a565b348015610a1d57600080fd5b506104176101755481565b348015610a3457600080fd5b5061047f610a43366004614fdb565b613227565b348015610a5457600080fd5b506104176101715481565b348015610a6b57600080fd5b506104176101695481565b60006001600160e01b03198216637965db0b60e01b1480610aa757506301ffc9a760e01b6001600160e01b03198316145b92915050565b600061016d5461016c541115610ade5760405162461bcd60e51b8152600401610ad590615467565b60405180910390fd5b6101605461016454604051630231155f60e51b81526001600160a01b0390921691634622abe091610b159160040190815260200190565b60206040518083038186803b158015610b2d57600080fd5b505afa158015610b41573d6000803e3d6000fd5b505050506040513d601f19601f82011682018060405250810190610b659190614e4c565b1515600114610b865760405162461bcd60e51b8152600401610ad590615355565b6101655460009060ff1660011415610c1c575061016e54426000610ba8612f34565b9050600081831115610c09576000610bcd62015180610bc78686613621565b90613634565b9050610c05620f42405b610bc761016e54610bff610bf8606461016f5461363490919063ffffffff16565b8690613640565b90613640565b9150505b610c13848261364c565b95945050505050565b5061016e54426000610c2c612f34565b9050600081831115610c77576000610c4b62015180610bc78686613621565b9050610c73620f42405b610bc787610bff610bf8606461016f5461363490919063ffffffff16565b9150505b610c81848261364c565b935061016d5461016c541415610ca05761016654610c1390859061364c565b5050505b919050565b6000806000610cc2610171546101695461016854613658565b61015f54909150600090610cf790610ce2906001600160a01b0316613739565b610ced9060016154f3565b6101665490613634565b61015f54909150600090610d1e90610d17906001600160a01b0316613739565b8390613640565b90506000610d3c84610bc7610172548561364090919063ffffffff16565b90506000610d5a85610bc7610173548761364090919063ffffffff16565b919791965090945050505050565b610d7061279c565b610d8c5760405162461bcd60e51b8152600401610ad59061541c565b610176805460ff19166001179055565b610da46137ba565b610db5610daf613814565b3361269d565b610dd15760405162461bcd60e51b8152600401610ad590615307565b61016d5461016c541115610df75760405162461bcd60e51b8152600401610ad590615467565b6101605461016454604051630231155f60e51b81526001600160a01b0390921691634622abe091610e2e9160040190815260200190565b60206040518083038186803b158015610e4657600080fd5b505afa158015610e5a573d6000803e3d6000fd5b505050506040513d601f19601f82011682018060405250810190610e7e9190614e4c565b1515600114610e9f5760405162461bcd60e51b8152600401610ad590615355565b426000610eaa612f34565b9050600081831115610edb576000610ec962015180610bc78686613621565b9050610ed7620f4240610bd7565b9150505b6101655460ff16600114156111f25761016e546101708054829190600090610f049084906154f3565b925050819055506000610f21610171546101695461016854613658565b90506000610f3b8261016e5461362190919063ffffffff16565b61015f54909150610f6d90610f6390610f5c906001600160a01b0316613838565b8390613621565b6101715490613621565b6101715561015f54600090610fa290610f9b90600190610f95906001600160a01b0316613739565b9061364c565b8390613634565b61015f54909150600090610fc290610d17906001600160a01b0316613739565b61017b54909150610fd3908261364c565b61017b5561018254610fe5908361364c565b6101825561015f54600090819061104390611008906001600160a01b0316613850565b61015f5461101e906001600160a01b0316613868565b61015f548990611036906001600160a01b0316613739565b6101665461017a54613880565b61017e549193509150611056908361364c565b61017e5561018554611068908261364c565b6101855561108e611084620f424061017554610bc7908c613640565b610186549061364c565b610186556110b46110aa620f424061017454610bc7908c613640565b61017f549061364c565b61017f5560006110e2620f424061015f54610bc7906110db906001600160a01b0316613850565b8a90613640565b905061110c620f424061015f54610bc790611105906001600160a01b0316613850565b8c90613640565b61111690826154f3565b9050611122888a61364c565b61016a54909850611133908961364c565b61016a5561016254611150906001600160a01b031633308b6139e4565b6101625461015f546001600160a01b039182169163a9059cbb916111749116613a44565b836040518363ffffffff1660e01b815260040161119292919061508f565b602060405180830381600087803b1580156111ac57600080fd5b505af11580156111c0573d6000803e3d6000fd5b505050506040513d601f19601f820116820180604052508101906111e49190614e4c565b50505050505050505061143f565b600061016e54905080610170600082825461120d91906154f3565b909155505061015f54600090819061125f90611231906001600160a01b0316613850565b61015f54611247906001600160a01b0316613868565b61015f548690611036906001600160a01b0316613739565b61017e549193509150611272908361364c565b61017e5561018554611284908261364c565b610185556112a0611084620f424061017554610bc79088613640565b610186556112bc6110aa620f424061017454610bc79088613640565b61017f5560006112ea620f424061015f54610bc7906112e3906001600160a01b0316613850565b8790613640565b9050611314620f424061015f54610bc79061130d906001600160a01b0316613850565b8890613640565b61131e90826154f3565b905061016d5461016c54141561136d576101665461133d90859061364c565b9350611358610166546101705461364c90919063ffffffff16565b6101705561017a5461017b5561018154610182555b611377848661364c565b61016a54909450611388908561364c565b61016a55610162546113a5906001600160a01b03163330876139e4565b6101625461015f546001600160a01b039182169163a9059cbb916113c99116613a44565b836040518363ffffffff1660e01b81526004016113e792919061508f565b602060405180830381600087803b15801561140157600080fd5b505af1158015611415573d6000803e3d6000fd5b505050506040513d601f19601f820116820180604052508101906114399190614e4c565b50505050505b61016d5461016c54141561162d5761016054610164546040516319978a4360e11b81526001600160a01b039092169163332f1486916114849160040190815260200190565b600060405180830381600087803b15801561149e57600080fd5b505af11580156114b2573d6000803e3d6000fd5b505061015f546114cd92506001600160a01b03169050613ac6565b61016454604051630387c6d160e31b8152600060048201819052602482019290925260448101919091526001600160a01b039190911690631c3e368890606401600060405180830381600087803b15801561152757600080fd5b505af115801561153b573d6000803e3d6000fd5b505061017e5461017b546000935061155492509061364c565b61017f54909150156115785761017f5461156f90829061364c565b600061017f5590505b600061017b81905561017e5561016a546115929082613621565b61016a556101625461015f546001600160a01b039182169163a9059cbb916115ba9116613ac6565b836040518363ffffffff1660e01b81526004016115d892919061508f565b602060405180830381600087803b1580156115f257600080fd5b505af1158015611606573d6000803e3d6000fd5b505050506040513d601f19601f8201168201806040525081019061162a9190614e4c565b50505b61016c5461163c90600161364c565b61016c555061164d9150613ade9050565b565b6101605461016454604051631a054c8b60e21b81526001600160a01b0390921691636815322c916116869160040190815260200190565b60206040518083038186803b15801561169e57600080fd5b505afa1580156116b2573d6000803e3d6000fd5b505050506040513d601f19601f820116820180604052508101906116d69190614e4c565b15156001146117395760405162461bcd60e51b815260206004820152602960248201527f4f70706f7274756e69747920706f6f6c20697320686176656e2774205772697460448201526832b7b333103cb2ba1760b91b6064820152608401610ad5565b61015f5461174f906001600160a01b0316613ae5565b6001600160a01b0316336001600160a01b0316146117c85760405162461bcd60e51b815260206004820152603060248201527f4f6e6c79204f70706f7274756e6974794f726967696e6174696f6e2063616e2060448201526f32bc32b1baba32903bb934ba32b7b33360811b6064820152608401610ad5565b61015f546000906117fd906117ec90600190610f95906001600160a01b0316613739565b61016d5461016654610bc791613640565b61015f5490915060009061181d90610d17906001600160a01b0316613739565b90506000611836620f424061017254610bc79085613640565b6101655490915060009060ff166001141561189157426000611856612f34565b905060008183111561188757600061187562015180610bc78686613621565b9050611883620f4240610bd7565b9150505b92506118d7915050565b61016e544260006118a0612f34565b90506000818311156118d15760006118bf62015180610bc78686613621565b90506118cd620f4240610c55565b9150505b93505050505b6118ec620f424061017454610bc79084613640565b61017f5490915060009061190090836154f3565b61017a5490915060009061191485846154f3565b61191e91906154f3565b90508061016a5411156119c85761015f54611941906001600160a01b0316613ac6565b61016454604051630387c6d160e31b8152600160048201526024810191909152604481018390526001600160a01b039190911690631c3e368890606401600060405180830381600087803b15801561199857600080fd5b505af11580156119ac573d6000803e3d6000fd5b5050600061017f81905561017b81905561017e5550611a7a9050565b61015f546119de906001600160a01b0316613ac6565b6101645461016a54604051630387c6d160e31b815260016004820152602481019290925260448201526001600160a01b039190911690631c3e368890606401600060405180830381600087803b158015611a3757600080fd5b505af1158015611a4b573d6000803e3d6000fd5b5050600061016a81905561017f81905561017b81905561017e8190556101868190556101828190556101855550505b505050505050565b600082815260656020526040902060010154611a9d81613afd565b611aa78383613b07565b505050565b611ab461279c565b611ad05760405162461bcd60e51b8152600401610ad59061541c565b610176805460ff19169055565b6001600160a01b0381163314611b4d5760405162461bcd60e51b815260206004820152602f60248201527f416363657373436f6e74726f6c3a2063616e206f6e6c792072656e6f756e636560448201526e103937b632b9903337b91039b2b63360891b6064820152608401610ad5565b611b578282613b8d565b5050565b306001600160a01b037f0000000000000000000000000000000000000000000000000000000000000000161415611ba45760405162461bcd60e51b8152600401610ad590615159565b7f00000000000000000000000000000000000000000000000000000000000000006001600160a01b0316611bd6613bf4565b6001600160a01b031614611bfc5760405162461bcd60e51b8152600401610ad5906151a5565b611c0581613c10565b60408051600080825260208201909252611c2191839190613c34565b50565b611c2f610daf613dae565b611c4b5760405162461bcd60e51b8152600401610ad59061510d565b61164d613dd2565b306001600160a01b037f0000000000000000000000000000000000000000000000000000000000000000161415611c9c5760405162461bcd60e51b8152600401610ad590615159565b7f00000000000000000000000000000000000000000000000000000000000000006001600160a01b0316611cce613bf4565b6001600160a01b031614611cf45760405162461bcd60e51b8152600401610ad5906151a5565b611cfd82613c10565b611b5782826001613c34565b600054610100900460ff1615808015611d295750600054600160ff909116105b80611d4a5750611d3830613e24565b158015611d4a575060005460ff166001145b611d665760405162461bcd60e51b8152600401610ad5906151f1565b6000805460ff191660011790558015611d89576000805461ff0019166101001790555b611d91613e33565b8015611c21576000805461ff0019169055604051600181527f7f26b83ff96e1f2b6a682f133852f6798a09c465da95921460cefb38474024989060200160405180910390a150565b6000306001600160a01b037f00000000000000000000000000000000000000000000000000000000000000001614611e745760405162461bcd60e51b815260206004820152603860248201527f555550535570677261646561626c653a206d757374206e6f742062652063616c6044820152771b1959081d1a1c9bdd59da0819195b1959d85d1958d85b1b60421b6064820152608401610ad5565b506000805160206156ef83398151915290565b6000611e916137ba565b611e99613e66565b600160ff83161115611ebd5760405162461bcd60e51b8152600401610ad5906150db565b6101605461016454604051638176715560e01b81526001600160a01b0390921691638176715591611ef49160040190815260200190565b60206040518083038186803b158015611f0c57600080fd5b505afa158015611f20573d6000803e3d6000fd5b505050506040513d601f19601f82011682018060405250810190611f449190614e4c565b1515600114611f655760405162461bcd60e51b8152600401610ad590615355565b600060ff8316600114156120685761017c5460ff1615611f975760405162461bcd60e51b8152600401610ad5906153ea565b611fa2610daf613eac565b611fbe5760405162461bcd60e51b8152600401610ad59061529d565b61017b546120225760405162461bcd60e51b815260206004820152602b60248201527f62616c616e6365206f662073656e696f7220737562706f6f6c206973207a657260448201526a6f2063757272656e746c7960a81b6064820152608401610ad5565b61017e5461017b546120339161364c565b61017f54909150156120575761017f5461204e90829061364c565b600061017f5590505b600061017b81905561017e55612395565b60ff8316612395576101835460ff16156120945760405162461bcd60e51b8152600401610ad59061526b565b336000908152610178602052604090205460ff16151560011480156120c85750336000908152610177602052604090205415155b61210e5760405162461bcd60e51b81526020600482015260176024820152763d32b9379030b6b7bab73a103a37903232b837b9b4ba1760491b6044820152606401610ad5565b61015f54600090612127906001600160a01b0316613838565b61018254909150612138908261364c565b336000908152610177602052604090205411156121ad5760405162461bcd60e51b815260206004820152602d60248201527f63757272656e746c79206a756e696f7220737562706f6f6c20646f6e2774206860448201526c617665204c697175696469747960981b6064820152608401610ad5565b60006121d5620f42405b336000908152610177602052604090205461017354610bc791613640565b90506121e18183613621565b6101855490915081111561225d5760405162461bcd60e51b815260206004820152603d60248201527f63757272656e746c79206a756e696f7220737562706f6f6c207969656c64206960448201527f73206c657373207468616e20776861742069732067656e6572617465640000006064820152608401610ad5565b33600090815261017760205260408120546122789084613621565b610182549091506122899082613621565b610182556101855461229b9083613621565b6101855533600090815261017860205260409020805460ff191690556122c1818361364c565b61018654909450156123185760006122f5620f42405b336000908152610177602052604090205461017554610bc791613640565b9050612301858261364c565b610186549095506123129082613621565b61018655505b6101615461016454604051631bd3b3dd60e31b81526001600160a01b039092169163de9d9ee89161234e9133919060040161508f565b600060405180830381600087803b15801561236857600080fd5b505af115801561237c573d6000803e3d6000fd5b5050336000908152610177602052604081205550505050505b61016a546123a39082613621565b61016a556101625460405163a9059cbb60e01b81526001600160a01b039091169063a9059cbb906123da903390859060040161508f565b602060405180830381600087803b1580156123f457600080fd5b505af1158015612408573d6000803e3d6000fd5b505050506040513d601f19601f8201168201806040525081019061242c9190614e4c565b509050610ca4600160c955565b612444610daf613ed0565b6124605760405162461bcd60e51b8152600401610ad590615307565b600160ff821611156124845760405162461bcd60e51b8152600401610ad5906150db565b60ff8116600114156124a15761017c805460ff1916600117905550565b60ff8116611c2157610183805460ff1916600117905550565b336000908152610178602052604081205460ff16151560011480156124ee5750336000908152610177602052604090205415155b6125365760405162461bcd60e51b81526020600482015260196024820152783d32b9379030b6b7bab73a103a37903232b837b9b4ba32b21760391b6044820152606401610ad5565b6101605461016454604051638176715560e01b815260048101919091526000916001600160a01b03169063817671559060240160206040518083038186803b15801561258157600080fd5b505afa158015612595573d6000803e3d6000fd5b505050506040513d601f19601f820116820180604052508101906125b99190614e4c565b151560011415610ca45760006125d1620f42406121b7565b33600090815261017760205260409020549091506125ef908261364c565b6101865490925015612619576000612609620f42406122d7565b9050612615838261364c565b9250505b50919050565b61017c5460009060ff16156126465760405162461bcd60e51b8152600401610ad5906153ea565b61017e5461017b546126579161364c565b61017f5490915061266990829061364c565b905090565b612679610daf613dae565b6126955760405162461bcd60e51b8152600401610ad59061510d565b61164d613ef4565b60009182526065602090815260408084206001600160a01b0393909316845291905290205460ff1690565b600054610100900460ff166126ef5760405162461bcd60e51b8152600401610ad59061539f565b6001600160a01b0381166127455760405162461bcd60e51b815260206004820181905260248201527f4f776e65722063616e6e6f7420626520746865207a65726f20616464726573736044820152606401610ad5565b61274d613f31565b612755613e33565b61275d613f58565b61276e612768613f7f565b82613fa3565b612779612768613dae565b612791612784613dae565b61278c613f7f565b613fad565b611c21612784613f7f565b6000612669610daf613f7f565b600054610100900460ff16158080156127c95750600054600160ff909116105b806127ea57506127d830613e24565b1580156127ea575060005460ff166001145b6128065760405162461bcd60e51b8152600401610ad5906151f1565b6000805460ff191660011790558015612829576000805461ff0019166101001790555b6001600160a01b0388166128785760405162461bcd60e51b8152602060048201526016602482015275496e76616c696420636f6e666967206164647265737360501b6044820152606401610ad5565b61015f80546001600160a01b0319166001600160a01b038a169081179091556000906128a390613ff8565b90506001600160a01b0381166128eb5760405162461bcd60e51b815260206004820152600d60248201526c24b73b30b634b21027bbb732b960991b6044820152606401610ad5565b61015f54612901906001600160a01b0316613ae5565b61016080546001600160a01b0319166001600160a01b0392831617905561015f5461292c911661400f565b61016180546001600160a01b0319166001600160a01b0392909216919091179055612956816126c8565b61015f5461296c906001600160a01b0316614027565b61016280546001600160a01b0319166001600160a01b0392831617905561015f54612997911661403f565b61016380546001600160a01b0319166001600160a01b03929092169190911790556129c3612784613eac565b6129e96129ce613eac565b61015f546129e4906001600160a01b0316613ac6565b613fa3565b6129f4612784613814565b6129ff612784613ed0565b612a0a612768613ed0565b610160546040516339461f5160e11b8152600481018a90526000916001600160a01b03169063728c3ea29060240160206040518083038186803b158015612a5057600080fd5b505afa158015612a64573d6000803e3d6000fd5b505050506040513d601f19601f82011682018060405250810190612a889190614da3565b9050612a95612768613814565b610164899055610166889055610171889055610167879055610168869055610169859055600161016c55610165805460ff191660ff861617905561015f54604051633928f5e160e21b8152600481018b90526001600160a01b039091169063e4a3d7849060240160206040518083038186803b158015612b1457600080fd5b505afa158015612b28573d6000803e3d6000fd5b505050506040513d601f19601f82011682018060405250810190612b4c9190614e4c565b612bbd5761017c805460ff1916600117905561015f54600090612b7b90610ce2906001600160a01b0316613739565b61015f54909150612b9f90612b98906001600160a01b0316613739565b8290613640565b61017a81905561016654612bb39190615629565b6101815550612bd4565b610183805460ff191660011790556101665461017a555b6101695461016754612be591613634565b61016d556101655460ff1660011415612c1957612c10610166546101685461016d5461016954614057565b61016e55612c32565b612c2d610166546101685461016954614165565b61016e555b612c4e61016861015f54610bc7906001600160a01b03166141fa565b61016f5561015f54612cbe90612c6c906001600160a01b0316613850565b61015f54612c82906001600160a01b0316613868565b6101655461016e546101665461016d546101685461015f5460ff90951660011494612cb5906001600160a01b0316613739565b61016754614212565b6101735561017255612cce610ca9565b61017555610174556101625460405163095ea7b360e01b81526000916001600160a01b03169063095ea7b390612d0c9030906000199060040161508f565b602060405180830381600087803b158015612d2657600080fd5b505af1158015612d3a573d6000803e3d6000fd5b505050506040513d601f19601f82011682018060405250810190612d5e9190614e4c565b905080612da65760405162461bcd60e51b81526020600482015260166024820152754661696c656420746f20617070726f7665205553444360501b6044820152606401610ad5565b5050508015612def576000805461ff0019169055604051600181527f7f26b83ff96e1f2b6a682f133852f6798a09c465da95921460cefb38474024989060200160405180910390a15b5050505050505050565b612e04610daf613ed0565b612e205760405162461bcd60e51b8152600401610ad590615307565b600160ff82161115612e445760405162461bcd60e51b8152600401610ad5906150db565b60ff811660011415612e5e5761017c805460ff1916905550565b60ff8116611c2157610183805460ff1916905550565b600082815260656020526040902060010154612e8f81613afd565b611aa78383613b8d565b61017f5461017e54600091612669916154f3565b61016054610164546040516378023a5360e11b815260048101919091526060916001600160a01b03169063f00474a69060240160006040518083038186803b158015612ef857600080fd5b505afa158015612f0c573d6000803e3d6000fd5b505050506040513d6000823e601f3d908101601f191682016040526126699190810190614f57565b600061016d5461016c541115612f5c5760405162461bcd60e51b8152600401610ad590615467565b6000610aa7612f806101695462015180612f76919061560a565b61016c5490613640565b61016b549061364c565b612f926137ba565b612f9a613e66565b612fa5610daf613814565b612fc15760405162461bcd60e51b8152600401610ad590615307565b6101605461016454604051630231155f60e51b81526001600160a01b0390921691634622abe091612ff89160040190815260200190565b60206040518083038186803b15801561301057600080fd5b505afa158015613024573d6000803e3d6000fd5b505050506040513d601f19601f820116820180604052508101906130489190614e4c565b156130a85760405162461bcd60e51b815260206004820152602a60248201527f46756e647320696e206f70706f7274756e6974792061726520616c726561647960448201526910323930bbb237bbb71760b11b6064820152608401610ad5565b6101765460ff16156130f15760405162461bcd60e51b8152602060048201526012602482015271111c985dd91bdddb881a5cc81c185d5cd95960721b6044820152606401610ad5565b6101665461016a541461317c5760405162461bcd60e51b815260206004820152604760248201527f546f74616c204465706f736974656420616d6f756e7420696e206f70706f727460448201527f756e69747920706f6f6c206d75737420626520657175616c20746f206c6f616e60648201526608185b5bdd5b9d60ca1b608482015260a401610ad5565b61016a805460009182905561018282905561017b919091554261016b556101605461016454604051632bdfaa5160e21b81526001600160a01b039092169163af7ea944916131d09160040190815260200190565b600060405180830381600087803b1580156131ea57600080fd5b505af11580156131fe573d6000803e3d6000fd5b50506101625461321c92506001600160a01b031690503033846139e4565b5061164d600160c955565b61322f6137ba565b600160ff831611156132535760405162461bcd60e51b8152600401610ad5906150db565b600081116132a35760405162461bcd60e51b815260206004820181905260248201527f416d6f756e74204d7573742062652067726561746572207468616e207a65726f6044820152606401610ad5565b60ff82166001141561339b5761017c5460ff16156132d35760405162461bcd60e51b8152600401610ad5906153ea565b6132de610daf613eac565b6132fa5760405162461bcd60e51b8152600401610ad59061529d565b61017b5460009061330c90839061364c565b61017a549091508111156133835760405162461bcd60e51b815260206004820152603860248201527f416d6f756e7420657863656564732074686520546f74616c206465706f736974604482015277081b1a5b5a5d081bd9881cd95b9a5bdc881cdd589c1bdbdb60421b6064820152608401610ad5565b61017b54613391908361364c565b61017b55506135b2565b60ff82166135b2576101835460ff16156133c75760405162461bcd60e51b8152600401610ad59061526b565b610182546000906133d990839061364c565b610181549091508111156134505760405162461bcd60e51b815260206004820152603860248201527f416d6f756e7420657863656564732074686520546f74616c206465706f736974604482015277081b1a5b5a5d081bd9881a9d5b9a5bdc881cdd589c1bdbdb60421b6064820152608401610ad5565b6101825461345e908361364c565b61018255336000908152610177602052604090205461347d908361364c565b33600081815261017760209081526040808320949094556101789052829020805460ff191660011790556101615461016454925163e954539d60e01b81526001600160a01b03919091169263e954539d926134dd9290919060040161508f565b60206040518083038186803b1580156134f557600080fd5b505afa158015613509573d6000803e3d6000fd5b505050506040513d601f19601f8201168201806040525081019061352d9190614e4c565b61359a576101615461016454604051635345099160e11b81526001600160a01b039092169163a68a1322916135679133919060040161508f565b600060405180830381600087803b15801561358157600080fd5b505af1158015613595573d6000803e3d6000fd5b505050505b6101815481106135b05761017c805460ff191690555b505b61016a546135c0908261364c565b61016a55610162546135dd906001600160a01b03163330846139e4565b60405181815260ff83169033907f1d0787aee899a49ef81d0b11da9aca5455b46aefed042a41bd398d74619cab009060200160405180910390a3611b57600160c955565b600061362d8284615629565b9392505050565b600061362d828461550b565b600061362d828461560a565b600061362d82846154f3565b600080841180156136695750600083115b80156136755750600082115b6136915760405162461bcd60e51b8152600401610ad59061523f565b60006136d96136c36136a485600661442b565b676765c793fa10079d601b1b6101685b6136be919061560a565b6144a1565b6136be676765c793fa10079d601b1b606461560a565b905060006136fb826136f6676765c793fa10079d601b1b8861560a565b6144d1565b9050600061370a87600661442b565b9050600061371882846144d1565b905061372d81683635c9adc5dea00000613634565b98975050505050505050565b60006001600160a01b03821663fc563658825b6040518263ffffffff1660e01b815260040161376a91815260200190565b60206040518083038186803b15801561378257600080fd5b505afa158015613796573d6000803e3d6000fd5b505050506040513d601f19601f82011682018060405250810190610aa79190614e84565b600260c954141561380d5760405162461bcd60e51b815260206004820152601f60248201527f5265656e7472616e637947756172643a207265656e7472616e742063616c6c006044820152606401610ad5565b600260c955565b7f2344277e405079ec07749d374ba0b5862a4e45a6a05ac889dbb4a991c6f9354d90565b60006001600160a01b03821663fc563658600661374c565b60006001600160a01b03821663fc563658600161374c565b60006001600160a01b03821663fc563658600361374c565b6000806000881180156138935750600087115b801561389f5750600086115b80156138ab5750600085115b80156138b75750600084115b80156138c35750600083115b6138df5760405162461bcd60e51b8152600401610ad59061523f565b60006138ec89600661442b565b905060006138fb89600661442b565b9050600061390a89600661442b565b9050600061391987600661442b565b9050600061392889600661442b565b9050600061393f61393985856144d1565b836144a1565b9050600061394d82876144d1565b9050600061396d61396784613962868c6144d1565b614502565b83614502565b90506000613988613982886136f6888a614502565b866144a1565b905060006139a361399d83613962858e6144d1565b85614558565b90506139b883683635c9adc5dea00000613634565b6139cb82683635c9adc5dea00000613634565b9b509b5050505050505050505050965096945050505050565b604080516001600160a01b0385811660248301528416604482015260648082018490528251808303909101815260849091019091526020810180516001600160e01b03166323b872dd60e01b179052613a3e9085906145ad565b50505050565b60006001600160a01b03821663b93f9b0a60085b6040518263ffffffff1660e01b8152600401613a7691815260200190565b60206040518083038186803b158015613a8e57600080fd5b505afa158015613aa2573d6000803e3d6000fd5b505050506040513d601f19601f82011682018060405250810190610aa79190614da3565b60006001600160a01b03821663b93f9b0a6003613a58565b600160c955565b60006001600160a01b03821663b93f9b0a6006613a58565b611c21813361467f565b613b11828261269d565b611b575760008281526065602090815260408083206001600160a01b03851684529091529020805460ff19166001179055613b493390565b6001600160a01b0316816001600160a01b0316837f2f8788117e7eff1d82e926ec794901d17c78024a50270940304540a733656f0d60405160405180910390a45050565b613b97828261269d565b15611b575760008281526065602090815260408083206001600160a01b0385168085529252808320805460ff1916905551339285917ff6391f5c32d9c69d2a47ea670b442974b53935d1edc7fd64eb21e047a839171b9190a45050565b6000805160206156ef833981519152546001600160a01b031690565b613c1861279c565b611c215760405162461bcd60e51b8152600401610ad59061541c565b7f4910fdfa16fed3260ed0e7147f7cc6da11a60208b5b9406d12a635614ffd91435460ff1615613c6757611aa7836146d8565b826001600160a01b03166352d1902d6040518163ffffffff1660e01b815260040160206040518083038186803b158015613ca057600080fd5b505afa925050508015613cd0575060408051601f3d908101601f19168201909252613ccd91810190614e84565b60015b613d335760405162461bcd60e51b815260206004820152602e60248201527f45524331393637557067726164653a206e657720696d706c656d656e7461746960448201526d6f6e206973206e6f74205555505360901b6064820152608401610ad5565b6000805160206156ef8339815191528114613da25760405162461bcd60e51b815260206004820152602960248201527f45524331393637557067726164653a20756e737570706f727465642070726f786044820152681a58589b195555525160ba1b6064820152608401610ad5565b50611aa7838383614772565b7f65d7a28e3265b37a6474929f336521b332c1681b933f6cb9f3376673440d862a90565b613dda614797565b6097805460ff191690557f5db9ee0a495bf2e6ff9c91a7834c1ba4fdd244a5e8aa4e537bd38aeae4b073aa335b6040516001600160a01b03909116815260200160405180910390a1565b6001600160a01b03163b151590565b600054610100900460ff16613e5a5760405162461bcd60e51b8152600401610ad59061539f565b6097805460ff19169055565b60975460ff161561164d5760405162461bcd60e51b815260206004820152601060248201526f14185d5cd8589b194e881c185d5cd95960821b6044820152606401610ad5565b7fa794a061bac4a541306b6778cc120a221216f325de0020c39b67101d49158ca290565b7ffa4b6f760d780a02797df53a6c2ccf476001dc02ee4f9b6b1426dafc21ff6baf90565b613efc613e66565b6097805460ff191660011790557f62e78cea01bee320cd4e420270b5ea74000d11b0c9f74754ebdbfc544b05a258613e073390565b600054610100900460ff1661164d5760405162461bcd60e51b8152600401610ad59061539f565b600054610100900460ff16613ade5760405162461bcd60e51b8152600401610ad59061539f565b7fa49807205ce4d355092ef5a8a18f56e8913cf4a201fbe287825b095693c2177590565b611b578282613b07565b600082815260656020526040808220600101805490849055905190918391839186917fbd79b86ffe0ab8e8776151514217cd7cacd52c909f66475c3af44e129f0b00ff9190a4505050565b60006001600160a01b03821663b93f9b0a82613a58565b60006001600160a01b03821663b93f9b0a6007613a58565b60006001600160a01b03821663b93f9b0a6002613a58565b60006001600160a01b03821663b93f9b0a6001613a58565b600080851180156140685750600084115b80156140745750600083115b80156140805750600082115b61409c5760405162461bcd60e51b8152600401610ad59061523f565b60006140aa83610168610bc7565b905060006140d46136c36140bf88600661442b565b6136be676765c793fa10079d601b1b8661560a565b905060006140ed676765c793fa10079d601b1b8361364c565b905060006140fb82886147e0565b9050600061410a8a600661442b565b90506000614127836136be676765c793fa10079d601b1b82615629565b9050600061413e61413884886144d1565b836144d1565b905061415381683635c9adc5dea00000613634565b9750505050505050505b949350505050565b600080841180156141765750600083115b80156141825750600082115b61419e5760405162461bcd60e51b8152600401610ad59061523f565b60006141c76136c36141b186600661442b565b6136be676765c793fa10079d601b1b600c61560a565b905060006136fb826136f66141e7676765c793fa10079d601b1b8861560a565b676765c793fa10079d601b1b601e6136b4565b60006001600160a01b03821663fc563658600261374c565b60008060008b118015614225575060008a115b80156142315750600088115b801561423d5750600087115b80156142495750600086115b80156142555750600085115b80156142615750600084115b801561426d5750600083115b6142895760405162461bcd60e51b8152600401610ad59061523f565b60006142968c600661442b565b905060006142a58c600661442b565b905060008b1561430c5760006142bc8c600661442b565b905060006142d5676765c793fa10079d601b1b8c61560a565b905060006142e48d600661442b565b905060006142f561396785856144d1565b905061430181836144a1565b94505050505061433e565b600061431f6136c36136a48b600661442b565b905061433a816136f6676765c793fa10079d601b1b8a61560a565b9150505b600081116143885760405162461bcd60e51b8152602060048201526017602482015276125b9d985b1a59081a5b9d195c995cdd08185b5bdd5b9d604a1b6044820152606401610ad5565b60006143ac826136f66143a6676765c793fa10079d601b1b88614502565b86614502565b905060006143ec836136f66143cc676765c793fa10079d601b1b89614502565b6143e788676765c793fa10079d601b1b8f6136f6919061560a565b614558565b905061440182683635c9adc5dea00000613634565b61441482683635c9adc5dea00000613634565b965096505050505050995099975050505050505050565b6000601b82111561447e5760405162461bcd60e51b815260206004820152601d60248201527f64732d6d6174682d646563696d616c732d6f75742d6f662d72616e67650000006044820152606401610ad5565b600061448b601b84614502565b905061415d8461449c83600a615562565b614855565b6000816144c76144bc85676765c793fa10079d601b1b614855565b6143e760028661550b565b61362d919061550b565b6000676765c793fa10079d601b1b6144c76144ec8585614855565b6143e76002676765c793fa10079d601b1b61550b565b60008261450f8382615629565b9150811115610aa75760405162461bcd60e51b815260206004820152601560248201527464732d6d6174682d7375622d756e646572666c6f7760581b6044820152606401610ad5565b60008261456583826154f3565b9150811015610aa75760405162461bcd60e51b815260206004820152601460248201527364732d6d6174682d6164642d6f766572666c6f7760601b6044820152606401610ad5565b6000614602826040518060400160405280602081526020017f5361666545524332303a206c6f772d6c6576656c2063616c6c206661696c6564815250856001600160a01b03166148bc9092919063ffffffff16565b805190915015611aa757808060200190518101906146209190614e4c565b611aa75760405162461bcd60e51b815260206004820152602a60248201527f5361666545524332303a204552433230206f7065726174696f6e20646964206e6044820152691bdd081cdd58d8d9595960b21b6064820152608401610ad5565b614689828261269d565b611b5757614696816148cb565b6146a18360206148dd565b6040516020016146b2929190615020565b60408051601f198184030181529082905262461bcd60e51b8252610ad5916004016150a8565b6146e181613e24565b6147435760405162461bcd60e51b815260206004820152602d60248201527f455243313936373a206e657720696d706c656d656e746174696f6e206973206e60448201526c1bdd08184818dbdb9d1c9858dd609a1b6064820152608401610ad5565b6000805160206156ef83398151915280546001600160a01b0319166001600160a01b0392909216919091179055565b61477b83614abf565b6000825111806147885750805b15611aa757613a3e8383614aff565b60975460ff1661164d5760405162461bcd60e51b815260206004820152601460248201527314185d5cd8589b194e881b9bdd081c185d5cd95960621b6044820152606401610ad5565b60006147ed600283615683565b61480257676765c793fa10079d601b1b614804565b825b905061481160028361550b565b91505b8115610aa75761482483846144d1565b9250614831600283615683565b156148435761484081846144d1565b90505b61484e60028361550b565b9150614814565b60008115806148795750828261486b818361560a565b9250614877908361550b565b145b610aa75760405162461bcd60e51b815260206004820152601460248201527364732d6d6174682d6d756c2d6f766572666c6f7760601b6044820152606401610ad5565b606061415d8484600085614be8565b6060610aa76001600160a01b03831660145b606060006148ec83600261560a565b6148f79060026154f3565b67ffffffffffffffff81111561491d57634e487b7160e01b600052604160045260246000fd5b6040519080825280601f01601f191660200182016040528015614947576020820181803683370190505b509050600360fc1b8160008151811061497057634e487b7160e01b600052603260045260246000fd5b60200101906001600160f81b031916908160001a905350600f60fb1b816001815181106149ad57634e487b7160e01b600052603260045260246000fd5b60200101906001600160f81b031916908160001a90535060006149d184600261560a565b6149dc9060016154f3565b90505b6001811115614a70576f181899199a1a9b1b9c1cb0b131b232b360811b85600f1660108110614a1e57634e487b7160e01b600052603260045260246000fd5b1a60f81b828281518110614a4257634e487b7160e01b600052603260045260246000fd5b60200101906001600160f81b031916908160001a90535060049490941c93614a698161566c565b90506149df565b50831561362d5760405162461bcd60e51b815260206004820181905260248201527f537472696e67733a20686578206c656e67746820696e73756666696369656e746044820152606401610ad5565b614ac8816146d8565b6040516001600160a01b038216907fbc7cd75a20ee27fd9adebab32041f755214dbc6bffa90cc0225b39da2e5c2d3b90600090a250565b6060614b0a83613e24565b614b655760405162461bcd60e51b815260206004820152602660248201527f416464726573733a2064656c65676174652063616c6c20746f206e6f6e2d636f6044820152651b9d1c9858dd60d21b6064820152608401610ad5565b600080846001600160a01b031684604051614b809190615004565b600060405180830381855af49150503d8060008114614bbb576040519150601f19603f3d011682016040523d82523d6000602084013e614bc0565b606091505b5091509150610c13828260405180606001604052806027815260200161570f60279139614cc3565b606082471015614c495760405162461bcd60e51b815260206004820152602660248201527f416464726573733a20696e73756666696369656e742062616c616e636520666f6044820152651c8818d85b1b60d21b6064820152608401610ad5565b600080866001600160a01b03168587604051614c659190615004565b60006040518083038185875af1925050503d8060008114614ca2576040519150601f19603f3d011682016040523d82523d6000602084013e614ca7565b606091505b5091509150614cb887838387614cdc565b979650505050505050565b60608315614cd257508161362d565b61362d8383614d4c565b60608315614d46578251614d3f57614cf385613e24565b614d3f5760405162461bcd60e51b815260206004820152601d60248201527f416464726573733a2063616c6c20746f206e6f6e2d636f6e74726163740000006044820152606401610ad5565b508161415d565b61415d83835b815115614d5c5781518083602001fd5b8060405162461bcd60e51b8152600401610ad591906150a8565b803560ff81168114610ca457600080fd5b600060208284031215614d98578081fd5b813561362d816156d9565b600060208284031215614db4578081fd5b815161362d816156d9565b60008060408385031215614dd1578081fd5b8235614ddc816156d9565b9150602083013567ffffffffffffffff811115614df7578182fd5b8301601f81018513614e07578182fd5b8035614e1a614e15826154cb565b61549a565b818152866020838501011115614e2e578384fd5b81602084016020830137908101602001929092525090939092509050565b600060208284031215614e5d578081fd5b8151801515811461362d578182fd5b600060208284031215614e7d578081fd5b5035919050565b600060208284031215614e95578081fd5b5051919050565b60008060408385031215614eae578182fd5b823591506020830135614ec0816156d9565b809150509250929050565b600060208284031215614edc578081fd5b81356001600160e01b03198116811461362d578182fd5b600080600080600080600060e0888a031215614f0d578283fd5b8735614f18816156d9565b96506020880135955060408801359450606088013593506080880135925060a08801359150614f4960c08901614d76565b905092959891949750929550565b600060208284031215614f68578081fd5b815167ffffffffffffffff811115614f7e578182fd5b8201601f81018413614f8e578182fd5b8051614f9c614e15826154cb565b818152856020838501011115614fb0578384fd5b610c13826020830160208601615640565b600060208284031215614fd2578081fd5b61362d82614d76565b60008060408385031215614fed578081fd5b614ff683614d76565b946020939093013593505050565b60008251615016818460208701615640565b9190910192915050565b76020b1b1b2b9b9a1b7b73a3937b61d1030b1b1b7bab73a1604d1b815260008351615052816017850160208801615640565b7001034b99036b4b9b9b4b733903937b6329607d1b6017918401918201528351615083816028840160208801615640565b01602801949350505050565b6001600160a01b03929092168252602082015260400190565b60208152600082518060208401526150c7816040850160208701615640565b601f01601f19169190910160400192915050565b602080825260189082015277537562706f6f6c4944203a206f7574206f662072616e676560401b604082015260600190565b6020808252602c908201527f4d75737420686176652070617573657220726f6c6520746f20706572666f726d60408201526b103a3434b99030b1ba34b7b760a11b606082015260800190565b6020808252602c908201527f46756e6374696f6e206d7573742062652063616c6c6564207468726f7567682060408201526b19195b1959d85d1958d85b1b60a21b606082015260800190565b6020808252602c908201527f46756e6374696f6e206d7573742062652063616c6c6564207468726f7567682060408201526b6163746976652070726f787960a01b606082015260800190565b6020808252602e908201527f496e697469616c697a61626c653a20636f6e747261637420697320616c72656160408201526d191e481a5b9a5d1a585b1a5e995960921b606082015260800190565b602080825260129082015271496e76616c696420706172616d657465727360701b604082015260600190565b602080825260189082015277129d5b9a5bdc8814dd589c1bdbdb081a5cc81b1bd8dad95960421b604082015260600190565b60208082526044908201527f596f75206d75737420686176652053656e696f7220706f6f6c20726f6c65206960408201527f6e206f7264657220746f206465706f73697420696e2073656e696f72207375626060820152631c1bdbdb60e21b608082015260a00190565b6020808252602e908201527f4d757374206861766520626f72726f77657220726f6c6520746f20706572666f60408201526d3936903a3434b99030b1ba34b7b760911b606082015260800190565b6020808252602a908201527f46756e647320696e206f70706f7274756e69747920686176656e2774206472616040820152693bb237bbb7103cb2ba1760b11b606082015260800190565b6020808252602b908201527f496e697469616c697a61626c653a20636f6e7472616374206973206e6f74206960408201526a6e697469616c697a696e6760a81b606082015260800190565b60208082526018908201527714d95b9a5bdc8814dd589c1bdbdb081a5cc81b1bd8dad95960421b604082015260600190565b6020808252602b908201527f4d75737420686176652061646d696e20726f6c6520746f20706572666f726d2060408201526a3a3434b99030b1ba34b7b760a91b606082015260800190565b60208082526019908201527852657061796d656e742050726f6365737320697320646f6e6560381b604082015260600190565b604051601f8201601f1916810167ffffffffffffffff811182821017156154c3576154c36156c3565b604052919050565b600067ffffffffffffffff8211156154e5576154e56156c3565b50601f01601f191660200190565b6000821982111561550657615506615697565b500190565b60008261551a5761551a6156ad565b500490565b600181815b8085111561555a57816000190482111561554057615540615697565b8085161561554d57918102915b93841c9390800290615524565b509250929050565b600061362d838360008261557857506001610aa7565b8161558557506000610aa7565b816001811461559b57600281146155a5576155c1565b6001915050610aa7565b60ff8411156155b6576155b6615697565b50506001821b610aa7565b5060208310610133831016604e8410600b84101617156155e4575081810a610aa7565b6155ee838361551f565b806000190482111561560257615602615697565b029392505050565b600081600019048311821515161561562457615624615697565b500290565b60008282101561563b5761563b615697565b500390565b60005b8381101561565b578181015183820152602001615643565b83811115613a3e5750506000910152565b60008161567b5761567b615697565b506000190190565b600082615692576156926156ad565b500690565b634e487b7160e01b600052601160045260246000fd5b634e487b7160e01b600052601260045260246000fd5b634e487b7160e01b600052604160045260246000fd5b6001600160a01b0381168114611c2157600080fdfe360894a13ba1a3210667c828492db98dca3e2076cc3735a920a3ca505d382bbc416464726573733a206c6f772d6c6576656c2064656c65676174652063616c6c206661696c6564a26469706673582212201205056d23699d4e76a63a710f1924b2a6ab87921d91d52a3c9adeca672a5cb064736f6c63430008040033",
  "linkReferences": {},
  "deployedLinkReferences": {}
}