{
  "_format": "hh-sol-artifact-1",
  "contractName": "OpportunityPool",
  "sourceName": "contracts/protocol/OpportunityPool.sol",
  "abi": [
    {
      "anonymous": false,
      "inputs": [
        {
          "indexed": true,
          "internalType": "address",
          "name": "executor",
          "type": "address"
        },
        {
          "indexed": true,
          "internalType": "uint8",
          "name": "subpool",
          "type": "uint8"
        },
        {
          "indexed": false,
          "internalType": "uint256",
          "name": "amount",
          "type": "uint256"
        }
      ],
      "name": "Deposited",
      "type": "event"
    },
    {
      "anonymous": false,
      "inputs": [
        {
          "indexed": false,
          "internalType": "uint8",
          "name": "version",
          "type": "uint8"
        }
      ],
      "name": "Initialized",
      "type": "event"
    },
    {
      "anonymous": false,
      "inputs": [
        {
          "indexed": false,
          "internalType": "address",
          "name": "account",
          "type": "address"
        }
      ],
      "name": "Paused",
      "type": "event"
    },
    {
      "anonymous": false,
      "inputs": [
        {
          "indexed": true,
          "internalType": "bytes32",
          "name": "role",
          "type": "bytes32"
        },
        {
          "indexed": true,
          "internalType": "bytes32",
          "name": "previousAdminRole",
          "type": "bytes32"
        },
        {
          "indexed": true,
          "internalType": "bytes32",
          "name": "newAdminRole",
          "type": "bytes32"
        }
      ],
      "name": "RoleAdminChanged",
      "type": "event"
    },
    {
      "anonymous": false,
      "inputs": [
        {
          "indexed": true,
          "internalType": "bytes32",
          "name": "role",
          "type": "bytes32"
        },
        {
          "indexed": true,
          "internalType": "address",
          "name": "account",
          "type": "address"
        },
        {
          "indexed": true,
          "internalType": "address",
          "name": "sender",
          "type": "address"
        }
      ],
      "name": "RoleGranted",
      "type": "event"
    },
    {
      "anonymous": false,
      "inputs": [
        {
          "indexed": true,
          "internalType": "bytes32",
          "name": "role",
          "type": "bytes32"
        },
        {
          "indexed": true,
          "internalType": "address",
          "name": "account",
          "type": "address"
        },
        {
          "indexed": true,
          "internalType": "address",
          "name": "sender",
          "type": "address"
        }
      ],
      "name": "RoleRevoked",
      "type": "event"
    },
    {
      "anonymous": false,
      "inputs": [
        {
          "indexed": false,
          "internalType": "address",
          "name": "account",
          "type": "address"
        }
      ],
      "name": "Unpaused",
      "type": "event"
    },
    {
      "anonymous": false,
      "inputs": [
        {
          "indexed": true,
          "internalType": "address",
          "name": "executor",
          "type": "address"
        },
        {
          "indexed": true,
          "internalType": "uint8",
          "name": "subpool",
          "type": "uint8"
        },
        {
          "indexed": false,
          "internalType": "uint256",
          "name": "amount",
          "type": "uint256"
        }
      ],
      "name": "Withdrew",
      "type": "event"
    },
    {
      "inputs": [],
      "name": "ADMIN_ROLE",
      "outputs": [
        {
          "internalType": "bytes32",
          "name": "",
          "type": "bytes32"
        }
      ],
      "stateMutability": "view",
      "type": "function"
    },
    {
      "inputs": [],
      "name": "BORROWER_ROLE",
      "outputs": [
        {
          "internalType": "bytes32",
          "name": "",
          "type": "bytes32"
        }
      ],
      "stateMutability": "view",
      "type": "function"
    },
    {
      "inputs": [],
      "name": "DEFAULT_ADMIN_ROLE",
      "outputs": [
        {
          "internalType": "bytes32",
          "name": "",
          "type": "bytes32"
        }
      ],
      "stateMutability": "view",
      "type": "function"
    },
    {
      "inputs": [],
      "name": "PAUSER_ROLE",
      "outputs": [
        {
          "internalType": "bytes32",
          "name": "",
          "type": "bytes32"
        }
      ],
      "stateMutability": "view",
      "type": "function"
    },
    {
      "inputs": [],
      "name": "POOL_LOCKER_ROLE",
      "outputs": [
        {
          "internalType": "bytes32",
          "name": "",
          "type": "bytes32"
        }
      ],
      "stateMutability": "view",
      "type": "function"
    },
    {
      "inputs": [],
      "name": "SENIOR_POOL_ROLE",
      "outputs": [
        {
          "internalType": "bytes32",
          "name": "",
          "type": "bytes32"
        }
      ],
      "stateMutability": "view",
      "type": "function"
    },
    {
      "inputs": [
        {
          "internalType": "address",
          "name": "owner",
          "type": "address"
        }
      ],
      "name": "_BaseUpgradeablePausable_init",
      "outputs": [],
      "stateMutability": "nonpayable",
      "type": "function"
    },
    {
      "inputs": [],
      "name": "__PauserPausable__init",
      "outputs": [],
      "stateMutability": "nonpayable",
      "type": "function"
    },
    {
      "inputs": [],
      "name": "amountWithoutEMI",
      "outputs": [
        {
          "internalType": "uint256",
          "name": "",
          "type": "uint256"
        }
      ],
      "stateMutability": "view",
      "type": "function"
    },
    {
      "inputs": [],
      "name": "capitalLoss",
      "outputs": [
        {
          "internalType": "uint256",
          "name": "",
          "type": "uint256"
        }
      ],
      "stateMutability": "view",
      "type": "function"
    },
    {
      "inputs": [],
      "name": "collateralDocument",
      "outputs": [
        {
          "internalType": "string",
          "name": "",
          "type": "string"
        }
      ],
      "stateMutability": "view",
      "type": "function"
    },
    {
      "inputs": [],
      "name": "dailyInterestRate",
      "outputs": [
        {
          "internalType": "uint256",
          "name": "",
          "type": "uint256"
        }
      ],
      "stateMutability": "view",
      "type": "function"
    },
    {
      "inputs": [
        {
          "internalType": "uint8",
          "name": "_subpoolId",
          "type": "uint8"
        },
        {
          "internalType": "uint256",
          "name": "amount",
          "type": "uint256"
        }
      ],
      "name": "deposit",
      "outputs": [],
      "stateMutability": "nonpayable",
      "type": "function"
    },
    {
      "inputs": [],
      "name": "drawdown",
      "outputs": [],
      "stateMutability": "nonpayable",
      "type": "function"
    },
    {
      "inputs": [],
      "name": "dygnifyConfig",
      "outputs": [
        {
          "internalType": "contract DygnifyConfig",
          "name": "",
          "type": "address"
        }
      ],
      "stateMutability": "view",
      "type": "function"
    },
    {
      "inputs": [],
      "name": "emiAmount",
      "outputs": [
        {
          "internalType": "uint256",
          "name": "",
          "type": "uint256"
        }
      ],
      "stateMutability": "view",
      "type": "function"
    },
    {
      "inputs": [],
      "name": "getOverDuePercentage",
      "outputs": [
        {
          "internalType": "uint256",
          "name": "",
          "type": "uint256"
        },
        {
          "internalType": "uint256",
          "name": "",
          "type": "uint256"
        }
      ],
      "stateMutability": "view",
      "type": "function"
    },
    {
      "inputs": [],
      "name": "getRepaymentAmount",
      "outputs": [
        {
          "internalType": "uint256",
          "name": "",
          "type": "uint256"
        }
      ],
      "stateMutability": "view",
      "type": "function"
    },
    {
      "inputs": [
        {
          "internalType": "bytes32",
          "name": "role",
          "type": "bytes32"
        }
      ],
      "name": "getRoleAdmin",
      "outputs": [
        {
          "internalType": "bytes32",
          "name": "",
          "type": "bytes32"
        }
      ],
      "stateMutability": "view",
      "type": "function"
    },
    {
      "inputs": [],
      "name": "getSeniorProfit",
      "outputs": [
        {
          "internalType": "uint256",
          "name": "",
          "type": "uint256"
        }
      ],
      "stateMutability": "view",
      "type": "function"
    },
    {
      "inputs": [],
      "name": "getSeniorTotalDepositable",
      "outputs": [
        {
          "internalType": "uint256",
          "name": "",
          "type": "uint256"
        }
      ],
      "stateMutability": "view",
      "type": "function"
    },
    {
      "inputs": [],
      "name": "getYieldPercentage",
      "outputs": [
        {
          "internalType": "uint256",
          "name": "",
          "type": "uint256"
        },
        {
          "internalType": "uint256",
          "name": "",
          "type": "uint256"
        }
      ],
      "stateMutability": "view",
      "type": "function"
    },
    {
      "inputs": [
        {
          "internalType": "bytes32",
          "name": "role",
          "type": "bytes32"
        },
        {
          "internalType": "address",
          "name": "account",
          "type": "address"
        }
      ],
      "name": "grantRole",
      "outputs": [],
      "stateMutability": "nonpayable",
      "type": "function"
    },
    {
      "inputs": [
        {
          "internalType": "bytes32",
          "name": "role",
          "type": "bytes32"
        },
        {
          "internalType": "address",
          "name": "account",
          "type": "address"
        }
      ],
      "name": "hasRole",
      "outputs": [
        {
          "internalType": "bool",
          "name": "",
          "type": "bool"
        }
      ],
      "stateMutability": "view",
      "type": "function"
    },
    {
      "inputs": [
        {
          "internalType": "contract DygnifyConfig",
          "name": "_dygnifyConfig",
          "type": "address"
        },
        {
          "internalType": "bytes32",
          "name": "_opportunityID",
          "type": "bytes32"
        },
        {
          "internalType": "string",
          "name": "_opportunityInfo",
          "type": "string"
        },
        {
          "internalType": "uint8",
          "name": "_loanType",
          "type": "uint8"
        },
        {
          "internalType": "uint256",
          "name": "_loanAmount",
          "type": "uint256"
        },
        {
          "internalType": "uint256",
          "name": "_loanTenureInDays",
          "type": "uint256"
        },
        {
          "internalType": "uint256",
          "name": "_loanInterest",
          "type": "uint256"
        },
        {
          "internalType": "uint256",
          "name": "_paymentFrequencyInDays",
          "type": "uint256"
        },
        {
          "internalType": "string",
          "name": "_collateralDocument",
          "type": "string"
        },
        {
          "internalType": "uint256",
          "name": "_capitalLoss",
          "type": "uint256"
        }
      ],
      "name": "initialize",
      "outputs": [],
      "stateMutability": "nonpayable",
      "type": "function"
    },
    {
      "inputs": [],
      "name": "investor",
      "outputs": [
        {
          "internalType": "contract Investor",
          "name": "",
          "type": "address"
        }
      ],
      "stateMutability": "view",
      "type": "function"
    },
    {
      "inputs": [],
      "name": "isAdmin",
      "outputs": [
        {
          "internalType": "bool",
          "name": "",
          "type": "bool"
        }
      ],
      "stateMutability": "view",
      "type": "function"
    },
    {
      "inputs": [],
      "name": "isDrawdownsPaused",
      "outputs": [
        {
          "internalType": "bool",
          "name": "",
          "type": "bool"
        }
      ],
      "stateMutability": "view",
      "type": "function"
    },
    {
      "inputs": [
        {
          "internalType": "address",
          "name": "",
          "type": "address"
        }
      ],
      "name": "isStaking",
      "outputs": [
        {
          "internalType": "bool",
          "name": "",
          "type": "bool"
        }
      ],
      "stateMutability": "view",
      "type": "function"
    },
    {
      "inputs": [],
      "name": "juniorOverduePerecentage",
      "outputs": [
        {
          "internalType": "uint256",
          "name": "",
          "type": "uint256"
        }
      ],
      "stateMutability": "view",
      "type": "function"
    },
    {
      "inputs": [],
      "name": "juniorSubpoolDetails",
      "outputs": [
        {
          "internalType": "uint256",
          "name": "id",
          "type": "uint256"
        },
        {
          "internalType": "uint256",
          "name": "totalDepositable",
          "type": "uint256"
        },
        {
          "internalType": "uint256",
          "name": "depositedAmount",
          "type": "uint256"
        },
        {
          "internalType": "bool",
          "name": "isPoolLocked",
          "type": "bool"
        },
        {
          "internalType": "uint256",
          "name": "fundsLockedUntil",
          "type": "uint256"
        },
        {
          "internalType": "uint256",
          "name": "yieldGenerated",
          "type": "uint256"
        },
        {
          "internalType": "uint256",
          "name": "overdueGenerated",
          "type": "uint256"
        }
      ],
      "stateMutability": "view",
      "type": "function"
    },
    {
      "inputs": [],
      "name": "juniorYieldPerecentage",
      "outputs": [
        {
          "internalType": "uint256",
          "name": "",
          "type": "uint256"
        }
      ],
      "stateMutability": "view",
      "type": "function"
    },
    {
      "inputs": [],
      "name": "loanAmount",
      "outputs": [
        {
          "internalType": "uint256",
          "name": "",
          "type": "uint256"
        }
      ],
      "stateMutability": "view",
      "type": "function"
    },
    {
      "inputs": [],
      "name": "loanInterest",
      "outputs": [
        {
          "internalType": "uint256",
          "name": "",
          "type": "uint256"
        }
      ],
      "stateMutability": "view",
      "type": "function"
    },
    {
      "inputs": [],
      "name": "loanTenureInDays",
      "outputs": [
        {
          "internalType": "uint256",
          "name": "",
          "type": "uint256"
        }
      ],
      "stateMutability": "view",
      "type": "function"
    },
    {
      "inputs": [],
      "name": "loanType",
      "outputs": [
        {
          "internalType": "uint8",
          "name": "",
          "type": "uint8"
        }
      ],
      "stateMutability": "view",
      "type": "function"
    },
    {
      "inputs": [
        {
          "internalType": "uint8",
          "name": "_subpoolId",
          "type": "uint8"
        }
      ],
      "name": "lockPool",
      "outputs": [],
      "stateMutability": "nonpayable",
      "type": "function"
    },
    {
      "inputs": [],
      "name": "lpToken",
      "outputs": [
        {
          "internalType": "contract LPToken",
          "name": "",
          "type": "address"
        }
      ],
      "stateMutability": "view",
      "type": "function"
    },
    {
      "inputs": [],
      "name": "nextRepaymentTime",
      "outputs": [
        {
          "internalType": "uint256",
          "name": "",
          "type": "uint256"
        }
      ],
      "stateMutability": "view",
      "type": "function"
    },
    {
      "inputs": [],
      "name": "opportunityID",
      "outputs": [
        {
          "internalType": "bytes32",
          "name": "",
          "type": "bytes32"
        }
      ],
      "stateMutability": "view",
      "type": "function"
    },
    {
      "inputs": [],
      "name": "opportunityInfo",
      "outputs": [
        {
          "internalType": "string",
          "name": "",
          "type": "string"
        }
      ],
      "stateMutability": "view",
      "type": "function"
    },
    {
      "inputs": [],
      "name": "opportunityOrigination",
      "outputs": [
        {
          "internalType": "contract OpportunityOrigination",
          "name": "",
          "type": "address"
        }
      ],
      "stateMutability": "view",
      "type": "function"
    },
    {
      "inputs": [],
      "name": "pause",
      "outputs": [],
      "stateMutability": "nonpayable",
      "type": "function"
    },
    {
      "inputs": [],
      "name": "pauseDrawdown",
      "outputs": [],
      "stateMutability": "nonpayable",
      "type": "function"
    },
    {
      "inputs": [],
      "name": "paused",
      "outputs": [
        {
          "internalType": "bool",
          "name": "",
          "type": "bool"
        }
      ],
      "stateMutability": "view",
      "type": "function"
    },
    {
      "inputs": [],
      "name": "paymentFrequencyInDays",
      "outputs": [
        {
          "internalType": "uint256",
          "name": "",
          "type": "uint256"
        }
      ],
      "stateMutability": "view",
      "type": "function"
    },
    {
      "inputs": [],
      "name": "poolBalance",
      "outputs": [
        {
          "internalType": "uint256",
          "name": "",
          "type": "uint256"
        }
      ],
      "stateMutability": "view",
      "type": "function"
    },
    {
      "inputs": [
        {
          "internalType": "bytes32",
          "name": "role",
          "type": "bytes32"
        },
        {
          "internalType": "address",
          "name": "account",
          "type": "address"
        }
      ],
      "name": "renounceRole",
      "outputs": [],
      "stateMutability": "nonpayable",
      "type": "function"
    },
    {
      "inputs": [],
      "name": "repayment",
      "outputs": [],
      "stateMutability": "nonpayable",
      "type": "function"
    },
    {
      "inputs": [],
      "name": "repaymentCounter",
      "outputs": [
        {
          "internalType": "uint256",
          "name": "",
          "type": "uint256"
        }
      ],
      "stateMutability": "view",
      "type": "function"
    },
    {
      "inputs": [],
      "name": "repaymentStartTime",
      "outputs": [
        {
          "internalType": "uint256",
          "name": "",
          "type": "uint256"
        }
      ],
      "stateMutability": "view",
      "type": "function"
    },
    {
      "inputs": [
        {
          "internalType": "bytes32",
          "name": "role",
          "type": "bytes32"
        },
        {
          "internalType": "address",
          "name": "account",
          "type": "address"
        }
      ],
      "name": "revokeRole",
      "outputs": [],
      "stateMutability": "nonpayable",
      "type": "function"
    },
    {
      "inputs": [],
      "name": "seniorOverduePerecentage",
      "outputs": [
        {
          "internalType": "uint256",
          "name": "",
          "type": "uint256"
        }
      ],
      "stateMutability": "view",
      "type": "function"
    },
    {
      "inputs": [],
      "name": "seniorSubpoolDetails",
      "outputs": [
        {
          "internalType": "uint256",
          "name": "id",
          "type": "uint256"
        },
        {
          "internalType": "uint256",
          "name": "totalDepositable",
          "type": "uint256"
        },
        {
          "internalType": "uint256",
          "name": "depositedAmount",
          "type": "uint256"
        },
        {
          "internalType": "bool",
          "name": "isPoolLocked",
          "type": "bool"
        },
        {
          "internalType": "uint256",
          "name": "fundsLockedUntil",
          "type": "uint256"
        },
        {
          "internalType": "uint256",
          "name": "yieldGenerated",
          "type": "uint256"
        },
        {
          "internalType": "uint256",
          "name": "overdueGenerated",
          "type": "uint256"
        }
      ],
      "stateMutability": "view",
      "type": "function"
    },
    {
      "inputs": [],
      "name": "seniorYieldPerecentage",
      "outputs": [
        {
          "internalType": "uint256",
          "name": "",
          "type": "uint256"
        }
      ],
      "stateMutability": "view",
      "type": "function"
    },
    {
      "inputs": [
        {
          "internalType": "address",
          "name": "",
          "type": "address"
        }
      ],
      "name": "stakingBalance",
      "outputs": [
        {
          "internalType": "uint256",
          "name": "",
          "type": "uint256"
        }
      ],
      "stateMutability": "view",
      "type": "function"
    },
    {
      "inputs": [
        {
          "internalType": "bytes4",
          "name": "interfaceId",
          "type": "bytes4"
        }
      ],
      "name": "supportsInterface",
      "outputs": [
        {
          "internalType": "bool",
          "name": "",
          "type": "bool"
        }
      ],
      "stateMutability": "view",
      "type": "function"
    },
    {
      "inputs": [],
      "name": "totalRepaidAmount",
      "outputs": [
        {
          "internalType": "uint256",
          "name": "",
          "type": "uint256"
        }
      ],
      "stateMutability": "view",
      "type": "function"
    },
    {
      "inputs": [],
      "name": "totalRepayments",
      "outputs": [
        {
          "internalType": "uint256",
          "name": "",
          "type": "uint256"
        }
      ],
      "stateMutability": "view",
      "type": "function"
    },
    {
      "inputs": [
        {
          "internalType": "uint8",
          "name": "_subpoolId",
          "type": "uint8"
        }
      ],
      "name": "unLockPool",
      "outputs": [],
      "stateMutability": "nonpayable",
      "type": "function"
    },
    {
      "inputs": [],
      "name": "unpause",
      "outputs": [],
      "stateMutability": "nonpayable",
      "type": "function"
    },
    {
      "inputs": [],
      "name": "unpauseDrawdown",
      "outputs": [],
      "stateMutability": "nonpayable",
      "type": "function"
    },
    {
      "inputs": [],
      "name": "usdcToken",
      "outputs": [
        {
          "internalType": "contract IERC20",
          "name": "",
          "type": "address"
        }
      ],
      "stateMutability": "view",
      "type": "function"
    },
    {
      "inputs": [
        {
          "internalType": "uint8",
          "name": "_subpoolId",
          "type": "uint8"
        },
        {
          "internalType": "uint256",
          "name": "amount",
          "type": "uint256"
        }
      ],
      "name": "withdraw",
      "outputs": [],
      "stateMutability": "nonpayable",
      "type": "function"
    },
    {
      "inputs": [
        {
          "internalType": "uint8",
          "name": "_subpoolId",
          "type": "uint8"
        }
      ],
      "name": "withdrawAll",
      "outputs": [
        {
          "internalType": "uint256",
          "name": "",
          "type": "uint256"
        }
      ],
      "stateMutability": "nonpayable",
      "type": "function"
    }
  ],
  "bytecode": "0x608060405234801561001057600080fd5b50614866806100206000396000f3fe608060405234801561001057600080fd5b50600436106103eb5760003560e01c806375b238fc1161021a578063bbbf13ea11610135578063dee05609116100c8578063e77ef21f11610097578063f4d4c9d71161007c578063f4d4c9d7146108a2578063ff3779f0146108b5578063ff3a5644146108dc57600080fd5b8063e77ef21f14610890578063eedffb961461089857600080fd5b8063dee0560914610830578063df9fd1c11461083a578063e0fdf7c614610842578063e63ab1e91461086957600080fd5b8063d547741f11610104578063d547741f146107fa578063d661d3201461080d578063d9f7130d14610815578063dadfecca1461082857600080fd5b8063bbbf13ea146107a7578063c5e2bf1a146107b1578063c8dd7bf3146107c4578063cab9bd00146107ce57600080fd5b80639b021fa2116101ad578063a217fddf1161017c578063a217fddf14610783578063a46078341461078b578063a7292ea414610795578063b6db75a01461079f57600080fd5b80639b021fa2146107535780639d585f7f1461075d5780639f964fe614610767578063a12dde4d1461077057600080fd5b8063891369b2116101e9578063891369b2146106fc57806391d148541461070657806396365d441461073f57806399e7f2501461074957600080fd5b806375b238fc146106bb5780637930d944146106e25780637fca631f146106ea5780638456cb59146106f457600080fd5b80632588d1681161030a57806346e35faa1161029d5780635c975abb1161026c5780635c975abb146106665780635fcbd285146106715780636a15633b146106845780636f49712b1461069757600080fd5b806346e35faa14610637578063526d81f61461064157806353654e85146106495780635b483e4c1461065c57600080fd5b80633e5e89be116102d95780633e5e89be146105e65780633f489914146105fb5780633f4ba83a1461060e57806345bc78ab1461061657600080fd5b80632588d168146105a55780632f2ff15d146105b857806334d93fb4146105cb57806336568abe146105d357600080fd5b806311eac855116103825780631e0018d6116103515780631e0018d61461055b5780632159e4581461056e57806322eac12c14610578578063248a9ca31461058257600080fd5b806311eac8551461050b57806317cd802d146105365780631be954591461053e5780631daa910e1461055157600080fd5b806307a7c08a116103be57806307a7c08a146104af5780630a2c1505146104cc5780630b4a45fd146104da5780630e7b949e146104e457600080fd5b806301ffc9a7146103f0578063031994941461041857806304419b7614610479578063074f254314610499575b600080fd5b6104036103fe3660046144da565b6108e6565b60405190151581526020015b60405180910390f35b61011f546101205461012154610122546101235461012454610125546104449695949360ff1692919087565b604080519788526020880196909652948601939093529015156060850152608084015260a083015260c082015260e00161040f565b610101546104879060ff1681565b60405160ff909116815260200161040f565b6104a161097f565b60405190815260200161040f565b6104b7610b4c565b6040805192835260208301919091520161040f565b610115546104039060ff1681565b6104e2610c07565b005b6104a17f2344277e405079ec07749d374ba0b5862a4e45a6a05ac889dbb4a991c6f9354d81565b60fe5461051e906001600160a01b031681565b6040516001600160a01b03909116815260200161040f565b6104e2610c7f565b60fb5461051e906001600160a01b031681565b6104a16101125481565b60fd5461051e906001600160a01b031681565b6104a161010e5481565b6104a161010c5481565b6104a1610590366004614493565b60009081526065602052604090206001015490565b60fc5461051e906001600160a01b031681565b6104e26105c63660046144ab565b61112a565b6104e2611154565b6104e26105e13660046144ab565b6111c9565b6105ee611255565b60405161040f91906146d0565b6104e261060936600461460a565b6112e4565b6104e2611885565b6104a161062436600461443b565b6101166020526000908152604090205481565b6104a16101135481565b6104e261191a565b6104a16106573660046145f0565b611a3a565b6104a161010d5481565b60975460ff16610403565b60ff5461051e906001600160a01b031681565b6104e26106923660046145f0565b612078565b6104036106a536600461443b565b6101176020526000908152604090205460ff1681565b6104a17fa49807205ce4d355092ef5a8a18f56e8913cf4a201fbe287825b095693c2177581565b6105ee612197565b6104a161010f5481565b6104e26121a5565b6104a16101105481565b6104036107143660046144ab565b60009182526065602090815260408084206001600160a01b0393909316845291905290205460ff1690565b6104a16101095481565b6104a16101045481565b6104a161010b5481565b6104a16101025481565b610119546104a1565b6104e261077e36600461443b565b612238565b6104a1600081565b6104a16101085481565b6104a16101055481565b6104036123d9565b6104a161010a5481565b6104e26107bf3660046145f0565b61240a565b6104a16101005481565b610118546101195461011a5461011b5461011c5461011d5461011e546104449695949360ff1692919087565b6104e26108083660046144ab565b612523565b6104a1612548565b6104e261082336600461451a565b61255c565b6104b7612cd6565b6104a16101115481565b6104a1612dab565b6104a17ffa4b6f760d780a02797df53a6c2ccf476001dc02ee4f9b6b1426dafc21ff6baf81565b6104a17f65d7a28e3265b37a6474929f336521b332c1681b933f6cb9f3376673440d862a81565b6104e2612e31565b6104a16101145481565b6104e26108b036600461460a565b6131d3565b6104a17fa794a061bac4a541306b6778cc120a221216f325de0020c39b67101d49158ca281565b6104a16101065481565b60007fffffffff0000000000000000000000000000000000000000000000000000000082167f7965db0b00000000000000000000000000000000000000000000000000000000148061097957507f01ffc9a7000000000000000000000000000000000000000000000000000000007fffffffff000000000000000000000000000000000000000000000000000000008316145b92915050565b600061010c5461010b5411156109dc5760405162461bcd60e51b815260206004820152601960248201527f52657061796d656e742050726f6365737320697320646f6e650000000000000060448201526064015b60405180910390fd5b60fc5461010054604051630231155f60e51b81526001600160a01b0390921691634622abe091610a129160040190815260200190565b60206040518083038186803b158015610a2a57600080fd5b505afa158015610a3e573d6000803e3d6000fd5b505050506040513d601f19601f82011682018060405250810190610a629190614473565b1515600114610ac65760405162461bcd60e51b815260206004820152602a60248201527f46756e647320696e206f70706f7274756e69747920686176656e2774206472616044820152693bb237bbb7103cb2ba1760b11b60648201526084016109d3565b61010d54426000610ad5612dab565b90506000818311610ae557610b39565b6000610afe62015180610af8868661375b565b9061376e565b9050610b35620f4240610af861010d54610b2f610b28606461010f5461376e90919063ffffffff16565b869061377a565b9061377a565b9150505b610b438482613786565b95945050505050565b600080600061010e5461010d54610b63919061475a565b60fb54909150600090610b9790610b82906001600160a01b0316613792565b610b8d906001614703565b61010e549061376e565b60fb54909150600090610bbd90610bb6906001600160a01b0316613792565b839061377a565b90506000610bdb84610af8610111548561377a90919063ffffffff16565b90506000610bf985610af8610112548761377a90919063ffffffff16565b919791965090945050505050565b610c0f6123d9565b610c6f5760405162461bcd60e51b815260206004820152602b60248201527f4d75737420686176652061646d696e20726f6c6520746f20706572666f726d2060448201526a3a3434b99030b1ba34b7b760a91b60648201526084016109d3565b610115805460ff19166001179055565b600260c9541415610cd25760405162461bcd60e51b815260206004820152601f60248201527f5265656e7472616e637947756172643a207265656e7472616e742063616c6c0060448201526064016109d3565b600260c955610cdf613813565b3360009081527f3a5c5fdc6d68aca0335558f1dead9769256edaf7721e28efaba2044a61fcc1c2602052604090205460ff16610d745760405162461bcd60e51b815260206004820152602e60248201527f4d757374206861766520626f72726f77657220726f6c6520746f20706572666f60448201526d3936903a3434b99030b1ba34b7b760911b60648201526084016109d3565b61010c5461010b541115610dca5760405162461bcd60e51b815260206004820152601960248201527f52657061796d656e742050726f6365737320697320646f6e650000000000000060448201526064016109d3565b60fc5461010054604051630231155f60e51b81526001600160a01b0390921691634622abe091610e009160040190815260200190565b60206040518083038186803b158015610e1857600080fd5b505afa158015610e2c573d6000803e3d6000fd5b505050506040513d601f19601f82011682018060405250810190610e509190614473565b1515600114610eb45760405162461bcd60e51b815260206004820152602a60248201527f46756e647320696e206f70706f7274756e69747920686176656e2774206472616044820152693bb237bbb7103cb2ba1760b11b60648201526084016109d3565b61010c5461010b541415610f445760fc54610100546040517f332f14860000000000000000000000000000000000000000000000000000000081526001600160a01b039092169163332f148691610f119160040190815260200190565b600060405180830381600087803b158015610f2b57600080fd5b505af1158015610f3f573d6000803e3d6000fd5b505050505b61010d546101108054829190600090610f5e908490614703565b909155504290506000610f6f612dab565b90506000818311610f7f57610fc0565b6000610f9262015180610af8868661375b565b9050610fbc620f4240610af861010d54610b2f610b28606461010f5461376e90919063ffffffff16565b9150505b60fb54600090610fe990610b8d90600190610fe3906001600160a01b0316613792565b90613786565b60fb5490915060009061100890610bb6906001600160a01b0316613792565b61011a549091506110199082613786565b61011a556101215461102b9083613786565b61012155610111546110549061104a90620f424090610af8908561377a565b61011d5490613786565b61011d556101125461107d9061107390620f424090610af8908661377a565b6101245490613786565b61012455610114546110a69061109c90620f424090610af8908761377a565b6101255490613786565b61012555610113546110cf906110c590620f424090610af8908761377a565b61011e5490613786565b61011e556110dd8684613786565b610109549096506110ee9087613786565b6101095561010b54611101906001613786565b61010b5560fe5461111d906001600160a01b0316333089613866565b5050600160c95550505050565b600082815260656020526040902060010154611145816138f4565b61114f83836138fe565b505050565b61115c6123d9565b6111bc5760405162461bcd60e51b815260206004820152602b60248201527f4d75737420686176652061646d696e20726f6c6520746f20706572666f726d2060448201526a3a3434b99030b1ba34b7b760a91b60648201526084016109d3565b610115805460ff19169055565b6001600160a01b03811633146112475760405162461bcd60e51b815260206004820152602f60248201527f416363657373436f6e74726f6c3a2063616e206f6e6c792072656e6f756e636560448201527f20726f6c657320666f722073656c66000000000000000000000000000000000060648201526084016109d3565b61125182826139a0565b5050565b6101078054611263906147b4565b80601f016020809104026020016040519081016040528092919081815260200182805461128f906147b4565b80156112dc5780601f106112b1576101008083540402835291602001916112dc565b820191906000526020600020905b8154815290600101906020018083116112bf57829003601f168201915b505050505081565b600260c95414156113375760405162461bcd60e51b815260206004820152601f60248201527f5265656e7472616e637947756172643a207265656e7472616e742063616c6c0060448201526064016109d3565b600260c955611344613813565b600160ff831611156113985760405162461bcd60e51b815260206004820152601860248201527f537562706f6f6c4944203a206f7574206f662072616e6765000000000000000060448201526064016109d3565b600081116113e85760405162461bcd60e51b815260206004820181905260248201527f416d6f756e74204d7573742062652067726561746572207468616e207a65726f60448201526064016109d3565b60ff82166001141561158a5761011b5460ff16156114485760405162461bcd60e51b815260206004820152601860248201527f53656e696f7220537562706f6f6c206973206c6f636b6564000000000000000060448201526064016109d3565b3360009081527f2892c78fbc31f59255f157a1512973f37f8ab9b97be744fa9c97d26a902864ae602052604090205460ff166114fa5760405162461bcd60e51b8152602060048201526044602482018190527f596f75206d75737420686176652053656e696f7220706f6f6c20726f6c652069908201527f6e206f7264657220746f206465706f73697420696e2073656e696f72207375626064820152631c1bdbdb60e21b608482015260a4016109d3565b61011a548111156115735760405162461bcd60e51b815260206004820152603b60248201527f416d6f756e7420657863656564732074686520546f74616c206465706f73697460448201527f656420616d6f756e74206f662073656e696f7220737562706f6f6c000000000060648201526084016109d3565b61011a54611581908261375b565b61011a55611817565b60ff821661181757610123544210156115e55760405162461bcd60e51b815260206004820181905260248201527f66756e647320617265206c6f636b20756e74696c204c6f616e2054656e75726560448201526064016109d3565b6101225460ff16156116395760405162461bcd60e51b815260206004820152601860248201527f4a756e696f7220537562706f6f6c206973206c6f636b6564000000000000000060448201526064016109d3565b3360009081526101166020908152604080832054610117909252909120805460ff19169183111591821790556116d75760405162461bcd60e51b815260206004820152603560248201527f796f757220776974686472617720616d6f756e7420697320686967686572207460448201527f68616e206465706f736974656420616d6f756e742e000000000000000000000060648201526084016109d3565b610121548111156117505760405162461bcd60e51b815260206004820152603b60248201527f416d6f756e7420657863656564732074686520546f74616c206465706f73697460448201527f656420616d6f756e74206f66206a756e696f7220737562706f6f6c000000000060648201526084016109d3565b6101215461175e908261375b565b61012155336000908152610116602052604090205461177d908261375b565b3360009081526101166020526040902081905561181757336000818152610117602052604090819020805460ff1916905560fd54610100549151631bd3b3dd60e31b8152600481019390935260248301919091526001600160a01b03169063de9d9ee890604401600060405180830381600087803b1580156117fe57600080fd5b505af1158015611812573d6000803e3d6000fd5b505050505b61010954611825908261375b565b6101095560fe54611841906001600160a01b0316303384613866565b60405181815260ff83169033907fd5717d2b2bcb82b3f3aea5c8c75e2194c2a7b177469cd9a5cef423e940ab81c7906020015b60405180910390a35050600160c955565b6118af7f65d7a28e3265b37a6474929f336521b332c1681b933f6cb9f3376673440d862a33610714565b6119105760405162461bcd60e51b815260206004820152602c60248201527f4d75737420686176652070617573657220726f6c6520746f20706572666f726d60448201526b103a3434b99030b1ba34b7b760a11b60648201526084016109d3565b611918613a23565b565b600054610100900460ff161580801561193a5750600054600160ff909116105b806119545750303b158015611954575060005460ff166001145b6119c65760405162461bcd60e51b815260206004820152602e60248201527f496e697469616c697a61626c653a20636f6e747261637420697320616c72656160448201527f647920696e697469616c697a656400000000000000000000000000000000000060648201526084016109d3565b6000805460ff1916600117905580156119e9576000805461ff0019166101001790555b6119f1613a75565b8015611a37576000805461ff0019169055604051600181527f7f26b83ff96e1f2b6a682f133852f6798a09c465da95921460cefb38474024989060200160405180910390a15b50565b6000600260c9541415611a8f5760405162461bcd60e51b815260206004820152601f60248201527f5265656e7472616e637947756172643a207265656e7472616e742063616c6c0060448201526064016109d3565b600260c955611a9c613813565b600160ff83161115611af05760405162461bcd60e51b815260206004820152601860248201527f537562706f6f6c4944203a206f7574206f662072616e6765000000000000000060448201526064016109d3565b600060ff831660011415611d365761011b5460ff1615611b525760405162461bcd60e51b815260206004820152601860248201527f53656e696f7220537562706f6f6c206973206c6f636b6564000000000000000060448201526064016109d3565b3360009081527f2892c78fbc31f59255f157a1512973f37f8ab9b97be744fa9c97d26a902864ae602052604090205460ff16611c045760405162461bcd60e51b8152602060048201526044602482018190527f596f75206d75737420686176652053656e696f7220706f6f6c20726f6c652069908201527f6e206f7264657220746f206465706f73697420696e2073656e696f72207375626064820152631c1bdbdb60e21b608482015260a4016109d3565b61011a54611c7a5760405162461bcd60e51b815260206004820152602b60248201527f62616c616e6365206f662073656e696f7220737562706f6f6c206973207a657260448201527f6f2063757272656e746c7900000000000000000000000000000000000000000060648201526084016109d3565b61011d54611cf05760405162461bcd60e51b815260206004820152603360248201527f7969656c642067656e657261746564206f662073656e696f7220737562706f6f60448201527f6c206973207a65726f2063757272656e746c790000000000000000000000000060648201526084016109d3565b61011d5461011a54611d0191613786565b61011e5490915015611d255761011e54611d1c908290613786565b600061011e5590505b600061011a81905561011d55612043565b60ff8316612043576101225460ff1615611d925760405162461bcd60e51b815260206004820152601860248201527f4a756e696f7220537562706f6f6c206973206c6f636b6564000000000000000060448201526064016109d3565b336000908152610117602052604090205460ff1615156001148015611dc65750336000908152610116602052604090205415155b611e125760405162461bcd60e51b815260206004820152601760248201527f7a65726f20616d6f756e7420746f206465706f7369742e00000000000000000060448201526064016109d3565b6101215433600090815261011660205260409020541115611e8b5760405162461bcd60e51b815260206004820152602d60248201527f63757272656e746c79206a756e696f7220737562706f6f6c20646f6e2774206860448201526c617665204c697175696469747960981b60648201526084016109d3565b336000908152610116602052604081205461011254611eb291620f424091610af89161377a565b61012454909150811115611f1e5760405162461bcd60e51b815260206004820152602d60248201527f63757272656e746c79206a756e696f7220737562706f6f6c20646f6e2774206860448201526c617665204c697175696469747960981b60648201526084016109d3565b336000908152610116602052604090205461012154611f3c9161375b565b6101215561012454611f4e908261375b565b6101245533600090815261011760209081526040808320805460ff191690556101169091528120819055611f829082613786565b6101255490925015611fd857336000908152610116602052604081205461011454611fb591620f424091610af89161377a565b9050611fc18382613786565b61012554909350611fd2908261375b565b61012555505b60fd5461010054604051631bd3b3dd60e31b815233600482015260248101919091526001600160a01b039091169063de9d9ee890604401600060405180830381600087803b15801561202957600080fd5b505af115801561203d573d6000803e3d6000fd5b50505050505b61010954612051908261375b565b6101095560fe5461206d906001600160a01b0316303384613866565b600160c95592915050565b3360009081527f0cc05db404293ecdddd3d47ddbcbafd5d44e2adcb65cd3b9fb9fd65c065747be602052604090205460ff1661210d5760405162461bcd60e51b815260206004820152602e60248201527f4d757374206861766520626f72726f77657220726f6c6520746f20706572666f60448201526d3936903a3434b99030b1ba34b7b760911b60648201526084016109d3565b600160ff821611156121615760405162461bcd60e51b815260206004820152601860248201527f537562706f6f6c4944203a206f7574206f662072616e6765000000000000000060448201526064016109d3565b60ff81166001141561217e5761011b805460ff1916600117905550565b60ff8116611a3757610122805460ff1916600117905550565b6101038054611263906147b4565b6121cf7f65d7a28e3265b37a6474929f336521b332c1681b933f6cb9f3376673440d862a33610714565b6122305760405162461bcd60e51b815260206004820152602c60248201527f4d75737420686176652070617573657220726f6c6520746f20706572666f726d60448201526b103a3434b99030b1ba34b7b760a11b60648201526084016109d3565b611918613aec565b600054610100900460ff166122a35760405162461bcd60e51b815260206004820152602b60248201527f496e697469616c697a61626c653a20636f6e7472616374206973206e6f74206960448201526a6e697469616c697a696e6760a81b60648201526084016109d3565b6001600160a01b0381166122f95760405162461bcd60e51b815260206004820181905260248201527f4f776e65722063616e6e6f7420626520746865207a65726f206164647265737360448201526064016109d3565b612301613b29565b612309613a75565b612311613b94565b61233b7fa49807205ce4d355092ef5a8a18f56e8913cf4a201fbe287825b095693c2177582613c06565b6123657f65d7a28e3265b37a6474929f336521b332c1681b933f6cb9f3376673440d862a82613c06565b6123af7f65d7a28e3265b37a6474929f336521b332c1681b933f6cb9f3376673440d862a7fa49807205ce4d355092ef5a8a18f56e8913cf4a201fbe287825b095693c21775613c10565b611a377fa49807205ce4d355092ef5a8a18f56e8913cf4a201fbe287825b095693c2177580613c10565b60006124057fa49807205ce4d355092ef5a8a18f56e8913cf4a201fbe287825b095693c2177533610714565b905090565b3360009081527f0cc05db404293ecdddd3d47ddbcbafd5d44e2adcb65cd3b9fb9fd65c065747be602052604090205460ff1661249f5760405162461bcd60e51b815260206004820152602e60248201527f4d757374206861766520626f72726f77657220726f6c6520746f20706572666f60448201526d3936903a3434b99030b1ba34b7b760911b60648201526084016109d3565b600160ff821611156124f35760405162461bcd60e51b815260206004820152601860248201527f537562706f6f6c4944203a206f7574206f662072616e6765000000000000000060448201526064016109d3565b60ff81166001141561250d5761011b805460ff1916905550565b60ff8116611a3757610122805460ff1916905550565b60008281526065602052604090206001015461253e816138f4565b61114f83836139a0565b61011e5461011d5460009161240591614703565b600054610100900460ff161580801561257c5750600054600160ff909116105b806125965750303b158015612596575060005460ff166001145b6126085760405162461bcd60e51b815260206004820152602e60248201527f496e697469616c697a61626c653a20636f6e747261637420697320616c72656160448201527f647920696e697469616c697a656400000000000000000000000000000000000060648201526084016109d3565b6000805460ff19166001179055801561262b576000805461ff0019166101001790555b6001600160a01b038b166126815760405162461bcd60e51b815260206004820152601660248201527f496e76616c696420636f6e66696720616464726573730000000000000000000060448201526064016109d3565b60fb80546001600160a01b0319166001600160a01b038d169081179091556000906126ab90613c5b565b90506001600160a01b0381166127035760405162461bcd60e51b815260206004820152600d60248201527f496e76616c6964204f776e65720000000000000000000000000000000000000060448201526064016109d3565b60fb54612718906001600160a01b0316613cdc565b60fc80546001600160a01b0319166001600160a01b0392831617905560fb546127419116613cf4565b60fd80546001600160a01b0319166001600160a01b039290921691909117905561276a81612238565b60fb5461277f906001600160a01b0316613d0c565b60fe80546001600160a01b0319166001600160a01b0392831617905560fb546127a89116613d24565b60ff80546001600160a01b0319166001600160a01b03929092169190911790556128127fa794a061bac4a541306b6778cc120a221216f325de0020c39b67101d49158ca27fa49807205ce4d355092ef5a8a18f56e8913cf4a201fbe287825b095693c21775613c10565b61285c7f2344277e405079ec07749d374ba0b5862a4e45a6a05ac889dbb4a991c6f9354d7fa49807205ce4d355092ef5a8a18f56e8913cf4a201fbe287825b095693c21775613c10565b6128a67ffa4b6f760d780a02797df53a6c2ccf476001dc02ee4f9b6b1426dafc21ff6baf7fa49807205ce4d355092ef5a8a18f56e8913cf4a201fbe287825b095693c21775613c10565b6128d07ffa4b6f760d780a02797df53a6c2ccf476001dc02ee4f9b6b1426dafc21ff6baf82613c06565b6101008b905589516128ea906101039060208d01906142fa565b50610101805460ff191660ff8b161790556101028890556101048790556101058690556101068590558351612927906101079060208701906142fa565b50610108839055600161010b5560fb546040517fe4a3d784000000000000000000000000000000000000000000000000000000008152600481018d90526001600160a01b039091169063e4a3d7849060240160206040518083038186803b15801561299157600080fd5b505afa1580156129a5573d6000803e3d6000fd5b505050506040513d601f19601f820116820180604052508101906129c99190614473565b612a4d5761011b805460ff1916600117905560fb54600090612a0c906129f7906001600160a01b0316613792565b612a02906001614703565b610102549061376e565b60fb54909150612a2f90612a28906001600160a01b0316613792565b829061377a565b61011981905561010254612a43919061475a565b6101205550612a64565b610122805460ff1916600117905561010254610119555b60006101045462015180612a78919061473b565b9050612a848142614703565b6101235561010554600090612abf90612ab590620f424090610af890612aab90606461376e565b610102549061377a565b6101025490613786565b9050612ae4612add610106546101045461376e90919063ffffffff16565b829061376e565b61010d5560fb54600090612b0e90612b04906001600160a01b0316613d3c565b6101055490613786565b9050612b26610104548261376e90919063ffffffff16565b61010f81905550612b57620f4240610b2f612a02620f4240610b2f610106546101045461376e90919063ffffffff16565b61010e556101065461010454612b6c9161376e565b61010c55612b78612cd6565b6101125561011155612b88610b4c565b610114556101135560fe546040517f095ea7b300000000000000000000000000000000000000000000000000000000815230600482015260001960248201526000916001600160a01b03169063095ea7b390604401602060405180830381600087803b158015612bf757600080fd5b505af1158015612c0b573d6000803e3d6000fd5b505050506040513d601f19601f82011682018060405250810190612c2f9190614473565b905080612c7e5760405162461bcd60e51b815260206004820152601660248201527f4661696c656420746f20617070726f766520555344430000000000000000000060448201526064016109d3565b50505050508015612cc9576000805461ff0019169055604051600181527f7f26b83ff96e1f2b6a682f133852f6798a09c465da95921460cefb38474024989060200160405180910390a15b5050505050505050505050565b60fb546000908190620f4240908290612d3a908390610af890612d2b90612d05906001600160a01b0316613d54565b60fb54612d2590612d1e906001600160a01b0316613d6c565b889061375b565b9061375b565b61010554610b2f90606461376e565b60fb54909150600090612d9f90620f424090610af890612d2b90612d7f90612d6a906001600160a01b0316613792565b60fb54610b2f906001600160a01b0316613d54565b60fb54610fe390612d98906001600160a01b0316613d6c565b899061375b565b91959194509092505050565b600061010c5461010b541115612e035760405162461bcd60e51b815260206004820152601960248201527f52657061796d656e742050726f6365737320697320646f6e650000000000000060448201526064016109d3565b6000610979612e276101065462015180612e1d919061473b565b61010b549061377a565b61010a5490613786565b600260c9541415612e845760405162461bcd60e51b815260206004820152601f60248201527f5265656e7472616e637947756172643a207265656e7472616e742063616c6c0060448201526064016109d3565b600260c955612e91613813565b3360009081527f3a5c5fdc6d68aca0335558f1dead9769256edaf7721e28efaba2044a61fcc1c2602052604090205460ff16612f265760405162461bcd60e51b815260206004820152602e60248201527f4d757374206861766520626f72726f77657220726f6c6520746f20706572666f60448201526d3936903a3434b99030b1ba34b7b760911b60648201526084016109d3565b60fc5461010054604051630231155f60e51b81526001600160a01b0390921691634622abe091612f5c9160040190815260200190565b60206040518083038186803b158015612f7457600080fd5b505afa158015612f88573d6000803e3d6000fd5b505050506040513d601f19601f82011682018060405250810190612fac9190614473565b1561301f5760405162461bcd60e51b815260206004820152602a60248201527f46756e647320696e206f70706f7274756e6974792061726520616c726561647960448201527f2064726177646f776e2e0000000000000000000000000000000000000000000060648201526084016109d3565b6101155460ff16156130735760405162461bcd60e51b815260206004820152601260248201527f44726177646f776e20697320706175736564000000000000000000000000000060448201526064016109d3565b6101025461010954146131145760405162461bcd60e51b815260206004820152604760248201527f546f74616c204465706f736974656420616d6f756e7420696e206f70706f727460448201527f756e69747920706f6f6c206d75737420626520657175616c20746f206c6f616e60648201527f20616d6f756e7400000000000000000000000000000000000000000000000000608482015260a4016109d3565b610109805460009182905561012182905561011a919091554261010a5560fc54610100546040517faf7ea9440000000000000000000000000000000000000000000000000000000081526001600160a01b039092169163af7ea944916131809160040190815260200190565b600060405180830381600087803b15801561319a57600080fd5b505af11580156131ae573d6000803e3d6000fd5b505060fe546131cb92506001600160a01b03169050303384613866565b50600160c955565b600260c95414156132265760405162461bcd60e51b815260206004820152601f60248201527f5265656e7472616e637947756172643a207265656e7472616e742063616c6c0060448201526064016109d3565b600260c955613233613813565b600160ff831611156132875760405162461bcd60e51b815260206004820152601860248201527f537562706f6f6c4944203a206f7574206f662072616e6765000000000000000060448201526064016109d3565b600081116132d75760405162461bcd60e51b815260206004820181905260248201527f416d6f756e74204d7573742062652067726561746572207468616e207a65726f60448201526064016109d3565b60ff82166001141561348f5761011b5460ff16156133375760405162461bcd60e51b815260206004820152601860248201527f53656e696f7220537562706f6f6c206973206c6f636b6564000000000000000060448201526064016109d3565b3360009081527f2892c78fbc31f59255f157a1512973f37f8ab9b97be744fa9c97d26a902864ae602052604090205460ff166133e95760405162461bcd60e51b8152602060048201526044602482018190527f596f75206d75737420686176652053656e696f7220706f6f6c20726f6c652069908201527f6e206f7264657220746f206465706f73697420696e2073656e696f72207375626064820152631c1bdbdb60e21b608482015260a4016109d3565b61011a546000906133fb908390613786565b610119549091508111156134775760405162461bcd60e51b815260206004820152603860248201527f416d6f756e7420657863656564732074686520546f74616c206465706f73697460448201527f206c696d6974206f662073656e696f7220737562706f6f6c000000000000000060648201526084016109d3565b61011a546134859083613786565b61011a55506136fa565b60ff82166136fa576101225460ff16156134eb5760405162461bcd60e51b815260206004820152601860248201527f4a756e696f7220537562706f6f6c206973206c6f636b6564000000000000000060448201526064016109d3565b610121546000906134fd908390613786565b610120549091508111156135795760405162461bcd60e51b815260206004820152603860248201527f416d6f756e7420657863656564732074686520546f74616c206465706f73697460448201527f206c696d6974206f66206a756e696f7220737562706f6f6c000000000000000060648201526084016109d3565b610121546135879083613786565b6101215533600090815261011660205260409020546135a69083613786565b33600081815261011660209081526040808320949094556101179052829020805460ff1916600117905560fd546101005492517fe954539d000000000000000000000000000000000000000000000000000000008152600481019290925260248201929092526001600160a01b039091169063e954539d9060440160206040518083038186803b15801561363957600080fd5b505afa15801561364d573d6000803e3d6000fd5b505050506040513d601f19601f820116820180604052508101906136719190614473565b6136f85760fd54610100546040517fa68a132200000000000000000000000000000000000000000000000000000000815233600482015260248101919091526001600160a01b039091169063a68a132290604401600060405180830381600087803b1580156136df57600080fd5b505af11580156136f3573d6000803e3d6000fd5b505050505b505b610109546137089082613786565b6101095560fe54613724906001600160a01b0316333084613866565b60405181815260ff83169033907f1d0787aee899a49ef81d0b11da9aca5455b46aefed042a41bd398d74619cab0090602001611874565b6000613767828461475a565b9392505050565b6000613767828461471b565b6000613767828461473b565b60006137678284614703565b60006001600160a01b03821663fc563658825b6040518263ffffffff1660e01b81526004016137c391815260200190565b60206040518083038186803b1580156137db57600080fd5b505afa1580156137ef573d6000803e3d6000fd5b505050506040513d601f19601f8201168201806040525081019061097991906145d8565b60975460ff16156119185760405162461bcd60e51b815260206004820152601060248201527f5061757361626c653a207061757365640000000000000000000000000000000060448201526064016109d3565b604080516001600160a01b0385811660248301528416604482015260648082018490528251808303909101815260849091019091526020810180517bffffffffffffffffffffffffffffffffffffffffffffffffffffffff167f23b872dd000000000000000000000000000000000000000000000000000000001790526138ee908590613d84565b50505050565b611a378133613e69565b60008281526065602090815260408083206001600160a01b038516845290915290205460ff166112515760008281526065602090815260408083206001600160a01b03851684529091529020805460ff1916600117905561395c3390565b6001600160a01b0316816001600160a01b0316837f2f8788117e7eff1d82e926ec794901d17c78024a50270940304540a733656f0d60405160405180910390a45050565b60008281526065602090815260408083206001600160a01b038516845290915290205460ff16156112515760008281526065602090815260408083206001600160a01b0385168085529252808320805460ff1916905551339285917ff6391f5c32d9c69d2a47ea670b442974b53935d1edc7fd64eb21e047a839171b9190a45050565b613a2b613ee9565b6097805460ff191690557f5db9ee0a495bf2e6ff9c91a7834c1ba4fdd244a5e8aa4e537bd38aeae4b073aa335b6040516001600160a01b03909116815260200160405180910390a1565b600054610100900460ff16613ae05760405162461bcd60e51b815260206004820152602b60248201527f496e697469616c697a61626c653a20636f6e7472616374206973206e6f74206960448201526a6e697469616c697a696e6760a81b60648201526084016109d3565b6097805460ff19169055565b613af4613813565b6097805460ff191660011790557f62e78cea01bee320cd4e420270b5ea74000d11b0c9f74754ebdbfc544b05a258613a583390565b600054610100900460ff166119185760405162461bcd60e51b815260206004820152602b60248201527f496e697469616c697a61626c653a20636f6e7472616374206973206e6f74206960448201526a6e697469616c697a696e6760a81b60648201526084016109d3565b600054610100900460ff16613bff5760405162461bcd60e51b815260206004820152602b60248201527f496e697469616c697a61626c653a20636f6e7472616374206973206e6f74206960448201526a6e697469616c697a696e6760a81b60648201526084016109d3565b600160c955565b61125182826138fe565b600082815260656020526040808220600101805490849055905190918391839186917fbd79b86ffe0ab8e8776151514217cd7cacd52c909f66475c3af44e129f0b00ff9190a4505050565b60006001600160a01b03821663b93f9b0a825b6040518263ffffffff1660e01b8152600401613c8c91815260200190565b60206040518083038186803b158015613ca457600080fd5b505afa158015613cb8573d6000803e3d6000fd5b505050506040513d601f19601f820116820180604052508101906109799190614457565b60006001600160a01b03821663b93f9b0a6006613c6e565b60006001600160a01b03821663b93f9b0a6007613c6e565b60006001600160a01b03821663b93f9b0a6002613c6e565b60006001600160a01b03821663b93f9b0a6001613c6e565b60006001600160a01b03821663fc56365860026137a5565b60006001600160a01b03821663fc56365860036137a5565b60006001600160a01b03821663fc56365860016137a5565b6000613dd9826040518060400160405280602081526020017f5361666545524332303a206c6f772d6c6576656c2063616c6c206661696c6564815250856001600160a01b0316613f3b9092919063ffffffff16565b80519091501561114f5780806020019051810190613df79190614473565b61114f5760405162461bcd60e51b815260206004820152602a60248201527f5361666545524332303a204552433230206f7065726174696f6e20646964206e60448201527f6f7420737563636565640000000000000000000000000000000000000000000060648201526084016109d3565b60008281526065602090815260408083206001600160a01b038516845290915290205460ff1661125157613ea7816001600160a01b03166014613f52565b613eb2836020613f52565b604051602001613ec392919061464f565b60408051601f198184030181529082905262461bcd60e51b82526109d3916004016146d0565b60975460ff166119185760405162461bcd60e51b815260206004820152601460248201527f5061757361626c653a206e6f742070617573656400000000000000000000000060448201526064016109d3565b6060613f4a8484600085614179565b949350505050565b60606000613f6183600261473b565b613f6c906002614703565b67ffffffffffffffff811115613f9257634e487b7160e01b600052604160045260246000fd5b6040519080825280601f01601f191660200182016040528015613fbc576020820181803683370190505b5090507f30000000000000000000000000000000000000000000000000000000000000008160008151811061400157634e487b7160e01b600052603260045260246000fd5b60200101906001600160f81b031916908160001a9053507f78000000000000000000000000000000000000000000000000000000000000008160018151811061405a57634e487b7160e01b600052603260045260246000fd5b60200101906001600160f81b031916908160001a905350600061407e84600261473b565b614089906001614703565b90505b600181111561412a577f303132333435363738396162636465660000000000000000000000000000000085600f16601081106140d857634e487b7160e01b600052603260045260246000fd5b1a60f81b8282815181106140fc57634e487b7160e01b600052603260045260246000fd5b60200101906001600160f81b031916908160001a90535060049490941c936141238161479d565b905061408c565b5083156137675760405162461bcd60e51b815260206004820181905260248201527f537472696e67733a20686578206c656e67746820696e73756666696369656e7460448201526064016109d3565b6060824710156141f15760405162461bcd60e51b815260206004820152602660248201527f416464726573733a20696e73756666696369656e742062616c616e636520666f60448201527f722063616c6c000000000000000000000000000000000000000000000000000060648201526084016109d3565b6001600160a01b0385163b6142485760405162461bcd60e51b815260206004820152601d60248201527f416464726573733a2063616c6c20746f206e6f6e2d636f6e747261637400000060448201526064016109d3565b600080866001600160a01b031685876040516142649190614633565b60006040518083038185875af1925050503d80600081146142a1576040519150601f19603f3d011682016040523d82523d6000602084013e6142a6565b606091505b50915091506142b68282866142c1565b979650505050505050565b606083156142d0575081613767565b8251156142e05782518084602001fd5b8160405162461bcd60e51b81526004016109d391906146d0565b828054614306906147b4565b90600052602060002090601f016020900481019282614328576000855561436e565b82601f1061434157805160ff191683800117855561436e565b8280016001018555821561436e579182015b8281111561436e578251825591602001919060010190614353565b5061437a92915061437e565b5090565b5b8082111561437a576000815560010161437f565b803561439e8161481b565b919050565b600082601f8301126143b3578081fd5b813567ffffffffffffffff808211156143ce576143ce614805565b604051601f8301601f19908116603f011681019082821181831017156143f6576143f6614805565b8160405283815286602085880101111561440e578485fd5b8360208701602083013792830160200193909352509392505050565b803560ff8116811461439e57600080fd5b60006020828403121561444c578081fd5b81356137678161481b565b600060208284031215614468578081fd5b81516137678161481b565b600060208284031215614484578081fd5b81518015158114613767578182fd5b6000602082840312156144a4578081fd5b5035919050565b600080604083850312156144bd578081fd5b8235915060208301356144cf8161481b565b809150509250929050565b6000602082840312156144eb578081fd5b81357fffffffff0000000000000000000000000000000000000000000000000000000081168114613767578182fd5b6000806000806000806000806000806101408b8d031215614539578586fd5b6145428b614393565b995060208b0135985060408b013567ffffffffffffffff80821115614565578788fd5b6145718e838f016143a3565b995061457f60608e0161442a565b985060808d0135975060a08d0135965060c08d0135955060e08d013594506101008d01359150808211156145b1578384fd5b506145be8d828e016143a3565b9250506101208b013590509295989b9194979a5092959850565b6000602082840312156145e9578081fd5b5051919050565b600060208284031215614601578081fd5b6137678261442a565b6000806040838503121561461c578182fd5b6146258361442a565b946020939093013593505050565b60008251614645818460208701614771565b9190910192915050565b7f416363657373436f6e74726f6c3a206163636f756e7420000000000000000000815260008351614687816017850160208801614771565b7f206973206d697373696e6720726f6c652000000000000000000000000000000060179184019182015283516146c4816028840160208801614771565b01602801949350505050565b60208152600082518060208401526146ef816040850160208701614771565b601f01601f19169190910160400192915050565b60008219821115614716576147166147ef565b500190565b60008261473657634e487b7160e01b81526012600452602481fd5b500490565b6000816000190483118215151615614755576147556147ef565b500290565b60008282101561476c5761476c6147ef565b500390565b60005b8381101561478c578181015183820152602001614774565b838111156138ee5750506000910152565b6000816147ac576147ac6147ef565b506000190190565b600181811c908216806147c857607f821691505b602082108114156147e957634e487b7160e01b600052602260045260246000fd5b50919050565b634e487b7160e01b600052601160045260246000fd5b634e487b7160e01b600052604160045260246000fd5b6001600160a01b0381168114611a3757600080fdfea2646970667358221220878d89b5937282016e6a2dffeb9b31776e16f10711e6b2398bff1161e496d37764736f6c63430008040033",
  "linkReferences": {},
  "deployedLinkReferences": {}
}