{
  "_format": "hh-sol-artifact-1",
  "contractName": "OpportunityPool",
  "sourceName": "contracts/protocol/OpportunityPool.sol",
  "abi": [
    {
      "anonymous": false,
      "inputs": [
        {
          "indexed": false,
          "internalType": "address",
          "name": "previousAdmin",
          "type": "address"
        },
        {
          "indexed": false,
          "internalType": "address",
          "name": "newAdmin",
          "type": "address"
        }
      ],
      "name": "AdminChanged",
      "type": "event"
    },
    {
      "anonymous": false,
      "inputs": [
        {
          "indexed": true,
          "internalType": "address",
          "name": "beacon",
          "type": "address"
        }
      ],
      "name": "BeaconUpgraded",
      "type": "event"
    },
    {
      "anonymous": false,
      "inputs": [
        {
          "indexed": true,
          "internalType": "address",
          "name": "executor",
          "type": "address"
        },
        {
          "indexed": true,
          "internalType": "uint8",
          "name": "subpool",
          "type": "uint8"
        },
        {
          "indexed": false,
          "internalType": "uint256",
          "name": "amount",
          "type": "uint256"
        }
      ],
      "name": "Deposited",
      "type": "event"
    },
    {
      "anonymous": false,
      "inputs": [
        {
          "indexed": false,
          "internalType": "uint8",
          "name": "version",
          "type": "uint8"
        }
      ],
      "name": "Initialized",
      "type": "event"
    },
    {
      "anonymous": false,
      "inputs": [
        {
          "indexed": false,
          "internalType": "address",
          "name": "account",
          "type": "address"
        }
      ],
      "name": "Paused",
      "type": "event"
    },
    {
      "anonymous": false,
      "inputs": [
        {
          "indexed": true,
          "internalType": "bytes32",
          "name": "role",
          "type": "bytes32"
        },
        {
          "indexed": true,
          "internalType": "bytes32",
          "name": "previousAdminRole",
          "type": "bytes32"
        },
        {
          "indexed": true,
          "internalType": "bytes32",
          "name": "newAdminRole",
          "type": "bytes32"
        }
      ],
      "name": "RoleAdminChanged",
      "type": "event"
    },
    {
      "anonymous": false,
      "inputs": [
        {
          "indexed": true,
          "internalType": "bytes32",
          "name": "role",
          "type": "bytes32"
        },
        {
          "indexed": true,
          "internalType": "address",
          "name": "account",
          "type": "address"
        },
        {
          "indexed": true,
          "internalType": "address",
          "name": "sender",
          "type": "address"
        }
      ],
      "name": "RoleGranted",
      "type": "event"
    },
    {
      "anonymous": false,
      "inputs": [
        {
          "indexed": true,
          "internalType": "bytes32",
          "name": "role",
          "type": "bytes32"
        },
        {
          "indexed": true,
          "internalType": "address",
          "name": "account",
          "type": "address"
        },
        {
          "indexed": true,
          "internalType": "address",
          "name": "sender",
          "type": "address"
        }
      ],
      "name": "RoleRevoked",
      "type": "event"
    },
    {
      "anonymous": false,
      "inputs": [
        {
          "indexed": false,
          "internalType": "address",
          "name": "account",
          "type": "address"
        }
      ],
      "name": "Unpaused",
      "type": "event"
    },
    {
      "anonymous": false,
      "inputs": [
        {
          "indexed": true,
          "internalType": "address",
          "name": "implementation",
          "type": "address"
        }
      ],
      "name": "Upgraded",
      "type": "event"
    },
    {
      "anonymous": false,
      "inputs": [
        {
          "indexed": true,
          "internalType": "address",
          "name": "executor",
          "type": "address"
        },
        {
          "indexed": true,
          "internalType": "uint8",
          "name": "subpool",
          "type": "uint8"
        },
        {
          "indexed": false,
          "internalType": "uint256",
          "name": "amount",
          "type": "uint256"
        }
      ],
      "name": "Withdrew",
      "type": "event"
    },
    {
      "inputs": [],
      "name": "ADMIN_ROLE",
      "outputs": [
        {
          "internalType": "bytes32",
          "name": "",
          "type": "bytes32"
        }
      ],
      "stateMutability": "view",
      "type": "function"
    },
    {
      "inputs": [],
      "name": "DEFAULT_ADMIN_ROLE",
      "outputs": [
        {
          "internalType": "bytes32",
          "name": "",
          "type": "bytes32"
        }
      ],
      "stateMutability": "view",
      "type": "function"
    },
    {
      "inputs": [],
      "name": "PAUSER_ROLE",
      "outputs": [
        {
          "internalType": "bytes32",
          "name": "",
          "type": "bytes32"
        }
      ],
      "stateMutability": "view",
      "type": "function"
    },
    {
      "inputs": [
        {
          "internalType": "address",
          "name": "owner",
          "type": "address"
        }
      ],
      "name": "_BaseUpgradeablePausable_init",
      "outputs": [],
      "stateMutability": "nonpayable",
      "type": "function"
    },
    {
      "inputs": [],
      "name": "__PauserPausable__init",
      "outputs": [],
      "stateMutability": "nonpayable",
      "type": "function"
    },
    {
      "inputs": [],
      "name": "amountWithoutEMI",
      "outputs": [
        {
          "internalType": "uint256",
          "name": "",
          "type": "uint256"
        }
      ],
      "stateMutability": "view",
      "type": "function"
    },
    {
      "inputs": [],
      "name": "dailyInterestRate",
      "outputs": [
        {
          "internalType": "uint256",
          "name": "",
          "type": "uint256"
        }
      ],
      "stateMutability": "view",
      "type": "function"
    },
    {
      "inputs": [
        {
          "internalType": "uint8",
          "name": "_subpoolId",
          "type": "uint8"
        },
        {
          "internalType": "uint256",
          "name": "amount",
          "type": "uint256"
        }
      ],
      "name": "deposit",
      "outputs": [],
      "stateMutability": "nonpayable",
      "type": "function"
    },
    {
      "inputs": [],
      "name": "drawdown",
      "outputs": [],
      "stateMutability": "nonpayable",
      "type": "function"
    },
    {
      "inputs": [],
      "name": "dygnifyConfig",
      "outputs": [
        {
          "internalType": "contract DygnifyConfig",
          "name": "",
          "type": "address"
        }
      ],
      "stateMutability": "view",
      "type": "function"
    },
    {
      "inputs": [],
      "name": "emiAmount",
      "outputs": [
        {
          "internalType": "uint256",
          "name": "",
          "type": "uint256"
        }
      ],
      "stateMutability": "view",
      "type": "function"
    },
    {
      "inputs": [],
      "name": "getOpportunityName",
      "outputs": [
        {
          "internalType": "string",
          "name": "",
          "type": "string"
        }
      ],
      "stateMutability": "view",
      "type": "function"
    },
    {
      "inputs": [],
      "name": "getOverDuePercentage",
      "outputs": [
        {
          "internalType": "uint256",
          "name": "",
          "type": "uint256"
        },
        {
          "internalType": "uint256",
          "name": "",
          "type": "uint256"
        }
      ],
      "stateMutability": "view",
      "type": "function"
    },
    {
      "inputs": [],
      "name": "getRepaymentAmount",
      "outputs": [
        {
          "internalType": "uint256",
          "name": "",
          "type": "uint256"
        }
      ],
      "stateMutability": "view",
      "type": "function"
    },
    {
      "inputs": [
        {
          "internalType": "bytes32",
          "name": "role",
          "type": "bytes32"
        }
      ],
      "name": "getRoleAdmin",
      "outputs": [
        {
          "internalType": "bytes32",
          "name": "",
          "type": "bytes32"
        }
      ],
      "stateMutability": "view",
      "type": "function"
    },
    {
      "inputs": [],
      "name": "getSeniorProfit",
      "outputs": [
        {
          "internalType": "uint256",
          "name": "",
          "type": "uint256"
        }
      ],
      "stateMutability": "view",
      "type": "function"
    },
    {
      "inputs": [],
      "name": "getSeniorTotalDepositable",
      "outputs": [
        {
          "internalType": "uint256",
          "name": "",
          "type": "uint256"
        }
      ],
      "stateMutability": "view",
      "type": "function"
    },
    {
      "inputs": [],
      "name": "getUserWithdrawableAmount",
      "outputs": [
        {
          "internalType": "uint256",
          "name": "",
          "type": "uint256"
        }
      ],
      "stateMutability": "view",
      "type": "function"
    },
    {
      "inputs": [],
      "name": "getYieldPercentage",
      "outputs": [
        {
          "internalType": "uint256",
          "name": "",
          "type": "uint256"
        },
        {
          "internalType": "uint256",
          "name": "",
          "type": "uint256"
        }
      ],
      "stateMutability": "view",
      "type": "function"
    },
    {
      "inputs": [
        {
          "internalType": "bytes32",
          "name": "role",
          "type": "bytes32"
        },
        {
          "internalType": "address",
          "name": "account",
          "type": "address"
        }
      ],
      "name": "grantRole",
      "outputs": [],
      "stateMutability": "nonpayable",
      "type": "function"
    },
    {
      "inputs": [
        {
          "internalType": "bytes32",
          "name": "role",
          "type": "bytes32"
        },
        {
          "internalType": "address",
          "name": "account",
          "type": "address"
        }
      ],
      "name": "hasRole",
      "outputs": [
        {
          "internalType": "bool",
          "name": "",
          "type": "bool"
        }
      ],
      "stateMutability": "view",
      "type": "function"
    },
    {
      "inputs": [
        {
          "internalType": "contract DygnifyConfig",
          "name": "_dygnifyConfig",
          "type": "address"
        },
        {
          "internalType": "bytes32",
          "name": "_opportunityID",
          "type": "bytes32"
        },
        {
          "internalType": "uint256",
          "name": "_loanAmount",
          "type": "uint256"
        },
        {
          "internalType": "uint256",
          "name": "_loanTenureInDays",
          "type": "uint256"
        },
        {
          "internalType": "uint256",
          "name": "_loanInterest",
          "type": "uint256"
        },
        {
          "internalType": "uint256",
          "name": "_paymentFrequencyInDays",
          "type": "uint256"
        },
        {
          "internalType": "uint8",
          "name": "_loanType",
          "type": "uint8"
        }
      ],
      "name": "initialize",
      "outputs": [],
      "stateMutability": "nonpayable",
      "type": "function"
    },
    {
      "inputs": [],
      "name": "investor",
      "outputs": [
        {
          "internalType": "contract IInvestor",
          "name": "",
          "type": "address"
        }
      ],
      "stateMutability": "view",
      "type": "function"
    },
    {
      "inputs": [],
      "name": "isAdmin",
      "outputs": [
        {
          "internalType": "bool",
          "name": "",
          "type": "bool"
        }
      ],
      "stateMutability": "view",
      "type": "function"
    },
    {
      "inputs": [],
      "name": "isDrawdownsPaused",
      "outputs": [
        {
          "internalType": "bool",
          "name": "",
          "type": "bool"
        }
      ],
      "stateMutability": "view",
      "type": "function"
    },
    {
      "inputs": [
        {
          "internalType": "address",
          "name": "",
          "type": "address"
        }
      ],
      "name": "isStaking",
      "outputs": [
        {
          "internalType": "bool",
          "name": "",
          "type": "bool"
        }
      ],
      "stateMutability": "view",
      "type": "function"
    },
    {
      "inputs": [],
      "name": "juniorOverduePerecentage",
      "outputs": [
        {
          "internalType": "uint256",
          "name": "",
          "type": "uint256"
        }
      ],
      "stateMutability": "view",
      "type": "function"
    },
    {
      "inputs": [],
      "name": "juniorSubpoolDetails",
      "outputs": [
        {
          "internalType": "uint256",
          "name": "id",
          "type": "uint256"
        },
        {
          "internalType": "uint256",
          "name": "totalDepositable",
          "type": "uint256"
        },
        {
          "internalType": "uint256",
          "name": "depositedAmount",
          "type": "uint256"
        },
        {
          "internalType": "bool",
          "name": "isPoolLocked",
          "type": "bool"
        },
        {
          "internalType": "uint256",
          "name": "fundsLockedUntil",
          "type": "uint256"
        },
        {
          "internalType": "uint256",
          "name": "yieldGenerated",
          "type": "uint256"
        },
        {
          "internalType": "uint256",
          "name": "overdueGenerated",
          "type": "uint256"
        }
      ],
      "stateMutability": "view",
      "type": "function"
    },
    {
      "inputs": [],
      "name": "juniorYieldPerecentage",
      "outputs": [
        {
          "internalType": "uint256",
          "name": "",
          "type": "uint256"
        }
      ],
      "stateMutability": "view",
      "type": "function"
    },
    {
      "inputs": [],
      "name": "loanAmount",
      "outputs": [
        {
          "internalType": "uint256",
          "name": "",
          "type": "uint256"
        }
      ],
      "stateMutability": "view",
      "type": "function"
    },
    {
      "inputs": [],
      "name": "loanInterest",
      "outputs": [
        {
          "internalType": "uint256",
          "name": "",
          "type": "uint256"
        }
      ],
      "stateMutability": "view",
      "type": "function"
    },
    {
      "inputs": [],
      "name": "loanTenureInDays",
      "outputs": [
        {
          "internalType": "uint256",
          "name": "",
          "type": "uint256"
        }
      ],
      "stateMutability": "view",
      "type": "function"
    },
    {
      "inputs": [],
      "name": "loanType",
      "outputs": [
        {
          "internalType": "uint8",
          "name": "",
          "type": "uint8"
        }
      ],
      "stateMutability": "view",
      "type": "function"
    },
    {
      "inputs": [
        {
          "internalType": "uint8",
          "name": "_subpoolId",
          "type": "uint8"
        }
      ],
      "name": "lockPool",
      "outputs": [],
      "stateMutability": "nonpayable",
      "type": "function"
    },
    {
      "inputs": [],
      "name": "lpToken",
      "outputs": [
        {
          "internalType": "contract ILPToken",
          "name": "",
          "type": "address"
        }
      ],
      "stateMutability": "view",
      "type": "function"
    },
    {
      "inputs": [],
      "name": "nextRepaymentTime",
      "outputs": [
        {
          "internalType": "uint256",
          "name": "",
          "type": "uint256"
        }
      ],
      "stateMutability": "view",
      "type": "function"
    },
    {
      "inputs": [],
      "name": "opportunityID",
      "outputs": [
        {
          "internalType": "bytes32",
          "name": "",
          "type": "bytes32"
        }
      ],
      "stateMutability": "view",
      "type": "function"
    },
    {
      "inputs": [],
      "name": "opportunityOrigination",
      "outputs": [
        {
          "internalType": "contract IOpportunityOrigination",
          "name": "",
          "type": "address"
        }
      ],
      "stateMutability": "view",
      "type": "function"
    },
    {
      "inputs": [],
      "name": "pause",
      "outputs": [],
      "stateMutability": "nonpayable",
      "type": "function"
    },
    {
      "inputs": [],
      "name": "pauseDrawdown",
      "outputs": [],
      "stateMutability": "nonpayable",
      "type": "function"
    },
    {
      "inputs": [],
      "name": "paused",
      "outputs": [
        {
          "internalType": "bool",
          "name": "",
          "type": "bool"
        }
      ],
      "stateMutability": "view",
      "type": "function"
    },
    {
      "inputs": [],
      "name": "paymentFrequencyInDays",
      "outputs": [
        {
          "internalType": "uint256",
          "name": "",
          "type": "uint256"
        }
      ],
      "stateMutability": "view",
      "type": "function"
    },
    {
      "inputs": [],
      "name": "poolBalance",
      "outputs": [
        {
          "internalType": "uint256",
          "name": "",
          "type": "uint256"
        }
      ],
      "stateMutability": "view",
      "type": "function"
    },
    {
      "inputs": [],
      "name": "proxiableUUID",
      "outputs": [
        {
          "internalType": "bytes32",
          "name": "",
          "type": "bytes32"
        }
      ],
      "stateMutability": "view",
      "type": "function"
    },
    {
      "inputs": [
        {
          "internalType": "bytes32",
          "name": "role",
          "type": "bytes32"
        },
        {
          "internalType": "address",
          "name": "account",
          "type": "address"
        }
      ],
      "name": "renounceRole",
      "outputs": [],
      "stateMutability": "nonpayable",
      "type": "function"
    },
    {
      "inputs": [],
      "name": "repayment",
      "outputs": [],
      "stateMutability": "nonpayable",
      "type": "function"
    },
    {
      "inputs": [],
      "name": "repaymentCounter",
      "outputs": [
        {
          "internalType": "uint256",
          "name": "",
          "type": "uint256"
        }
      ],
      "stateMutability": "view",
      "type": "function"
    },
    {
      "inputs": [],
      "name": "repaymentStartTime",
      "outputs": [
        {
          "internalType": "uint256",
          "name": "",
          "type": "uint256"
        }
      ],
      "stateMutability": "view",
      "type": "function"
    },
    {
      "inputs": [
        {
          "internalType": "bytes32",
          "name": "role",
          "type": "bytes32"
        },
        {
          "internalType": "address",
          "name": "account",
          "type": "address"
        }
      ],
      "name": "revokeRole",
      "outputs": [],
      "stateMutability": "nonpayable",
      "type": "function"
    },
    {
      "inputs": [],
      "name": "seniorOverduePerecentage",
      "outputs": [
        {
          "internalType": "uint256",
          "name": "",
          "type": "uint256"
        }
      ],
      "stateMutability": "view",
      "type": "function"
    },
    {
      "inputs": [],
      "name": "seniorSubpoolDetails",
      "outputs": [
        {
          "internalType": "uint256",
          "name": "id",
          "type": "uint256"
        },
        {
          "internalType": "uint256",
          "name": "totalDepositable",
          "type": "uint256"
        },
        {
          "internalType": "uint256",
          "name": "depositedAmount",
          "type": "uint256"
        },
        {
          "internalType": "bool",
          "name": "isPoolLocked",
          "type": "bool"
        },
        {
          "internalType": "uint256",
          "name": "fundsLockedUntil",
          "type": "uint256"
        },
        {
          "internalType": "uint256",
          "name": "yieldGenerated",
          "type": "uint256"
        },
        {
          "internalType": "uint256",
          "name": "overdueGenerated",
          "type": "uint256"
        }
      ],
      "stateMutability": "view",
      "type": "function"
    },
    {
      "inputs": [],
      "name": "seniorYieldPerecentage",
      "outputs": [
        {
          "internalType": "uint256",
          "name": "",
          "type": "uint256"
        }
      ],
      "stateMutability": "view",
      "type": "function"
    },
    {
      "inputs": [
        {
          "internalType": "address",
          "name": "",
          "type": "address"
        }
      ],
      "name": "stakingBalance",
      "outputs": [
        {
          "internalType": "uint256",
          "name": "",
          "type": "uint256"
        }
      ],
      "stateMutability": "view",
      "type": "function"
    },
    {
      "inputs": [
        {
          "internalType": "bytes4",
          "name": "interfaceId",
          "type": "bytes4"
        }
      ],
      "name": "supportsInterface",
      "outputs": [
        {
          "internalType": "bool",
          "name": "",
          "type": "bool"
        }
      ],
      "stateMutability": "view",
      "type": "function"
    },
    {
      "inputs": [],
      "name": "totalRepaidAmount",
      "outputs": [
        {
          "internalType": "uint256",
          "name": "",
          "type": "uint256"
        }
      ],
      "stateMutability": "view",
      "type": "function"
    },
    {
      "inputs": [],
      "name": "totalRepayments",
      "outputs": [
        {
          "internalType": "uint256",
          "name": "",
          "type": "uint256"
        }
      ],
      "stateMutability": "view",
      "type": "function"
    },
    {
      "inputs": [
        {
          "internalType": "uint8",
          "name": "_subpoolId",
          "type": "uint8"
        }
      ],
      "name": "unLockPool",
      "outputs": [],
      "stateMutability": "nonpayable",
      "type": "function"
    },
    {
      "inputs": [],
      "name": "unpause",
      "outputs": [],
      "stateMutability": "nonpayable",
      "type": "function"
    },
    {
      "inputs": [],
      "name": "unpauseDrawdown",
      "outputs": [],
      "stateMutability": "nonpayable",
      "type": "function"
    },
    {
      "inputs": [
        {
          "internalType": "address",
          "name": "newImplementation",
          "type": "address"
        }
      ],
      "name": "upgradeTo",
      "outputs": [],
      "stateMutability": "nonpayable",
      "type": "function"
    },
    {
      "inputs": [
        {
          "internalType": "address",
          "name": "newImplementation",
          "type": "address"
        },
        {
          "internalType": "bytes",
          "name": "data",
          "type": "bytes"
        }
      ],
      "name": "upgradeToAndCall",
      "outputs": [],
      "stateMutability": "payable",
      "type": "function"
    },
    {
      "inputs": [],
      "name": "usdcToken",
      "outputs": [
        {
          "internalType": "contract IERC20",
          "name": "",
          "type": "address"
        }
      ],
      "stateMutability": "view",
      "type": "function"
    },
    {
      "inputs": [
        {
          "internalType": "uint8",
          "name": "_subpoolId",
          "type": "uint8"
        },
        {
          "internalType": "uint256",
          "name": "amount",
          "type": "uint256"
        }
      ],
      "name": "withdraw",
      "outputs": [],
      "stateMutability": "nonpayable",
      "type": "function"
    },
    {
      "inputs": [
        {
          "internalType": "uint8",
          "name": "_subpoolId",
          "type": "uint8"
        }
      ],
      "name": "withdrawAll",
      "outputs": [
        {
          "internalType": "uint256",
          "name": "",
          "type": "uint256"
        }
      ],
      "stateMutability": "nonpayable",
      "type": "function"
    },
    {
      "inputs": [],
      "name": "writeOffOpportunity",
      "outputs": [],
      "stateMutability": "nonpayable",
      "type": "function"
    }
  ],
  "bytecode": "0x60a06040523060601b60805234801561001757600080fd5b5060805160601c615f136200005360003960008181611f0701528181611f8c015281816126b201528181612737015261293c0152615f136000f3fe6080604052600436106103de5760003560e01c80636a15633b1161020d578063b6db75a011610128578063dadfecca116100bb578063e63ab1e91161008a578063eedffb961161006f578063eedffb9614610b87578063f4d4c9d714610b9e578063ff3a564414610bbe57600080fd5b8063e63ab1e914610b3e578063e77ef21f14610b7257600080fd5b8063dadfecca14610adb578063ddc22b7414610af0578063dee0560914610b12578063df9fd1c114610b2957600080fd5b8063c8dd7bf3116100f7578063c8dd7bf314610a56578063cab9bd0014610a6d578063d547741f14610aa6578063d661d32014610ac657600080fd5b8063b6db75a0146109ea578063bbbf13ea146109ff578063c4f31a6514610a16578063c5e2bf1a14610a3657600080fd5b806396365d44116101a05780639f964fe61161016f5780639f964fe614610988578063a12dde4d1461099e578063a217fddf146109be578063a7292ea4146109d357600080fd5b806396365d441461092c57806399e7f250146109435780639b021fa21461095a5780639d585f7f1461097157600080fd5b80637fca631f116101dc5780637fca631f146108a35780638456cb59146108ba578063891369b2146108cf57806391d14854146108e657600080fd5b80636a15633b146108095780636f49712b146108295780637101fd161461085a57806375b238fc1461086f57600080fd5b80632588d168116102fd57806346e35faa1161029057806353654e851161025f57806353654e85146107995780635b483e4c146107b95780635c975abb146107d05780635fcbd285146107e857600080fd5b806346e35faa146107455780634f1ef2861461075c578063526d81f61461076f57806352d1902d1461078457600080fd5b80633659cfe6116102cc5780633659cfe6146106c25780633f489914146106e25780633f4ba83a1461070257806345bc78ab1461071757600080fd5b80632588d1681461064c5780632f2ff15d1461066d57806334d93fb41461068d57806336568abe146106a257600080fd5b806317cd802d116103755780632159e458116103445780632159e458146105d957806322eac12c146105f0578063248a9ca314610607578063257c27361461063757600080fd5b806317cd802d1461056b5780631be95459146105805780631daa910e146105a15780631e0018d6146105b857600080fd5b806307a7c08a116103b157806307a7c08a146104d65780630a2c1505146105005780630b4a45fd1461051b57806311eac8551461053257600080fd5b806301ffc9a7146103e3578063031994941461041857806304419b7614610486578063074f2543146104b3575b600080fd5b3480156103ef57600080fd5b506104036103fe366004615b62565b610bd5565b60405190151581526020015b60405180910390f35b34801561042457600080fd5b50610180546101815461018254610183546101845461018554610186546104519695949360ff1692919087565b604080519788526020880196909652948601939093529015156060850152608084015260a083015260c082015260e00161040f565b34801561049257600080fd5b50610165546104a19060ff1681565b60405160ff909116815260200161040f565b3480156104bf57600080fd5b506104c8610c3e565b60405190815260200161040f565b3480156104e257600080fd5b506104eb610ec5565b6040805192835260208301919091520161040f565b34801561050c57600080fd5b50610176546104039060ff1681565b34801561052757600080fd5b50610530610f82565b005b34801561053e57600080fd5b5061016254610553906001600160a01b031681565b6040516001600160a01b03909116815260200161040f565b34801561057757600080fd5b50610530610ffa565b34801561058c57600080fd5b5061015f54610553906001600160a01b031681565b3480156105ad57600080fd5b506104c86101735481565b3480156105c457600080fd5b5061016154610553906001600160a01b031681565b3480156105e557600080fd5b506104c861016f5481565b3480156105fc57600080fd5b506104c861016d5481565b34801561061357600080fd5b506104c8610622366004615b03565b60009081526065602052604090206001015490565b34801561064357600080fd5b5061053061193c565b34801561065857600080fd5b5061016054610553906001600160a01b031681565b34801561067957600080fd5b50610530610688366004615b33565b611dd1565b34801561069957600080fd5b50610530611dfb565b3480156106ae57600080fd5b506105306106bd366004615b33565b611e70565b3480156106ce57600080fd5b506105306106dd366004615a1e565b611efc565b3480156106ee57600080fd5b506105306106fd366004615c72565b612078565b34801561070e57600080fd5b50610530612612565b34801561072357600080fd5b506104c8610732366004615a1e565b6101776020526000908152604090205481565b34801561075157600080fd5b506104c86101745481565b61053061076a366004615a56565b6126a7565b34801561077b57600080fd5b50610530612810565b34801561079057600080fd5b506104c861292f565b3480156107a557600080fd5b506104c86107b4366004615c58565b6129f4565b3480156107c557600080fd5b506104c861016e5481565b3480156107dc57600080fd5b5060975460ff16610403565b3480156107f457600080fd5b5061016354610553906001600160a01b031681565b34801561081557600080fd5b50610530610824366004615c58565b6130b1565b34801561083557600080fd5b50610403610844366004615a1e565b6101786020526000908152604090205460ff1681565b34801561086657600080fd5b506104c86131c7565b34801561087b57600080fd5b506104c87fa49807205ce4d355092ef5a8a18f56e8913cf4a201fbe287825b095693c2177581565b3480156108af57600080fd5b506104c86101705481565b3480156108c657600080fd5b50610530613330565b3480156108db57600080fd5b506104c86101715481565b3480156108f257600080fd5b50610403610901366004615b33565b60009182526065602090815260408084206001600160a01b0393909316845291905290205460ff1690565b34801561093857600080fd5b506104c861016a5481565b34801561094f57600080fd5b506104c86101675481565b34801561096657600080fd5b506104c861016c5481565b34801561097d57600080fd5b506104c86101665481565b34801561099457600080fd5b5061017a546104c8565b3480156109aa57600080fd5b506105306109b9366004615a1e565b6133c3565b3480156109ca57600080fd5b506104c8600081565b3480156109df57600080fd5b506104c86101685481565b3480156109f657600080fd5b50610403613564565b348015610a0b57600080fd5b506104c861016b5481565b348015610a2257600080fd5b50610530610a31366004615b8a565b613595565b348015610a4257600080fd5b50610530610a51366004615c58565b613d90565b348015610a6257600080fd5b506104c86101645481565b348015610a7957600080fd5b506101795461017a5461017b5461017c5461017d5461017e5461017f546104519695949360ff1692919087565b348015610ab257600080fd5b50610530610ac1366004615b33565b613ea0565b348015610ad257600080fd5b506104c8613ec5565b348015610ae757600080fd5b506104eb613ed9565b348015610afc57600080fd5b50610b05613fb0565b60405161040f9190615d38565b348015610b1e57600080fd5b506104c86101725481565b348015610b3557600080fd5b506104c8614050565b348015610b4a57600080fd5b506104c87f65d7a28e3265b37a6474929f336521b332c1681b933f6cb9f3376673440d862a81565b348015610b7e57600080fd5b506105306140d6565b348015610b9357600080fd5b506104c86101755481565b348015610baa57600080fd5b50610530610bb9366004615c72565b614472565b348015610bca57600080fd5b506104c86101695481565b60006001600160e01b031982167f7965db0b000000000000000000000000000000000000000000000000000000001480610c3857507f01ffc9a7000000000000000000000000000000000000000000000000000000006001600160e01b03198316145b92915050565b600061016d5461016c541115610c9b5760405162461bcd60e51b815260206004820152601960248201527f52657061796d656e742050726f6365737320697320646f6e650000000000000060448201526064015b60405180910390fd5b6101605461016454604051630231155f60e51b81526001600160a01b0390921691634622abe091610cd29160040190815260200190565b60206040518083038186803b158015610cea57600080fd5b505afa158015610cfe573d6000803e3d6000fd5b505050506040513d601f19601f82011682018060405250810190610d229190615ae3565b1515600114610d865760405162461bcd60e51b815260206004820152602a60248201527f46756e647320696e206f70706f7274756e69747920686176656e2774206472616044820152693bb237bbb7103cb2ba1760b11b6064820152608401610c92565b6101655460009060ff1660011415610e1c575061016e54426000610da8614050565b9050600081831115610e09576000610dcd62015180610dc78686614a02565b90614a15565b9050610e05620f42405b610dc761016e54610dff610df8606461017054614a1590919063ffffffff16565b8690614a21565b90614a21565b9150505b610e138482614a2d565b95945050505050565b61016f5461016e54610e2d91614a02565b9050426000610e3a614050565b9050600081831115610e85576000610e5962015180610dc78686614a02565b9050610e81620f42405b610dc787610dff610df8606461017054614a1590919063ffffffff16565b9150505b610e8f8482614a2d565b935061016d5461016c541415610ebc576101815461017a54610e1391610eb59190614a2d565b8590614a2d565b5050505b919050565b600080600061016f5461016e54610edc9190615e1b565b61015f54909150600090610f1190610efc906001600160a01b0316614a39565b610f07906001615dc4565b61016f5490614a15565b61015f54909150600090610f3890610f31906001600160a01b0316614a39565b8390614a21565b90506000610f5684610dc76101725485614a2190919063ffffffff16565b90506000610f7485610dc76101735487614a2190919063ffffffff16565b919791965090945050505050565b610f8a613564565b610fea5760405162461bcd60e51b815260206004820152602b60248201527f4d75737420686176652061646d696e20726f6c6520746f20706572666f726d2060448201526a3a3434b99030b1ba34b7b760a91b6064820152608401610c92565b610176805460ff19166001179055565b600260c954141561104d5760405162461bcd60e51b815260206004820152601f60248201527f5265656e7472616e637947756172643a207265656e7472616e742063616c6c006044820152606401610c92565b600260c9556110977f2344277e405079ec07749d374ba0b5862a4e45a6a05ac889dbb4a991c6f9354d5b600090815260656020908152604080832033845290915290205460ff1690565b6110fa5760405162461bcd60e51b815260206004820152602e60248201527f4d757374206861766520626f72726f77657220726f6c6520746f20706572666f60448201526d3936903a3434b99030b1ba34b7b760911b6064820152608401610c92565b61016d5461016c5411156111505760405162461bcd60e51b815260206004820152601960248201527f52657061796d656e742050726f6365737320697320646f6e65000000000000006044820152606401610c92565b6101605461016454604051630231155f60e51b81526001600160a01b0390921691634622abe0916111879160040190815260200190565b60206040518083038186803b15801561119f57600080fd5b505afa1580156111b3573d6000803e3d6000fd5b505050506040513d601f19601f820116820180604052508101906111d79190615ae3565b151560011461123b5760405162461bcd60e51b815260206004820152602a60248201527f46756e647320696e206f70706f7274756e69747920686176656e2774206472616044820152693bb237bbb7103cb2ba1760b11b6064820152608401610c92565b6101655460ff16600114156115155761016e546101718054829190600090611264908490615dc4565b909155504290506000611275614050565b90506000818311156112a657600061129462015180610dc78686614a02565b90506112a2620f4240610dd7565b9150505b61015f546000906112d090610f07906001906112ca906001600160a01b0316614a39565b90614a2d565b61015f549091506000906112f090610f31906001600160a01b0316614a39565b61017b549091506113019082614a2d565b61017b55610182546113139083614a2d565b6101825561133a611330620f42405b61017254610dc79085614a21565b61017e5490614a2d565b61017e55611361611357620f42405b61017354610dc79086614a21565b6101855490614a2d565b6101855561138861137e620f42405b61017554610dc79087614a21565b6101865490614a2d565b610186556113af6113a5620f42405b61017454610dc79087614a21565b61017f5490614a2d565b61017f5561016f5461016e5460009182916113c991614a02565b90506113f4620f42405b61015f54610dc7906113ed906001600160a01b0316614aba565b8490614a21565b915061141f620f42405b61015f54610dc790611418906001600160a01b0316614aba565b8890614a21565b6114299083615dc4565b91506114358886614a2d565b61016a549098506114469089614a2d565b61016a5561016254611463906001600160a01b031633308b614ad2565b6101625461015f546001600160a01b039182169163a9059cbb916114879116614b60565b6040516001600160e01b031960e084901b1681526001600160a01b03909116600482015260248101859052604401602060405180830381600087803b1580156114cf57600080fd5b505af11580156114e3573d6000803e3d6000fd5b505050506040513d601f19601f820116820180604052508101906115079190615ae3565b50505050505050505061179b565b600061153061016f5461016e54614a0290919063ffffffff16565b90508061017160008282546115459190615dc4565b909155504290506000611556614050565b905060008183111561158757600061157562015180610dc78686614a02565b9050611583620f4240610e63565b9150505b61015f546000906115ab90610f07906001906112ca906001600160a01b0316614a39565b61015f549091506000906115cb90610f31906001600160a01b0316614a39565b90506115dc611330620f4240611322565b61017e556115ef611357620f4240611349565b6101855561160261137e620f4240611370565b610186556116156113a5620f4240611397565b61017f5561016f5461016e54600091829161162f91614a02565b905061163d620f42406113d3565b915061164b620f42406113fe565b6116559083615dc4565b915061016d5461016c5414156116b55761017a5461017b8190556101815461018281905561168e916116879190614a2d565b8990614a2d565b61017b54610182549199506116b0916116a691614a2d565b6101715490614a2d565b610171555b6116bf8886614a2d565b61016a549098506116d09089614a2d565b61016a55610162546116ed906001600160a01b031633308b614ad2565b6101625461015f546001600160a01b039182169163a9059cbb916117119116614b60565b6040516001600160e01b031960e084901b1681526001600160a01b03909116600482015260248101859052604401602060405180830381600087803b15801561175957600080fd5b505af115801561176d573d6000803e3d6000fd5b505050506040513d601f19601f820116820180604052508101906117919190615ae3565b5050505050505050505b61016d5461016c5414156119225761016054610164546040517f332f14860000000000000000000000000000000000000000000000000000000081526001600160a01b039092169163332f1486916117f99160040190815260200190565b600060405180830381600087803b15801561181357600080fd5b505af1158015611827573d6000803e3d6000fd5b505061017b5461017e5461017f546000945091925061184591615dc4565b61184f9190615dc4565b90508061016a60008282546118649190615e1b565b9091555050600061017f81905561017b81905561017e556101625461015f546001600160a01b039182169163a9059cbb9161189f9116614be2565b6040516001600160e01b031960e084901b1681526001600160a01b03909116600482015260248101849052604401602060405180830381600087803b1580156118e757600080fd5b505af11580156118fb573d6000803e3d6000fd5b505050506040513d601f19601f8201168201806040525081019061191f9190615ae3565b50505b61016c54611931906001614a2d565b61016c55600160c955565b61016054610164546040517f6815322c0000000000000000000000000000000000000000000000000000000081526001600160a01b0390921691636815322c9161198c9160040190815260200190565b60206040518083038186803b1580156119a457600080fd5b505afa1580156119b8573d6000803e3d6000fd5b505050506040513d601f19601f820116820180604052508101906119dc9190615ae3565b1515600114611a535760405162461bcd60e51b815260206004820152602960248201527f4f70706f7274756e69747920706f6f6c20697320686176656e2774205772697460448201527f656f6666207965742e00000000000000000000000000000000000000000000006064820152608401610c92565b61015f54611a69906001600160a01b0316614bfa565b6001600160a01b0316336001600160a01b031614611aef5760405162461bcd60e51b815260206004820152603060248201527f4f6e6c79204f70706f7274756e6974794f726967696e6174696f6e2063616e2060448201527f657865637574652077726974656f6666000000000000000000000000000000006064820152608401610c92565b61015f54600090611b2490611b13906001906112ca906001600160a01b0316614a39565b61016d5461016f54610dc791614a21565b61015f54909150600090611b4490610f31906001600160a01b0316614a39565b90506000611b54620f4240611322565b6101655490915060009060ff1660011415611baf57426000611b74614050565b9050600081831115611ba5576000611b9362015180610dc78686614a02565b9050611ba1620f4240610dd7565b9150505b9250611c0e915050565b6000611bca61016f5461016e54614a0290919063ffffffff16565b9050426000611bd7614050565b9050600081831115611c08576000611bf662015180610dc78686614a02565b9050611c04620f4240610e63565b9150505b93505050505b611c23620f424061017454610dc79084614a21565b61017f54909150600090611c379083615dc4565b61017a54909150600090611c4b8584615dc4565b611c559190615dc4565b90508061016a541115611d215760008161016a54611c739190615e1b565b6101625461015f549192506001600160a01b039081169163a9059cbb91611c9a9116614be2565b6040516001600160e01b031960e084901b1681526001600160a01b03909116600482015260248101859052604401602060405180830381600087803b158015611ce257600080fd5b505af1158015611cf6573d6000803e3d6000fd5b505050506040513d601f19601f82011682018060405250810190611d1a9190615ae3565b5050611dc9565b6101625461015f546001600160a01b039182169163a9059cbb91611d459116614be2565b61016a546040516001600160e01b031960e085901b1681526001600160a01b0390921660048301526024820152604401602060405180830381600087803b158015611d8f57600080fd5b505af1158015611da3573d6000803e3d6000fd5b505050506040513d601f19601f82011682018060405250810190611dc79190615ae3565b505b505050505050565b600082815260656020526040902060010154611dec81614c12565b611df68383614c1c565b505050565b611e03613564565b611e635760405162461bcd60e51b815260206004820152602b60248201527f4d75737420686176652061646d696e20726f6c6520746f20706572666f726d2060448201526a3a3434b99030b1ba34b7b760a91b6064820152608401610c92565b610176805460ff19169055565b6001600160a01b0381163314611eee5760405162461bcd60e51b815260206004820152602f60248201527f416363657373436f6e74726f6c3a2063616e206f6e6c792072656e6f756e636560448201527f20726f6c657320666f722073656c6600000000000000000000000000000000006064820152608401610c92565b611ef88282614cbe565b5050565b306001600160a01b037f0000000000000000000000000000000000000000000000000000000000000000161415611f8a5760405162461bcd60e51b815260206004820152602c60248201527f46756e6374696f6e206d7573742062652063616c6c6564207468726f7567682060448201526b19195b1959d85d1958d85b1b60a21b6064820152608401610c92565b7f00000000000000000000000000000000000000000000000000000000000000006001600160a01b0316611fe57f360894a13ba1a3210667c828492db98dca3e2076cc3735a920a3ca505d382bbc546001600160a01b031690565b6001600160a01b0316146120505760405162461bcd60e51b815260206004820152602c60248201527f46756e6374696f6e206d7573742062652063616c6c6564207468726f7567682060448201526b6163746976652070726f787960a01b6064820152608401610c92565b61205981614d41565b6040805160008082526020820190925261207591839190614da9565b50565b600260c95414156120cb5760405162461bcd60e51b815260206004820152601f60248201527f5265656e7472616e637947756172643a207265656e7472616e742063616c6c006044820152606401610c92565b600260c9556120d8614f58565b600160ff8316111561212c5760405162461bcd60e51b815260206004820152601860248201527f537562706f6f6c4944203a206f7574206f662072616e676500000000000000006044820152606401610c92565b6000811161217c5760405162461bcd60e51b815260206004820181905260248201527f416d6f756e74204d7573742062652067726561746572207468616e207a65726f6044820152606401610c92565b60ff8216600114156123155761017c5460ff16156121dc5760405162461bcd60e51b815260206004820152601860248201527f53656e696f7220537562706f6f6c206973206c6f636b656400000000000000006044820152606401610c92565b6122057fa794a061bac4a541306b6778cc120a221216f325de0020c39b67101d49158ca2611077565b6122855760405162461bcd60e51b8152602060048201526044602482018190527f596f75206d75737420686176652053656e696f7220706f6f6c20726f6c652069908201527f6e206f7264657220746f206465706f73697420696e2073656e696f72207375626064820152631c1bdbdb60e21b608482015260a401610c92565b61017b548111156122fe5760405162461bcd60e51b815260206004820152603b60248201527f416d6f756e7420657863656564732074686520546f74616c206465706f73697460448201527f656420616d6f756e74206f662073656e696f7220737562706f6f6c00000000006064820152608401610c92565b61017b5461230c9082614a02565b61017b556125a3565b60ff82166125a357610184544210156123705760405162461bcd60e51b815260206004820181905260248201527f66756e647320617265206c6f636b20756e74696c204c6f616e2054656e7572656044820152606401610c92565b6101835460ff16156123c45760405162461bcd60e51b815260206004820152601860248201527f4a756e696f7220537562706f6f6c206973206c6f636b656400000000000000006044820152606401610c92565b3360009081526101776020908152604080832054610178909252909120805460ff19169183111591821790556124625760405162461bcd60e51b815260206004820152603560248201527f796f757220776974686472617720616d6f756e7420697320686967686572207460448201527f68616e206465706f736974656420616d6f756e742e00000000000000000000006064820152608401610c92565b610182548111156124db5760405162461bcd60e51b815260206004820152603b60248201527f416d6f756e7420657863656564732074686520546f74616c206465706f73697460448201527f656420616d6f756e74206f66206a756e696f7220737562706f6f6c00000000006064820152608401610c92565b610182546124e99082614a02565b6101825533600090815261017760205260409020546125089082614a02565b336000908152610177602052604090208190556125a357336000818152610178602052604090819020805460ff1916905561016154610164549151631bd3b3dd60e31b8152600481019390935260248301919091526001600160a01b03169063de9d9ee890604401600060405180830381600087803b15801561258a57600080fd5b505af115801561259e573d6000803e3d6000fd5b505050505b61016a546125b19082614a02565b61016a55610162546125ce906001600160a01b0316303384614ad2565b60405181815260ff83169033907fd5717d2b2bcb82b3f3aea5c8c75e2194c2a7b177469cd9a5cef423e940ab81c7906020015b60405180910390a35050600160c955565b61263c7f65d7a28e3265b37a6474929f336521b332c1681b933f6cb9f3376673440d862a33610901565b61269d5760405162461bcd60e51b815260206004820152602c60248201527f4d75737420686176652070617573657220726f6c6520746f20706572666f726d60448201526b103a3434b99030b1ba34b7b760a11b6064820152608401610c92565b6126a5614fab565b565b306001600160a01b037f00000000000000000000000000000000000000000000000000000000000000001614156127355760405162461bcd60e51b815260206004820152602c60248201527f46756e6374696f6e206d7573742062652063616c6c6564207468726f7567682060448201526b19195b1959d85d1958d85b1b60a21b6064820152608401610c92565b7f00000000000000000000000000000000000000000000000000000000000000006001600160a01b03166127907f360894a13ba1a3210667c828492db98dca3e2076cc3735a920a3ca505d382bbc546001600160a01b031690565b6001600160a01b0316146127fb5760405162461bcd60e51b815260206004820152602c60248201527f46756e6374696f6e206d7573742062652063616c6c6564207468726f7567682060448201526b6163746976652070726f787960a01b6064820152608401610c92565b61280482614d41565b611ef882826001614da9565b600054610100900460ff16158080156128305750600054600160ff909116105b8061284a5750303b15801561284a575060005460ff166001145b6128bc5760405162461bcd60e51b815260206004820152602e60248201527f496e697469616c697a61626c653a20636f6e747261637420697320616c72656160448201527f647920696e697469616c697a65640000000000000000000000000000000000006064820152608401610c92565b6000805460ff1916600117905580156128df576000805461ff0019166101001790555b6128e7614ffd565b8015612075576000805461ff0019169055604051600181527f7f26b83ff96e1f2b6a682f133852f6798a09c465da95921460cefb38474024989060200160405180910390a150565b6000306001600160a01b037f000000000000000000000000000000000000000000000000000000000000000016146129cf5760405162461bcd60e51b815260206004820152603860248201527f555550535570677261646561626c653a206d757374206e6f742062652063616c60448201527f6c6564207468726f7567682064656c656761746563616c6c00000000000000006064820152608401610c92565b507f360894a13ba1a3210667c828492db98dca3e2076cc3735a920a3ca505d382bbc90565b6000600260c9541415612a495760405162461bcd60e51b815260206004820152601f60248201527f5265656e7472616e637947756172643a207265656e7472616e742063616c6c006044820152606401610c92565b600260c955612a56614f58565b600160ff83161115612aaa5760405162461bcd60e51b815260206004820152601860248201527f537562706f6f6c4944203a206f7574206f662072616e676500000000000000006044820152606401610c92565b6101605461016454604051638176715560e01b81526001600160a01b0390921691638176715591612ae19160040190815260200190565b60206040518083038186803b158015612af957600080fd5b505afa158015612b0d573d6000803e3d6000fd5b505050506040513d601f19601f82011682018060405250810190612b319190615ae3565b1515600114612b955760405162461bcd60e51b815260206004820152602a60248201527f46756e647320696e206f70706f7274756e69747920686176656e2774206472616044820152693bb237bbb7103cb2ba1760b11b6064820152608401610c92565b600060ff831660011415612d5c5761017c5460ff1615612bf75760405162461bcd60e51b815260206004820152601860248201527f53656e696f7220537562706f6f6c206973206c6f636b656400000000000000006044820152606401610c92565b612c207fa794a061bac4a541306b6778cc120a221216f325de0020c39b67101d49158ca2611077565b612ca05760405162461bcd60e51b8152602060048201526044602482018190527f596f75206d75737420686176652053656e696f7220706f6f6c20726f6c652069908201527f6e206f7264657220746f206465706f73697420696e2073656e696f72207375626064820152631c1bdbdb60e21b608482015260a401610c92565b61017b54612d165760405162461bcd60e51b815260206004820152602b60248201527f62616c616e6365206f662073656e696f7220737562706f6f6c206973207a657260448201527f6f2063757272656e746c790000000000000000000000000000000000000000006064820152608401610c92565b61017e5461017b54612d2791614a2d565b61017f5490915015612d4b5761017f54612d42908290614a2d565b600061017f5590505b600061017b81905561017e5561307b565b60ff831661307b576101835460ff1615612db85760405162461bcd60e51b815260206004820152601860248201527f4a756e696f7220537562706f6f6c206973206c6f636b656400000000000000006044820152606401610c92565b336000908152610178602052604090205460ff1615156001148015612dec5750336000908152610177602052604090205415155b612e385760405162461bcd60e51b815260206004820152601760248201527f7a65726f20616d6f756e7420746f206465706f7369742e0000000000000000006044820152606401610c92565b6101825433600090815261017760205260409020541115612eb15760405162461bcd60e51b815260206004820152602d60248201527f63757272656e746c79206a756e696f7220737562706f6f6c20646f6e2774206860448201526c617665204c697175696469747960981b6064820152608401610c92565b6000612ed9620f42405b336000908152610177602052604090205461017354610dc791614a21565b61018554909150811115612f455760405162461bcd60e51b815260206004820152602d60248201527f63757272656e746c79206a756e696f7220737562706f6f6c20646f6e2774206860448201526c617665204c697175696469747960981b6064820152608401610c92565b336000908152610177602052604090205461018254612f6391614a02565b6101825561018554612f759082614a02565b6101855533600090815261017860209081526040808320805460ff19169055610177909152902054612fa79082614a2d565b6101865490925015612ffe576000612fdb620f42405b336000908152610177602052604090205461017554610dc791614a21565b9050612fe78382614a2d565b61018654909350612ff89082614a02565b61018655505b6101615461016454604051631bd3b3dd60e31b815233600482015260248101919091526001600160a01b039091169063de9d9ee890604401600060405180830381600087803b15801561305057600080fd5b505af1158015613064573d6000803e3d6000fd5b505033600090815261017760205260408120555050505b61016a546130899082614a02565b61016a55610162546130a6906001600160a01b0316303384614ad2565b600160c95592915050565b6130da7ffa4b6f760d780a02797df53a6c2ccf476001dc02ee4f9b6b1426dafc21ff6baf611077565b61313d5760405162461bcd60e51b815260206004820152602e60248201527f4d757374206861766520626f72726f77657220726f6c6520746f20706572666f60448201526d3936903a3434b99030b1ba34b7b760911b6064820152608401610c92565b600160ff821611156131915760405162461bcd60e51b815260206004820152601860248201527f537562706f6f6c4944203a206f7574206f662072616e676500000000000000006044820152606401610c92565b60ff8116600114156131ae5761017c805460ff1916600117905550565b60ff811661207557610183805460ff1916600117905550565b336000908152610178602052604081205460ff16151560011480156131fb5750336000908152610177602052604090205415155b6132475760405162461bcd60e51b815260206004820152601960248201527f7a65726f20616d6f756e7420746f206465706f73697465642e000000000000006044820152606401610c92565b6101605461016454604051638176715560e01b815260048101919091526000916001600160a01b03169063817671559060240160206040518083038186803b15801561329257600080fd5b505afa1580156132a6573d6000803e3d6000fd5b505050506040513d601f19601f820116820180604052508101906132ca9190615ae3565b151560011415610ec05760006132e2620f4240612ebb565b33600090815261017760205260409020549091506133009082614a2d565b610186549092501561332a57600061331a620f4240612fbd565b90506133268382614a2d565b9250505b50919050565b61335a7f65d7a28e3265b37a6474929f336521b332c1681b933f6cb9f3376673440d862a33610901565b6133bb5760405162461bcd60e51b815260206004820152602c60248201527f4d75737420686176652070617573657220726f6c6520746f20706572666f726d60448201526b103a3434b99030b1ba34b7b760a11b6064820152608401610c92565b6126a5615074565b600054610100900460ff1661342e5760405162461bcd60e51b815260206004820152602b60248201527f496e697469616c697a61626c653a20636f6e7472616374206973206e6f74206960448201526a6e697469616c697a696e6760a81b6064820152608401610c92565b6001600160a01b0381166134845760405162461bcd60e51b815260206004820181905260248201527f4f776e65722063616e6e6f7420626520746865207a65726f20616464726573736044820152606401610c92565b61348c6150b1565b613494614ffd565b61349c61511c565b6134c67fa49807205ce4d355092ef5a8a18f56e8913cf4a201fbe287825b095693c217758261518e565b6134f07f65d7a28e3265b37a6474929f336521b332c1681b933f6cb9f3376673440d862a8261518e565b61353a7f65d7a28e3265b37a6474929f336521b332c1681b933f6cb9f3376673440d862a7fa49807205ce4d355092ef5a8a18f56e8913cf4a201fbe287825b095693c21775615198565b6120757fa49807205ce4d355092ef5a8a18f56e8913cf4a201fbe287825b095693c2177580615198565b60006135907fa49807205ce4d355092ef5a8a18f56e8913cf4a201fbe287825b095693c2177533610901565b905090565b600054610100900460ff16158080156135b55750600054600160ff909116105b806135cf5750303b1580156135cf575060005460ff166001145b6136415760405162461bcd60e51b815260206004820152602e60248201527f496e697469616c697a61626c653a20636f6e747261637420697320616c72656160448201527f647920696e697469616c697a65640000000000000000000000000000000000006064820152608401610c92565b6000805460ff191660011790558015613664576000805461ff0019166101001790555b6001600160a01b0388166136ba5760405162461bcd60e51b815260206004820152601660248201527f496e76616c696420636f6e6669672061646472657373000000000000000000006044820152606401610c92565b61015f80546001600160a01b0319166001600160a01b038a169081179091556000906136e5906151e3565b90506001600160a01b03811661373d5760405162461bcd60e51b815260206004820152600d60248201527f496e76616c6964204f776e6572000000000000000000000000000000000000006044820152606401610c92565b61015f54613753906001600160a01b0316614bfa565b61016080546001600160a01b0319166001600160a01b0392831617905561015f5461377e91166151fa565b61016180546001600160a01b0319166001600160a01b03929092169190911790556137a8816133c3565b61015f546137be906001600160a01b0316615212565b61016280546001600160a01b0319166001600160a01b0392831617905561015f546137e9911661522a565b61016380546001600160a01b0319166001600160a01b03929092169190911790556138557fa794a061bac4a541306b6778cc120a221216f325de0020c39b67101d49158ca25b7fa49807205ce4d355092ef5a8a18f56e8913cf4a201fbe287825b095693c21775615198565b6138947fa794a061bac4a541306b6778cc120a221216f325de0020c39b67101d49158ca261015f5461388f906001600160a01b0316614be2565b61518e565b6138bd7f2344277e405079ec07749d374ba0b5862a4e45a6a05ac889dbb4a991c6f9354d61382f565b6138e67ffa4b6f760d780a02797df53a6c2ccf476001dc02ee4f9b6b1426dafc21ff6baf61382f565b6139117ffa4b6f760d780a02797df53a6c2ccf476001dc02ee4f9b6b1426dafc21ff6baf5b8261518e565b610160546040517f728c3ea2000000000000000000000000000000000000000000000000000000008152600481018a90526000916001600160a01b03169063728c3ea29060240160206040518083038186803b15801561397057600080fd5b505afa158015613984573d6000803e3d6000fd5b505050506040513d601f19601f820116820180604052508101906139a89190615a3a565b90506139d37f2344277e405079ec07749d374ba0b5862a4e45a6a05ac889dbb4a991c6f9354d61390b565b610164899055610166889055610167879055610168869055610169859055600161016c55610165805460ff191660ff861617905561015f546040517fe4a3d784000000000000000000000000000000000000000000000000000000008152600481018b90526001600160a01b039091169063e4a3d7849060240160206040518083038186803b158015613a6557600080fd5b505afa158015613a79573d6000803e3d6000fd5b505050506040513d601f19601f82011682018060405250810190613a9d9190615ae3565b613b235761017c805460ff1916600117905561015f54600090613ae190613acc906001600160a01b0316614a39565b613ad7906001615dc4565b6101665490614a15565b61015f54909150613b0590613afe906001600160a01b0316614a39565b8290614a21565b61017a81905561016654613b199190615e1b565b6101815550613b3a565b610183805460ff191660011790556101665461017a555b60006101675462015180613b4e9190615dfc565b9050613b5a8142615dc4565b610184556000613b7761016d6101675461016854610dc791614a21565b90506000613ba7613b9d620f4240610dc7613b93866064614a15565b6101665490614a21565b6101665490614a2d565b9050613bcc613bc56101695461016754614a1590919063ffffffff16565b8290614a15565b61016e55613bec61016d61015f54610dc7906001600160a01b0316615242565b61017055613c12620f4240610dff613ad7620f42406101695461016754610dff91614a15565b61016f556101695461016754613c2791614a15565b61016d55613c33613ed9565b6101735561017255613c43610ec5565b6101755561017455610162546040517f095ea7b300000000000000000000000000000000000000000000000000000000815230600482015260001960248201526000916001600160a01b03169063095ea7b390604401602060405180830381600087803b158015613cb357600080fd5b505af1158015613cc7573d6000803e3d6000fd5b505050506040513d601f19601f82011682018060405250810190613ceb9190615ae3565b905080613d3a5760405162461bcd60e51b815260206004820152601660248201527f4661696c656420746f20617070726f76652055534443000000000000000000006044820152606401610c92565b5050505050508015613d86576000805461ff0019169055604051600181527f7f26b83ff96e1f2b6a682f133852f6798a09c465da95921460cefb38474024989060200160405180910390a15b5050505050505050565b613db97ffa4b6f760d780a02797df53a6c2ccf476001dc02ee4f9b6b1426dafc21ff6baf611077565b613e1c5760405162461bcd60e51b815260206004820152602e60248201527f4d757374206861766520626f72726f77657220726f6c6520746f20706572666f60448201526d3936903a3434b99030b1ba34b7b760911b6064820152608401610c92565b600160ff82161115613e705760405162461bcd60e51b815260206004820152601860248201527f537562706f6f6c4944203a206f7574206f662072616e676500000000000000006044820152606401610c92565b60ff811660011415613e8a5761017c805460ff1916905550565b60ff811661207557610183805460ff1916905550565b600082815260656020526040902060010154613ebb81614c12565b611df68383614cbe565b61017f5461017e5460009161359091615dc4565b60008080620f424090506000613f40620f424061015f54610dc790613f3190613f0a906001600160a01b031661525a565b61015f54613f2b90613f24906001600160a01b0316614aba565b8890614a02565b90614a02565b61016854610dff906064614a15565b90506000613fa4620f424061015f54610dc790613f3190613f8390613f6d906001600160a01b0316614a39565b61015f54610dff906001600160a01b031661525a565b61015f546112ca90613f9d906001600160a01b0316614aba565b8990614a02565b91959194509092505050565b61016054610164546040517ff00474a600000000000000000000000000000000000000000000000000000000815260048101919091526060916001600160a01b03169063f00474a69060240160006040518083038186803b15801561401457600080fd5b505afa158015614028573d6000803e3d6000fd5b505050506040513d6000823e601f3d908101601f191682016040526135909190810190615bee565b600061016d5461016c5411156140a85760405162461bcd60e51b815260206004820152601960248201527f52657061796d656e742050726f6365737320697320646f6e65000000000000006044820152606401610c92565b6000610c386140cc61016954620151806140c29190615dfc565b61016c5490614a21565b61016b5490614a2d565b600260c95414156141295760405162461bcd60e51b815260206004820152601f60248201527f5265656e7472616e637947756172643a207265656e7472616e742063616c6c006044820152606401610c92565b600260c955614136614f58565b61415f7f2344277e405079ec07749d374ba0b5862a4e45a6a05ac889dbb4a991c6f9354d611077565b6141c25760405162461bcd60e51b815260206004820152602e60248201527f4d757374206861766520626f72726f77657220726f6c6520746f20706572666f60448201526d3936903a3434b99030b1ba34b7b760911b6064820152608401610c92565b6101605461016454604051630231155f60e51b81526001600160a01b0390921691634622abe0916141f99160040190815260200190565b60206040518083038186803b15801561421157600080fd5b505afa158015614225573d6000803e3d6000fd5b505050506040513d601f19601f820116820180604052508101906142499190615ae3565b156142bc5760405162461bcd60e51b815260206004820152602a60248201527f46756e647320696e206f70706f7274756e6974792061726520616c726561647960448201527f2064726177646f776e2e000000000000000000000000000000000000000000006064820152608401610c92565b6101765460ff16156143105760405162461bcd60e51b815260206004820152601260248201527f44726177646f776e2069732070617573656400000000000000000000000000006044820152606401610c92565b6101665461016a54146143b15760405162461bcd60e51b815260206004820152604760248201527f546f74616c204465706f736974656420616d6f756e7420696e206f70706f727460448201527f756e69747920706f6f6c206d75737420626520657175616c20746f206c6f616e60648201527f20616d6f756e7400000000000000000000000000000000000000000000000000608482015260a401610c92565b61016a805460009182905561018282905561017b919091554261016b5561016054610164546040517faf7ea9440000000000000000000000000000000000000000000000000000000081526001600160a01b039092169163af7ea9449161441e9160040190815260200190565b600060405180830381600087803b15801561443857600080fd5b505af115801561444c573d6000803e3d6000fd5b50506101625461446a92506001600160a01b03169050303384614ad2565b50600160c955565b600260c95414156144c55760405162461bcd60e51b815260206004820152601f60248201527f5265656e7472616e637947756172643a207265656e7472616e742063616c6c006044820152606401610c92565b600260c955600160ff8316111561451e5760405162461bcd60e51b815260206004820152601860248201527f537562706f6f6c4944203a206f7574206f662072616e676500000000000000006044820152606401610c92565b6000811161456e5760405162461bcd60e51b815260206004820181905260248201527f416d6f756e74204d7573742062652067726561746572207468616e207a65726f6044820152606401610c92565b60ff82166001141561471d5761017c5460ff16156145ce5760405162461bcd60e51b815260206004820152601860248201527f53656e696f7220537562706f6f6c206973206c6f636b656400000000000000006044820152606401610c92565b6145f77fa794a061bac4a541306b6778cc120a221216f325de0020c39b67101d49158ca2611077565b6146775760405162461bcd60e51b8152602060048201526044602482018190527f596f75206d75737420686176652053656e696f7220706f6f6c20726f6c652069908201527f6e206f7264657220746f206465706f73697420696e2073656e696f72207375626064820152631c1bdbdb60e21b608482015260a401610c92565b61017b54600090614689908390614a2d565b61017a549091508111156147055760405162461bcd60e51b815260206004820152603860248201527f416d6f756e7420657863656564732074686520546f74616c206465706f73697460448201527f206c696d6974206f662073656e696f7220737562706f6f6c00000000000000006064820152608401610c92565b61017b546147139083614a2d565b61017b55506149a0565b60ff82166149a0576101835460ff16156147795760405162461bcd60e51b815260206004820152601860248201527f4a756e696f7220537562706f6f6c206973206c6f636b656400000000000000006044820152606401610c92565b6101825460009061478b908390614a2d565b610181549091508111156148075760405162461bcd60e51b815260206004820152603860248201527f416d6f756e7420657863656564732074686520546f74616c206465706f73697460448201527f206c696d6974206f66206a756e696f7220737562706f6f6c00000000000000006064820152608401610c92565b610182546148159083614a2d565b6101825533600090815261017760205260409020546148349083614a2d565b33600081815261017760209081526040808320949094556101789052829020805460ff19166001179055610161546101645492517fe954539d000000000000000000000000000000000000000000000000000000008152600481019290925260248201929092526001600160a01b039091169063e954539d9060440160206040518083038186803b1580156148c857600080fd5b505afa1580156148dc573d6000803e3d6000fd5b505050506040513d601f19601f820116820180604052508101906149009190615ae3565b6149885761016154610164546040517fa68a132200000000000000000000000000000000000000000000000000000000815233600482015260248101919091526001600160a01b039091169063a68a132290604401600060405180830381600087803b15801561496f57600080fd5b505af1158015614983573d6000803e3d6000fd5b505050505b61018154811061499e5761017c805460ff191690555b505b61016a546149ae9082614a2d565b61016a55610162546149cb906001600160a01b0316333084614ad2565b60405181815260ff83169033907f1d0787aee899a49ef81d0b11da9aca5455b46aefed042a41bd398d74619cab0090602001612601565b6000614a0e8284615e1b565b9392505050565b6000614a0e8284615ddc565b6000614a0e8284615dfc565b6000614a0e8284615dc4565b60006001600160a01b03821663fc563658825b6040518263ffffffff1660e01b8152600401614a6a91815260200190565b60206040518083038186803b158015614a8257600080fd5b505afa158015614a96573d6000803e3d6000fd5b505050506040513d601f19601f82011682018060405250810190610c389190615b1b565b60006001600160a01b03821663fc5636586001614a4c565b604080516001600160a01b0385811660248301528416604482015260648082018490528251808303909101815260849091019091526020810180517bffffffffffffffffffffffffffffffffffffffffffffffffffffffff167f23b872dd00000000000000000000000000000000000000000000000000000000179052614b5a908590615272565b50505050565b60006001600160a01b03821663b93f9b0a60085b6040518263ffffffff1660e01b8152600401614b9291815260200190565b60206040518083038186803b158015614baa57600080fd5b505afa158015614bbe573d6000803e3d6000fd5b505050506040513d601f19601f82011682018060405250810190610c389190615a3a565b60006001600160a01b03821663b93f9b0a6003614b74565b60006001600160a01b03821663b93f9b0a6006614b74565b6120758133615357565b60008281526065602090815260408083206001600160a01b038516845290915290205460ff16611ef85760008281526065602090815260408083206001600160a01b03851684529091529020805460ff19166001179055614c7a3390565b6001600160a01b0316816001600160a01b0316837f2f8788117e7eff1d82e926ec794901d17c78024a50270940304540a733656f0d60405160405180910390a45050565b60008281526065602090815260408083206001600160a01b038516845290915290205460ff1615611ef85760008281526065602090815260408083206001600160a01b0385168085529252808320805460ff1916905551339285917ff6391f5c32d9c69d2a47ea670b442974b53935d1edc7fd64eb21e047a839171b9190a45050565b614d49613564565b6120755760405162461bcd60e51b815260206004820152602b60248201527f4d75737420686176652061646d696e20726f6c6520746f20706572666f726d2060448201526a3a3434b99030b1ba34b7b760a91b6064820152608401610c92565b7f4910fdfa16fed3260ed0e7147f7cc6da11a60208b5b9406d12a635614ffd91435460ff1615614ddc57611df6836153d7565b826001600160a01b03166352d1902d6040518163ffffffff1660e01b815260040160206040518083038186803b158015614e1557600080fd5b505afa925050508015614e45575060408051601f3d908101601f19168201909252614e4291810190615b1b565b60015b614eb75760405162461bcd60e51b815260206004820152602e60248201527f45524331393637557067726164653a206e657720696d706c656d656e7461746960448201527f6f6e206973206e6f7420555550530000000000000000000000000000000000006064820152608401610c92565b7f360894a13ba1a3210667c828492db98dca3e2076cc3735a920a3ca505d382bbc8114614f4c5760405162461bcd60e51b815260206004820152602960248201527f45524331393637557067726164653a20756e737570706f727465642070726f7860448201527f6961626c655555494400000000000000000000000000000000000000000000006064820152608401610c92565b50611df6838383615495565b60975460ff16156126a55760405162461bcd60e51b815260206004820152601060248201527f5061757361626c653a20706175736564000000000000000000000000000000006044820152606401610c92565b614fb36154ba565b6097805460ff191690557f5db9ee0a495bf2e6ff9c91a7834c1ba4fdd244a5e8aa4e537bd38aeae4b073aa335b6040516001600160a01b03909116815260200160405180910390a1565b600054610100900460ff166150685760405162461bcd60e51b815260206004820152602b60248201527f496e697469616c697a61626c653a20636f6e7472616374206973206e6f74206960448201526a6e697469616c697a696e6760a81b6064820152608401610c92565b6097805460ff19169055565b61507c614f58565b6097805460ff191660011790557f62e78cea01bee320cd4e420270b5ea74000d11b0c9f74754ebdbfc544b05a258614fe03390565b600054610100900460ff166126a55760405162461bcd60e51b815260206004820152602b60248201527f496e697469616c697a61626c653a20636f6e7472616374206973206e6f74206960448201526a6e697469616c697a696e6760a81b6064820152608401610c92565b600054610100900460ff166151875760405162461bcd60e51b815260206004820152602b60248201527f496e697469616c697a61626c653a20636f6e7472616374206973206e6f74206960448201526a6e697469616c697a696e6760a81b6064820152608401610c92565b600160c955565b611ef88282614c1c565b600082815260656020526040808220600101805490849055905190918391839186917fbd79b86ffe0ab8e8776151514217cd7cacd52c909f66475c3af44e129f0b00ff9190a4505050565b60006001600160a01b03821663b93f9b0a82614b74565b60006001600160a01b03821663b93f9b0a6007614b74565b60006001600160a01b03821663b93f9b0a6002614b74565b60006001600160a01b03821663b93f9b0a6001614b74565b60006001600160a01b03821663fc5636586002614a4c565b60006001600160a01b03821663fc5636586003614a4c565b60006152c7826040518060400160405280602081526020017f5361666545524332303a206c6f772d6c6576656c2063616c6c206661696c6564815250856001600160a01b031661550c9092919063ffffffff16565b805190915015611df657808060200190518101906152e59190615ae3565b611df65760405162461bcd60e51b815260206004820152602a60248201527f5361666545524332303a204552433230206f7065726174696f6e20646964206e60448201527f6f742073756363656564000000000000000000000000000000000000000000006064820152608401610c92565b60008281526065602090815260408083206001600160a01b038516845290915290205460ff16611ef857615395816001600160a01b03166014615523565b6153a0836020615523565b6040516020016153b1929190615cb7565b60408051601f198184030181529082905262461bcd60e51b8252610c9291600401615d38565b6001600160a01b0381163b6154545760405162461bcd60e51b815260206004820152602d60248201527f455243313936373a206e657720696d706c656d656e746174696f6e206973206e60448201527f6f74206120636f6e7472616374000000000000000000000000000000000000006064820152608401610c92565b7f360894a13ba1a3210667c828492db98dca3e2076cc3735a920a3ca505d382bbc80546001600160a01b0319166001600160a01b0392909216919091179055565b61549e8361574a565b6000825111806154ab5750805b15611df657614b5a838361578a565b60975460ff166126a55760405162461bcd60e51b815260206004820152601460248201527f5061757361626c653a206e6f74207061757365640000000000000000000000006044820152606401610c92565b606061551b848460008561588c565b949350505050565b60606000615532836002615dfc565b61553d906002615dc4565b67ffffffffffffffff81111561556357634e487b7160e01b600052604160045260246000fd5b6040519080825280601f01601f19166020018201604052801561558d576020820181803683370190505b5090507f3000000000000000000000000000000000000000000000000000000000000000816000815181106155d257634e487b7160e01b600052603260045260246000fd5b60200101906001600160f81b031916908160001a9053507f78000000000000000000000000000000000000000000000000000000000000008160018151811061562b57634e487b7160e01b600052603260045260246000fd5b60200101906001600160f81b031916908160001a905350600061564f846002615dfc565b61565a906001615dc4565b90505b60018111156156fb577f303132333435363738396162636465660000000000000000000000000000000085600f16601081106156a957634e487b7160e01b600052603260045260246000fd5b1a60f81b8282815181106156cd57634e487b7160e01b600052603260045260246000fd5b60200101906001600160f81b031916908160001a90535060049490941c936156f481615e5e565b905061565d565b508315614a0e5760405162461bcd60e51b815260206004820181905260248201527f537472696e67733a20686578206c656e67746820696e73756666696369656e746044820152606401610c92565b615753816153d7565b6040516001600160a01b038216907fbc7cd75a20ee27fd9adebab32041f755214dbc6bffa90cc0225b39da2e5c2d3b90600090a250565b60606001600160a01b0383163b6158095760405162461bcd60e51b815260206004820152602660248201527f416464726573733a2064656c65676174652063616c6c20746f206e6f6e2d636f60448201527f6e747261637400000000000000000000000000000000000000000000000000006064820152608401610c92565b600080846001600160a01b0316846040516158249190615c9b565b600060405180830381855af49150503d806000811461585f576040519150601f19603f3d011682016040523d82523d6000602084013e615864565b606091505b5091509150610e138282604051806060016040528060278152602001615eb7602791396159d4565b6060824710156159045760405162461bcd60e51b815260206004820152602660248201527f416464726573733a20696e73756666696369656e742062616c616e636520666f60448201527f722063616c6c00000000000000000000000000000000000000000000000000006064820152608401610c92565b6001600160a01b0385163b61595b5760405162461bcd60e51b815260206004820152601d60248201527f416464726573733a2063616c6c20746f206e6f6e2d636f6e74726163740000006044820152606401610c92565b600080866001600160a01b031685876040516159779190615c9b565b60006040518083038185875af1925050503d80600081146159b4576040519150601f19603f3d011682016040523d82523d6000602084013e6159b9565b606091505b50915091506159c98282866159d4565b979650505050505050565b606083156159e3575081614a0e565b8251156159f35782518084602001fd5b8160405162461bcd60e51b8152600401610c929190615d38565b803560ff81168114610ec057600080fd5b600060208284031215615a2f578081fd5b8135614a0e81615ea1565b600060208284031215615a4b578081fd5b8151614a0e81615ea1565b60008060408385031215615a68578081fd5b8235615a7381615ea1565b9150602083013567ffffffffffffffff811115615a8e578182fd5b8301601f81018513615a9e578182fd5b8035615ab1615aac82615d9c565b615d6b565b818152866020838501011115615ac5578384fd5b81602084016020830137908101602001929092525090939092509050565b600060208284031215615af4578081fd5b81518015158114614a0e578182fd5b600060208284031215615b14578081fd5b5035919050565b600060208284031215615b2c578081fd5b5051919050565b60008060408385031215615b45578182fd5b823591506020830135615b5781615ea1565b809150509250929050565b600060208284031215615b73578081fd5b81356001600160e01b031981168114614a0e578182fd5b600080600080600080600060e0888a031215615ba4578283fd5b8735615baf81615ea1565b96506020880135955060408801359450606088013593506080880135925060a08801359150615be060c08901615a0d565b905092959891949750929550565b600060208284031215615bff578081fd5b815167ffffffffffffffff811115615c15578182fd5b8201601f81018413615c25578182fd5b8051615c33615aac82615d9c565b818152856020838501011115615c47578384fd5b610e13826020830160208601615e32565b600060208284031215615c69578081fd5b614a0e82615a0d565b60008060408385031215615c84578081fd5b615c8d83615a0d565b946020939093013593505050565b60008251615cad818460208701615e32565b9190910192915050565b7f416363657373436f6e74726f6c3a206163636f756e7420000000000000000000815260008351615cef816017850160208801615e32565b7f206973206d697373696e6720726f6c65200000000000000000000000000000006017918401918201528351615d2c816028840160208801615e32565b01602801949350505050565b6020815260008251806020840152615d57816040850160208701615e32565b601f01601f19169190910160400192915050565b604051601f8201601f1916810167ffffffffffffffff81118282101715615d9457615d94615e8b565b604052919050565b600067ffffffffffffffff821115615db657615db6615e8b565b50601f01601f191660200190565b60008219821115615dd757615dd7615e75565b500190565b600082615df757634e487b7160e01b81526012600452602481fd5b500490565b6000816000190483118215151615615e1657615e16615e75565b500290565b600082821015615e2d57615e2d615e75565b500390565b60005b83811015615e4d578181015183820152602001615e35565b83811115614b5a5750506000910152565b600081615e6d57615e6d615e75565b506000190190565b634e487b7160e01b600052601160045260246000fd5b634e487b7160e01b600052604160045260246000fd5b6001600160a01b038116811461207557600080fdfe416464726573733a206c6f772d6c6576656c2064656c65676174652063616c6c206661696c6564a26469706673582212203a2579037eaee7793d3a10cd2ff3445c8e14a3040aafcc72d2660c4d61f885e364736f6c63430008040033",
  "linkReferences": {},
  "deployedLinkReferences": {}
}