{
  "_format": "hh-sol-artifact-1",
  "contractName": "OpportunityPool",
  "sourceName": "contracts/protocol/OpportunityPool.sol",
  "abi": [
    {
      "anonymous": false,
      "inputs": [
        {
          "indexed": false,
          "internalType": "address",
          "name": "previousAdmin",
          "type": "address"
        },
        {
          "indexed": false,
          "internalType": "address",
          "name": "newAdmin",
          "type": "address"
        }
      ],
      "name": "AdminChanged",
      "type": "event"
    },
    {
      "anonymous": false,
      "inputs": [
        {
          "indexed": true,
          "internalType": "address",
          "name": "beacon",
          "type": "address"
        }
      ],
      "name": "BeaconUpgraded",
      "type": "event"
    },
    {
      "anonymous": false,
      "inputs": [
        {
          "indexed": true,
          "internalType": "address",
          "name": "executor",
          "type": "address"
        },
        {
          "indexed": true,
          "internalType": "uint8",
          "name": "subpool",
          "type": "uint8"
        },
        {
          "indexed": false,
          "internalType": "uint256",
          "name": "amount",
          "type": "uint256"
        }
      ],
      "name": "Deposited",
      "type": "event"
    },
    {
      "anonymous": false,
      "inputs": [
        {
          "indexed": false,
          "internalType": "uint8",
          "name": "version",
          "type": "uint8"
        }
      ],
      "name": "Initialized",
      "type": "event"
    },
    {
      "anonymous": false,
      "inputs": [
        {
          "indexed": false,
          "internalType": "address",
          "name": "account",
          "type": "address"
        }
      ],
      "name": "Paused",
      "type": "event"
    },
    {
      "anonymous": false,
      "inputs": [
        {
          "indexed": true,
          "internalType": "bytes32",
          "name": "role",
          "type": "bytes32"
        },
        {
          "indexed": true,
          "internalType": "bytes32",
          "name": "previousAdminRole",
          "type": "bytes32"
        },
        {
          "indexed": true,
          "internalType": "bytes32",
          "name": "newAdminRole",
          "type": "bytes32"
        }
      ],
      "name": "RoleAdminChanged",
      "type": "event"
    },
    {
      "anonymous": false,
      "inputs": [
        {
          "indexed": true,
          "internalType": "bytes32",
          "name": "role",
          "type": "bytes32"
        },
        {
          "indexed": true,
          "internalType": "address",
          "name": "account",
          "type": "address"
        },
        {
          "indexed": true,
          "internalType": "address",
          "name": "sender",
          "type": "address"
        }
      ],
      "name": "RoleGranted",
      "type": "event"
    },
    {
      "anonymous": false,
      "inputs": [
        {
          "indexed": true,
          "internalType": "bytes32",
          "name": "role",
          "type": "bytes32"
        },
        {
          "indexed": true,
          "internalType": "address",
          "name": "account",
          "type": "address"
        },
        {
          "indexed": true,
          "internalType": "address",
          "name": "sender",
          "type": "address"
        }
      ],
      "name": "RoleRevoked",
      "type": "event"
    },
    {
      "anonymous": false,
      "inputs": [
        {
          "indexed": false,
          "internalType": "address",
          "name": "account",
          "type": "address"
        }
      ],
      "name": "Unpaused",
      "type": "event"
    },
    {
      "anonymous": false,
      "inputs": [
        {
          "indexed": true,
          "internalType": "address",
          "name": "implementation",
          "type": "address"
        }
      ],
      "name": "Upgraded",
      "type": "event"
    },
    {
      "anonymous": false,
      "inputs": [
        {
          "indexed": true,
          "internalType": "address",
          "name": "executor",
          "type": "address"
        },
        {
          "indexed": true,
          "internalType": "uint8",
          "name": "subpool",
          "type": "uint8"
        },
        {
          "indexed": false,
          "internalType": "uint256",
          "name": "amount",
          "type": "uint256"
        }
      ],
      "name": "Withdrew",
      "type": "event"
    },
    {
      "inputs": [],
      "name": "DEFAULT_ADMIN_ROLE",
      "outputs": [
        {
          "internalType": "bytes32",
          "name": "",
          "type": "bytes32"
        }
      ],
      "stateMutability": "view",
      "type": "function"
    },
    {
      "inputs": [
        {
          "internalType": "address",
          "name": "owner",
          "type": "address"
        }
      ],
      "name": "_BaseUpgradeablePausable_init",
      "outputs": [],
      "stateMutability": "nonpayable",
      "type": "function"
    },
    {
      "inputs": [],
      "name": "__PauserPausable__init",
      "outputs": [],
      "stateMutability": "nonpayable",
      "type": "function"
    },
    {
      "inputs": [],
      "name": "amountWithoutEMI",
      "outputs": [
        {
          "internalType": "uint256",
          "name": "",
          "type": "uint256"
        }
      ],
      "stateMutability": "view",
      "type": "function"
    },
    {
      "inputs": [],
      "name": "dailyInterestRate",
      "outputs": [
        {
          "internalType": "uint256",
          "name": "",
          "type": "uint256"
        }
      ],
      "stateMutability": "view",
      "type": "function"
    },
    {
      "inputs": [
        {
          "internalType": "uint8",
          "name": "_subpoolId",
          "type": "uint8"
        },
        {
          "internalType": "uint256",
          "name": "amount",
          "type": "uint256"
        }
      ],
      "name": "deposit",
      "outputs": [],
      "stateMutability": "nonpayable",
      "type": "function"
    },
    {
      "inputs": [],
      "name": "drawdown",
      "outputs": [],
      "stateMutability": "nonpayable",
      "type": "function"
    },
    {
      "inputs": [],
      "name": "dygnifyConfig",
      "outputs": [
        {
          "internalType": "contract DygnifyConfig",
          "name": "",
          "type": "address"
        }
      ],
      "stateMutability": "view",
      "type": "function"
    },
    {
      "inputs": [],
      "name": "emiAmount",
      "outputs": [
        {
          "internalType": "uint256",
          "name": "",
          "type": "uint256"
        }
      ],
      "stateMutability": "view",
      "type": "function"
    },
    {
      "inputs": [],
      "name": "getOpportunityName",
      "outputs": [
        {
          "internalType": "string",
          "name": "",
          "type": "string"
        }
      ],
      "stateMutability": "view",
      "type": "function"
    },
    {
      "inputs": [],
      "name": "getOverDuePercentage",
      "outputs": [
        {
          "internalType": "uint256",
          "name": "",
          "type": "uint256"
        },
        {
          "internalType": "uint256",
          "name": "",
          "type": "uint256"
        }
      ],
      "stateMutability": "view",
      "type": "function"
    },
    {
      "inputs": [],
      "name": "getRepaymentAmount",
      "outputs": [
        {
          "internalType": "uint256",
          "name": "",
          "type": "uint256"
        }
      ],
      "stateMutability": "view",
      "type": "function"
    },
    {
      "inputs": [
        {
          "internalType": "bytes32",
          "name": "role",
          "type": "bytes32"
        }
      ],
      "name": "getRoleAdmin",
      "outputs": [
        {
          "internalType": "bytes32",
          "name": "",
          "type": "bytes32"
        }
      ],
      "stateMutability": "view",
      "type": "function"
    },
    {
      "inputs": [],
      "name": "getSeniorProfit",
      "outputs": [
        {
          "internalType": "uint256",
          "name": "",
          "type": "uint256"
        }
      ],
      "stateMutability": "view",
      "type": "function"
    },
    {
      "inputs": [],
      "name": "getSeniorTotalDepositable",
      "outputs": [
        {
          "internalType": "uint256",
          "name": "",
          "type": "uint256"
        }
      ],
      "stateMutability": "view",
      "type": "function"
    },
    {
      "inputs": [],
      "name": "getUserWithdrawableAmount",
      "outputs": [
        {
          "internalType": "uint256",
          "name": "",
          "type": "uint256"
        }
      ],
      "stateMutability": "view",
      "type": "function"
    },
    {
      "inputs": [],
      "name": "getYieldPercentage",
      "outputs": [
        {
          "internalType": "uint256",
          "name": "",
          "type": "uint256"
        },
        {
          "internalType": "uint256",
          "name": "",
          "type": "uint256"
        }
      ],
      "stateMutability": "view",
      "type": "function"
    },
    {
      "inputs": [
        {
          "internalType": "bytes32",
          "name": "role",
          "type": "bytes32"
        },
        {
          "internalType": "address",
          "name": "account",
          "type": "address"
        }
      ],
      "name": "grantRole",
      "outputs": [],
      "stateMutability": "nonpayable",
      "type": "function"
    },
    {
      "inputs": [
        {
          "internalType": "bytes32",
          "name": "role",
          "type": "bytes32"
        },
        {
          "internalType": "address",
          "name": "account",
          "type": "address"
        }
      ],
      "name": "hasRole",
      "outputs": [
        {
          "internalType": "bool",
          "name": "",
          "type": "bool"
        }
      ],
      "stateMutability": "view",
      "type": "function"
    },
    {
      "inputs": [
        {
          "internalType": "contract DygnifyConfig",
          "name": "_dygnifyConfig",
          "type": "address"
        },
        {
          "internalType": "bytes32",
          "name": "_opportunityID",
          "type": "bytes32"
        },
        {
          "internalType": "uint256",
          "name": "_loanAmount",
          "type": "uint256"
        },
        {
          "internalType": "uint256",
          "name": "_loanTenureInDays",
          "type": "uint256"
        },
        {
          "internalType": "uint256",
          "name": "_loanInterest",
          "type": "uint256"
        },
        {
          "internalType": "uint256",
          "name": "_paymentFrequencyInDays",
          "type": "uint256"
        },
        {
          "internalType": "uint8",
          "name": "_loanType",
          "type": "uint8"
        }
      ],
      "name": "initialize",
      "outputs": [],
      "stateMutability": "nonpayable",
      "type": "function"
    },
    {
      "inputs": [],
      "name": "investor",
      "outputs": [
        {
          "internalType": "contract IInvestor",
          "name": "",
          "type": "address"
        }
      ],
      "stateMutability": "view",
      "type": "function"
    },
    {
      "inputs": [],
      "name": "isAdmin",
      "outputs": [
        {
          "internalType": "bool",
          "name": "",
          "type": "bool"
        }
      ],
      "stateMutability": "view",
      "type": "function"
    },
    {
      "inputs": [],
      "name": "isDrawdownsPaused",
      "outputs": [
        {
          "internalType": "bool",
          "name": "",
          "type": "bool"
        }
      ],
      "stateMutability": "view",
      "type": "function"
    },
    {
      "inputs": [
        {
          "internalType": "address",
          "name": "",
          "type": "address"
        }
      ],
      "name": "isStaking",
      "outputs": [
        {
          "internalType": "bool",
          "name": "",
          "type": "bool"
        }
      ],
      "stateMutability": "view",
      "type": "function"
    },
    {
      "inputs": [],
      "name": "juniorOverduePerecentage",
      "outputs": [
        {
          "internalType": "uint256",
          "name": "",
          "type": "uint256"
        }
      ],
      "stateMutability": "view",
      "type": "function"
    },
    {
      "inputs": [],
      "name": "juniorSubpoolDetails",
      "outputs": [
        {
          "internalType": "uint256",
          "name": "id",
          "type": "uint256"
        },
        {
          "internalType": "uint256",
          "name": "totalDepositable",
          "type": "uint256"
        },
        {
          "internalType": "uint256",
          "name": "depositedAmount",
          "type": "uint256"
        },
        {
          "internalType": "bool",
          "name": "isPoolLocked",
          "type": "bool"
        },
        {
          "internalType": "uint256",
          "name": "fundsLockedUntil",
          "type": "uint256"
        },
        {
          "internalType": "uint256",
          "name": "yieldGenerated",
          "type": "uint256"
        },
        {
          "internalType": "uint256",
          "name": "overdueGenerated",
          "type": "uint256"
        }
      ],
      "stateMutability": "view",
      "type": "function"
    },
    {
      "inputs": [],
      "name": "juniorYieldPerecentage",
      "outputs": [
        {
          "internalType": "uint256",
          "name": "",
          "type": "uint256"
        }
      ],
      "stateMutability": "view",
      "type": "function"
    },
    {
      "inputs": [],
      "name": "loanAmount",
      "outputs": [
        {
          "internalType": "uint256",
          "name": "",
          "type": "uint256"
        }
      ],
      "stateMutability": "view",
      "type": "function"
    },
    {
      "inputs": [],
      "name": "loanInterest",
      "outputs": [
        {
          "internalType": "uint256",
          "name": "",
          "type": "uint256"
        }
      ],
      "stateMutability": "view",
      "type": "function"
    },
    {
      "inputs": [],
      "name": "loanTenureInDays",
      "outputs": [
        {
          "internalType": "uint256",
          "name": "",
          "type": "uint256"
        }
      ],
      "stateMutability": "view",
      "type": "function"
    },
    {
      "inputs": [],
      "name": "loanType",
      "outputs": [
        {
          "internalType": "uint8",
          "name": "",
          "type": "uint8"
        }
      ],
      "stateMutability": "view",
      "type": "function"
    },
    {
      "inputs": [
        {
          "internalType": "uint8",
          "name": "_subpoolId",
          "type": "uint8"
        }
      ],
      "name": "lockPool",
      "outputs": [],
      "stateMutability": "nonpayable",
      "type": "function"
    },
    {
      "inputs": [],
      "name": "lpToken",
      "outputs": [
        {
          "internalType": "contract ILPToken",
          "name": "",
          "type": "address"
        }
      ],
      "stateMutability": "view",
      "type": "function"
    },
    {
      "inputs": [],
      "name": "nextRepaymentTime",
      "outputs": [
        {
          "internalType": "uint256",
          "name": "",
          "type": "uint256"
        }
      ],
      "stateMutability": "view",
      "type": "function"
    },
    {
      "inputs": [],
      "name": "opportunityID",
      "outputs": [
        {
          "internalType": "bytes32",
          "name": "",
          "type": "bytes32"
        }
      ],
      "stateMutability": "view",
      "type": "function"
    },
    {
      "inputs": [],
      "name": "opportunityOrigination",
      "outputs": [
        {
          "internalType": "contract IOpportunityOrigination",
          "name": "",
          "type": "address"
        }
      ],
      "stateMutability": "view",
      "type": "function"
    },
    {
      "inputs": [],
      "name": "pause",
      "outputs": [],
      "stateMutability": "nonpayable",
      "type": "function"
    },
    {
      "inputs": [],
      "name": "pauseDrawdown",
      "outputs": [],
      "stateMutability": "nonpayable",
      "type": "function"
    },
    {
      "inputs": [],
      "name": "paused",
      "outputs": [
        {
          "internalType": "bool",
          "name": "",
          "type": "bool"
        }
      ],
      "stateMutability": "view",
      "type": "function"
    },
    {
      "inputs": [],
      "name": "paymentFrequencyInDays",
      "outputs": [
        {
          "internalType": "uint256",
          "name": "",
          "type": "uint256"
        }
      ],
      "stateMutability": "view",
      "type": "function"
    },
    {
      "inputs": [],
      "name": "poolBalance",
      "outputs": [
        {
          "internalType": "uint256",
          "name": "",
          "type": "uint256"
        }
      ],
      "stateMutability": "view",
      "type": "function"
    },
    {
      "inputs": [],
      "name": "proxiableUUID",
      "outputs": [
        {
          "internalType": "bytes32",
          "name": "",
          "type": "bytes32"
        }
      ],
      "stateMutability": "view",
      "type": "function"
    },
    {
      "inputs": [
        {
          "internalType": "bytes32",
          "name": "role",
          "type": "bytes32"
        },
        {
          "internalType": "address",
          "name": "account",
          "type": "address"
        }
      ],
      "name": "renounceRole",
      "outputs": [],
      "stateMutability": "nonpayable",
      "type": "function"
    },
    {
      "inputs": [],
      "name": "repayment",
      "outputs": [],
      "stateMutability": "nonpayable",
      "type": "function"
    },
    {
      "inputs": [],
      "name": "repaymentCounter",
      "outputs": [
        {
          "internalType": "uint256",
          "name": "",
          "type": "uint256"
        }
      ],
      "stateMutability": "view",
      "type": "function"
    },
    {
      "inputs": [],
      "name": "repaymentStartTime",
      "outputs": [
        {
          "internalType": "uint256",
          "name": "",
          "type": "uint256"
        }
      ],
      "stateMutability": "view",
      "type": "function"
    },
    {
      "inputs": [
        {
          "internalType": "bytes32",
          "name": "role",
          "type": "bytes32"
        },
        {
          "internalType": "address",
          "name": "account",
          "type": "address"
        }
      ],
      "name": "revokeRole",
      "outputs": [],
      "stateMutability": "nonpayable",
      "type": "function"
    },
    {
      "inputs": [],
      "name": "seniorOverduePerecentage",
      "outputs": [
        {
          "internalType": "uint256",
          "name": "",
          "type": "uint256"
        }
      ],
      "stateMutability": "view",
      "type": "function"
    },
    {
      "inputs": [],
      "name": "seniorSubpoolDetails",
      "outputs": [
        {
          "internalType": "uint256",
          "name": "id",
          "type": "uint256"
        },
        {
          "internalType": "uint256",
          "name": "totalDepositable",
          "type": "uint256"
        },
        {
          "internalType": "uint256",
          "name": "depositedAmount",
          "type": "uint256"
        },
        {
          "internalType": "bool",
          "name": "isPoolLocked",
          "type": "bool"
        },
        {
          "internalType": "uint256",
          "name": "fundsLockedUntil",
          "type": "uint256"
        },
        {
          "internalType": "uint256",
          "name": "yieldGenerated",
          "type": "uint256"
        },
        {
          "internalType": "uint256",
          "name": "overdueGenerated",
          "type": "uint256"
        }
      ],
      "stateMutability": "view",
      "type": "function"
    },
    {
      "inputs": [],
      "name": "seniorYieldPerecentage",
      "outputs": [
        {
          "internalType": "uint256",
          "name": "",
          "type": "uint256"
        }
      ],
      "stateMutability": "view",
      "type": "function"
    },
    {
      "inputs": [
        {
          "internalType": "address",
          "name": "",
          "type": "address"
        }
      ],
      "name": "stakingBalance",
      "outputs": [
        {
          "internalType": "uint256",
          "name": "",
          "type": "uint256"
        }
      ],
      "stateMutability": "view",
      "type": "function"
    },
    {
      "inputs": [
        {
          "internalType": "bytes4",
          "name": "interfaceId",
          "type": "bytes4"
        }
      ],
      "name": "supportsInterface",
      "outputs": [
        {
          "internalType": "bool",
          "name": "",
          "type": "bool"
        }
      ],
      "stateMutability": "view",
      "type": "function"
    },
    {
      "inputs": [],
      "name": "totalRepaidAmount",
      "outputs": [
        {
          "internalType": "uint256",
          "name": "",
          "type": "uint256"
        }
      ],
      "stateMutability": "view",
      "type": "function"
    },
    {
      "inputs": [],
      "name": "totalRepayments",
      "outputs": [
        {
          "internalType": "uint256",
          "name": "",
          "type": "uint256"
        }
      ],
      "stateMutability": "view",
      "type": "function"
    },
    {
      "inputs": [
        {
          "internalType": "uint8",
          "name": "_subpoolId",
          "type": "uint8"
        }
      ],
      "name": "unLockPool",
      "outputs": [],
      "stateMutability": "nonpayable",
      "type": "function"
    },
    {
      "inputs": [],
      "name": "unpause",
      "outputs": [],
      "stateMutability": "nonpayable",
      "type": "function"
    },
    {
      "inputs": [],
      "name": "unpauseDrawdown",
      "outputs": [],
      "stateMutability": "nonpayable",
      "type": "function"
    },
    {
      "inputs": [
        {
          "internalType": "address",
          "name": "newImplementation",
          "type": "address"
        }
      ],
      "name": "upgradeTo",
      "outputs": [],
      "stateMutability": "nonpayable",
      "type": "function"
    },
    {
      "inputs": [
        {
          "internalType": "address",
          "name": "newImplementation",
          "type": "address"
        },
        {
          "internalType": "bytes",
          "name": "data",
          "type": "bytes"
        }
      ],
      "name": "upgradeToAndCall",
      "outputs": [],
      "stateMutability": "payable",
      "type": "function"
    },
    {
      "inputs": [],
      "name": "usdcToken",
      "outputs": [
        {
          "internalType": "contract IERC20",
          "name": "",
          "type": "address"
        }
      ],
      "stateMutability": "view",
      "type": "function"
    },
    {
      "inputs": [
        {
          "internalType": "uint8",
          "name": "_subpoolId",
          "type": "uint8"
        },
        {
          "internalType": "uint256",
          "name": "amount",
          "type": "uint256"
        }
      ],
      "name": "withdraw",
      "outputs": [],
      "stateMutability": "nonpayable",
      "type": "function"
    },
    {
      "inputs": [
        {
          "internalType": "uint8",
          "name": "_subpoolId",
          "type": "uint8"
        }
      ],
      "name": "withdrawAll",
      "outputs": [
        {
          "internalType": "uint256",
          "name": "",
          "type": "uint256"
        }
      ],
      "stateMutability": "nonpayable",
      "type": "function"
    },
    {
      "inputs": [],
      "name": "writeOffOpportunity",
      "outputs": [],
      "stateMutability": "nonpayable",
      "type": "function"
    }
  ],
  "bytecode": "0x60a06040523060601b60805234801561001757600080fd5b5060805160601c615e616200005360003960008181611df401528181611e79015281816125a001528181612625015261282a0152615e616000f3fe6080604052600436106103b85760003560e01c80635fcbd285116101f2578063b6db75a01161010d578063dadfecca116100a0578063e77ef21f1161006f578063e77ef21f14610ae4578063eedffb9614610af9578063f4d4c9d714610b10578063ff3a564414610b3057600080fd5b8063dadfecca14610a81578063ddc22b7414610a96578063dee0560914610ab8578063df9fd1c114610acf57600080fd5b8063c8dd7bf3116100dc578063c8dd7bf3146109fc578063cab9bd0014610a13578063d547741f14610a4c578063d661d32014610a6c57600080fd5b8063b6db75a014610990578063bbbf13ea146109a5578063c4f31a65146109bc578063c5e2bf1a146109dc57600080fd5b806396365d44116101855780639f964fe6116101545780639f964fe61461092e578063a12dde4d14610944578063a217fddf14610964578063a7292ea41461097957600080fd5b806396365d44146108d257806399e7f250146108e95780639b021fa2146109005780639d585f7f1461091757600080fd5b80637fca631f116101c15780637fca631f146108495780638456cb5914610860578063891369b21461087557806391d148541461088c57600080fd5b80635fcbd285146107c25780636a15633b146107e35780636f49712b146108035780637101fd161461083457600080fd5b8063257c2736116102e257806345bc78ab1161027557806352d1902d1161024457806352d1902d1461075e57806353654e85146107735780635b483e4c146107935780635c975abb146107aa57600080fd5b806345bc78ab146106f157806346e35faa1461071f5780634f1ef28614610736578063526d81f61461074957600080fd5b806336568abe116102b157806336568abe1461067c5780633659cfe61461069c5780633f489914146106bc5780633f4ba83a146106dc57600080fd5b8063257c2736146106115780632588d168146106265780632f2ff15d1461064757806334d93fb41461066757600080fd5b806311eac8551161035a5780631e0018d6116103295780631e0018d6146105925780632159e458146105b357806322eac12c146105ca578063248a9ca3146105e157600080fd5b806311eac8551461050c57806317cd802d146105455780631be954591461055a5780631daa910e1461057b57600080fd5b8063074f254311610396578063074f25431461048d57806307a7c08a146104b05780630a2c1505146104da5780630b4a45fd146104f557600080fd5b806301ffc9a7146103bd57806303199494146103f257806304419b7614610460575b600080fd5b3480156103c957600080fd5b506103dd6103d8366004615ab0565b610b47565b60405190151581526020015b60405180910390f35b3480156103fe57600080fd5b506101805461018154610182546101835461018454610185546101865461042b9695949360ff1692919087565b604080519788526020880196909652948601939093529015156060850152608084015260a083015260c082015260e0016103e9565b34801561046c57600080fd5b506101655461047b9060ff1681565b60405160ff90911681526020016103e9565b34801561049957600080fd5b506104a2610bb0565b6040519081526020016103e9565b3480156104bc57600080fd5b506104c5610e37565b604080519283526020830191909152016103e9565b3480156104e657600080fd5b50610176546103dd9060ff1681565b34801561050157600080fd5b5061050a610ef4565b005b34801561051857600080fd5b506101625461052d906001600160a01b031681565b6040516001600160a01b0390911681526020016103e9565b34801561055157600080fd5b5061050a610f6c565b34801561056657600080fd5b5061015f5461052d906001600160a01b031681565b34801561058757600080fd5b506104a26101735481565b34801561059e57600080fd5b506101615461052d906001600160a01b031681565b3480156105bf57600080fd5b506104a261016f5481565b3480156105d657600080fd5b506104a261016d5481565b3480156105ed57600080fd5b506104a26105fc366004615a51565b60009081526065602052604090206001015490565b34801561061d57600080fd5b5061050a611841565b34801561063257600080fd5b506101605461052d906001600160a01b031681565b34801561065357600080fd5b5061050a610662366004615a81565b611cbe565b34801561067357600080fd5b5061050a611ce8565b34801561068857600080fd5b5061050a610697366004615a81565b611d5d565b3480156106a857600080fd5b5061050a6106b736600461596c565b611de9565b3480156106c857600080fd5b5061050a6106d7366004615bc0565b611f65565b3480156106e857600080fd5b5061050a6124ff565b3480156106fd57600080fd5b506104a261070c36600461596c565b6101776020526000908152604090205481565b34801561072b57600080fd5b506104a26101745481565b61050a6107443660046159a4565b612595565b34801561075557600080fd5b5061050a6126fe565b34801561076a57600080fd5b506104a261281d565b34801561077f57600080fd5b506104a261078e366004615ba6565b6128e2565b34801561079f57600080fd5b506104a261016e5481565b3480156107b657600080fd5b5060975460ff166103dd565b3480156107ce57600080fd5b506101635461052d906001600160a01b031681565b3480156107ef57600080fd5b5061050a6107fe366004615ba6565b613025565b34801561080f57600080fd5b506103dd61081e36600461596c565b6101786020526000908152604090205460ff1681565b34801561084057600080fd5b506104a261313b565b34801561085557600080fd5b506104a26101705481565b34801561086c57600080fd5b5061050a6132a4565b34801561088157600080fd5b506104a26101715481565b34801561089857600080fd5b506103dd6108a7366004615a81565b60009182526065602090815260408084206001600160a01b0393909316845291905290205460ff1690565b3480156108de57600080fd5b506104a261016a5481565b3480156108f557600080fd5b506104a26101675481565b34801561090c57600080fd5b506104a261016c5481565b34801561092357600080fd5b506104a26101665481565b34801561093a57600080fd5b5061017a546104a2565b34801561095057600080fd5b5061050a61095f36600461596c565b613336565b34801561097057600080fd5b506104a2600081565b34801561098557600080fd5b506104a26101685481565b34801561099c57600080fd5b506103dd6134d7565b3480156109b157600080fd5b506104a261016b5481565b3480156109c857600080fd5b5061050a6109d7366004615ad8565b613507565b3480156109e857600080fd5b5061050a6109f7366004615ba6565b613cde565b348015610a0857600080fd5b506104a26101645481565b348015610a1f57600080fd5b506101795461017a5461017b5461017c5461017d5461017e5461017f5461042b9695949360ff1692919087565b348015610a5857600080fd5b5061050a610a67366004615a81565b613dee565b348015610a7857600080fd5b506104a2613e13565b348015610a8d57600080fd5b506104c5613e27565b348015610aa257600080fd5b50610aab613efe565b6040516103e99190615c86565b348015610ac457600080fd5b506104a26101725481565b348015610adb57600080fd5b506104a2613f9e565b348015610af057600080fd5b5061050a614024565b348015610b0557600080fd5b506104a26101755481565b348015610b1c57600080fd5b5061050a610b2b366004615bc0565b6143c0565b348015610b3c57600080fd5b506104a26101695481565b60006001600160e01b031982167f7965db0b000000000000000000000000000000000000000000000000000000001480610baa57507f01ffc9a7000000000000000000000000000000000000000000000000000000006001600160e01b03198316145b92915050565b600061016d5461016c541115610c0d5760405162461bcd60e51b815260206004820152601960248201527f52657061796d656e742050726f6365737320697320646f6e650000000000000060448201526064015b60405180910390fd5b6101605461016454604051630231155f60e51b81526001600160a01b0390921691634622abe091610c449160040190815260200190565b60206040518083038186803b158015610c5c57600080fd5b505afa158015610c70573d6000803e3d6000fd5b505050506040513d601f19601f82011682018060405250810190610c949190615a31565b1515600114610cf85760405162461bcd60e51b815260206004820152602a60248201527f46756e647320696e206f70706f7274756e69747920686176656e2774206472616044820152693bb237bbb7103cb2ba1760b11b6064820152608401610c04565b6101655460009060ff1660011415610d8e575061016e54426000610d1a613f9e565b9050600081831115610d7b576000610d3f62015180610d398686614950565b90614963565b9050610d77620f42405b610d3961016e54610d71610d6a60646101705461496390919063ffffffff16565b869061496f565b9061496f565b9150505b610d85848261497b565b95945050505050565b61016f5461016e54610d9f91614950565b9050426000610dac613f9e565b9050600081831115610df7576000610dcb62015180610d398686614950565b9050610df3620f42405b610d3987610d71610d6a60646101705461496390919063ffffffff16565b9150505b610e01848261497b565b935061016d5461016c541415610e2e576101815461017a54610d8591610e27919061497b565b859061497b565b5050505b919050565b600080600061016f5461016e54610e4e9190615d69565b61015f54909150600090610e8390610e6e906001600160a01b0316614987565b610e79906001615d12565b61016f5490614963565b61015f54909150600090610eaa90610ea3906001600160a01b0316614987565b839061496f565b90506000610ec884610d39610172548561496f90919063ffffffff16565b90506000610ee685610d39610173548761496f90919063ffffffff16565b919791965090945050505050565b610efc6134d7565b610f5c5760405162461bcd60e51b815260206004820152602b60248201527f4d75737420686176652061646d696e20726f6c6520746f20706572666f726d2060448201526a3a3434b99030b1ba34b7b760a91b6064820152608401610c04565b610176805460ff19166001179055565b600260c9541415610fbf5760405162461bcd60e51b815260206004820152601f60248201527f5265656e7472616e637947756172643a207265656e7472616e742063616c6c006044820152606401610c04565b600260c9556110097f2344277e405079ec07749d374ba0b5862a4e45a6a05ac889dbb4a991c6f9354d5b600090815260656020908152604080832033845290915290205460ff1690565b61106c5760405162461bcd60e51b815260206004820152602e60248201527f4d757374206861766520626f72726f77657220726f6c6520746f20706572666f60448201526d3936903a3434b99030b1ba34b7b760911b6064820152608401610c04565b61016d5461016c5411156110c25760405162461bcd60e51b815260206004820152601960248201527f52657061796d656e742050726f6365737320697320646f6e65000000000000006044820152606401610c04565b6101605461016454604051630231155f60e51b81526001600160a01b0390921691634622abe0916110f99160040190815260200190565b60206040518083038186803b15801561111157600080fd5b505afa158015611125573d6000803e3d6000fd5b505050506040513d601f19601f820116820180604052508101906111499190615a31565b15156001146111ad5760405162461bcd60e51b815260206004820152602a60248201527f46756e647320696e206f70706f7274756e69747920686176656e2774206472616044820152693bb237bbb7103cb2ba1760b11b6064820152608401610c04565b6101655460ff16600114156114875761016e5461017180548291906000906111d6908490615d12565b9091555042905060006111e7613f9e565b905060008183111561121857600061120662015180610d398686614950565b9050611214620f4240610d49565b9150505b61015f5460009061124290610e799060019061123c906001600160a01b0316614987565b9061497b565b61015f5490915060009061126290610ea3906001600160a01b0316614987565b61017b54909150611273908261497b565b61017b5561018254611285908361497b565b610182556112ac6112a2620f42405b61017254610d39908561496f565b61017e549061497b565b61017e556112d36112c9620f42405b61017354610d39908661496f565b610185549061497b565b610185556112fa6112f0620f42405b61017554610d39908761496f565b610186549061497b565b61018655611321611317620f42405b61017454610d39908761496f565b61017f549061497b565b61017f5561016f5461016e54600091829161133b91614950565b9050611366620f42405b61015f54610d399061135f906001600160a01b0316614a08565b849061496f565b9150611391620f42405b61015f54610d399061138a906001600160a01b0316614a08565b889061496f565b61139b9083615d12565b91506113a7888661497b565b61016a549098506113b8908961497b565b61016a55610162546113d5906001600160a01b031633308b614a20565b6101625461015f546001600160a01b039182169163a9059cbb916113f99116614aae565b6040516001600160e01b031960e084901b1681526001600160a01b03909116600482015260248101859052604401602060405180830381600087803b15801561144157600080fd5b505af1158015611455573d6000803e3d6000fd5b505050506040513d601f19601f820116820180604052508101906114799190615a31565b50505050505050505061170d565b60006114a261016f5461016e5461495090919063ffffffff16565b90508061017160008282546114b79190615d12565b9091555042905060006114c8613f9e565b90506000818311156114f95760006114e762015180610d398686614950565b90506114f5620f4240610dd5565b9150505b61015f5460009061151d90610e799060019061123c906001600160a01b0316614987565b61015f5490915060009061153d90610ea3906001600160a01b0316614987565b905061154e6112a2620f4240611294565b61017e556115616112c9620f42406112bb565b610185556115746112f0620f42406112e2565b61018655611587611317620f4240611309565b61017f5561016f5461016e5460009182916115a191614950565b90506115af620f4240611345565b91506115bd620f4240611370565b6115c79083615d12565b915061016d5461016c5414156116275761017a5461017b81905561018154610182819055611600916115f9919061497b565b899061497b565b61017b5461018254919950611622916116189161497b565b610171549061497b565b610171555b611631888661497b565b61016a54909850611642908961497b565b61016a556101625461165f906001600160a01b031633308b614a20565b6101625461015f546001600160a01b039182169163a9059cbb916116839116614aae565b6040516001600160e01b031960e084901b1681526001600160a01b03909116600482015260248101859052604401602060405180830381600087803b1580156116cb57600080fd5b505af11580156116df573d6000803e3d6000fd5b505050506040513d601f19601f820116820180604052508101906117039190615a31565b5050505050505050505b61016d5461016c5414156118275761016054610164546040517f332f14860000000000000000000000000000000000000000000000000000000081526001600160a01b039092169163332f14869161176b9160040190815260200190565b600060405180830381600087803b15801561178557600080fd5b505af1158015611799573d6000803e3d6000fd5b505061015f546117b492506001600160a01b03169050614b30565b61016454604051630387c6d160e31b8152600060048201819052602482019290925260448101919091526001600160a01b039190911690631c3e368890606401600060405180830381600087803b15801561180e57600080fd5b505af1158015611822573d6000803e3d6000fd5b505050505b61016c5461183690600161497b565b61016c55600160c955565b61016054610164546040517f6815322c0000000000000000000000000000000000000000000000000000000081526001600160a01b0390921691636815322c916118919160040190815260200190565b60206040518083038186803b1580156118a957600080fd5b505afa1580156118bd573d6000803e3d6000fd5b505050506040513d601f19601f820116820180604052508101906118e19190615a31565b15156001146119585760405162461bcd60e51b815260206004820152602960248201527f4f70706f7274756e69747920706f6f6c20697320686176656e2774205772697460448201527f656f6666207965742e00000000000000000000000000000000000000000000006064820152608401610c04565b61015f5461196e906001600160a01b0316614b48565b6001600160a01b0316336001600160a01b0316146119f45760405162461bcd60e51b815260206004820152603060248201527f4f6e6c79204f70706f7274756e6974794f726967696e6174696f6e2063616e2060448201527f657865637574652077726974656f6666000000000000000000000000000000006064820152608401610c04565b61015f54600090611a2990611a189060019061123c906001600160a01b0316614987565b61016d5461016f54610d399161496f565b61015f54909150600090611a4990610ea3906001600160a01b0316614987565b90506000611a59620f4240611294565b6101655490915060009060ff1660011415611ab457426000611a79613f9e565b9050600081831115611aaa576000611a9862015180610d398686614950565b9050611aa6620f4240610d49565b9150505b9250611b13915050565b6000611acf61016f5461016e5461495090919063ffffffff16565b9050426000611adc613f9e565b9050600081831115611b0d576000611afb62015180610d398686614950565b9050611b09620f4240610dd5565b9150505b93505050505b611b28620f424061017454610d39908461496f565b61017f54909150600090611b3c9083615d12565b61017a54909150600090611b508584615d12565b611b5a9190615d12565b90508061016a541115611c045761015f54611b7d906001600160a01b0316614b30565b61016454604051630387c6d160e31b8152600160048201526024810191909152604481018390526001600160a01b039190911690631c3e368890606401600060405180830381600087803b158015611bd457600080fd5b505af1158015611be8573d6000803e3d6000fd5b5050600061017f81905561017b81905561017e5550611cb69050565b61015f54611c1a906001600160a01b0316614b30565b6101645461016a54604051630387c6d160e31b815260016004820152602481019290925260448201526001600160a01b039190911690631c3e368890606401600060405180830381600087803b158015611c7357600080fd5b505af1158015611c87573d6000803e3d6000fd5b5050600061016a81905561017f81905561017b81905561017e8190556101868190556101828190556101855550505b505050505050565b600082815260656020526040902060010154611cd981614b60565b611ce38383614b6a565b505050565b611cf06134d7565b611d505760405162461bcd60e51b815260206004820152602b60248201527f4d75737420686176652061646d696e20726f6c6520746f20706572666f726d2060448201526a3a3434b99030b1ba34b7b760a91b6064820152608401610c04565b610176805460ff19169055565b6001600160a01b0381163314611ddb5760405162461bcd60e51b815260206004820152602f60248201527f416363657373436f6e74726f6c3a2063616e206f6e6c792072656e6f756e636560448201527f20726f6c657320666f722073656c6600000000000000000000000000000000006064820152608401610c04565b611de58282614c0c565b5050565b306001600160a01b037f0000000000000000000000000000000000000000000000000000000000000000161415611e775760405162461bcd60e51b815260206004820152602c60248201527f46756e6374696f6e206d7573742062652063616c6c6564207468726f7567682060448201526b19195b1959d85d1958d85b1b60a21b6064820152608401610c04565b7f00000000000000000000000000000000000000000000000000000000000000006001600160a01b0316611ed27f360894a13ba1a3210667c828492db98dca3e2076cc3735a920a3ca505d382bbc546001600160a01b031690565b6001600160a01b031614611f3d5760405162461bcd60e51b815260206004820152602c60248201527f46756e6374696f6e206d7573742062652063616c6c6564207468726f7567682060448201526b6163746976652070726f787960a01b6064820152608401610c04565b611f4681614c8f565b60408051600080825260208201909252611f6291839190614cf7565b50565b600260c9541415611fb85760405162461bcd60e51b815260206004820152601f60248201527f5265656e7472616e637947756172643a207265656e7472616e742063616c6c006044820152606401610c04565b600260c955611fc5614ea6565b600160ff831611156120195760405162461bcd60e51b815260206004820152601860248201527f537562706f6f6c4944203a206f7574206f662072616e676500000000000000006044820152606401610c04565b600081116120695760405162461bcd60e51b815260206004820181905260248201527f416d6f756e74204d7573742062652067726561746572207468616e207a65726f6044820152606401610c04565b60ff8216600114156122025761017c5460ff16156120c95760405162461bcd60e51b815260206004820152601860248201527f53656e696f7220537562706f6f6c206973206c6f636b656400000000000000006044820152606401610c04565b6120f27fa794a061bac4a541306b6778cc120a221216f325de0020c39b67101d49158ca2610fe9565b6121725760405162461bcd60e51b8152602060048201526044602482018190527f596f75206d75737420686176652053656e696f7220706f6f6c20726f6c652069908201527f6e206f7264657220746f206465706f73697420696e2073656e696f72207375626064820152631c1bdbdb60e21b608482015260a401610c04565b61017b548111156121eb5760405162461bcd60e51b815260206004820152603b60248201527f416d6f756e7420657863656564732074686520546f74616c206465706f73697460448201527f656420616d6f756e74206f662073656e696f7220737562706f6f6c00000000006064820152608401610c04565b61017b546121f99082614950565b61017b55612490565b60ff8216612490576101845442101561225d5760405162461bcd60e51b815260206004820181905260248201527f66756e647320617265206c6f636b20756e74696c204c6f616e2054656e7572656044820152606401610c04565b6101835460ff16156122b15760405162461bcd60e51b815260206004820152601860248201527f4a756e696f7220537562706f6f6c206973206c6f636b656400000000000000006044820152606401610c04565b3360009081526101776020908152604080832054610178909252909120805460ff191691831115918217905561234f5760405162461bcd60e51b815260206004820152603560248201527f796f757220776974686472617720616d6f756e7420697320686967686572207460448201527f68616e206465706f736974656420616d6f756e742e00000000000000000000006064820152608401610c04565b610182548111156123c85760405162461bcd60e51b815260206004820152603b60248201527f416d6f756e7420657863656564732074686520546f74616c206465706f73697460448201527f656420616d6f756e74206f66206a756e696f7220737562706f6f6c00000000006064820152608401610c04565b610182546123d69082614950565b6101825533600090815261017760205260409020546123f59082614950565b3360009081526101776020526040902081905561249057336000818152610178602052604090819020805460ff1916905561016154610164549151631bd3b3dd60e31b8152600481019390935260248301919091526001600160a01b03169063de9d9ee890604401600060405180830381600087803b15801561247757600080fd5b505af115801561248b573d6000803e3d6000fd5b505050505b61016a5461249e9082614950565b61016a55610162546124bb906001600160a01b0316303384614a20565b60405181815260ff83169033907fd5717d2b2bcb82b3f3aea5c8c75e2194c2a7b177469cd9a5cef423e940ab81c7906020015b60405180910390a35050600160c955565b61252a7f65d7a28e3265b37a6474929f336521b332c1681b933f6cb9f3376673440d862a5b336108a7565b61258b5760405162461bcd60e51b815260206004820152602c60248201527f4d75737420686176652070617573657220726f6c6520746f20706572666f726d60448201526b103a3434b99030b1ba34b7b760a11b6064820152608401610c04565b612593614ef9565b565b306001600160a01b037f00000000000000000000000000000000000000000000000000000000000000001614156126235760405162461bcd60e51b815260206004820152602c60248201527f46756e6374696f6e206d7573742062652063616c6c6564207468726f7567682060448201526b19195b1959d85d1958d85b1b60a21b6064820152608401610c04565b7f00000000000000000000000000000000000000000000000000000000000000006001600160a01b031661267e7f360894a13ba1a3210667c828492db98dca3e2076cc3735a920a3ca505d382bbc546001600160a01b031690565b6001600160a01b0316146126e95760405162461bcd60e51b815260206004820152602c60248201527f46756e6374696f6e206d7573742062652063616c6c6564207468726f7567682060448201526b6163746976652070726f787960a01b6064820152608401610c04565b6126f282614c8f565b611de582826001614cf7565b600054610100900460ff161580801561271e5750600054600160ff909116105b806127385750303b158015612738575060005460ff166001145b6127aa5760405162461bcd60e51b815260206004820152602e60248201527f496e697469616c697a61626c653a20636f6e747261637420697320616c72656160448201527f647920696e697469616c697a65640000000000000000000000000000000000006064820152608401610c04565b6000805460ff1916600117905580156127cd576000805461ff0019166101001790555b6127d5614f4b565b8015611f62576000805461ff0019169055604051600181527f7f26b83ff96e1f2b6a682f133852f6798a09c465da95921460cefb38474024989060200160405180910390a150565b6000306001600160a01b037f000000000000000000000000000000000000000000000000000000000000000016146128bd5760405162461bcd60e51b815260206004820152603860248201527f555550535570677261646561626c653a206d757374206e6f742062652063616c60448201527f6c6564207468726f7567682064656c656761746563616c6c00000000000000006064820152608401610c04565b507f360894a13ba1a3210667c828492db98dca3e2076cc3735a920a3ca505d382bbc90565b6000600260c95414156129375760405162461bcd60e51b815260206004820152601f60248201527f5265656e7472616e637947756172643a207265656e7472616e742063616c6c006044820152606401610c04565b600260c955612944614ea6565b600160ff831611156129985760405162461bcd60e51b815260206004820152601860248201527f537562706f6f6c4944203a206f7574206f662072616e676500000000000000006044820152606401610c04565b6101605461016454604051638176715560e01b81526001600160a01b03909216916381767155916129cf9160040190815260200190565b60206040518083038186803b1580156129e757600080fd5b505afa1580156129fb573d6000803e3d6000fd5b505050506040513d601f19601f82011682018060405250810190612a1f9190615a31565b1515600114612a835760405162461bcd60e51b815260206004820152602a60248201527f46756e647320696e206f70706f7274756e69747920686176656e2774206472616044820152693bb237bbb7103cb2ba1760b11b6064820152608401610c04565b600060ff831660011415612c4a5761017c5460ff1615612ae55760405162461bcd60e51b815260206004820152601860248201527f53656e696f7220537562706f6f6c206973206c6f636b656400000000000000006044820152606401610c04565b612b0e7fa794a061bac4a541306b6778cc120a221216f325de0020c39b67101d49158ca2610fe9565b612b8e5760405162461bcd60e51b8152602060048201526044602482018190527f596f75206d75737420686176652053656e696f7220706f6f6c20726f6c652069908201527f6e206f7264657220746f206465706f73697420696e2073656e696f72207375626064820152631c1bdbdb60e21b608482015260a401610c04565b61017b54612c045760405162461bcd60e51b815260206004820152602b60248201527f62616c616e6365206f662073656e696f7220737562706f6f6c206973207a657260448201527f6f2063757272656e746c790000000000000000000000000000000000000000006064820152608401610c04565b61017e5461017b54612c159161497b565b61017f5490915015612c395761017f54612c3090829061497b565b600061017f5590505b600061017b81905561017e55612f69565b60ff8316612f69576101835460ff1615612ca65760405162461bcd60e51b815260206004820152601860248201527f4a756e696f7220537562706f6f6c206973206c6f636b656400000000000000006044820152606401610c04565b336000908152610178602052604090205460ff1615156001148015612cda5750336000908152610177602052604090205415155b612d265760405162461bcd60e51b815260206004820152601760248201527f7a65726f20616d6f756e7420746f206465706f7369742e0000000000000000006044820152606401610c04565b6101825433600090815261017760205260409020541115612d9f5760405162461bcd60e51b815260206004820152602d60248201527f63757272656e746c79206a756e696f7220737562706f6f6c20646f6e2774206860448201526c617665204c697175696469747960981b6064820152608401610c04565b6000612dc7620f42405b336000908152610177602052604090205461017354610d399161496f565b61018554909150811115612e335760405162461bcd60e51b815260206004820152602d60248201527f63757272656e746c79206a756e696f7220737562706f6f6c20646f6e2774206860448201526c617665204c697175696469747960981b6064820152608401610c04565b336000908152610177602052604090205461018254612e5191614950565b6101825561018554612e639082614950565b6101855533600090815261017860209081526040808320805460ff19169055610177909152902054612e95908261497b565b6101865490925015612eec576000612ec9620f42405b336000908152610177602052604090205461017554610d399161496f565b9050612ed5838261497b565b61018654909350612ee69082614950565b61018655505b6101615461016454604051631bd3b3dd60e31b815233600482015260248101919091526001600160a01b039091169063de9d9ee890604401600060405180830381600087803b158015612f3e57600080fd5b505af1158015612f52573d6000803e3d6000fd5b505033600090815261017760205260408120555050505b61016a54612f779082614950565b61016a55610162546040517fa9059cbb000000000000000000000000000000000000000000000000000000008152336004820152602481018390526001600160a01b039091169063a9059cbb90604401602060405180830381600087803b158015612fe157600080fd5b505af1158015612ff5573d6000803e3d6000fd5b505050506040513d601f19601f820116820180604052508101906130199190615a31565b50600160c95592915050565b61304e7ffa4b6f760d780a02797df53a6c2ccf476001dc02ee4f9b6b1426dafc21ff6baf610fe9565b6130b15760405162461bcd60e51b815260206004820152602e60248201527f4d757374206861766520626f72726f77657220726f6c6520746f20706572666f60448201526d3936903a3434b99030b1ba34b7b760911b6064820152608401610c04565b600160ff821611156131055760405162461bcd60e51b815260206004820152601860248201527f537562706f6f6c4944203a206f7574206f662072616e676500000000000000006044820152606401610c04565b60ff8116600114156131225761017c805460ff1916600117905550565b60ff8116611f6257610183805460ff1916600117905550565b336000908152610178602052604081205460ff161515600114801561316f5750336000908152610177602052604090205415155b6131bb5760405162461bcd60e51b815260206004820152601960248201527f7a65726f20616d6f756e7420746f206465706f73697465642e000000000000006044820152606401610c04565b6101605461016454604051638176715560e01b815260048101919091526000916001600160a01b03169063817671559060240160206040518083038186803b15801561320657600080fd5b505afa15801561321a573d6000803e3d6000fd5b505050506040513d601f19601f8201168201806040525081019061323e9190615a31565b151560011415610e32576000613256620f4240612da9565b3360009081526101776020526040902054909150613274908261497b565b610186549092501561329e57600061328e620f4240612eab565b905061329a838261497b565b9250505b50919050565b6132cd7f65d7a28e3265b37a6474929f336521b332c1681b933f6cb9f3376673440d862a612524565b61332e5760405162461bcd60e51b815260206004820152602c60248201527f4d75737420686176652070617573657220726f6c6520746f20706572666f726d60448201526b103a3434b99030b1ba34b7b760a11b6064820152608401610c04565b612593614fc2565b600054610100900460ff166133a15760405162461bcd60e51b815260206004820152602b60248201527f496e697469616c697a61626c653a20636f6e7472616374206973206e6f74206960448201526a6e697469616c697a696e6760a81b6064820152608401610c04565b6001600160a01b0381166133f75760405162461bcd60e51b815260206004820181905260248201527f4f776e65722063616e6e6f7420626520746865207a65726f20616464726573736044820152606401610c04565b6133ff614fff565b613407614f4b565b61340f61506a565b61343a7fa49807205ce4d355092ef5a8a18f56e8913cf4a201fbe287825b095693c217755b826150dc565b6134637f65d7a28e3265b37a6474929f336521b332c1681b933f6cb9f3376673440d862a613434565b6134ae7f65d7a28e3265b37a6474929f336521b332c1681b933f6cb9f3376673440d862a5b7fa49807205ce4d355092ef5a8a18f56e8913cf4a201fbe287825b095693c217756150e6565b611f627fa49807205ce4d355092ef5a8a18f56e8913cf4a201fbe287825b095693c21775613488565b60006135027fa49807205ce4d355092ef5a8a18f56e8913cf4a201fbe287825b095693c21775612524565b905090565b600054610100900460ff16158080156135275750600054600160ff909116105b806135415750303b158015613541575060005460ff166001145b6135b35760405162461bcd60e51b815260206004820152602e60248201527f496e697469616c697a61626c653a20636f6e747261637420697320616c72656160448201527f647920696e697469616c697a65640000000000000000000000000000000000006064820152608401610c04565b6000805460ff1916600117905580156135d6576000805461ff0019166101001790555b6001600160a01b03881661362c5760405162461bcd60e51b815260206004820152601660248201527f496e76616c696420636f6e6669672061646472657373000000000000000000006044820152606401610c04565b61015f80546001600160a01b0319166001600160a01b038a1690811790915560009061365790615131565b90506001600160a01b0381166136af5760405162461bcd60e51b815260206004820152600d60248201527f496e76616c6964204f776e6572000000000000000000000000000000000000006044820152606401610c04565b61015f546136c5906001600160a01b0316614b48565b61016080546001600160a01b0319166001600160a01b0392831617905561015f546136f09116615148565b61016180546001600160a01b0319166001600160a01b039290921691909117905561371a81613336565b61015f54613730906001600160a01b0316615160565b61016280546001600160a01b0319166001600160a01b0392831617905561015f5461375b9116615178565b61016380546001600160a01b0319166001600160a01b03929092169190911790556137a57fa794a061bac4a541306b6778cc120a221216f325de0020c39b67101d49158ca2613488565b6137e47fa794a061bac4a541306b6778cc120a221216f325de0020c39b67101d49158ca261015f546137df906001600160a01b0316614b30565b6150dc565b61380d7f2344277e405079ec07749d374ba0b5862a4e45a6a05ac889dbb4a991c6f9354d613488565b6138367ffa4b6f760d780a02797df53a6c2ccf476001dc02ee4f9b6b1426dafc21ff6baf613488565b61385f7ffa4b6f760d780a02797df53a6c2ccf476001dc02ee4f9b6b1426dafc21ff6baf613434565b610160546040517f728c3ea2000000000000000000000000000000000000000000000000000000008152600481018a90526000916001600160a01b03169063728c3ea29060240160206040518083038186803b1580156138be57600080fd5b505afa1580156138d2573d6000803e3d6000fd5b505050506040513d601f19601f820116820180604052508101906138f69190615988565b90506139217f2344277e405079ec07749d374ba0b5862a4e45a6a05ac889dbb4a991c6f9354d613434565b610164899055610166889055610167879055610168869055610169859055600161016c55610165805460ff191660ff861617905561015f546040517fe4a3d784000000000000000000000000000000000000000000000000000000008152600481018b90526001600160a01b039091169063e4a3d7849060240160206040518083038186803b1580156139b357600080fd5b505afa1580156139c7573d6000803e3d6000fd5b505050506040513d601f19601f820116820180604052508101906139eb9190615a31565b613a715761017c805460ff1916600117905561015f54600090613a2f90613a1a906001600160a01b0316614987565b613a25906001615d12565b6101665490614963565b61015f54909150613a5390613a4c906001600160a01b0316614987565b829061496f565b61017a81905561016654613a679190615d69565b6101815550613a88565b610183805460ff191660011790556101665461017a555b60006101675462015180613a9c9190615d4a565b9050613aa88142615d12565b610184556000613ac56101686101675461016854610d399161496f565b90506000613af5613aeb620f4240610d39613ae1866064614963565b610166549061496f565b610166549061497b565b9050613b1a613b13610169546101675461496390919063ffffffff16565b8290614963565b61016e55613b3a61016861015f54610d39906001600160a01b0316615190565b61017055613b60620f4240610d71613a25620f42406101695461016754610d7191614963565b61016f556101695461016754613b7591614963565b61016d55613b81613e27565b6101735561017255613b91610e37565b6101755561017455610162546040517f095ea7b300000000000000000000000000000000000000000000000000000000815230600482015260001960248201526000916001600160a01b03169063095ea7b390604401602060405180830381600087803b158015613c0157600080fd5b505af1158015613c15573d6000803e3d6000fd5b505050506040513d601f19601f82011682018060405250810190613c399190615a31565b905080613c885760405162461bcd60e51b815260206004820152601660248201527f4661696c656420746f20617070726f76652055534443000000000000000000006044820152606401610c04565b5050505050508015613cd4576000805461ff0019169055604051600181527f7f26b83ff96e1f2b6a682f133852f6798a09c465da95921460cefb38474024989060200160405180910390a15b5050505050505050565b613d077ffa4b6f760d780a02797df53a6c2ccf476001dc02ee4f9b6b1426dafc21ff6baf610fe9565b613d6a5760405162461bcd60e51b815260206004820152602e60248201527f4d757374206861766520626f72726f77657220726f6c6520746f20706572666f60448201526d3936903a3434b99030b1ba34b7b760911b6064820152608401610c04565b600160ff82161115613dbe5760405162461bcd60e51b815260206004820152601860248201527f537562706f6f6c4944203a206f7574206f662072616e676500000000000000006044820152606401610c04565b60ff811660011415613dd85761017c805460ff1916905550565b60ff8116611f6257610183805460ff1916905550565b600082815260656020526040902060010154613e0981614b60565b611ce38383614c0c565b61017f5461017e5460009161350291615d12565b60008080620f424090506000613e8e620f424061015f54610d3990613e7f90613e58906001600160a01b03166151a8565b61015f54613e7990613e72906001600160a01b0316614a08565b8890614950565b90614950565b61016854610d71906064614963565b90506000613ef2620f424061015f54610d3990613e7f90613ed190613ebb906001600160a01b0316614987565b61015f54610d71906001600160a01b03166151a8565b61015f5461123c90613eeb906001600160a01b0316614a08565b8990614950565b91959194509092505050565b61016054610164546040517ff00474a600000000000000000000000000000000000000000000000000000000815260048101919091526060916001600160a01b03169063f00474a69060240160006040518083038186803b158015613f6257600080fd5b505afa158015613f76573d6000803e3d6000fd5b505050506040513d6000823e601f3d908101601f191682016040526135029190810190615b3c565b600061016d5461016c541115613ff65760405162461bcd60e51b815260206004820152601960248201527f52657061796d656e742050726f6365737320697320646f6e65000000000000006044820152606401610c04565b6000610baa61401a61016954620151806140109190615d4a565b61016c549061496f565b61016b549061497b565b600260c95414156140775760405162461bcd60e51b815260206004820152601f60248201527f5265656e7472616e637947756172643a207265656e7472616e742063616c6c006044820152606401610c04565b600260c955614084614ea6565b6140ad7f2344277e405079ec07749d374ba0b5862a4e45a6a05ac889dbb4a991c6f9354d610fe9565b6141105760405162461bcd60e51b815260206004820152602e60248201527f4d757374206861766520626f72726f77657220726f6c6520746f20706572666f60448201526d3936903a3434b99030b1ba34b7b760911b6064820152608401610c04565b6101605461016454604051630231155f60e51b81526001600160a01b0390921691634622abe0916141479160040190815260200190565b60206040518083038186803b15801561415f57600080fd5b505afa158015614173573d6000803e3d6000fd5b505050506040513d601f19601f820116820180604052508101906141979190615a31565b1561420a5760405162461bcd60e51b815260206004820152602a60248201527f46756e647320696e206f70706f7274756e6974792061726520616c726561647960448201527f2064726177646f776e2e000000000000000000000000000000000000000000006064820152608401610c04565b6101765460ff161561425e5760405162461bcd60e51b815260206004820152601260248201527f44726177646f776e2069732070617573656400000000000000000000000000006044820152606401610c04565b6101665461016a54146142ff5760405162461bcd60e51b815260206004820152604760248201527f546f74616c204465706f736974656420616d6f756e7420696e206f70706f727460448201527f756e69747920706f6f6c206d75737420626520657175616c20746f206c6f616e60648201527f20616d6f756e7400000000000000000000000000000000000000000000000000608482015260a401610c04565b61016a805460009182905561018282905561017b919091554261016b5561016054610164546040517faf7ea9440000000000000000000000000000000000000000000000000000000081526001600160a01b039092169163af7ea9449161436c9160040190815260200190565b600060405180830381600087803b15801561438657600080fd5b505af115801561439a573d6000803e3d6000fd5b5050610162546143b892506001600160a01b03169050303384614a20565b50600160c955565b600260c95414156144135760405162461bcd60e51b815260206004820152601f60248201527f5265656e7472616e637947756172643a207265656e7472616e742063616c6c006044820152606401610c04565b600260c955600160ff8316111561446c5760405162461bcd60e51b815260206004820152601860248201527f537562706f6f6c4944203a206f7574206f662072616e676500000000000000006044820152606401610c04565b600081116144bc5760405162461bcd60e51b815260206004820181905260248201527f416d6f756e74204d7573742062652067726561746572207468616e207a65726f6044820152606401610c04565b60ff82166001141561466b5761017c5460ff161561451c5760405162461bcd60e51b815260206004820152601860248201527f53656e696f7220537562706f6f6c206973206c6f636b656400000000000000006044820152606401610c04565b6145457fa794a061bac4a541306b6778cc120a221216f325de0020c39b67101d49158ca2610fe9565b6145c55760405162461bcd60e51b8152602060048201526044602482018190527f596f75206d75737420686176652053656e696f7220706f6f6c20726f6c652069908201527f6e206f7264657220746f206465706f73697420696e2073656e696f72207375626064820152631c1bdbdb60e21b608482015260a401610c04565b61017b546000906145d790839061497b565b61017a549091508111156146535760405162461bcd60e51b815260206004820152603860248201527f416d6f756e7420657863656564732074686520546f74616c206465706f73697460448201527f206c696d6974206f662073656e696f7220737562706f6f6c00000000000000006064820152608401610c04565b61017b54614661908361497b565b61017b55506148ee565b60ff82166148ee576101835460ff16156146c75760405162461bcd60e51b815260206004820152601860248201527f4a756e696f7220537562706f6f6c206973206c6f636b656400000000000000006044820152606401610c04565b610182546000906146d990839061497b565b610181549091508111156147555760405162461bcd60e51b815260206004820152603860248201527f416d6f756e7420657863656564732074686520546f74616c206465706f73697460448201527f206c696d6974206f66206a756e696f7220737562706f6f6c00000000000000006064820152608401610c04565b61018254614763908361497b565b610182553360009081526101776020526040902054614782908361497b565b33600081815261017760209081526040808320949094556101789052829020805460ff19166001179055610161546101645492517fe954539d000000000000000000000000000000000000000000000000000000008152600481019290925260248201929092526001600160a01b039091169063e954539d9060440160206040518083038186803b15801561481657600080fd5b505afa15801561482a573d6000803e3d6000fd5b505050506040513d601f19601f8201168201806040525081019061484e9190615a31565b6148d65761016154610164546040517fa68a132200000000000000000000000000000000000000000000000000000000815233600482015260248101919091526001600160a01b039091169063a68a132290604401600060405180830381600087803b1580156148bd57600080fd5b505af11580156148d1573d6000803e3d6000fd5b505050505b6101815481106148ec5761017c805460ff191690555b505b61016a546148fc908261497b565b61016a5561016254614919906001600160a01b0316333084614a20565b60405181815260ff83169033907f1d0787aee899a49ef81d0b11da9aca5455b46aefed042a41bd398d74619cab00906020016124ee565b600061495c8284615d69565b9392505050565b600061495c8284615d2a565b600061495c8284615d4a565b600061495c8284615d12565b60006001600160a01b03821663fc563658825b6040518263ffffffff1660e01b81526004016149b891815260200190565b60206040518083038186803b1580156149d057600080fd5b505afa1580156149e4573d6000803e3d6000fd5b505050506040513d601f19601f82011682018060405250810190610baa9190615a69565b60006001600160a01b03821663fc563658600161499a565b604080516001600160a01b0385811660248301528416604482015260648082018490528251808303909101815260849091019091526020810180517bffffffffffffffffffffffffffffffffffffffffffffffffffffffff167f23b872dd00000000000000000000000000000000000000000000000000000000179052614aa89085906151c0565b50505050565b60006001600160a01b03821663b93f9b0a60085b6040518263ffffffff1660e01b8152600401614ae091815260200190565b60206040518083038186803b158015614af857600080fd5b505afa158015614b0c573d6000803e3d6000fd5b505050506040513d601f19601f82011682018060405250810190610baa9190615988565b60006001600160a01b03821663b93f9b0a6003614ac2565b60006001600160a01b03821663b93f9b0a6006614ac2565b611f6281336152a5565b60008281526065602090815260408083206001600160a01b038516845290915290205460ff16611de55760008281526065602090815260408083206001600160a01b03851684529091529020805460ff19166001179055614bc83390565b6001600160a01b0316816001600160a01b0316837f2f8788117e7eff1d82e926ec794901d17c78024a50270940304540a733656f0d60405160405180910390a45050565b60008281526065602090815260408083206001600160a01b038516845290915290205460ff1615611de55760008281526065602090815260408083206001600160a01b0385168085529252808320805460ff1916905551339285917ff6391f5c32d9c69d2a47ea670b442974b53935d1edc7fd64eb21e047a839171b9190a45050565b614c976134d7565b611f625760405162461bcd60e51b815260206004820152602b60248201527f4d75737420686176652061646d696e20726f6c6520746f20706572666f726d2060448201526a3a3434b99030b1ba34b7b760a91b6064820152608401610c04565b7f4910fdfa16fed3260ed0e7147f7cc6da11a60208b5b9406d12a635614ffd91435460ff1615614d2a57611ce383615325565b826001600160a01b03166352d1902d6040518163ffffffff1660e01b815260040160206040518083038186803b158015614d6357600080fd5b505afa925050508015614d93575060408051601f3d908101601f19168201909252614d9091810190615a69565b60015b614e055760405162461bcd60e51b815260206004820152602e60248201527f45524331393637557067726164653a206e657720696d706c656d656e7461746960448201527f6f6e206973206e6f7420555550530000000000000000000000000000000000006064820152608401610c04565b7f360894a13ba1a3210667c828492db98dca3e2076cc3735a920a3ca505d382bbc8114614e9a5760405162461bcd60e51b815260206004820152602960248201527f45524331393637557067726164653a20756e737570706f727465642070726f7860448201527f6961626c655555494400000000000000000000000000000000000000000000006064820152608401610c04565b50611ce38383836153e3565b60975460ff16156125935760405162461bcd60e51b815260206004820152601060248201527f5061757361626c653a20706175736564000000000000000000000000000000006044820152606401610c04565b614f01615408565b6097805460ff191690557f5db9ee0a495bf2e6ff9c91a7834c1ba4fdd244a5e8aa4e537bd38aeae4b073aa335b6040516001600160a01b03909116815260200160405180910390a1565b600054610100900460ff16614fb65760405162461bcd60e51b815260206004820152602b60248201527f496e697469616c697a61626c653a20636f6e7472616374206973206e6f74206960448201526a6e697469616c697a696e6760a81b6064820152608401610c04565b6097805460ff19169055565b614fca614ea6565b6097805460ff191660011790557f62e78cea01bee320cd4e420270b5ea74000d11b0c9f74754ebdbfc544b05a258614f2e3390565b600054610100900460ff166125935760405162461bcd60e51b815260206004820152602b60248201527f496e697469616c697a61626c653a20636f6e7472616374206973206e6f74206960448201526a6e697469616c697a696e6760a81b6064820152608401610c04565b600054610100900460ff166150d55760405162461bcd60e51b815260206004820152602b60248201527f496e697469616c697a61626c653a20636f6e7472616374206973206e6f74206960448201526a6e697469616c697a696e6760a81b6064820152608401610c04565b600160c955565b611de58282614b6a565b600082815260656020526040808220600101805490849055905190918391839186917fbd79b86ffe0ab8e8776151514217cd7cacd52c909f66475c3af44e129f0b00ff9190a4505050565b60006001600160a01b03821663b93f9b0a82614ac2565b60006001600160a01b03821663b93f9b0a6007614ac2565b60006001600160a01b03821663b93f9b0a6002614ac2565b60006001600160a01b03821663b93f9b0a6001614ac2565b60006001600160a01b03821663fc563658600261499a565b60006001600160a01b03821663fc563658600361499a565b6000615215826040518060400160405280602081526020017f5361666545524332303a206c6f772d6c6576656c2063616c6c206661696c6564815250856001600160a01b031661545a9092919063ffffffff16565b805190915015611ce357808060200190518101906152339190615a31565b611ce35760405162461bcd60e51b815260206004820152602a60248201527f5361666545524332303a204552433230206f7065726174696f6e20646964206e60448201527f6f742073756363656564000000000000000000000000000000000000000000006064820152608401610c04565b60008281526065602090815260408083206001600160a01b038516845290915290205460ff16611de5576152e3816001600160a01b03166014615471565b6152ee836020615471565b6040516020016152ff929190615c05565b60408051601f198184030181529082905262461bcd60e51b8252610c0491600401615c86565b6001600160a01b0381163b6153a25760405162461bcd60e51b815260206004820152602d60248201527f455243313936373a206e657720696d706c656d656e746174696f6e206973206e60448201527f6f74206120636f6e7472616374000000000000000000000000000000000000006064820152608401610c04565b7f360894a13ba1a3210667c828492db98dca3e2076cc3735a920a3ca505d382bbc80546001600160a01b0319166001600160a01b0392909216919091179055565b6153ec83615698565b6000825111806153f95750805b15611ce357614aa883836156d8565b60975460ff166125935760405162461bcd60e51b815260206004820152601460248201527f5061757361626c653a206e6f74207061757365640000000000000000000000006044820152606401610c04565b606061546984846000856157da565b949350505050565b60606000615480836002615d4a565b61548b906002615d12565b67ffffffffffffffff8111156154b157634e487b7160e01b600052604160045260246000fd5b6040519080825280601f01601f1916602001820160405280156154db576020820181803683370190505b5090507f30000000000000000000000000000000000000000000000000000000000000008160008151811061552057634e487b7160e01b600052603260045260246000fd5b60200101906001600160f81b031916908160001a9053507f78000000000000000000000000000000000000000000000000000000000000008160018151811061557957634e487b7160e01b600052603260045260246000fd5b60200101906001600160f81b031916908160001a905350600061559d846002615d4a565b6155a8906001615d12565b90505b6001811115615649577f303132333435363738396162636465660000000000000000000000000000000085600f16601081106155f757634e487b7160e01b600052603260045260246000fd5b1a60f81b82828151811061561b57634e487b7160e01b600052603260045260246000fd5b60200101906001600160f81b031916908160001a90535060049490941c9361564281615dac565b90506155ab565b50831561495c5760405162461bcd60e51b815260206004820181905260248201527f537472696e67733a20686578206c656e67746820696e73756666696369656e746044820152606401610c04565b6156a181615325565b6040516001600160a01b038216907fbc7cd75a20ee27fd9adebab32041f755214dbc6bffa90cc0225b39da2e5c2d3b90600090a250565b60606001600160a01b0383163b6157575760405162461bcd60e51b815260206004820152602660248201527f416464726573733a2064656c65676174652063616c6c20746f206e6f6e2d636f60448201527f6e747261637400000000000000000000000000000000000000000000000000006064820152608401610c04565b600080846001600160a01b0316846040516157729190615be9565b600060405180830381855af49150503d80600081146157ad576040519150601f19603f3d011682016040523d82523d6000602084013e6157b2565b606091505b5091509150610d858282604051806060016040528060278152602001615e0560279139615922565b6060824710156158525760405162461bcd60e51b815260206004820152602660248201527f416464726573733a20696e73756666696369656e742062616c616e636520666f60448201527f722063616c6c00000000000000000000000000000000000000000000000000006064820152608401610c04565b6001600160a01b0385163b6158a95760405162461bcd60e51b815260206004820152601d60248201527f416464726573733a2063616c6c20746f206e6f6e2d636f6e74726163740000006044820152606401610c04565b600080866001600160a01b031685876040516158c59190615be9565b60006040518083038185875af1925050503d8060008114615902576040519150601f19603f3d011682016040523d82523d6000602084013e615907565b606091505b5091509150615917828286615922565b979650505050505050565b6060831561593157508161495c565b8251156159415782518084602001fd5b8160405162461bcd60e51b8152600401610c049190615c86565b803560ff81168114610e3257600080fd5b60006020828403121561597d578081fd5b813561495c81615def565b600060208284031215615999578081fd5b815161495c81615def565b600080604083850312156159b6578081fd5b82356159c181615def565b9150602083013567ffffffffffffffff8111156159dc578182fd5b8301601f810185136159ec578182fd5b80356159ff6159fa82615cea565b615cb9565b818152866020838501011115615a13578384fd5b81602084016020830137908101602001929092525090939092509050565b600060208284031215615a42578081fd5b8151801515811461495c578182fd5b600060208284031215615a62578081fd5b5035919050565b600060208284031215615a7a578081fd5b5051919050565b60008060408385031215615a93578182fd5b823591506020830135615aa581615def565b809150509250929050565b600060208284031215615ac1578081fd5b81356001600160e01b03198116811461495c578182fd5b600080600080600080600060e0888a031215615af2578283fd5b8735615afd81615def565b96506020880135955060408801359450606088013593506080880135925060a08801359150615b2e60c0890161595b565b905092959891949750929550565b600060208284031215615b4d578081fd5b815167ffffffffffffffff811115615b63578182fd5b8201601f81018413615b73578182fd5b8051615b816159fa82615cea565b818152856020838501011115615b95578384fd5b610d85826020830160208601615d80565b600060208284031215615bb7578081fd5b61495c8261595b565b60008060408385031215615bd2578081fd5b615bdb8361595b565b946020939093013593505050565b60008251615bfb818460208701615d80565b9190910192915050565b7f416363657373436f6e74726f6c3a206163636f756e7420000000000000000000815260008351615c3d816017850160208801615d80565b7f206973206d697373696e6720726f6c65200000000000000000000000000000006017918401918201528351615c7a816028840160208801615d80565b01602801949350505050565b6020815260008251806020840152615ca5816040850160208701615d80565b601f01601f19169190910160400192915050565b604051601f8201601f1916810167ffffffffffffffff81118282101715615ce257615ce2615dd9565b604052919050565b600067ffffffffffffffff821115615d0457615d04615dd9565b50601f01601f191660200190565b60008219821115615d2557615d25615dc3565b500190565b600082615d4557634e487b7160e01b81526012600452602481fd5b500490565b6000816000190483118215151615615d6457615d64615dc3565b500290565b600082821015615d7b57615d7b615dc3565b500390565b60005b83811015615d9b578181015183820152602001615d83565b83811115614aa85750506000910152565b600081615dbb57615dbb615dc3565b506000190190565b634e487b7160e01b600052601160045260246000fd5b634e487b7160e01b600052604160045260246000fd5b6001600160a01b0381168114611f6257600080fdfe416464726573733a206c6f772d6c6576656c2064656c65676174652063616c6c206661696c6564a26469706673582212204d6d41cd772c3b7155136824eba13746680af1b3d4efd5df7192eb6cceeddcd864736f6c63430008040033",
  "linkReferences": {},
  "deployedLinkReferences": {}
}