{
  "_format": "hh-sol-artifact-1",
  "contractName": "OpportunityPool",
  "sourceName": "contracts/protocol/OpportunityPool.sol",
  "abi": [
    {
      "anonymous": false,
      "inputs": [
        {
          "indexed": false,
          "internalType": "address",
          "name": "previousAdmin",
          "type": "address"
        },
        {
          "indexed": false,
          "internalType": "address",
          "name": "newAdmin",
          "type": "address"
        }
      ],
      "name": "AdminChanged",
      "type": "event"
    },
    {
      "anonymous": false,
      "inputs": [
        {
          "indexed": true,
          "internalType": "address",
          "name": "beacon",
          "type": "address"
        }
      ],
      "name": "BeaconUpgraded",
      "type": "event"
    },
    {
      "anonymous": false,
      "inputs": [
        {
          "indexed": true,
          "internalType": "address",
          "name": "executor",
          "type": "address"
        },
        {
          "indexed": true,
          "internalType": "uint8",
          "name": "subpool",
          "type": "uint8"
        },
        {
          "indexed": false,
          "internalType": "uint256",
          "name": "amount",
          "type": "uint256"
        }
      ],
      "name": "Deposited",
      "type": "event"
    },
    {
      "anonymous": false,
      "inputs": [
        {
          "indexed": false,
          "internalType": "uint8",
          "name": "version",
          "type": "uint8"
        }
      ],
      "name": "Initialized",
      "type": "event"
    },
    {
      "anonymous": false,
      "inputs": [
        {
          "indexed": false,
          "internalType": "address",
          "name": "account",
          "type": "address"
        }
      ],
      "name": "Paused",
      "type": "event"
    },
    {
      "anonymous": false,
      "inputs": [
        {
          "indexed": true,
          "internalType": "bytes32",
          "name": "role",
          "type": "bytes32"
        },
        {
          "indexed": true,
          "internalType": "bytes32",
          "name": "previousAdminRole",
          "type": "bytes32"
        },
        {
          "indexed": true,
          "internalType": "bytes32",
          "name": "newAdminRole",
          "type": "bytes32"
        }
      ],
      "name": "RoleAdminChanged",
      "type": "event"
    },
    {
      "anonymous": false,
      "inputs": [
        {
          "indexed": true,
          "internalType": "bytes32",
          "name": "role",
          "type": "bytes32"
        },
        {
          "indexed": true,
          "internalType": "address",
          "name": "account",
          "type": "address"
        },
        {
          "indexed": true,
          "internalType": "address",
          "name": "sender",
          "type": "address"
        }
      ],
      "name": "RoleGranted",
      "type": "event"
    },
    {
      "anonymous": false,
      "inputs": [
        {
          "indexed": true,
          "internalType": "bytes32",
          "name": "role",
          "type": "bytes32"
        },
        {
          "indexed": true,
          "internalType": "address",
          "name": "account",
          "type": "address"
        },
        {
          "indexed": true,
          "internalType": "address",
          "name": "sender",
          "type": "address"
        }
      ],
      "name": "RoleRevoked",
      "type": "event"
    },
    {
      "anonymous": false,
      "inputs": [
        {
          "indexed": false,
          "internalType": "address",
          "name": "account",
          "type": "address"
        }
      ],
      "name": "Unpaused",
      "type": "event"
    },
    {
      "anonymous": false,
      "inputs": [
        {
          "indexed": true,
          "internalType": "address",
          "name": "implementation",
          "type": "address"
        }
      ],
      "name": "Upgraded",
      "type": "event"
    },
    {
      "anonymous": false,
      "inputs": [
        {
          "indexed": true,
          "internalType": "address",
          "name": "executor",
          "type": "address"
        },
        {
          "indexed": true,
          "internalType": "uint8",
          "name": "subpool",
          "type": "uint8"
        },
        {
          "indexed": false,
          "internalType": "uint256",
          "name": "amount",
          "type": "uint256"
        }
      ],
      "name": "Withdrew",
      "type": "event"
    },
    {
      "inputs": [],
      "name": "DEFAULT_ADMIN_ROLE",
      "outputs": [
        {
          "internalType": "bytes32",
          "name": "",
          "type": "bytes32"
        }
      ],
      "stateMutability": "view",
      "type": "function"
    },
    {
      "inputs": [
        {
          "internalType": "address",
          "name": "owner",
          "type": "address"
        }
      ],
      "name": "_BaseUpgradeablePausable_init",
      "outputs": [],
      "stateMutability": "nonpayable",
      "type": "function"
    },
    {
      "inputs": [],
      "name": "__PauserPausable__init",
      "outputs": [],
      "stateMutability": "nonpayable",
      "type": "function"
    },
    {
      "inputs": [],
      "name": "dailyOverdueInterestRate",
      "outputs": [
        {
          "internalType": "uint256",
          "name": "",
          "type": "uint256"
        }
      ],
      "stateMutability": "view",
      "type": "function"
    },
    {
      "inputs": [
        {
          "internalType": "uint8",
          "name": "_subpoolId",
          "type": "uint8"
        },
        {
          "internalType": "uint256",
          "name": "amount",
          "type": "uint256"
        }
      ],
      "name": "deposit",
      "outputs": [],
      "stateMutability": "nonpayable",
      "type": "function"
    },
    {
      "inputs": [],
      "name": "drawdown",
      "outputs": [],
      "stateMutability": "nonpayable",
      "type": "function"
    },
    {
      "inputs": [],
      "name": "dygnifyConfig",
      "outputs": [
        {
          "internalType": "contract DygnifyConfig",
          "name": "",
          "type": "address"
        }
      ],
      "stateMutability": "view",
      "type": "function"
    },
    {
      "inputs": [],
      "name": "emiAmount",
      "outputs": [
        {
          "internalType": "uint256",
          "name": "",
          "type": "uint256"
        }
      ],
      "stateMutability": "view",
      "type": "function"
    },
    {
      "inputs": [],
      "name": "getOpportunityName",
      "outputs": [
        {
          "internalType": "string",
          "name": "",
          "type": "string"
        }
      ],
      "stateMutability": "view",
      "type": "function"
    },
    {
      "inputs": [],
      "name": "getOverDuePercentage",
      "outputs": [
        {
          "internalType": "uint256",
          "name": "",
          "type": "uint256"
        },
        {
          "internalType": "uint256",
          "name": "",
          "type": "uint256"
        }
      ],
      "stateMutability": "view",
      "type": "function"
    },
    {
      "inputs": [],
      "name": "getRepaymentAmount",
      "outputs": [
        {
          "internalType": "uint256",
          "name": "",
          "type": "uint256"
        }
      ],
      "stateMutability": "view",
      "type": "function"
    },
    {
      "inputs": [
        {
          "internalType": "bytes32",
          "name": "role",
          "type": "bytes32"
        }
      ],
      "name": "getRoleAdmin",
      "outputs": [
        {
          "internalType": "bytes32",
          "name": "",
          "type": "bytes32"
        }
      ],
      "stateMutability": "view",
      "type": "function"
    },
    {
      "inputs": [],
      "name": "getSeniorPoolWithdrawableAmount",
      "outputs": [
        {
          "internalType": "uint256",
          "name": "amount",
          "type": "uint256"
        }
      ],
      "stateMutability": "view",
      "type": "function"
    },
    {
      "inputs": [],
      "name": "getSeniorProfit",
      "outputs": [
        {
          "internalType": "uint256",
          "name": "",
          "type": "uint256"
        }
      ],
      "stateMutability": "view",
      "type": "function"
    },
    {
      "inputs": [],
      "name": "getSeniorTotalDepositable",
      "outputs": [
        {
          "internalType": "uint256",
          "name": "",
          "type": "uint256"
        }
      ],
      "stateMutability": "view",
      "type": "function"
    },
    {
      "inputs": [],
      "name": "getUserWithdrawableAmount",
      "outputs": [
        {
          "internalType": "uint256",
          "name": "",
          "type": "uint256"
        }
      ],
      "stateMutability": "view",
      "type": "function"
    },
    {
      "inputs": [],
      "name": "getYieldPercentage",
      "outputs": [
        {
          "internalType": "uint256",
          "name": "",
          "type": "uint256"
        },
        {
          "internalType": "uint256",
          "name": "",
          "type": "uint256"
        }
      ],
      "stateMutability": "view",
      "type": "function"
    },
    {
      "inputs": [
        {
          "internalType": "bytes32",
          "name": "role",
          "type": "bytes32"
        },
        {
          "internalType": "address",
          "name": "account",
          "type": "address"
        }
      ],
      "name": "grantRole",
      "outputs": [],
      "stateMutability": "nonpayable",
      "type": "function"
    },
    {
      "inputs": [
        {
          "internalType": "bytes32",
          "name": "role",
          "type": "bytes32"
        },
        {
          "internalType": "address",
          "name": "account",
          "type": "address"
        }
      ],
      "name": "hasRole",
      "outputs": [
        {
          "internalType": "bool",
          "name": "",
          "type": "bool"
        }
      ],
      "stateMutability": "view",
      "type": "function"
    },
    {
      "inputs": [
        {
          "internalType": "contract DygnifyConfig",
          "name": "_dygnifyConfig",
          "type": "address"
        },
        {
          "internalType": "bytes32",
          "name": "_opportunityID",
          "type": "bytes32"
        },
        {
          "internalType": "uint256",
          "name": "_loanAmount",
          "type": "uint256"
        },
        {
          "internalType": "uint256",
          "name": "_loanTenureInDays",
          "type": "uint256"
        },
        {
          "internalType": "uint256",
          "name": "_loanInterest",
          "type": "uint256"
        },
        {
          "internalType": "uint256",
          "name": "_paymentFrequencyInDays",
          "type": "uint256"
        },
        {
          "internalType": "uint8",
          "name": "_loanType",
          "type": "uint8"
        }
      ],
      "name": "initialize",
      "outputs": [],
      "stateMutability": "nonpayable",
      "type": "function"
    },
    {
      "inputs": [],
      "name": "investor",
      "outputs": [
        {
          "internalType": "contract IInvestor",
          "name": "",
          "type": "address"
        }
      ],
      "stateMutability": "view",
      "type": "function"
    },
    {
      "inputs": [],
      "name": "isAdmin",
      "outputs": [
        {
          "internalType": "bool",
          "name": "",
          "type": "bool"
        }
      ],
      "stateMutability": "view",
      "type": "function"
    },
    {
      "inputs": [],
      "name": "isDrawdownsPaused",
      "outputs": [
        {
          "internalType": "bool",
          "name": "",
          "type": "bool"
        }
      ],
      "stateMutability": "view",
      "type": "function"
    },
    {
      "inputs": [
        {
          "internalType": "address",
          "name": "",
          "type": "address"
        }
      ],
      "name": "isStaking",
      "outputs": [
        {
          "internalType": "bool",
          "name": "",
          "type": "bool"
        }
      ],
      "stateMutability": "view",
      "type": "function"
    },
    {
      "inputs": [],
      "name": "juniorOverduePerecentage",
      "outputs": [
        {
          "internalType": "uint256",
          "name": "",
          "type": "uint256"
        }
      ],
      "stateMutability": "view",
      "type": "function"
    },
    {
      "inputs": [],
      "name": "juniorSubpoolDetails",
      "outputs": [
        {
          "internalType": "uint256",
          "name": "id",
          "type": "uint256"
        },
        {
          "internalType": "uint256",
          "name": "totalDepositable",
          "type": "uint256"
        },
        {
          "internalType": "uint256",
          "name": "depositedAmount",
          "type": "uint256"
        },
        {
          "internalType": "bool",
          "name": "isPoolLocked",
          "type": "bool"
        },
        {
          "internalType": "uint256",
          "name": "fundsLockedUntil",
          "type": "uint256"
        },
        {
          "internalType": "uint256",
          "name": "yieldGenerated",
          "type": "uint256"
        },
        {
          "internalType": "uint256",
          "name": "overdueGenerated",
          "type": "uint256"
        }
      ],
      "stateMutability": "view",
      "type": "function"
    },
    {
      "inputs": [],
      "name": "juniorYieldPerecentage",
      "outputs": [
        {
          "internalType": "uint256",
          "name": "",
          "type": "uint256"
        }
      ],
      "stateMutability": "view",
      "type": "function"
    },
    {
      "inputs": [],
      "name": "loanAmount",
      "outputs": [
        {
          "internalType": "uint256",
          "name": "",
          "type": "uint256"
        }
      ],
      "stateMutability": "view",
      "type": "function"
    },
    {
      "inputs": [],
      "name": "loanInterest",
      "outputs": [
        {
          "internalType": "uint256",
          "name": "",
          "type": "uint256"
        }
      ],
      "stateMutability": "view",
      "type": "function"
    },
    {
      "inputs": [],
      "name": "loanTenureInDays",
      "outputs": [
        {
          "internalType": "uint256",
          "name": "",
          "type": "uint256"
        }
      ],
      "stateMutability": "view",
      "type": "function"
    },
    {
      "inputs": [],
      "name": "loanType",
      "outputs": [
        {
          "internalType": "uint8",
          "name": "",
          "type": "uint8"
        }
      ],
      "stateMutability": "view",
      "type": "function"
    },
    {
      "inputs": [
        {
          "internalType": "uint8",
          "name": "_subpoolId",
          "type": "uint8"
        }
      ],
      "name": "lockPool",
      "outputs": [],
      "stateMutability": "nonpayable",
      "type": "function"
    },
    {
      "inputs": [],
      "name": "lpToken",
      "outputs": [
        {
          "internalType": "contract ILPToken",
          "name": "",
          "type": "address"
        }
      ],
      "stateMutability": "view",
      "type": "function"
    },
    {
      "inputs": [],
      "name": "nextRepaymentTime",
      "outputs": [
        {
          "internalType": "uint256",
          "name": "",
          "type": "uint256"
        }
      ],
      "stateMutability": "view",
      "type": "function"
    },
    {
      "inputs": [],
      "name": "opportunityID",
      "outputs": [
        {
          "internalType": "bytes32",
          "name": "",
          "type": "bytes32"
        }
      ],
      "stateMutability": "view",
      "type": "function"
    },
    {
      "inputs": [],
      "name": "opportunityOrigination",
      "outputs": [
        {
          "internalType": "contract IOpportunityOrigination",
          "name": "",
          "type": "address"
        }
      ],
      "stateMutability": "view",
      "type": "function"
    },
    {
      "inputs": [],
      "name": "pause",
      "outputs": [],
      "stateMutability": "nonpayable",
      "type": "function"
    },
    {
      "inputs": [],
      "name": "pauseDrawdown",
      "outputs": [],
      "stateMutability": "nonpayable",
      "type": "function"
    },
    {
      "inputs": [],
      "name": "paused",
      "outputs": [
        {
          "internalType": "bool",
          "name": "",
          "type": "bool"
        }
      ],
      "stateMutability": "view",
      "type": "function"
    },
    {
      "inputs": [],
      "name": "paymentFrequencyInDays",
      "outputs": [
        {
          "internalType": "uint256",
          "name": "",
          "type": "uint256"
        }
      ],
      "stateMutability": "view",
      "type": "function"
    },
    {
      "inputs": [],
      "name": "poolBalance",
      "outputs": [
        {
          "internalType": "uint256",
          "name": "",
          "type": "uint256"
        }
      ],
      "stateMutability": "view",
      "type": "function"
    },
    {
      "inputs": [],
      "name": "proxiableUUID",
      "outputs": [
        {
          "internalType": "bytes32",
          "name": "",
          "type": "bytes32"
        }
      ],
      "stateMutability": "view",
      "type": "function"
    },
    {
      "inputs": [
        {
          "internalType": "bytes32",
          "name": "role",
          "type": "bytes32"
        },
        {
          "internalType": "address",
          "name": "account",
          "type": "address"
        }
      ],
      "name": "renounceRole",
      "outputs": [],
      "stateMutability": "nonpayable",
      "type": "function"
    },
    {
      "inputs": [],
      "name": "repayment",
      "outputs": [],
      "stateMutability": "nonpayable",
      "type": "function"
    },
    {
      "inputs": [],
      "name": "repaymentCounter",
      "outputs": [
        {
          "internalType": "uint256",
          "name": "",
          "type": "uint256"
        }
      ],
      "stateMutability": "view",
      "type": "function"
    },
    {
      "inputs": [],
      "name": "repaymentStartTime",
      "outputs": [
        {
          "internalType": "uint256",
          "name": "",
          "type": "uint256"
        }
      ],
      "stateMutability": "view",
      "type": "function"
    },
    {
      "inputs": [
        {
          "internalType": "bytes32",
          "name": "role",
          "type": "bytes32"
        },
        {
          "internalType": "address",
          "name": "account",
          "type": "address"
        }
      ],
      "name": "revokeRole",
      "outputs": [],
      "stateMutability": "nonpayable",
      "type": "function"
    },
    {
      "inputs": [],
      "name": "seniorOverduePerecentage",
      "outputs": [
        {
          "internalType": "uint256",
          "name": "",
          "type": "uint256"
        }
      ],
      "stateMutability": "view",
      "type": "function"
    },
    {
      "inputs": [],
      "name": "seniorSubpoolDetails",
      "outputs": [
        {
          "internalType": "uint256",
          "name": "id",
          "type": "uint256"
        },
        {
          "internalType": "uint256",
          "name": "totalDepositable",
          "type": "uint256"
        },
        {
          "internalType": "uint256",
          "name": "depositedAmount",
          "type": "uint256"
        },
        {
          "internalType": "bool",
          "name": "isPoolLocked",
          "type": "bool"
        },
        {
          "internalType": "uint256",
          "name": "fundsLockedUntil",
          "type": "uint256"
        },
        {
          "internalType": "uint256",
          "name": "yieldGenerated",
          "type": "uint256"
        },
        {
          "internalType": "uint256",
          "name": "overdueGenerated",
          "type": "uint256"
        }
      ],
      "stateMutability": "view",
      "type": "function"
    },
    {
      "inputs": [],
      "name": "seniorYieldPerecentage",
      "outputs": [
        {
          "internalType": "uint256",
          "name": "",
          "type": "uint256"
        }
      ],
      "stateMutability": "view",
      "type": "function"
    },
    {
      "inputs": [
        {
          "internalType": "address",
          "name": "",
          "type": "address"
        }
      ],
      "name": "stakingBalance",
      "outputs": [
        {
          "internalType": "uint256",
          "name": "",
          "type": "uint256"
        }
      ],
      "stateMutability": "view",
      "type": "function"
    },
    {
      "inputs": [
        {
          "internalType": "bytes4",
          "name": "interfaceId",
          "type": "bytes4"
        }
      ],
      "name": "supportsInterface",
      "outputs": [
        {
          "internalType": "bool",
          "name": "",
          "type": "bool"
        }
      ],
      "stateMutability": "view",
      "type": "function"
    },
    {
      "inputs": [],
      "name": "totalOutstandingPrincipal",
      "outputs": [
        {
          "internalType": "uint256",
          "name": "",
          "type": "uint256"
        }
      ],
      "stateMutability": "view",
      "type": "function"
    },
    {
      "inputs": [],
      "name": "totalRepaidAmount",
      "outputs": [
        {
          "internalType": "uint256",
          "name": "",
          "type": "uint256"
        }
      ],
      "stateMutability": "view",
      "type": "function"
    },
    {
      "inputs": [],
      "name": "totalRepayments",
      "outputs": [
        {
          "internalType": "uint256",
          "name": "",
          "type": "uint256"
        }
      ],
      "stateMutability": "view",
      "type": "function"
    },
    {
      "inputs": [
        {
          "internalType": "uint8",
          "name": "_subpoolId",
          "type": "uint8"
        }
      ],
      "name": "unLockPool",
      "outputs": [],
      "stateMutability": "nonpayable",
      "type": "function"
    },
    {
      "inputs": [],
      "name": "unpause",
      "outputs": [],
      "stateMutability": "nonpayable",
      "type": "function"
    },
    {
      "inputs": [],
      "name": "unpauseDrawdown",
      "outputs": [],
      "stateMutability": "nonpayable",
      "type": "function"
    },
    {
      "inputs": [
        {
          "internalType": "address",
          "name": "newImplementation",
          "type": "address"
        }
      ],
      "name": "upgradeTo",
      "outputs": [],
      "stateMutability": "nonpayable",
      "type": "function"
    },
    {
      "inputs": [
        {
          "internalType": "address",
          "name": "newImplementation",
          "type": "address"
        },
        {
          "internalType": "bytes",
          "name": "data",
          "type": "bytes"
        }
      ],
      "name": "upgradeToAndCall",
      "outputs": [],
      "stateMutability": "payable",
      "type": "function"
    },
    {
      "inputs": [],
      "name": "usdcToken",
      "outputs": [
        {
          "internalType": "contract IERC20",
          "name": "",
          "type": "address"
        }
      ],
      "stateMutability": "view",
      "type": "function"
    },
    {
      "inputs": [
        {
          "internalType": "uint8",
          "name": "_subpoolId",
          "type": "uint8"
        }
      ],
      "name": "withdrawAll",
      "outputs": [
        {
          "internalType": "uint256",
          "name": "",
          "type": "uint256"
        }
      ],
      "stateMutability": "nonpayable",
      "type": "function"
    },
    {
      "inputs": [],
      "name": "writeOffOpportunity",
      "outputs": [],
      "stateMutability": "nonpayable",
      "type": "function"
    }
  ],
  "bytecode": "0x60a06040523060601b60805234801561001757600080fd5b5060805160601c61531361005260003960008181611adf01528181611b1f01528181611bd901528181611c190152611d6101526153136000f3fe6080604052600436106103385760003560e01c80636f49712b116101b2578063bbbf13ea116100ed578063ddc22b7411610090578063ddc22b74146109ce578063dee05609146109f0578063df9fd1c114610a07578063e77ef21f14610a1c578063eedffb9614610a31578063f4d4c9d714610a48578063f51c879b14610a68578063ff3a564414610a7f57600080fd5b8063bbbf13ea146108dd578063c4f31a65146108f4578063c5e2bf1a14610914578063c8dd7bf314610934578063cab9bd001461094b578063d547741f14610984578063d661d320146109a4578063dadfecca146109b957600080fd5b806399e7f2501161015557806399e7f250146108215780639b021fa2146108385780639d585f7f1461084f5780639f964fe614610866578063a12dde4d1461087c578063a217fddf1461089c578063a7292ea4146108b1578063b6db75a0146108c857600080fd5b80636f49712b1461074c5780637101fd161461077d5780637a374e121461079257806383933a2b146107a95780638456cb59146107be578063891369b2146107d357806391d14854146107ea57806396365d441461080a57600080fd5b80632588d168116102825780634f1ef286116102255780634f1ef2861461067f578063526d81f61461069257806352d1902d146106a757806353654e85146106bc5780635b483e4c146106dc5780635c975abb146106f35780635fcbd2851461070b5780636a15633b1461072c57600080fd5b80632588d1681461058f5780632f2ff15d146105b057806334d93fb4146105d057806336568abe146105e55780633659cfe6146106055780633f4ba83a1461062557806345bc78ab1461063a57806346e35faa1461066857600080fd5b806311eac855116102ea57806311eac8551461048c57806317cd802d146104c55780631be95459146104da5780631daa910e146104fb5780631e0018d61461051257806322eac12c14610533578063248a9ca31461054a578063257c27361461057a57600080fd5b806301ffc9a71461033d578063031994941461037257806304419b76146103e0578063074f25431461040d57806307a7c08a146104305780630a2c15051461045a5780630b4a45fd14610475575b600080fd5b34801561034957600080fd5b5061035d6103583660046149f0565b610a96565b60405190151581526020015b60405180910390f35b34801561037e57600080fd5b50610180546101815461018254610183546101845461018554610186546103ab9695949360ff1692919087565b604080519788526020880196909652948601939093529015156060850152608084015260a083015260c082015260e001610369565b3480156103ec57600080fd5b50610165546103fb9060ff1681565b60405160ff9091168152602001610369565b34801561041957600080fd5b50610422610acd565b604051908152602001610369565b34801561043c57600080fd5b50610445610cc9565b60408051928352602083019190915201610369565b34801561046657600080fd5b506101765461035d9060ff1681565b34801561048157600080fd5b5061048a610d88565b005b34801561049857600080fd5b50610162546104ad906001600160a01b031681565b6040516001600160a01b039091168152602001610369565b3480156104d157600080fd5b5061048a610dbc565b3480156104e657600080fd5b5061015f546104ad906001600160a01b031681565b34801561050757600080fd5b506104226101735481565b34801561051e57600080fd5b50610161546104ad906001600160a01b031681565b34801561053f57600080fd5b5061042261016d5481565b34801561055657600080fd5b50610422610565366004614991565b60009081526065602052604090206001015490565b34801561058657600080fd5b5061048a6115d1565b34801561059b57600080fd5b50610160546104ad906001600160a01b031681565b3480156105bc57600080fd5b5061048a6105cb3660046149c1565b6119fb565b3480156105dc57600080fd5b5061048a611a25565b3480156105f157600080fd5b5061048a6106003660046149c1565b611a56565b34801561061157600080fd5b5061048a6106203660046148ac565b611ad4565b34801561063157600080fd5b5061048a611b9d565b34801561064657600080fd5b506104226106553660046148ac565b6101776020526000908152604090205481565b34801561067457600080fd5b506104226101745481565b61048a61068d3660046148e4565b611bce565b34801561069e57600080fd5b5061048a611c84565b3480156106b357600080fd5b50610422611d54565b3480156106c857600080fd5b506104226106d7366004614ae6565b611e02565b3480156106e857600080fd5b5061042261016e5481565b3480156106ff57600080fd5b5060975460ff1661035d565b34801561071757600080fd5b50610163546104ad906001600160a01b031681565b34801561073857600080fd5b5061048a610747366004614ae6565b612301565b34801561075857600080fd5b5061035d6107673660046148ac565b6101786020526000908152604090205460ff1681565b34801561078957600080fd5b50610422612382565b34801561079e57600080fd5b5061042261016f5481565b3480156107b557600080fd5b506104226124e7565b3480156107ca57600080fd5b5061048a612536565b3480156107df57600080fd5b506104226101705481565b3480156107f657600080fd5b5061035d6108053660046149c1565b612565565b34801561081657600080fd5b5061042261016a5481565b34801561082d57600080fd5b506104226101675481565b34801561084457600080fd5b5061042261016c5481565b34801561085b57600080fd5b506104226101665481565b34801561087257600080fd5b5061017a54610422565b34801561088857600080fd5b5061048a6108973660046148ac565b612590565b3480156108a857600080fd5b50610422600081565b3480156108bd57600080fd5b506104226101685481565b3480156108d457600080fd5b5061035d612664565b3480156108e957600080fd5b5061042261016b5481565b34801561090057600080fd5b5061048a61090f366004614a18565b612671565b34801561092057600080fd5b5061048a61092f366004614ae6565b612c55565b34801561094057600080fd5b506104226101645481565b34801561095757600080fd5b506101795461017a5461017b5461017c5461017d5461017e5461017f546103ab9695949360ff1692919087565b34801561099057600080fd5b5061048a61099f3660046149c1565b612cd0565b3480156109b057600080fd5b50610422612cf5565b3480156109c557600080fd5b50610445612d09565b3480156109da57600080fd5b506109e3612de0565b6040516103699190614bcd565b3480156109fc57600080fd5b506104226101725481565b348015610a1357600080fd5b50610422612e67565b348015610a2857600080fd5b5061048a612ebd565b348015610a3d57600080fd5b506104226101755481565b348015610a5457600080fd5b5061048a610a63366004614b00565b613177565b348015610a7457600080fd5b506104226101715481565b348015610a8b57600080fd5b506104226101695481565b60006001600160e01b03198216637965db0b60e01b1480610ac757506301ffc9a760e01b6001600160e01b03198316145b92915050565b600061016d5461016c541115610afe5760405162461bcd60e51b8152600401610af59061500f565b60405180910390fd5b6101605461016454604051630231155f60e51b81526001600160a01b0390921691634622abe091610b359160040190815260200190565b60206040518083038186803b158015610b4d57600080fd5b505afa158015610b61573d6000803e3d6000fd5b505050506040513d601f19601f82011682018060405250810190610b859190614971565b1515600114610ba65760405162461bcd60e51b8152600401610af590614ec6565b6101655460009060ff1660011415610c3c575061016e54426000610bc8612e67565b9050600081831115610c29576000610bed62015180610be78686613590565b906135a3565b9050610c25620f42405b610be761016e54610c1f610c18606461016f546135a390919063ffffffff16565b86906135af565b906135af565b9150505b610c3384826135bb565b95945050505050565b5061016e54426000610c4c612e67565b9050600081831115610c97576000610c6b62015180610be78686613590565b9050610c93620f42405b610be787610c1f610c18606461016f546135a390919063ffffffff16565b9150505b610ca184826135bb565b935061016d5461016c541415610cc05761016654610c339085906135bb565b5050505b919050565b6000806000610ce26101715461016954610168546135c7565b61015f54909150600090610d1790610d02906001600160a01b03166136a5565b610d0d90600161509b565b61016654906135a3565b61015f54909150600090610d3e90610d37906001600160a01b03166136a5565b83906135af565b90506000610d5c84610be761017254856135af90919063ffffffff16565b90506000610d7a85610be761017354876135af90919063ffffffff16565b919791965090945050505050565b610d90612664565b610dac5760405162461bcd60e51b8152600401610af590614fc4565b610176805460ff19166001179055565b600260c9541415610ddf5760405162461bcd60e51b8152600401610af590614f8d565b600260c955610df5610def613726565b33612565565b610e115760405162461bcd60e51b8152600401610af590614e2b565b61016d5461016c541115610e375760405162461bcd60e51b8152600401610af59061500f565b6101605461016454604051630231155f60e51b81526001600160a01b0390921691634622abe091610e6e9160040190815260200190565b60206040518083038186803b158015610e8657600080fd5b505afa158015610e9a573d6000803e3d6000fd5b505050506040513d601f19601f82011682018060405250810190610ebe9190614971565b1515600114610edf5760405162461bcd60e51b8152600401610af590614ec6565b426000610eea612e67565b9050600081831115610f1b576000610f0962015180610be78686613590565b9050610f17620f4240610bf7565b9150505b6101655460ff16600114156111d85761016e546101708054829190600090610f4490849061509b565b925050819055506000610f616101715461016954610168546135c7565b90506000610f7b8261016e5461359090919063ffffffff16565b61017154909150610f8c9082613590565b6101715561015f54600090610fc190610fba90600190610fb4906001600160a01b03166136a5565b906135bb565b83906135a3565b61015f54909150600090610fe190610d37906001600160a01b03166136a5565b61017b54909150610ff290826135bb565b61017b556101825461100490836135bb565b6101825561102a611020620f424061017254610be790886135af565b61017e54906135bb565b61017e55611050611046620f424061017354610be790886135af565b61018554906135bb565b6101855561107661106c620f424061017554610be7908a6135af565b61018654906135bb565b6101865561109c611092620f424061017454610be7908a6135af565b61017f54906135bb565b61017f5560006110ca620f424061015f54610be7906110c3906001600160a01b031661374a565b88906135af565b90506110f4620f424061015f54610be7906110ed906001600160a01b031661374a565b8a906135af565b6110fe908261509b565b905061110a86886135bb565b61016a5490965061111b90876135bb565b61016a5561016254611138906001600160a01b0316333089613762565b6101625461015f546001600160a01b039182169163a9059cbb9161115c91166137c2565b836040518363ffffffff1660e01b815260040161117a929190614bb4565b602060405180830381600087803b15801561119457600080fd5b505af11580156111a8573d6000803e3d6000fd5b505050506040513d601f19601f820116820180604052508101906111cc9190614971565b505050505050506113d0565b600061016e5490508061017060008282546111f3919061509b565b909155506112129050611020620f42405b61017254610be790856135af565b61017e5561122e611046620f424061017354610be790856135af565b6101855561124a61106c620f424061017554610be790866135af565b61018655611266611092620f424061017454610be790866135af565b61017f556000611294620f424061015f54610be79061128d906001600160a01b031661374a565b85906135af565b90506112b7620f424061015f54610be790610c18906001600160a01b031661374a565b6112c1908261509b565b905061016d5461016c54141561130057610166546112e09083906135bb565b91506112fb61016654610170546135bb90919063ffffffff16565b610170555b61130a82846135bb565b61016a5490925061131b90836135bb565b61016a5561016254611338906001600160a01b0316333085613762565b6101625461015f546001600160a01b039182169163a9059cbb9161135c91166137c2565b836040518363ffffffff1660e01b815260040161137a929190614bb4565b602060405180830381600087803b15801561139457600080fd5b505af11580156113a8573d6000803e3d6000fd5b505050506040513d601f19601f820116820180604052508101906113cc9190614971565b5050505b61016d5461016c5414156115b35761016054610164546040516319978a4360e11b81526001600160a01b039092169163332f1486916114159160040190815260200190565b600060405180830381600087803b15801561142f57600080fd5b505af1158015611443573d6000803e3d6000fd5b505061015f5461145e92506001600160a01b03169050613844565b61016454604051630387c6d160e31b8152600060048201819052602482019290925260448101919091526001600160a01b039190911690631c3e368890606401600060405180830381600087803b1580156114b857600080fd5b505af11580156114cc573d6000803e3d6000fd5b505061017e5461017b54600093506114e59250906135bb565b61017f54909150156115095761017f546115009082906135bb565b600061017f5590505b600061017b81905561017e5561016a546115239082613590565b61016a556101625460405163a9059cbb60e01b81526001600160a01b039091169063a9059cbb9061155a9033908590600401614bb4565b602060405180830381600087803b15801561157457600080fd5b505af1158015611588573d6000803e3d6000fd5b505050506040513d601f19601f820116820180604052508101906115ac9190614971565b50506115c7565b61016c546115c29060016135bb565b61016c555b5050600160c95550565b6101605461016454604051631a054c8b60e21b81526001600160a01b0390921691636815322c916116089160040190815260200190565b60206040518083038186803b15801561162057600080fd5b505afa158015611634573d6000803e3d6000fd5b505050506040513d601f19601f820116820180604052508101906116589190614971565b15156001146116bb5760405162461bcd60e51b815260206004820152602960248201527f4f70706f7274756e69747920706f6f6c20697320686176656e2774205772697460448201526832b7b333103cb2ba1760b91b6064820152608401610af5565b61015f546116d1906001600160a01b031661385c565b6001600160a01b0316336001600160a01b03161461174a5760405162461bcd60e51b815260206004820152603060248201527f4f6e6c79204f70706f7274756e6974794f726967696e6174696f6e2063616e2060448201526f32bc32b1baba32903bb934ba32b7b33360811b6064820152608401610af5565b61015f5460009061177f9061176e90600190610fb4906001600160a01b03166136a5565b61016d5461016654610be7916135af565b61015f5490915060009061179f90610d37906001600160a01b03166136a5565b905060006117af620f4240611204565b6101655490915060009060ff166001141561180a574260006117cf612e67565b90506000818311156118005760006117ee62015180610be78686613590565b90506117fc620f4240610bf7565b9150505b9250611850915050565b61016e54426000611819612e67565b905060008183111561184a57600061183862015180610be78686613590565b9050611846620f4240610c75565b9150505b93505050505b611865620f424061017454610be790846135af565b61017f54909150600090611879908361509b565b61017a5490915060009061188d858461509b565b611897919061509b565b90508061016a5411156119415761015f546118ba906001600160a01b0316613844565b61016454604051630387c6d160e31b8152600160048201526024810191909152604481018390526001600160a01b039190911690631c3e368890606401600060405180830381600087803b15801561191157600080fd5b505af1158015611925573d6000803e3d6000fd5b5050600061017f81905561017b81905561017e55506119f39050565b61015f54611957906001600160a01b0316613844565b6101645461016a54604051630387c6d160e31b815260016004820152602481019290925260448201526001600160a01b039190911690631c3e368890606401600060405180830381600087803b1580156119b057600080fd5b505af11580156119c4573d6000803e3d6000fd5b5050600061016a81905561017f81905561017b81905561017e8190556101868190556101828190556101855550505b505050505050565b600082815260656020526040902060010154611a1681613874565b611a20838361387e565b505050565b611a2d612664565b611a495760405162461bcd60e51b8152600401610af590614fc4565b610176805460ff19169055565b6001600160a01b0381163314611ac65760405162461bcd60e51b815260206004820152602f60248201527f416363657373436f6e74726f6c3a2063616e206f6e6c792072656e6f756e636560448201526e103937b632b9903337b91039b2b63360891b6064820152608401610af5565b611ad08282613904565b5050565b306001600160a01b037f0000000000000000000000000000000000000000000000000000000000000000161415611b1d5760405162461bcd60e51b8152600401610af590614c7e565b7f00000000000000000000000000000000000000000000000000000000000000006001600160a01b0316611b4f61396b565b6001600160a01b031614611b755760405162461bcd60e51b8152600401610af590614cca565b611b7e81613987565b60408051600080825260208201909252611b9a918391906139ab565b50565b611ba8610def613b25565b611bc45760405162461bcd60e51b8152600401610af590614c32565b611bcc613b49565b565b306001600160a01b037f0000000000000000000000000000000000000000000000000000000000000000161415611c175760405162461bcd60e51b8152600401610af590614c7e565b7f00000000000000000000000000000000000000000000000000000000000000006001600160a01b0316611c4961396b565b6001600160a01b031614611c6f5760405162461bcd60e51b8152600401610af590614cca565b611c7882613987565b611ad0828260016139ab565b600054610100900460ff1615808015611ca45750600054600160ff909116105b80611cc55750611cb330613b9b565b158015611cc5575060005460ff166001145b611ce15760405162461bcd60e51b8152600401610af590614d16565b6000805460ff191660011790558015611d04576000805461ff0019166101001790555b611d0c613baa565b8015611b9a576000805461ff0019169055604051600181527f7f26b83ff96e1f2b6a682f133852f6798a09c465da95921460cefb38474024989060200160405180910390a150565b6000306001600160a01b037f00000000000000000000000000000000000000000000000000000000000000001614611def5760405162461bcd60e51b815260206004820152603860248201527f555550535570677261646561626c653a206d757374206e6f742062652063616c6044820152771b1959081d1a1c9bdd59da0819195b1959d85d1958d85b1b60421b6064820152608401610af5565b5060008051602061529783398151915290565b6000600260c9541415611e275760405162461bcd60e51b8152600401610af590614f8d565b600260c955611e34613bdd565b600160ff83161115611e585760405162461bcd60e51b8152600401610af590614c00565b6101605461016454604051638176715560e01b81526001600160a01b0390921691638176715591611e8f9160040190815260200190565b60206040518083038186803b158015611ea757600080fd5b505afa158015611ebb573d6000803e3d6000fd5b505050506040513d601f19601f82011682018060405250810190611edf9190614971565b1515600114611f005760405162461bcd60e51b8152600401610af590614ec6565b600060ff8316600114156120035761017c5460ff1615611f325760405162461bcd60e51b8152600401610af590614f5b565b611f3d610def613c23565b611f595760405162461bcd60e51b8152600401610af590614dc1565b61017b54611fbd5760405162461bcd60e51b815260206004820152602b60248201527f62616c616e6365206f662073656e696f7220737562706f6f6c206973207a657260448201526a6f2063757272656e746c7960a81b6064820152608401610af5565b61017e5461017b54611fce916135bb565b61017f5490915015611ff25761017f54611fe99082906135bb565b600061017f5590505b600061017b81905561017e5561225e565b60ff831661225e576101835460ff161561202f5760405162461bcd60e51b8152600401610af590614d8f565b336000908152610178602052604090205460ff16151560011480156120635750336000908152610177602052604090205415155b6120a95760405162461bcd60e51b81526020600482015260176024820152763d32b9379030b6b7bab73a103a37903232b837b9b4ba1760491b6044820152606401610af5565b61018254336000908152610177602052604090205411156120dc5760405162461bcd60e51b8152600401610af590614e79565b6000612104620f42405b336000908152610177602052604090205461017354610be7916135af565b6101855490915081111561212a5760405162461bcd60e51b8152600401610af590614e79565b33600090815261017760205260409020546101825461214891613590565b610182556101855461215a9082613590565b6101855533600090815261017860209081526040808320805460ff1916905561017790915290205461218c90826135bb565b61018654909250156121e35760006121c0620f42405b336000908152610177602052604090205461017554610be7916135af565b90506121cc83826135bb565b610186549093506121dd9082613590565b61018655505b6101615461016454604051631bd3b3dd60e31b81526001600160a01b039092169163de9d9ee89161221991339190600401614bb4565b600060405180830381600087803b15801561223357600080fd5b505af1158015612247573d6000803e3d6000fd5b505033600090815261017760205260408120555050505b61016a5461226c9082613590565b61016a556101625460405163a9059cbb60e01b81526001600160a01b039091169063a9059cbb906122a39033908590600401614bb4565b602060405180830381600087803b1580156122bd57600080fd5b505af11580156122d1573d6000803e3d6000fd5b505050506040513d601f19601f820116820180604052508101906122f59190614971565b50600160c95592915050565b61230c610def613c47565b6123285760405162461bcd60e51b8152600401610af590614e2b565b600160ff8216111561234c5760405162461bcd60e51b8152600401610af590614c00565b60ff8116600114156123695761017c805460ff1916600117905550565b60ff8116611b9a57610183805460ff1916600117905550565b336000908152610178602052604081205460ff16151560011480156123b65750336000908152610177602052604090205415155b6123fe5760405162461bcd60e51b81526020600482015260196024820152783d32b9379030b6b7bab73a103a37903232b837b9b4ba32b21760391b6044820152606401610af5565b6101605461016454604051638176715560e01b815260048101919091526000916001600160a01b03169063817671559060240160206040518083038186803b15801561244957600080fd5b505afa15801561245d573d6000803e3d6000fd5b505050506040513d601f19601f820116820180604052508101906124819190614971565b151560011415610cc4576000612499620f42406120e6565b33600090815261017760205260409020549091506124b790826135bb565b61018654909250156124e15760006124d1620f42406121a2565b90506124dd83826135bb565b9250505b50919050565b61017c5460009060ff161561250e5760405162461bcd60e51b8152600401610af590614f5b565b61017e5461017b5461251f916135bb565b61017f549091506125319082906135bb565b905090565b612541610def613b25565b61255d5760405162461bcd60e51b8152600401610af590614c32565b611bcc613c6b565b60009182526065602090815260408084206001600160a01b0393909316845291905290205460ff1690565b600054610100900460ff166125b75760405162461bcd60e51b8152600401610af590614f10565b6001600160a01b03811661260d5760405162461bcd60e51b815260206004820181905260248201527f4f776e65722063616e6e6f7420626520746865207a65726f20616464726573736044820152606401610af5565b612615613ca8565b61261d613baa565b612625613ccf565b612636612630613cfd565b82613d21565b612641612630613b25565b61265961264c613b25565b612654613cfd565b613d2b565b611b9a61264c613cfd565b6000612531610def613cfd565b600054610100900460ff16158080156126915750600054600160ff909116105b806126b257506126a030613b9b565b1580156126b2575060005460ff166001145b6126ce5760405162461bcd60e51b8152600401610af590614d16565b6000805460ff1916600117905580156126f1576000805461ff0019166101001790555b6001600160a01b0388166127405760405162461bcd60e51b8152602060048201526016602482015275496e76616c696420636f6e666967206164647265737360501b6044820152606401610af5565b61015f80546001600160a01b0319166001600160a01b038a1690811790915560009061276b90613d76565b90506001600160a01b0381166127b35760405162461bcd60e51b815260206004820152600d60248201526c24b73b30b634b21027bbb732b960991b6044820152606401610af5565b61015f546127c9906001600160a01b031661385c565b61016080546001600160a01b0319166001600160a01b0392831617905561015f546127f49116613d8d565b61016180546001600160a01b0319166001600160a01b039290921691909117905561281e81612590565b61015f54612834906001600160a01b0316613da5565b61016280546001600160a01b0319166001600160a01b0392831617905561015f5461285f9116613dbd565b61016380546001600160a01b0319166001600160a01b039290921691909117905561288b61264c613c23565b6128b1612896613c23565b61015f546128ac906001600160a01b0316613844565b613d21565b6128bc61264c613726565b6128c761264c613c47565b6128d2612630613c47565b610160546040516339461f5160e11b8152600481018a90526000916001600160a01b03169063728c3ea29060240160206040518083038186803b15801561291857600080fd5b505afa15801561292c573d6000803e3d6000fd5b505050506040513d601f19601f8201168201806040525081019061295091906148c8565b905061295d612630613726565b610164899055610166889055610171889055610167879055610168869055610169859055600161016c55610165805460ff191660ff861617905561015f54604051633928f5e160e21b8152600481018b90526001600160a01b039091169063e4a3d7849060240160206040518083038186803b1580156129dc57600080fd5b505afa1580156129f0573d6000803e3d6000fd5b505050506040513d601f19601f82011682018060405250810190612a149190614971565b612a855761017c805460ff1916600117905561015f54600090612a4390610d02906001600160a01b03166136a5565b61015f54909150612a6790612a60906001600160a01b03166136a5565b82906135af565b61017a81905561016654612a7b91906151d1565b6101815550612a9c565b610183805460ff191660011790556101665461017a555b6101695461016754612aad916135a3565b61016d556101655460ff1660011415612add57612ad4610166546101685461016d54613dd5565b61016e55612af2565b612aed6101665461016854613ec4565b61016e555b612b0e61016861015f54610be7906001600160a01b0316613f40565b61016f55612b1a612d09565b6101735561017255612b2a610cc9565b61017555610174556101625460405163095ea7b360e01b81526000916001600160a01b03169063095ea7b390612b6890309060001990600401614bb4565b602060405180830381600087803b158015612b8257600080fd5b505af1158015612b96573d6000803e3d6000fd5b505050506040513d601f19601f82011682018060405250810190612bba9190614971565b905080612c025760405162461bcd60e51b81526020600482015260166024820152754661696c656420746f20617070726f7665205553444360501b6044820152606401610af5565b5050508015612c4b576000805461ff0019169055604051600181527f7f26b83ff96e1f2b6a682f133852f6798a09c465da95921460cefb38474024989060200160405180910390a15b5050505050505050565b612c60610def613c47565b612c7c5760405162461bcd60e51b8152600401610af590614e2b565b600160ff82161115612ca05760405162461bcd60e51b8152600401610af590614c00565b60ff811660011415612cba5761017c805460ff1916905550565b60ff8116611b9a57610183805460ff1916905550565b600082815260656020526040902060010154612ceb81613874565b611a208383613904565b61017f5461017e546000916125319161509b565b60008080620f424090506000612d70620f424061015f54610be790612d6190612d3a906001600160a01b0316613f58565b61015f54612d5b90612d54906001600160a01b031661374a565b8890613590565b90613590565b61016854610c1f9060646135a3565b90506000612dd4620f424061015f54610be790612d6190612db390612d9d906001600160a01b03166136a5565b61015f54610c1f906001600160a01b0316613f58565b61015f54610fb490612dcd906001600160a01b031661374a565b8990613590565b91959194509092505050565b61016054610164546040516378023a5360e11b815260048101919091526060916001600160a01b03169063f00474a69060240160006040518083038186803b158015612e2b57600080fd5b505afa158015612e3f573d6000803e3d6000fd5b505050506040513d6000823e601f3d908101601f191682016040526125319190810190614a7c565b600061016d5461016c541115612e8f5760405162461bcd60e51b8152600401610af59061500f565b6000610ac7612eb36101695462015180612ea991906151b2565b61016c54906135af565b61016b54906135bb565b600260c9541415612ee05760405162461bcd60e51b8152600401610af590614f8d565b600260c955612eed613bdd565b612ef8610def613726565b612f145760405162461bcd60e51b8152600401610af590614e2b565b6101605461016454604051630231155f60e51b81526001600160a01b0390921691634622abe091612f4b9160040190815260200190565b60206040518083038186803b158015612f6357600080fd5b505afa158015612f77573d6000803e3d6000fd5b505050506040513d601f19601f82011682018060405250810190612f9b9190614971565b15612ffb5760405162461bcd60e51b815260206004820152602a60248201527f46756e647320696e206f70706f7274756e6974792061726520616c726561647960448201526910323930bbb237bbb71760b11b6064820152608401610af5565b6101765460ff16156130445760405162461bcd60e51b8152602060048201526012602482015271111c985dd91bdddb881a5cc81c185d5cd95960721b6044820152606401610af5565b6101665461016a54146130cf5760405162461bcd60e51b815260206004820152604760248201527f546f74616c204465706f736974656420616d6f756e7420696e206f70706f727460448201527f756e69747920706f6f6c206d75737420626520657175616c20746f206c6f616e60648201526608185b5bdd5b9d60ca1b608482015260a401610af5565b61016a805460009182905561018282905561017b919091554261016b556101605461016454604051632bdfaa5160e21b81526001600160a01b039092169163af7ea944916131239160040190815260200190565b600060405180830381600087803b15801561313d57600080fd5b505af1158015613151573d6000803e3d6000fd5b50506101625461316f92506001600160a01b03169050303384613762565b50600160c955565b600260c954141561319a5760405162461bcd60e51b8152600401610af590614f8d565b600260c955600160ff831611156131c35760405162461bcd60e51b8152600401610af590614c00565b600081116132135760405162461bcd60e51b815260206004820181905260248201527f416d6f756e74204d7573742062652067726561746572207468616e207a65726f6044820152606401610af5565b60ff82166001141561330b5761017c5460ff16156132435760405162461bcd60e51b8152600401610af590614f5b565b61324e610def613c23565b61326a5760405162461bcd60e51b8152600401610af590614dc1565b61017b5460009061327c9083906135bb565b61017a549091508111156132f35760405162461bcd60e51b815260206004820152603860248201527f416d6f756e7420657863656564732074686520546f74616c206465706f736974604482015277081b1a5b5a5d081bd9881cd95b9a5bdc881cdd589c1bdbdb60421b6064820152608401610af5565b61017b5461330190836135bb565b61017b5550613522565b60ff8216613522576101835460ff16156133375760405162461bcd60e51b8152600401610af590614d8f565b610182546000906133499083906135bb565b610181549091508111156133c05760405162461bcd60e51b815260206004820152603860248201527f416d6f756e7420657863656564732074686520546f74616c206465706f736974604482015277081b1a5b5a5d081bd9881a9d5b9a5bdc881cdd589c1bdbdb60421b6064820152608401610af5565b610182546133ce90836135bb565b6101825533600090815261017760205260409020546133ed90836135bb565b33600081815261017760209081526040808320949094556101789052829020805460ff191660011790556101615461016454925163e954539d60e01b81526001600160a01b03919091169263e954539d9261344d92909190600401614bb4565b60206040518083038186803b15801561346557600080fd5b505afa158015613479573d6000803e3d6000fd5b505050506040513d601f19601f8201168201806040525081019061349d9190614971565b61350a576101615461016454604051635345099160e11b81526001600160a01b039092169163a68a1322916134d791339190600401614bb4565b600060405180830381600087803b1580156134f157600080fd5b505af1158015613505573d6000803e3d6000fd5b505050505b6101815481106135205761017c805460ff191690555b505b61016a5461353090826135bb565b61016a556101625461354d906001600160a01b0316333084613762565b60405181815260ff83169033907f1d0787aee899a49ef81d0b11da9aca5455b46aefed042a41bd398d74619cab009060200160405180910390a35050600160c955565b600061359c82846151d1565b9392505050565b600061359c82846150b3565b600061359c82846151b2565b600061359c828461509b565b600080841180156135d85750600083115b80156135e45750600082115b6136005760405162461bcd60e51b8152600401610af590614d64565b600061364561362f613613856006613f70565b61362a676765c793fa10079d601b1b6101686151b2565b613fee565b61362a676765c793fa10079d601b1b60646151b2565b9050600061366782613662676765c793fa10079d601b1b886151b2565b614023565b90506000613676876006613f70565b905060006136848284614023565b905061369981683635c9adc5dea000006135a3565b98975050505050505050565b60006001600160a01b03821663fc563658825b6040518263ffffffff1660e01b81526004016136d691815260200190565b60206040518083038186803b1580156136ee57600080fd5b505afa158015613702573d6000803e3d6000fd5b505050506040513d601f19601f82011682018060405250810190610ac791906149a9565b7f2344277e405079ec07749d374ba0b5862a4e45a6a05ac889dbb4a991c6f9354d90565b60006001600160a01b03821663fc56365860016136b8565b604080516001600160a01b0385811660248301528416604482015260648082018490528251808303909101815260849091019091526020810180516001600160e01b03166323b872dd60e01b1790526137bc908590614054565b50505050565b60006001600160a01b03821663b93f9b0a60085b6040518263ffffffff1660e01b81526004016137f491815260200190565b60206040518083038186803b15801561380c57600080fd5b505afa158015613820573d6000803e3d6000fd5b505050506040513d601f19601f82011682018060405250810190610ac791906148c8565b60006001600160a01b03821663b93f9b0a60036137d6565b60006001600160a01b03821663b93f9b0a60066137d6565b611b9a8133614126565b6138888282612565565b611ad05760008281526065602090815260408083206001600160a01b03851684529091529020805460ff191660011790556138c03390565b6001600160a01b0316816001600160a01b0316837f2f8788117e7eff1d82e926ec794901d17c78024a50270940304540a733656f0d60405160405180910390a45050565b61390e8282612565565b15611ad05760008281526065602090815260408083206001600160a01b0385168085529252808320805460ff1916905551339285917ff6391f5c32d9c69d2a47ea670b442974b53935d1edc7fd64eb21e047a839171b9190a45050565b600080516020615297833981519152546001600160a01b031690565b61398f612664565b611b9a5760405162461bcd60e51b8152600401610af590614fc4565b7f4910fdfa16fed3260ed0e7147f7cc6da11a60208b5b9406d12a635614ffd91435460ff16156139de57611a208361418a565b826001600160a01b03166352d1902d6040518163ffffffff1660e01b815260040160206040518083038186803b158015613a1757600080fd5b505afa925050508015613a47575060408051601f3d908101601f19168201909252613a44918101906149a9565b60015b613aaa5760405162461bcd60e51b815260206004820152602e60248201527f45524331393637557067726164653a206e657720696d706c656d656e7461746960448201526d6f6e206973206e6f74205555505360901b6064820152608401610af5565b6000805160206152978339815191528114613b195760405162461bcd60e51b815260206004820152602960248201527f45524331393637557067726164653a20756e737570706f727465642070726f786044820152681a58589b195555525160ba1b6064820152608401610af5565b50611a20838383614224565b7f65d7a28e3265b37a6474929f336521b332c1681b933f6cb9f3376673440d862a90565b613b51614249565b6097805460ff191690557f5db9ee0a495bf2e6ff9c91a7834c1ba4fdd244a5e8aa4e537bd38aeae4b073aa335b6040516001600160a01b03909116815260200160405180910390a1565b6001600160a01b03163b151590565b600054610100900460ff16613bd15760405162461bcd60e51b8152600401610af590614f10565b6097805460ff19169055565b60975460ff1615611bcc5760405162461bcd60e51b815260206004820152601060248201526f14185d5cd8589b194e881c185d5cd95960821b6044820152606401610af5565b7fa794a061bac4a541306b6778cc120a221216f325de0020c39b67101d49158ca290565b7ffa4b6f760d780a02797df53a6c2ccf476001dc02ee4f9b6b1426dafc21ff6baf90565b613c73613bdd565b6097805460ff191660011790557f62e78cea01bee320cd4e420270b5ea74000d11b0c9f74754ebdbfc544b05a258613b7e3390565b600054610100900460ff16611bcc5760405162461bcd60e51b8152600401610af590614f10565b600054610100900460ff16613cf65760405162461bcd60e51b8152600401610af590614f10565b600160c955565b7fa49807205ce4d355092ef5a8a18f56e8913cf4a201fbe287825b095693c2177590565b611ad0828261387e565b600082815260656020526040808220600101805490849055905190918391839186917fbd79b86ffe0ab8e8776151514217cd7cacd52c909f66475c3af44e129f0b00ff9190a4505050565b60006001600160a01b03821663b93f9b0a826137d6565b60006001600160a01b03821663b93f9b0a60076137d6565b60006001600160a01b03821663b93f9b0a60026137d6565b60006001600160a01b03821663b93f9b0a60016137d6565b60008084118015613de65750600083115b8015613df25750600082115b613e0e5760405162461bcd60e51b8152600401610af590614d64565b6000613e3761362f613e21866006613f70565b61362a676765c793fa10079d601b1b600c6151b2565b90506000613e50676765c793fa10079d601b1b836135bb565b90506000613e5e8286614292565b90506000613e6d886006613f70565b90506000613e8a8361362a676765c793fa10079d601b1b826151d1565b90506000613ea1613e9b8488614023565b83614023565b9050613eb681683635c9adc5dea000006135a3565b9a9950505050505050505050565b60008083118015613ed55750600082115b613ef15760405162461bcd60e51b8152600401610af590614d64565b6000613f0461362f613e21856006613f70565b90506000613f13856006613f70565b90506000613f218284614023565b9050613f3681683635c9adc5dea000006135a3565b9695505050505050565b60006001600160a01b03821663fc56365860026136b8565b60006001600160a01b03821663fc56365860036136b8565b6000601b821115613fc35760405162461bcd60e51b815260206004820152601d60248201527f64732d6d6174682d646563696d616c732d6f75742d6f662d72616e67650000006044820152606401610af5565b6000613fd0601b84614307565b9050613fe684613fe183600a61510a565b61435d565b949350505050565b60008161401961400985676765c793fa10079d601b1b61435d565b6140146002866150b3565b6143c4565b61359c91906150b3565b6000676765c793fa10079d601b1b61401961403e858561435d565b6140146002676765c793fa10079d601b1b6150b3565b60006140a9826040518060400160405280602081526020017f5361666545524332303a206c6f772d6c6576656c2063616c6c206661696c6564815250856001600160a01b03166144199092919063ffffffff16565b805190915015611a2057808060200190518101906140c79190614971565b611a205760405162461bcd60e51b815260206004820152602a60248201527f5361666545524332303a204552433230206f7065726174696f6e20646964206e6044820152691bdd081cdd58d8d9595960b21b6064820152608401610af5565b6141308282612565565b611ad057614148816001600160a01b03166014614428565b614153836020614428565b604051602001614164929190614b45565b60408051601f198184030181529082905262461bcd60e51b8252610af591600401614bcd565b61419381613b9b565b6141f55760405162461bcd60e51b815260206004820152602d60248201527f455243313936373a206e657720696d706c656d656e746174696f6e206973206e60448201526c1bdd08184818dbdb9d1c9858dd609a1b6064820152608401610af5565b60008051602061529783398151915280546001600160a01b0319166001600160a01b0392909216919091179055565b61422d8361460a565b60008251118061423a5750805b15611a20576137bc838361464a565b60975460ff16611bcc5760405162461bcd60e51b815260206004820152601460248201527314185d5cd8589b194e881b9bdd081c185d5cd95960621b6044820152606401610af5565b600061429f60028361522b565b6142b457676765c793fa10079d601b1b6142b6565b825b90506142c36002836150b3565b91505b8115610ac7576142d68384614023565b92506142e360028361522b565b156142f5576142f28184614023565b90505b6143006002836150b3565b91506142c6565b60008261431483826151d1565b9150811115610ac75760405162461bcd60e51b815260206004820152601560248201527464732d6d6174682d7375622d756e646572666c6f7760581b6044820152606401610af5565b60008115806143815750828261437381836151b2565b925061437f90836150b3565b145b610ac75760405162461bcd60e51b815260206004820152601460248201527364732d6d6174682d6d756c2d6f766572666c6f7760601b6044820152606401610af5565b6000826143d1838261509b565b9150811015610ac75760405162461bcd60e51b815260206004820152601460248201527364732d6d6174682d6164642d6f766572666c6f7760601b6044820152606401610af5565b6060613fe68484600085614733565b606060006144378360026151b2565b61444290600261509b565b67ffffffffffffffff81111561446857634e487b7160e01b600052604160045260246000fd5b6040519080825280601f01601f191660200182016040528015614492576020820181803683370190505b509050600360fc1b816000815181106144bb57634e487b7160e01b600052603260045260246000fd5b60200101906001600160f81b031916908160001a905350600f60fb1b816001815181106144f857634e487b7160e01b600052603260045260246000fd5b60200101906001600160f81b031916908160001a905350600061451c8460026151b2565b61452790600161509b565b90505b60018111156145bb576f181899199a1a9b1b9c1cb0b131b232b360811b85600f166010811061456957634e487b7160e01b600052603260045260246000fd5b1a60f81b82828151811061458d57634e487b7160e01b600052603260045260246000fd5b60200101906001600160f81b031916908160001a90535060049490941c936145b481615214565b905061452a565b50831561359c5760405162461bcd60e51b815260206004820181905260248201527f537472696e67733a20686578206c656e67746820696e73756666696369656e746044820152606401610af5565b6146138161418a565b6040516001600160a01b038216907fbc7cd75a20ee27fd9adebab32041f755214dbc6bffa90cc0225b39da2e5c2d3b90600090a250565b606061465583613b9b565b6146b05760405162461bcd60e51b815260206004820152602660248201527f416464726573733a2064656c65676174652063616c6c20746f206e6f6e2d636f6044820152651b9d1c9858dd60d21b6064820152608401610af5565b600080846001600160a01b0316846040516146cb9190614b29565b600060405180830381855af49150503d8060008114614706576040519150601f19603f3d011682016040523d82523d6000602084013e61470b565b606091505b5091509150610c3382826040518060600160405280602781526020016152b760279139614862565b6060824710156147945760405162461bcd60e51b815260206004820152602660248201527f416464726573733a20696e73756666696369656e742062616c616e636520666f6044820152651c8818d85b1b60d21b6064820152608401610af5565b61479d85613b9b565b6147e95760405162461bcd60e51b815260206004820152601d60248201527f416464726573733a2063616c6c20746f206e6f6e2d636f6e74726163740000006044820152606401610af5565b600080866001600160a01b031685876040516148059190614b29565b60006040518083038185875af1925050503d8060008114614842576040519150601f19603f3d011682016040523d82523d6000602084013e614847565b606091505b5091509150614857828286614862565b979650505050505050565b6060831561487157508161359c565b8251156148815782518084602001fd5b8160405162461bcd60e51b8152600401610af59190614bcd565b803560ff81168114610cc457600080fd5b6000602082840312156148bd578081fd5b813561359c81615281565b6000602082840312156148d9578081fd5b815161359c81615281565b600080604083850312156148f6578081fd5b823561490181615281565b9150602083013567ffffffffffffffff81111561491c578182fd5b8301601f8101851361492c578182fd5b803561493f61493a82615073565b615042565b818152866020838501011115614953578384fd5b81602084016020830137908101602001929092525090939092509050565b600060208284031215614982578081fd5b8151801515811461359c578182fd5b6000602082840312156149a2578081fd5b5035919050565b6000602082840312156149ba578081fd5b5051919050565b600080604083850312156149d3578182fd5b8235915060208301356149e581615281565b809150509250929050565b600060208284031215614a01578081fd5b81356001600160e01b03198116811461359c578182fd5b600080600080600080600060e0888a031215614a32578283fd5b8735614a3d81615281565b96506020880135955060408801359450606088013593506080880135925060a08801359150614a6e60c0890161489b565b905092959891949750929550565b600060208284031215614a8d578081fd5b815167ffffffffffffffff811115614aa3578182fd5b8201601f81018413614ab3578182fd5b8051614ac161493a82615073565b818152856020838501011115614ad5578384fd5b610c338260208301602086016151e8565b600060208284031215614af7578081fd5b61359c8261489b565b60008060408385031215614b12578081fd5b614b1b8361489b565b946020939093013593505050565b60008251614b3b8184602087016151e8565b9190910192915050565b76020b1b1b2b9b9a1b7b73a3937b61d1030b1b1b7bab73a1604d1b815260008351614b778160178501602088016151e8565b7001034b99036b4b9b9b4b733903937b6329607d1b6017918401918201528351614ba88160288401602088016151e8565b01602801949350505050565b6001600160a01b03929092168252602082015260400190565b6020815260008251806020840152614bec8160408501602087016151e8565b601f01601f19169190910160400192915050565b602080825260189082015277537562706f6f6c4944203a206f7574206f662072616e676560401b604082015260600190565b6020808252602c908201527f4d75737420686176652070617573657220726f6c6520746f20706572666f726d60408201526b103a3434b99030b1ba34b7b760a11b606082015260800190565b6020808252602c908201527f46756e6374696f6e206d7573742062652063616c6c6564207468726f7567682060408201526b19195b1959d85d1958d85b1b60a21b606082015260800190565b6020808252602c908201527f46756e6374696f6e206d7573742062652063616c6c6564207468726f7567682060408201526b6163746976652070726f787960a01b606082015260800190565b6020808252602e908201527f496e697469616c697a61626c653a20636f6e747261637420697320616c72656160408201526d191e481a5b9a5d1a585b1a5e995960921b606082015260800190565b602080825260119082015270496e76616c696420706172616d7465727360781b604082015260600190565b602080825260189082015277129d5b9a5bdc8814dd589c1bdbdb081a5cc81b1bd8dad95960421b604082015260600190565b60208082526044908201527f596f75206d75737420686176652053656e696f7220706f6f6c20726f6c65206960408201527f6e206f7264657220746f206465706f73697420696e2073656e696f72207375626060820152631c1bdbdb60e21b608082015260a00190565b6020808252602e908201527f4d757374206861766520626f72726f77657220726f6c6520746f20706572666f60408201526d3936903a3434b99030b1ba34b7b760911b606082015260800190565b6020808252602d908201527f63757272656e746c79206a756e696f7220737562706f6f6c20646f6e2774206860408201526c617665204c697175696469747960981b606082015260800190565b6020808252602a908201527f46756e647320696e206f70706f7274756e69747920686176656e2774206472616040820152693bb237bbb7103cb2ba1760b11b606082015260800190565b6020808252602b908201527f496e697469616c697a61626c653a20636f6e7472616374206973206e6f74206960408201526a6e697469616c697a696e6760a81b606082015260800190565b60208082526018908201527714d95b9a5bdc8814dd589c1bdbdb081a5cc81b1bd8dad95960421b604082015260600190565b6020808252601f908201527f5265656e7472616e637947756172643a207265656e7472616e742063616c6c00604082015260600190565b6020808252602b908201527f4d75737420686176652061646d696e20726f6c6520746f20706572666f726d2060408201526a3a3434b99030b1ba34b7b760a91b606082015260800190565b60208082526019908201527852657061796d656e742050726f6365737320697320646f6e6560381b604082015260600190565b604051601f8201601f1916810167ffffffffffffffff8111828210171561506b5761506b61526b565b604052919050565b600067ffffffffffffffff82111561508d5761508d61526b565b50601f01601f191660200190565b600082198211156150ae576150ae61523f565b500190565b6000826150c2576150c2615255565b500490565b600181815b808511156151025781600019048211156150e8576150e861523f565b808516156150f557918102915b93841c93908002906150cc565b509250929050565b600061359c838360008261512057506001610ac7565b8161512d57506000610ac7565b8160018114615143576002811461514d57615169565b6001915050610ac7565b60ff84111561515e5761515e61523f565b50506001821b610ac7565b5060208310610133831016604e8410600b841016171561518c575081810a610ac7565b61519683836150c7565b80600019048211156151aa576151aa61523f565b029392505050565b60008160001904831182151516156151cc576151cc61523f565b500290565b6000828210156151e3576151e361523f565b500390565b60005b838110156152035781810151838201526020016151eb565b838111156137bc5750506000910152565b6000816152235761522361523f565b506000190190565b60008261523a5761523a615255565b500690565b634e487b7160e01b600052601160045260246000fd5b634e487b7160e01b600052601260045260246000fd5b634e487b7160e01b600052604160045260246000fd5b6001600160a01b0381168114611b9a57600080fdfe360894a13ba1a3210667c828492db98dca3e2076cc3735a920a3ca505d382bbc416464726573733a206c6f772d6c6576656c2064656c65676174652063616c6c206661696c6564a2646970667358221220b7ce4b28ba872f9fd17d66eddf62bda4652911883bd15249d094b93d955360a264736f6c63430008040033",
  "linkReferences": {},
  "deployedLinkReferences": {}
}