{
  "_format": "hh-sol-artifact-1",
  "contractName": "OpportunityPool",
  "sourceName": "contracts/protocol/OpportunityPool.sol",
  "abi": [
    {
      "anonymous": false,
      "inputs": [
        {
          "indexed": false,
          "internalType": "address",
          "name": "previousAdmin",
          "type": "address"
        },
        {
          "indexed": false,
          "internalType": "address",
          "name": "newAdmin",
          "type": "address"
        }
      ],
      "name": "AdminChanged",
      "type": "event"
    },
    {
      "anonymous": false,
      "inputs": [
        {
          "indexed": true,
          "internalType": "address",
          "name": "beacon",
          "type": "address"
        }
      ],
      "name": "BeaconUpgraded",
      "type": "event"
    },
    {
      "anonymous": false,
      "inputs": [
        {
          "indexed": true,
          "internalType": "address",
          "name": "executor",
          "type": "address"
        },
        {
          "indexed": true,
          "internalType": "uint8",
          "name": "subpool",
          "type": "uint8"
        },
        {
          "indexed": false,
          "internalType": "uint256",
          "name": "amount",
          "type": "uint256"
        }
      ],
      "name": "Deposited",
      "type": "event"
    },
    {
      "anonymous": false,
      "inputs": [
        {
          "indexed": false,
          "internalType": "uint8",
          "name": "version",
          "type": "uint8"
        }
      ],
      "name": "Initialized",
      "type": "event"
    },
    {
      "anonymous": false,
      "inputs": [
        {
          "indexed": false,
          "internalType": "address",
          "name": "account",
          "type": "address"
        }
      ],
      "name": "Paused",
      "type": "event"
    },
    {
      "anonymous": false,
      "inputs": [
        {
          "indexed": true,
          "internalType": "bytes32",
          "name": "role",
          "type": "bytes32"
        },
        {
          "indexed": true,
          "internalType": "bytes32",
          "name": "previousAdminRole",
          "type": "bytes32"
        },
        {
          "indexed": true,
          "internalType": "bytes32",
          "name": "newAdminRole",
          "type": "bytes32"
        }
      ],
      "name": "RoleAdminChanged",
      "type": "event"
    },
    {
      "anonymous": false,
      "inputs": [
        {
          "indexed": true,
          "internalType": "bytes32",
          "name": "role",
          "type": "bytes32"
        },
        {
          "indexed": true,
          "internalType": "address",
          "name": "account",
          "type": "address"
        },
        {
          "indexed": true,
          "internalType": "address",
          "name": "sender",
          "type": "address"
        }
      ],
      "name": "RoleGranted",
      "type": "event"
    },
    {
      "anonymous": false,
      "inputs": [
        {
          "indexed": true,
          "internalType": "bytes32",
          "name": "role",
          "type": "bytes32"
        },
        {
          "indexed": true,
          "internalType": "address",
          "name": "account",
          "type": "address"
        },
        {
          "indexed": true,
          "internalType": "address",
          "name": "sender",
          "type": "address"
        }
      ],
      "name": "RoleRevoked",
      "type": "event"
    },
    {
      "anonymous": false,
      "inputs": [
        {
          "indexed": false,
          "internalType": "address",
          "name": "account",
          "type": "address"
        }
      ],
      "name": "Unpaused",
      "type": "event"
    },
    {
      "anonymous": false,
      "inputs": [
        {
          "indexed": true,
          "internalType": "address",
          "name": "implementation",
          "type": "address"
        }
      ],
      "name": "Upgraded",
      "type": "event"
    },
    {
      "anonymous": false,
      "inputs": [
        {
          "indexed": true,
          "internalType": "address",
          "name": "executor",
          "type": "address"
        },
        {
          "indexed": true,
          "internalType": "uint8",
          "name": "subpool",
          "type": "uint8"
        },
        {
          "indexed": false,
          "internalType": "uint256",
          "name": "amount",
          "type": "uint256"
        }
      ],
      "name": "Withdrew",
      "type": "event"
    },
    {
      "inputs": [],
      "name": "DEFAULT_ADMIN_ROLE",
      "outputs": [
        {
          "internalType": "bytes32",
          "name": "",
          "type": "bytes32"
        }
      ],
      "stateMutability": "view",
      "type": "function"
    },
    {
      "inputs": [
        {
          "internalType": "address",
          "name": "owner",
          "type": "address"
        }
      ],
      "name": "_BaseUpgradeablePausable_init",
      "outputs": [],
      "stateMutability": "nonpayable",
      "type": "function"
    },
    {
      "inputs": [],
      "name": "__PauserPausable__init",
      "outputs": [],
      "stateMutability": "nonpayable",
      "type": "function"
    },
    {
      "inputs": [],
      "name": "dailyOverdueInterestRate",
      "outputs": [
        {
          "internalType": "uint256",
          "name": "",
          "type": "uint256"
        }
      ],
      "stateMutability": "view",
      "type": "function"
    },
    {
      "inputs": [
        {
          "internalType": "uint8",
          "name": "_subpoolId",
          "type": "uint8"
        },
        {
          "internalType": "uint256",
          "name": "amount",
          "type": "uint256"
        }
      ],
      "name": "deposit",
      "outputs": [],
      "stateMutability": "nonpayable",
      "type": "function"
    },
    {
      "inputs": [],
      "name": "drawdown",
      "outputs": [],
      "stateMutability": "nonpayable",
      "type": "function"
    },
    {
      "inputs": [],
      "name": "dygnifyConfig",
      "outputs": [
        {
          "internalType": "contract DygnifyConfig",
          "name": "",
          "type": "address"
        }
      ],
      "stateMutability": "view",
      "type": "function"
    },
    {
      "inputs": [],
      "name": "emiAmount",
      "outputs": [
        {
          "internalType": "uint256",
          "name": "",
          "type": "uint256"
        }
      ],
      "stateMutability": "view",
      "type": "function"
    },
    {
      "inputs": [],
      "name": "getOpportunityName",
      "outputs": [
        {
          "internalType": "string",
          "name": "",
          "type": "string"
        }
      ],
      "stateMutability": "view",
      "type": "function"
    },
    {
      "inputs": [],
      "name": "getOverDuePercentage",
      "outputs": [
        {
          "internalType": "uint256",
          "name": "",
          "type": "uint256"
        },
        {
          "internalType": "uint256",
          "name": "",
          "type": "uint256"
        }
      ],
      "stateMutability": "view",
      "type": "function"
    },
    {
      "inputs": [],
      "name": "getRepaymentAmount",
      "outputs": [
        {
          "internalType": "uint256",
          "name": "",
          "type": "uint256"
        }
      ],
      "stateMutability": "view",
      "type": "function"
    },
    {
      "inputs": [
        {
          "internalType": "bytes32",
          "name": "role",
          "type": "bytes32"
        }
      ],
      "name": "getRoleAdmin",
      "outputs": [
        {
          "internalType": "bytes32",
          "name": "",
          "type": "bytes32"
        }
      ],
      "stateMutability": "view",
      "type": "function"
    },
    {
      "inputs": [],
      "name": "getSeniorPoolWithdrawableAmount",
      "outputs": [
        {
          "internalType": "uint256",
          "name": "amount",
          "type": "uint256"
        }
      ],
      "stateMutability": "view",
      "type": "function"
    },
    {
      "inputs": [],
      "name": "getSeniorProfit",
      "outputs": [
        {
          "internalType": "uint256",
          "name": "",
          "type": "uint256"
        }
      ],
      "stateMutability": "view",
      "type": "function"
    },
    {
      "inputs": [],
      "name": "getSeniorTotalDepositable",
      "outputs": [
        {
          "internalType": "uint256",
          "name": "",
          "type": "uint256"
        }
      ],
      "stateMutability": "view",
      "type": "function"
    },
    {
      "inputs": [],
      "name": "getUserWithdrawableAmount",
      "outputs": [
        {
          "internalType": "uint256",
          "name": "",
          "type": "uint256"
        }
      ],
      "stateMutability": "view",
      "type": "function"
    },
    {
      "inputs": [
        {
          "internalType": "bytes32",
          "name": "role",
          "type": "bytes32"
        },
        {
          "internalType": "address",
          "name": "account",
          "type": "address"
        }
      ],
      "name": "grantRole",
      "outputs": [],
      "stateMutability": "nonpayable",
      "type": "function"
    },
    {
      "inputs": [
        {
          "internalType": "bytes32",
          "name": "role",
          "type": "bytes32"
        },
        {
          "internalType": "address",
          "name": "account",
          "type": "address"
        }
      ],
      "name": "hasRole",
      "outputs": [
        {
          "internalType": "bool",
          "name": "",
          "type": "bool"
        }
      ],
      "stateMutability": "view",
      "type": "function"
    },
    {
      "inputs": [
        {
          "internalType": "contract DygnifyConfig",
          "name": "_dygnifyConfig",
          "type": "address"
        },
        {
          "internalType": "bytes32",
          "name": "_opportunityID",
          "type": "bytes32"
        },
        {
          "internalType": "uint256",
          "name": "_loanAmount",
          "type": "uint256"
        },
        {
          "internalType": "uint256",
          "name": "_loanTenureInDays",
          "type": "uint256"
        },
        {
          "internalType": "uint256",
          "name": "_loanInterest",
          "type": "uint256"
        },
        {
          "internalType": "uint256",
          "name": "_paymentFrequencyInDays",
          "type": "uint256"
        },
        {
          "internalType": "uint8",
          "name": "_loanType",
          "type": "uint8"
        }
      ],
      "name": "initialize",
      "outputs": [],
      "stateMutability": "nonpayable",
      "type": "function"
    },
    {
      "inputs": [],
      "name": "investor",
      "outputs": [
        {
          "internalType": "contract IInvestor",
          "name": "",
          "type": "address"
        }
      ],
      "stateMutability": "view",
      "type": "function"
    },
    {
      "inputs": [],
      "name": "isAdmin",
      "outputs": [
        {
          "internalType": "bool",
          "name": "",
          "type": "bool"
        }
      ],
      "stateMutability": "view",
      "type": "function"
    },
    {
      "inputs": [],
      "name": "isDrawdownsPaused",
      "outputs": [
        {
          "internalType": "bool",
          "name": "",
          "type": "bool"
        }
      ],
      "stateMutability": "view",
      "type": "function"
    },
    {
      "inputs": [
        {
          "internalType": "address",
          "name": "",
          "type": "address"
        }
      ],
      "name": "isStaking",
      "outputs": [
        {
          "internalType": "bool",
          "name": "",
          "type": "bool"
        }
      ],
      "stateMutability": "view",
      "type": "function"
    },
    {
      "inputs": [],
      "name": "juniorOverduePerecentage",
      "outputs": [
        {
          "internalType": "uint256",
          "name": "",
          "type": "uint256"
        }
      ],
      "stateMutability": "view",
      "type": "function"
    },
    {
      "inputs": [],
      "name": "juniorSubpoolDetails",
      "outputs": [
        {
          "internalType": "uint256",
          "name": "id",
          "type": "uint256"
        },
        {
          "internalType": "uint256",
          "name": "totalDepositable",
          "type": "uint256"
        },
        {
          "internalType": "uint256",
          "name": "depositedAmount",
          "type": "uint256"
        },
        {
          "internalType": "bool",
          "name": "isPoolLocked",
          "type": "bool"
        },
        {
          "internalType": "uint256",
          "name": "fundsLockedUntil",
          "type": "uint256"
        },
        {
          "internalType": "uint256",
          "name": "yieldGenerated",
          "type": "uint256"
        },
        {
          "internalType": "uint256",
          "name": "overdueGenerated",
          "type": "uint256"
        }
      ],
      "stateMutability": "view",
      "type": "function"
    },
    {
      "inputs": [],
      "name": "juniorYieldPerecentage",
      "outputs": [
        {
          "internalType": "uint256",
          "name": "",
          "type": "uint256"
        }
      ],
      "stateMutability": "view",
      "type": "function"
    },
    {
      "inputs": [],
      "name": "loanAmount",
      "outputs": [
        {
          "internalType": "uint256",
          "name": "",
          "type": "uint256"
        }
      ],
      "stateMutability": "view",
      "type": "function"
    },
    {
      "inputs": [],
      "name": "loanInterest",
      "outputs": [
        {
          "internalType": "uint256",
          "name": "",
          "type": "uint256"
        }
      ],
      "stateMutability": "view",
      "type": "function"
    },
    {
      "inputs": [],
      "name": "loanTenureInDays",
      "outputs": [
        {
          "internalType": "uint256",
          "name": "",
          "type": "uint256"
        }
      ],
      "stateMutability": "view",
      "type": "function"
    },
    {
      "inputs": [],
      "name": "loanType",
      "outputs": [
        {
          "internalType": "uint8",
          "name": "",
          "type": "uint8"
        }
      ],
      "stateMutability": "view",
      "type": "function"
    },
    {
      "inputs": [
        {
          "internalType": "uint8",
          "name": "_subpoolId",
          "type": "uint8"
        }
      ],
      "name": "lockPool",
      "outputs": [],
      "stateMutability": "nonpayable",
      "type": "function"
    },
    {
      "inputs": [],
      "name": "lpToken",
      "outputs": [
        {
          "internalType": "contract ILPToken",
          "name": "",
          "type": "address"
        }
      ],
      "stateMutability": "view",
      "type": "function"
    },
    {
      "inputs": [],
      "name": "nextRepaymentTime",
      "outputs": [
        {
          "internalType": "uint256",
          "name": "",
          "type": "uint256"
        }
      ],
      "stateMutability": "view",
      "type": "function"
    },
    {
      "inputs": [],
      "name": "opportunityID",
      "outputs": [
        {
          "internalType": "bytes32",
          "name": "",
          "type": "bytes32"
        }
      ],
      "stateMutability": "view",
      "type": "function"
    },
    {
      "inputs": [],
      "name": "opportunityOrigination",
      "outputs": [
        {
          "internalType": "contract IOpportunityOrigination",
          "name": "",
          "type": "address"
        }
      ],
      "stateMutability": "view",
      "type": "function"
    },
    {
      "inputs": [],
      "name": "pause",
      "outputs": [],
      "stateMutability": "nonpayable",
      "type": "function"
    },
    {
      "inputs": [],
      "name": "pauseDrawdown",
      "outputs": [],
      "stateMutability": "nonpayable",
      "type": "function"
    },
    {
      "inputs": [],
      "name": "paused",
      "outputs": [
        {
          "internalType": "bool",
          "name": "",
          "type": "bool"
        }
      ],
      "stateMutability": "view",
      "type": "function"
    },
    {
      "inputs": [],
      "name": "paymentFrequencyInDays",
      "outputs": [
        {
          "internalType": "uint256",
          "name": "",
          "type": "uint256"
        }
      ],
      "stateMutability": "view",
      "type": "function"
    },
    {
      "inputs": [],
      "name": "poolBalance",
      "outputs": [
        {
          "internalType": "uint256",
          "name": "",
          "type": "uint256"
        }
      ],
      "stateMutability": "view",
      "type": "function"
    },
    {
      "inputs": [],
      "name": "proxiableUUID",
      "outputs": [
        {
          "internalType": "bytes32",
          "name": "",
          "type": "bytes32"
        }
      ],
      "stateMutability": "view",
      "type": "function"
    },
    {
      "inputs": [
        {
          "internalType": "bytes32",
          "name": "role",
          "type": "bytes32"
        },
        {
          "internalType": "address",
          "name": "account",
          "type": "address"
        }
      ],
      "name": "renounceRole",
      "outputs": [],
      "stateMutability": "nonpayable",
      "type": "function"
    },
    {
      "inputs": [],
      "name": "repayment",
      "outputs": [],
      "stateMutability": "nonpayable",
      "type": "function"
    },
    {
      "inputs": [],
      "name": "repaymentCounter",
      "outputs": [
        {
          "internalType": "uint256",
          "name": "",
          "type": "uint256"
        }
      ],
      "stateMutability": "view",
      "type": "function"
    },
    {
      "inputs": [],
      "name": "repaymentStartTime",
      "outputs": [
        {
          "internalType": "uint256",
          "name": "",
          "type": "uint256"
        }
      ],
      "stateMutability": "view",
      "type": "function"
    },
    {
      "inputs": [
        {
          "internalType": "bytes32",
          "name": "role",
          "type": "bytes32"
        },
        {
          "internalType": "address",
          "name": "account",
          "type": "address"
        }
      ],
      "name": "revokeRole",
      "outputs": [],
      "stateMutability": "nonpayable",
      "type": "function"
    },
    {
      "inputs": [],
      "name": "seniorOverduePerecentage",
      "outputs": [
        {
          "internalType": "uint256",
          "name": "",
          "type": "uint256"
        }
      ],
      "stateMutability": "view",
      "type": "function"
    },
    {
      "inputs": [],
      "name": "seniorSubpoolDetails",
      "outputs": [
        {
          "internalType": "uint256",
          "name": "id",
          "type": "uint256"
        },
        {
          "internalType": "uint256",
          "name": "totalDepositable",
          "type": "uint256"
        },
        {
          "internalType": "uint256",
          "name": "depositedAmount",
          "type": "uint256"
        },
        {
          "internalType": "bool",
          "name": "isPoolLocked",
          "type": "bool"
        },
        {
          "internalType": "uint256",
          "name": "fundsLockedUntil",
          "type": "uint256"
        },
        {
          "internalType": "uint256",
          "name": "yieldGenerated",
          "type": "uint256"
        },
        {
          "internalType": "uint256",
          "name": "overdueGenerated",
          "type": "uint256"
        }
      ],
      "stateMutability": "view",
      "type": "function"
    },
    {
      "inputs": [],
      "name": "seniorYieldPerecentage",
      "outputs": [
        {
          "internalType": "uint256",
          "name": "",
          "type": "uint256"
        }
      ],
      "stateMutability": "view",
      "type": "function"
    },
    {
      "inputs": [
        {
          "internalType": "address",
          "name": "",
          "type": "address"
        }
      ],
      "name": "stakingBalance",
      "outputs": [
        {
          "internalType": "uint256",
          "name": "",
          "type": "uint256"
        }
      ],
      "stateMutability": "view",
      "type": "function"
    },
    {
      "inputs": [
        {
          "internalType": "bytes4",
          "name": "interfaceId",
          "type": "bytes4"
        }
      ],
      "name": "supportsInterface",
      "outputs": [
        {
          "internalType": "bool",
          "name": "",
          "type": "bool"
        }
      ],
      "stateMutability": "view",
      "type": "function"
    },
    {
      "inputs": [],
      "name": "totalOutstandingPrincipal",
      "outputs": [
        {
          "internalType": "uint256",
          "name": "",
          "type": "uint256"
        }
      ],
      "stateMutability": "view",
      "type": "function"
    },
    {
      "inputs": [],
      "name": "totalRepaidAmount",
      "outputs": [
        {
          "internalType": "uint256",
          "name": "",
          "type": "uint256"
        }
      ],
      "stateMutability": "view",
      "type": "function"
    },
    {
      "inputs": [],
      "name": "totalRepayments",
      "outputs": [
        {
          "internalType": "uint256",
          "name": "",
          "type": "uint256"
        }
      ],
      "stateMutability": "view",
      "type": "function"
    },
    {
      "inputs": [
        {
          "internalType": "uint8",
          "name": "_subpoolId",
          "type": "uint8"
        }
      ],
      "name": "unLockPool",
      "outputs": [],
      "stateMutability": "nonpayable",
      "type": "function"
    },
    {
      "inputs": [],
      "name": "unpause",
      "outputs": [],
      "stateMutability": "nonpayable",
      "type": "function"
    },
    {
      "inputs": [],
      "name": "unpauseDrawdown",
      "outputs": [],
      "stateMutability": "nonpayable",
      "type": "function"
    },
    {
      "inputs": [
        {
          "internalType": "address",
          "name": "newImplementation",
          "type": "address"
        }
      ],
      "name": "upgradeTo",
      "outputs": [],
      "stateMutability": "nonpayable",
      "type": "function"
    },
    {
      "inputs": [
        {
          "internalType": "address",
          "name": "newImplementation",
          "type": "address"
        },
        {
          "internalType": "bytes",
          "name": "data",
          "type": "bytes"
        }
      ],
      "name": "upgradeToAndCall",
      "outputs": [],
      "stateMutability": "payable",
      "type": "function"
    },
    {
      "inputs": [],
      "name": "usdcToken",
      "outputs": [
        {
          "internalType": "contract IERC20",
          "name": "",
          "type": "address"
        }
      ],
      "stateMutability": "view",
      "type": "function"
    },
    {
      "inputs": [
        {
          "internalType": "uint8",
          "name": "_subpoolId",
          "type": "uint8"
        }
      ],
      "name": "withdrawAll",
      "outputs": [
        {
          "internalType": "uint256",
          "name": "",
          "type": "uint256"
        }
      ],
      "stateMutability": "nonpayable",
      "type": "function"
    },
    {
      "inputs": [],
      "name": "writeOffOpportunity",
      "outputs": [],
      "stateMutability": "nonpayable",
      "type": "function"
    }
  ],
  "bytecode": "0x60a06040523060601b60805234801561001757600080fd5b5060805160601c6157486200005360003960008181611b6e01528181611bae01528181611c6801528181611ca80152611df001526157486000f3fe60806040526004361061032d5760003560e01c80636f49712b116101a7578063b6db75a0116100ed578063ddc22b7411610090578063ddc22b74146109ae578063dee05609146109d0578063df9fd1c1146109e7578063e77ef21f146109fc578063eedffb9614610a11578063f4d4c9d714610a28578063f51c879b14610a48578063ff3a564414610a5f57600080fd5b8063b6db75a0146108bd578063bbbf13ea146108d2578063c4f31a65146108e9578063c5e2bf1a14610909578063c8dd7bf314610929578063cab9bd0014610940578063d547741f14610979578063d661d3201461099957600080fd5b806396365d441161015557806396365d44146107ff57806399e7f250146108165780639b021fa21461082d5780639d585f7f146108445780639f964fe61461085b578063a12dde4d14610871578063a217fddf14610891578063a7292ea4146108a657600080fd5b80636f49712b146107415780637101fd16146107725780637a374e121461078757806383933a2b1461079e5780638456cb59146107b3578063891369b2146107c857806391d14854146107df57600080fd5b80632588d168116102775780634f1ef2861161021a5780634f1ef28614610674578063526d81f61461068757806352d1902d1461069c57806353654e85146106b15780635b483e4c146106d15780635c975abb146106e85780635fcbd285146107005780636a15633b1461072157600080fd5b80632588d168146105845780632f2ff15d146105a557806334d93fb4146105c557806336568abe146105da5780633659cfe6146105fa5780633f4ba83a1461061a57806345bc78ab1461062f57806346e35faa1461065d57600080fd5b806311eac855116102df57806311eac8551461048157806317cd802d146104ba5780631be95459146104cf5780631daa910e146104f05780631e0018d61461050757806322eac12c14610528578063248a9ca31461053f578063257c27361461056f57600080fd5b806301ffc9a714610332578063031994941461036757806304419b76146103d5578063074f25431461040257806307a7c08a146104255780630a2c15051461044f5780630b4a45fd1461046a575b600080fd5b34801561033e57600080fd5b5061035261034d366004614e46565b610a76565b60405190151581526020015b60405180910390f35b34801561037357600080fd5b50610180546101815461018254610183546101845461018554610186546103a09695949360ff1692919087565b604080519788526020880196909652948601939093529015156060850152608084015260a083015260c082015260e00161035e565b3480156103e157600080fd5b50610165546103f09060ff1681565b60405160ff909116815260200161035e565b34801561040e57600080fd5b50610417610aad565b60405190815260200161035e565b34801561043157600080fd5b5061043a610ca9565b6040805192835260208301919091520161035e565b34801561045b57600080fd5b50610176546103529060ff1681565b34801561047657600080fd5b5061047f610d68565b005b34801561048d57600080fd5b50610162546104a2906001600160a01b031681565b6040516001600160a01b03909116815260200161035e565b3480156104c657600080fd5b5061047f610d9c565b3480156104db57600080fd5b5061015f546104a2906001600160a01b031681565b3480156104fc57600080fd5b506104176101735481565b34801561051357600080fd5b50610161546104a2906001600160a01b031681565b34801561053457600080fd5b5061041761016d5481565b34801561054b57600080fd5b5061041761055a366004614de7565b60009081526065602052604090206001015490565b34801561057b57600080fd5b5061047f611657565b34801561059057600080fd5b50610160546104a2906001600160a01b031681565b3480156105b157600080fd5b5061047f6105c0366004614e17565b611a8a565b3480156105d157600080fd5b5061047f611ab4565b3480156105e657600080fd5b5061047f6105f5366004614e17565b611ae5565b34801561060657600080fd5b5061047f610615366004614d02565b611b63565b34801561062657600080fd5b5061047f611c2c565b34801561063b57600080fd5b5061041761064a366004614d02565b6101776020526000908152604090205481565b34801561066957600080fd5b506104176101745481565b61047f610682366004614d3a565b611c5d565b34801561069357600080fd5b5061047f611d13565b3480156106a857600080fd5b50610417611de3565b3480156106bd57600080fd5b506104176106cc366004614f3c565b611e91565b3480156106dd57600080fd5b5061041761016e5481565b3480156106f457600080fd5b5060975460ff16610352565b34801561070c57600080fd5b50610163546104a2906001600160a01b031681565b34801561072d57600080fd5b5061047f61073c366004614f3c565b612448565b34801561074d57600080fd5b5061035261075c366004614d02565b6101786020526000908152604090205460ff1681565b34801561077e57600080fd5b506104176124c9565b34801561079357600080fd5b5061041761016f5481565b3480156107aa57600080fd5b5061041761262e565b3480156107bf57600080fd5b5061047f61267d565b3480156107d457600080fd5b506104176101705481565b3480156107eb57600080fd5b506103526107fa366004614e17565b6126ac565b34801561080b57600080fd5b5061041761016a5481565b34801561082257600080fd5b506104176101675481565b34801561083957600080fd5b5061041761016c5481565b34801561085057600080fd5b506104176101665481565b34801561086757600080fd5b5061017a54610417565b34801561087d57600080fd5b5061047f61088c366004614d02565b6126d7565b34801561089d57600080fd5b50610417600081565b3480156108b257600080fd5b506104176101685481565b3480156108c957600080fd5b506103526127ab565b3480156108de57600080fd5b5061041761016b5481565b3480156108f557600080fd5b5061047f610904366004614e6e565b6127b8565b34801561091557600080fd5b5061047f610924366004614f3c565b612e04565b34801561093557600080fd5b506104176101645481565b34801561094c57600080fd5b506101795461017a5461017b5461017c5461017d5461017e5461017f546103a09695949360ff1692919087565b34801561098557600080fd5b5061047f610994366004614e17565b612e7f565b3480156109a557600080fd5b50610417612ea4565b3480156109ba57600080fd5b506109c3612eb8565b60405161035e9190615023565b3480156109dc57600080fd5b506104176101725481565b3480156109f357600080fd5b50610417612f3f565b348015610a0857600080fd5b5061047f612f95565b348015610a1d57600080fd5b506104176101755481565b348015610a3457600080fd5b5061047f610a43366004614f56565b61324f565b348015610a5457600080fd5b506104176101715481565b348015610a6b57600080fd5b506104176101695481565b60006001600160e01b03198216637965db0b60e01b1480610aa757506301ffc9a760e01b6001600160e01b03198316145b92915050565b600061016d5461016c541115610ade5760405162461bcd60e51b8152600401610ad590615444565b60405180910390fd5b6101605461016454604051630231155f60e51b81526001600160a01b0390921691634622abe091610b159160040190815260200190565b60206040518083038186803b158015610b2d57600080fd5b505afa158015610b41573d6000803e3d6000fd5b505050506040513d601f19601f82011682018060405250810190610b659190614dc7565b1515600114610b865760405162461bcd60e51b8152600401610ad5906152fb565b6101655460009060ff1660011415610c1c575061016e54426000610ba8612f3f565b9050600081831115610c09576000610bcd62015180610bc78686613668565b9061367b565b9050610c05620f42405b610bc761016e54610bff610bf8606461016f5461367b90919063ffffffff16565b8690613687565b90613687565b9150505b610c138482613693565b95945050505050565b5061016e54426000610c2c612f3f565b9050600081831115610c77576000610c4b62015180610bc78686613668565b9050610c73620f42405b610bc787610bff610bf8606461016f5461367b90919063ffffffff16565b9150505b610c818482613693565b935061016d5461016c541415610ca05761016654610c13908590613693565b5050505b919050565b6000806000610cc261017154610169546101685461369f565b61015f54909150600090610cf790610ce2906001600160a01b0316613780565b610ced9060016154d0565b610166549061367b565b61015f54909150600090610d1e90610d17906001600160a01b0316613780565b8390613687565b90506000610d3c84610bc7610172548561368790919063ffffffff16565b90506000610d5a85610bc7610173548761368790919063ffffffff16565b919791965090945050505050565b610d706127ab565b610d8c5760405162461bcd60e51b8152600401610ad5906153f9565b610176805460ff19166001179055565b600260c9541415610dbf5760405162461bcd60e51b8152600401610ad5906153c2565b600260c955610dd5610dcf613801565b336126ac565b610df15760405162461bcd60e51b8152600401610ad5906152ad565b61016d5461016c541115610e175760405162461bcd60e51b8152600401610ad590615444565b6101605461016454604051630231155f60e51b81526001600160a01b0390921691634622abe091610e4e9160040190815260200190565b60206040518083038186803b158015610e6657600080fd5b505afa158015610e7a573d6000803e3d6000fd5b505050506040513d601f19601f82011682018060405250810190610e9e9190614dc7565b1515600114610ebf5760405162461bcd60e51b8152600401610ad5906152fb565b426000610eca612f3f565b9050600081831115610efb576000610ee962015180610bc78686613668565b9050610ef7620f4240610bd7565b9150505b6101655460ff16600114156111fa5761016e546101708054829190600090610f249084906154d0565b925050819055506000610f4161017154610169546101685461369f565b90506000610f5b8261016e5461366890919063ffffffff16565b9050610f75610f6b82600a613668565b6101715490613668565b6101715561015f54600090610faa90610fa390600190610f9d906001600160a01b0316613780565b90613693565b839061367b565b61015f54909150600090610fca90610d17906001600160a01b0316613780565b61017b54909150610fdb9082613693565b61017b5561018254610fed9083613693565b6101825561015f54600090819061104b90611010906001600160a01b0316613825565b61015f54611026906001600160a01b031661383d565b61015f54899061103e906001600160a01b0316613780565b6101665461017a54613855565b61017e54919350915061105e9083613693565b61017e55610185546110709082613693565b6101855561109661108c620f424061017554610bc7908c613687565b6101865490613693565b610186556110bc6110b2620f424061017454610bc7908c613687565b61017f5490613693565b61017f5560006110ea620f424061015f54610bc7906110e3906001600160a01b0316613825565b8a90613687565b9050611114620f424061015f54610bc79061110d906001600160a01b0316613825565b8c90613687565b61111e90826154d0565b905061112a888a613693565b61016a5490985061113b9089613693565b61016a5561016254611158906001600160a01b031633308b6139b9565b6101625461015f546001600160a01b039182169163a9059cbb9161117c9116613a19565b836040518363ffffffff1660e01b815260040161119a92919061500a565b602060405180830381600087803b1580156111b457600080fd5b505af11580156111c8573d6000803e3d6000fd5b505050506040513d601f19601f820116820180604052508101906111ec9190614dc7565b505050505050505050611447565b600061016e54905080610170600082825461121591906154d0565b909155505061015f54600090819061126790611239906001600160a01b0316613825565b61015f5461124f906001600160a01b031661383d565b61015f54869061103e906001600160a01b0316613780565b61017e54919350915061127a9083613693565b61017e556101855461128c9082613693565b610185556112a861108c620f424061017554610bc79088613687565b610186556112c46110b2620f424061017454610bc79088613687565b61017f5560006112f2620f424061015f54610bc7906112eb906001600160a01b0316613825565b8790613687565b905061131c620f424061015f54610bc790611315906001600160a01b0316613825565b8890613687565b61132690826154d0565b905061016d5461016c5414156113755761016654611345908590613693565b9350611360610166546101705461369390919063ffffffff16565b6101705561017a5461017b5561018154610182555b61137f8486613693565b61016a549094506113909085613693565b61016a55610162546113ad906001600160a01b03163330876139b9565b6101625461015f546001600160a01b039182169163a9059cbb916113d19116613a19565b836040518363ffffffff1660e01b81526004016113ef92919061500a565b602060405180830381600087803b15801561140957600080fd5b505af115801561141d573d6000803e3d6000fd5b505050506040513d601f19601f820116820180604052508101906114419190614dc7565b50505050505b61016d5461016c5414156116395761016054610164546040516319978a4360e11b81526001600160a01b039092169163332f14869161148c9160040190815260200190565b600060405180830381600087803b1580156114a657600080fd5b505af11580156114ba573d6000803e3d6000fd5b505061015f546114d592506001600160a01b03169050613a9b565b61016454604051630387c6d160e31b8152600060048201819052602482019290925260448101919091526001600160a01b039190911690631c3e368890606401600060405180830381600087803b15801561152f57600080fd5b505af1158015611543573d6000803e3d6000fd5b505061017e5461017b546000935061155c925090613693565b61017f54909150156115805761017f54611577908290613693565b600061017f5590505b600061017b81905561017e5561016a5461159a9082613668565b61016a556101625461015f546001600160a01b039182169163a9059cbb916115c29116613a9b565b836040518363ffffffff1660e01b81526004016115e092919061500a565b602060405180830381600087803b1580156115fa57600080fd5b505af115801561160e573d6000803e3d6000fd5b505050506040513d601f19601f820116820180604052508101906116329190614dc7565b505061164d565b61016c54611648906001613693565b61016c555b5050600160c95550565b6101605461016454604051631a054c8b60e21b81526001600160a01b0390921691636815322c9161168e9160040190815260200190565b60206040518083038186803b1580156116a657600080fd5b505afa1580156116ba573d6000803e3d6000fd5b505050506040513d601f19601f820116820180604052508101906116de9190614dc7565b15156001146117415760405162461bcd60e51b815260206004820152602960248201527f4f70706f7274756e69747920706f6f6c20697320686176656e2774205772697460448201526832b7b333103cb2ba1760b91b6064820152608401610ad5565b61015f54611757906001600160a01b0316613ab3565b6001600160a01b0316336001600160a01b0316146117d05760405162461bcd60e51b815260206004820152603060248201527f4f6e6c79204f70706f7274756e6974794f726967696e6174696f6e2063616e2060448201526f32bc32b1baba32903bb934ba32b7b33360811b6064820152608401610ad5565b61015f54600090611805906117f490600190610f9d906001600160a01b0316613780565b61016d5461016654610bc791613687565b61015f5490915060009061182590610d17906001600160a01b0316613780565b9050600061183e620f424061017254610bc79085613687565b6101655490915060009060ff16600114156118995742600061185e612f3f565b905060008183111561188f57600061187d62015180610bc78686613668565b905061188b620f4240610bd7565b9150505b92506118df915050565b61016e544260006118a8612f3f565b90506000818311156118d95760006118c762015180610bc78686613668565b90506118d5620f4240610c55565b9150505b93505050505b6118f4620f424061017454610bc79084613687565b61017f5490915060009061190890836154d0565b61017a5490915060009061191c85846154d0565b61192691906154d0565b90508061016a5411156119d05761015f54611949906001600160a01b0316613a9b565b61016454604051630387c6d160e31b8152600160048201526024810191909152604481018390526001600160a01b039190911690631c3e368890606401600060405180830381600087803b1580156119a057600080fd5b505af11580156119b4573d6000803e3d6000fd5b5050600061017f81905561017b81905561017e5550611a829050565b61015f546119e6906001600160a01b0316613a9b565b6101645461016a54604051630387c6d160e31b815260016004820152602481019290925260448201526001600160a01b039190911690631c3e368890606401600060405180830381600087803b158015611a3f57600080fd5b505af1158015611a53573d6000803e3d6000fd5b5050600061016a81905561017f81905561017b81905561017e8190556101868190556101828190556101855550505b505050505050565b600082815260656020526040902060010154611aa581613acb565b611aaf8383613ad5565b505050565b611abc6127ab565b611ad85760405162461bcd60e51b8152600401610ad5906153f9565b610176805460ff19169055565b6001600160a01b0381163314611b555760405162461bcd60e51b815260206004820152602f60248201527f416363657373436f6e74726f6c3a2063616e206f6e6c792072656e6f756e636560448201526e103937b632b9903337b91039b2b63360891b6064820152608401610ad5565b611b5f8282613b5b565b5050565b306001600160a01b037f0000000000000000000000000000000000000000000000000000000000000000161415611bac5760405162461bcd60e51b8152600401610ad5906150d4565b7f00000000000000000000000000000000000000000000000000000000000000006001600160a01b0316611bde613bc2565b6001600160a01b031614611c045760405162461bcd60e51b8152600401610ad590615120565b611c0d81613bde565b60408051600080825260208201909252611c2991839190613c02565b50565b611c37610dcf613d7c565b611c535760405162461bcd60e51b8152600401610ad590615088565b611c5b613da0565b565b306001600160a01b037f0000000000000000000000000000000000000000000000000000000000000000161415611ca65760405162461bcd60e51b8152600401610ad5906150d4565b7f00000000000000000000000000000000000000000000000000000000000000006001600160a01b0316611cd8613bc2565b6001600160a01b031614611cfe5760405162461bcd60e51b8152600401610ad590615120565b611d0782613bde565b611b5f82826001613c02565b600054610100900460ff1615808015611d335750600054600160ff909116105b80611d545750611d4230613df2565b158015611d54575060005460ff166001145b611d705760405162461bcd60e51b8152600401610ad59061516c565b6000805460ff191660011790558015611d93576000805461ff0019166101001790555b611d9b613e01565b8015611c29576000805461ff0019169055604051600181527f7f26b83ff96e1f2b6a682f133852f6798a09c465da95921460cefb38474024989060200160405180910390a150565b6000306001600160a01b037f00000000000000000000000000000000000000000000000000000000000000001614611e7e5760405162461bcd60e51b815260206004820152603860248201527f555550535570677261646561626c653a206d757374206e6f742062652063616c6044820152771b1959081d1a1c9bdd59da0819195b1959d85d1958d85b1b60421b6064820152608401610ad5565b506000805160206156cc83398151915290565b6000600260c9541415611eb65760405162461bcd60e51b8152600401610ad5906153c2565b600260c955611ec3613e34565b600160ff83161115611ee75760405162461bcd60e51b8152600401610ad590615056565b6101605461016454604051638176715560e01b81526001600160a01b0390921691638176715591611f1e9160040190815260200190565b60206040518083038186803b158015611f3657600080fd5b505afa158015611f4a573d6000803e3d6000fd5b505050506040513d601f19601f82011682018060405250810190611f6e9190614dc7565b1515600114611f8f5760405162461bcd60e51b8152600401610ad5906152fb565b600060ff8316600114156120925761017c5460ff1615611fc15760405162461bcd60e51b8152600401610ad590615390565b611fcc610dcf613e7a565b611fe85760405162461bcd60e51b8152600401610ad590615243565b61017b5461204c5760405162461bcd60e51b815260206004820152602b60248201527f62616c616e6365206f662073656e696f7220737562706f6f6c206973207a657260448201526a6f2063757272656e746c7960a81b6064820152608401610ad5565b61017e5461017b5461205d91613693565b61017f54909150156120815761017f54612078908290613693565b600061017f5590505b600061017b81905561017e556123a5565b60ff83166123a5576101835460ff16156120be5760405162461bcd60e51b8152600401610ad590615211565b336000908152610178602052604090205460ff16151560011480156120f25750336000908152610177602052604090205415155b6121385760405162461bcd60e51b81526020600482015260176024820152763d32b9379030b6b7bab73a103a37903232b837b9b4ba1760491b6044820152606401610ad5565b6101825461214790600a613693565b336000908152610177602052604090205411156121bc5760405162461bcd60e51b815260206004820152602d60248201527f63757272656e746c79206a756e696f7220737562706f6f6c20646f6e2774206860448201526c617665204c697175696469747960981b6064820152608401610ad5565b60006121e4620f42405b336000908152610177602052604090205461017354610bc791613687565b90506121f181600a613668565b6101855490915081111561226d5760405162461bcd60e51b815260206004820152603d60248201527f63757272656e746c79206a756e696f7220737562706f6f6c207969656c64206960448201527f73206c657373207468616e20776861742069732067656e6572617465640000006064820152608401610ad5565b336000908152610177602052604081205461228990600a613668565b6101825490915061229a9082613668565b61018255610185546122ac9083613668565b6101855533600090815261017860205260409020805460ff191690556122d28183613693565b6101865490935015612329576000612306620f42405b336000908152610177602052604090205461017554610bc791613687565b90506123128482613693565b610186549094506123239082613668565b61018655505b6101615461016454604051631bd3b3dd60e31b81526001600160a01b039092169163de9d9ee89161235f9133919060040161500a565b600060405180830381600087803b15801561237957600080fd5b505af115801561238d573d6000803e3d6000fd5b50503360009081526101776020526040812055505050505b61016a546123b39082613668565b61016a556101625460405163a9059cbb60e01b81526001600160a01b039091169063a9059cbb906123ea903390859060040161500a565b602060405180830381600087803b15801561240457600080fd5b505af1158015612418573d6000803e3d6000fd5b505050506040513d601f19601f8201168201806040525081019061243c9190614dc7565b50600160c95592915050565b612453610dcf613e9e565b61246f5760405162461bcd60e51b8152600401610ad5906152ad565b600160ff821611156124935760405162461bcd60e51b8152600401610ad590615056565b60ff8116600114156124b05761017c805460ff1916600117905550565b60ff8116611c2957610183805460ff1916600117905550565b336000908152610178602052604081205460ff16151560011480156124fd5750336000908152610177602052604090205415155b6125455760405162461bcd60e51b81526020600482015260196024820152783d32b9379030b6b7bab73a103a37903232b837b9b4ba32b21760391b6044820152606401610ad5565b6101605461016454604051638176715560e01b815260048101919091526000916001600160a01b03169063817671559060240160206040518083038186803b15801561259057600080fd5b505afa1580156125a4573d6000803e3d6000fd5b505050506040513d601f19601f820116820180604052508101906125c89190614dc7565b151560011415610ca45760006125e0620f42406121c6565b33600090815261017760205260409020549091506125fe9082613693565b6101865490925015612628576000612618620f42406122e8565b90506126248382613693565b9250505b50919050565b61017c5460009060ff16156126555760405162461bcd60e51b8152600401610ad590615390565b61017e5461017b5461266691613693565b61017f54909150612678908290613693565b905090565b612688610dcf613d7c565b6126a45760405162461bcd60e51b8152600401610ad590615088565b611c5b613ec2565b60009182526065602090815260408084206001600160a01b0393909316845291905290205460ff1690565b600054610100900460ff166126fe5760405162461bcd60e51b8152600401610ad590615345565b6001600160a01b0381166127545760405162461bcd60e51b815260206004820181905260248201527f4f776e65722063616e6e6f7420626520746865207a65726f20616464726573736044820152606401610ad5565b61275c613eff565b612764613e01565b61276c613f26565b61277d612777613f54565b82613f78565b612788612777613d7c565b6127a0612793613d7c565b61279b613f54565b613f82565b611c29612793613f54565b6000612678610dcf613f54565b600054610100900460ff16158080156127d85750600054600160ff909116105b806127f957506127e730613df2565b1580156127f9575060005460ff166001145b6128155760405162461bcd60e51b8152600401610ad59061516c565b6000805460ff191660011790558015612838576000805461ff0019166101001790555b6001600160a01b0388166128875760405162461bcd60e51b8152602060048201526016602482015275496e76616c696420636f6e666967206164647265737360501b6044820152606401610ad5565b61015f80546001600160a01b0319166001600160a01b038a169081179091556000906128b290613fcd565b90506001600160a01b0381166128fa5760405162461bcd60e51b815260206004820152600d60248201526c24b73b30b634b21027bbb732b960991b6044820152606401610ad5565b61015f54612910906001600160a01b0316613ab3565b61016080546001600160a01b0319166001600160a01b0392831617905561015f5461293b9116613fe4565b61016180546001600160a01b0319166001600160a01b0392909216919091179055612965816126d7565b61015f5461297b906001600160a01b0316613ffc565b61016280546001600160a01b0319166001600160a01b0392831617905561015f546129a69116614014565b61016380546001600160a01b0319166001600160a01b03929092169190911790556129d2612793613e7a565b6129f86129dd613e7a565b61015f546129f3906001600160a01b0316613a9b565b613f78565b612a03612793613801565b612a0e612793613e9e565b612a19612777613e9e565b610160546040516339461f5160e11b8152600481018a90526000916001600160a01b03169063728c3ea29060240160206040518083038186803b158015612a5f57600080fd5b505afa158015612a73573d6000803e3d6000fd5b505050506040513d601f19601f82011682018060405250810190612a979190614d1e565b9050612aa4612777613801565b610164899055610166889055610171889055610167879055610168869055610169859055600161016c55610165805460ff191660ff861617905561015f54604051633928f5e160e21b8152600481018b90526001600160a01b039091169063e4a3d7849060240160206040518083038186803b158015612b2357600080fd5b505afa158015612b37573d6000803e3d6000fd5b505050506040513d601f19601f82011682018060405250810190612b5b9190614dc7565b612bcc5761017c805460ff1916600117905561015f54600090612b8a90610ce2906001600160a01b0316613780565b61015f54909150612bae90612ba7906001600160a01b0316613780565b8290613687565b61017a81905561016654612bc29190615606565b6101815550612be3565b610183805460ff191660011790556101665461017a555b6101695461016754612bf49161367b565b61016d556101655460ff1660011415612c2457612c1b610166546101685461016d5461402c565b61016e55612c3d565b612c3861016654610168546101695461411b565b61016e555b612c5961016861015f54610bc7906001600160a01b031661419a565b61016f5561015f54612cc990612c77906001600160a01b0316613825565b61015f54612c8d906001600160a01b031661383d565b6101655461016e546101665461016d546101685461015f5460ff90951660011494612cc0906001600160a01b0316613780565b610167546141b2565b6101735561017255612cd9610ca9565b61017555610174556101625460405163095ea7b360e01b81526000916001600160a01b03169063095ea7b390612d179030906000199060040161500a565b602060405180830381600087803b158015612d3157600080fd5b505af1158015612d45573d6000803e3d6000fd5b505050506040513d601f19601f82011682018060405250810190612d699190614dc7565b905080612db15760405162461bcd60e51b81526020600482015260166024820152754661696c656420746f20617070726f7665205553444360501b6044820152606401610ad5565b5050508015612dfa576000805461ff0019169055604051600181527f7f26b83ff96e1f2b6a682f133852f6798a09c465da95921460cefb38474024989060200160405180910390a15b5050505050505050565b612e0f610dcf613e9e565b612e2b5760405162461bcd60e51b8152600401610ad5906152ad565b600160ff82161115612e4f5760405162461bcd60e51b8152600401610ad590615056565b60ff811660011415612e695761017c805460ff1916905550565b60ff8116611c2957610183805460ff1916905550565b600082815260656020526040902060010154612e9a81613acb565b611aaf8383613b5b565b61017f5461017e54600091612678916154d0565b61016054610164546040516378023a5360e11b815260048101919091526060916001600160a01b03169063f00474a69060240160006040518083038186803b158015612f0357600080fd5b505afa158015612f17573d6000803e3d6000fd5b505050506040513d6000823e601f3d908101601f191682016040526126789190810190614ed2565b600061016d5461016c541115612f675760405162461bcd60e51b8152600401610ad590615444565b6000610aa7612f8b6101695462015180612f8191906155e7565b61016c5490613687565b61016b5490613693565b600260c9541415612fb85760405162461bcd60e51b8152600401610ad5906153c2565b600260c955612fc5613e34565b612fd0610dcf613801565b612fec5760405162461bcd60e51b8152600401610ad5906152ad565b6101605461016454604051630231155f60e51b81526001600160a01b0390921691634622abe0916130239160040190815260200190565b60206040518083038186803b15801561303b57600080fd5b505afa15801561304f573d6000803e3d6000fd5b505050506040513d601f19601f820116820180604052508101906130739190614dc7565b156130d35760405162461bcd60e51b815260206004820152602a60248201527f46756e647320696e206f70706f7274756e6974792061726520616c726561647960448201526910323930bbb237bbb71760b11b6064820152608401610ad5565b6101765460ff161561311c5760405162461bcd60e51b8152602060048201526012602482015271111c985dd91bdddb881a5cc81c185d5cd95960721b6044820152606401610ad5565b6101665461016a54146131a75760405162461bcd60e51b815260206004820152604760248201527f546f74616c204465706f736974656420616d6f756e7420696e206f70706f727460448201527f756e69747920706f6f6c206d75737420626520657175616c20746f206c6f616e60648201526608185b5bdd5b9d60ca1b608482015260a401610ad5565b61016a805460009182905561018282905561017b919091554261016b556101605461016454604051632bdfaa5160e21b81526001600160a01b039092169163af7ea944916131fb9160040190815260200190565b600060405180830381600087803b15801561321557600080fd5b505af1158015613229573d6000803e3d6000fd5b50506101625461324792506001600160a01b031690503033846139b9565b50600160c955565b600260c95414156132725760405162461bcd60e51b8152600401610ad5906153c2565b600260c955600160ff8316111561329b5760405162461bcd60e51b8152600401610ad590615056565b600081116132eb5760405162461bcd60e51b815260206004820181905260248201527f416d6f756e74204d7573742062652067726561746572207468616e207a65726f6044820152606401610ad5565b60ff8216600114156133e35761017c5460ff161561331b5760405162461bcd60e51b8152600401610ad590615390565b613326610dcf613e7a565b6133425760405162461bcd60e51b8152600401610ad590615243565b61017b54600090613354908390613693565b61017a549091508111156133cb5760405162461bcd60e51b815260206004820152603860248201527f416d6f756e7420657863656564732074686520546f74616c206465706f736974604482015277081b1a5b5a5d081bd9881cd95b9a5bdc881cdd589c1bdbdb60421b6064820152608401610ad5565b61017b546133d99083613693565b61017b55506135fa565b60ff82166135fa576101835460ff161561340f5760405162461bcd60e51b8152600401610ad590615211565b61018254600090613421908390613693565b610181549091508111156134985760405162461bcd60e51b815260206004820152603860248201527f416d6f756e7420657863656564732074686520546f74616c206465706f736974604482015277081b1a5b5a5d081bd9881a9d5b9a5bdc881cdd589c1bdbdb60421b6064820152608401610ad5565b610182546134a69083613693565b6101825533600090815261017760205260409020546134c59083613693565b33600081815261017760209081526040808320949094556101789052829020805460ff191660011790556101615461016454925163e954539d60e01b81526001600160a01b03919091169263e954539d926135259290919060040161500a565b60206040518083038186803b15801561353d57600080fd5b505afa158015613551573d6000803e3d6000fd5b505050506040513d601f19601f820116820180604052508101906135759190614dc7565b6135e2576101615461016454604051635345099160e11b81526001600160a01b039092169163a68a1322916135af9133919060040161500a565b600060405180830381600087803b1580156135c957600080fd5b505af11580156135dd573d6000803e3d6000fd5b505050505b6101815481106135f85761017c805460ff191690555b505b61016a546136089082613693565b61016a5561016254613625906001600160a01b03163330846139b9565b60405181815260ff83169033907f1d0787aee899a49ef81d0b11da9aca5455b46aefed042a41bd398d74619cab009060200160405180910390a35050600160c955565b60006136748284615606565b9392505050565b600061367482846154e8565b600061367482846155e7565b600061367482846154d0565b600080841180156136b05750600083115b80156136bc5750600082115b6136d85760405162461bcd60e51b8152600401610ad5906151e6565b600061372061370a6136eb8560066143cb565b676765c793fa10079d601b1b6101685b61370591906155e7565b614449565b613705676765c793fa10079d601b1b60646155e7565b905060006137428261373d676765c793fa10079d601b1b886155e7565b614479565b905060006137518760066143cb565b9050600061375f8284614479565b905061377481683635c9adc5dea0000061367b565b98975050505050505050565b60006001600160a01b03821663fc563658825b6040518263ffffffff1660e01b81526004016137b191815260200190565b60206040518083038186803b1580156137c957600080fd5b505afa1580156137dd573d6000803e3d6000fd5b505050506040513d601f19601f82011682018060405250810190610aa79190614dff565b7f2344277e405079ec07749d374ba0b5862a4e45a6a05ac889dbb4a991c6f9354d90565b60006001600160a01b03821663fc5636586001613793565b60006001600160a01b03821663fc5636586003613793565b6000806000881180156138685750600087115b80156138745750600086115b80156138805750600085115b801561388c5750600084115b80156138985750600083115b6138b45760405162461bcd60e51b8152600401610ad5906151ba565b60006138c18960066143cb565b905060006138d08960066143cb565b905060006138df8960066143cb565b905060006138ee8760066143cb565b905060006138fd8960066143cb565b9050600061391461390e8585614479565b83614449565b905060006139228287614479565b9050600061394261393c84613937868c614479565b6144aa565b836144aa565b9050600061395d6139578861373d888a6144aa565b86614449565b9050600061397861397283613937858e614479565b85614500565b905061398d83683635c9adc5dea0000061367b565b6139a082683635c9adc5dea0000061367b565b9b509b5050505050505050505050965096945050505050565b604080516001600160a01b0385811660248301528416604482015260648082018490528251808303909101815260849091019091526020810180516001600160e01b03166323b872dd60e01b179052613a13908590614555565b50505050565b60006001600160a01b03821663b93f9b0a60085b6040518263ffffffff1660e01b8152600401613a4b91815260200190565b60206040518083038186803b158015613a6357600080fd5b505afa158015613a77573d6000803e3d6000fd5b505050506040513d601f19601f82011682018060405250810190610aa79190614d1e565b60006001600160a01b03821663b93f9b0a6003613a2d565b60006001600160a01b03821663b93f9b0a6006613a2d565b611c298133614627565b613adf82826126ac565b611b5f5760008281526065602090815260408083206001600160a01b03851684529091529020805460ff19166001179055613b173390565b6001600160a01b0316816001600160a01b0316837f2f8788117e7eff1d82e926ec794901d17c78024a50270940304540a733656f0d60405160405180910390a45050565b613b6582826126ac565b15611b5f5760008281526065602090815260408083206001600160a01b0385168085529252808320805460ff1916905551339285917ff6391f5c32d9c69d2a47ea670b442974b53935d1edc7fd64eb21e047a839171b9190a45050565b6000805160206156cc833981519152546001600160a01b031690565b613be66127ab565b611c295760405162461bcd60e51b8152600401610ad5906153f9565b7f4910fdfa16fed3260ed0e7147f7cc6da11a60208b5b9406d12a635614ffd91435460ff1615613c3557611aaf8361468b565b826001600160a01b03166352d1902d6040518163ffffffff1660e01b815260040160206040518083038186803b158015613c6e57600080fd5b505afa925050508015613c9e575060408051601f3d908101601f19168201909252613c9b91810190614dff565b60015b613d015760405162461bcd60e51b815260206004820152602e60248201527f45524331393637557067726164653a206e657720696d706c656d656e7461746960448201526d6f6e206973206e6f74205555505360901b6064820152608401610ad5565b6000805160206156cc8339815191528114613d705760405162461bcd60e51b815260206004820152602960248201527f45524331393637557067726164653a20756e737570706f727465642070726f786044820152681a58589b195555525160ba1b6064820152608401610ad5565b50611aaf838383614725565b7f65d7a28e3265b37a6474929f336521b332c1681b933f6cb9f3376673440d862a90565b613da861474a565b6097805460ff191690557f5db9ee0a495bf2e6ff9c91a7834c1ba4fdd244a5e8aa4e537bd38aeae4b073aa335b6040516001600160a01b03909116815260200160405180910390a1565b6001600160a01b03163b151590565b600054610100900460ff16613e285760405162461bcd60e51b8152600401610ad590615345565b6097805460ff19169055565b60975460ff1615611c5b5760405162461bcd60e51b815260206004820152601060248201526f14185d5cd8589b194e881c185d5cd95960821b6044820152606401610ad5565b7fa794a061bac4a541306b6778cc120a221216f325de0020c39b67101d49158ca290565b7ffa4b6f760d780a02797df53a6c2ccf476001dc02ee4f9b6b1426dafc21ff6baf90565b613eca613e34565b6097805460ff191660011790557f62e78cea01bee320cd4e420270b5ea74000d11b0c9f74754ebdbfc544b05a258613dd53390565b600054610100900460ff16611c5b5760405162461bcd60e51b8152600401610ad590615345565b600054610100900460ff16613f4d5760405162461bcd60e51b8152600401610ad590615345565b600160c955565b7fa49807205ce4d355092ef5a8a18f56e8913cf4a201fbe287825b095693c2177590565b611b5f8282613ad5565b600082815260656020526040808220600101805490849055905190918391839186917fbd79b86ffe0ab8e8776151514217cd7cacd52c909f66475c3af44e129f0b00ff9190a4505050565b60006001600160a01b03821663b93f9b0a82613a2d565b60006001600160a01b03821663b93f9b0a6007613a2d565b60006001600160a01b03821663b93f9b0a6002613a2d565b60006001600160a01b03821663b93f9b0a6001613a2d565b6000808411801561403d5750600083115b80156140495750600082115b6140655760405162461bcd60e51b8152600401610ad5906151e6565b600061408e61370a6140788660066143cb565b613705676765c793fa10079d601b1b600c6155e7565b905060006140a7676765c793fa10079d601b1b83613693565b905060006140b58286614793565b905060006140c48860066143cb565b905060006140e183613705676765c793fa10079d601b1b82615606565b905060006140f86140f28488614479565b83614479565b905061410d81683635c9adc5dea0000061367b565b9a9950505050505050505050565b6000808411801561412c5750600083115b80156141385750600082115b6141545760405162461bcd60e51b8152600401610ad5906151e6565b600061416761370a6140788660066143cb565b905060006137428261373d614187676765c793fa10079d601b1b886155e7565b676765c793fa10079d601b1b601e6136fb565b60006001600160a01b03821663fc5636586002613793565b60008060008b1180156141c5575060008a115b80156141d15750600088115b80156141dd5750600087115b80156141e95750600086115b80156141f55750600085115b80156142015750600084115b801561420d5750600083115b6142295760405162461bcd60e51b8152600401610ad5906151ba565b60006142368c60066143cb565b905060006142458c60066143cb565b905060008b156142ac57600061425c8c60066143cb565b90506000614275676765c793fa10079d601b1b8c6155e7565b905060006142848d60066143cb565b9050600061429561393c8585614479565b90506142a18183614449565b9450505050506142de565b60006142bf61370a6136eb8b60066143cb565b90506142da8161373d676765c793fa10079d601b1b8a6155e7565b9150505b600081116143285760405162461bcd60e51b8152602060048201526017602482015276125b9d985b1a59081a5b9d195c995cdd08185b5bdd5b9d604a1b6044820152606401610ad5565b600061434c8261373d614346676765c793fa10079d601b1b886144aa565b866144aa565b9050600061438c8361373d61436c676765c793fa10079d601b1b896144aa565b61438788676765c793fa10079d601b1b8f61373d91906155e7565b614500565b90506143a182683635c9adc5dea0000061367b565b6143b482683635c9adc5dea0000061367b565b965096505050505050995099975050505050505050565b6000601b82111561441e5760405162461bcd60e51b815260206004820152601d60248201527f64732d6d6174682d646563696d616c732d6f75742d6f662d72616e67650000006044820152606401610ad5565b600061442b601b846144aa565b90506144418461443c83600a61553f565b614808565b949350505050565b60008161446f61446485676765c793fa10079d601b1b614808565b6143876002866154e8565b61367491906154e8565b6000676765c793fa10079d601b1b61446f6144948585614808565b6143876002676765c793fa10079d601b1b6154e8565b6000826144b78382615606565b9150811115610aa75760405162461bcd60e51b815260206004820152601560248201527464732d6d6174682d7375622d756e646572666c6f7760581b6044820152606401610ad5565b60008261450d83826154d0565b9150811015610aa75760405162461bcd60e51b815260206004820152601460248201527364732d6d6174682d6164642d6f766572666c6f7760601b6044820152606401610ad5565b60006145aa826040518060400160405280602081526020017f5361666545524332303a206c6f772d6c6576656c2063616c6c206661696c6564815250856001600160a01b031661486f9092919063ffffffff16565b805190915015611aaf57808060200190518101906145c89190614dc7565b611aaf5760405162461bcd60e51b815260206004820152602a60248201527f5361666545524332303a204552433230206f7065726174696f6e20646964206e6044820152691bdd081cdd58d8d9595960b21b6064820152608401610ad5565b61463182826126ac565b611b5f57614649816001600160a01b0316601461487e565b61465483602061487e565b604051602001614665929190614f9b565b60408051601f198184030181529082905262461bcd60e51b8252610ad591600401615023565b61469481613df2565b6146f65760405162461bcd60e51b815260206004820152602d60248201527f455243313936373a206e657720696d706c656d656e746174696f6e206973206e60448201526c1bdd08184818dbdb9d1c9858dd609a1b6064820152608401610ad5565b6000805160206156cc83398151915280546001600160a01b0319166001600160a01b0392909216919091179055565b61472e83614a60565b60008251118061473b5750805b15611aaf57613a138383614aa0565b60975460ff16611c5b5760405162461bcd60e51b815260206004820152601460248201527314185d5cd8589b194e881b9bdd081c185d5cd95960621b6044820152606401610ad5565b60006147a0600283615660565b6147b557676765c793fa10079d601b1b6147b7565b825b90506147c46002836154e8565b91505b8115610aa7576147d78384614479565b92506147e4600283615660565b156147f6576147f38184614479565b90505b6148016002836154e8565b91506147c7565b600081158061482c5750828261481e81836155e7565b925061482a90836154e8565b145b610aa75760405162461bcd60e51b815260206004820152601460248201527364732d6d6174682d6d756c2d6f766572666c6f7760601b6044820152606401610ad5565b60606144418484600085614b89565b6060600061488d8360026155e7565b6148989060026154d0565b67ffffffffffffffff8111156148be57634e487b7160e01b600052604160045260246000fd5b6040519080825280601f01601f1916602001820160405280156148e8576020820181803683370190505b509050600360fc1b8160008151811061491157634e487b7160e01b600052603260045260246000fd5b60200101906001600160f81b031916908160001a905350600f60fb1b8160018151811061494e57634e487b7160e01b600052603260045260246000fd5b60200101906001600160f81b031916908160001a90535060006149728460026155e7565b61497d9060016154d0565b90505b6001811115614a11576f181899199a1a9b1b9c1cb0b131b232b360811b85600f16601081106149bf57634e487b7160e01b600052603260045260246000fd5b1a60f81b8282815181106149e357634e487b7160e01b600052603260045260246000fd5b60200101906001600160f81b031916908160001a90535060049490941c93614a0a81615649565b9050614980565b5083156136745760405162461bcd60e51b815260206004820181905260248201527f537472696e67733a20686578206c656e67746820696e73756666696369656e746044820152606401610ad5565b614a698161468b565b6040516001600160a01b038216907fbc7cd75a20ee27fd9adebab32041f755214dbc6bffa90cc0225b39da2e5c2d3b90600090a250565b6060614aab83613df2565b614b065760405162461bcd60e51b815260206004820152602660248201527f416464726573733a2064656c65676174652063616c6c20746f206e6f6e2d636f6044820152651b9d1c9858dd60d21b6064820152608401610ad5565b600080846001600160a01b031684604051614b219190614f7f565b600060405180830381855af49150503d8060008114614b5c576040519150601f19603f3d011682016040523d82523d6000602084013e614b61565b606091505b5091509150610c1382826040518060600160405280602781526020016156ec60279139614cb8565b606082471015614bea5760405162461bcd60e51b815260206004820152602660248201527f416464726573733a20696e73756666696369656e742062616c616e636520666f6044820152651c8818d85b1b60d21b6064820152608401610ad5565b614bf385613df2565b614c3f5760405162461bcd60e51b815260206004820152601d60248201527f416464726573733a2063616c6c20746f206e6f6e2d636f6e74726163740000006044820152606401610ad5565b600080866001600160a01b03168587604051614c5b9190614f7f565b60006040518083038185875af1925050503d8060008114614c98576040519150601f19603f3d011682016040523d82523d6000602084013e614c9d565b606091505b5091509150614cad828286614cb8565b979650505050505050565b60608315614cc7575081613674565b825115614cd75782518084602001fd5b8160405162461bcd60e51b8152600401610ad59190615023565b803560ff81168114610ca457600080fd5b600060208284031215614d13578081fd5b8135613674816156b6565b600060208284031215614d2f578081fd5b8151613674816156b6565b60008060408385031215614d4c578081fd5b8235614d57816156b6565b9150602083013567ffffffffffffffff811115614d72578182fd5b8301601f81018513614d82578182fd5b8035614d95614d90826154a8565b615477565b818152866020838501011115614da9578384fd5b81602084016020830137908101602001929092525090939092509050565b600060208284031215614dd8578081fd5b81518015158114613674578182fd5b600060208284031215614df8578081fd5b5035919050565b600060208284031215614e10578081fd5b5051919050565b60008060408385031215614e29578182fd5b823591506020830135614e3b816156b6565b809150509250929050565b600060208284031215614e57578081fd5b81356001600160e01b031981168114613674578182fd5b600080600080600080600060e0888a031215614e88578283fd5b8735614e93816156b6565b96506020880135955060408801359450606088013593506080880135925060a08801359150614ec460c08901614cf1565b905092959891949750929550565b600060208284031215614ee3578081fd5b815167ffffffffffffffff811115614ef9578182fd5b8201601f81018413614f09578182fd5b8051614f17614d90826154a8565b818152856020838501011115614f2b578384fd5b610c1382602083016020860161561d565b600060208284031215614f4d578081fd5b61367482614cf1565b60008060408385031215614f68578081fd5b614f7183614cf1565b946020939093013593505050565b60008251614f9181846020870161561d565b9190910192915050565b76020b1b1b2b9b9a1b7b73a3937b61d1030b1b1b7bab73a1604d1b815260008351614fcd81601785016020880161561d565b7001034b99036b4b9b9b4b733903937b6329607d1b6017918401918201528351614ffe81602884016020880161561d565b01602801949350505050565b6001600160a01b03929092168252602082015260400190565b602081526000825180602084015261504281604085016020870161561d565b601f01601f19169190910160400192915050565b602080825260189082015277537562706f6f6c4944203a206f7574206f662072616e676560401b604082015260600190565b6020808252602c908201527f4d75737420686176652070617573657220726f6c6520746f20706572666f726d60408201526b103a3434b99030b1ba34b7b760a11b606082015260800190565b6020808252602c908201527f46756e6374696f6e206d7573742062652063616c6c6564207468726f7567682060408201526b19195b1959d85d1958d85b1b60a21b606082015260800190565b6020808252602c908201527f46756e6374696f6e206d7573742062652063616c6c6564207468726f7567682060408201526b6163746976652070726f787960a01b606082015260800190565b6020808252602e908201527f496e697469616c697a61626c653a20636f6e747261637420697320616c72656160408201526d191e481a5b9a5d1a585b1a5e995960921b606082015260800190565b602080825260129082015271496e76616c696420706172616d657465727360701b604082015260600190565b602080825260119082015270496e76616c696420706172616d7465727360781b604082015260600190565b602080825260189082015277129d5b9a5bdc8814dd589c1bdbdb081a5cc81b1bd8dad95960421b604082015260600190565b60208082526044908201527f596f75206d75737420686176652053656e696f7220706f6f6c20726f6c65206960408201527f6e206f7264657220746f206465706f73697420696e2073656e696f72207375626060820152631c1bdbdb60e21b608082015260a00190565b6020808252602e908201527f4d757374206861766520626f72726f77657220726f6c6520746f20706572666f60408201526d3936903a3434b99030b1ba34b7b760911b606082015260800190565b6020808252602a908201527f46756e647320696e206f70706f7274756e69747920686176656e2774206472616040820152693bb237bbb7103cb2ba1760b11b606082015260800190565b6020808252602b908201527f496e697469616c697a61626c653a20636f6e7472616374206973206e6f74206960408201526a6e697469616c697a696e6760a81b606082015260800190565b60208082526018908201527714d95b9a5bdc8814dd589c1bdbdb081a5cc81b1bd8dad95960421b604082015260600190565b6020808252601f908201527f5265656e7472616e637947756172643a207265656e7472616e742063616c6c00604082015260600190565b6020808252602b908201527f4d75737420686176652061646d696e20726f6c6520746f20706572666f726d2060408201526a3a3434b99030b1ba34b7b760a91b606082015260800190565b60208082526019908201527852657061796d656e742050726f6365737320697320646f6e6560381b604082015260600190565b604051601f8201601f1916810167ffffffffffffffff811182821017156154a0576154a06156a0565b604052919050565b600067ffffffffffffffff8211156154c2576154c26156a0565b50601f01601f191660200190565b600082198211156154e3576154e3615674565b500190565b6000826154f7576154f761568a565b500490565b600181815b8085111561553757816000190482111561551d5761551d615674565b8085161561552a57918102915b93841c9390800290615501565b509250929050565b6000613674838360008261555557506001610aa7565b8161556257506000610aa7565b816001811461557857600281146155825761559e565b6001915050610aa7565b60ff84111561559357615593615674565b50506001821b610aa7565b5060208310610133831016604e8410600b84101617156155c1575081810a610aa7565b6155cb83836154fc565b80600019048211156155df576155df615674565b029392505050565b600081600019048311821515161561560157615601615674565b500290565b60008282101561561857615618615674565b500390565b60005b83811015615638578181015183820152602001615620565b83811115613a135750506000910152565b60008161565857615658615674565b506000190190565b60008261566f5761566f61568a565b500690565b634e487b7160e01b600052601160045260246000fd5b634e487b7160e01b600052601260045260246000fd5b634e487b7160e01b600052604160045260246000fd5b6001600160a01b0381168114611c2957600080fdfe360894a13ba1a3210667c828492db98dca3e2076cc3735a920a3ca505d382bbc416464726573733a206c6f772d6c6576656c2064656c65676174652063616c6c206661696c6564a2646970667358221220378972232321da2ea80861911817e2f35c58feec27263f55b075249397ed714464736f6c63430008040033",
  "linkReferences": {},
  "deployedLinkReferences": {}
}