{
  "_format": "hh-sol-artifact-1",
  "contractName": "OpportunityPool",
  "sourceName": "contracts/protocol/OpportunityPool.sol",
  "abi": [
    {
      "anonymous": false,
      "inputs": [
        {
          "indexed": true,
          "internalType": "address",
          "name": "executor",
          "type": "address"
        },
        {
          "indexed": true,
          "internalType": "uint8",
          "name": "subpool",
          "type": "uint8"
        },
        {
          "indexed": false,
          "internalType": "uint256",
          "name": "amount",
          "type": "uint256"
        }
      ],
      "name": "Deposited",
      "type": "event"
    },
    {
      "anonymous": false,
      "inputs": [
        {
          "indexed": false,
          "internalType": "uint8",
          "name": "version",
          "type": "uint8"
        }
      ],
      "name": "Initialized",
      "type": "event"
    },
    {
      "anonymous": false,
      "inputs": [
        {
          "indexed": false,
          "internalType": "address",
          "name": "account",
          "type": "address"
        }
      ],
      "name": "Paused",
      "type": "event"
    },
    {
      "anonymous": false,
      "inputs": [
        {
          "indexed": true,
          "internalType": "bytes32",
          "name": "role",
          "type": "bytes32"
        },
        {
          "indexed": true,
          "internalType": "bytes32",
          "name": "previousAdminRole",
          "type": "bytes32"
        },
        {
          "indexed": true,
          "internalType": "bytes32",
          "name": "newAdminRole",
          "type": "bytes32"
        }
      ],
      "name": "RoleAdminChanged",
      "type": "event"
    },
    {
      "anonymous": false,
      "inputs": [
        {
          "indexed": true,
          "internalType": "bytes32",
          "name": "role",
          "type": "bytes32"
        },
        {
          "indexed": true,
          "internalType": "address",
          "name": "account",
          "type": "address"
        },
        {
          "indexed": true,
          "internalType": "address",
          "name": "sender",
          "type": "address"
        }
      ],
      "name": "RoleGranted",
      "type": "event"
    },
    {
      "anonymous": false,
      "inputs": [
        {
          "indexed": true,
          "internalType": "bytes32",
          "name": "role",
          "type": "bytes32"
        },
        {
          "indexed": true,
          "internalType": "address",
          "name": "account",
          "type": "address"
        },
        {
          "indexed": true,
          "internalType": "address",
          "name": "sender",
          "type": "address"
        }
      ],
      "name": "RoleRevoked",
      "type": "event"
    },
    {
      "anonymous": false,
      "inputs": [
        {
          "indexed": false,
          "internalType": "address",
          "name": "account",
          "type": "address"
        }
      ],
      "name": "Unpaused",
      "type": "event"
    },
    {
      "anonymous": false,
      "inputs": [
        {
          "indexed": true,
          "internalType": "address",
          "name": "executor",
          "type": "address"
        },
        {
          "indexed": true,
          "internalType": "uint8",
          "name": "subpool",
          "type": "uint8"
        },
        {
          "indexed": false,
          "internalType": "uint256",
          "name": "amount",
          "type": "uint256"
        }
      ],
      "name": "Withdrew",
      "type": "event"
    },
    {
      "inputs": [],
      "name": "ADMIN_ROLE",
      "outputs": [
        {
          "internalType": "bytes32",
          "name": "",
          "type": "bytes32"
        }
      ],
      "stateMutability": "view",
      "type": "function"
    },
    {
      "inputs": [],
      "name": "BORROWER_ROLE",
      "outputs": [
        {
          "internalType": "bytes32",
          "name": "",
          "type": "bytes32"
        }
      ],
      "stateMutability": "view",
      "type": "function"
    },
    {
      "inputs": [],
      "name": "DEFAULT_ADMIN_ROLE",
      "outputs": [
        {
          "internalType": "bytes32",
          "name": "",
          "type": "bytes32"
        }
      ],
      "stateMutability": "view",
      "type": "function"
    },
    {
      "inputs": [],
      "name": "PAUSER_ROLE",
      "outputs": [
        {
          "internalType": "bytes32",
          "name": "",
          "type": "bytes32"
        }
      ],
      "stateMutability": "view",
      "type": "function"
    },
    {
      "inputs": [],
      "name": "POOL_LOCKER_ROLE",
      "outputs": [
        {
          "internalType": "bytes32",
          "name": "",
          "type": "bytes32"
        }
      ],
      "stateMutability": "view",
      "type": "function"
    },
    {
      "inputs": [],
      "name": "SENIOR_POOL_ROLE",
      "outputs": [
        {
          "internalType": "bytes32",
          "name": "",
          "type": "bytes32"
        }
      ],
      "stateMutability": "view",
      "type": "function"
    },
    {
      "inputs": [
        {
          "internalType": "address",
          "name": "owner",
          "type": "address"
        }
      ],
      "name": "_BaseUpgradeablePausable_init",
      "outputs": [],
      "stateMutability": "nonpayable",
      "type": "function"
    },
    {
      "inputs": [],
      "name": "__PauserPausable__init",
      "outputs": [],
      "stateMutability": "nonpayable",
      "type": "function"
    },
    {
      "inputs": [],
      "name": "amountWithoutEMI",
      "outputs": [
        {
          "internalType": "uint256",
          "name": "",
          "type": "uint256"
        }
      ],
      "stateMutability": "view",
      "type": "function"
    },
    {
      "inputs": [],
      "name": "capitalLoss",
      "outputs": [
        {
          "internalType": "uint256",
          "name": "",
          "type": "uint256"
        }
      ],
      "stateMutability": "view",
      "type": "function"
    },
    {
      "inputs": [],
      "name": "collateralDocument",
      "outputs": [
        {
          "internalType": "string",
          "name": "",
          "type": "string"
        }
      ],
      "stateMutability": "view",
      "type": "function"
    },
    {
      "inputs": [],
      "name": "dailyInterestRate",
      "outputs": [
        {
          "internalType": "uint256",
          "name": "",
          "type": "uint256"
        }
      ],
      "stateMutability": "view",
      "type": "function"
    },
    {
      "inputs": [
        {
          "internalType": "uint8",
          "name": "_subpoolId",
          "type": "uint8"
        },
        {
          "internalType": "uint256",
          "name": "amount",
          "type": "uint256"
        }
      ],
      "name": "deposit",
      "outputs": [],
      "stateMutability": "nonpayable",
      "type": "function"
    },
    {
      "inputs": [],
      "name": "drawdown",
      "outputs": [],
      "stateMutability": "nonpayable",
      "type": "function"
    },
    {
      "inputs": [],
      "name": "dygnifyConfig",
      "outputs": [
        {
          "internalType": "contract DygnifyConfig",
          "name": "",
          "type": "address"
        }
      ],
      "stateMutability": "view",
      "type": "function"
    },
    {
      "inputs": [],
      "name": "emiAmount",
      "outputs": [
        {
          "internalType": "uint256",
          "name": "",
          "type": "uint256"
        }
      ],
      "stateMutability": "view",
      "type": "function"
    },
    {
      "inputs": [],
      "name": "getOverDuePercentage",
      "outputs": [
        {
          "internalType": "uint256",
          "name": "",
          "type": "uint256"
        },
        {
          "internalType": "uint256",
          "name": "",
          "type": "uint256"
        }
      ],
      "stateMutability": "view",
      "type": "function"
    },
    {
      "inputs": [],
      "name": "getRepaymentAmount",
      "outputs": [
        {
          "internalType": "uint256",
          "name": "",
          "type": "uint256"
        }
      ],
      "stateMutability": "view",
      "type": "function"
    },
    {
      "inputs": [
        {
          "internalType": "bytes32",
          "name": "role",
          "type": "bytes32"
        }
      ],
      "name": "getRoleAdmin",
      "outputs": [
        {
          "internalType": "bytes32",
          "name": "",
          "type": "bytes32"
        }
      ],
      "stateMutability": "view",
      "type": "function"
    },
    {
      "inputs": [],
      "name": "getSeniorProfit",
      "outputs": [
        {
          "internalType": "uint256",
          "name": "",
          "type": "uint256"
        }
      ],
      "stateMutability": "view",
      "type": "function"
    },
    {
      "inputs": [],
      "name": "getSeniorTotalDepositable",
      "outputs": [
        {
          "internalType": "uint256",
          "name": "",
          "type": "uint256"
        }
      ],
      "stateMutability": "view",
      "type": "function"
    },
    {
      "inputs": [],
      "name": "getUserWithdrawableAmount",
      "outputs": [
        {
          "internalType": "uint256",
          "name": "",
          "type": "uint256"
        }
      ],
      "stateMutability": "view",
      "type": "function"
    },
    {
      "inputs": [],
      "name": "getYieldPercentage",
      "outputs": [
        {
          "internalType": "uint256",
          "name": "",
          "type": "uint256"
        },
        {
          "internalType": "uint256",
          "name": "",
          "type": "uint256"
        }
      ],
      "stateMutability": "view",
      "type": "function"
    },
    {
      "inputs": [
        {
          "internalType": "bytes32",
          "name": "role",
          "type": "bytes32"
        },
        {
          "internalType": "address",
          "name": "account",
          "type": "address"
        }
      ],
      "name": "grantRole",
      "outputs": [],
      "stateMutability": "nonpayable",
      "type": "function"
    },
    {
      "inputs": [
        {
          "internalType": "bytes32",
          "name": "role",
          "type": "bytes32"
        },
        {
          "internalType": "address",
          "name": "account",
          "type": "address"
        }
      ],
      "name": "hasRole",
      "outputs": [
        {
          "internalType": "bool",
          "name": "",
          "type": "bool"
        }
      ],
      "stateMutability": "view",
      "type": "function"
    },
    {
      "inputs": [
        {
          "internalType": "contract DygnifyConfig",
          "name": "_dygnifyConfig",
          "type": "address"
        },
        {
          "internalType": "bytes32",
          "name": "_opportunityID",
          "type": "bytes32"
        },
        {
          "internalType": "string",
          "name": "_opportunityInfo",
          "type": "string"
        },
        {
          "internalType": "uint8",
          "name": "_loanType",
          "type": "uint8"
        },
        {
          "internalType": "uint256",
          "name": "_loanAmount",
          "type": "uint256"
        },
        {
          "internalType": "uint256",
          "name": "_loanTenureInDays",
          "type": "uint256"
        },
        {
          "internalType": "uint256",
          "name": "_loanInterest",
          "type": "uint256"
        },
        {
          "internalType": "uint256",
          "name": "_paymentFrequencyInDays",
          "type": "uint256"
        },
        {
          "internalType": "string",
          "name": "_collateralDocument",
          "type": "string"
        },
        {
          "internalType": "uint256",
          "name": "_capitalLoss",
          "type": "uint256"
        }
      ],
      "name": "initialize",
      "outputs": [],
      "stateMutability": "nonpayable",
      "type": "function"
    },
    {
      "inputs": [],
      "name": "investor",
      "outputs": [
        {
          "internalType": "contract Investor",
          "name": "",
          "type": "address"
        }
      ],
      "stateMutability": "view",
      "type": "function"
    },
    {
      "inputs": [],
      "name": "isAdmin",
      "outputs": [
        {
          "internalType": "bool",
          "name": "",
          "type": "bool"
        }
      ],
      "stateMutability": "view",
      "type": "function"
    },
    {
      "inputs": [],
      "name": "isDrawdownsPaused",
      "outputs": [
        {
          "internalType": "bool",
          "name": "",
          "type": "bool"
        }
      ],
      "stateMutability": "view",
      "type": "function"
    },
    {
      "inputs": [
        {
          "internalType": "address",
          "name": "",
          "type": "address"
        }
      ],
      "name": "isStaking",
      "outputs": [
        {
          "internalType": "bool",
          "name": "",
          "type": "bool"
        }
      ],
      "stateMutability": "view",
      "type": "function"
    },
    {
      "inputs": [],
      "name": "juniorOverduePerecentage",
      "outputs": [
        {
          "internalType": "uint256",
          "name": "",
          "type": "uint256"
        }
      ],
      "stateMutability": "view",
      "type": "function"
    },
    {
      "inputs": [],
      "name": "juniorSubpoolDetails",
      "outputs": [
        {
          "internalType": "uint256",
          "name": "id",
          "type": "uint256"
        },
        {
          "internalType": "uint256",
          "name": "totalDepositable",
          "type": "uint256"
        },
        {
          "internalType": "uint256",
          "name": "depositedAmount",
          "type": "uint256"
        },
        {
          "internalType": "bool",
          "name": "isPoolLocked",
          "type": "bool"
        },
        {
          "internalType": "uint256",
          "name": "fundsLockedUntil",
          "type": "uint256"
        },
        {
          "internalType": "uint256",
          "name": "yieldGenerated",
          "type": "uint256"
        },
        {
          "internalType": "uint256",
          "name": "overdueGenerated",
          "type": "uint256"
        }
      ],
      "stateMutability": "view",
      "type": "function"
    },
    {
      "inputs": [],
      "name": "juniorYieldPerecentage",
      "outputs": [
        {
          "internalType": "uint256",
          "name": "",
          "type": "uint256"
        }
      ],
      "stateMutability": "view",
      "type": "function"
    },
    {
      "inputs": [],
      "name": "loanAmount",
      "outputs": [
        {
          "internalType": "uint256",
          "name": "",
          "type": "uint256"
        }
      ],
      "stateMutability": "view",
      "type": "function"
    },
    {
      "inputs": [],
      "name": "loanInterest",
      "outputs": [
        {
          "internalType": "uint256",
          "name": "",
          "type": "uint256"
        }
      ],
      "stateMutability": "view",
      "type": "function"
    },
    {
      "inputs": [],
      "name": "loanTenureInDays",
      "outputs": [
        {
          "internalType": "uint256",
          "name": "",
          "type": "uint256"
        }
      ],
      "stateMutability": "view",
      "type": "function"
    },
    {
      "inputs": [],
      "name": "loanType",
      "outputs": [
        {
          "internalType": "uint8",
          "name": "",
          "type": "uint8"
        }
      ],
      "stateMutability": "view",
      "type": "function"
    },
    {
      "inputs": [
        {
          "internalType": "uint8",
          "name": "_subpoolId",
          "type": "uint8"
        }
      ],
      "name": "lockPool",
      "outputs": [],
      "stateMutability": "nonpayable",
      "type": "function"
    },
    {
      "inputs": [],
      "name": "lpToken",
      "outputs": [
        {
          "internalType": "contract LPToken",
          "name": "",
          "type": "address"
        }
      ],
      "stateMutability": "view",
      "type": "function"
    },
    {
      "inputs": [],
      "name": "nextRepaymentTime",
      "outputs": [
        {
          "internalType": "uint256",
          "name": "",
          "type": "uint256"
        }
      ],
      "stateMutability": "view",
      "type": "function"
    },
    {
      "inputs": [],
      "name": "opportunityID",
      "outputs": [
        {
          "internalType": "bytes32",
          "name": "",
          "type": "bytes32"
        }
      ],
      "stateMutability": "view",
      "type": "function"
    },
    {
      "inputs": [],
      "name": "opportunityInfo",
      "outputs": [
        {
          "internalType": "string",
          "name": "",
          "type": "string"
        }
      ],
      "stateMutability": "view",
      "type": "function"
    },
    {
      "inputs": [],
      "name": "opportunityOrigination",
      "outputs": [
        {
          "internalType": "contract OpportunityOrigination",
          "name": "",
          "type": "address"
        }
      ],
      "stateMutability": "view",
      "type": "function"
    },
    {
      "inputs": [],
      "name": "pause",
      "outputs": [],
      "stateMutability": "nonpayable",
      "type": "function"
    },
    {
      "inputs": [],
      "name": "pauseDrawdown",
      "outputs": [],
      "stateMutability": "nonpayable",
      "type": "function"
    },
    {
      "inputs": [],
      "name": "paused",
      "outputs": [
        {
          "internalType": "bool",
          "name": "",
          "type": "bool"
        }
      ],
      "stateMutability": "view",
      "type": "function"
    },
    {
      "inputs": [],
      "name": "paymentFrequencyInDays",
      "outputs": [
        {
          "internalType": "uint256",
          "name": "",
          "type": "uint256"
        }
      ],
      "stateMutability": "view",
      "type": "function"
    },
    {
      "inputs": [],
      "name": "poolBalance",
      "outputs": [
        {
          "internalType": "uint256",
          "name": "",
          "type": "uint256"
        }
      ],
      "stateMutability": "view",
      "type": "function"
    },
    {
      "inputs": [
        {
          "internalType": "bytes32",
          "name": "role",
          "type": "bytes32"
        },
        {
          "internalType": "address",
          "name": "account",
          "type": "address"
        }
      ],
      "name": "renounceRole",
      "outputs": [],
      "stateMutability": "nonpayable",
      "type": "function"
    },
    {
      "inputs": [],
      "name": "repayment",
      "outputs": [],
      "stateMutability": "nonpayable",
      "type": "function"
    },
    {
      "inputs": [],
      "name": "repaymentCounter",
      "outputs": [
        {
          "internalType": "uint256",
          "name": "",
          "type": "uint256"
        }
      ],
      "stateMutability": "view",
      "type": "function"
    },
    {
      "inputs": [],
      "name": "repaymentStartTime",
      "outputs": [
        {
          "internalType": "uint256",
          "name": "",
          "type": "uint256"
        }
      ],
      "stateMutability": "view",
      "type": "function"
    },
    {
      "inputs": [
        {
          "internalType": "bytes32",
          "name": "role",
          "type": "bytes32"
        },
        {
          "internalType": "address",
          "name": "account",
          "type": "address"
        }
      ],
      "name": "revokeRole",
      "outputs": [],
      "stateMutability": "nonpayable",
      "type": "function"
    },
    {
      "inputs": [],
      "name": "seniorOverduePerecentage",
      "outputs": [
        {
          "internalType": "uint256",
          "name": "",
          "type": "uint256"
        }
      ],
      "stateMutability": "view",
      "type": "function"
    },
    {
      "inputs": [],
      "name": "seniorSubpoolDetails",
      "outputs": [
        {
          "internalType": "uint256",
          "name": "id",
          "type": "uint256"
        },
        {
          "internalType": "uint256",
          "name": "totalDepositable",
          "type": "uint256"
        },
        {
          "internalType": "uint256",
          "name": "depositedAmount",
          "type": "uint256"
        },
        {
          "internalType": "bool",
          "name": "isPoolLocked",
          "type": "bool"
        },
        {
          "internalType": "uint256",
          "name": "fundsLockedUntil",
          "type": "uint256"
        },
        {
          "internalType": "uint256",
          "name": "yieldGenerated",
          "type": "uint256"
        },
        {
          "internalType": "uint256",
          "name": "overdueGenerated",
          "type": "uint256"
        }
      ],
      "stateMutability": "view",
      "type": "function"
    },
    {
      "inputs": [],
      "name": "seniorYieldPerecentage",
      "outputs": [
        {
          "internalType": "uint256",
          "name": "",
          "type": "uint256"
        }
      ],
      "stateMutability": "view",
      "type": "function"
    },
    {
      "inputs": [
        {
          "internalType": "address",
          "name": "",
          "type": "address"
        }
      ],
      "name": "stakingBalance",
      "outputs": [
        {
          "internalType": "uint256",
          "name": "",
          "type": "uint256"
        }
      ],
      "stateMutability": "view",
      "type": "function"
    },
    {
      "inputs": [
        {
          "internalType": "bytes4",
          "name": "interfaceId",
          "type": "bytes4"
        }
      ],
      "name": "supportsInterface",
      "outputs": [
        {
          "internalType": "bool",
          "name": "",
          "type": "bool"
        }
      ],
      "stateMutability": "view",
      "type": "function"
    },
    {
      "inputs": [],
      "name": "totalRepaidAmount",
      "outputs": [
        {
          "internalType": "uint256",
          "name": "",
          "type": "uint256"
        }
      ],
      "stateMutability": "view",
      "type": "function"
    },
    {
      "inputs": [],
      "name": "totalRepayments",
      "outputs": [
        {
          "internalType": "uint256",
          "name": "",
          "type": "uint256"
        }
      ],
      "stateMutability": "view",
      "type": "function"
    },
    {
      "inputs": [
        {
          "internalType": "uint8",
          "name": "_subpoolId",
          "type": "uint8"
        }
      ],
      "name": "unLockPool",
      "outputs": [],
      "stateMutability": "nonpayable",
      "type": "function"
    },
    {
      "inputs": [],
      "name": "unpause",
      "outputs": [],
      "stateMutability": "nonpayable",
      "type": "function"
    },
    {
      "inputs": [],
      "name": "unpauseDrawdown",
      "outputs": [],
      "stateMutability": "nonpayable",
      "type": "function"
    },
    {
      "inputs": [],
      "name": "usdcToken",
      "outputs": [
        {
          "internalType": "contract IERC20",
          "name": "",
          "type": "address"
        }
      ],
      "stateMutability": "view",
      "type": "function"
    },
    {
      "inputs": [
        {
          "internalType": "uint8",
          "name": "_subpoolId",
          "type": "uint8"
        },
        {
          "internalType": "uint256",
          "name": "amount",
          "type": "uint256"
        }
      ],
      "name": "withdraw",
      "outputs": [],
      "stateMutability": "nonpayable",
      "type": "function"
    },
    {
      "inputs": [
        {
          "internalType": "uint8",
          "name": "_subpoolId",
          "type": "uint8"
        }
      ],
      "name": "withdrawAll",
      "outputs": [
        {
          "internalType": "uint256",
          "name": "",
          "type": "uint256"
        }
      ],
      "stateMutability": "nonpayable",
      "type": "function"
    }
  ],
  "bytecode": "0x608060405234801561001057600080fd5b50614bb6806100206000396000f3fe608060405234801561001057600080fd5b50600436106104065760003560e01c806375b238fc1161021a578063bbbf13ea11610135578063dee05609116100c8578063e77ef21f11610097578063f4d4c9d71161007c578063f4d4c9d7146108c5578063ff3779f0146108d8578063ff3a5644146108ff57600080fd5b8063e77ef21f146108b3578063eedffb96146108bb57600080fd5b8063dee0560914610853578063df9fd1c11461085d578063e0fdf7c614610865578063e63ab1e91461088c57600080fd5b8063d547741f11610104578063d547741f1461081d578063d661d32014610830578063d9f7130d14610838578063dadfecca1461084b57600080fd5b8063bbbf13ea146107ca578063c5e2bf1a146107d4578063c8dd7bf3146107e7578063cab9bd00146107f157600080fd5b80639b021fa2116101ad578063a217fddf1161017c578063a217fddf146107a6578063a4607834146107ae578063a7292ea4146107b8578063b6db75a0146107c257600080fd5b80639b021fa2146107765780639d585f7f146107805780639f964fe61461078a578063a12dde4d1461079357600080fd5b8063891369b2116101e9578063891369b21461071f57806391d148541461072957806396365d441461076257806399e7f2501461076c57600080fd5b806375b238fc146106de5780637930d944146107055780637fca631f1461070d5780638456cb591461071757600080fd5b80632588d1681161032557806346e35faa116102b85780635c975abb116102875780636a15633b1161026c5780636a15633b1461069f5780636f49712b146106b25780637101fd16146106d657600080fd5b80635c975abb146106815780635fcbd2851461068c57600080fd5b806346e35faa14610652578063526d81f61461065c57806353654e85146106645780635b483e4c1461067757600080fd5b80633e5e89be116102f45780633e5e89be146106015780633f489914146106165780633f4ba83a1461062957806345bc78ab1461063157600080fd5b80632588d168146105c05780632f2ff15d146105d357806334d93fb4146105e657806336568abe146105ee57600080fd5b806311eac8551161039d5780631e0018d61161036c5780631e0018d6146105765780632159e4581461058957806322eac12c14610593578063248a9ca31461059d57600080fd5b806311eac8551461052657806317cd802d146105515780631be95459146105595780631daa910e1461056c57600080fd5b806307a7c08a116103d957806307a7c08a146104ca5780630a2c1505146104e75780630b4a45fd146104f55780630e7b949e146104ff57600080fd5b806301ffc9a71461040b578063031994941461043357806304419b7614610494578063074f2543146104b4575b600080fd5b61041e610419366004614830565b610909565b60405190151581526020015b60405180910390f35b61011f5461012054610121546101225461012354610124546101255461045f9695949360ff1692919087565b604080519788526020880196909652948601939093529015156060850152608084015260a083015260c082015260e00161042a565b610101546104a29060ff1681565b60405160ff909116815260200161042a565b6104bc6109a2565b60405190815260200161042a565b6104d2610b6b565b6040805192835260208301919091520161042a565b6101155461041e9060ff1681565b6104fd610c26565b005b6104bc7f2344277e405079ec07749d374ba0b5862a4e45a6a05ac889dbb4a991c6f9354d81565b60fe54610539906001600160a01b031681565b6040516001600160a01b03909116815260200161042a565b6104fd610c9e565b60fb54610539906001600160a01b031681565b6104bc6101125481565b60fd54610539906001600160a01b031681565b6104bc61010e5481565b6104bc61010c5481565b6104bc6105ab3660046147e9565b60009081526065602052604090206001015490565b60fc54610539906001600160a01b031681565b6104fd6105e1366004614801565b611145565b6104fd61116f565b6104fd6105fc366004614801565b6111e4565b610609611270565b60405161042a9190614a26565b6104fd610624366004614960565b6112ff565b6104fd6118a0565b6104bc61063f366004614791565b6101166020526000908152604090205481565b6104bc6101135481565b6104fd611935565b6104bc610672366004614946565b611a55565b6104bc61010d5481565b60975460ff1661041e565b60ff54610539906001600160a01b031681565b6104fd6106ad366004614946565b612107565b61041e6106c0366004614791565b6101176020526000908152604090205460ff1681565b6104bc612226565b6104bc7fa49807205ce4d355092ef5a8a18f56e8913cf4a201fbe287825b095693c2177581565b6106096123c1565b6104bc61010f5481565b6104fd6123cf565b6104bc6101105481565b61041e610737366004614801565b60009182526065602090815260408084206001600160a01b0393909316845291905290205460ff1690565b6104bc6101095481565b6104bc6101045481565b6104bc61010b5481565b6104bc6101025481565b610119546104bc565b6104fd6107a1366004614791565b612462565b6104bc600081565b6104bc6101085481565b6104bc6101055481565b61041e612603565b6104bc61010a5481565b6104fd6107e2366004614946565b612634565b6104bc6101005481565b610118546101195461011a5461011b5461011c5461011d5461011e5461045f9695949360ff1692919087565b6104fd61082b366004614801565b61274d565b6104bc612772565b6104fd610846366004614870565b612786565b6104d2613003565b6104bc6101115481565b6104bc6130d8565b6104bc7ffa4b6f760d780a02797df53a6c2ccf476001dc02ee4f9b6b1426dafc21ff6baf81565b6104bc7f65d7a28e3265b37a6474929f336521b332c1681b933f6cb9f3376673440d862a81565b6104fd61315e565b6104bc6101145481565b6104fd6108d3366004614960565b613500565b6104bc7fa794a061bac4a541306b6778cc120a221216f325de0020c39b67101d49158ca281565b6104bc6101065481565b60007fffffffff0000000000000000000000000000000000000000000000000000000082167f7965db0b00000000000000000000000000000000000000000000000000000000148061099c57507f01ffc9a7000000000000000000000000000000000000000000000000000000007fffffffff000000000000000000000000000000000000000000000000000000008316145b92915050565b600061010c5461010b5411156109ff5760405162461bcd60e51b815260206004820152601960248201527f52657061796d656e742050726f6365737320697320646f6e650000000000000060448201526064015b60405180910390fd5b60fc5461010054604051630231155f60e51b81526001600160a01b0390921691634622abe091610a359160040190815260200190565b60206040518083038186803b158015610a4d57600080fd5b505afa158015610a61573d6000803e3d6000fd5b505050506040513d601f19601f82011682018060405250810190610a8591906147c9565b1515600114610ae95760405162461bcd60e51b815260206004820152602a60248201527f46756e647320696e206f70706f7274756e69747920686176656e2774206472616044820152693bb237bbb7103cb2ba1760b11b60648201526084016109f6565b61010d54426000610af86130d8565b9050600081831115610b58576000610b1d62015180610b178686613a9e565b90613ab1565b9050610b54620f4240610b1761010d54610b4e610b47606461010f54613ab190919063ffffffff16565b8690613abd565b90613abd565b9150505b610b628482613ac9565b95945050505050565b600080600061010e5461010d54610b829190614ab0565b60fb54909150600090610bb690610ba1906001600160a01b0316613ad5565b610bac906001614a59565b61010e5490613ab1565b60fb54909150600090610bdc90610bd5906001600160a01b0316613ad5565b8390613abd565b90506000610bfa84610b176101115485613abd90919063ffffffff16565b90506000610c1885610b176101125487613abd90919063ffffffff16565b919791965090945050505050565b610c2e612603565b610c8e5760405162461bcd60e51b815260206004820152602b60248201527f4d75737420686176652061646d696e20726f6c6520746f20706572666f726d2060448201526a3a3434b99030b1ba34b7b760a91b60648201526084016109f6565b610115805460ff19166001179055565b600260c9541415610cf15760405162461bcd60e51b815260206004820152601f60248201527f5265656e7472616e637947756172643a207265656e7472616e742063616c6c0060448201526064016109f6565b600260c955610cfe613b56565b3360009081527f3a5c5fdc6d68aca0335558f1dead9769256edaf7721e28efaba2044a61fcc1c2602052604090205460ff16610d935760405162461bcd60e51b815260206004820152602e60248201527f4d757374206861766520626f72726f77657220726f6c6520746f20706572666f60448201526d3936903a3434b99030b1ba34b7b760911b60648201526084016109f6565b61010c5461010b541115610de95760405162461bcd60e51b815260206004820152601960248201527f52657061796d656e742050726f6365737320697320646f6e650000000000000060448201526064016109f6565b60fc5461010054604051630231155f60e51b81526001600160a01b0390921691634622abe091610e1f9160040190815260200190565b60206040518083038186803b158015610e3757600080fd5b505afa158015610e4b573d6000803e3d6000fd5b505050506040513d601f19601f82011682018060405250810190610e6f91906147c9565b1515600114610ed35760405162461bcd60e51b815260206004820152602a60248201527f46756e647320696e206f70706f7274756e69747920686176656e2774206472616044820152693bb237bbb7103cb2ba1760b11b60648201526084016109f6565b61010c5461010b541415610f635760fc54610100546040517f332f14860000000000000000000000000000000000000000000000000000000081526001600160a01b039092169163332f148691610f309160040190815260200190565b600060405180830381600087803b158015610f4a57600080fd5b505af1158015610f5e573d6000803e3d6000fd5b505050505b61010d546101108054829190600090610f7d908490614a59565b909155504290506000610f8e6130d8565b9050600081831115610fdb576000610fad62015180610b178686613a9e565b9050610fd7620f4240610b1761010d54610b4e610b47606461010f54613ab190919063ffffffff16565b9150505b60fb5460009061100490610bac90600190610ffe906001600160a01b0316613ad5565b90613ac9565b60fb5490915060009061102390610bd5906001600160a01b0316613ad5565b61011a549091506110349082613ac9565b61011a55610121546110469083613ac9565b610121556101115461106f9061106590620f424090610b179085613abd565b61011d5490613ac9565b61011d55610112546110989061108e90620f424090610b179086613abd565b6101245490613ac9565b61012455610114546110c1906110b790620f424090610b179087613abd565b6101255490613ac9565b61012555610113546110ea906110e090620f424090610b179087613abd565b61011e5490613ac9565b61011e556110f88684613ac9565b610109549096506111099087613ac9565b6101095561010b5461111c906001613ac9565b61010b5560fe54611138906001600160a01b0316333089613ba9565b5050600160c95550505050565b60008281526065602052604090206001015461116081613c37565b61116a8383613c41565b505050565b611177612603565b6111d75760405162461bcd60e51b815260206004820152602b60248201527f4d75737420686176652061646d696e20726f6c6520746f20706572666f726d2060448201526a3a3434b99030b1ba34b7b760a91b60648201526084016109f6565b610115805460ff19169055565b6001600160a01b03811633146112625760405162461bcd60e51b815260206004820152602f60248201527f416363657373436f6e74726f6c3a2063616e206f6e6c792072656e6f756e636560448201527f20726f6c657320666f722073656c66000000000000000000000000000000000060648201526084016109f6565b61126c8282613ce3565b5050565b610107805461127e90614b0a565b80601f01602080910402602001604051908101604052809291908181526020018280546112aa90614b0a565b80156112f75780601f106112cc576101008083540402835291602001916112f7565b820191906000526020600020905b8154815290600101906020018083116112da57829003601f168201915b505050505081565b600260c95414156113525760405162461bcd60e51b815260206004820152601f60248201527f5265656e7472616e637947756172643a207265656e7472616e742063616c6c0060448201526064016109f6565b600260c95561135f613b56565b600160ff831611156113b35760405162461bcd60e51b815260206004820152601860248201527f537562706f6f6c4944203a206f7574206f662072616e6765000000000000000060448201526064016109f6565b600081116114035760405162461bcd60e51b815260206004820181905260248201527f416d6f756e74204d7573742062652067726561746572207468616e207a65726f60448201526064016109f6565b60ff8216600114156115a55761011b5460ff16156114635760405162461bcd60e51b815260206004820152601860248201527f53656e696f7220537562706f6f6c206973206c6f636b6564000000000000000060448201526064016109f6565b3360009081527f2892c78fbc31f59255f157a1512973f37f8ab9b97be744fa9c97d26a902864ae602052604090205460ff166115155760405162461bcd60e51b8152602060048201526044602482018190527f596f75206d75737420686176652053656e696f7220706f6f6c20726f6c652069908201527f6e206f7264657220746f206465706f73697420696e2073656e696f72207375626064820152631c1bdbdb60e21b608482015260a4016109f6565b61011a5481111561158e5760405162461bcd60e51b815260206004820152603b60248201527f416d6f756e7420657863656564732074686520546f74616c206465706f73697460448201527f656420616d6f756e74206f662073656e696f7220737562706f6f6c000000000060648201526084016109f6565b61011a5461159c9082613a9e565b61011a55611832565b60ff821661183257610123544210156116005760405162461bcd60e51b815260206004820181905260248201527f66756e647320617265206c6f636b20756e74696c204c6f616e2054656e75726560448201526064016109f6565b6101225460ff16156116545760405162461bcd60e51b815260206004820152601860248201527f4a756e696f7220537562706f6f6c206973206c6f636b6564000000000000000060448201526064016109f6565b3360009081526101166020908152604080832054610117909252909120805460ff19169183111591821790556116f25760405162461bcd60e51b815260206004820152603560248201527f796f757220776974686472617720616d6f756e7420697320686967686572207460448201527f68616e206465706f736974656420616d6f756e742e000000000000000000000060648201526084016109f6565b6101215481111561176b5760405162461bcd60e51b815260206004820152603b60248201527f416d6f756e7420657863656564732074686520546f74616c206465706f73697460448201527f656420616d6f756e74206f66206a756e696f7220737562706f6f6c000000000060648201526084016109f6565b610121546117799082613a9e565b6101215533600090815261011660205260409020546117989082613a9e565b3360009081526101166020526040902081905561183257336000818152610117602052604090819020805460ff1916905560fd54610100549151631bd3b3dd60e31b8152600481019390935260248301919091526001600160a01b03169063de9d9ee890604401600060405180830381600087803b15801561181957600080fd5b505af115801561182d573d6000803e3d6000fd5b505050505b610109546118409082613a9e565b6101095560fe5461185c906001600160a01b0316303384613ba9565b60405181815260ff83169033907fd5717d2b2bcb82b3f3aea5c8c75e2194c2a7b177469cd9a5cef423e940ab81c7906020015b60405180910390a35050600160c955565b6118ca7f65d7a28e3265b37a6474929f336521b332c1681b933f6cb9f3376673440d862a33610737565b61192b5760405162461bcd60e51b815260206004820152602c60248201527f4d75737420686176652070617573657220726f6c6520746f20706572666f726d60448201526b103a3434b99030b1ba34b7b760a11b60648201526084016109f6565b611933613d66565b565b600054610100900460ff16158080156119555750600054600160ff909116105b8061196f5750303b15801561196f575060005460ff166001145b6119e15760405162461bcd60e51b815260206004820152602e60248201527f496e697469616c697a61626c653a20636f6e747261637420697320616c72656160448201527f647920696e697469616c697a656400000000000000000000000000000000000060648201526084016109f6565b6000805460ff191660011790558015611a04576000805461ff0019166101001790555b611a0c613db8565b8015611a52576000805461ff0019169055604051600181527f7f26b83ff96e1f2b6a682f133852f6798a09c465da95921460cefb38474024989060200160405180910390a15b50565b6000600260c9541415611aaa5760405162461bcd60e51b815260206004820152601f60248201527f5265656e7472616e637947756172643a207265656e7472616e742063616c6c0060448201526064016109f6565b600260c955611ab7613b56565b600160ff83161115611b0b5760405162461bcd60e51b815260206004820152601860248201527f537562706f6f6c4944203a206f7574206f662072616e6765000000000000000060448201526064016109f6565b60fc5461010054604051638176715560e01b81526001600160a01b0390921691638176715591611b419160040190815260200190565b60206040518083038186803b158015611b5957600080fd5b505afa158015611b6d573d6000803e3d6000fd5b505050506040513d601f19601f82011682018060405250810190611b9191906147c9565b1515600114611bf55760405162461bcd60e51b815260206004820152602a60248201527f46756e647320696e206f70706f7274756e69747920686176656e2774206472616044820152693bb237bbb7103cb2ba1760b11b60648201526084016109f6565b600060ff831660011415611dc55761011b5460ff1615611c575760405162461bcd60e51b815260206004820152601860248201527f53656e696f7220537562706f6f6c206973206c6f636b6564000000000000000060448201526064016109f6565b3360009081527f2892c78fbc31f59255f157a1512973f37f8ab9b97be744fa9c97d26a902864ae602052604090205460ff16611d095760405162461bcd60e51b8152602060048201526044602482018190527f596f75206d75737420686176652053656e696f7220706f6f6c20726f6c652069908201527f6e206f7264657220746f206465706f73697420696e2073656e696f72207375626064820152631c1bdbdb60e21b608482015260a4016109f6565b61011a54611d7f5760405162461bcd60e51b815260206004820152602b60248201527f62616c616e6365206f662073656e696f7220737562706f6f6c206973207a657260448201527f6f2063757272656e746c7900000000000000000000000000000000000000000060648201526084016109f6565b61011d5461011a54611d9091613ac9565b61011e5490915015611db45761011e54611dab908290613ac9565b600061011e5590505b600061011a81905561011d556120d2565b60ff83166120d2576101225460ff1615611e215760405162461bcd60e51b815260206004820152601860248201527f4a756e696f7220537562706f6f6c206973206c6f636b6564000000000000000060448201526064016109f6565b336000908152610117602052604090205460ff1615156001148015611e555750336000908152610116602052604090205415155b611ea15760405162461bcd60e51b815260206004820152601760248201527f7a65726f20616d6f756e7420746f206465706f7369742e00000000000000000060448201526064016109f6565b6101215433600090815261011660205260409020541115611f1a5760405162461bcd60e51b815260206004820152602d60248201527f63757272656e746c79206a756e696f7220737562706f6f6c20646f6e2774206860448201526c617665204c697175696469747960981b60648201526084016109f6565b336000908152610116602052604081205461011254611f4191620f424091610b1791613abd565b61012454909150811115611fad5760405162461bcd60e51b815260206004820152602d60248201527f63757272656e746c79206a756e696f7220737562706f6f6c20646f6e2774206860448201526c617665204c697175696469747960981b60648201526084016109f6565b336000908152610116602052604090205461012154611fcb91613a9e565b6101215561012454611fdd9082613a9e565b6101245533600090815261011760209081526040808320805460ff1916905561011690915281208190556120119082613ac9565b61012554909250156120675733600090815261011660205260408120546101145461204491620f424091610b1791613abd565b90506120508382613ac9565b610125549093506120619082613a9e565b61012555505b60fd5461010054604051631bd3b3dd60e31b815233600482015260248101919091526001600160a01b039091169063de9d9ee890604401600060405180830381600087803b1580156120b857600080fd5b505af11580156120cc573d6000803e3d6000fd5b50505050505b610109546120e09082613a9e565b6101095560fe546120fc906001600160a01b0316303384613ba9565b600160c95592915050565b3360009081527f0cc05db404293ecdddd3d47ddbcbafd5d44e2adcb65cd3b9fb9fd65c065747be602052604090205460ff1661219c5760405162461bcd60e51b815260206004820152602e60248201527f4d757374206861766520626f72726f77657220726f6c6520746f20706572666f60448201526d3936903a3434b99030b1ba34b7b760911b60648201526084016109f6565b600160ff821611156121f05760405162461bcd60e51b815260206004820152601860248201527f537562706f6f6c4944203a206f7574206f662072616e6765000000000000000060448201526064016109f6565b60ff81166001141561220d5761011b805460ff1916600117905550565b60ff8116611a5257610122805460ff1916600117905550565b336000908152610117602052604081205460ff161515600114801561225a5750336000908152610116602052604090205415155b6122a65760405162461bcd60e51b815260206004820152601960248201527f7a65726f20616d6f756e7420746f206465706f73697465642e0000000000000060448201526064016109f6565b60fc5461010054604051638176715560e01b815260048101919091526000916001600160a01b03169063817671559060240160206040518083038186803b1580156122f057600080fd5b505afa158015612304573d6000803e3d6000fd5b505050506040513d601f19601f8201168201806040525081019061232891906147c9565b1515600114156123bc5733600090815261011660205260408120546101125461235991620f424091610b1791613abd565b33600090815261011660205260409020549091506123779082613ac9565b61012554909250156123ba573360009081526101166020526040812054610114546123aa91620f424091610b1791613abd565b90506123b68382613ac9565b9250505b505b919050565b610103805461127e90614b0a565b6123f97f65d7a28e3265b37a6474929f336521b332c1681b933f6cb9f3376673440d862a33610737565b61245a5760405162461bcd60e51b815260206004820152602c60248201527f4d75737420686176652070617573657220726f6c6520746f20706572666f726d60448201526b103a3434b99030b1ba34b7b760a11b60648201526084016109f6565b611933613e2f565b600054610100900460ff166124cd5760405162461bcd60e51b815260206004820152602b60248201527f496e697469616c697a61626c653a20636f6e7472616374206973206e6f74206960448201526a6e697469616c697a696e6760a81b60648201526084016109f6565b6001600160a01b0381166125235760405162461bcd60e51b815260206004820181905260248201527f4f776e65722063616e6e6f7420626520746865207a65726f206164647265737360448201526064016109f6565b61252b613e6c565b612533613db8565b61253b613ed7565b6125657fa49807205ce4d355092ef5a8a18f56e8913cf4a201fbe287825b095693c2177582613f49565b61258f7f65d7a28e3265b37a6474929f336521b332c1681b933f6cb9f3376673440d862a82613f49565b6125d97f65d7a28e3265b37a6474929f336521b332c1681b933f6cb9f3376673440d862a7fa49807205ce4d355092ef5a8a18f56e8913cf4a201fbe287825b095693c21775613f53565b611a527fa49807205ce4d355092ef5a8a18f56e8913cf4a201fbe287825b095693c2177580613f53565b600061262f7fa49807205ce4d355092ef5a8a18f56e8913cf4a201fbe287825b095693c2177533610737565b905090565b3360009081527f0cc05db404293ecdddd3d47ddbcbafd5d44e2adcb65cd3b9fb9fd65c065747be602052604090205460ff166126c95760405162461bcd60e51b815260206004820152602e60248201527f4d757374206861766520626f72726f77657220726f6c6520746f20706572666f60448201526d3936903a3434b99030b1ba34b7b760911b60648201526084016109f6565b600160ff8216111561271d5760405162461bcd60e51b815260206004820152601860248201527f537562706f6f6c4944203a206f7574206f662072616e6765000000000000000060448201526064016109f6565b60ff8116600114156127375761011b805460ff1916905550565b60ff8116611a5257610122805460ff1916905550565b60008281526065602052604090206001015461276881613c37565b61116a8383613ce3565b61011e5461011d5460009161262f91614a59565b600054610100900460ff16158080156127a65750600054600160ff909116105b806127c05750303b1580156127c0575060005460ff166001145b6128325760405162461bcd60e51b815260206004820152602e60248201527f496e697469616c697a61626c653a20636f6e747261637420697320616c72656160448201527f647920696e697469616c697a656400000000000000000000000000000000000060648201526084016109f6565b6000805460ff191660011790558015612855576000805461ff0019166101001790555b6001600160a01b038b166128ab5760405162461bcd60e51b815260206004820152601660248201527f496e76616c696420636f6e66696720616464726573730000000000000000000060448201526064016109f6565b60fb80546001600160a01b0319166001600160a01b038d169081179091556000906128d590613f9e565b90506001600160a01b03811661292d5760405162461bcd60e51b815260206004820152600d60248201527f496e76616c6964204f776e65720000000000000000000000000000000000000060448201526064016109f6565b60fb54612942906001600160a01b031661401f565b60fc80546001600160a01b0319166001600160a01b0392831617905560fb5461296b9116614037565b60fd80546001600160a01b0319166001600160a01b039290921691909117905561299481612462565b60fb546129a9906001600160a01b031661404f565b60fe80546001600160a01b0319166001600160a01b0392831617905560fb546129d29116614067565b60ff80546001600160a01b0319166001600160a01b0392909216919091179055612a3c7fa794a061bac4a541306b6778cc120a221216f325de0020c39b67101d49158ca27fa49807205ce4d355092ef5a8a18f56e8913cf4a201fbe287825b095693c21775613f53565b60fb54612a7c907fa794a061bac4a541306b6778cc120a221216f325de0020c39b67101d49158ca290612a77906001600160a01b031661407f565b613f49565b612ac67f2344277e405079ec07749d374ba0b5862a4e45a6a05ac889dbb4a991c6f9354d7fa49807205ce4d355092ef5a8a18f56e8913cf4a201fbe287825b095693c21775613f53565b612b107ffa4b6f760d780a02797df53a6c2ccf476001dc02ee4f9b6b1426dafc21ff6baf7fa49807205ce4d355092ef5a8a18f56e8913cf4a201fbe287825b095693c21775613f53565b612b3a7ffa4b6f760d780a02797df53a6c2ccf476001dc02ee4f9b6b1426dafc21ff6baf82613f49565b60fc546040517f728c3ea2000000000000000000000000000000000000000000000000000000008152600481018d90526000916001600160a01b03169063728c3ea29060240160206040518083038186803b158015612b9857600080fd5b505afa158015612bac573d6000803e3d6000fd5b505050506040513d601f19601f82011682018060405250810190612bd091906147ad565b9050612bfc7f2344277e405079ec07749d374ba0b5862a4e45a6a05ac889dbb4a991c6f9354d82613f49565b6101008c90558a51612c16906101039060208e0190614655565b50610101805460ff191660ff8c161790556101028990556101048890556101058790556101068690558451612c5390610107906020880190614655565b50610108849055600161010b5560fb546040517fe4a3d784000000000000000000000000000000000000000000000000000000008152600481018e90526001600160a01b039091169063e4a3d7849060240160206040518083038186803b158015612cbd57600080fd5b505afa158015612cd1573d6000803e3d6000fd5b505050506040513d601f19601f82011682018060405250810190612cf591906147c9565b612d795761011b805460ff1916600117905560fb54600090612d3890612d23906001600160a01b0316613ad5565b612d2e906001614a59565b6101025490613ab1565b60fb54909150612d5b90612d54906001600160a01b0316613ad5565b8290613abd565b61011981905561010254612d6f9190614ab0565b6101205550612d90565b610122805460ff1916600117905561010254610119555b60006101045462015180612da49190614a91565b9050612db08142614a59565b6101235561010554600090612deb90612de190620f424090610b1790612dd7906064613ab1565b6101025490613abd565b6101025490613ac9565b9050612e10612e096101065461010454613ab190919063ffffffff16565b8290613ab1565b61010d5560fb54600090612e3a90612e30906001600160a01b0316614097565b6101055490613ac9565b9050612e526101045482613ab190919063ffffffff16565b61010f81905550612e83620f4240610b4e612d2e620f4240610b4e6101065461010454613ab190919063ffffffff16565b61010e556101065461010454612e9891613ab1565b61010c55612ea4613003565b6101125561011155612eb4610b6b565b610114556101135560fe546040517f095ea7b300000000000000000000000000000000000000000000000000000000815230600482015260001960248201526000916001600160a01b03169063095ea7b390604401602060405180830381600087803b158015612f2357600080fd5b505af1158015612f37573d6000803e3d6000fd5b505050506040513d601f19601f82011682018060405250810190612f5b91906147c9565b905080612faa5760405162461bcd60e51b815260206004820152601660248201527f4661696c656420746f20617070726f766520555344430000000000000000000060448201526064016109f6565b5050505050508015612ff6576000805461ff0019169055604051600181527f7f26b83ff96e1f2b6a682f133852f6798a09c465da95921460cefb38474024989060200160405180910390a15b5050505050505050505050565b60fb546000908190620f4240908290613067908390610b179061305890613032906001600160a01b03166140af565b60fb546130529061304b906001600160a01b03166140c7565b8890613a9e565b90613a9e565b61010554610b4e906064613ab1565b60fb549091506000906130cc90620f424090610b1790613058906130ac90613097906001600160a01b0316613ad5565b60fb54610b4e906001600160a01b03166140af565b60fb54610ffe906130c5906001600160a01b03166140c7565b8990613a9e565b91959194509092505050565b600061010c5461010b5411156131305760405162461bcd60e51b815260206004820152601960248201527f52657061796d656e742050726f6365737320697320646f6e650000000000000060448201526064016109f6565b600061099c613154610106546201518061314a9190614a91565b61010b5490613abd565b61010a5490613ac9565b600260c95414156131b15760405162461bcd60e51b815260206004820152601f60248201527f5265656e7472616e637947756172643a207265656e7472616e742063616c6c0060448201526064016109f6565b600260c9556131be613b56565b3360009081527f3a5c5fdc6d68aca0335558f1dead9769256edaf7721e28efaba2044a61fcc1c2602052604090205460ff166132535760405162461bcd60e51b815260206004820152602e60248201527f4d757374206861766520626f72726f77657220726f6c6520746f20706572666f60448201526d3936903a3434b99030b1ba34b7b760911b60648201526084016109f6565b60fc5461010054604051630231155f60e51b81526001600160a01b0390921691634622abe0916132899160040190815260200190565b60206040518083038186803b1580156132a157600080fd5b505afa1580156132b5573d6000803e3d6000fd5b505050506040513d601f19601f820116820180604052508101906132d991906147c9565b1561334c5760405162461bcd60e51b815260206004820152602a60248201527f46756e647320696e206f70706f7274756e6974792061726520616c726561647960448201527f2064726177646f776e2e0000000000000000000000000000000000000000000060648201526084016109f6565b6101155460ff16156133a05760405162461bcd60e51b815260206004820152601260248201527f44726177646f776e20697320706175736564000000000000000000000000000060448201526064016109f6565b6101025461010954146134415760405162461bcd60e51b815260206004820152604760248201527f546f74616c204465706f736974656420616d6f756e7420696e206f70706f727460448201527f756e69747920706f6f6c206d75737420626520657175616c20746f206c6f616e60648201527f20616d6f756e7400000000000000000000000000000000000000000000000000608482015260a4016109f6565b610109805460009182905561012182905561011a919091554261010a5560fc54610100546040517faf7ea9440000000000000000000000000000000000000000000000000000000081526001600160a01b039092169163af7ea944916134ad9160040190815260200190565b600060405180830381600087803b1580156134c757600080fd5b505af11580156134db573d6000803e3d6000fd5b505060fe546134f892506001600160a01b03169050303384613ba9565b50600160c955565b600260c95414156135535760405162461bcd60e51b815260206004820152601f60248201527f5265656e7472616e637947756172643a207265656e7472616e742063616c6c0060448201526064016109f6565b600260c955613560613b56565b600160ff831611156135b45760405162461bcd60e51b815260206004820152601860248201527f537562706f6f6c4944203a206f7574206f662072616e6765000000000000000060448201526064016109f6565b600081116136045760405162461bcd60e51b815260206004820181905260248201527f416d6f756e74204d7573742062652067726561746572207468616e207a65726f60448201526064016109f6565b60ff8216600114156137bc5761011b5460ff16156136645760405162461bcd60e51b815260206004820152601860248201527f53656e696f7220537562706f6f6c206973206c6f636b6564000000000000000060448201526064016109f6565b3360009081527f2892c78fbc31f59255f157a1512973f37f8ab9b97be744fa9c97d26a902864ae602052604090205460ff166137165760405162461bcd60e51b8152602060048201526044602482018190527f596f75206d75737420686176652053656e696f7220706f6f6c20726f6c652069908201527f6e206f7264657220746f206465706f73697420696e2073656e696f72207375626064820152631c1bdbdb60e21b608482015260a4016109f6565b61011a54600090613728908390613ac9565b610119549091508111156137a45760405162461bcd60e51b815260206004820152603860248201527f416d6f756e7420657863656564732074686520546f74616c206465706f73697460448201527f206c696d6974206f662073656e696f7220737562706f6f6c000000000000000060648201526084016109f6565b61011a546137b29083613ac9565b61011a5550613a3d565b60ff8216613a3d576101225460ff16156138185760405162461bcd60e51b815260206004820152601860248201527f4a756e696f7220537562706f6f6c206973206c6f636b6564000000000000000060448201526064016109f6565b6101215460009061382a908390613ac9565b610120549091508111156138a65760405162461bcd60e51b815260206004820152603860248201527f416d6f756e7420657863656564732074686520546f74616c206465706f73697460448201527f206c696d6974206f66206a756e696f7220737562706f6f6c000000000000000060648201526084016109f6565b610121546138b49083613ac9565b6101215533600090815261011660205260409020546138d39083613ac9565b33600081815261011660209081526040808320949094556101179052829020805460ff1916600117905560fd546101005492517fe954539d000000000000000000000000000000000000000000000000000000008152600481019290925260248201929092526001600160a01b039091169063e954539d9060440160206040518083038186803b15801561396657600080fd5b505afa15801561397a573d6000803e3d6000fd5b505050506040513d601f19601f8201168201806040525081019061399e91906147c9565b613a255760fd54610100546040517fa68a132200000000000000000000000000000000000000000000000000000000815233600482015260248101919091526001600160a01b039091169063a68a132290604401600060405180830381600087803b158015613a0c57600080fd5b505af1158015613a20573d6000803e3d6000fd5b505050505b610120548110613a3b5761011b805460ff191690555b505b61010954613a4b9082613ac9565b6101095560fe54613a67906001600160a01b0316333084613ba9565b60405181815260ff83169033907f1d0787aee899a49ef81d0b11da9aca5455b46aefed042a41bd398d74619cab009060200161188f565b6000613aaa8284614ab0565b9392505050565b6000613aaa8284614a71565b6000613aaa8284614a91565b6000613aaa8284614a59565b60006001600160a01b03821663fc563658825b6040518263ffffffff1660e01b8152600401613b0691815260200190565b60206040518083038186803b158015613b1e57600080fd5b505afa158015613b32573d6000803e3d6000fd5b505050506040513d601f19601f8201168201806040525081019061099c919061492e565b60975460ff16156119335760405162461bcd60e51b815260206004820152601060248201527f5061757361626c653a207061757365640000000000000000000000000000000060448201526064016109f6565b604080516001600160a01b0385811660248301528416604482015260648082018490528251808303909101815260849091019091526020810180517bffffffffffffffffffffffffffffffffffffffffffffffffffffffff167f23b872dd00000000000000000000000000000000000000000000000000000000179052613c319085906140df565b50505050565b611a5281336141c4565b60008281526065602090815260408083206001600160a01b038516845290915290205460ff1661126c5760008281526065602090815260408083206001600160a01b03851684529091529020805460ff19166001179055613c9f3390565b6001600160a01b0316816001600160a01b0316837f2f8788117e7eff1d82e926ec794901d17c78024a50270940304540a733656f0d60405160405180910390a45050565b60008281526065602090815260408083206001600160a01b038516845290915290205460ff161561126c5760008281526065602090815260408083206001600160a01b0385168085529252808320805460ff1916905551339285917ff6391f5c32d9c69d2a47ea670b442974b53935d1edc7fd64eb21e047a839171b9190a45050565b613d6e614244565b6097805460ff191690557f5db9ee0a495bf2e6ff9c91a7834c1ba4fdd244a5e8aa4e537bd38aeae4b073aa335b6040516001600160a01b03909116815260200160405180910390a1565b600054610100900460ff16613e235760405162461bcd60e51b815260206004820152602b60248201527f496e697469616c697a61626c653a20636f6e7472616374206973206e6f74206960448201526a6e697469616c697a696e6760a81b60648201526084016109f6565b6097805460ff19169055565b613e37613b56565b6097805460ff191660011790557f62e78cea01bee320cd4e420270b5ea74000d11b0c9f74754ebdbfc544b05a258613d9b3390565b600054610100900460ff166119335760405162461bcd60e51b815260206004820152602b60248201527f496e697469616c697a61626c653a20636f6e7472616374206973206e6f74206960448201526a6e697469616c697a696e6760a81b60648201526084016109f6565b600054610100900460ff16613f425760405162461bcd60e51b815260206004820152602b60248201527f496e697469616c697a61626c653a20636f6e7472616374206973206e6f74206960448201526a6e697469616c697a696e6760a81b60648201526084016109f6565b600160c955565b61126c8282613c41565b600082815260656020526040808220600101805490849055905190918391839186917fbd79b86ffe0ab8e8776151514217cd7cacd52c909f66475c3af44e129f0b00ff9190a4505050565b60006001600160a01b03821663b93f9b0a825b6040518263ffffffff1660e01b8152600401613fcf91815260200190565b60206040518083038186803b158015613fe757600080fd5b505afa158015613ffb573d6000803e3d6000fd5b505050506040513d601f19601f8201168201806040525081019061099c91906147ad565b60006001600160a01b03821663b93f9b0a6006613fb1565b60006001600160a01b03821663b93f9b0a6007613fb1565b60006001600160a01b03821663b93f9b0a6002613fb1565b60006001600160a01b03821663b93f9b0a6001613fb1565b60006001600160a01b03821663b93f9b0a6003613fb1565b60006001600160a01b03821663fc5636586002613ae8565b60006001600160a01b03821663fc5636586003613ae8565b60006001600160a01b03821663fc5636586001613ae8565b6000614134826040518060400160405280602081526020017f5361666545524332303a206c6f772d6c6576656c2063616c6c206661696c6564815250856001600160a01b03166142969092919063ffffffff16565b80519091501561116a578080602001905181019061415291906147c9565b61116a5760405162461bcd60e51b815260206004820152602a60248201527f5361666545524332303a204552433230206f7065726174696f6e20646964206e60448201527f6f7420737563636565640000000000000000000000000000000000000000000060648201526084016109f6565b60008281526065602090815260408083206001600160a01b038516845290915290205460ff1661126c57614202816001600160a01b031660146142ad565b61420d8360206142ad565b60405160200161421e9291906149a5565b60408051601f198184030181529082905262461bcd60e51b82526109f691600401614a26565b60975460ff166119335760405162461bcd60e51b815260206004820152601460248201527f5061757361626c653a206e6f742070617573656400000000000000000000000060448201526064016109f6565b60606142a584846000856144d4565b949350505050565b606060006142bc836002614a91565b6142c7906002614a59565b67ffffffffffffffff8111156142ed57634e487b7160e01b600052604160045260246000fd5b6040519080825280601f01601f191660200182016040528015614317576020820181803683370190505b5090507f30000000000000000000000000000000000000000000000000000000000000008160008151811061435c57634e487b7160e01b600052603260045260246000fd5b60200101906001600160f81b031916908160001a9053507f7800000000000000000000000000000000000000000000000000000000000000816001815181106143b557634e487b7160e01b600052603260045260246000fd5b60200101906001600160f81b031916908160001a90535060006143d9846002614a91565b6143e4906001614a59565b90505b6001811115614485577f303132333435363738396162636465660000000000000000000000000000000085600f166010811061443357634e487b7160e01b600052603260045260246000fd5b1a60f81b82828151811061445757634e487b7160e01b600052603260045260246000fd5b60200101906001600160f81b031916908160001a90535060049490941c9361447e81614af3565b90506143e7565b508315613aaa5760405162461bcd60e51b815260206004820181905260248201527f537472696e67733a20686578206c656e67746820696e73756666696369656e7460448201526064016109f6565b60608247101561454c5760405162461bcd60e51b815260206004820152602660248201527f416464726573733a20696e73756666696369656e742062616c616e636520666f60448201527f722063616c6c000000000000000000000000000000000000000000000000000060648201526084016109f6565b6001600160a01b0385163b6145a35760405162461bcd60e51b815260206004820152601d60248201527f416464726573733a2063616c6c20746f206e6f6e2d636f6e747261637400000060448201526064016109f6565b600080866001600160a01b031685876040516145bf9190614989565b60006040518083038185875af1925050503d80600081146145fc576040519150601f19603f3d011682016040523d82523d6000602084013e614601565b606091505b509150915061461182828661461c565b979650505050505050565b6060831561462b575081613aaa565b82511561463b5782518084602001fd5b8160405162461bcd60e51b81526004016109f69190614a26565b82805461466190614b0a565b90600052602060002090601f01602090048101928261468357600085556146c9565b82601f1061469c57805160ff19168380011785556146c9565b828001600101855582156146c9579182015b828111156146c95782518255916020019190600101906146ae565b506146d59291506146d9565b5090565b5b808211156146d557600081556001016146da565b80356123bc81614b6b565b600082601f830112614709578081fd5b813567ffffffffffffffff8082111561472457614724614b55565b604051601f8301601f19908116603f0116810190828211818310171561474c5761474c614b55565b81604052838152866020858801011115614764578485fd5b8360208701602083013792830160200193909352509392505050565b803560ff811681146123bc57600080fd5b6000602082840312156147a2578081fd5b8135613aaa81614b6b565b6000602082840312156147be578081fd5b8151613aaa81614b6b565b6000602082840312156147da578081fd5b81518015158114613aaa578182fd5b6000602082840312156147fa578081fd5b5035919050565b60008060408385031215614813578081fd5b82359150602083013561482581614b6b565b809150509250929050565b600060208284031215614841578081fd5b81357fffffffff0000000000000000000000000000000000000000000000000000000081168114613aaa578182fd5b6000806000806000806000806000806101408b8d03121561488f578586fd5b6148988b6146ee565b995060208b0135985060408b013567ffffffffffffffff808211156148bb578788fd5b6148c78e838f016146f9565b99506148d560608e01614780565b985060808d0135975060a08d0135965060c08d0135955060e08d013594506101008d0135915080821115614907578384fd5b506149148d828e016146f9565b9250506101208b013590509295989b9194979a5092959850565b60006020828403121561493f578081fd5b5051919050565b600060208284031215614957578081fd5b613aaa82614780565b60008060408385031215614972578182fd5b61497b83614780565b946020939093013593505050565b6000825161499b818460208701614ac7565b9190910192915050565b7f416363657373436f6e74726f6c3a206163636f756e74200000000000000000008152600083516149dd816017850160208801614ac7565b7f206973206d697373696e6720726f6c65200000000000000000000000000000006017918401918201528351614a1a816028840160208801614ac7565b01602801949350505050565b6020815260008251806020840152614a45816040850160208701614ac7565b601f01601f19169190910160400192915050565b60008219821115614a6c57614a6c614b3f565b500190565b600082614a8c57634e487b7160e01b81526012600452602481fd5b500490565b6000816000190483118215151615614aab57614aab614b3f565b500290565b600082821015614ac257614ac2614b3f565b500390565b60005b83811015614ae2578181015183820152602001614aca565b83811115613c315750506000910152565b600081614b0257614b02614b3f565b506000190190565b600181811c90821680614b1e57607f821691505b602082108114156123ba57634e487b7160e01b600052602260045260246000fd5b634e487b7160e01b600052601160045260246000fd5b634e487b7160e01b600052604160045260246000fd5b6001600160a01b0381168114611a5257600080fdfea26469706673582212208417af13c1950f3a44b2d01775109c711df482302fc52c4700f00355c98da3d064736f6c63430008040033",
  "linkReferences": {},
  "deployedLinkReferences": {}
}