{
  "_format": "hh-sol-artifact-1",
  "contractName": "OpportunityPool",
  "sourceName": "contracts/protocol/OpportunityPool.sol",
  "abi": [
    {
      "anonymous": false,
      "inputs": [
        {
          "indexed": false,
          "internalType": "address",
          "name": "previousAdmin",
          "type": "address"
        },
        {
          "indexed": false,
          "internalType": "address",
          "name": "newAdmin",
          "type": "address"
        }
      ],
      "name": "AdminChanged",
      "type": "event"
    },
    {
      "anonymous": false,
      "inputs": [
        {
          "indexed": true,
          "internalType": "address",
          "name": "beacon",
          "type": "address"
        }
      ],
      "name": "BeaconUpgraded",
      "type": "event"
    },
    {
      "anonymous": false,
      "inputs": [
        {
          "indexed": true,
          "internalType": "address",
          "name": "executor",
          "type": "address"
        },
        {
          "indexed": true,
          "internalType": "uint8",
          "name": "subpool",
          "type": "uint8"
        },
        {
          "indexed": false,
          "internalType": "uint256",
          "name": "amount",
          "type": "uint256"
        }
      ],
      "name": "Deposited",
      "type": "event"
    },
    {
      "anonymous": false,
      "inputs": [
        {
          "indexed": false,
          "internalType": "uint8",
          "name": "version",
          "type": "uint8"
        }
      ],
      "name": "Initialized",
      "type": "event"
    },
    {
      "anonymous": false,
      "inputs": [
        {
          "indexed": false,
          "internalType": "address",
          "name": "account",
          "type": "address"
        }
      ],
      "name": "Paused",
      "type": "event"
    },
    {
      "anonymous": false,
      "inputs": [
        {
          "indexed": true,
          "internalType": "bytes32",
          "name": "role",
          "type": "bytes32"
        },
        {
          "indexed": true,
          "internalType": "bytes32",
          "name": "previousAdminRole",
          "type": "bytes32"
        },
        {
          "indexed": true,
          "internalType": "bytes32",
          "name": "newAdminRole",
          "type": "bytes32"
        }
      ],
      "name": "RoleAdminChanged",
      "type": "event"
    },
    {
      "anonymous": false,
      "inputs": [
        {
          "indexed": true,
          "internalType": "bytes32",
          "name": "role",
          "type": "bytes32"
        },
        {
          "indexed": true,
          "internalType": "address",
          "name": "account",
          "type": "address"
        },
        {
          "indexed": true,
          "internalType": "address",
          "name": "sender",
          "type": "address"
        }
      ],
      "name": "RoleGranted",
      "type": "event"
    },
    {
      "anonymous": false,
      "inputs": [
        {
          "indexed": true,
          "internalType": "bytes32",
          "name": "role",
          "type": "bytes32"
        },
        {
          "indexed": true,
          "internalType": "address",
          "name": "account",
          "type": "address"
        },
        {
          "indexed": true,
          "internalType": "address",
          "name": "sender",
          "type": "address"
        }
      ],
      "name": "RoleRevoked",
      "type": "event"
    },
    {
      "anonymous": false,
      "inputs": [
        {
          "indexed": false,
          "internalType": "address",
          "name": "account",
          "type": "address"
        }
      ],
      "name": "Unpaused",
      "type": "event"
    },
    {
      "anonymous": false,
      "inputs": [
        {
          "indexed": true,
          "internalType": "address",
          "name": "implementation",
          "type": "address"
        }
      ],
      "name": "Upgraded",
      "type": "event"
    },
    {
      "anonymous": false,
      "inputs": [
        {
          "indexed": true,
          "internalType": "address",
          "name": "executor",
          "type": "address"
        },
        {
          "indexed": true,
          "internalType": "uint8",
          "name": "subpool",
          "type": "uint8"
        },
        {
          "indexed": false,
          "internalType": "uint256",
          "name": "amount",
          "type": "uint256"
        }
      ],
      "name": "Withdrew",
      "type": "event"
    },
    {
      "inputs": [],
      "name": "DEFAULT_ADMIN_ROLE",
      "outputs": [
        {
          "internalType": "bytes32",
          "name": "",
          "type": "bytes32"
        }
      ],
      "stateMutability": "view",
      "type": "function"
    },
    {
      "inputs": [
        {
          "internalType": "address",
          "name": "owner",
          "type": "address"
        }
      ],
      "name": "_BaseUpgradeablePausable_init",
      "outputs": [],
      "stateMutability": "nonpayable",
      "type": "function"
    },
    {
      "inputs": [],
      "name": "__PauserPausable__init",
      "outputs": [],
      "stateMutability": "nonpayable",
      "type": "function"
    },
    {
      "inputs": [],
      "name": "amountWithoutEMI",
      "outputs": [
        {
          "internalType": "uint256",
          "name": "",
          "type": "uint256"
        }
      ],
      "stateMutability": "view",
      "type": "function"
    },
    {
      "inputs": [],
      "name": "dailyInterestRate",
      "outputs": [
        {
          "internalType": "uint256",
          "name": "",
          "type": "uint256"
        }
      ],
      "stateMutability": "view",
      "type": "function"
    },
    {
      "inputs": [
        {
          "internalType": "uint8",
          "name": "_subpoolId",
          "type": "uint8"
        },
        {
          "internalType": "uint256",
          "name": "amount",
          "type": "uint256"
        }
      ],
      "name": "deposit",
      "outputs": [],
      "stateMutability": "nonpayable",
      "type": "function"
    },
    {
      "inputs": [],
      "name": "drawdown",
      "outputs": [],
      "stateMutability": "nonpayable",
      "type": "function"
    },
    {
      "inputs": [],
      "name": "dygnifyConfig",
      "outputs": [
        {
          "internalType": "contract DygnifyConfig",
          "name": "",
          "type": "address"
        }
      ],
      "stateMutability": "view",
      "type": "function"
    },
    {
      "inputs": [],
      "name": "emiAmount",
      "outputs": [
        {
          "internalType": "uint256",
          "name": "",
          "type": "uint256"
        }
      ],
      "stateMutability": "view",
      "type": "function"
    },
    {
      "inputs": [],
      "name": "getOpportunityName",
      "outputs": [
        {
          "internalType": "string",
          "name": "",
          "type": "string"
        }
      ],
      "stateMutability": "view",
      "type": "function"
    },
    {
      "inputs": [],
      "name": "getOverDuePercentage",
      "outputs": [
        {
          "internalType": "uint256",
          "name": "",
          "type": "uint256"
        },
        {
          "internalType": "uint256",
          "name": "",
          "type": "uint256"
        }
      ],
      "stateMutability": "view",
      "type": "function"
    },
    {
      "inputs": [],
      "name": "getRepaymentAmount",
      "outputs": [
        {
          "internalType": "uint256",
          "name": "",
          "type": "uint256"
        }
      ],
      "stateMutability": "view",
      "type": "function"
    },
    {
      "inputs": [
        {
          "internalType": "bytes32",
          "name": "role",
          "type": "bytes32"
        }
      ],
      "name": "getRoleAdmin",
      "outputs": [
        {
          "internalType": "bytes32",
          "name": "",
          "type": "bytes32"
        }
      ],
      "stateMutability": "view",
      "type": "function"
    },
    {
      "inputs": [],
      "name": "getSeniorProfit",
      "outputs": [
        {
          "internalType": "uint256",
          "name": "",
          "type": "uint256"
        }
      ],
      "stateMutability": "view",
      "type": "function"
    },
    {
      "inputs": [],
      "name": "getSeniorTotalDepositable",
      "outputs": [
        {
          "internalType": "uint256",
          "name": "",
          "type": "uint256"
        }
      ],
      "stateMutability": "view",
      "type": "function"
    },
    {
      "inputs": [],
      "name": "getUserWithdrawableAmount",
      "outputs": [
        {
          "internalType": "uint256",
          "name": "",
          "type": "uint256"
        }
      ],
      "stateMutability": "view",
      "type": "function"
    },
    {
      "inputs": [],
      "name": "getYieldPercentage",
      "outputs": [
        {
          "internalType": "uint256",
          "name": "",
          "type": "uint256"
        },
        {
          "internalType": "uint256",
          "name": "",
          "type": "uint256"
        }
      ],
      "stateMutability": "view",
      "type": "function"
    },
    {
      "inputs": [
        {
          "internalType": "bytes32",
          "name": "role",
          "type": "bytes32"
        },
        {
          "internalType": "address",
          "name": "account",
          "type": "address"
        }
      ],
      "name": "grantRole",
      "outputs": [],
      "stateMutability": "nonpayable",
      "type": "function"
    },
    {
      "inputs": [
        {
          "internalType": "bytes32",
          "name": "role",
          "type": "bytes32"
        },
        {
          "internalType": "address",
          "name": "account",
          "type": "address"
        }
      ],
      "name": "hasRole",
      "outputs": [
        {
          "internalType": "bool",
          "name": "",
          "type": "bool"
        }
      ],
      "stateMutability": "view",
      "type": "function"
    },
    {
      "inputs": [
        {
          "internalType": "contract DygnifyConfig",
          "name": "_dygnifyConfig",
          "type": "address"
        },
        {
          "internalType": "bytes32",
          "name": "_opportunityID",
          "type": "bytes32"
        },
        {
          "internalType": "uint256",
          "name": "_loanAmount",
          "type": "uint256"
        },
        {
          "internalType": "uint256",
          "name": "_loanTenureInDays",
          "type": "uint256"
        },
        {
          "internalType": "uint256",
          "name": "_loanInterest",
          "type": "uint256"
        },
        {
          "internalType": "uint256",
          "name": "_paymentFrequencyInDays",
          "type": "uint256"
        },
        {
          "internalType": "uint8",
          "name": "_loanType",
          "type": "uint8"
        }
      ],
      "name": "initialize",
      "outputs": [],
      "stateMutability": "nonpayable",
      "type": "function"
    },
    {
      "inputs": [],
      "name": "investor",
      "outputs": [
        {
          "internalType": "contract IInvestor",
          "name": "",
          "type": "address"
        }
      ],
      "stateMutability": "view",
      "type": "function"
    },
    {
      "inputs": [],
      "name": "isAdmin",
      "outputs": [
        {
          "internalType": "bool",
          "name": "",
          "type": "bool"
        }
      ],
      "stateMutability": "view",
      "type": "function"
    },
    {
      "inputs": [],
      "name": "isDrawdownsPaused",
      "outputs": [
        {
          "internalType": "bool",
          "name": "",
          "type": "bool"
        }
      ],
      "stateMutability": "view",
      "type": "function"
    },
    {
      "inputs": [
        {
          "internalType": "address",
          "name": "",
          "type": "address"
        }
      ],
      "name": "isStaking",
      "outputs": [
        {
          "internalType": "bool",
          "name": "",
          "type": "bool"
        }
      ],
      "stateMutability": "view",
      "type": "function"
    },
    {
      "inputs": [],
      "name": "juniorOverduePerecentage",
      "outputs": [
        {
          "internalType": "uint256",
          "name": "",
          "type": "uint256"
        }
      ],
      "stateMutability": "view",
      "type": "function"
    },
    {
      "inputs": [],
      "name": "juniorSubpoolDetails",
      "outputs": [
        {
          "internalType": "uint256",
          "name": "id",
          "type": "uint256"
        },
        {
          "internalType": "uint256",
          "name": "totalDepositable",
          "type": "uint256"
        },
        {
          "internalType": "uint256",
          "name": "depositedAmount",
          "type": "uint256"
        },
        {
          "internalType": "bool",
          "name": "isPoolLocked",
          "type": "bool"
        },
        {
          "internalType": "uint256",
          "name": "fundsLockedUntil",
          "type": "uint256"
        },
        {
          "internalType": "uint256",
          "name": "yieldGenerated",
          "type": "uint256"
        },
        {
          "internalType": "uint256",
          "name": "overdueGenerated",
          "type": "uint256"
        }
      ],
      "stateMutability": "view",
      "type": "function"
    },
    {
      "inputs": [],
      "name": "juniorYieldPerecentage",
      "outputs": [
        {
          "internalType": "uint256",
          "name": "",
          "type": "uint256"
        }
      ],
      "stateMutability": "view",
      "type": "function"
    },
    {
      "inputs": [],
      "name": "loanAmount",
      "outputs": [
        {
          "internalType": "uint256",
          "name": "",
          "type": "uint256"
        }
      ],
      "stateMutability": "view",
      "type": "function"
    },
    {
      "inputs": [],
      "name": "loanInterest",
      "outputs": [
        {
          "internalType": "uint256",
          "name": "",
          "type": "uint256"
        }
      ],
      "stateMutability": "view",
      "type": "function"
    },
    {
      "inputs": [],
      "name": "loanTenureInDays",
      "outputs": [
        {
          "internalType": "uint256",
          "name": "",
          "type": "uint256"
        }
      ],
      "stateMutability": "view",
      "type": "function"
    },
    {
      "inputs": [],
      "name": "loanType",
      "outputs": [
        {
          "internalType": "uint8",
          "name": "",
          "type": "uint8"
        }
      ],
      "stateMutability": "view",
      "type": "function"
    },
    {
      "inputs": [
        {
          "internalType": "uint8",
          "name": "_subpoolId",
          "type": "uint8"
        }
      ],
      "name": "lockPool",
      "outputs": [],
      "stateMutability": "nonpayable",
      "type": "function"
    },
    {
      "inputs": [],
      "name": "lpToken",
      "outputs": [
        {
          "internalType": "contract ILPToken",
          "name": "",
          "type": "address"
        }
      ],
      "stateMutability": "view",
      "type": "function"
    },
    {
      "inputs": [],
      "name": "nextRepaymentTime",
      "outputs": [
        {
          "internalType": "uint256",
          "name": "",
          "type": "uint256"
        }
      ],
      "stateMutability": "view",
      "type": "function"
    },
    {
      "inputs": [],
      "name": "opportunityID",
      "outputs": [
        {
          "internalType": "bytes32",
          "name": "",
          "type": "bytes32"
        }
      ],
      "stateMutability": "view",
      "type": "function"
    },
    {
      "inputs": [],
      "name": "opportunityOrigination",
      "outputs": [
        {
          "internalType": "contract IOpportunityOrigination",
          "name": "",
          "type": "address"
        }
      ],
      "stateMutability": "view",
      "type": "function"
    },
    {
      "inputs": [],
      "name": "pause",
      "outputs": [],
      "stateMutability": "nonpayable",
      "type": "function"
    },
    {
      "inputs": [],
      "name": "pauseDrawdown",
      "outputs": [],
      "stateMutability": "nonpayable",
      "type": "function"
    },
    {
      "inputs": [],
      "name": "paused",
      "outputs": [
        {
          "internalType": "bool",
          "name": "",
          "type": "bool"
        }
      ],
      "stateMutability": "view",
      "type": "function"
    },
    {
      "inputs": [],
      "name": "paymentFrequencyInDays",
      "outputs": [
        {
          "internalType": "uint256",
          "name": "",
          "type": "uint256"
        }
      ],
      "stateMutability": "view",
      "type": "function"
    },
    {
      "inputs": [],
      "name": "poolBalance",
      "outputs": [
        {
          "internalType": "uint256",
          "name": "",
          "type": "uint256"
        }
      ],
      "stateMutability": "view",
      "type": "function"
    },
    {
      "inputs": [],
      "name": "proxiableUUID",
      "outputs": [
        {
          "internalType": "bytes32",
          "name": "",
          "type": "bytes32"
        }
      ],
      "stateMutability": "view",
      "type": "function"
    },
    {
      "inputs": [
        {
          "internalType": "bytes32",
          "name": "role",
          "type": "bytes32"
        },
        {
          "internalType": "address",
          "name": "account",
          "type": "address"
        }
      ],
      "name": "renounceRole",
      "outputs": [],
      "stateMutability": "nonpayable",
      "type": "function"
    },
    {
      "inputs": [],
      "name": "repayment",
      "outputs": [],
      "stateMutability": "nonpayable",
      "type": "function"
    },
    {
      "inputs": [],
      "name": "repaymentCounter",
      "outputs": [
        {
          "internalType": "uint256",
          "name": "",
          "type": "uint256"
        }
      ],
      "stateMutability": "view",
      "type": "function"
    },
    {
      "inputs": [],
      "name": "repaymentStartTime",
      "outputs": [
        {
          "internalType": "uint256",
          "name": "",
          "type": "uint256"
        }
      ],
      "stateMutability": "view",
      "type": "function"
    },
    {
      "inputs": [
        {
          "internalType": "bytes32",
          "name": "role",
          "type": "bytes32"
        },
        {
          "internalType": "address",
          "name": "account",
          "type": "address"
        }
      ],
      "name": "revokeRole",
      "outputs": [],
      "stateMutability": "nonpayable",
      "type": "function"
    },
    {
      "inputs": [],
      "name": "seniorOverduePerecentage",
      "outputs": [
        {
          "internalType": "uint256",
          "name": "",
          "type": "uint256"
        }
      ],
      "stateMutability": "view",
      "type": "function"
    },
    {
      "inputs": [],
      "name": "seniorSubpoolDetails",
      "outputs": [
        {
          "internalType": "uint256",
          "name": "id",
          "type": "uint256"
        },
        {
          "internalType": "uint256",
          "name": "totalDepositable",
          "type": "uint256"
        },
        {
          "internalType": "uint256",
          "name": "depositedAmount",
          "type": "uint256"
        },
        {
          "internalType": "bool",
          "name": "isPoolLocked",
          "type": "bool"
        },
        {
          "internalType": "uint256",
          "name": "fundsLockedUntil",
          "type": "uint256"
        },
        {
          "internalType": "uint256",
          "name": "yieldGenerated",
          "type": "uint256"
        },
        {
          "internalType": "uint256",
          "name": "overdueGenerated",
          "type": "uint256"
        }
      ],
      "stateMutability": "view",
      "type": "function"
    },
    {
      "inputs": [],
      "name": "seniorYieldPerecentage",
      "outputs": [
        {
          "internalType": "uint256",
          "name": "",
          "type": "uint256"
        }
      ],
      "stateMutability": "view",
      "type": "function"
    },
    {
      "inputs": [
        {
          "internalType": "address",
          "name": "",
          "type": "address"
        }
      ],
      "name": "stakingBalance",
      "outputs": [
        {
          "internalType": "uint256",
          "name": "",
          "type": "uint256"
        }
      ],
      "stateMutability": "view",
      "type": "function"
    },
    {
      "inputs": [
        {
          "internalType": "bytes4",
          "name": "interfaceId",
          "type": "bytes4"
        }
      ],
      "name": "supportsInterface",
      "outputs": [
        {
          "internalType": "bool",
          "name": "",
          "type": "bool"
        }
      ],
      "stateMutability": "view",
      "type": "function"
    },
    {
      "inputs": [],
      "name": "totalRepaidAmount",
      "outputs": [
        {
          "internalType": "uint256",
          "name": "",
          "type": "uint256"
        }
      ],
      "stateMutability": "view",
      "type": "function"
    },
    {
      "inputs": [],
      "name": "totalRepayments",
      "outputs": [
        {
          "internalType": "uint256",
          "name": "",
          "type": "uint256"
        }
      ],
      "stateMutability": "view",
      "type": "function"
    },
    {
      "inputs": [
        {
          "internalType": "uint8",
          "name": "_subpoolId",
          "type": "uint8"
        }
      ],
      "name": "unLockPool",
      "outputs": [],
      "stateMutability": "nonpayable",
      "type": "function"
    },
    {
      "inputs": [],
      "name": "unpause",
      "outputs": [],
      "stateMutability": "nonpayable",
      "type": "function"
    },
    {
      "inputs": [],
      "name": "unpauseDrawdown",
      "outputs": [],
      "stateMutability": "nonpayable",
      "type": "function"
    },
    {
      "inputs": [
        {
          "internalType": "address",
          "name": "newImplementation",
          "type": "address"
        }
      ],
      "name": "upgradeTo",
      "outputs": [],
      "stateMutability": "nonpayable",
      "type": "function"
    },
    {
      "inputs": [
        {
          "internalType": "address",
          "name": "newImplementation",
          "type": "address"
        },
        {
          "internalType": "bytes",
          "name": "data",
          "type": "bytes"
        }
      ],
      "name": "upgradeToAndCall",
      "outputs": [],
      "stateMutability": "payable",
      "type": "function"
    },
    {
      "inputs": [],
      "name": "usdcToken",
      "outputs": [
        {
          "internalType": "contract IERC20",
          "name": "",
          "type": "address"
        }
      ],
      "stateMutability": "view",
      "type": "function"
    },
    {
      "inputs": [
        {
          "internalType": "uint8",
          "name": "_subpoolId",
          "type": "uint8"
        },
        {
          "internalType": "uint256",
          "name": "amount",
          "type": "uint256"
        }
      ],
      "name": "withdraw",
      "outputs": [],
      "stateMutability": "nonpayable",
      "type": "function"
    },
    {
      "inputs": [
        {
          "internalType": "uint8",
          "name": "_subpoolId",
          "type": "uint8"
        }
      ],
      "name": "withdrawAll",
      "outputs": [
        {
          "internalType": "uint256",
          "name": "",
          "type": "uint256"
        }
      ],
      "stateMutability": "nonpayable",
      "type": "function"
    },
    {
      "inputs": [],
      "name": "writeOffOpportunity",
      "outputs": [],
      "stateMutability": "nonpayable",
      "type": "function"
    }
  ],
  "bytecode": "0x60a06040523060601b60805234801561001757600080fd5b5060805160601c615e046200005360003960008181611d9701528181611e1c01528181612543015281816125c801526127cd0152615e046000f3fe6080604052600436106103b85760003560e01c80635fcbd285116101f2578063b6db75a01161010d578063dadfecca116100a0578063e77ef21f1161006f578063e77ef21f14610ae4578063eedffb9614610af9578063f4d4c9d714610b10578063ff3a564414610b3057600080fd5b8063dadfecca14610a81578063ddc22b7414610a96578063dee0560914610ab8578063df9fd1c114610acf57600080fd5b8063c8dd7bf3116100dc578063c8dd7bf3146109fc578063cab9bd0014610a13578063d547741f14610a4c578063d661d32014610a6c57600080fd5b8063b6db75a014610990578063bbbf13ea146109a5578063c4f31a65146109bc578063c5e2bf1a146109dc57600080fd5b806396365d44116101855780639f964fe6116101545780639f964fe61461092e578063a12dde4d14610944578063a217fddf14610964578063a7292ea41461097957600080fd5b806396365d44146108d257806399e7f250146108e95780639b021fa2146109005780639d585f7f1461091757600080fd5b80637fca631f116101c15780637fca631f146108495780638456cb5914610860578063891369b21461087557806391d148541461088c57600080fd5b80635fcbd285146107c25780636a15633b146107e35780636f49712b146108035780637101fd161461083457600080fd5b8063257c2736116102e257806345bc78ab1161027557806352d1902d1161024457806352d1902d1461075e57806353654e85146107735780635b483e4c146107935780635c975abb146107aa57600080fd5b806345bc78ab146106f157806346e35faa1461071f5780634f1ef28614610736578063526d81f61461074957600080fd5b806336568abe116102b157806336568abe1461067c5780633659cfe61461069c5780633f489914146106bc5780633f4ba83a146106dc57600080fd5b8063257c2736146106115780632588d168146106265780632f2ff15d1461064757806334d93fb41461066757600080fd5b806311eac8551161035a5780631e0018d6116103295780631e0018d6146105925780632159e458146105b357806322eac12c146105ca578063248a9ca3146105e157600080fd5b806311eac8551461050c57806317cd802d146105455780631be954591461055a5780631daa910e1461057b57600080fd5b8063074f254311610396578063074f25431461048d57806307a7c08a146104b05780630a2c1505146104da5780630b4a45fd146104f557600080fd5b806301ffc9a7146103bd57806303199494146103f257806304419b7614610460575b600080fd5b3480156103c957600080fd5b506103dd6103d8366004615a53565b610b47565b60405190151581526020015b60405180910390f35b3480156103fe57600080fd5b506101805461018154610182546101835461018454610185546101865461042b9695949360ff1692919087565b604080519788526020880196909652948601939093529015156060850152608084015260a083015260c082015260e0016103e9565b34801561046c57600080fd5b506101655461047b9060ff1681565b60405160ff90911681526020016103e9565b34801561049957600080fd5b506104a2610bb0565b6040519081526020016103e9565b3480156104bc57600080fd5b506104c5610e37565b604080519283526020830191909152016103e9565b3480156104e657600080fd5b50610176546103dd9060ff1681565b34801561050157600080fd5b5061050a610ef4565b005b34801561051857600080fd5b506101625461052d906001600160a01b031681565b6040516001600160a01b0390911681526020016103e9565b34801561055157600080fd5b5061050a610f6c565b34801561056657600080fd5b5061015f5461052d906001600160a01b031681565b34801561058757600080fd5b506104a26101735481565b34801561059e57600080fd5b506101615461052d906001600160a01b031681565b3480156105bf57600080fd5b506104a261016f5481565b3480156105d657600080fd5b506104a261016d5481565b3480156105ed57600080fd5b506104a26105fc3660046159f4565b60009081526065602052604090206001015490565b34801561061d57600080fd5b5061050a6117e4565b34801561063257600080fd5b506101605461052d906001600160a01b031681565b34801561065357600080fd5b5061050a610662366004615a24565b611c61565b34801561067357600080fd5b5061050a611c8b565b34801561068857600080fd5b5061050a610697366004615a24565b611d00565b3480156106a857600080fd5b5061050a6106b736600461590f565b611d8c565b3480156106c857600080fd5b5061050a6106d7366004615b63565b611f08565b3480156106e857600080fd5b5061050a6124a2565b3480156106fd57600080fd5b506104a261070c36600461590f565b6101776020526000908152604090205481565b34801561072b57600080fd5b506104a26101745481565b61050a610744366004615947565b612538565b34801561075557600080fd5b5061050a6126a1565b34801561076a57600080fd5b506104a26127c0565b34801561077f57600080fd5b506104a261078e366004615b49565b612885565b34801561079f57600080fd5b506104a261016e5481565b3480156107b657600080fd5b5060975460ff166103dd565b3480156107ce57600080fd5b506101635461052d906001600160a01b031681565b3480156107ef57600080fd5b5061050a6107fe366004615b49565b612fc8565b34801561080f57600080fd5b506103dd61081e36600461590f565b6101786020526000908152604090205460ff1681565b34801561084057600080fd5b506104a26130de565b34801561085557600080fd5b506104a26101705481565b34801561086c57600080fd5b5061050a613247565b34801561088157600080fd5b506104a26101715481565b34801561089857600080fd5b506103dd6108a7366004615a24565b60009182526065602090815260408084206001600160a01b0393909316845291905290205460ff1690565b3480156108de57600080fd5b506104a261016a5481565b3480156108f557600080fd5b506104a26101675481565b34801561090c57600080fd5b506104a261016c5481565b34801561092357600080fd5b506104a26101665481565b34801561093a57600080fd5b5061017a546104a2565b34801561095057600080fd5b5061050a61095f36600461590f565b6132d9565b34801561097057600080fd5b506104a2600081565b34801561098557600080fd5b506104a26101685481565b34801561099c57600080fd5b506103dd61347a565b3480156109b157600080fd5b506104a261016b5481565b3480156109c857600080fd5b5061050a6109d7366004615a7b565b6134aa565b3480156109e857600080fd5b5061050a6109f7366004615b49565b613c81565b348015610a0857600080fd5b506104a26101645481565b348015610a1f57600080fd5b506101795461017a5461017b5461017c5461017d5461017e5461017f5461042b9695949360ff1692919087565b348015610a5857600080fd5b5061050a610a67366004615a24565b613d91565b348015610a7857600080fd5b506104a2613db6565b348015610a8d57600080fd5b506104c5613dca565b348015610aa257600080fd5b50610aab613ea1565b6040516103e99190615c29565b348015610ac457600080fd5b506104a26101725481565b348015610adb57600080fd5b506104a2613f41565b348015610af057600080fd5b5061050a613fc7565b348015610b0557600080fd5b506104a26101755481565b348015610b1c57600080fd5b5061050a610b2b366004615b63565b614363565b348015610b3c57600080fd5b506104a26101695481565b60006001600160e01b031982167f7965db0b000000000000000000000000000000000000000000000000000000001480610baa57507f01ffc9a7000000000000000000000000000000000000000000000000000000006001600160e01b03198316145b92915050565b600061016d5461016c541115610c0d5760405162461bcd60e51b815260206004820152601960248201527f52657061796d656e742050726f6365737320697320646f6e650000000000000060448201526064015b60405180910390fd5b6101605461016454604051630231155f60e51b81526001600160a01b0390921691634622abe091610c449160040190815260200190565b60206040518083038186803b158015610c5c57600080fd5b505afa158015610c70573d6000803e3d6000fd5b505050506040513d601f19601f82011682018060405250810190610c9491906159d4565b1515600114610cf85760405162461bcd60e51b815260206004820152602a60248201527f46756e647320696e206f70706f7274756e69747920686176656e2774206472616044820152693bb237bbb7103cb2ba1760b11b6064820152608401610c04565b6101655460009060ff1660011415610d8e575061016e54426000610d1a613f41565b9050600081831115610d7b576000610d3f62015180610d3986866148f3565b90614906565b9050610d77620f42405b610d3961016e54610d71610d6a60646101705461490690919063ffffffff16565b8690614912565b90614912565b9150505b610d85848261491e565b95945050505050565b61016f5461016e54610d9f916148f3565b9050426000610dac613f41565b9050600081831115610df7576000610dcb62015180610d3986866148f3565b9050610df3620f42405b610d3987610d71610d6a60646101705461490690919063ffffffff16565b9150505b610e01848261491e565b935061016d5461016c541415610e2e576101815461017a54610d8591610e27919061491e565b859061491e565b5050505b919050565b600080600061016f5461016e54610e4e9190615d0c565b61015f54909150600090610e8390610e6e906001600160a01b031661492a565b610e79906001615cb5565b61016f5490614906565b61015f54909150600090610eaa90610ea3906001600160a01b031661492a565b8390614912565b90506000610ec884610d39610172548561491290919063ffffffff16565b90506000610ee685610d39610173548761491290919063ffffffff16565b919791965090945050505050565b610efc61347a565b610f5c5760405162461bcd60e51b815260206004820152602b60248201527f4d75737420686176652061646d696e20726f6c6520746f20706572666f726d2060448201526a3a3434b99030b1ba34b7b760a91b6064820152608401610c04565b610176805460ff19166001179055565b610fb17f2344277e405079ec07749d374ba0b5862a4e45a6a05ac889dbb4a991c6f9354d5b600090815260656020908152604080832033845290915290205460ff1690565b6110145760405162461bcd60e51b815260206004820152602e60248201527f4d757374206861766520626f72726f77657220726f6c6520746f20706572666f60448201526d3936903a3434b99030b1ba34b7b760911b6064820152608401610c04565b61016d5461016c54111561106a5760405162461bcd60e51b815260206004820152601960248201527f52657061796d656e742050726f6365737320697320646f6e65000000000000006044820152606401610c04565b6101605461016454604051630231155f60e51b81526001600160a01b0390921691634622abe0916110a19160040190815260200190565b60206040518083038186803b1580156110b957600080fd5b505afa1580156110cd573d6000803e3d6000fd5b505050506040513d601f19601f820116820180604052508101906110f191906159d4565b15156001146111555760405162461bcd60e51b815260206004820152602a60248201527f46756e647320696e206f70706f7274756e69747920686176656e2774206472616044820152693bb237bbb7103cb2ba1760b11b6064820152608401610c04565b6101655460ff166001141561142f5761016e54610171805482919060009061117e908490615cb5565b90915550429050600061118f613f41565b90506000818311156111c05760006111ae62015180610d3986866148f3565b90506111bc620f4240610d49565b9150505b61015f546000906111ea90610e79906001906111e4906001600160a01b031661492a565b9061491e565b61015f5490915060009061120a90610ea3906001600160a01b031661492a565b61017b5490915061121b908261491e565b61017b556101825461122d908361491e565b6101825561125461124a620f42405b61017254610d399085614912565b61017e549061491e565b61017e5561127b611271620f42405b61017354610d399086614912565b610185549061491e565b610185556112a2611298620f42405b61017554610d399087614912565b610186549061491e565b610186556112c96112bf620f42405b61017454610d399087614912565b61017f549061491e565b61017f5561016f5461016e5460009182916112e3916148f3565b905061130e620f42405b61015f54610d3990611307906001600160a01b03166149ab565b8490614912565b9150611339620f42405b61015f54610d3990611332906001600160a01b03166149ab565b8890614912565b6113439083615cb5565b915061134f888661491e565b61016a54909850611360908961491e565b61016a556101625461137d906001600160a01b031633308b6149c3565b6101625461015f546001600160a01b039182169163a9059cbb916113a19116614a51565b6040516001600160e01b031960e084901b1681526001600160a01b03909116600482015260248101859052604401602060405180830381600087803b1580156113e957600080fd5b505af11580156113fd573d6000803e3d6000fd5b505050506040513d601f19601f8201168201806040525081019061142191906159d4565b5050505050505050506116b5565b600061144a61016f5461016e546148f390919063ffffffff16565b905080610171600082825461145f9190615cb5565b909155504290506000611470613f41565b90506000818311156114a157600061148f62015180610d3986866148f3565b905061149d620f4240610dd5565b9150505b61015f546000906114c590610e79906001906111e4906001600160a01b031661492a565b61015f549091506000906114e590610ea3906001600160a01b031661492a565b90506114f661124a620f424061123c565b61017e55611509611271620f4240611263565b6101855561151c611298620f424061128a565b6101865561152f6112bf620f42406112b1565b61017f5561016f5461016e546000918291611549916148f3565b9050611557620f42406112ed565b9150611565620f4240611318565b61156f9083615cb5565b915061016d5461016c5414156115cf5761017a5461017b819055610181546101828190556115a8916115a1919061491e565b899061491e565b61017b54610182549199506115ca916115c09161491e565b610171549061491e565b610171555b6115d9888661491e565b61016a549098506115ea908961491e565b61016a5561016254611607906001600160a01b031633308b6149c3565b6101625461015f546001600160a01b039182169163a9059cbb9161162b9116614a51565b6040516001600160e01b031960e084901b1681526001600160a01b03909116600482015260248101859052604401602060405180830381600087803b15801561167357600080fd5b505af1158015611687573d6000803e3d6000fd5b505050506040513d601f19601f820116820180604052508101906116ab91906159d4565b5050505050505050505b61016d5461016c5414156117cf5761016054610164546040517f332f14860000000000000000000000000000000000000000000000000000000081526001600160a01b039092169163332f1486916117139160040190815260200190565b600060405180830381600087803b15801561172d57600080fd5b505af1158015611741573d6000803e3d6000fd5b505061015f5461175c92506001600160a01b03169050614ad3565b61016454604051630387c6d160e31b8152600060048201819052602482019290925260448101919091526001600160a01b039190911690631c3e368890606401600060405180830381600087803b1580156117b657600080fd5b505af11580156117ca573d6000803e3d6000fd5b505050505b61016c546117de90600161491e565b61016c55565b61016054610164546040517f6815322c0000000000000000000000000000000000000000000000000000000081526001600160a01b0390921691636815322c916118349160040190815260200190565b60206040518083038186803b15801561184c57600080fd5b505afa158015611860573d6000803e3d6000fd5b505050506040513d601f19601f8201168201806040525081019061188491906159d4565b15156001146118fb5760405162461bcd60e51b815260206004820152602960248201527f4f70706f7274756e69747920706f6f6c20697320686176656e2774205772697460448201527f656f6666207965742e00000000000000000000000000000000000000000000006064820152608401610c04565b61015f54611911906001600160a01b0316614aeb565b6001600160a01b0316336001600160a01b0316146119975760405162461bcd60e51b815260206004820152603060248201527f4f6e6c79204f70706f7274756e6974794f726967696e6174696f6e2063616e2060448201527f657865637574652077726974656f6666000000000000000000000000000000006064820152608401610c04565b61015f546000906119cc906119bb906001906111e4906001600160a01b031661492a565b61016d5461016f54610d3991614912565b61015f549091506000906119ec90610ea3906001600160a01b031661492a565b905060006119fc620f424061123c565b6101655490915060009060ff1660011415611a5757426000611a1c613f41565b9050600081831115611a4d576000611a3b62015180610d3986866148f3565b9050611a49620f4240610d49565b9150505b9250611ab6915050565b6000611a7261016f5461016e546148f390919063ffffffff16565b9050426000611a7f613f41565b9050600081831115611ab0576000611a9e62015180610d3986866148f3565b9050611aac620f4240610dd5565b9150505b93505050505b611acb620f424061017454610d399084614912565b61017f54909150600090611adf9083615cb5565b61017a54909150600090611af38584615cb5565b611afd9190615cb5565b90508061016a541115611ba75761015f54611b20906001600160a01b0316614ad3565b61016454604051630387c6d160e31b8152600160048201526024810191909152604481018390526001600160a01b039190911690631c3e368890606401600060405180830381600087803b158015611b7757600080fd5b505af1158015611b8b573d6000803e3d6000fd5b5050600061017f81905561017b81905561017e5550611c599050565b61015f54611bbd906001600160a01b0316614ad3565b6101645461016a54604051630387c6d160e31b815260016004820152602481019290925260448201526001600160a01b039190911690631c3e368890606401600060405180830381600087803b158015611c1657600080fd5b505af1158015611c2a573d6000803e3d6000fd5b5050600061016a81905561017f81905561017b81905561017e8190556101868190556101828190556101855550505b505050505050565b600082815260656020526040902060010154611c7c81614b03565b611c868383614b0d565b505050565b611c9361347a565b611cf35760405162461bcd60e51b815260206004820152602b60248201527f4d75737420686176652061646d696e20726f6c6520746f20706572666f726d2060448201526a3a3434b99030b1ba34b7b760a91b6064820152608401610c04565b610176805460ff19169055565b6001600160a01b0381163314611d7e5760405162461bcd60e51b815260206004820152602f60248201527f416363657373436f6e74726f6c3a2063616e206f6e6c792072656e6f756e636560448201527f20726f6c657320666f722073656c6600000000000000000000000000000000006064820152608401610c04565b611d888282614baf565b5050565b306001600160a01b037f0000000000000000000000000000000000000000000000000000000000000000161415611e1a5760405162461bcd60e51b815260206004820152602c60248201527f46756e6374696f6e206d7573742062652063616c6c6564207468726f7567682060448201526b19195b1959d85d1958d85b1b60a21b6064820152608401610c04565b7f00000000000000000000000000000000000000000000000000000000000000006001600160a01b0316611e757f360894a13ba1a3210667c828492db98dca3e2076cc3735a920a3ca505d382bbc546001600160a01b031690565b6001600160a01b031614611ee05760405162461bcd60e51b815260206004820152602c60248201527f46756e6374696f6e206d7573742062652063616c6c6564207468726f7567682060448201526b6163746976652070726f787960a01b6064820152608401610c04565b611ee981614c32565b60408051600080825260208201909252611f0591839190614c9a565b50565b600260c9541415611f5b5760405162461bcd60e51b815260206004820152601f60248201527f5265656e7472616e637947756172643a207265656e7472616e742063616c6c006044820152606401610c04565b600260c955611f68614e49565b600160ff83161115611fbc5760405162461bcd60e51b815260206004820152601860248201527f537562706f6f6c4944203a206f7574206f662072616e676500000000000000006044820152606401610c04565b6000811161200c5760405162461bcd60e51b815260206004820181905260248201527f416d6f756e74204d7573742062652067726561746572207468616e207a65726f6044820152606401610c04565b60ff8216600114156121a55761017c5460ff161561206c5760405162461bcd60e51b815260206004820152601860248201527f53656e696f7220537562706f6f6c206973206c6f636b656400000000000000006044820152606401610c04565b6120957fa794a061bac4a541306b6778cc120a221216f325de0020c39b67101d49158ca2610f91565b6121155760405162461bcd60e51b8152602060048201526044602482018190527f596f75206d75737420686176652053656e696f7220706f6f6c20726f6c652069908201527f6e206f7264657220746f206465706f73697420696e2073656e696f72207375626064820152631c1bdbdb60e21b608482015260a401610c04565b61017b5481111561218e5760405162461bcd60e51b815260206004820152603b60248201527f416d6f756e7420657863656564732074686520546f74616c206465706f73697460448201527f656420616d6f756e74206f662073656e696f7220737562706f6f6c00000000006064820152608401610c04565b61017b5461219c90826148f3565b61017b55612433565b60ff821661243357610184544210156122005760405162461bcd60e51b815260206004820181905260248201527f66756e647320617265206c6f636b20756e74696c204c6f616e2054656e7572656044820152606401610c04565b6101835460ff16156122545760405162461bcd60e51b815260206004820152601860248201527f4a756e696f7220537562706f6f6c206973206c6f636b656400000000000000006044820152606401610c04565b3360009081526101776020908152604080832054610178909252909120805460ff19169183111591821790556122f25760405162461bcd60e51b815260206004820152603560248201527f796f757220776974686472617720616d6f756e7420697320686967686572207460448201527f68616e206465706f736974656420616d6f756e742e00000000000000000000006064820152608401610c04565b6101825481111561236b5760405162461bcd60e51b815260206004820152603b60248201527f416d6f756e7420657863656564732074686520546f74616c206465706f73697460448201527f656420616d6f756e74206f66206a756e696f7220737562706f6f6c00000000006064820152608401610c04565b6101825461237990826148f3565b61018255336000908152610177602052604090205461239890826148f3565b3360009081526101776020526040902081905561243357336000818152610178602052604090819020805460ff1916905561016154610164549151631bd3b3dd60e31b8152600481019390935260248301919091526001600160a01b03169063de9d9ee890604401600060405180830381600087803b15801561241a57600080fd5b505af115801561242e573d6000803e3d6000fd5b505050505b61016a5461244190826148f3565b61016a556101625461245e906001600160a01b03163033846149c3565b60405181815260ff83169033907fd5717d2b2bcb82b3f3aea5c8c75e2194c2a7b177469cd9a5cef423e940ab81c7906020015b60405180910390a35050600160c955565b6124cd7f65d7a28e3265b37a6474929f336521b332c1681b933f6cb9f3376673440d862a5b336108a7565b61252e5760405162461bcd60e51b815260206004820152602c60248201527f4d75737420686176652070617573657220726f6c6520746f20706572666f726d60448201526b103a3434b99030b1ba34b7b760a11b6064820152608401610c04565b612536614e9c565b565b306001600160a01b037f00000000000000000000000000000000000000000000000000000000000000001614156125c65760405162461bcd60e51b815260206004820152602c60248201527f46756e6374696f6e206d7573742062652063616c6c6564207468726f7567682060448201526b19195b1959d85d1958d85b1b60a21b6064820152608401610c04565b7f00000000000000000000000000000000000000000000000000000000000000006001600160a01b03166126217f360894a13ba1a3210667c828492db98dca3e2076cc3735a920a3ca505d382bbc546001600160a01b031690565b6001600160a01b03161461268c5760405162461bcd60e51b815260206004820152602c60248201527f46756e6374696f6e206d7573742062652063616c6c6564207468726f7567682060448201526b6163746976652070726f787960a01b6064820152608401610c04565b61269582614c32565b611d8882826001614c9a565b600054610100900460ff16158080156126c15750600054600160ff909116105b806126db5750303b1580156126db575060005460ff166001145b61274d5760405162461bcd60e51b815260206004820152602e60248201527f496e697469616c697a61626c653a20636f6e747261637420697320616c72656160448201527f647920696e697469616c697a65640000000000000000000000000000000000006064820152608401610c04565b6000805460ff191660011790558015612770576000805461ff0019166101001790555b612778614eee565b8015611f05576000805461ff0019169055604051600181527f7f26b83ff96e1f2b6a682f133852f6798a09c465da95921460cefb38474024989060200160405180910390a150565b6000306001600160a01b037f000000000000000000000000000000000000000000000000000000000000000016146128605760405162461bcd60e51b815260206004820152603860248201527f555550535570677261646561626c653a206d757374206e6f742062652063616c60448201527f6c6564207468726f7567682064656c656761746563616c6c00000000000000006064820152608401610c04565b507f360894a13ba1a3210667c828492db98dca3e2076cc3735a920a3ca505d382bbc90565b6000600260c95414156128da5760405162461bcd60e51b815260206004820152601f60248201527f5265656e7472616e637947756172643a207265656e7472616e742063616c6c006044820152606401610c04565b600260c9556128e7614e49565b600160ff8316111561293b5760405162461bcd60e51b815260206004820152601860248201527f537562706f6f6c4944203a206f7574206f662072616e676500000000000000006044820152606401610c04565b6101605461016454604051638176715560e01b81526001600160a01b03909216916381767155916129729160040190815260200190565b60206040518083038186803b15801561298a57600080fd5b505afa15801561299e573d6000803e3d6000fd5b505050506040513d601f19601f820116820180604052508101906129c291906159d4565b1515600114612a265760405162461bcd60e51b815260206004820152602a60248201527f46756e647320696e206f70706f7274756e69747920686176656e2774206472616044820152693bb237bbb7103cb2ba1760b11b6064820152608401610c04565b600060ff831660011415612bed5761017c5460ff1615612a885760405162461bcd60e51b815260206004820152601860248201527f53656e696f7220537562706f6f6c206973206c6f636b656400000000000000006044820152606401610c04565b612ab17fa794a061bac4a541306b6778cc120a221216f325de0020c39b67101d49158ca2610f91565b612b315760405162461bcd60e51b8152602060048201526044602482018190527f596f75206d75737420686176652053656e696f7220706f6f6c20726f6c652069908201527f6e206f7264657220746f206465706f73697420696e2073656e696f72207375626064820152631c1bdbdb60e21b608482015260a401610c04565b61017b54612ba75760405162461bcd60e51b815260206004820152602b60248201527f62616c616e6365206f662073656e696f7220737562706f6f6c206973207a657260448201527f6f2063757272656e746c790000000000000000000000000000000000000000006064820152608401610c04565b61017e5461017b54612bb89161491e565b61017f5490915015612bdc5761017f54612bd390829061491e565b600061017f5590505b600061017b81905561017e55612f0c565b60ff8316612f0c576101835460ff1615612c495760405162461bcd60e51b815260206004820152601860248201527f4a756e696f7220537562706f6f6c206973206c6f636b656400000000000000006044820152606401610c04565b336000908152610178602052604090205460ff1615156001148015612c7d5750336000908152610177602052604090205415155b612cc95760405162461bcd60e51b815260206004820152601760248201527f7a65726f20616d6f756e7420746f206465706f7369742e0000000000000000006044820152606401610c04565b6101825433600090815261017760205260409020541115612d425760405162461bcd60e51b815260206004820152602d60248201527f63757272656e746c79206a756e696f7220737562706f6f6c20646f6e2774206860448201526c617665204c697175696469747960981b6064820152608401610c04565b6000612d6a620f42405b336000908152610177602052604090205461017354610d3991614912565b61018554909150811115612dd65760405162461bcd60e51b815260206004820152602d60248201527f63757272656e746c79206a756e696f7220737562706f6f6c20646f6e2774206860448201526c617665204c697175696469747960981b6064820152608401610c04565b336000908152610177602052604090205461018254612df4916148f3565b6101825561018554612e0690826148f3565b6101855533600090815261017860209081526040808320805460ff19169055610177909152902054612e38908261491e565b6101865490925015612e8f576000612e6c620f42405b336000908152610177602052604090205461017554610d3991614912565b9050612e78838261491e565b61018654909350612e8990826148f3565b61018655505b6101615461016454604051631bd3b3dd60e31b815233600482015260248101919091526001600160a01b039091169063de9d9ee890604401600060405180830381600087803b158015612ee157600080fd5b505af1158015612ef5573d6000803e3d6000fd5b505033600090815261017760205260408120555050505b61016a54612f1a90826148f3565b61016a55610162546040517fa9059cbb000000000000000000000000000000000000000000000000000000008152336004820152602481018390526001600160a01b039091169063a9059cbb90604401602060405180830381600087803b158015612f8457600080fd5b505af1158015612f98573d6000803e3d6000fd5b505050506040513d601f19601f82011682018060405250810190612fbc91906159d4565b50600160c95592915050565b612ff17ffa4b6f760d780a02797df53a6c2ccf476001dc02ee4f9b6b1426dafc21ff6baf610f91565b6130545760405162461bcd60e51b815260206004820152602e60248201527f4d757374206861766520626f72726f77657220726f6c6520746f20706572666f60448201526d3936903a3434b99030b1ba34b7b760911b6064820152608401610c04565b600160ff821611156130a85760405162461bcd60e51b815260206004820152601860248201527f537562706f6f6c4944203a206f7574206f662072616e676500000000000000006044820152606401610c04565b60ff8116600114156130c55761017c805460ff1916600117905550565b60ff8116611f0557610183805460ff1916600117905550565b336000908152610178602052604081205460ff16151560011480156131125750336000908152610177602052604090205415155b61315e5760405162461bcd60e51b815260206004820152601960248201527f7a65726f20616d6f756e7420746f206465706f73697465642e000000000000006044820152606401610c04565b6101605461016454604051638176715560e01b815260048101919091526000916001600160a01b03169063817671559060240160206040518083038186803b1580156131a957600080fd5b505afa1580156131bd573d6000803e3d6000fd5b505050506040513d601f19601f820116820180604052508101906131e191906159d4565b151560011415610e325760006131f9620f4240612d4c565b3360009081526101776020526040902054909150613217908261491e565b6101865490925015613241576000613231620f4240612e4e565b905061323d838261491e565b9250505b50919050565b6132707f65d7a28e3265b37a6474929f336521b332c1681b933f6cb9f3376673440d862a6124c7565b6132d15760405162461bcd60e51b815260206004820152602c60248201527f4d75737420686176652070617573657220726f6c6520746f20706572666f726d60448201526b103a3434b99030b1ba34b7b760a11b6064820152608401610c04565b612536614f65565b600054610100900460ff166133445760405162461bcd60e51b815260206004820152602b60248201527f496e697469616c697a61626c653a20636f6e7472616374206973206e6f74206960448201526a6e697469616c697a696e6760a81b6064820152608401610c04565b6001600160a01b03811661339a5760405162461bcd60e51b815260206004820181905260248201527f4f776e65722063616e6e6f7420626520746865207a65726f20616464726573736044820152606401610c04565b6133a2614fa2565b6133aa614eee565b6133b261500d565b6133dd7fa49807205ce4d355092ef5a8a18f56e8913cf4a201fbe287825b095693c217755b8261507f565b6134067f65d7a28e3265b37a6474929f336521b332c1681b933f6cb9f3376673440d862a6133d7565b6134517f65d7a28e3265b37a6474929f336521b332c1681b933f6cb9f3376673440d862a5b7fa49807205ce4d355092ef5a8a18f56e8913cf4a201fbe287825b095693c21775615089565b611f057fa49807205ce4d355092ef5a8a18f56e8913cf4a201fbe287825b095693c2177561342b565b60006134a57fa49807205ce4d355092ef5a8a18f56e8913cf4a201fbe287825b095693c217756124c7565b905090565b600054610100900460ff16158080156134ca5750600054600160ff909116105b806134e45750303b1580156134e4575060005460ff166001145b6135565760405162461bcd60e51b815260206004820152602e60248201527f496e697469616c697a61626c653a20636f6e747261637420697320616c72656160448201527f647920696e697469616c697a65640000000000000000000000000000000000006064820152608401610c04565b6000805460ff191660011790558015613579576000805461ff0019166101001790555b6001600160a01b0388166135cf5760405162461bcd60e51b815260206004820152601660248201527f496e76616c696420636f6e6669672061646472657373000000000000000000006044820152606401610c04565b61015f80546001600160a01b0319166001600160a01b038a169081179091556000906135fa906150d4565b90506001600160a01b0381166136525760405162461bcd60e51b815260206004820152600d60248201527f496e76616c6964204f776e6572000000000000000000000000000000000000006044820152606401610c04565b61015f54613668906001600160a01b0316614aeb565b61016080546001600160a01b0319166001600160a01b0392831617905561015f5461369391166150eb565b61016180546001600160a01b0319166001600160a01b03929092169190911790556136bd816132d9565b61015f546136d3906001600160a01b0316615103565b61016280546001600160a01b0319166001600160a01b0392831617905561015f546136fe911661511b565b61016380546001600160a01b0319166001600160a01b03929092169190911790556137487fa794a061bac4a541306b6778cc120a221216f325de0020c39b67101d49158ca261342b565b6137877fa794a061bac4a541306b6778cc120a221216f325de0020c39b67101d49158ca261015f54613782906001600160a01b0316614ad3565b61507f565b6137b07f2344277e405079ec07749d374ba0b5862a4e45a6a05ac889dbb4a991c6f9354d61342b565b6137d97ffa4b6f760d780a02797df53a6c2ccf476001dc02ee4f9b6b1426dafc21ff6baf61342b565b6138027ffa4b6f760d780a02797df53a6c2ccf476001dc02ee4f9b6b1426dafc21ff6baf6133d7565b610160546040517f728c3ea2000000000000000000000000000000000000000000000000000000008152600481018a90526000916001600160a01b03169063728c3ea29060240160206040518083038186803b15801561386157600080fd5b505afa158015613875573d6000803e3d6000fd5b505050506040513d601f19601f82011682018060405250810190613899919061592b565b90506138c47f2344277e405079ec07749d374ba0b5862a4e45a6a05ac889dbb4a991c6f9354d6133d7565b610164899055610166889055610167879055610168869055610169859055600161016c55610165805460ff191660ff861617905561015f546040517fe4a3d784000000000000000000000000000000000000000000000000000000008152600481018b90526001600160a01b039091169063e4a3d7849060240160206040518083038186803b15801561395657600080fd5b505afa15801561396a573d6000803e3d6000fd5b505050506040513d601f19601f8201168201806040525081019061398e91906159d4565b613a145761017c805460ff1916600117905561015f546000906139d2906139bd906001600160a01b031661492a565b6139c8906001615cb5565b6101665490614906565b61015f549091506139f6906139ef906001600160a01b031661492a565b8290614912565b61017a81905561016654613a0a9190615d0c565b6101815550613a2b565b610183805460ff191660011790556101665461017a555b60006101675462015180613a3f9190615ced565b9050613a4b8142615cb5565b610184556000613a686101686101675461016854610d3991614912565b90506000613a98613a8e620f4240610d39613a84866064614906565b6101665490614912565b610166549061491e565b9050613abd613ab6610169546101675461490690919063ffffffff16565b8290614906565b61016e55613add61016861015f54610d39906001600160a01b0316615133565b61017055613b03620f4240610d716139c8620f42406101695461016754610d7191614906565b61016f556101695461016754613b1891614906565b61016d55613b24613dca565b6101735561017255613b34610e37565b6101755561017455610162546040517f095ea7b300000000000000000000000000000000000000000000000000000000815230600482015260001960248201526000916001600160a01b03169063095ea7b390604401602060405180830381600087803b158015613ba457600080fd5b505af1158015613bb8573d6000803e3d6000fd5b505050506040513d601f19601f82011682018060405250810190613bdc91906159d4565b905080613c2b5760405162461bcd60e51b815260206004820152601660248201527f4661696c656420746f20617070726f76652055534443000000000000000000006044820152606401610c04565b5050505050508015613c77576000805461ff0019169055604051600181527f7f26b83ff96e1f2b6a682f133852f6798a09c465da95921460cefb38474024989060200160405180910390a15b5050505050505050565b613caa7ffa4b6f760d780a02797df53a6c2ccf476001dc02ee4f9b6b1426dafc21ff6baf610f91565b613d0d5760405162461bcd60e51b815260206004820152602e60248201527f4d757374206861766520626f72726f77657220726f6c6520746f20706572666f60448201526d3936903a3434b99030b1ba34b7b760911b6064820152608401610c04565b600160ff82161115613d615760405162461bcd60e51b815260206004820152601860248201527f537562706f6f6c4944203a206f7574206f662072616e676500000000000000006044820152606401610c04565b60ff811660011415613d7b5761017c805460ff1916905550565b60ff8116611f0557610183805460ff1916905550565b600082815260656020526040902060010154613dac81614b03565b611c868383614baf565b61017f5461017e546000916134a591615cb5565b60008080620f424090506000613e31620f424061015f54610d3990613e2290613dfb906001600160a01b031661514b565b61015f54613e1c90613e15906001600160a01b03166149ab565b88906148f3565b906148f3565b61016854610d71906064614906565b90506000613e95620f424061015f54610d3990613e2290613e7490613e5e906001600160a01b031661492a565b61015f54610d71906001600160a01b031661514b565b61015f546111e490613e8e906001600160a01b03166149ab565b89906148f3565b91959194509092505050565b61016054610164546040517ff00474a600000000000000000000000000000000000000000000000000000000815260048101919091526060916001600160a01b03169063f00474a69060240160006040518083038186803b158015613f0557600080fd5b505afa158015613f19573d6000803e3d6000fd5b505050506040513d6000823e601f3d908101601f191682016040526134a59190810190615adf565b600061016d5461016c541115613f995760405162461bcd60e51b815260206004820152601960248201527f52657061796d656e742050726f6365737320697320646f6e65000000000000006044820152606401610c04565b6000610baa613fbd6101695462015180613fb39190615ced565b61016c5490614912565b61016b549061491e565b600260c954141561401a5760405162461bcd60e51b815260206004820152601f60248201527f5265656e7472616e637947756172643a207265656e7472616e742063616c6c006044820152606401610c04565b600260c955614027614e49565b6140507f2344277e405079ec07749d374ba0b5862a4e45a6a05ac889dbb4a991c6f9354d610f91565b6140b35760405162461bcd60e51b815260206004820152602e60248201527f4d757374206861766520626f72726f77657220726f6c6520746f20706572666f60448201526d3936903a3434b99030b1ba34b7b760911b6064820152608401610c04565b6101605461016454604051630231155f60e51b81526001600160a01b0390921691634622abe0916140ea9160040190815260200190565b60206040518083038186803b15801561410257600080fd5b505afa158015614116573d6000803e3d6000fd5b505050506040513d601f19601f8201168201806040525081019061413a91906159d4565b156141ad5760405162461bcd60e51b815260206004820152602a60248201527f46756e647320696e206f70706f7274756e6974792061726520616c726561647960448201527f2064726177646f776e2e000000000000000000000000000000000000000000006064820152608401610c04565b6101765460ff16156142015760405162461bcd60e51b815260206004820152601260248201527f44726177646f776e2069732070617573656400000000000000000000000000006044820152606401610c04565b6101665461016a54146142a25760405162461bcd60e51b815260206004820152604760248201527f546f74616c204465706f736974656420616d6f756e7420696e206f70706f727460448201527f756e69747920706f6f6c206d75737420626520657175616c20746f206c6f616e60648201527f20616d6f756e7400000000000000000000000000000000000000000000000000608482015260a401610c04565b61016a805460009182905561018282905561017b919091554261016b5561016054610164546040517faf7ea9440000000000000000000000000000000000000000000000000000000081526001600160a01b039092169163af7ea9449161430f9160040190815260200190565b600060405180830381600087803b15801561432957600080fd5b505af115801561433d573d6000803e3d6000fd5b50506101625461435b92506001600160a01b031690503033846149c3565b50600160c955565b600260c95414156143b65760405162461bcd60e51b815260206004820152601f60248201527f5265656e7472616e637947756172643a207265656e7472616e742063616c6c006044820152606401610c04565b600260c955600160ff8316111561440f5760405162461bcd60e51b815260206004820152601860248201527f537562706f6f6c4944203a206f7574206f662072616e676500000000000000006044820152606401610c04565b6000811161445f5760405162461bcd60e51b815260206004820181905260248201527f416d6f756e74204d7573742062652067726561746572207468616e207a65726f6044820152606401610c04565b60ff82166001141561460e5761017c5460ff16156144bf5760405162461bcd60e51b815260206004820152601860248201527f53656e696f7220537562706f6f6c206973206c6f636b656400000000000000006044820152606401610c04565b6144e87fa794a061bac4a541306b6778cc120a221216f325de0020c39b67101d49158ca2610f91565b6145685760405162461bcd60e51b8152602060048201526044602482018190527f596f75206d75737420686176652053656e696f7220706f6f6c20726f6c652069908201527f6e206f7264657220746f206465706f73697420696e2073656e696f72207375626064820152631c1bdbdb60e21b608482015260a401610c04565b61017b5460009061457a90839061491e565b61017a549091508111156145f65760405162461bcd60e51b815260206004820152603860248201527f416d6f756e7420657863656564732074686520546f74616c206465706f73697460448201527f206c696d6974206f662073656e696f7220737562706f6f6c00000000000000006064820152608401610c04565b61017b54614604908361491e565b61017b5550614891565b60ff8216614891576101835460ff161561466a5760405162461bcd60e51b815260206004820152601860248201527f4a756e696f7220537562706f6f6c206973206c6f636b656400000000000000006044820152606401610c04565b6101825460009061467c90839061491e565b610181549091508111156146f85760405162461bcd60e51b815260206004820152603860248201527f416d6f756e7420657863656564732074686520546f74616c206465706f73697460448201527f206c696d6974206f66206a756e696f7220737562706f6f6c00000000000000006064820152608401610c04565b61018254614706908361491e565b610182553360009081526101776020526040902054614725908361491e565b33600081815261017760209081526040808320949094556101789052829020805460ff19166001179055610161546101645492517fe954539d000000000000000000000000000000000000000000000000000000008152600481019290925260248201929092526001600160a01b039091169063e954539d9060440160206040518083038186803b1580156147b957600080fd5b505afa1580156147cd573d6000803e3d6000fd5b505050506040513d601f19601f820116820180604052508101906147f191906159d4565b6148795761016154610164546040517fa68a132200000000000000000000000000000000000000000000000000000000815233600482015260248101919091526001600160a01b039091169063a68a132290604401600060405180830381600087803b15801561486057600080fd5b505af1158015614874573d6000803e3d6000fd5b505050505b61018154811061488f5761017c805460ff191690555b505b61016a5461489f908261491e565b61016a55610162546148bc906001600160a01b03163330846149c3565b60405181815260ff83169033907f1d0787aee899a49ef81d0b11da9aca5455b46aefed042a41bd398d74619cab0090602001612491565b60006148ff8284615d0c565b9392505050565b60006148ff8284615ccd565b60006148ff8284615ced565b60006148ff8284615cb5565b60006001600160a01b03821663fc563658825b6040518263ffffffff1660e01b815260040161495b91815260200190565b60206040518083038186803b15801561497357600080fd5b505afa158015614987573d6000803e3d6000fd5b505050506040513d601f19601f82011682018060405250810190610baa9190615a0c565b60006001600160a01b03821663fc563658600161493d565b604080516001600160a01b0385811660248301528416604482015260648082018490528251808303909101815260849091019091526020810180517bffffffffffffffffffffffffffffffffffffffffffffffffffffffff167f23b872dd00000000000000000000000000000000000000000000000000000000179052614a4b908590615163565b50505050565b60006001600160a01b03821663b93f9b0a60085b6040518263ffffffff1660e01b8152600401614a8391815260200190565b60206040518083038186803b158015614a9b57600080fd5b505afa158015614aaf573d6000803e3d6000fd5b505050506040513d601f19601f82011682018060405250810190610baa919061592b565b60006001600160a01b03821663b93f9b0a6003614a65565b60006001600160a01b03821663b93f9b0a6006614a65565b611f058133615248565b60008281526065602090815260408083206001600160a01b038516845290915290205460ff16611d885760008281526065602090815260408083206001600160a01b03851684529091529020805460ff19166001179055614b6b3390565b6001600160a01b0316816001600160a01b0316837f2f8788117e7eff1d82e926ec794901d17c78024a50270940304540a733656f0d60405160405180910390a45050565b60008281526065602090815260408083206001600160a01b038516845290915290205460ff1615611d885760008281526065602090815260408083206001600160a01b0385168085529252808320805460ff1916905551339285917ff6391f5c32d9c69d2a47ea670b442974b53935d1edc7fd64eb21e047a839171b9190a45050565b614c3a61347a565b611f055760405162461bcd60e51b815260206004820152602b60248201527f4d75737420686176652061646d696e20726f6c6520746f20706572666f726d2060448201526a3a3434b99030b1ba34b7b760a91b6064820152608401610c04565b7f4910fdfa16fed3260ed0e7147f7cc6da11a60208b5b9406d12a635614ffd91435460ff1615614ccd57611c86836152c8565b826001600160a01b03166352d1902d6040518163ffffffff1660e01b815260040160206040518083038186803b158015614d0657600080fd5b505afa925050508015614d36575060408051601f3d908101601f19168201909252614d3391810190615a0c565b60015b614da85760405162461bcd60e51b815260206004820152602e60248201527f45524331393637557067726164653a206e657720696d706c656d656e7461746960448201527f6f6e206973206e6f7420555550530000000000000000000000000000000000006064820152608401610c04565b7f360894a13ba1a3210667c828492db98dca3e2076cc3735a920a3ca505d382bbc8114614e3d5760405162461bcd60e51b815260206004820152602960248201527f45524331393637557067726164653a20756e737570706f727465642070726f7860448201527f6961626c655555494400000000000000000000000000000000000000000000006064820152608401610c04565b50611c86838383615386565b60975460ff16156125365760405162461bcd60e51b815260206004820152601060248201527f5061757361626c653a20706175736564000000000000000000000000000000006044820152606401610c04565b614ea46153ab565b6097805460ff191690557f5db9ee0a495bf2e6ff9c91a7834c1ba4fdd244a5e8aa4e537bd38aeae4b073aa335b6040516001600160a01b03909116815260200160405180910390a1565b600054610100900460ff16614f595760405162461bcd60e51b815260206004820152602b60248201527f496e697469616c697a61626c653a20636f6e7472616374206973206e6f74206960448201526a6e697469616c697a696e6760a81b6064820152608401610c04565b6097805460ff19169055565b614f6d614e49565b6097805460ff191660011790557f62e78cea01bee320cd4e420270b5ea74000d11b0c9f74754ebdbfc544b05a258614ed13390565b600054610100900460ff166125365760405162461bcd60e51b815260206004820152602b60248201527f496e697469616c697a61626c653a20636f6e7472616374206973206e6f74206960448201526a6e697469616c697a696e6760a81b6064820152608401610c04565b600054610100900460ff166150785760405162461bcd60e51b815260206004820152602b60248201527f496e697469616c697a61626c653a20636f6e7472616374206973206e6f74206960448201526a6e697469616c697a696e6760a81b6064820152608401610c04565b600160c955565b611d888282614b0d565b600082815260656020526040808220600101805490849055905190918391839186917fbd79b86ffe0ab8e8776151514217cd7cacd52c909f66475c3af44e129f0b00ff9190a4505050565b60006001600160a01b03821663b93f9b0a82614a65565b60006001600160a01b03821663b93f9b0a6007614a65565b60006001600160a01b03821663b93f9b0a6002614a65565b60006001600160a01b03821663b93f9b0a6001614a65565b60006001600160a01b03821663fc563658600261493d565b60006001600160a01b03821663fc563658600361493d565b60006151b8826040518060400160405280602081526020017f5361666545524332303a206c6f772d6c6576656c2063616c6c206661696c6564815250856001600160a01b03166153fd9092919063ffffffff16565b805190915015611c8657808060200190518101906151d691906159d4565b611c865760405162461bcd60e51b815260206004820152602a60248201527f5361666545524332303a204552433230206f7065726174696f6e20646964206e60448201527f6f742073756363656564000000000000000000000000000000000000000000006064820152608401610c04565b60008281526065602090815260408083206001600160a01b038516845290915290205460ff16611d8857615286816001600160a01b03166014615414565b615291836020615414565b6040516020016152a2929190615ba8565b60408051601f198184030181529082905262461bcd60e51b8252610c0491600401615c29565b6001600160a01b0381163b6153455760405162461bcd60e51b815260206004820152602d60248201527f455243313936373a206e657720696d706c656d656e746174696f6e206973206e60448201527f6f74206120636f6e7472616374000000000000000000000000000000000000006064820152608401610c04565b7f360894a13ba1a3210667c828492db98dca3e2076cc3735a920a3ca505d382bbc80546001600160a01b0319166001600160a01b0392909216919091179055565b61538f8361563b565b60008251118061539c5750805b15611c8657614a4b838361567b565b60975460ff166125365760405162461bcd60e51b815260206004820152601460248201527f5061757361626c653a206e6f74207061757365640000000000000000000000006044820152606401610c04565b606061540c848460008561577d565b949350505050565b60606000615423836002615ced565b61542e906002615cb5565b67ffffffffffffffff81111561545457634e487b7160e01b600052604160045260246000fd5b6040519080825280601f01601f19166020018201604052801561547e576020820181803683370190505b5090507f3000000000000000000000000000000000000000000000000000000000000000816000815181106154c357634e487b7160e01b600052603260045260246000fd5b60200101906001600160f81b031916908160001a9053507f78000000000000000000000000000000000000000000000000000000000000008160018151811061551c57634e487b7160e01b600052603260045260246000fd5b60200101906001600160f81b031916908160001a9053506000615540846002615ced565b61554b906001615cb5565b90505b60018111156155ec577f303132333435363738396162636465660000000000000000000000000000000085600f166010811061559a57634e487b7160e01b600052603260045260246000fd5b1a60f81b8282815181106155be57634e487b7160e01b600052603260045260246000fd5b60200101906001600160f81b031916908160001a90535060049490941c936155e581615d4f565b905061554e565b5083156148ff5760405162461bcd60e51b815260206004820181905260248201527f537472696e67733a20686578206c656e67746820696e73756666696369656e746044820152606401610c04565b615644816152c8565b6040516001600160a01b038216907fbc7cd75a20ee27fd9adebab32041f755214dbc6bffa90cc0225b39da2e5c2d3b90600090a250565b60606001600160a01b0383163b6156fa5760405162461bcd60e51b815260206004820152602660248201527f416464726573733a2064656c65676174652063616c6c20746f206e6f6e2d636f60448201527f6e747261637400000000000000000000000000000000000000000000000000006064820152608401610c04565b600080846001600160a01b0316846040516157159190615b8c565b600060405180830381855af49150503d8060008114615750576040519150601f19603f3d011682016040523d82523d6000602084013e615755565b606091505b5091509150610d858282604051806060016040528060278152602001615da8602791396158c5565b6060824710156157f55760405162461bcd60e51b815260206004820152602660248201527f416464726573733a20696e73756666696369656e742062616c616e636520666f60448201527f722063616c6c00000000000000000000000000000000000000000000000000006064820152608401610c04565b6001600160a01b0385163b61584c5760405162461bcd60e51b815260206004820152601d60248201527f416464726573733a2063616c6c20746f206e6f6e2d636f6e74726163740000006044820152606401610c04565b600080866001600160a01b031685876040516158689190615b8c565b60006040518083038185875af1925050503d80600081146158a5576040519150601f19603f3d011682016040523d82523d6000602084013e6158aa565b606091505b50915091506158ba8282866158c5565b979650505050505050565b606083156158d45750816148ff565b8251156158e45782518084602001fd5b8160405162461bcd60e51b8152600401610c049190615c29565b803560ff81168114610e3257600080fd5b600060208284031215615920578081fd5b81356148ff81615d92565b60006020828403121561593c578081fd5b81516148ff81615d92565b60008060408385031215615959578081fd5b823561596481615d92565b9150602083013567ffffffffffffffff81111561597f578182fd5b8301601f8101851361598f578182fd5b80356159a261599d82615c8d565b615c5c565b8181528660208385010111156159b6578384fd5b81602084016020830137908101602001929092525090939092509050565b6000602082840312156159e5578081fd5b815180151581146148ff578182fd5b600060208284031215615a05578081fd5b5035919050565b600060208284031215615a1d578081fd5b5051919050565b60008060408385031215615a36578182fd5b823591506020830135615a4881615d92565b809150509250929050565b600060208284031215615a64578081fd5b81356001600160e01b0319811681146148ff578182fd5b600080600080600080600060e0888a031215615a95578283fd5b8735615aa081615d92565b96506020880135955060408801359450606088013593506080880135925060a08801359150615ad160c089016158fe565b905092959891949750929550565b600060208284031215615af0578081fd5b815167ffffffffffffffff811115615b06578182fd5b8201601f81018413615b16578182fd5b8051615b2461599d82615c8d565b818152856020838501011115615b38578384fd5b610d85826020830160208601615d23565b600060208284031215615b5a578081fd5b6148ff826158fe565b60008060408385031215615b75578081fd5b615b7e836158fe565b946020939093013593505050565b60008251615b9e818460208701615d23565b9190910192915050565b7f416363657373436f6e74726f6c3a206163636f756e7420000000000000000000815260008351615be0816017850160208801615d23565b7f206973206d697373696e6720726f6c65200000000000000000000000000000006017918401918201528351615c1d816028840160208801615d23565b01602801949350505050565b6020815260008251806020840152615c48816040850160208701615d23565b601f01601f19169190910160400192915050565b604051601f8201601f1916810167ffffffffffffffff81118282101715615c8557615c85615d7c565b604052919050565b600067ffffffffffffffff821115615ca757615ca7615d7c565b50601f01601f191660200190565b60008219821115615cc857615cc8615d66565b500190565b600082615ce857634e487b7160e01b81526012600452602481fd5b500490565b6000816000190483118215151615615d0757615d07615d66565b500290565b600082821015615d1e57615d1e615d66565b500390565b60005b83811015615d3e578181015183820152602001615d26565b83811115614a4b5750506000910152565b600081615d5e57615d5e615d66565b506000190190565b634e487b7160e01b600052601160045260246000fd5b634e487b7160e01b600052604160045260246000fd5b6001600160a01b0381168114611f0557600080fdfe416464726573733a206c6f772d6c6576656c2064656c65676174652063616c6c206661696c6564a2646970667358221220eb3f9b7a8f3634edef56c8f0907717642025c620db31a2e049d4d01701e9639b64736f6c63430008040033",
  "linkReferences": {},
  "deployedLinkReferences": {}
}