{
  "_format": "hh-sol-artifact-1",
  "contractName": "OpportunityPool",
  "sourceName": "contracts/protocol/OpportunityPool.sol",
  "abi": [
    {
      "anonymous": false,
      "inputs": [
        {
          "indexed": true,
          "internalType": "address",
          "name": "executor",
          "type": "address"
        },
        {
          "indexed": true,
          "internalType": "uint8",
          "name": "subpool",
          "type": "uint8"
        },
        {
          "indexed": false,
          "internalType": "uint256",
          "name": "amount",
          "type": "uint256"
        }
      ],
      "name": "Deposited",
      "type": "event"
    },
    {
      "anonymous": false,
      "inputs": [
        {
          "indexed": false,
          "internalType": "uint8",
          "name": "version",
          "type": "uint8"
        }
      ],
      "name": "Initialized",
      "type": "event"
    },
    {
      "anonymous": false,
      "inputs": [
        {
          "indexed": false,
          "internalType": "address",
          "name": "account",
          "type": "address"
        }
      ],
      "name": "Paused",
      "type": "event"
    },
    {
      "anonymous": false,
      "inputs": [
        {
          "indexed": true,
          "internalType": "bytes32",
          "name": "role",
          "type": "bytes32"
        },
        {
          "indexed": true,
          "internalType": "bytes32",
          "name": "previousAdminRole",
          "type": "bytes32"
        },
        {
          "indexed": true,
          "internalType": "bytes32",
          "name": "newAdminRole",
          "type": "bytes32"
        }
      ],
      "name": "RoleAdminChanged",
      "type": "event"
    },
    {
      "anonymous": false,
      "inputs": [
        {
          "indexed": true,
          "internalType": "bytes32",
          "name": "role",
          "type": "bytes32"
        },
        {
          "indexed": true,
          "internalType": "address",
          "name": "account",
          "type": "address"
        },
        {
          "indexed": true,
          "internalType": "address",
          "name": "sender",
          "type": "address"
        }
      ],
      "name": "RoleGranted",
      "type": "event"
    },
    {
      "anonymous": false,
      "inputs": [
        {
          "indexed": true,
          "internalType": "bytes32",
          "name": "role",
          "type": "bytes32"
        },
        {
          "indexed": true,
          "internalType": "address",
          "name": "account",
          "type": "address"
        },
        {
          "indexed": true,
          "internalType": "address",
          "name": "sender",
          "type": "address"
        }
      ],
      "name": "RoleRevoked",
      "type": "event"
    },
    {
      "anonymous": false,
      "inputs": [
        {
          "indexed": false,
          "internalType": "address",
          "name": "account",
          "type": "address"
        }
      ],
      "name": "Unpaused",
      "type": "event"
    },
    {
      "anonymous": false,
      "inputs": [
        {
          "indexed": true,
          "internalType": "address",
          "name": "executor",
          "type": "address"
        },
        {
          "indexed": true,
          "internalType": "uint8",
          "name": "subpool",
          "type": "uint8"
        },
        {
          "indexed": false,
          "internalType": "uint256",
          "name": "amount",
          "type": "uint256"
        }
      ],
      "name": "Withdrew",
      "type": "event"
    },
    {
      "inputs": [],
      "name": "ADMIN_ROLE",
      "outputs": [
        {
          "internalType": "bytes32",
          "name": "",
          "type": "bytes32"
        }
      ],
      "stateMutability": "view",
      "type": "function"
    },
    {
      "inputs": [],
      "name": "BORROWER_ROLE",
      "outputs": [
        {
          "internalType": "bytes32",
          "name": "",
          "type": "bytes32"
        }
      ],
      "stateMutability": "view",
      "type": "function"
    },
    {
      "inputs": [],
      "name": "DEFAULT_ADMIN_ROLE",
      "outputs": [
        {
          "internalType": "bytes32",
          "name": "",
          "type": "bytes32"
        }
      ],
      "stateMutability": "view",
      "type": "function"
    },
    {
      "inputs": [],
      "name": "PAUSER_ROLE",
      "outputs": [
        {
          "internalType": "bytes32",
          "name": "",
          "type": "bytes32"
        }
      ],
      "stateMutability": "view",
      "type": "function"
    },
    {
      "inputs": [],
      "name": "POOL_LOCKER_ROLE",
      "outputs": [
        {
          "internalType": "bytes32",
          "name": "",
          "type": "bytes32"
        }
      ],
      "stateMutability": "view",
      "type": "function"
    },
    {
      "inputs": [],
      "name": "SENIOR_POOL_ROLE",
      "outputs": [
        {
          "internalType": "bytes32",
          "name": "",
          "type": "bytes32"
        }
      ],
      "stateMutability": "view",
      "type": "function"
    },
    {
      "inputs": [
        {
          "internalType": "address",
          "name": "owner",
          "type": "address"
        }
      ],
      "name": "_BaseUpgradeablePausable_init",
      "outputs": [],
      "stateMutability": "nonpayable",
      "type": "function"
    },
    {
      "inputs": [],
      "name": "__PauserPausable__init",
      "outputs": [],
      "stateMutability": "nonpayable",
      "type": "function"
    },
    {
      "inputs": [],
      "name": "amountWithoutEMI",
      "outputs": [
        {
          "internalType": "uint256",
          "name": "",
          "type": "uint256"
        }
      ],
      "stateMutability": "view",
      "type": "function"
    },
    {
      "inputs": [],
      "name": "dailyInterestRate",
      "outputs": [
        {
          "internalType": "uint256",
          "name": "",
          "type": "uint256"
        }
      ],
      "stateMutability": "view",
      "type": "function"
    },
    {
      "inputs": [
        {
          "internalType": "uint8",
          "name": "_subpoolId",
          "type": "uint8"
        },
        {
          "internalType": "uint256",
          "name": "amount",
          "type": "uint256"
        }
      ],
      "name": "deposit",
      "outputs": [],
      "stateMutability": "nonpayable",
      "type": "function"
    },
    {
      "inputs": [],
      "name": "drawdown",
      "outputs": [],
      "stateMutability": "nonpayable",
      "type": "function"
    },
    {
      "inputs": [],
      "name": "dygnifyConfig",
      "outputs": [
        {
          "internalType": "contract DygnifyConfig",
          "name": "",
          "type": "address"
        }
      ],
      "stateMutability": "view",
      "type": "function"
    },
    {
      "inputs": [],
      "name": "emiAmount",
      "outputs": [
        {
          "internalType": "uint256",
          "name": "",
          "type": "uint256"
        }
      ],
      "stateMutability": "view",
      "type": "function"
    },
    {
      "inputs": [],
      "name": "getOpportunityName",
      "outputs": [
        {
          "internalType": "string",
          "name": "",
          "type": "string"
        }
      ],
      "stateMutability": "view",
      "type": "function"
    },
    {
      "inputs": [],
      "name": "getOverDuePercentage",
      "outputs": [
        {
          "internalType": "uint256",
          "name": "",
          "type": "uint256"
        },
        {
          "internalType": "uint256",
          "name": "",
          "type": "uint256"
        }
      ],
      "stateMutability": "view",
      "type": "function"
    },
    {
      "inputs": [],
      "name": "getRepaymentAmount",
      "outputs": [
        {
          "internalType": "uint256",
          "name": "",
          "type": "uint256"
        }
      ],
      "stateMutability": "view",
      "type": "function"
    },
    {
      "inputs": [
        {
          "internalType": "bytes32",
          "name": "role",
          "type": "bytes32"
        }
      ],
      "name": "getRoleAdmin",
      "outputs": [
        {
          "internalType": "bytes32",
          "name": "",
          "type": "bytes32"
        }
      ],
      "stateMutability": "view",
      "type": "function"
    },
    {
      "inputs": [],
      "name": "getSeniorProfit",
      "outputs": [
        {
          "internalType": "uint256",
          "name": "",
          "type": "uint256"
        }
      ],
      "stateMutability": "view",
      "type": "function"
    },
    {
      "inputs": [],
      "name": "getSeniorTotalDepositable",
      "outputs": [
        {
          "internalType": "uint256",
          "name": "",
          "type": "uint256"
        }
      ],
      "stateMutability": "view",
      "type": "function"
    },
    {
      "inputs": [],
      "name": "getUserWithdrawableAmount",
      "outputs": [
        {
          "internalType": "uint256",
          "name": "",
          "type": "uint256"
        }
      ],
      "stateMutability": "view",
      "type": "function"
    },
    {
      "inputs": [],
      "name": "getYieldPercentage",
      "outputs": [
        {
          "internalType": "uint256",
          "name": "",
          "type": "uint256"
        },
        {
          "internalType": "uint256",
          "name": "",
          "type": "uint256"
        }
      ],
      "stateMutability": "view",
      "type": "function"
    },
    {
      "inputs": [
        {
          "internalType": "bytes32",
          "name": "role",
          "type": "bytes32"
        },
        {
          "internalType": "address",
          "name": "account",
          "type": "address"
        }
      ],
      "name": "grantRole",
      "outputs": [],
      "stateMutability": "nonpayable",
      "type": "function"
    },
    {
      "inputs": [
        {
          "internalType": "bytes32",
          "name": "role",
          "type": "bytes32"
        },
        {
          "internalType": "address",
          "name": "account",
          "type": "address"
        }
      ],
      "name": "hasRole",
      "outputs": [
        {
          "internalType": "bool",
          "name": "",
          "type": "bool"
        }
      ],
      "stateMutability": "view",
      "type": "function"
    },
    {
      "inputs": [
        {
          "internalType": "contract DygnifyConfig",
          "name": "_dygnifyConfig",
          "type": "address"
        },
        {
          "internalType": "bytes32",
          "name": "_opportunityID",
          "type": "bytes32"
        },
        {
          "internalType": "uint256",
          "name": "_loanAmount",
          "type": "uint256"
        },
        {
          "internalType": "uint256",
          "name": "_loanTenureInDays",
          "type": "uint256"
        },
        {
          "internalType": "uint256",
          "name": "_loanInterest",
          "type": "uint256"
        },
        {
          "internalType": "uint256",
          "name": "_paymentFrequencyInDays",
          "type": "uint256"
        }
      ],
      "name": "initialize",
      "outputs": [],
      "stateMutability": "nonpayable",
      "type": "function"
    },
    {
      "inputs": [],
      "name": "investor",
      "outputs": [
        {
          "internalType": "contract Investor",
          "name": "",
          "type": "address"
        }
      ],
      "stateMutability": "view",
      "type": "function"
    },
    {
      "inputs": [],
      "name": "isAdmin",
      "outputs": [
        {
          "internalType": "bool",
          "name": "",
          "type": "bool"
        }
      ],
      "stateMutability": "view",
      "type": "function"
    },
    {
      "inputs": [],
      "name": "isDrawdownsPaused",
      "outputs": [
        {
          "internalType": "bool",
          "name": "",
          "type": "bool"
        }
      ],
      "stateMutability": "view",
      "type": "function"
    },
    {
      "inputs": [
        {
          "internalType": "address",
          "name": "",
          "type": "address"
        }
      ],
      "name": "isStaking",
      "outputs": [
        {
          "internalType": "bool",
          "name": "",
          "type": "bool"
        }
      ],
      "stateMutability": "view",
      "type": "function"
    },
    {
      "inputs": [],
      "name": "juniorOverduePerecentage",
      "outputs": [
        {
          "internalType": "uint256",
          "name": "",
          "type": "uint256"
        }
      ],
      "stateMutability": "view",
      "type": "function"
    },
    {
      "inputs": [],
      "name": "juniorSubpoolDetails",
      "outputs": [
        {
          "internalType": "uint256",
          "name": "id",
          "type": "uint256"
        },
        {
          "internalType": "uint256",
          "name": "totalDepositable",
          "type": "uint256"
        },
        {
          "internalType": "uint256",
          "name": "depositedAmount",
          "type": "uint256"
        },
        {
          "internalType": "bool",
          "name": "isPoolLocked",
          "type": "bool"
        },
        {
          "internalType": "uint256",
          "name": "fundsLockedUntil",
          "type": "uint256"
        },
        {
          "internalType": "uint256",
          "name": "yieldGenerated",
          "type": "uint256"
        },
        {
          "internalType": "uint256",
          "name": "overdueGenerated",
          "type": "uint256"
        }
      ],
      "stateMutability": "view",
      "type": "function"
    },
    {
      "inputs": [],
      "name": "juniorYieldPerecentage",
      "outputs": [
        {
          "internalType": "uint256",
          "name": "",
          "type": "uint256"
        }
      ],
      "stateMutability": "view",
      "type": "function"
    },
    {
      "inputs": [],
      "name": "loanAmount",
      "outputs": [
        {
          "internalType": "uint256",
          "name": "",
          "type": "uint256"
        }
      ],
      "stateMutability": "view",
      "type": "function"
    },
    {
      "inputs": [],
      "name": "loanInterest",
      "outputs": [
        {
          "internalType": "uint256",
          "name": "",
          "type": "uint256"
        }
      ],
      "stateMutability": "view",
      "type": "function"
    },
    {
      "inputs": [],
      "name": "loanTenureInDays",
      "outputs": [
        {
          "internalType": "uint256",
          "name": "",
          "type": "uint256"
        }
      ],
      "stateMutability": "view",
      "type": "function"
    },
    {
      "inputs": [
        {
          "internalType": "uint8",
          "name": "_subpoolId",
          "type": "uint8"
        }
      ],
      "name": "lockPool",
      "outputs": [],
      "stateMutability": "nonpayable",
      "type": "function"
    },
    {
      "inputs": [],
      "name": "lpToken",
      "outputs": [
        {
          "internalType": "contract LPToken",
          "name": "",
          "type": "address"
        }
      ],
      "stateMutability": "view",
      "type": "function"
    },
    {
      "inputs": [],
      "name": "nextRepaymentTime",
      "outputs": [
        {
          "internalType": "uint256",
          "name": "",
          "type": "uint256"
        }
      ],
      "stateMutability": "view",
      "type": "function"
    },
    {
      "inputs": [],
      "name": "oneYearInDays",
      "outputs": [
        {
          "internalType": "uint256",
          "name": "",
          "type": "uint256"
        }
      ],
      "stateMutability": "view",
      "type": "function"
    },
    {
      "inputs": [],
      "name": "opportunityID",
      "outputs": [
        {
          "internalType": "bytes32",
          "name": "",
          "type": "bytes32"
        }
      ],
      "stateMutability": "view",
      "type": "function"
    },
    {
      "inputs": [],
      "name": "opportunityOrigination",
      "outputs": [
        {
          "internalType": "contract OpportunityOrigination",
          "name": "",
          "type": "address"
        }
      ],
      "stateMutability": "view",
      "type": "function"
    },
    {
      "inputs": [],
      "name": "pause",
      "outputs": [],
      "stateMutability": "nonpayable",
      "type": "function"
    },
    {
      "inputs": [],
      "name": "pauseDrawdown",
      "outputs": [],
      "stateMutability": "nonpayable",
      "type": "function"
    },
    {
      "inputs": [],
      "name": "paused",
      "outputs": [
        {
          "internalType": "bool",
          "name": "",
          "type": "bool"
        }
      ],
      "stateMutability": "view",
      "type": "function"
    },
    {
      "inputs": [],
      "name": "paymentFrequencyInDays",
      "outputs": [
        {
          "internalType": "uint256",
          "name": "",
          "type": "uint256"
        }
      ],
      "stateMutability": "view",
      "type": "function"
    },
    {
      "inputs": [],
      "name": "poolBalance",
      "outputs": [
        {
          "internalType": "uint256",
          "name": "",
          "type": "uint256"
        }
      ],
      "stateMutability": "view",
      "type": "function"
    },
    {
      "inputs": [
        {
          "internalType": "bytes32",
          "name": "role",
          "type": "bytes32"
        },
        {
          "internalType": "address",
          "name": "account",
          "type": "address"
        }
      ],
      "name": "renounceRole",
      "outputs": [],
      "stateMutability": "nonpayable",
      "type": "function"
    },
    {
      "inputs": [],
      "name": "repayment",
      "outputs": [],
      "stateMutability": "nonpayable",
      "type": "function"
    },
    {
      "inputs": [],
      "name": "repaymentCounter",
      "outputs": [
        {
          "internalType": "uint256",
          "name": "",
          "type": "uint256"
        }
      ],
      "stateMutability": "view",
      "type": "function"
    },
    {
      "inputs": [],
      "name": "repaymentStartTime",
      "outputs": [
        {
          "internalType": "uint256",
          "name": "",
          "type": "uint256"
        }
      ],
      "stateMutability": "view",
      "type": "function"
    },
    {
      "inputs": [
        {
          "internalType": "bytes32",
          "name": "role",
          "type": "bytes32"
        },
        {
          "internalType": "address",
          "name": "account",
          "type": "address"
        }
      ],
      "name": "revokeRole",
      "outputs": [],
      "stateMutability": "nonpayable",
      "type": "function"
    },
    {
      "inputs": [],
      "name": "seniorOverduePerecentage",
      "outputs": [
        {
          "internalType": "uint256",
          "name": "",
          "type": "uint256"
        }
      ],
      "stateMutability": "view",
      "type": "function"
    },
    {
      "inputs": [],
      "name": "seniorSubpoolDetails",
      "outputs": [
        {
          "internalType": "uint256",
          "name": "id",
          "type": "uint256"
        },
        {
          "internalType": "uint256",
          "name": "totalDepositable",
          "type": "uint256"
        },
        {
          "internalType": "uint256",
          "name": "depositedAmount",
          "type": "uint256"
        },
        {
          "internalType": "bool",
          "name": "isPoolLocked",
          "type": "bool"
        },
        {
          "internalType": "uint256",
          "name": "fundsLockedUntil",
          "type": "uint256"
        },
        {
          "internalType": "uint256",
          "name": "yieldGenerated",
          "type": "uint256"
        },
        {
          "internalType": "uint256",
          "name": "overdueGenerated",
          "type": "uint256"
        }
      ],
      "stateMutability": "view",
      "type": "function"
    },
    {
      "inputs": [],
      "name": "seniorYieldPerecentage",
      "outputs": [
        {
          "internalType": "uint256",
          "name": "",
          "type": "uint256"
        }
      ],
      "stateMutability": "view",
      "type": "function"
    },
    {
      "inputs": [
        {
          "internalType": "address",
          "name": "",
          "type": "address"
        }
      ],
      "name": "stakingBalance",
      "outputs": [
        {
          "internalType": "uint256",
          "name": "",
          "type": "uint256"
        }
      ],
      "stateMutability": "view",
      "type": "function"
    },
    {
      "inputs": [
        {
          "internalType": "bytes4",
          "name": "interfaceId",
          "type": "bytes4"
        }
      ],
      "name": "supportsInterface",
      "outputs": [
        {
          "internalType": "bool",
          "name": "",
          "type": "bool"
        }
      ],
      "stateMutability": "view",
      "type": "function"
    },
    {
      "inputs": [],
      "name": "totalRepaidAmount",
      "outputs": [
        {
          "internalType": "uint256",
          "name": "",
          "type": "uint256"
        }
      ],
      "stateMutability": "view",
      "type": "function"
    },
    {
      "inputs": [],
      "name": "totalRepayments",
      "outputs": [
        {
          "internalType": "uint256",
          "name": "",
          "type": "uint256"
        }
      ],
      "stateMutability": "view",
      "type": "function"
    },
    {
      "inputs": [
        {
          "internalType": "uint8",
          "name": "_subpoolId",
          "type": "uint8"
        }
      ],
      "name": "unLockPool",
      "outputs": [],
      "stateMutability": "nonpayable",
      "type": "function"
    },
    {
      "inputs": [],
      "name": "unpause",
      "outputs": [],
      "stateMutability": "nonpayable",
      "type": "function"
    },
    {
      "inputs": [],
      "name": "unpauseDrawdown",
      "outputs": [],
      "stateMutability": "nonpayable",
      "type": "function"
    },
    {
      "inputs": [],
      "name": "usdcToken",
      "outputs": [
        {
          "internalType": "contract IERC20",
          "name": "",
          "type": "address"
        }
      ],
      "stateMutability": "view",
      "type": "function"
    },
    {
      "inputs": [
        {
          "internalType": "uint8",
          "name": "_subpoolId",
          "type": "uint8"
        },
        {
          "internalType": "uint256",
          "name": "amount",
          "type": "uint256"
        }
      ],
      "name": "withdraw",
      "outputs": [],
      "stateMutability": "nonpayable",
      "type": "function"
    },
    {
      "inputs": [
        {
          "internalType": "uint8",
          "name": "_subpoolId",
          "type": "uint8"
        }
      ],
      "name": "withdrawAll",
      "outputs": [
        {
          "internalType": "uint256",
          "name": "",
          "type": "uint256"
        }
      ],
      "stateMutability": "nonpayable",
      "type": "function"
    }
  ],
  "bytecode": "0x608060405234801561001057600080fd5b50614b40806100206000396000f3fe608060405234801561001057600080fd5b50600436106103d05760003560e01c806375b238fc116101ff578063c5e2bf1a1161011a578063df9fd1c1116100ad578063eedffb961161007c578063eedffb961461085c578063f4d4c9d714610866578063ff3779f014610879578063ff3a5644146108a057600080fd5b8063df9fd1c1146107fe578063e0fdf7c614610806578063e63ab1e91461082d578063e77ef21f1461085457600080fd5b8063d661d320116100e9578063d661d320146107cf578063dadfecca146107d7578063ddc22b74146107df578063dee05609146107f457600080fd5b8063c5e2bf1a14610773578063c8dd7bf314610786578063cab9bd0014610790578063d547741f146107bc57600080fd5b80639d585f7f11610192578063a5bb19b211610161578063a5bb19b21461074e578063a7292ea414610757578063b6db75a014610761578063bbbf13ea1461076957600080fd5b80639d585f7f146107205780639f964fe61461072a578063a12dde4d14610733578063a217fddf1461074657600080fd5b806391d14854116101ce57806391d14854146106c957806396365d441461070257806399e7f2501461070c5780639b021fa21461071657600080fd5b806375b238fc146106865780637fca631f146106ad5780638456cb59146106b7578063891369b2146106bf57600080fd5b80632588d168116102ef578063526d81f6116102825780635fcbd285116102515780635fcbd285146106345780636a15633b146106475780636f49712b1461065a5780637101fd161461067e57600080fd5b8063526d81f61461060457806353654e851461060c5780635b483e4c1461061f5780635c975abb1461062957600080fd5b80633f489914116102be5780633f489914146105be5780633f4ba83a146105d157806345bc78ab146105d957806346e35faa146105fa57600080fd5b80632588d1681461057d5780632f2ff15d1461059057806334d93fb4146105a357806336568abe146105ab57600080fd5b806311eac855116103675780631e0018d6116103365780631e0018d6146105335780632159e4581461054657806322eac12c14610550578063248a9ca31461055a57600080fd5b806311eac855146104e357806317cd802d1461050e5780631be95459146105165780631daa910e1461052957600080fd5b806307a7c08a116103a357806307a7c08a146104895780630a2c1505146104a65780630b4a45fd146104b45780630e7b949e146104bc57600080fd5b806301ffc9a7146103d557806303199494146103fd578063052c3c261461045e578063074f254314610473575b600080fd5b6103e86103e33660046147dc565b6108aa565b60405190151581526020015b60405180910390f35b61011b5461011c5461011d5461011e5461011f5461012054610121546104299695949360ff1692919087565b604080519788526020880196909652948601939093529015156060850152608084015260a083015260c082015260e0016103f4565b61047161046c366004614804565b610913565b005b61047b611167565b6040519081526020016103f4565b61049161131f565b604080519283526020830191909152016103f4565b610111546103e89060ff1681565b6104716113da565b61047b7f2344277e405079ec07749d374ba0b5862a4e45a6a05ac889dbb4a991c6f9354d81565b60fe546104f6906001600160a01b031681565b6040516001600160a01b0390911681526020016103f4565b610471611452565b60fb546104f6906001600160a01b031681565b61047b61010e5481565b60fd546104f6906001600160a01b031681565b61047b61010a5481565b61047b6101085481565b61047b610568366004614795565b60009081526065602052604090206001015490565b60fc546104f6906001600160a01b031681565b61047161059e3660046147ad565b611a70565b610471611a9a565b6104716105b93660046147ad565b611b0f565b6104716105cc36600461491f565b611b9b565b61047161213c565b61047b6105e736600461473d565b6101126020526000908152604090205481565b61047b61010f5481565b6104716121d1565b61047b61061a366004614905565b6122f1565b61047b6101095481565b60975460ff166103e8565b60ff546104f6906001600160a01b031681565b610471610655366004614905565b6129b2565b6103e861066836600461473d565b6101136020526000908152604090205460ff1681565b61047b612ad1565b61047b7fa49807205ce4d355092ef5a8a18f56e8913cf4a201fbe287825b095693c2177581565b61047b61010b5481565b610471612c6c565b61047b61010c5481565b6103e86106d73660046147ad565b60009182526065602090815260408084206001600160a01b0393909316845291905290205460ff1690565b61047b6101055481565b61047b6101025481565b61047b6101075481565b61047b6101015481565b6101155461047b565b61047161074136600461473d565b612cff565b61047b600081565b61047b61016881565b61047b6101035481565b6103e8612ea0565b61047b6101065481565b610471610781366004614905565b612ed1565b61047b6101005481565b61011454610115546101165461011754610118546101195461011a546104299695949360ff1692919087565b6104716107ca3660046147ad565b612fea565b61047b61300f565b610491613023565b6107e76130f8565b6040516103f491906149e5565b61047b61010d5481565b61047b613197565b61047b7ffa4b6f760d780a02797df53a6c2ccf476001dc02ee4f9b6b1426dafc21ff6baf81565b61047b7f65d7a28e3265b37a6474929f336521b332c1681b933f6cb9f3376673440d862a81565b61047161321d565b61047b6101105481565b61047161087436600461491f565b6135bf565b61047b7fa794a061bac4a541306b6778cc120a221216f325de0020c39b67101d49158ca281565b61047b6101045481565b60006001600160e01b031982167f7965db0b00000000000000000000000000000000000000000000000000000000148061090d57507f01ffc9a7000000000000000000000000000000000000000000000000000000006001600160e01b03198316145b92915050565b600054610100900460ff16158080156109335750600054600160ff909116105b8061094d5750303b15801561094d575060005460ff166001145b6109c45760405162461bcd60e51b815260206004820152602e60248201527f496e697469616c697a61626c653a20636f6e747261637420697320616c72656160448201527f647920696e697469616c697a656400000000000000000000000000000000000060648201526084015b60405180910390fd5b6000805460ff1916600117905580156109e7576000805461ff0019166101001790555b6001600160a01b038716610a3d5760405162461bcd60e51b815260206004820152601660248201527f496e76616c696420636f6e66696720616464726573730000000000000000000060448201526064016109bb565b60fb80546001600160a01b0319166001600160a01b038916908117909155600090610a6790613b5d565b90506001600160a01b038116610abf5760405162461bcd60e51b815260206004820152600d60248201527f496e76616c6964204f776e65720000000000000000000000000000000000000060448201526064016109bb565b60fb54610ad4906001600160a01b0316613bde565b60fc80546001600160a01b0319166001600160a01b0392831617905560fb54610afd9116613bf6565b60fd80546001600160a01b0319166001600160a01b0392909216919091179055610b2681612cff565b60fb54610b3b906001600160a01b0316613c0e565b60fe80546001600160a01b0319166001600160a01b0392831617905560fb54610b649116613c26565b60ff80546001600160a01b0319166001600160a01b0392909216919091179055610bce7fa794a061bac4a541306b6778cc120a221216f325de0020c39b67101d49158ca27fa49807205ce4d355092ef5a8a18f56e8913cf4a201fbe287825b095693c21775613c3e565b60fb54610c0e907fa794a061bac4a541306b6778cc120a221216f325de0020c39b67101d49158ca290610c09906001600160a01b0316613c89565b613ca1565b610c587f2344277e405079ec07749d374ba0b5862a4e45a6a05ac889dbb4a991c6f9354d7fa49807205ce4d355092ef5a8a18f56e8913cf4a201fbe287825b095693c21775613c3e565b610ca27ffa4b6f760d780a02797df53a6c2ccf476001dc02ee4f9b6b1426dafc21ff6baf7fa49807205ce4d355092ef5a8a18f56e8913cf4a201fbe287825b095693c21775613c3e565b610ccc7ffa4b6f760d780a02797df53a6c2ccf476001dc02ee4f9b6b1426dafc21ff6baf82613ca1565b60fc546040517f728c3ea2000000000000000000000000000000000000000000000000000000008152600481018990526000916001600160a01b03169063728c3ea29060240160206040518083038186803b158015610d2a57600080fd5b505afa158015610d3e573d6000803e3d6000fd5b505050506040513d601f19601f82011682018060405250810190610d629190614759565b9050610d8e7f2344277e405079ec07749d374ba0b5862a4e45a6a05ac889dbb4a991c6f9354d82613ca1565b61010088905561010187905561010286905561010385905561010484905560016101075560fb546040517fe4a3d784000000000000000000000000000000000000000000000000000000008152600481018a90526001600160a01b039091169063e4a3d7849060240160206040518083038186803b158015610e0f57600080fd5b505afa158015610e23573d6000803e3d6000fd5b505050506040513d601f19601f82011682018060405250810190610e479190614775565b610ecb57610117805460ff1916600117905560fb54600090610e8a90610e75906001600160a01b0316613cab565b610e80906001614a18565b6101015490613d2c565b60fb54909150610ead90610ea6906001600160a01b0316613cab565b8290613d3f565b61011581905561010154610ec19190614a6f565b61011c5550610ee2565b61011e805460ff1916600117905561010154610115555b60006101025462015180610ef69190614a50565b9050610f028142614a18565b61011f5561010354600090610f1990610168613d2c565b90506000610f4f610f45620f4240610f3f610f35866064613d2c565b6101015490613d3f565b90613d2c565b6101015490613d4b565b9050610f74610f6d6101045461010254613d2c90919063ffffffff16565b8290613d2c565b6101095560fb54600090610f9b90610f94906001600160a01b0316613d57565b8490613d4b565b9050610fb36101025482613d2c90919063ffffffff16565b61010b81905550610fea620f4240610fe4610e80620f4240610fe46101045461010254613d2c90919063ffffffff16565b90613d3f565b61010a556101045461010254610fff91613d2c565b6101085561100b613023565b61010e5561010d5561101b61131f565b6101105561010f5560fe546040517f095ea7b300000000000000000000000000000000000000000000000000000000815230600482015260001960248201526000916001600160a01b03169063095ea7b390604401602060405180830381600087803b15801561108a57600080fd5b505af115801561109e573d6000803e3d6000fd5b505050506040513d601f19601f820116820180604052508101906110c29190614775565b9050806111115760405162461bcd60e51b815260206004820152601660248201527f4661696c656420746f20617070726f766520555344430000000000000000000060448201526064016109bb565b50505050505050801561115e576000805461ff0019169055604051600181527f7f26b83ff96e1f2b6a682f133852f6798a09c465da95921460cefb38474024989060200160405180910390a15b50505050505050565b6000610108546101075411156111bf5760405162461bcd60e51b815260206004820152601960248201527f52657061796d656e742050726f6365737320697320646f6e650000000000000060448201526064016109bb565b60fc5461010054604051630231155f60e51b81526001600160a01b0390921691634622abe0916111f59160040190815260200190565b60206040518083038186803b15801561120d57600080fd5b505afa158015611221573d6000803e3d6000fd5b505050506040513d601f19601f820116820180604052508101906112459190614775565b15156001146112a95760405162461bcd60e51b815260206004820152602a60248201527f46756e647320696e206f70706f7274756e69747920686176656e2774206472616044820152693bb237bbb7103cb2ba1760b11b60648201526084016109bb565b610109544260006112b8613197565b905060008183111561130c5760006112d762015180610f3f8686613d6f565b9050611308620f4240610f3f61010954610fe4611301606461010b54613d2c90919063ffffffff16565b8690613d3f565b9150505b6113168482613d4b565b95945050505050565b600080600061010a54610109546113369190614a6f565b60fb5490915060009061136a90611355906001600160a01b0316613cab565b611360906001614a18565b61010a5490613d2c565b60fb5490915060009061139090611389906001600160a01b0316613cab565b8390613d3f565b905060006113ae84610f3f61010d5485613d3f90919063ffffffff16565b905060006113cc85610f3f61010e5487613d3f90919063ffffffff16565b919791965090945050505050565b6113e2612ea0565b6114425760405162461bcd60e51b815260206004820152602b60248201527f4d75737420686176652061646d696e20726f6c6520746f20706572666f726d2060448201526a3a3434b99030b1ba34b7b760a91b60648201526084016109bb565b610111805460ff19166001179055565b600260c95414156114a55760405162461bcd60e51b815260206004820152601f60248201527f5265656e7472616e637947756172643a207265656e7472616e742063616c6c0060448201526064016109bb565b600260c9556114b2613d7b565b3360009081527f3a5c5fdc6d68aca0335558f1dead9769256edaf7721e28efaba2044a61fcc1c2602052604090205460ff166115475760405162461bcd60e51b815260206004820152602e60248201527f4d757374206861766520626f72726f77657220726f6c6520746f20706572666f60448201526d3936903a3434b99030b1ba34b7b760911b60648201526084016109bb565b6101085461010754111561159d5760405162461bcd60e51b815260206004820152601960248201527f52657061796d656e742050726f6365737320697320646f6e650000000000000060448201526064016109bb565b60fc5461010054604051630231155f60e51b81526001600160a01b0390921691634622abe0916115d39160040190815260200190565b60206040518083038186803b1580156115eb57600080fd5b505afa1580156115ff573d6000803e3d6000fd5b505050506040513d601f19601f820116820180604052508101906116239190614775565b15156001146116875760405162461bcd60e51b815260206004820152602a60248201527f46756e647320696e206f70706f7274756e69747920686176656e2774206472616044820152693bb237bbb7103cb2ba1760b11b60648201526084016109bb565b6101095461010c80548291906000906116a1908490614a18565b9091555042905060006116b2613197565b90506000818311156116ff5760006116d162015180610f3f8686613d6f565b90506116fb620f4240610f3f61010954610fe4611301606461010b54613d2c90919063ffffffff16565b9150505b60fb546000906117289061136090600190611722906001600160a01b0316613cab565b90613d4b565b60fb5490915060009061174790611389906001600160a01b0316613cab565b610116549091506117589082613d4b565b6101165561011d5461176a9083613d4b565b61011d5561010d546117939061178990620f424090610f3f9085613d3f565b6101195490613d4b565b6101195561010e546117bc906117b290620f424090610f3f9086613d3f565b6101205490613d4b565b61012055610110546117e5906117db90620f424090610f3f9087613d3f565b6101215490613d4b565b6101215561010f5461180e9061180490620f424090610f3f9087613d3f565b61011a5490613d4b565b61011a5561010a5461010954600091829161182891613d6f565b60fb5490915061185490620f424090610f3f9061184d906001600160a01b0316613dce565b8490613d3f565b60fb5490925061188090620f424090610f3f90611879906001600160a01b0316613dce565b8890613d3f565b61188a9083614a18565b60fb549092506118bc9030906118a8906001600160a01b0316613de6565b60fe546001600160a01b0316919085613dfe565b6118c68886613d4b565b610105549098506118d79089613d4b565b61010555610107546118ea906001613d4b565b6101075560fe54611906906001600160a01b031633308b613dfe565b61010854610107541415611a615760fc54610100546040517f332f14860000000000000000000000000000000000000000000000000000000081526001600160a01b039092169163332f1486916119639160040190815260200190565b600060405180830381600087803b15801561197d57600080fd5b505af1158015611991573d6000803e3d6000fd5b5050610116546101195461011a54600094509192506119af91614a18565b6119b99190614a18565b60fe5460fb549192506001600160a01b039081169163a9059cbb916119de9116613c89565b6040516001600160e01b031960e084901b1681526001600160a01b03909116600482015260248101849052604401602060405180830381600087803b158015611a2657600080fd5b505af1158015611a3a573d6000803e3d6000fd5b505050506040513d601f19601f82011682018060405250810190611a5e9190614775565b50505b5050600160c955505050505050565b600082815260656020526040902060010154611a8b81613e8c565b611a958383613e96565b505050565b611aa2612ea0565b611b025760405162461bcd60e51b815260206004820152602b60248201527f4d75737420686176652061646d696e20726f6c6520746f20706572666f726d2060448201526a3a3434b99030b1ba34b7b760a91b60648201526084016109bb565b610111805460ff19169055565b6001600160a01b0381163314611b8d5760405162461bcd60e51b815260206004820152602f60248201527f416363657373436f6e74726f6c3a2063616e206f6e6c792072656e6f756e636560448201527f20726f6c657320666f722073656c66000000000000000000000000000000000060648201526084016109bb565b611b978282613f38565b5050565b600260c9541415611bee5760405162461bcd60e51b815260206004820152601f60248201527f5265656e7472616e637947756172643a207265656e7472616e742063616c6c0060448201526064016109bb565b600260c955611bfb613d7b565b600160ff83161115611c4f5760405162461bcd60e51b815260206004820152601860248201527f537562706f6f6c4944203a206f7574206f662072616e6765000000000000000060448201526064016109bb565b60008111611c9f5760405162461bcd60e51b815260206004820181905260248201527f416d6f756e74204d7573742062652067726561746572207468616e207a65726f60448201526064016109bb565b60ff821660011415611e41576101175460ff1615611cff5760405162461bcd60e51b815260206004820152601860248201527f53656e696f7220537562706f6f6c206973206c6f636b6564000000000000000060448201526064016109bb565b3360009081527f2892c78fbc31f59255f157a1512973f37f8ab9b97be744fa9c97d26a902864ae602052604090205460ff16611db15760405162461bcd60e51b8152602060048201526044602482018190527f596f75206d75737420686176652053656e696f7220706f6f6c20726f6c652069908201527f6e206f7264657220746f206465706f73697420696e2073656e696f72207375626064820152631c1bdbdb60e21b608482015260a4016109bb565b61011654811115611e2a5760405162461bcd60e51b815260206004820152603b60248201527f416d6f756e7420657863656564732074686520546f74616c206465706f73697460448201527f656420616d6f756e74206f662073656e696f7220737562706f6f6c000000000060648201526084016109bb565b61011654611e389082613d6f565b610116556120ce565b60ff82166120ce5761011f54421015611e9c5760405162461bcd60e51b815260206004820181905260248201527f66756e647320617265206c6f636b20756e74696c204c6f616e2054656e75726560448201526064016109bb565b61011e5460ff1615611ef05760405162461bcd60e51b815260206004820152601860248201527f4a756e696f7220537562706f6f6c206973206c6f636b6564000000000000000060448201526064016109bb565b3360009081526101126020908152604080832054610113909252909120805460ff1916918311159182179055611f8e5760405162461bcd60e51b815260206004820152603560248201527f796f757220776974686472617720616d6f756e7420697320686967686572207460448201527f68616e206465706f736974656420616d6f756e742e000000000000000000000060648201526084016109bb565b61011d548111156120075760405162461bcd60e51b815260206004820152603b60248201527f416d6f756e7420657863656564732074686520546f74616c206465706f73697460448201527f656420616d6f756e74206f66206a756e696f7220737562706f6f6c000000000060648201526084016109bb565b61011d546120159082613d6f565b61011d5533600090815261011260205260409020546120349082613d6f565b336000908152610112602052604090208190556120ce57336000818152610113602052604090819020805460ff1916905560fd54610100549151631bd3b3dd60e31b8152600481019390935260248301919091526001600160a01b03169063de9d9ee890604401600060405180830381600087803b1580156120b557600080fd5b505af11580156120c9573d6000803e3d6000fd5b505050505b610105546120dc9082613d6f565b6101055560fe546120f8906001600160a01b0316303384613dfe565b60405181815260ff83169033907fd5717d2b2bcb82b3f3aea5c8c75e2194c2a7b177469cd9a5cef423e940ab81c7906020015b60405180910390a35050600160c955565b6121667f65d7a28e3265b37a6474929f336521b332c1681b933f6cb9f3376673440d862a336106d7565b6121c75760405162461bcd60e51b815260206004820152602c60248201527f4d75737420686176652070617573657220726f6c6520746f20706572666f726d60448201526b103a3434b99030b1ba34b7b760a11b60648201526084016109bb565b6121cf613fbb565b565b600054610100900460ff16158080156121f15750600054600160ff909116105b8061220b5750303b15801561220b575060005460ff166001145b61227d5760405162461bcd60e51b815260206004820152602e60248201527f496e697469616c697a61626c653a20636f6e747261637420697320616c72656160448201527f647920696e697469616c697a656400000000000000000000000000000000000060648201526084016109bb565b6000805460ff1916600117905580156122a0576000805461ff0019166101001790555b6122a861400d565b80156122ee576000805461ff0019169055604051600181527f7f26b83ff96e1f2b6a682f133852f6798a09c465da95921460cefb38474024989060200160405180910390a15b50565b6000600260c95414156123465760405162461bcd60e51b815260206004820152601f60248201527f5265656e7472616e637947756172643a207265656e7472616e742063616c6c0060448201526064016109bb565b600260c955612353613d7b565b600160ff831611156123a75760405162461bcd60e51b815260206004820152601860248201527f537562706f6f6c4944203a206f7574206f662072616e6765000000000000000060448201526064016109bb565b60fc5461010054604051638176715560e01b81526001600160a01b03909216916381767155916123dd9160040190815260200190565b60206040518083038186803b1580156123f557600080fd5b505afa158015612409573d6000803e3d6000fd5b505050506040513d601f19601f8201168201806040525081019061242d9190614775565b15156001146124915760405162461bcd60e51b815260206004820152602a60248201527f46756e647320696e206f70706f7274756e69747920686176656e2774206472616044820152693bb237bbb7103cb2ba1760b11b60648201526084016109bb565b600060ff831660011415612661576101175460ff16156124f35760405162461bcd60e51b815260206004820152601860248201527f53656e696f7220537562706f6f6c206973206c6f636b6564000000000000000060448201526064016109bb565b3360009081527f2892c78fbc31f59255f157a1512973f37f8ab9b97be744fa9c97d26a902864ae602052604090205460ff166125a55760405162461bcd60e51b8152602060048201526044602482018190527f596f75206d75737420686176652053656e696f7220706f6f6c20726f6c652069908201527f6e206f7264657220746f206465706f73697420696e2073656e696f72207375626064820152631c1bdbdb60e21b608482015260a4016109bb565b6101165461261b5760405162461bcd60e51b815260206004820152602b60248201527f62616c616e6365206f662073656e696f7220737562706f6f6c206973207a657260448201527f6f2063757272656e746c7900000000000000000000000000000000000000000060648201526084016109bb565b610119546101165461262c91613d4b565b61011a54909150156126505761011a54612647908290613d4b565b600061011a5590505b60006101168190556101195561297d565b60ff831661297d5761011e5460ff16156126bd5760405162461bcd60e51b815260206004820152601860248201527f4a756e696f7220537562706f6f6c206973206c6f636b6564000000000000000060448201526064016109bb565b336000908152610113602052604090205460ff16151560011480156126f15750336000908152610112602052604090205415155b61273d5760405162461bcd60e51b815260206004820152601760248201527f7a65726f20616d6f756e7420746f206465706f7369742e00000000000000000060448201526064016109bb565b61011d54336000908152610112602052604090205411156127b65760405162461bcd60e51b815260206004820152602d60248201527f63757272656e746c79206a756e696f7220737562706f6f6c20646f6e2774206860448201526c617665204c697175696469747960981b60648201526084016109bb565b336000908152610112602052604081205461010e546127dd91620f424091610f3f91613d3f565b610120549091508111156128495760405162461bcd60e51b815260206004820152602d60248201527f63757272656e746c79206a756e696f7220737562706f6f6c20646f6e2774206860448201526c617665204c697175696469747960981b60648201526084016109bb565b336000908152610112602052604090205461011d5461286791613d6f565b61011d55610120546128799082613d6f565b6101205533600090815261011360209081526040808320805460ff191690556101129091529020546128ab9082613d4b565b6101215490925015612901573360009081526101126020526040812054610110546128de91620f424091610f3f91613d3f565b90506128ea8382613d4b565b610121549093506128fb9082613d6f565b61012155505b60fd5461010054604051631bd3b3dd60e31b815233600482015260248101919091526001600160a01b039091169063de9d9ee890604401600060405180830381600087803b15801561295257600080fd5b505af1158015612966573d6000803e3d6000fd5b505033600090815261011260205260408120555050505b6101055461298b9082613d6f565b6101055560fe546129a7906001600160a01b0316303384613dfe565b600160c95592915050565b3360009081527f0cc05db404293ecdddd3d47ddbcbafd5d44e2adcb65cd3b9fb9fd65c065747be602052604090205460ff16612a475760405162461bcd60e51b815260206004820152602e60248201527f4d757374206861766520626f72726f77657220726f6c6520746f20706572666f60448201526d3936903a3434b99030b1ba34b7b760911b60648201526084016109bb565b600160ff82161115612a9b5760405162461bcd60e51b815260206004820152601860248201527f537562706f6f6c4944203a206f7574206f662072616e6765000000000000000060448201526064016109bb565b60ff811660011415612ab857610117805460ff1916600117905550565b60ff81166122ee5761011e805460ff1916600117905550565b336000908152610113602052604081205460ff1615156001148015612b055750336000908152610112602052604090205415155b612b515760405162461bcd60e51b815260206004820152601960248201527f7a65726f20616d6f756e7420746f206465706f73697465642e0000000000000060448201526064016109bb565b60fc5461010054604051638176715560e01b815260048101919091526000916001600160a01b03169063817671559060240160206040518083038186803b158015612b9b57600080fd5b505afa158015612baf573d6000803e3d6000fd5b505050506040513d601f19601f82011682018060405250810190612bd39190614775565b151560011415612c6757336000908152610112602052604081205461010e54612c0491620f424091610f3f91613d3f565b3360009081526101126020526040902054909150612c229082613d4b565b6101215490925015612c6557336000908152610112602052604081205461011054612c5591620f424091610f3f91613d3f565b9050612c618382613d4b565b9250505b505b919050565b612c967f65d7a28e3265b37a6474929f336521b332c1681b933f6cb9f3376673440d862a336106d7565b612cf75760405162461bcd60e51b815260206004820152602c60248201527f4d75737420686176652070617573657220726f6c6520746f20706572666f726d60448201526b103a3434b99030b1ba34b7b760a11b60648201526084016109bb565b6121cf614084565b600054610100900460ff16612d6a5760405162461bcd60e51b815260206004820152602b60248201527f496e697469616c697a61626c653a20636f6e7472616374206973206e6f74206960448201526a6e697469616c697a696e6760a81b60648201526084016109bb565b6001600160a01b038116612dc05760405162461bcd60e51b815260206004820181905260248201527f4f776e65722063616e6e6f7420626520746865207a65726f206164647265737360448201526064016109bb565b612dc86140c1565b612dd061400d565b612dd861412c565b612e027fa49807205ce4d355092ef5a8a18f56e8913cf4a201fbe287825b095693c2177582613ca1565b612e2c7f65d7a28e3265b37a6474929f336521b332c1681b933f6cb9f3376673440d862a82613ca1565b612e767f65d7a28e3265b37a6474929f336521b332c1681b933f6cb9f3376673440d862a7fa49807205ce4d355092ef5a8a18f56e8913cf4a201fbe287825b095693c21775613c3e565b6122ee7fa49807205ce4d355092ef5a8a18f56e8913cf4a201fbe287825b095693c2177580613c3e565b6000612ecc7fa49807205ce4d355092ef5a8a18f56e8913cf4a201fbe287825b095693c21775336106d7565b905090565b3360009081527f0cc05db404293ecdddd3d47ddbcbafd5d44e2adcb65cd3b9fb9fd65c065747be602052604090205460ff16612f665760405162461bcd60e51b815260206004820152602e60248201527f4d757374206861766520626f72726f77657220726f6c6520746f20706572666f60448201526d3936903a3434b99030b1ba34b7b760911b60648201526084016109bb565b600160ff82161115612fba5760405162461bcd60e51b815260206004820152601860248201527f537562706f6f6c4944203a206f7574206f662072616e6765000000000000000060448201526064016109bb565b60ff811660011415612fd457610117805460ff1916905550565b60ff81166122ee5761011e805460ff1916905550565b60008281526065602052604090206001015461300581613e8c565b611a958383613f38565b61011a5461011954600091612ecc91614a18565b60fb546000908190620f4240908290613087908390610f3f9061307890613052906001600160a01b031661419e565b60fb546130729061306b906001600160a01b0316613dce565b8890613d6f565b90613d6f565b61010354610fe4906064613d2c565b60fb549091506000906130ec90620f424090610f3f90613078906130cc906130b7906001600160a01b0316613cab565b60fb54610fe4906001600160a01b031661419e565b60fb54611722906130e5906001600160a01b0316613dce565b8990613d6f565b91959194509092505050565b60fc54610100546040517ff00474a600000000000000000000000000000000000000000000000000000000815260048101919091526060916001600160a01b03169063f00474a69060240160006040518083038186803b15801561315b57600080fd5b505afa15801561316f573d6000803e3d6000fd5b505050506040513d6000823e601f3d908101601f19168201604052612ecc919081019061484f565b6000610108546101075411156131ef5760405162461bcd60e51b815260206004820152601960248201527f52657061796d656e742050726f6365737320697320646f6e650000000000000060448201526064016109bb565b600061090d61321361010454620151806132099190614a50565b6101075490613d3f565b6101065490613d4b565b600260c95414156132705760405162461bcd60e51b815260206004820152601f60248201527f5265656e7472616e637947756172643a207265656e7472616e742063616c6c0060448201526064016109bb565b600260c95561327d613d7b565b3360009081527f3a5c5fdc6d68aca0335558f1dead9769256edaf7721e28efaba2044a61fcc1c2602052604090205460ff166133125760405162461bcd60e51b815260206004820152602e60248201527f4d757374206861766520626f72726f77657220726f6c6520746f20706572666f60448201526d3936903a3434b99030b1ba34b7b760911b60648201526084016109bb565b60fc5461010054604051630231155f60e51b81526001600160a01b0390921691634622abe0916133489160040190815260200190565b60206040518083038186803b15801561336057600080fd5b505afa158015613374573d6000803e3d6000fd5b505050506040513d601f19601f820116820180604052508101906133989190614775565b1561340b5760405162461bcd60e51b815260206004820152602a60248201527f46756e647320696e206f70706f7274756e6974792061726520616c726561647960448201527f2064726177646f776e2e0000000000000000000000000000000000000000000060648201526084016109bb565b6101115460ff161561345f5760405162461bcd60e51b815260206004820152601260248201527f44726177646f776e20697320706175736564000000000000000000000000000060448201526064016109bb565b6101015461010554146135005760405162461bcd60e51b815260206004820152604760248201527f546f74616c204465706f736974656420616d6f756e7420696e206f70706f727460448201527f756e69747920706f6f6c206d75737420626520657175616c20746f206c6f616e60648201527f20616d6f756e7400000000000000000000000000000000000000000000000000608482015260a4016109bb565b610105805460009182905561011d82905561011691909155426101065560fc54610100546040517faf7ea9440000000000000000000000000000000000000000000000000000000081526001600160a01b039092169163af7ea9449161356c9160040190815260200190565b600060405180830381600087803b15801561358657600080fd5b505af115801561359a573d6000803e3d6000fd5b505060fe546135b792506001600160a01b03169050303384613dfe565b50600160c955565b600260c95414156136125760405162461bcd60e51b815260206004820152601f60248201527f5265656e7472616e637947756172643a207265656e7472616e742063616c6c0060448201526064016109bb565b600260c95561361f613d7b565b600160ff831611156136735760405162461bcd60e51b815260206004820152601860248201527f537562706f6f6c4944203a206f7574206f662072616e6765000000000000000060448201526064016109bb565b600081116136c35760405162461bcd60e51b815260206004820181905260248201527f416d6f756e74204d7573742062652067726561746572207468616e207a65726f60448201526064016109bb565b60ff82166001141561387b576101175460ff16156137235760405162461bcd60e51b815260206004820152601860248201527f53656e696f7220537562706f6f6c206973206c6f636b6564000000000000000060448201526064016109bb565b3360009081527f2892c78fbc31f59255f157a1512973f37f8ab9b97be744fa9c97d26a902864ae602052604090205460ff166137d55760405162461bcd60e51b8152602060048201526044602482018190527f596f75206d75737420686176652053656e696f7220706f6f6c20726f6c652069908201527f6e206f7264657220746f206465706f73697420696e2073656e696f72207375626064820152631c1bdbdb60e21b608482015260a4016109bb565b610116546000906137e7908390613d4b565b610115549091508111156138635760405162461bcd60e51b815260206004820152603860248201527f416d6f756e7420657863656564732074686520546f74616c206465706f73697460448201527f206c696d6974206f662073656e696f7220737562706f6f6c000000000000000060648201526084016109bb565b610116546138719083613d4b565b6101165550613afc565b60ff8216613afc5761011e5460ff16156138d75760405162461bcd60e51b815260206004820152601860248201527f4a756e696f7220537562706f6f6c206973206c6f636b6564000000000000000060448201526064016109bb565b61011d546000906138e9908390613d4b565b61011c549091508111156139655760405162461bcd60e51b815260206004820152603860248201527f416d6f756e7420657863656564732074686520546f74616c206465706f73697460448201527f206c696d6974206f66206a756e696f7220737562706f6f6c000000000000000060648201526084016109bb565b61011d546139739083613d4b565b61011d5533600090815261011260205260409020546139929083613d4b565b33600081815261011260209081526040808320949094556101139052829020805460ff1916600117905560fd546101005492517fe954539d000000000000000000000000000000000000000000000000000000008152600481019290925260248201929092526001600160a01b039091169063e954539d9060440160206040518083038186803b158015613a2557600080fd5b505afa158015613a39573d6000803e3d6000fd5b505050506040513d601f19601f82011682018060405250810190613a5d9190614775565b613ae45760fd54610100546040517fa68a132200000000000000000000000000000000000000000000000000000000815233600482015260248101919091526001600160a01b039091169063a68a132290604401600060405180830381600087803b158015613acb57600080fd5b505af1158015613adf573d6000803e3d6000fd5b505050505b61011c548110613afa57610117805460ff191690555b505b61010554613b0a9082613d4b565b6101055560fe54613b26906001600160a01b0316333084613dfe565b60405181815260ff83169033907f1d0787aee899a49ef81d0b11da9aca5455b46aefed042a41bd398d74619cab009060200161212b565b60006001600160a01b03821663b93f9b0a825b6040518263ffffffff1660e01b8152600401613b8e91815260200190565b60206040518083038186803b158015613ba657600080fd5b505afa158015613bba573d6000803e3d6000fd5b505050506040513d601f19601f8201168201806040525081019061090d9190614759565b60006001600160a01b03821663b93f9b0a6006613b70565b60006001600160a01b03821663b93f9b0a6007613b70565b60006001600160a01b03821663b93f9b0a6002613b70565b60006001600160a01b03821663b93f9b0a6001613b70565b600082815260656020526040808220600101805490849055905190918391839186917fbd79b86ffe0ab8e8776151514217cd7cacd52c909f66475c3af44e129f0b00ff9190a4505050565b60006001600160a01b03821663b93f9b0a6003613b70565b611b978282613e96565b60006001600160a01b03821663fc563658825b6040518263ffffffff1660e01b8152600401613cdc91815260200190565b60206040518083038186803b158015613cf457600080fd5b505afa158015613d08573d6000803e3d6000fd5b505050506040513d601f19601f8201168201806040525081019061090d91906148ed565b6000613d388284614a30565b9392505050565b6000613d388284614a50565b6000613d388284614a18565b60006001600160a01b03821663fc5636586002613cbe565b6000613d388284614a6f565b60975460ff16156121cf5760405162461bcd60e51b815260206004820152601060248201527f5061757361626c653a207061757365640000000000000000000000000000000060448201526064016109bb565b60006001600160a01b03821663fc5636586001613cbe565b60006001600160a01b03821663b93f9b0a6008613b70565b604080516001600160a01b0385811660248301528416604482015260648082018490528251808303909101815260849091019091526020810180517bffffffffffffffffffffffffffffffffffffffffffffffffffffffff167f23b872dd00000000000000000000000000000000000000000000000000000000179052613e869085906141b6565b50505050565b6122ee813361429b565b60008281526065602090815260408083206001600160a01b038516845290915290205460ff16611b975760008281526065602090815260408083206001600160a01b03851684529091529020805460ff19166001179055613ef43390565b6001600160a01b0316816001600160a01b0316837f2f8788117e7eff1d82e926ec794901d17c78024a50270940304540a733656f0d60405160405180910390a45050565b60008281526065602090815260408083206001600160a01b038516845290915290205460ff1615611b975760008281526065602090815260408083206001600160a01b0385168085529252808320805460ff1916905551339285917ff6391f5c32d9c69d2a47ea670b442974b53935d1edc7fd64eb21e047a839171b9190a45050565b613fc361431b565b6097805460ff191690557f5db9ee0a495bf2e6ff9c91a7834c1ba4fdd244a5e8aa4e537bd38aeae4b073aa335b6040516001600160a01b03909116815260200160405180910390a1565b600054610100900460ff166140785760405162461bcd60e51b815260206004820152602b60248201527f496e697469616c697a61626c653a20636f6e7472616374206973206e6f74206960448201526a6e697469616c697a696e6760a81b60648201526084016109bb565b6097805460ff19169055565b61408c613d7b565b6097805460ff191660011790557f62e78cea01bee320cd4e420270b5ea74000d11b0c9f74754ebdbfc544b05a258613ff03390565b600054610100900460ff166121cf5760405162461bcd60e51b815260206004820152602b60248201527f496e697469616c697a61626c653a20636f6e7472616374206973206e6f74206960448201526a6e697469616c697a696e6760a81b60648201526084016109bb565b600054610100900460ff166141975760405162461bcd60e51b815260206004820152602b60248201527f496e697469616c697a61626c653a20636f6e7472616374206973206e6f74206960448201526a6e697469616c697a696e6760a81b60648201526084016109bb565b600160c955565b60006001600160a01b03821663fc5636586003613cbe565b600061420b826040518060400160405280602081526020017f5361666545524332303a206c6f772d6c6576656c2063616c6c206661696c6564815250856001600160a01b031661436d9092919063ffffffff16565b805190915015611a9557808060200190518101906142299190614775565b611a955760405162461bcd60e51b815260206004820152602a60248201527f5361666545524332303a204552433230206f7065726174696f6e20646964206e60448201527f6f7420737563636565640000000000000000000000000000000000000000000060648201526084016109bb565b60008281526065602090815260408083206001600160a01b038516845290915290205460ff16611b97576142d9816001600160a01b03166014614384565b6142e4836020614384565b6040516020016142f5929190614964565b60408051601f198184030181529082905262461bcd60e51b82526109bb916004016149e5565b60975460ff166121cf5760405162461bcd60e51b815260206004820152601460248201527f5061757361626c653a206e6f742070617573656400000000000000000000000060448201526064016109bb565b606061437c84846000856145ab565b949350505050565b60606000614393836002614a50565b61439e906002614a18565b67ffffffffffffffff8111156143c457634e487b7160e01b600052604160045260246000fd5b6040519080825280601f01601f1916602001820160405280156143ee576020820181803683370190505b5090507f30000000000000000000000000000000000000000000000000000000000000008160008151811061443357634e487b7160e01b600052603260045260246000fd5b60200101906001600160f81b031916908160001a9053507f78000000000000000000000000000000000000000000000000000000000000008160018151811061448c57634e487b7160e01b600052603260045260246000fd5b60200101906001600160f81b031916908160001a90535060006144b0846002614a50565b6144bb906001614a18565b90505b600181111561455c577f303132333435363738396162636465660000000000000000000000000000000085600f166010811061450a57634e487b7160e01b600052603260045260246000fd5b1a60f81b82828151811061452e57634e487b7160e01b600052603260045260246000fd5b60200101906001600160f81b031916908160001a90535060049490941c9361455581614ab2565b90506144be565b508315613d385760405162461bcd60e51b815260206004820181905260248201527f537472696e67733a20686578206c656e67746820696e73756666696369656e7460448201526064016109bb565b6060824710156146235760405162461bcd60e51b815260206004820152602660248201527f416464726573733a20696e73756666696369656e742062616c616e636520666f60448201527f722063616c6c000000000000000000000000000000000000000000000000000060648201526084016109bb565b6001600160a01b0385163b61467a5760405162461bcd60e51b815260206004820152601d60248201527f416464726573733a2063616c6c20746f206e6f6e2d636f6e747261637400000060448201526064016109bb565b600080866001600160a01b031685876040516146969190614948565b60006040518083038185875af1925050503d80600081146146d3576040519150601f19603f3d011682016040523d82523d6000602084013e6146d8565b606091505b50915091506146e88282866146f3565b979650505050505050565b60608315614702575081613d38565b8251156147125782518084602001fd5b8160405162461bcd60e51b81526004016109bb91906149e5565b803560ff81168114612c6757600080fd5b60006020828403121561474e578081fd5b8135613d3881614af5565b60006020828403121561476a578081fd5b8151613d3881614af5565b600060208284031215614786578081fd5b81518015158114613d38578182fd5b6000602082840312156147a6578081fd5b5035919050565b600080604083850312156147bf578081fd5b8235915060208301356147d181614af5565b809150509250929050565b6000602082840312156147ed578081fd5b81356001600160e01b031981168114613d38578182fd5b60008060008060008060c0878903121561481c578182fd5b863561482781614af5565b9860208801359850604088013597606081013597506080810135965060a00135945092505050565b600060208284031215614860578081fd5b815167ffffffffffffffff80821115614877578283fd5b818401915084601f83011261488a578283fd5b81518181111561489c5761489c614adf565b604051601f8201601f19908116603f011681019083821181831017156148c4576148c4614adf565b816040528281528760208487010111156148dc578586fd5b6146e8836020830160208801614a86565b6000602082840312156148fe578081fd5b5051919050565b600060208284031215614916578081fd5b613d388261472c565b60008060408385031215614931578182fd5b61493a8361472c565b946020939093013593505050565b6000825161495a818460208701614a86565b9190910192915050565b7f416363657373436f6e74726f6c3a206163636f756e742000000000000000000081526000835161499c816017850160208801614a86565b7f206973206d697373696e6720726f6c652000000000000000000000000000000060179184019182015283516149d9816028840160208801614a86565b01602801949350505050565b6020815260008251806020840152614a04816040850160208701614a86565b601f01601f19169190910160400192915050565b60008219821115614a2b57614a2b614ac9565b500190565b600082614a4b57634e487b7160e01b81526012600452602481fd5b500490565b6000816000190483118215151615614a6a57614a6a614ac9565b500290565b600082821015614a8157614a81614ac9565b500390565b60005b83811015614aa1578181015183820152602001614a89565b83811115613e865750506000910152565b600081614ac157614ac1614ac9565b506000190190565b634e487b7160e01b600052601160045260246000fd5b634e487b7160e01b600052604160045260246000fd5b6001600160a01b03811681146122ee57600080fdfea26469706673582212206a1217e73b2a4cb502f37fd4a5c0dbab0c5a6c28eded79782a55f51cb16ceaed64736f6c63430008040033",
  "linkReferences": {},
  "deployedLinkReferences": {}
}