{"contracts/protocol/Constants.sol":{"Constants":{"abi":[{"inputs":[],"name":"ADMIN_ROLE","outputs":[{"internalType":"bytes32","name":"","type":"bytes32"}],"stateMutability":"view","type":"function"},{"inputs":[],"name":"AUTHORIZE_USER_ROLE","outputs":[{"internalType":"bytes32","name":"","type":"bytes32"}],"stateMutability":"view","type":"function"},{"inputs":[],"name":"BORROWER_ROLE","outputs":[{"internalType":"bytes32","name":"","type":"bytes32"}],"stateMutability":"view","type":"function"},{"inputs":[],"name":"MINTER_ROLE","outputs":[{"internalType":"bytes32","name":"","type":"bytes32"}],"stateMutability":"view","type":"function"},{"inputs":[],"name":"OWNER","outputs":[{"internalType":"bytes32","name":"","type":"bytes32"}],"stateMutability":"view","type":"function"},{"inputs":[],"name":"PAUSER_ROLE","outputs":[{"internalType":"bytes32","name":"","type":"bytes32"}],"stateMutability":"view","type":"function"},{"inputs":[],"name":"POOL_LOCKER_ROLE","outputs":[{"internalType":"bytes32","name":"","type":"bytes32"}],"stateMutability":"view","type":"function"},{"inputs":[],"name":"SENIOR_POOL_ROLE","outputs":[{"internalType":"bytes32","name":"","type":"bytes32"}],"stateMutability":"view","type":"function"},{"inputs":[],"name":"UPGRADER_ROLE","outputs":[{"internalType":"bytes32","name":"","type":"bytes32"}],"stateMutability":"view","type":"function"},{"inputs":[],"name":"_oneDay","outputs":[{"internalType":"uint256","name":"","type":"uint256"}],"stateMutability":"view","type":"function"},{"inputs":[],"name":"_oneMonth","outputs":[{"internalType":"uint256","name":"","type":"uint256"}],"stateMutability":"view","type":"function"},{"inputs":[],"name":"_oneMonthInDays","outputs":[{"internalType":"uint256","name":"","type":"uint256"}],"stateMutability":"view","type":"function"},{"inputs":[],"name":"_oneYearInDays","outputs":[{"internalType":"uint256","name":"","type":"uint256"}],"stateMutability":"view","type":"function"},{"inputs":[],"name":"_sixDecimal","outputs":[{"internalType":"uint256","name":"","type":"uint256"}],"stateMutability":"view","type":"function"}],"evm":{"bytecode":{"linkReferences":{},"object":"6102e861003a600b82828239805160001a60731461002d57634e487b7160e01b600052600060045260246000fd5b30600052607381538281f3fe73000000000000000000000000000000000000000030146080604052600436106100d45760003560e01c8063b640e45e11610086578063b640e45e146101a3578063bb15618d146101ab578063d5391393146101b3578063e0fdf7c6146101da578063e63ab1e914610201578063f72c0d8b14610228578063ff3779f01461024f57600080fd5b80630e7b949e146100d9578063117803e31461011257806312a5a4bb14610139578063480841341461015f57806375b238fc14610168578063910641741461018f578063a464967814610199575b600080fd5b6101007f2344277e405079ec07749d374ba0b5862a4e45a6a05ac889dbb4a991c6f9354d81565b60405190815260200160405180910390f35b6101007f6270edb7c868f86fda4adedba75108201087268ea345934db8bad688e1feb91b81565b6101007ed019c3fe031f78f9be1b03002222adc4e715a6b649958ca83ec871af2c2cd781565b61010061016881565b6101007fa49807205ce4d355092ef5a8a18f56e8913cf4a201fbe287825b095693c2177581565b610100620f424081565b6101006201518081565b610100601e81565b610100610276565b6101007f9f2df0fed2c77648de5860a4cc508cd0818c85b8b8a1ab4ceeef8d981c8956a681565b6101007ffa4b6f760d780a02797df53a6c2ccf476001dc02ee4f9b6b1426dafc21ff6baf81565b6101007f65d7a28e3265b37a6474929f336521b332c1681b933f6cb9f3376673440d862a81565b6101007f189ab7a9244df0848122154315af71fe140f3db0fe014031783b0946b8c9d2e381565b6101007fa794a061bac4a541306b6778cc120a221216f325de0020c39b67101d49158ca281565b61028462015180601e610287565b81565b60008160001904831182151516156102ad57634e487b7160e01b81526011600452602481fd5b50029056fea2646970667358221220920f4f4ab0ca3b00610f81f7028ce0c1843b4c46035b6c387ba1aada8612d5e864736f6c63430008040033","opcodes":"PUSH2 0x2E8 PUSH2 0x3A PUSH1 0xB DUP3 DUP3 DUP3 CODECOPY DUP1 MLOAD PUSH1 0x0 BYTE PUSH1 0x73 EQ PUSH2 0x2D JUMPI PUSH4 0x4E487B71 PUSH1 0xE0 SHL PUSH1 0x0 MSTORE PUSH1 0x0 PUSH1 0x4 MSTORE PUSH1 0x24 PUSH1 0x0 REVERT JUMPDEST ADDRESS PUSH1 0x0 MSTORE PUSH1 0x73 DUP2 MSTORE8 DUP3 DUP2 RETURN INVALID PUSH20 0x0 ADDRESS EQ PUSH1 0x80 PUSH1 0x40 MSTORE PUSH1 0x4 CALLDATASIZE LT PUSH2 0xD4 JUMPI PUSH1 0x0 CALLDATALOAD PUSH1 0xE0 SHR DUP1 PUSH4 0xB640E45E GT PUSH2 0x86 JUMPI DUP1 PUSH4 0xB640E45E EQ PUSH2 0x1A3 JUMPI DUP1 PUSH4 0xBB15618D EQ PUSH2 0x1AB JUMPI DUP1 PUSH4 0xD5391393 EQ PUSH2 0x1B3 JUMPI DUP1 PUSH4 0xE0FDF7C6 EQ PUSH2 0x1DA JUMPI DUP1 PUSH4 0xE63AB1E9 EQ PUSH2 0x201 JUMPI DUP1 PUSH4 0xF72C0D8B EQ PUSH2 0x228 JUMPI DUP1 PUSH4 0xFF3779F0 EQ PUSH2 0x24F JUMPI PUSH1 0x0 DUP1 REVERT JUMPDEST DUP1 PUSH4 0xE7B949E EQ PUSH2 0xD9 JUMPI DUP1 PUSH4 0x117803E3 EQ PUSH2 0x112 JUMPI DUP1 PUSH4 0x12A5A4BB EQ PUSH2 0x139 JUMPI DUP1 PUSH4 0x48084134 EQ PUSH2 0x15F JUMPI DUP1 PUSH4 0x75B238FC EQ PUSH2 0x168 JUMPI DUP1 PUSH4 0x91064174 EQ PUSH2 0x18F JUMPI DUP1 PUSH4 0xA4649678 EQ PUSH2 0x199 JUMPI JUMPDEST PUSH1 0x0 DUP1 REVERT JUMPDEST PUSH2 0x100 PUSH32 0x2344277E405079EC07749D374BA0B5862A4E45A6A05AC889DBB4A991C6F9354D DUP2 JUMP JUMPDEST PUSH1 0x40 MLOAD SWAP1 DUP2 MSTORE PUSH1 0x20 ADD PUSH1 0x40 MLOAD DUP1 SWAP2 SUB SWAP1 RETURN JUMPDEST PUSH2 0x100 PUSH32 0x6270EDB7C868F86FDA4ADEDBA75108201087268EA345934DB8BAD688E1FEB91B DUP2 JUMP JUMPDEST PUSH2 0x100 PUSH31 0xD019C3FE031F78F9BE1B03002222ADC4E715A6B649958CA83EC871AF2C2CD7 DUP2 JUMP JUMPDEST PUSH2 0x100 PUSH2 0x168 DUP2 JUMP JUMPDEST PUSH2 0x100 PUSH32 0xA49807205CE4D355092EF5A8A18F56E8913CF4A201FBE287825B095693C21775 DUP2 JUMP JUMPDEST PUSH2 0x100 PUSH3 0xF4240 DUP2 JUMP JUMPDEST PUSH2 0x100 PUSH3 0x15180 DUP2 JUMP JUMPDEST PUSH2 0x100 PUSH1 0x1E DUP2 JUMP JUMPDEST PUSH2 0x100 PUSH2 0x276 JUMP JUMPDEST PUSH2 0x100 PUSH32 0x9F2DF0FED2C77648DE5860A4CC508CD0818C85B8B8A1AB4CEEEF8D981C8956A6 DUP2 JUMP JUMPDEST PUSH2 0x100 PUSH32 0xFA4B6F760D780A02797DF53A6C2CCF476001DC02EE4F9B6B1426DAFC21FF6BAF DUP2 JUMP JUMPDEST PUSH2 0x100 PUSH32 0x65D7A28E3265B37A6474929F336521B332C1681B933F6CB9F3376673440D862A DUP2 JUMP JUMPDEST PUSH2 0x100 PUSH32 0x189AB7A9244DF0848122154315AF71FE140F3DB0FE014031783B0946B8C9D2E3 DUP2 JUMP JUMPDEST PUSH2 0x100 PUSH32 0xA794A061BAC4A541306B6778CC120A221216F325DE0020C39B67101D49158CA2 DUP2 JUMP JUMPDEST PUSH2 0x284 PUSH3 0x15180 PUSH1 0x1E PUSH2 0x287 JUMP JUMPDEST DUP2 JUMP JUMPDEST PUSH1 0x0 DUP2 PUSH1 0x0 NOT DIV DUP4 GT DUP3 ISZERO ISZERO AND ISZERO PUSH2 0x2AD JUMPI PUSH4 0x4E487B71 PUSH1 0xE0 SHL DUP2 MSTORE PUSH1 0x11 PUSH1 0x4 MSTORE PUSH1 0x24 DUP2 REVERT JUMPDEST POP MUL SWAP1 JUMP INVALID LOG2 PUSH5 0x6970667358 0x22 SLT KECCAK256 SWAP3 0xF 0x4F 0x4A 0xB0 0xCA EXTCODESIZE STOP PUSH2 0xF81 0xF7 MUL DUP13 0xE0 0xC1 DUP5 EXTCODESIZE 0x4C CHAINID SUB JUMPDEST PUSH13 0x387BA1AADA8612D5E864736F6C PUSH4 0x43000804 STOP CALLER "},"methodIdentifiers":{"ADMIN_ROLE()":"75b238fc","AUTHORIZE_USER_ROLE()":"12a5a4bb","BORROWER_ROLE()":"0e7b949e","MINTER_ROLE()":"d5391393","OWNER()":"117803e3","PAUSER_ROLE()":"e63ab1e9","POOL_LOCKER_ROLE()":"e0fdf7c6","SENIOR_POOL_ROLE()":"ff3779f0","UPGRADER_ROLE()":"f72c0d8b","_oneDay()":"a4649678","_oneMonth()":"bb15618d","_oneMonthInDays()":"b640e45e","_oneYearInDays()":"48084134","_sixDecimal()":"91064174"}},"storageLayout":{"storage":[],"types":null}}}}