{
  "contracts/test-contract/MockInvestor.sol": {
    "MockInvestor": {
      "abi": [
        {
          "inputs": [
            {
              "internalType": "address",
              "name": "",
              "type": "address"
            },
            {
              "internalType": "bytes32",
              "name": "",
              "type": "bytes32"
            }
          ],
          "name": "addOpportunity",
          "outputs": [],
          "stateMutability": "nonpayable",
          "type": "function"
        },
        {
          "inputs": [
            {
              "internalType": "address",
              "name": "",
              "type": "address"
            },
            {
              "internalType": "bytes32",
              "name": "",
              "type": "bytes32"
            }
          ],
          "name": "isExistInInvestor",
          "outputs": [
            {
              "internalType": "bool",
              "name": "",
              "type": "bool"
            }
          ],
          "stateMutability": "pure",
          "type": "function"
        },
        {
          "inputs": [
            {
              "internalType": "address",
              "name": "",
              "type": "address"
            },
            {
              "internalType": "bytes32",
              "name": "",
              "type": "bytes32"
            }
          ],
          "name": "removeOpportunity",
          "outputs": [],
          "stateMutability": "nonpayable",
          "type": "function"
        }
      ],
      "evm": {
        "bytecode": {
          "linkReferences": {},
          "object": "608060405234801561001057600080fd5b5060e38061001f6000396000f3fe6080604052348015600f57600080fd5b5060043610603c5760003560e01c8063a68a1322146041578063de9d9ee8146041578063e954539d146052575b600080fd5b6050604c3660046079565b5050565b005b6065605d3660046079565b600192915050565b604051901515815260200160405180910390f35b60008060408385031215608a578182fd5b82356001600160a01b0381168114609f578283fd5b94602093909301359350505056fea26469706673582212207b9daa8a47a6cdc1c09a004138df65937279878360e09d1ec4901fba5dbb5bc464736f6c63430008040033",
          "opcodes": "PUSH1 0x80 PUSH1 0x40 MSTORE CALLVALUE DUP1 ISZERO PUSH2 0x10 JUMPI PUSH1 0x0 DUP1 REVERT JUMPDEST POP PUSH1 0xE3 DUP1 PUSH2 0x1F PUSH1 0x0 CODECOPY PUSH1 0x0 RETURN INVALID PUSH1 0x80 PUSH1 0x40 MSTORE CALLVALUE DUP1 ISZERO PUSH1 0xF JUMPI PUSH1 0x0 DUP1 REVERT JUMPDEST POP PUSH1 0x4 CALLDATASIZE LT PUSH1 0x3C JUMPI PUSH1 0x0 CALLDATALOAD PUSH1 0xE0 SHR DUP1 PUSH4 0xA68A1322 EQ PUSH1 0x41 JUMPI DUP1 PUSH4 0xDE9D9EE8 EQ PUSH1 0x41 JUMPI DUP1 PUSH4 0xE954539D EQ PUSH1 0x52 JUMPI JUMPDEST PUSH1 0x0 DUP1 REVERT JUMPDEST PUSH1 0x50 PUSH1 0x4C CALLDATASIZE PUSH1 0x4 PUSH1 0x79 JUMP JUMPDEST POP POP JUMP JUMPDEST STOP JUMPDEST PUSH1 0x65 PUSH1 0x5D CALLDATASIZE PUSH1 0x4 PUSH1 0x79 JUMP JUMPDEST PUSH1 0x1 SWAP3 SWAP2 POP POP JUMP JUMPDEST PUSH1 0x40 MLOAD SWAP1 ISZERO ISZERO DUP2 MSTORE PUSH1 0x20 ADD PUSH1 0x40 MLOAD DUP1 SWAP2 SUB SWAP1 RETURN JUMPDEST PUSH1 0x0 DUP1 PUSH1 0x40 DUP4 DUP6 SUB SLT ISZERO PUSH1 0x8A JUMPI DUP2 DUP3 REVERT JUMPDEST DUP3 CALLDATALOAD PUSH1 0x1 PUSH1 0x1 PUSH1 0xA0 SHL SUB DUP2 AND DUP2 EQ PUSH1 0x9F JUMPI DUP3 DUP4 REVERT JUMPDEST SWAP5 PUSH1 0x20 SWAP4 SWAP1 SWAP4 ADD CALLDATALOAD SWAP4 POP POP POP JUMP INVALID LOG2 PUSH5 0x6970667358 0x22 SLT KECCAK256 PUSH28 0x9DAA8A47A6CDC1C09A004138DF65937279878360E09D1EC4901FBA5D 0xBB JUMPDEST 0xC4 PUSH5 0x736F6C6343 STOP ADDMOD DIV STOP CALLER "
        },
        "methodIdentifiers": {
          "addOpportunity(address,bytes32)": "a68a1322",
          "isExistInInvestor(address,bytes32)": "e954539d",
          "removeOpportunity(address,bytes32)": "de9d9ee8"
        }
      },
      "storageLayout": {
        "storage": [],
        "types": null
      }
    }
  }
}