{"contracts/test-contract/MockOpportunityPool.sol":{"MockOpportunityPool":{"abi":[{"inputs":[{"internalType":"address","name":"investorAddress","type":"address"},{"internalType":"address","name":"_investor","type":"address"},{"internalType":"bytes32","name":"_id","type":"bytes32"}],"name":"addOpportunity","outputs":[],"stateMutability":"nonpayable","type":"function"},{"inputs":[{"internalType":"uint8","name":"_subpoolId","type":"uint8"},{"internalType":"uint256","name":"amount","type":"uint256"}],"name":"deposit","outputs":[],"stateMutability":"nonpayable","type":"function"},{"inputs":[{"internalType":"address","name":"investorAddress","type":"address"},{"internalType":"address","name":"_investor","type":"address"}],"name":"getOpportunityOfInvestor","outputs":[{"internalType":"bytes32[]","name":"","type":"bytes32[]"}],"stateMutability":"view","type":"function"},{"inputs":[],"name":"getSeniorPoolWithdrawableAmount","outputs":[{"internalType":"uint256","name":"","type":"uint256"}],"stateMutability":"view","type":"function"},{"inputs":[],"name":"getSeniorProfit","outputs":[{"internalType":"uint256","name":"","type":"uint256"}],"stateMutability":"view","type":"function"},{"inputs":[],"name":"getSeniorTotalDepositable","outputs":[{"internalType":"uint256","name":"","type":"uint256"}],"stateMutability":"view","type":"function"},{"inputs":[{"internalType":"uint256","name":"_nextRepayment","type":"uint256"}],"name":"increaseNextRepaymentTime","outputs":[],"stateMutability":"nonpayable","type":"function"},{"inputs":[{"internalType":"address","name":"investorAddress","type":"address"},{"internalType":"address","name":"_investor","type":"address"},{"internalType":"bytes32","name":"_id","type":"bytes32"}],"name":"isExistInInvestor","outputs":[{"internalType":"bool","name":"","type":"bool"}],"stateMutability":"view","type":"function"},{"inputs":[{"internalType":"address","name":"","type":"address"}],"name":"isStaking","outputs":[{"internalType":"bool","name":"","type":"bool"}],"stateMutability":"pure","type":"function"},{"inputs":[],"name":"nextRepaymentTime","outputs":[{"internalType":"uint256","name":"","type":"uint256"}],"stateMutability":"view","type":"function"},{"inputs":[{"internalType":"address","name":"investorAddress","type":"address"},{"internalType":"address","name":"_investor","type":"address"},{"internalType":"bytes32","name":"_id","type":"bytes32"}],"name":"removeOpportunity","outputs":[],"stateMutability":"nonpayable","type":"function"},{"inputs":[{"internalType":"bool","name":"_isWriteOff","type":"bool"},{"internalType":"bytes32","name":"opportunityId","type":"bytes32"},{"internalType":"uint256","name":"_amount","type":"uint256"},{"internalType":"address","name":"_seniorPoolAddress","type":"address"}],"name":"repayment","outputs":[],"stateMutability":"nonpayable","type":"function"},{"inputs":[{"internalType":"uint256","name":"_seniorPoolWithdrawableAmount","type":"uint256"}],"name":"setSeniorPoolWithdrawableAmount","outputs":[],"stateMutability":"nonpayable","type":"function"},{"inputs":[{"internalType":"uint256","name":"_seniorProfit","type":"uint256"}],"name":"setSeniorProfit","outputs":[],"stateMutability":"nonpayable","type":"function"},{"inputs":[{"internalType":"uint256","name":"_seniorTotalDepositable","type":"uint256"}],"name":"setSeniorTotalDepositable","outputs":[],"stateMutability":"nonpayable","type":"function"},{"inputs":[],"name":"writeOffOpportunity","outputs":[],"stateMutability":"nonpayable","type":"function"}],"evm":{"bytecode":{"linkReferences":{},"object":"608060405234801561001057600080fd5b5061072b806100206000396000f3fe608060405234801561001057600080fd5b50600436106100e05760003560e01c80639f964fe6116100875780639f964fe614610192578063a56bf82a1461019a578063b6612496146101ad578063c29b9918146101c0578063d4d85448146101d3578063d661d320146101e6578063df9fd1c1146101ee578063f4d4c9d7146101f657600080fd5b8063075989a9146100e5578063257c27361461010e57806328d797c21461011057806328e95369146101235780634ebbcff4146101465780636f49712b1461015957806383933a2b1461016d5780638f26582e1461017f575b600080fd5b6100f86100f3366004610475565b610208565b6040516101059190610666565b60405180910390f35b005b61010e61011e3660046104a7565b610292565b6101366101313660046104a7565b6102fa565b6040519015158152602001610105565b61010e610154366004610605565b600355565b610136610167366004610454565b50600190565b6003545b604051908152602001610105565b61010e61018d366004610605565b600255565b600154610171565b61010e6101a83660046104a7565b610386565b61010e6101bb366004610605565b6103b6565b61010e6101ce3660046105be565b6103c6565b61010e6101e1366004610605565b600155565b600254610171565b600054610171565b61010e61020436600461061d565b5050565b604051630336af1560e31b81526001600160a01b03828116600483015260609184918216906319b578a89060240160006040518083038186803b15801561024e57600080fd5b505afa158015610262573d6000803e3d6000fd5b505050506040513d6000823e601f3d908101601f1916820160405261028a91908101906104e2565b949350505050565b604051631bd3b3dd60e31b815283906001600160a01b0382169063de9d9ee8906102c2908690869060040161064d565b600060405180830381600087803b1580156102dc57600080fd5b505af11580156102f0573d6000803e3d6000fd5b5050505050505050565b60405163e954539d60e01b815260009084906001600160a01b0382169063e954539d9061032d908790879060040161064d565b60206040518083038186803b15801561034557600080fd5b505afa158015610359573d6000803e3d6000fd5b505050506040513d601f19601f8201168201806040525081019061037d91906105a2565b95945050505050565b604051635345099160e11b815283906001600160a01b0382169063a68a1322906102c2908690869060040161064d565b6103c081426106aa565b60005550565b604051630387c6d160e31b81528415156004820152602481018490526044810183905281906001600160a01b03821690631c3e368890606401600060405180830381600087803b15801561041957600080fd5b505af115801561042d573d6000803e3d6000fd5b505050505050505050565b80356001600160a01b038116811461044f57600080fd5b919050565b600060208284031215610465578081fd5b61046e82610438565b9392505050565b60008060408385031215610487578081fd5b61049083610438565b915061049e60208401610438565b90509250929050565b6000806000606084860312156104bb578081fd5b6104c484610438565b92506104d260208501610438565b9150604084013590509250925092565b600060208083850312156104f4578182fd5b825167ffffffffffffffff8082111561050b578384fd5b818501915085601f83011261051e578384fd5b815181811115610530576105306106ce565b8060051b604051601f19603f83011681018181108582111715610555576105556106ce565b604052828152858101935084860182860187018a1015610573578788fd5b8795505b83861015610595578051855260019590950194938601938601610577565b5098975050505050505050565b6000602082840312156105b3578081fd5b815161046e816106e4565b600080600080608085870312156105d3578081fd5b84356105de816106e4565b935060208501359250604085013591506105fa60608601610438565b905092959194509250565b600060208284031215610616578081fd5b5035919050565b6000806040838503121561062f578182fd5b823560ff8116811461063f578283fd5b946020939093013593505050565b6001600160a01b03929092168252602082015260400190565b6020808252825182820181905260009190848201906040850190845b8181101561069e57835183529284019291840191600101610682565b50909695505050505050565b600082198211156106c957634e487b7160e01b81526011600452602481fd5b500190565b634e487b7160e01b600052604160045260246000fd5b80151581146106f257600080fd5b5056fea26469706673582212207ad0f16c27107bcb3fcbbd782757f8eeeb62861f31ed6c16ffa8699bef8cdab864736f6c63430008040033","opcodes":"PUSH1 0x80 PUSH1 0x40 MSTORE CALLVALUE DUP1 ISZERO PUSH2 0x10 JUMPI PUSH1 0x0 DUP1 REVERT JUMPDEST POP PUSH2 0x72B DUP1 PUSH2 0x20 PUSH1 0x0 CODECOPY PUSH1 0x0 RETURN INVALID PUSH1 0x80 PUSH1 0x40 MSTORE CALLVALUE DUP1 ISZERO PUSH2 0x10 JUMPI PUSH1 0x0 DUP1 REVERT JUMPDEST POP PUSH1 0x4 CALLDATASIZE LT PUSH2 0xE0 JUMPI PUSH1 0x0 CALLDATALOAD PUSH1 0xE0 SHR DUP1 PUSH4 0x9F964FE6 GT PUSH2 0x87 JUMPI DUP1 PUSH4 0x9F964FE6 EQ PUSH2 0x192 JUMPI DUP1 PUSH4 0xA56BF82A EQ PUSH2 0x19A JUMPI DUP1 PUSH4 0xB6612496 EQ PUSH2 0x1AD JUMPI DUP1 PUSH4 0xC29B9918 EQ PUSH2 0x1C0 JUMPI DUP1 PUSH4 0xD4D85448 EQ PUSH2 0x1D3 JUMPI DUP1 PUSH4 0xD661D320 EQ PUSH2 0x1E6 JUMPI DUP1 PUSH4 0xDF9FD1C1 EQ PUSH2 0x1EE JUMPI DUP1 PUSH4 0xF4D4C9D7 EQ PUSH2 0x1F6 JUMPI PUSH1 0x0 DUP1 REVERT JUMPDEST DUP1 PUSH4 0x75989A9 EQ PUSH2 0xE5 JUMPI DUP1 PUSH4 0x257C2736 EQ PUSH2 0x10E JUMPI DUP1 PUSH4 0x28D797C2 EQ PUSH2 0x110 JUMPI DUP1 PUSH4 0x28E95369 EQ PUSH2 0x123 JUMPI DUP1 PUSH4 0x4EBBCFF4 EQ PUSH2 0x146 JUMPI DUP1 PUSH4 0x6F49712B EQ PUSH2 0x159 JUMPI DUP1 PUSH4 0x83933A2B EQ PUSH2 0x16D JUMPI DUP1 PUSH4 0x8F26582E EQ PUSH2 0x17F JUMPI JUMPDEST PUSH1 0x0 DUP1 REVERT JUMPDEST PUSH2 0xF8 PUSH2 0xF3 CALLDATASIZE PUSH1 0x4 PUSH2 0x475 JUMP JUMPDEST PUSH2 0x208 JUMP JUMPDEST PUSH1 0x40 MLOAD PUSH2 0x105 SWAP2 SWAP1 PUSH2 0x666 JUMP JUMPDEST PUSH1 0x40 MLOAD DUP1 SWAP2 SUB SWAP1 RETURN JUMPDEST STOP JUMPDEST PUSH2 0x10E PUSH2 0x11E CALLDATASIZE PUSH1 0x4 PUSH2 0x4A7 JUMP JUMPDEST PUSH2 0x292 JUMP JUMPDEST PUSH2 0x136 PUSH2 0x131 CALLDATASIZE PUSH1 0x4 PUSH2 0x4A7 JUMP JUMPDEST PUSH2 0x2FA JUMP JUMPDEST PUSH1 0x40 MLOAD SWAP1 ISZERO ISZERO DUP2 MSTORE PUSH1 0x20 ADD PUSH2 0x105 JUMP JUMPDEST PUSH2 0x10E PUSH2 0x154 CALLDATASIZE PUSH1 0x4 PUSH2 0x605 JUMP JUMPDEST PUSH1 0x3 SSTORE JUMP JUMPDEST PUSH2 0x136 PUSH2 0x167 CALLDATASIZE PUSH1 0x4 PUSH2 0x454 JUMP JUMPDEST POP PUSH1 0x1 SWAP1 JUMP JUMPDEST PUSH1 0x3 SLOAD JUMPDEST PUSH1 0x40 MLOAD SWAP1 DUP2 MSTORE PUSH1 0x20 ADD PUSH2 0x105 JUMP JUMPDEST PUSH2 0x10E PUSH2 0x18D CALLDATASIZE PUSH1 0x4 PUSH2 0x605 JUMP JUMPDEST PUSH1 0x2 SSTORE JUMP JUMPDEST PUSH1 0x1 SLOAD PUSH2 0x171 JUMP JUMPDEST PUSH2 0x10E PUSH2 0x1A8 CALLDATASIZE PUSH1 0x4 PUSH2 0x4A7 JUMP JUMPDEST PUSH2 0x386 JUMP JUMPDEST PUSH2 0x10E PUSH2 0x1BB CALLDATASIZE PUSH1 0x4 PUSH2 0x605 JUMP JUMPDEST PUSH2 0x3B6 JUMP JUMPDEST PUSH2 0x10E PUSH2 0x1CE CALLDATASIZE PUSH1 0x4 PUSH2 0x5BE JUMP JUMPDEST PUSH2 0x3C6 JUMP JUMPDEST PUSH2 0x10E PUSH2 0x1E1 CALLDATASIZE PUSH1 0x4 PUSH2 0x605 JUMP JUMPDEST PUSH1 0x1 SSTORE JUMP JUMPDEST PUSH1 0x2 SLOAD PUSH2 0x171 JUMP JUMPDEST PUSH1 0x0 SLOAD PUSH2 0x171 JUMP JUMPDEST PUSH2 0x10E PUSH2 0x204 CALLDATASIZE PUSH1 0x4 PUSH2 0x61D JUMP JUMPDEST POP POP JUMP JUMPDEST PUSH1 0x40 MLOAD PUSH4 0x336AF15 PUSH1 0xE3 SHL DUP2 MSTORE PUSH1 0x1 PUSH1 0x1 PUSH1 0xA0 SHL SUB DUP3 DUP2 AND PUSH1 0x4 DUP4 ADD MSTORE PUSH1 0x60 SWAP2 DUP5 SWAP2 DUP3 AND SWAP1 PUSH4 0x19B578A8 SWAP1 PUSH1 0x24 ADD PUSH1 0x0 PUSH1 0x40 MLOAD DUP1 DUP4 SUB DUP2 DUP7 DUP1 EXTCODESIZE ISZERO DUP1 ISZERO PUSH2 0x24E JUMPI PUSH1 0x0 DUP1 REVERT JUMPDEST POP GAS STATICCALL ISZERO DUP1 ISZERO PUSH2 0x262 JUMPI RETURNDATASIZE PUSH1 0x0 DUP1 RETURNDATACOPY RETURNDATASIZE PUSH1 0x0 REVERT JUMPDEST POP POP POP POP PUSH1 0x40 MLOAD RETURNDATASIZE PUSH1 0x0 DUP3 RETURNDATACOPY PUSH1 0x1F RETURNDATASIZE SWAP1 DUP2 ADD PUSH1 0x1F NOT AND DUP3 ADD PUSH1 0x40 MSTORE PUSH2 0x28A SWAP2 SWAP1 DUP2 ADD SWAP1 PUSH2 0x4E2 JUMP JUMPDEST SWAP5 SWAP4 POP POP POP POP JUMP JUMPDEST PUSH1 0x40 MLOAD PUSH4 0x1BD3B3DD PUSH1 0xE3 SHL DUP2 MSTORE DUP4 SWAP1 PUSH1 0x1 PUSH1 0x1 PUSH1 0xA0 SHL SUB DUP3 AND SWAP1 PUSH4 0xDE9D9EE8 SWAP1 PUSH2 0x2C2 SWAP1 DUP7 SWAP1 DUP7 SWAP1 PUSH1 0x4 ADD PUSH2 0x64D JUMP JUMPDEST PUSH1 0x0 PUSH1 0x40 MLOAD DUP1 DUP4 SUB DUP2 PUSH1 0x0 DUP8 DUP1 EXTCODESIZE ISZERO DUP1 ISZERO PUSH2 0x2DC JUMPI PUSH1 0x0 DUP1 REVERT JUMPDEST POP GAS CALL ISZERO DUP1 ISZERO PUSH2 0x2F0 JUMPI RETURNDATASIZE PUSH1 0x0 DUP1 RETURNDATACOPY RETURNDATASIZE PUSH1 0x0 REVERT JUMPDEST POP POP POP POP POP POP POP POP JUMP JUMPDEST PUSH1 0x40 MLOAD PUSH4 0xE954539D PUSH1 0xE0 SHL DUP2 MSTORE PUSH1 0x0 SWAP1 DUP5 SWAP1 PUSH1 0x1 PUSH1 0x1 PUSH1 0xA0 SHL SUB DUP3 AND SWAP1 PUSH4 0xE954539D SWAP1 PUSH2 0x32D SWAP1 DUP8 SWAP1 DUP8 SWAP1 PUSH1 0x4 ADD PUSH2 0x64D JUMP JUMPDEST PUSH1 0x20 PUSH1 0x40 MLOAD DUP1 DUP4 SUB DUP2 DUP7 DUP1 EXTCODESIZE ISZERO DUP1 ISZERO PUSH2 0x345 JUMPI PUSH1 0x0 DUP1 REVERT JUMPDEST POP GAS STATICCALL ISZERO DUP1 ISZERO PUSH2 0x359 JUMPI RETURNDATASIZE PUSH1 0x0 DUP1 RETURNDATACOPY RETURNDATASIZE PUSH1 0x0 REVERT JUMPDEST POP POP POP POP PUSH1 0x40 MLOAD RETURNDATASIZE PUSH1 0x1F NOT PUSH1 0x1F DUP3 ADD AND DUP3 ADD DUP1 PUSH1 0x40 MSTORE POP DUP2 ADD SWAP1 PUSH2 0x37D SWAP2 SWAP1 PUSH2 0x5A2 JUMP JUMPDEST SWAP6 SWAP5 POP POP POP POP POP JUMP JUMPDEST PUSH1 0x40 MLOAD PUSH4 0x53450991 PUSH1 0xE1 SHL DUP2 MSTORE DUP4 SWAP1 PUSH1 0x1 PUSH1 0x1 PUSH1 0xA0 SHL SUB DUP3 AND SWAP1 PUSH4 0xA68A1322 SWAP1 PUSH2 0x2C2 SWAP1 DUP7 SWAP1 DUP7 SWAP1 PUSH1 0x4 ADD PUSH2 0x64D JUMP JUMPDEST PUSH2 0x3C0 DUP2 TIMESTAMP PUSH2 0x6AA JUMP JUMPDEST PUSH1 0x0 SSTORE POP JUMP JUMPDEST PUSH1 0x40 MLOAD PUSH4 0x387C6D1 PUSH1 0xE3 SHL DUP2 MSTORE DUP5 ISZERO ISZERO PUSH1 0x4 DUP3 ADD MSTORE PUSH1 0x24 DUP2 ADD DUP5 SWAP1 MSTORE PUSH1 0x44 DUP2 ADD DUP4 SWAP1 MSTORE DUP2 SWAP1 PUSH1 0x1 PUSH1 0x1 PUSH1 0xA0 SHL SUB DUP3 AND SWAP1 PUSH4 0x1C3E3688 SWAP1 PUSH1 0x64 ADD PUSH1 0x0 PUSH1 0x40 MLOAD DUP1 DUP4 SUB DUP2 PUSH1 0x0 DUP8 DUP1 EXTCODESIZE ISZERO DUP1 ISZERO PUSH2 0x419 JUMPI PUSH1 0x0 DUP1 REVERT JUMPDEST POP GAS CALL ISZERO DUP1 ISZERO PUSH2 0x42D JUMPI RETURNDATASIZE PUSH1 0x0 DUP1 RETURNDATACOPY RETURNDATASIZE PUSH1 0x0 REVERT JUMPDEST POP POP POP POP POP POP POP POP POP JUMP JUMPDEST DUP1 CALLDATALOAD PUSH1 0x1 PUSH1 0x1 PUSH1 0xA0 SHL SUB DUP2 AND DUP2 EQ PUSH2 0x44F JUMPI PUSH1 0x0 DUP1 REVERT JUMPDEST SWAP2 SWAP1 POP JUMP JUMPDEST PUSH1 0x0 PUSH1 0x20 DUP3 DUP5 SUB SLT ISZERO PUSH2 0x465 JUMPI DUP1 DUP2 REVERT JUMPDEST PUSH2 0x46E DUP3 PUSH2 0x438 JUMP JUMPDEST SWAP4 SWAP3 POP POP POP JUMP JUMPDEST PUSH1 0x0 DUP1 PUSH1 0x40 DUP4 DUP6 SUB SLT ISZERO PUSH2 0x487 JUMPI DUP1 DUP2 REVERT JUMPDEST PUSH2 0x490 DUP4 PUSH2 0x438 JUMP JUMPDEST SWAP2 POP PUSH2 0x49E PUSH1 0x20 DUP5 ADD PUSH2 0x438 JUMP JUMPDEST SWAP1 POP SWAP3 POP SWAP3 SWAP1 POP JUMP JUMPDEST PUSH1 0x0 DUP1 PUSH1 0x0 PUSH1 0x60 DUP5 DUP7 SUB SLT ISZERO PUSH2 0x4BB JUMPI DUP1 DUP2 REVERT JUMPDEST PUSH2 0x4C4 DUP5 PUSH2 0x438 JUMP JUMPDEST SWAP3 POP PUSH2 0x4D2 PUSH1 0x20 DUP6 ADD PUSH2 0x438 JUMP JUMPDEST SWAP2 POP PUSH1 0x40 DUP5 ADD CALLDATALOAD SWAP1 POP SWAP3 POP SWAP3 POP SWAP3 JUMP JUMPDEST PUSH1 0x0 PUSH1 0x20 DUP1 DUP4 DUP6 SUB SLT ISZERO PUSH2 0x4F4 JUMPI DUP2 DUP3 REVERT JUMPDEST DUP3 MLOAD PUSH8 0xFFFFFFFFFFFFFFFF DUP1 DUP3 GT ISZERO PUSH2 0x50B JUMPI DUP4 DUP5 REVERT JUMPDEST DUP2 DUP6 ADD SWAP2 POP DUP6 PUSH1 0x1F DUP4 ADD SLT PUSH2 0x51E JUMPI DUP4 DUP5 REVERT JUMPDEST DUP2 MLOAD DUP2 DUP2 GT ISZERO PUSH2 0x530 JUMPI PUSH2 0x530 PUSH2 0x6CE JUMP JUMPDEST DUP1 PUSH1 0x5 SHL PUSH1 0x40 MLOAD PUSH1 0x1F NOT PUSH1 0x3F DUP4 ADD AND DUP2 ADD DUP2 DUP2 LT DUP6 DUP3 GT OR ISZERO PUSH2 0x555 JUMPI PUSH2 0x555 PUSH2 0x6CE JUMP JUMPDEST PUSH1 0x40 MSTORE DUP3 DUP2 MSTORE DUP6 DUP2 ADD SWAP4 POP DUP5 DUP7 ADD DUP3 DUP7 ADD DUP8 ADD DUP11 LT ISZERO PUSH2 0x573 JUMPI DUP8 DUP9 REVERT JUMPDEST DUP8 SWAP6 POP JUMPDEST DUP4 DUP7 LT ISZERO PUSH2 0x595 JUMPI DUP1 MLOAD DUP6 MSTORE PUSH1 0x1 SWAP6 SWAP1 SWAP6 ADD SWAP5 SWAP4 DUP7 ADD SWAP4 DUP7 ADD PUSH2 0x577 JUMP JUMPDEST POP SWAP9 SWAP8 POP POP POP POP POP POP POP POP JUMP JUMPDEST PUSH1 0x0 PUSH1 0x20 DUP3 DUP5 SUB SLT ISZERO PUSH2 0x5B3 JUMPI DUP1 DUP2 REVERT JUMPDEST DUP2 MLOAD PUSH2 0x46E DUP2 PUSH2 0x6E4 JUMP JUMPDEST PUSH1 0x0 DUP1 PUSH1 0x0 DUP1 PUSH1 0x80 DUP6 DUP8 SUB SLT ISZERO PUSH2 0x5D3 JUMPI DUP1 DUP2 REVERT JUMPDEST DUP5 CALLDATALOAD PUSH2 0x5DE DUP2 PUSH2 0x6E4 JUMP JUMPDEST SWAP4 POP PUSH1 0x20 DUP6 ADD CALLDATALOAD SWAP3 POP PUSH1 0x40 DUP6 ADD CALLDATALOAD SWAP2 POP PUSH2 0x5FA PUSH1 0x60 DUP7 ADD PUSH2 0x438 JUMP JUMPDEST SWAP1 POP SWAP3 SWAP6 SWAP2 SWAP5 POP SWAP3 POP JUMP JUMPDEST PUSH1 0x0 PUSH1 0x20 DUP3 DUP5 SUB SLT ISZERO PUSH2 0x616 JUMPI DUP1 DUP2 REVERT JUMPDEST POP CALLDATALOAD SWAP2 SWAP1 POP JUMP JUMPDEST PUSH1 0x0 DUP1 PUSH1 0x40 DUP4 DUP6 SUB SLT ISZERO PUSH2 0x62F JUMPI DUP2 DUP3 REVERT JUMPDEST DUP3 CALLDATALOAD PUSH1 0xFF DUP2 AND DUP2 EQ PUSH2 0x63F JUMPI DUP3 DUP4 REVERT JUMPDEST SWAP5 PUSH1 0x20 SWAP4 SWAP1 SWAP4 ADD CALLDATALOAD SWAP4 POP POP POP JUMP JUMPDEST PUSH1 0x1 PUSH1 0x1 PUSH1 0xA0 SHL SUB SWAP3 SWAP1 SWAP3 AND DUP3 MSTORE PUSH1 0x20 DUP3 ADD MSTORE PUSH1 0x40 ADD SWAP1 JUMP JUMPDEST PUSH1 0x20 DUP1 DUP3 MSTORE DUP3 MLOAD DUP3 DUP3 ADD DUP2 SWAP1 MSTORE PUSH1 0x0 SWAP2 SWAP1 DUP5 DUP3 ADD SWAP1 PUSH1 0x40 DUP6 ADD SWAP1 DUP5 JUMPDEST DUP2 DUP2 LT ISZERO PUSH2 0x69E JUMPI DUP4 MLOAD DUP4 MSTORE SWAP3 DUP5 ADD SWAP3 SWAP2 DUP5 ADD SWAP2 PUSH1 0x1 ADD PUSH2 0x682 JUMP JUMPDEST POP SWAP1 SWAP7 SWAP6 POP POP POP POP POP POP JUMP JUMPDEST PUSH1 0x0 DUP3 NOT DUP3 GT ISZERO PUSH2 0x6C9 JUMPI PUSH4 0x4E487B71 PUSH1 0xE0 SHL DUP2 MSTORE PUSH1 0x11 PUSH1 0x4 MSTORE PUSH1 0x24 DUP2 REVERT JUMPDEST POP ADD SWAP1 JUMP JUMPDEST PUSH4 0x4E487B71 PUSH1 0xE0 SHL PUSH1 0x0 MSTORE PUSH1 0x41 PUSH1 0x4 MSTORE PUSH1 0x24 PUSH1 0x0 REVERT JUMPDEST DUP1 ISZERO ISZERO DUP2 EQ PUSH2 0x6F2 JUMPI PUSH1 0x0 DUP1 REVERT JUMPDEST POP JUMP INVALID LOG2 PUSH5 0x6970667358 0x22 SLT KECCAK256 PUSH27 0xD0F16C27107BCB3FCBBD782757F8EEEB62861F31ED6C16FFA8699B 0xEF DUP13 0xDA 0xB8 PUSH5 0x736F6C6343 STOP ADDMOD DIV STOP CALLER "},"methodIdentifiers":{"addOpportunity(address,address,bytes32)":"a56bf82a","deposit(uint8,uint256)":"f4d4c9d7","getOpportunityOfInvestor(address,address)":"075989a9","getSeniorPoolWithdrawableAmount()":"83933a2b","getSeniorProfit()":"d661d320","getSeniorTotalDepositable()":"9f964fe6","increaseNextRepaymentTime(uint256)":"b6612496","isExistInInvestor(address,address,bytes32)":"28e95369","isStaking(address)":"6f49712b","nextRepaymentTime()":"df9fd1c1","removeOpportunity(address,address,bytes32)":"28d797c2","repayment(bool,bytes32,uint256,address)":"c29b9918","setSeniorPoolWithdrawableAmount(uint256)":"4ebbcff4","setSeniorProfit(uint256)":"8f26582e","setSeniorTotalDepositable(uint256)":"d4d85448","writeOffOpportunity()":"257c2736"}},"storageLayout":{"storage":[{"astId":6891,"contract":"contracts/test-contract/MockOpportunityPool.sol:MockOpportunityPool","label":"nextRepayment","offset":0,"slot":"0","type":"t_uint256"},{"astId":6893,"contract":"contracts/test-contract/MockOpportunityPool.sol:MockOpportunityPool","label":"seniorTotalDepositable","offset":0,"slot":"1","type":"t_uint256"},{"astId":6895,"contract":"contracts/test-contract/MockOpportunityPool.sol:MockOpportunityPool","label":"seniorProfit","offset":0,"slot":"2","type":"t_uint256"},{"astId":6897,"contract":"contracts/test-contract/MockOpportunityPool.sol:MockOpportunityPool","label":"seniorPoolWithdrawableAmount","offset":0,"slot":"3","type":"t_uint256"}],"types":{"t_uint256":{"encoding":"inplace","label":"uint256","numberOfBytes":"32"}}}}}}